{
	"src/Farm.sol": {
		"Farm": {
			"abi": [
				{
					"inputs": [],
					"stateMutability": "nonpayable",
					"type": "constructor"
				},
				{
					"anonymous": false,
					"inputs": [
						{
							"indexed": true,
							"internalType": "uint256",
							"name": "pid",
							"type": "uint256"
						},
						{
							"indexed": false,
							"internalType": "address",
							"name": "lpToken",
							"type": "address"
						},
						{
							"indexed": false,
							"internalType": "string",
							"name": "symbol",
							"type": "string"
						},
						{
							"indexed": false,
							"internalType": "uint256",
							"name": "allocPoint",
							"type": "uint256"
						}
					],
					"name": "AddPool",
					"type": "event"
				},
				{
					"anonymous": false,
					"inputs": [
						{
							"indexed": true,
							"internalType": "address",
							"name": "user",
							"type": "address"
						},
						{
							"indexed": true,
							"internalType": "uint256",
							"name": "pid",
							"type": "uint256"
						},
						{
							"indexed": false,
							"internalType": "uint256",
							"name": "amount",
							"type": "uint256"
						}
					],
					"name": "Deposit",
					"type": "event"
				},
				{
					"anonymous": false,
					"inputs": [
						{
							"indexed": true,
							"internalType": "address",
							"name": "user",
							"type": "address"
						},
						{
							"indexed": true,
							"internalType": "uint256",
							"name": "pid",
							"type": "uint256"
						},
						{
							"indexed": false,
							"internalType": "uint256",
							"name": "amount",
							"type": "uint256"
						}
					],
					"name": "EmergencyWithdraw",
					"type": "event"
				},
				{
					"anonymous": false,
					"inputs": [
						{
							"indexed": true,
							"internalType": "bytes32",
							"name": "role",
							"type": "bytes32"
						},
						{
							"indexed": true,
							"internalType": "bytes32",
							"name": "previousAdminRole",
							"type": "bytes32"
						},
						{
							"indexed": true,
							"internalType": "bytes32",
							"name": "newAdminRole",
							"type": "bytes32"
						}
					],
					"name": "RoleAdminChanged",
					"type": "event"
				},
				{
					"anonymous": false,
					"inputs": [
						{
							"indexed": true,
							"internalType": "bytes32",
							"name": "role",
							"type": "bytes32"
						},
						{
							"indexed": true,
							"internalType": "address",
							"name": "account",
							"type": "address"
						},
						{
							"indexed": true,
							"internalType": "address",
							"name": "sender",
							"type": "address"
						}
					],
					"name": "RoleGranted",
					"type": "event"
				},
				{
					"anonymous": false,
					"inputs": [
						{
							"indexed": true,
							"internalType": "bytes32",
							"name": "role",
							"type": "bytes32"
						},
						{
							"indexed": true,
							"internalType": "address",
							"name": "account",
							"type": "address"
						},
						{
							"indexed": true,
							"internalType": "address",
							"name": "sender",
							"type": "address"
						}
					],
					"name": "RoleRevoked",
					"type": "event"
				},
				{
					"anonymous": false,
					"inputs": [
						{
							"indexed": true,
							"internalType": "uint256",
							"name": "pid",
							"type": "uint256"
						},
						{
							"indexed": false,
							"internalType": "uint256",
							"name": "newAllocPoint",
							"type": "uint256"
						},
						{
							"indexed": false,
							"internalType": "uint256",
							"name": "oldAllocPoint",
							"type": "uint256"
						}
					],
					"name": "UpdateAllocation",
					"type": "event"
				},
				{
					"anonymous": false,
					"inputs": [
						{
							"indexed": true,
							"internalType": "address",
							"name": "user",
							"type": "address"
						},
						{
							"indexed": true,
							"internalType": "uint256",
							"name": "pid",
							"type": "uint256"
						},
						{
							"indexed": false,
							"internalType": "uint256",
							"name": "amount",
							"type": "uint256"
						}
					],
					"name": "Withdraw",
					"type": "event"
				},
				{
					"inputs": [],
					"name": "DEFAULT_ADMIN_ROLE",
					"outputs": [
						{
							"internalType": "bytes32",
							"name": "",
							"type": "bytes32"
						}
					],
					"stateMutability": "view",
					"type": "function"
				},
				{
					"inputs": [],
					"name": "GOVERNOR_ROLE",
					"outputs": [
						{
							"internalType": "bytes32",
							"name": "",
							"type": "bytes32"
						}
					],
					"stateMutability": "view",
					"type": "function"
				},
				{
					"inputs": [],
					"name": "HYGT",
					"outputs": [
						{
							"internalType": "contract IHYGT",
							"name": "",
							"type": "address"
						}
					],
					"stateMutability": "view",
					"type": "function"
				},
				{
					"inputs": [],
					"name": "HYGTPerBlock",
					"outputs": [
						{
							"internalType": "uint256",
							"name": "",
							"type": "uint256"
						}
					],
					"stateMutability": "view",
					"type": "function"
				},
				{
					"inputs": [
						{
							"internalType": "contract IERC20",
							"name": "lpToken",
							"type": "address"
						},
						{
							"internalType": "uint256",
							"name": "allocPoint",
							"type": "uint256"
						},
						{
							"internalType": "string",
							"name": "symbol",
							"type": "string"
						},
						{
							"internalType": "bool",
							"name": "withUpdate",
							"type": "bool"
						}
					],
					"name": "addPool",
					"outputs": [],
					"stateMutability": "nonpayable",
					"type": "function"
				},
				{
					"inputs": [
						{
							"internalType": "uint256",
							"name": "pid",
							"type": "uint256"
						},
						{
							"internalType": "uint256",
							"name": "amount",
							"type": "uint256"
						}
					],
					"name": "deposit",
					"outputs": [],
					"stateMutability": "nonpayable",
					"type": "function"
				},
				{
					"inputs": [
						{
							"internalType": "uint256",
							"name": "pid",
							"type": "uint256"
						}
					],
					"name": "emergencyWithdraw",
					"outputs": [],
					"stateMutability": "nonpayable",
					"type": "function"
				},
				{
					"inputs": [
						{
							"internalType": "uint256",
							"name": "pid",
							"type": "uint256"
						},
						{
							"internalType": "address",
							"name": "user",
							"type": "address"
						}
					],
					"name": "getPending",
					"outputs": [
						{
							"internalType": "uint256",
							"name": "",
							"type": "uint256"
						}
					],
					"stateMutability": "view",
					"type": "function"
				},
				{
					"inputs": [
						{
							"internalType": "address",
							"name": "user",
							"type": "address"
						}
					],
					"name": "getPendingBatch",
					"outputs": [
						{
							"internalType": "uint256",
							"name": "",
							"type": "uint256"
						}
					],
					"stateMutability": "view",
					"type": "function"
				},
				{
					"inputs": [
						{
							"internalType": "bytes32",
							"name": "role",
							"type": "bytes32"
						}
					],
					"name": "getRoleAdmin",
					"outputs": [
						{
							"internalType": "bytes32",
							"name": "",
							"type": "bytes32"
						}
					],
					"stateMutability": "view",
					"type": "function"
				},
				{
					"inputs": [
						{
							"internalType": "bytes32",
							"name": "role",
							"type": "bytes32"
						},
						{
							"internalType": "address",
							"name": "account",
							"type": "address"
						}
					],
					"name": "grantRole",
					"outputs": [],
					"stateMutability": "nonpayable",
					"type": "function"
				},
				{
					"inputs": [
						{
							"internalType": "bytes32",
							"name": "role",
							"type": "bytes32"
						},
						{
							"internalType": "address",
							"name": "account",
							"type": "address"
						}
					],
					"name": "hasRole",
					"outputs": [
						{
							"internalType": "bool",
							"name": "",
							"type": "bool"
						}
					],
					"stateMutability": "view",
					"type": "function"
				},
				{
					"inputs": [
						{
							"internalType": "address",
							"name": "hygt_",
							"type": "address"
						},
						{
							"internalType": "address[3]",
							"name": "lpTokens_",
							"type": "address[3]"
						},
						{
							"internalType": "uint256",
							"name": "initialMintStartTime_",
							"type": "uint256"
						}
					],
					"name": "initialize",
					"outputs": [],
					"stateMutability": "nonpayable",
					"type": "function"
				},
				{
					"inputs": [],
					"name": "massUpdatePools",
					"outputs": [],
					"stateMutability": "nonpayable",
					"type": "function"
				},
				{
					"inputs": [
						{
							"internalType": "uint256",
							"name": "",
							"type": "uint256"
						}
					],
					"name": "poolInfo",
					"outputs": [
						{
							"internalType": "contract IERC20",
							"name": "lpToken",
							"type": "address"
						},
						{
							"internalType": "uint256",
							"name": "allocPoint",
							"type": "uint256"
						},
						{
							"internalType": "uint256",
							"name": "lastRewardBlock",
							"type": "uint256"
						},
						{
							"internalType": "uint256",
							"name": "accHYGTPerShare",
							"type": "uint256"
						}
					],
					"stateMutability": "view",
					"type": "function"
				},
				{
					"inputs": [],
					"name": "poolLength",
					"outputs": [
						{
							"internalType": "uint256",
							"name": "",
							"type": "uint256"
						}
					],
					"stateMutability": "view",
					"type": "function"
				},
				{
					"inputs": [
						{
							"internalType": "bytes32",
							"name": "role",
							"type": "bytes32"
						},
						{
							"internalType": "address",
							"name": "account",
							"type": "address"
						}
					],
					"name": "renounceRole",
					"outputs": [],
					"stateMutability": "nonpayable",
					"type": "function"
				},
				{
					"inputs": [
						{
							"internalType": "bytes32",
							"name": "role",
							"type": "bytes32"
						},
						{
							"internalType": "address",
							"name": "account",
							"type": "address"
						}
					],
					"name": "revokeRole",
					"outputs": [],
					"stateMutability": "nonpayable",
					"type": "function"
				},
				{
					"inputs": [],
					"name": "startBlock",
					"outputs": [
						{
							"internalType": "uint256",
							"name": "",
							"type": "uint256"
						}
					],
					"stateMutability": "view",
					"type": "function"
				},
				{
					"inputs": [
						{
							"internalType": "bytes4",
							"name": "interfaceId",
							"type": "bytes4"
						}
					],
					"name": "supportsInterface",
					"outputs": [
						{
							"internalType": "bool",
							"name": "",
							"type": "bool"
						}
					],
					"stateMutability": "view",
					"type": "function"
				},
				{
					"inputs": [],
					"name": "totalAllocPoint",
					"outputs": [
						{
							"internalType": "uint256",
							"name": "",
							"type": "uint256"
						}
					],
					"stateMutability": "view",
					"type": "function"
				},
				{
					"inputs": [
						{
							"internalType": "uint256",
							"name": "pid",
							"type": "uint256"
						},
						{
							"internalType": "uint256",
							"name": "allocPoint",
							"type": "uint256"
						},
						{
							"internalType": "bool",
							"name": "withUpdate",
							"type": "bool"
						}
					],
					"name": "updateAllocation",
					"outputs": [],
					"stateMutability": "nonpayable",
					"type": "function"
				},
				{
					"inputs": [
						{
							"internalType": "uint256",
							"name": "pid",
							"type": "uint256"
						}
					],
					"name": "updatePool",
					"outputs": [],
					"stateMutability": "nonpayable",
					"type": "function"
				},
				{
					"inputs": [
						{
							"internalType": "uint256",
							"name": "",
							"type": "uint256"
						},
						{
							"internalType": "address",
							"name": "",
							"type": "address"
						}
					],
					"name": "userInfo",
					"outputs": [
						{
							"internalType": "uint256",
							"name": "amount",
							"type": "uint256"
						},
						{
							"internalType": "uint256",
							"name": "rewardDebt",
							"type": "uint256"
						}
					],
					"stateMutability": "view",
					"type": "function"
				},
				{
					"inputs": [
						{
							"internalType": "uint256",
							"name": "pid",
							"type": "uint256"
						},
						{
							"internalType": "uint256",
							"name": "amount",
							"type": "uint256"
						}
					],
					"name": "withdraw",
					"outputs": [],
					"stateMutability": "nonpayable",
					"type": "function"
				}
			],
			"devdoc": {
				"events": {
					"RoleAdminChanged(bytes32,bytes32,bytes32)": {
						"details": "Emitted when `newAdminRole` is set as ``role``'s admin role, replacing `previousAdminRole` `DEFAULT_ADMIN_ROLE` is the starting admin for all roles, despite {RoleAdminChanged} not being emitted signaling this. _Available since v3.1._"
					},
					"RoleGranted(bytes32,address,address)": {
						"details": "Emitted when `account` is granted `role`. `sender` is the account that originated the contract call, an admin role bearer except when using {AccessControl-_setupRole}."
					},
					"RoleRevoked(bytes32,address,address)": {
						"details": "Emitted when `account` is revoked `role`. `sender` is the account that originated the contract call:   - if using `revokeRole`, it is the admin role bearer   - if using `renounceRole`, it is the role bearer (i.e. `account`)"
					}
				},
				"kind": "dev",
				"methods": {
					"addPool(address,uint256,string,bool)": {
						"params": {
							"allocPoint": "The value for allocation points.",
							"lpToken": "The address of the `LP Token`.",
							"symbol": "The name for the pool.",
							"withUpdate": "Whether or not to update reward variables for all pools. May cause high gas spending."
						}
					},
					"getRoleAdmin(bytes32)": {
						"details": "Returns the admin role that controls `role`. See {grantRole} and {revokeRole}. To change a role's admin, use {_setRoleAdmin}."
					},
					"grantRole(bytes32,address)": {
						"details": "Grants `role` to `account`. If `account` had not been already granted `role`, emits a {RoleGranted} event. Requirements: - the caller must have ``role``'s admin role. May emit a {RoleGranted} event."
					},
					"hasRole(bytes32,address)": {
						"details": "Returns `true` if `account` has been granted `role`."
					},
					"initialize(address,address[3],uint256)": {
						"details": "This function can only be called once.",
						"params": {
							"hygt_": "The address of the `HYGT` contract.",
							"initialMintStartTime_": "The unix timestamp at which initial minting will begin.",
							"lpTokens_": "The addresses of the first 3 `LP Tokens` to add to the farming pool."
						}
					},
					"renounceRole(bytes32,address)": {
						"details": "Revokes `role` from the calling account. Roles are often managed via {grantRole} and {revokeRole}: this function's purpose is to provide a mechanism for accounts to lose their privileges if they are compromised (such as when a trusted device is misplaced). If the calling account had been revoked `role`, emits a {RoleRevoked} event. Requirements: - the caller must be `account`. May emit a {RoleRevoked} event."
					},
					"revokeRole(bytes32,address)": {
						"details": "Revokes `role` from `account`. If `account` had been granted `role`, emits a {RoleRevoked} event. Requirements: - the caller must have ``role``'s admin role. May emit a {RoleRevoked} event."
					},
					"supportsInterface(bytes4)": {
						"details": "See {IERC165-supportsInterface}."
					},
					"updateAllocation(uint256,uint256,bool)": {
						"params": {
							"allocPoint": "The new value for allocation points.",
							"pid": "The unique id of the pool.",
							"withUpdate": "Whether or not to update reward variables for all pools. May cause high gas spending."
						}
					},
					"updatePool(uint256)": {
						"params": {
							"pid": "The unique id of the pool."
						}
					}
				},
				"stateVariables": {
					"_initializer": {
						"details": "Initialization variables."
					}
				},
				"version": 1
			},
			"evm": {
				"assembly": "    /* \"src/Farm.sol\":182:11559  contract Farm is AccessControl {... */\n  mstore(0x40, 0xa0)\n    /* \"src/Farm.sol\":2090:2150  constructor() {... */\n  callvalue\n  dup1\n  iszero\n  tag_1\n  jumpi\n  0x00\n  dup1\n  revert\ntag_1:\n  pop\n    /* \"src/Farm.sol\":2130:2142  _msgSender() */\n  tag_4\n    /* \"src/Farm.sol\":2130:2140  _msgSender */\n  shl(0x20, tag_5)\n    /* \"src/Farm.sol\":2130:2142  _msgSender() */\n  0x20\n  shr\n  jump\t// in\ntag_4:\n    /* \"src/Farm.sol\":2115:2142  _initializer = _msgSender() */\n  0xffffffffffffffffffffffffffffffffffffffff\n  and\n  0x80\n  dup2\n  0xffffffffffffffffffffffffffffffffffffffff\n  and\n  dup2\n  mstore\n  pop\n  pop\n    /* \"src/Farm.sol\":182:11559  contract Farm is AccessControl {... */\n  jump(tag_6)\n    /* \"src/utils/Context.sol\":656:754  function _msgSender() internal view virtual returns (address) {... */\ntag_5:\n    /* \"src/utils/Context.sol\":709:716  address */\n  0x00\n    /* \"src/utils/Context.sol\":736:746  msg.sender */\n  caller\n    /* \"src/utils/Context.sol\":729:746  return msg.sender */\n  swap1\n  pop\n    /* \"src/utils/Context.sol\":656:754  function _msgSender() internal view virtual returns (address) {... */\n  swap1\n  jump\t// out\n    /* \"src/Farm.sol\":182:11559  contract Farm is AccessControl {... */\ntag_6:\n  mload(0x80)\n  codecopy(0x00, dataOffset(sub_0), dataSize(sub_0))\n  0x00\n  assignImmutable(\"0xed93c67e1a9b7f09d3b44ee593360f0073603a8e45415e2c3c69afc994a1103d\")\n  return(0x00, dataSize(sub_0))\nstop\n\nsub_0: assembly {\n        /* \"src/Farm.sol\":182:11559  contract Farm is AccessControl {... */\n      mstore(0x40, 0x80)\n      callvalue\n      dup1\n      iszero\n      tag_1\n      jumpi\n      0x00\n      dup1\n      revert\n    tag_1:\n      pop\n      jumpi(tag_2, lt(calldatasize, 0x04))\n      shr(0xe0, calldataload(0x00))\n      dup1\n      0x5312ea8e\n      gt\n      tag_28\n      jumpi\n      dup1\n      0x93f1a40b\n      gt\n      tag_29\n      jumpi\n      dup1\n      0xb3ecb623\n      gt\n      tag_30\n      jumpi\n      dup1\n      0xb3ecb623\n      eq\n      tag_24\n      jumpi\n      dup1\n      0xccc57490\n      eq\n      tag_25\n      jumpi\n      dup1\n      0xd547741f\n      eq\n      tag_26\n      jumpi\n      dup1\n      0xe2bbb158\n      eq\n      tag_27\n      jumpi\n      jump(tag_2)\n    tag_30:\n      dup1\n      0x93f1a40b\n      eq\n      tag_21\n      jumpi\n      dup1\n      0xa217fddf\n      eq\n      tag_22\n      jumpi\n      dup1\n      0xad35e1cc\n      eq\n      tag_23\n      jumpi\n      jump(tag_2)\n    tag_29:\n      dup1\n      0x5312ea8e\n      eq\n      tag_15\n      jumpi\n      dup1\n      0x5e3e1581\n      eq\n      tag_16\n      jumpi\n      dup1\n      0x630b5ba1\n      eq\n      tag_17\n      jumpi\n      dup1\n      0x79838ef0\n      eq\n      tag_18\n      jumpi\n      dup1\n      0x7f37df3b\n      eq\n      tag_19\n      jumpi\n      dup1\n      0x91d14854\n      eq\n      tag_20\n      jumpi\n      jump(tag_2)\n    tag_28:\n      dup1\n      0x2f2ff15d\n      gt\n      tag_31\n      jumpi\n      dup1\n      0x2f2ff15d\n      eq\n      tag_9\n      jumpi\n      dup1\n      0x36568abe\n      eq\n      tag_10\n      jumpi\n      dup1\n      0x3a0618fd\n      eq\n      tag_11\n      jumpi\n      dup1\n      0x441a3e70\n      eq\n      tag_12\n      jumpi\n      dup1\n      0x48cd4cb1\n      eq\n      tag_13\n      jumpi\n      dup1\n      0x51eb05a6\n      eq\n      tag_14\n      jumpi\n      jump(tag_2)\n    tag_31:\n      dup1\n      0x01ffc9a7\n      eq\n      tag_3\n      jumpi\n      dup1\n      0x081e3eda\n      eq\n      tag_4\n      jumpi\n      dup1\n      0x1526fe27\n      eq\n      tag_5\n      jumpi\n      dup1\n      0x17caf6f1\n      eq\n      tag_6\n      jumpi\n      dup1\n      0x23c64ce1\n      eq\n      tag_7\n      jumpi\n      dup1\n      0x248a9ca3\n      eq\n      tag_8\n      jumpi\n    tag_2:\n      0x00\n      dup1\n      revert\n        /* \"src/utils/AccessControl.sol\":2686:2890  function supportsInterface(bytes4 interfaceId) public view virtual override returns (bool) {... */\n    tag_3:\n      tag_32\n      0x04\n      dup1\n      calldatasize\n      sub\n      dup2\n      add\n      swap1\n      tag_33\n      swap2\n      swap1\n      tag_34\n      jump\t// in\n    tag_33:\n      tag_35\n      jump\t// in\n    tag_32:\n      mload(0x40)\n      tag_36\n      swap2\n      swap1\n      tag_37\n      jump\t// in\n    tag_36:\n      mload(0x40)\n      dup1\n      swap2\n      sub\n      swap1\n      return\n        /* \"src/Farm.sol\":4706:4801  function poolLength() external view returns (uint256) {... */\n    tag_4:\n      tag_38\n      tag_39\n      jump\t// in\n    tag_38:\n      mload(0x40)\n      tag_40\n      swap2\n      swap1\n      tag_41\n      jump\t// in\n    tag_40:\n      mload(0x40)\n      dup1\n      swap2\n      sub\n      swap1\n      return\n        /* \"src/Farm.sol\":1398:1424  PoolInfo[] public poolInfo */\n    tag_5:\n      tag_42\n      0x04\n      dup1\n      calldatasize\n      sub\n      dup2\n      add\n      swap1\n      tag_43\n      swap2\n      swap1\n      tag_44\n      jump\t// in\n    tag_43:\n      tag_45\n      jump\t// in\n    tag_42:\n      mload(0x40)\n      tag_46\n      swap5\n      swap4\n      swap3\n      swap2\n      swap1\n      tag_47\n      jump\t// in\n    tag_46:\n      mload(0x40)\n      dup1\n      swap2\n      sub\n      swap1\n      return\n        /* \"src/Farm.sol\":854:884  uint256 public totalAllocPoint */\n    tag_6:\n      tag_48\n      tag_49\n      jump\t// in\n    tag_48:\n      mload(0x40)\n      tag_50\n      swap2\n      swap1\n      tag_41\n      jump\t// in\n    tag_50:\n      mload(0x40)\n      dup1\n      swap2\n      sub\n      swap1\n      return\n        /* \"src/Farm.sol\":558:575  IHYGT public HYGT */\n    tag_7:\n      tag_51\n      tag_52\n      jump\t// in\n    tag_51:\n      mload(0x40)\n      tag_53\n      swap2\n      swap1\n      tag_54\n      jump\t// in\n    tag_53:\n      mload(0x40)\n      dup1\n      swap2\n      sub\n      swap1\n      return\n        /* \"src/utils/AccessControl.sol\":4509:4640  function getRoleAdmin(bytes32 role) public view virtual override returns (bytes32) {... */\n    tag_8:\n      tag_55\n      0x04\n      dup1\n      calldatasize\n      sub\n      dup2\n      add\n      swap1\n      tag_56\n      swap2\n      swap1\n      tag_57\n      jump\t// in\n    tag_56:\n      tag_58\n      jump\t// in\n    tag_55:\n      mload(0x40)\n      tag_59\n      swap2\n      swap1\n      tag_60\n      jump\t// in\n    tag_59:\n      mload(0x40)\n      dup1\n      swap2\n      sub\n      swap1\n      return\n        /* \"src/utils/AccessControl.sol\":4950:5097  function grantRole(bytes32 role, address account) public virtual override onlyRole(getRoleAdmin(role)) {... */\n    tag_9:\n      tag_61\n      0x04\n      dup1\n      calldatasize\n      sub\n      dup2\n      add\n      swap1\n      tag_62\n      swap2\n      swap1\n      tag_63\n      jump\t// in\n    tag_62:\n      tag_64\n      jump\t// in\n    tag_61:\n      stop\n        /* \"src/utils/AccessControl.sol\":6094:6312  function renounceRole(bytes32 role, address account) public virtual override {... */\n    tag_10:\n      tag_65\n      0x04\n      dup1\n      calldatasize\n      sub\n      dup2\n      add\n      swap1\n      tag_66\n      swap2\n      swap1\n      tag_63\n      jump\t// in\n    tag_66:\n      tag_67\n      jump\t// in\n    tag_65:\n      stop\n        /* \"src/Farm.sol\":5369:5767  function addPool(IERC20 lpToken, uint256 allocPoint, string memory symbol, bool withUpdate) external onlyRole(GOVERNOR_ROLE) {... */\n    tag_11:\n      tag_68\n      0x04\n      dup1\n      calldatasize\n      sub\n      dup2\n      add\n      swap1\n      tag_69\n      swap2\n      swap1\n      tag_70\n      jump\t// in\n    tag_69:\n      tag_71\n      jump\t// in\n    tag_68:\n      stop\n        /* \"src/Farm.sol\":10280:11017  function withdraw(uint256 pid, uint256 amount) external {... */\n    tag_12:\n      tag_72\n      0x04\n      dup1\n      calldatasize\n      sub\n      dup2\n      add\n      swap1\n      tag_73\n      swap2\n      swap1\n      tag_74\n      jump\t// in\n    tag_73:\n      tag_75\n      jump\t// in\n    tag_72:\n      stop\n        /* \"src/Farm.sol\":725:750  uint256 public startBlock */\n    tag_13:\n      tag_76\n      tag_77\n      jump\t// in\n    tag_76:\n      mload(0x40)\n      tag_78\n      swap2\n      swap1\n      tag_41\n      jump\t// in\n    tag_78:\n      mload(0x40)\n      dup1\n      swap2\n      sub\n      swap1\n      return\n        /* \"src/Farm.sol\":8764:9411  function updatePool(uint256 pid) public {... */\n    tag_14:\n      tag_79\n      0x04\n      dup1\n      calldatasize\n      sub\n      dup2\n      add\n      swap1\n      tag_80\n      swap2\n      swap1\n      tag_44\n      jump\t// in\n    tag_80:\n      tag_81\n      jump\t// in\n    tag_79:\n      stop\n        /* \"src/Farm.sol\":11172:11556  function emergencyWithdraw(uint256 pid) public {... */\n    tag_15:\n      tag_82\n      0x04\n      dup1\n      calldatasize\n      sub\n      dup2\n      add\n      swap1\n      tag_83\n      swap2\n      swap1\n      tag_44\n      jump\t// in\n    tag_83:\n      tag_84\n      jump\t// in\n    tag_82:\n      stop\n        /* \"src/Farm.sol\":2589:3964  function initialize(address hygt_, address[3] memory lpTokens_, uint256 initialMintStartTime_) external {... */\n    tag_16:\n      tag_85\n      0x04\n      dup1\n      calldatasize\n      sub\n      dup2\n      add\n      swap1\n      tag_86\n      swap2\n      swap1\n      tag_87\n      jump\t// in\n    tag_86:\n      tag_88\n      jump\t// in\n    tag_85:\n      stop\n        /* \"src/Farm.sol\":7133:7315  function massUpdatePools() public {... */\n    tag_17:\n      tag_89\n      tag_90\n      jump\t// in\n    tag_89:\n      stop\n        /* \"src/Farm.sol\":632:659  uint256 public HYGTPerBlock */\n    tag_18:\n      tag_91\n      tag_92\n      jump\t// in\n    tag_91:\n      mload(0x40)\n      tag_93\n      swap2\n      swap1\n      tag_41\n      jump\t// in\n    tag_93:\n      mload(0x40)\n      dup1\n      swap2\n      sub\n      swap1\n      return\n        /* \"src/Farm.sol\":7768:8527  function getPending(uint256 pid, address user) public view returns (uint256) {... */\n    tag_19:\n      tag_94\n      0x04\n      dup1\n      calldatasize\n      sub\n      dup2\n      add\n      swap1\n      tag_95\n      swap2\n      swap1\n      tag_96\n      jump\t// in\n    tag_95:\n      tag_97\n      jump\t// in\n    tag_94:\n      mload(0x40)\n      tag_98\n      swap2\n      swap1\n      tag_41\n      jump\t// in\n    tag_98:\n      mload(0x40)\n      dup1\n      swap2\n      sub\n      swap1\n      return\n        /* \"src/utils/AccessControl.sol\":2982:3129  function hasRole(bytes32 role, address account) public view virtual override returns (bool) {... */\n    tag_20:\n      tag_99\n      0x04\n      dup1\n      calldatasize\n      sub\n      dup2\n      add\n      swap1\n      tag_100\n      swap2\n      swap1\n      tag_63\n      jump\t// in\n    tag_100:\n      tag_101\n      jump\t// in\n    tag_99:\n      mload(0x40)\n      tag_102\n      swap2\n      swap1\n      tag_37\n      jump\t// in\n    tag_102:\n      mload(0x40)\n      dup1\n      swap2\n      sub\n      swap1\n      return\n        /* \"src/Farm.sol\":1487:1553  mapping (uint256 => mapping (address => UserInfo)) public userInfo */\n    tag_21:\n      tag_103\n      0x04\n      dup1\n      calldatasize\n      sub\n      dup2\n      add\n      swap1\n      tag_104\n      swap2\n      swap1\n      tag_96\n      jump\t// in\n    tag_104:\n      tag_105\n      jump\t// in\n    tag_103:\n      mload(0x40)\n      tag_106\n      swap3\n      swap2\n      swap1\n      tag_107\n      jump\t// in\n    tag_106:\n      mload(0x40)\n      dup1\n      swap2\n      sub\n      swap1\n      return\n        /* \"src/utils/AccessControl.sol\":2087:2136  bytes32 public constant DEFAULT_ADMIN_ROLE = 0x00 */\n    tag_22:\n      tag_108\n      tag_109\n      jump\t// in\n    tag_108:\n      mload(0x40)\n      tag_110\n      swap2\n      swap1\n      tag_60\n      jump\t// in\n    tag_110:\n      mload(0x40)\n      dup1\n      swap2\n      sub\n      swap1\n      return\n        /* \"src/Farm.sol\":6554:7000  function updateAllocation(uint256 pid, uint256 allocPoint, bool withUpdate) external onlyRole(GOVERNOR_ROLE) {... */\n    tag_23:\n      tag_111\n      0x04\n      dup1\n      calldatasize\n      sub\n      dup2\n      add\n      swap1\n      tag_112\n      swap2\n      swap1\n      tag_113\n      jump\t// in\n    tag_112:\n      tag_114\n      jump\t// in\n    tag_111:\n      stop\n        /* \"src/Farm.sol\":7406:7668  function getPendingBatch(address user) external view returns (uint256) {... */\n    tag_24:\n      tag_115\n      0x04\n      dup1\n      calldatasize\n      sub\n      dup2\n      add\n      swap1\n      tag_116\n      swap2\n      swap1\n      tag_117\n      jump\t// in\n    tag_116:\n      tag_118\n      jump\t// in\n    tag_115:\n      mload(0x40)\n      tag_119\n      swap2\n      swap1\n      tag_41\n      jump\t// in\n    tag_119:\n      mload(0x40)\n      dup1\n      swap2\n      sub\n      swap1\n      return\n        /* \"src/Farm.sol\":273:352  bytes32 public constant GOVERNOR_ROLE = keccak256(abi.encodePacked(\"Governor\")) */\n    tag_25:\n      tag_120\n      tag_121\n      jump\t// in\n    tag_120:\n      mload(0x40)\n      tag_122\n      swap2\n      swap1\n      tag_60\n      jump\t// in\n    tag_122:\n      mload(0x40)\n      dup1\n      swap2\n      sub\n      swap1\n      return\n        /* \"src/utils/AccessControl.sol\":5390:5539  function revokeRole(bytes32 role, address account) public virtual override onlyRole(getRoleAdmin(role)) {... */\n    tag_26:\n      tag_123\n      0x04\n      dup1\n      calldatasize\n      sub\n      dup2\n      add\n      swap1\n      tag_124\n      swap2\n      swap1\n      tag_63\n      jump\t// in\n    tag_124:\n      tag_125\n      jump\t// in\n    tag_123:\n      stop\n        /* \"src/Farm.sol\":9419:10176  function deposit(uint256 pid, uint256 amount) external {... */\n    tag_27:\n      tag_126\n      0x04\n      dup1\n      calldatasize\n      sub\n      dup2\n      add\n      swap1\n      tag_127\n      swap2\n      swap1\n      tag_74\n      jump\t// in\n    tag_127:\n      tag_128\n      jump\t// in\n    tag_126:\n      stop\n        /* \"src/utils/AccessControl.sol\":2686:2890  function supportsInterface(bytes4 interfaceId) public view virtual override returns (bool) {... */\n    tag_35:\n        /* \"src/utils/AccessControl.sol\":2771:2775  bool */\n      0x00\n        /* \"src/utils/AccessControl.sol\":2810:2842  type(IAccessControl).interfaceId */\n      0x7965db0b00000000000000000000000000000000000000000000000000000000\n        /* \"src/utils/AccessControl.sol\":2795:2842  interfaceId == type(IAccessControl).interfaceId */\n      not(0xffffffffffffffffffffffffffffffffffffffffffffffffffffffff)\n      and\n        /* \"src/utils/AccessControl.sol\":2795:2806  interfaceId */\n      dup3\n        /* \"src/utils/AccessControl.sol\":2795:2842  interfaceId == type(IAccessControl).interfaceId */\n      not(0xffffffffffffffffffffffffffffffffffffffffffffffffffffffff)\n      and\n      eq\n        /* \"src/utils/AccessControl.sol\":2795:2882  interfaceId == type(IAccessControl).interfaceId || super.supportsInterface(interfaceId) */\n      dup1\n      tag_130\n      jumpi\n      pop\n        /* \"src/utils/AccessControl.sol\":2846:2882  super.supportsInterface(interfaceId) */\n      tag_131\n        /* \"src/utils/AccessControl.sol\":2870:2881  interfaceId */\n      dup3\n        /* \"src/utils/AccessControl.sol\":2846:2869  super.supportsInterface */\n      tag_132\n        /* \"src/utils/AccessControl.sol\":2846:2882  super.supportsInterface(interfaceId) */\n      jump\t// in\n    tag_131:\n        /* \"src/utils/AccessControl.sol\":2795:2882  interfaceId == type(IAccessControl).interfaceId || super.supportsInterface(interfaceId) */\n    tag_130:\n        /* \"src/utils/AccessControl.sol\":2788:2882  return interfaceId == type(IAccessControl).interfaceId || super.supportsInterface(interfaceId) */\n      swap1\n      pop\n        /* \"src/utils/AccessControl.sol\":2686:2890  function supportsInterface(bytes4 interfaceId) public view virtual override returns (bool) {... */\n      swap2\n      swap1\n      pop\n      jump\t// out\n        /* \"src/Farm.sol\":4706:4801  function poolLength() external view returns (uint256) {... */\n    tag_39:\n        /* \"src/Farm.sol\":4751:4758  uint256 */\n      0x00\n        /* \"src/Farm.sol\":4778:4786  poolInfo */\n      0x06\n        /* \"src/Farm.sol\":4778:4793  poolInfo.length */\n      dup1\n      sload\n      swap1\n      pop\n        /* \"src/Farm.sol\":4771:4793  return poolInfo.length */\n      swap1\n      pop\n        /* \"src/Farm.sol\":4706:4801  function poolLength() external view returns (uint256) {... */\n      swap1\n      jump\t// out\n        /* \"src/Farm.sol\":1398:1424  PoolInfo[] public poolInfo */\n    tag_45:\n      0x06\n      dup2\n      dup2\n      sload\n      dup2\n      lt\n      tag_134\n      jumpi\n      0x00\n      dup1\n      revert\n    tag_134:\n      swap1\n      0x00\n      mstore\n      keccak256(0x00, 0x20)\n      swap1\n      0x04\n      mul\n      add\n      0x00\n      swap2\n      pop\n      swap1\n      pop\n      dup1\n      0x00\n      add\n      0x00\n      swap1\n      sload\n      swap1\n      0x0100\n      exp\n      swap1\n      div\n      0xffffffffffffffffffffffffffffffffffffffff\n      and\n      swap1\n      dup1\n      0x01\n      add\n      sload\n      swap1\n      dup1\n      0x02\n      add\n      sload\n      swap1\n      dup1\n      0x03\n      add\n      sload\n      swap1\n      pop\n      dup5\n      jump\t// out\n        /* \"src/Farm.sol\":854:884  uint256 public totalAllocPoint */\n    tag_49:\n      sload(0x04)\n      dup2\n      jump\t// out\n        /* \"src/Farm.sol\":558:575  IHYGT public HYGT */\n    tag_52:\n      0x01\n      0x00\n      swap1\n      sload\n      swap1\n      0x0100\n      exp\n      swap1\n      div\n      0xffffffffffffffffffffffffffffffffffffffff\n      and\n      dup2\n      jump\t// out\n        /* \"src/utils/AccessControl.sol\":4509:4640  function getRoleAdmin(bytes32 role) public view virtual override returns (bytes32) {... */\n    tag_58:\n        /* \"src/utils/AccessControl.sol\":4583:4590  bytes32 */\n      0x00\n        /* \"src/utils/AccessControl.sol\":4610:4616  _roles */\n      dup1\n        /* \"src/utils/AccessControl.sol\":4610:4622  _roles[role] */\n      0x00\n        /* \"src/utils/AccessControl.sol\":4617:4621  role */\n      dup4\n        /* \"src/utils/AccessControl.sol\":4610:4622  _roles[role] */\n      dup2\n      mstore\n      0x20\n      add\n      swap1\n      dup2\n      mstore\n      0x20\n      add\n      0x00\n      keccak256\n        /* \"src/utils/AccessControl.sol\":4610:4632  _roles[role].adminRole */\n      0x01\n      add\n      sload\n        /* \"src/utils/AccessControl.sol\":4603:4632  return _roles[role].adminRole */\n      swap1\n      pop\n        /* \"src/utils/AccessControl.sol\":4509:4640  function getRoleAdmin(bytes32 role) public view virtual override returns (bytes32) {... */\n      swap2\n      swap1\n      pop\n      jump\t// out\n        /* \"src/utils/AccessControl.sol\":4950:5097  function grantRole(bytes32 role, address account) public virtual override onlyRole(getRoleAdmin(role)) {... */\n    tag_64:\n        /* \"src/utils/AccessControl.sol\":5033:5051  getRoleAdmin(role) */\n      tag_137\n        /* \"src/utils/AccessControl.sol\":5046:5050  role */\n      dup3\n        /* \"src/utils/AccessControl.sol\":5033:5045  getRoleAdmin */\n      tag_58\n        /* \"src/utils/AccessControl.sol\":5033:5051  getRoleAdmin(role) */\n      jump\t// in\n    tag_137:\n        /* \"src/utils/AccessControl.sol\":2578:2594  _checkRole(role) */\n      tag_139\n        /* \"src/utils/AccessControl.sol\":2589:2593  role */\n      dup2\n        /* \"src/utils/AccessControl.sol\":2578:2588  _checkRole */\n      tag_140\n        /* \"src/utils/AccessControl.sol\":2578:2594  _checkRole(role) */\n      jump\t// in\n    tag_139:\n        /* \"src/utils/AccessControl.sol\":5064:5089  _grantRole(role, account) */\n      tag_142\n        /* \"src/utils/AccessControl.sol\":5075:5079  role */\n      dup4\n        /* \"src/utils/AccessControl.sol\":5081:5088  account */\n      dup4\n        /* \"src/utils/AccessControl.sol\":5064:5074  _grantRole */\n      tag_143\n        /* \"src/utils/AccessControl.sol\":5064:5089  _grantRole(role, account) */\n      jump\t// in\n    tag_142:\n        /* \"src/utils/AccessControl.sol\":4950:5097  function grantRole(bytes32 role, address account) public virtual override onlyRole(getRoleAdmin(role)) {... */\n      pop\n      pop\n      pop\n      jump\t// out\n        /* \"src/utils/AccessControl.sol\":6094:6312  function renounceRole(bytes32 role, address account) public virtual override {... */\n    tag_67:\n        /* \"src/utils/AccessControl.sol\":6201:6213  _msgSender() */\n      tag_145\n        /* \"src/utils/AccessControl.sol\":6201:6211  _msgSender */\n      tag_146\n        /* \"src/utils/AccessControl.sol\":6201:6213  _msgSender() */\n      jump\t// in\n    tag_145:\n        /* \"src/utils/AccessControl.sol\":6190:6213  account == _msgSender() */\n      0xffffffffffffffffffffffffffffffffffffffff\n      and\n        /* \"src/utils/AccessControl.sol\":6190:6197  account */\n      dup2\n        /* \"src/utils/AccessControl.sol\":6190:6213  account == _msgSender() */\n      0xffffffffffffffffffffffffffffffffffffffff\n      and\n      eq\n        /* \"src/utils/AccessControl.sol\":6182:6265  require(account == _msgSender(), \"AccessControl: can only renounce roles for self\") */\n      tag_147\n      jumpi\n      mload(0x40)\n      0x08c379a000000000000000000000000000000000000000000000000000000000\n      dup2\n      mstore\n      0x04\n      add\n      tag_148\n      swap1\n      tag_149\n      jump\t// in\n    tag_148:\n      mload(0x40)\n      dup1\n      swap2\n      sub\n      swap1\n      revert\n    tag_147:\n        /* \"src/utils/AccessControl.sol\":6278:6304  _revokeRole(role, account) */\n      tag_150\n        /* \"src/utils/AccessControl.sol\":6290:6294  role */\n      dup3\n        /* \"src/utils/AccessControl.sol\":6296:6303  account */\n      dup3\n        /* \"src/utils/AccessControl.sol\":6278:6289  _revokeRole */\n      tag_151\n        /* \"src/utils/AccessControl.sol\":6278:6304  _revokeRole(role, account) */\n      jump\t// in\n    tag_150:\n        /* \"src/utils/AccessControl.sol\":6094:6312  function renounceRole(bytes32 role, address account) public virtual override {... */\n      pop\n      pop\n      jump\t// out\n        /* \"src/Farm.sol\":5369:5767  function addPool(IERC20 lpToken, uint256 allocPoint, string memory symbol, bool withUpdate) external onlyRole(GOVERNOR_ROLE) {... */\n    tag_71:\n        /* \"src/Farm.sol\":323:351  abi.encodePacked(\"Governor\") */\n      add(0x20, mload(0x40))\n      tag_152\n      swap1\n      tag_153\n      jump\t// in\n    tag_152:\n      mload(0x40)\n      0x20\n      dup2\n      dup4\n      sub\n      sub\n      dup2\n      mstore\n      swap1\n      0x40\n      mstore\n        /* \"src/Farm.sol\":313:352  keccak256(abi.encodePacked(\"Governor\")) */\n      dup1\n      mload\n      swap1\n      0x20\n      add\n      keccak256\n        /* \"src/utils/AccessControl.sol\":2578:2594  _checkRole(role) */\n      tag_155\n        /* \"src/utils/AccessControl.sol\":2589:2593  role */\n      dup2\n        /* \"src/utils/AccessControl.sol\":2578:2588  _checkRole */\n      tag_140\n        /* \"src/utils/AccessControl.sol\":2578:2594  _checkRole(role) */\n      jump\t// in\n    tag_155:\n        /* \"src/Farm.sol\":5509:5519  withUpdate */\n      dup2\n        /* \"src/Farm.sol\":5505:5565  if (withUpdate) {... */\n      iszero\n      tag_157\n      jumpi\n        /* \"src/Farm.sol\":5536:5553  massUpdatePools() */\n      tag_158\n        /* \"src/Farm.sol\":5536:5551  massUpdatePools */\n      tag_90\n        /* \"src/Farm.sol\":5536:5553  massUpdatePools() */\n      jump\t// in\n    tag_158:\n        /* \"src/Farm.sol\":5505:5565  if (withUpdate) {... */\n    tag_157:\n        /* \"src/Farm.sol\":5575:5598  uint256 lastRewardBlock */\n      0x00\n        /* \"src/Farm.sol\":5616:5626  startBlock */\n      sload(0x03)\n        /* \"src/Farm.sol\":5601:5613  block.number */\n      number\n        /* \"src/Farm.sol\":5601:5626  block.number > startBlock */\n      gt\n        /* \"src/Farm.sol\":5601:5654  block.number > startBlock ? block.number : startBlock */\n      tag_159\n      jumpi\n        /* \"src/Farm.sol\":5644:5654  startBlock */\n      sload(0x03)\n        /* \"src/Farm.sol\":5601:5654  block.number > startBlock ? block.number : startBlock */\n      jump(tag_160)\n    tag_159:\n        /* \"src/Farm.sol\":5629:5641  block.number */\n      number\n        /* \"src/Farm.sol\":5601:5654  block.number > startBlock ? block.number : startBlock */\n    tag_160:\n        /* \"src/Farm.sol\":5575:5654  uint256 lastRewardBlock = block.number > startBlock ? block.number : startBlock */\n      swap1\n      pop\n        /* \"src/Farm.sol\":5684:5694  allocPoint */\n      dup5\n        /* \"src/Farm.sol\":5665:5680  totalAllocPoint */\n      0x04\n      0x00\n        /* \"src/Farm.sol\":5665:5694  totalAllocPoint += allocPoint */\n      dup3\n      dup3\n      sload\n      tag_161\n      swap2\n      swap1\n      tag_162\n      jump\t// in\n    tag_161:\n      swap3\n      pop\n      pop\n      dup2\n      swap1\n      sstore\n      pop\n        /* \"src/Farm.sol\":5705:5759  _addPool(lpToken, allocPoint, symbol, lastRewardBlock) */\n      tag_163\n        /* \"src/Farm.sol\":5714:5721  lpToken */\n      dup7\n        /* \"src/Farm.sol\":5723:5733  allocPoint */\n      dup7\n        /* \"src/Farm.sol\":5735:5741  symbol */\n      dup7\n        /* \"src/Farm.sol\":5743:5758  lastRewardBlock */\n      dup5\n        /* \"src/Farm.sol\":5705:5713  _addPool */\n      tag_164\n        /* \"src/Farm.sol\":5705:5759  _addPool(lpToken, allocPoint, symbol, lastRewardBlock) */\n      jump\t// in\n    tag_163:\n        /* \"src/Farm.sol\":5494:5767  {... */\n      pop\n        /* \"src/Farm.sol\":5369:5767  function addPool(IERC20 lpToken, uint256 allocPoint, string memory symbol, bool withUpdate) external onlyRole(GOVERNOR_ROLE) {... */\n      pop\n      pop\n      pop\n      pop\n      pop\n      jump\t// out\n        /* \"src/Farm.sol\":10280:11017  function withdraw(uint256 pid, uint256 amount) external {... */\n    tag_75:\n        /* \"src/Farm.sol\":10347:10368  PoolInfo storage pool */\n      0x00\n        /* \"src/Farm.sol\":10371:10379  poolInfo */\n      0x06\n        /* \"src/Farm.sol\":10380:10383  pid */\n      dup4\n        /* \"src/Farm.sol\":10371:10384  poolInfo[pid] */\n      dup2\n      sload\n      dup2\n      lt\n      tag_166\n      jumpi\n      tag_167\n      tag_168\n      jump\t// in\n    tag_167:\n    tag_166:\n      swap1\n      0x00\n      mstore\n      keccak256(0x00, 0x20)\n      swap1\n      0x04\n      mul\n      add\n        /* \"src/Farm.sol\":10347:10384  PoolInfo storage pool = poolInfo[pid] */\n      swap1\n      pop\n        /* \"src/Farm.sol\":10395:10420  UserInfo storage userData */\n      0x00\n        /* \"src/Farm.sol\":10423:10431  userInfo */\n      0x07\n        /* \"src/Farm.sol\":10423:10436  userInfo[pid] */\n      0x00\n        /* \"src/Farm.sol\":10432:10435  pid */\n      dup6\n        /* \"src/Farm.sol\":10423:10436  userInfo[pid] */\n      dup2\n      mstore\n      0x20\n      add\n      swap1\n      dup2\n      mstore\n      0x20\n      add\n      0x00\n      keccak256\n        /* \"src/Farm.sol\":10423:10450  userInfo[pid][_msgSender()] */\n      0x00\n        /* \"src/Farm.sol\":10437:10449  _msgSender() */\n      tag_170\n        /* \"src/Farm.sol\":10437:10447  _msgSender */\n      tag_146\n        /* \"src/Farm.sol\":10437:10449  _msgSender() */\n      jump\t// in\n    tag_170:\n        /* \"src/Farm.sol\":10423:10450  userInfo[pid][_msgSender()] */\n      0xffffffffffffffffffffffffffffffffffffffff\n      and\n      0xffffffffffffffffffffffffffffffffffffffff\n      and\n      dup2\n      mstore\n      0x20\n      add\n      swap1\n      dup2\n      mstore\n      0x20\n      add\n      0x00\n      keccak256\n        /* \"src/Farm.sol\":10395:10450  UserInfo storage userData = userInfo[pid][_msgSender()] */\n      swap1\n      pop\n        /* \"src/Farm.sol\":10488:10494  amount */\n      dup3\n        /* \"src/Farm.sol\":10469:10477  userData */\n      dup2\n        /* \"src/Farm.sol\":10469:10484  userData.amount */\n      0x00\n      add\n      sload\n        /* \"src/Farm.sol\":10469:10494  userData.amount >= amount */\n      lt\n      iszero\n        /* \"src/Farm.sol\":10461:10513  require(userData.amount >= amount, \"Farm: not good\") */\n      tag_171\n      jumpi\n      mload(0x40)\n      0x08c379a000000000000000000000000000000000000000000000000000000000\n      dup2\n      mstore\n      0x04\n      add\n      tag_172\n      swap1\n      tag_173\n      jump\t// in\n    tag_172:\n      mload(0x40)\n      dup1\n      swap2\n      sub\n      swap1\n      revert\n    tag_171:\n        /* \"src/Farm.sol\":10524:10539  updatePool(pid) */\n      tag_174\n        /* \"src/Farm.sol\":10535:10538  pid */\n      dup5\n        /* \"src/Farm.sol\":10524:10534  updatePool */\n      tag_81\n        /* \"src/Farm.sol\":10524:10539  updatePool(pid) */\n      jump\t// in\n    tag_174:\n        /* \"src/Farm.sol\":10550:10565  uint256 pending */\n      0x00\n        /* \"src/Farm.sol\":10620:10628  userData */\n      dup2\n        /* \"src/Farm.sol\":10620:10639  userData.rewardDebt */\n      0x01\n      add\n      sload\n        /* \"src/Farm.sol\":10612:10616  1e12 */\n      0xe8d4a51000\n        /* \"src/Farm.sol\":10588:10592  pool */\n      dup5\n        /* \"src/Farm.sol\":10588:10608  pool.accHYGTPerShare */\n      0x03\n      add\n      sload\n        /* \"src/Farm.sol\":10570:10578  userData */\n      dup5\n        /* \"src/Farm.sol\":10570:10585  userData.amount */\n      0x00\n      add\n      sload\n        /* \"src/Farm.sol\":10570:10608  userData.amount * pool.accHYGTPerShare */\n      tag_175\n      swap2\n      swap1\n      tag_176\n      jump\t// in\n    tag_175:\n        /* \"src/Farm.sol\":10569:10616  (userData.amount * pool.accHYGTPerShare) / 1e12 */\n      tag_177\n      swap2\n      swap1\n      tag_178\n      jump\t// in\n    tag_177:\n        /* \"src/Farm.sol\":10568:10639  ((userData.amount * pool.accHYGTPerShare) / 1e12) - userData.rewardDebt */\n      tag_179\n      swap2\n      swap1\n      tag_180\n      jump\t// in\n    tag_179:\n        /* \"src/Farm.sol\":10550:10639  uint256 pending = ((userData.amount * pool.accHYGTPerShare) / 1e12) - userData.rewardDebt */\n      swap1\n      pop\n        /* \"src/Farm.sol\":10665:10666  0 */\n      0x00\n        /* \"src/Farm.sol\":10655:10662  pending */\n      dup2\n        /* \"src/Farm.sol\":10655:10666  pending > 0 */\n      gt\n        /* \"src/Farm.sol\":10652:10727  if(pending > 0) {... */\n      iszero\n      tag_181\n      jumpi\n        /* \"src/Farm.sol\":10683:10687  HYGT */\n      0x01\n      0x00\n      swap1\n      sload\n      swap1\n      0x0100\n      exp\n      swap1\n      div\n      0xffffffffffffffffffffffffffffffffffffffff\n      and\n        /* \"src/Farm.sol\":10683:10692  HYGT.mint */\n      0xffffffffffffffffffffffffffffffffffffffff\n      and\n      0x40c10f19\n        /* \"src/Farm.sol\":10693:10705  _msgSender() */\n      tag_182\n        /* \"src/Farm.sol\":10693:10703  _msgSender */\n      tag_146\n        /* \"src/Farm.sol\":10693:10705  _msgSender() */\n      jump\t// in\n    tag_182:\n        /* \"src/Farm.sol\":10707:10714  pending */\n      dup4\n        /* \"src/Farm.sol\":10683:10715  HYGT.mint(_msgSender(), pending) */\n      mload(0x40)\n      dup4\n      0xffffffff\n      and\n      0xe0\n      shl\n      dup2\n      mstore\n      0x04\n      add\n      tag_183\n      swap3\n      swap2\n      swap1\n      tag_184\n      jump\t// in\n    tag_183:\n      0x20\n      mload(0x40)\n      dup1\n      dup4\n      sub\n      dup2\n      0x00\n      dup8\n      gas\n      call\n      iszero\n      dup1\n      iszero\n      tag_186\n      jumpi\n      returndatasize\n      0x00\n      dup1\n      returndatacopy\n      revert(0x00, returndatasize)\n    tag_186:\n      pop\n      pop\n      pop\n      pop\n      mload(0x40)\n      returndatasize\n      not(0x1f)\n      0x1f\n      dup3\n      add\n      and\n      dup3\n      add\n      dup1\n      0x40\n      mstore\n      pop\n      dup2\n      add\n      swap1\n      tag_187\n      swap2\n      swap1\n      tag_188\n      jump\t// in\n    tag_187:\n      pop\n        /* \"src/Farm.sol\":10652:10727  if(pending > 0) {... */\n    tag_181:\n        /* \"src/Farm.sol\":10749:10750  0 */\n      0x00\n        /* \"src/Farm.sol\":10740:10746  amount */\n      dup5\n        /* \"src/Farm.sol\":10740:10750  amount > 0 */\n      gt\n        /* \"src/Farm.sol\":10737:10877  if(amount > 0) {... */\n      iszero\n      tag_189\n      jumpi\n        /* \"src/Farm.sol\":10786:10792  amount */\n      dup4\n        /* \"src/Farm.sol\":10767:10775  userData */\n      dup3\n        /* \"src/Farm.sol\":10767:10782  userData.amount */\n      0x00\n      add\n      0x00\n        /* \"src/Farm.sol\":10767:10792  userData.amount -= amount */\n      dup3\n      dup3\n      sload\n      tag_190\n      swap2\n      swap1\n      tag_180\n      jump\t// in\n    tag_190:\n      swap3\n      pop\n      pop\n      dup2\n      swap1\n      sstore\n      pop\n        /* \"src/Farm.sol\":10807:10865  SafeERC20.safeTransfer(pool.lpToken, _msgSender(), amount) */\n      tag_191\n        /* \"src/Farm.sol\":10830:10834  pool */\n      dup4\n        /* \"src/Farm.sol\":10830:10842  pool.lpToken */\n      0x00\n      add\n      0x00\n      swap1\n      sload\n      swap1\n      0x0100\n      exp\n      swap1\n      div\n      0xffffffffffffffffffffffffffffffffffffffff\n      and\n        /* \"src/Farm.sol\":10844:10856  _msgSender() */\n      tag_192\n        /* \"src/Farm.sol\":10844:10854  _msgSender */\n      tag_146\n        /* \"src/Farm.sol\":10844:10856  _msgSender() */\n      jump\t// in\n    tag_192:\n        /* \"src/Farm.sol\":10858:10864  amount */\n      dup7\n        /* \"src/Farm.sol\":10807:10829  SafeERC20.safeTransfer */\n      tag_193\n        /* \"src/Farm.sol\":10807:10865  SafeERC20.safeTransfer(pool.lpToken, _msgSender(), amount) */\n      jump\t// in\n    tag_191:\n        /* \"src/Farm.sol\":10737:10877  if(amount > 0) {... */\n    tag_189:\n        /* \"src/Farm.sol\":10952:10956  1e12 */\n      0xe8d4a51000\n        /* \"src/Farm.sol\":10928:10932  pool */\n      dup4\n        /* \"src/Farm.sol\":10928:10948  pool.accHYGTPerShare */\n      0x03\n      add\n      sload\n        /* \"src/Farm.sol\":10910:10918  userData */\n      dup4\n        /* \"src/Farm.sol\":10910:10925  userData.amount */\n      0x00\n      add\n      sload\n        /* \"src/Farm.sol\":10910:10948  userData.amount * pool.accHYGTPerShare */\n      tag_194\n      swap2\n      swap1\n      tag_176\n      jump\t// in\n    tag_194:\n        /* \"src/Farm.sol\":10909:10956  (userData.amount * pool.accHYGTPerShare) / 1e12 */\n      tag_195\n      swap2\n      swap1\n      tag_178\n      jump\t// in\n    tag_195:\n        /* \"src/Farm.sol\":10887:10895  userData */\n      dup3\n        /* \"src/Farm.sol\":10887:10906  userData.rewardDebt */\n      0x01\n      add\n        /* \"src/Farm.sol\":10887:10956  userData.rewardDebt = (userData.amount * pool.accHYGTPerShare) / 1e12 */\n      dup2\n      swap1\n      sstore\n      pop\n        /* \"src/Farm.sol\":10997:11000  pid */\n      dup5\n        /* \"src/Farm.sol\":10983:10995  _msgSender() */\n      tag_196\n        /* \"src/Farm.sol\":10983:10993  _msgSender */\n      tag_146\n        /* \"src/Farm.sol\":10983:10995  _msgSender() */\n      jump\t// in\n    tag_196:\n        /* \"src/Farm.sol\":10974:11009  Withdraw(_msgSender(), pid, amount) */\n      0xffffffffffffffffffffffffffffffffffffffff\n      and\n      0xf279e6a1f5e320cca91135676d9cb6e44ca8a08c0b88342bcdb1144f6511b568\n        /* \"src/Farm.sol\":11002:11008  amount */\n      dup7\n        /* \"src/Farm.sol\":10974:11009  Withdraw(_msgSender(), pid, amount) */\n      mload(0x40)\n      tag_197\n      swap2\n      swap1\n      tag_41\n      jump\t// in\n    tag_197:\n      mload(0x40)\n      dup1\n      swap2\n      sub\n      swap1\n      log3\n        /* \"src/Farm.sol\":10336:11017  {... */\n      pop\n      pop\n      pop\n        /* \"src/Farm.sol\":10280:11017  function withdraw(uint256 pid, uint256 amount) external {... */\n      pop\n      pop\n      jump\t// out\n        /* \"src/Farm.sol\":725:750  uint256 public startBlock */\n    tag_77:\n      sload(0x03)\n      dup2\n      jump\t// out\n        /* \"src/Farm.sol\":8764:9411  function updatePool(uint256 pid) public {... */\n    tag_81:\n        /* \"src/Farm.sol\":8815:8836  PoolInfo storage pool */\n      0x00\n        /* \"src/Farm.sol\":8839:8847  poolInfo */\n      0x06\n        /* \"src/Farm.sol\":8848:8851  pid */\n      dup3\n        /* \"src/Farm.sol\":8839:8852  poolInfo[pid] */\n      dup2\n      sload\n      dup2\n      lt\n      tag_199\n      jumpi\n      tag_200\n      tag_168\n      jump\t// in\n    tag_200:\n    tag_199:\n      swap1\n      0x00\n      mstore\n      keccak256(0x00, 0x20)\n      swap1\n      0x04\n      mul\n      add\n        /* \"src/Farm.sol\":8815:8852  PoolInfo storage pool = poolInfo[pid] */\n      swap1\n      pop\n        /* \"src/Farm.sol\":8885:8889  pool */\n      dup1\n        /* \"src/Farm.sol\":8885:8905  pool.lastRewardBlock */\n      0x02\n      add\n      sload\n        /* \"src/Farm.sol\":8869:8881  block.number */\n      number\n        /* \"src/Farm.sol\":8869:8905  block.number <= pool.lastRewardBlock */\n      gt\n        /* \"src/Farm.sol\":8865:8940  if (block.number <= pool.lastRewardBlock) {... */\n      tag_202\n      jumpi\n        /* \"src/Farm.sol\":8922:8929  return; */\n      pop\n      jump(tag_198)\n        /* \"src/Farm.sol\":8865:8940  if (block.number <= pool.lastRewardBlock) {... */\n    tag_202:\n        /* \"src/Farm.sol\":8950:8966  uint256 lpSupply */\n      0x00\n        /* \"src/Farm.sol\":8969:8973  pool */\n      dup2\n        /* \"src/Farm.sol\":8969:8981  pool.lpToken */\n      0x00\n      add\n      0x00\n      swap1\n      sload\n      swap1\n      0x0100\n      exp\n      swap1\n      div\n      0xffffffffffffffffffffffffffffffffffffffff\n      and\n        /* \"src/Farm.sol\":8969:8991  pool.lpToken.balanceOf */\n      0xffffffffffffffffffffffffffffffffffffffff\n      and\n      0x70a08231\n        /* \"src/Farm.sol\":9000:9004  this */\n      address\n        /* \"src/Farm.sol\":8969:9006  pool.lpToken.balanceOf(address(this)) */\n      mload(0x40)\n      dup3\n      0xffffffff\n      and\n      0xe0\n      shl\n      dup2\n      mstore\n      0x04\n      add\n      tag_203\n      swap2\n      swap1\n      tag_204\n      jump\t// in\n    tag_203:\n      0x20\n      mload(0x40)\n      dup1\n      dup4\n      sub\n      dup2\n      dup7\n      gas\n      staticcall\n      iszero\n      dup1\n      iszero\n      tag_206\n      jumpi\n      returndatasize\n      0x00\n      dup1\n      returndatacopy\n      revert(0x00, returndatasize)\n    tag_206:\n      pop\n      pop\n      pop\n      pop\n      mload(0x40)\n      returndatasize\n      not(0x1f)\n      0x1f\n      dup3\n      add\n      and\n      dup3\n      add\n      dup1\n      0x40\n      mstore\n      pop\n      dup2\n      add\n      swap1\n      tag_207\n      swap2\n      swap1\n      tag_208\n      jump\t// in\n    tag_207:\n        /* \"src/Farm.sol\":8950:9006  uint256 lpSupply = pool.lpToken.balanceOf(address(this)) */\n      swap1\n      pop\n        /* \"src/Farm.sol\":9035:9036  0 */\n      0x00\n        /* \"src/Farm.sol\":9023:9031  lpSupply */\n      dup2\n        /* \"src/Farm.sol\":9023:9036  lpSupply == 0 */\n      sub\n        /* \"src/Farm.sol\":9019:9121  if (lpSupply == 0) {... */\n      tag_209\n      jumpi\n        /* \"src/Farm.sol\":9076:9088  block.number */\n      number\n        /* \"src/Farm.sol\":9053:9057  pool */\n      dup3\n        /* \"src/Farm.sol\":9053:9073  pool.lastRewardBlock */\n      0x02\n      add\n        /* \"src/Farm.sol\":9053:9088  pool.lastRewardBlock = block.number */\n      dup2\n      swap1\n      sstore\n      pop\n        /* \"src/Farm.sol\":9103:9110  return; */\n      pop\n      pop\n      jump(tag_198)\n        /* \"src/Farm.sol\":9019:9121  if (lpSupply == 0) {... */\n    tag_209:\n        /* \"src/Farm.sol\":9131:9153  uint256 numberOfBlocks */\n      0x00\n        /* \"src/Farm.sol\":9171:9175  pool */\n      dup3\n        /* \"src/Farm.sol\":9171:9191  pool.lastRewardBlock */\n      0x02\n      add\n      sload\n        /* \"src/Farm.sol\":9156:9168  block.number */\n      number\n        /* \"src/Farm.sol\":9156:9191  block.number - pool.lastRewardBlock */\n      tag_210\n      swap2\n      swap1\n      tag_180\n      jump\t// in\n    tag_210:\n        /* \"src/Farm.sol\":9131:9191  uint256 numberOfBlocks = block.number - pool.lastRewardBlock */\n      swap1\n      pop\n        /* \"src/Farm.sol\":9202:9220  uint256 HYGTReward */\n      0x00\n        /* \"src/Farm.sol\":9275:9290  totalAllocPoint */\n      sload(0x04)\n        /* \"src/Farm.sol\":9256:9260  pool */\n      dup5\n        /* \"src/Farm.sol\":9256:9271  pool.allocPoint */\n      0x01\n      add\n      sload\n        /* \"src/Farm.sol\":9241:9253  HYGTPerBlock */\n      sload(0x02)\n        /* \"src/Farm.sol\":9224:9238  numberOfBlocks */\n      dup5\n        /* \"src/Farm.sol\":9224:9253  numberOfBlocks * HYGTPerBlock */\n      tag_211\n      swap2\n      swap1\n      tag_176\n      jump\t// in\n    tag_211:\n        /* \"src/Farm.sol\":9224:9271  numberOfBlocks * HYGTPerBlock * pool.allocPoint */\n      tag_212\n      swap2\n      swap1\n      tag_176\n      jump\t// in\n    tag_212:\n        /* \"src/Farm.sol\":9223:9290  (numberOfBlocks * HYGTPerBlock * pool.allocPoint) / totalAllocPoint */\n      tag_213\n      swap2\n      swap1\n      tag_178\n      jump\t// in\n    tag_213:\n        /* \"src/Farm.sol\":9202:9290  uint256 HYGTReward = (numberOfBlocks * HYGTPerBlock * pool.allocPoint) / totalAllocPoint */\n      swap1\n      pop\n        /* \"src/Farm.sol\":9348:9356  lpSupply */\n      dup3\n        /* \"src/Farm.sol\":9340:9344  1e12 */\n      0xe8d4a51000\n        /* \"src/Farm.sol\":9327:9337  HYGTReward */\n      dup3\n        /* \"src/Farm.sol\":9327:9344  HYGTReward * 1e12 */\n      tag_214\n      swap2\n      swap1\n      tag_176\n      jump\t// in\n    tag_214:\n        /* \"src/Farm.sol\":9326:9356  (HYGTReward * 1e12) / lpSupply */\n      tag_215\n      swap2\n      swap1\n      tag_178\n      jump\t// in\n    tag_215:\n        /* \"src/Farm.sol\":9301:9305  pool */\n      dup5\n        /* \"src/Farm.sol\":9301:9321  pool.accHYGTPerShare */\n      0x03\n      add\n      0x00\n        /* \"src/Farm.sol\":9301:9357  pool.accHYGTPerShare += ((HYGTReward * 1e12) / lpSupply) */\n      dup3\n      dup3\n      sload\n      tag_216\n      swap2\n      swap1\n      tag_162\n      jump\t// in\n    tag_216:\n      swap3\n      pop\n      pop\n      dup2\n      swap1\n      sstore\n      pop\n        /* \"src/Farm.sol\":9391:9403  block.number */\n      number\n        /* \"src/Farm.sol\":9368:9372  pool */\n      dup5\n        /* \"src/Farm.sol\":9368:9388  pool.lastRewardBlock */\n      0x02\n      add\n        /* \"src/Farm.sol\":9368:9403  pool.lastRewardBlock = block.number */\n      dup2\n      swap1\n      sstore\n      pop\n        /* \"src/Farm.sol\":8804:9411  {... */\n      pop\n      pop\n      pop\n      pop\n        /* \"src/Farm.sol\":8764:9411  function updatePool(uint256 pid) public {... */\n    tag_198:\n      pop\n      jump\t// out\n        /* \"src/Farm.sol\":11172:11556  function emergencyWithdraw(uint256 pid) public {... */\n    tag_84:\n        /* \"src/Farm.sol\":11230:11251  PoolInfo storage pool */\n      0x00\n        /* \"src/Farm.sol\":11254:11262  poolInfo */\n      0x06\n        /* \"src/Farm.sol\":11263:11266  pid */\n      dup3\n        /* \"src/Farm.sol\":11254:11267  poolInfo[pid] */\n      dup2\n      sload\n      dup2\n      lt\n      tag_218\n      jumpi\n      tag_219\n      tag_168\n      jump\t// in\n    tag_219:\n    tag_218:\n      swap1\n      0x00\n      mstore\n      keccak256(0x00, 0x20)\n      swap1\n      0x04\n      mul\n      add\n        /* \"src/Farm.sol\":11230:11267  PoolInfo storage pool = poolInfo[pid] */\n      swap1\n      pop\n        /* \"src/Farm.sol\":11278:11303  UserInfo storage userData */\n      0x00\n        /* \"src/Farm.sol\":11306:11314  userInfo */\n      0x07\n        /* \"src/Farm.sol\":11306:11319  userInfo[pid] */\n      0x00\n        /* \"src/Farm.sol\":11315:11318  pid */\n      dup5\n        /* \"src/Farm.sol\":11306:11319  userInfo[pid] */\n      dup2\n      mstore\n      0x20\n      add\n      swap1\n      dup2\n      mstore\n      0x20\n      add\n      0x00\n      keccak256\n        /* \"src/Farm.sol\":11306:11333  userInfo[pid][_msgSender()] */\n      0x00\n        /* \"src/Farm.sol\":11320:11332  _msgSender() */\n      tag_221\n        /* \"src/Farm.sol\":11320:11330  _msgSender */\n      tag_146\n        /* \"src/Farm.sol\":11320:11332  _msgSender() */\n      jump\t// in\n    tag_221:\n        /* \"src/Farm.sol\":11306:11333  userInfo[pid][_msgSender()] */\n      0xffffffffffffffffffffffffffffffffffffffff\n      and\n      0xffffffffffffffffffffffffffffffffffffffff\n      and\n      dup2\n      mstore\n      0x20\n      add\n      swap1\n      dup2\n      mstore\n      0x20\n      add\n      0x00\n      keccak256\n        /* \"src/Farm.sol\":11278:11333  UserInfo storage userData = userInfo[pid][_msgSender()] */\n      swap1\n      pop\n        /* \"src/Farm.sol\":11344:11411  SafeERC20.safeTransfer(pool.lpToken, _msgSender(), userData.amount) */\n      tag_222\n        /* \"src/Farm.sol\":11367:11371  pool */\n      dup3\n        /* \"src/Farm.sol\":11367:11379  pool.lpToken */\n      0x00\n      add\n      0x00\n      swap1\n      sload\n      swap1\n      0x0100\n      exp\n      swap1\n      div\n      0xffffffffffffffffffffffffffffffffffffffff\n      and\n        /* \"src/Farm.sol\":11381:11393  _msgSender() */\n      tag_223\n        /* \"src/Farm.sol\":11381:11391  _msgSender */\n      tag_146\n        /* \"src/Farm.sol\":11381:11393  _msgSender() */\n      jump\t// in\n    tag_223:\n        /* \"src/Farm.sol\":11395:11403  userData */\n      dup4\n        /* \"src/Farm.sol\":11395:11410  userData.amount */\n      0x00\n      add\n      sload\n        /* \"src/Farm.sol\":11344:11366  SafeERC20.safeTransfer */\n      tag_193\n        /* \"src/Farm.sol\":11344:11411  SafeERC20.safeTransfer(pool.lpToken, _msgSender(), userData.amount) */\n      jump\t// in\n    tag_222:\n        /* \"src/Farm.sol\":11461:11464  pid */\n      dup3\n        /* \"src/Farm.sol\":11447:11459  _msgSender() */\n      tag_224\n        /* \"src/Farm.sol\":11447:11457  _msgSender */\n      tag_146\n        /* \"src/Farm.sol\":11447:11459  _msgSender() */\n      jump\t// in\n    tag_224:\n        /* \"src/Farm.sol\":11429:11482  EmergencyWithdraw(_msgSender(), pid, userData.amount) */\n      0xffffffffffffffffffffffffffffffffffffffff\n      and\n      0xbb757047c2b5f3974fe26b7c10f732e7bce710b0952a71082702781e62ae0595\n        /* \"src/Farm.sol\":11466:11474  userData */\n      dup4\n        /* \"src/Farm.sol\":11466:11481  userData.amount */\n      0x00\n      add\n      sload\n        /* \"src/Farm.sol\":11429:11482  EmergencyWithdraw(_msgSender(), pid, userData.amount) */\n      mload(0x40)\n      tag_225\n      swap2\n      swap1\n      tag_41\n      jump\t// in\n    tag_225:\n      mload(0x40)\n      dup1\n      swap2\n      sub\n      swap1\n      log3\n        /* \"src/Farm.sol\":11513:11514  0 */\n      0x00\n        /* \"src/Farm.sol\":11495:11503  userData */\n      dup2\n        /* \"src/Farm.sol\":11495:11510  userData.amount */\n      0x00\n      add\n        /* \"src/Farm.sol\":11495:11514  userData.amount = 0 */\n      dup2\n      swap1\n      sstore\n      pop\n        /* \"src/Farm.sol\":11547:11548  0 */\n      0x00\n        /* \"src/Farm.sol\":11525:11533  userData */\n      dup2\n        /* \"src/Farm.sol\":11525:11544  userData.rewardDebt */\n      0x01\n      add\n        /* \"src/Farm.sol\":11525:11548  userData.rewardDebt = 0 */\n      dup2\n      swap1\n      sstore\n      pop\n        /* \"src/Farm.sol\":11219:11556  {... */\n      pop\n      pop\n        /* \"src/Farm.sol\":11172:11556  function emergencyWithdraw(uint256 pid) public {... */\n      pop\n      jump\t// out\n        /* \"src/Farm.sol\":2589:3964  function initialize(address hygt_, address[3] memory lpTokens_, uint256 initialMintStartTime_) external {... */\n    tag_88:\n        /* \"src/Farm.sol\":2728:2740  _initializer */\n      immutable(\"0xed93c67e1a9b7f09d3b44ee593360f0073603a8e45415e2c3c69afc994a1103d\")\n        /* \"src/Farm.sol\":2712:2740  _msgSender() == _initializer */\n      0xffffffffffffffffffffffffffffffffffffffff\n      and\n        /* \"src/Farm.sol\":2712:2724  _msgSender() */\n      tag_227\n        /* \"src/Farm.sol\":2712:2722  _msgSender */\n      tag_146\n        /* \"src/Farm.sol\":2712:2724  _msgSender() */\n      jump\t// in\n    tag_227:\n        /* \"src/Farm.sol\":2712:2740  _msgSender() == _initializer */\n      0xffffffffffffffffffffffffffffffffffffffff\n      and\n      eq\n        /* \"src/Farm.sol\":2704:2780  require(_msgSender() == _initializer, \"Farm: caller is not the initializer\") */\n      tag_228\n      jumpi\n      mload(0x40)\n      0x08c379a000000000000000000000000000000000000000000000000000000000\n      dup2\n      mstore\n      0x04\n      add\n      tag_229\n      swap1\n      tag_230\n      jump\t// in\n    tag_229:\n      mload(0x40)\n      dup1\n      swap2\n      sub\n      swap1\n      revert\n    tag_228:\n        /* \"src/Farm.sol\":2912:2913  0 */\n      0x00\n        /* \"src/Farm.sol\":2895:2914  hygt_ != address(0) */\n      0xffffffffffffffffffffffffffffffffffffffff\n      and\n        /* \"src/Farm.sol\":2895:2900  hygt_ */\n      dup4\n        /* \"src/Farm.sol\":2895:2914  hygt_ != address(0) */\n      0xffffffffffffffffffffffffffffffffffffffff\n      and\n      sub\n        /* \"src/Farm.sol\":2887:2945  require(hygt_ != address(0), \"Farm: invalid HYGT address\") */\n      tag_231\n      jumpi\n      mload(0x40)\n      0x08c379a000000000000000000000000000000000000000000000000000000000\n      dup2\n      mstore\n      0x04\n      add\n      tag_232\n      swap1\n      tag_233\n      jump\t// in\n    tag_232:\n      mload(0x40)\n      dup1\n      swap2\n      sub\n      swap1\n      revert\n    tag_231:\n        /* \"src/Farm.sol\":3047:3086  _grantRole(GOVERNOR_ROLE, _msgSender()) */\n      tag_234\n        /* \"src/Farm.sol\":323:351  abi.encodePacked(\"Governor\") */\n      add(0x20, mload(0x40))\n      tag_235\n      swap1\n      tag_153\n      jump\t// in\n    tag_235:\n      mload(0x40)\n      0x20\n      dup2\n      dup4\n      sub\n      sub\n      dup2\n      mstore\n      swap1\n      0x40\n      mstore\n        /* \"src/Farm.sol\":313:352  keccak256(abi.encodePacked(\"Governor\")) */\n      dup1\n      mload\n      swap1\n      0x20\n      add\n      keccak256\n        /* \"src/Farm.sol\":3073:3085  _msgSender() */\n      tag_236\n        /* \"src/Farm.sol\":3073:3083  _msgSender */\n      tag_146\n        /* \"src/Farm.sol\":3073:3085  _msgSender() */\n      jump\t// in\n    tag_236:\n        /* \"src/Farm.sol\":3047:3057  _grantRole */\n      tag_143\n        /* \"src/Farm.sol\":3047:3086  _grantRole(GOVERNOR_ROLE, _msgSender()) */\n      jump\t// in\n    tag_234:\n        /* \"src/Farm.sol\":3138:3182  _grantRole(DEFAULT_ADMIN_ROLE, _msgSender()) */\n      tag_237\n        /* \"src/utils/AccessControl.sol\":2132:2136  0x00 */\n      0x00\n        /* \"src/Farm.sol\":3149:3167  DEFAULT_ADMIN_ROLE */\n      dup1\n      shl\n        /* \"src/Farm.sol\":3169:3181  _msgSender() */\n      tag_238\n        /* \"src/Farm.sol\":3169:3179  _msgSender */\n      tag_146\n        /* \"src/Farm.sol\":3169:3181  _msgSender() */\n      jump\t// in\n    tag_238:\n        /* \"src/Farm.sol\":3138:3148  _grantRole */\n      tag_143\n        /* \"src/Farm.sol\":3138:3182  _grantRole(DEFAULT_ADMIN_ROLE, _msgSender()) */\n      jump\t// in\n    tag_237:\n        /* \"src/Farm.sol\":3208:3213  hygt_ */\n      dup3\n        /* \"src/Farm.sol\":3195:3199  HYGT */\n      0x01\n      0x00\n        /* \"src/Farm.sol\":3195:3214  HYGT = IHYGT(hygt_) */\n      0x0100\n      exp\n      dup2\n      sload\n      dup2\n      0xffffffffffffffffffffffffffffffffffffffff\n      mul\n      not\n      and\n      swap1\n      dup4\n      0xffffffffffffffffffffffffffffffffffffffff\n      and\n      mul\n      or\n      swap1\n      sstore\n      pop\n        /* \"src/Farm.sol\":3242:3250  2 * 1e18 */\n      0x1bc16d674ec80000\n        /* \"src/Farm.sol\":3227:3239  HYGTPerBlock */\n      0x02\n        /* \"src/Farm.sol\":3227:3250  HYGTPerBlock = 2 * 1e18 */\n      dup2\n      swap1\n      sstore\n      pop\n        /* \"src/Farm.sol\":3302:3326  uint256 averageBlockTime */\n      0x00\n        /* \"src/Farm.sol\":3329:3331  12 */\n      0x0c\n        /* \"src/Farm.sol\":3302:3331  uint256 averageBlockTime = 12 */\n      swap1\n      pop\n        /* \"src/Farm.sol\":3342:3357  uint256 dBlocks */\n      0x00\n        /* \"src/Farm.sol\":3423:3439  averageBlockTime */\n      dup2\n        /* \"src/Farm.sol\":3404:3419  block.timestamp */\n      timestamp\n        /* \"src/Farm.sol\":424:428  1800 */\n      0x0708\n        /* \"src/Farm.sol\":3362:3383  initialMintStartTime_ */\n      dup6\n        /* \"src/Farm.sol\":3362:3400  initialMintStartTime_ + ONE_MONTH_TIME */\n      tag_239\n      swap2\n      swap1\n      tag_162\n      jump\t// in\n    tag_239:\n        /* \"src/Farm.sol\":3361:3419  (initialMintStartTime_ + ONE_MONTH_TIME) - block.timestamp */\n      tag_240\n      swap2\n      swap1\n      tag_180\n      jump\t// in\n    tag_240:\n        /* \"src/Farm.sol\":3360:3439  ((initialMintStartTime_ + ONE_MONTH_TIME) - block.timestamp) / averageBlockTime */\n      tag_241\n      swap2\n      swap1\n      tag_178\n      jump\t// in\n    tag_241:\n        /* \"src/Farm.sol\":3342:3439  uint256 dBlocks = ((initialMintStartTime_ + ONE_MONTH_TIME) - block.timestamp) / averageBlockTime */\n      swap1\n      pop\n        /* \"src/Farm.sol\":3478:3485  dBlocks */\n      dup1\n        /* \"src/Farm.sol\":3463:3475  block.number */\n      number\n        /* \"src/Farm.sol\":3463:3485  block.number + dBlocks */\n      tag_242\n      swap2\n      swap1\n      tag_162\n      jump\t// in\n    tag_242:\n        /* \"src/Farm.sol\":3450:3460  startBlock */\n      0x03\n        /* \"src/Farm.sol\":3450:3485  startBlock = block.number + dBlocks */\n      dup2\n      swap1\n      sstore\n      pop\n        /* \"src/Farm.sol\":3514:3518  1000 */\n      0x03e8\n        /* \"src/Farm.sol\":3496:3511  totalAllocPoint */\n      0x04\n        /* \"src/Farm.sol\":3496:3518  totalAllocPoint = 1000 */\n      dup2\n      swap1\n      sstore\n      pop\n        /* \"src/Farm.sol\":3627:3628  0 */\n      0x00\n        /* \"src/Farm.sol\":3608:3616  poolInfo */\n      0x06\n        /* \"src/Farm.sol\":3608:3623  poolInfo.length */\n      dup1\n      sload\n      swap1\n      pop\n        /* \"src/Farm.sol\":3608:3628  poolInfo.length == 0 */\n      sub\n        /* \"src/Farm.sol\":3604:3923  if (poolInfo.length == 0) {... */\n      tag_243\n      jumpi\n        /* \"src/Farm.sol\":3645:3704  _addPool(IERC20(lpTokens_[0]), 400, \"HYDT-BNB\", startBlock) */\n      tag_244\n        /* \"src/Farm.sol\":3661:3670  lpTokens_ */\n      dup5\n        /* \"src/Farm.sol\":3671:3672  0 */\n      0x00\n        /* \"src/Farm.sol\":3661:3673  lpTokens_[0] */\n      0x03\n      dup2\n      lt\n      tag_245\n      jumpi\n      tag_246\n      tag_168\n      jump\t// in\n    tag_246:\n    tag_245:\n      0x20\n      mul\n      add\n      mload\n        /* \"src/Farm.sol\":3676:3679  400 */\n      0x0190\n        /* \"src/Farm.sol\":3645:3704  _addPool(IERC20(lpTokens_[0]), 400, \"HYDT-BNB\", startBlock) */\n      mload(0x40)\n      dup1\n      0x40\n      add\n      0x40\n      mstore\n      dup1\n      0x08\n      dup2\n      mstore\n      0x20\n      add\n      0x485944542d424e42000000000000000000000000000000000000000000000000\n      dup2\n      mstore\n      pop\n        /* \"src/Farm.sol\":3693:3703  startBlock */\n      sload(0x03)\n        /* \"src/Farm.sol\":3645:3653  _addPool */\n      tag_164\n        /* \"src/Farm.sol\":3645:3704  _addPool(IERC20(lpTokens_[0]), 400, \"HYDT-BNB\", startBlock) */\n      jump\t// in\n    tag_244:\n        /* \"src/Farm.sol\":3738:3798  _addPool(IERC20(lpTokens_[1]), 400, \"HYDT-USDT\", startBlock) */\n      tag_247\n        /* \"src/Farm.sol\":3754:3763  lpTokens_ */\n      dup5\n        /* \"src/Farm.sol\":3764:3765  1 */\n      0x01\n        /* \"src/Farm.sol\":3754:3766  lpTokens_[1] */\n      0x03\n      dup2\n      lt\n      tag_248\n      jumpi\n      tag_249\n      tag_168\n      jump\t// in\n    tag_249:\n    tag_248:\n      0x20\n      mul\n      add\n      mload\n        /* \"src/Farm.sol\":3769:3772  400 */\n      0x0190\n        /* \"src/Farm.sol\":3738:3798  _addPool(IERC20(lpTokens_[1]), 400, \"HYDT-USDT\", startBlock) */\n      mload(0x40)\n      dup1\n      0x40\n      add\n      0x40\n      mstore\n      dup1\n      0x09\n      dup2\n      mstore\n      0x20\n      add\n      0x485944542d555344540000000000000000000000000000000000000000000000\n      dup2\n      mstore\n      pop\n        /* \"src/Farm.sol\":3787:3797  startBlock */\n      sload(0x03)\n        /* \"src/Farm.sol\":3738:3746  _addPool */\n      tag_164\n        /* \"src/Farm.sol\":3738:3798  _addPool(IERC20(lpTokens_[1]), 400, \"HYDT-USDT\", startBlock) */\n      jump\t// in\n    tag_247:\n        /* \"src/Farm.sol\":3832:3892  _addPool(IERC20(lpTokens_[2]), 200, \"HYDT-HYGT\", startBlock) */\n      tag_250\n        /* \"src/Farm.sol\":3848:3857  lpTokens_ */\n      dup5\n        /* \"src/Farm.sol\":3858:3859  2 */\n      0x02\n        /* \"src/Farm.sol\":3848:3860  lpTokens_[2] */\n      0x03\n      dup2\n      lt\n      tag_251\n      jumpi\n      tag_252\n      tag_168\n      jump\t// in\n    tag_252:\n    tag_251:\n      0x20\n      mul\n      add\n      mload\n        /* \"src/Farm.sol\":3863:3866  200 */\n      0xc8\n        /* \"src/Farm.sol\":3832:3892  _addPool(IERC20(lpTokens_[2]), 200, \"HYDT-HYGT\", startBlock) */\n      mload(0x40)\n      dup1\n      0x40\n      add\n      0x40\n      mstore\n      dup1\n      0x09\n      dup2\n      mstore\n      0x20\n      add\n      0x485944542d485947540000000000000000000000000000000000000000000000\n      dup2\n      mstore\n      pop\n        /* \"src/Farm.sol\":3881:3891  startBlock */\n      sload(0x03)\n        /* \"src/Farm.sol\":3832:3840  _addPool */\n      tag_164\n        /* \"src/Farm.sol\":3832:3892  _addPool(IERC20(lpTokens_[2]), 200, \"HYDT-HYGT\", startBlock) */\n      jump\t// in\n    tag_250:\n        /* \"src/Farm.sol\":3604:3923  if (poolInfo.length == 0) {... */\n    tag_243:\n        /* \"src/Farm.sol\":3952:3956  true */\n      0x01\n        /* \"src/Farm.sol\":3935:3949  _isInitialized */\n      0x05\n      0x00\n        /* \"src/Farm.sol\":3935:3956  _isInitialized = true */\n      0x0100\n      exp\n      dup2\n      sload\n      dup2\n      0xff\n      mul\n      not\n      and\n      swap1\n      dup4\n      iszero\n      iszero\n      mul\n      or\n      swap1\n      sstore\n      pop\n        /* \"src/Farm.sol\":2693:3964  {... */\n      pop\n      pop\n        /* \"src/Farm.sol\":2589:3964  function initialize(address hygt_, address[3] memory lpTokens_, uint256 initialMintStartTime_) external {... */\n      pop\n      pop\n      pop\n      jump\t// out\n        /* \"src/Farm.sol\":7133:7315  function massUpdatePools() public {... */\n    tag_90:\n        /* \"src/Farm.sol\":7178:7192  uint256 length */\n      0x00\n        /* \"src/Farm.sol\":7195:7203  poolInfo */\n      0x06\n        /* \"src/Farm.sol\":7195:7210  poolInfo.length */\n      dup1\n      sload\n      swap1\n      pop\n        /* \"src/Farm.sol\":7178:7210  uint256 length = poolInfo.length */\n      swap1\n      pop\n        /* \"src/Farm.sol\":7228:7239  uint256 pid */\n      0x00\n        /* \"src/Farm.sol\":7223:7308  for (uint256 pid = 0; pid < length; ++pid) {... */\n    tag_254:\n        /* \"src/Farm.sol\":7251:7257  length */\n      dup2\n        /* \"src/Farm.sol\":7245:7248  pid */\n      dup2\n        /* \"src/Farm.sol\":7245:7257  pid < length */\n      lt\n        /* \"src/Farm.sol\":7223:7308  for (uint256 pid = 0; pid < length; ++pid) {... */\n      iszero\n      tag_255\n      jumpi\n        /* \"src/Farm.sol\":7281:7296  updatePool(pid) */\n      tag_257\n        /* \"src/Farm.sol\":7292:7295  pid */\n      dup2\n        /* \"src/Farm.sol\":7281:7291  updatePool */\n      tag_81\n        /* \"src/Farm.sol\":7281:7296  updatePool(pid) */\n      jump\t// in\n    tag_257:\n        /* \"src/Farm.sol\":7259:7264  ++pid */\n      dup1\n      tag_258\n      swap1\n      tag_259\n      jump\t// in\n    tag_258:\n      swap1\n      pop\n        /* \"src/Farm.sol\":7223:7308  for (uint256 pid = 0; pid < length; ++pid) {... */\n      jump(tag_254)\n    tag_255:\n      pop\n        /* \"src/Farm.sol\":7167:7315  {... */\n      pop\n        /* \"src/Farm.sol\":7133:7315  function massUpdatePools() public {... */\n      jump\t// out\n        /* \"src/Farm.sol\":632:659  uint256 public HYGTPerBlock */\n    tag_92:\n      sload(0x02)\n      dup2\n      jump\t// out\n        /* \"src/Farm.sol\":7768:8527  function getPending(uint256 pid, address user) public view returns (uint256) {... */\n    tag_97:\n        /* \"src/Farm.sol\":7836:7843  uint256 */\n      0x00\n        /* \"src/Farm.sol\":7856:7876  PoolInfo memory pool */\n      dup1\n        /* \"src/Farm.sol\":7879:7887  poolInfo */\n      0x06\n        /* \"src/Farm.sol\":7888:7891  pid */\n      dup5\n        /* \"src/Farm.sol\":7879:7892  poolInfo[pid] */\n      dup2\n      sload\n      dup2\n      lt\n      tag_261\n      jumpi\n      tag_262\n      tag_168\n      jump\t// in\n    tag_262:\n    tag_261:\n      swap1\n      0x00\n      mstore\n      keccak256(0x00, 0x20)\n      swap1\n      0x04\n      mul\n      add\n        /* \"src/Farm.sol\":7856:7892  PoolInfo memory pool = poolInfo[pid] */\n      mload(0x40)\n      dup1\n      0x80\n      add\n      0x40\n      mstore\n      swap1\n      dup2\n      0x00\n      dup3\n      add\n      0x00\n      swap1\n      sload\n      swap1\n      0x0100\n      exp\n      swap1\n      div\n      0xffffffffffffffffffffffffffffffffffffffff\n      and\n      0xffffffffffffffffffffffffffffffffffffffff\n      and\n      0xffffffffffffffffffffffffffffffffffffffff\n      and\n      dup2\n      mstore\n      0x20\n      add\n      0x01\n      dup3\n      add\n      sload\n      dup2\n      mstore\n      0x20\n      add\n      0x02\n      dup3\n      add\n      sload\n      dup2\n      mstore\n      0x20\n      add\n      0x03\n      dup3\n      add\n      sload\n      dup2\n      mstore\n      pop\n      pop\n      swap1\n      pop\n        /* \"src/Farm.sol\":7903:7927  UserInfo memory userData */\n      0x00\n        /* \"src/Farm.sol\":7930:7938  userInfo */\n      0x07\n        /* \"src/Farm.sol\":7930:7943  userInfo[pid] */\n      0x00\n        /* \"src/Farm.sol\":7939:7942  pid */\n      dup7\n        /* \"src/Farm.sol\":7930:7943  userInfo[pid] */\n      dup2\n      mstore\n      0x20\n      add\n      swap1\n      dup2\n      mstore\n      0x20\n      add\n      0x00\n      keccak256\n        /* \"src/Farm.sol\":7930:7949  userInfo[pid][user] */\n      0x00\n        /* \"src/Farm.sol\":7944:7948  user */\n      dup6\n        /* \"src/Farm.sol\":7930:7949  userInfo[pid][user] */\n      0xffffffffffffffffffffffffffffffffffffffff\n      and\n      0xffffffffffffffffffffffffffffffffffffffff\n      and\n      dup2\n      mstore\n      0x20\n      add\n      swap1\n      dup2\n      mstore\n      0x20\n      add\n      0x00\n      keccak256\n        /* \"src/Farm.sol\":7903:7949  UserInfo memory userData = userInfo[pid][user] */\n      mload(0x40)\n      dup1\n      0x40\n      add\n      0x40\n      mstore\n      swap1\n      dup2\n      0x00\n      dup3\n      add\n      sload\n      dup2\n      mstore\n      0x20\n      add\n      0x01\n      dup3\n      add\n      sload\n      dup2\n      mstore\n      pop\n      pop\n      swap1\n      pop\n        /* \"src/Farm.sol\":7960:7983  uint256 accHYGTPerShare */\n      0x00\n        /* \"src/Farm.sol\":7986:7990  pool */\n      dup3\n        /* \"src/Farm.sol\":7986:8006  pool.accHYGTPerShare */\n      0x60\n      add\n      mload\n        /* \"src/Farm.sol\":7960:8006  uint256 accHYGTPerShare = pool.accHYGTPerShare */\n      swap1\n      pop\n        /* \"src/Farm.sol\":8017:8033  uint256 lpSupply */\n      0x00\n        /* \"src/Farm.sol\":8036:8040  pool */\n      dup4\n        /* \"src/Farm.sol\":8036:8048  pool.lpToken */\n      0x00\n      add\n      mload\n        /* \"src/Farm.sol\":8036:8058  pool.lpToken.balanceOf */\n      0xffffffffffffffffffffffffffffffffffffffff\n      and\n      0x70a08231\n        /* \"src/Farm.sol\":8067:8071  this */\n      address\n        /* \"src/Farm.sol\":8036:8073  pool.lpToken.balanceOf(address(this)) */\n      mload(0x40)\n      dup3\n      0xffffffff\n      and\n      0xe0\n      shl\n      dup2\n      mstore\n      0x04\n      add\n      tag_264\n      swap2\n      swap1\n      tag_204\n      jump\t// in\n    tag_264:\n      0x20\n      mload(0x40)\n      dup1\n      dup4\n      sub\n      dup2\n      dup7\n      gas\n      staticcall\n      iszero\n      dup1\n      iszero\n      tag_266\n      jumpi\n      returndatasize\n      0x00\n      dup1\n      returndatacopy\n      revert(0x00, returndatasize)\n    tag_266:\n      pop\n      pop\n      pop\n      pop\n      mload(0x40)\n      returndatasize\n      not(0x1f)\n      0x1f\n      dup3\n      add\n      and\n      dup3\n      add\n      dup1\n      0x40\n      mstore\n      pop\n      dup2\n      add\n      swap1\n      tag_267\n      swap2\n      swap1\n      tag_208\n      jump\t// in\n    tag_267:\n        /* \"src/Farm.sol\":8017:8073  uint256 lpSupply = pool.lpToken.balanceOf(address(this)) */\n      swap1\n      pop\n        /* \"src/Farm.sol\":8105:8109  pool */\n      dup4\n        /* \"src/Farm.sol\":8105:8125  pool.lastRewardBlock */\n      0x40\n      add\n      mload\n        /* \"src/Farm.sol\":8090:8102  block.number */\n      number\n        /* \"src/Farm.sol\":8090:8125  block.number > pool.lastRewardBlock */\n      gt\n        /* \"src/Farm.sol\":8090:8142  block.number > pool.lastRewardBlock && lpSupply != 0 */\n      dup1\n      iszero\n      tag_268\n      jumpi\n      pop\n        /* \"src/Farm.sol\":8141:8142  0 */\n      0x00\n        /* \"src/Farm.sol\":8129:8137  lpSupply */\n      dup2\n        /* \"src/Farm.sol\":8129:8142  lpSupply != 0 */\n      eq\n      iszero\n        /* \"src/Farm.sol\":8090:8142  block.number > pool.lastRewardBlock && lpSupply != 0 */\n    tag_268:\n        /* \"src/Farm.sol\":8086:8400  if (block.number > pool.lastRewardBlock && lpSupply != 0) {... */\n      iszero\n      tag_269\n      jumpi\n        /* \"src/Farm.sol\":8159:8181  uint256 numberOfBlocks */\n      0x00\n        /* \"src/Farm.sol\":8199:8203  pool */\n      dup5\n        /* \"src/Farm.sol\":8199:8219  pool.lastRewardBlock */\n      0x40\n      add\n      mload\n        /* \"src/Farm.sol\":8184:8196  block.number */\n      number\n        /* \"src/Farm.sol\":8184:8219  block.number - pool.lastRewardBlock */\n      tag_270\n      swap2\n      swap1\n      tag_180\n      jump\t// in\n    tag_270:\n        /* \"src/Farm.sol\":8159:8219  uint256 numberOfBlocks = block.number - pool.lastRewardBlock */\n      swap1\n      pop\n        /* \"src/Farm.sol\":8234:8252  uint256 HYGTReward */\n      0x00\n        /* \"src/Farm.sol\":8307:8322  totalAllocPoint */\n      sload(0x04)\n        /* \"src/Farm.sol\":8288:8292  pool */\n      dup7\n        /* \"src/Farm.sol\":8288:8303  pool.allocPoint */\n      0x20\n      add\n      mload\n        /* \"src/Farm.sol\":8273:8285  HYGTPerBlock */\n      sload(0x02)\n        /* \"src/Farm.sol\":8256:8270  numberOfBlocks */\n      dup5\n        /* \"src/Farm.sol\":8256:8285  numberOfBlocks * HYGTPerBlock */\n      tag_271\n      swap2\n      swap1\n      tag_176\n      jump\t// in\n    tag_271:\n        /* \"src/Farm.sol\":8256:8303  numberOfBlocks * HYGTPerBlock * pool.allocPoint */\n      tag_272\n      swap2\n      swap1\n      tag_176\n      jump\t// in\n    tag_272:\n        /* \"src/Farm.sol\":8255:8322  (numberOfBlocks * HYGTPerBlock * pool.allocPoint) / totalAllocPoint */\n      tag_273\n      swap2\n      swap1\n      tag_178\n      jump\t// in\n    tag_273:\n        /* \"src/Farm.sol\":8234:8322  uint256 HYGTReward = (numberOfBlocks * HYGTPerBlock * pool.allocPoint) / totalAllocPoint */\n      swap1\n      pop\n        /* \"src/Farm.sol\":8379:8387  lpSupply */\n      dup3\n        /* \"src/Farm.sol\":8371:8375  1e12 */\n      0xe8d4a51000\n        /* \"src/Farm.sol\":8358:8368  HYGTReward */\n      dup3\n        /* \"src/Farm.sol\":8358:8375  HYGTReward * 1e12 */\n      tag_274\n      swap2\n      swap1\n      tag_176\n      jump\t// in\n    tag_274:\n        /* \"src/Farm.sol\":8357:8387  (HYGTReward * 1e12) / lpSupply */\n      tag_275\n      swap2\n      swap1\n      tag_178\n      jump\t// in\n    tag_275:\n        /* \"src/Farm.sol\":8337:8388  accHYGTPerShare += ((HYGTReward * 1e12) / lpSupply) */\n      dup5\n      tag_276\n      swap2\n      swap1\n      tag_162\n      jump\t// in\n    tag_276:\n      swap4\n      pop\n        /* \"src/Farm.sol\":8144:8400  {... */\n      pop\n      pop\n        /* \"src/Farm.sol\":8086:8400  if (block.number > pool.lastRewardBlock && lpSupply != 0) {... */\n    tag_269:\n        /* \"src/Farm.sol\":8410:8425  uint256 pending */\n      0x00\n        /* \"src/Farm.sol\":8475:8483  userData */\n      dup4\n        /* \"src/Farm.sol\":8475:8494  userData.rewardDebt */\n      0x20\n      add\n      mload\n        /* \"src/Farm.sol\":8467:8471  1e12 */\n      0xe8d4a51000\n        /* \"src/Farm.sol\":8448:8463  accHYGTPerShare */\n      dup5\n        /* \"src/Farm.sol\":8430:8438  userData */\n      dup7\n        /* \"src/Farm.sol\":8430:8445  userData.amount */\n      0x00\n      add\n      mload\n        /* \"src/Farm.sol\":8430:8463  userData.amount * accHYGTPerShare */\n      tag_277\n      swap2\n      swap1\n      tag_176\n      jump\t// in\n    tag_277:\n        /* \"src/Farm.sol\":8429:8471  (userData.amount * accHYGTPerShare) / 1e12 */\n      tag_278\n      swap2\n      swap1\n      tag_178\n      jump\t// in\n    tag_278:\n        /* \"src/Farm.sol\":8428:8494  ((userData.amount * accHYGTPerShare) / 1e12) - userData.rewardDebt */\n      tag_279\n      swap2\n      swap1\n      tag_180\n      jump\t// in\n    tag_279:\n        /* \"src/Farm.sol\":8410:8494  uint256 pending = ((userData.amount * accHYGTPerShare) / 1e12) - userData.rewardDebt */\n      swap1\n      pop\n        /* \"src/Farm.sol\":8512:8519  pending */\n      dup1\n        /* \"src/Farm.sol\":8505:8519  return pending */\n      swap6\n      pop\n      pop\n      pop\n      pop\n      pop\n      pop\n        /* \"src/Farm.sol\":7768:8527  function getPending(uint256 pid, address user) public view returns (uint256) {... */\n      swap3\n      swap2\n      pop\n      pop\n      jump\t// out\n        /* \"src/utils/AccessControl.sol\":2982:3129  function hasRole(bytes32 role, address account) public view virtual override returns (bool) {... */\n    tag_101:\n        /* \"src/utils/AccessControl.sol\":3068:3072  bool */\n      0x00\n        /* \"src/utils/AccessControl.sol\":3092:3098  _roles */\n      dup1\n        /* \"src/utils/AccessControl.sol\":3092:3104  _roles[role] */\n      0x00\n        /* \"src/utils/AccessControl.sol\":3099:3103  role */\n      dup5\n        /* \"src/utils/AccessControl.sol\":3092:3104  _roles[role] */\n      dup2\n      mstore\n      0x20\n      add\n      swap1\n      dup2\n      mstore\n      0x20\n      add\n      0x00\n      keccak256\n        /* \"src/utils/AccessControl.sol\":3092:3112  _roles[role].members */\n      0x00\n      add\n        /* \"src/utils/AccessControl.sol\":3092:3121  _roles[role].members[account] */\n      0x00\n        /* \"src/utils/AccessControl.sol\":3113:3120  account */\n      dup4\n        /* \"src/utils/AccessControl.sol\":3092:3121  _roles[role].members[account] */\n      0xffffffffffffffffffffffffffffffffffffffff\n      and\n      0xffffffffffffffffffffffffffffffffffffffff\n      and\n      dup2\n      mstore\n      0x20\n      add\n      swap1\n      dup2\n      mstore\n      0x20\n      add\n      0x00\n      keccak256\n      0x00\n      swap1\n      sload\n      swap1\n      0x0100\n      exp\n      swap1\n      div\n      0xff\n      and\n        /* \"src/utils/AccessControl.sol\":3085:3121  return _roles[role].members[account] */\n      swap1\n      pop\n        /* \"src/utils/AccessControl.sol\":2982:3129  function hasRole(bytes32 role, address account) public view virtual override returns (bool) {... */\n      swap3\n      swap2\n      pop\n      pop\n      jump\t// out\n        /* \"src/Farm.sol\":1487:1553  mapping (uint256 => mapping (address => UserInfo)) public userInfo */\n    tag_105:\n      mstore(0x20, 0x07)\n      dup2\n      0x00\n      mstore\n      mstore(0x20, keccak256(0x00, 0x40))\n      dup1\n      0x00\n      mstore\n      keccak256(0x00, 0x40)\n      0x00\n      swap2\n      pop\n      swap2\n      pop\n      pop\n      dup1\n      0x00\n      add\n      sload\n      swap1\n      dup1\n      0x01\n      add\n      sload\n      swap1\n      pop\n      dup3\n      jump\t// out\n        /* \"src/utils/AccessControl.sol\":2087:2136  bytes32 public constant DEFAULT_ADMIN_ROLE = 0x00 */\n    tag_109:\n        /* \"src/utils/AccessControl.sol\":2132:2136  0x00 */\n      0x00\n        /* \"src/utils/AccessControl.sol\":2087:2136  bytes32 public constant DEFAULT_ADMIN_ROLE = 0x00 */\n      dup1\n      shl\n      dup2\n      jump\t// out\n        /* \"src/Farm.sol\":6554:7000  function updateAllocation(uint256 pid, uint256 allocPoint, bool withUpdate) external onlyRole(GOVERNOR_ROLE) {... */\n    tag_114:\n        /* \"src/Farm.sol\":323:351  abi.encodePacked(\"Governor\") */\n      add(0x20, mload(0x40))\n      tag_281\n      swap1\n      tag_153\n      jump\t// in\n    tag_281:\n      mload(0x40)\n      0x20\n      dup2\n      dup4\n      sub\n      sub\n      dup2\n      mstore\n      swap1\n      0x40\n      mstore\n        /* \"src/Farm.sol\":313:352  keccak256(abi.encodePacked(\"Governor\")) */\n      dup1\n      mload\n      swap1\n      0x20\n      add\n      keccak256\n        /* \"src/utils/AccessControl.sol\":2578:2594  _checkRole(role) */\n      tag_283\n        /* \"src/utils/AccessControl.sol\":2589:2593  role */\n      dup2\n        /* \"src/utils/AccessControl.sol\":2578:2588  _checkRole */\n      tag_140\n        /* \"src/utils/AccessControl.sol\":2578:2594  _checkRole(role) */\n      jump\t// in\n    tag_283:\n        /* \"src/Farm.sol\":6678:6688  withUpdate */\n      dup2\n        /* \"src/Farm.sol\":6674:6734  if (withUpdate) {... */\n      iszero\n      tag_285\n      jumpi\n        /* \"src/Farm.sol\":6705:6722  massUpdatePools() */\n      tag_286\n        /* \"src/Farm.sol\":6705:6720  massUpdatePools */\n      tag_90\n        /* \"src/Farm.sol\":6705:6722  massUpdatePools() */\n      jump\t// in\n    tag_286:\n        /* \"src/Farm.sol\":6674:6734  if (withUpdate) {... */\n    tag_285:\n        /* \"src/Farm.sol\":6809:6819  allocPoint */\n      dup3\n        /* \"src/Farm.sol\":6781:6789  poolInfo */\n      0x06\n        /* \"src/Farm.sol\":6790:6793  pid */\n      dup6\n        /* \"src/Farm.sol\":6781:6794  poolInfo[pid] */\n      dup2\n      sload\n      dup2\n      lt\n      tag_287\n      jumpi\n      tag_288\n      tag_168\n      jump\t// in\n    tag_288:\n    tag_287:\n      swap1\n      0x00\n      mstore\n      keccak256(0x00, 0x20)\n      swap1\n      0x04\n      mul\n      add\n        /* \"src/Farm.sol\":6781:6805  poolInfo[pid].allocPoint */\n      0x01\n      add\n      sload\n        /* \"src/Farm.sol\":6763:6778  totalAllocPoint */\n      sload(0x04)\n        /* \"src/Farm.sol\":6763:6805  totalAllocPoint - poolInfo[pid].allocPoint */\n      tag_290\n      swap2\n      swap1\n      tag_180\n      jump\t// in\n    tag_290:\n        /* \"src/Farm.sol\":6762:6819  (totalAllocPoint - poolInfo[pid].allocPoint) + allocPoint */\n      tag_291\n      swap2\n      swap1\n      tag_162\n      jump\t// in\n    tag_291:\n        /* \"src/Farm.sol\":6744:6759  totalAllocPoint */\n      0x04\n        /* \"src/Farm.sol\":6744:6819  totalAllocPoint = (totalAllocPoint - poolInfo[pid].allocPoint) + allocPoint */\n      dup2\n      swap1\n      sstore\n      pop\n        /* \"src/Farm.sol\":6830:6851  uint256 oldAllocPoint */\n      0x00\n        /* \"src/Farm.sol\":6854:6862  poolInfo */\n      0x06\n        /* \"src/Farm.sol\":6863:6866  pid */\n      dup6\n        /* \"src/Farm.sol\":6854:6867  poolInfo[pid] */\n      dup2\n      sload\n      dup2\n      lt\n      tag_292\n      jumpi\n      tag_293\n      tag_168\n      jump\t// in\n    tag_293:\n    tag_292:\n      swap1\n      0x00\n      mstore\n      keccak256(0x00, 0x20)\n      swap1\n      0x04\n      mul\n      add\n        /* \"src/Farm.sol\":6854:6878  poolInfo[pid].allocPoint */\n      0x01\n      add\n      sload\n        /* \"src/Farm.sol\":6830:6878  uint256 oldAllocPoint = poolInfo[pid].allocPoint */\n      swap1\n      pop\n        /* \"src/Farm.sol\":6916:6926  allocPoint */\n      dup4\n        /* \"src/Farm.sol\":6889:6897  poolInfo */\n      0x06\n        /* \"src/Farm.sol\":6898:6901  pid */\n      dup7\n        /* \"src/Farm.sol\":6889:6902  poolInfo[pid] */\n      dup2\n      sload\n      dup2\n      lt\n      tag_295\n      jumpi\n      tag_296\n      tag_168\n      jump\t// in\n    tag_296:\n    tag_295:\n      swap1\n      0x00\n      mstore\n      keccak256(0x00, 0x20)\n      swap1\n      0x04\n      mul\n      add\n        /* \"src/Farm.sol\":6889:6913  poolInfo[pid].allocPoint */\n      0x01\n      add\n        /* \"src/Farm.sol\":6889:6926  poolInfo[pid].allocPoint = allocPoint */\n      dup2\n      swap1\n      sstore\n      pop\n        /* \"src/Farm.sol\":6961:6964  pid */\n      dup5\n        /* \"src/Farm.sol\":6944:6992  UpdateAllocation(pid, allocPoint, oldAllocPoint) */\n      0x5b051d9271f3dacc9672ca07af039f84d81b973ee9174797456dd6238bf18fef\n        /* \"src/Farm.sol\":6966:6976  allocPoint */\n      dup6\n        /* \"src/Farm.sol\":6978:6991  oldAllocPoint */\n      dup4\n        /* \"src/Farm.sol\":6944:6992  UpdateAllocation(pid, allocPoint, oldAllocPoint) */\n      mload(0x40)\n      tag_298\n      swap3\n      swap2\n      swap1\n      tag_107\n      jump\t// in\n    tag_298:\n      mload(0x40)\n      dup1\n      swap2\n      sub\n      swap1\n      log2\n        /* \"src/Farm.sol\":6663:7000  {... */\n      pop\n        /* \"src/Farm.sol\":6554:7000  function updateAllocation(uint256 pid, uint256 allocPoint, bool withUpdate) external onlyRole(GOVERNOR_ROLE) {... */\n      pop\n      pop\n      pop\n      pop\n      jump\t// out\n        /* \"src/Farm.sol\":7406:7668  function getPendingBatch(address user) external view returns (uint256) {... */\n    tag_118:\n        /* \"src/Farm.sol\":7468:7475  uint256 */\n      0x00\n        /* \"src/Farm.sol\":7488:7508  uint256 totalPending */\n      dup1\n        /* \"src/Farm.sol\":7526:7535  uint256 i */\n      0x00\n        /* \"src/Farm.sol\":7521:7631  for (uint256 i = 0 ; i < poolInfo.length ; i++) {... */\n    tag_300:\n        /* \"src/Farm.sol\":7546:7554  poolInfo */\n      0x06\n        /* \"src/Farm.sol\":7546:7561  poolInfo.length */\n      dup1\n      sload\n      swap1\n      pop\n        /* \"src/Farm.sol\":7542:7543  i */\n      dup2\n        /* \"src/Farm.sol\":7542:7561  i < poolInfo.length */\n      lt\n        /* \"src/Farm.sol\":7521:7631  for (uint256 i = 0 ; i < poolInfo.length ; i++) {... */\n      iszero\n      tag_301\n      jumpi\n        /* \"src/Farm.sol\":7600:7619  getPending(i, user) */\n      tag_303\n        /* \"src/Farm.sol\":7611:7612  i */\n      dup2\n        /* \"src/Farm.sol\":7614:7618  user */\n      dup6\n        /* \"src/Farm.sol\":7600:7610  getPending */\n      tag_97\n        /* \"src/Farm.sol\":7600:7619  getPending(i, user) */\n      jump\t// in\n    tag_303:\n        /* \"src/Farm.sol\":7584:7619  totalPending += getPending(i, user) */\n      dup3\n      tag_304\n      swap2\n      swap1\n      tag_162\n      jump\t// in\n    tag_304:\n      swap2\n      pop\n        /* \"src/Farm.sol\":7564:7567  i++ */\n      dup1\n      dup1\n      tag_305\n      swap1\n      tag_259\n      jump\t// in\n    tag_305:\n      swap2\n      pop\n      pop\n        /* \"src/Farm.sol\":7521:7631  for (uint256 i = 0 ; i < poolInfo.length ; i++) {... */\n      jump(tag_300)\n    tag_301:\n      pop\n        /* \"src/Farm.sol\":7648:7660  totalPending */\n      dup1\n        /* \"src/Farm.sol\":7641:7660  return totalPending */\n      swap2\n      pop\n      pop\n        /* \"src/Farm.sol\":7406:7668  function getPendingBatch(address user) external view returns (uint256) {... */\n      swap2\n      swap1\n      pop\n      jump\t// out\n        /* \"src/Farm.sol\":273:352  bytes32 public constant GOVERNOR_ROLE = keccak256(abi.encodePacked(\"Governor\")) */\n    tag_121:\n        /* \"src/Farm.sol\":323:351  abi.encodePacked(\"Governor\") */\n      add(0x20, mload(0x40))\n      tag_306\n      swap1\n      tag_153\n      jump\t// in\n    tag_306:\n      mload(0x40)\n      0x20\n      dup2\n      dup4\n      sub\n      sub\n      dup2\n      mstore\n      swap1\n      0x40\n      mstore\n        /* \"src/Farm.sol\":313:352  keccak256(abi.encodePacked(\"Governor\")) */\n      dup1\n      mload\n      swap1\n      0x20\n      add\n      keccak256\n        /* \"src/Farm.sol\":273:352  bytes32 public constant GOVERNOR_ROLE = keccak256(abi.encodePacked(\"Governor\")) */\n      dup2\n      jump\t// out\n        /* \"src/utils/AccessControl.sol\":5390:5539  function revokeRole(bytes32 role, address account) public virtual override onlyRole(getRoleAdmin(role)) {... */\n    tag_125:\n        /* \"src/utils/AccessControl.sol\":5474:5492  getRoleAdmin(role) */\n      tag_307\n        /* \"src/utils/AccessControl.sol\":5487:5491  role */\n      dup3\n        /* \"src/utils/AccessControl.sol\":5474:5486  getRoleAdmin */\n      tag_58\n        /* \"src/utils/AccessControl.sol\":5474:5492  getRoleAdmin(role) */\n      jump\t// in\n    tag_307:\n        /* \"src/utils/AccessControl.sol\":2578:2594  _checkRole(role) */\n      tag_309\n        /* \"src/utils/AccessControl.sol\":2589:2593  role */\n      dup2\n        /* \"src/utils/AccessControl.sol\":2578:2588  _checkRole */\n      tag_140\n        /* \"src/utils/AccessControl.sol\":2578:2594  _checkRole(role) */\n      jump\t// in\n    tag_309:\n        /* \"src/utils/AccessControl.sol\":5505:5531  _revokeRole(role, account) */\n      tag_311\n        /* \"src/utils/AccessControl.sol\":5517:5521  role */\n      dup4\n        /* \"src/utils/AccessControl.sol\":5523:5530  account */\n      dup4\n        /* \"src/utils/AccessControl.sol\":5505:5516  _revokeRole */\n      tag_151\n        /* \"src/utils/AccessControl.sol\":5505:5531  _revokeRole(role, account) */\n      jump\t// in\n    tag_311:\n        /* \"src/utils/AccessControl.sol\":5390:5539  function revokeRole(bytes32 role, address account) public virtual override onlyRole(getRoleAdmin(role)) {... */\n      pop\n      pop\n      pop\n      jump\t// out\n        /* \"src/Farm.sol\":9419:10176  function deposit(uint256 pid, uint256 amount) external {... */\n    tag_128:\n        /* \"src/Farm.sol\":9485:9506  PoolInfo storage pool */\n      0x00\n        /* \"src/Farm.sol\":9509:9517  poolInfo */\n      0x06\n        /* \"src/Farm.sol\":9518:9521  pid */\n      dup4\n        /* \"src/Farm.sol\":9509:9522  poolInfo[pid] */\n      dup2\n      sload\n      dup2\n      lt\n      tag_313\n      jumpi\n      tag_314\n      tag_168\n      jump\t// in\n    tag_314:\n    tag_313:\n      swap1\n      0x00\n      mstore\n      keccak256(0x00, 0x20)\n      swap1\n      0x04\n      mul\n      add\n        /* \"src/Farm.sol\":9485:9522  PoolInfo storage pool = poolInfo[pid] */\n      swap1\n      pop\n        /* \"src/Farm.sol\":9533:9558  UserInfo storage userData */\n      0x00\n        /* \"src/Farm.sol\":9561:9569  userInfo */\n      0x07\n        /* \"src/Farm.sol\":9561:9574  userInfo[pid] */\n      0x00\n        /* \"src/Farm.sol\":9570:9573  pid */\n      dup6\n        /* \"src/Farm.sol\":9561:9574  userInfo[pid] */\n      dup2\n      mstore\n      0x20\n      add\n      swap1\n      dup2\n      mstore\n      0x20\n      add\n      0x00\n      keccak256\n        /* \"src/Farm.sol\":9561:9588  userInfo[pid][_msgSender()] */\n      0x00\n        /* \"src/Farm.sol\":9575:9587  _msgSender() */\n      tag_316\n        /* \"src/Farm.sol\":9575:9585  _msgSender */\n      tag_146\n        /* \"src/Farm.sol\":9575:9587  _msgSender() */\n      jump\t// in\n    tag_316:\n        /* \"src/Farm.sol\":9561:9588  userInfo[pid][_msgSender()] */\n      0xffffffffffffffffffffffffffffffffffffffff\n      and\n      0xffffffffffffffffffffffffffffffffffffffff\n      and\n      dup2\n      mstore\n      0x20\n      add\n      swap1\n      dup2\n      mstore\n      0x20\n      add\n      0x00\n      keccak256\n        /* \"src/Farm.sol\":9533:9588  UserInfo storage userData = userInfo[pid][_msgSender()] */\n      swap1\n      pop\n        /* \"src/Farm.sol\":9599:9614  updatePool(pid) */\n      tag_317\n        /* \"src/Farm.sol\":9610:9613  pid */\n      dup5\n        /* \"src/Farm.sol\":9599:9609  updatePool */\n      tag_81\n        /* \"src/Farm.sol\":9599:9614  updatePool(pid) */\n      jump\t// in\n    tag_317:\n        /* \"src/Farm.sol\":9649:9650  0 */\n      0x00\n        /* \"src/Farm.sol\":9631:9639  userData */\n      dup2\n        /* \"src/Farm.sol\":9631:9646  userData.amount */\n      0x00\n      add\n      sload\n        /* \"src/Farm.sol\":9631:9650  userData.amount > 0 */\n      gt\n        /* \"src/Farm.sol\":9627:9867  if (userData.amount > 0) {... */\n      iszero\n      tag_318\n      jumpi\n        /* \"src/Farm.sol\":9667:9682  uint256 pending */\n      0x00\n        /* \"src/Farm.sol\":9737:9745  userData */\n      dup2\n        /* \"src/Farm.sol\":9737:9756  userData.rewardDebt */\n      0x01\n      add\n      sload\n        /* \"src/Farm.sol\":9729:9733  1e12 */\n      0xe8d4a51000\n        /* \"src/Farm.sol\":9705:9709  pool */\n      dup5\n        /* \"src/Farm.sol\":9705:9725  pool.accHYGTPerShare */\n      0x03\n      add\n      sload\n        /* \"src/Farm.sol\":9687:9695  userData */\n      dup5\n        /* \"src/Farm.sol\":9687:9702  userData.amount */\n      0x00\n      add\n      sload\n        /* \"src/Farm.sol\":9687:9725  userData.amount * pool.accHYGTPerShare */\n      tag_319\n      swap2\n      swap1\n      tag_176\n      jump\t// in\n    tag_319:\n        /* \"src/Farm.sol\":9686:9733  (userData.amount * pool.accHYGTPerShare) / 1e12 */\n      tag_320\n      swap2\n      swap1\n      tag_178\n      jump\t// in\n    tag_320:\n        /* \"src/Farm.sol\":9685:9756  ((userData.amount * pool.accHYGTPerShare) / 1e12) - userData.rewardDebt */\n      tag_321\n      swap2\n      swap1\n      tag_180\n      jump\t// in\n    tag_321:\n        /* \"src/Farm.sol\":9667:9756  uint256 pending = ((userData.amount * pool.accHYGTPerShare) / 1e12) - userData.rewardDebt */\n      swap1\n      pop\n        /* \"src/Farm.sol\":9786:9787  0 */\n      0x00\n        /* \"src/Farm.sol\":9776:9783  pending */\n      dup2\n        /* \"src/Farm.sol\":9776:9787  pending > 0 */\n      gt\n        /* \"src/Farm.sol\":9773:9856  if(pending > 0) {... */\n      iszero\n      tag_322\n      jumpi\n        /* \"src/Farm.sol\":9808:9812  HYGT */\n      0x01\n      0x00\n      swap1\n      sload\n      swap1\n      0x0100\n      exp\n      swap1\n      div\n      0xffffffffffffffffffffffffffffffffffffffff\n      and\n        /* \"src/Farm.sol\":9808:9817  HYGT.mint */\n      0xffffffffffffffffffffffffffffffffffffffff\n      and\n      0x40c10f19\n        /* \"src/Farm.sol\":9818:9830  _msgSender() */\n      tag_323\n        /* \"src/Farm.sol\":9818:9828  _msgSender */\n      tag_146\n        /* \"src/Farm.sol\":9818:9830  _msgSender() */\n      jump\t// in\n    tag_323:\n        /* \"src/Farm.sol\":9832:9839  pending */\n      dup4\n        /* \"src/Farm.sol\":9808:9840  HYGT.mint(_msgSender(), pending) */\n      mload(0x40)\n      dup4\n      0xffffffff\n      and\n      0xe0\n      shl\n      dup2\n      mstore\n      0x04\n      add\n      tag_324\n      swap3\n      swap2\n      swap1\n      tag_184\n      jump\t// in\n    tag_324:\n      0x20\n      mload(0x40)\n      dup1\n      dup4\n      sub\n      dup2\n      0x00\n      dup8\n      gas\n      call\n      iszero\n      dup1\n      iszero\n      tag_326\n      jumpi\n      returndatasize\n      0x00\n      dup1\n      returndatacopy\n      revert(0x00, returndatasize)\n    tag_326:\n      pop\n      pop\n      pop\n      pop\n      mload(0x40)\n      returndatasize\n      not(0x1f)\n      0x1f\n      dup3\n      add\n      and\n      dup3\n      add\n      dup1\n      0x40\n      mstore\n      pop\n      dup2\n      add\n      swap1\n      tag_327\n      swap2\n      swap1\n      tag_188\n      jump\t// in\n    tag_327:\n      pop\n        /* \"src/Farm.sol\":9773:9856  if(pending > 0) {... */\n    tag_322:\n        /* \"src/Farm.sol\":9652:9867  {... */\n      pop\n        /* \"src/Farm.sol\":9627:9867  if (userData.amount > 0) {... */\n    tag_318:\n        /* \"src/Farm.sol\":9890:9891  0 */\n      0x00\n        /* \"src/Farm.sol\":9881:9887  amount */\n      dup4\n        /* \"src/Farm.sol\":9881:9891  amount > 0 */\n      gt\n        /* \"src/Farm.sol\":9877:10037  if (amount > 0) {... */\n      iszero\n      tag_328\n      jumpi\n        /* \"src/Farm.sol\":9908:9985  SafeERC20.safeTransferFrom(pool.lpToken, _msgSender(), address(this), amount) */\n      tag_329\n        /* \"src/Farm.sol\":9935:9939  pool */\n      dup3\n        /* \"src/Farm.sol\":9935:9947  pool.lpToken */\n      0x00\n      add\n      0x00\n      swap1\n      sload\n      swap1\n      0x0100\n      exp\n      swap1\n      div\n      0xffffffffffffffffffffffffffffffffffffffff\n      and\n        /* \"src/Farm.sol\":9949:9961  _msgSender() */\n      tag_330\n        /* \"src/Farm.sol\":9949:9959  _msgSender */\n      tag_146\n        /* \"src/Farm.sol\":9949:9961  _msgSender() */\n      jump\t// in\n    tag_330:\n        /* \"src/Farm.sol\":9971:9975  this */\n      address\n        /* \"src/Farm.sol\":9978:9984  amount */\n      dup7\n        /* \"src/Farm.sol\":9908:9934  SafeERC20.safeTransferFrom */\n      tag_331\n        /* \"src/Farm.sol\":9908:9985  SafeERC20.safeTransferFrom(pool.lpToken, _msgSender(), address(this), amount) */\n      jump\t// in\n    tag_329:\n        /* \"src/Farm.sol\":10019:10025  amount */\n      dup3\n        /* \"src/Farm.sol\":10000:10008  userData */\n      dup2\n        /* \"src/Farm.sol\":10000:10015  userData.amount */\n      0x00\n      add\n      0x00\n        /* \"src/Farm.sol\":10000:10025  userData.amount += amount */\n      dup3\n      dup3\n      sload\n      tag_332\n      swap2\n      swap1\n      tag_162\n      jump\t// in\n    tag_332:\n      swap3\n      pop\n      pop\n      dup2\n      swap1\n      sstore\n      pop\n        /* \"src/Farm.sol\":9877:10037  if (amount > 0) {... */\n    tag_328:\n        /* \"src/Farm.sol\":10112:10116  1e12 */\n      0xe8d4a51000\n        /* \"src/Farm.sol\":10088:10092  pool */\n      dup3\n        /* \"src/Farm.sol\":10088:10108  pool.accHYGTPerShare */\n      0x03\n      add\n      sload\n        /* \"src/Farm.sol\":10070:10078  userData */\n      dup3\n        /* \"src/Farm.sol\":10070:10085  userData.amount */\n      0x00\n      add\n      sload\n        /* \"src/Farm.sol\":10070:10108  userData.amount * pool.accHYGTPerShare */\n      tag_333\n      swap2\n      swap1\n      tag_176\n      jump\t// in\n    tag_333:\n        /* \"src/Farm.sol\":10069:10116  (userData.amount * pool.accHYGTPerShare) / 1e12 */\n      tag_334\n      swap2\n      swap1\n      tag_178\n      jump\t// in\n    tag_334:\n        /* \"src/Farm.sol\":10047:10055  userData */\n      dup2\n        /* \"src/Farm.sol\":10047:10066  userData.rewardDebt */\n      0x01\n      add\n        /* \"src/Farm.sol\":10047:10116  userData.rewardDebt = (userData.amount * pool.accHYGTPerShare) / 1e12 */\n      dup2\n      swap1\n      sstore\n      pop\n        /* \"src/Farm.sol\":10156:10159  pid */\n      dup4\n        /* \"src/Farm.sol\":10142:10154  _msgSender() */\n      tag_335\n        /* \"src/Farm.sol\":10142:10152  _msgSender */\n      tag_146\n        /* \"src/Farm.sol\":10142:10154  _msgSender() */\n      jump\t// in\n    tag_335:\n        /* \"src/Farm.sol\":10134:10168  Deposit(_msgSender(), pid, amount) */\n      0xffffffffffffffffffffffffffffffffffffffff\n      and\n      0x90890809c654f11d6e72a28fa60149770a0d11ec6c92319d6ceb2bb0a4ea1a15\n        /* \"src/Farm.sol\":10161:10167  amount */\n      dup6\n        /* \"src/Farm.sol\":10134:10168  Deposit(_msgSender(), pid, amount) */\n      mload(0x40)\n      tag_336\n      swap2\n      swap1\n      tag_41\n      jump\t// in\n    tag_336:\n      mload(0x40)\n      dup1\n      swap2\n      sub\n      swap1\n      log3\n        /* \"src/Farm.sol\":9474:10176  {... */\n      pop\n      pop\n        /* \"src/Farm.sol\":9419:10176  function deposit(uint256 pid, uint256 amount) external {... */\n      pop\n      pop\n      jump\t// out\n        /* \"src/utils/ERC165.sol\":866:1023  function supportsInterface(bytes4 interfaceId) public view virtual override returns (bool) {... */\n    tag_132:\n        /* \"src/utils/ERC165.sol\":951:955  bool */\n      0x00\n        /* \"src/utils/ERC165.sol\":990:1015  type(IERC165).interfaceId */\n      0x01ffc9a700000000000000000000000000000000000000000000000000000000\n        /* \"src/utils/ERC165.sol\":975:1015  interfaceId == type(IERC165).interfaceId */\n      not(0xffffffffffffffffffffffffffffffffffffffffffffffffffffffff)\n      and\n        /* \"src/utils/ERC165.sol\":975:986  interfaceId */\n      dup3\n        /* \"src/utils/ERC165.sol\":975:1015  interfaceId == type(IERC165).interfaceId */\n      not(0xffffffffffffffffffffffffffffffffffffffffffffffffffffffff)\n      and\n      eq\n        /* \"src/utils/ERC165.sol\":968:1015  return interfaceId == type(IERC165).interfaceId */\n      swap1\n      pop\n        /* \"src/utils/ERC165.sol\":866:1023  function supportsInterface(bytes4 interfaceId) public view virtual override returns (bool) {... */\n      swap2\n      swap1\n      pop\n      jump\t// out\n        /* \"src/utils/AccessControl.sol\":3433:3538  function _checkRole(bytes32 role) internal view virtual {... */\n    tag_140:\n        /* \"src/utils/AccessControl.sol\":3500:3530  _checkRole(role, _msgSender()) */\n      tag_339\n        /* \"src/utils/AccessControl.sol\":3511:3515  role */\n      dup2\n        /* \"src/utils/AccessControl.sol\":3517:3529  _msgSender() */\n      tag_340\n        /* \"src/utils/AccessControl.sol\":3517:3527  _msgSender */\n      tag_146\n        /* \"src/utils/AccessControl.sol\":3517:3529  _msgSender() */\n      jump\t// in\n    tag_340:\n        /* \"src/utils/AccessControl.sol\":3500:3510  _checkRole */\n      tag_341\n        /* \"src/utils/AccessControl.sol\":3500:3530  _checkRole(role, _msgSender()) */\n      jump\t// in\n    tag_339:\n        /* \"src/utils/AccessControl.sol\":3433:3538  function _checkRole(bytes32 role) internal view virtual {... */\n      pop\n      jump\t// out\n        /* \"src/utils/AccessControl.sol\":7691:7929  function _grantRole(bytes32 role, address account) internal virtual {... */\n    tag_143:\n        /* \"src/utils/AccessControl.sol\":7775:7797  hasRole(role, account) */\n      tag_343\n        /* \"src/utils/AccessControl.sol\":7783:7787  role */\n      dup3\n        /* \"src/utils/AccessControl.sol\":7789:7796  account */\n      dup3\n        /* \"src/utils/AccessControl.sol\":7775:7782  hasRole */\n      tag_101\n        /* \"src/utils/AccessControl.sol\":7775:7797  hasRole(role, account) */\n      jump\t// in\n    tag_343:\n        /* \"src/utils/AccessControl.sol\":7770:7922  if (!hasRole(role, account)) {... */\n      tag_344\n      jumpi\n        /* \"src/utils/AccessControl.sol\":7846:7850  true */\n      0x01\n        /* \"src/utils/AccessControl.sol\":7814:7820  _roles */\n      0x00\n        /* \"src/utils/AccessControl.sol\":7814:7826  _roles[role] */\n      dup1\n        /* \"src/utils/AccessControl.sol\":7821:7825  role */\n      dup5\n        /* \"src/utils/AccessControl.sol\":7814:7826  _roles[role] */\n      dup2\n      mstore\n      0x20\n      add\n      swap1\n      dup2\n      mstore\n      0x20\n      add\n      0x00\n      keccak256\n        /* \"src/utils/AccessControl.sol\":7814:7834  _roles[role].members */\n      0x00\n      add\n        /* \"src/utils/AccessControl.sol\":7814:7843  _roles[role].members[account] */\n      0x00\n        /* \"src/utils/AccessControl.sol\":7835:7842  account */\n      dup4\n        /* \"src/utils/AccessControl.sol\":7814:7843  _roles[role].members[account] */\n      0xffffffffffffffffffffffffffffffffffffffff\n      and\n      0xffffffffffffffffffffffffffffffffffffffff\n      and\n      dup2\n      mstore\n      0x20\n      add\n      swap1\n      dup2\n      mstore\n      0x20\n      add\n      0x00\n      keccak256\n      0x00\n        /* \"src/utils/AccessControl.sol\":7814:7850  _roles[role].members[account] = true */\n      0x0100\n      exp\n      dup2\n      sload\n      dup2\n      0xff\n      mul\n      not\n      and\n      swap1\n      dup4\n      iszero\n      iszero\n      mul\n      or\n      swap1\n      sstore\n      pop\n        /* \"src/utils/AccessControl.sol\":7897:7909  _msgSender() */\n      tag_345\n        /* \"src/utils/AccessControl.sol\":7897:7907  _msgSender */\n      tag_146\n        /* \"src/utils/AccessControl.sol\":7897:7909  _msgSender() */\n      jump\t// in\n    tag_345:\n        /* \"src/utils/AccessControl.sol\":7870:7910  RoleGranted(role, account, _msgSender()) */\n      0xffffffffffffffffffffffffffffffffffffffff\n      and\n        /* \"src/utils/AccessControl.sol\":7888:7895  account */\n      dup2\n        /* \"src/utils/AccessControl.sol\":7870:7910  RoleGranted(role, account, _msgSender()) */\n      0xffffffffffffffffffffffffffffffffffffffff\n      and\n        /* \"src/utils/AccessControl.sol\":7882:7886  role */\n      dup4\n        /* \"src/utils/AccessControl.sol\":7870:7910  RoleGranted(role, account, _msgSender()) */\n      0x2f8788117e7eff1d82e926ec794901d17c78024a50270940304540a733656f0d\n      mload(0x40)\n      mload(0x40)\n      dup1\n      swap2\n      sub\n      swap1\n      log4\n        /* \"src/utils/AccessControl.sol\":7770:7922  if (!hasRole(role, account)) {... */\n    tag_344:\n        /* \"src/utils/AccessControl.sol\":7691:7929  function _grantRole(bytes32 role, address account) internal virtual {... */\n      pop\n      pop\n      jump\t// out\n        /* \"src/utils/Context.sol\":656:754  function _msgSender() internal view virtual returns (address) {... */\n    tag_146:\n        /* \"src/utils/Context.sol\":709:716  address */\n      0x00\n        /* \"src/utils/Context.sol\":736:746  msg.sender */\n      caller\n        /* \"src/utils/Context.sol\":729:746  return msg.sender */\n      swap1\n      pop\n        /* \"src/utils/Context.sol\":656:754  function _msgSender() internal view virtual returns (address) {... */\n      swap1\n      jump\t// out\n        /* \"src/utils/AccessControl.sol\":8109:8348  function _revokeRole(bytes32 role, address account) internal virtual {... */\n    tag_151:\n        /* \"src/utils/AccessControl.sol\":8193:8215  hasRole(role, account) */\n      tag_348\n        /* \"src/utils/AccessControl.sol\":8201:8205  role */\n      dup3\n        /* \"src/utils/AccessControl.sol\":8207:8214  account */\n      dup3\n        /* \"src/utils/AccessControl.sol\":8193:8200  hasRole */\n      tag_101\n        /* \"src/utils/AccessControl.sol\":8193:8215  hasRole(role, account) */\n      jump\t// in\n    tag_348:\n        /* \"src/utils/AccessControl.sol\":8189:8341  if (hasRole(role, account)) {... */\n      iszero\n      tag_349\n      jumpi\n        /* \"src/utils/AccessControl.sol\":8264:8269  false */\n      0x00\n        /* \"src/utils/AccessControl.sol\":8232:8238  _roles */\n      dup1\n        /* \"src/utils/AccessControl.sol\":8232:8244  _roles[role] */\n      0x00\n        /* \"src/utils/AccessControl.sol\":8239:8243  role */\n      dup5\n        /* \"src/utils/AccessControl.sol\":8232:8244  _roles[role] */\n      dup2\n      mstore\n      0x20\n      add\n      swap1\n      dup2\n      mstore\n      0x20\n      add\n      0x00\n      keccak256\n        /* \"src/utils/AccessControl.sol\":8232:8252  _roles[role].members */\n      0x00\n      add\n        /* \"src/utils/AccessControl.sol\":8232:8261  _roles[role].members[account] */\n      0x00\n        /* \"src/utils/AccessControl.sol\":8253:8260  account */\n      dup4\n        /* \"src/utils/AccessControl.sol\":8232:8261  _roles[role].members[account] */\n      0xffffffffffffffffffffffffffffffffffffffff\n      and\n      0xffffffffffffffffffffffffffffffffffffffff\n      and\n      dup2\n      mstore\n      0x20\n      add\n      swap1\n      dup2\n      mstore\n      0x20\n      add\n      0x00\n      keccak256\n      0x00\n        /* \"src/utils/AccessControl.sol\":8232:8269  _roles[role].members[account] = false */\n      0x0100\n      exp\n      dup2\n      sload\n      dup2\n      0xff\n      mul\n      not\n      and\n      swap1\n      dup4\n      iszero\n      iszero\n      mul\n      or\n      swap1\n      sstore\n      pop\n        /* \"src/utils/AccessControl.sol\":8316:8328  _msgSender() */\n      tag_350\n        /* \"src/utils/AccessControl.sol\":8316:8326  _msgSender */\n      tag_146\n        /* \"src/utils/AccessControl.sol\":8316:8328  _msgSender() */\n      jump\t// in\n    tag_350:\n        /* \"src/utils/AccessControl.sol\":8289:8329  RoleRevoked(role, account, _msgSender()) */\n      0xffffffffffffffffffffffffffffffffffffffff\n      and\n        /* \"src/utils/AccessControl.sol\":8307:8314  account */\n      dup2\n        /* \"src/utils/AccessControl.sol\":8289:8329  RoleRevoked(role, account, _msgSender()) */\n      0xffffffffffffffffffffffffffffffffffffffff\n      and\n        /* \"src/utils/AccessControl.sol\":8301:8305  role */\n      dup4\n        /* \"src/utils/AccessControl.sol\":8289:8329  RoleRevoked(role, account, _msgSender()) */\n      0xf6391f5c32d9c69d2a47ea670b442974b53935d1edc7fd64eb21e047a839171b\n      mload(0x40)\n      mload(0x40)\n      dup1\n      swap2\n      sub\n      swap1\n      log4\n        /* \"src/utils/AccessControl.sol\":8189:8341  if (hasRole(role, account)) {... */\n    tag_349:\n        /* \"src/utils/AccessControl.sol\":8109:8348  function _revokeRole(bytes32 role, address account) internal virtual {... */\n      pop\n      pop\n      jump\t// out\n        /* \"src/Farm.sol\":5775:6205  function _addPool(IERC20 lpToken, uint256 allocPoint, string memory symbol, uint256 lastRewardBlock) internal {... */\n    tag_164:\n        /* \"src/Farm.sol\":5896:5916  PoolInfo memory pool */\n      tag_352\n      tag_353\n      jump\t// in\n    tag_352:\n        /* \"src/Farm.sol\":5949:5956  lpToken */\n      dup5\n        /* \"src/Farm.sol\":5927:5931  pool */\n      dup2\n        /* \"src/Farm.sol\":5927:5939  pool.lpToken */\n      0x00\n      add\n        /* \"src/Farm.sol\":5927:5957  pool.lpToken = IERC20(lpToken) */\n      swap1\n      0xffffffffffffffffffffffffffffffffffffffff\n      and\n      swap1\n      dup2\n      0xffffffffffffffffffffffffffffffffffffffff\n      and\n      dup2\n      mstore\n      pop\n      pop\n        /* \"src/Farm.sol\":5986:5996  allocPoint */\n      dup4\n        /* \"src/Farm.sol\":5968:5972  pool */\n      dup2\n        /* \"src/Farm.sol\":5968:5983  pool.allocPoint */\n      0x20\n      add\n        /* \"src/Farm.sol\":5968:5996  pool.allocPoint = allocPoint */\n      dup2\n      dup2\n      mstore\n      pop\n      pop\n        /* \"src/Farm.sol\":6030:6045  lastRewardBlock */\n      dup2\n        /* \"src/Farm.sol\":6007:6011  pool */\n      dup2\n        /* \"src/Farm.sol\":6007:6027  pool.lastRewardBlock */\n      0x40\n      add\n        /* \"src/Farm.sol\":6007:6045  pool.lastRewardBlock = lastRewardBlock */\n      dup2\n      dup2\n      mstore\n      pop\n      pop\n        /* \"src/Farm.sol\":6094:6102  poolInfo */\n      0x06\n        /* \"src/Farm.sol\":6108:6112  pool */\n      dup2\n        /* \"src/Farm.sol\":6094:6113  poolInfo.push(pool) */\n      swap1\n      dup1\n      0x01\n      dup2\n      sload\n      add\n      dup1\n      dup3\n      sstore\n      dup1\n      swap2\n      pop\n      pop\n      0x01\n      swap1\n      sub\n      swap1\n      0x00\n      mstore\n      keccak256(0x00, 0x20)\n      swap1\n      0x04\n      mul\n      add\n      0x00\n      swap1\n      swap2\n      swap1\n      swap2\n      swap1\n      swap2\n      pop\n      0x00\n      dup3\n      add\n      mload\n      dup2\n      0x00\n      add\n      exp(0x0100, 0x00)\n      dup2\n      sload\n      dup2\n      0xffffffffffffffffffffffffffffffffffffffff\n      mul\n      not\n      and\n      swap1\n      dup4\n      0xffffffffffffffffffffffffffffffffffffffff\n      and\n      mul\n      or\n      swap1\n      sstore\n      pop\n      0x20\n      dup3\n      add\n      mload\n      dup2\n      0x01\n      add\n      sstore\n      0x40\n      dup3\n      add\n      mload\n      dup2\n      0x02\n      add\n      sstore\n      0x60\n      dup3\n      add\n      mload\n      dup2\n      0x03\n      add\n      sstore\n      pop\n      pop\n        /* \"src/Farm.sol\":6157:6158  1 */\n      0x01\n        /* \"src/Farm.sol\":6139:6147  poolInfo */\n      0x06\n        /* \"src/Farm.sol\":6139:6154  poolInfo.length */\n      dup1\n      sload\n      swap1\n      pop\n        /* \"src/Farm.sol\":6139:6158  poolInfo.length - 1 */\n      tag_355\n      swap2\n      swap1\n      tag_180\n      jump\t// in\n    tag_355:\n        /* \"src/Farm.sol\":6131:6197  AddPool(poolInfo.length - 1, address(lpToken), symbol, allocPoint) */\n      0x1fcb86d005de4723e36a6d74eeeb8529bac339b94c9241aed56567a2d214f105\n        /* \"src/Farm.sol\":6168:6175  lpToken */\n      dup7\n        /* \"src/Farm.sol\":6178:6184  symbol */\n      dup6\n        /* \"src/Farm.sol\":6186:6196  allocPoint */\n      dup8\n        /* \"src/Farm.sol\":6131:6197  AddPool(poolInfo.length - 1, address(lpToken), symbol, allocPoint) */\n      mload(0x40)\n      tag_356\n      swap4\n      swap3\n      swap2\n      swap1\n      tag_357\n      jump\t// in\n    tag_356:\n      mload(0x40)\n      dup1\n      swap2\n      sub\n      swap1\n      log2\n        /* \"src/Farm.sol\":5885:6205  {... */\n      pop\n        /* \"src/Farm.sol\":5775:6205  function _addPool(IERC20 lpToken, uint256 allocPoint, string memory symbol, uint256 lastRewardBlock) internal {... */\n      pop\n      pop\n      pop\n      pop\n      jump\t// out\n        /* \"src/libraries/SafeERC20.sol\":776:953  function safeTransfer(IERC20 token, address to, uint256 value) internal {... */\n    tag_193:\n        /* \"src/libraries/SafeERC20.sol\":859:945  _callOptionalReturn(token, abi.encodeWithSelector(token.transfer.selector, to, value)) */\n      tag_359\n        /* \"src/libraries/SafeERC20.sol\":879:884  token */\n      dup4\n        /* \"src/libraries/SafeERC20.sol\":909:932  token.transfer.selector */\n      shl(0xe0, 0xa9059cbb)\n        /* \"src/libraries/SafeERC20.sol\":934:936  to */\n      dup5\n        /* \"src/libraries/SafeERC20.sol\":938:943  value */\n      dup5\n        /* \"src/libraries/SafeERC20.sol\":886:944  abi.encodeWithSelector(token.transfer.selector, to, value) */\n      add(0x24, mload(0x40))\n      tag_360\n      swap3\n      swap2\n      swap1\n      tag_184\n      jump\t// in\n    tag_360:\n      mload(0x40)\n      0x20\n      dup2\n      dup4\n      sub\n      sub\n      dup2\n      mstore\n      swap1\n      0x40\n      mstore\n      swap1\n      not(0xffffffffffffffffffffffffffffffffffffffffffffffffffffffff)\n      and\n      0x20\n      dup3\n      add\n      dup1\n      mload\n      0xffffffffffffffffffffffffffffffffffffffffffffffffffffffff\n      dup4\n      dup2\n      dup4\n      and\n      or\n      dup4\n      mstore\n      pop\n      pop\n      pop\n      pop\n        /* \"src/libraries/SafeERC20.sol\":859:878  _callOptionalReturn */\n      tag_361\n        /* \"src/libraries/SafeERC20.sol\":859:945  _callOptionalReturn(token, abi.encodeWithSelector(token.transfer.selector, to, value)) */\n      jump\t// in\n    tag_359:\n        /* \"src/libraries/SafeERC20.sol\":776:953  function safeTransfer(IERC20 token, address to, uint256 value) internal {... */\n      pop\n      pop\n      pop\n      jump\t// out\n        /* \"src/libraries/SafeERC20.sol\":961:1166  function safeTransferFrom(IERC20 token, address from, address to, uint256 value) internal {... */\n    tag_331:\n        /* \"src/libraries/SafeERC20.sol\":1062:1158  _callOptionalReturn(token, abi.encodeWithSelector(token.transferFrom.selector, from, to, value)) */\n      tag_363\n        /* \"src/libraries/SafeERC20.sol\":1082:1087  token */\n      dup5\n        /* \"src/libraries/SafeERC20.sol\":1112:1139  token.transferFrom.selector */\n      shl(0xe0, 0x23b872dd)\n        /* \"src/libraries/SafeERC20.sol\":1141:1145  from */\n      dup6\n        /* \"src/libraries/SafeERC20.sol\":1147:1149  to */\n      dup6\n        /* \"src/libraries/SafeERC20.sol\":1151:1156  value */\n      dup6\n        /* \"src/libraries/SafeERC20.sol\":1089:1157  abi.encodeWithSelector(token.transferFrom.selector, from, to, value) */\n      add(0x24, mload(0x40))\n      tag_364\n      swap4\n      swap3\n      swap2\n      swap1\n      tag_365\n      jump\t// in\n    tag_364:\n      mload(0x40)\n      0x20\n      dup2\n      dup4\n      sub\n      sub\n      dup2\n      mstore\n      swap1\n      0x40\n      mstore\n      swap1\n      not(0xffffffffffffffffffffffffffffffffffffffffffffffffffffffff)\n      and\n      0x20\n      dup3\n      add\n      dup1\n      mload\n      0xffffffffffffffffffffffffffffffffffffffffffffffffffffffff\n      dup4\n      dup2\n      dup4\n      and\n      or\n      dup4\n      mstore\n      pop\n      pop\n      pop\n      pop\n        /* \"src/libraries/SafeERC20.sol\":1062:1081  _callOptionalReturn */\n      tag_361\n        /* \"src/libraries/SafeERC20.sol\":1062:1158  _callOptionalReturn(token, abi.encodeWithSelector(token.transferFrom.selector, from, to, value)) */\n      jump\t// in\n    tag_363:\n        /* \"src/libraries/SafeERC20.sol\":961:1166  function safeTransferFrom(IERC20 token, address from, address to, uint256 value) internal {... */\n      pop\n      pop\n      pop\n      pop\n      jump\t// out\n        /* \"src/utils/AccessControl.sol\":3828:4320  function _checkRole(bytes32 role, address account) internal view virtual {... */\n    tag_341:\n        /* \"src/utils/AccessControl.sol\":3917:3939  hasRole(role, account) */\n      tag_367\n        /* \"src/utils/AccessControl.sol\":3925:3929  role */\n      dup3\n        /* \"src/utils/AccessControl.sol\":3931:3938  account */\n      dup3\n        /* \"src/utils/AccessControl.sol\":3917:3924  hasRole */\n      tag_101\n        /* \"src/utils/AccessControl.sol\":3917:3939  hasRole(role, account) */\n      jump\t// in\n    tag_367:\n        /* \"src/utils/AccessControl.sol\":3912:4313  if (!hasRole(role, account)) {... */\n      tag_368\n      jumpi\n        /* \"src/utils/AccessControl.sol\":4105:4133  Strings.toHexString(account) */\n      tag_369\n        /* \"src/utils/AccessControl.sol\":4125:4132  account */\n      dup2\n        /* \"src/utils/AccessControl.sol\":4105:4124  Strings.toHexString */\n      tag_370\n        /* \"src/utils/AccessControl.sol\":4105:4133  Strings.toHexString(account) */\n      jump\t// in\n    tag_369:\n        /* \"src/utils/AccessControl.sol\":4206:4244  Strings.toHexString(uint256(role), 32) */\n      tag_371\n        /* \"src/utils/AccessControl.sol\":4234:4238  role */\n      dup4\n        /* \"src/utils/AccessControl.sol\":4226:4239  uint256(role) */\n      0x00\n      shr\n        /* \"src/utils/AccessControl.sol\":4241:4243  32 */\n      0x20\n        /* \"src/utils/AccessControl.sol\":4206:4225  Strings.toHexString */\n      tag_372\n        /* \"src/utils/AccessControl.sol\":4206:4244  Strings.toHexString(uint256(role), 32) */\n      jump\t// in\n    tag_371:\n        /* \"src/utils/AccessControl.sol\":4010:4267  abi.encodePacked(... */\n      add(0x20, mload(0x40))\n      tag_373\n      swap3\n      swap2\n      swap1\n      tag_374\n      jump\t// in\n    tag_373:\n      mload(0x40)\n      0x20\n      dup2\n      dup4\n      sub\n      sub\n      dup2\n      mstore\n      swap1\n      0x40\n      mstore\n        /* \"src/utils/AccessControl.sol\":3956:4301  revert(... */\n      mload(0x40)\n      0x08c379a000000000000000000000000000000000000000000000000000000000\n      dup2\n      mstore\n      0x04\n      add\n      tag_375\n      swap2\n      swap1\n      tag_376\n      jump\t// in\n    tag_375:\n      mload(0x40)\n      dup1\n      swap2\n      sub\n      swap1\n      revert\n        /* \"src/utils/AccessControl.sol\":3912:4313  if (!hasRole(role, account)) {... */\n    tag_368:\n        /* \"src/utils/AccessControl.sol\":3828:4320  function _checkRole(bytes32 role, address account) internal view virtual {... */\n      pop\n      pop\n      jump\t// out\n        /* \"src/libraries/SafeERC20.sol\":3664:4380  function _callOptionalReturn(IERC20 token, bytes memory data) private {... */\n    tag_361:\n        /* \"src/libraries/SafeERC20.sol\":4088:4111  bytes memory returndata */\n      0x00\n        /* \"src/libraries/SafeERC20.sol\":4114:4183  address(token).functionCall(data, \"SafeERC20: low-level call failed\") */\n      tag_378\n        /* \"src/libraries/SafeERC20.sol\":4142:4146  data */\n      dup3\n        /* \"src/libraries/SafeERC20.sol\":4114:4183  address(token).functionCall(data, \"SafeERC20: low-level call failed\") */\n      mload(0x40)\n      dup1\n      0x40\n      add\n      0x40\n      mstore\n      dup1\n      0x20\n      dup2\n      mstore\n      0x20\n      add\n      0x5361666545524332303a206c6f772d6c6576656c2063616c6c206661696c6564\n      dup2\n      mstore\n      pop\n        /* \"src/libraries/SafeERC20.sol\":4122:4127  token */\n      dup6\n        /* \"src/libraries/SafeERC20.sol\":4114:4141  address(token).functionCall */\n      0xffffffffffffffffffffffffffffffffffffffff\n      and\n      tag_379\n      swap1\n        /* \"src/libraries/SafeERC20.sol\":4114:4183  address(token).functionCall(data, \"SafeERC20: low-level call failed\") */\n      swap3\n      swap2\n      swap1\n      0xffffffff\n      and\n      jump\t// in\n    tag_378:\n        /* \"src/libraries/SafeERC20.sol\":4088:4183  bytes memory returndata = address(token).functionCall(data, \"SafeERC20: low-level call failed\") */\n      swap1\n      pop\n        /* \"src/libraries/SafeERC20.sol\":4218:4219  0 */\n      0x00\n        /* \"src/libraries/SafeERC20.sol\":4198:4208  returndata */\n      dup2\n        /* \"src/libraries/SafeERC20.sol\":4198:4215  returndata.length */\n      mload\n        /* \"src/libraries/SafeERC20.sol\":4198:4219  returndata.length > 0 */\n      gt\n        /* \"src/libraries/SafeERC20.sol\":4194:4373  if (returndata.length > 0) {... */\n      iszero\n      tag_380\n      jumpi\n        /* \"src/libraries/SafeERC20.sol\":4295:4305  returndata */\n      dup1\n        /* \"src/libraries/SafeERC20.sol\":4284:4314  abi.decode(returndata, (bool)) */\n      dup1\n      0x20\n      add\n      swap1\n      mload\n      dup2\n      add\n      swap1\n      tag_381\n      swap2\n      swap1\n      tag_188\n      jump\t// in\n    tag_381:\n        /* \"src/libraries/SafeERC20.sol\":4276:4361  require(abi.decode(returndata, (bool)), \"SafeERC20: ERC20 operation did not succeed\") */\n      tag_382\n      jumpi\n      mload(0x40)\n      0x08c379a000000000000000000000000000000000000000000000000000000000\n      dup2\n      mstore\n      0x04\n      add\n      tag_383\n      swap1\n      tag_384\n      jump\t// in\n    tag_383:\n      mload(0x40)\n      dup1\n      swap2\n      sub\n      swap1\n      revert\n    tag_382:\n        /* \"src/libraries/SafeERC20.sol\":4194:4373  if (returndata.length > 0) {... */\n    tag_380:\n        /* \"src/libraries/SafeERC20.sol\":3734:4380  {... */\n      pop\n        /* \"src/libraries/SafeERC20.sol\":3664:4380  function _callOptionalReturn(IERC20 token, bytes memory data) private {... */\n      pop\n      pop\n      jump\t// out\n        /* \"src/libraries/Strings.sol\":2471:2622  function toHexString(address addr) internal pure returns (string memory) {... */\n    tag_370:\n        /* \"src/libraries/Strings.sol\":2529:2542  string memory */\n      0x60\n        /* \"src/libraries/Strings.sol\":2562:2614  toHexString(uint256(uint160(addr)), _ADDRESS_LENGTH) */\n      tag_386\n        /* \"src/libraries/Strings.sol\":2590:2594  addr */\n      dup3\n        /* \"src/libraries/Strings.sol\":2574:2596  uint256(uint160(addr)) */\n      0xffffffffffffffffffffffffffffffffffffffff\n      and\n        /* \"src/libraries/Strings.sol\":346:348  20 */\n      0x14\n        /* \"src/libraries/Strings.sol\":2562:2614  toHexString(uint256(uint160(addr)), _ADDRESS_LENGTH) */\n      0xff\n      and\n        /* \"src/libraries/Strings.sol\":2562:2573  toHexString */\n      tag_372\n        /* \"src/libraries/Strings.sol\":2562:2614  toHexString(uint256(uint160(addr)), _ADDRESS_LENGTH) */\n      jump\t// in\n    tag_386:\n        /* \"src/libraries/Strings.sol\":2555:2614  return toHexString(uint256(uint160(addr)), _ADDRESS_LENGTH) */\n      swap1\n      pop\n        /* \"src/libraries/Strings.sol\":2471:2622  function toHexString(address addr) internal pure returns (string memory) {... */\n      swap2\n      swap1\n      pop\n      jump\t// out\n        /* \"src/libraries/Strings.sol\":1867:2314  function toHexString(uint256 value, uint256 length) internal pure returns (string memory) {... */\n    tag_372:\n        /* \"src/libraries/Strings.sol\":1942:1955  string memory */\n      0x60\n        /* \"src/libraries/Strings.sol\":1968:1987  bytes memory buffer */\n      0x00\n        /* \"src/libraries/Strings.sol\":2013:2014  2 */\n      0x02\n        /* \"src/libraries/Strings.sol\":2004:2010  length */\n      dup4\n        /* \"src/libraries/Strings.sol\":2000:2001  2 */\n      0x02\n        /* \"src/libraries/Strings.sol\":2000:2010  2 * length */\n      tag_388\n      swap2\n      swap1\n      tag_176\n      jump\t// in\n    tag_388:\n        /* \"src/libraries/Strings.sol\":2000:2014  2 * length + 2 */\n      tag_389\n      swap2\n      swap1\n      tag_162\n      jump\t// in\n    tag_389:\n        /* \"src/libraries/Strings.sol\":1990:2015  new bytes(2 * length + 2) */\n      0xffffffffffffffff\n      dup2\n      gt\n      iszero\n      tag_390\n      jumpi\n      tag_391\n      tag_392\n      jump\t// in\n    tag_391:\n    tag_390:\n      mload(0x40)\n      swap1\n      dup1\n      dup3\n      mstore\n      dup1\n      0x1f\n      add\n      not(0x1f)\n      and\n      0x20\n      add\n      dup3\n      add\n      0x40\n      mstore\n      dup1\n      iszero\n      tag_393\n      jumpi\n      dup2\n      0x20\n      add\n      0x01\n      dup3\n      mul\n      dup1\n      calldatasize\n      dup4\n      calldatacopy\n      dup1\n      dup3\n      add\n      swap2\n      pop\n      pop\n      swap1\n      pop\n    tag_393:\n      pop\n        /* \"src/libraries/Strings.sol\":1968:2015  bytes memory buffer = new bytes(2 * length + 2) */\n      swap1\n      pop\n        /* \"src/libraries/Strings.sol\":2026:2041  buffer[0] = \"0\" */\n      0x3000000000000000000000000000000000000000000000000000000000000000\n        /* \"src/libraries/Strings.sol\":2026:2032  buffer */\n      dup2\n        /* \"src/libraries/Strings.sol\":2033:2034  0 */\n      0x00\n        /* \"src/libraries/Strings.sol\":2026:2035  buffer[0] */\n      dup2\n      mload\n      dup2\n      lt\n      tag_394\n      jumpi\n      tag_395\n      tag_168\n      jump\t// in\n    tag_395:\n    tag_394:\n      0x20\n      add\n      add\n        /* \"src/libraries/Strings.sol\":2026:2041  buffer[0] = \"0\" */\n      swap1\n      not(0xffffffffffffffffffffffffffffffffffffffffffffffffffffffffffffff)\n      and\n      swap1\n      dup2\n      0x00\n      byte\n      swap1\n      mstore8\n      pop\n        /* \"src/libraries/Strings.sol\":2052:2067  buffer[1] = \"x\" */\n      0x7800000000000000000000000000000000000000000000000000000000000000\n        /* \"src/libraries/Strings.sol\":2052:2058  buffer */\n      dup2\n        /* \"src/libraries/Strings.sol\":2059:2060  1 */\n      0x01\n        /* \"src/libraries/Strings.sol\":2052:2061  buffer[1] */\n      dup2\n      mload\n      dup2\n      lt\n      tag_396\n      jumpi\n      tag_397\n      tag_168\n      jump\t// in\n    tag_397:\n    tag_396:\n      0x20\n      add\n      add\n        /* \"src/libraries/Strings.sol\":2052:2067  buffer[1] = \"x\" */\n      swap1\n      not(0xffffffffffffffffffffffffffffffffffffffffffffffffffffffffffffff)\n      and\n      swap1\n      dup2\n      0x00\n      byte\n      swap1\n      mstore8\n      pop\n        /* \"src/libraries/Strings.sol\":2083:2092  uint256 i */\n      0x00\n        /* \"src/libraries/Strings.sol\":2108:2109  1 */\n      0x01\n        /* \"src/libraries/Strings.sol\":2099:2105  length */\n      dup5\n        /* \"src/libraries/Strings.sol\":2095:2096  2 */\n      0x02\n        /* \"src/libraries/Strings.sol\":2095:2105  2 * length */\n      tag_401\n      swap2\n      swap1\n      tag_176\n      jump\t// in\n    tag_401:\n        /* \"src/libraries/Strings.sol\":2095:2109  2 * length + 1 */\n      tag_402\n      swap2\n      swap1\n      tag_162\n      jump\t// in\n    tag_402:\n        /* \"src/libraries/Strings.sol\":2083:2109  uint256 i = 2 * length + 1 */\n      swap1\n      pop\n        /* \"src/libraries/Strings.sol\":2078:2209  for (uint256 i = 2 * length + 1; i > 1; --i) {... */\n    tag_398:\n        /* \"src/libraries/Strings.sol\":2115:2116  1 */\n      0x01\n        /* \"src/libraries/Strings.sol\":2111:2112  i */\n      dup2\n        /* \"src/libraries/Strings.sol\":2111:2116  i > 1 */\n      gt\n        /* \"src/libraries/Strings.sol\":2078:2209  for (uint256 i = 2 * length + 1; i > 1; --i) {... */\n      iszero\n      tag_399\n      jumpi\n        /* \"src/libraries/Strings.sol\":2150:2158  _SYMBOLS */\n      0x3031323334353637383961626364656600000000000000000000000000000000\n        /* \"src/libraries/Strings.sol\":2167:2170  0xf */\n      0x0f\n        /* \"src/libraries/Strings.sol\":2159:2164  value */\n      dup7\n        /* \"src/libraries/Strings.sol\":2159:2170  value & 0xf */\n      and\n        /* \"src/libraries/Strings.sol\":2150:2171  _SYMBOLS[value & 0xf] */\n      0x10\n      dup2\n      lt\n      tag_403\n      jumpi\n      tag_404\n      tag_168\n      jump\t// in\n    tag_404:\n    tag_403:\n      byte\n      0xf8\n      shl\n        /* \"src/libraries/Strings.sol\":2138:2144  buffer */\n      dup3\n        /* \"src/libraries/Strings.sol\":2145:2146  i */\n      dup3\n        /* \"src/libraries/Strings.sol\":2138:2147  buffer[i] */\n      dup2\n      mload\n      dup2\n      lt\n      tag_405\n      jumpi\n      tag_406\n      tag_168\n      jump\t// in\n    tag_406:\n    tag_405:\n      0x20\n      add\n      add\n        /* \"src/libraries/Strings.sol\":2138:2171  buffer[i] = _SYMBOLS[value & 0xf] */\n      swap1\n      not(0xffffffffffffffffffffffffffffffffffffffffffffffffffffffffffffff)\n      and\n      swap1\n      dup2\n      0x00\n      byte\n      swap1\n      mstore8\n      pop\n        /* \"src/libraries/Strings.sol\":2196:2197  4 */\n      0x04\n        /* \"src/libraries/Strings.sol\":2186:2197  value >>= 4 */\n      dup6\n      swap1\n      shr\n      swap5\n      pop\n        /* \"src/libraries/Strings.sol\":2118:2121  --i */\n      dup1\n      tag_407\n      swap1\n      tag_408\n      jump\t// in\n    tag_407:\n      swap1\n      pop\n        /* \"src/libraries/Strings.sol\":2078:2209  for (uint256 i = 2 * length + 1; i > 1; --i) {... */\n      jump(tag_398)\n    tag_399:\n      pop\n        /* \"src/libraries/Strings.sol\":2236:2237  0 */\n      0x00\n        /* \"src/libraries/Strings.sol\":2227:2232  value */\n      dup5\n        /* \"src/libraries/Strings.sol\":2227:2237  value == 0 */\n      eq\n        /* \"src/libraries/Strings.sol\":2219:2274  require(value == 0, \"Strings: hex length insufficient\") */\n      tag_409\n      jumpi\n      mload(0x40)\n      0x08c379a000000000000000000000000000000000000000000000000000000000\n      dup2\n      mstore\n      0x04\n      add\n      tag_410\n      swap1\n      tag_411\n      jump\t// in\n    tag_410:\n      mload(0x40)\n      dup1\n      swap2\n      sub\n      swap1\n      revert\n    tag_409:\n        /* \"src/libraries/Strings.sol\":2299:2305  buffer */\n      dup1\n        /* \"src/libraries/Strings.sol\":2285:2306  return string(buffer) */\n      swap2\n      pop\n      pop\n        /* \"src/libraries/Strings.sol\":1867:2314  function toHexString(uint256 value, uint256 length) internal pure returns (string memory) {... */\n      swap3\n      swap2\n      pop\n      pop\n      jump\t// out\n        /* \"src/libraries/Address.sol\":4207:4436  function functionCall(... */\n    tag_379:\n        /* \"src/libraries/Address.sol\":4344:4356  bytes memory */\n      0x60\n        /* \"src/libraries/Address.sol\":4376:4428  functionCallWithValue(target, data, 0, errorMessage) */\n      tag_413\n        /* \"src/libraries/Address.sol\":4398:4404  target */\n      dup5\n        /* \"src/libraries/Address.sol\":4406:4410  data */\n      dup5\n        /* \"src/libraries/Address.sol\":4412:4413  0 */\n      0x00\n        /* \"src/libraries/Address.sol\":4415:4427  errorMessage */\n      dup6\n        /* \"src/libraries/Address.sol\":4376:4397  functionCallWithValue */\n      tag_414\n        /* \"src/libraries/Address.sol\":4376:4428  functionCallWithValue(target, data, 0, errorMessage) */\n      jump\t// in\n    tag_413:\n        /* \"src/libraries/Address.sol\":4369:4428  return functionCallWithValue(target, data, 0, errorMessage) */\n      swap1\n      pop\n        /* \"src/libraries/Address.sol\":4207:4436  function functionCall(... */\n      swap4\n      swap3\n      pop\n      pop\n      pop\n      jump\t// out\n        /* \"src/libraries/Address.sol\":5293:5748  function functionCallWithValue(... */\n    tag_414:\n        /* \"src/libraries/Address.sol\":5463:5475  bytes memory */\n      0x60\n        /* \"src/libraries/Address.sol\":5521:5526  value */\n      dup3\n        /* \"src/libraries/Address.sol\":5496:5517  address(this).balance */\n      selfbalance\n        /* \"src/libraries/Address.sol\":5496:5526  address(this).balance >= value */\n      lt\n      iszero\n        /* \"src/libraries/Address.sol\":5488:5569  require(address(this).balance >= value, \"Address: insufficient balance for call\") */\n      tag_416\n      jumpi\n      mload(0x40)\n      0x08c379a000000000000000000000000000000000000000000000000000000000\n      dup2\n      mstore\n      0x04\n      add\n      tag_417\n      swap1\n      tag_418\n      jump\t// in\n    tag_417:\n      mload(0x40)\n      dup1\n      swap2\n      sub\n      swap1\n      revert\n    tag_416:\n        /* \"src/libraries/Address.sol\":5581:5593  bool success */\n      0x00\n        /* \"src/libraries/Address.sol\":5595:5618  bytes memory returndata */\n      dup1\n        /* \"src/libraries/Address.sol\":5622:5628  target */\n      dup7\n        /* \"src/libraries/Address.sol\":5622:5633  target.call */\n      0xffffffffffffffffffffffffffffffffffffffff\n      and\n        /* \"src/libraries/Address.sol\":5641:5646  value */\n      dup6\n        /* \"src/libraries/Address.sol\":5648:5652  data */\n      dup8\n        /* \"src/libraries/Address.sol\":5622:5653  target.call{value: value}(data) */\n      mload(0x40)\n      tag_419\n      swap2\n      swap1\n      tag_420\n      jump\t// in\n    tag_419:\n      0x00\n      mload(0x40)\n      dup1\n      dup4\n      sub\n      dup2\n      dup6\n      dup8\n      gas\n      call\n      swap3\n      pop\n      pop\n      pop\n      returndatasize\n      dup1\n      0x00\n      dup2\n      eq\n      tag_423\n      jumpi\n      mload(0x40)\n      swap2\n      pop\n      and(add(returndatasize, 0x3f), not(0x1f))\n      dup3\n      add\n      0x40\n      mstore\n      returndatasize\n      dup3\n      mstore\n      returndatasize\n      0x00\n      0x20\n      dup5\n      add\n      returndatacopy\n      jump(tag_422)\n    tag_423:\n      0x60\n      swap2\n      pop\n    tag_422:\n      pop\n        /* \"src/libraries/Address.sol\":5580:5653  (bool success, bytes memory returndata) = target.call{value: value}(data) */\n      swap2\n      pop\n      swap2\n      pop\n        /* \"src/libraries/Address.sol\":5671:5740  verifyCallResultFromTarget(target, success, returndata, errorMessage) */\n      tag_424\n        /* \"src/libraries/Address.sol\":5698:5704  target */\n      dup8\n        /* \"src/libraries/Address.sol\":5706:5713  success */\n      dup4\n        /* \"src/libraries/Address.sol\":5715:5725  returndata */\n      dup4\n        /* \"src/libraries/Address.sol\":5727:5739  errorMessage */\n      dup8\n        /* \"src/libraries/Address.sol\":5671:5697  verifyCallResultFromTarget */\n      tag_425\n        /* \"src/libraries/Address.sol\":5671:5740  verifyCallResultFromTarget(target, success, returndata, errorMessage) */\n      jump\t// in\n    tag_424:\n        /* \"src/libraries/Address.sol\":5664:5740  return verifyCallResultFromTarget(target, success, returndata, errorMessage) */\n      swap3\n      pop\n      pop\n      pop\n        /* \"src/libraries/Address.sol\":5293:5748  function functionCallWithValue(... */\n      swap5\n      swap4\n      pop\n      pop\n      pop\n      pop\n      jump\t// out\n        /* \"src/libraries/Address.sol\":7866:8510  function verifyCallResultFromTarget(... */\n    tag_425:\n        /* \"src/libraries/Address.sol\":8051:8063  bytes memory */\n      0x60\n        /* \"src/libraries/Address.sol\":8080:8087  success */\n      dup4\n        /* \"src/libraries/Address.sol\":8076:8503  if (success) {... */\n      iszero\n      tag_427\n      jumpi\n        /* \"src/libraries/Address.sol\":8129:8130  0 */\n      0x00\n        /* \"src/libraries/Address.sol\":8108:8118  returndata */\n      dup4\n        /* \"src/libraries/Address.sol\":8108:8125  returndata.length */\n      mload\n        /* \"src/libraries/Address.sol\":8108:8130  returndata.length == 0 */\n      sub\n        /* \"src/libraries/Address.sol\":8104:8394  if (returndata.length == 0) {... */\n      tag_428\n      jumpi\n        /* \"src/libraries/Address.sol\":8326:8344  isContract(target) */\n      tag_429\n        /* \"src/libraries/Address.sol\":8337:8343  target */\n      dup6\n        /* \"src/libraries/Address.sol\":8326:8336  isContract */\n      tag_430\n        /* \"src/libraries/Address.sol\":8326:8344  isContract(target) */\n      jump\t// in\n    tag_429:\n        /* \"src/libraries/Address.sol\":8318:8378  require(isContract(target), \"Address: call to non-contract\") */\n      tag_431\n      jumpi\n      mload(0x40)\n      0x08c379a000000000000000000000000000000000000000000000000000000000\n      dup2\n      mstore\n      0x04\n      add\n      tag_432\n      swap1\n      tag_433\n      jump\t// in\n    tag_432:\n      mload(0x40)\n      dup1\n      swap2\n      sub\n      swap1\n      revert\n    tag_431:\n        /* \"src/libraries/Address.sol\":8104:8394  if (returndata.length == 0) {... */\n    tag_428:\n        /* \"src/libraries/Address.sol\":8415:8425  returndata */\n      dup3\n        /* \"src/libraries/Address.sol\":8408:8425  return returndata */\n      swap1\n      pop\n      jump(tag_426)\n        /* \"src/libraries/Address.sol\":8076:8503  if (success) {... */\n    tag_427:\n        /* \"src/libraries/Address.sol\":8458:8491  _revert(returndata, errorMessage) */\n      tag_435\n        /* \"src/libraries/Address.sol\":8466:8476  returndata */\n      dup4\n        /* \"src/libraries/Address.sol\":8478:8490  errorMessage */\n      dup4\n        /* \"src/libraries/Address.sol\":8458:8465  _revert */\n      tag_436\n        /* \"src/libraries/Address.sol\":8458:8491  _revert(returndata, errorMessage) */\n      jump\t// in\n    tag_435:\n        /* \"src/libraries/Address.sol\":7866:8510  function verifyCallResultFromTarget(... */\n    tag_426:\n      swap5\n      swap4\n      pop\n      pop\n      pop\n      pop\n      jump\t// out\n        /* \"src/libraries/Address.sol\":1451:1777  function isContract(address account) internal view returns (bool) {... */\n    tag_430:\n        /* \"src/libraries/Address.sol\":1511:1515  bool */\n      0x00\n        /* \"src/libraries/Address.sol\":1768:1769  0 */\n      dup1\n        /* \"src/libraries/Address.sol\":1746:1753  account */\n      dup3\n        /* \"src/libraries/Address.sol\":1746:1765  account.code.length */\n      0xffffffffffffffffffffffffffffffffffffffff\n      and\n      extcodesize\n        /* \"src/libraries/Address.sol\":1746:1769  account.code.length > 0 */\n      gt\n        /* \"src/libraries/Address.sol\":1739:1769  return account.code.length > 0 */\n      swap1\n      pop\n        /* \"src/libraries/Address.sol\":1451:1777  function isContract(address account) internal view returns (bool) {... */\n      swap2\n      swap1\n      pop\n      jump\t// out\n        /* \"src/libraries/Address.sol\":9052:9604  function _revert(bytes memory returndata, string memory errorMessage) private pure {... */\n    tag_436:\n        /* \"src/libraries/Address.sol\":9233:9234  0 */\n      0x00\n        /* \"src/libraries/Address.sol\":9213:9223  returndata */\n      dup3\n        /* \"src/libraries/Address.sol\":9213:9230  returndata.length */\n      mload\n        /* \"src/libraries/Address.sol\":9213:9234  returndata.length > 0 */\n      gt\n        /* \"src/libraries/Address.sol\":9209:9597  if (returndata.length > 0) {... */\n      iszero\n      tag_439\n      jumpi\n        /* \"src/libraries/Address.sol\":9445:9455  returndata */\n      dup2\n        /* \"src/libraries/Address.sol\":9439:9456  mload(returndata) */\n      mload\n        /* \"src/libraries/Address.sol\":9502:9517  returndata_size */\n      dup1\n        /* \"src/libraries/Address.sol\":9489:9499  returndata */\n      dup4\n        /* \"src/libraries/Address.sol\":9485:9487  32 */\n      0x20\n        /* \"src/libraries/Address.sol\":9481:9500  add(32, returndata) */\n      add\n        /* \"src/libraries/Address.sol\":9474:9518  revert(add(32, returndata), returndata_size) */\n      revert\n        /* \"src/libraries/Address.sol\":9209:9597  if (returndata.length > 0) {... */\n    tag_439:\n        /* \"src/libraries/Address.sol\":9572:9584  errorMessage */\n      dup1\n        /* \"src/libraries/Address.sol\":9565:9585  revert(errorMessage) */\n      mload(0x40)\n      0x08c379a000000000000000000000000000000000000000000000000000000000\n      dup2\n      mstore\n      0x04\n      add\n      tag_441\n      swap2\n      swap1\n      tag_376\n      jump\t// in\n    tag_441:\n      mload(0x40)\n      dup1\n      swap2\n      sub\n      swap1\n      revert\n    tag_353:\n      mload(0x40)\n      dup1\n      0x80\n      add\n      0x40\n      mstore\n      dup1\n      and(0xffffffffffffffffffffffffffffffffffffffff, 0x00)\n      dup2\n      mstore\n      0x20\n      add\n      0x00\n      dup2\n      mstore\n      0x20\n      add\n      0x00\n      dup2\n      mstore\n      0x20\n      add\n      0x00\n      dup2\n      mstore\n      pop\n      swap1\n      jump\t// out\n        /* \"#utility.yul\":7:82   */\n    tag_442:\n        /* \"#utility.yul\":40:46   */\n      0x00\n        /* \"#utility.yul\":73:75   */\n      0x40\n        /* \"#utility.yul\":67:76   */\n      mload\n        /* \"#utility.yul\":57:76   */\n      swap1\n      pop\n        /* \"#utility.yul\":7:82   */\n      swap1\n      jump\t// out\n        /* \"#utility.yul\":88:205   */\n    tag_443:\n        /* \"#utility.yul\":197:198   */\n      0x00\n        /* \"#utility.yul\":194:195   */\n      dup1\n        /* \"#utility.yul\":187:199   */\n      revert\n        /* \"#utility.yul\":211:328   */\n    tag_444:\n        /* \"#utility.yul\":320:321   */\n      0x00\n        /* \"#utility.yul\":317:318   */\n      dup1\n        /* \"#utility.yul\":310:322   */\n      revert\n        /* \"#utility.yul\":334:483   */\n    tag_445:\n        /* \"#utility.yul\":370:377   */\n      0x00\n        /* \"#utility.yul\":410:476   */\n      0xffffffff00000000000000000000000000000000000000000000000000000000\n        /* \"#utility.yul\":403:408   */\n      dup3\n        /* \"#utility.yul\":399:477   */\n      and\n        /* \"#utility.yul\":388:477   */\n      swap1\n      pop\n        /* \"#utility.yul\":334:483   */\n      swap2\n      swap1\n      pop\n      jump\t// out\n        /* \"#utility.yul\":489:609   */\n    tag_446:\n        /* \"#utility.yul\":561:584   */\n      tag_529\n        /* \"#utility.yul\":578:583   */\n      dup2\n        /* \"#utility.yul\":561:584   */\n      tag_445\n      jump\t// in\n    tag_529:\n        /* \"#utility.yul\":554:559   */\n      dup2\n        /* \"#utility.yul\":551:585   */\n      eq\n        /* \"#utility.yul\":541:603   */\n      tag_530\n      jumpi\n        /* \"#utility.yul\":599:600   */\n      0x00\n        /* \"#utility.yul\":596:597   */\n      dup1\n        /* \"#utility.yul\":589:601   */\n      revert\n        /* \"#utility.yul\":541:603   */\n    tag_530:\n        /* \"#utility.yul\":489:609   */\n      pop\n      jump\t// out\n        /* \"#utility.yul\":615:752   */\n    tag_447:\n        /* \"#utility.yul\":660:665   */\n      0x00\n        /* \"#utility.yul\":698:704   */\n      dup2\n        /* \"#utility.yul\":685:705   */\n      calldataload\n        /* \"#utility.yul\":676:705   */\n      swap1\n      pop\n        /* \"#utility.yul\":714:746   */\n      tag_532\n        /* \"#utility.yul\":740:745   */\n      dup2\n        /* \"#utility.yul\":714:746   */\n      tag_446\n      jump\t// in\n    tag_532:\n        /* \"#utility.yul\":615:752   */\n      swap3\n      swap2\n      pop\n      pop\n      jump\t// out\n        /* \"#utility.yul\":758:1085   */\n    tag_34:\n        /* \"#utility.yul\":816:822   */\n      0x00\n        /* \"#utility.yul\":865:867   */\n      0x20\n        /* \"#utility.yul\":853:862   */\n      dup3\n        /* \"#utility.yul\":844:851   */\n      dup5\n        /* \"#utility.yul\":840:863   */\n      sub\n        /* \"#utility.yul\":836:868   */\n      slt\n        /* \"#utility.yul\":833:952   */\n      iszero\n      tag_534\n      jumpi\n        /* \"#utility.yul\":871:950   */\n      tag_535\n      tag_443\n      jump\t// in\n    tag_535:\n        /* \"#utility.yul\":833:952   */\n    tag_534:\n        /* \"#utility.yul\":991:992   */\n      0x00\n        /* \"#utility.yul\":1016:1068   */\n      tag_536\n        /* \"#utility.yul\":1060:1067   */\n      dup5\n        /* \"#utility.yul\":1051:1057   */\n      dup3\n        /* \"#utility.yul\":1040:1049   */\n      dup6\n        /* \"#utility.yul\":1036:1058   */\n      add\n        /* \"#utility.yul\":1016:1068   */\n      tag_447\n      jump\t// in\n    tag_536:\n        /* \"#utility.yul\":1006:1068   */\n      swap2\n      pop\n        /* \"#utility.yul\":962:1078   */\n      pop\n        /* \"#utility.yul\":758:1085   */\n      swap3\n      swap2\n      pop\n      pop\n      jump\t// out\n        /* \"#utility.yul\":1091:1181   */\n    tag_448:\n        /* \"#utility.yul\":1125:1132   */\n      0x00\n        /* \"#utility.yul\":1168:1173   */\n      dup2\n        /* \"#utility.yul\":1161:1174   */\n      iszero\n        /* \"#utility.yul\":1154:1175   */\n      iszero\n        /* \"#utility.yul\":1143:1175   */\n      swap1\n      pop\n        /* \"#utility.yul\":1091:1181   */\n      swap2\n      swap1\n      pop\n      jump\t// out\n        /* \"#utility.yul\":1187:1296   */\n    tag_449:\n        /* \"#utility.yul\":1268:1289   */\n      tag_539\n        /* \"#utility.yul\":1283:1288   */\n      dup2\n        /* \"#utility.yul\":1268:1289   */\n      tag_448\n      jump\t// in\n    tag_539:\n        /* \"#utility.yul\":1263:1266   */\n      dup3\n        /* \"#utility.yul\":1256:1290   */\n      mstore\n        /* \"#utility.yul\":1187:1296   */\n      pop\n      pop\n      jump\t// out\n        /* \"#utility.yul\":1302:1512   */\n    tag_37:\n        /* \"#utility.yul\":1389:1393   */\n      0x00\n        /* \"#utility.yul\":1427:1429   */\n      0x20\n        /* \"#utility.yul\":1416:1425   */\n      dup3\n        /* \"#utility.yul\":1412:1430   */\n      add\n        /* \"#utility.yul\":1404:1430   */\n      swap1\n      pop\n        /* \"#utility.yul\":1440:1505   */\n      tag_541\n        /* \"#utility.yul\":1502:1503   */\n      0x00\n        /* \"#utility.yul\":1491:1500   */\n      dup4\n        /* \"#utility.yul\":1487:1504   */\n      add\n        /* \"#utility.yul\":1478:1484   */\n      dup5\n        /* \"#utility.yul\":1440:1505   */\n      tag_449\n      jump\t// in\n    tag_541:\n        /* \"#utility.yul\":1302:1512   */\n      swap3\n      swap2\n      pop\n      pop\n      jump\t// out\n        /* \"#utility.yul\":1518:1595   */\n    tag_450:\n        /* \"#utility.yul\":1555:1562   */\n      0x00\n        /* \"#utility.yul\":1584:1589   */\n      dup2\n        /* \"#utility.yul\":1573:1589   */\n      swap1\n      pop\n        /* \"#utility.yul\":1518:1595   */\n      swap2\n      swap1\n      pop\n      jump\t// out\n        /* \"#utility.yul\":1601:1719   */\n    tag_451:\n        /* \"#utility.yul\":1688:1712   */\n      tag_544\n        /* \"#utility.yul\":1706:1711   */\n      dup2\n        /* \"#utility.yul\":1688:1712   */\n      tag_450\n      jump\t// in\n    tag_544:\n        /* \"#utility.yul\":1683:1686   */\n      dup3\n        /* \"#utility.yul\":1676:1713   */\n      mstore\n        /* \"#utility.yul\":1601:1719   */\n      pop\n      pop\n      jump\t// out\n        /* \"#utility.yul\":1725:1947   */\n    tag_41:\n        /* \"#utility.yul\":1818:1822   */\n      0x00\n        /* \"#utility.yul\":1856:1858   */\n      0x20\n        /* \"#utility.yul\":1845:1854   */\n      dup3\n        /* \"#utility.yul\":1841:1859   */\n      add\n        /* \"#utility.yul\":1833:1859   */\n      swap1\n      pop\n        /* \"#utility.yul\":1869:1940   */\n      tag_546\n        /* \"#utility.yul\":1937:1938   */\n      0x00\n        /* \"#utility.yul\":1926:1935   */\n      dup4\n        /* \"#utility.yul\":1922:1939   */\n      add\n        /* \"#utility.yul\":1913:1919   */\n      dup5\n        /* \"#utility.yul\":1869:1940   */\n      tag_451\n      jump\t// in\n    tag_546:\n        /* \"#utility.yul\":1725:1947   */\n      swap3\n      swap2\n      pop\n      pop\n      jump\t// out\n        /* \"#utility.yul\":1953:2075   */\n    tag_452:\n        /* \"#utility.yul\":2026:2050   */\n      tag_548\n        /* \"#utility.yul\":2044:2049   */\n      dup2\n        /* \"#utility.yul\":2026:2050   */\n      tag_450\n      jump\t// in\n    tag_548:\n        /* \"#utility.yul\":2019:2024   */\n      dup2\n        /* \"#utility.yul\":2016:2051   */\n      eq\n        /* \"#utility.yul\":2006:2069   */\n      tag_549\n      jumpi\n        /* \"#utility.yul\":2065:2066   */\n      0x00\n        /* \"#utility.yul\":2062:2063   */\n      dup1\n        /* \"#utility.yul\":2055:2067   */\n      revert\n        /* \"#utility.yul\":2006:2069   */\n    tag_549:\n        /* \"#utility.yul\":1953:2075   */\n      pop\n      jump\t// out\n        /* \"#utility.yul\":2081:2220   */\n    tag_453:\n        /* \"#utility.yul\":2127:2132   */\n      0x00\n        /* \"#utility.yul\":2165:2171   */\n      dup2\n        /* \"#utility.yul\":2152:2172   */\n      calldataload\n        /* \"#utility.yul\":2143:2172   */\n      swap1\n      pop\n        /* \"#utility.yul\":2181:2214   */\n      tag_551\n        /* \"#utility.yul\":2208:2213   */\n      dup2\n        /* \"#utility.yul\":2181:2214   */\n      tag_452\n      jump\t// in\n    tag_551:\n        /* \"#utility.yul\":2081:2220   */\n      swap3\n      swap2\n      pop\n      pop\n      jump\t// out\n        /* \"#utility.yul\":2226:2555   */\n    tag_44:\n        /* \"#utility.yul\":2285:2291   */\n      0x00\n        /* \"#utility.yul\":2334:2336   */\n      0x20\n        /* \"#utility.yul\":2322:2331   */\n      dup3\n        /* \"#utility.yul\":2313:2320   */\n      dup5\n        /* \"#utility.yul\":2309:2332   */\n      sub\n        /* \"#utility.yul\":2305:2337   */\n      slt\n        /* \"#utility.yul\":2302:2421   */\n      iszero\n      tag_553\n      jumpi\n        /* \"#utility.yul\":2340:2419   */\n      tag_554\n      tag_443\n      jump\t// in\n    tag_554:\n        /* \"#utility.yul\":2302:2421   */\n    tag_553:\n        /* \"#utility.yul\":2460:2461   */\n      0x00\n        /* \"#utility.yul\":2485:2538   */\n      tag_555\n        /* \"#utility.yul\":2530:2537   */\n      dup5\n        /* \"#utility.yul\":2521:2527   */\n      dup3\n        /* \"#utility.yul\":2510:2519   */\n      dup6\n        /* \"#utility.yul\":2506:2528   */\n      add\n        /* \"#utility.yul\":2485:2538   */\n      tag_453\n      jump\t// in\n    tag_555:\n        /* \"#utility.yul\":2475:2538   */\n      swap2\n      pop\n        /* \"#utility.yul\":2431:2548   */\n      pop\n        /* \"#utility.yul\":2226:2555   */\n      swap3\n      swap2\n      pop\n      pop\n      jump\t// out\n        /* \"#utility.yul\":2561:2687   */\n    tag_454:\n        /* \"#utility.yul\":2598:2605   */\n      0x00\n        /* \"#utility.yul\":2638:2680   */\n      0xffffffffffffffffffffffffffffffffffffffff\n        /* \"#utility.yul\":2631:2636   */\n      dup3\n        /* \"#utility.yul\":2627:2681   */\n      and\n        /* \"#utility.yul\":2616:2681   */\n      swap1\n      pop\n        /* \"#utility.yul\":2561:2687   */\n      swap2\n      swap1\n      pop\n      jump\t// out\n        /* \"#utility.yul\":2693:2753   */\n    tag_455:\n        /* \"#utility.yul\":2721:2724   */\n      0x00\n        /* \"#utility.yul\":2742:2747   */\n      dup2\n        /* \"#utility.yul\":2735:2747   */\n      swap1\n      pop\n        /* \"#utility.yul\":2693:2753   */\n      swap2\n      swap1\n      pop\n      jump\t// out\n        /* \"#utility.yul\":2759:2901   */\n    tag_456:\n        /* \"#utility.yul\":2809:2818   */\n      0x00\n        /* \"#utility.yul\":2842:2895   */\n      tag_559\n        /* \"#utility.yul\":2860:2894   */\n      tag_560\n        /* \"#utility.yul\":2869:2893   */\n      tag_561\n        /* \"#utility.yul\":2887:2892   */\n      dup5\n        /* \"#utility.yul\":2869:2893   */\n      tag_454\n      jump\t// in\n    tag_561:\n        /* \"#utility.yul\":2860:2894   */\n      tag_455\n      jump\t// in\n    tag_560:\n        /* \"#utility.yul\":2842:2895   */\n      tag_454\n      jump\t// in\n    tag_559:\n        /* \"#utility.yul\":2829:2895   */\n      swap1\n      pop\n        /* \"#utility.yul\":2759:2901   */\n      swap2\n      swap1\n      pop\n      jump\t// out\n        /* \"#utility.yul\":2907:3033   */\n    tag_457:\n        /* \"#utility.yul\":2957:2966   */\n      0x00\n        /* \"#utility.yul\":2990:3027   */\n      tag_563\n        /* \"#utility.yul\":3021:3026   */\n      dup3\n        /* \"#utility.yul\":2990:3027   */\n      tag_456\n      jump\t// in\n    tag_563:\n        /* \"#utility.yul\":2977:3027   */\n      swap1\n      pop\n        /* \"#utility.yul\":2907:3033   */\n      swap2\n      swap1\n      pop\n      jump\t// out\n        /* \"#utility.yul\":3039:3180   */\n    tag_458:\n        /* \"#utility.yul\":3104:3113   */\n      0x00\n        /* \"#utility.yul\":3137:3174   */\n      tag_565\n        /* \"#utility.yul\":3168:3173   */\n      dup3\n        /* \"#utility.yul\":3137:3174   */\n      tag_457\n      jump\t// in\n    tag_565:\n        /* \"#utility.yul\":3124:3174   */\n      swap1\n      pop\n        /* \"#utility.yul\":3039:3180   */\n      swap2\n      swap1\n      pop\n      jump\t// out\n        /* \"#utility.yul\":3186:3347   */\n    tag_459:\n        /* \"#utility.yul\":3288:3340   */\n      tag_567\n        /* \"#utility.yul\":3334:3339   */\n      dup2\n        /* \"#utility.yul\":3288:3340   */\n      tag_458\n      jump\t// in\n    tag_567:\n        /* \"#utility.yul\":3283:3286   */\n      dup3\n        /* \"#utility.yul\":3276:3341   */\n      mstore\n        /* \"#utility.yul\":3186:3347   */\n      pop\n      pop\n      jump\t// out\n        /* \"#utility.yul\":3353:3936   */\n    tag_47:\n        /* \"#utility.yul\":3545:3549   */\n      0x00\n        /* \"#utility.yul\":3583:3586   */\n      0x80\n        /* \"#utility.yul\":3572:3581   */\n      dup3\n        /* \"#utility.yul\":3568:3587   */\n      add\n        /* \"#utility.yul\":3560:3587   */\n      swap1\n      pop\n        /* \"#utility.yul\":3597:3683   */\n      tag_569\n        /* \"#utility.yul\":3680:3681   */\n      0x00\n        /* \"#utility.yul\":3669:3678   */\n      dup4\n        /* \"#utility.yul\":3665:3682   */\n      add\n        /* \"#utility.yul\":3656:3662   */\n      dup8\n        /* \"#utility.yul\":3597:3683   */\n      tag_459\n      jump\t// in\n    tag_569:\n        /* \"#utility.yul\":3693:3765   */\n      tag_570\n        /* \"#utility.yul\":3761:3763   */\n      0x20\n        /* \"#utility.yul\":3750:3759   */\n      dup4\n        /* \"#utility.yul\":3746:3764   */\n      add\n        /* \"#utility.yul\":3737:3743   */\n      dup7\n        /* \"#utility.yul\":3693:3765   */\n      tag_451\n      jump\t// in\n    tag_570:\n        /* \"#utility.yul\":3775:3847   */\n      tag_571\n        /* \"#utility.yul\":3843:3845   */\n      0x40\n        /* \"#utility.yul\":3832:3841   */\n      dup4\n        /* \"#utility.yul\":3828:3846   */\n      add\n        /* \"#utility.yul\":3819:3825   */\n      dup6\n        /* \"#utility.yul\":3775:3847   */\n      tag_451\n      jump\t// in\n    tag_571:\n        /* \"#utility.yul\":3857:3929   */\n      tag_572\n        /* \"#utility.yul\":3925:3927   */\n      0x60\n        /* \"#utility.yul\":3914:3923   */\n      dup4\n        /* \"#utility.yul\":3910:3928   */\n      add\n        /* \"#utility.yul\":3901:3907   */\n      dup5\n        /* \"#utility.yul\":3857:3929   */\n      tag_451\n      jump\t// in\n    tag_572:\n        /* \"#utility.yul\":3353:3936   */\n      swap6\n      swap5\n      pop\n      pop\n      pop\n      pop\n      pop\n      jump\t// out\n        /* \"#utility.yul\":3942:4082   */\n    tag_460:\n        /* \"#utility.yul\":4006:4015   */\n      0x00\n        /* \"#utility.yul\":4039:4076   */\n      tag_574\n        /* \"#utility.yul\":4070:4075   */\n      dup3\n        /* \"#utility.yul\":4039:4076   */\n      tag_457\n      jump\t// in\n    tag_574:\n        /* \"#utility.yul\":4026:4076   */\n      swap1\n      pop\n        /* \"#utility.yul\":3942:4082   */\n      swap2\n      swap1\n      pop\n      jump\t// out\n        /* \"#utility.yul\":4088:4247   */\n    tag_461:\n        /* \"#utility.yul\":4189:4240   */\n      tag_576\n        /* \"#utility.yul\":4234:4239   */\n      dup2\n        /* \"#utility.yul\":4189:4240   */\n      tag_460\n      jump\t// in\n    tag_576:\n        /* \"#utility.yul\":4184:4187   */\n      dup3\n        /* \"#utility.yul\":4177:4241   */\n      mstore\n        /* \"#utility.yul\":4088:4247   */\n      pop\n      pop\n      jump\t// out\n        /* \"#utility.yul\":4253:4503   */\n    tag_54:\n        /* \"#utility.yul\":4360:4364   */\n      0x00\n        /* \"#utility.yul\":4398:4400   */\n      0x20\n        /* \"#utility.yul\":4387:4396   */\n      dup3\n        /* \"#utility.yul\":4383:4401   */\n      add\n        /* \"#utility.yul\":4375:4401   */\n      swap1\n      pop\n        /* \"#utility.yul\":4411:4496   */\n      tag_578\n        /* \"#utility.yul\":4493:4494   */\n      0x00\n        /* \"#utility.yul\":4482:4491   */\n      dup4\n        /* \"#utility.yul\":4478:4495   */\n      add\n        /* \"#utility.yul\":4469:4475   */\n      dup5\n        /* \"#utility.yul\":4411:4496   */\n      tag_461\n      jump\t// in\n    tag_578:\n        /* \"#utility.yul\":4253:4503   */\n      swap3\n      swap2\n      pop\n      pop\n      jump\t// out\n        /* \"#utility.yul\":4509:4586   */\n    tag_462:\n        /* \"#utility.yul\":4546:4553   */\n      0x00\n        /* \"#utility.yul\":4575:4580   */\n      dup2\n        /* \"#utility.yul\":4564:4580   */\n      swap1\n      pop\n        /* \"#utility.yul\":4509:4586   */\n      swap2\n      swap1\n      pop\n      jump\t// out\n        /* \"#utility.yul\":4592:4714   */\n    tag_463:\n        /* \"#utility.yul\":4665:4689   */\n      tag_581\n        /* \"#utility.yul\":4683:4688   */\n      dup2\n        /* \"#utility.yul\":4665:4689   */\n      tag_462\n      jump\t// in\n    tag_581:\n        /* \"#utility.yul\":4658:4663   */\n      dup2\n        /* \"#utility.yul\":4655:4690   */\n      eq\n        /* \"#utility.yul\":4645:4708   */\n      tag_582\n      jumpi\n        /* \"#utility.yul\":4704:4705   */\n      0x00\n        /* \"#utility.yul\":4701:4702   */\n      dup1\n        /* \"#utility.yul\":4694:4706   */\n      revert\n        /* \"#utility.yul\":4645:4708   */\n    tag_582:\n        /* \"#utility.yul\":4592:4714   */\n      pop\n      jump\t// out\n        /* \"#utility.yul\":4720:4859   */\n    tag_464:\n        /* \"#utility.yul\":4766:4771   */\n      0x00\n        /* \"#utility.yul\":4804:4810   */\n      dup2\n        /* \"#utility.yul\":4791:4811   */\n      calldataload\n        /* \"#utility.yul\":4782:4811   */\n      swap1\n      pop\n        /* \"#utility.yul\":4820:4853   */\n      tag_584\n        /* \"#utility.yul\":4847:4852   */\n      dup2\n        /* \"#utility.yul\":4820:4853   */\n      tag_463\n      jump\t// in\n    tag_584:\n        /* \"#utility.yul\":4720:4859   */\n      swap3\n      swap2\n      pop\n      pop\n      jump\t// out\n        /* \"#utility.yul\":4865:5194   */\n    tag_57:\n        /* \"#utility.yul\":4924:4930   */\n      0x00\n        /* \"#utility.yul\":4973:4975   */\n      0x20\n        /* \"#utility.yul\":4961:4970   */\n      dup3\n        /* \"#utility.yul\":4952:4959   */\n      dup5\n        /* \"#utility.yul\":4948:4971   */\n      sub\n        /* \"#utility.yul\":4944:4976   */\n      slt\n        /* \"#utility.yul\":4941:5060   */\n      iszero\n      tag_586\n      jumpi\n        /* \"#utility.yul\":4979:5058   */\n      tag_587\n      tag_443\n      jump\t// in\n    tag_587:\n        /* \"#utility.yul\":4941:5060   */\n    tag_586:\n        /* \"#utility.yul\":5099:5100   */\n      0x00\n        /* \"#utility.yul\":5124:5177   */\n      tag_588\n        /* \"#utility.yul\":5169:5176   */\n      dup5\n        /* \"#utility.yul\":5160:5166   */\n      dup3\n        /* \"#utility.yul\":5149:5158   */\n      dup6\n        /* \"#utility.yul\":5145:5167   */\n      add\n        /* \"#utility.yul\":5124:5177   */\n      tag_464\n      jump\t// in\n    tag_588:\n        /* \"#utility.yul\":5114:5177   */\n      swap2\n      pop\n        /* \"#utility.yul\":5070:5187   */\n      pop\n        /* \"#utility.yul\":4865:5194   */\n      swap3\n      swap2\n      pop\n      pop\n      jump\t// out\n        /* \"#utility.yul\":5200:5318   */\n    tag_465:\n        /* \"#utility.yul\":5287:5311   */\n      tag_590\n        /* \"#utility.yul\":5305:5310   */\n      dup2\n        /* \"#utility.yul\":5287:5311   */\n      tag_462\n      jump\t// in\n    tag_590:\n        /* \"#utility.yul\":5282:5285   */\n      dup3\n        /* \"#utility.yul\":5275:5312   */\n      mstore\n        /* \"#utility.yul\":5200:5318   */\n      pop\n      pop\n      jump\t// out\n        /* \"#utility.yul\":5324:5546   */\n    tag_60:\n        /* \"#utility.yul\":5417:5421   */\n      0x00\n        /* \"#utility.yul\":5455:5457   */\n      0x20\n        /* \"#utility.yul\":5444:5453   */\n      dup3\n        /* \"#utility.yul\":5440:5458   */\n      add\n        /* \"#utility.yul\":5432:5458   */\n      swap1\n      pop\n        /* \"#utility.yul\":5468:5539   */\n      tag_592\n        /* \"#utility.yul\":5536:5537   */\n      0x00\n        /* \"#utility.yul\":5525:5534   */\n      dup4\n        /* \"#utility.yul\":5521:5538   */\n      add\n        /* \"#utility.yul\":5512:5518   */\n      dup5\n        /* \"#utility.yul\":5468:5539   */\n      tag_465\n      jump\t// in\n    tag_592:\n        /* \"#utility.yul\":5324:5546   */\n      swap3\n      swap2\n      pop\n      pop\n      jump\t// out\n        /* \"#utility.yul\":5552:5648   */\n    tag_466:\n        /* \"#utility.yul\":5589:5596   */\n      0x00\n        /* \"#utility.yul\":5618:5642   */\n      tag_594\n        /* \"#utility.yul\":5636:5641   */\n      dup3\n        /* \"#utility.yul\":5618:5642   */\n      tag_454\n      jump\t// in\n    tag_594:\n        /* \"#utility.yul\":5607:5642   */\n      swap1\n      pop\n        /* \"#utility.yul\":5552:5648   */\n      swap2\n      swap1\n      pop\n      jump\t// out\n        /* \"#utility.yul\":5654:5776   */\n    tag_467:\n        /* \"#utility.yul\":5727:5751   */\n      tag_596\n        /* \"#utility.yul\":5745:5750   */\n      dup2\n        /* \"#utility.yul\":5727:5751   */\n      tag_466\n      jump\t// in\n    tag_596:\n        /* \"#utility.yul\":5720:5725   */\n      dup2\n        /* \"#utility.yul\":5717:5752   */\n      eq\n        /* \"#utility.yul\":5707:5770   */\n      tag_597\n      jumpi\n        /* \"#utility.yul\":5766:5767   */\n      0x00\n        /* \"#utility.yul\":5763:5764   */\n      dup1\n        /* \"#utility.yul\":5756:5768   */\n      revert\n        /* \"#utility.yul\":5707:5770   */\n    tag_597:\n        /* \"#utility.yul\":5654:5776   */\n      pop\n      jump\t// out\n        /* \"#utility.yul\":5782:5921   */\n    tag_468:\n        /* \"#utility.yul\":5828:5833   */\n      0x00\n        /* \"#utility.yul\":5866:5872   */\n      dup2\n        /* \"#utility.yul\":5853:5873   */\n      calldataload\n        /* \"#utility.yul\":5844:5873   */\n      swap1\n      pop\n        /* \"#utility.yul\":5882:5915   */\n      tag_599\n        /* \"#utility.yul\":5909:5914   */\n      dup2\n        /* \"#utility.yul\":5882:5915   */\n      tag_467\n      jump\t// in\n    tag_599:\n        /* \"#utility.yul\":5782:5921   */\n      swap3\n      swap2\n      pop\n      pop\n      jump\t// out\n        /* \"#utility.yul\":5927:6401   */\n    tag_63:\n        /* \"#utility.yul\":5995:6001   */\n      0x00\n        /* \"#utility.yul\":6003:6009   */\n      dup1\n        /* \"#utility.yul\":6052:6054   */\n      0x40\n        /* \"#utility.yul\":6040:6049   */\n      dup4\n        /* \"#utility.yul\":6031:6038   */\n      dup6\n        /* \"#utility.yul\":6027:6050   */\n      sub\n        /* \"#utility.yul\":6023:6055   */\n      slt\n        /* \"#utility.yul\":6020:6139   */\n      iszero\n      tag_601\n      jumpi\n        /* \"#utility.yul\":6058:6137   */\n      tag_602\n      tag_443\n      jump\t// in\n    tag_602:\n        /* \"#utility.yul\":6020:6139   */\n    tag_601:\n        /* \"#utility.yul\":6178:6179   */\n      0x00\n        /* \"#utility.yul\":6203:6256   */\n      tag_603\n        /* \"#utility.yul\":6248:6255   */\n      dup6\n        /* \"#utility.yul\":6239:6245   */\n      dup3\n        /* \"#utility.yul\":6228:6237   */\n      dup7\n        /* \"#utility.yul\":6224:6246   */\n      add\n        /* \"#utility.yul\":6203:6256   */\n      tag_464\n      jump\t// in\n    tag_603:\n        /* \"#utility.yul\":6193:6256   */\n      swap3\n      pop\n        /* \"#utility.yul\":6149:6266   */\n      pop\n        /* \"#utility.yul\":6305:6307   */\n      0x20\n        /* \"#utility.yul\":6331:6384   */\n      tag_604\n        /* \"#utility.yul\":6376:6383   */\n      dup6\n        /* \"#utility.yul\":6367:6373   */\n      dup3\n        /* \"#utility.yul\":6356:6365   */\n      dup7\n        /* \"#utility.yul\":6352:6374   */\n      add\n        /* \"#utility.yul\":6331:6384   */\n      tag_468\n      jump\t// in\n    tag_604:\n        /* \"#utility.yul\":6321:6384   */\n      swap2\n      pop\n        /* \"#utility.yul\":6276:6394   */\n      pop\n        /* \"#utility.yul\":5927:6401   */\n      swap3\n      pop\n      swap3\n      swap1\n      pop\n      jump\t// out\n        /* \"#utility.yul\":6407:6518   */\n    tag_469:\n        /* \"#utility.yul\":6459:6466   */\n      0x00\n        /* \"#utility.yul\":6488:6512   */\n      tag_606\n        /* \"#utility.yul\":6506:6511   */\n      dup3\n        /* \"#utility.yul\":6488:6512   */\n      tag_466\n      jump\t// in\n    tag_606:\n        /* \"#utility.yul\":6477:6512   */\n      swap1\n      pop\n        /* \"#utility.yul\":6407:6518   */\n      swap2\n      swap1\n      pop\n      jump\t// out\n        /* \"#utility.yul\":6524:6676   */\n    tag_470:\n        /* \"#utility.yul\":6612:6651   */\n      tag_608\n        /* \"#utility.yul\":6645:6650   */\n      dup2\n        /* \"#utility.yul\":6612:6651   */\n      tag_469\n      jump\t// in\n    tag_608:\n        /* \"#utility.yul\":6605:6610   */\n      dup2\n        /* \"#utility.yul\":6602:6652   */\n      eq\n        /* \"#utility.yul\":6592:6670   */\n      tag_609\n      jumpi\n        /* \"#utility.yul\":6666:6667   */\n      0x00\n        /* \"#utility.yul\":6663:6664   */\n      dup1\n        /* \"#utility.yul\":6656:6668   */\n      revert\n        /* \"#utility.yul\":6592:6670   */\n    tag_609:\n        /* \"#utility.yul\":6524:6676   */\n      pop\n      jump\t// out\n        /* \"#utility.yul\":6682:6851   */\n    tag_471:\n        /* \"#utility.yul\":6743:6748   */\n      0x00\n        /* \"#utility.yul\":6781:6787   */\n      dup2\n        /* \"#utility.yul\":6768:6788   */\n      calldataload\n        /* \"#utility.yul\":6759:6788   */\n      swap1\n      pop\n        /* \"#utility.yul\":6797:6845   */\n      tag_611\n        /* \"#utility.yul\":6839:6844   */\n      dup2\n        /* \"#utility.yul\":6797:6845   */\n      tag_470\n      jump\t// in\n    tag_611:\n        /* \"#utility.yul\":6682:6851   */\n      swap3\n      swap2\n      pop\n      pop\n      jump\t// out\n        /* \"#utility.yul\":6857:6974   */\n    tag_472:\n        /* \"#utility.yul\":6966:6967   */\n      0x00\n        /* \"#utility.yul\":6963:6964   */\n      dup1\n        /* \"#utility.yul\":6956:6968   */\n      revert\n        /* \"#utility.yul\":6980:7097   */\n    tag_473:\n        /* \"#utility.yul\":7089:7090   */\n      0x00\n        /* \"#utility.yul\":7086:7087   */\n      dup1\n        /* \"#utility.yul\":7079:7091   */\n      revert\n        /* \"#utility.yul\":7103:7205   */\n    tag_474:\n        /* \"#utility.yul\":7144:7150   */\n      0x00\n        /* \"#utility.yul\":7195:7197   */\n      0x1f\n        /* \"#utility.yul\":7191:7198   */\n      not\n        /* \"#utility.yul\":7186:7188   */\n      0x1f\n        /* \"#utility.yul\":7179:7184   */\n      dup4\n        /* \"#utility.yul\":7175:7189   */\n      add\n        /* \"#utility.yul\":7171:7199   */\n      and\n        /* \"#utility.yul\":7161:7199   */\n      swap1\n      pop\n        /* \"#utility.yul\":7103:7205   */\n      swap2\n      swap1\n      pop\n      jump\t// out\n        /* \"#utility.yul\":7211:7391   */\n    tag_392:\n        /* \"#utility.yul\":7259:7336   */\n      0x4e487b7100000000000000000000000000000000000000000000000000000000\n        /* \"#utility.yul\":7256:7257   */\n      0x00\n        /* \"#utility.yul\":7249:7337   */\n      mstore\n        /* \"#utility.yul\":7356:7360   */\n      0x41\n        /* \"#utility.yul\":7353:7354   */\n      0x04\n        /* \"#utility.yul\":7346:7361   */\n      mstore\n        /* \"#utility.yul\":7380:7384   */\n      0x24\n        /* \"#utility.yul\":7377:7378   */\n      0x00\n        /* \"#utility.yul\":7370:7385   */\n      revert\n        /* \"#utility.yul\":7397:7678   */\n    tag_475:\n        /* \"#utility.yul\":7480:7507   */\n      tag_617\n        /* \"#utility.yul\":7502:7506   */\n      dup3\n        /* \"#utility.yul\":7480:7507   */\n      tag_474\n      jump\t// in\n    tag_617:\n        /* \"#utility.yul\":7472:7478   */\n      dup2\n        /* \"#utility.yul\":7468:7508   */\n      add\n        /* \"#utility.yul\":7610:7616   */\n      dup2\n        /* \"#utility.yul\":7598:7608   */\n      dup2\n        /* \"#utility.yul\":7595:7617   */\n      lt\n        /* \"#utility.yul\":7574:7592   */\n      0xffffffffffffffff\n        /* \"#utility.yul\":7562:7572   */\n      dup3\n        /* \"#utility.yul\":7559:7593   */\n      gt\n        /* \"#utility.yul\":7556:7618   */\n      or\n        /* \"#utility.yul\":7553:7641   */\n      iszero\n      tag_618\n      jumpi\n        /* \"#utility.yul\":7621:7639   */\n      tag_619\n      tag_392\n      jump\t// in\n    tag_619:\n        /* \"#utility.yul\":7553:7641   */\n    tag_618:\n        /* \"#utility.yul\":7661:7671   */\n      dup1\n        /* \"#utility.yul\":7657:7659   */\n      0x40\n        /* \"#utility.yul\":7650:7672   */\n      mstore\n        /* \"#utility.yul\":7440:7678   */\n      pop\n        /* \"#utility.yul\":7397:7678   */\n      pop\n      pop\n      jump\t// out\n        /* \"#utility.yul\":7684:7813   */\n    tag_476:\n        /* \"#utility.yul\":7718:7724   */\n      0x00\n        /* \"#utility.yul\":7745:7765   */\n      tag_621\n      tag_442\n      jump\t// in\n    tag_621:\n        /* \"#utility.yul\":7735:7765   */\n      swap1\n      pop\n        /* \"#utility.yul\":7774:7807   */\n      tag_622\n        /* \"#utility.yul\":7802:7806   */\n      dup3\n        /* \"#utility.yul\":7794:7800   */\n      dup3\n        /* \"#utility.yul\":7774:7807   */\n      tag_475\n      jump\t// in\n    tag_622:\n        /* \"#utility.yul\":7684:7813   */\n      swap2\n      swap1\n      pop\n      jump\t// out\n        /* \"#utility.yul\":7819:8127   */\n    tag_477:\n        /* \"#utility.yul\":7881:7885   */\n      0x00\n        /* \"#utility.yul\":7971:7989   */\n      0xffffffffffffffff\n        /* \"#utility.yul\":7963:7969   */\n      dup3\n        /* \"#utility.yul\":7960:7990   */\n      gt\n        /* \"#utility.yul\":7957:8013   */\n      iszero\n      tag_624\n      jumpi\n        /* \"#utility.yul\":7993:8011   */\n      tag_625\n      tag_392\n      jump\t// in\n    tag_625:\n        /* \"#utility.yul\":7957:8013   */\n    tag_624:\n        /* \"#utility.yul\":8031:8060   */\n      tag_626\n        /* \"#utility.yul\":8053:8059   */\n      dup3\n        /* \"#utility.yul\":8031:8060   */\n      tag_474\n      jump\t// in\n    tag_626:\n        /* \"#utility.yul\":8023:8060   */\n      swap1\n      pop\n        /* \"#utility.yul\":8115:8119   */\n      0x20\n        /* \"#utility.yul\":8109:8113   */\n      dup2\n        /* \"#utility.yul\":8105:8120   */\n      add\n        /* \"#utility.yul\":8097:8120   */\n      swap1\n      pop\n        /* \"#utility.yul\":7819:8127   */\n      swap2\n      swap1\n      pop\n      jump\t// out\n        /* \"#utility.yul\":8133:8279   */\n    tag_478:\n        /* \"#utility.yul\":8230:8236   */\n      dup3\n        /* \"#utility.yul\":8225:8228   */\n      dup2\n        /* \"#utility.yul\":8220:8223   */\n      dup4\n        /* \"#utility.yul\":8207:8237   */\n      calldatacopy\n        /* \"#utility.yul\":8271:8272   */\n      0x00\n        /* \"#utility.yul\":8262:8268   */\n      dup4\n        /* \"#utility.yul\":8257:8260   */\n      dup4\n        /* \"#utility.yul\":8253:8269   */\n      add\n        /* \"#utility.yul\":8246:8273   */\n      mstore\n        /* \"#utility.yul\":8133:8279   */\n      pop\n      pop\n      pop\n      jump\t// out\n        /* \"#utility.yul\":8285:8710   */\n    tag_479:\n        /* \"#utility.yul\":8363:8368   */\n      0x00\n        /* \"#utility.yul\":8388:8454   */\n      tag_629\n        /* \"#utility.yul\":8404:8453   */\n      tag_630\n        /* \"#utility.yul\":8446:8452   */\n      dup5\n        /* \"#utility.yul\":8404:8453   */\n      tag_477\n      jump\t// in\n    tag_630:\n        /* \"#utility.yul\":8388:8454   */\n      tag_476\n      jump\t// in\n    tag_629:\n        /* \"#utility.yul\":8379:8454   */\n      swap1\n      pop\n        /* \"#utility.yul\":8477:8483   */\n      dup3\n        /* \"#utility.yul\":8470:8475   */\n      dup2\n        /* \"#utility.yul\":8463:8484   */\n      mstore\n        /* \"#utility.yul\":8515:8519   */\n      0x20\n        /* \"#utility.yul\":8508:8513   */\n      dup2\n        /* \"#utility.yul\":8504:8520   */\n      add\n        /* \"#utility.yul\":8553:8556   */\n      dup5\n        /* \"#utility.yul\":8544:8550   */\n      dup5\n        /* \"#utility.yul\":8539:8542   */\n      dup5\n        /* \"#utility.yul\":8535:8551   */\n      add\n        /* \"#utility.yul\":8532:8557   */\n      gt\n        /* \"#utility.yul\":8529:8641   */\n      iszero\n      tag_631\n      jumpi\n        /* \"#utility.yul\":8560:8639   */\n      tag_632\n      tag_473\n      jump\t// in\n    tag_632:\n        /* \"#utility.yul\":8529:8641   */\n    tag_631:\n        /* \"#utility.yul\":8650:8704   */\n      tag_633\n        /* \"#utility.yul\":8697:8703   */\n      dup5\n        /* \"#utility.yul\":8692:8695   */\n      dup3\n        /* \"#utility.yul\":8687:8690   */\n      dup6\n        /* \"#utility.yul\":8650:8704   */\n      tag_478\n      jump\t// in\n    tag_633:\n        /* \"#utility.yul\":8369:8710   */\n      pop\n        /* \"#utility.yul\":8285:8710   */\n      swap4\n      swap3\n      pop\n      pop\n      pop\n      jump\t// out\n        /* \"#utility.yul\":8730:9070   */\n    tag_480:\n        /* \"#utility.yul\":8786:8791   */\n      0x00\n        /* \"#utility.yul\":8835:8838   */\n      dup3\n        /* \"#utility.yul\":8828:8832   */\n      0x1f\n        /* \"#utility.yul\":8820:8826   */\n      dup4\n        /* \"#utility.yul\":8816:8833   */\n      add\n        /* \"#utility.yul\":8812:8839   */\n      slt\n        /* \"#utility.yul\":8802:8924   */\n      tag_635\n      jumpi\n        /* \"#utility.yul\":8843:8922   */\n      tag_636\n      tag_472\n      jump\t// in\n    tag_636:\n        /* \"#utility.yul\":8802:8924   */\n    tag_635:\n        /* \"#utility.yul\":8960:8966   */\n      dup2\n        /* \"#utility.yul\":8947:8967   */\n      calldataload\n        /* \"#utility.yul\":8985:9064   */\n      tag_637\n        /* \"#utility.yul\":9060:9063   */\n      dup5\n        /* \"#utility.yul\":9052:9058   */\n      dup3\n        /* \"#utility.yul\":9045:9049   */\n      0x20\n        /* \"#utility.yul\":9037:9043   */\n      dup7\n        /* \"#utility.yul\":9033:9050   */\n      add\n        /* \"#utility.yul\":8985:9064   */\n      tag_479\n      jump\t// in\n    tag_637:\n        /* \"#utility.yul\":8976:9064   */\n      swap2\n      pop\n        /* \"#utility.yul\":8792:9070   */\n      pop\n        /* \"#utility.yul\":8730:9070   */\n      swap3\n      swap2\n      pop\n      pop\n      jump\t// out\n        /* \"#utility.yul\":9076:9192   */\n    tag_481:\n        /* \"#utility.yul\":9146:9167   */\n      tag_639\n        /* \"#utility.yul\":9161:9166   */\n      dup2\n        /* \"#utility.yul\":9146:9167   */\n      tag_448\n      jump\t// in\n    tag_639:\n        /* \"#utility.yul\":9139:9144   */\n      dup2\n        /* \"#utility.yul\":9136:9168   */\n      eq\n        /* \"#utility.yul\":9126:9186   */\n      tag_640\n      jumpi\n        /* \"#utility.yul\":9182:9183   */\n      0x00\n        /* \"#utility.yul\":9179:9180   */\n      dup1\n        /* \"#utility.yul\":9172:9184   */\n      revert\n        /* \"#utility.yul\":9126:9186   */\n    tag_640:\n        /* \"#utility.yul\":9076:9192   */\n      pop\n      jump\t// out\n        /* \"#utility.yul\":9198:9331   */\n    tag_482:\n        /* \"#utility.yul\":9241:9246   */\n      0x00\n        /* \"#utility.yul\":9279:9285   */\n      dup2\n        /* \"#utility.yul\":9266:9286   */\n      calldataload\n        /* \"#utility.yul\":9257:9286   */\n      swap1\n      pop\n        /* \"#utility.yul\":9295:9325   */\n      tag_642\n        /* \"#utility.yul\":9319:9324   */\n      dup2\n        /* \"#utility.yul\":9295:9325   */\n      tag_481\n      jump\t// in\n    tag_642:\n        /* \"#utility.yul\":9198:9331   */\n      swap3\n      swap2\n      pop\n      pop\n      jump\t// out\n        /* \"#utility.yul\":9337:10306   */\n    tag_70:\n        /* \"#utility.yul\":9445:9451   */\n      0x00\n        /* \"#utility.yul\":9453:9459   */\n      dup1\n        /* \"#utility.yul\":9461:9467   */\n      0x00\n        /* \"#utility.yul\":9469:9475   */\n      dup1\n        /* \"#utility.yul\":9518:9521   */\n      0x80\n        /* \"#utility.yul\":9506:9515   */\n      dup6\n        /* \"#utility.yul\":9497:9504   */\n      dup8\n        /* \"#utility.yul\":9493:9516   */\n      sub\n        /* \"#utility.yul\":9489:9522   */\n      slt\n        /* \"#utility.yul\":9486:9606   */\n      iszero\n      tag_644\n      jumpi\n        /* \"#utility.yul\":9525:9604   */\n      tag_645\n      tag_443\n      jump\t// in\n    tag_645:\n        /* \"#utility.yul\":9486:9606   */\n    tag_644:\n        /* \"#utility.yul\":9645:9646   */\n      0x00\n        /* \"#utility.yul\":9670:9738   */\n      tag_646\n        /* \"#utility.yul\":9730:9737   */\n      dup8\n        /* \"#utility.yul\":9721:9727   */\n      dup3\n        /* \"#utility.yul\":9710:9719   */\n      dup9\n        /* \"#utility.yul\":9706:9728   */\n      add\n        /* \"#utility.yul\":9670:9738   */\n      tag_471\n      jump\t// in\n    tag_646:\n        /* \"#utility.yul\":9660:9738   */\n      swap5\n      pop\n        /* \"#utility.yul\":9616:9748   */\n      pop\n        /* \"#utility.yul\":9787:9789   */\n      0x20\n        /* \"#utility.yul\":9813:9866   */\n      tag_647\n        /* \"#utility.yul\":9858:9865   */\n      dup8\n        /* \"#utility.yul\":9849:9855   */\n      dup3\n        /* \"#utility.yul\":9838:9847   */\n      dup9\n        /* \"#utility.yul\":9834:9856   */\n      add\n        /* \"#utility.yul\":9813:9866   */\n      tag_453\n      jump\t// in\n    tag_647:\n        /* \"#utility.yul\":9803:9866   */\n      swap4\n      pop\n        /* \"#utility.yul\":9758:9876   */\n      pop\n        /* \"#utility.yul\":9943:9945   */\n      0x40\n        /* \"#utility.yul\":9932:9941   */\n      dup6\n        /* \"#utility.yul\":9928:9946   */\n      add\n        /* \"#utility.yul\":9915:9947   */\n      calldataload\n        /* \"#utility.yul\":9974:9992   */\n      0xffffffffffffffff\n        /* \"#utility.yul\":9966:9972   */\n      dup2\n        /* \"#utility.yul\":9963:9993   */\n      gt\n        /* \"#utility.yul\":9960:10077   */\n      iszero\n      tag_648\n      jumpi\n        /* \"#utility.yul\":9996:10075   */\n      tag_649\n      tag_444\n      jump\t// in\n    tag_649:\n        /* \"#utility.yul\":9960:10077   */\n    tag_648:\n        /* \"#utility.yul\":10101:10164   */\n      tag_650\n        /* \"#utility.yul\":10156:10163   */\n      dup8\n        /* \"#utility.yul\":10147:10153   */\n      dup3\n        /* \"#utility.yul\":10136:10145   */\n      dup9\n        /* \"#utility.yul\":10132:10154   */\n      add\n        /* \"#utility.yul\":10101:10164   */\n      tag_480\n      jump\t// in\n    tag_650:\n        /* \"#utility.yul\":10091:10164   */\n      swap3\n      pop\n        /* \"#utility.yul\":9886:10174   */\n      pop\n        /* \"#utility.yul\":10213:10215   */\n      0x60\n        /* \"#utility.yul\":10239:10289   */\n      tag_651\n        /* \"#utility.yul\":10281:10288   */\n      dup8\n        /* \"#utility.yul\":10272:10278   */\n      dup3\n        /* \"#utility.yul\":10261:10270   */\n      dup9\n        /* \"#utility.yul\":10257:10279   */\n      add\n        /* \"#utility.yul\":10239:10289   */\n      tag_482\n      jump\t// in\n    tag_651:\n        /* \"#utility.yul\":10229:10289   */\n      swap2\n      pop\n        /* \"#utility.yul\":10184:10299   */\n      pop\n        /* \"#utility.yul\":9337:10306   */\n      swap3\n      swap6\n      swap2\n      swap5\n      pop\n      swap3\n      pop\n      jump\t// out\n        /* \"#utility.yul\":10312:10786   */\n    tag_74:\n        /* \"#utility.yul\":10380:10386   */\n      0x00\n        /* \"#utility.yul\":10388:10394   */\n      dup1\n        /* \"#utility.yul\":10437:10439   */\n      0x40\n        /* \"#utility.yul\":10425:10434   */\n      dup4\n        /* \"#utility.yul\":10416:10423   */\n      dup6\n        /* \"#utility.yul\":10412:10435   */\n      sub\n        /* \"#utility.yul\":10408:10440   */\n      slt\n        /* \"#utility.yul\":10405:10524   */\n      iszero\n      tag_653\n      jumpi\n        /* \"#utility.yul\":10443:10522   */\n      tag_654\n      tag_443\n      jump\t// in\n    tag_654:\n        /* \"#utility.yul\":10405:10524   */\n    tag_653:\n        /* \"#utility.yul\":10563:10564   */\n      0x00\n        /* \"#utility.yul\":10588:10641   */\n      tag_655\n        /* \"#utility.yul\":10633:10640   */\n      dup6\n        /* \"#utility.yul\":10624:10630   */\n      dup3\n        /* \"#utility.yul\":10613:10622   */\n      dup7\n        /* \"#utility.yul\":10609:10631   */\n      add\n        /* \"#utility.yul\":10588:10641   */\n      tag_453\n      jump\t// in\n    tag_655:\n        /* \"#utility.yul\":10578:10641   */\n      swap3\n      pop\n        /* \"#utility.yul\":10534:10651   */\n      pop\n        /* \"#utility.yul\":10690:10692   */\n      0x20\n        /* \"#utility.yul\":10716:10769   */\n      tag_656\n        /* \"#utility.yul\":10761:10768   */\n      dup6\n        /* \"#utility.yul\":10752:10758   */\n      dup3\n        /* \"#utility.yul\":10741:10750   */\n      dup7\n        /* \"#utility.yul\":10737:10759   */\n      add\n        /* \"#utility.yul\":10716:10769   */\n      tag_453\n      jump\t// in\n    tag_656:\n        /* \"#utility.yul\":10706:10769   */\n      swap2\n      pop\n        /* \"#utility.yul\":10661:10779   */\n      pop\n        /* \"#utility.yul\":10312:10786   */\n      swap3\n      pop\n      swap3\n      swap1\n      pop\n      jump\t// out\n        /* \"#utility.yul\":10792:11041   */\n    tag_483:\n        /* \"#utility.yul\":10867:10871   */\n      0x00\n        /* \"#utility.yul\":10957:10975   */\n      0xffffffffffffffff\n        /* \"#utility.yul\":10949:10955   */\n      dup3\n        /* \"#utility.yul\":10946:10976   */\n      gt\n        /* \"#utility.yul\":10943:10999   */\n      iszero\n      tag_658\n      jumpi\n        /* \"#utility.yul\":10979:10997   */\n      tag_659\n      tag_392\n      jump\t// in\n    tag_659:\n        /* \"#utility.yul\":10943:10999   */\n    tag_658:\n        /* \"#utility.yul\":11029:11033   */\n      0x20\n        /* \"#utility.yul\":11021:11027   */\n      dup3\n        /* \"#utility.yul\":11017:11034   */\n      mul\n        /* \"#utility.yul\":11009:11034   */\n      swap1\n      pop\n        /* \"#utility.yul\":10792:11041   */\n      swap2\n      swap1\n      pop\n      jump\t// out\n        /* \"#utility.yul\":11047:11164   */\n    tag_484:\n        /* \"#utility.yul\":11156:11157   */\n      0x00\n        /* \"#utility.yul\":11153:11154   */\n      dup1\n        /* \"#utility.yul\":11146:11158   */\n      revert\n        /* \"#utility.yul\":11188:11831   */\n    tag_485:\n        /* \"#utility.yul\":11282:11287   */\n      0x00\n        /* \"#utility.yul\":11307:11386   */\n      tag_662\n        /* \"#utility.yul\":11323:11385   */\n      tag_663\n        /* \"#utility.yul\":11378:11384   */\n      dup5\n        /* \"#utility.yul\":11323:11385   */\n      tag_483\n      jump\t// in\n    tag_663:\n        /* \"#utility.yul\":11307:11386   */\n      tag_476\n      jump\t// in\n    tag_662:\n        /* \"#utility.yul\":11298:11386   */\n      swap1\n      pop\n        /* \"#utility.yul\":11406:11411   */\n      dup1\n        /* \"#utility.yul\":11459:11463   */\n      0x20\n        /* \"#utility.yul\":11451:11457   */\n      dup5\n        /* \"#utility.yul\":11447:11464   */\n      mul\n        /* \"#utility.yul\":11439:11445   */\n      dup4\n        /* \"#utility.yul\":11435:11465   */\n      add\n        /* \"#utility.yul\":11488:11491   */\n      dup6\n        /* \"#utility.yul\":11480:11486   */\n      dup2\n        /* \"#utility.yul\":11477:11492   */\n      gt\n        /* \"#utility.yul\":11474:11596   */\n      iszero\n      tag_664\n      jumpi\n        /* \"#utility.yul\":11507:11586   */\n      tag_665\n      tag_484\n      jump\t// in\n    tag_665:\n        /* \"#utility.yul\":11474:11596   */\n    tag_664:\n        /* \"#utility.yul\":11622:11628   */\n      dup4\n        /* \"#utility.yul\":11605:11825   */\n    tag_666:\n        /* \"#utility.yul\":11639:11645   */\n      dup2\n        /* \"#utility.yul\":11634:11637   */\n      dup2\n        /* \"#utility.yul\":11631:11646   */\n      lt\n        /* \"#utility.yul\":11605:11825   */\n      iszero\n      tag_668\n      jumpi\n        /* \"#utility.yul\":11714:11717   */\n      dup1\n        /* \"#utility.yul\":11743:11780   */\n      tag_669\n        /* \"#utility.yul\":11776:11779   */\n      dup9\n        /* \"#utility.yul\":11764:11774   */\n      dup3\n        /* \"#utility.yul\":11743:11780   */\n      tag_468\n      jump\t// in\n    tag_669:\n        /* \"#utility.yul\":11738:11741   */\n      dup5\n        /* \"#utility.yul\":11731:11781   */\n      mstore\n        /* \"#utility.yul\":11810:11814   */\n      0x20\n        /* \"#utility.yul\":11805:11808   */\n      dup5\n        /* \"#utility.yul\":11801:11815   */\n      add\n        /* \"#utility.yul\":11794:11815   */\n      swap4\n      pop\n        /* \"#utility.yul\":11681:11825   */\n      pop\n        /* \"#utility.yul\":11665:11669   */\n      0x20\n        /* \"#utility.yul\":11660:11663   */\n      dup2\n        /* \"#utility.yul\":11656:11670   */\n      add\n        /* \"#utility.yul\":11649:11670   */\n      swap1\n      pop\n        /* \"#utility.yul\":11605:11825   */\n      jump(tag_666)\n    tag_668:\n        /* \"#utility.yul\":11609:11630   */\n      pop\n        /* \"#utility.yul\":11288:11831   */\n      pop\n      pop\n        /* \"#utility.yul\":11188:11831   */\n      swap4\n      swap3\n      pop\n      pop\n      pop\n      jump\t// out\n        /* \"#utility.yul\":11855:12194   */\n    tag_486:\n        /* \"#utility.yul\":11924:11929   */\n      0x00\n        /* \"#utility.yul\":11973:11976   */\n      dup3\n        /* \"#utility.yul\":11966:11970   */\n      0x1f\n        /* \"#utility.yul\":11958:11964   */\n      dup4\n        /* \"#utility.yul\":11954:11971   */\n      add\n        /* \"#utility.yul\":11950:11977   */\n      slt\n        /* \"#utility.yul\":11940:12062   */\n      tag_671\n      jumpi\n        /* \"#utility.yul\":11981:12060   */\n      tag_672\n      tag_472\n      jump\t// in\n    tag_672:\n        /* \"#utility.yul\":11940:12062   */\n    tag_671:\n        /* \"#utility.yul\":12085:12089   */\n      0x03\n        /* \"#utility.yul\":12107:12188   */\n      tag_673\n        /* \"#utility.yul\":12184:12187   */\n      dup5\n        /* \"#utility.yul\":12176:12182   */\n      dup3\n        /* \"#utility.yul\":12168:12174   */\n      dup6\n        /* \"#utility.yul\":12107:12188   */\n      tag_485\n      jump\t// in\n    tag_673:\n        /* \"#utility.yul\":12098:12188   */\n      swap2\n      pop\n        /* \"#utility.yul\":11930:12194   */\n      pop\n        /* \"#utility.yul\":11855:12194   */\n      swap3\n      swap2\n      pop\n      pop\n      jump\t// out\n        /* \"#utility.yul\":12200:12867   */\n    tag_87:\n        /* \"#utility.yul\":12300:12306   */\n      0x00\n        /* \"#utility.yul\":12308:12314   */\n      dup1\n        /* \"#utility.yul\":12316:12322   */\n      0x00\n        /* \"#utility.yul\":12365:12368   */\n      0xa0\n        /* \"#utility.yul\":12353:12362   */\n      dup5\n        /* \"#utility.yul\":12344:12351   */\n      dup7\n        /* \"#utility.yul\":12340:12363   */\n      sub\n        /* \"#utility.yul\":12336:12369   */\n      slt\n        /* \"#utility.yul\":12333:12453   */\n      iszero\n      tag_675\n      jumpi\n        /* \"#utility.yul\":12372:12451   */\n      tag_676\n      tag_443\n      jump\t// in\n    tag_676:\n        /* \"#utility.yul\":12333:12453   */\n    tag_675:\n        /* \"#utility.yul\":12492:12493   */\n      0x00\n        /* \"#utility.yul\":12517:12570   */\n      tag_677\n        /* \"#utility.yul\":12562:12569   */\n      dup7\n        /* \"#utility.yul\":12553:12559   */\n      dup3\n        /* \"#utility.yul\":12542:12551   */\n      dup8\n        /* \"#utility.yul\":12538:12560   */\n      add\n        /* \"#utility.yul\":12517:12570   */\n      tag_468\n      jump\t// in\n    tag_677:\n        /* \"#utility.yul\":12507:12570   */\n      swap4\n      pop\n        /* \"#utility.yul\":12463:12580   */\n      pop\n        /* \"#utility.yul\":12619:12621   */\n      0x20\n        /* \"#utility.yul\":12645:12721   */\n      tag_678\n        /* \"#utility.yul\":12713:12720   */\n      dup7\n        /* \"#utility.yul\":12704:12710   */\n      dup3\n        /* \"#utility.yul\":12693:12702   */\n      dup8\n        /* \"#utility.yul\":12689:12711   */\n      add\n        /* \"#utility.yul\":12645:12721   */\n      tag_486\n      jump\t// in\n    tag_678:\n        /* \"#utility.yul\":12635:12721   */\n      swap3\n      pop\n        /* \"#utility.yul\":12590:12731   */\n      pop\n        /* \"#utility.yul\":12770:12773   */\n      0x80\n        /* \"#utility.yul\":12797:12850   */\n      tag_679\n        /* \"#utility.yul\":12842:12849   */\n      dup7\n        /* \"#utility.yul\":12833:12839   */\n      dup3\n        /* \"#utility.yul\":12822:12831   */\n      dup8\n        /* \"#utility.yul\":12818:12840   */\n      add\n        /* \"#utility.yul\":12797:12850   */\n      tag_453\n      jump\t// in\n    tag_679:\n        /* \"#utility.yul\":12787:12850   */\n      swap2\n      pop\n        /* \"#utility.yul\":12741:12860   */\n      pop\n        /* \"#utility.yul\":12200:12867   */\n      swap3\n      pop\n      swap3\n      pop\n      swap3\n      jump\t// out\n        /* \"#utility.yul\":12873:13347   */\n    tag_96:\n        /* \"#utility.yul\":12941:12947   */\n      0x00\n        /* \"#utility.yul\":12949:12955   */\n      dup1\n        /* \"#utility.yul\":12998:13000   */\n      0x40\n        /* \"#utility.yul\":12986:12995   */\n      dup4\n        /* \"#utility.yul\":12977:12984   */\n      dup6\n        /* \"#utility.yul\":12973:12996   */\n      sub\n        /* \"#utility.yul\":12969:13001   */\n      slt\n        /* \"#utility.yul\":12966:13085   */\n      iszero\n      tag_681\n      jumpi\n        /* \"#utility.yul\":13004:13083   */\n      tag_682\n      tag_443\n      jump\t// in\n    tag_682:\n        /* \"#utility.yul\":12966:13085   */\n    tag_681:\n        /* \"#utility.yul\":13124:13125   */\n      0x00\n        /* \"#utility.yul\":13149:13202   */\n      tag_683\n        /* \"#utility.yul\":13194:13201   */\n      dup6\n        /* \"#utility.yul\":13185:13191   */\n      dup3\n        /* \"#utility.yul\":13174:13183   */\n      dup7\n        /* \"#utility.yul\":13170:13192   */\n      add\n        /* \"#utility.yul\":13149:13202   */\n      tag_453\n      jump\t// in\n    tag_683:\n        /* \"#utility.yul\":13139:13202   */\n      swap3\n      pop\n        /* \"#utility.yul\":13095:13212   */\n      pop\n        /* \"#utility.yul\":13251:13253   */\n      0x20\n        /* \"#utility.yul\":13277:13330   */\n      tag_684\n        /* \"#utility.yul\":13322:13329   */\n      dup6\n        /* \"#utility.yul\":13313:13319   */\n      dup3\n        /* \"#utility.yul\":13302:13311   */\n      dup7\n        /* \"#utility.yul\":13298:13320   */\n      add\n        /* \"#utility.yul\":13277:13330   */\n      tag_468\n      jump\t// in\n    tag_684:\n        /* \"#utility.yul\":13267:13330   */\n      swap2\n      pop\n        /* \"#utility.yul\":13222:13340   */\n      pop\n        /* \"#utility.yul\":12873:13347   */\n      swap3\n      pop\n      swap3\n      swap1\n      pop\n      jump\t// out\n        /* \"#utility.yul\":13353:13685   */\n    tag_107:\n        /* \"#utility.yul\":13474:13478   */\n      0x00\n        /* \"#utility.yul\":13512:13514   */\n      0x40\n        /* \"#utility.yul\":13501:13510   */\n      dup3\n        /* \"#utility.yul\":13497:13515   */\n      add\n        /* \"#utility.yul\":13489:13515   */\n      swap1\n      pop\n        /* \"#utility.yul\":13525:13596   */\n      tag_686\n        /* \"#utility.yul\":13593:13594   */\n      0x00\n        /* \"#utility.yul\":13582:13591   */\n      dup4\n        /* \"#utility.yul\":13578:13595   */\n      add\n        /* \"#utility.yul\":13569:13575   */\n      dup6\n        /* \"#utility.yul\":13525:13596   */\n      tag_451\n      jump\t// in\n    tag_686:\n        /* \"#utility.yul\":13606:13678   */\n      tag_687\n        /* \"#utility.yul\":13674:13676   */\n      0x20\n        /* \"#utility.yul\":13663:13672   */\n      dup4\n        /* \"#utility.yul\":13659:13677   */\n      add\n        /* \"#utility.yul\":13650:13656   */\n      dup5\n        /* \"#utility.yul\":13606:13678   */\n      tag_451\n      jump\t// in\n    tag_687:\n        /* \"#utility.yul\":13353:13685   */\n      swap4\n      swap3\n      pop\n      pop\n      pop\n      jump\t// out\n        /* \"#utility.yul\":13691:14304   */\n    tag_113:\n        /* \"#utility.yul\":13765:13771   */\n      0x00\n        /* \"#utility.yul\":13773:13779   */\n      dup1\n        /* \"#utility.yul\":13781:13787   */\n      0x00\n        /* \"#utility.yul\":13830:13832   */\n      0x60\n        /* \"#utility.yul\":13818:13827   */\n      dup5\n        /* \"#utility.yul\":13809:13816   */\n      dup7\n        /* \"#utility.yul\":13805:13828   */\n      sub\n        /* \"#utility.yul\":13801:13833   */\n      slt\n        /* \"#utility.yul\":13798:13917   */\n      iszero\n      tag_689\n      jumpi\n        /* \"#utility.yul\":13836:13915   */\n      tag_690\n      tag_443\n      jump\t// in\n    tag_690:\n        /* \"#utility.yul\":13798:13917   */\n    tag_689:\n        /* \"#utility.yul\":13956:13957   */\n      0x00\n        /* \"#utility.yul\":13981:14034   */\n      tag_691\n        /* \"#utility.yul\":14026:14033   */\n      dup7\n        /* \"#utility.yul\":14017:14023   */\n      dup3\n        /* \"#utility.yul\":14006:14015   */\n      dup8\n        /* \"#utility.yul\":14002:14024   */\n      add\n        /* \"#utility.yul\":13981:14034   */\n      tag_453\n      jump\t// in\n    tag_691:\n        /* \"#utility.yul\":13971:14034   */\n      swap4\n      pop\n        /* \"#utility.yul\":13927:14044   */\n      pop\n        /* \"#utility.yul\":14083:14085   */\n      0x20\n        /* \"#utility.yul\":14109:14162   */\n      tag_692\n        /* \"#utility.yul\":14154:14161   */\n      dup7\n        /* \"#utility.yul\":14145:14151   */\n      dup3\n        /* \"#utility.yul\":14134:14143   */\n      dup8\n        /* \"#utility.yul\":14130:14152   */\n      add\n        /* \"#utility.yul\":14109:14162   */\n      tag_453\n      jump\t// in\n    tag_692:\n        /* \"#utility.yul\":14099:14162   */\n      swap3\n      pop\n        /* \"#utility.yul\":14054:14172   */\n      pop\n        /* \"#utility.yul\":14211:14213   */\n      0x40\n        /* \"#utility.yul\":14237:14287   */\n      tag_693\n        /* \"#utility.yul\":14279:14286   */\n      dup7\n        /* \"#utility.yul\":14270:14276   */\n      dup3\n        /* \"#utility.yul\":14259:14268   */\n      dup8\n        /* \"#utility.yul\":14255:14277   */\n      add\n        /* \"#utility.yul\":14237:14287   */\n      tag_482\n      jump\t// in\n    tag_693:\n        /* \"#utility.yul\":14227:14287   */\n      swap2\n      pop\n        /* \"#utility.yul\":14182:14297   */\n      pop\n        /* \"#utility.yul\":13691:14304   */\n      swap3\n      pop\n      swap3\n      pop\n      swap3\n      jump\t// out\n        /* \"#utility.yul\":14310:14639   */\n    tag_117:\n        /* \"#utility.yul\":14369:14375   */\n      0x00\n        /* \"#utility.yul\":14418:14420   */\n      0x20\n        /* \"#utility.yul\":14406:14415   */\n      dup3\n        /* \"#utility.yul\":14397:14404   */\n      dup5\n        /* \"#utility.yul\":14393:14416   */\n      sub\n        /* \"#utility.yul\":14389:14421   */\n      slt\n        /* \"#utility.yul\":14386:14505   */\n      iszero\n      tag_695\n      jumpi\n        /* \"#utility.yul\":14424:14503   */\n      tag_696\n      tag_443\n      jump\t// in\n    tag_696:\n        /* \"#utility.yul\":14386:14505   */\n    tag_695:\n        /* \"#utility.yul\":14544:14545   */\n      0x00\n        /* \"#utility.yul\":14569:14622   */\n      tag_697\n        /* \"#utility.yul\":14614:14621   */\n      dup5\n        /* \"#utility.yul\":14605:14611   */\n      dup3\n        /* \"#utility.yul\":14594:14603   */\n      dup6\n        /* \"#utility.yul\":14590:14612   */\n      add\n        /* \"#utility.yul\":14569:14622   */\n      tag_468\n      jump\t// in\n    tag_697:\n        /* \"#utility.yul\":14559:14622   */\n      swap2\n      pop\n        /* \"#utility.yul\":14515:14632   */\n      pop\n        /* \"#utility.yul\":14310:14639   */\n      swap3\n      swap2\n      pop\n      pop\n      jump\t// out\n        /* \"#utility.yul\":14645:14814   */\n    tag_487:\n        /* \"#utility.yul\":14729:14740   */\n      0x00\n        /* \"#utility.yul\":14763:14769   */\n      dup3\n        /* \"#utility.yul\":14758:14761   */\n      dup3\n        /* \"#utility.yul\":14751:14770   */\n      mstore\n        /* \"#utility.yul\":14803:14807   */\n      0x20\n        /* \"#utility.yul\":14798:14801   */\n      dup3\n        /* \"#utility.yul\":14794:14808   */\n      add\n        /* \"#utility.yul\":14779:14808   */\n      swap1\n      pop\n        /* \"#utility.yul\":14645:14814   */\n      swap3\n      swap2\n      pop\n      pop\n      jump\t// out\n        /* \"#utility.yul\":14820:15054   */\n    tag_488:\n        /* \"#utility.yul\":14960:14994   */\n      0x416363657373436f6e74726f6c3a2063616e206f6e6c792072656e6f756e6365\n        /* \"#utility.yul\":14956:14957   */\n      0x00\n        /* \"#utility.yul\":14948:14954   */\n      dup3\n        /* \"#utility.yul\":14944:14958   */\n      add\n        /* \"#utility.yul\":14937:14995   */\n      mstore\n        /* \"#utility.yul\":15029:15046   */\n      0x20726f6c657320666f722073656c660000000000000000000000000000000000\n        /* \"#utility.yul\":15024:15026   */\n      0x20\n        /* \"#utility.yul\":15016:15022   */\n      dup3\n        /* \"#utility.yul\":15012:15027   */\n      add\n        /* \"#utility.yul\":15005:15047   */\n      mstore\n        /* \"#utility.yul\":14820:15054   */\n      pop\n      jump\t// out\n        /* \"#utility.yul\":15060:15426   */\n    tag_489:\n        /* \"#utility.yul\":15202:15205   */\n      0x00\n        /* \"#utility.yul\":15223:15290   */\n      tag_701\n        /* \"#utility.yul\":15287:15289   */\n      0x2f\n        /* \"#utility.yul\":15282:15285   */\n      dup4\n        /* \"#utility.yul\":15223:15290   */\n      tag_487\n      jump\t// in\n    tag_701:\n        /* \"#utility.yul\":15216:15290   */\n      swap2\n      pop\n        /* \"#utility.yul\":15299:15392   */\n      tag_702\n        /* \"#utility.yul\":15388:15391   */\n      dup3\n        /* \"#utility.yul\":15299:15392   */\n      tag_488\n      jump\t// in\n    tag_702:\n        /* \"#utility.yul\":15417:15419   */\n      0x40\n        /* \"#utility.yul\":15412:15415   */\n      dup3\n        /* \"#utility.yul\":15408:15420   */\n      add\n        /* \"#utility.yul\":15401:15420   */\n      swap1\n      pop\n        /* \"#utility.yul\":15060:15426   */\n      swap2\n      swap1\n      pop\n      jump\t// out\n        /* \"#utility.yul\":15432:15851   */\n    tag_149:\n        /* \"#utility.yul\":15598:15602   */\n      0x00\n        /* \"#utility.yul\":15636:15638   */\n      0x20\n        /* \"#utility.yul\":15625:15634   */\n      dup3\n        /* \"#utility.yul\":15621:15639   */\n      add\n        /* \"#utility.yul\":15613:15639   */\n      swap1\n      pop\n        /* \"#utility.yul\":15685:15694   */\n      dup2\n        /* \"#utility.yul\":15679:15683   */\n      dup2\n        /* \"#utility.yul\":15675:15695   */\n      sub\n        /* \"#utility.yul\":15671:15672   */\n      0x00\n        /* \"#utility.yul\":15660:15669   */\n      dup4\n        /* \"#utility.yul\":15656:15673   */\n      add\n        /* \"#utility.yul\":15649:15696   */\n      mstore\n        /* \"#utility.yul\":15713:15844   */\n      tag_704\n        /* \"#utility.yul\":15839:15843   */\n      dup2\n        /* \"#utility.yul\":15713:15844   */\n      tag_489\n      jump\t// in\n    tag_704:\n        /* \"#utility.yul\":15705:15844   */\n      swap1\n      pop\n        /* \"#utility.yul\":15432:15851   */\n      swap2\n      swap1\n      pop\n      jump\t// out\n        /* \"#utility.yul\":15857:16005   */\n    tag_490:\n        /* \"#utility.yul\":15959:15970   */\n      0x00\n        /* \"#utility.yul\":15996:15999   */\n      dup2\n        /* \"#utility.yul\":15981:15999   */\n      swap1\n      pop\n        /* \"#utility.yul\":15857:16005   */\n      swap3\n      swap2\n      pop\n      pop\n      jump\t// out\n        /* \"#utility.yul\":16011:16169   */\n    tag_491:\n        /* \"#utility.yul\":16151:16161   */\n      0x476f7665726e6f72000000000000000000000000000000000000000000000000\n        /* \"#utility.yul\":16147:16148   */\n      0x00\n        /* \"#utility.yul\":16139:16145   */\n      dup3\n        /* \"#utility.yul\":16135:16149   */\n      add\n        /* \"#utility.yul\":16128:16162   */\n      mstore\n        /* \"#utility.yul\":16011:16169   */\n      pop\n      jump\t// out\n        /* \"#utility.yul\":16175:16575   */\n    tag_492:\n        /* \"#utility.yul\":16335:16338   */\n      0x00\n        /* \"#utility.yul\":16356:16440   */\n      tag_708\n        /* \"#utility.yul\":16438:16439   */\n      0x08\n        /* \"#utility.yul\":16433:16436   */\n      dup4\n        /* \"#utility.yul\":16356:16440   */\n      tag_490\n      jump\t// in\n    tag_708:\n        /* \"#utility.yul\":16349:16440   */\n      swap2\n      pop\n        /* \"#utility.yul\":16449:16542   */\n      tag_709\n        /* \"#utility.yul\":16538:16541   */\n      dup3\n        /* \"#utility.yul\":16449:16542   */\n      tag_491\n      jump\t// in\n    tag_709:\n        /* \"#utility.yul\":16567:16568   */\n      0x08\n        /* \"#utility.yul\":16562:16565   */\n      dup3\n        /* \"#utility.yul\":16558:16569   */\n      add\n        /* \"#utility.yul\":16551:16569   */\n      swap1\n      pop\n        /* \"#utility.yul\":16175:16575   */\n      swap2\n      swap1\n      pop\n      jump\t// out\n        /* \"#utility.yul\":16581:16962   */\n    tag_153:\n        /* \"#utility.yul\":16766:16769   */\n      0x00\n        /* \"#utility.yul\":16788:16936   */\n      tag_711\n        /* \"#utility.yul\":16932:16935   */\n      dup3\n        /* \"#utility.yul\":16788:16936   */\n      tag_492\n      jump\t// in\n    tag_711:\n        /* \"#utility.yul\":16781:16936   */\n      swap2\n      pop\n        /* \"#utility.yul\":16953:16956   */\n      dup2\n        /* \"#utility.yul\":16946:16956   */\n      swap1\n      pop\n        /* \"#utility.yul\":16581:16962   */\n      swap2\n      swap1\n      pop\n      jump\t// out\n        /* \"#utility.yul\":16968:17148   */\n    tag_493:\n        /* \"#utility.yul\":17016:17093   */\n      0x4e487b7100000000000000000000000000000000000000000000000000000000\n        /* \"#utility.yul\":17013:17014   */\n      0x00\n        /* \"#utility.yul\":17006:17094   */\n      mstore\n        /* \"#utility.yul\":17113:17117   */\n      0x11\n        /* \"#utility.yul\":17110:17111   */\n      0x04\n        /* \"#utility.yul\":17103:17118   */\n      mstore\n        /* \"#utility.yul\":17137:17141   */\n      0x24\n        /* \"#utility.yul\":17134:17135   */\n      0x00\n        /* \"#utility.yul\":17127:17142   */\n      revert\n        /* \"#utility.yul\":17154:17345   */\n    tag_162:\n        /* \"#utility.yul\":17194:17197   */\n      0x00\n        /* \"#utility.yul\":17213:17233   */\n      tag_714\n        /* \"#utility.yul\":17231:17232   */\n      dup3\n        /* \"#utility.yul\":17213:17233   */\n      tag_450\n      jump\t// in\n    tag_714:\n        /* \"#utility.yul\":17208:17233   */\n      swap2\n      pop\n        /* \"#utility.yul\":17247:17267   */\n      tag_715\n        /* \"#utility.yul\":17265:17266   */\n      dup4\n        /* \"#utility.yul\":17247:17267   */\n      tag_450\n      jump\t// in\n    tag_715:\n        /* \"#utility.yul\":17242:17267   */\n      swap3\n      pop\n        /* \"#utility.yul\":17290:17291   */\n      dup3\n        /* \"#utility.yul\":17287:17288   */\n      dup3\n        /* \"#utility.yul\":17283:17292   */\n      add\n        /* \"#utility.yul\":17276:17292   */\n      swap1\n      pop\n        /* \"#utility.yul\":17311:17314   */\n      dup1\n        /* \"#utility.yul\":17308:17309   */\n      dup3\n        /* \"#utility.yul\":17305:17315   */\n      gt\n        /* \"#utility.yul\":17302:17338   */\n      iszero\n      tag_716\n      jumpi\n        /* \"#utility.yul\":17318:17336   */\n      tag_717\n      tag_493\n      jump\t// in\n    tag_717:\n        /* \"#utility.yul\":17302:17338   */\n    tag_716:\n        /* \"#utility.yul\":17154:17345   */\n      swap3\n      swap2\n      pop\n      pop\n      jump\t// out\n        /* \"#utility.yul\":17351:17531   */\n    tag_168:\n        /* \"#utility.yul\":17399:17476   */\n      0x4e487b7100000000000000000000000000000000000000000000000000000000\n        /* \"#utility.yul\":17396:17397   */\n      0x00\n        /* \"#utility.yul\":17389:17477   */\n      mstore\n        /* \"#utility.yul\":17496:17500   */\n      0x32\n        /* \"#utility.yul\":17493:17494   */\n      0x04\n        /* \"#utility.yul\":17486:17501   */\n      mstore\n        /* \"#utility.yul\":17520:17524   */\n      0x24\n        /* \"#utility.yul\":17517:17518   */\n      0x00\n        /* \"#utility.yul\":17510:17525   */\n      revert\n        /* \"#utility.yul\":17537:17701   */\n    tag_494:\n        /* \"#utility.yul\":17677:17693   */\n      0x4661726d3a206e6f7420676f6f64000000000000000000000000000000000000\n        /* \"#utility.yul\":17673:17674   */\n      0x00\n        /* \"#utility.yul\":17665:17671   */\n      dup3\n        /* \"#utility.yul\":17661:17675   */\n      add\n        /* \"#utility.yul\":17654:17694   */\n      mstore\n        /* \"#utility.yul\":17537:17701   */\n      pop\n      jump\t// out\n        /* \"#utility.yul\":17707:18073   */\n    tag_495:\n        /* \"#utility.yul\":17849:17852   */\n      0x00\n        /* \"#utility.yul\":17870:17937   */\n      tag_721\n        /* \"#utility.yul\":17934:17936   */\n      0x0e\n        /* \"#utility.yul\":17929:17932   */\n      dup4\n        /* \"#utility.yul\":17870:17937   */\n      tag_487\n      jump\t// in\n    tag_721:\n        /* \"#utility.yul\":17863:17937   */\n      swap2\n      pop\n        /* \"#utility.yul\":17946:18039   */\n      tag_722\n        /* \"#utility.yul\":18035:18038   */\n      dup3\n        /* \"#utility.yul\":17946:18039   */\n      tag_494\n      jump\t// in\n    tag_722:\n        /* \"#utility.yul\":18064:18066   */\n      0x20\n        /* \"#utility.yul\":18059:18062   */\n      dup3\n        /* \"#utility.yul\":18055:18067   */\n      add\n        /* \"#utility.yul\":18048:18067   */\n      swap1\n      pop\n        /* \"#utility.yul\":17707:18073   */\n      swap2\n      swap1\n      pop\n      jump\t// out\n        /* \"#utility.yul\":18079:18498   */\n    tag_173:\n        /* \"#utility.yul\":18245:18249   */\n      0x00\n        /* \"#utility.yul\":18283:18285   */\n      0x20\n        /* \"#utility.yul\":18272:18281   */\n      dup3\n        /* \"#utility.yul\":18268:18286   */\n      add\n        /* \"#utility.yul\":18260:18286   */\n      swap1\n      pop\n        /* \"#utility.yul\":18332:18341   */\n      dup2\n        /* \"#utility.yul\":18326:18330   */\n      dup2\n        /* \"#utility.yul\":18322:18342   */\n      sub\n        /* \"#utility.yul\":18318:18319   */\n      0x00\n        /* \"#utility.yul\":18307:18316   */\n      dup4\n        /* \"#utility.yul\":18303:18320   */\n      add\n        /* \"#utility.yul\":18296:18343   */\n      mstore\n        /* \"#utility.yul\":18360:18491   */\n      tag_724\n        /* \"#utility.yul\":18486:18490   */\n      dup2\n        /* \"#utility.yul\":18360:18491   */\n      tag_495\n      jump\t// in\n    tag_724:\n        /* \"#utility.yul\":18352:18491   */\n      swap1\n      pop\n        /* \"#utility.yul\":18079:18498   */\n      swap2\n      swap1\n      pop\n      jump\t// out\n        /* \"#utility.yul\":18504:18914   */\n    tag_176:\n        /* \"#utility.yul\":18544:18551   */\n      0x00\n        /* \"#utility.yul\":18567:18587   */\n      tag_726\n        /* \"#utility.yul\":18585:18586   */\n      dup3\n        /* \"#utility.yul\":18567:18587   */\n      tag_450\n      jump\t// in\n    tag_726:\n        /* \"#utility.yul\":18562:18587   */\n      swap2\n      pop\n        /* \"#utility.yul\":18601:18621   */\n      tag_727\n        /* \"#utility.yul\":18619:18620   */\n      dup4\n        /* \"#utility.yul\":18601:18621   */\n      tag_450\n      jump\t// in\n    tag_727:\n        /* \"#utility.yul\":18596:18621   */\n      swap3\n      pop\n        /* \"#utility.yul\":18656:18657   */\n      dup3\n        /* \"#utility.yul\":18653:18654   */\n      dup3\n        /* \"#utility.yul\":18649:18658   */\n      mul\n        /* \"#utility.yul\":18678:18708   */\n      tag_728\n        /* \"#utility.yul\":18696:18707   */\n      dup2\n        /* \"#utility.yul\":18678:18708   */\n      tag_450\n      jump\t// in\n    tag_728:\n        /* \"#utility.yul\":18667:18708   */\n      swap2\n      pop\n        /* \"#utility.yul\":18857:18858   */\n      dup3\n        /* \"#utility.yul\":18848:18855   */\n      dup3\n        /* \"#utility.yul\":18844:18859   */\n      div\n        /* \"#utility.yul\":18841:18842   */\n      dup5\n        /* \"#utility.yul\":18838:18860   */\n      eq\n        /* \"#utility.yul\":18818:18819   */\n      dup4\n        /* \"#utility.yul\":18811:18820   */\n      iszero\n        /* \"#utility.yul\":18791:18874   */\n      or\n        /* \"#utility.yul\":18768:18907   */\n      tag_729\n      jumpi\n        /* \"#utility.yul\":18887:18905   */\n      tag_730\n      tag_493\n      jump\t// in\n    tag_730:\n        /* \"#utility.yul\":18768:18907   */\n    tag_729:\n        /* \"#utility.yul\":18552:18914   */\n      pop\n        /* \"#utility.yul\":18504:18914   */\n      swap3\n      swap2\n      pop\n      pop\n      jump\t// out\n        /* \"#utility.yul\":18920:19100   */\n    tag_496:\n        /* \"#utility.yul\":18968:19045   */\n      0x4e487b7100000000000000000000000000000000000000000000000000000000\n        /* \"#utility.yul\":18965:18966   */\n      0x00\n        /* \"#utility.yul\":18958:19046   */\n      mstore\n        /* \"#utility.yul\":19065:19069   */\n      0x12\n        /* \"#utility.yul\":19062:19063   */\n      0x04\n        /* \"#utility.yul\":19055:19070   */\n      mstore\n        /* \"#utility.yul\":19089:19093   */\n      0x24\n        /* \"#utility.yul\":19086:19087   */\n      0x00\n        /* \"#utility.yul\":19079:19094   */\n      revert\n        /* \"#utility.yul\":19106:19291   */\n    tag_178:\n        /* \"#utility.yul\":19146:19147   */\n      0x00\n        /* \"#utility.yul\":19163:19183   */\n      tag_733\n        /* \"#utility.yul\":19181:19182   */\n      dup3\n        /* \"#utility.yul\":19163:19183   */\n      tag_450\n      jump\t// in\n    tag_733:\n        /* \"#utility.yul\":19158:19183   */\n      swap2\n      pop\n        /* \"#utility.yul\":19197:19217   */\n      tag_734\n        /* \"#utility.yul\":19215:19216   */\n      dup4\n        /* \"#utility.yul\":19197:19217   */\n      tag_450\n      jump\t// in\n    tag_734:\n        /* \"#utility.yul\":19192:19217   */\n      swap3\n      pop\n        /* \"#utility.yul\":19236:19237   */\n      dup3\n        /* \"#utility.yul\":19226:19261   */\n      tag_735\n      jumpi\n        /* \"#utility.yul\":19241:19259   */\n      tag_736\n      tag_496\n      jump\t// in\n    tag_736:\n        /* \"#utility.yul\":19226:19261   */\n    tag_735:\n        /* \"#utility.yul\":19283:19284   */\n      dup3\n        /* \"#utility.yul\":19280:19281   */\n      dup3\n        /* \"#utility.yul\":19276:19285   */\n      div\n        /* \"#utility.yul\":19271:19285   */\n      swap1\n      pop\n        /* \"#utility.yul\":19106:19291   */\n      swap3\n      swap2\n      pop\n      pop\n      jump\t// out\n        /* \"#utility.yul\":19297:19491   */\n    tag_180:\n        /* \"#utility.yul\":19337:19341   */\n      0x00\n        /* \"#utility.yul\":19357:19377   */\n      tag_738\n        /* \"#utility.yul\":19375:19376   */\n      dup3\n        /* \"#utility.yul\":19357:19377   */\n      tag_450\n      jump\t// in\n    tag_738:\n        /* \"#utility.yul\":19352:19377   */\n      swap2\n      pop\n        /* \"#utility.yul\":19391:19411   */\n      tag_739\n        /* \"#utility.yul\":19409:19410   */\n      dup4\n        /* \"#utility.yul\":19391:19411   */\n      tag_450\n      jump\t// in\n    tag_739:\n        /* \"#utility.yul\":19386:19411   */\n      swap3\n      pop\n        /* \"#utility.yul\":19435:19436   */\n      dup3\n        /* \"#utility.yul\":19432:19433   */\n      dup3\n        /* \"#utility.yul\":19428:19437   */\n      sub\n        /* \"#utility.yul\":19420:19437   */\n      swap1\n      pop\n        /* \"#utility.yul\":19459:19460   */\n      dup2\n        /* \"#utility.yul\":19453:19457   */\n      dup2\n        /* \"#utility.yul\":19450:19461   */\n      gt\n        /* \"#utility.yul\":19447:19484   */\n      iszero\n      tag_740\n      jumpi\n        /* \"#utility.yul\":19464:19482   */\n      tag_741\n      tag_493\n      jump\t// in\n    tag_741:\n        /* \"#utility.yul\":19447:19484   */\n    tag_740:\n        /* \"#utility.yul\":19297:19491   */\n      swap3\n      swap2\n      pop\n      pop\n      jump\t// out\n        /* \"#utility.yul\":19497:19615   */\n    tag_497:\n        /* \"#utility.yul\":19584:19608   */\n      tag_743\n        /* \"#utility.yul\":19602:19607   */\n      dup2\n        /* \"#utility.yul\":19584:19608   */\n      tag_466\n      jump\t// in\n    tag_743:\n        /* \"#utility.yul\":19579:19582   */\n      dup3\n        /* \"#utility.yul\":19572:19609   */\n      mstore\n        /* \"#utility.yul\":19497:19615   */\n      pop\n      pop\n      jump\t// out\n        /* \"#utility.yul\":19621:19953   */\n    tag_184:\n        /* \"#utility.yul\":19742:19746   */\n      0x00\n        /* \"#utility.yul\":19780:19782   */\n      0x40\n        /* \"#utility.yul\":19769:19778   */\n      dup3\n        /* \"#utility.yul\":19765:19783   */\n      add\n        /* \"#utility.yul\":19757:19783   */\n      swap1\n      pop\n        /* \"#utility.yul\":19793:19864   */\n      tag_745\n        /* \"#utility.yul\":19861:19862   */\n      0x00\n        /* \"#utility.yul\":19850:19859   */\n      dup4\n        /* \"#utility.yul\":19846:19863   */\n      add\n        /* \"#utility.yul\":19837:19843   */\n      dup6\n        /* \"#utility.yul\":19793:19864   */\n      tag_497\n      jump\t// in\n    tag_745:\n        /* \"#utility.yul\":19874:19946   */\n      tag_746\n        /* \"#utility.yul\":19942:19944   */\n      0x20\n        /* \"#utility.yul\":19931:19940   */\n      dup4\n        /* \"#utility.yul\":19927:19945   */\n      add\n        /* \"#utility.yul\":19918:19924   */\n      dup5\n        /* \"#utility.yul\":19874:19946   */\n      tag_451\n      jump\t// in\n    tag_746:\n        /* \"#utility.yul\":19621:19953   */\n      swap4\n      swap3\n      pop\n      pop\n      pop\n      jump\t// out\n        /* \"#utility.yul\":19959:20096   */\n    tag_498:\n        /* \"#utility.yul\":20013:20018   */\n      0x00\n        /* \"#utility.yul\":20044:20050   */\n      dup2\n        /* \"#utility.yul\":20038:20051   */\n      mload\n        /* \"#utility.yul\":20029:20051   */\n      swap1\n      pop\n        /* \"#utility.yul\":20060:20090   */\n      tag_748\n        /* \"#utility.yul\":20084:20089   */\n      dup2\n        /* \"#utility.yul\":20060:20090   */\n      tag_481\n      jump\t// in\n    tag_748:\n        /* \"#utility.yul\":19959:20096   */\n      swap3\n      swap2\n      pop\n      pop\n      jump\t// out\n        /* \"#utility.yul\":20102:20447   */\n    tag_188:\n        /* \"#utility.yul\":20169:20175   */\n      0x00\n        /* \"#utility.yul\":20218:20220   */\n      0x20\n        /* \"#utility.yul\":20206:20215   */\n      dup3\n        /* \"#utility.yul\":20197:20204   */\n      dup5\n        /* \"#utility.yul\":20193:20216   */\n      sub\n        /* \"#utility.yul\":20189:20221   */\n      slt\n        /* \"#utility.yul\":20186:20305   */\n      iszero\n      tag_750\n      jumpi\n        /* \"#utility.yul\":20224:20303   */\n      tag_751\n      tag_443\n      jump\t// in\n    tag_751:\n        /* \"#utility.yul\":20186:20305   */\n    tag_750:\n        /* \"#utility.yul\":20344:20345   */\n      0x00\n        /* \"#utility.yul\":20369:20430   */\n      tag_752\n        /* \"#utility.yul\":20422:20429   */\n      dup5\n        /* \"#utility.yul\":20413:20419   */\n      dup3\n        /* \"#utility.yul\":20402:20411   */\n      dup6\n        /* \"#utility.yul\":20398:20420   */\n      add\n        /* \"#utility.yul\":20369:20430   */\n      tag_498\n      jump\t// in\n    tag_752:\n        /* \"#utility.yul\":20359:20430   */\n      swap2\n      pop\n        /* \"#utility.yul\":20315:20440   */\n      pop\n        /* \"#utility.yul\":20102:20447   */\n      swap3\n      swap2\n      pop\n      pop\n      jump\t// out\n        /* \"#utility.yul\":20453:20675   */\n    tag_204:\n        /* \"#utility.yul\":20546:20550   */\n      0x00\n        /* \"#utility.yul\":20584:20586   */\n      0x20\n        /* \"#utility.yul\":20573:20582   */\n      dup3\n        /* \"#utility.yul\":20569:20587   */\n      add\n        /* \"#utility.yul\":20561:20587   */\n      swap1\n      pop\n        /* \"#utility.yul\":20597:20668   */\n      tag_754\n        /* \"#utility.yul\":20665:20666   */\n      0x00\n        /* \"#utility.yul\":20654:20663   */\n      dup4\n        /* \"#utility.yul\":20650:20667   */\n      add\n        /* \"#utility.yul\":20641:20647   */\n      dup5\n        /* \"#utility.yul\":20597:20668   */\n      tag_497\n      jump\t// in\n    tag_754:\n        /* \"#utility.yul\":20453:20675   */\n      swap3\n      swap2\n      pop\n      pop\n      jump\t// out\n        /* \"#utility.yul\":20681:20824   */\n    tag_499:\n        /* \"#utility.yul\":20738:20743   */\n      0x00\n        /* \"#utility.yul\":20769:20775   */\n      dup2\n        /* \"#utility.yul\":20763:20776   */\n      mload\n        /* \"#utility.yul\":20754:20776   */\n      swap1\n      pop\n        /* \"#utility.yul\":20785:20818   */\n      tag_756\n        /* \"#utility.yul\":20812:20817   */\n      dup2\n        /* \"#utility.yul\":20785:20818   */\n      tag_452\n      jump\t// in\n    tag_756:\n        /* \"#utility.yul\":20681:20824   */\n      swap3\n      swap2\n      pop\n      pop\n      jump\t// out\n        /* \"#utility.yul\":20830:21181   */\n    tag_208:\n        /* \"#utility.yul\":20900:20906   */\n      0x00\n        /* \"#utility.yul\":20949:20951   */\n      0x20\n        /* \"#utility.yul\":20937:20946   */\n      dup3\n        /* \"#utility.yul\":20928:20935   */\n      dup5\n        /* \"#utility.yul\":20924:20947   */\n      sub\n        /* \"#utility.yul\":20920:20952   */\n      slt\n        /* \"#utility.yul\":20917:21036   */\n      iszero\n      tag_758\n      jumpi\n        /* \"#utility.yul\":20955:21034   */\n      tag_759\n      tag_443\n      jump\t// in\n    tag_759:\n        /* \"#utility.yul\":20917:21036   */\n    tag_758:\n        /* \"#utility.yul\":21075:21076   */\n      0x00\n        /* \"#utility.yul\":21100:21164   */\n      tag_760\n        /* \"#utility.yul\":21156:21163   */\n      dup5\n        /* \"#utility.yul\":21147:21153   */\n      dup3\n        /* \"#utility.yul\":21136:21145   */\n      dup6\n        /* \"#utility.yul\":21132:21154   */\n      add\n        /* \"#utility.yul\":21100:21164   */\n      tag_499\n      jump\t// in\n    tag_760:\n        /* \"#utility.yul\":21090:21164   */\n      swap2\n      pop\n        /* \"#utility.yul\":21046:21174   */\n      pop\n        /* \"#utility.yul\":20830:21181   */\n      swap3\n      swap2\n      pop\n      pop\n      jump\t// out\n        /* \"#utility.yul\":21187:21409   */\n    tag_500:\n        /* \"#utility.yul\":21327:21361   */\n      0x4661726d3a2063616c6c6572206973206e6f742074686520696e697469616c69\n        /* \"#utility.yul\":21323:21324   */\n      0x00\n        /* \"#utility.yul\":21315:21321   */\n      dup3\n        /* \"#utility.yul\":21311:21325   */\n      add\n        /* \"#utility.yul\":21304:21362   */\n      mstore\n        /* \"#utility.yul\":21396:21401   */\n      0x7a65720000000000000000000000000000000000000000000000000000000000\n        /* \"#utility.yul\":21391:21393   */\n      0x20\n        /* \"#utility.yul\":21383:21389   */\n      dup3\n        /* \"#utility.yul\":21379:21394   */\n      add\n        /* \"#utility.yul\":21372:21402   */\n      mstore\n        /* \"#utility.yul\":21187:21409   */\n      pop\n      jump\t// out\n        /* \"#utility.yul\":21415:21781   */\n    tag_501:\n        /* \"#utility.yul\":21557:21560   */\n      0x00\n        /* \"#utility.yul\":21578:21645   */\n      tag_763\n        /* \"#utility.yul\":21642:21644   */\n      0x23\n        /* \"#utility.yul\":21637:21640   */\n      dup4\n        /* \"#utility.yul\":21578:21645   */\n      tag_487\n      jump\t// in\n    tag_763:\n        /* \"#utility.yul\":21571:21645   */\n      swap2\n      pop\n        /* \"#utility.yul\":21654:21747   */\n      tag_764\n        /* \"#utility.yul\":21743:21746   */\n      dup3\n        /* \"#utility.yul\":21654:21747   */\n      tag_500\n      jump\t// in\n    tag_764:\n        /* \"#utility.yul\":21772:21774   */\n      0x40\n        /* \"#utility.yul\":21767:21770   */\n      dup3\n        /* \"#utility.yul\":21763:21775   */\n      add\n        /* \"#utility.yul\":21756:21775   */\n      swap1\n      pop\n        /* \"#utility.yul\":21415:21781   */\n      swap2\n      swap1\n      pop\n      jump\t// out\n        /* \"#utility.yul\":21787:22206   */\n    tag_230:\n        /* \"#utility.yul\":21953:21957   */\n      0x00\n        /* \"#utility.yul\":21991:21993   */\n      0x20\n        /* \"#utility.yul\":21980:21989   */\n      dup3\n        /* \"#utility.yul\":21976:21994   */\n      add\n        /* \"#utility.yul\":21968:21994   */\n      swap1\n      pop\n        /* \"#utility.yul\":22040:22049   */\n      dup2\n        /* \"#utility.yul\":22034:22038   */\n      dup2\n        /* \"#utility.yul\":22030:22050   */\n      sub\n        /* \"#utility.yul\":22026:22027   */\n      0x00\n        /* \"#utility.yul\":22015:22024   */\n      dup4\n        /* \"#utility.yul\":22011:22028   */\n      add\n        /* \"#utility.yul\":22004:22051   */\n      mstore\n        /* \"#utility.yul\":22068:22199   */\n      tag_766\n        /* \"#utility.yul\":22194:22198   */\n      dup2\n        /* \"#utility.yul\":22068:22199   */\n      tag_501\n      jump\t// in\n    tag_766:\n        /* \"#utility.yul\":22060:22199   */\n      swap1\n      pop\n        /* \"#utility.yul\":21787:22206   */\n      swap2\n      swap1\n      pop\n      jump\t// out\n        /* \"#utility.yul\":22212:22388   */\n    tag_502:\n        /* \"#utility.yul\":22352:22380   */\n      0x4661726d3a20696e76616c696420485947542061646472657373000000000000\n        /* \"#utility.yul\":22348:22349   */\n      0x00\n        /* \"#utility.yul\":22340:22346   */\n      dup3\n        /* \"#utility.yul\":22336:22350   */\n      add\n        /* \"#utility.yul\":22329:22381   */\n      mstore\n        /* \"#utility.yul\":22212:22388   */\n      pop\n      jump\t// out\n        /* \"#utility.yul\":22394:22760   */\n    tag_503:\n        /* \"#utility.yul\":22536:22539   */\n      0x00\n        /* \"#utility.yul\":22557:22624   */\n      tag_769\n        /* \"#utility.yul\":22621:22623   */\n      0x1a\n        /* \"#utility.yul\":22616:22619   */\n      dup4\n        /* \"#utility.yul\":22557:22624   */\n      tag_487\n      jump\t// in\n    tag_769:\n        /* \"#utility.yul\":22550:22624   */\n      swap2\n      pop\n        /* \"#utility.yul\":22633:22726   */\n      tag_770\n        /* \"#utility.yul\":22722:22725   */\n      dup3\n        /* \"#utility.yul\":22633:22726   */\n      tag_502\n      jump\t// in\n    tag_770:\n        /* \"#utility.yul\":22751:22753   */\n      0x20\n        /* \"#utility.yul\":22746:22749   */\n      dup3\n        /* \"#utility.yul\":22742:22754   */\n      add\n        /* \"#utility.yul\":22735:22754   */\n      swap1\n      pop\n        /* \"#utility.yul\":22394:22760   */\n      swap2\n      swap1\n      pop\n      jump\t// out\n        /* \"#utility.yul\":22766:23185   */\n    tag_233:\n        /* \"#utility.yul\":22932:22936   */\n      0x00\n        /* \"#utility.yul\":22970:22972   */\n      0x20\n        /* \"#utility.yul\":22959:22968   */\n      dup3\n        /* \"#utility.yul\":22955:22973   */\n      add\n        /* \"#utility.yul\":22947:22973   */\n      swap1\n      pop\n        /* \"#utility.yul\":23019:23028   */\n      dup2\n        /* \"#utility.yul\":23013:23017   */\n      dup2\n        /* \"#utility.yul\":23009:23029   */\n      sub\n        /* \"#utility.yul\":23005:23006   */\n      0x00\n        /* \"#utility.yul\":22994:23003   */\n      dup4\n        /* \"#utility.yul\":22990:23007   */\n      add\n        /* \"#utility.yul\":22983:23030   */\n      mstore\n        /* \"#utility.yul\":23047:23178   */\n      tag_772\n        /* \"#utility.yul\":23173:23177   */\n      dup2\n        /* \"#utility.yul\":23047:23178   */\n      tag_503\n      jump\t// in\n    tag_772:\n        /* \"#utility.yul\":23039:23178   */\n      swap1\n      pop\n        /* \"#utility.yul\":22766:23185   */\n      swap2\n      swap1\n      pop\n      jump\t// out\n        /* \"#utility.yul\":23191:23424   */\n    tag_259:\n        /* \"#utility.yul\":23230:23233   */\n      0x00\n        /* \"#utility.yul\":23253:23277   */\n      tag_774\n        /* \"#utility.yul\":23271:23276   */\n      dup3\n        /* \"#utility.yul\":23253:23277   */\n      tag_450\n      jump\t// in\n    tag_774:\n        /* \"#utility.yul\":23244:23277   */\n      swap2\n      pop\n        /* \"#utility.yul\":23299:23365   */\n      0xffffffffffffffffffffffffffffffffffffffffffffffffffffffffffffffff\n        /* \"#utility.yul\":23292:23297   */\n      dup3\n        /* \"#utility.yul\":23289:23366   */\n      sub\n        /* \"#utility.yul\":23286:23389   */\n      tag_775\n      jumpi\n        /* \"#utility.yul\":23369:23387   */\n      tag_776\n      tag_493\n      jump\t// in\n    tag_776:\n        /* \"#utility.yul\":23286:23389   */\n    tag_775:\n        /* \"#utility.yul\":23416:23417   */\n      0x01\n        /* \"#utility.yul\":23409:23414   */\n      dup3\n        /* \"#utility.yul\":23405:23418   */\n      add\n        /* \"#utility.yul\":23398:23418   */\n      swap1\n      pop\n        /* \"#utility.yul\":23191:23424   */\n      swap2\n      swap1\n      pop\n      jump\t// out\n        /* \"#utility.yul\":23430:23529   */\n    tag_504:\n        /* \"#utility.yul\":23482:23488   */\n      0x00\n        /* \"#utility.yul\":23516:23521   */\n      dup2\n        /* \"#utility.yul\":23510:23522   */\n      mload\n        /* \"#utility.yul\":23500:23522   */\n      swap1\n      pop\n        /* \"#utility.yul\":23430:23529   */\n      swap2\n      swap1\n      pop\n      jump\t// out\n        /* \"#utility.yul\":23535:23781   */\n    tag_505:\n        /* \"#utility.yul\":23616:23617   */\n      0x00\n        /* \"#utility.yul\":23626:23739   */\n    tag_779:\n        /* \"#utility.yul\":23640:23646   */\n      dup4\n        /* \"#utility.yul\":23637:23638   */\n      dup2\n        /* \"#utility.yul\":23634:23647   */\n      lt\n        /* \"#utility.yul\":23626:23739   */\n      iszero\n      tag_781\n      jumpi\n        /* \"#utility.yul\":23725:23726   */\n      dup1\n        /* \"#utility.yul\":23720:23723   */\n      dup3\n        /* \"#utility.yul\":23716:23727   */\n      add\n        /* \"#utility.yul\":23710:23728   */\n      mload\n        /* \"#utility.yul\":23706:23707   */\n      dup2\n        /* \"#utility.yul\":23701:23704   */\n      dup5\n        /* \"#utility.yul\":23697:23708   */\n      add\n        /* \"#utility.yul\":23690:23729   */\n      mstore\n        /* \"#utility.yul\":23662:23664   */\n      0x20\n        /* \"#utility.yul\":23659:23660   */\n      dup2\n        /* \"#utility.yul\":23655:23665   */\n      add\n        /* \"#utility.yul\":23650:23665   */\n      swap1\n      pop\n        /* \"#utility.yul\":23626:23739   */\n      jump(tag_779)\n    tag_781:\n        /* \"#utility.yul\":23773:23774   */\n      0x00\n        /* \"#utility.yul\":23764:23770   */\n      dup5\n        /* \"#utility.yul\":23759:23762   */\n      dup5\n        /* \"#utility.yul\":23755:23771   */\n      add\n        /* \"#utility.yul\":23748:23775   */\n      mstore\n        /* \"#utility.yul\":23597:23781   */\n      pop\n        /* \"#utility.yul\":23535:23781   */\n      pop\n      pop\n      pop\n      jump\t// out\n        /* \"#utility.yul\":23787:24164   */\n    tag_506:\n        /* \"#utility.yul\":23875:23878   */\n      0x00\n        /* \"#utility.yul\":23903:23942   */\n      tag_783\n        /* \"#utility.yul\":23936:23941   */\n      dup3\n        /* \"#utility.yul\":23903:23942   */\n      tag_504\n      jump\t// in\n    tag_783:\n        /* \"#utility.yul\":23958:24029   */\n      tag_784\n        /* \"#utility.yul\":24022:24028   */\n      dup2\n        /* \"#utility.yul\":24017:24020   */\n      dup6\n        /* \"#utility.yul\":23958:24029   */\n      tag_487\n      jump\t// in\n    tag_784:\n        /* \"#utility.yul\":23951:24029   */\n      swap4\n      pop\n        /* \"#utility.yul\":24038:24103   */\n      tag_785\n        /* \"#utility.yul\":24096:24102   */\n      dup2\n        /* \"#utility.yul\":24091:24094   */\n      dup6\n        /* \"#utility.yul\":24084:24088   */\n      0x20\n        /* \"#utility.yul\":24077:24082   */\n      dup7\n        /* \"#utility.yul\":24073:24089   */\n      add\n        /* \"#utility.yul\":24038:24103   */\n      tag_505\n      jump\t// in\n    tag_785:\n        /* \"#utility.yul\":24128:24157   */\n      tag_786\n        /* \"#utility.yul\":24150:24156   */\n      dup2\n        /* \"#utility.yul\":24128:24157   */\n      tag_474\n      jump\t// in\n    tag_786:\n        /* \"#utility.yul\":24123:24126   */\n      dup5\n        /* \"#utility.yul\":24119:24158   */\n      add\n        /* \"#utility.yul\":24112:24158   */\n      swap2\n      pop\n        /* \"#utility.yul\":23879:24164   */\n      pop\n        /* \"#utility.yul\":23787:24164   */\n      swap3\n      swap2\n      pop\n      pop\n      jump\t// out\n        /* \"#utility.yul\":24170:24703   */\n    tag_357:\n        /* \"#utility.yul\":24339:24343   */\n      0x00\n        /* \"#utility.yul\":24377:24379   */\n      0x60\n        /* \"#utility.yul\":24366:24375   */\n      dup3\n        /* \"#utility.yul\":24362:24380   */\n      add\n        /* \"#utility.yul\":24354:24380   */\n      swap1\n      pop\n        /* \"#utility.yul\":24390:24461   */\n      tag_788\n        /* \"#utility.yul\":24458:24459   */\n      0x00\n        /* \"#utility.yul\":24447:24456   */\n      dup4\n        /* \"#utility.yul\":24443:24460   */\n      add\n        /* \"#utility.yul\":24434:24440   */\n      dup7\n        /* \"#utility.yul\":24390:24461   */\n      tag_497\n      jump\t// in\n    tag_788:\n        /* \"#utility.yul\":24508:24517   */\n      dup2\n        /* \"#utility.yul\":24502:24506   */\n      dup2\n        /* \"#utility.yul\":24498:24518   */\n      sub\n        /* \"#utility.yul\":24493:24495   */\n      0x20\n        /* \"#utility.yul\":24482:24491   */\n      dup4\n        /* \"#utility.yul\":24478:24496   */\n      add\n        /* \"#utility.yul\":24471:24519   */\n      mstore\n        /* \"#utility.yul\":24536:24614   */\n      tag_789\n        /* \"#utility.yul\":24609:24613   */\n      dup2\n        /* \"#utility.yul\":24600:24606   */\n      dup6\n        /* \"#utility.yul\":24536:24614   */\n      tag_506\n      jump\t// in\n    tag_789:\n        /* \"#utility.yul\":24528:24614   */\n      swap1\n      pop\n        /* \"#utility.yul\":24624:24696   */\n      tag_790\n        /* \"#utility.yul\":24692:24694   */\n      0x40\n        /* \"#utility.yul\":24681:24690   */\n      dup4\n        /* \"#utility.yul\":24677:24695   */\n      add\n        /* \"#utility.yul\":24668:24674   */\n      dup5\n        /* \"#utility.yul\":24624:24696   */\n      tag_451\n      jump\t// in\n    tag_790:\n        /* \"#utility.yul\":24170:24703   */\n      swap5\n      swap4\n      pop\n      pop\n      pop\n      pop\n      jump\t// out\n        /* \"#utility.yul\":24709:25151   */\n    tag_365:\n        /* \"#utility.yul\":24858:24862   */\n      0x00\n        /* \"#utility.yul\":24896:24898   */\n      0x60\n        /* \"#utility.yul\":24885:24894   */\n      dup3\n        /* \"#utility.yul\":24881:24899   */\n      add\n        /* \"#utility.yul\":24873:24899   */\n      swap1\n      pop\n        /* \"#utility.yul\":24909:24980   */\n      tag_792\n        /* \"#utility.yul\":24977:24978   */\n      0x00\n        /* \"#utility.yul\":24966:24975   */\n      dup4\n        /* \"#utility.yul\":24962:24979   */\n      add\n        /* \"#utility.yul\":24953:24959   */\n      dup7\n        /* \"#utility.yul\":24909:24980   */\n      tag_497\n      jump\t// in\n    tag_792:\n        /* \"#utility.yul\":24990:25062   */\n      tag_793\n        /* \"#utility.yul\":25058:25060   */\n      0x20\n        /* \"#utility.yul\":25047:25056   */\n      dup4\n        /* \"#utility.yul\":25043:25061   */\n      add\n        /* \"#utility.yul\":25034:25040   */\n      dup6\n        /* \"#utility.yul\":24990:25062   */\n      tag_497\n      jump\t// in\n    tag_793:\n        /* \"#utility.yul\":25072:25144   */\n      tag_794\n        /* \"#utility.yul\":25140:25142   */\n      0x40\n        /* \"#utility.yul\":25129:25138   */\n      dup4\n        /* \"#utility.yul\":25125:25143   */\n      add\n        /* \"#utility.yul\":25116:25122   */\n      dup5\n        /* \"#utility.yul\":25072:25144   */\n      tag_451\n      jump\t// in\n    tag_794:\n        /* \"#utility.yul\":24709:25151   */\n      swap5\n      swap4\n      pop\n      pop\n      pop\n      pop\n      jump\t// out\n        /* \"#utility.yul\":25157:25330   */\n    tag_507:\n        /* \"#utility.yul\":25297:25322   */\n      0x416363657373436f6e74726f6c3a206163636f756e7420000000000000000000\n        /* \"#utility.yul\":25293:25294   */\n      0x00\n        /* \"#utility.yul\":25285:25291   */\n      dup3\n        /* \"#utility.yul\":25281:25295   */\n      add\n        /* \"#utility.yul\":25274:25323   */\n      mstore\n        /* \"#utility.yul\":25157:25330   */\n      pop\n      jump\t// out\n        /* \"#utility.yul\":25336:25738   */\n    tag_508:\n        /* \"#utility.yul\":25496:25499   */\n      0x00\n        /* \"#utility.yul\":25517:25602   */\n      tag_797\n        /* \"#utility.yul\":25599:25601   */\n      0x17\n        /* \"#utility.yul\":25594:25597   */\n      dup4\n        /* \"#utility.yul\":25517:25602   */\n      tag_490\n      jump\t// in\n    tag_797:\n        /* \"#utility.yul\":25510:25602   */\n      swap2\n      pop\n        /* \"#utility.yul\":25611:25704   */\n      tag_798\n        /* \"#utility.yul\":25700:25703   */\n      dup3\n        /* \"#utility.yul\":25611:25704   */\n      tag_507\n      jump\t// in\n    tag_798:\n        /* \"#utility.yul\":25729:25731   */\n      0x17\n        /* \"#utility.yul\":25724:25727   */\n      dup3\n        /* \"#utility.yul\":25720:25732   */\n      add\n        /* \"#utility.yul\":25713:25732   */\n      swap1\n      pop\n        /* \"#utility.yul\":25336:25738   */\n      swap2\n      swap1\n      pop\n      jump\t// out\n        /* \"#utility.yul\":25744:26134   */\n    tag_509:\n        /* \"#utility.yul\":25850:25853   */\n      0x00\n        /* \"#utility.yul\":25878:25917   */\n      tag_800\n        /* \"#utility.yul\":25911:25916   */\n      dup3\n        /* \"#utility.yul\":25878:25917   */\n      tag_504\n      jump\t// in\n    tag_800:\n        /* \"#utility.yul\":25933:26022   */\n      tag_801\n        /* \"#utility.yul\":26015:26021   */\n      dup2\n        /* \"#utility.yul\":26010:26013   */\n      dup6\n        /* \"#utility.yul\":25933:26022   */\n      tag_490\n      jump\t// in\n    tag_801:\n        /* \"#utility.yul\":25926:26022   */\n      swap4\n      pop\n        /* \"#utility.yul\":26031:26096   */\n      tag_802\n        /* \"#utility.yul\":26089:26095   */\n      dup2\n        /* \"#utility.yul\":26084:26087   */\n      dup6\n        /* \"#utility.yul\":26077:26081   */\n      0x20\n        /* \"#utility.yul\":26070:26075   */\n      dup7\n        /* \"#utility.yul\":26066:26082   */\n      add\n        /* \"#utility.yul\":26031:26096   */\n      tag_505\n      jump\t// in\n    tag_802:\n        /* \"#utility.yul\":26121:26127   */\n      dup1\n        /* \"#utility.yul\":26116:26119   */\n      dup5\n        /* \"#utility.yul\":26112:26128   */\n      add\n        /* \"#utility.yul\":26105:26128   */\n      swap2\n      pop\n        /* \"#utility.yul\":25854:26134   */\n      pop\n        /* \"#utility.yul\":25744:26134   */\n      swap3\n      swap2\n      pop\n      pop\n      jump\t// out\n        /* \"#utility.yul\":26140:26307   */\n    tag_510:\n        /* \"#utility.yul\":26280:26299   */\n      0x206973206d697373696e6720726f6c6520000000000000000000000000000000\n        /* \"#utility.yul\":26276:26277   */\n      0x00\n        /* \"#utility.yul\":26268:26274   */\n      dup3\n        /* \"#utility.yul\":26264:26278   */\n      add\n        /* \"#utility.yul\":26257:26300   */\n      mstore\n        /* \"#utility.yul\":26140:26307   */\n      pop\n      jump\t// out\n        /* \"#utility.yul\":26313:26715   */\n    tag_511:\n        /* \"#utility.yul\":26473:26476   */\n      0x00\n        /* \"#utility.yul\":26494:26579   */\n      tag_805\n        /* \"#utility.yul\":26576:26578   */\n      0x11\n        /* \"#utility.yul\":26571:26574   */\n      dup4\n        /* \"#utility.yul\":26494:26579   */\n      tag_490\n      jump\t// in\n    tag_805:\n        /* \"#utility.yul\":26487:26579   */\n      swap2\n      pop\n        /* \"#utility.yul\":26588:26681   */\n      tag_806\n        /* \"#utility.yul\":26677:26680   */\n      dup3\n        /* \"#utility.yul\":26588:26681   */\n      tag_510\n      jump\t// in\n    tag_806:\n        /* \"#utility.yul\":26706:26708   */\n      0x11\n        /* \"#utility.yul\":26701:26704   */\n      dup3\n        /* \"#utility.yul\":26697:26709   */\n      add\n        /* \"#utility.yul\":26690:26709   */\n      swap1\n      pop\n        /* \"#utility.yul\":26313:26715   */\n      swap2\n      swap1\n      pop\n      jump\t// out\n        /* \"#utility.yul\":26721:27688   */\n    tag_374:\n        /* \"#utility.yul\":27103:27106   */\n      0x00\n        /* \"#utility.yul\":27125:27273   */\n      tag_808\n        /* \"#utility.yul\":27269:27272   */\n      dup3\n        /* \"#utility.yul\":27125:27273   */\n      tag_508\n      jump\t// in\n    tag_808:\n        /* \"#utility.yul\":27118:27273   */\n      swap2\n      pop\n        /* \"#utility.yul\":27290:27385   */\n      tag_809\n        /* \"#utility.yul\":27381:27384   */\n      dup3\n        /* \"#utility.yul\":27372:27378   */\n      dup6\n        /* \"#utility.yul\":27290:27385   */\n      tag_509\n      jump\t// in\n    tag_809:\n        /* \"#utility.yul\":27283:27385   */\n      swap2\n      pop\n        /* \"#utility.yul\":27402:27550   */\n      tag_810\n        /* \"#utility.yul\":27546:27549   */\n      dup3\n        /* \"#utility.yul\":27402:27550   */\n      tag_511\n      jump\t// in\n    tag_810:\n        /* \"#utility.yul\":27395:27550   */\n      swap2\n      pop\n        /* \"#utility.yul\":27567:27662   */\n      tag_811\n        /* \"#utility.yul\":27658:27661   */\n      dup3\n        /* \"#utility.yul\":27649:27655   */\n      dup5\n        /* \"#utility.yul\":27567:27662   */\n      tag_509\n      jump\t// in\n    tag_811:\n        /* \"#utility.yul\":27560:27662   */\n      swap2\n      pop\n        /* \"#utility.yul\":27679:27682   */\n      dup2\n        /* \"#utility.yul\":27672:27682   */\n      swap1\n      pop\n        /* \"#utility.yul\":26721:27688   */\n      swap4\n      swap3\n      pop\n      pop\n      pop\n      jump\t// out\n        /* \"#utility.yul\":27694:28007   */\n    tag_376:\n        /* \"#utility.yul\":27807:27811   */\n      0x00\n        /* \"#utility.yul\":27845:27847   */\n      0x20\n        /* \"#utility.yul\":27834:27843   */\n      dup3\n        /* \"#utility.yul\":27830:27848   */\n      add\n        /* \"#utility.yul\":27822:27848   */\n      swap1\n      pop\n        /* \"#utility.yul\":27894:27903   */\n      dup2\n        /* \"#utility.yul\":27888:27892   */\n      dup2\n        /* \"#utility.yul\":27884:27904   */\n      sub\n        /* \"#utility.yul\":27880:27881   */\n      0x00\n        /* \"#utility.yul\":27869:27878   */\n      dup4\n        /* \"#utility.yul\":27865:27882   */\n      add\n        /* \"#utility.yul\":27858:27905   */\n      mstore\n        /* \"#utility.yul\":27922:28000   */\n      tag_813\n        /* \"#utility.yul\":27995:27999   */\n      dup2\n        /* \"#utility.yul\":27986:27992   */\n      dup5\n        /* \"#utility.yul\":27922:28000   */\n      tag_506\n      jump\t// in\n    tag_813:\n        /* \"#utility.yul\":27914:28000   */\n      swap1\n      pop\n        /* \"#utility.yul\":27694:28007   */\n      swap3\n      swap2\n      pop\n      pop\n      jump\t// out\n        /* \"#utility.yul\":28013:28242   */\n    tag_512:\n        /* \"#utility.yul\":28153:28187   */\n      0x5361666545524332303a204552433230206f7065726174696f6e20646964206e\n        /* \"#utility.yul\":28149:28150   */\n      0x00\n        /* \"#utility.yul\":28141:28147   */\n      dup3\n        /* \"#utility.yul\":28137:28151   */\n      add\n        /* \"#utility.yul\":28130:28188   */\n      mstore\n        /* \"#utility.yul\":28222:28234   */\n      0x6f74207375636365656400000000000000000000000000000000000000000000\n        /* \"#utility.yul\":28217:28219   */\n      0x20\n        /* \"#utility.yul\":28209:28215   */\n      dup3\n        /* \"#utility.yul\":28205:28220   */\n      add\n        /* \"#utility.yul\":28198:28235   */\n      mstore\n        /* \"#utility.yul\":28013:28242   */\n      pop\n      jump\t// out\n        /* \"#utility.yul\":28248:28614   */\n    tag_513:\n        /* \"#utility.yul\":28390:28393   */\n      0x00\n        /* \"#utility.yul\":28411:28478   */\n      tag_816\n        /* \"#utility.yul\":28475:28477   */\n      0x2a\n        /* \"#utility.yul\":28470:28473   */\n      dup4\n        /* \"#utility.yul\":28411:28478   */\n      tag_487\n      jump\t// in\n    tag_816:\n        /* \"#utility.yul\":28404:28478   */\n      swap2\n      pop\n        /* \"#utility.yul\":28487:28580   */\n      tag_817\n        /* \"#utility.yul\":28576:28579   */\n      dup3\n        /* \"#utility.yul\":28487:28580   */\n      tag_512\n      jump\t// in\n    tag_817:\n        /* \"#utility.yul\":28605:28607   */\n      0x40\n        /* \"#utility.yul\":28600:28603   */\n      dup3\n        /* \"#utility.yul\":28596:28608   */\n      add\n        /* \"#utility.yul\":28589:28608   */\n      swap1\n      pop\n        /* \"#utility.yul\":28248:28614   */\n      swap2\n      swap1\n      pop\n      jump\t// out\n        /* \"#utility.yul\":28620:29039   */\n    tag_384:\n        /* \"#utility.yul\":28786:28790   */\n      0x00\n        /* \"#utility.yul\":28824:28826   */\n      0x20\n        /* \"#utility.yul\":28813:28822   */\n      dup3\n        /* \"#utility.yul\":28809:28827   */\n      add\n        /* \"#utility.yul\":28801:28827   */\n      swap1\n      pop\n        /* \"#utility.yul\":28873:28882   */\n      dup2\n        /* \"#utility.yul\":28867:28871   */\n      dup2\n        /* \"#utility.yul\":28863:28883   */\n      sub\n        /* \"#utility.yul\":28859:28860   */\n      0x00\n        /* \"#utility.yul\":28848:28857   */\n      dup4\n        /* \"#utility.yul\":28844:28861   */\n      add\n        /* \"#utility.yul\":28837:28884   */\n      mstore\n        /* \"#utility.yul\":28901:29032   */\n      tag_819\n        /* \"#utility.yul\":29027:29031   */\n      dup2\n        /* \"#utility.yul\":28901:29032   */\n      tag_513\n      jump\t// in\n    tag_819:\n        /* \"#utility.yul\":28893:29032   */\n      swap1\n      pop\n        /* \"#utility.yul\":28620:29039   */\n      swap2\n      swap1\n      pop\n      jump\t// out\n        /* \"#utility.yul\":29045:29216   */\n    tag_408:\n        /* \"#utility.yul\":29084:29087   */\n      0x00\n        /* \"#utility.yul\":29107:29131   */\n      tag_821\n        /* \"#utility.yul\":29125:29130   */\n      dup3\n        /* \"#utility.yul\":29107:29131   */\n      tag_450\n      jump\t// in\n    tag_821:\n        /* \"#utility.yul\":29098:29131   */\n      swap2\n      pop\n        /* \"#utility.yul\":29153:29157   */\n      0x00\n        /* \"#utility.yul\":29146:29151   */\n      dup3\n        /* \"#utility.yul\":29143:29158   */\n      sub\n        /* \"#utility.yul\":29140:29181   */\n      tag_822\n      jumpi\n        /* \"#utility.yul\":29161:29179   */\n      tag_823\n      tag_493\n      jump\t// in\n    tag_823:\n        /* \"#utility.yul\":29140:29181   */\n    tag_822:\n        /* \"#utility.yul\":29208:29209   */\n      0x01\n        /* \"#utility.yul\":29201:29206   */\n      dup3\n        /* \"#utility.yul\":29197:29210   */\n      sub\n        /* \"#utility.yul\":29190:29210   */\n      swap1\n      pop\n        /* \"#utility.yul\":29045:29216   */\n      swap2\n      swap1\n      pop\n      jump\t// out\n        /* \"#utility.yul\":29222:29404   */\n    tag_514:\n        /* \"#utility.yul\":29362:29396   */\n      0x537472696e67733a20686578206c656e67746820696e73756666696369656e74\n        /* \"#utility.yul\":29358:29359   */\n      0x00\n        /* \"#utility.yul\":29350:29356   */\n      dup3\n        /* \"#utility.yul\":29346:29360   */\n      add\n        /* \"#utility.yul\":29339:29397   */\n      mstore\n        /* \"#utility.yul\":29222:29404   */\n      pop\n      jump\t// out\n        /* \"#utility.yul\":29410:29776   */\n    tag_515:\n        /* \"#utility.yul\":29552:29555   */\n      0x00\n        /* \"#utility.yul\":29573:29640   */\n      tag_826\n        /* \"#utility.yul\":29637:29639   */\n      0x20\n        /* \"#utility.yul\":29632:29635   */\n      dup4\n        /* \"#utility.yul\":29573:29640   */\n      tag_487\n      jump\t// in\n    tag_826:\n        /* \"#utility.yul\":29566:29640   */\n      swap2\n      pop\n        /* \"#utility.yul\":29649:29742   */\n      tag_827\n        /* \"#utility.yul\":29738:29741   */\n      dup3\n        /* \"#utility.yul\":29649:29742   */\n      tag_514\n      jump\t// in\n    tag_827:\n        /* \"#utility.yul\":29767:29769   */\n      0x20\n        /* \"#utility.yul\":29762:29765   */\n      dup3\n        /* \"#utility.yul\":29758:29770   */\n      add\n        /* \"#utility.yul\":29751:29770   */\n      swap1\n      pop\n        /* \"#utility.yul\":29410:29776   */\n      swap2\n      swap1\n      pop\n      jump\t// out\n        /* \"#utility.yul\":29782:30201   */\n    tag_411:\n        /* \"#utility.yul\":29948:29952   */\n      0x00\n        /* \"#utility.yul\":29986:29988   */\n      0x20\n        /* \"#utility.yul\":29975:29984   */\n      dup3\n        /* \"#utility.yul\":29971:29989   */\n      add\n        /* \"#utility.yul\":29963:29989   */\n      swap1\n      pop\n        /* \"#utility.yul\":30035:30044   */\n      dup2\n        /* \"#utility.yul\":30029:30033   */\n      dup2\n        /* \"#utility.yul\":30025:30045   */\n      sub\n        /* \"#utility.yul\":30021:30022   */\n      0x00\n        /* \"#utility.yul\":30010:30019   */\n      dup4\n        /* \"#utility.yul\":30006:30023   */\n      add\n        /* \"#utility.yul\":29999:30046   */\n      mstore\n        /* \"#utility.yul\":30063:30194   */\n      tag_829\n        /* \"#utility.yul\":30189:30193   */\n      dup2\n        /* \"#utility.yul\":30063:30194   */\n      tag_515\n      jump\t// in\n    tag_829:\n        /* \"#utility.yul\":30055:30194   */\n      swap1\n      pop\n        /* \"#utility.yul\":29782:30201   */\n      swap2\n      swap1\n      pop\n      jump\t// out\n        /* \"#utility.yul\":30207:30432   */\n    tag_516:\n        /* \"#utility.yul\":30347:30381   */\n      0x416464726573733a20696e73756666696369656e742062616c616e636520666f\n        /* \"#utility.yul\":30343:30344   */\n      0x00\n        /* \"#utility.yul\":30335:30341   */\n      dup3\n        /* \"#utility.yul\":30331:30345   */\n      add\n        /* \"#utility.yul\":30324:30382   */\n      mstore\n        /* \"#utility.yul\":30416:30424   */\n      0x722063616c6c0000000000000000000000000000000000000000000000000000\n        /* \"#utility.yul\":30411:30413   */\n      0x20\n        /* \"#utility.yul\":30403:30409   */\n      dup3\n        /* \"#utility.yul\":30399:30414   */\n      add\n        /* \"#utility.yul\":30392:30425   */\n      mstore\n        /* \"#utility.yul\":30207:30432   */\n      pop\n      jump\t// out\n        /* \"#utility.yul\":30438:30804   */\n    tag_517:\n        /* \"#utility.yul\":30580:30583   */\n      0x00\n        /* \"#utility.yul\":30601:30668   */\n      tag_832\n        /* \"#utility.yul\":30665:30667   */\n      0x26\n        /* \"#utility.yul\":30660:30663   */\n      dup4\n        /* \"#utility.yul\":30601:30668   */\n      tag_487\n      jump\t// in\n    tag_832:\n        /* \"#utility.yul\":30594:30668   */\n      swap2\n      pop\n        /* \"#utility.yul\":30677:30770   */\n      tag_833\n        /* \"#utility.yul\":30766:30769   */\n      dup3\n        /* \"#utility.yul\":30677:30770   */\n      tag_516\n      jump\t// in\n    tag_833:\n        /* \"#utility.yul\":30795:30797   */\n      0x40\n        /* \"#utility.yul\":30790:30793   */\n      dup3\n        /* \"#utility.yul\":30786:30798   */\n      add\n        /* \"#utility.yul\":30779:30798   */\n      swap1\n      pop\n        /* \"#utility.yul\":30438:30804   */\n      swap2\n      swap1\n      pop\n      jump\t// out\n        /* \"#utility.yul\":30810:31229   */\n    tag_418:\n        /* \"#utility.yul\":30976:30980   */\n      0x00\n        /* \"#utility.yul\":31014:31016   */\n      0x20\n        /* \"#utility.yul\":31003:31012   */\n      dup3\n        /* \"#utility.yul\":30999:31017   */\n      add\n        /* \"#utility.yul\":30991:31017   */\n      swap1\n      pop\n        /* \"#utility.yul\":31063:31072   */\n      dup2\n        /* \"#utility.yul\":31057:31061   */\n      dup2\n        /* \"#utility.yul\":31053:31073   */\n      sub\n        /* \"#utility.yul\":31049:31050   */\n      0x00\n        /* \"#utility.yul\":31038:31047   */\n      dup4\n        /* \"#utility.yul\":31034:31051   */\n      add\n        /* \"#utility.yul\":31027:31074   */\n      mstore\n        /* \"#utility.yul\":31091:31222   */\n      tag_835\n        /* \"#utility.yul\":31217:31221   */\n      dup2\n        /* \"#utility.yul\":31091:31222   */\n      tag_517\n      jump\t// in\n    tag_835:\n        /* \"#utility.yul\":31083:31222   */\n      swap1\n      pop\n        /* \"#utility.yul\":30810:31229   */\n      swap2\n      swap1\n      pop\n      jump\t// out\n        /* \"#utility.yul\":31235:31333   */\n    tag_518:\n        /* \"#utility.yul\":31286:31292   */\n      0x00\n        /* \"#utility.yul\":31320:31325   */\n      dup2\n        /* \"#utility.yul\":31314:31326   */\n      mload\n        /* \"#utility.yul\":31304:31326   */\n      swap1\n      pop\n        /* \"#utility.yul\":31235:31333   */\n      swap2\n      swap1\n      pop\n      jump\t// out\n        /* \"#utility.yul\":31339:31486   */\n    tag_519:\n        /* \"#utility.yul\":31440:31451   */\n      0x00\n        /* \"#utility.yul\":31477:31480   */\n      dup2\n        /* \"#utility.yul\":31462:31480   */\n      swap1\n      pop\n        /* \"#utility.yul\":31339:31486   */\n      swap3\n      swap2\n      pop\n      pop\n      jump\t// out\n        /* \"#utility.yul\":31492:31878   */\n    tag_520:\n        /* \"#utility.yul\":31596:31599   */\n      0x00\n        /* \"#utility.yul\":31624:31662   */\n      tag_839\n        /* \"#utility.yul\":31656:31661   */\n      dup3\n        /* \"#utility.yul\":31624:31662   */\n      tag_518\n      jump\t// in\n    tag_839:\n        /* \"#utility.yul\":31678:31766   */\n      tag_840\n        /* \"#utility.yul\":31759:31765   */\n      dup2\n        /* \"#utility.yul\":31754:31757   */\n      dup6\n        /* \"#utility.yul\":31678:31766   */\n      tag_519\n      jump\t// in\n    tag_840:\n        /* \"#utility.yul\":31671:31766   */\n      swap4\n      pop\n        /* \"#utility.yul\":31775:31840   */\n      tag_841\n        /* \"#utility.yul\":31833:31839   */\n      dup2\n        /* \"#utility.yul\":31828:31831   */\n      dup6\n        /* \"#utility.yul\":31821:31825   */\n      0x20\n        /* \"#utility.yul\":31814:31819   */\n      dup7\n        /* \"#utility.yul\":31810:31826   */\n      add\n        /* \"#utility.yul\":31775:31840   */\n      tag_505\n      jump\t// in\n    tag_841:\n        /* \"#utility.yul\":31865:31871   */\n      dup1\n        /* \"#utility.yul\":31860:31863   */\n      dup5\n        /* \"#utility.yul\":31856:31872   */\n      add\n        /* \"#utility.yul\":31849:31872   */\n      swap2\n      pop\n        /* \"#utility.yul\":31600:31878   */\n      pop\n        /* \"#utility.yul\":31492:31878   */\n      swap3\n      swap2\n      pop\n      pop\n      jump\t// out\n        /* \"#utility.yul\":31884:32155   */\n    tag_420:\n        /* \"#utility.yul\":32014:32017   */\n      0x00\n        /* \"#utility.yul\":32036:32129   */\n      tag_843\n        /* \"#utility.yul\":32125:32128   */\n      dup3\n        /* \"#utility.yul\":32116:32122   */\n      dup5\n        /* \"#utility.yul\":32036:32129   */\n      tag_520\n      jump\t// in\n    tag_843:\n        /* \"#utility.yul\":32029:32129   */\n      swap2\n      pop\n        /* \"#utility.yul\":32146:32149   */\n      dup2\n        /* \"#utility.yul\":32139:32149   */\n      swap1\n      pop\n        /* \"#utility.yul\":31884:32155   */\n      swap3\n      swap2\n      pop\n      pop\n      jump\t// out\n        /* \"#utility.yul\":32161:32340   */\n    tag_521:\n        /* \"#utility.yul\":32301:32332   */\n      0x416464726573733a2063616c6c20746f206e6f6e2d636f6e7472616374000000\n        /* \"#utility.yul\":32297:32298   */\n      0x00\n        /* \"#utility.yul\":32289:32295   */\n      dup3\n        /* \"#utility.yul\":32285:32299   */\n      add\n        /* \"#utility.yul\":32278:32333   */\n      mstore\n        /* \"#utility.yul\":32161:32340   */\n      pop\n      jump\t// out\n        /* \"#utility.yul\":32346:32712   */\n    tag_522:\n        /* \"#utility.yul\":32488:32491   */\n      0x00\n        /* \"#utility.yul\":32509:32576   */\n      tag_846\n        /* \"#utility.yul\":32573:32575   */\n      0x1d\n        /* \"#utility.yul\":32568:32571   */\n      dup4\n        /* \"#utility.yul\":32509:32576   */\n      tag_487\n      jump\t// in\n    tag_846:\n        /* \"#utility.yul\":32502:32576   */\n      swap2\n      pop\n        /* \"#utility.yul\":32585:32678   */\n      tag_847\n        /* \"#utility.yul\":32674:32677   */\n      dup3\n        /* \"#utility.yul\":32585:32678   */\n      tag_521\n      jump\t// in\n    tag_847:\n        /* \"#utility.yul\":32703:32705   */\n      0x20\n        /* \"#utility.yul\":32698:32701   */\n      dup3\n        /* \"#utility.yul\":32694:32706   */\n      add\n        /* \"#utility.yul\":32687:32706   */\n      swap1\n      pop\n        /* \"#utility.yul\":32346:32712   */\n      swap2\n      swap1\n      pop\n      jump\t// out\n        /* \"#utility.yul\":32718:33137   */\n    tag_433:\n        /* \"#utility.yul\":32884:32888   */\n      0x00\n        /* \"#utility.yul\":32922:32924   */\n      0x20\n        /* \"#utility.yul\":32911:32920   */\n      dup3\n        /* \"#utility.yul\":32907:32925   */\n      add\n        /* \"#utility.yul\":32899:32925   */\n      swap1\n      pop\n        /* \"#utility.yul\":32971:32980   */\n      dup2\n        /* \"#utility.yul\":32965:32969   */\n      dup2\n        /* \"#utility.yul\":32961:32981   */\n      sub\n        /* \"#utility.yul\":32957:32958   */\n      0x00\n        /* \"#utility.yul\":32946:32955   */\n      dup4\n        /* \"#utility.yul\":32942:32959   */\n      add\n        /* \"#utility.yul\":32935:32982   */\n      mstore\n        /* \"#utility.yul\":32999:33130   */\n      tag_849\n        /* \"#utility.yul\":33125:33129   */\n      dup2\n        /* \"#utility.yul\":32999:33130   */\n      tag_522\n      jump\t// in\n    tag_849:\n        /* \"#utility.yul\":32991:33130   */\n      swap1\n      pop\n        /* \"#utility.yul\":32718:33137   */\n      swap2\n      swap1\n      pop\n      jump\t// out\n\n    auxdata: 0xa2646970667358221220833301db9137e85833c7978c11043a13d82605aa6b342c33cdcd4c1f9c72552464736f6c63430008130033\n}\n",
				"bytecode": {
					"linkReferences": {},
					"object": "60a060405234801561001057600080fd5b5061001f61005760201b60201c565b73ffffffffffffffffffffffffffffffffffffffff1660808173ffffffffffffffffffffffffffffffffffffffff168152505061005f565b600033905090565b6080516132c06200007b6000396000610c6501526132c06000f3fe608060405234801561001057600080fd5b50600436106101735760003560e01c80635312ea8e116100de57806393f1a40b11610097578063b3ecb62311610071578063b3ecb6231461043a578063ccc574901461046a578063d547741f14610488578063e2bbb158146104a457610173565b806393f1a40b146103cf578063a217fddf14610400578063ad35e1cc1461041e57610173565b80635312ea8e1461030f5780635e3e15811461032b578063630b5ba11461034757806379838ef0146103515780637f37df3b1461036f57806391d148541461039f57610173565b80632f2ff15d116101305780632f2ff15d1461026557806336568abe146102815780633a0618fd1461029d578063441a3e70146102b957806348cd4cb1146102d557806351eb05a6146102f357610173565b806301ffc9a714610178578063081e3eda146101a85780631526fe27146101c657806317caf6f1146101f957806323c64ce114610217578063248a9ca314610235575b600080fd5b610192600480360381019061018d919061219f565b6104c0565b60405161019f91906121e7565b60405180910390f35b6101b061053a565b6040516101bd919061221b565b60405180910390f35b6101e060048036038101906101db9190612262565b610547565b6040516101f0949392919061230e565b60405180910390f35b6102016105a7565b60405161020e919061221b565b60405180910390f35b61021f6105ad565b60405161022c9190612374565b60405180910390f35b61024f600480360381019061024a91906123c5565b6105d3565b60405161025c9190612401565b60405180910390f35b61027f600480360381019061027a919061245a565b6105f2565b005b61029b6004803603810190610296919061245a565b610613565b005b6102b760048036038101906102b2919061264a565b610696565b005b6102d360048036038101906102ce91906126cd565b610717565b005b6102dd6109b5565b6040516102ea919061221b565b60405180910390f35b61030d60048036038101906103089190612262565b6109bb565b005b61032960048036038101906103249190612262565b610b35565b005b610345600480360381019061034091906127c3565b610c63565b005b61034f610f8f565b005b610359610fc2565b604051610366919061221b565b60405180910390f35b61038960048036038101906103849190612816565b610fc8565b604051610396919061221b565b60405180910390f35b6103b960048036038101906103b4919061245a565b611234565b6040516103c691906121e7565b60405180910390f35b6103e960048036038101906103e49190612816565b61129e565b6040516103f7929190612856565b60405180910390f35b6104086112cf565b6040516104159190612401565b60405180910390f35b6104386004803603810190610433919061287f565b6112d6565b005b610454600480360381019061044f91906128d2565b6113ec565b604051610461919061221b565b60405180910390f35b610472611433565b60405161047f9190612401565b60405180910390f35b6104a2600480360381019061049d919061245a565b61145b565b005b6104be60048036038101906104b991906126cd565b61147c565b005b60007f7965db0b000000000000000000000000000000000000000000000000000000007bffffffffffffffffffffffffffffffffffffffffffffffffffffffff1916827bffffffffffffffffffffffffffffffffffffffffffffffffffffffff191614806105335750610532826116e2565b5b9050919050565b6000600680549050905090565b6006818154811061055757600080fd5b90600052602060002090600402016000915090508060000160009054906101000a900473ffffffffffffffffffffffffffffffffffffffff16908060010154908060020154908060030154905084565b60045481565b600160009054906101000a900473ffffffffffffffffffffffffffffffffffffffff1681565b6000806000838152602001908152602001600020600101549050919050565b6105fb826105d3565b6106048161174c565b61060e8383611760565b505050565b61061b611840565b73ffffffffffffffffffffffffffffffffffffffff168173ffffffffffffffffffffffffffffffffffffffff1614610688576040517f08c379a000000000000000000000000000000000000000000000000000000000815260040161067f90612982565b60405180910390fd5b6106928282611848565b5050565b6040516020016106a5906129f9565b604051602081830303815290604052805190602001206106c48161174c565b81156106d3576106d2610f8f565b5b600060035443116106e6576003546106e8565b435b905084600460008282546106fc9190612a3d565b9250508190555061070f86868684611929565b505050505050565b60006006838154811061072d5761072c612a71565b5b90600052602060002090600402019050600060076000858152602001908152602001600020600061075c611840565b73ffffffffffffffffffffffffffffffffffffffff1673ffffffffffffffffffffffffffffffffffffffff168152602001908152602001600020905082816000015410156107df576040517f08c379a00000000000000000000000000000000000000000000000000000000081526004016107d690612aec565b60405180910390fd5b6107e8846109bb565b6000816001015464e8d4a51000846003015484600001546108099190612b0c565b6108139190612b7d565b61081d9190612bae565b905060008111156108d157600160009054906101000a900473ffffffffffffffffffffffffffffffffffffffff1673ffffffffffffffffffffffffffffffffffffffff166340c10f1961086e611840565b836040518363ffffffff1660e01b815260040161088c929190612bf1565b6020604051808303816000875af11580156108ab573d6000803e3d6000fd5b505050506040513d601f19601f820116820180604052508101906108cf9190612c2f565b505b600084111561092c57838260000160008282546108ee9190612bae565b9250508190555061092b8360000160009054906101000a900473ffffffffffffffffffffffffffffffffffffffff16610925611840565b86611a64565b5b64e8d4a51000836003015483600001546109469190612b0c565b6109509190612b7d565b826001018190555084610961611840565b73ffffffffffffffffffffffffffffffffffffffff167ff279e6a1f5e320cca91135676d9cb6e44ca8a08c0b88342bcdb1144f6511b568866040516109a6919061221b565b60405180910390a35050505050565b60035481565b6000600682815481106109d1576109d0612a71565b5b90600052602060002090600402019050806002015443116109f25750610b32565b60008160000160009054906101000a900473ffffffffffffffffffffffffffffffffffffffff1673ffffffffffffffffffffffffffffffffffffffff166370a08231306040518263ffffffff1660e01b8152600401610a519190612c5c565b602060405180830381865afa158015610a6e573d6000803e3d6000fd5b505050506040513d601f19601f82011682018060405250810190610a929190612c8c565b905060008103610aac574382600201819055505050610b32565b6000826002015443610abe9190612bae565b90506000600454846001015460025484610ad89190612b0c565b610ae29190612b0c565b610aec9190612b7d565b90508264e8d4a5100082610b009190612b0c565b610b0a9190612b7d565b846003016000828254610b1d9190612a3d565b92505081905550438460020181905550505050505b50565b600060068281548110610b4b57610b4a612a71565b5b906000526020600020906004020190506000600760008481526020019081526020016000206000610b7a611840565b73ffffffffffffffffffffffffffffffffffffffff1673ffffffffffffffffffffffffffffffffffffffff1681526020019081526020016000209050610bf08260000160009054906101000a900473ffffffffffffffffffffffffffffffffffffffff16610be6611840565b8360000154611a64565b82610bf9611840565b73ffffffffffffffffffffffffffffffffffffffff167fbb757047c2b5f3974fe26b7c10f732e7bce710b0952a71082702781e62ae05958360000154604051610c42919061221b565b60405180910390a36000816000018190555060008160010181905550505050565b7f000000000000000000000000000000000000000000000000000000000000000073ffffffffffffffffffffffffffffffffffffffff16610ca2611840565b73ffffffffffffffffffffffffffffffffffffffff1614610cf8576040517f08c379a0000000000000000000000000000000000000000000000000000000008152600401610cef90612d2b565b60405180910390fd5b600073ffffffffffffffffffffffffffffffffffffffff168373ffffffffffffffffffffffffffffffffffffffff1603610d67576040517f08c379a0000000000000000000000000000000000000000000000000000000008152600401610d5e90612d97565b60405180910390fd5b610d9c604051602001610d79906129f9565b60405160208183030381529060405280519060200120610d97611840565b611760565b610db06000801b610dab611840565b611760565b82600160006101000a81548173ffffffffffffffffffffffffffffffffffffffff021916908373ffffffffffffffffffffffffffffffffffffffff160217905550671bc16d674ec800006002819055506000600c90506000814261070885610e189190612a3d565b610e229190612bae565b610e2c9190612b7d565b90508043610e3a9190612a3d565b6003819055506103e8600481905550600060068054905003610f6d57610eb384600060038110610e6d57610e6c612a71565b5b60200201516101906040518060400160405280600881526020017f485944542d424e42000000000000000000000000000000000000000000000000815250600354611929565b610f1084600160038110610eca57610ec9612a71565b5b60200201516101906040518060400160405280600981526020017f485944542d555344540000000000000000000000000000000000000000000000815250600354611929565b610f6c84600260038110610f2757610f26612a71565b5b602002015160c86040518060400160405280600981526020017f485944542d485947540000000000000000000000000000000000000000000000815250600354611929565b5b6001600560006101000a81548160ff0219169083151502179055505050505050565b6000600680549050905060005b81811015610fbe57610fad816109bb565b80610fb790612db7565b9050610f9c565b5050565b60025481565b60008060068481548110610fdf57610fde612a71565b5b90600052602060002090600402016040518060800160405290816000820160009054906101000a900473ffffffffffffffffffffffffffffffffffffffff1673ffffffffffffffffffffffffffffffffffffffff1673ffffffffffffffffffffffffffffffffffffffff1681526020016001820154815260200160028201548152602001600382015481525050905060006007600086815260200190815260200160002060008573ffffffffffffffffffffffffffffffffffffffff1673ffffffffffffffffffffffffffffffffffffffff1681526020019081526020016000206040518060400160405290816000820154815260200160018201548152505090506000826060015190506000836000015173ffffffffffffffffffffffffffffffffffffffff166370a08231306040518263ffffffff1660e01b81526004016111299190612c5c565b602060405180830381865afa158015611146573d6000803e3d6000fd5b505050506040513d601f19601f8201168201806040525081019061116a9190612c8c565b9050836040015143118015611180575060008114155b156111f35760008460400151436111979190612bae565b905060006004548660200151600254846111b19190612b0c565b6111bb9190612b0c565b6111c59190612b7d565b90508264e8d4a51000826111d99190612b0c565b6111e39190612b7d565b846111ee9190612a3d565b935050505b6000836020015164e8d4a510008486600001516112109190612b0c565b61121a9190612b7d565b6112249190612bae565b9050809550505050505092915050565b600080600084815260200190815260200160002060000160008373ffffffffffffffffffffffffffffffffffffffff1673ffffffffffffffffffffffffffffffffffffffff16815260200190815260200160002060009054906101000a900460ff16905092915050565b6007602052816000526040600020602052806000526040600020600091509150508060000154908060010154905082565b6000801b81565b6040516020016112e5906129f9565b604051602081830303815290604052805190602001206113048161174c565b811561131357611312610f8f565b5b826006858154811061132857611327612a71565b5b9060005260206000209060040201600101546004546113479190612bae565b6113519190612a3d565b60048190555060006006858154811061136d5761136c612a71565b5b9060005260206000209060040201600101549050836006868154811061139657611395612a71565b5b906000526020600020906004020160010181905550847f5b051d9271f3dacc9672ca07af039f84d81b973ee9174797456dd6238bf18fef85836040516113dd929190612856565b60405180910390a25050505050565b60008060005b600680549050811015611429576114098185610fc8565b826114149190612a3d565b9150808061142190612db7565b9150506113f2565b5080915050919050565b604051602001611442906129f9565b6040516020818303038152906040528051906020012081565b611464826105d3565b61146d8161174c565b6114778383611848565b505050565b60006006838154811061149257611491612a71565b5b9060005260206000209060040201905060006007600085815260200190815260200160002060006114c1611840565b73ffffffffffffffffffffffffffffffffffffffff1673ffffffffffffffffffffffffffffffffffffffff1681526020019081526020016000209050611506846109bb565b6000816000015411156115fe576000816001015464e8d4a51000846003015484600001546115349190612b0c565b61153e9190612b7d565b6115489190612bae565b905060008111156115fc57600160009054906101000a900473ffffffffffffffffffffffffffffffffffffffff1673ffffffffffffffffffffffffffffffffffffffff166340c10f19611599611840565b836040518363ffffffff1660e01b81526004016115b7929190612bf1565b6020604051808303816000875af11580156115d6573d6000803e3d6000fd5b505050506040513d601f19601f820116820180604052508101906115fa9190612c2f565b505b505b600083111561165a5761163e8260000160009054906101000a900473ffffffffffffffffffffffffffffffffffffffff16611637611840565b3086611aea565b828160000160008282546116529190612a3d565b925050819055505b64e8d4a51000826003015482600001546116749190612b0c565b61167e9190612b7d565b81600101819055508361168f611840565b73ffffffffffffffffffffffffffffffffffffffff167f90890809c654f11d6e72a28fa60149770a0d11ec6c92319d6ceb2bb0a4ea1a15856040516116d4919061221b565b60405180910390a350505050565b60007f01ffc9a7000000000000000000000000000000000000000000000000000000007bffffffffffffffffffffffffffffffffffffffffffffffffffffffff1916827bffffffffffffffffffffffffffffffffffffffffffffffffffffffff1916149050919050565b61175d81611758611840565b611b73565b50565b61176a8282611234565b61183c57600160008084815260200190815260200160002060000160008373ffffffffffffffffffffffffffffffffffffffff1673ffffffffffffffffffffffffffffffffffffffff16815260200190815260200160002060006101000a81548160ff0219169083151502179055506117e1611840565b73ffffffffffffffffffffffffffffffffffffffff168173ffffffffffffffffffffffffffffffffffffffff16837f2f8788117e7eff1d82e926ec794901d17c78024a50270940304540a733656f0d60405160405180910390a45b5050565b600033905090565b6118528282611234565b1561192557600080600084815260200190815260200160002060000160008373ffffffffffffffffffffffffffffffffffffffff1673ffffffffffffffffffffffffffffffffffffffff16815260200190815260200160002060006101000a81548160ff0219169083151502179055506118ca611840565b73ffffffffffffffffffffffffffffffffffffffff168173ffffffffffffffffffffffffffffffffffffffff16837ff6391f5c32d9c69d2a47ea670b442974b53935d1edc7fd64eb21e047a839171b60405160405180910390a45b5050565b6119316120f5565b84816000019073ffffffffffffffffffffffffffffffffffffffff16908173ffffffffffffffffffffffffffffffffffffffff16815250508381602001818152505081816040018181525050600681908060018154018082558091505060019003906000526020600020906004020160009091909190915060008201518160000160006101000a81548173ffffffffffffffffffffffffffffffffffffffff021916908373ffffffffffffffffffffffffffffffffffffffff16021790555060208201518160010155604082015181600201556060820151816003015550506001600680549050611a229190612bae565b7f1fcb86d005de4723e36a6d74eeeb8529bac339b94c9241aed56567a2d214f105868587604051611a5593929190612e6d565b60405180910390a25050505050565b611ae58363a9059cbb60e01b8484604051602401611a83929190612bf1565b604051602081830303815290604052907bffffffffffffffffffffffffffffffffffffffffffffffffffffffff19166020820180517bffffffffffffffffffffffffffffffffffffffffffffffffffffffff8381831617835250505050611bf8565b505050565b611b6d846323b872dd60e01b858585604051602401611b0b93929190612eab565b604051602081830303815290604052907bffffffffffffffffffffffffffffffffffffffffffffffffffffffff19166020820180517bffffffffffffffffffffffffffffffffffffffffffffffffffffffff8381831617835250505050611bf8565b50505050565b611b7d8282611234565b611bf457611b8a81611cbf565b611b988360001c6020611cec565b604051602001611ba9929190612fab565b6040516020818303038152906040526040517f08c379a0000000000000000000000000000000000000000000000000000000008152600401611beb9190612fe5565b60405180910390fd5b5050565b6000611c5a826040518060400160405280602081526020017f5361666545524332303a206c6f772d6c6576656c2063616c6c206661696c65648152508573ffffffffffffffffffffffffffffffffffffffff16611f289092919063ffffffff16565b9050600081511115611cba5780806020019051810190611c7a9190612c2f565b611cb9576040517f08c379a0000000000000000000000000000000000000000000000000000000008152600401611cb090613079565b60405180910390fd5b5b505050565b6060611ce58273ffffffffffffffffffffffffffffffffffffffff16601460ff16611cec565b9050919050565b606060006002836002611cff9190612b0c565b611d099190612a3d565b67ffffffffffffffff811115611d2257611d216124f3565b5b6040519080825280601f01601f191660200182016040528015611d545781602001600182028036833780820191505090505b5090507f300000000000000000000000000000000000000000000000000000000000000081600081518110611d8c57611d8b612a71565b5b60200101907effffffffffffffffffffffffffffffffffffffffffffffffffffffffffffff1916908160001a9053507f780000000000000000000000000000000000000000000000000000000000000081600181518110611df057611def612a71565b5b60200101907effffffffffffffffffffffffffffffffffffffffffffffffffffffffffffff1916908160001a90535060006001846002611e309190612b0c565b611e3a9190612a3d565b90505b6001811115611eda577f3031323334353637383961626364656600000000000000000000000000000000600f861660108110611e7c57611e7b612a71565b5b1a60f81b828281518110611e9357611e92612a71565b5b60200101907effffffffffffffffffffffffffffffffffffffffffffffffffffffffffffff1916908160001a905350600485901c945080611ed390613099565b9050611e3d565b5060008414611f1e576040517f08c379a0000000000000000000000000000000000000000000000000000000008152600401611f159061310e565b60405180910390fd5b8091505092915050565b6060611f378484600085611f40565b90509392505050565b606082471015611f85576040517f08c379a0000000000000000000000000000000000000000000000000000000008152600401611f7c906131a0565b60405180910390fd5b6000808673ffffffffffffffffffffffffffffffffffffffff168587604051611fae9190613207565b60006040518083038185875af1925050503d8060008114611feb576040519150601f19603f3d011682016040523d82523d6000602084013e611ff0565b606091505b50915091506120018783838761200d565b92505050949350505050565b6060831561206f5760008351036120675761202785612082565b612066576040517f08c379a000000000000000000000000000000000000000000000000000000000815260040161205d9061326a565b60405180910390fd5b5b82905061207a565b61207983836120a5565b5b949350505050565b6000808273ffffffffffffffffffffffffffffffffffffffff163b119050919050565b6000825111156120b85781518083602001fd5b806040517f08c379a00000000000000000000000000000000000000000000000000000000081526004016120ec9190612fe5565b60405180910390fd5b6040518060800160405280600073ffffffffffffffffffffffffffffffffffffffff1681526020016000815260200160008152602001600081525090565b6000604051905090565b600080fd5b600080fd5b60007fffffffff0000000000000000000000000000000000000000000000000000000082169050919050565b61217c81612147565b811461218757600080fd5b50565b60008135905061219981612173565b92915050565b6000602082840312156121b5576121b461213d565b5b60006121c38482850161218a565b91505092915050565b60008115159050919050565b6121e1816121cc565b82525050565b60006020820190506121fc60008301846121d8565b92915050565b6000819050919050565b61221581612202565b82525050565b6000602082019050612230600083018461220c565b92915050565b61223f81612202565b811461224a57600080fd5b50565b60008135905061225c81612236565b92915050565b6000602082840312156122785761227761213d565b5b60006122868482850161224d565b91505092915050565b600073ffffffffffffffffffffffffffffffffffffffff82169050919050565b6000819050919050565b60006122d46122cf6122ca8461228f565b6122af565b61228f565b9050919050565b60006122e6826122b9565b9050919050565b60006122f8826122db565b9050919050565b612308816122ed565b82525050565b600060808201905061232360008301876122ff565b612330602083018661220c565b61233d604083018561220c565b61234a606083018461220c565b95945050505050565b600061235e826122db565b9050919050565b61236e81612353565b82525050565b60006020820190506123896000830184612365565b92915050565b6000819050919050565b6123a28161238f565b81146123ad57600080fd5b50565b6000813590506123bf81612399565b92915050565b6000602082840312156123db576123da61213d565b5b60006123e9848285016123b0565b91505092915050565b6123fb8161238f565b82525050565b600060208201905061241660008301846123f2565b92915050565b60006124278261228f565b9050919050565b6124378161241c565b811461244257600080fd5b50565b6000813590506124548161242e565b92915050565b600080604083850312156124715761247061213d565b5b600061247f858286016123b0565b925050602061249085828601612445565b9150509250929050565b60006124a58261241c565b9050919050565b6124b58161249a565b81146124c057600080fd5b50565b6000813590506124d2816124ac565b92915050565b600080fd5b600080fd5b6000601f19601f8301169050919050565b7f4e487b7100000000000000000000000000000000000000000000000000000000600052604160045260246000fd5b61252b826124e2565b810181811067ffffffffffffffff8211171561254a576125496124f3565b5b80604052505050565b600061255d612133565b90506125698282612522565b919050565b600067ffffffffffffffff821115612589576125886124f3565b5b612592826124e2565b9050602081019050919050565b82818337600083830152505050565b60006125c16125bc8461256e565b612553565b9050828152602081018484840111156125dd576125dc6124dd565b5b6125e884828561259f565b509392505050565b600082601f830112612605576126046124d8565b5b81356126158482602086016125ae565b91505092915050565b612627816121cc565b811461263257600080fd5b50565b6000813590506126448161261e565b92915050565b600080600080608085870312156126645761266361213d565b5b6000612672878288016124c3565b94505060206126838782880161224d565b935050604085013567ffffffffffffffff8111156126a4576126a3612142565b5b6126b0878288016125f0565b92505060606126c187828801612635565b91505092959194509250565b600080604083850312156126e4576126e361213d565b5b60006126f28582860161224d565b92505060206127038582860161224d565b9150509250929050565b600067ffffffffffffffff821115612728576127276124f3565b5b602082029050919050565b600080fd5b600061274b6127468461270d565b612553565b9050806020840283018581111561276557612764612733565b5b835b8181101561278e578061277a8882612445565b845260208401935050602081019050612767565b5050509392505050565b600082601f8301126127ad576127ac6124d8565b5b60036127ba848285612738565b91505092915050565b600080600060a084860312156127dc576127db61213d565b5b60006127ea86828701612445565b93505060206127fb86828701612798565b925050608061280c8682870161224d565b9150509250925092565b6000806040838503121561282d5761282c61213d565b5b600061283b8582860161224d565b925050602061284c85828601612445565b9150509250929050565b600060408201905061286b600083018561220c565b612878602083018461220c565b9392505050565b6000806000606084860312156128985761289761213d565b5b60006128a68682870161224d565b93505060206128b78682870161224d565b92505060406128c886828701612635565b9150509250925092565b6000602082840312156128e8576128e761213d565b5b60006128f684828501612445565b91505092915050565b600082825260208201905092915050565b7f416363657373436f6e74726f6c3a2063616e206f6e6c792072656e6f756e636560008201527f20726f6c657320666f722073656c660000000000000000000000000000000000602082015250565b600061296c602f836128ff565b915061297782612910565b604082019050919050565b6000602082019050818103600083015261299b8161295f565b9050919050565b600081905092915050565b7f476f7665726e6f72000000000000000000000000000000000000000000000000600082015250565b60006129e36008836129a2565b91506129ee826129ad565b600882019050919050565b6000612a04826129d6565b9150819050919050565b7f4e487b7100000000000000000000000000000000000000000000000000000000600052601160045260246000fd5b6000612a4882612202565b9150612a5383612202565b9250828201905080821115612a6b57612a6a612a0e565b5b92915050565b7f4e487b7100000000000000000000000000000000000000000000000000000000600052603260045260246000fd5b7f4661726d3a206e6f7420676f6f64000000000000000000000000000000000000600082015250565b6000612ad6600e836128ff565b9150612ae182612aa0565b602082019050919050565b60006020820190508181036000830152612b0581612ac9565b9050919050565b6000612b1782612202565b9150612b2283612202565b9250828202612b3081612202565b91508282048414831517612b4757612b46612a0e565b5b5092915050565b7f4e487b7100000000000000000000000000000000000000000000000000000000600052601260045260246000fd5b6000612b8882612202565b9150612b9383612202565b925082612ba357612ba2612b4e565b5b828204905092915050565b6000612bb982612202565b9150612bc483612202565b9250828203905081811115612bdc57612bdb612a0e565b5b92915050565b612beb8161241c565b82525050565b6000604082019050612c066000830185612be2565b612c13602083018461220c565b9392505050565b600081519050612c298161261e565b92915050565b600060208284031215612c4557612c4461213d565b5b6000612c5384828501612c1a565b91505092915050565b6000602082019050612c716000830184612be2565b92915050565b600081519050612c8681612236565b92915050565b600060208284031215612ca257612ca161213d565b5b6000612cb084828501612c77565b91505092915050565b7f4661726d3a2063616c6c6572206973206e6f742074686520696e697469616c6960008201527f7a65720000000000000000000000000000000000000000000000000000000000602082015250565b6000612d156023836128ff565b9150612d2082612cb9565b604082019050919050565b60006020820190508181036000830152612d4481612d08565b9050919050565b7f4661726d3a20696e76616c696420485947542061646472657373000000000000600082015250565b6000612d81601a836128ff565b9150612d8c82612d4b565b602082019050919050565b60006020820190508181036000830152612db081612d74565b9050919050565b6000612dc282612202565b91507fffffffffffffffffffffffffffffffffffffffffffffffffffffffffffffffff8203612df457612df3612a0e565b5b600182019050919050565b600081519050919050565b60005b83811015612e28578082015181840152602081019050612e0d565b60008484015250505050565b6000612e3f82612dff565b612e4981856128ff565b9350612e59818560208601612e0a565b612e62816124e2565b840191505092915050565b6000606082019050612e826000830186612be2565b8181036020830152612e948185612e34565b9050612ea3604083018461220c565b949350505050565b6000606082019050612ec06000830186612be2565b612ecd6020830185612be2565b612eda604083018461220c565b949350505050565b7f416363657373436f6e74726f6c3a206163636f756e7420000000000000000000600082015250565b6000612f186017836129a2565b9150612f2382612ee2565b601782019050919050565b6000612f3982612dff565b612f4381856129a2565b9350612f53818560208601612e0a565b80840191505092915050565b7f206973206d697373696e6720726f6c6520000000000000000000000000000000600082015250565b6000612f956011836129a2565b9150612fa082612f5f565b601182019050919050565b6000612fb682612f0b565b9150612fc28285612f2e565b9150612fcd82612f88565b9150612fd98284612f2e565b91508190509392505050565b60006020820190508181036000830152612fff8184612e34565b905092915050565b7f5361666545524332303a204552433230206f7065726174696f6e20646964206e60008201527f6f74207375636365656400000000000000000000000000000000000000000000602082015250565b6000613063602a836128ff565b915061306e82613007565b604082019050919050565b6000602082019050818103600083015261309281613056565b9050919050565b60006130a482612202565b9150600082036130b7576130b6612a0e565b5b600182039050919050565b7f537472696e67733a20686578206c656e67746820696e73756666696369656e74600082015250565b60006130f86020836128ff565b9150613103826130c2565b602082019050919050565b60006020820190508181036000830152613127816130eb565b9050919050565b7f416464726573733a20696e73756666696369656e742062616c616e636520666f60008201527f722063616c6c0000000000000000000000000000000000000000000000000000602082015250565b600061318a6026836128ff565b91506131958261312e565b604082019050919050565b600060208201905081810360008301526131b98161317d565b9050919050565b600081519050919050565b600081905092915050565b60006131e1826131c0565b6131eb81856131cb565b93506131fb818560208601612e0a565b80840191505092915050565b600061321382846131d6565b915081905092915050565b7f416464726573733a2063616c6c20746f206e6f6e2d636f6e7472616374000000600082015250565b6000613254601d836128ff565b915061325f8261321e565b602082019050919050565b6000602082019050818103600083015261328381613247565b905091905056fea2646970667358221220833301db9137e85833c7978c11043a13d82605aa6b342c33cdcd4c1f9c72552464736f6c63430008130033",
					"opcodes": "PUSH1 0xA0 PUSH1 0x40 MSTORE CALLVALUE DUP1 ISZERO PUSH2 0x10 JUMPI PUSH1 0x0 DUP1 REVERT JUMPDEST POP PUSH2 0x1F PUSH2 0x57 PUSH1 0x20 SHL PUSH1 0x20 SHR JUMP JUMPDEST PUSH20 0xFFFFFFFFFFFFFFFFFFFFFFFFFFFFFFFFFFFFFFFF AND PUSH1 0x80 DUP2 PUSH20 0xFFFFFFFFFFFFFFFFFFFFFFFFFFFFFFFFFFFFFFFF AND DUP2 MSTORE POP POP PUSH2 0x5F JUMP JUMPDEST PUSH1 0x0 CALLER SWAP1 POP SWAP1 JUMP JUMPDEST PUSH1 0x80 MLOAD PUSH2 0x32C0 PUSH3 0x7B PUSH1 0x0 CODECOPY PUSH1 0x0 PUSH2 0xC65 ADD MSTORE PUSH2 0x32C0 PUSH1 0x0 RETURN INVALID PUSH1 0x80 PUSH1 0x40 MSTORE CALLVALUE DUP1 ISZERO PUSH2 0x10 JUMPI PUSH1 0x0 DUP1 REVERT JUMPDEST POP PUSH1 0x4 CALLDATASIZE LT PUSH2 0x173 JUMPI PUSH1 0x0 CALLDATALOAD PUSH1 0xE0 SHR DUP1 PUSH4 0x5312EA8E GT PUSH2 0xDE JUMPI DUP1 PUSH4 0x93F1A40B GT PUSH2 0x97 JUMPI DUP1 PUSH4 0xB3ECB623 GT PUSH2 0x71 JUMPI DUP1 PUSH4 0xB3ECB623 EQ PUSH2 0x43A JUMPI DUP1 PUSH4 0xCCC57490 EQ PUSH2 0x46A JUMPI DUP1 PUSH4 0xD547741F EQ PUSH2 0x488 JUMPI DUP1 PUSH4 0xE2BBB158 EQ PUSH2 0x4A4 JUMPI PUSH2 0x173 JUMP JUMPDEST DUP1 PUSH4 0x93F1A40B EQ PUSH2 0x3CF JUMPI DUP1 PUSH4 0xA217FDDF EQ PUSH2 0x400 JUMPI DUP1 PUSH4 0xAD35E1CC EQ PUSH2 0x41E JUMPI PUSH2 0x173 JUMP JUMPDEST DUP1 PUSH4 0x5312EA8E EQ PUSH2 0x30F JUMPI DUP1 PUSH4 0x5E3E1581 EQ PUSH2 0x32B JUMPI DUP1 PUSH4 0x630B5BA1 EQ PUSH2 0x347 JUMPI DUP1 PUSH4 0x79838EF0 EQ PUSH2 0x351 JUMPI DUP1 PUSH4 0x7F37DF3B EQ PUSH2 0x36F JUMPI DUP1 PUSH4 0x91D14854 EQ PUSH2 0x39F JUMPI PUSH2 0x173 JUMP JUMPDEST DUP1 PUSH4 0x2F2FF15D GT PUSH2 0x130 JUMPI DUP1 PUSH4 0x2F2FF15D EQ PUSH2 0x265 JUMPI DUP1 PUSH4 0x36568ABE EQ PUSH2 0x281 JUMPI DUP1 PUSH4 0x3A0618FD EQ PUSH2 0x29D JUMPI DUP1 PUSH4 0x441A3E70 EQ PUSH2 0x2B9 JUMPI DUP1 PUSH4 0x48CD4CB1 EQ PUSH2 0x2D5 JUMPI DUP1 PUSH4 0x51EB05A6 EQ PUSH2 0x2F3 JUMPI PUSH2 0x173 JUMP JUMPDEST DUP1 PUSH4 0x1FFC9A7 EQ PUSH2 0x178 JUMPI DUP1 PUSH4 0x81E3EDA EQ PUSH2 0x1A8 JUMPI DUP1 PUSH4 0x1526FE27 EQ PUSH2 0x1C6 JUMPI DUP1 PUSH4 0x17CAF6F1 EQ PUSH2 0x1F9 JUMPI DUP1 PUSH4 0x23C64CE1 EQ PUSH2 0x217 JUMPI DUP1 PUSH4 0x248A9CA3 EQ PUSH2 0x235 JUMPI JUMPDEST PUSH1 0x0 DUP1 REVERT JUMPDEST PUSH2 0x192 PUSH1 0x4 DUP1 CALLDATASIZE SUB DUP2 ADD SWAP1 PUSH2 0x18D SWAP2 SWAP1 PUSH2 0x219F JUMP JUMPDEST PUSH2 0x4C0 JUMP JUMPDEST PUSH1 0x40 MLOAD PUSH2 0x19F SWAP2 SWAP1 PUSH2 0x21E7 JUMP JUMPDEST PUSH1 0x40 MLOAD DUP1 SWAP2 SUB SWAP1 RETURN JUMPDEST PUSH2 0x1B0 PUSH2 0x53A JUMP JUMPDEST PUSH1 0x40 MLOAD PUSH2 0x1BD SWAP2 SWAP1 PUSH2 0x221B JUMP JUMPDEST PUSH1 0x40 MLOAD DUP1 SWAP2 SUB SWAP1 RETURN JUMPDEST PUSH2 0x1E0 PUSH1 0x4 DUP1 CALLDATASIZE SUB DUP2 ADD SWAP1 PUSH2 0x1DB SWAP2 SWAP1 PUSH2 0x2262 JUMP JUMPDEST PUSH2 0x547 JUMP JUMPDEST PUSH1 0x40 MLOAD PUSH2 0x1F0 SWAP5 SWAP4 SWAP3 SWAP2 SWAP1 PUSH2 0x230E JUMP JUMPDEST PUSH1 0x40 MLOAD DUP1 SWAP2 SUB SWAP1 RETURN JUMPDEST PUSH2 0x201 PUSH2 0x5A7 JUMP JUMPDEST PUSH1 0x40 MLOAD PUSH2 0x20E SWAP2 SWAP1 PUSH2 0x221B JUMP JUMPDEST PUSH1 0x40 MLOAD DUP1 SWAP2 SUB SWAP1 RETURN JUMPDEST PUSH2 0x21F PUSH2 0x5AD JUMP JUMPDEST PUSH1 0x40 MLOAD PUSH2 0x22C SWAP2 SWAP1 PUSH2 0x2374 JUMP JUMPDEST PUSH1 0x40 MLOAD DUP1 SWAP2 SUB SWAP1 RETURN JUMPDEST PUSH2 0x24F PUSH1 0x4 DUP1 CALLDATASIZE SUB DUP2 ADD SWAP1 PUSH2 0x24A SWAP2 SWAP1 PUSH2 0x23C5 JUMP JUMPDEST PUSH2 0x5D3 JUMP JUMPDEST PUSH1 0x40 MLOAD PUSH2 0x25C SWAP2 SWAP1 PUSH2 0x2401 JUMP JUMPDEST PUSH1 0x40 MLOAD DUP1 SWAP2 SUB SWAP1 RETURN JUMPDEST PUSH2 0x27F PUSH1 0x4 DUP1 CALLDATASIZE SUB DUP2 ADD SWAP1 PUSH2 0x27A SWAP2 SWAP1 PUSH2 0x245A JUMP JUMPDEST PUSH2 0x5F2 JUMP JUMPDEST STOP JUMPDEST PUSH2 0x29B PUSH1 0x4 DUP1 CALLDATASIZE SUB DUP2 ADD SWAP1 PUSH2 0x296 SWAP2 SWAP1 PUSH2 0x245A JUMP JUMPDEST PUSH2 0x613 JUMP JUMPDEST STOP JUMPDEST PUSH2 0x2B7 PUSH1 0x4 DUP1 CALLDATASIZE SUB DUP2 ADD SWAP1 PUSH2 0x2B2 SWAP2 SWAP1 PUSH2 0x264A JUMP JUMPDEST PUSH2 0x696 JUMP JUMPDEST STOP JUMPDEST PUSH2 0x2D3 PUSH1 0x4 DUP1 CALLDATASIZE SUB DUP2 ADD SWAP1 PUSH2 0x2CE SWAP2 SWAP1 PUSH2 0x26CD JUMP JUMPDEST PUSH2 0x717 JUMP JUMPDEST STOP JUMPDEST PUSH2 0x2DD PUSH2 0x9B5 JUMP JUMPDEST PUSH1 0x40 MLOAD PUSH2 0x2EA SWAP2 SWAP1 PUSH2 0x221B JUMP JUMPDEST PUSH1 0x40 MLOAD DUP1 SWAP2 SUB SWAP1 RETURN JUMPDEST PUSH2 0x30D PUSH1 0x4 DUP1 CALLDATASIZE SUB DUP2 ADD SWAP1 PUSH2 0x308 SWAP2 SWAP1 PUSH2 0x2262 JUMP JUMPDEST PUSH2 0x9BB JUMP JUMPDEST STOP JUMPDEST PUSH2 0x329 PUSH1 0x4 DUP1 CALLDATASIZE SUB DUP2 ADD SWAP1 PUSH2 0x324 SWAP2 SWAP1 PUSH2 0x2262 JUMP JUMPDEST PUSH2 0xB35 JUMP JUMPDEST STOP JUMPDEST PUSH2 0x345 PUSH1 0x4 DUP1 CALLDATASIZE SUB DUP2 ADD SWAP1 PUSH2 0x340 SWAP2 SWAP1 PUSH2 0x27C3 JUMP JUMPDEST PUSH2 0xC63 JUMP JUMPDEST STOP JUMPDEST PUSH2 0x34F PUSH2 0xF8F JUMP JUMPDEST STOP JUMPDEST PUSH2 0x359 PUSH2 0xFC2 JUMP JUMPDEST PUSH1 0x40 MLOAD PUSH2 0x366 SWAP2 SWAP1 PUSH2 0x221B JUMP JUMPDEST PUSH1 0x40 MLOAD DUP1 SWAP2 SUB SWAP1 RETURN JUMPDEST PUSH2 0x389 PUSH1 0x4 DUP1 CALLDATASIZE SUB DUP2 ADD SWAP1 PUSH2 0x384 SWAP2 SWAP1 PUSH2 0x2816 JUMP JUMPDEST PUSH2 0xFC8 JUMP JUMPDEST PUSH1 0x40 MLOAD PUSH2 0x396 SWAP2 SWAP1 PUSH2 0x221B JUMP JUMPDEST PUSH1 0x40 MLOAD DUP1 SWAP2 SUB SWAP1 RETURN JUMPDEST PUSH2 0x3B9 PUSH1 0x4 DUP1 CALLDATASIZE SUB DUP2 ADD SWAP1 PUSH2 0x3B4 SWAP2 SWAP1 PUSH2 0x245A JUMP JUMPDEST PUSH2 0x1234 JUMP JUMPDEST PUSH1 0x40 MLOAD PUSH2 0x3C6 SWAP2 SWAP1 PUSH2 0x21E7 JUMP JUMPDEST PUSH1 0x40 MLOAD DUP1 SWAP2 SUB SWAP1 RETURN JUMPDEST PUSH2 0x3E9 PUSH1 0x4 DUP1 CALLDATASIZE SUB DUP2 ADD SWAP1 PUSH2 0x3E4 SWAP2 SWAP1 PUSH2 0x2816 JUMP JUMPDEST PUSH2 0x129E JUMP JUMPDEST PUSH1 0x40 MLOAD PUSH2 0x3F7 SWAP3 SWAP2 SWAP1 PUSH2 0x2856 JUMP JUMPDEST PUSH1 0x40 MLOAD DUP1 SWAP2 SUB SWAP1 RETURN JUMPDEST PUSH2 0x408 PUSH2 0x12CF JUMP JUMPDEST PUSH1 0x40 MLOAD PUSH2 0x415 SWAP2 SWAP1 PUSH2 0x2401 JUMP JUMPDEST PUSH1 0x40 MLOAD DUP1 SWAP2 SUB SWAP1 RETURN JUMPDEST PUSH2 0x438 PUSH1 0x4 DUP1 CALLDATASIZE SUB DUP2 ADD SWAP1 PUSH2 0x433 SWAP2 SWAP1 PUSH2 0x287F JUMP JUMPDEST PUSH2 0x12D6 JUMP JUMPDEST STOP JUMPDEST PUSH2 0x454 PUSH1 0x4 DUP1 CALLDATASIZE SUB DUP2 ADD SWAP1 PUSH2 0x44F SWAP2 SWAP1 PUSH2 0x28D2 JUMP JUMPDEST PUSH2 0x13EC JUMP JUMPDEST PUSH1 0x40 MLOAD PUSH2 0x461 SWAP2 SWAP1 PUSH2 0x221B JUMP JUMPDEST PUSH1 0x40 MLOAD DUP1 SWAP2 SUB SWAP1 RETURN JUMPDEST PUSH2 0x472 PUSH2 0x1433 JUMP JUMPDEST PUSH1 0x40 MLOAD PUSH2 0x47F SWAP2 SWAP1 PUSH2 0x2401 JUMP JUMPDEST PUSH1 0x40 MLOAD DUP1 SWAP2 SUB SWAP1 RETURN JUMPDEST PUSH2 0x4A2 PUSH1 0x4 DUP1 CALLDATASIZE SUB DUP2 ADD SWAP1 PUSH2 0x49D SWAP2 SWAP1 PUSH2 0x245A JUMP JUMPDEST PUSH2 0x145B JUMP JUMPDEST STOP JUMPDEST PUSH2 0x4BE PUSH1 0x4 DUP1 CALLDATASIZE SUB DUP2 ADD SWAP1 PUSH2 0x4B9 SWAP2 SWAP1 PUSH2 0x26CD JUMP JUMPDEST PUSH2 0x147C JUMP JUMPDEST STOP JUMPDEST PUSH1 0x0 PUSH32 0x7965DB0B00000000000000000000000000000000000000000000000000000000 PUSH28 0xFFFFFFFFFFFFFFFFFFFFFFFFFFFFFFFFFFFFFFFFFFFFFFFFFFFFFFFF NOT AND DUP3 PUSH28 0xFFFFFFFFFFFFFFFFFFFFFFFFFFFFFFFFFFFFFFFFFFFFFFFFFFFFFFFF NOT AND EQ DUP1 PUSH2 0x533 JUMPI POP PUSH2 0x532 DUP3 PUSH2 0x16E2 JUMP JUMPDEST JUMPDEST SWAP1 POP SWAP2 SWAP1 POP JUMP JUMPDEST PUSH1 0x0 PUSH1 0x6 DUP1 SLOAD SWAP1 POP SWAP1 POP SWAP1 JUMP JUMPDEST PUSH1 0x6 DUP2 DUP2 SLOAD DUP2 LT PUSH2 0x557 JUMPI PUSH1 0x0 DUP1 REVERT JUMPDEST SWAP1 PUSH1 0x0 MSTORE PUSH1 0x20 PUSH1 0x0 KECCAK256 SWAP1 PUSH1 0x4 MUL ADD PUSH1 0x0 SWAP2 POP SWAP1 POP DUP1 PUSH1 0x0 ADD PUSH1 0x0 SWAP1 SLOAD SWAP1 PUSH2 0x100 EXP SWAP1 DIV PUSH20 0xFFFFFFFFFFFFFFFFFFFFFFFFFFFFFFFFFFFFFFFF AND SWAP1 DUP1 PUSH1 0x1 ADD SLOAD SWAP1 DUP1 PUSH1 0x2 ADD SLOAD SWAP1 DUP1 PUSH1 0x3 ADD SLOAD SWAP1 POP DUP5 JUMP JUMPDEST PUSH1 0x4 SLOAD DUP2 JUMP JUMPDEST PUSH1 0x1 PUSH1 0x0 SWAP1 SLOAD SWAP1 PUSH2 0x100 EXP SWAP1 DIV PUSH20 0xFFFFFFFFFFFFFFFFFFFFFFFFFFFFFFFFFFFFFFFF AND DUP2 JUMP JUMPDEST PUSH1 0x0 DUP1 PUSH1 0x0 DUP4 DUP2 MSTORE PUSH1 0x20 ADD SWAP1 DUP2 MSTORE PUSH1 0x20 ADD PUSH1 0x0 KECCAK256 PUSH1 0x1 ADD SLOAD SWAP1 POP SWAP2 SWAP1 POP JUMP JUMPDEST PUSH2 0x5FB DUP3 PUSH2 0x5D3 JUMP JUMPDEST PUSH2 0x604 DUP2 PUSH2 0x174C JUMP JUMPDEST PUSH2 0x60E DUP4 DUP4 PUSH2 0x1760 JUMP JUMPDEST POP POP POP JUMP JUMPDEST PUSH2 0x61B PUSH2 0x1840 JUMP JUMPDEST PUSH20 0xFFFFFFFFFFFFFFFFFFFFFFFFFFFFFFFFFFFFFFFF AND DUP2 PUSH20 0xFFFFFFFFFFFFFFFFFFFFFFFFFFFFFFFFFFFFFFFF AND EQ PUSH2 0x688 JUMPI PUSH1 0x40 MLOAD PUSH32 0x8C379A000000000000000000000000000000000000000000000000000000000 DUP2 MSTORE PUSH1 0x4 ADD PUSH2 0x67F SWAP1 PUSH2 0x2982 JUMP JUMPDEST PUSH1 0x40 MLOAD DUP1 SWAP2 SUB SWAP1 REVERT JUMPDEST PUSH2 0x692 DUP3 DUP3 PUSH2 0x1848 JUMP JUMPDEST POP POP JUMP JUMPDEST PUSH1 0x40 MLOAD PUSH1 0x20 ADD PUSH2 0x6A5 SWAP1 PUSH2 0x29F9 JUMP JUMPDEST PUSH1 0x40 MLOAD PUSH1 0x20 DUP2 DUP4 SUB SUB DUP2 MSTORE SWAP1 PUSH1 0x40 MSTORE DUP1 MLOAD SWAP1 PUSH1 0x20 ADD KECCAK256 PUSH2 0x6C4 DUP2 PUSH2 0x174C JUMP JUMPDEST DUP2 ISZERO PUSH2 0x6D3 JUMPI PUSH2 0x6D2 PUSH2 0xF8F JUMP JUMPDEST JUMPDEST PUSH1 0x0 PUSH1 0x3 SLOAD NUMBER GT PUSH2 0x6E6 JUMPI PUSH1 0x3 SLOAD PUSH2 0x6E8 JUMP JUMPDEST NUMBER JUMPDEST SWAP1 POP DUP5 PUSH1 0x4 PUSH1 0x0 DUP3 DUP3 SLOAD PUSH2 0x6FC SWAP2 SWAP1 PUSH2 0x2A3D JUMP JUMPDEST SWAP3 POP POP DUP2 SWAP1 SSTORE POP PUSH2 0x70F DUP7 DUP7 DUP7 DUP5 PUSH2 0x1929 JUMP JUMPDEST POP POP POP POP POP POP JUMP JUMPDEST PUSH1 0x0 PUSH1 0x6 DUP4 DUP2 SLOAD DUP2 LT PUSH2 0x72D JUMPI PUSH2 0x72C PUSH2 0x2A71 JUMP JUMPDEST JUMPDEST SWAP1 PUSH1 0x0 MSTORE PUSH1 0x20 PUSH1 0x0 KECCAK256 SWAP1 PUSH1 0x4 MUL ADD SWAP1 POP PUSH1 0x0 PUSH1 0x7 PUSH1 0x0 DUP6 DUP2 MSTORE PUSH1 0x20 ADD SWAP1 DUP2 MSTORE PUSH1 0x20 ADD PUSH1 0x0 KECCAK256 PUSH1 0x0 PUSH2 0x75C PUSH2 0x1840 JUMP JUMPDEST PUSH20 0xFFFFFFFFFFFFFFFFFFFFFFFFFFFFFFFFFFFFFFFF AND PUSH20 0xFFFFFFFFFFFFFFFFFFFFFFFFFFFFFFFFFFFFFFFF AND DUP2 MSTORE PUSH1 0x20 ADD SWAP1 DUP2 MSTORE PUSH1 0x20 ADD PUSH1 0x0 KECCAK256 SWAP1 POP DUP3 DUP2 PUSH1 0x0 ADD SLOAD LT ISZERO PUSH2 0x7DF JUMPI PUSH1 0x40 MLOAD PUSH32 0x8C379A000000000000000000000000000000000000000000000000000000000 DUP2 MSTORE PUSH1 0x4 ADD PUSH2 0x7D6 SWAP1 PUSH2 0x2AEC JUMP JUMPDEST PUSH1 0x40 MLOAD DUP1 SWAP2 SUB SWAP1 REVERT JUMPDEST PUSH2 0x7E8 DUP5 PUSH2 0x9BB JUMP JUMPDEST PUSH1 0x0 DUP2 PUSH1 0x1 ADD SLOAD PUSH5 0xE8D4A51000 DUP5 PUSH1 0x3 ADD SLOAD DUP5 PUSH1 0x0 ADD SLOAD PUSH2 0x809 SWAP2 SWAP1 PUSH2 0x2B0C JUMP JUMPDEST PUSH2 0x813 SWAP2 SWAP1 PUSH2 0x2B7D JUMP JUMPDEST PUSH2 0x81D SWAP2 SWAP1 PUSH2 0x2BAE JUMP JUMPDEST SWAP1 POP PUSH1 0x0 DUP2 GT ISZERO PUSH2 0x8D1 JUMPI PUSH1 0x1 PUSH1 0x0 SWAP1 SLOAD SWAP1 PUSH2 0x100 EXP SWAP1 DIV PUSH20 0xFFFFFFFFFFFFFFFFFFFFFFFFFFFFFFFFFFFFFFFF AND PUSH20 0xFFFFFFFFFFFFFFFFFFFFFFFFFFFFFFFFFFFFFFFF AND PUSH4 0x40C10F19 PUSH2 0x86E PUSH2 0x1840 JUMP JUMPDEST DUP4 PUSH1 0x40 MLOAD DUP4 PUSH4 0xFFFFFFFF AND PUSH1 0xE0 SHL DUP2 MSTORE PUSH1 0x4 ADD PUSH2 0x88C SWAP3 SWAP2 SWAP1 PUSH2 0x2BF1 JUMP JUMPDEST PUSH1 0x20 PUSH1 0x40 MLOAD DUP1 DUP4 SUB DUP2 PUSH1 0x0 DUP8 GAS CALL ISZERO DUP1 ISZERO PUSH2 0x8AB JUMPI RETURNDATASIZE PUSH1 0x0 DUP1 RETURNDATACOPY RETURNDATASIZE PUSH1 0x0 REVERT JUMPDEST POP POP POP POP PUSH1 0x40 MLOAD RETURNDATASIZE PUSH1 0x1F NOT PUSH1 0x1F DUP3 ADD AND DUP3 ADD DUP1 PUSH1 0x40 MSTORE POP DUP2 ADD SWAP1 PUSH2 0x8CF SWAP2 SWAP1 PUSH2 0x2C2F JUMP JUMPDEST POP JUMPDEST PUSH1 0x0 DUP5 GT ISZERO PUSH2 0x92C JUMPI DUP4 DUP3 PUSH1 0x0 ADD PUSH1 0x0 DUP3 DUP3 SLOAD PUSH2 0x8EE SWAP2 SWAP1 PUSH2 0x2BAE JUMP JUMPDEST SWAP3 POP POP DUP2 SWAP1 SSTORE POP PUSH2 0x92B DUP4 PUSH1 0x0 ADD PUSH1 0x0 SWAP1 SLOAD SWAP1 PUSH2 0x100 EXP SWAP1 DIV PUSH20 0xFFFFFFFFFFFFFFFFFFFFFFFFFFFFFFFFFFFFFFFF AND PUSH2 0x925 PUSH2 0x1840 JUMP JUMPDEST DUP7 PUSH2 0x1A64 JUMP JUMPDEST JUMPDEST PUSH5 0xE8D4A51000 DUP4 PUSH1 0x3 ADD SLOAD DUP4 PUSH1 0x0 ADD SLOAD PUSH2 0x946 SWAP2 SWAP1 PUSH2 0x2B0C JUMP JUMPDEST PUSH2 0x950 SWAP2 SWAP1 PUSH2 0x2B7D JUMP JUMPDEST DUP3 PUSH1 0x1 ADD DUP2 SWAP1 SSTORE POP DUP5 PUSH2 0x961 PUSH2 0x1840 JUMP JUMPDEST PUSH20 0xFFFFFFFFFFFFFFFFFFFFFFFFFFFFFFFFFFFFFFFF AND PUSH32 0xF279E6A1F5E320CCA91135676D9CB6E44CA8A08C0B88342BCDB1144F6511B568 DUP7 PUSH1 0x40 MLOAD PUSH2 0x9A6 SWAP2 SWAP1 PUSH2 0x221B JUMP JUMPDEST PUSH1 0x40 MLOAD DUP1 SWAP2 SUB SWAP1 LOG3 POP POP POP POP POP JUMP JUMPDEST PUSH1 0x3 SLOAD DUP2 JUMP JUMPDEST PUSH1 0x0 PUSH1 0x6 DUP3 DUP2 SLOAD DUP2 LT PUSH2 0x9D1 JUMPI PUSH2 0x9D0 PUSH2 0x2A71 JUMP JUMPDEST JUMPDEST SWAP1 PUSH1 0x0 MSTORE PUSH1 0x20 PUSH1 0x0 KECCAK256 SWAP1 PUSH1 0x4 MUL ADD SWAP1 POP DUP1 PUSH1 0x2 ADD SLOAD NUMBER GT PUSH2 0x9F2 JUMPI POP PUSH2 0xB32 JUMP JUMPDEST PUSH1 0x0 DUP2 PUSH1 0x0 ADD PUSH1 0x0 SWAP1 SLOAD SWAP1 PUSH2 0x100 EXP SWAP1 DIV PUSH20 0xFFFFFFFFFFFFFFFFFFFFFFFFFFFFFFFFFFFFFFFF AND PUSH20 0xFFFFFFFFFFFFFFFFFFFFFFFFFFFFFFFFFFFFFFFF AND PUSH4 0x70A08231 ADDRESS PUSH1 0x40 MLOAD DUP3 PUSH4 0xFFFFFFFF AND PUSH1 0xE0 SHL DUP2 MSTORE PUSH1 0x4 ADD PUSH2 0xA51 SWAP2 SWAP1 PUSH2 0x2C5C JUMP JUMPDEST PUSH1 0x20 PUSH1 0x40 MLOAD DUP1 DUP4 SUB DUP2 DUP7 GAS STATICCALL ISZERO DUP1 ISZERO PUSH2 0xA6E JUMPI RETURNDATASIZE PUSH1 0x0 DUP1 RETURNDATACOPY RETURNDATASIZE PUSH1 0x0 REVERT JUMPDEST POP POP POP POP PUSH1 0x40 MLOAD RETURNDATASIZE PUSH1 0x1F NOT PUSH1 0x1F DUP3 ADD AND DUP3 ADD DUP1 PUSH1 0x40 MSTORE POP DUP2 ADD SWAP1 PUSH2 0xA92 SWAP2 SWAP1 PUSH2 0x2C8C JUMP JUMPDEST SWAP1 POP PUSH1 0x0 DUP2 SUB PUSH2 0xAAC JUMPI NUMBER DUP3 PUSH1 0x2 ADD DUP2 SWAP1 SSTORE POP POP POP PUSH2 0xB32 JUMP JUMPDEST PUSH1 0x0 DUP3 PUSH1 0x2 ADD SLOAD NUMBER PUSH2 0xABE SWAP2 SWAP1 PUSH2 0x2BAE JUMP JUMPDEST SWAP1 POP PUSH1 0x0 PUSH1 0x4 SLOAD DUP5 PUSH1 0x1 ADD SLOAD PUSH1 0x2 SLOAD DUP5 PUSH2 0xAD8 SWAP2 SWAP1 PUSH2 0x2B0C JUMP JUMPDEST PUSH2 0xAE2 SWAP2 SWAP1 PUSH2 0x2B0C JUMP JUMPDEST PUSH2 0xAEC SWAP2 SWAP1 PUSH2 0x2B7D JUMP JUMPDEST SWAP1 POP DUP3 PUSH5 0xE8D4A51000 DUP3 PUSH2 0xB00 SWAP2 SWAP1 PUSH2 0x2B0C JUMP JUMPDEST PUSH2 0xB0A SWAP2 SWAP1 PUSH2 0x2B7D JUMP JUMPDEST DUP5 PUSH1 0x3 ADD PUSH1 0x0 DUP3 DUP3 SLOAD PUSH2 0xB1D SWAP2 SWAP1 PUSH2 0x2A3D JUMP JUMPDEST SWAP3 POP POP DUP2 SWAP1 SSTORE POP NUMBER DUP5 PUSH1 0x2 ADD DUP2 SWAP1 SSTORE POP POP POP POP POP JUMPDEST POP JUMP JUMPDEST PUSH1 0x0 PUSH1 0x6 DUP3 DUP2 SLOAD DUP2 LT PUSH2 0xB4B JUMPI PUSH2 0xB4A PUSH2 0x2A71 JUMP JUMPDEST JUMPDEST SWAP1 PUSH1 0x0 MSTORE PUSH1 0x20 PUSH1 0x0 KECCAK256 SWAP1 PUSH1 0x4 MUL ADD SWAP1 POP PUSH1 0x0 PUSH1 0x7 PUSH1 0x0 DUP5 DUP2 MSTORE PUSH1 0x20 ADD SWAP1 DUP2 MSTORE PUSH1 0x20 ADD PUSH1 0x0 KECCAK256 PUSH1 0x0 PUSH2 0xB7A PUSH2 0x1840 JUMP JUMPDEST PUSH20 0xFFFFFFFFFFFFFFFFFFFFFFFFFFFFFFFFFFFFFFFF AND PUSH20 0xFFFFFFFFFFFFFFFFFFFFFFFFFFFFFFFFFFFFFFFF AND DUP2 MSTORE PUSH1 0x20 ADD SWAP1 DUP2 MSTORE PUSH1 0x20 ADD PUSH1 0x0 KECCAK256 SWAP1 POP PUSH2 0xBF0 DUP3 PUSH1 0x0 ADD PUSH1 0x0 SWAP1 SLOAD SWAP1 PUSH2 0x100 EXP SWAP1 DIV PUSH20 0xFFFFFFFFFFFFFFFFFFFFFFFFFFFFFFFFFFFFFFFF AND PUSH2 0xBE6 PUSH2 0x1840 JUMP JUMPDEST DUP4 PUSH1 0x0 ADD SLOAD PUSH2 0x1A64 JUMP JUMPDEST DUP3 PUSH2 0xBF9 PUSH2 0x1840 JUMP JUMPDEST PUSH20 0xFFFFFFFFFFFFFFFFFFFFFFFFFFFFFFFFFFFFFFFF AND PUSH32 0xBB757047C2B5F3974FE26B7C10F732E7BCE710B0952A71082702781E62AE0595 DUP4 PUSH1 0x0 ADD SLOAD PUSH1 0x40 MLOAD PUSH2 0xC42 SWAP2 SWAP1 PUSH2 0x221B JUMP JUMPDEST PUSH1 0x40 MLOAD DUP1 SWAP2 SUB SWAP1 LOG3 PUSH1 0x0 DUP2 PUSH1 0x0 ADD DUP2 SWAP1 SSTORE POP PUSH1 0x0 DUP2 PUSH1 0x1 ADD DUP2 SWAP1 SSTORE POP POP POP POP JUMP JUMPDEST PUSH32 0x0 PUSH20 0xFFFFFFFFFFFFFFFFFFFFFFFFFFFFFFFFFFFFFFFF AND PUSH2 0xCA2 PUSH2 0x1840 JUMP JUMPDEST PUSH20 0xFFFFFFFFFFFFFFFFFFFFFFFFFFFFFFFFFFFFFFFF AND EQ PUSH2 0xCF8 JUMPI PUSH1 0x40 MLOAD PUSH32 0x8C379A000000000000000000000000000000000000000000000000000000000 DUP2 MSTORE PUSH1 0x4 ADD PUSH2 0xCEF SWAP1 PUSH2 0x2D2B JUMP JUMPDEST PUSH1 0x40 MLOAD DUP1 SWAP2 SUB SWAP1 REVERT JUMPDEST PUSH1 0x0 PUSH20 0xFFFFFFFFFFFFFFFFFFFFFFFFFFFFFFFFFFFFFFFF AND DUP4 PUSH20 0xFFFFFFFFFFFFFFFFFFFFFFFFFFFFFFFFFFFFFFFF AND SUB PUSH2 0xD67 JUMPI PUSH1 0x40 MLOAD PUSH32 0x8C379A000000000000000000000000000000000000000000000000000000000 DUP2 MSTORE PUSH1 0x4 ADD PUSH2 0xD5E SWAP1 PUSH2 0x2D97 JUMP JUMPDEST PUSH1 0x40 MLOAD DUP1 SWAP2 SUB SWAP1 REVERT JUMPDEST PUSH2 0xD9C PUSH1 0x40 MLOAD PUSH1 0x20 ADD PUSH2 0xD79 SWAP1 PUSH2 0x29F9 JUMP JUMPDEST PUSH1 0x40 MLOAD PUSH1 0x20 DUP2 DUP4 SUB SUB DUP2 MSTORE SWAP1 PUSH1 0x40 MSTORE DUP1 MLOAD SWAP1 PUSH1 0x20 ADD KECCAK256 PUSH2 0xD97 PUSH2 0x1840 JUMP JUMPDEST PUSH2 0x1760 JUMP JUMPDEST PUSH2 0xDB0 PUSH1 0x0 DUP1 SHL PUSH2 0xDAB PUSH2 0x1840 JUMP JUMPDEST PUSH2 0x1760 JUMP JUMPDEST DUP3 PUSH1 0x1 PUSH1 0x0 PUSH2 0x100 EXP DUP2 SLOAD DUP2 PUSH20 0xFFFFFFFFFFFFFFFFFFFFFFFFFFFFFFFFFFFFFFFF MUL NOT AND SWAP1 DUP4 PUSH20 0xFFFFFFFFFFFFFFFFFFFFFFFFFFFFFFFFFFFFFFFF AND MUL OR SWAP1 SSTORE POP PUSH8 0x1BC16D674EC80000 PUSH1 0x2 DUP2 SWAP1 SSTORE POP PUSH1 0x0 PUSH1 0xC SWAP1 POP PUSH1 0x0 DUP2 TIMESTAMP PUSH2 0x708 DUP6 PUSH2 0xE18 SWAP2 SWAP1 PUSH2 0x2A3D JUMP JUMPDEST PUSH2 0xE22 SWAP2 SWAP1 PUSH2 0x2BAE JUMP JUMPDEST PUSH2 0xE2C SWAP2 SWAP1 PUSH2 0x2B7D JUMP JUMPDEST SWAP1 POP DUP1 NUMBER PUSH2 0xE3A SWAP2 SWAP1 PUSH2 0x2A3D JUMP JUMPDEST PUSH1 0x3 DUP2 SWAP1 SSTORE POP PUSH2 0x3E8 PUSH1 0x4 DUP2 SWAP1 SSTORE POP PUSH1 0x0 PUSH1 0x6 DUP1 SLOAD SWAP1 POP SUB PUSH2 0xF6D JUMPI PUSH2 0xEB3 DUP5 PUSH1 0x0 PUSH1 0x3 DUP2 LT PUSH2 0xE6D JUMPI PUSH2 0xE6C PUSH2 0x2A71 JUMP JUMPDEST JUMPDEST PUSH1 0x20 MUL ADD MLOAD PUSH2 0x190 PUSH1 0x40 MLOAD DUP1 PUSH1 0x40 ADD PUSH1 0x40 MSTORE DUP1 PUSH1 0x8 DUP2 MSTORE PUSH1 0x20 ADD PUSH32 0x485944542D424E42000000000000000000000000000000000000000000000000 DUP2 MSTORE POP PUSH1 0x3 SLOAD PUSH2 0x1929 JUMP JUMPDEST PUSH2 0xF10 DUP5 PUSH1 0x1 PUSH1 0x3 DUP2 LT PUSH2 0xECA JUMPI PUSH2 0xEC9 PUSH2 0x2A71 JUMP JUMPDEST JUMPDEST PUSH1 0x20 MUL ADD MLOAD PUSH2 0x190 PUSH1 0x40 MLOAD DUP1 PUSH1 0x40 ADD PUSH1 0x40 MSTORE DUP1 PUSH1 0x9 DUP2 MSTORE PUSH1 0x20 ADD PUSH32 0x485944542D555344540000000000000000000000000000000000000000000000 DUP2 MSTORE POP PUSH1 0x3 SLOAD PUSH2 0x1929 JUMP JUMPDEST PUSH2 0xF6C DUP5 PUSH1 0x2 PUSH1 0x3 DUP2 LT PUSH2 0xF27 JUMPI PUSH2 0xF26 PUSH2 0x2A71 JUMP JUMPDEST JUMPDEST PUSH1 0x20 MUL ADD MLOAD PUSH1 0xC8 PUSH1 0x40 MLOAD DUP1 PUSH1 0x40 ADD PUSH1 0x40 MSTORE DUP1 PUSH1 0x9 DUP2 MSTORE PUSH1 0x20 ADD PUSH32 0x485944542D485947540000000000000000000000000000000000000000000000 DUP2 MSTORE POP PUSH1 0x3 SLOAD PUSH2 0x1929 JUMP JUMPDEST JUMPDEST PUSH1 0x1 PUSH1 0x5 PUSH1 0x0 PUSH2 0x100 EXP DUP2 SLOAD DUP2 PUSH1 0xFF MUL NOT AND SWAP1 DUP4 ISZERO ISZERO MUL OR SWAP1 SSTORE POP POP POP POP POP POP JUMP JUMPDEST PUSH1 0x0 PUSH1 0x6 DUP1 SLOAD SWAP1 POP SWAP1 POP PUSH1 0x0 JUMPDEST DUP2 DUP2 LT ISZERO PUSH2 0xFBE JUMPI PUSH2 0xFAD DUP2 PUSH2 0x9BB JUMP JUMPDEST DUP1 PUSH2 0xFB7 SWAP1 PUSH2 0x2DB7 JUMP JUMPDEST SWAP1 POP PUSH2 0xF9C JUMP JUMPDEST POP POP JUMP JUMPDEST PUSH1 0x2 SLOAD DUP2 JUMP JUMPDEST PUSH1 0x0 DUP1 PUSH1 0x6 DUP5 DUP2 SLOAD DUP2 LT PUSH2 0xFDF JUMPI PUSH2 0xFDE PUSH2 0x2A71 JUMP JUMPDEST JUMPDEST SWAP1 PUSH1 0x0 MSTORE PUSH1 0x20 PUSH1 0x0 KECCAK256 SWAP1 PUSH1 0x4 MUL ADD PUSH1 0x40 MLOAD DUP1 PUSH1 0x80 ADD PUSH1 0x40 MSTORE SWAP1 DUP2 PUSH1 0x0 DUP3 ADD PUSH1 0x0 SWAP1 SLOAD SWAP1 PUSH2 0x100 EXP SWAP1 DIV PUSH20 0xFFFFFFFFFFFFFFFFFFFFFFFFFFFFFFFFFFFFFFFF AND PUSH20 0xFFFFFFFFFFFFFFFFFFFFFFFFFFFFFFFFFFFFFFFF AND PUSH20 0xFFFFFFFFFFFFFFFFFFFFFFFFFFFFFFFFFFFFFFFF AND DUP2 MSTORE PUSH1 0x20 ADD PUSH1 0x1 DUP3 ADD SLOAD DUP2 MSTORE PUSH1 0x20 ADD PUSH1 0x2 DUP3 ADD SLOAD DUP2 MSTORE PUSH1 0x20 ADD PUSH1 0x3 DUP3 ADD SLOAD DUP2 MSTORE POP POP SWAP1 POP PUSH1 0x0 PUSH1 0x7 PUSH1 0x0 DUP7 DUP2 MSTORE PUSH1 0x20 ADD SWAP1 DUP2 MSTORE PUSH1 0x20 ADD PUSH1 0x0 KECCAK256 PUSH1 0x0 DUP6 PUSH20 0xFFFFFFFFFFFFFFFFFFFFFFFFFFFFFFFFFFFFFFFF AND PUSH20 0xFFFFFFFFFFFFFFFFFFFFFFFFFFFFFFFFFFFFFFFF AND DUP2 MSTORE PUSH1 0x20 ADD SWAP1 DUP2 MSTORE PUSH1 0x20 ADD PUSH1 0x0 KECCAK256 PUSH1 0x40 MLOAD DUP1 PUSH1 0x40 ADD PUSH1 0x40 MSTORE SWAP1 DUP2 PUSH1 0x0 DUP3 ADD SLOAD DUP2 MSTORE PUSH1 0x20 ADD PUSH1 0x1 DUP3 ADD SLOAD DUP2 MSTORE POP POP SWAP1 POP PUSH1 0x0 DUP3 PUSH1 0x60 ADD MLOAD SWAP1 POP PUSH1 0x0 DUP4 PUSH1 0x0 ADD MLOAD PUSH20 0xFFFFFFFFFFFFFFFFFFFFFFFFFFFFFFFFFFFFFFFF AND PUSH4 0x70A08231 ADDRESS PUSH1 0x40 MLOAD DUP3 PUSH4 0xFFFFFFFF AND PUSH1 0xE0 SHL DUP2 MSTORE PUSH1 0x4 ADD PUSH2 0x1129 SWAP2 SWAP1 PUSH2 0x2C5C JUMP JUMPDEST PUSH1 0x20 PUSH1 0x40 MLOAD DUP1 DUP4 SUB DUP2 DUP7 GAS STATICCALL ISZERO DUP1 ISZERO PUSH2 0x1146 JUMPI RETURNDATASIZE PUSH1 0x0 DUP1 RETURNDATACOPY RETURNDATASIZE PUSH1 0x0 REVERT JUMPDEST POP POP POP POP PUSH1 0x40 MLOAD RETURNDATASIZE PUSH1 0x1F NOT PUSH1 0x1F DUP3 ADD AND DUP3 ADD DUP1 PUSH1 0x40 MSTORE POP DUP2 ADD SWAP1 PUSH2 0x116A SWAP2 SWAP1 PUSH2 0x2C8C JUMP JUMPDEST SWAP1 POP DUP4 PUSH1 0x40 ADD MLOAD NUMBER GT DUP1 ISZERO PUSH2 0x1180 JUMPI POP PUSH1 0x0 DUP2 EQ ISZERO JUMPDEST ISZERO PUSH2 0x11F3 JUMPI PUSH1 0x0 DUP5 PUSH1 0x40 ADD MLOAD NUMBER PUSH2 0x1197 SWAP2 SWAP1 PUSH2 0x2BAE JUMP JUMPDEST SWAP1 POP PUSH1 0x0 PUSH1 0x4 SLOAD DUP7 PUSH1 0x20 ADD MLOAD PUSH1 0x2 SLOAD DUP5 PUSH2 0x11B1 SWAP2 SWAP1 PUSH2 0x2B0C JUMP JUMPDEST PUSH2 0x11BB SWAP2 SWAP1 PUSH2 0x2B0C JUMP JUMPDEST PUSH2 0x11C5 SWAP2 SWAP1 PUSH2 0x2B7D JUMP JUMPDEST SWAP1 POP DUP3 PUSH5 0xE8D4A51000 DUP3 PUSH2 0x11D9 SWAP2 SWAP1 PUSH2 0x2B0C JUMP JUMPDEST PUSH2 0x11E3 SWAP2 SWAP1 PUSH2 0x2B7D JUMP JUMPDEST DUP5 PUSH2 0x11EE SWAP2 SWAP1 PUSH2 0x2A3D JUMP JUMPDEST SWAP4 POP POP POP JUMPDEST PUSH1 0x0 DUP4 PUSH1 0x20 ADD MLOAD PUSH5 0xE8D4A51000 DUP5 DUP7 PUSH1 0x0 ADD MLOAD PUSH2 0x1210 SWAP2 SWAP1 PUSH2 0x2B0C JUMP JUMPDEST PUSH2 0x121A SWAP2 SWAP1 PUSH2 0x2B7D JUMP JUMPDEST PUSH2 0x1224 SWAP2 SWAP1 PUSH2 0x2BAE JUMP JUMPDEST SWAP1 POP DUP1 SWAP6 POP POP POP POP POP POP SWAP3 SWAP2 POP POP JUMP JUMPDEST PUSH1 0x0 DUP1 PUSH1 0x0 DUP5 DUP2 MSTORE PUSH1 0x20 ADD SWAP1 DUP2 MSTORE PUSH1 0x20 ADD PUSH1 0x0 KECCAK256 PUSH1 0x0 ADD PUSH1 0x0 DUP4 PUSH20 0xFFFFFFFFFFFFFFFFFFFFFFFFFFFFFFFFFFFFFFFF AND PUSH20 0xFFFFFFFFFFFFFFFFFFFFFFFFFFFFFFFFFFFFFFFF AND DUP2 MSTORE PUSH1 0x20 ADD SWAP1 DUP2 MSTORE PUSH1 0x20 ADD PUSH1 0x0 KECCAK256 PUSH1 0x0 SWAP1 SLOAD SWAP1 PUSH2 0x100 EXP SWAP1 DIV PUSH1 0xFF AND SWAP1 POP SWAP3 SWAP2 POP POP JUMP JUMPDEST PUSH1 0x7 PUSH1 0x20 MSTORE DUP2 PUSH1 0x0 MSTORE PUSH1 0x40 PUSH1 0x0 KECCAK256 PUSH1 0x20 MSTORE DUP1 PUSH1 0x0 MSTORE PUSH1 0x40 PUSH1 0x0 KECCAK256 PUSH1 0x0 SWAP2 POP SWAP2 POP POP DUP1 PUSH1 0x0 ADD SLOAD SWAP1 DUP1 PUSH1 0x1 ADD SLOAD SWAP1 POP DUP3 JUMP JUMPDEST PUSH1 0x0 DUP1 SHL DUP2 JUMP JUMPDEST PUSH1 0x40 MLOAD PUSH1 0x20 ADD PUSH2 0x12E5 SWAP1 PUSH2 0x29F9 JUMP JUMPDEST PUSH1 0x40 MLOAD PUSH1 0x20 DUP2 DUP4 SUB SUB DUP2 MSTORE SWAP1 PUSH1 0x40 MSTORE DUP1 MLOAD SWAP1 PUSH1 0x20 ADD KECCAK256 PUSH2 0x1304 DUP2 PUSH2 0x174C JUMP JUMPDEST DUP2 ISZERO PUSH2 0x1313 JUMPI PUSH2 0x1312 PUSH2 0xF8F JUMP JUMPDEST JUMPDEST DUP3 PUSH1 0x6 DUP6 DUP2 SLOAD DUP2 LT PUSH2 0x1328 JUMPI PUSH2 0x1327 PUSH2 0x2A71 JUMP JUMPDEST JUMPDEST SWAP1 PUSH1 0x0 MSTORE PUSH1 0x20 PUSH1 0x0 KECCAK256 SWAP1 PUSH1 0x4 MUL ADD PUSH1 0x1 ADD SLOAD PUSH1 0x4 SLOAD PUSH2 0x1347 SWAP2 SWAP1 PUSH2 0x2BAE JUMP JUMPDEST PUSH2 0x1351 SWAP2 SWAP1 PUSH2 0x2A3D JUMP JUMPDEST PUSH1 0x4 DUP2 SWAP1 SSTORE POP PUSH1 0x0 PUSH1 0x6 DUP6 DUP2 SLOAD DUP2 LT PUSH2 0x136D JUMPI PUSH2 0x136C PUSH2 0x2A71 JUMP JUMPDEST JUMPDEST SWAP1 PUSH1 0x0 MSTORE PUSH1 0x20 PUSH1 0x0 KECCAK256 SWAP1 PUSH1 0x4 MUL ADD PUSH1 0x1 ADD SLOAD SWAP1 POP DUP4 PUSH1 0x6 DUP7 DUP2 SLOAD DUP2 LT PUSH2 0x1396 JUMPI PUSH2 0x1395 PUSH2 0x2A71 JUMP JUMPDEST JUMPDEST SWAP1 PUSH1 0x0 MSTORE PUSH1 0x20 PUSH1 0x0 KECCAK256 SWAP1 PUSH1 0x4 MUL ADD PUSH1 0x1 ADD DUP2 SWAP1 SSTORE POP DUP5 PUSH32 0x5B051D9271F3DACC9672CA07AF039F84D81B973EE9174797456DD6238BF18FEF DUP6 DUP4 PUSH1 0x40 MLOAD PUSH2 0x13DD SWAP3 SWAP2 SWAP1 PUSH2 0x2856 JUMP JUMPDEST PUSH1 0x40 MLOAD DUP1 SWAP2 SUB SWAP1 LOG2 POP POP POP POP POP JUMP JUMPDEST PUSH1 0x0 DUP1 PUSH1 0x0 JUMPDEST PUSH1 0x6 DUP1 SLOAD SWAP1 POP DUP2 LT ISZERO PUSH2 0x1429 JUMPI PUSH2 0x1409 DUP2 DUP6 PUSH2 0xFC8 JUMP JUMPDEST DUP3 PUSH2 0x1414 SWAP2 SWAP1 PUSH2 0x2A3D JUMP JUMPDEST SWAP2 POP DUP1 DUP1 PUSH2 0x1421 SWAP1 PUSH2 0x2DB7 JUMP JUMPDEST SWAP2 POP POP PUSH2 0x13F2 JUMP JUMPDEST POP DUP1 SWAP2 POP POP SWAP2 SWAP1 POP JUMP JUMPDEST PUSH1 0x40 MLOAD PUSH1 0x20 ADD PUSH2 0x1442 SWAP1 PUSH2 0x29F9 JUMP JUMPDEST PUSH1 0x40 MLOAD PUSH1 0x20 DUP2 DUP4 SUB SUB DUP2 MSTORE SWAP1 PUSH1 0x40 MSTORE DUP1 MLOAD SWAP1 PUSH1 0x20 ADD KECCAK256 DUP2 JUMP JUMPDEST PUSH2 0x1464 DUP3 PUSH2 0x5D3 JUMP JUMPDEST PUSH2 0x146D DUP2 PUSH2 0x174C JUMP JUMPDEST PUSH2 0x1477 DUP4 DUP4 PUSH2 0x1848 JUMP JUMPDEST POP POP POP JUMP JUMPDEST PUSH1 0x0 PUSH1 0x6 DUP4 DUP2 SLOAD DUP2 LT PUSH2 0x1492 JUMPI PUSH2 0x1491 PUSH2 0x2A71 JUMP JUMPDEST JUMPDEST SWAP1 PUSH1 0x0 MSTORE PUSH1 0x20 PUSH1 0x0 KECCAK256 SWAP1 PUSH1 0x4 MUL ADD SWAP1 POP PUSH1 0x0 PUSH1 0x7 PUSH1 0x0 DUP6 DUP2 MSTORE PUSH1 0x20 ADD SWAP1 DUP2 MSTORE PUSH1 0x20 ADD PUSH1 0x0 KECCAK256 PUSH1 0x0 PUSH2 0x14C1 PUSH2 0x1840 JUMP JUMPDEST PUSH20 0xFFFFFFFFFFFFFFFFFFFFFFFFFFFFFFFFFFFFFFFF AND PUSH20 0xFFFFFFFFFFFFFFFFFFFFFFFFFFFFFFFFFFFFFFFF AND DUP2 MSTORE PUSH1 0x20 ADD SWAP1 DUP2 MSTORE PUSH1 0x20 ADD PUSH1 0x0 KECCAK256 SWAP1 POP PUSH2 0x1506 DUP5 PUSH2 0x9BB JUMP JUMPDEST PUSH1 0x0 DUP2 PUSH1 0x0 ADD SLOAD GT ISZERO PUSH2 0x15FE JUMPI PUSH1 0x0 DUP2 PUSH1 0x1 ADD SLOAD PUSH5 0xE8D4A51000 DUP5 PUSH1 0x3 ADD SLOAD DUP5 PUSH1 0x0 ADD SLOAD PUSH2 0x1534 SWAP2 SWAP1 PUSH2 0x2B0C JUMP JUMPDEST PUSH2 0x153E SWAP2 SWAP1 PUSH2 0x2B7D JUMP JUMPDEST PUSH2 0x1548 SWAP2 SWAP1 PUSH2 0x2BAE JUMP JUMPDEST SWAP1 POP PUSH1 0x0 DUP2 GT ISZERO PUSH2 0x15FC JUMPI PUSH1 0x1 PUSH1 0x0 SWAP1 SLOAD SWAP1 PUSH2 0x100 EXP SWAP1 DIV PUSH20 0xFFFFFFFFFFFFFFFFFFFFFFFFFFFFFFFFFFFFFFFF AND PUSH20 0xFFFFFFFFFFFFFFFFFFFFFFFFFFFFFFFFFFFFFFFF AND PUSH4 0x40C10F19 PUSH2 0x1599 PUSH2 0x1840 JUMP JUMPDEST DUP4 PUSH1 0x40 MLOAD DUP4 PUSH4 0xFFFFFFFF AND PUSH1 0xE0 SHL DUP2 MSTORE PUSH1 0x4 ADD PUSH2 0x15B7 SWAP3 SWAP2 SWAP1 PUSH2 0x2BF1 JUMP JUMPDEST PUSH1 0x20 PUSH1 0x40 MLOAD DUP1 DUP4 SUB DUP2 PUSH1 0x0 DUP8 GAS CALL ISZERO DUP1 ISZERO PUSH2 0x15D6 JUMPI RETURNDATASIZE PUSH1 0x0 DUP1 RETURNDATACOPY RETURNDATASIZE PUSH1 0x0 REVERT JUMPDEST POP POP POP POP PUSH1 0x40 MLOAD RETURNDATASIZE PUSH1 0x1F NOT PUSH1 0x1F DUP3 ADD AND DUP3 ADD DUP1 PUSH1 0x40 MSTORE POP DUP2 ADD SWAP1 PUSH2 0x15FA SWAP2 SWAP1 PUSH2 0x2C2F JUMP JUMPDEST POP JUMPDEST POP JUMPDEST PUSH1 0x0 DUP4 GT ISZERO PUSH2 0x165A JUMPI PUSH2 0x163E DUP3 PUSH1 0x0 ADD PUSH1 0x0 SWAP1 SLOAD SWAP1 PUSH2 0x100 EXP SWAP1 DIV PUSH20 0xFFFFFFFFFFFFFFFFFFFFFFFFFFFFFFFFFFFFFFFF AND PUSH2 0x1637 PUSH2 0x1840 JUMP JUMPDEST ADDRESS DUP7 PUSH2 0x1AEA JUMP JUMPDEST DUP3 DUP2 PUSH1 0x0 ADD PUSH1 0x0 DUP3 DUP3 SLOAD PUSH2 0x1652 SWAP2 SWAP1 PUSH2 0x2A3D JUMP JUMPDEST SWAP3 POP POP DUP2 SWAP1 SSTORE POP JUMPDEST PUSH5 0xE8D4A51000 DUP3 PUSH1 0x3 ADD SLOAD DUP3 PUSH1 0x0 ADD SLOAD PUSH2 0x1674 SWAP2 SWAP1 PUSH2 0x2B0C JUMP JUMPDEST PUSH2 0x167E SWAP2 SWAP1 PUSH2 0x2B7D JUMP JUMPDEST DUP2 PUSH1 0x1 ADD DUP2 SWAP1 SSTORE POP DUP4 PUSH2 0x168F PUSH2 0x1840 JUMP JUMPDEST PUSH20 0xFFFFFFFFFFFFFFFFFFFFFFFFFFFFFFFFFFFFFFFF AND PUSH32 0x90890809C654F11D6E72A28FA60149770A0D11EC6C92319D6CEB2BB0A4EA1A15 DUP6 PUSH1 0x40 MLOAD PUSH2 0x16D4 SWAP2 SWAP1 PUSH2 0x221B JUMP JUMPDEST PUSH1 0x40 MLOAD DUP1 SWAP2 SUB SWAP1 LOG3 POP POP POP POP JUMP JUMPDEST PUSH1 0x0 PUSH32 0x1FFC9A700000000000000000000000000000000000000000000000000000000 PUSH28 0xFFFFFFFFFFFFFFFFFFFFFFFFFFFFFFFFFFFFFFFFFFFFFFFFFFFFFFFF NOT AND DUP3 PUSH28 0xFFFFFFFFFFFFFFFFFFFFFFFFFFFFFFFFFFFFFFFFFFFFFFFFFFFFFFFF NOT AND EQ SWAP1 POP SWAP2 SWAP1 POP JUMP JUMPDEST PUSH2 0x175D DUP2 PUSH2 0x1758 PUSH2 0x1840 JUMP JUMPDEST PUSH2 0x1B73 JUMP JUMPDEST POP JUMP JUMPDEST PUSH2 0x176A DUP3 DUP3 PUSH2 0x1234 JUMP JUMPDEST PUSH2 0x183C JUMPI PUSH1 0x1 PUSH1 0x0 DUP1 DUP5 DUP2 MSTORE PUSH1 0x20 ADD SWAP1 DUP2 MSTORE PUSH1 0x20 ADD PUSH1 0x0 KECCAK256 PUSH1 0x0 ADD PUSH1 0x0 DUP4 PUSH20 0xFFFFFFFFFFFFFFFFFFFFFFFFFFFFFFFFFFFFFFFF AND PUSH20 0xFFFFFFFFFFFFFFFFFFFFFFFFFFFFFFFFFFFFFFFF AND DUP2 MSTORE PUSH1 0x20 ADD SWAP1 DUP2 MSTORE PUSH1 0x20 ADD PUSH1 0x0 KECCAK256 PUSH1 0x0 PUSH2 0x100 EXP DUP2 SLOAD DUP2 PUSH1 0xFF MUL NOT AND SWAP1 DUP4 ISZERO ISZERO MUL OR SWAP1 SSTORE POP PUSH2 0x17E1 PUSH2 0x1840 JUMP JUMPDEST PUSH20 0xFFFFFFFFFFFFFFFFFFFFFFFFFFFFFFFFFFFFFFFF AND DUP2 PUSH20 0xFFFFFFFFFFFFFFFFFFFFFFFFFFFFFFFFFFFFFFFF AND DUP4 PUSH32 0x2F8788117E7EFF1D82E926EC794901D17C78024A50270940304540A733656F0D PUSH1 0x40 MLOAD PUSH1 0x40 MLOAD DUP1 SWAP2 SUB SWAP1 LOG4 JUMPDEST POP POP JUMP JUMPDEST PUSH1 0x0 CALLER SWAP1 POP SWAP1 JUMP JUMPDEST PUSH2 0x1852 DUP3 DUP3 PUSH2 0x1234 JUMP JUMPDEST ISZERO PUSH2 0x1925 JUMPI PUSH1 0x0 DUP1 PUSH1 0x0 DUP5 DUP2 MSTORE PUSH1 0x20 ADD SWAP1 DUP2 MSTORE PUSH1 0x20 ADD PUSH1 0x0 KECCAK256 PUSH1 0x0 ADD PUSH1 0x0 DUP4 PUSH20 0xFFFFFFFFFFFFFFFFFFFFFFFFFFFFFFFFFFFFFFFF AND PUSH20 0xFFFFFFFFFFFFFFFFFFFFFFFFFFFFFFFFFFFFFFFF AND DUP2 MSTORE PUSH1 0x20 ADD SWAP1 DUP2 MSTORE PUSH1 0x20 ADD PUSH1 0x0 KECCAK256 PUSH1 0x0 PUSH2 0x100 EXP DUP2 SLOAD DUP2 PUSH1 0xFF MUL NOT AND SWAP1 DUP4 ISZERO ISZERO MUL OR SWAP1 SSTORE POP PUSH2 0x18CA PUSH2 0x1840 JUMP JUMPDEST PUSH20 0xFFFFFFFFFFFFFFFFFFFFFFFFFFFFFFFFFFFFFFFF AND DUP2 PUSH20 0xFFFFFFFFFFFFFFFFFFFFFFFFFFFFFFFFFFFFFFFF AND DUP4 PUSH32 0xF6391F5C32D9C69D2A47EA670B442974B53935D1EDC7FD64EB21E047A839171B PUSH1 0x40 MLOAD PUSH1 0x40 MLOAD DUP1 SWAP2 SUB SWAP1 LOG4 JUMPDEST POP POP JUMP JUMPDEST PUSH2 0x1931 PUSH2 0x20F5 JUMP JUMPDEST DUP5 DUP2 PUSH1 0x0 ADD SWAP1 PUSH20 0xFFFFFFFFFFFFFFFFFFFFFFFFFFFFFFFFFFFFFFFF AND SWAP1 DUP2 PUSH20 0xFFFFFFFFFFFFFFFFFFFFFFFFFFFFFFFFFFFFFFFF AND DUP2 MSTORE POP POP DUP4 DUP2 PUSH1 0x20 ADD DUP2 DUP2 MSTORE POP POP DUP2 DUP2 PUSH1 0x40 ADD DUP2 DUP2 MSTORE POP POP PUSH1 0x6 DUP2 SWAP1 DUP1 PUSH1 0x1 DUP2 SLOAD ADD DUP1 DUP3 SSTORE DUP1 SWAP2 POP POP PUSH1 0x1 SWAP1 SUB SWAP1 PUSH1 0x0 MSTORE PUSH1 0x20 PUSH1 0x0 KECCAK256 SWAP1 PUSH1 0x4 MUL ADD PUSH1 0x0 SWAP1 SWAP2 SWAP1 SWAP2 SWAP1 SWAP2 POP PUSH1 0x0 DUP3 ADD MLOAD DUP2 PUSH1 0x0 ADD PUSH1 0x0 PUSH2 0x100 EXP DUP2 SLOAD DUP2 PUSH20 0xFFFFFFFFFFFFFFFFFFFFFFFFFFFFFFFFFFFFFFFF MUL NOT AND SWAP1 DUP4 PUSH20 0xFFFFFFFFFFFFFFFFFFFFFFFFFFFFFFFFFFFFFFFF AND MUL OR SWAP1 SSTORE POP PUSH1 0x20 DUP3 ADD MLOAD DUP2 PUSH1 0x1 ADD SSTORE PUSH1 0x40 DUP3 ADD MLOAD DUP2 PUSH1 0x2 ADD SSTORE PUSH1 0x60 DUP3 ADD MLOAD DUP2 PUSH1 0x3 ADD SSTORE POP POP PUSH1 0x1 PUSH1 0x6 DUP1 SLOAD SWAP1 POP PUSH2 0x1A22 SWAP2 SWAP1 PUSH2 0x2BAE JUMP JUMPDEST PUSH32 0x1FCB86D005DE4723E36A6D74EEEB8529BAC339B94C9241AED56567A2D214F105 DUP7 DUP6 DUP8 PUSH1 0x40 MLOAD PUSH2 0x1A55 SWAP4 SWAP3 SWAP2 SWAP1 PUSH2 0x2E6D JUMP JUMPDEST PUSH1 0x40 MLOAD DUP1 SWAP2 SUB SWAP1 LOG2 POP POP POP POP POP JUMP JUMPDEST PUSH2 0x1AE5 DUP4 PUSH4 0xA9059CBB PUSH1 0xE0 SHL DUP5 DUP5 PUSH1 0x40 MLOAD PUSH1 0x24 ADD PUSH2 0x1A83 SWAP3 SWAP2 SWAP1 PUSH2 0x2BF1 JUMP JUMPDEST PUSH1 0x40 MLOAD PUSH1 0x20 DUP2 DUP4 SUB SUB DUP2 MSTORE SWAP1 PUSH1 0x40 MSTORE SWAP1 PUSH28 0xFFFFFFFFFFFFFFFFFFFFFFFFFFFFFFFFFFFFFFFFFFFFFFFFFFFFFFFF NOT AND PUSH1 0x20 DUP3 ADD DUP1 MLOAD PUSH28 0xFFFFFFFFFFFFFFFFFFFFFFFFFFFFFFFFFFFFFFFFFFFFFFFFFFFFFFFF DUP4 DUP2 DUP4 AND OR DUP4 MSTORE POP POP POP POP PUSH2 0x1BF8 JUMP JUMPDEST POP POP POP JUMP JUMPDEST PUSH2 0x1B6D DUP5 PUSH4 0x23B872DD PUSH1 0xE0 SHL DUP6 DUP6 DUP6 PUSH1 0x40 MLOAD PUSH1 0x24 ADD PUSH2 0x1B0B SWAP4 SWAP3 SWAP2 SWAP1 PUSH2 0x2EAB JUMP JUMPDEST PUSH1 0x40 MLOAD PUSH1 0x20 DUP2 DUP4 SUB SUB DUP2 MSTORE SWAP1 PUSH1 0x40 MSTORE SWAP1 PUSH28 0xFFFFFFFFFFFFFFFFFFFFFFFFFFFFFFFFFFFFFFFFFFFFFFFFFFFFFFFF NOT AND PUSH1 0x20 DUP3 ADD DUP1 MLOAD PUSH28 0xFFFFFFFFFFFFFFFFFFFFFFFFFFFFFFFFFFFFFFFFFFFFFFFFFFFFFFFF DUP4 DUP2 DUP4 AND OR DUP4 MSTORE POP POP POP POP PUSH2 0x1BF8 JUMP JUMPDEST POP POP POP POP JUMP JUMPDEST PUSH2 0x1B7D DUP3 DUP3 PUSH2 0x1234 JUMP JUMPDEST PUSH2 0x1BF4 JUMPI PUSH2 0x1B8A DUP2 PUSH2 0x1CBF JUMP JUMPDEST PUSH2 0x1B98 DUP4 PUSH1 0x0 SHR PUSH1 0x20 PUSH2 0x1CEC JUMP JUMPDEST PUSH1 0x40 MLOAD PUSH1 0x20 ADD PUSH2 0x1BA9 SWAP3 SWAP2 SWAP1 PUSH2 0x2FAB JUMP JUMPDEST PUSH1 0x40 MLOAD PUSH1 0x20 DUP2 DUP4 SUB SUB DUP2 MSTORE SWAP1 PUSH1 0x40 MSTORE PUSH1 0x40 MLOAD PUSH32 0x8C379A000000000000000000000000000000000000000000000000000000000 DUP2 MSTORE PUSH1 0x4 ADD PUSH2 0x1BEB SWAP2 SWAP1 PUSH2 0x2FE5 JUMP JUMPDEST PUSH1 0x40 MLOAD DUP1 SWAP2 SUB SWAP1 REVERT JUMPDEST POP POP JUMP JUMPDEST PUSH1 0x0 PUSH2 0x1C5A DUP3 PUSH1 0x40 MLOAD DUP1 PUSH1 0x40 ADD PUSH1 0x40 MSTORE DUP1 PUSH1 0x20 DUP2 MSTORE PUSH1 0x20 ADD PUSH32 0x5361666545524332303A206C6F772D6C6576656C2063616C6C206661696C6564 DUP2 MSTORE POP DUP6 PUSH20 0xFFFFFFFFFFFFFFFFFFFFFFFFFFFFFFFFFFFFFFFF AND PUSH2 0x1F28 SWAP1 SWAP3 SWAP2 SWAP1 PUSH4 0xFFFFFFFF AND JUMP JUMPDEST SWAP1 POP PUSH1 0x0 DUP2 MLOAD GT ISZERO PUSH2 0x1CBA JUMPI DUP1 DUP1 PUSH1 0x20 ADD SWAP1 MLOAD DUP2 ADD SWAP1 PUSH2 0x1C7A SWAP2 SWAP1 PUSH2 0x2C2F JUMP JUMPDEST PUSH2 0x1CB9 JUMPI PUSH1 0x40 MLOAD PUSH32 0x8C379A000000000000000000000000000000000000000000000000000000000 DUP2 MSTORE PUSH1 0x4 ADD PUSH2 0x1CB0 SWAP1 PUSH2 0x3079 JUMP JUMPDEST PUSH1 0x40 MLOAD DUP1 SWAP2 SUB SWAP1 REVERT JUMPDEST JUMPDEST POP POP POP JUMP JUMPDEST PUSH1 0x60 PUSH2 0x1CE5 DUP3 PUSH20 0xFFFFFFFFFFFFFFFFFFFFFFFFFFFFFFFFFFFFFFFF AND PUSH1 0x14 PUSH1 0xFF AND PUSH2 0x1CEC JUMP JUMPDEST SWAP1 POP SWAP2 SWAP1 POP JUMP JUMPDEST PUSH1 0x60 PUSH1 0x0 PUSH1 0x2 DUP4 PUSH1 0x2 PUSH2 0x1CFF SWAP2 SWAP1 PUSH2 0x2B0C JUMP JUMPDEST PUSH2 0x1D09 SWAP2 SWAP1 PUSH2 0x2A3D JUMP JUMPDEST PUSH8 0xFFFFFFFFFFFFFFFF DUP2 GT ISZERO PUSH2 0x1D22 JUMPI PUSH2 0x1D21 PUSH2 0x24F3 JUMP JUMPDEST JUMPDEST PUSH1 0x40 MLOAD SWAP1 DUP1 DUP3 MSTORE DUP1 PUSH1 0x1F ADD PUSH1 0x1F NOT AND PUSH1 0x20 ADD DUP3 ADD PUSH1 0x40 MSTORE DUP1 ISZERO PUSH2 0x1D54 JUMPI DUP2 PUSH1 0x20 ADD PUSH1 0x1 DUP3 MUL DUP1 CALLDATASIZE DUP4 CALLDATACOPY DUP1 DUP3 ADD SWAP2 POP POP SWAP1 POP JUMPDEST POP SWAP1 POP PUSH32 0x3000000000000000000000000000000000000000000000000000000000000000 DUP2 PUSH1 0x0 DUP2 MLOAD DUP2 LT PUSH2 0x1D8C JUMPI PUSH2 0x1D8B PUSH2 0x2A71 JUMP JUMPDEST JUMPDEST PUSH1 0x20 ADD ADD SWAP1 PUSH31 0xFFFFFFFFFFFFFFFFFFFFFFFFFFFFFFFFFFFFFFFFFFFFFFFFFFFFFFFFFFFFFF NOT AND SWAP1 DUP2 PUSH1 0x0 BYTE SWAP1 MSTORE8 POP PUSH32 0x7800000000000000000000000000000000000000000000000000000000000000 DUP2 PUSH1 0x1 DUP2 MLOAD DUP2 LT PUSH2 0x1DF0 JUMPI PUSH2 0x1DEF PUSH2 0x2A71 JUMP JUMPDEST JUMPDEST PUSH1 0x20 ADD ADD SWAP1 PUSH31 0xFFFFFFFFFFFFFFFFFFFFFFFFFFFFFFFFFFFFFFFFFFFFFFFFFFFFFFFFFFFFFF NOT AND SWAP1 DUP2 PUSH1 0x0 BYTE SWAP1 MSTORE8 POP PUSH1 0x0 PUSH1 0x1 DUP5 PUSH1 0x2 PUSH2 0x1E30 SWAP2 SWAP1 PUSH2 0x2B0C JUMP JUMPDEST PUSH2 0x1E3A SWAP2 SWAP1 PUSH2 0x2A3D JUMP JUMPDEST SWAP1 POP JUMPDEST PUSH1 0x1 DUP2 GT ISZERO PUSH2 0x1EDA JUMPI PUSH32 0x3031323334353637383961626364656600000000000000000000000000000000 PUSH1 0xF DUP7 AND PUSH1 0x10 DUP2 LT PUSH2 0x1E7C JUMPI PUSH2 0x1E7B PUSH2 0x2A71 JUMP JUMPDEST JUMPDEST BYTE PUSH1 0xF8 SHL DUP3 DUP3 DUP2 MLOAD DUP2 LT PUSH2 0x1E93 JUMPI PUSH2 0x1E92 PUSH2 0x2A71 JUMP JUMPDEST JUMPDEST PUSH1 0x20 ADD ADD SWAP1 PUSH31 0xFFFFFFFFFFFFFFFFFFFFFFFFFFFFFFFFFFFFFFFFFFFFFFFFFFFFFFFFFFFFFF NOT AND SWAP1 DUP2 PUSH1 0x0 BYTE SWAP1 MSTORE8 POP PUSH1 0x4 DUP6 SWAP1 SHR SWAP5 POP DUP1 PUSH2 0x1ED3 SWAP1 PUSH2 0x3099 JUMP JUMPDEST SWAP1 POP PUSH2 0x1E3D JUMP JUMPDEST POP PUSH1 0x0 DUP5 EQ PUSH2 0x1F1E JUMPI PUSH1 0x40 MLOAD PUSH32 0x8C379A000000000000000000000000000000000000000000000000000000000 DUP2 MSTORE PUSH1 0x4 ADD PUSH2 0x1F15 SWAP1 PUSH2 0x310E JUMP JUMPDEST PUSH1 0x40 MLOAD DUP1 SWAP2 SUB SWAP1 REVERT JUMPDEST DUP1 SWAP2 POP POP SWAP3 SWAP2 POP POP JUMP JUMPDEST PUSH1 0x60 PUSH2 0x1F37 DUP5 DUP5 PUSH1 0x0 DUP6 PUSH2 0x1F40 JUMP JUMPDEST SWAP1 POP SWAP4 SWAP3 POP POP POP JUMP JUMPDEST PUSH1 0x60 DUP3 SELFBALANCE LT ISZERO PUSH2 0x1F85 JUMPI PUSH1 0x40 MLOAD PUSH32 0x8C379A000000000000000000000000000000000000000000000000000000000 DUP2 MSTORE PUSH1 0x4 ADD PUSH2 0x1F7C SWAP1 PUSH2 0x31A0 JUMP JUMPDEST PUSH1 0x40 MLOAD DUP1 SWAP2 SUB SWAP1 REVERT JUMPDEST PUSH1 0x0 DUP1 DUP7 PUSH20 0xFFFFFFFFFFFFFFFFFFFFFFFFFFFFFFFFFFFFFFFF AND DUP6 DUP8 PUSH1 0x40 MLOAD PUSH2 0x1FAE SWAP2 SWAP1 PUSH2 0x3207 JUMP JUMPDEST PUSH1 0x0 PUSH1 0x40 MLOAD DUP1 DUP4 SUB DUP2 DUP6 DUP8 GAS CALL SWAP3 POP POP POP RETURNDATASIZE DUP1 PUSH1 0x0 DUP2 EQ PUSH2 0x1FEB JUMPI PUSH1 0x40 MLOAD SWAP2 POP PUSH1 0x1F NOT PUSH1 0x3F RETURNDATASIZE ADD AND DUP3 ADD PUSH1 0x40 MSTORE RETURNDATASIZE DUP3 MSTORE RETURNDATASIZE PUSH1 0x0 PUSH1 0x20 DUP5 ADD RETURNDATACOPY PUSH2 0x1FF0 JUMP JUMPDEST PUSH1 0x60 SWAP2 POP JUMPDEST POP SWAP2 POP SWAP2 POP PUSH2 0x2001 DUP8 DUP4 DUP4 DUP8 PUSH2 0x200D JUMP JUMPDEST SWAP3 POP POP POP SWAP5 SWAP4 POP POP POP POP JUMP JUMPDEST PUSH1 0x60 DUP4 ISZERO PUSH2 0x206F JUMPI PUSH1 0x0 DUP4 MLOAD SUB PUSH2 0x2067 JUMPI PUSH2 0x2027 DUP6 PUSH2 0x2082 JUMP JUMPDEST PUSH2 0x2066 JUMPI PUSH1 0x40 MLOAD PUSH32 0x8C379A000000000000000000000000000000000000000000000000000000000 DUP2 MSTORE PUSH1 0x4 ADD PUSH2 0x205D SWAP1 PUSH2 0x326A JUMP JUMPDEST PUSH1 0x40 MLOAD DUP1 SWAP2 SUB SWAP1 REVERT JUMPDEST JUMPDEST DUP3 SWAP1 POP PUSH2 0x207A JUMP JUMPDEST PUSH2 0x2079 DUP4 DUP4 PUSH2 0x20A5 JUMP JUMPDEST JUMPDEST SWAP5 SWAP4 POP POP POP POP JUMP JUMPDEST PUSH1 0x0 DUP1 DUP3 PUSH20 0xFFFFFFFFFFFFFFFFFFFFFFFFFFFFFFFFFFFFFFFF AND EXTCODESIZE GT SWAP1 POP SWAP2 SWAP1 POP JUMP JUMPDEST PUSH1 0x0 DUP3 MLOAD GT ISZERO PUSH2 0x20B8 JUMPI DUP2 MLOAD DUP1 DUP4 PUSH1 0x20 ADD REVERT JUMPDEST DUP1 PUSH1 0x40 MLOAD PUSH32 0x8C379A000000000000000000000000000000000000000000000000000000000 DUP2 MSTORE PUSH1 0x4 ADD PUSH2 0x20EC SWAP2 SWAP1 PUSH2 0x2FE5 JUMP JUMPDEST PUSH1 0x40 MLOAD DUP1 SWAP2 SUB SWAP1 REVERT JUMPDEST PUSH1 0x40 MLOAD DUP1 PUSH1 0x80 ADD PUSH1 0x40 MSTORE DUP1 PUSH1 0x0 PUSH20 0xFFFFFFFFFFFFFFFFFFFFFFFFFFFFFFFFFFFFFFFF AND DUP2 MSTORE PUSH1 0x20 ADD PUSH1 0x0 DUP2 MSTORE PUSH1 0x20 ADD PUSH1 0x0 DUP2 MSTORE PUSH1 0x20 ADD PUSH1 0x0 DUP2 MSTORE POP SWAP1 JUMP JUMPDEST PUSH1 0x0 PUSH1 0x40 MLOAD SWAP1 POP SWAP1 JUMP JUMPDEST PUSH1 0x0 DUP1 REVERT JUMPDEST PUSH1 0x0 DUP1 REVERT JUMPDEST PUSH1 0x0 PUSH32 0xFFFFFFFF00000000000000000000000000000000000000000000000000000000 DUP3 AND SWAP1 POP SWAP2 SWAP1 POP JUMP JUMPDEST PUSH2 0x217C DUP2 PUSH2 0x2147 JUMP JUMPDEST DUP2 EQ PUSH2 0x2187 JUMPI PUSH1 0x0 DUP1 REVERT JUMPDEST POP JUMP JUMPDEST PUSH1 0x0 DUP2 CALLDATALOAD SWAP1 POP PUSH2 0x2199 DUP2 PUSH2 0x2173 JUMP JUMPDEST SWAP3 SWAP2 POP POP JUMP JUMPDEST PUSH1 0x0 PUSH1 0x20 DUP3 DUP5 SUB SLT ISZERO PUSH2 0x21B5 JUMPI PUSH2 0x21B4 PUSH2 0x213D JUMP JUMPDEST JUMPDEST PUSH1 0x0 PUSH2 0x21C3 DUP5 DUP3 DUP6 ADD PUSH2 0x218A JUMP JUMPDEST SWAP2 POP POP SWAP3 SWAP2 POP POP JUMP JUMPDEST PUSH1 0x0 DUP2 ISZERO ISZERO SWAP1 POP SWAP2 SWAP1 POP JUMP JUMPDEST PUSH2 0x21E1 DUP2 PUSH2 0x21CC JUMP JUMPDEST DUP3 MSTORE POP POP JUMP JUMPDEST PUSH1 0x0 PUSH1 0x20 DUP3 ADD SWAP1 POP PUSH2 0x21FC PUSH1 0x0 DUP4 ADD DUP5 PUSH2 0x21D8 JUMP JUMPDEST SWAP3 SWAP2 POP POP JUMP JUMPDEST PUSH1 0x0 DUP2 SWAP1 POP SWAP2 SWAP1 POP JUMP JUMPDEST PUSH2 0x2215 DUP2 PUSH2 0x2202 JUMP JUMPDEST DUP3 MSTORE POP POP JUMP JUMPDEST PUSH1 0x0 PUSH1 0x20 DUP3 ADD SWAP1 POP PUSH2 0x2230 PUSH1 0x0 DUP4 ADD DUP5 PUSH2 0x220C JUMP JUMPDEST SWAP3 SWAP2 POP POP JUMP JUMPDEST PUSH2 0x223F DUP2 PUSH2 0x2202 JUMP JUMPDEST DUP2 EQ PUSH2 0x224A JUMPI PUSH1 0x0 DUP1 REVERT JUMPDEST POP JUMP JUMPDEST PUSH1 0x0 DUP2 CALLDATALOAD SWAP1 POP PUSH2 0x225C DUP2 PUSH2 0x2236 JUMP JUMPDEST SWAP3 SWAP2 POP POP JUMP JUMPDEST PUSH1 0x0 PUSH1 0x20 DUP3 DUP5 SUB SLT ISZERO PUSH2 0x2278 JUMPI PUSH2 0x2277 PUSH2 0x213D JUMP JUMPDEST JUMPDEST PUSH1 0x0 PUSH2 0x2286 DUP5 DUP3 DUP6 ADD PUSH2 0x224D JUMP JUMPDEST SWAP2 POP POP SWAP3 SWAP2 POP POP JUMP JUMPDEST PUSH1 0x0 PUSH20 0xFFFFFFFFFFFFFFFFFFFFFFFFFFFFFFFFFFFFFFFF DUP3 AND SWAP1 POP SWAP2 SWAP1 POP JUMP JUMPDEST PUSH1 0x0 DUP2 SWAP1 POP SWAP2 SWAP1 POP JUMP JUMPDEST PUSH1 0x0 PUSH2 0x22D4 PUSH2 0x22CF PUSH2 0x22CA DUP5 PUSH2 0x228F JUMP JUMPDEST PUSH2 0x22AF JUMP JUMPDEST PUSH2 0x228F JUMP JUMPDEST SWAP1 POP SWAP2 SWAP1 POP JUMP JUMPDEST PUSH1 0x0 PUSH2 0x22E6 DUP3 PUSH2 0x22B9 JUMP JUMPDEST SWAP1 POP SWAP2 SWAP1 POP JUMP JUMPDEST PUSH1 0x0 PUSH2 0x22F8 DUP3 PUSH2 0x22DB JUMP JUMPDEST SWAP1 POP SWAP2 SWAP1 POP JUMP JUMPDEST PUSH2 0x2308 DUP2 PUSH2 0x22ED JUMP JUMPDEST DUP3 MSTORE POP POP JUMP JUMPDEST PUSH1 0x0 PUSH1 0x80 DUP3 ADD SWAP1 POP PUSH2 0x2323 PUSH1 0x0 DUP4 ADD DUP8 PUSH2 0x22FF JUMP JUMPDEST PUSH2 0x2330 PUSH1 0x20 DUP4 ADD DUP7 PUSH2 0x220C JUMP JUMPDEST PUSH2 0x233D PUSH1 0x40 DUP4 ADD DUP6 PUSH2 0x220C JUMP JUMPDEST PUSH2 0x234A PUSH1 0x60 DUP4 ADD DUP5 PUSH2 0x220C JUMP JUMPDEST SWAP6 SWAP5 POP POP POP POP POP JUMP JUMPDEST PUSH1 0x0 PUSH2 0x235E DUP3 PUSH2 0x22DB JUMP JUMPDEST SWAP1 POP SWAP2 SWAP1 POP JUMP JUMPDEST PUSH2 0x236E DUP2 PUSH2 0x2353 JUMP JUMPDEST DUP3 MSTORE POP POP JUMP JUMPDEST PUSH1 0x0 PUSH1 0x20 DUP3 ADD SWAP1 POP PUSH2 0x2389 PUSH1 0x0 DUP4 ADD DUP5 PUSH2 0x2365 JUMP JUMPDEST SWAP3 SWAP2 POP POP JUMP JUMPDEST PUSH1 0x0 DUP2 SWAP1 POP SWAP2 SWAP1 POP JUMP JUMPDEST PUSH2 0x23A2 DUP2 PUSH2 0x238F JUMP JUMPDEST DUP2 EQ PUSH2 0x23AD JUMPI PUSH1 0x0 DUP1 REVERT JUMPDEST POP JUMP JUMPDEST PUSH1 0x0 DUP2 CALLDATALOAD SWAP1 POP PUSH2 0x23BF DUP2 PUSH2 0x2399 JUMP JUMPDEST SWAP3 SWAP2 POP POP JUMP JUMPDEST PUSH1 0x0 PUSH1 0x20 DUP3 DUP5 SUB SLT ISZERO PUSH2 0x23DB JUMPI PUSH2 0x23DA PUSH2 0x213D JUMP JUMPDEST JUMPDEST PUSH1 0x0 PUSH2 0x23E9 DUP5 DUP3 DUP6 ADD PUSH2 0x23B0 JUMP JUMPDEST SWAP2 POP POP SWAP3 SWAP2 POP POP JUMP JUMPDEST PUSH2 0x23FB DUP2 PUSH2 0x238F JUMP JUMPDEST DUP3 MSTORE POP POP JUMP JUMPDEST PUSH1 0x0 PUSH1 0x20 DUP3 ADD SWAP1 POP PUSH2 0x2416 PUSH1 0x0 DUP4 ADD DUP5 PUSH2 0x23F2 JUMP JUMPDEST SWAP3 SWAP2 POP POP JUMP JUMPDEST PUSH1 0x0 PUSH2 0x2427 DUP3 PUSH2 0x228F JUMP JUMPDEST SWAP1 POP SWAP2 SWAP1 POP JUMP JUMPDEST PUSH2 0x2437 DUP2 PUSH2 0x241C JUMP JUMPDEST DUP2 EQ PUSH2 0x2442 JUMPI PUSH1 0x0 DUP1 REVERT JUMPDEST POP JUMP JUMPDEST PUSH1 0x0 DUP2 CALLDATALOAD SWAP1 POP PUSH2 0x2454 DUP2 PUSH2 0x242E JUMP JUMPDEST SWAP3 SWAP2 POP POP JUMP JUMPDEST PUSH1 0x0 DUP1 PUSH1 0x40 DUP4 DUP6 SUB SLT ISZERO PUSH2 0x2471 JUMPI PUSH2 0x2470 PUSH2 0x213D JUMP JUMPDEST JUMPDEST PUSH1 0x0 PUSH2 0x247F DUP6 DUP3 DUP7 ADD PUSH2 0x23B0 JUMP JUMPDEST SWAP3 POP POP PUSH1 0x20 PUSH2 0x2490 DUP6 DUP3 DUP7 ADD PUSH2 0x2445 JUMP JUMPDEST SWAP2 POP POP SWAP3 POP SWAP3 SWAP1 POP JUMP JUMPDEST PUSH1 0x0 PUSH2 0x24A5 DUP3 PUSH2 0x241C JUMP JUMPDEST SWAP1 POP SWAP2 SWAP1 POP JUMP JUMPDEST PUSH2 0x24B5 DUP2 PUSH2 0x249A JUMP JUMPDEST DUP2 EQ PUSH2 0x24C0 JUMPI PUSH1 0x0 DUP1 REVERT JUMPDEST POP JUMP JUMPDEST PUSH1 0x0 DUP2 CALLDATALOAD SWAP1 POP PUSH2 0x24D2 DUP2 PUSH2 0x24AC JUMP JUMPDEST SWAP3 SWAP2 POP POP JUMP JUMPDEST PUSH1 0x0 DUP1 REVERT JUMPDEST PUSH1 0x0 DUP1 REVERT JUMPDEST PUSH1 0x0 PUSH1 0x1F NOT PUSH1 0x1F DUP4 ADD AND SWAP1 POP SWAP2 SWAP1 POP JUMP JUMPDEST PUSH32 0x4E487B7100000000000000000000000000000000000000000000000000000000 PUSH1 0x0 MSTORE PUSH1 0x41 PUSH1 0x4 MSTORE PUSH1 0x24 PUSH1 0x0 REVERT JUMPDEST PUSH2 0x252B DUP3 PUSH2 0x24E2 JUMP JUMPDEST DUP2 ADD DUP2 DUP2 LT PUSH8 0xFFFFFFFFFFFFFFFF DUP3 GT OR ISZERO PUSH2 0x254A JUMPI PUSH2 0x2549 PUSH2 0x24F3 JUMP JUMPDEST JUMPDEST DUP1 PUSH1 0x40 MSTORE POP POP POP JUMP JUMPDEST PUSH1 0x0 PUSH2 0x255D PUSH2 0x2133 JUMP JUMPDEST SWAP1 POP PUSH2 0x2569 DUP3 DUP3 PUSH2 0x2522 JUMP JUMPDEST SWAP2 SWAP1 POP JUMP JUMPDEST PUSH1 0x0 PUSH8 0xFFFFFFFFFFFFFFFF DUP3 GT ISZERO PUSH2 0x2589 JUMPI PUSH2 0x2588 PUSH2 0x24F3 JUMP JUMPDEST JUMPDEST PUSH2 0x2592 DUP3 PUSH2 0x24E2 JUMP JUMPDEST SWAP1 POP PUSH1 0x20 DUP2 ADD SWAP1 POP SWAP2 SWAP1 POP JUMP JUMPDEST DUP3 DUP2 DUP4 CALLDATACOPY PUSH1 0x0 DUP4 DUP4 ADD MSTORE POP POP POP JUMP JUMPDEST PUSH1 0x0 PUSH2 0x25C1 PUSH2 0x25BC DUP5 PUSH2 0x256E JUMP JUMPDEST PUSH2 0x2553 JUMP JUMPDEST SWAP1 POP DUP3 DUP2 MSTORE PUSH1 0x20 DUP2 ADD DUP5 DUP5 DUP5 ADD GT ISZERO PUSH2 0x25DD JUMPI PUSH2 0x25DC PUSH2 0x24DD JUMP JUMPDEST JUMPDEST PUSH2 0x25E8 DUP5 DUP3 DUP6 PUSH2 0x259F JUMP JUMPDEST POP SWAP4 SWAP3 POP POP POP JUMP JUMPDEST PUSH1 0x0 DUP3 PUSH1 0x1F DUP4 ADD SLT PUSH2 0x2605 JUMPI PUSH2 0x2604 PUSH2 0x24D8 JUMP JUMPDEST JUMPDEST DUP2 CALLDATALOAD PUSH2 0x2615 DUP5 DUP3 PUSH1 0x20 DUP7 ADD PUSH2 0x25AE JUMP JUMPDEST SWAP2 POP POP SWAP3 SWAP2 POP POP JUMP JUMPDEST PUSH2 0x2627 DUP2 PUSH2 0x21CC JUMP JUMPDEST DUP2 EQ PUSH2 0x2632 JUMPI PUSH1 0x0 DUP1 REVERT JUMPDEST POP JUMP JUMPDEST PUSH1 0x0 DUP2 CALLDATALOAD SWAP1 POP PUSH2 0x2644 DUP2 PUSH2 0x261E JUMP JUMPDEST SWAP3 SWAP2 POP POP JUMP JUMPDEST PUSH1 0x0 DUP1 PUSH1 0x0 DUP1 PUSH1 0x80 DUP6 DUP8 SUB SLT ISZERO PUSH2 0x2664 JUMPI PUSH2 0x2663 PUSH2 0x213D JUMP JUMPDEST JUMPDEST PUSH1 0x0 PUSH2 0x2672 DUP8 DUP3 DUP9 ADD PUSH2 0x24C3 JUMP JUMPDEST SWAP5 POP POP PUSH1 0x20 PUSH2 0x2683 DUP8 DUP3 DUP9 ADD PUSH2 0x224D JUMP JUMPDEST SWAP4 POP POP PUSH1 0x40 DUP6 ADD CALLDATALOAD PUSH8 0xFFFFFFFFFFFFFFFF DUP2 GT ISZERO PUSH2 0x26A4 JUMPI PUSH2 0x26A3 PUSH2 0x2142 JUMP JUMPDEST JUMPDEST PUSH2 0x26B0 DUP8 DUP3 DUP9 ADD PUSH2 0x25F0 JUMP JUMPDEST SWAP3 POP POP PUSH1 0x60 PUSH2 0x26C1 DUP8 DUP3 DUP9 ADD PUSH2 0x2635 JUMP JUMPDEST SWAP2 POP POP SWAP3 SWAP6 SWAP2 SWAP5 POP SWAP3 POP JUMP JUMPDEST PUSH1 0x0 DUP1 PUSH1 0x40 DUP4 DUP6 SUB SLT ISZERO PUSH2 0x26E4 JUMPI PUSH2 0x26E3 PUSH2 0x213D JUMP JUMPDEST JUMPDEST PUSH1 0x0 PUSH2 0x26F2 DUP6 DUP3 DUP7 ADD PUSH2 0x224D JUMP JUMPDEST SWAP3 POP POP PUSH1 0x20 PUSH2 0x2703 DUP6 DUP3 DUP7 ADD PUSH2 0x224D JUMP JUMPDEST SWAP2 POP POP SWAP3 POP SWAP3 SWAP1 POP JUMP JUMPDEST PUSH1 0x0 PUSH8 0xFFFFFFFFFFFFFFFF DUP3 GT ISZERO PUSH2 0x2728 JUMPI PUSH2 0x2727 PUSH2 0x24F3 JUMP JUMPDEST JUMPDEST PUSH1 0x20 DUP3 MUL SWAP1 POP SWAP2 SWAP1 POP JUMP JUMPDEST PUSH1 0x0 DUP1 REVERT JUMPDEST PUSH1 0x0 PUSH2 0x274B PUSH2 0x2746 DUP5 PUSH2 0x270D JUMP JUMPDEST PUSH2 0x2553 JUMP JUMPDEST SWAP1 POP DUP1 PUSH1 0x20 DUP5 MUL DUP4 ADD DUP6 DUP2 GT ISZERO PUSH2 0x2765 JUMPI PUSH2 0x2764 PUSH2 0x2733 JUMP JUMPDEST JUMPDEST DUP4 JUMPDEST DUP2 DUP2 LT ISZERO PUSH2 0x278E JUMPI DUP1 PUSH2 0x277A DUP9 DUP3 PUSH2 0x2445 JUMP JUMPDEST DUP5 MSTORE PUSH1 0x20 DUP5 ADD SWAP4 POP POP PUSH1 0x20 DUP2 ADD SWAP1 POP PUSH2 0x2767 JUMP JUMPDEST POP POP POP SWAP4 SWAP3 POP POP POP JUMP JUMPDEST PUSH1 0x0 DUP3 PUSH1 0x1F DUP4 ADD SLT PUSH2 0x27AD JUMPI PUSH2 0x27AC PUSH2 0x24D8 JUMP JUMPDEST JUMPDEST PUSH1 0x3 PUSH2 0x27BA DUP5 DUP3 DUP6 PUSH2 0x2738 JUMP JUMPDEST SWAP2 POP POP SWAP3 SWAP2 POP POP JUMP JUMPDEST PUSH1 0x0 DUP1 PUSH1 0x0 PUSH1 0xA0 DUP5 DUP7 SUB SLT ISZERO PUSH2 0x27DC JUMPI PUSH2 0x27DB PUSH2 0x213D JUMP JUMPDEST JUMPDEST PUSH1 0x0 PUSH2 0x27EA DUP7 DUP3 DUP8 ADD PUSH2 0x2445 JUMP JUMPDEST SWAP4 POP POP PUSH1 0x20 PUSH2 0x27FB DUP7 DUP3 DUP8 ADD PUSH2 0x2798 JUMP JUMPDEST SWAP3 POP POP PUSH1 0x80 PUSH2 0x280C DUP7 DUP3 DUP8 ADD PUSH2 0x224D JUMP JUMPDEST SWAP2 POP POP SWAP3 POP SWAP3 POP SWAP3 JUMP JUMPDEST PUSH1 0x0 DUP1 PUSH1 0x40 DUP4 DUP6 SUB SLT ISZERO PUSH2 0x282D JUMPI PUSH2 0x282C PUSH2 0x213D JUMP JUMPDEST JUMPDEST PUSH1 0x0 PUSH2 0x283B DUP6 DUP3 DUP7 ADD PUSH2 0x224D JUMP JUMPDEST SWAP3 POP POP PUSH1 0x20 PUSH2 0x284C DUP6 DUP3 DUP7 ADD PUSH2 0x2445 JUMP JUMPDEST SWAP2 POP POP SWAP3 POP SWAP3 SWAP1 POP JUMP JUMPDEST PUSH1 0x0 PUSH1 0x40 DUP3 ADD SWAP1 POP PUSH2 0x286B PUSH1 0x0 DUP4 ADD DUP6 PUSH2 0x220C JUMP JUMPDEST PUSH2 0x2878 PUSH1 0x20 DUP4 ADD DUP5 PUSH2 0x220C JUMP JUMPDEST SWAP4 SWAP3 POP POP POP JUMP JUMPDEST PUSH1 0x0 DUP1 PUSH1 0x0 PUSH1 0x60 DUP5 DUP7 SUB SLT ISZERO PUSH2 0x2898 JUMPI PUSH2 0x2897 PUSH2 0x213D JUMP JUMPDEST JUMPDEST PUSH1 0x0 PUSH2 0x28A6 DUP7 DUP3 DUP8 ADD PUSH2 0x224D JUMP JUMPDEST SWAP4 POP POP PUSH1 0x20 PUSH2 0x28B7 DUP7 DUP3 DUP8 ADD PUSH2 0x224D JUMP JUMPDEST SWAP3 POP POP PUSH1 0x40 PUSH2 0x28C8 DUP7 DUP3 DUP8 ADD PUSH2 0x2635 JUMP JUMPDEST SWAP2 POP POP SWAP3 POP SWAP3 POP SWAP3 JUMP JUMPDEST PUSH1 0x0 PUSH1 0x20 DUP3 DUP5 SUB SLT ISZERO PUSH2 0x28E8 JUMPI PUSH2 0x28E7 PUSH2 0x213D JUMP JUMPDEST JUMPDEST PUSH1 0x0 PUSH2 0x28F6 DUP5 DUP3 DUP6 ADD PUSH2 0x2445 JUMP JUMPDEST SWAP2 POP POP SWAP3 SWAP2 POP POP JUMP JUMPDEST PUSH1 0x0 DUP3 DUP3 MSTORE PUSH1 0x20 DUP3 ADD SWAP1 POP SWAP3 SWAP2 POP POP JUMP JUMPDEST PUSH32 0x416363657373436F6E74726F6C3A2063616E206F6E6C792072656E6F756E6365 PUSH1 0x0 DUP3 ADD MSTORE PUSH32 0x20726F6C657320666F722073656C660000000000000000000000000000000000 PUSH1 0x20 DUP3 ADD MSTORE POP JUMP JUMPDEST PUSH1 0x0 PUSH2 0x296C PUSH1 0x2F DUP4 PUSH2 0x28FF JUMP JUMPDEST SWAP2 POP PUSH2 0x2977 DUP3 PUSH2 0x2910 JUMP JUMPDEST PUSH1 0x40 DUP3 ADD SWAP1 POP SWAP2 SWAP1 POP JUMP JUMPDEST PUSH1 0x0 PUSH1 0x20 DUP3 ADD SWAP1 POP DUP2 DUP2 SUB PUSH1 0x0 DUP4 ADD MSTORE PUSH2 0x299B DUP2 PUSH2 0x295F JUMP JUMPDEST SWAP1 POP SWAP2 SWAP1 POP JUMP JUMPDEST PUSH1 0x0 DUP2 SWAP1 POP SWAP3 SWAP2 POP POP JUMP JUMPDEST PUSH32 0x476F7665726E6F72000000000000000000000000000000000000000000000000 PUSH1 0x0 DUP3 ADD MSTORE POP JUMP JUMPDEST PUSH1 0x0 PUSH2 0x29E3 PUSH1 0x8 DUP4 PUSH2 0x29A2 JUMP JUMPDEST SWAP2 POP PUSH2 0x29EE DUP3 PUSH2 0x29AD JUMP JUMPDEST PUSH1 0x8 DUP3 ADD SWAP1 POP SWAP2 SWAP1 POP JUMP JUMPDEST PUSH1 0x0 PUSH2 0x2A04 DUP3 PUSH2 0x29D6 JUMP JUMPDEST SWAP2 POP DUP2 SWAP1 POP SWAP2 SWAP1 POP JUMP JUMPDEST PUSH32 0x4E487B7100000000000000000000000000000000000000000000000000000000 PUSH1 0x0 MSTORE PUSH1 0x11 PUSH1 0x4 MSTORE PUSH1 0x24 PUSH1 0x0 REVERT JUMPDEST PUSH1 0x0 PUSH2 0x2A48 DUP3 PUSH2 0x2202 JUMP JUMPDEST SWAP2 POP PUSH2 0x2A53 DUP4 PUSH2 0x2202 JUMP JUMPDEST SWAP3 POP DUP3 DUP3 ADD SWAP1 POP DUP1 DUP3 GT ISZERO PUSH2 0x2A6B JUMPI PUSH2 0x2A6A PUSH2 0x2A0E JUMP JUMPDEST JUMPDEST SWAP3 SWAP2 POP POP JUMP JUMPDEST PUSH32 0x4E487B7100000000000000000000000000000000000000000000000000000000 PUSH1 0x0 MSTORE PUSH1 0x32 PUSH1 0x4 MSTORE PUSH1 0x24 PUSH1 0x0 REVERT JUMPDEST PUSH32 0x4661726D3A206E6F7420676F6F64000000000000000000000000000000000000 PUSH1 0x0 DUP3 ADD MSTORE POP JUMP JUMPDEST PUSH1 0x0 PUSH2 0x2AD6 PUSH1 0xE DUP4 PUSH2 0x28FF JUMP JUMPDEST SWAP2 POP PUSH2 0x2AE1 DUP3 PUSH2 0x2AA0 JUMP JUMPDEST PUSH1 0x20 DUP3 ADD SWAP1 POP SWAP2 SWAP1 POP JUMP JUMPDEST PUSH1 0x0 PUSH1 0x20 DUP3 ADD SWAP1 POP DUP2 DUP2 SUB PUSH1 0x0 DUP4 ADD MSTORE PUSH2 0x2B05 DUP2 PUSH2 0x2AC9 JUMP JUMPDEST SWAP1 POP SWAP2 SWAP1 POP JUMP JUMPDEST PUSH1 0x0 PUSH2 0x2B17 DUP3 PUSH2 0x2202 JUMP JUMPDEST SWAP2 POP PUSH2 0x2B22 DUP4 PUSH2 0x2202 JUMP JUMPDEST SWAP3 POP DUP3 DUP3 MUL PUSH2 0x2B30 DUP2 PUSH2 0x2202 JUMP JUMPDEST SWAP2 POP DUP3 DUP3 DIV DUP5 EQ DUP4 ISZERO OR PUSH2 0x2B47 JUMPI PUSH2 0x2B46 PUSH2 0x2A0E JUMP JUMPDEST JUMPDEST POP SWAP3 SWAP2 POP POP JUMP JUMPDEST PUSH32 0x4E487B7100000000000000000000000000000000000000000000000000000000 PUSH1 0x0 MSTORE PUSH1 0x12 PUSH1 0x4 MSTORE PUSH1 0x24 PUSH1 0x0 REVERT JUMPDEST PUSH1 0x0 PUSH2 0x2B88 DUP3 PUSH2 0x2202 JUMP JUMPDEST SWAP2 POP PUSH2 0x2B93 DUP4 PUSH2 0x2202 JUMP JUMPDEST SWAP3 POP DUP3 PUSH2 0x2BA3 JUMPI PUSH2 0x2BA2 PUSH2 0x2B4E JUMP JUMPDEST JUMPDEST DUP3 DUP3 DIV SWAP1 POP SWAP3 SWAP2 POP POP JUMP JUMPDEST PUSH1 0x0 PUSH2 0x2BB9 DUP3 PUSH2 0x2202 JUMP JUMPDEST SWAP2 POP PUSH2 0x2BC4 DUP4 PUSH2 0x2202 JUMP JUMPDEST SWAP3 POP DUP3 DUP3 SUB SWAP1 POP DUP2 DUP2 GT ISZERO PUSH2 0x2BDC JUMPI PUSH2 0x2BDB PUSH2 0x2A0E JUMP JUMPDEST JUMPDEST SWAP3 SWAP2 POP POP JUMP JUMPDEST PUSH2 0x2BEB DUP2 PUSH2 0x241C JUMP JUMPDEST DUP3 MSTORE POP POP JUMP JUMPDEST PUSH1 0x0 PUSH1 0x40 DUP3 ADD SWAP1 POP PUSH2 0x2C06 PUSH1 0x0 DUP4 ADD DUP6 PUSH2 0x2BE2 JUMP JUMPDEST PUSH2 0x2C13 PUSH1 0x20 DUP4 ADD DUP5 PUSH2 0x220C JUMP JUMPDEST SWAP4 SWAP3 POP POP POP JUMP JUMPDEST PUSH1 0x0 DUP2 MLOAD SWAP1 POP PUSH2 0x2C29 DUP2 PUSH2 0x261E JUMP JUMPDEST SWAP3 SWAP2 POP POP JUMP JUMPDEST PUSH1 0x0 PUSH1 0x20 DUP3 DUP5 SUB SLT ISZERO PUSH2 0x2C45 JUMPI PUSH2 0x2C44 PUSH2 0x213D JUMP JUMPDEST JUMPDEST PUSH1 0x0 PUSH2 0x2C53 DUP5 DUP3 DUP6 ADD PUSH2 0x2C1A JUMP JUMPDEST SWAP2 POP POP SWAP3 SWAP2 POP POP JUMP JUMPDEST PUSH1 0x0 PUSH1 0x20 DUP3 ADD SWAP1 POP PUSH2 0x2C71 PUSH1 0x0 DUP4 ADD DUP5 PUSH2 0x2BE2 JUMP JUMPDEST SWAP3 SWAP2 POP POP JUMP JUMPDEST PUSH1 0x0 DUP2 MLOAD SWAP1 POP PUSH2 0x2C86 DUP2 PUSH2 0x2236 JUMP JUMPDEST SWAP3 SWAP2 POP POP JUMP JUMPDEST PUSH1 0x0 PUSH1 0x20 DUP3 DUP5 SUB SLT ISZERO PUSH2 0x2CA2 JUMPI PUSH2 0x2CA1 PUSH2 0x213D JUMP JUMPDEST JUMPDEST PUSH1 0x0 PUSH2 0x2CB0 DUP5 DUP3 DUP6 ADD PUSH2 0x2C77 JUMP JUMPDEST SWAP2 POP POP SWAP3 SWAP2 POP POP JUMP JUMPDEST PUSH32 0x4661726D3A2063616C6C6572206973206E6F742074686520696E697469616C69 PUSH1 0x0 DUP3 ADD MSTORE PUSH32 0x7A65720000000000000000000000000000000000000000000000000000000000 PUSH1 0x20 DUP3 ADD MSTORE POP JUMP JUMPDEST PUSH1 0x0 PUSH2 0x2D15 PUSH1 0x23 DUP4 PUSH2 0x28FF JUMP JUMPDEST SWAP2 POP PUSH2 0x2D20 DUP3 PUSH2 0x2CB9 JUMP JUMPDEST PUSH1 0x40 DUP3 ADD SWAP1 POP SWAP2 SWAP1 POP JUMP JUMPDEST PUSH1 0x0 PUSH1 0x20 DUP3 ADD SWAP1 POP DUP2 DUP2 SUB PUSH1 0x0 DUP4 ADD MSTORE PUSH2 0x2D44 DUP2 PUSH2 0x2D08 JUMP JUMPDEST SWAP1 POP SWAP2 SWAP1 POP JUMP JUMPDEST PUSH32 0x4661726D3A20696E76616C696420485947542061646472657373000000000000 PUSH1 0x0 DUP3 ADD MSTORE POP JUMP JUMPDEST PUSH1 0x0 PUSH2 0x2D81 PUSH1 0x1A DUP4 PUSH2 0x28FF JUMP JUMPDEST SWAP2 POP PUSH2 0x2D8C DUP3 PUSH2 0x2D4B JUMP JUMPDEST PUSH1 0x20 DUP3 ADD SWAP1 POP SWAP2 SWAP1 POP JUMP JUMPDEST PUSH1 0x0 PUSH1 0x20 DUP3 ADD SWAP1 POP DUP2 DUP2 SUB PUSH1 0x0 DUP4 ADD MSTORE PUSH2 0x2DB0 DUP2 PUSH2 0x2D74 JUMP JUMPDEST SWAP1 POP SWAP2 SWAP1 POP JUMP JUMPDEST PUSH1 0x0 PUSH2 0x2DC2 DUP3 PUSH2 0x2202 JUMP JUMPDEST SWAP2 POP PUSH32 0xFFFFFFFFFFFFFFFFFFFFFFFFFFFFFFFFFFFFFFFFFFFFFFFFFFFFFFFFFFFFFFFF DUP3 SUB PUSH2 0x2DF4 JUMPI PUSH2 0x2DF3 PUSH2 0x2A0E JUMP JUMPDEST JUMPDEST PUSH1 0x1 DUP3 ADD SWAP1 POP SWAP2 SWAP1 POP JUMP JUMPDEST PUSH1 0x0 DUP2 MLOAD SWAP1 POP SWAP2 SWAP1 POP JUMP JUMPDEST PUSH1 0x0 JUMPDEST DUP4 DUP2 LT ISZERO PUSH2 0x2E28 JUMPI DUP1 DUP3 ADD MLOAD DUP2 DUP5 ADD MSTORE PUSH1 0x20 DUP2 ADD SWAP1 POP PUSH2 0x2E0D JUMP JUMPDEST PUSH1 0x0 DUP5 DUP5 ADD MSTORE POP POP POP POP JUMP JUMPDEST PUSH1 0x0 PUSH2 0x2E3F DUP3 PUSH2 0x2DFF JUMP JUMPDEST PUSH2 0x2E49 DUP2 DUP6 PUSH2 0x28FF JUMP JUMPDEST SWAP4 POP PUSH2 0x2E59 DUP2 DUP6 PUSH1 0x20 DUP7 ADD PUSH2 0x2E0A JUMP JUMPDEST PUSH2 0x2E62 DUP2 PUSH2 0x24E2 JUMP JUMPDEST DUP5 ADD SWAP2 POP POP SWAP3 SWAP2 POP POP JUMP JUMPDEST PUSH1 0x0 PUSH1 0x60 DUP3 ADD SWAP1 POP PUSH2 0x2E82 PUSH1 0x0 DUP4 ADD DUP7 PUSH2 0x2BE2 JUMP JUMPDEST DUP2 DUP2 SUB PUSH1 0x20 DUP4 ADD MSTORE PUSH2 0x2E94 DUP2 DUP6 PUSH2 0x2E34 JUMP JUMPDEST SWAP1 POP PUSH2 0x2EA3 PUSH1 0x40 DUP4 ADD DUP5 PUSH2 0x220C JUMP JUMPDEST SWAP5 SWAP4 POP POP POP POP JUMP JUMPDEST PUSH1 0x0 PUSH1 0x60 DUP3 ADD SWAP1 POP PUSH2 0x2EC0 PUSH1 0x0 DUP4 ADD DUP7 PUSH2 0x2BE2 JUMP JUMPDEST PUSH2 0x2ECD PUSH1 0x20 DUP4 ADD DUP6 PUSH2 0x2BE2 JUMP JUMPDEST PUSH2 0x2EDA PUSH1 0x40 DUP4 ADD DUP5 PUSH2 0x220C JUMP JUMPDEST SWAP5 SWAP4 POP POP POP POP JUMP JUMPDEST PUSH32 0x416363657373436F6E74726F6C3A206163636F756E7420000000000000000000 PUSH1 0x0 DUP3 ADD MSTORE POP JUMP JUMPDEST PUSH1 0x0 PUSH2 0x2F18 PUSH1 0x17 DUP4 PUSH2 0x29A2 JUMP JUMPDEST SWAP2 POP PUSH2 0x2F23 DUP3 PUSH2 0x2EE2 JUMP JUMPDEST PUSH1 0x17 DUP3 ADD SWAP1 POP SWAP2 SWAP1 POP JUMP JUMPDEST PUSH1 0x0 PUSH2 0x2F39 DUP3 PUSH2 0x2DFF JUMP JUMPDEST PUSH2 0x2F43 DUP2 DUP6 PUSH2 0x29A2 JUMP JUMPDEST SWAP4 POP PUSH2 0x2F53 DUP2 DUP6 PUSH1 0x20 DUP7 ADD PUSH2 0x2E0A JUMP JUMPDEST DUP1 DUP5 ADD SWAP2 POP POP SWAP3 SWAP2 POP POP JUMP JUMPDEST PUSH32 0x206973206D697373696E6720726F6C6520000000000000000000000000000000 PUSH1 0x0 DUP3 ADD MSTORE POP JUMP JUMPDEST PUSH1 0x0 PUSH2 0x2F95 PUSH1 0x11 DUP4 PUSH2 0x29A2 JUMP JUMPDEST SWAP2 POP PUSH2 0x2FA0 DUP3 PUSH2 0x2F5F JUMP JUMPDEST PUSH1 0x11 DUP3 ADD SWAP1 POP SWAP2 SWAP1 POP JUMP JUMPDEST PUSH1 0x0 PUSH2 0x2FB6 DUP3 PUSH2 0x2F0B JUMP JUMPDEST SWAP2 POP PUSH2 0x2FC2 DUP3 DUP6 PUSH2 0x2F2E JUMP JUMPDEST SWAP2 POP PUSH2 0x2FCD DUP3 PUSH2 0x2F88 JUMP JUMPDEST SWAP2 POP PUSH2 0x2FD9 DUP3 DUP5 PUSH2 0x2F2E JUMP JUMPDEST SWAP2 POP DUP2 SWAP1 POP SWAP4 SWAP3 POP POP POP JUMP JUMPDEST PUSH1 0x0 PUSH1 0x20 DUP3 ADD SWAP1 POP DUP2 DUP2 SUB PUSH1 0x0 DUP4 ADD MSTORE PUSH2 0x2FFF DUP2 DUP5 PUSH2 0x2E34 JUMP JUMPDEST SWAP1 POP SWAP3 SWAP2 POP POP JUMP JUMPDEST PUSH32 0x5361666545524332303A204552433230206F7065726174696F6E20646964206E PUSH1 0x0 DUP3 ADD MSTORE PUSH32 0x6F74207375636365656400000000000000000000000000000000000000000000 PUSH1 0x20 DUP3 ADD MSTORE POP JUMP JUMPDEST PUSH1 0x0 PUSH2 0x3063 PUSH1 0x2A DUP4 PUSH2 0x28FF JUMP JUMPDEST SWAP2 POP PUSH2 0x306E DUP3 PUSH2 0x3007 JUMP JUMPDEST PUSH1 0x40 DUP3 ADD SWAP1 POP SWAP2 SWAP1 POP JUMP JUMPDEST PUSH1 0x0 PUSH1 0x20 DUP3 ADD SWAP1 POP DUP2 DUP2 SUB PUSH1 0x0 DUP4 ADD MSTORE PUSH2 0x3092 DUP2 PUSH2 0x3056 JUMP JUMPDEST SWAP1 POP SWAP2 SWAP1 POP JUMP JUMPDEST PUSH1 0x0 PUSH2 0x30A4 DUP3 PUSH2 0x2202 JUMP JUMPDEST SWAP2 POP PUSH1 0x0 DUP3 SUB PUSH2 0x30B7 JUMPI PUSH2 0x30B6 PUSH2 0x2A0E JUMP JUMPDEST JUMPDEST PUSH1 0x1 DUP3 SUB SWAP1 POP SWAP2 SWAP1 POP JUMP JUMPDEST PUSH32 0x537472696E67733A20686578206C656E67746820696E73756666696369656E74 PUSH1 0x0 DUP3 ADD MSTORE POP JUMP JUMPDEST PUSH1 0x0 PUSH2 0x30F8 PUSH1 0x20 DUP4 PUSH2 0x28FF JUMP JUMPDEST SWAP2 POP PUSH2 0x3103 DUP3 PUSH2 0x30C2 JUMP JUMPDEST PUSH1 0x20 DUP3 ADD SWAP1 POP SWAP2 SWAP1 POP JUMP JUMPDEST PUSH1 0x0 PUSH1 0x20 DUP3 ADD SWAP1 POP DUP2 DUP2 SUB PUSH1 0x0 DUP4 ADD MSTORE PUSH2 0x3127 DUP2 PUSH2 0x30EB JUMP JUMPDEST SWAP1 POP SWAP2 SWAP1 POP JUMP JUMPDEST PUSH32 0x416464726573733A20696E73756666696369656E742062616C616E636520666F PUSH1 0x0 DUP3 ADD MSTORE PUSH32 0x722063616C6C0000000000000000000000000000000000000000000000000000 PUSH1 0x20 DUP3 ADD MSTORE POP JUMP JUMPDEST PUSH1 0x0 PUSH2 0x318A PUSH1 0x26 DUP4 PUSH2 0x28FF JUMP JUMPDEST SWAP2 POP PUSH2 0x3195 DUP3 PUSH2 0x312E JUMP JUMPDEST PUSH1 0x40 DUP3 ADD SWAP1 POP SWAP2 SWAP1 POP JUMP JUMPDEST PUSH1 0x0 PUSH1 0x20 DUP3 ADD SWAP1 POP DUP2 DUP2 SUB PUSH1 0x0 DUP4 ADD MSTORE PUSH2 0x31B9 DUP2 PUSH2 0x317D JUMP JUMPDEST SWAP1 POP SWAP2 SWAP1 POP JUMP JUMPDEST PUSH1 0x0 DUP2 MLOAD SWAP1 POP SWAP2 SWAP1 POP JUMP JUMPDEST PUSH1 0x0 DUP2 SWAP1 POP SWAP3 SWAP2 POP POP JUMP JUMPDEST PUSH1 0x0 PUSH2 0x31E1 DUP3 PUSH2 0x31C0 JUMP JUMPDEST PUSH2 0x31EB DUP2 DUP6 PUSH2 0x31CB JUMP JUMPDEST SWAP4 POP PUSH2 0x31FB DUP2 DUP6 PUSH1 0x20 DUP7 ADD PUSH2 0x2E0A JUMP JUMPDEST DUP1 DUP5 ADD SWAP2 POP POP SWAP3 SWAP2 POP POP JUMP JUMPDEST PUSH1 0x0 PUSH2 0x3213 DUP3 DUP5 PUSH2 0x31D6 JUMP JUMPDEST SWAP2 POP DUP2 SWAP1 POP SWAP3 SWAP2 POP POP JUMP JUMPDEST PUSH32 0x416464726573733A2063616C6C20746F206E6F6E2D636F6E7472616374000000 PUSH1 0x0 DUP3 ADD MSTORE POP JUMP JUMPDEST PUSH1 0x0 PUSH2 0x3254 PUSH1 0x1D DUP4 PUSH2 0x28FF JUMP JUMPDEST SWAP2 POP PUSH2 0x325F DUP3 PUSH2 0x321E JUMP JUMPDEST PUSH1 0x20 DUP3 ADD SWAP1 POP SWAP2 SWAP1 POP JUMP JUMPDEST PUSH1 0x0 PUSH1 0x20 DUP3 ADD SWAP1 POP DUP2 DUP2 SUB PUSH1 0x0 DUP4 ADD MSTORE PUSH2 0x3283 DUP2 PUSH2 0x3247 JUMP JUMPDEST SWAP1 POP SWAP2 SWAP1 POP JUMP INVALID LOG2 PUSH5 0x6970667358 0x22 SLT KECCAK256 DUP4 CALLER ADD 0xDB SWAP2 CALLDATACOPY 0xE8 PC CALLER 0xC7 SWAP8 DUP13 GT DIV GASPRICE SGT 0xD8 0x26 SDIV 0xAA PUSH12 0x342C33CDCD4C1F9C72552464 PUSH20 0x6F6C634300081300330000000000000000000000 "
				},
				"gasEstimates": {
					"creation": {
						"codeDepositCost": "2598400",
						"executionCost": "infinite",
						"totalCost": "infinite"
					},
					"external": {
						"DEFAULT_ADMIN_ROLE()": "402",
						"GOVERNOR_ROLE()": "700",
						"HYGT()": "infinite",
						"HYGTPerBlock()": "2518",
						"addPool(address,uint256,string,bool)": "infinite",
						"deposit(uint256,uint256)": "infinite",
						"emergencyWithdraw(uint256)": "infinite",
						"getPending(uint256,address)": "infinite",
						"getPendingBatch(address)": "infinite",
						"getRoleAdmin(bytes32)": "infinite",
						"grantRole(bytes32,address)": "infinite",
						"hasRole(bytes32,address)": "3273",
						"initialize(address,address[3],uint256)": "infinite",
						"massUpdatePools()": "infinite",
						"poolInfo(uint256)": "infinite",
						"poolLength()": "2491",
						"renounceRole(bytes32,address)": "infinite",
						"revokeRole(bytes32,address)": "infinite",
						"startBlock()": "2540",
						"supportsInterface(bytes4)": "751",
						"totalAllocPoint()": "2519",
						"updateAllocation(uint256,uint256,bool)": "infinite",
						"updatePool(uint256)": "infinite",
						"userInfo(uint256,address)": "infinite",
						"withdraw(uint256,uint256)": "infinite"
					},
					"internal": {
						"_addPool(contract IERC20,uint256,string memory,uint256)": "infinite"
					}
				},
				"methodIdentifiers": {
					"DEFAULT_ADMIN_ROLE()": "a217fddf",
					"GOVERNOR_ROLE()": "ccc57490",
					"HYGT()": "23c64ce1",
					"HYGTPerBlock()": "79838ef0",
					"addPool(address,uint256,string,bool)": "3a0618fd",
					"deposit(uint256,uint256)": "e2bbb158",
					"emergencyWithdraw(uint256)": "5312ea8e",
					"getPending(uint256,address)": "7f37df3b",
					"getPendingBatch(address)": "b3ecb623",
					"getRoleAdmin(bytes32)": "248a9ca3",
					"grantRole(bytes32,address)": "2f2ff15d",
					"hasRole(bytes32,address)": "91d14854",
					"initialize(address,address[3],uint256)": "5e3e1581",
					"massUpdatePools()": "630b5ba1",
					"poolInfo(uint256)": "1526fe27",
					"poolLength()": "081e3eda",
					"renounceRole(bytes32,address)": "36568abe",
					"revokeRole(bytes32,address)": "d547741f",
					"startBlock()": "48cd4cb1",
					"supportsInterface(bytes4)": "01ffc9a7",
					"totalAllocPoint()": "17caf6f1",
					"updateAllocation(uint256,uint256,bool)": "ad35e1cc",
					"updatePool(uint256)": "51eb05a6",
					"userInfo(uint256,address)": "93f1a40b",
					"withdraw(uint256,uint256)": "441a3e70"
				}
			},
			"storageLayout": {
				"storage": [
					{
						"astId": 3012,
						"contract": "src/Farm.sol:Farm",
						"label": "_roles",
						"offset": 0,
						"slot": "0",
						"type": "t_mapping(t_bytes32,t_struct(RoleData)3007_storage)"
					},
					{
						"astId": 21,
						"contract": "src/Farm.sol:Farm",
						"label": "HYGT",
						"offset": 0,
						"slot": "1",
						"type": "t_contract(IHYGT)1176"
					},
					{
						"astId": 24,
						"contract": "src/Farm.sol:Farm",
						"label": "HYGTPerBlock",
						"offset": 0,
						"slot": "2",
						"type": "t_uint256"
					},
					{
						"astId": 27,
						"contract": "src/Farm.sol:Farm",
						"label": "startBlock",
						"offset": 0,
						"slot": "3",
						"type": "t_uint256"
					},
					{
						"astId": 30,
						"contract": "src/Farm.sol:Farm",
						"label": "totalAllocPoint",
						"offset": 0,
						"slot": "4",
						"type": "t_uint256"
					},
					{
						"astId": 35,
						"contract": "src/Farm.sol:Farm",
						"label": "_isInitialized",
						"offset": 0,
						"slot": "5",
						"type": "t_bool"
					},
					{
						"astId": 56,
						"contract": "src/Farm.sol:Farm",
						"label": "poolInfo",
						"offset": 0,
						"slot": "6",
						"type": "t_array(t_struct(PoolInfo)51_storage)dyn_storage"
					},
					{
						"astId": 64,
						"contract": "src/Farm.sol:Farm",
						"label": "userInfo",
						"offset": 0,
						"slot": "7",
						"type": "t_mapping(t_uint256,t_mapping(t_address,t_struct(UserInfo)40_storage))"
					}
				],
				"types": {
					"t_address": {
						"encoding": "inplace",
						"label": "address",
						"numberOfBytes": "20"
					},
					"t_array(t_struct(PoolInfo)51_storage)dyn_storage": {
						"base": "t_struct(PoolInfo)51_storage",
						"encoding": "dynamic_array",
						"label": "struct Farm.PoolInfo[]",
						"numberOfBytes": "32"
					},
					"t_bool": {
						"encoding": "inplace",
						"label": "bool",
						"numberOfBytes": "1"
					},
					"t_bytes32": {
						"encoding": "inplace",
						"label": "bytes32",
						"numberOfBytes": "32"
					},
					"t_contract(IERC20)1083": {
						"encoding": "inplace",
						"label": "contract IERC20",
						"numberOfBytes": "20"
					},
					"t_contract(IHYGT)1176": {
						"encoding": "inplace",
						"label": "contract IHYGT",
						"numberOfBytes": "20"
					},
					"t_mapping(t_address,t_bool)": {
						"encoding": "mapping",
						"key": "t_address",
						"label": "mapping(address => bool)",
						"numberOfBytes": "32",
						"value": "t_bool"
					},
					"t_mapping(t_address,t_struct(UserInfo)40_storage)": {
						"encoding": "mapping",
						"key": "t_address",
						"label": "mapping(address => struct Farm.UserInfo)",
						"numberOfBytes": "32",
						"value": "t_struct(UserInfo)40_storage"
					},
					"t_mapping(t_bytes32,t_struct(RoleData)3007_storage)": {
						"encoding": "mapping",
						"key": "t_bytes32",
						"label": "mapping(bytes32 => struct AccessControl.RoleData)",
						"numberOfBytes": "32",
						"value": "t_struct(RoleData)3007_storage"
					},
					"t_mapping(t_uint256,t_mapping(t_address,t_struct(UserInfo)40_storage))": {
						"encoding": "mapping",
						"key": "t_uint256",
						"label": "mapping(uint256 => mapping(address => struct Farm.UserInfo))",
						"numberOfBytes": "32",
						"value": "t_mapping(t_address,t_struct(UserInfo)40_storage)"
					},
					"t_struct(PoolInfo)51_storage": {
						"encoding": "inplace",
						"label": "struct Farm.PoolInfo",
						"members": [
							{
								"astId": 43,
								"contract": "src/Farm.sol:Farm",
								"label": "lpToken",
								"offset": 0,
								"slot": "0",
								"type": "t_contract(IERC20)1083"
							},
							{
								"astId": 45,
								"contract": "src/Farm.sol:Farm",
								"label": "allocPoint",
								"offset": 0,
								"slot": "1",
								"type": "t_uint256"
							},
							{
								"astId": 47,
								"contract": "src/Farm.sol:Farm",
								"label": "lastRewardBlock",
								"offset": 0,
								"slot": "2",
								"type": "t_uint256"
							},
							{
								"astId": 50,
								"contract": "src/Farm.sol:Farm",
								"label": "accHYGTPerShare",
								"offset": 0,
								"slot": "3",
								"type": "t_uint256"
							}
						],
						"numberOfBytes": "128"
					},
					"t_struct(RoleData)3007_storage": {
						"encoding": "inplace",
						"label": "struct AccessControl.RoleData",
						"members": [
							{
								"astId": 3004,
								"contract": "src/Farm.sol:Farm",
								"label": "members",
								"offset": 0,
								"slot": "0",
								"type": "t_mapping(t_address,t_bool)"
							},
							{
								"astId": 3006,
								"contract": "src/Farm.sol:Farm",
								"label": "adminRole",
								"offset": 0,
								"slot": "1",
								"type": "t_bytes32"
							}
						],
						"numberOfBytes": "64"
					},
					"t_struct(UserInfo)40_storage": {
						"encoding": "inplace",
						"label": "struct Farm.UserInfo",
						"members": [
							{
								"astId": 37,
								"contract": "src/Farm.sol:Farm",
								"label": "amount",
								"offset": 0,
								"slot": "0",
								"type": "t_uint256"
							},
							{
								"astId": 39,
								"contract": "src/Farm.sol:Farm",
								"label": "rewardDebt",
								"offset": 0,
								"slot": "1",
								"type": "t_uint256"
							}
						],
						"numberOfBytes": "64"
					},
					"t_uint256": {
						"encoding": "inplace",
						"label": "uint256",
						"numberOfBytes": "32"
					}
				}
			},
			"userdoc": {
				"kind": "user",
				"methods": {
					"HYGT()": {
						"notice": "The address of the primary governance token."
					},
					"HYGTPerBlock()": {
						"notice": "HYGT tokens created per block."
					},
					"addPool(address,uint256,string,bool)": {
						"notice": "Adds a new `LP Token` to the pool. Caller must have the `Governor` role. Assigns a unique id for the given `LP Token`. NOTE: The same `LP Token` must NOT be added more than once otherwise the reward calculation will be compromised."
					},
					"emergencyWithdraw(uint256)": {
						"notice": "Withdraw all `LP Tokens` from the given pool without caring about rewards. NOTE: Emergency only."
					},
					"getPending(uint256,address)": {
						"notice": "Gets all pending `HYGT` in a given pool for a given user."
					},
					"getPendingBatch(address)": {
						"notice": "Gets all pending `HYGT` for a given user."
					},
					"initialize(address,address[3],uint256)": {
						"notice": "Initializes external dependencies and state variables."
					},
					"massUpdatePools()": {
						"notice": "Updates reward variables for all pools. NOTE: May cause high gas spending."
					},
					"poolInfo(uint256)": {
						"notice": "Pool info."
					},
					"poolLength()": {
						"notice": "Returns the number of pools."
					},
					"startBlock()": {
						"notice": "The block number when HYGT mining starts."
					},
					"totalAllocPoint()": {
						"notice": "Total allocation poitns. Must be the sum of all allocation points in all pools."
					},
					"updateAllocation(uint256,uint256,bool)": {
						"notice": "Updates the given pool's HYGT allocation point. Caller must have the `Governor` role."
					},
					"updatePool(uint256)": {
						"notice": "Updates reward variables of the given pool to be up-to-date."
					},
					"userInfo(uint256,address)": {
						"notice": "User info for each corresponding pool."
					},
					"withdraw(uint256,uint256)": {
						"notice": "Withdraw a certain amount of `LP Tokens` from the given pool."
					}
				},
				"version": 1
			}
		}
	}
}