{
	"src/sHYDT.sol": {
		"sHYDT": {
			"abi": [
				{
					"inputs": [],
					"stateMutability": "nonpayable",
					"type": "constructor"
				},
				{
					"anonymous": false,
					"inputs": [
						{
							"indexed": true,
							"internalType": "address",
							"name": "owner",
							"type": "address"
						},
						{
							"indexed": true,
							"internalType": "address",
							"name": "spender",
							"type": "address"
						},
						{
							"indexed": false,
							"internalType": "uint256",
							"name": "value",
							"type": "uint256"
						}
					],
					"name": "Approval",
					"type": "event"
				},
				{
					"anonymous": false,
					"inputs": [
						{
							"indexed": true,
							"internalType": "bytes32",
							"name": "role",
							"type": "bytes32"
						},
						{
							"indexed": true,
							"internalType": "bytes32",
							"name": "previousAdminRole",
							"type": "bytes32"
						},
						{
							"indexed": true,
							"internalType": "bytes32",
							"name": "newAdminRole",
							"type": "bytes32"
						}
					],
					"name": "RoleAdminChanged",
					"type": "event"
				},
				{
					"anonymous": false,
					"inputs": [
						{
							"indexed": true,
							"internalType": "bytes32",
							"name": "role",
							"type": "bytes32"
						},
						{
							"indexed": true,
							"internalType": "address",
							"name": "account",
							"type": "address"
						},
						{
							"indexed": true,
							"internalType": "address",
							"name": "sender",
							"type": "address"
						}
					],
					"name": "RoleGranted",
					"type": "event"
				},
				{
					"anonymous": false,
					"inputs": [
						{
							"indexed": true,
							"internalType": "bytes32",
							"name": "role",
							"type": "bytes32"
						},
						{
							"indexed": true,
							"internalType": "address",
							"name": "account",
							"type": "address"
						},
						{
							"indexed": true,
							"internalType": "address",
							"name": "sender",
							"type": "address"
						}
					],
					"name": "RoleRevoked",
					"type": "event"
				},
				{
					"anonymous": false,
					"inputs": [
						{
							"indexed": true,
							"internalType": "address",
							"name": "from",
							"type": "address"
						},
						{
							"indexed": true,
							"internalType": "address",
							"name": "to",
							"type": "address"
						},
						{
							"indexed": false,
							"internalType": "uint256",
							"name": "value",
							"type": "uint256"
						}
					],
					"name": "Transfer",
					"type": "event"
				},
				{
					"inputs": [],
					"name": "CALLER_ROLE",
					"outputs": [
						{
							"internalType": "bytes32",
							"name": "",
							"type": "bytes32"
						}
					],
					"stateMutability": "view",
					"type": "function"
				},
				{
					"inputs": [],
					"name": "DEFAULT_ADMIN_ROLE",
					"outputs": [
						{
							"internalType": "bytes32",
							"name": "",
							"type": "bytes32"
						}
					],
					"stateMutability": "view",
					"type": "function"
				},
				{
					"inputs": [
						{
							"internalType": "address",
							"name": "owner",
							"type": "address"
						},
						{
							"internalType": "address",
							"name": "spender",
							"type": "address"
						}
					],
					"name": "allowance",
					"outputs": [
						{
							"internalType": "uint256",
							"name": "",
							"type": "uint256"
						}
					],
					"stateMutability": "view",
					"type": "function"
				},
				{
					"inputs": [
						{
							"internalType": "address",
							"name": "spender",
							"type": "address"
						},
						{
							"internalType": "uint256",
							"name": "amount",
							"type": "uint256"
						}
					],
					"name": "approve",
					"outputs": [
						{
							"internalType": "bool",
							"name": "",
							"type": "bool"
						}
					],
					"stateMutability": "nonpayable",
					"type": "function"
				},
				{
					"inputs": [
						{
							"internalType": "address",
							"name": "account",
							"type": "address"
						}
					],
					"name": "balanceOf",
					"outputs": [
						{
							"internalType": "uint256",
							"name": "",
							"type": "uint256"
						}
					],
					"stateMutability": "view",
					"type": "function"
				},
				{
					"inputs": [
						{
							"internalType": "uint256",
							"name": "amount",
							"type": "uint256"
						}
					],
					"name": "burn",
					"outputs": [
						{
							"internalType": "bool",
							"name": "",
							"type": "bool"
						}
					],
					"stateMutability": "nonpayable",
					"type": "function"
				},
				{
					"inputs": [
						{
							"internalType": "address",
							"name": "from",
							"type": "address"
						},
						{
							"internalType": "uint256",
							"name": "amount",
							"type": "uint256"
						}
					],
					"name": "burnFrom",
					"outputs": [
						{
							"internalType": "bool",
							"name": "",
							"type": "bool"
						}
					],
					"stateMutability": "nonpayable",
					"type": "function"
				},
				{
					"inputs": [],
					"name": "decimals",
					"outputs": [
						{
							"internalType": "uint8",
							"name": "",
							"type": "uint8"
						}
					],
					"stateMutability": "view",
					"type": "function"
				},
				{
					"inputs": [
						{
							"internalType": "address",
							"name": "spender",
							"type": "address"
						},
						{
							"internalType": "uint256",
							"name": "subtractedValue",
							"type": "uint256"
						}
					],
					"name": "decreaseAllowance",
					"outputs": [
						{
							"internalType": "bool",
							"name": "",
							"type": "bool"
						}
					],
					"stateMutability": "nonpayable",
					"type": "function"
				},
				{
					"inputs": [
						{
							"internalType": "bytes32",
							"name": "role",
							"type": "bytes32"
						}
					],
					"name": "getRoleAdmin",
					"outputs": [
						{
							"internalType": "bytes32",
							"name": "",
							"type": "bytes32"
						}
					],
					"stateMutability": "view",
					"type": "function"
				},
				{
					"inputs": [
						{
							"internalType": "bytes32",
							"name": "role",
							"type": "bytes32"
						},
						{
							"internalType": "address",
							"name": "account",
							"type": "address"
						}
					],
					"name": "grantRole",
					"outputs": [],
					"stateMutability": "nonpayable",
					"type": "function"
				},
				{
					"inputs": [
						{
							"internalType": "bytes32",
							"name": "role",
							"type": "bytes32"
						},
						{
							"internalType": "address",
							"name": "account",
							"type": "address"
						}
					],
					"name": "hasRole",
					"outputs": [
						{
							"internalType": "bool",
							"name": "",
							"type": "bool"
						}
					],
					"stateMutability": "view",
					"type": "function"
				},
				{
					"inputs": [
						{
							"internalType": "address",
							"name": "spender",
							"type": "address"
						},
						{
							"internalType": "uint256",
							"name": "addedValue",
							"type": "uint256"
						}
					],
					"name": "increaseAllowance",
					"outputs": [
						{
							"internalType": "bool",
							"name": "",
							"type": "bool"
						}
					],
					"stateMutability": "nonpayable",
					"type": "function"
				},
				{
					"inputs": [
						{
							"internalType": "address",
							"name": "earn_",
							"type": "address"
						}
					],
					"name": "initialize",
					"outputs": [],
					"stateMutability": "nonpayable",
					"type": "function"
				},
				{
					"inputs": [
						{
							"internalType": "address",
							"name": "to",
							"type": "address"
						},
						{
							"internalType": "uint256",
							"name": "amount",
							"type": "uint256"
						}
					],
					"name": "mint",
					"outputs": [
						{
							"internalType": "bool",
							"name": "",
							"type": "bool"
						}
					],
					"stateMutability": "nonpayable",
					"type": "function"
				},
				{
					"inputs": [],
					"name": "name",
					"outputs": [
						{
							"internalType": "string",
							"name": "",
							"type": "string"
						}
					],
					"stateMutability": "view",
					"type": "function"
				},
				{
					"inputs": [
						{
							"internalType": "bytes32",
							"name": "role",
							"type": "bytes32"
						},
						{
							"internalType": "address",
							"name": "account",
							"type": "address"
						}
					],
					"name": "renounceRole",
					"outputs": [],
					"stateMutability": "nonpayable",
					"type": "function"
				},
				{
					"inputs": [
						{
							"internalType": "bytes32",
							"name": "role",
							"type": "bytes32"
						},
						{
							"internalType": "address",
							"name": "account",
							"type": "address"
						}
					],
					"name": "revokeRole",
					"outputs": [],
					"stateMutability": "nonpayable",
					"type": "function"
				},
				{
					"inputs": [
						{
							"internalType": "bytes4",
							"name": "interfaceId",
							"type": "bytes4"
						}
					],
					"name": "supportsInterface",
					"outputs": [
						{
							"internalType": "bool",
							"name": "",
							"type": "bool"
						}
					],
					"stateMutability": "view",
					"type": "function"
				},
				{
					"inputs": [],
					"name": "symbol",
					"outputs": [
						{
							"internalType": "string",
							"name": "",
							"type": "string"
						}
					],
					"stateMutability": "view",
					"type": "function"
				},
				{
					"inputs": [],
					"name": "totalSupply",
					"outputs": [
						{
							"internalType": "uint256",
							"name": "",
							"type": "uint256"
						}
					],
					"stateMutability": "view",
					"type": "function"
				},
				{
					"inputs": [
						{
							"internalType": "address",
							"name": "to",
							"type": "address"
						},
						{
							"internalType": "uint256",
							"name": "amount",
							"type": "uint256"
						}
					],
					"name": "transfer",
					"outputs": [
						{
							"internalType": "bool",
							"name": "",
							"type": "bool"
						}
					],
					"stateMutability": "nonpayable",
					"type": "function"
				},
				{
					"inputs": [
						{
							"internalType": "address",
							"name": "from",
							"type": "address"
						},
						{
							"internalType": "address",
							"name": "to",
							"type": "address"
						},
						{
							"internalType": "uint256",
							"name": "amount",
							"type": "uint256"
						}
					],
					"name": "transferFrom",
					"outputs": [
						{
							"internalType": "bool",
							"name": "",
							"type": "bool"
						}
					],
					"stateMutability": "nonpayable",
					"type": "function"
				}
			],
			"devdoc": {
				"events": {
					"Approval(address,address,uint256)": {
						"details": "Emitted when the allowance of a `spender` for an `owner` is set by a call to {approve}. `value` is the new allowance."
					},
					"RoleAdminChanged(bytes32,bytes32,bytes32)": {
						"details": "Emitted when `newAdminRole` is set as ``role``'s admin role, replacing `previousAdminRole` `DEFAULT_ADMIN_ROLE` is the starting admin for all roles, despite {RoleAdminChanged} not being emitted signaling this. _Available since v3.1._"
					},
					"RoleGranted(bytes32,address,address)": {
						"details": "Emitted when `account` is granted `role`. `sender` is the account that originated the contract call, an admin role bearer except when using {AccessControl-_setupRole}."
					},
					"RoleRevoked(bytes32,address,address)": {
						"details": "Emitted when `account` is revoked `role`. `sender` is the account that originated the contract call:   - if using `revokeRole`, it is the admin role bearer   - if using `renounceRole`, it is the role bearer (i.e. `account`)"
					},
					"Transfer(address,address,uint256)": {
						"details": "Emitted when `value` tokens are moved from one account (`from`) to another (`to`). Note that `value` may be zero."
					}
				},
				"kind": "dev",
				"methods": {
					"allowance(address,address)": {
						"details": "See {IERC20-allowance}."
					},
					"approve(address,uint256)": {
						"details": "See {IERC20-approve}. NOTE: If `amount` is the maximum `uint256`, the allowance is not updated on `transferFrom`. This is semantically equivalent to an infinite approval. Requirements: - `spender` cannot be the zero address."
					},
					"balanceOf(address)": {
						"details": "See {IERC20-balanceOf}."
					},
					"burn(uint256)": {
						"details": "See {ERC20-_burn}. Requirements: - the caller must have the `Caller` role."
					},
					"burnFrom(address,uint256)": {
						"details": "Destorys `amount` tokens from `from` using the allowance mechanism. `amount` is then deducted from the caller's allowance. Emits an {Approval} event indicating the updated allowance. This is not required by the EIP. See the note at the beginning of {ERC20}. NOTE: Does not update the allowance if the current allowance is the maximum `uint256`. Emits a {Transfer} event with `to` set to the zero address. Requirements: - the caller must have the `Caller` role. - `from` cannot be the zero address. - `from` must have a balance of at least `amount`. - the caller must have allowance for ``from``'s tokens of at least `amount`."
					},
					"decimals()": {
						"details": "Returns the number of decimals used to get its user representation. For example, if `decimals` equals `2`, a balance of `505` tokens should be displayed to a user as `5.05` (`505 / 10 ** 2`). Tokens usually opt for a value of 18, imitating the relationship between Ether and Wei. This is the default value returned by this function, unless it's overridden. NOTE: This information is only used for _display_ purposes: it in no way affects any of the arithmetic of the contract, including {IERC20-balanceOf} and {IERC20-transfer}."
					},
					"decreaseAllowance(address,uint256)": {
						"details": "Atomically decreases the allowance granted to `spender` by the caller. This is an alternative to {approve} that can be used as a mitigation for problems described in {IERC20-approve}. Emits an {Approval} event indicating the updated allowance. Requirements: - `spender` cannot be the zero address. - `spender` must have allowance for the caller of at least `subtractedValue`."
					},
					"getRoleAdmin(bytes32)": {
						"details": "Returns the admin role that controls `role`. See {grantRole} and {revokeRole}. To change a role's admin, use {_setRoleAdmin}."
					},
					"grantRole(bytes32,address)": {
						"details": "Grants `role` to `account`. If `account` had not been already granted `role`, emits a {RoleGranted} event. Requirements: - the caller must have ``role``'s admin role. May emit a {RoleGranted} event."
					},
					"hasRole(bytes32,address)": {
						"details": "Returns `true` if `account` has been granted `role`."
					},
					"increaseAllowance(address,uint256)": {
						"details": "Atomically increases the allowance granted to `spender` by the caller. This is an alternative to {approve} that can be used as a mitigation for problems described in {IERC20-approve}. Emits an {Approval} event indicating the updated allowance. Requirements: - `spender` cannot be the zero address."
					},
					"initialize(address)": {
						"details": "This function can only be called once.",
						"params": {
							"earn_": "The address of the `Earn` contract."
						}
					},
					"mint(address,uint256)": {
						"details": "See {ERC20-_mint}. Requirements: - the caller must have the `Caller` role."
					},
					"name()": {
						"details": "Returns the name of the token."
					},
					"renounceRole(bytes32,address)": {
						"details": "Revokes `role` from the calling account. Roles are often managed via {grantRole} and {revokeRole}: this function's purpose is to provide a mechanism for accounts to lose their privileges if they are compromised (such as when a trusted device is misplaced). If the calling account had been revoked `role`, emits a {RoleRevoked} event. Requirements: - the caller must be `account`. May emit a {RoleRevoked} event."
					},
					"revokeRole(bytes32,address)": {
						"details": "Revokes `role` from `account`. If `account` had been granted `role`, emits a {RoleRevoked} event. Requirements: - the caller must have ``role``'s admin role. May emit a {RoleRevoked} event."
					},
					"supportsInterface(bytes4)": {
						"details": "See {IERC165-supportsInterface}."
					},
					"symbol()": {
						"details": "Returns the symbol of the token, usually a shorter version of the name."
					},
					"totalSupply()": {
						"details": "See {IERC20-totalSupply}."
					},
					"transfer(address,uint256)": {
						"details": "See {IERC20-transfer}. Requirements: - `to` cannot be the zero address. - the caller must have a balance of at least `amount`."
					},
					"transferFrom(address,address,uint256)": {
						"details": "See {IERC20-transferFrom}. Emits an {Approval} event indicating the updated allowance. This is not required by the EIP. See the note at the beginning of {ERC20}. NOTE: Does not update the allowance if the current allowance is the maximum `uint256`. Requirements: - `from` and `to` cannot be the zero address. - `from` must have a balance of at least `amount`. - the caller must have allowance for ``from``'s tokens of at least `amount`."
					}
				},
				"stateVariables": {
					"_initializer": {
						"details": "Initialization variables."
					}
				},
				"version": 1
			},
			"evm": {
				"assembly": "    /* \"src/sHYDT.sol\":180:3099  contract sHYDT is AccessControl, ERC20, IsHYDT {... */\n  mstore(0x40, 0xa0)\n    /* \"src/sHYDT.sol\":539:669  constructor()... */\n  callvalue\n  dup1\n  iszero\n  tag_1\n  jumpi\n  0x00\n  dup1\n  revert\ntag_1:\n  pop\n    /* \"src/extensions/ERC20.sol\":2043:2159  constructor(string memory name_, string memory symbol_) {... */\n  mload(0x40)\n  dup1\n  0x60\n  add\n  0x40\n  mstore\n  dup1\n  0x25\n  dup2\n  mstore\n  0x20\n  add\n  data_4be56b54bb0483f8c7decbfd8ea4b51bf9eda8402236441b22287bf2eafd554e\n  0x25\n  swap2\n  codecopy\n  mload(0x40)\n  dup1\n  0x40\n  add\n  0x40\n  mstore\n  dup1\n  0x05\n  dup2\n  mstore\n  0x20\n  add\n  0x7348594454000000000000000000000000000000000000000000000000000000\n  dup2\n  mstore\n  pop\n    /* \"src/extensions/ERC20.sol\":2118:2123  name_ */\n  dup2\n    /* \"src/extensions/ERC20.sol\":2110:2115  _name */\n  0x04\n    /* \"src/extensions/ERC20.sol\":2110:2123  _name = name_ */\n  swap1\n  dup2\n  tag_5\n  swap2\n  swap1\n  tag_6\n  jump\t// in\ntag_5:\n  pop\n    /* \"src/extensions/ERC20.sol\":2144:2151  symbol_ */\n  dup1\n    /* \"src/extensions/ERC20.sol\":2134:2141  _symbol */\n  0x05\n    /* \"src/extensions/ERC20.sol\":2134:2151  _symbol = symbol_ */\n  swap1\n  dup2\n  tag_7\n  swap2\n  swap1\n  tag_6\n  jump\t// in\ntag_7:\n  pop\n    /* \"src/extensions/ERC20.sol\":2043:2159  constructor(string memory name_, string memory symbol_) {... */\n  pop\n  pop\n    /* \"src/sHYDT.sol\":649:661  _msgSender() */\n  tag_9\n    /* \"src/sHYDT.sol\":649:659  _msgSender */\n  shl(0x20, tag_10)\n    /* \"src/sHYDT.sol\":649:661  _msgSender() */\n  0x20\n  shr\n  jump\t// in\ntag_9:\n    /* \"src/sHYDT.sol\":634:661  _initializer = _msgSender() */\n  0xffffffffffffffffffffffffffffffffffffffff\n  and\n  0x80\n  dup2\n  0xffffffffffffffffffffffffffffffffffffffff\n  and\n  dup2\n  mstore\n  pop\n  pop\n    /* \"src/sHYDT.sol\":180:3099  contract sHYDT is AccessControl, ERC20, IsHYDT {... */\n  jump(tag_11)\n    /* \"src/utils/Context.sol\":656:754  function _msgSender() internal view virtual returns (address) {... */\ntag_10:\n    /* \"src/utils/Context.sol\":709:716  address */\n  0x00\n    /* \"src/utils/Context.sol\":736:746  msg.sender */\n  caller\n    /* \"src/utils/Context.sol\":729:746  return msg.sender */\n  swap1\n  pop\n    /* \"src/utils/Context.sol\":656:754  function _msgSender() internal view virtual returns (address) {... */\n  swap1\n  jump\t// out\n    /* \"#utility.yul\":7:106   */\ntag_13:\n    /* \"#utility.yul\":59:65   */\n  0x00\n    /* \"#utility.yul\":93:98   */\n  dup2\n    /* \"#utility.yul\":87:99   */\n  mload\n    /* \"#utility.yul\":77:99   */\n  swap1\n  pop\n    /* \"#utility.yul\":7:106   */\n  swap2\n  swap1\n  pop\n  jump\t// out\n    /* \"#utility.yul\":112:292   */\ntag_14:\n    /* \"#utility.yul\":160:237   */\n  0x4e487b7100000000000000000000000000000000000000000000000000000000\n    /* \"#utility.yul\":157:158   */\n  0x00\n    /* \"#utility.yul\":150:238   */\n  mstore\n    /* \"#utility.yul\":257:261   */\n  0x41\n    /* \"#utility.yul\":254:255   */\n  0x04\n    /* \"#utility.yul\":247:262   */\n  mstore\n    /* \"#utility.yul\":281:285   */\n  0x24\n    /* \"#utility.yul\":278:279   */\n  0x00\n    /* \"#utility.yul\":271:286   */\n  revert\n    /* \"#utility.yul\":298:478   */\ntag_15:\n    /* \"#utility.yul\":346:423   */\n  0x4e487b7100000000000000000000000000000000000000000000000000000000\n    /* \"#utility.yul\":343:344   */\n  0x00\n    /* \"#utility.yul\":336:424   */\n  mstore\n    /* \"#utility.yul\":443:447   */\n  0x22\n    /* \"#utility.yul\":440:441   */\n  0x04\n    /* \"#utility.yul\":433:448   */\n  mstore\n    /* \"#utility.yul\":467:471   */\n  0x24\n    /* \"#utility.yul\":464:465   */\n  0x00\n    /* \"#utility.yul\":457:472   */\n  revert\n    /* \"#utility.yul\":484:804   */\ntag_16:\n    /* \"#utility.yul\":528:534   */\n  0x00\n    /* \"#utility.yul\":565:566   */\n  0x02\n    /* \"#utility.yul\":559:563   */\n  dup3\n    /* \"#utility.yul\":555:567   */\n  div\n    /* \"#utility.yul\":545:567   */\n  swap1\n  pop\n    /* \"#utility.yul\":612:613   */\n  0x01\n    /* \"#utility.yul\":606:610   */\n  dup3\n    /* \"#utility.yul\":602:614   */\n  and\n    /* \"#utility.yul\":633:651   */\n  dup1\n    /* \"#utility.yul\":623:704   */\n  tag_38\n  jumpi\n    /* \"#utility.yul\":689:693   */\n  0x7f\n    /* \"#utility.yul\":681:687   */\n  dup3\n    /* \"#utility.yul\":677:694   */\n  and\n    /* \"#utility.yul\":667:694   */\n  swap2\n  pop\n    /* \"#utility.yul\":623:704   */\ntag_38:\n    /* \"#utility.yul\":751:753   */\n  0x20\n    /* \"#utility.yul\":743:749   */\n  dup3\n    /* \"#utility.yul\":740:754   */\n  lt\n    /* \"#utility.yul\":720:738   */\n  dup2\n    /* \"#utility.yul\":717:755   */\n  sub\n    /* \"#utility.yul\":714:798   */\n  tag_39\n  jumpi\n    /* \"#utility.yul\":770:788   */\n  tag_40\n  tag_15\n  jump\t// in\ntag_40:\n    /* \"#utility.yul\":714:798   */\ntag_39:\n    /* \"#utility.yul\":535:804   */\n  pop\n    /* \"#utility.yul\":484:804   */\n  swap2\n  swap1\n  pop\n  jump\t// out\n    /* \"#utility.yul\":810:951   */\ntag_17:\n    /* \"#utility.yul\":859:863   */\n  0x00\n    /* \"#utility.yul\":882:885   */\n  dup2\n    /* \"#utility.yul\":874:885   */\n  swap1\n  pop\n    /* \"#utility.yul\":905:908   */\n  dup2\n    /* \"#utility.yul\":902:903   */\n  0x00\n    /* \"#utility.yul\":895:909   */\n  mstore\n    /* \"#utility.yul\":939:943   */\n  0x20\n    /* \"#utility.yul\":936:937   */\n  0x00\n    /* \"#utility.yul\":926:944   */\n  keccak256\n    /* \"#utility.yul\":918:944   */\n  swap1\n  pop\n    /* \"#utility.yul\":810:951   */\n  swap2\n  swap1\n  pop\n  jump\t// out\n    /* \"#utility.yul\":957:1050   */\ntag_18:\n    /* \"#utility.yul\":994:1000   */\n  0x00\n    /* \"#utility.yul\":1041:1043   */\n  0x20\n    /* \"#utility.yul\":1036:1038   */\n  0x1f\n    /* \"#utility.yul\":1029:1034   */\n  dup4\n    /* \"#utility.yul\":1025:1039   */\n  add\n    /* \"#utility.yul\":1021:1044   */\n  div\n    /* \"#utility.yul\":1011:1044   */\n  swap1\n  pop\n    /* \"#utility.yul\":957:1050   */\n  swap2\n  swap1\n  pop\n  jump\t// out\n    /* \"#utility.yul\":1056:1163   */\ntag_19:\n    /* \"#utility.yul\":1100:1108   */\n  0x00\n    /* \"#utility.yul\":1150:1155   */\n  dup3\n    /* \"#utility.yul\":1144:1148   */\n  dup3\n    /* \"#utility.yul\":1140:1156   */\n  shl\n    /* \"#utility.yul\":1119:1156   */\n  swap1\n  pop\n    /* \"#utility.yul\":1056:1163   */\n  swap3\n  swap2\n  pop\n  pop\n  jump\t// out\n    /* \"#utility.yul\":1169:1562   */\ntag_20:\n    /* \"#utility.yul\":1238:1244   */\n  0x00\n    /* \"#utility.yul\":1288:1289   */\n  0x08\n    /* \"#utility.yul\":1276:1286   */\n  dup4\n    /* \"#utility.yul\":1272:1290   */\n  mul\n    /* \"#utility.yul\":1311:1408   */\n  tag_45\n    /* \"#utility.yul\":1341:1407   */\n  0xffffffffffffffffffffffffffffffffffffffffffffffffffffffffffffffff\n    /* \"#utility.yul\":1330:1339   */\n  dup3\n    /* \"#utility.yul\":1311:1408   */\n  tag_19\n  jump\t// in\ntag_45:\n    /* \"#utility.yul\":1429:1468   */\n  tag_46\n    /* \"#utility.yul\":1459:1467   */\n  dup7\n    /* \"#utility.yul\":1448:1457   */\n  dup4\n    /* \"#utility.yul\":1429:1468   */\n  tag_19\n  jump\t// in\ntag_46:\n    /* \"#utility.yul\":1417:1468   */\n  swap6\n  pop\n    /* \"#utility.yul\":1501:1505   */\n  dup1\n    /* \"#utility.yul\":1497:1506   */\n  not\n    /* \"#utility.yul\":1490:1495   */\n  dup5\n    /* \"#utility.yul\":1486:1507   */\n  and\n    /* \"#utility.yul\":1477:1507   */\n  swap4\n  pop\n    /* \"#utility.yul\":1550:1554   */\n  dup1\n    /* \"#utility.yul\":1540:1548   */\n  dup7\n    /* \"#utility.yul\":1536:1555   */\n  and\n    /* \"#utility.yul\":1529:1534   */\n  dup5\n    /* \"#utility.yul\":1526:1556   */\n  or\n    /* \"#utility.yul\":1516:1556   */\n  swap3\n  pop\n    /* \"#utility.yul\":1245:1562   */\n  pop\n  pop\n    /* \"#utility.yul\":1169:1562   */\n  swap4\n  swap3\n  pop\n  pop\n  pop\n  jump\t// out\n    /* \"#utility.yul\":1568:1645   */\ntag_21:\n    /* \"#utility.yul\":1605:1612   */\n  0x00\n    /* \"#utility.yul\":1634:1639   */\n  dup2\n    /* \"#utility.yul\":1623:1639   */\n  swap1\n  pop\n    /* \"#utility.yul\":1568:1645   */\n  swap2\n  swap1\n  pop\n  jump\t// out\n    /* \"#utility.yul\":1651:1711   */\ntag_22:\n    /* \"#utility.yul\":1679:1682   */\n  0x00\n    /* \"#utility.yul\":1700:1705   */\n  dup2\n    /* \"#utility.yul\":1693:1705   */\n  swap1\n  pop\n    /* \"#utility.yul\":1651:1711   */\n  swap2\n  swap1\n  pop\n  jump\t// out\n    /* \"#utility.yul\":1717:1859   */\ntag_23:\n    /* \"#utility.yul\":1767:1776   */\n  0x00\n    /* \"#utility.yul\":1800:1853   */\n  tag_50\n    /* \"#utility.yul\":1818:1852   */\n  tag_51\n    /* \"#utility.yul\":1827:1851   */\n  tag_52\n    /* \"#utility.yul\":1845:1850   */\n  dup5\n    /* \"#utility.yul\":1827:1851   */\n  tag_21\n  jump\t// in\ntag_52:\n    /* \"#utility.yul\":1818:1852   */\n  tag_22\n  jump\t// in\ntag_51:\n    /* \"#utility.yul\":1800:1853   */\n  tag_21\n  jump\t// in\ntag_50:\n    /* \"#utility.yul\":1787:1853   */\n  swap1\n  pop\n    /* \"#utility.yul\":1717:1859   */\n  swap2\n  swap1\n  pop\n  jump\t// out\n    /* \"#utility.yul\":1865:1940   */\ntag_24:\n    /* \"#utility.yul\":1908:1911   */\n  0x00\n    /* \"#utility.yul\":1929:1934   */\n  dup2\n    /* \"#utility.yul\":1922:1934   */\n  swap1\n  pop\n    /* \"#utility.yul\":1865:1940   */\n  swap2\n  swap1\n  pop\n  jump\t// out\n    /* \"#utility.yul\":1946:2215   */\ntag_25:\n    /* \"#utility.yul\":2056:2095   */\n  tag_55\n    /* \"#utility.yul\":2087:2094   */\n  dup4\n    /* \"#utility.yul\":2056:2095   */\n  tag_23\n  jump\t// in\ntag_55:\n    /* \"#utility.yul\":2117:2208   */\n  tag_56\n    /* \"#utility.yul\":2166:2207   */\n  tag_57\n    /* \"#utility.yul\":2190:2206   */\n  dup3\n    /* \"#utility.yul\":2166:2207   */\n  tag_24\n  jump\t// in\ntag_57:\n    /* \"#utility.yul\":2158:2164   */\n  dup5\n    /* \"#utility.yul\":2151:2155   */\n  dup5\n    /* \"#utility.yul\":2145:2156   */\n  sload\n    /* \"#utility.yul\":2117:2208   */\n  tag_20\n  jump\t// in\ntag_56:\n    /* \"#utility.yul\":2111:2115   */\n  dup3\n    /* \"#utility.yul\":2104:2209   */\n  sstore\n    /* \"#utility.yul\":2022:2215   */\n  pop\n    /* \"#utility.yul\":1946:2215   */\n  pop\n  pop\n  pop\n  jump\t// out\n    /* \"#utility.yul\":2221:2294   */\ntag_26:\n    /* \"#utility.yul\":2266:2269   */\n  0x00\n    /* \"#utility.yul\":2221:2294   */\n  swap1\n  jump\t// out\n    /* \"#utility.yul\":2300:2489   */\ntag_27:\n    /* \"#utility.yul\":2377:2409   */\n  tag_60\n  tag_26\n  jump\t// in\ntag_60:\n    /* \"#utility.yul\":2418:2483   */\n  tag_61\n    /* \"#utility.yul\":2476:2482   */\n  dup2\n    /* \"#utility.yul\":2468:2474   */\n  dup5\n    /* \"#utility.yul\":2462:2466   */\n  dup5\n    /* \"#utility.yul\":2418:2483   */\n  tag_25\n  jump\t// in\ntag_61:\n    /* \"#utility.yul\":2353:2489   */\n  pop\n    /* \"#utility.yul\":2300:2489   */\n  pop\n  pop\n  jump\t// out\n    /* \"#utility.yul\":2495:2681   */\ntag_28:\n    /* \"#utility.yul\":2555:2675   */\ntag_63:\n    /* \"#utility.yul\":2572:2575   */\n  dup2\n    /* \"#utility.yul\":2565:2570   */\n  dup2\n    /* \"#utility.yul\":2562:2576   */\n  lt\n    /* \"#utility.yul\":2555:2675   */\n  iszero\n  tag_65\n  jumpi\n    /* \"#utility.yul\":2626:2665   */\n  tag_66\n    /* \"#utility.yul\":2663:2664   */\n  0x00\n    /* \"#utility.yul\":2656:2661   */\n  dup3\n    /* \"#utility.yul\":2626:2665   */\n  tag_27\n  jump\t// in\ntag_66:\n    /* \"#utility.yul\":2599:2600   */\n  0x01\n    /* \"#utility.yul\":2592:2597   */\n  dup2\n    /* \"#utility.yul\":2588:2601   */\n  add\n    /* \"#utility.yul\":2579:2601   */\n  swap1\n  pop\n    /* \"#utility.yul\":2555:2675   */\n  jump(tag_63)\ntag_65:\n    /* \"#utility.yul\":2495:2681   */\n  pop\n  pop\n  jump\t// out\n    /* \"#utility.yul\":2687:3230   */\ntag_29:\n    /* \"#utility.yul\":2788:2790   */\n  0x1f\n    /* \"#utility.yul\":2783:2786   */\n  dup3\n    /* \"#utility.yul\":2780:2791   */\n  gt\n    /* \"#utility.yul\":2777:3223   */\n  iszero\n  tag_68\n  jumpi\n    /* \"#utility.yul\":2822:2860   */\n  tag_69\n    /* \"#utility.yul\":2854:2859   */\n  dup2\n    /* \"#utility.yul\":2822:2860   */\n  tag_17\n  jump\t// in\ntag_69:\n    /* \"#utility.yul\":2906:2935   */\n  tag_70\n    /* \"#utility.yul\":2924:2934   */\n  dup5\n    /* \"#utility.yul\":2906:2935   */\n  tag_18\n  jump\t// in\ntag_70:\n    /* \"#utility.yul\":2896:2904   */\n  dup2\n    /* \"#utility.yul\":2892:2936   */\n  add\n    /* \"#utility.yul\":3089:3091   */\n  0x20\n    /* \"#utility.yul\":3077:3087   */\n  dup6\n    /* \"#utility.yul\":3074:3092   */\n  lt\n    /* \"#utility.yul\":3071:3120   */\n  iszero\n  tag_71\n  jumpi\n    /* \"#utility.yul\":3110:3118   */\n  dup2\n    /* \"#utility.yul\":3095:3118   */\n  swap1\n  pop\n    /* \"#utility.yul\":3071:3120   */\ntag_71:\n    /* \"#utility.yul\":3133:3213   */\n  tag_72\n    /* \"#utility.yul\":3189:3211   */\n  tag_73\n    /* \"#utility.yul\":3207:3210   */\n  dup6\n    /* \"#utility.yul\":3189:3211   */\n  tag_18\n  jump\t// in\ntag_73:\n    /* \"#utility.yul\":3179:3187   */\n  dup4\n    /* \"#utility.yul\":3175:3212   */\n  add\n    /* \"#utility.yul\":3162:3173   */\n  dup3\n    /* \"#utility.yul\":3133:3213   */\n  tag_28\n  jump\t// in\ntag_72:\n    /* \"#utility.yul\":2792:3223   */\n  pop\n  pop\n    /* \"#utility.yul\":2777:3223   */\ntag_68:\n    /* \"#utility.yul\":2687:3230   */\n  pop\n  pop\n  pop\n  jump\t// out\n    /* \"#utility.yul\":3236:3353   */\ntag_30:\n    /* \"#utility.yul\":3290:3298   */\n  0x00\n    /* \"#utility.yul\":3340:3345   */\n  dup3\n    /* \"#utility.yul\":3334:3338   */\n  dup3\n    /* \"#utility.yul\":3330:3346   */\n  shr\n    /* \"#utility.yul\":3309:3346   */\n  swap1\n  pop\n    /* \"#utility.yul\":3236:3353   */\n  swap3\n  swap2\n  pop\n  pop\n  jump\t// out\n    /* \"#utility.yul\":3359:3528   */\ntag_31:\n    /* \"#utility.yul\":3403:3409   */\n  0x00\n    /* \"#utility.yul\":3436:3487   */\n  tag_76\n    /* \"#utility.yul\":3484:3485   */\n  0x00\n    /* \"#utility.yul\":3480:3486   */\n  not\n    /* \"#utility.yul\":3472:3477   */\n  dup5\n    /* \"#utility.yul\":3469:3470   */\n  0x08\n    /* \"#utility.yul\":3465:3478   */\n  mul\n    /* \"#utility.yul\":3436:3487   */\n  tag_30\n  jump\t// in\ntag_76:\n    /* \"#utility.yul\":3432:3488   */\n  not\n    /* \"#utility.yul\":3517:3521   */\n  dup1\n    /* \"#utility.yul\":3511:3515   */\n  dup4\n    /* \"#utility.yul\":3507:3522   */\n  and\n    /* \"#utility.yul\":3497:3522   */\n  swap2\n  pop\n    /* \"#utility.yul\":3410:3528   */\n  pop\n    /* \"#utility.yul\":3359:3528   */\n  swap3\n  swap2\n  pop\n  pop\n  jump\t// out\n    /* \"#utility.yul\":3533:3828   */\ntag_32:\n    /* \"#utility.yul\":3609:3613   */\n  0x00\n    /* \"#utility.yul\":3755:3784   */\n  tag_78\n    /* \"#utility.yul\":3780:3783   */\n  dup4\n    /* \"#utility.yul\":3774:3778   */\n  dup4\n    /* \"#utility.yul\":3755:3784   */\n  tag_31\n  jump\t// in\ntag_78:\n    /* \"#utility.yul\":3747:3784   */\n  swap2\n  pop\n    /* \"#utility.yul\":3817:3820   */\n  dup3\n    /* \"#utility.yul\":3814:3815   */\n  0x02\n    /* \"#utility.yul\":3810:3821   */\n  mul\n    /* \"#utility.yul\":3804:3808   */\n  dup3\n    /* \"#utility.yul\":3801:3822   */\n  or\n    /* \"#utility.yul\":3793:3822   */\n  swap1\n  pop\n    /* \"#utility.yul\":3533:3828   */\n  swap3\n  swap2\n  pop\n  pop\n  jump\t// out\n    /* \"#utility.yul\":3833:5228   */\ntag_6:\n    /* \"#utility.yul\":3950:3987   */\n  tag_80\n    /* \"#utility.yul\":3983:3986   */\n  dup3\n    /* \"#utility.yul\":3950:3987   */\n  tag_13\n  jump\t// in\ntag_80:\n    /* \"#utility.yul\":4052:4070   */\n  0xffffffffffffffff\n    /* \"#utility.yul\":4044:4050   */\n  dup2\n    /* \"#utility.yul\":4041:4071   */\n  gt\n    /* \"#utility.yul\":4038:4094   */\n  iszero\n  tag_81\n  jumpi\n    /* \"#utility.yul\":4074:4092   */\n  tag_82\n  tag_14\n  jump\t// in\ntag_82:\n    /* \"#utility.yul\":4038:4094   */\ntag_81:\n    /* \"#utility.yul\":4118:4156   */\n  tag_83\n    /* \"#utility.yul\":4150:4154   */\n  dup3\n    /* \"#utility.yul\":4144:4155   */\n  sload\n    /* \"#utility.yul\":4118:4156   */\n  tag_16\n  jump\t// in\ntag_83:\n    /* \"#utility.yul\":4203:4270   */\n  tag_84\n    /* \"#utility.yul\":4263:4269   */\n  dup3\n    /* \"#utility.yul\":4255:4261   */\n  dup3\n    /* \"#utility.yul\":4249:4253   */\n  dup6\n    /* \"#utility.yul\":4203:4270   */\n  tag_29\n  jump\t// in\ntag_84:\n    /* \"#utility.yul\":4297:4298   */\n  0x00\n    /* \"#utility.yul\":4321:4325   */\n  0x20\n    /* \"#utility.yul\":4308:4325   */\n  swap1\n  pop\n    /* \"#utility.yul\":4353:4355   */\n  0x1f\n    /* \"#utility.yul\":4345:4351   */\n  dup4\n    /* \"#utility.yul\":4342:4356   */\n  gt\n    /* \"#utility.yul\":4370:4371   */\n  0x01\n    /* \"#utility.yul\":4365:4983   */\n  dup2\n  eq\n  tag_86\n  jumpi\n    /* \"#utility.yul\":5027:5028   */\n  0x00\n    /* \"#utility.yul\":5044:5050   */\n  dup5\n    /* \"#utility.yul\":5041:5118   */\n  iszero\n  tag_87\n  jumpi\n    /* \"#utility.yul\":5093:5102   */\n  dup3\n    /* \"#utility.yul\":5088:5091   */\n  dup8\n    /* \"#utility.yul\":5084:5103   */\n  add\n    /* \"#utility.yul\":5078:5104   */\n  mload\n    /* \"#utility.yul\":5069:5104   */\n  swap1\n  pop\n    /* \"#utility.yul\":5041:5118   */\ntag_87:\n    /* \"#utility.yul\":5144:5211   */\n  tag_88\n    /* \"#utility.yul\":5204:5210   */\n  dup6\n    /* \"#utility.yul\":5197:5202   */\n  dup3\n    /* \"#utility.yul\":5144:5211   */\n  tag_32\n  jump\t// in\ntag_88:\n    /* \"#utility.yul\":5138:5142   */\n  dup7\n    /* \"#utility.yul\":5131:5212   */\n  sstore\n    /* \"#utility.yul\":5000:5222   */\n  pop\n    /* \"#utility.yul\":4335:5222   */\n  jump(tag_85)\n    /* \"#utility.yul\":4365:4983   */\ntag_86:\n    /* \"#utility.yul\":4417:4421   */\n  0x1f\n    /* \"#utility.yul\":4413:4422   */\n  not\n    /* \"#utility.yul\":4405:4411   */\n  dup5\n    /* \"#utility.yul\":4401:4423   */\n  and\n    /* \"#utility.yul\":4451:4488   */\n  tag_89\n    /* \"#utility.yul\":4483:4487   */\n  dup7\n    /* \"#utility.yul\":4451:4488   */\n  tag_17\n  jump\t// in\ntag_89:\n    /* \"#utility.yul\":4510:4511   */\n  0x00\n    /* \"#utility.yul\":4524:4732   */\ntag_90:\n    /* \"#utility.yul\":4538:4545   */\n  dup3\n    /* \"#utility.yul\":4535:4536   */\n  dup2\n    /* \"#utility.yul\":4532:4546   */\n  lt\n    /* \"#utility.yul\":4524:4732   */\n  iszero\n  tag_92\n  jumpi\n    /* \"#utility.yul\":4617:4626   */\n  dup5\n    /* \"#utility.yul\":4612:4615   */\n  dup10\n    /* \"#utility.yul\":4608:4627   */\n  add\n    /* \"#utility.yul\":4602:4628   */\n  mload\n    /* \"#utility.yul\":4594:4600   */\n  dup3\n    /* \"#utility.yul\":4587:4629   */\n  sstore\n    /* \"#utility.yul\":4668:4669   */\n  0x01\n    /* \"#utility.yul\":4660:4666   */\n  dup3\n    /* \"#utility.yul\":4656:4670   */\n  add\n    /* \"#utility.yul\":4646:4670   */\n  swap2\n  pop\n    /* \"#utility.yul\":4715:4717   */\n  0x20\n    /* \"#utility.yul\":4704:4713   */\n  dup6\n    /* \"#utility.yul\":4700:4718   */\n  add\n    /* \"#utility.yul\":4687:4718   */\n  swap5\n  pop\n    /* \"#utility.yul\":4561:4565   */\n  0x20\n    /* \"#utility.yul\":4558:4559   */\n  dup2\n    /* \"#utility.yul\":4554:4566   */\n  add\n    /* \"#utility.yul\":4549:4566   */\n  swap1\n  pop\n    /* \"#utility.yul\":4524:4732   */\n  jump(tag_90)\ntag_92:\n    /* \"#utility.yul\":4760:4766   */\n  dup7\n    /* \"#utility.yul\":4751:4758   */\n  dup4\n    /* \"#utility.yul\":4748:4767   */\n  lt\n    /* \"#utility.yul\":4745:4924   */\n  iszero\n  tag_93\n  jumpi\n    /* \"#utility.yul\":4818:4827   */\n  dup5\n    /* \"#utility.yul\":4813:4816   */\n  dup10\n    /* \"#utility.yul\":4809:4828   */\n  add\n    /* \"#utility.yul\":4803:4829   */\n  mload\n    /* \"#utility.yul\":4861:4909   */\n  tag_94\n    /* \"#utility.yul\":4903:4907   */\n  0x1f\n    /* \"#utility.yul\":4895:4901   */\n  dup10\n    /* \"#utility.yul\":4891:4908   */\n  and\n    /* \"#utility.yul\":4880:4889   */\n  dup3\n    /* \"#utility.yul\":4861:4909   */\n  tag_31\n  jump\t// in\ntag_94:\n    /* \"#utility.yul\":4853:4859   */\n  dup4\n    /* \"#utility.yul\":4846:4910   */\n  sstore\n    /* \"#utility.yul\":4768:4924   */\n  pop\n    /* \"#utility.yul\":4745:4924   */\ntag_93:\n    /* \"#utility.yul\":4970:4971   */\n  0x01\n    /* \"#utility.yul\":4966:4967   */\n  0x02\n    /* \"#utility.yul\":4958:4964   */\n  dup9\n    /* \"#utility.yul\":4954:4968   */\n  mul\n    /* \"#utility.yul\":4950:4972   */\n  add\n    /* \"#utility.yul\":4944:4948   */\n  dup9\n    /* \"#utility.yul\":4937:4973   */\n  sstore\n    /* \"#utility.yul\":4372:4983   */\n  pop\n  pop\n  pop\n    /* \"#utility.yul\":4335:5222   */\ntag_85:\n  pop\n    /* \"#utility.yul\":3925:5228   */\n  pop\n  pop\n  pop\n    /* \"#utility.yul\":3833:5228   */\n  pop\n  pop\n  jump\t// out\n    /* \"src/sHYDT.sol\":180:3099  contract sHYDT is AccessControl, ERC20, IsHYDT {... */\ntag_11:\n  mload(0x80)\n  codecopy(0x00, dataOffset(sub_0), dataSize(sub_0))\n  0x00\n  assignImmutable(\"0xf22c5b16043446a68d62f47815793cbbc874be5b2e65e9e313507336d6583f6d\")\n  return(0x00, dataSize(sub_0))\nstop\ndata_4be56b54bb0483f8c7decbfd8ea4b51bf9eda8402236441b22287bf2eafd554e 5374616b65642048696768205969656c6420446f6c6c617220537461626c6520546f6b656e\n\nsub_0: assembly {\n        /* \"src/sHYDT.sol\":180:3099  contract sHYDT is AccessControl, ERC20, IsHYDT {... */\n      mstore(0x40, 0x80)\n      callvalue\n      dup1\n      iszero\n      tag_1\n      jumpi\n      0x00\n      dup1\n      revert\n    tag_1:\n      pop\n      jumpi(tag_2, lt(calldatasize, 0x04))\n      shr(0xe0, calldataload(0x00))\n      dup1\n      0x42966c68\n      gt\n      tag_26\n      jumpi\n      dup1\n      0xa217fddf\n      gt\n      tag_27\n      jumpi\n      dup1\n      0xa217fddf\n      eq\n      tag_20\n      jumpi\n      dup1\n      0xa457c2d7\n      eq\n      tag_21\n      jumpi\n      dup1\n      0xa9059cbb\n      eq\n      tag_22\n      jumpi\n      dup1\n      0xc4d66de8\n      eq\n      tag_23\n      jumpi\n      dup1\n      0xd547741f\n      eq\n      tag_24\n      jumpi\n      dup1\n      0xdd62ed3e\n      eq\n      tag_25\n      jumpi\n      jump(tag_2)\n    tag_27:\n      dup1\n      0x42966c68\n      eq\n      tag_14\n      jumpi\n      dup1\n      0x70a08231\n      eq\n      tag_15\n      jumpi\n      dup1\n      0x774237fc\n      eq\n      tag_16\n      jumpi\n      dup1\n      0x79cc6790\n      eq\n      tag_17\n      jumpi\n      dup1\n      0x91d14854\n      eq\n      tag_18\n      jumpi\n      dup1\n      0x95d89b41\n      eq\n      tag_19\n      jumpi\n      jump(tag_2)\n    tag_26:\n      dup1\n      0x248a9ca3\n      gt\n      tag_28\n      jumpi\n      dup1\n      0x248a9ca3\n      eq\n      tag_8\n      jumpi\n      dup1\n      0x2f2ff15d\n      eq\n      tag_9\n      jumpi\n      dup1\n      0x313ce567\n      eq\n      tag_10\n      jumpi\n      dup1\n      0x36568abe\n      eq\n      tag_11\n      jumpi\n      dup1\n      0x39509351\n      eq\n      tag_12\n      jumpi\n      dup1\n      0x40c10f19\n      eq\n      tag_13\n      jumpi\n      jump(tag_2)\n    tag_28:\n      dup1\n      0x01ffc9a7\n      eq\n      tag_3\n      jumpi\n      dup1\n      0x06fdde03\n      eq\n      tag_4\n      jumpi\n      dup1\n      0x095ea7b3\n      eq\n      tag_5\n      jumpi\n      dup1\n      0x18160ddd\n      eq\n      tag_6\n      jumpi\n      dup1\n      0x23b872dd\n      eq\n      tag_7\n      jumpi\n    tag_2:\n      0x00\n      dup1\n      revert\n        /* \"src/utils/AccessControl.sol\":2686:2890  function supportsInterface(bytes4 interfaceId) public view virtual override returns (bool) {... */\n    tag_3:\n      tag_29\n      0x04\n      dup1\n      calldatasize\n      sub\n      dup2\n      add\n      swap1\n      tag_30\n      swap2\n      swap1\n      tag_31\n      jump\t// in\n    tag_30:\n      tag_32\n      jump\t// in\n    tag_29:\n      mload(0x40)\n      tag_33\n      swap2\n      swap1\n      tag_34\n      jump\t// in\n    tag_33:\n      mload(0x40)\n      dup1\n      swap2\n      sub\n      swap1\n      return\n        /* \"src/extensions/ERC20.sol\":2229:2329  function name() public view virtual override returns (string memory) {... */\n    tag_4:\n      tag_35\n      tag_36\n      jump\t// in\n    tag_35:\n      mload(0x40)\n      tag_37\n      swap2\n      swap1\n      tag_38\n      jump\t// in\n    tag_37:\n      mload(0x40)\n      dup1\n      swap2\n      sub\n      swap1\n      return\n        /* \"src/extensions/ERC20.sol\":4589:4790  function approve(address spender, uint256 amount) public virtual override returns (bool) {... */\n    tag_5:\n      tag_39\n      0x04\n      dup1\n      calldatasize\n      sub\n      dup2\n      add\n      swap1\n      tag_40\n      swap2\n      swap1\n      tag_41\n      jump\t// in\n    tag_40:\n      tag_42\n      jump\t// in\n    tag_39:\n      mload(0x40)\n      tag_43\n      swap2\n      swap1\n      tag_34\n      jump\t// in\n    tag_43:\n      mload(0x40)\n      dup1\n      swap2\n      sub\n      swap1\n      return\n        /* \"src/extensions/ERC20.sol\":3358:3466  function totalSupply() public view virtual override returns (uint256) {... */\n    tag_6:\n      tag_44\n      tag_45\n      jump\t// in\n    tag_44:\n      mload(0x40)\n      tag_46\n      swap2\n      swap1\n      tag_47\n      jump\t// in\n    tag_46:\n      mload(0x40)\n      dup1\n      swap2\n      sub\n      swap1\n      return\n        /* \"src/extensions/ERC20.sol\":5370:5631  function transferFrom(address from, address to, uint256 amount) public virtual override returns (bool) {... */\n    tag_7:\n      tag_48\n      0x04\n      dup1\n      calldatasize\n      sub\n      dup2\n      add\n      swap1\n      tag_49\n      swap2\n      swap1\n      tag_50\n      jump\t// in\n    tag_49:\n      tag_51\n      jump\t// in\n    tag_48:\n      mload(0x40)\n      tag_52\n      swap2\n      swap1\n      tag_34\n      jump\t// in\n    tag_52:\n      mload(0x40)\n      dup1\n      swap2\n      sub\n      swap1\n      return\n        /* \"src/utils/AccessControl.sol\":4509:4640  function getRoleAdmin(bytes32 role) public view virtual override returns (bytes32) {... */\n    tag_8:\n      tag_53\n      0x04\n      dup1\n      calldatasize\n      sub\n      dup2\n      add\n      swap1\n      tag_54\n      swap2\n      swap1\n      tag_55\n      jump\t// in\n    tag_54:\n      tag_56\n      jump\t// in\n    tag_53:\n      mload(0x40)\n      tag_57\n      swap2\n      swap1\n      tag_58\n      jump\t// in\n    tag_57:\n      mload(0x40)\n      dup1\n      swap2\n      sub\n      swap1\n      return\n        /* \"src/utils/AccessControl.sol\":4950:5097  function grantRole(bytes32 role, address account) public virtual override onlyRole(getRoleAdmin(role)) {... */\n    tag_9:\n      tag_59\n      0x04\n      dup1\n      calldatasize\n      sub\n      dup2\n      add\n      swap1\n      tag_60\n      swap2\n      swap1\n      tag_61\n      jump\t// in\n    tag_60:\n      tag_62\n      jump\t// in\n    tag_59:\n      stop\n        /* \"src/extensions/ERC20.sol\":3200:3293  function decimals() public view virtual override returns (uint8) {... */\n    tag_10:\n      tag_63\n      tag_64\n      jump\t// in\n    tag_63:\n      mload(0x40)\n      tag_65\n      swap2\n      swap1\n      tag_66\n      jump\t// in\n    tag_65:\n      mload(0x40)\n      dup1\n      swap2\n      sub\n      swap1\n      return\n        /* \"src/utils/AccessControl.sol\":6094:6312  function renounceRole(bytes32 role, address account) public virtual override {... */\n    tag_11:\n      tag_67\n      0x04\n      dup1\n      calldatasize\n      sub\n      dup2\n      add\n      swap1\n      tag_68\n      swap2\n      swap1\n      tag_61\n      jump\t// in\n    tag_68:\n      tag_69\n      jump\t// in\n    tag_67:\n      stop\n        /* \"src/extensions/ERC20.sol\":6040:6278  function increaseAllowance(address spender, uint256 addedValue) public virtual returns (bool) {... */\n    tag_12:\n      tag_70\n      0x04\n      dup1\n      calldatasize\n      sub\n      dup2\n      add\n      swap1\n      tag_71\n      swap2\n      swap1\n      tag_41\n      jump\t// in\n    tag_71:\n      tag_72\n      jump\t// in\n    tag_70:\n      mload(0x40)\n      tag_73\n      swap2\n      swap1\n      tag_34\n      jump\t// in\n    tag_73:\n      mload(0x40)\n      dup1\n      swap2\n      sub\n      swap1\n      return\n        /* \"src/sHYDT.sol\":1586:1741  function mint(address to, uint256 amount) external override onlyRole(CALLER_ROLE) returns (bool) {... */\n    tag_13:\n      tag_74\n      0x04\n      dup1\n      calldatasize\n      sub\n      dup2\n      add\n      swap1\n      tag_75\n      swap2\n      swap1\n      tag_41\n      jump\t// in\n    tag_75:\n      tag_76\n      jump\t// in\n    tag_74:\n      mload(0x40)\n      tag_77\n      swap2\n      swap1\n      tag_34\n      jump\t// in\n    tag_77:\n      mload(0x40)\n      dup1\n      swap2\n      sub\n      swap1\n      return\n        /* \"src/sHYDT.sol\":1887:2050  function burn(uint256 amount) external override returns (bool) {... */\n    tag_14:\n      tag_78\n      0x04\n      dup1\n      calldatasize\n      sub\n      dup2\n      add\n      swap1\n      tag_79\n      swap2\n      swap1\n      tag_80\n      jump\t// in\n    tag_79:\n      tag_81\n      jump\t// in\n    tag_78:\n      mload(0x40)\n      tag_82\n      swap2\n      swap1\n      tag_34\n      jump\t// in\n    tag_82:\n      mload(0x40)\n      dup1\n      swap2\n      sub\n      swap1\n      return\n        /* \"src/extensions/ERC20.sol\":3529:3656  function balanceOf(address account) public view virtual override returns (uint256) {... */\n    tag_15:\n      tag_83\n      0x04\n      dup1\n      calldatasize\n      sub\n      dup2\n      add\n      swap1\n      tag_84\n      swap2\n      swap1\n      tag_85\n      jump\t// in\n    tag_84:\n      tag_86\n      jump\t// in\n    tag_83:\n      mload(0x40)\n      tag_87\n      swap2\n      swap1\n      tag_47\n      jump\t// in\n    tag_87:\n      mload(0x40)\n      dup1\n      swap2\n      sub\n      swap1\n      return\n        /* \"src/sHYDT.sol\":287:362  bytes32 public constant CALLER_ROLE = keccak256(abi.encodePacked(\"Caller\")) */\n    tag_16:\n      tag_88\n      tag_89\n      jump\t// in\n    tag_88:\n      mload(0x40)\n      tag_90\n      swap2\n      swap1\n      tag_58\n      jump\t// in\n    tag_90:\n      mload(0x40)\n      dup1\n      swap2\n      sub\n      swap1\n      return\n        /* \"src/sHYDT.sol\":2843:3096  function burnFrom(address from, uint256 amount) external override onlyRole(CALLER_ROLE) returns (bool) {... */\n    tag_17:\n      tag_91\n      0x04\n      dup1\n      calldatasize\n      sub\n      dup2\n      add\n      swap1\n      tag_92\n      swap2\n      swap1\n      tag_41\n      jump\t// in\n    tag_92:\n      tag_93\n      jump\t// in\n    tag_91:\n      mload(0x40)\n      tag_94\n      swap2\n      swap1\n      tag_34\n      jump\t// in\n    tag_94:\n      mload(0x40)\n      dup1\n      swap2\n      sub\n      swap1\n      return\n        /* \"src/utils/AccessControl.sol\":2982:3129  function hasRole(bytes32 role, address account) public view virtual override returns (bool) {... */\n    tag_18:\n      tag_95\n      0x04\n      dup1\n      calldatasize\n      sub\n      dup2\n      add\n      swap1\n      tag_96\n      swap2\n      swap1\n      tag_61\n      jump\t// in\n    tag_96:\n      tag_97\n      jump\t// in\n    tag_95:\n      mload(0x40)\n      tag_98\n      swap2\n      swap1\n      tag_34\n      jump\t// in\n    tag_98:\n      mload(0x40)\n      dup1\n      swap2\n      sub\n      swap1\n      return\n        /* \"src/extensions/ERC20.sol\":2448:2552  function symbol() public view virtual override returns (string memory) {... */\n    tag_19:\n      tag_99\n      tag_100\n      jump\t// in\n    tag_99:\n      mload(0x40)\n      tag_101\n      swap2\n      swap1\n      tag_38\n      jump\t// in\n    tag_101:\n      mload(0x40)\n      dup1\n      swap2\n      sub\n      swap1\n      return\n        /* \"src/utils/AccessControl.sol\":2087:2136  bytes32 public constant DEFAULT_ADMIN_ROLE = 0x00 */\n    tag_20:\n      tag_102\n      tag_103\n      jump\t// in\n    tag_102:\n      mload(0x40)\n      tag_104\n      swap2\n      swap1\n      tag_58\n      jump\t// in\n    tag_104:\n      mload(0x40)\n      dup1\n      swap2\n      sub\n      swap1\n      return\n        /* \"src/extensions/ERC20.sol\":6781:7217  function decreaseAllowance(address spender, uint256 subtractedValue) public virtual returns (bool) {... */\n    tag_21:\n      tag_105\n      0x04\n      dup1\n      calldatasize\n      sub\n      dup2\n      add\n      swap1\n      tag_106\n      swap2\n      swap1\n      tag_41\n      jump\t// in\n    tag_106:\n      tag_107\n      jump\t// in\n    tag_105:\n      mload(0x40)\n      tag_108\n      swap2\n      swap1\n      tag_34\n      jump\t// in\n    tag_108:\n      mload(0x40)\n      dup1\n      swap2\n      sub\n      swap1\n      return\n        /* \"src/extensions/ERC20.sol\":3862:4055  function transfer(address to, uint256 amount) public virtual override returns (bool) {... */\n    tag_22:\n      tag_109\n      0x04\n      dup1\n      calldatasize\n      sub\n      dup2\n      add\n      swap1\n      tag_110\n      swap2\n      swap1\n      tag_41\n      jump\t// in\n    tag_110:\n      tag_111\n      jump\t// in\n    tag_109:\n      mload(0x40)\n      tag_112\n      swap2\n      swap1\n      tag_34\n      jump\t// in\n    tag_112:\n      mload(0x40)\n      dup1\n      swap2\n      sub\n      swap1\n      return\n        /* \"src/sHYDT.sol\":921:1395  function initialize(address earn_) external {... */\n    tag_23:\n      tag_113\n      0x04\n      dup1\n      calldatasize\n      sub\n      dup2\n      add\n      swap1\n      tag_114\n      swap2\n      swap1\n      tag_85\n      jump\t// in\n    tag_114:\n      tag_115\n      jump\t// in\n    tag_113:\n      stop\n        /* \"src/utils/AccessControl.sol\":5390:5539  function revokeRole(bytes32 role, address account) public virtual override onlyRole(getRoleAdmin(role)) {... */\n    tag_24:\n      tag_116\n      0x04\n      dup1\n      calldatasize\n      sub\n      dup2\n      add\n      swap1\n      tag_117\n      swap2\n      swap1\n      tag_61\n      jump\t// in\n    tag_117:\n      tag_118\n      jump\t// in\n    tag_116:\n      stop\n        /* \"src/extensions/ERC20.sol\":4118:4269  function allowance(address owner, address spender) public view virtual override returns (uint256) {... */\n    tag_25:\n      tag_119\n      0x04\n      dup1\n      calldatasize\n      sub\n      dup2\n      add\n      swap1\n      tag_120\n      swap2\n      swap1\n      tag_121\n      jump\t// in\n    tag_120:\n      tag_122\n      jump\t// in\n    tag_119:\n      mload(0x40)\n      tag_123\n      swap2\n      swap1\n      tag_47\n      jump\t// in\n    tag_123:\n      mload(0x40)\n      dup1\n      swap2\n      sub\n      swap1\n      return\n        /* \"src/utils/AccessControl.sol\":2686:2890  function supportsInterface(bytes4 interfaceId) public view virtual override returns (bool) {... */\n    tag_32:\n        /* \"src/utils/AccessControl.sol\":2771:2775  bool */\n      0x00\n        /* \"src/utils/AccessControl.sol\":2810:2842  type(IAccessControl).interfaceId */\n      0x7965db0b00000000000000000000000000000000000000000000000000000000\n        /* \"src/utils/AccessControl.sol\":2795:2842  interfaceId == type(IAccessControl).interfaceId */\n      not(0xffffffffffffffffffffffffffffffffffffffffffffffffffffffff)\n      and\n        /* \"src/utils/AccessControl.sol\":2795:2806  interfaceId */\n      dup3\n        /* \"src/utils/AccessControl.sol\":2795:2842  interfaceId == type(IAccessControl).interfaceId */\n      not(0xffffffffffffffffffffffffffffffffffffffffffffffffffffffff)\n      and\n      eq\n        /* \"src/utils/AccessControl.sol\":2795:2882  interfaceId == type(IAccessControl).interfaceId || super.supportsInterface(interfaceId) */\n      dup1\n      tag_125\n      jumpi\n      pop\n        /* \"src/utils/AccessControl.sol\":2846:2882  super.supportsInterface(interfaceId) */\n      tag_126\n        /* \"src/utils/AccessControl.sol\":2870:2881  interfaceId */\n      dup3\n        /* \"src/utils/AccessControl.sol\":2846:2869  super.supportsInterface */\n      tag_127\n        /* \"src/utils/AccessControl.sol\":2846:2882  super.supportsInterface(interfaceId) */\n      jump\t// in\n    tag_126:\n        /* \"src/utils/AccessControl.sol\":2795:2882  interfaceId == type(IAccessControl).interfaceId || super.supportsInterface(interfaceId) */\n    tag_125:\n        /* \"src/utils/AccessControl.sol\":2788:2882  return interfaceId == type(IAccessControl).interfaceId || super.supportsInterface(interfaceId) */\n      swap1\n      pop\n        /* \"src/utils/AccessControl.sol\":2686:2890  function supportsInterface(bytes4 interfaceId) public view virtual override returns (bool) {... */\n      swap2\n      swap1\n      pop\n      jump\t// out\n        /* \"src/extensions/ERC20.sol\":2229:2329  function name() public view virtual override returns (string memory) {... */\n    tag_36:\n        /* \"src/extensions/ERC20.sol\":2283:2296  string memory */\n      0x60\n        /* \"src/extensions/ERC20.sol\":2316:2321  _name */\n      0x04\n        /* \"src/extensions/ERC20.sol\":2309:2321  return _name */\n      dup1\n      sload\n      tag_129\n      swap1\n      tag_130\n      jump\t// in\n    tag_129:\n      dup1\n      0x1f\n      add\n      0x20\n      dup1\n      swap2\n      div\n      mul\n      0x20\n      add\n      mload(0x40)\n      swap1\n      dup2\n      add\n      0x40\n      mstore\n      dup1\n      swap3\n      swap2\n      swap1\n      dup2\n      dup2\n      mstore\n      0x20\n      add\n      dup3\n      dup1\n      sload\n      tag_131\n      swap1\n      tag_130\n      jump\t// in\n    tag_131:\n      dup1\n      iszero\n      tag_132\n      jumpi\n      dup1\n      0x1f\n      lt\n      tag_133\n      jumpi\n      0x0100\n      dup1\n      dup4\n      sload\n      div\n      mul\n      dup4\n      mstore\n      swap2\n      0x20\n      add\n      swap2\n      jump(tag_132)\n    tag_133:\n      dup3\n      add\n      swap2\n      swap1\n      0x00\n      mstore\n      keccak256(0x00, 0x20)\n      swap1\n    tag_134:\n      dup2\n      sload\n      dup2\n      mstore\n      swap1\n      0x01\n      add\n      swap1\n      0x20\n      add\n      dup1\n      dup4\n      gt\n      tag_134\n      jumpi\n      dup3\n      swap1\n      sub\n      0x1f\n      and\n      dup3\n      add\n      swap2\n    tag_132:\n      pop\n      pop\n      pop\n      pop\n      pop\n      swap1\n      pop\n        /* \"src/extensions/ERC20.sol\":2229:2329  function name() public view virtual override returns (string memory) {... */\n      swap1\n      jump\t// out\n        /* \"src/extensions/ERC20.sol\":4589:4790  function approve(address spender, uint256 amount) public virtual override returns (bool) {... */\n    tag_42:\n        /* \"src/extensions/ERC20.sol\":4672:4676  bool */\n      0x00\n        /* \"src/extensions/ERC20.sol\":4689:4702  address owner */\n      dup1\n        /* \"src/extensions/ERC20.sol\":4705:4717  _msgSender() */\n      tag_136\n        /* \"src/extensions/ERC20.sol\":4705:4715  _msgSender */\n      tag_137\n        /* \"src/extensions/ERC20.sol\":4705:4717  _msgSender() */\n      jump\t// in\n    tag_136:\n        /* \"src/extensions/ERC20.sol\":4689:4717  address owner = _msgSender() */\n      swap1\n      pop\n        /* \"src/extensions/ERC20.sol\":4728:4760  _approve(owner, spender, amount) */\n      tag_138\n        /* \"src/extensions/ERC20.sol\":4737:4742  owner */\n      dup2\n        /* \"src/extensions/ERC20.sol\":4744:4751  spender */\n      dup6\n        /* \"src/extensions/ERC20.sol\":4753:4759  amount */\n      dup6\n        /* \"src/extensions/ERC20.sol\":4728:4736  _approve */\n      tag_139\n        /* \"src/extensions/ERC20.sol\":4728:4760  _approve(owner, spender, amount) */\n      jump\t// in\n    tag_138:\n        /* \"src/extensions/ERC20.sol\":4778:4782  true */\n      0x01\n        /* \"src/extensions/ERC20.sol\":4771:4782  return true */\n      swap2\n      pop\n      pop\n        /* \"src/extensions/ERC20.sol\":4589:4790  function approve(address spender, uint256 amount) public virtual override returns (bool) {... */\n      swap3\n      swap2\n      pop\n      pop\n      jump\t// out\n        /* \"src/extensions/ERC20.sol\":3358:3466  function totalSupply() public view virtual override returns (uint256) {... */\n    tag_45:\n        /* \"src/extensions/ERC20.sol\":3419:3426  uint256 */\n      0x00\n        /* \"src/extensions/ERC20.sol\":3446:3458  _totalSupply */\n      sload(0x03)\n        /* \"src/extensions/ERC20.sol\":3439:3458  return _totalSupply */\n      swap1\n      pop\n        /* \"src/extensions/ERC20.sol\":3358:3466  function totalSupply() public view virtual override returns (uint256) {... */\n      swap1\n      jump\t// out\n        /* \"src/extensions/ERC20.sol\":5370:5631  function transferFrom(address from, address to, uint256 amount) public virtual override returns (bool) {... */\n    tag_51:\n        /* \"src/extensions/ERC20.sol\":5467:5471  bool */\n      0x00\n        /* \"src/extensions/ERC20.sol\":5484:5499  address spender */\n      dup1\n        /* \"src/extensions/ERC20.sol\":5502:5514  _msgSender() */\n      tag_142\n        /* \"src/extensions/ERC20.sol\":5502:5512  _msgSender */\n      tag_137\n        /* \"src/extensions/ERC20.sol\":5502:5514  _msgSender() */\n      jump\t// in\n    tag_142:\n        /* \"src/extensions/ERC20.sol\":5484:5514  address spender = _msgSender() */\n      swap1\n      pop\n        /* \"src/extensions/ERC20.sol\":5525:5563  _spendAllowance(from, spender, amount) */\n      tag_143\n        /* \"src/extensions/ERC20.sol\":5541:5545  from */\n      dup6\n        /* \"src/extensions/ERC20.sol\":5547:5554  spender */\n      dup3\n        /* \"src/extensions/ERC20.sol\":5556:5562  amount */\n      dup6\n        /* \"src/extensions/ERC20.sol\":5525:5540  _spendAllowance */\n      tag_144\n        /* \"src/extensions/ERC20.sol\":5525:5563  _spendAllowance(from, spender, amount) */\n      jump\t// in\n    tag_143:\n        /* \"src/extensions/ERC20.sol\":5574:5601  _transfer(from, to, amount) */\n      tag_145\n        /* \"src/extensions/ERC20.sol\":5584:5588  from */\n      dup6\n        /* \"src/extensions/ERC20.sol\":5590:5592  to */\n      dup6\n        /* \"src/extensions/ERC20.sol\":5594:5600  amount */\n      dup6\n        /* \"src/extensions/ERC20.sol\":5574:5583  _transfer */\n      tag_146\n        /* \"src/extensions/ERC20.sol\":5574:5601  _transfer(from, to, amount) */\n      jump\t// in\n    tag_145:\n        /* \"src/extensions/ERC20.sol\":5619:5623  true */\n      0x01\n        /* \"src/extensions/ERC20.sol\":5612:5623  return true */\n      swap2\n      pop\n      pop\n        /* \"src/extensions/ERC20.sol\":5370:5631  function transferFrom(address from, address to, uint256 amount) public virtual override returns (bool) {... */\n      swap4\n      swap3\n      pop\n      pop\n      pop\n      jump\t// out\n        /* \"src/utils/AccessControl.sol\":4509:4640  function getRoleAdmin(bytes32 role) public view virtual override returns (bytes32) {... */\n    tag_56:\n        /* \"src/utils/AccessControl.sol\":4583:4590  bytes32 */\n      0x00\n        /* \"src/utils/AccessControl.sol\":4610:4616  _roles */\n      dup1\n        /* \"src/utils/AccessControl.sol\":4610:4622  _roles[role] */\n      0x00\n        /* \"src/utils/AccessControl.sol\":4617:4621  role */\n      dup4\n        /* \"src/utils/AccessControl.sol\":4610:4622  _roles[role] */\n      dup2\n      mstore\n      0x20\n      add\n      swap1\n      dup2\n      mstore\n      0x20\n      add\n      0x00\n      keccak256\n        /* \"src/utils/AccessControl.sol\":4610:4632  _roles[role].adminRole */\n      0x01\n      add\n      sload\n        /* \"src/utils/AccessControl.sol\":4603:4632  return _roles[role].adminRole */\n      swap1\n      pop\n        /* \"src/utils/AccessControl.sol\":4509:4640  function getRoleAdmin(bytes32 role) public view virtual override returns (bytes32) {... */\n      swap2\n      swap1\n      pop\n      jump\t// out\n        /* \"src/utils/AccessControl.sol\":4950:5097  function grantRole(bytes32 role, address account) public virtual override onlyRole(getRoleAdmin(role)) {... */\n    tag_62:\n        /* \"src/utils/AccessControl.sol\":5033:5051  getRoleAdmin(role) */\n      tag_148\n        /* \"src/utils/AccessControl.sol\":5046:5050  role */\n      dup3\n        /* \"src/utils/AccessControl.sol\":5033:5045  getRoleAdmin */\n      tag_56\n        /* \"src/utils/AccessControl.sol\":5033:5051  getRoleAdmin(role) */\n      jump\t// in\n    tag_148:\n        /* \"src/utils/AccessControl.sol\":2578:2594  _checkRole(role) */\n      tag_150\n        /* \"src/utils/AccessControl.sol\":2589:2593  role */\n      dup2\n        /* \"src/utils/AccessControl.sol\":2578:2588  _checkRole */\n      tag_151\n        /* \"src/utils/AccessControl.sol\":2578:2594  _checkRole(role) */\n      jump\t// in\n    tag_150:\n        /* \"src/utils/AccessControl.sol\":5064:5089  _grantRole(role, account) */\n      tag_153\n        /* \"src/utils/AccessControl.sol\":5075:5079  role */\n      dup4\n        /* \"src/utils/AccessControl.sol\":5081:5088  account */\n      dup4\n        /* \"src/utils/AccessControl.sol\":5064:5074  _grantRole */\n      tag_154\n        /* \"src/utils/AccessControl.sol\":5064:5089  _grantRole(role, account) */\n      jump\t// in\n    tag_153:\n        /* \"src/utils/AccessControl.sol\":4950:5097  function grantRole(bytes32 role, address account) public virtual override onlyRole(getRoleAdmin(role)) {... */\n      pop\n      pop\n      pop\n      jump\t// out\n        /* \"src/extensions/ERC20.sol\":3200:3293  function decimals() public view virtual override returns (uint8) {... */\n    tag_64:\n        /* \"src/extensions/ERC20.sol\":3258:3263  uint8 */\n      0x00\n        /* \"src/extensions/ERC20.sol\":3283:3285  18 */\n      0x12\n        /* \"src/extensions/ERC20.sol\":3276:3285  return 18 */\n      swap1\n      pop\n        /* \"src/extensions/ERC20.sol\":3200:3293  function decimals() public view virtual override returns (uint8) {... */\n      swap1\n      jump\t// out\n        /* \"src/utils/AccessControl.sol\":6094:6312  function renounceRole(bytes32 role, address account) public virtual override {... */\n    tag_69:\n        /* \"src/utils/AccessControl.sol\":6201:6213  _msgSender() */\n      tag_157\n        /* \"src/utils/AccessControl.sol\":6201:6211  _msgSender */\n      tag_137\n        /* \"src/utils/AccessControl.sol\":6201:6213  _msgSender() */\n      jump\t// in\n    tag_157:\n        /* \"src/utils/AccessControl.sol\":6190:6213  account == _msgSender() */\n      0xffffffffffffffffffffffffffffffffffffffff\n      and\n        /* \"src/utils/AccessControl.sol\":6190:6197  account */\n      dup2\n        /* \"src/utils/AccessControl.sol\":6190:6213  account == _msgSender() */\n      0xffffffffffffffffffffffffffffffffffffffff\n      and\n      eq\n        /* \"src/utils/AccessControl.sol\":6182:6265  require(account == _msgSender(), \"AccessControl: can only renounce roles for self\") */\n      tag_158\n      jumpi\n      mload(0x40)\n      0x08c379a000000000000000000000000000000000000000000000000000000000\n      dup2\n      mstore\n      0x04\n      add\n      tag_159\n      swap1\n      tag_160\n      jump\t// in\n    tag_159:\n      mload(0x40)\n      dup1\n      swap2\n      sub\n      swap1\n      revert\n    tag_158:\n        /* \"src/utils/AccessControl.sol\":6278:6304  _revokeRole(role, account) */\n      tag_161\n        /* \"src/utils/AccessControl.sol\":6290:6294  role */\n      dup3\n        /* \"src/utils/AccessControl.sol\":6296:6303  account */\n      dup3\n        /* \"src/utils/AccessControl.sol\":6278:6289  _revokeRole */\n      tag_162\n        /* \"src/utils/AccessControl.sol\":6278:6304  _revokeRole(role, account) */\n      jump\t// in\n    tag_161:\n        /* \"src/utils/AccessControl.sol\":6094:6312  function renounceRole(bytes32 role, address account) public virtual override {... */\n      pop\n      pop\n      jump\t// out\n        /* \"src/extensions/ERC20.sol\":6040:6278  function increaseAllowance(address spender, uint256 addedValue) public virtual returns (bool) {... */\n    tag_72:\n        /* \"src/extensions/ERC20.sol\":6128:6132  bool */\n      0x00\n        /* \"src/extensions/ERC20.sol\":6145:6158  address owner */\n      dup1\n        /* \"src/extensions/ERC20.sol\":6161:6173  _msgSender() */\n      tag_164\n        /* \"src/extensions/ERC20.sol\":6161:6171  _msgSender */\n      tag_137\n        /* \"src/extensions/ERC20.sol\":6161:6173  _msgSender() */\n      jump\t// in\n    tag_164:\n        /* \"src/extensions/ERC20.sol\":6145:6173  address owner = _msgSender() */\n      swap1\n      pop\n        /* \"src/extensions/ERC20.sol\":6184:6248  _approve(owner, spender, allowance(owner, spender) + addedValue) */\n      tag_165\n        /* \"src/extensions/ERC20.sol\":6193:6198  owner */\n      dup2\n        /* \"src/extensions/ERC20.sol\":6200:6207  spender */\n      dup6\n        /* \"src/extensions/ERC20.sol\":6237:6247  addedValue */\n      dup6\n        /* \"src/extensions/ERC20.sol\":6209:6234  allowance(owner, spender) */\n      tag_166\n        /* \"src/extensions/ERC20.sol\":6219:6224  owner */\n      dup6\n        /* \"src/extensions/ERC20.sol\":6226:6233  spender */\n      dup10\n        /* \"src/extensions/ERC20.sol\":6209:6218  allowance */\n      tag_122\n        /* \"src/extensions/ERC20.sol\":6209:6234  allowance(owner, spender) */\n      jump\t// in\n    tag_166:\n        /* \"src/extensions/ERC20.sol\":6209:6247  allowance(owner, spender) + addedValue */\n      tag_167\n      swap2\n      swap1\n      tag_168\n      jump\t// in\n    tag_167:\n        /* \"src/extensions/ERC20.sol\":6184:6192  _approve */\n      tag_139\n        /* \"src/extensions/ERC20.sol\":6184:6248  _approve(owner, spender, allowance(owner, spender) + addedValue) */\n      jump\t// in\n    tag_165:\n        /* \"src/extensions/ERC20.sol\":6266:6270  true */\n      0x01\n        /* \"src/extensions/ERC20.sol\":6259:6270  return true */\n      swap2\n      pop\n      pop\n        /* \"src/extensions/ERC20.sol\":6040:6278  function increaseAllowance(address spender, uint256 addedValue) public virtual returns (bool) {... */\n      swap3\n      swap2\n      pop\n      pop\n      jump\t// out\n        /* \"src/sHYDT.sol\":1586:1741  function mint(address to, uint256 amount) external override onlyRole(CALLER_ROLE) returns (bool) {... */\n    tag_76:\n        /* \"src/sHYDT.sol\":1677:1681  bool */\n      0x00\n        /* \"src/sHYDT.sol\":335:361  abi.encodePacked(\"Caller\") */\n      add(0x20, mload(0x40))\n      tag_169\n      swap1\n      tag_170\n      jump\t// in\n    tag_169:\n      mload(0x40)\n      0x20\n      dup2\n      dup4\n      sub\n      sub\n      dup2\n      mstore\n      swap1\n      0x40\n      mstore\n        /* \"src/sHYDT.sol\":325:362  keccak256(abi.encodePacked(\"Caller\")) */\n      dup1\n      mload\n      swap1\n      0x20\n      add\n      keccak256\n        /* \"src/utils/AccessControl.sol\":2578:2594  _checkRole(role) */\n      tag_172\n        /* \"src/utils/AccessControl.sol\":2589:2593  role */\n      dup2\n        /* \"src/utils/AccessControl.sol\":2578:2588  _checkRole */\n      tag_151\n        /* \"src/utils/AccessControl.sol\":2578:2594  _checkRole(role) */\n      jump\t// in\n    tag_172:\n        /* \"src/sHYDT.sol\":1694:1711  _mint(to, amount) */\n      tag_174\n        /* \"src/sHYDT.sol\":1700:1702  to */\n      dup5\n        /* \"src/sHYDT.sol\":1704:1710  amount */\n      dup5\n        /* \"src/sHYDT.sol\":1694:1699  _mint */\n      tag_175\n        /* \"src/sHYDT.sol\":1694:1711  _mint(to, amount) */\n      jump\t// in\n    tag_174:\n        /* \"src/sHYDT.sol\":1729:1733  true */\n      0x01\n        /* \"src/sHYDT.sol\":1722:1733  return true */\n      swap2\n      pop\n        /* \"src/sHYDT.sol\":1586:1741  function mint(address to, uint256 amount) external override onlyRole(CALLER_ROLE) returns (bool) {... */\n      pop\n      swap3\n      swap2\n      pop\n      pop\n      jump\t// out\n        /* \"src/sHYDT.sol\":1887:2050  function burn(uint256 amount) external override returns (bool) {... */\n    tag_81:\n        /* \"src/sHYDT.sol\":1944:1948  bool */\n      0x00\n        /* \"src/sHYDT.sol\":1961:1974  address owner */\n      dup1\n        /* \"src/sHYDT.sol\":1977:1989  _msgSender() */\n      tag_177\n        /* \"src/sHYDT.sol\":1977:1987  _msgSender */\n      tag_137\n        /* \"src/sHYDT.sol\":1977:1989  _msgSender() */\n      jump\t// in\n    tag_177:\n        /* \"src/sHYDT.sol\":1961:1989  address owner = _msgSender() */\n      swap1\n      pop\n        /* \"src/sHYDT.sol\":2000:2020  _burn(owner, amount) */\n      tag_178\n        /* \"src/sHYDT.sol\":2006:2011  owner */\n      dup2\n        /* \"src/sHYDT.sol\":2013:2019  amount */\n      dup5\n        /* \"src/sHYDT.sol\":2000:2005  _burn */\n      tag_179\n        /* \"src/sHYDT.sol\":2000:2020  _burn(owner, amount) */\n      jump\t// in\n    tag_178:\n        /* \"src/sHYDT.sol\":2038:2042  true */\n      0x01\n        /* \"src/sHYDT.sol\":2031:2042  return true */\n      swap2\n      pop\n      pop\n        /* \"src/sHYDT.sol\":1887:2050  function burn(uint256 amount) external override returns (bool) {... */\n      swap2\n      swap1\n      pop\n      jump\t// out\n        /* \"src/extensions/ERC20.sol\":3529:3656  function balanceOf(address account) public view virtual override returns (uint256) {... */\n    tag_86:\n        /* \"src/extensions/ERC20.sol\":3603:3610  uint256 */\n      0x00\n        /* \"src/extensions/ERC20.sol\":3630:3639  _balances */\n      0x01\n        /* \"src/extensions/ERC20.sol\":3630:3648  _balances[account] */\n      0x00\n        /* \"src/extensions/ERC20.sol\":3640:3647  account */\n      dup4\n        /* \"src/extensions/ERC20.sol\":3630:3648  _balances[account] */\n      0xffffffffffffffffffffffffffffffffffffffff\n      and\n      0xffffffffffffffffffffffffffffffffffffffff\n      and\n      dup2\n      mstore\n      0x20\n      add\n      swap1\n      dup2\n      mstore\n      0x20\n      add\n      0x00\n      keccak256\n      sload\n        /* \"src/extensions/ERC20.sol\":3623:3648  return _balances[account] */\n      swap1\n      pop\n        /* \"src/extensions/ERC20.sol\":3529:3656  function balanceOf(address account) public view virtual override returns (uint256) {... */\n      swap2\n      swap1\n      pop\n      jump\t// out\n        /* \"src/sHYDT.sol\":287:362  bytes32 public constant CALLER_ROLE = keccak256(abi.encodePacked(\"Caller\")) */\n    tag_89:\n        /* \"src/sHYDT.sol\":335:361  abi.encodePacked(\"Caller\") */\n      add(0x20, mload(0x40))\n      tag_181\n      swap1\n      tag_170\n      jump\t// in\n    tag_181:\n      mload(0x40)\n      0x20\n      dup2\n      dup4\n      sub\n      sub\n      dup2\n      mstore\n      swap1\n      0x40\n      mstore\n        /* \"src/sHYDT.sol\":325:362  keccak256(abi.encodePacked(\"Caller\")) */\n      dup1\n      mload\n      swap1\n      0x20\n      add\n      keccak256\n        /* \"src/sHYDT.sol\":287:362  bytes32 public constant CALLER_ROLE = keccak256(abi.encodePacked(\"Caller\")) */\n      dup2\n      jump\t// out\n        /* \"src/sHYDT.sol\":2843:3096  function burnFrom(address from, uint256 amount) external override onlyRole(CALLER_ROLE) returns (bool) {... */\n    tag_93:\n        /* \"src/sHYDT.sol\":2940:2944  bool */\n      0x00\n        /* \"src/sHYDT.sol\":335:361  abi.encodePacked(\"Caller\") */\n      add(0x20, mload(0x40))\n      tag_182\n      swap1\n      tag_170\n      jump\t// in\n    tag_182:\n      mload(0x40)\n      0x20\n      dup2\n      dup4\n      sub\n      sub\n      dup2\n      mstore\n      swap1\n      0x40\n      mstore\n        /* \"src/sHYDT.sol\":325:362  keccak256(abi.encodePacked(\"Caller\")) */\n      dup1\n      mload\n      swap1\n      0x20\n      add\n      keccak256\n        /* \"src/utils/AccessControl.sol\":2578:2594  _checkRole(role) */\n      tag_184\n        /* \"src/utils/AccessControl.sol\":2589:2593  role */\n      dup2\n        /* \"src/utils/AccessControl.sol\":2578:2588  _checkRole */\n      tag_151\n        /* \"src/utils/AccessControl.sol\":2578:2594  _checkRole(role) */\n      jump\t// in\n    tag_184:\n        /* \"src/sHYDT.sol\":2957:2972  address spender */\n      0x00\n        /* \"src/sHYDT.sol\":2975:2987  _msgSender() */\n      tag_186\n        /* \"src/sHYDT.sol\":2975:2985  _msgSender */\n      tag_137\n        /* \"src/sHYDT.sol\":2975:2987  _msgSender() */\n      jump\t// in\n    tag_186:\n        /* \"src/sHYDT.sol\":2957:2987  address spender = _msgSender() */\n      swap1\n      pop\n        /* \"src/sHYDT.sol\":2998:3036  _spendAllowance(from, spender, amount) */\n      tag_187\n        /* \"src/sHYDT.sol\":3014:3018  from */\n      dup6\n        /* \"src/sHYDT.sol\":3020:3027  spender */\n      dup3\n        /* \"src/sHYDT.sol\":3029:3035  amount */\n      dup7\n        /* \"src/sHYDT.sol\":2998:3013  _spendAllowance */\n      tag_144\n        /* \"src/sHYDT.sol\":2998:3036  _spendAllowance(from, spender, amount) */\n      jump\t// in\n    tag_187:\n        /* \"src/sHYDT.sol\":3047:3066  _burn(from, amount) */\n      tag_188\n        /* \"src/sHYDT.sol\":3053:3057  from */\n      dup6\n        /* \"src/sHYDT.sol\":3059:3065  amount */\n      dup6\n        /* \"src/sHYDT.sol\":3047:3052  _burn */\n      tag_179\n        /* \"src/sHYDT.sol\":3047:3066  _burn(from, amount) */\n      jump\t// in\n    tag_188:\n        /* \"src/sHYDT.sol\":3084:3088  true */\n      0x01\n        /* \"src/sHYDT.sol\":3077:3088  return true */\n      swap3\n      pop\n      pop\n        /* \"src/sHYDT.sol\":2843:3096  function burnFrom(address from, uint256 amount) external override onlyRole(CALLER_ROLE) returns (bool) {... */\n      pop\n      swap3\n      swap2\n      pop\n      pop\n      jump\t// out\n        /* \"src/utils/AccessControl.sol\":2982:3129  function hasRole(bytes32 role, address account) public view virtual override returns (bool) {... */\n    tag_97:\n        /* \"src/utils/AccessControl.sol\":3068:3072  bool */\n      0x00\n        /* \"src/utils/AccessControl.sol\":3092:3098  _roles */\n      dup1\n        /* \"src/utils/AccessControl.sol\":3092:3104  _roles[role] */\n      0x00\n        /* \"src/utils/AccessControl.sol\":3099:3103  role */\n      dup5\n        /* \"src/utils/AccessControl.sol\":3092:3104  _roles[role] */\n      dup2\n      mstore\n      0x20\n      add\n      swap1\n      dup2\n      mstore\n      0x20\n      add\n      0x00\n      keccak256\n        /* \"src/utils/AccessControl.sol\":3092:3112  _roles[role].members */\n      0x00\n      add\n        /* \"src/utils/AccessControl.sol\":3092:3121  _roles[role].members[account] */\n      0x00\n        /* \"src/utils/AccessControl.sol\":3113:3120  account */\n      dup4\n        /* \"src/utils/AccessControl.sol\":3092:3121  _roles[role].members[account] */\n      0xffffffffffffffffffffffffffffffffffffffff\n      and\n      0xffffffffffffffffffffffffffffffffffffffff\n      and\n      dup2\n      mstore\n      0x20\n      add\n      swap1\n      dup2\n      mstore\n      0x20\n      add\n      0x00\n      keccak256\n      0x00\n      swap1\n      sload\n      swap1\n      0x0100\n      exp\n      swap1\n      div\n      0xff\n      and\n        /* \"src/utils/AccessControl.sol\":3085:3121  return _roles[role].members[account] */\n      swap1\n      pop\n        /* \"src/utils/AccessControl.sol\":2982:3129  function hasRole(bytes32 role, address account) public view virtual override returns (bool) {... */\n      swap3\n      swap2\n      pop\n      pop\n      jump\t// out\n        /* \"src/extensions/ERC20.sol\":2448:2552  function symbol() public view virtual override returns (string memory) {... */\n    tag_100:\n        /* \"src/extensions/ERC20.sol\":2504:2517  string memory */\n      0x60\n        /* \"src/extensions/ERC20.sol\":2537:2544  _symbol */\n      0x05\n        /* \"src/extensions/ERC20.sol\":2530:2544  return _symbol */\n      dup1\n      sload\n      tag_191\n      swap1\n      tag_130\n      jump\t// in\n    tag_191:\n      dup1\n      0x1f\n      add\n      0x20\n      dup1\n      swap2\n      div\n      mul\n      0x20\n      add\n      mload(0x40)\n      swap1\n      dup2\n      add\n      0x40\n      mstore\n      dup1\n      swap3\n      swap2\n      swap1\n      dup2\n      dup2\n      mstore\n      0x20\n      add\n      dup3\n      dup1\n      sload\n      tag_192\n      swap1\n      tag_130\n      jump\t// in\n    tag_192:\n      dup1\n      iszero\n      tag_193\n      jumpi\n      dup1\n      0x1f\n      lt\n      tag_194\n      jumpi\n      0x0100\n      dup1\n      dup4\n      sload\n      div\n      mul\n      dup4\n      mstore\n      swap2\n      0x20\n      add\n      swap2\n      jump(tag_193)\n    tag_194:\n      dup3\n      add\n      swap2\n      swap1\n      0x00\n      mstore\n      keccak256(0x00, 0x20)\n      swap1\n    tag_195:\n      dup2\n      sload\n      dup2\n      mstore\n      swap1\n      0x01\n      add\n      swap1\n      0x20\n      add\n      dup1\n      dup4\n      gt\n      tag_195\n      jumpi\n      dup3\n      swap1\n      sub\n      0x1f\n      and\n      dup3\n      add\n      swap2\n    tag_193:\n      pop\n      pop\n      pop\n      pop\n      pop\n      swap1\n      pop\n        /* \"src/extensions/ERC20.sol\":2448:2552  function symbol() public view virtual override returns (string memory) {... */\n      swap1\n      jump\t// out\n        /* \"src/utils/AccessControl.sol\":2087:2136  bytes32 public constant DEFAULT_ADMIN_ROLE = 0x00 */\n    tag_103:\n        /* \"src/utils/AccessControl.sol\":2132:2136  0x00 */\n      0x00\n        /* \"src/utils/AccessControl.sol\":2087:2136  bytes32 public constant DEFAULT_ADMIN_ROLE = 0x00 */\n      dup1\n      shl\n      dup2\n      jump\t// out\n        /* \"src/extensions/ERC20.sol\":6781:7217  function decreaseAllowance(address spender, uint256 subtractedValue) public virtual returns (bool) {... */\n    tag_107:\n        /* \"src/extensions/ERC20.sol\":6874:6878  bool */\n      0x00\n        /* \"src/extensions/ERC20.sol\":6891:6904  address owner */\n      dup1\n        /* \"src/extensions/ERC20.sol\":6907:6919  _msgSender() */\n      tag_197\n        /* \"src/extensions/ERC20.sol\":6907:6917  _msgSender */\n      tag_137\n        /* \"src/extensions/ERC20.sol\":6907:6919  _msgSender() */\n      jump\t// in\n    tag_197:\n        /* \"src/extensions/ERC20.sol\":6891:6919  address owner = _msgSender() */\n      swap1\n      pop\n        /* \"src/extensions/ERC20.sol\":6930:6954  uint256 currentAllowance */\n      0x00\n        /* \"src/extensions/ERC20.sol\":6957:6982  allowance(owner, spender) */\n      tag_198\n        /* \"src/extensions/ERC20.sol\":6967:6972  owner */\n      dup3\n        /* \"src/extensions/ERC20.sol\":6974:6981  spender */\n      dup7\n        /* \"src/extensions/ERC20.sol\":6957:6966  allowance */\n      tag_122\n        /* \"src/extensions/ERC20.sol\":6957:6982  allowance(owner, spender) */\n      jump\t// in\n    tag_198:\n        /* \"src/extensions/ERC20.sol\":6930:6982  uint256 currentAllowance = allowance(owner, spender) */\n      swap1\n      pop\n        /* \"src/extensions/ERC20.sol\":7021:7036  subtractedValue */\n      dup4\n        /* \"src/extensions/ERC20.sol\":7001:7017  currentAllowance */\n      dup2\n        /* \"src/extensions/ERC20.sol\":7001:7036  currentAllowance >= subtractedValue */\n      lt\n      iszero\n        /* \"src/extensions/ERC20.sol\":6993:7078  require(currentAllowance >= subtractedValue, \"ERC20: decreased allowance below zero\") */\n      tag_199\n      jumpi\n      mload(0x40)\n      0x08c379a000000000000000000000000000000000000000000000000000000000\n      dup2\n      mstore\n      0x04\n      add\n      tag_200\n      swap1\n      tag_201\n      jump\t// in\n    tag_200:\n      mload(0x40)\n      dup1\n      swap2\n      sub\n      swap1\n      revert\n    tag_199:\n        /* \"src/extensions/ERC20.sol\":7114:7174  _approve(owner, spender, currentAllowance - subtractedValue) */\n      tag_202\n        /* \"src/extensions/ERC20.sol\":7123:7128  owner */\n      dup3\n        /* \"src/extensions/ERC20.sol\":7130:7137  spender */\n      dup7\n        /* \"src/extensions/ERC20.sol\":7158:7173  subtractedValue */\n      dup7\n        /* \"src/extensions/ERC20.sol\":7139:7155  currentAllowance */\n      dup5\n        /* \"src/extensions/ERC20.sol\":7139:7173  currentAllowance - subtractedValue */\n      sub\n        /* \"src/extensions/ERC20.sol\":7114:7122  _approve */\n      tag_139\n        /* \"src/extensions/ERC20.sol\":7114:7174  _approve(owner, spender, currentAllowance - subtractedValue) */\n      jump\t// in\n    tag_202:\n        /* \"src/extensions/ERC20.sol\":7205:7209  true */\n      0x01\n        /* \"src/extensions/ERC20.sol\":7198:7209  return true */\n      swap3\n      pop\n      pop\n      pop\n        /* \"src/extensions/ERC20.sol\":6781:7217  function decreaseAllowance(address spender, uint256 subtractedValue) public virtual returns (bool) {... */\n      swap3\n      swap2\n      pop\n      pop\n      jump\t// out\n        /* \"src/extensions/ERC20.sol\":3862:4055  function transfer(address to, uint256 amount) public virtual override returns (bool) {... */\n    tag_111:\n        /* \"src/extensions/ERC20.sol\":3941:3945  bool */\n      0x00\n        /* \"src/extensions/ERC20.sol\":3958:3971  address owner */\n      dup1\n        /* \"src/extensions/ERC20.sol\":3974:3986  _msgSender() */\n      tag_204\n        /* \"src/extensions/ERC20.sol\":3974:3984  _msgSender */\n      tag_137\n        /* \"src/extensions/ERC20.sol\":3974:3986  _msgSender() */\n      jump\t// in\n    tag_204:\n        /* \"src/extensions/ERC20.sol\":3958:3986  address owner = _msgSender() */\n      swap1\n      pop\n        /* \"src/extensions/ERC20.sol\":3997:4025  _transfer(owner, to, amount) */\n      tag_205\n        /* \"src/extensions/ERC20.sol\":4007:4012  owner */\n      dup2\n        /* \"src/extensions/ERC20.sol\":4014:4016  to */\n      dup6\n        /* \"src/extensions/ERC20.sol\":4018:4024  amount */\n      dup6\n        /* \"src/extensions/ERC20.sol\":3997:4006  _transfer */\n      tag_146\n        /* \"src/extensions/ERC20.sol\":3997:4025  _transfer(owner, to, amount) */\n      jump\t// in\n    tag_205:\n        /* \"src/extensions/ERC20.sol\":4043:4047  true */\n      0x01\n        /* \"src/extensions/ERC20.sol\":4036:4047  return true */\n      swap2\n      pop\n      pop\n        /* \"src/extensions/ERC20.sol\":3862:4055  function transfer(address to, uint256 amount) public virtual override returns (bool) {... */\n      swap3\n      swap2\n      pop\n      pop\n      jump\t// out\n        /* \"src/sHYDT.sol\":921:1395  function initialize(address earn_) external {... */\n    tag_115:\n        /* \"src/sHYDT.sol\":1000:1012  _initializer */\n      immutable(\"0xf22c5b16043446a68d62f47815793cbbc874be5b2e65e9e313507336d6583f6d\")\n        /* \"src/sHYDT.sol\":984:1012  _msgSender() == _initializer */\n      0xffffffffffffffffffffffffffffffffffffffff\n      and\n        /* \"src/sHYDT.sol\":984:996  _msgSender() */\n      tag_207\n        /* \"src/sHYDT.sol\":984:994  _msgSender */\n      tag_137\n        /* \"src/sHYDT.sol\":984:996  _msgSender() */\n      jump\t// in\n    tag_207:\n        /* \"src/sHYDT.sol\":984:1012  _msgSender() == _initializer */\n      0xffffffffffffffffffffffffffffffffffffffff\n      and\n      eq\n        /* \"src/sHYDT.sol\":976:1053  require(_msgSender() == _initializer, \"sHYDT: caller is not the initializer\") */\n      tag_208\n      jumpi\n      mload(0x40)\n      0x08c379a000000000000000000000000000000000000000000000000000000000\n      dup2\n      mstore\n      0x04\n      add\n      tag_209\n      swap1\n      tag_210\n      jump\t// in\n    tag_209:\n      mload(0x40)\n      dup1\n      swap2\n      sub\n      swap1\n      revert\n    tag_208:\n        /* \"src/sHYDT.sol\":1184:1185  0 */\n      0x00\n        /* \"src/sHYDT.sol\":1167:1186  earn_ != address(0) */\n      0xffffffffffffffffffffffffffffffffffffffff\n      and\n        /* \"src/sHYDT.sol\":1167:1172  earn_ */\n      dup2\n        /* \"src/sHYDT.sol\":1167:1186  earn_ != address(0) */\n      0xffffffffffffffffffffffffffffffffffffffff\n      and\n      sub\n        /* \"src/sHYDT.sol\":1159:1218  require(earn_ != address(0), \"sHYDT: invalid Earn address\") */\n      tag_211\n      jumpi\n      mload(0x40)\n      0x08c379a000000000000000000000000000000000000000000000000000000000\n      dup2\n      mstore\n      0x04\n      add\n      tag_212\n      swap1\n      tag_213\n      jump\t// in\n    tag_212:\n      mload(0x40)\n      dup1\n      swap2\n      sub\n      swap1\n      revert\n    tag_211:\n        /* \"src/sHYDT.sol\":1229:1259  _grantRole(CALLER_ROLE, earn_) */\n      tag_214\n        /* \"src/sHYDT.sol\":335:361  abi.encodePacked(\"Caller\") */\n      add(0x20, mload(0x40))\n      tag_215\n      swap1\n      tag_170\n      jump\t// in\n    tag_215:\n      mload(0x40)\n      0x20\n      dup2\n      dup4\n      sub\n      sub\n      dup2\n      mstore\n      swap1\n      0x40\n      mstore\n        /* \"src/sHYDT.sol\":325:362  keccak256(abi.encodePacked(\"Caller\")) */\n      dup1\n      mload\n      swap1\n      0x20\n      add\n      keccak256\n        /* \"src/sHYDT.sol\":1253:1258  earn_ */\n      dup3\n        /* \"src/sHYDT.sol\":1229:1239  _grantRole */\n      tag_154\n        /* \"src/sHYDT.sol\":1229:1259  _grantRole(CALLER_ROLE, earn_) */\n      jump\t// in\n    tag_214:\n        /* \"src/sHYDT.sol\":1311:1355  _grantRole(DEFAULT_ADMIN_ROLE, _msgSender()) */\n      tag_216\n        /* \"src/utils/AccessControl.sol\":2132:2136  0x00 */\n      0x00\n        /* \"src/sHYDT.sol\":1322:1340  DEFAULT_ADMIN_ROLE */\n      dup1\n      shl\n        /* \"src/sHYDT.sol\":1342:1354  _msgSender() */\n      tag_217\n        /* \"src/sHYDT.sol\":1342:1352  _msgSender */\n      tag_137\n        /* \"src/sHYDT.sol\":1342:1354  _msgSender() */\n      jump\t// in\n    tag_217:\n        /* \"src/sHYDT.sol\":1311:1321  _grantRole */\n      tag_154\n        /* \"src/sHYDT.sol\":1311:1355  _grantRole(DEFAULT_ADMIN_ROLE, _msgSender()) */\n      jump\t// in\n    tag_216:\n        /* \"src/sHYDT.sol\":1383:1387  true */\n      0x01\n        /* \"src/sHYDT.sol\":1366:1380  _isInitialized */\n      0x06\n      0x00\n        /* \"src/sHYDT.sol\":1366:1387  _isInitialized = true */\n      0x0100\n      exp\n      dup2\n      sload\n      dup2\n      0xff\n      mul\n      not\n      and\n      swap1\n      dup4\n      iszero\n      iszero\n      mul\n      or\n      swap1\n      sstore\n      pop\n        /* \"src/sHYDT.sol\":921:1395  function initialize(address earn_) external {... */\n      pop\n      jump\t// out\n        /* \"src/utils/AccessControl.sol\":5390:5539  function revokeRole(bytes32 role, address account) public virtual override onlyRole(getRoleAdmin(role)) {... */\n    tag_118:\n        /* \"src/utils/AccessControl.sol\":5474:5492  getRoleAdmin(role) */\n      tag_218\n        /* \"src/utils/AccessControl.sol\":5487:5491  role */\n      dup3\n        /* \"src/utils/AccessControl.sol\":5474:5486  getRoleAdmin */\n      tag_56\n        /* \"src/utils/AccessControl.sol\":5474:5492  getRoleAdmin(role) */\n      jump\t// in\n    tag_218:\n        /* \"src/utils/AccessControl.sol\":2578:2594  _checkRole(role) */\n      tag_220\n        /* \"src/utils/AccessControl.sol\":2589:2593  role */\n      dup2\n        /* \"src/utils/AccessControl.sol\":2578:2588  _checkRole */\n      tag_151\n        /* \"src/utils/AccessControl.sol\":2578:2594  _checkRole(role) */\n      jump\t// in\n    tag_220:\n        /* \"src/utils/AccessControl.sol\":5505:5531  _revokeRole(role, account) */\n      tag_222\n        /* \"src/utils/AccessControl.sol\":5517:5521  role */\n      dup4\n        /* \"src/utils/AccessControl.sol\":5523:5530  account */\n      dup4\n        /* \"src/utils/AccessControl.sol\":5505:5516  _revokeRole */\n      tag_162\n        /* \"src/utils/AccessControl.sol\":5505:5531  _revokeRole(role, account) */\n      jump\t// in\n    tag_222:\n        /* \"src/utils/AccessControl.sol\":5390:5539  function revokeRole(bytes32 role, address account) public virtual override onlyRole(getRoleAdmin(role)) {... */\n      pop\n      pop\n      pop\n      jump\t// out\n        /* \"src/extensions/ERC20.sol\":4118:4269  function allowance(address owner, address spender) public view virtual override returns (uint256) {... */\n    tag_122:\n        /* \"src/extensions/ERC20.sol\":4207:4214  uint256 */\n      0x00\n        /* \"src/extensions/ERC20.sol\":4234:4245  _allowances */\n      0x02\n        /* \"src/extensions/ERC20.sol\":4234:4252  _allowances[owner] */\n      0x00\n        /* \"src/extensions/ERC20.sol\":4246:4251  owner */\n      dup5\n        /* \"src/extensions/ERC20.sol\":4234:4252  _allowances[owner] */\n      0xffffffffffffffffffffffffffffffffffffffff\n      and\n      0xffffffffffffffffffffffffffffffffffffffff\n      and\n      dup2\n      mstore\n      0x20\n      add\n      swap1\n      dup2\n      mstore\n      0x20\n      add\n      0x00\n      keccak256\n        /* \"src/extensions/ERC20.sol\":4234:4261  _allowances[owner][spender] */\n      0x00\n        /* \"src/extensions/ERC20.sol\":4253:4260  spender */\n      dup4\n        /* \"src/extensions/ERC20.sol\":4234:4261  _allowances[owner][spender] */\n      0xffffffffffffffffffffffffffffffffffffffff\n      and\n      0xffffffffffffffffffffffffffffffffffffffff\n      and\n      dup2\n      mstore\n      0x20\n      add\n      swap1\n      dup2\n      mstore\n      0x20\n      add\n      0x00\n      keccak256\n      sload\n        /* \"src/extensions/ERC20.sol\":4227:4261  return _allowances[owner][spender] */\n      swap1\n      pop\n        /* \"src/extensions/ERC20.sol\":4118:4269  function allowance(address owner, address spender) public view virtual override returns (uint256) {... */\n      swap3\n      swap2\n      pop\n      pop\n      jump\t// out\n        /* \"src/utils/ERC165.sol\":866:1023  function supportsInterface(bytes4 interfaceId) public view virtual override returns (bool) {... */\n    tag_127:\n        /* \"src/utils/ERC165.sol\":951:955  bool */\n      0x00\n        /* \"src/utils/ERC165.sol\":990:1015  type(IERC165).interfaceId */\n      0x01ffc9a700000000000000000000000000000000000000000000000000000000\n        /* \"src/utils/ERC165.sol\":975:1015  interfaceId == type(IERC165).interfaceId */\n      not(0xffffffffffffffffffffffffffffffffffffffffffffffffffffffff)\n      and\n        /* \"src/utils/ERC165.sol\":975:986  interfaceId */\n      dup3\n        /* \"src/utils/ERC165.sol\":975:1015  interfaceId == type(IERC165).interfaceId */\n      not(0xffffffffffffffffffffffffffffffffffffffffffffffffffffffff)\n      and\n      eq\n        /* \"src/utils/ERC165.sol\":968:1015  return interfaceId == type(IERC165).interfaceId */\n      swap1\n      pop\n        /* \"src/utils/ERC165.sol\":866:1023  function supportsInterface(bytes4 interfaceId) public view virtual override returns (bool) {... */\n      swap2\n      swap1\n      pop\n      jump\t// out\n        /* \"src/utils/Context.sol\":656:754  function _msgSender() internal view virtual returns (address) {... */\n    tag_137:\n        /* \"src/utils/Context.sol\":709:716  address */\n      0x00\n        /* \"src/utils/Context.sol\":736:746  msg.sender */\n      caller\n        /* \"src/utils/Context.sol\":729:746  return msg.sender */\n      swap1\n      pop\n        /* \"src/utils/Context.sol\":656:754  function _msgSender() internal view virtual returns (address) {... */\n      swap1\n      jump\t// out\n        /* \"src/extensions/ERC20.sol\":10774:11120  function _approve(address owner, address spender, uint256 amount) internal virtual {... */\n    tag_139:\n        /* \"src/extensions/ERC20.sol\":10893:10894  0 */\n      0x00\n        /* \"src/extensions/ERC20.sol\":10876:10895  owner != address(0) */\n      0xffffffffffffffffffffffffffffffffffffffff\n      and\n        /* \"src/extensions/ERC20.sol\":10876:10881  owner */\n      dup4\n        /* \"src/extensions/ERC20.sol\":10876:10895  owner != address(0) */\n      0xffffffffffffffffffffffffffffffffffffffff\n      and\n      sub\n        /* \"src/extensions/ERC20.sol\":10868:10936  require(owner != address(0), \"ERC20: approve from the zero address\") */\n      tag_227\n      jumpi\n      mload(0x40)\n      0x08c379a000000000000000000000000000000000000000000000000000000000\n      dup2\n      mstore\n      0x04\n      add\n      tag_228\n      swap1\n      tag_229\n      jump\t// in\n    tag_228:\n      mload(0x40)\n      dup1\n      swap2\n      sub\n      swap1\n      revert\n    tag_227:\n        /* \"src/extensions/ERC20.sol\":10974:10975  0 */\n      0x00\n        /* \"src/extensions/ERC20.sol\":10955:10976  spender != address(0) */\n      0xffffffffffffffffffffffffffffffffffffffff\n      and\n        /* \"src/extensions/ERC20.sol\":10955:10962  spender */\n      dup3\n        /* \"src/extensions/ERC20.sol\":10955:10976  spender != address(0) */\n      0xffffffffffffffffffffffffffffffffffffffff\n      and\n      sub\n        /* \"src/extensions/ERC20.sol\":10947:11015  require(spender != address(0), \"ERC20: approve to the zero address\") */\n      tag_230\n      jumpi\n      mload(0x40)\n      0x08c379a000000000000000000000000000000000000000000000000000000000\n      dup2\n      mstore\n      0x04\n      add\n      tag_231\n      swap1\n      tag_232\n      jump\t// in\n    tag_231:\n      mload(0x40)\n      dup1\n      swap2\n      sub\n      swap1\n      revert\n    tag_230:\n        /* \"src/extensions/ERC20.sol\":11058:11064  amount */\n      dup1\n        /* \"src/extensions/ERC20.sol\":11028:11039  _allowances */\n      0x02\n        /* \"src/extensions/ERC20.sol\":11028:11046  _allowances[owner] */\n      0x00\n        /* \"src/extensions/ERC20.sol\":11040:11045  owner */\n      dup6\n        /* \"src/extensions/ERC20.sol\":11028:11046  _allowances[owner] */\n      0xffffffffffffffffffffffffffffffffffffffff\n      and\n      0xffffffffffffffffffffffffffffffffffffffff\n      and\n      dup2\n      mstore\n      0x20\n      add\n      swap1\n      dup2\n      mstore\n      0x20\n      add\n      0x00\n      keccak256\n        /* \"src/extensions/ERC20.sol\":11028:11055  _allowances[owner][spender] */\n      0x00\n        /* \"src/extensions/ERC20.sol\":11047:11054  spender */\n      dup5\n        /* \"src/extensions/ERC20.sol\":11028:11055  _allowances[owner][spender] */\n      0xffffffffffffffffffffffffffffffffffffffff\n      and\n      0xffffffffffffffffffffffffffffffffffffffff\n      and\n      dup2\n      mstore\n      0x20\n      add\n      swap1\n      dup2\n      mstore\n      0x20\n      add\n      0x00\n      keccak256\n        /* \"src/extensions/ERC20.sol\":11028:11064  _allowances[owner][spender] = amount */\n      dup2\n      swap1\n      sstore\n      pop\n        /* \"src/extensions/ERC20.sol\":11096:11103  spender */\n      dup2\n        /* \"src/extensions/ERC20.sol\":11080:11112  Approval(owner, spender, amount) */\n      0xffffffffffffffffffffffffffffffffffffffff\n      and\n        /* \"src/extensions/ERC20.sol\":11089:11094  owner */\n      dup4\n        /* \"src/extensions/ERC20.sol\":11080:11112  Approval(owner, spender, amount) */\n      0xffffffffffffffffffffffffffffffffffffffff\n      and\n      0x8c5be1e5ebec7d5bd14f71427d1e84f3dd0314c0f7b2291e5b200ac8c7c3b925\n        /* \"src/extensions/ERC20.sol\":11105:11111  amount */\n      dup4\n        /* \"src/extensions/ERC20.sol\":11080:11112  Approval(owner, spender, amount) */\n      mload(0x40)\n      tag_233\n      swap2\n      swap1\n      tag_47\n      jump\t// in\n    tag_233:\n      mload(0x40)\n      dup1\n      swap2\n      sub\n      swap1\n      log3\n        /* \"src/extensions/ERC20.sol\":10774:11120  function _approve(address owner, address spender, uint256 amount) internal virtual {... */\n      pop\n      pop\n      pop\n      jump\t// out\n        /* \"src/extensions/ERC20.sol\":11411:11830  function _spendAllowance(address owner, address spender, uint256 amount) internal virtual {... */\n    tag_144:\n        /* \"src/extensions/ERC20.sol\":11512:11536  uint256 currentAllowance */\n      0x00\n        /* \"src/extensions/ERC20.sol\":11539:11564  allowance(owner, spender) */\n      tag_235\n        /* \"src/extensions/ERC20.sol\":11549:11554  owner */\n      dup5\n        /* \"src/extensions/ERC20.sol\":11556:11563  spender */\n      dup5\n        /* \"src/extensions/ERC20.sol\":11539:11548  allowance */\n      tag_122\n        /* \"src/extensions/ERC20.sol\":11539:11564  allowance(owner, spender) */\n      jump\t// in\n    tag_235:\n        /* \"src/extensions/ERC20.sol\":11512:11564  uint256 currentAllowance = allowance(owner, spender) */\n      swap1\n      pop\n        /* \"src/extensions/ERC20.sol\":11599:11616  type(uint256).max */\n      0xffffffffffffffffffffffffffffffffffffffffffffffffffffffffffffffff\n        /* \"src/extensions/ERC20.sol\":11579:11595  currentAllowance */\n      dup2\n        /* \"src/extensions/ERC20.sol\":11579:11616  currentAllowance != type(uint256).max */\n      eq\n        /* \"src/extensions/ERC20.sol\":11575:11823  if (currentAllowance != type(uint256).max) {... */\n      tag_236\n      jumpi\n        /* \"src/extensions/ERC20.sol\":11661:11667  amount */\n      dup2\n        /* \"src/extensions/ERC20.sol\":11641:11657  currentAllowance */\n      dup2\n        /* \"src/extensions/ERC20.sol\":11641:11667  currentAllowance >= amount */\n      lt\n      iszero\n        /* \"src/extensions/ERC20.sol\":11633:11701  require(currentAllowance >= amount, \"ERC20: insufficient allowance\") */\n      tag_237\n      jumpi\n      mload(0x40)\n      0x08c379a000000000000000000000000000000000000000000000000000000000\n      dup2\n      mstore\n      0x04\n      add\n      tag_238\n      swap1\n      tag_239\n      jump\t// in\n    tag_238:\n      mload(0x40)\n      dup1\n      swap2\n      sub\n      swap1\n      revert\n    tag_237:\n        /* \"src/extensions/ERC20.sol\":11745:11796  _approve(owner, spender, currentAllowance - amount) */\n      tag_240\n        /* \"src/extensions/ERC20.sol\":11754:11759  owner */\n      dup5\n        /* \"src/extensions/ERC20.sol\":11761:11768  spender */\n      dup5\n        /* \"src/extensions/ERC20.sol\":11789:11795  amount */\n      dup5\n        /* \"src/extensions/ERC20.sol\":11770:11786  currentAllowance */\n      dup5\n        /* \"src/extensions/ERC20.sol\":11770:11795  currentAllowance - amount */\n      sub\n        /* \"src/extensions/ERC20.sol\":11745:11753  _approve */\n      tag_139\n        /* \"src/extensions/ERC20.sol\":11745:11796  _approve(owner, spender, currentAllowance - amount) */\n      jump\t// in\n    tag_240:\n        /* \"src/extensions/ERC20.sol\":11575:11823  if (currentAllowance != type(uint256).max) {... */\n    tag_236:\n        /* \"src/extensions/ERC20.sol\":11501:11830  {... */\n      pop\n        /* \"src/extensions/ERC20.sol\":11411:11830  function _spendAllowance(address owner, address spender, uint256 amount) internal virtual {... */\n      pop\n      pop\n      pop\n      jump\t// out\n        /* \"src/extensions/ERC20.sol\":7687:8493  function _transfer(address from, address to, uint256 amount) internal virtual {... */\n    tag_146:\n        /* \"src/extensions/ERC20.sol\":7800:7801  0 */\n      0x00\n        /* \"src/extensions/ERC20.sol\":7784:7802  from != address(0) */\n      0xffffffffffffffffffffffffffffffffffffffff\n      and\n        /* \"src/extensions/ERC20.sol\":7784:7788  from */\n      dup4\n        /* \"src/extensions/ERC20.sol\":7784:7802  from != address(0) */\n      0xffffffffffffffffffffffffffffffffffffffff\n      and\n      sub\n        /* \"src/extensions/ERC20.sol\":7776:7844  require(from != address(0), \"ERC20: transfer from the zero address\") */\n      tag_242\n      jumpi\n      mload(0x40)\n      0x08c379a000000000000000000000000000000000000000000000000000000000\n      dup2\n      mstore\n      0x04\n      add\n      tag_243\n      swap1\n      tag_244\n      jump\t// in\n    tag_243:\n      mload(0x40)\n      dup1\n      swap2\n      sub\n      swap1\n      revert\n    tag_242:\n        /* \"src/extensions/ERC20.sol\":7877:7878  0 */\n      0x00\n        /* \"src/extensions/ERC20.sol\":7863:7879  to != address(0) */\n      0xffffffffffffffffffffffffffffffffffffffff\n      and\n        /* \"src/extensions/ERC20.sol\":7863:7865  to */\n      dup3\n        /* \"src/extensions/ERC20.sol\":7863:7879  to != address(0) */\n      0xffffffffffffffffffffffffffffffffffffffff\n      and\n      sub\n        /* \"src/extensions/ERC20.sol\":7855:7919  require(to != address(0), \"ERC20: transfer to the zero address\") */\n      tag_245\n      jumpi\n      mload(0x40)\n      0x08c379a000000000000000000000000000000000000000000000000000000000\n      dup2\n      mstore\n      0x04\n      add\n      tag_246\n      swap1\n      tag_247\n      jump\t// in\n    tag_246:\n      mload(0x40)\n      dup1\n      swap2\n      sub\n      swap1\n      revert\n    tag_245:\n        /* \"src/extensions/ERC20.sol\":7932:7970  _beforeTokenTransfer(from, to, amount) */\n      tag_248\n        /* \"src/extensions/ERC20.sol\":7953:7957  from */\n      dup4\n        /* \"src/extensions/ERC20.sol\":7959:7961  to */\n      dup4\n        /* \"src/extensions/ERC20.sol\":7963:7969  amount */\n      dup4\n        /* \"src/extensions/ERC20.sol\":7932:7952  _beforeTokenTransfer */\n      tag_249\n        /* \"src/extensions/ERC20.sol\":7932:7970  _beforeTokenTransfer(from, to, amount) */\n      jump\t// in\n    tag_248:\n        /* \"src/extensions/ERC20.sol\":7983:8002  uint256 fromBalance */\n      0x00\n        /* \"src/extensions/ERC20.sol\":8005:8014  _balances */\n      0x01\n        /* \"src/extensions/ERC20.sol\":8005:8020  _balances[from] */\n      0x00\n        /* \"src/extensions/ERC20.sol\":8015:8019  from */\n      dup6\n        /* \"src/extensions/ERC20.sol\":8005:8020  _balances[from] */\n      0xffffffffffffffffffffffffffffffffffffffff\n      and\n      0xffffffffffffffffffffffffffffffffffffffff\n      and\n      dup2\n      mstore\n      0x20\n      add\n      swap1\n      dup2\n      mstore\n      0x20\n      add\n      0x00\n      keccak256\n      sload\n        /* \"src/extensions/ERC20.sol\":7983:8020  uint256 fromBalance = _balances[from] */\n      swap1\n      pop\n        /* \"src/extensions/ERC20.sol\":8054:8060  amount */\n      dup2\n        /* \"src/extensions/ERC20.sol\":8039:8050  fromBalance */\n      dup2\n        /* \"src/extensions/ERC20.sol\":8039:8060  fromBalance >= amount */\n      lt\n      iszero\n        /* \"src/extensions/ERC20.sol\":8031:8103  require(fromBalance >= amount, \"ERC20: transfer amount exceeds balance\") */\n      tag_250\n      jumpi\n      mload(0x40)\n      0x08c379a000000000000000000000000000000000000000000000000000000000\n      dup2\n      mstore\n      0x04\n      add\n      tag_251\n      swap1\n      tag_252\n      jump\t// in\n    tag_251:\n      mload(0x40)\n      dup1\n      swap2\n      sub\n      swap1\n      revert\n    tag_250:\n        /* \"src/extensions/ERC20.sol\":8171:8177  amount */\n      dup2\n        /* \"src/extensions/ERC20.sol\":8157:8168  fromBalance */\n      dup2\n        /* \"src/extensions/ERC20.sol\":8157:8177  fromBalance - amount */\n      sub\n        /* \"src/extensions/ERC20.sol\":8139:8148  _balances */\n      0x01\n        /* \"src/extensions/ERC20.sol\":8139:8154  _balances[from] */\n      0x00\n        /* \"src/extensions/ERC20.sol\":8149:8153  from */\n      dup7\n        /* \"src/extensions/ERC20.sol\":8139:8154  _balances[from] */\n      0xffffffffffffffffffffffffffffffffffffffff\n      and\n      0xffffffffffffffffffffffffffffffffffffffff\n      and\n      dup2\n      mstore\n      0x20\n      add\n      swap1\n      dup2\n      mstore\n      0x20\n      add\n      0x00\n      keccak256\n        /* \"src/extensions/ERC20.sol\":8139:8177  _balances[from] = fromBalance - amount */\n      dup2\n      swap1\n      sstore\n      pop\n        /* \"src/extensions/ERC20.sol\":8374:8380  amount */\n      dup2\n        /* \"src/extensions/ERC20.sol\":8357:8366  _balances */\n      0x01\n        /* \"src/extensions/ERC20.sol\":8357:8370  _balances[to] */\n      0x00\n        /* \"src/extensions/ERC20.sol\":8367:8369  to */\n      dup6\n        /* \"src/extensions/ERC20.sol\":8357:8370  _balances[to] */\n      0xffffffffffffffffffffffffffffffffffffffff\n      and\n      0xffffffffffffffffffffffffffffffffffffffff\n      and\n      dup2\n      mstore\n      0x20\n      add\n      swap1\n      dup2\n      mstore\n      0x20\n      add\n      0x00\n      keccak256\n      0x00\n        /* \"src/extensions/ERC20.sol\":8357:8380  _balances[to] += amount */\n      dup3\n      dup3\n      sload\n      add\n      swap3\n      pop\n      pop\n      dup2\n      swap1\n      sstore\n      pop\n        /* \"src/extensions/ERC20.sol\":8424:8426  to */\n      dup3\n        /* \"src/extensions/ERC20.sol\":8409:8435  Transfer(from, to, amount) */\n      0xffffffffffffffffffffffffffffffffffffffff\n      and\n        /* \"src/extensions/ERC20.sol\":8418:8422  from */\n      dup5\n        /* \"src/extensions/ERC20.sol\":8409:8435  Transfer(from, to, amount) */\n      0xffffffffffffffffffffffffffffffffffffffff\n      and\n      0xddf252ad1be2c89b69c2b068fc378daa952ba7f163c4a11628f55a4df523b3ef\n        /* \"src/extensions/ERC20.sol\":8428:8434  amount */\n      dup5\n        /* \"src/extensions/ERC20.sol\":8409:8435  Transfer(from, to, amount) */\n      mload(0x40)\n      tag_253\n      swap2\n      swap1\n      tag_47\n      jump\t// in\n    tag_253:\n      mload(0x40)\n      dup1\n      swap2\n      sub\n      swap1\n      log3\n        /* \"src/extensions/ERC20.sol\":8448:8485  _afterTokenTransfer(from, to, amount) */\n      tag_254\n        /* \"src/extensions/ERC20.sol\":8468:8472  from */\n      dup5\n        /* \"src/extensions/ERC20.sol\":8474:8476  to */\n      dup5\n        /* \"src/extensions/ERC20.sol\":8478:8484  amount */\n      dup5\n        /* \"src/extensions/ERC20.sol\":8448:8467  _afterTokenTransfer */\n      tag_255\n        /* \"src/extensions/ERC20.sol\":8448:8485  _afterTokenTransfer(from, to, amount) */\n      jump\t// in\n    tag_254:\n        /* \"src/extensions/ERC20.sol\":7765:8493  {... */\n      pop\n        /* \"src/extensions/ERC20.sol\":7687:8493  function _transfer(address from, address to, uint256 amount) internal virtual {... */\n      pop\n      pop\n      pop\n      jump\t// out\n        /* \"src/utils/AccessControl.sol\":3433:3538  function _checkRole(bytes32 role) internal view virtual {... */\n    tag_151:\n        /* \"src/utils/AccessControl.sol\":3500:3530  _checkRole(role, _msgSender()) */\n      tag_257\n        /* \"src/utils/AccessControl.sol\":3511:3515  role */\n      dup2\n        /* \"src/utils/AccessControl.sol\":3517:3529  _msgSender() */\n      tag_258\n        /* \"src/utils/AccessControl.sol\":3517:3527  _msgSender */\n      tag_137\n        /* \"src/utils/AccessControl.sol\":3517:3529  _msgSender() */\n      jump\t// in\n    tag_258:\n        /* \"src/utils/AccessControl.sol\":3500:3510  _checkRole */\n      tag_259\n        /* \"src/utils/AccessControl.sol\":3500:3530  _checkRole(role, _msgSender()) */\n      jump\t// in\n    tag_257:\n        /* \"src/utils/AccessControl.sol\":3433:3538  function _checkRole(bytes32 role) internal view virtual {... */\n      pop\n      jump\t// out\n        /* \"src/utils/AccessControl.sol\":7691:7929  function _grantRole(bytes32 role, address account) internal virtual {... */\n    tag_154:\n        /* \"src/utils/AccessControl.sol\":7775:7797  hasRole(role, account) */\n      tag_261\n        /* \"src/utils/AccessControl.sol\":7783:7787  role */\n      dup3\n        /* \"src/utils/AccessControl.sol\":7789:7796  account */\n      dup3\n        /* \"src/utils/AccessControl.sol\":7775:7782  hasRole */\n      tag_97\n        /* \"src/utils/AccessControl.sol\":7775:7797  hasRole(role, account) */\n      jump\t// in\n    tag_261:\n        /* \"src/utils/AccessControl.sol\":7770:7922  if (!hasRole(role, account)) {... */\n      tag_262\n      jumpi\n        /* \"src/utils/AccessControl.sol\":7846:7850  true */\n      0x01\n        /* \"src/utils/AccessControl.sol\":7814:7820  _roles */\n      0x00\n        /* \"src/utils/AccessControl.sol\":7814:7826  _roles[role] */\n      dup1\n        /* \"src/utils/AccessControl.sol\":7821:7825  role */\n      dup5\n        /* \"src/utils/AccessControl.sol\":7814:7826  _roles[role] */\n      dup2\n      mstore\n      0x20\n      add\n      swap1\n      dup2\n      mstore\n      0x20\n      add\n      0x00\n      keccak256\n        /* \"src/utils/AccessControl.sol\":7814:7834  _roles[role].members */\n      0x00\n      add\n        /* \"src/utils/AccessControl.sol\":7814:7843  _roles[role].members[account] */\n      0x00\n        /* \"src/utils/AccessControl.sol\":7835:7842  account */\n      dup4\n        /* \"src/utils/AccessControl.sol\":7814:7843  _roles[role].members[account] */\n      0xffffffffffffffffffffffffffffffffffffffff\n      and\n      0xffffffffffffffffffffffffffffffffffffffff\n      and\n      dup2\n      mstore\n      0x20\n      add\n      swap1\n      dup2\n      mstore\n      0x20\n      add\n      0x00\n      keccak256\n      0x00\n        /* \"src/utils/AccessControl.sol\":7814:7850  _roles[role].members[account] = true */\n      0x0100\n      exp\n      dup2\n      sload\n      dup2\n      0xff\n      mul\n      not\n      and\n      swap1\n      dup4\n      iszero\n      iszero\n      mul\n      or\n      swap1\n      sstore\n      pop\n        /* \"src/utils/AccessControl.sol\":7897:7909  _msgSender() */\n      tag_263\n        /* \"src/utils/AccessControl.sol\":7897:7907  _msgSender */\n      tag_137\n        /* \"src/utils/AccessControl.sol\":7897:7909  _msgSender() */\n      jump\t// in\n    tag_263:\n        /* \"src/utils/AccessControl.sol\":7870:7910  RoleGranted(role, account, _msgSender()) */\n      0xffffffffffffffffffffffffffffffffffffffff\n      and\n        /* \"src/utils/AccessControl.sol\":7888:7895  account */\n      dup2\n        /* \"src/utils/AccessControl.sol\":7870:7910  RoleGranted(role, account, _msgSender()) */\n      0xffffffffffffffffffffffffffffffffffffffff\n      and\n        /* \"src/utils/AccessControl.sol\":7882:7886  role */\n      dup4\n        /* \"src/utils/AccessControl.sol\":7870:7910  RoleGranted(role, account, _msgSender()) */\n      0x2f8788117e7eff1d82e926ec794901d17c78024a50270940304540a733656f0d\n      mload(0x40)\n      mload(0x40)\n      dup1\n      swap2\n      sub\n      swap1\n      log4\n        /* \"src/utils/AccessControl.sol\":7770:7922  if (!hasRole(role, account)) {... */\n    tag_262:\n        /* \"src/utils/AccessControl.sol\":7691:7929  function _grantRole(bytes32 role, address account) internal virtual {... */\n      pop\n      pop\n      jump\t// out\n        /* \"src/utils/AccessControl.sol\":8109:8348  function _revokeRole(bytes32 role, address account) internal virtual {... */\n    tag_162:\n        /* \"src/utils/AccessControl.sol\":8193:8215  hasRole(role, account) */\n      tag_265\n        /* \"src/utils/AccessControl.sol\":8201:8205  role */\n      dup3\n        /* \"src/utils/AccessControl.sol\":8207:8214  account */\n      dup3\n        /* \"src/utils/AccessControl.sol\":8193:8200  hasRole */\n      tag_97\n        /* \"src/utils/AccessControl.sol\":8193:8215  hasRole(role, account) */\n      jump\t// in\n    tag_265:\n        /* \"src/utils/AccessControl.sol\":8189:8341  if (hasRole(role, account)) {... */\n      iszero\n      tag_266\n      jumpi\n        /* \"src/utils/AccessControl.sol\":8264:8269  false */\n      0x00\n        /* \"src/utils/AccessControl.sol\":8232:8238  _roles */\n      dup1\n        /* \"src/utils/AccessControl.sol\":8232:8244  _roles[role] */\n      0x00\n        /* \"src/utils/AccessControl.sol\":8239:8243  role */\n      dup5\n        /* \"src/utils/AccessControl.sol\":8232:8244  _roles[role] */\n      dup2\n      mstore\n      0x20\n      add\n      swap1\n      dup2\n      mstore\n      0x20\n      add\n      0x00\n      keccak256\n        /* \"src/utils/AccessControl.sol\":8232:8252  _roles[role].members */\n      0x00\n      add\n        /* \"src/utils/AccessControl.sol\":8232:8261  _roles[role].members[account] */\n      0x00\n        /* \"src/utils/AccessControl.sol\":8253:8260  account */\n      dup4\n        /* \"src/utils/AccessControl.sol\":8232:8261  _roles[role].members[account] */\n      0xffffffffffffffffffffffffffffffffffffffff\n      and\n      0xffffffffffffffffffffffffffffffffffffffff\n      and\n      dup2\n      mstore\n      0x20\n      add\n      swap1\n      dup2\n      mstore\n      0x20\n      add\n      0x00\n      keccak256\n      0x00\n        /* \"src/utils/AccessControl.sol\":8232:8269  _roles[role].members[account] = false */\n      0x0100\n      exp\n      dup2\n      sload\n      dup2\n      0xff\n      mul\n      not\n      and\n      swap1\n      dup4\n      iszero\n      iszero\n      mul\n      or\n      swap1\n      sstore\n      pop\n        /* \"src/utils/AccessControl.sol\":8316:8328  _msgSender() */\n      tag_267\n        /* \"src/utils/AccessControl.sol\":8316:8326  _msgSender */\n      tag_137\n        /* \"src/utils/AccessControl.sol\":8316:8328  _msgSender() */\n      jump\t// in\n    tag_267:\n        /* \"src/utils/AccessControl.sol\":8289:8329  RoleRevoked(role, account, _msgSender()) */\n      0xffffffffffffffffffffffffffffffffffffffff\n      and\n        /* \"src/utils/AccessControl.sol\":8307:8314  account */\n      dup2\n        /* \"src/utils/AccessControl.sol\":8289:8329  RoleRevoked(role, account, _msgSender()) */\n      0xffffffffffffffffffffffffffffffffffffffff\n      and\n        /* \"src/utils/AccessControl.sol\":8301:8305  role */\n      dup4\n        /* \"src/utils/AccessControl.sol\":8289:8329  RoleRevoked(role, account, _msgSender()) */\n      0xf6391f5c32d9c69d2a47ea670b442974b53935d1edc7fd64eb21e047a839171b\n      mload(0x40)\n      mload(0x40)\n      dup1\n      swap2\n      sub\n      swap1\n      log4\n        /* \"src/utils/AccessControl.sol\":8189:8341  if (hasRole(role, account)) {... */\n    tag_266:\n        /* \"src/utils/AccessControl.sol\":8109:8348  function _revokeRole(bytes32 role, address account) internal virtual {... */\n      pop\n      pop\n      jump\t// out\n        /* \"src/extensions/ERC20.sol\":8780:9328  function _mint(address account, uint256 amount) internal virtual {... */\n    tag_175:\n        /* \"src/extensions/ERC20.sol\":8883:8884  0 */\n      0x00\n        /* \"src/extensions/ERC20.sol\":8864:8885  account != address(0) */\n      0xffffffffffffffffffffffffffffffffffffffff\n      and\n        /* \"src/extensions/ERC20.sol\":8864:8871  account */\n      dup3\n        /* \"src/extensions/ERC20.sol\":8864:8885  account != address(0) */\n      0xffffffffffffffffffffffffffffffffffffffff\n      and\n      sub\n        /* \"src/extensions/ERC20.sol\":8856:8921  require(account != address(0), \"ERC20: mint to the zero address\") */\n      tag_269\n      jumpi\n      mload(0x40)\n      0x08c379a000000000000000000000000000000000000000000000000000000000\n      dup2\n      mstore\n      0x04\n      add\n      tag_270\n      swap1\n      tag_271\n      jump\t// in\n    tag_270:\n      mload(0x40)\n      dup1\n      swap2\n      sub\n      swap1\n      revert\n    tag_269:\n        /* \"src/extensions/ERC20.sol\":8934:8983  _beforeTokenTransfer(address(0), account, amount) */\n      tag_272\n        /* \"src/extensions/ERC20.sol\":8963:8964  0 */\n      0x00\n        /* \"src/extensions/ERC20.sol\":8967:8974  account */\n      dup4\n        /* \"src/extensions/ERC20.sol\":8976:8982  amount */\n      dup4\n        /* \"src/extensions/ERC20.sol\":8934:8954  _beforeTokenTransfer */\n      tag_249\n        /* \"src/extensions/ERC20.sol\":8934:8983  _beforeTokenTransfer(address(0), account, amount) */\n      jump\t// in\n    tag_272:\n        /* \"src/extensions/ERC20.sol\":9012:9018  amount */\n      dup1\n        /* \"src/extensions/ERC20.sol\":8996:9008  _totalSupply */\n      0x03\n      0x00\n        /* \"src/extensions/ERC20.sol\":8996:9018  _totalSupply += amount */\n      dup3\n      dup3\n      sload\n      tag_273\n      swap2\n      swap1\n      tag_168\n      jump\t// in\n    tag_273:\n      swap3\n      pop\n      pop\n      dup2\n      swap1\n      sstore\n      pop\n        /* \"src/extensions/ERC20.sol\":9189:9195  amount */\n      dup1\n        /* \"src/extensions/ERC20.sol\":9167:9176  _balances */\n      0x01\n        /* \"src/extensions/ERC20.sol\":9167:9185  _balances[account] */\n      0x00\n        /* \"src/extensions/ERC20.sol\":9177:9184  account */\n      dup5\n        /* \"src/extensions/ERC20.sol\":9167:9185  _balances[account] */\n      0xffffffffffffffffffffffffffffffffffffffff\n      and\n      0xffffffffffffffffffffffffffffffffffffffff\n      and\n      dup2\n      mstore\n      0x20\n      add\n      swap1\n      dup2\n      mstore\n      0x20\n      add\n      0x00\n      keccak256\n      0x00\n        /* \"src/extensions/ERC20.sol\":9167:9195  _balances[account] += amount */\n      dup3\n      dup3\n      sload\n      add\n      swap3\n      pop\n      pop\n      dup2\n      swap1\n      sstore\n      pop\n        /* \"src/extensions/ERC20.sol\":9243:9250  account */\n      dup2\n        /* \"src/extensions/ERC20.sol\":9222:9259  Transfer(address(0), account, amount) */\n      0xffffffffffffffffffffffffffffffffffffffff\n      and\n        /* \"src/extensions/ERC20.sol\":9239:9240  0 */\n      0x00\n        /* \"src/extensions/ERC20.sol\":9222:9259  Transfer(address(0), account, amount) */\n      0xffffffffffffffffffffffffffffffffffffffff\n      and\n      0xddf252ad1be2c89b69c2b068fc378daa952ba7f163c4a11628f55a4df523b3ef\n        /* \"src/extensions/ERC20.sol\":9252:9258  amount */\n      dup4\n        /* \"src/extensions/ERC20.sol\":9222:9259  Transfer(address(0), account, amount) */\n      mload(0x40)\n      tag_274\n      swap2\n      swap1\n      tag_47\n      jump\t// in\n    tag_274:\n      mload(0x40)\n      dup1\n      swap2\n      sub\n      swap1\n      log3\n        /* \"src/extensions/ERC20.sol\":9272:9320  _afterTokenTransfer(address(0), account, amount) */\n      tag_275\n        /* \"src/extensions/ERC20.sol\":9300:9301  0 */\n      0x00\n        /* \"src/extensions/ERC20.sol\":9304:9311  account */\n      dup4\n        /* \"src/extensions/ERC20.sol\":9313:9319  amount */\n      dup4\n        /* \"src/extensions/ERC20.sol\":9272:9291  _afterTokenTransfer */\n      tag_255\n        /* \"src/extensions/ERC20.sol\":9272:9320  _afterTokenTransfer(address(0), account, amount) */\n      jump\t// in\n    tag_275:\n        /* \"src/extensions/ERC20.sol\":8780:9328  function _mint(address account, uint256 amount) internal virtual {... */\n      pop\n      pop\n      jump\t// out\n        /* \"src/extensions/ERC20.sol\":9661:10336  function _burn(address account, uint256 amount) internal virtual {... */\n    tag_179:\n        /* \"src/extensions/ERC20.sol\":9764:9765  0 */\n      0x00\n        /* \"src/extensions/ERC20.sol\":9745:9766  account != address(0) */\n      0xffffffffffffffffffffffffffffffffffffffff\n      and\n        /* \"src/extensions/ERC20.sol\":9745:9752  account */\n      dup3\n        /* \"src/extensions/ERC20.sol\":9745:9766  account != address(0) */\n      0xffffffffffffffffffffffffffffffffffffffff\n      and\n      sub\n        /* \"src/extensions/ERC20.sol\":9737:9804  require(account != address(0), \"ERC20: burn from the zero address\") */\n      tag_277\n      jumpi\n      mload(0x40)\n      0x08c379a000000000000000000000000000000000000000000000000000000000\n      dup2\n      mstore\n      0x04\n      add\n      tag_278\n      swap1\n      tag_279\n      jump\t// in\n    tag_278:\n      mload(0x40)\n      dup1\n      swap2\n      sub\n      swap1\n      revert\n    tag_277:\n        /* \"src/extensions/ERC20.sol\":9817:9866  _beforeTokenTransfer(account, address(0), amount) */\n      tag_280\n        /* \"src/extensions/ERC20.sol\":9838:9845  account */\n      dup3\n        /* \"src/extensions/ERC20.sol\":9855:9856  0 */\n      0x00\n        /* \"src/extensions/ERC20.sol\":9859:9865  amount */\n      dup4\n        /* \"src/extensions/ERC20.sol\":9817:9837  _beforeTokenTransfer */\n      tag_249\n        /* \"src/extensions/ERC20.sol\":9817:9866  _beforeTokenTransfer(account, address(0), amount) */\n      jump\t// in\n    tag_280:\n        /* \"src/extensions/ERC20.sol\":9879:9901  uint256 accountBalance */\n      0x00\n        /* \"src/extensions/ERC20.sol\":9904:9913  _balances */\n      0x01\n        /* \"src/extensions/ERC20.sol\":9904:9922  _balances[account] */\n      0x00\n        /* \"src/extensions/ERC20.sol\":9914:9921  account */\n      dup5\n        /* \"src/extensions/ERC20.sol\":9904:9922  _balances[account] */\n      0xffffffffffffffffffffffffffffffffffffffff\n      and\n      0xffffffffffffffffffffffffffffffffffffffff\n      and\n      dup2\n      mstore\n      0x20\n      add\n      swap1\n      dup2\n      mstore\n      0x20\n      add\n      0x00\n      keccak256\n      sload\n        /* \"src/extensions/ERC20.sol\":9879:9922  uint256 accountBalance = _balances[account] */\n      swap1\n      pop\n        /* \"src/extensions/ERC20.sol\":9959:9965  amount */\n      dup2\n        /* \"src/extensions/ERC20.sol\":9941:9955  accountBalance */\n      dup2\n        /* \"src/extensions/ERC20.sol\":9941:9965  accountBalance >= amount */\n      lt\n      iszero\n        /* \"src/extensions/ERC20.sol\":9933:10004  require(accountBalance >= amount, \"ERC20: burn amount exceeds balance\") */\n      tag_281\n      jumpi\n      mload(0x40)\n      0x08c379a000000000000000000000000000000000000000000000000000000000\n      dup2\n      mstore\n      0x04\n      add\n      tag_282\n      swap1\n      tag_283\n      jump\t// in\n    tag_282:\n      mload(0x40)\n      dup1\n      swap2\n      sub\n      swap1\n      revert\n    tag_281:\n        /* \"src/extensions/ERC20.sol\":10078:10084  amount */\n      dup2\n        /* \"src/extensions/ERC20.sol\":10061:10075  accountBalance */\n      dup2\n        /* \"src/extensions/ERC20.sol\":10061:10084  accountBalance - amount */\n      sub\n        /* \"src/extensions/ERC20.sol\":10040:10049  _balances */\n      0x01\n        /* \"src/extensions/ERC20.sol\":10040:10058  _balances[account] */\n      0x00\n        /* \"src/extensions/ERC20.sol\":10050:10057  account */\n      dup6\n        /* \"src/extensions/ERC20.sol\":10040:10058  _balances[account] */\n      0xffffffffffffffffffffffffffffffffffffffff\n      and\n      0xffffffffffffffffffffffffffffffffffffffff\n      and\n      dup2\n      mstore\n      0x20\n      add\n      swap1\n      dup2\n      mstore\n      0x20\n      add\n      0x00\n      keccak256\n        /* \"src/extensions/ERC20.sol\":10040:10084  _balances[account] = accountBalance - amount */\n      dup2\n      swap1\n      sstore\n      pop\n        /* \"src/extensions/ERC20.sol\":10195:10201  amount */\n      dup2\n        /* \"src/extensions/ERC20.sol\":10179:10191  _totalSupply */\n      0x03\n      0x00\n        /* \"src/extensions/ERC20.sol\":10179:10201  _totalSupply -= amount */\n      dup3\n      dup3\n      sload\n      sub\n      swap3\n      pop\n      pop\n      dup2\n      swap1\n      sstore\n      pop\n        /* \"src/extensions/ERC20.sol\":10256:10257  0 */\n      0x00\n        /* \"src/extensions/ERC20.sol\":10230:10267  Transfer(account, address(0), amount) */\n      0xffffffffffffffffffffffffffffffffffffffff\n      and\n        /* \"src/extensions/ERC20.sol\":10239:10246  account */\n      dup4\n        /* \"src/extensions/ERC20.sol\":10230:10267  Transfer(account, address(0), amount) */\n      0xffffffffffffffffffffffffffffffffffffffff\n      and\n      0xddf252ad1be2c89b69c2b068fc378daa952ba7f163c4a11628f55a4df523b3ef\n        /* \"src/extensions/ERC20.sol\":10260:10266  amount */\n      dup5\n        /* \"src/extensions/ERC20.sol\":10230:10267  Transfer(account, address(0), amount) */\n      mload(0x40)\n      tag_284\n      swap2\n      swap1\n      tag_47\n      jump\t// in\n    tag_284:\n      mload(0x40)\n      dup1\n      swap2\n      sub\n      swap1\n      log3\n        /* \"src/extensions/ERC20.sol\":10280:10328  _afterTokenTransfer(account, address(0), amount) */\n      tag_285\n        /* \"src/extensions/ERC20.sol\":10300:10307  account */\n      dup4\n        /* \"src/extensions/ERC20.sol\":10317:10318  0 */\n      0x00\n        /* \"src/extensions/ERC20.sol\":10321:10327  amount */\n      dup5\n        /* \"src/extensions/ERC20.sol\":10280:10299  _afterTokenTransfer */\n      tag_255\n        /* \"src/extensions/ERC20.sol\":10280:10328  _afterTokenTransfer(account, address(0), amount) */\n      jump\t// in\n    tag_285:\n        /* \"src/extensions/ERC20.sol\":9726:10336  {... */\n      pop\n        /* \"src/extensions/ERC20.sol\":9661:10336  function _burn(address account, uint256 amount) internal virtual {... */\n      pop\n      pop\n      jump\t// out\n        /* \"src/extensions/ERC20.sol\":12430:12521  function _beforeTokenTransfer(address from, address to, uint256 amount) internal virtual {} */\n    tag_249:\n      pop\n      pop\n      pop\n      jump\t// out\n        /* \"src/extensions/ERC20.sol\":13125:13215  function _afterTokenTransfer(address from, address to, uint256 amount) internal virtual {} */\n    tag_255:\n      pop\n      pop\n      pop\n      jump\t// out\n        /* \"src/utils/AccessControl.sol\":3828:4320  function _checkRole(bytes32 role, address account) internal view virtual {... */\n    tag_259:\n        /* \"src/utils/AccessControl.sol\":3917:3939  hasRole(role, account) */\n      tag_289\n        /* \"src/utils/AccessControl.sol\":3925:3929  role */\n      dup3\n        /* \"src/utils/AccessControl.sol\":3931:3938  account */\n      dup3\n        /* \"src/utils/AccessControl.sol\":3917:3924  hasRole */\n      tag_97\n        /* \"src/utils/AccessControl.sol\":3917:3939  hasRole(role, account) */\n      jump\t// in\n    tag_289:\n        /* \"src/utils/AccessControl.sol\":3912:4313  if (!hasRole(role, account)) {... */\n      tag_290\n      jumpi\n        /* \"src/utils/AccessControl.sol\":4105:4133  Strings.toHexString(account) */\n      tag_291\n        /* \"src/utils/AccessControl.sol\":4125:4132  account */\n      dup2\n        /* \"src/utils/AccessControl.sol\":4105:4124  Strings.toHexString */\n      tag_292\n        /* \"src/utils/AccessControl.sol\":4105:4133  Strings.toHexString(account) */\n      jump\t// in\n    tag_291:\n        /* \"src/utils/AccessControl.sol\":4206:4244  Strings.toHexString(uint256(role), 32) */\n      tag_293\n        /* \"src/utils/AccessControl.sol\":4234:4238  role */\n      dup4\n        /* \"src/utils/AccessControl.sol\":4226:4239  uint256(role) */\n      0x00\n      shr\n        /* \"src/utils/AccessControl.sol\":4241:4243  32 */\n      0x20\n        /* \"src/utils/AccessControl.sol\":4206:4225  Strings.toHexString */\n      tag_294\n        /* \"src/utils/AccessControl.sol\":4206:4244  Strings.toHexString(uint256(role), 32) */\n      jump\t// in\n    tag_293:\n        /* \"src/utils/AccessControl.sol\":4010:4267  abi.encodePacked(... */\n      add(0x20, mload(0x40))\n      tag_295\n      swap3\n      swap2\n      swap1\n      tag_296\n      jump\t// in\n    tag_295:\n      mload(0x40)\n      0x20\n      dup2\n      dup4\n      sub\n      sub\n      dup2\n      mstore\n      swap1\n      0x40\n      mstore\n        /* \"src/utils/AccessControl.sol\":3956:4301  revert(... */\n      mload(0x40)\n      0x08c379a000000000000000000000000000000000000000000000000000000000\n      dup2\n      mstore\n      0x04\n      add\n      tag_297\n      swap2\n      swap1\n      tag_38\n      jump\t// in\n    tag_297:\n      mload(0x40)\n      dup1\n      swap2\n      sub\n      swap1\n      revert\n        /* \"src/utils/AccessControl.sol\":3912:4313  if (!hasRole(role, account)) {... */\n    tag_290:\n        /* \"src/utils/AccessControl.sol\":3828:4320  function _checkRole(bytes32 role, address account) internal view virtual {... */\n      pop\n      pop\n      jump\t// out\n        /* \"src/libraries/Strings.sol\":2471:2622  function toHexString(address addr) internal pure returns (string memory) {... */\n    tag_292:\n        /* \"src/libraries/Strings.sol\":2529:2542  string memory */\n      0x60\n        /* \"src/libraries/Strings.sol\":2562:2614  toHexString(uint256(uint160(addr)), _ADDRESS_LENGTH) */\n      tag_299\n        /* \"src/libraries/Strings.sol\":2590:2594  addr */\n      dup3\n        /* \"src/libraries/Strings.sol\":2574:2596  uint256(uint160(addr)) */\n      0xffffffffffffffffffffffffffffffffffffffff\n      and\n        /* \"src/libraries/Strings.sol\":346:348  20 */\n      0x14\n        /* \"src/libraries/Strings.sol\":2562:2614  toHexString(uint256(uint160(addr)), _ADDRESS_LENGTH) */\n      0xff\n      and\n        /* \"src/libraries/Strings.sol\":2562:2573  toHexString */\n      tag_294\n        /* \"src/libraries/Strings.sol\":2562:2614  toHexString(uint256(uint160(addr)), _ADDRESS_LENGTH) */\n      jump\t// in\n    tag_299:\n        /* \"src/libraries/Strings.sol\":2555:2614  return toHexString(uint256(uint160(addr)), _ADDRESS_LENGTH) */\n      swap1\n      pop\n        /* \"src/libraries/Strings.sol\":2471:2622  function toHexString(address addr) internal pure returns (string memory) {... */\n      swap2\n      swap1\n      pop\n      jump\t// out\n        /* \"src/libraries/Strings.sol\":1867:2314  function toHexString(uint256 value, uint256 length) internal pure returns (string memory) {... */\n    tag_294:\n        /* \"src/libraries/Strings.sol\":1942:1955  string memory */\n      0x60\n        /* \"src/libraries/Strings.sol\":1968:1987  bytes memory buffer */\n      0x00\n        /* \"src/libraries/Strings.sol\":2013:2014  2 */\n      0x02\n        /* \"src/libraries/Strings.sol\":2004:2010  length */\n      dup4\n        /* \"src/libraries/Strings.sol\":2000:2001  2 */\n      0x02\n        /* \"src/libraries/Strings.sol\":2000:2010  2 * length */\n      tag_301\n      swap2\n      swap1\n      tag_302\n      jump\t// in\n    tag_301:\n        /* \"src/libraries/Strings.sol\":2000:2014  2 * length + 2 */\n      tag_303\n      swap2\n      swap1\n      tag_168\n      jump\t// in\n    tag_303:\n        /* \"src/libraries/Strings.sol\":1990:2015  new bytes(2 * length + 2) */\n      0xffffffffffffffff\n      dup2\n      gt\n      iszero\n      tag_304\n      jumpi\n      tag_305\n      tag_306\n      jump\t// in\n    tag_305:\n    tag_304:\n      mload(0x40)\n      swap1\n      dup1\n      dup3\n      mstore\n      dup1\n      0x1f\n      add\n      not(0x1f)\n      and\n      0x20\n      add\n      dup3\n      add\n      0x40\n      mstore\n      dup1\n      iszero\n      tag_307\n      jumpi\n      dup2\n      0x20\n      add\n      0x01\n      dup3\n      mul\n      dup1\n      calldatasize\n      dup4\n      calldatacopy\n      dup1\n      dup3\n      add\n      swap2\n      pop\n      pop\n      swap1\n      pop\n    tag_307:\n      pop\n        /* \"src/libraries/Strings.sol\":1968:2015  bytes memory buffer = new bytes(2 * length + 2) */\n      swap1\n      pop\n        /* \"src/libraries/Strings.sol\":2026:2041  buffer[0] = \"0\" */\n      0x3000000000000000000000000000000000000000000000000000000000000000\n        /* \"src/libraries/Strings.sol\":2026:2032  buffer */\n      dup2\n        /* \"src/libraries/Strings.sol\":2033:2034  0 */\n      0x00\n        /* \"src/libraries/Strings.sol\":2026:2035  buffer[0] */\n      dup2\n      mload\n      dup2\n      lt\n      tag_308\n      jumpi\n      tag_309\n      tag_310\n      jump\t// in\n    tag_309:\n    tag_308:\n      0x20\n      add\n      add\n        /* \"src/libraries/Strings.sol\":2026:2041  buffer[0] = \"0\" */\n      swap1\n      not(0xffffffffffffffffffffffffffffffffffffffffffffffffffffffffffffff)\n      and\n      swap1\n      dup2\n      0x00\n      byte\n      swap1\n      mstore8\n      pop\n        /* \"src/libraries/Strings.sol\":2052:2067  buffer[1] = \"x\" */\n      0x7800000000000000000000000000000000000000000000000000000000000000\n        /* \"src/libraries/Strings.sol\":2052:2058  buffer */\n      dup2\n        /* \"src/libraries/Strings.sol\":2059:2060  1 */\n      0x01\n        /* \"src/libraries/Strings.sol\":2052:2061  buffer[1] */\n      dup2\n      mload\n      dup2\n      lt\n      tag_311\n      jumpi\n      tag_312\n      tag_310\n      jump\t// in\n    tag_312:\n    tag_311:\n      0x20\n      add\n      add\n        /* \"src/libraries/Strings.sol\":2052:2067  buffer[1] = \"x\" */\n      swap1\n      not(0xffffffffffffffffffffffffffffffffffffffffffffffffffffffffffffff)\n      and\n      swap1\n      dup2\n      0x00\n      byte\n      swap1\n      mstore8\n      pop\n        /* \"src/libraries/Strings.sol\":2083:2092  uint256 i */\n      0x00\n        /* \"src/libraries/Strings.sol\":2108:2109  1 */\n      0x01\n        /* \"src/libraries/Strings.sol\":2099:2105  length */\n      dup5\n        /* \"src/libraries/Strings.sol\":2095:2096  2 */\n      0x02\n        /* \"src/libraries/Strings.sol\":2095:2105  2 * length */\n      tag_316\n      swap2\n      swap1\n      tag_302\n      jump\t// in\n    tag_316:\n        /* \"src/libraries/Strings.sol\":2095:2109  2 * length + 1 */\n      tag_317\n      swap2\n      swap1\n      tag_168\n      jump\t// in\n    tag_317:\n        /* \"src/libraries/Strings.sol\":2083:2109  uint256 i = 2 * length + 1 */\n      swap1\n      pop\n        /* \"src/libraries/Strings.sol\":2078:2209  for (uint256 i = 2 * length + 1; i > 1; --i) {... */\n    tag_313:\n        /* \"src/libraries/Strings.sol\":2115:2116  1 */\n      0x01\n        /* \"src/libraries/Strings.sol\":2111:2112  i */\n      dup2\n        /* \"src/libraries/Strings.sol\":2111:2116  i > 1 */\n      gt\n        /* \"src/libraries/Strings.sol\":2078:2209  for (uint256 i = 2 * length + 1; i > 1; --i) {... */\n      iszero\n      tag_314\n      jumpi\n        /* \"src/libraries/Strings.sol\":2150:2158  _SYMBOLS */\n      0x3031323334353637383961626364656600000000000000000000000000000000\n        /* \"src/libraries/Strings.sol\":2167:2170  0xf */\n      0x0f\n        /* \"src/libraries/Strings.sol\":2159:2164  value */\n      dup7\n        /* \"src/libraries/Strings.sol\":2159:2170  value & 0xf */\n      and\n        /* \"src/libraries/Strings.sol\":2150:2171  _SYMBOLS[value & 0xf] */\n      0x10\n      dup2\n      lt\n      tag_318\n      jumpi\n      tag_319\n      tag_310\n      jump\t// in\n    tag_319:\n    tag_318:\n      byte\n      0xf8\n      shl\n        /* \"src/libraries/Strings.sol\":2138:2144  buffer */\n      dup3\n        /* \"src/libraries/Strings.sol\":2145:2146  i */\n      dup3\n        /* \"src/libraries/Strings.sol\":2138:2147  buffer[i] */\n      dup2\n      mload\n      dup2\n      lt\n      tag_320\n      jumpi\n      tag_321\n      tag_310\n      jump\t// in\n    tag_321:\n    tag_320:\n      0x20\n      add\n      add\n        /* \"src/libraries/Strings.sol\":2138:2171  buffer[i] = _SYMBOLS[value & 0xf] */\n      swap1\n      not(0xffffffffffffffffffffffffffffffffffffffffffffffffffffffffffffff)\n      and\n      swap1\n      dup2\n      0x00\n      byte\n      swap1\n      mstore8\n      pop\n        /* \"src/libraries/Strings.sol\":2196:2197  4 */\n      0x04\n        /* \"src/libraries/Strings.sol\":2186:2197  value >>= 4 */\n      dup6\n      swap1\n      shr\n      swap5\n      pop\n        /* \"src/libraries/Strings.sol\":2118:2121  --i */\n      dup1\n      tag_322\n      swap1\n      tag_323\n      jump\t// in\n    tag_322:\n      swap1\n      pop\n        /* \"src/libraries/Strings.sol\":2078:2209  for (uint256 i = 2 * length + 1; i > 1; --i) {... */\n      jump(tag_313)\n    tag_314:\n      pop\n        /* \"src/libraries/Strings.sol\":2236:2237  0 */\n      0x00\n        /* \"src/libraries/Strings.sol\":2227:2232  value */\n      dup5\n        /* \"src/libraries/Strings.sol\":2227:2237  value == 0 */\n      eq\n        /* \"src/libraries/Strings.sol\":2219:2274  require(value == 0, \"Strings: hex length insufficient\") */\n      tag_324\n      jumpi\n      mload(0x40)\n      0x08c379a000000000000000000000000000000000000000000000000000000000\n      dup2\n      mstore\n      0x04\n      add\n      tag_325\n      swap1\n      tag_326\n      jump\t// in\n    tag_325:\n      mload(0x40)\n      dup1\n      swap2\n      sub\n      swap1\n      revert\n    tag_324:\n        /* \"src/libraries/Strings.sol\":2299:2305  buffer */\n      dup1\n        /* \"src/libraries/Strings.sol\":2285:2306  return string(buffer) */\n      swap2\n      pop\n      pop\n        /* \"src/libraries/Strings.sol\":1867:2314  function toHexString(uint256 value, uint256 length) internal pure returns (string memory) {... */\n      swap3\n      swap2\n      pop\n      pop\n      jump\t// out\n        /* \"#utility.yul\":88:205   */\n    tag_328:\n        /* \"#utility.yul\":197:198   */\n      0x00\n        /* \"#utility.yul\":194:195   */\n      dup1\n        /* \"#utility.yul\":187:199   */\n      revert\n        /* \"#utility.yul\":334:483   */\n    tag_330:\n        /* \"#utility.yul\":370:377   */\n      0x00\n        /* \"#utility.yul\":410:476   */\n      0xffffffff00000000000000000000000000000000000000000000000000000000\n        /* \"#utility.yul\":403:408   */\n      dup3\n        /* \"#utility.yul\":399:477   */\n      and\n        /* \"#utility.yul\":388:477   */\n      swap1\n      pop\n        /* \"#utility.yul\":334:483   */\n      swap2\n      swap1\n      pop\n      jump\t// out\n        /* \"#utility.yul\":489:609   */\n    tag_331:\n        /* \"#utility.yul\":561:584   */\n      tag_398\n        /* \"#utility.yul\":578:583   */\n      dup2\n        /* \"#utility.yul\":561:584   */\n      tag_330\n      jump\t// in\n    tag_398:\n        /* \"#utility.yul\":554:559   */\n      dup2\n        /* \"#utility.yul\":551:585   */\n      eq\n        /* \"#utility.yul\":541:603   */\n      tag_399\n      jumpi\n        /* \"#utility.yul\":599:600   */\n      0x00\n        /* \"#utility.yul\":596:597   */\n      dup1\n        /* \"#utility.yul\":589:601   */\n      revert\n        /* \"#utility.yul\":541:603   */\n    tag_399:\n        /* \"#utility.yul\":489:609   */\n      pop\n      jump\t// out\n        /* \"#utility.yul\":615:752   */\n    tag_332:\n        /* \"#utility.yul\":660:665   */\n      0x00\n        /* \"#utility.yul\":698:704   */\n      dup2\n        /* \"#utility.yul\":685:705   */\n      calldataload\n        /* \"#utility.yul\":676:705   */\n      swap1\n      pop\n        /* \"#utility.yul\":714:746   */\n      tag_401\n        /* \"#utility.yul\":740:745   */\n      dup2\n        /* \"#utility.yul\":714:746   */\n      tag_331\n      jump\t// in\n    tag_401:\n        /* \"#utility.yul\":615:752   */\n      swap3\n      swap2\n      pop\n      pop\n      jump\t// out\n        /* \"#utility.yul\":758:1085   */\n    tag_31:\n        /* \"#utility.yul\":816:822   */\n      0x00\n        /* \"#utility.yul\":865:867   */\n      0x20\n        /* \"#utility.yul\":853:862   */\n      dup3\n        /* \"#utility.yul\":844:851   */\n      dup5\n        /* \"#utility.yul\":840:863   */\n      sub\n        /* \"#utility.yul\":836:868   */\n      slt\n        /* \"#utility.yul\":833:952   */\n      iszero\n      tag_403\n      jumpi\n        /* \"#utility.yul\":871:950   */\n      tag_404\n      tag_328\n      jump\t// in\n    tag_404:\n        /* \"#utility.yul\":833:952   */\n    tag_403:\n        /* \"#utility.yul\":991:992   */\n      0x00\n        /* \"#utility.yul\":1016:1068   */\n      tag_405\n        /* \"#utility.yul\":1060:1067   */\n      dup5\n        /* \"#utility.yul\":1051:1057   */\n      dup3\n        /* \"#utility.yul\":1040:1049   */\n      dup6\n        /* \"#utility.yul\":1036:1058   */\n      add\n        /* \"#utility.yul\":1016:1068   */\n      tag_332\n      jump\t// in\n    tag_405:\n        /* \"#utility.yul\":1006:1068   */\n      swap2\n      pop\n        /* \"#utility.yul\":962:1078   */\n      pop\n        /* \"#utility.yul\":758:1085   */\n      swap3\n      swap2\n      pop\n      pop\n      jump\t// out\n        /* \"#utility.yul\":1091:1181   */\n    tag_333:\n        /* \"#utility.yul\":1125:1132   */\n      0x00\n        /* \"#utility.yul\":1168:1173   */\n      dup2\n        /* \"#utility.yul\":1161:1174   */\n      iszero\n        /* \"#utility.yul\":1154:1175   */\n      iszero\n        /* \"#utility.yul\":1143:1175   */\n      swap1\n      pop\n        /* \"#utility.yul\":1091:1181   */\n      swap2\n      swap1\n      pop\n      jump\t// out\n        /* \"#utility.yul\":1187:1296   */\n    tag_334:\n        /* \"#utility.yul\":1268:1289   */\n      tag_408\n        /* \"#utility.yul\":1283:1288   */\n      dup2\n        /* \"#utility.yul\":1268:1289   */\n      tag_333\n      jump\t// in\n    tag_408:\n        /* \"#utility.yul\":1263:1266   */\n      dup3\n        /* \"#utility.yul\":1256:1290   */\n      mstore\n        /* \"#utility.yul\":1187:1296   */\n      pop\n      pop\n      jump\t// out\n        /* \"#utility.yul\":1302:1512   */\n    tag_34:\n        /* \"#utility.yul\":1389:1393   */\n      0x00\n        /* \"#utility.yul\":1427:1429   */\n      0x20\n        /* \"#utility.yul\":1416:1425   */\n      dup3\n        /* \"#utility.yul\":1412:1430   */\n      add\n        /* \"#utility.yul\":1404:1430   */\n      swap1\n      pop\n        /* \"#utility.yul\":1440:1505   */\n      tag_410\n        /* \"#utility.yul\":1502:1503   */\n      0x00\n        /* \"#utility.yul\":1491:1500   */\n      dup4\n        /* \"#utility.yul\":1487:1504   */\n      add\n        /* \"#utility.yul\":1478:1484   */\n      dup5\n        /* \"#utility.yul\":1440:1505   */\n      tag_334\n      jump\t// in\n    tag_410:\n        /* \"#utility.yul\":1302:1512   */\n      swap3\n      swap2\n      pop\n      pop\n      jump\t// out\n        /* \"#utility.yul\":1518:1617   */\n    tag_335:\n        /* \"#utility.yul\":1570:1576   */\n      0x00\n        /* \"#utility.yul\":1604:1609   */\n      dup2\n        /* \"#utility.yul\":1598:1610   */\n      mload\n        /* \"#utility.yul\":1588:1610   */\n      swap1\n      pop\n        /* \"#utility.yul\":1518:1617   */\n      swap2\n      swap1\n      pop\n      jump\t// out\n        /* \"#utility.yul\":1623:1792   */\n    tag_336:\n        /* \"#utility.yul\":1707:1718   */\n      0x00\n        /* \"#utility.yul\":1741:1747   */\n      dup3\n        /* \"#utility.yul\":1736:1739   */\n      dup3\n        /* \"#utility.yul\":1729:1748   */\n      mstore\n        /* \"#utility.yul\":1781:1785   */\n      0x20\n        /* \"#utility.yul\":1776:1779   */\n      dup3\n        /* \"#utility.yul\":1772:1786   */\n      add\n        /* \"#utility.yul\":1757:1786   */\n      swap1\n      pop\n        /* \"#utility.yul\":1623:1792   */\n      swap3\n      swap2\n      pop\n      pop\n      jump\t// out\n        /* \"#utility.yul\":1798:2044   */\n    tag_337:\n        /* \"#utility.yul\":1879:1880   */\n      0x00\n        /* \"#utility.yul\":1889:2002   */\n    tag_414:\n        /* \"#utility.yul\":1903:1909   */\n      dup4\n        /* \"#utility.yul\":1900:1901   */\n      dup2\n        /* \"#utility.yul\":1897:1910   */\n      lt\n        /* \"#utility.yul\":1889:2002   */\n      iszero\n      tag_416\n      jumpi\n        /* \"#utility.yul\":1988:1989   */\n      dup1\n        /* \"#utility.yul\":1983:1986   */\n      dup3\n        /* \"#utility.yul\":1979:1990   */\n      add\n        /* \"#utility.yul\":1973:1991   */\n      mload\n        /* \"#utility.yul\":1969:1970   */\n      dup2\n        /* \"#utility.yul\":1964:1967   */\n      dup5\n        /* \"#utility.yul\":1960:1971   */\n      add\n        /* \"#utility.yul\":1953:1992   */\n      mstore\n        /* \"#utility.yul\":1925:1927   */\n      0x20\n        /* \"#utility.yul\":1922:1923   */\n      dup2\n        /* \"#utility.yul\":1918:1928   */\n      add\n        /* \"#utility.yul\":1913:1928   */\n      swap1\n      pop\n        /* \"#utility.yul\":1889:2002   */\n      jump(tag_414)\n    tag_416:\n        /* \"#utility.yul\":2036:2037   */\n      0x00\n        /* \"#utility.yul\":2027:2033   */\n      dup5\n        /* \"#utility.yul\":2022:2025   */\n      dup5\n        /* \"#utility.yul\":2018:2034   */\n      add\n        /* \"#utility.yul\":2011:2038   */\n      mstore\n        /* \"#utility.yul\":1860:2044   */\n      pop\n        /* \"#utility.yul\":1798:2044   */\n      pop\n      pop\n      pop\n      jump\t// out\n        /* \"#utility.yul\":2050:2152   */\n    tag_338:\n        /* \"#utility.yul\":2091:2097   */\n      0x00\n        /* \"#utility.yul\":2142:2144   */\n      0x1f\n        /* \"#utility.yul\":2138:2145   */\n      not\n        /* \"#utility.yul\":2133:2135   */\n      0x1f\n        /* \"#utility.yul\":2126:2131   */\n      dup4\n        /* \"#utility.yul\":2122:2136   */\n      add\n        /* \"#utility.yul\":2118:2146   */\n      and\n        /* \"#utility.yul\":2108:2146   */\n      swap1\n      pop\n        /* \"#utility.yul\":2050:2152   */\n      swap2\n      swap1\n      pop\n      jump\t// out\n        /* \"#utility.yul\":2158:2535   */\n    tag_339:\n        /* \"#utility.yul\":2246:2249   */\n      0x00\n        /* \"#utility.yul\":2274:2313   */\n      tag_419\n        /* \"#utility.yul\":2307:2312   */\n      dup3\n        /* \"#utility.yul\":2274:2313   */\n      tag_335\n      jump\t// in\n    tag_419:\n        /* \"#utility.yul\":2329:2400   */\n      tag_420\n        /* \"#utility.yul\":2393:2399   */\n      dup2\n        /* \"#utility.yul\":2388:2391   */\n      dup6\n        /* \"#utility.yul\":2329:2400   */\n      tag_336\n      jump\t// in\n    tag_420:\n        /* \"#utility.yul\":2322:2400   */\n      swap4\n      pop\n        /* \"#utility.yul\":2409:2474   */\n      tag_421\n        /* \"#utility.yul\":2467:2473   */\n      dup2\n        /* \"#utility.yul\":2462:2465   */\n      dup6\n        /* \"#utility.yul\":2455:2459   */\n      0x20\n        /* \"#utility.yul\":2448:2453   */\n      dup7\n        /* \"#utility.yul\":2444:2460   */\n      add\n        /* \"#utility.yul\":2409:2474   */\n      tag_337\n      jump\t// in\n    tag_421:\n        /* \"#utility.yul\":2499:2528   */\n      tag_422\n        /* \"#utility.yul\":2521:2527   */\n      dup2\n        /* \"#utility.yul\":2499:2528   */\n      tag_338\n      jump\t// in\n    tag_422:\n        /* \"#utility.yul\":2494:2497   */\n      dup5\n        /* \"#utility.yul\":2490:2529   */\n      add\n        /* \"#utility.yul\":2483:2529   */\n      swap2\n      pop\n        /* \"#utility.yul\":2250:2535   */\n      pop\n        /* \"#utility.yul\":2158:2535   */\n      swap3\n      swap2\n      pop\n      pop\n      jump\t// out\n        /* \"#utility.yul\":2541:2854   */\n    tag_38:\n        /* \"#utility.yul\":2654:2658   */\n      0x00\n        /* \"#utility.yul\":2692:2694   */\n      0x20\n        /* \"#utility.yul\":2681:2690   */\n      dup3\n        /* \"#utility.yul\":2677:2695   */\n      add\n        /* \"#utility.yul\":2669:2695   */\n      swap1\n      pop\n        /* \"#utility.yul\":2741:2750   */\n      dup2\n        /* \"#utility.yul\":2735:2739   */\n      dup2\n        /* \"#utility.yul\":2731:2751   */\n      sub\n        /* \"#utility.yul\":2727:2728   */\n      0x00\n        /* \"#utility.yul\":2716:2725   */\n      dup4\n        /* \"#utility.yul\":2712:2729   */\n      add\n        /* \"#utility.yul\":2705:2752   */\n      mstore\n        /* \"#utility.yul\":2769:2847   */\n      tag_424\n        /* \"#utility.yul\":2842:2846   */\n      dup2\n        /* \"#utility.yul\":2833:2839   */\n      dup5\n        /* \"#utility.yul\":2769:2847   */\n      tag_339\n      jump\t// in\n    tag_424:\n        /* \"#utility.yul\":2761:2847   */\n      swap1\n      pop\n        /* \"#utility.yul\":2541:2854   */\n      swap3\n      swap2\n      pop\n      pop\n      jump\t// out\n        /* \"#utility.yul\":2860:2986   */\n    tag_340:\n        /* \"#utility.yul\":2897:2904   */\n      0x00\n        /* \"#utility.yul\":2937:2979   */\n      0xffffffffffffffffffffffffffffffffffffffff\n        /* \"#utility.yul\":2930:2935   */\n      dup3\n        /* \"#utility.yul\":2926:2980   */\n      and\n        /* \"#utility.yul\":2915:2980   */\n      swap1\n      pop\n        /* \"#utility.yul\":2860:2986   */\n      swap2\n      swap1\n      pop\n      jump\t// out\n        /* \"#utility.yul\":2992:3088   */\n    tag_341:\n        /* \"#utility.yul\":3029:3036   */\n      0x00\n        /* \"#utility.yul\":3058:3082   */\n      tag_427\n        /* \"#utility.yul\":3076:3081   */\n      dup3\n        /* \"#utility.yul\":3058:3082   */\n      tag_340\n      jump\t// in\n    tag_427:\n        /* \"#utility.yul\":3047:3082   */\n      swap1\n      pop\n        /* \"#utility.yul\":2992:3088   */\n      swap2\n      swap1\n      pop\n      jump\t// out\n        /* \"#utility.yul\":3094:3216   */\n    tag_342:\n        /* \"#utility.yul\":3167:3191   */\n      tag_429\n        /* \"#utility.yul\":3185:3190   */\n      dup2\n        /* \"#utility.yul\":3167:3191   */\n      tag_341\n      jump\t// in\n    tag_429:\n        /* \"#utility.yul\":3160:3165   */\n      dup2\n        /* \"#utility.yul\":3157:3192   */\n      eq\n        /* \"#utility.yul\":3147:3210   */\n      tag_430\n      jumpi\n        /* \"#utility.yul\":3206:3207   */\n      0x00\n        /* \"#utility.yul\":3203:3204   */\n      dup1\n        /* \"#utility.yul\":3196:3208   */\n      revert\n        /* \"#utility.yul\":3147:3210   */\n    tag_430:\n        /* \"#utility.yul\":3094:3216   */\n      pop\n      jump\t// out\n        /* \"#utility.yul\":3222:3361   */\n    tag_343:\n        /* \"#utility.yul\":3268:3273   */\n      0x00\n        /* \"#utility.yul\":3306:3312   */\n      dup2\n        /* \"#utility.yul\":3293:3313   */\n      calldataload\n        /* \"#utility.yul\":3284:3313   */\n      swap1\n      pop\n        /* \"#utility.yul\":3322:3355   */\n      tag_432\n        /* \"#utility.yul\":3349:3354   */\n      dup2\n        /* \"#utility.yul\":3322:3355   */\n      tag_342\n      jump\t// in\n    tag_432:\n        /* \"#utility.yul\":3222:3361   */\n      swap3\n      swap2\n      pop\n      pop\n      jump\t// out\n        /* \"#utility.yul\":3367:3444   */\n    tag_344:\n        /* \"#utility.yul\":3404:3411   */\n      0x00\n        /* \"#utility.yul\":3433:3438   */\n      dup2\n        /* \"#utility.yul\":3422:3438   */\n      swap1\n      pop\n        /* \"#utility.yul\":3367:3444   */\n      swap2\n      swap1\n      pop\n      jump\t// out\n        /* \"#utility.yul\":3450:3572   */\n    tag_345:\n        /* \"#utility.yul\":3523:3547   */\n      tag_435\n        /* \"#utility.yul\":3541:3546   */\n      dup2\n        /* \"#utility.yul\":3523:3547   */\n      tag_344\n      jump\t// in\n    tag_435:\n        /* \"#utility.yul\":3516:3521   */\n      dup2\n        /* \"#utility.yul\":3513:3548   */\n      eq\n        /* \"#utility.yul\":3503:3566   */\n      tag_436\n      jumpi\n        /* \"#utility.yul\":3562:3563   */\n      0x00\n        /* \"#utility.yul\":3559:3560   */\n      dup1\n        /* \"#utility.yul\":3552:3564   */\n      revert\n        /* \"#utility.yul\":3503:3566   */\n    tag_436:\n        /* \"#utility.yul\":3450:3572   */\n      pop\n      jump\t// out\n        /* \"#utility.yul\":3578:3717   */\n    tag_346:\n        /* \"#utility.yul\":3624:3629   */\n      0x00\n        /* \"#utility.yul\":3662:3668   */\n      dup2\n        /* \"#utility.yul\":3649:3669   */\n      calldataload\n        /* \"#utility.yul\":3640:3669   */\n      swap1\n      pop\n        /* \"#utility.yul\":3678:3711   */\n      tag_438\n        /* \"#utility.yul\":3705:3710   */\n      dup2\n        /* \"#utility.yul\":3678:3711   */\n      tag_345\n      jump\t// in\n    tag_438:\n        /* \"#utility.yul\":3578:3717   */\n      swap3\n      swap2\n      pop\n      pop\n      jump\t// out\n        /* \"#utility.yul\":3723:4197   */\n    tag_41:\n        /* \"#utility.yul\":3791:3797   */\n      0x00\n        /* \"#utility.yul\":3799:3805   */\n      dup1\n        /* \"#utility.yul\":3848:3850   */\n      0x40\n        /* \"#utility.yul\":3836:3845   */\n      dup4\n        /* \"#utility.yul\":3827:3834   */\n      dup6\n        /* \"#utility.yul\":3823:3846   */\n      sub\n        /* \"#utility.yul\":3819:3851   */\n      slt\n        /* \"#utility.yul\":3816:3935   */\n      iszero\n      tag_440\n      jumpi\n        /* \"#utility.yul\":3854:3933   */\n      tag_441\n      tag_328\n      jump\t// in\n    tag_441:\n        /* \"#utility.yul\":3816:3935   */\n    tag_440:\n        /* \"#utility.yul\":3974:3975   */\n      0x00\n        /* \"#utility.yul\":3999:4052   */\n      tag_442\n        /* \"#utility.yul\":4044:4051   */\n      dup6\n        /* \"#utility.yul\":4035:4041   */\n      dup3\n        /* \"#utility.yul\":4024:4033   */\n      dup7\n        /* \"#utility.yul\":4020:4042   */\n      add\n        /* \"#utility.yul\":3999:4052   */\n      tag_343\n      jump\t// in\n    tag_442:\n        /* \"#utility.yul\":3989:4052   */\n      swap3\n      pop\n        /* \"#utility.yul\":3945:4062   */\n      pop\n        /* \"#utility.yul\":4101:4103   */\n      0x20\n        /* \"#utility.yul\":4127:4180   */\n      tag_443\n        /* \"#utility.yul\":4172:4179   */\n      dup6\n        /* \"#utility.yul\":4163:4169   */\n      dup3\n        /* \"#utility.yul\":4152:4161   */\n      dup7\n        /* \"#utility.yul\":4148:4170   */\n      add\n        /* \"#utility.yul\":4127:4180   */\n      tag_346\n      jump\t// in\n    tag_443:\n        /* \"#utility.yul\":4117:4180   */\n      swap2\n      pop\n        /* \"#utility.yul\":4072:4190   */\n      pop\n        /* \"#utility.yul\":3723:4197   */\n      swap3\n      pop\n      swap3\n      swap1\n      pop\n      jump\t// out\n        /* \"#utility.yul\":4203:4321   */\n    tag_347:\n        /* \"#utility.yul\":4290:4314   */\n      tag_445\n        /* \"#utility.yul\":4308:4313   */\n      dup2\n        /* \"#utility.yul\":4290:4314   */\n      tag_344\n      jump\t// in\n    tag_445:\n        /* \"#utility.yul\":4285:4288   */\n      dup3\n        /* \"#utility.yul\":4278:4315   */\n      mstore\n        /* \"#utility.yul\":4203:4321   */\n      pop\n      pop\n      jump\t// out\n        /* \"#utility.yul\":4327:4549   */\n    tag_47:\n        /* \"#utility.yul\":4420:4424   */\n      0x00\n        /* \"#utility.yul\":4458:4460   */\n      0x20\n        /* \"#utility.yul\":4447:4456   */\n      dup3\n        /* \"#utility.yul\":4443:4461   */\n      add\n        /* \"#utility.yul\":4435:4461   */\n      swap1\n      pop\n        /* \"#utility.yul\":4471:4542   */\n      tag_447\n        /* \"#utility.yul\":4539:4540   */\n      0x00\n        /* \"#utility.yul\":4528:4537   */\n      dup4\n        /* \"#utility.yul\":4524:4541   */\n      add\n        /* \"#utility.yul\":4515:4521   */\n      dup5\n        /* \"#utility.yul\":4471:4542   */\n      tag_347\n      jump\t// in\n    tag_447:\n        /* \"#utility.yul\":4327:4549   */\n      swap3\n      swap2\n      pop\n      pop\n      jump\t// out\n        /* \"#utility.yul\":4555:5174   */\n    tag_50:\n        /* \"#utility.yul\":4632:4638   */\n      0x00\n        /* \"#utility.yul\":4640:4646   */\n      dup1\n        /* \"#utility.yul\":4648:4654   */\n      0x00\n        /* \"#utility.yul\":4697:4699   */\n      0x60\n        /* \"#utility.yul\":4685:4694   */\n      dup5\n        /* \"#utility.yul\":4676:4683   */\n      dup7\n        /* \"#utility.yul\":4672:4695   */\n      sub\n        /* \"#utility.yul\":4668:4700   */\n      slt\n        /* \"#utility.yul\":4665:4784   */\n      iszero\n      tag_449\n      jumpi\n        /* \"#utility.yul\":4703:4782   */\n      tag_450\n      tag_328\n      jump\t// in\n    tag_450:\n        /* \"#utility.yul\":4665:4784   */\n    tag_449:\n        /* \"#utility.yul\":4823:4824   */\n      0x00\n        /* \"#utility.yul\":4848:4901   */\n      tag_451\n        /* \"#utility.yul\":4893:4900   */\n      dup7\n        /* \"#utility.yul\":4884:4890   */\n      dup3\n        /* \"#utility.yul\":4873:4882   */\n      dup8\n        /* \"#utility.yul\":4869:4891   */\n      add\n        /* \"#utility.yul\":4848:4901   */\n      tag_343\n      jump\t// in\n    tag_451:\n        /* \"#utility.yul\":4838:4901   */\n      swap4\n      pop\n        /* \"#utility.yul\":4794:4911   */\n      pop\n        /* \"#utility.yul\":4950:4952   */\n      0x20\n        /* \"#utility.yul\":4976:5029   */\n      tag_452\n        /* \"#utility.yul\":5021:5028   */\n      dup7\n        /* \"#utility.yul\":5012:5018   */\n      dup3\n        /* \"#utility.yul\":5001:5010   */\n      dup8\n        /* \"#utility.yul\":4997:5019   */\n      add\n        /* \"#utility.yul\":4976:5029   */\n      tag_343\n      jump\t// in\n    tag_452:\n        /* \"#utility.yul\":4966:5029   */\n      swap3\n      pop\n        /* \"#utility.yul\":4921:5039   */\n      pop\n        /* \"#utility.yul\":5078:5080   */\n      0x40\n        /* \"#utility.yul\":5104:5157   */\n      tag_453\n        /* \"#utility.yul\":5149:5156   */\n      dup7\n        /* \"#utility.yul\":5140:5146   */\n      dup3\n        /* \"#utility.yul\":5129:5138   */\n      dup8\n        /* \"#utility.yul\":5125:5147   */\n      add\n        /* \"#utility.yul\":5104:5157   */\n      tag_346\n      jump\t// in\n    tag_453:\n        /* \"#utility.yul\":5094:5157   */\n      swap2\n      pop\n        /* \"#utility.yul\":5049:5167   */\n      pop\n        /* \"#utility.yul\":4555:5174   */\n      swap3\n      pop\n      swap3\n      pop\n      swap3\n      jump\t// out\n        /* \"#utility.yul\":5180:5257   */\n    tag_348:\n        /* \"#utility.yul\":5217:5224   */\n      0x00\n        /* \"#utility.yul\":5246:5251   */\n      dup2\n        /* \"#utility.yul\":5235:5251   */\n      swap1\n      pop\n        /* \"#utility.yul\":5180:5257   */\n      swap2\n      swap1\n      pop\n      jump\t// out\n        /* \"#utility.yul\":5263:5385   */\n    tag_349:\n        /* \"#utility.yul\":5336:5360   */\n      tag_456\n        /* \"#utility.yul\":5354:5359   */\n      dup2\n        /* \"#utility.yul\":5336:5360   */\n      tag_348\n      jump\t// in\n    tag_456:\n        /* \"#utility.yul\":5329:5334   */\n      dup2\n        /* \"#utility.yul\":5326:5361   */\n      eq\n        /* \"#utility.yul\":5316:5379   */\n      tag_457\n      jumpi\n        /* \"#utility.yul\":5375:5376   */\n      0x00\n        /* \"#utility.yul\":5372:5373   */\n      dup1\n        /* \"#utility.yul\":5365:5377   */\n      revert\n        /* \"#utility.yul\":5316:5379   */\n    tag_457:\n        /* \"#utility.yul\":5263:5385   */\n      pop\n      jump\t// out\n        /* \"#utility.yul\":5391:5530   */\n    tag_350:\n        /* \"#utility.yul\":5437:5442   */\n      0x00\n        /* \"#utility.yul\":5475:5481   */\n      dup2\n        /* \"#utility.yul\":5462:5482   */\n      calldataload\n        /* \"#utility.yul\":5453:5482   */\n      swap1\n      pop\n        /* \"#utility.yul\":5491:5524   */\n      tag_459\n        /* \"#utility.yul\":5518:5523   */\n      dup2\n        /* \"#utility.yul\":5491:5524   */\n      tag_349\n      jump\t// in\n    tag_459:\n        /* \"#utility.yul\":5391:5530   */\n      swap3\n      swap2\n      pop\n      pop\n      jump\t// out\n        /* \"#utility.yul\":5536:5865   */\n    tag_55:\n        /* \"#utility.yul\":5595:5601   */\n      0x00\n        /* \"#utility.yul\":5644:5646   */\n      0x20\n        /* \"#utility.yul\":5632:5641   */\n      dup3\n        /* \"#utility.yul\":5623:5630   */\n      dup5\n        /* \"#utility.yul\":5619:5642   */\n      sub\n        /* \"#utility.yul\":5615:5647   */\n      slt\n        /* \"#utility.yul\":5612:5731   */\n      iszero\n      tag_461\n      jumpi\n        /* \"#utility.yul\":5650:5729   */\n      tag_462\n      tag_328\n      jump\t// in\n    tag_462:\n        /* \"#utility.yul\":5612:5731   */\n    tag_461:\n        /* \"#utility.yul\":5770:5771   */\n      0x00\n        /* \"#utility.yul\":5795:5848   */\n      tag_463\n        /* \"#utility.yul\":5840:5847   */\n      dup5\n        /* \"#utility.yul\":5831:5837   */\n      dup3\n        /* \"#utility.yul\":5820:5829   */\n      dup6\n        /* \"#utility.yul\":5816:5838   */\n      add\n        /* \"#utility.yul\":5795:5848   */\n      tag_350\n      jump\t// in\n    tag_463:\n        /* \"#utility.yul\":5785:5848   */\n      swap2\n      pop\n        /* \"#utility.yul\":5741:5858   */\n      pop\n        /* \"#utility.yul\":5536:5865   */\n      swap3\n      swap2\n      pop\n      pop\n      jump\t// out\n        /* \"#utility.yul\":5871:5989   */\n    tag_351:\n        /* \"#utility.yul\":5958:5982   */\n      tag_465\n        /* \"#utility.yul\":5976:5981   */\n      dup2\n        /* \"#utility.yul\":5958:5982   */\n      tag_348\n      jump\t// in\n    tag_465:\n        /* \"#utility.yul\":5953:5956   */\n      dup3\n        /* \"#utility.yul\":5946:5983   */\n      mstore\n        /* \"#utility.yul\":5871:5989   */\n      pop\n      pop\n      jump\t// out\n        /* \"#utility.yul\":5995:6217   */\n    tag_58:\n        /* \"#utility.yul\":6088:6092   */\n      0x00\n        /* \"#utility.yul\":6126:6128   */\n      0x20\n        /* \"#utility.yul\":6115:6124   */\n      dup3\n        /* \"#utility.yul\":6111:6129   */\n      add\n        /* \"#utility.yul\":6103:6129   */\n      swap1\n      pop\n        /* \"#utility.yul\":6139:6210   */\n      tag_467\n        /* \"#utility.yul\":6207:6208   */\n      0x00\n        /* \"#utility.yul\":6196:6205   */\n      dup4\n        /* \"#utility.yul\":6192:6209   */\n      add\n        /* \"#utility.yul\":6183:6189   */\n      dup5\n        /* \"#utility.yul\":6139:6210   */\n      tag_351\n      jump\t// in\n    tag_467:\n        /* \"#utility.yul\":5995:6217   */\n      swap3\n      swap2\n      pop\n      pop\n      jump\t// out\n        /* \"#utility.yul\":6223:6697   */\n    tag_61:\n        /* \"#utility.yul\":6291:6297   */\n      0x00\n        /* \"#utility.yul\":6299:6305   */\n      dup1\n        /* \"#utility.yul\":6348:6350   */\n      0x40\n        /* \"#utility.yul\":6336:6345   */\n      dup4\n        /* \"#utility.yul\":6327:6334   */\n      dup6\n        /* \"#utility.yul\":6323:6346   */\n      sub\n        /* \"#utility.yul\":6319:6351   */\n      slt\n        /* \"#utility.yul\":6316:6435   */\n      iszero\n      tag_469\n      jumpi\n        /* \"#utility.yul\":6354:6433   */\n      tag_470\n      tag_328\n      jump\t// in\n    tag_470:\n        /* \"#utility.yul\":6316:6435   */\n    tag_469:\n        /* \"#utility.yul\":6474:6475   */\n      0x00\n        /* \"#utility.yul\":6499:6552   */\n      tag_471\n        /* \"#utility.yul\":6544:6551   */\n      dup6\n        /* \"#utility.yul\":6535:6541   */\n      dup3\n        /* \"#utility.yul\":6524:6533   */\n      dup7\n        /* \"#utility.yul\":6520:6542   */\n      add\n        /* \"#utility.yul\":6499:6552   */\n      tag_350\n      jump\t// in\n    tag_471:\n        /* \"#utility.yul\":6489:6552   */\n      swap3\n      pop\n        /* \"#utility.yul\":6445:6562   */\n      pop\n        /* \"#utility.yul\":6601:6603   */\n      0x20\n        /* \"#utility.yul\":6627:6680   */\n      tag_472\n        /* \"#utility.yul\":6672:6679   */\n      dup6\n        /* \"#utility.yul\":6663:6669   */\n      dup3\n        /* \"#utility.yul\":6652:6661   */\n      dup7\n        /* \"#utility.yul\":6648:6670   */\n      add\n        /* \"#utility.yul\":6627:6680   */\n      tag_343\n      jump\t// in\n    tag_472:\n        /* \"#utility.yul\":6617:6680   */\n      swap2\n      pop\n        /* \"#utility.yul\":6572:6690   */\n      pop\n        /* \"#utility.yul\":6223:6697   */\n      swap3\n      pop\n      swap3\n      swap1\n      pop\n      jump\t// out\n        /* \"#utility.yul\":6703:6789   */\n    tag_352:\n        /* \"#utility.yul\":6738:6745   */\n      0x00\n        /* \"#utility.yul\":6778:6782   */\n      0xff\n        /* \"#utility.yul\":6771:6776   */\n      dup3\n        /* \"#utility.yul\":6767:6783   */\n      and\n        /* \"#utility.yul\":6756:6783   */\n      swap1\n      pop\n        /* \"#utility.yul\":6703:6789   */\n      swap2\n      swap1\n      pop\n      jump\t// out\n        /* \"#utility.yul\":6795:6907   */\n    tag_353:\n        /* \"#utility.yul\":6878:6900   */\n      tag_475\n        /* \"#utility.yul\":6894:6899   */\n      dup2\n        /* \"#utility.yul\":6878:6900   */\n      tag_352\n      jump\t// in\n    tag_475:\n        /* \"#utility.yul\":6873:6876   */\n      dup3\n        /* \"#utility.yul\":6866:6901   */\n      mstore\n        /* \"#utility.yul\":6795:6907   */\n      pop\n      pop\n      jump\t// out\n        /* \"#utility.yul\":6913:7127   */\n    tag_66:\n        /* \"#utility.yul\":7002:7006   */\n      0x00\n        /* \"#utility.yul\":7040:7042   */\n      0x20\n        /* \"#utility.yul\":7029:7038   */\n      dup3\n        /* \"#utility.yul\":7025:7043   */\n      add\n        /* \"#utility.yul\":7017:7043   */\n      swap1\n      pop\n        /* \"#utility.yul\":7053:7120   */\n      tag_477\n        /* \"#utility.yul\":7117:7118   */\n      0x00\n        /* \"#utility.yul\":7106:7115   */\n      dup4\n        /* \"#utility.yul\":7102:7119   */\n      add\n        /* \"#utility.yul\":7093:7099   */\n      dup5\n        /* \"#utility.yul\":7053:7120   */\n      tag_353\n      jump\t// in\n    tag_477:\n        /* \"#utility.yul\":6913:7127   */\n      swap3\n      swap2\n      pop\n      pop\n      jump\t// out\n        /* \"#utility.yul\":7133:7462   */\n    tag_80:\n        /* \"#utility.yul\":7192:7198   */\n      0x00\n        /* \"#utility.yul\":7241:7243   */\n      0x20\n        /* \"#utility.yul\":7229:7238   */\n      dup3\n        /* \"#utility.yul\":7220:7227   */\n      dup5\n        /* \"#utility.yul\":7216:7239   */\n      sub\n        /* \"#utility.yul\":7212:7244   */\n      slt\n        /* \"#utility.yul\":7209:7328   */\n      iszero\n      tag_479\n      jumpi\n        /* \"#utility.yul\":7247:7326   */\n      tag_480\n      tag_328\n      jump\t// in\n    tag_480:\n        /* \"#utility.yul\":7209:7328   */\n    tag_479:\n        /* \"#utility.yul\":7367:7368   */\n      0x00\n        /* \"#utility.yul\":7392:7445   */\n      tag_481\n        /* \"#utility.yul\":7437:7444   */\n      dup5\n        /* \"#utility.yul\":7428:7434   */\n      dup3\n        /* \"#utility.yul\":7417:7426   */\n      dup6\n        /* \"#utility.yul\":7413:7435   */\n      add\n        /* \"#utility.yul\":7392:7445   */\n      tag_346\n      jump\t// in\n    tag_481:\n        /* \"#utility.yul\":7382:7445   */\n      swap2\n      pop\n        /* \"#utility.yul\":7338:7455   */\n      pop\n        /* \"#utility.yul\":7133:7462   */\n      swap3\n      swap2\n      pop\n      pop\n      jump\t// out\n        /* \"#utility.yul\":7468:7797   */\n    tag_85:\n        /* \"#utility.yul\":7527:7533   */\n      0x00\n        /* \"#utility.yul\":7576:7578   */\n      0x20\n        /* \"#utility.yul\":7564:7573   */\n      dup3\n        /* \"#utility.yul\":7555:7562   */\n      dup5\n        /* \"#utility.yul\":7551:7574   */\n      sub\n        /* \"#utility.yul\":7547:7579   */\n      slt\n        /* \"#utility.yul\":7544:7663   */\n      iszero\n      tag_483\n      jumpi\n        /* \"#utility.yul\":7582:7661   */\n      tag_484\n      tag_328\n      jump\t// in\n    tag_484:\n        /* \"#utility.yul\":7544:7663   */\n    tag_483:\n        /* \"#utility.yul\":7702:7703   */\n      0x00\n        /* \"#utility.yul\":7727:7780   */\n      tag_485\n        /* \"#utility.yul\":7772:7779   */\n      dup5\n        /* \"#utility.yul\":7763:7769   */\n      dup3\n        /* \"#utility.yul\":7752:7761   */\n      dup6\n        /* \"#utility.yul\":7748:7770   */\n      add\n        /* \"#utility.yul\":7727:7780   */\n      tag_343\n      jump\t// in\n    tag_485:\n        /* \"#utility.yul\":7717:7780   */\n      swap2\n      pop\n        /* \"#utility.yul\":7673:7790   */\n      pop\n        /* \"#utility.yul\":7468:7797   */\n      swap3\n      swap2\n      pop\n      pop\n      jump\t// out\n        /* \"#utility.yul\":7803:8277   */\n    tag_121:\n        /* \"#utility.yul\":7871:7877   */\n      0x00\n        /* \"#utility.yul\":7879:7885   */\n      dup1\n        /* \"#utility.yul\":7928:7930   */\n      0x40\n        /* \"#utility.yul\":7916:7925   */\n      dup4\n        /* \"#utility.yul\":7907:7914   */\n      dup6\n        /* \"#utility.yul\":7903:7926   */\n      sub\n        /* \"#utility.yul\":7899:7931   */\n      slt\n        /* \"#utility.yul\":7896:8015   */\n      iszero\n      tag_487\n      jumpi\n        /* \"#utility.yul\":7934:8013   */\n      tag_488\n      tag_328\n      jump\t// in\n    tag_488:\n        /* \"#utility.yul\":7896:8015   */\n    tag_487:\n        /* \"#utility.yul\":8054:8055   */\n      0x00\n        /* \"#utility.yul\":8079:8132   */\n      tag_489\n        /* \"#utility.yul\":8124:8131   */\n      dup6\n        /* \"#utility.yul\":8115:8121   */\n      dup3\n        /* \"#utility.yul\":8104:8113   */\n      dup7\n        /* \"#utility.yul\":8100:8122   */\n      add\n        /* \"#utility.yul\":8079:8132   */\n      tag_343\n      jump\t// in\n    tag_489:\n        /* \"#utility.yul\":8069:8132   */\n      swap3\n      pop\n        /* \"#utility.yul\":8025:8142   */\n      pop\n        /* \"#utility.yul\":8181:8183   */\n      0x20\n        /* \"#utility.yul\":8207:8260   */\n      tag_490\n        /* \"#utility.yul\":8252:8259   */\n      dup6\n        /* \"#utility.yul\":8243:8249   */\n      dup3\n        /* \"#utility.yul\":8232:8241   */\n      dup7\n        /* \"#utility.yul\":8228:8250   */\n      add\n        /* \"#utility.yul\":8207:8260   */\n      tag_343\n      jump\t// in\n    tag_490:\n        /* \"#utility.yul\":8197:8260   */\n      swap2\n      pop\n        /* \"#utility.yul\":8152:8270   */\n      pop\n        /* \"#utility.yul\":7803:8277   */\n      swap3\n      pop\n      swap3\n      swap1\n      pop\n      jump\t// out\n        /* \"#utility.yul\":8283:8463   */\n    tag_354:\n        /* \"#utility.yul\":8331:8408   */\n      0x4e487b7100000000000000000000000000000000000000000000000000000000\n        /* \"#utility.yul\":8328:8329   */\n      0x00\n        /* \"#utility.yul\":8321:8409   */\n      mstore\n        /* \"#utility.yul\":8428:8432   */\n      0x22\n        /* \"#utility.yul\":8425:8426   */\n      0x04\n        /* \"#utility.yul\":8418:8433   */\n      mstore\n        /* \"#utility.yul\":8452:8456   */\n      0x24\n        /* \"#utility.yul\":8449:8450   */\n      0x00\n        /* \"#utility.yul\":8442:8457   */\n      revert\n        /* \"#utility.yul\":8469:8789   */\n    tag_130:\n        /* \"#utility.yul\":8513:8519   */\n      0x00\n        /* \"#utility.yul\":8550:8551   */\n      0x02\n        /* \"#utility.yul\":8544:8548   */\n      dup3\n        /* \"#utility.yul\":8540:8552   */\n      div\n        /* \"#utility.yul\":8530:8552   */\n      swap1\n      pop\n        /* \"#utility.yul\":8597:8598   */\n      0x01\n        /* \"#utility.yul\":8591:8595   */\n      dup3\n        /* \"#utility.yul\":8587:8599   */\n      and\n        /* \"#utility.yul\":8618:8636   */\n      dup1\n        /* \"#utility.yul\":8608:8689   */\n      tag_493\n      jumpi\n        /* \"#utility.yul\":8674:8678   */\n      0x7f\n        /* \"#utility.yul\":8666:8672   */\n      dup3\n        /* \"#utility.yul\":8662:8679   */\n      and\n        /* \"#utility.yul\":8652:8679   */\n      swap2\n      pop\n        /* \"#utility.yul\":8608:8689   */\n    tag_493:\n        /* \"#utility.yul\":8736:8738   */\n      0x20\n        /* \"#utility.yul\":8728:8734   */\n      dup3\n        /* \"#utility.yul\":8725:8739   */\n      lt\n        /* \"#utility.yul\":8705:8723   */\n      dup2\n        /* \"#utility.yul\":8702:8740   */\n      sub\n        /* \"#utility.yul\":8699:8783   */\n      tag_494\n      jumpi\n        /* \"#utility.yul\":8755:8773   */\n      tag_495\n      tag_354\n      jump\t// in\n    tag_495:\n        /* \"#utility.yul\":8699:8783   */\n    tag_494:\n        /* \"#utility.yul\":8520:8789   */\n      pop\n        /* \"#utility.yul\":8469:8789   */\n      swap2\n      swap1\n      pop\n      jump\t// out\n        /* \"#utility.yul\":8795:9029   */\n    tag_355:\n        /* \"#utility.yul\":8935:8969   */\n      0x416363657373436f6e74726f6c3a2063616e206f6e6c792072656e6f756e6365\n        /* \"#utility.yul\":8931:8932   */\n      0x00\n        /* \"#utility.yul\":8923:8929   */\n      dup3\n        /* \"#utility.yul\":8919:8933   */\n      add\n        /* \"#utility.yul\":8912:8970   */\n      mstore\n        /* \"#utility.yul\":9004:9021   */\n      0x20726f6c657320666f722073656c660000000000000000000000000000000000\n        /* \"#utility.yul\":8999:9001   */\n      0x20\n        /* \"#utility.yul\":8991:8997   */\n      dup3\n        /* \"#utility.yul\":8987:9002   */\n      add\n        /* \"#utility.yul\":8980:9022   */\n      mstore\n        /* \"#utility.yul\":8795:9029   */\n      pop\n      jump\t// out\n        /* \"#utility.yul\":9035:9401   */\n    tag_356:\n        /* \"#utility.yul\":9177:9180   */\n      0x00\n        /* \"#utility.yul\":9198:9265   */\n      tag_498\n        /* \"#utility.yul\":9262:9264   */\n      0x2f\n        /* \"#utility.yul\":9257:9260   */\n      dup4\n        /* \"#utility.yul\":9198:9265   */\n      tag_336\n      jump\t// in\n    tag_498:\n        /* \"#utility.yul\":9191:9265   */\n      swap2\n      pop\n        /* \"#utility.yul\":9274:9367   */\n      tag_499\n        /* \"#utility.yul\":9363:9366   */\n      dup3\n        /* \"#utility.yul\":9274:9367   */\n      tag_355\n      jump\t// in\n    tag_499:\n        /* \"#utility.yul\":9392:9394   */\n      0x40\n        /* \"#utility.yul\":9387:9390   */\n      dup3\n        /* \"#utility.yul\":9383:9395   */\n      add\n        /* \"#utility.yul\":9376:9395   */\n      swap1\n      pop\n        /* \"#utility.yul\":9035:9401   */\n      swap2\n      swap1\n      pop\n      jump\t// out\n        /* \"#utility.yul\":9407:9826   */\n    tag_160:\n        /* \"#utility.yul\":9573:9577   */\n      0x00\n        /* \"#utility.yul\":9611:9613   */\n      0x20\n        /* \"#utility.yul\":9600:9609   */\n      dup3\n        /* \"#utility.yul\":9596:9614   */\n      add\n        /* \"#utility.yul\":9588:9614   */\n      swap1\n      pop\n        /* \"#utility.yul\":9660:9669   */\n      dup2\n        /* \"#utility.yul\":9654:9658   */\n      dup2\n        /* \"#utility.yul\":9650:9670   */\n      sub\n        /* \"#utility.yul\":9646:9647   */\n      0x00\n        /* \"#utility.yul\":9635:9644   */\n      dup4\n        /* \"#utility.yul\":9631:9648   */\n      add\n        /* \"#utility.yul\":9624:9671   */\n      mstore\n        /* \"#utility.yul\":9688:9819   */\n      tag_501\n        /* \"#utility.yul\":9814:9818   */\n      dup2\n        /* \"#utility.yul\":9688:9819   */\n      tag_356\n      jump\t// in\n    tag_501:\n        /* \"#utility.yul\":9680:9819   */\n      swap1\n      pop\n        /* \"#utility.yul\":9407:9826   */\n      swap2\n      swap1\n      pop\n      jump\t// out\n        /* \"#utility.yul\":9832:10012   */\n    tag_357:\n        /* \"#utility.yul\":9880:9957   */\n      0x4e487b7100000000000000000000000000000000000000000000000000000000\n        /* \"#utility.yul\":9877:9878   */\n      0x00\n        /* \"#utility.yul\":9870:9958   */\n      mstore\n        /* \"#utility.yul\":9977:9981   */\n      0x11\n        /* \"#utility.yul\":9974:9975   */\n      0x04\n        /* \"#utility.yul\":9967:9982   */\n      mstore\n        /* \"#utility.yul\":10001:10005   */\n      0x24\n        /* \"#utility.yul\":9998:9999   */\n      0x00\n        /* \"#utility.yul\":9991:10006   */\n      revert\n        /* \"#utility.yul\":10018:10209   */\n    tag_168:\n        /* \"#utility.yul\":10058:10061   */\n      0x00\n        /* \"#utility.yul\":10077:10097   */\n      tag_504\n        /* \"#utility.yul\":10095:10096   */\n      dup3\n        /* \"#utility.yul\":10077:10097   */\n      tag_344\n      jump\t// in\n    tag_504:\n        /* \"#utility.yul\":10072:10097   */\n      swap2\n      pop\n        /* \"#utility.yul\":10111:10131   */\n      tag_505\n        /* \"#utility.yul\":10129:10130   */\n      dup4\n        /* \"#utility.yul\":10111:10131   */\n      tag_344\n      jump\t// in\n    tag_505:\n        /* \"#utility.yul\":10106:10131   */\n      swap3\n      pop\n        /* \"#utility.yul\":10154:10155   */\n      dup3\n        /* \"#utility.yul\":10151:10152   */\n      dup3\n        /* \"#utility.yul\":10147:10156   */\n      add\n        /* \"#utility.yul\":10140:10156   */\n      swap1\n      pop\n        /* \"#utility.yul\":10175:10178   */\n      dup1\n        /* \"#utility.yul\":10172:10173   */\n      dup3\n        /* \"#utility.yul\":10169:10179   */\n      gt\n        /* \"#utility.yul\":10166:10202   */\n      iszero\n      tag_506\n      jumpi\n        /* \"#utility.yul\":10182:10200   */\n      tag_507\n      tag_357\n      jump\t// in\n    tag_507:\n        /* \"#utility.yul\":10166:10202   */\n    tag_506:\n        /* \"#utility.yul\":10018:10209   */\n      swap3\n      swap2\n      pop\n      pop\n      jump\t// out\n        /* \"#utility.yul\":10215:10363   */\n    tag_358:\n        /* \"#utility.yul\":10317:10328   */\n      0x00\n        /* \"#utility.yul\":10354:10357   */\n      dup2\n        /* \"#utility.yul\":10339:10357   */\n      swap1\n      pop\n        /* \"#utility.yul\":10215:10363   */\n      swap3\n      swap2\n      pop\n      pop\n      jump\t// out\n        /* \"#utility.yul\":10369:10525   */\n    tag_359:\n        /* \"#utility.yul\":10509:10517   */\n      0x43616c6c65720000000000000000000000000000000000000000000000000000\n        /* \"#utility.yul\":10505:10506   */\n      0x00\n        /* \"#utility.yul\":10497:10503   */\n      dup3\n        /* \"#utility.yul\":10493:10507   */\n      add\n        /* \"#utility.yul\":10486:10518   */\n      mstore\n        /* \"#utility.yul\":10369:10525   */\n      pop\n      jump\t// out\n        /* \"#utility.yul\":10531:10931   */\n    tag_360:\n        /* \"#utility.yul\":10691:10694   */\n      0x00\n        /* \"#utility.yul\":10712:10796   */\n      tag_511\n        /* \"#utility.yul\":10794:10795   */\n      0x06\n        /* \"#utility.yul\":10789:10792   */\n      dup4\n        /* \"#utility.yul\":10712:10796   */\n      tag_358\n      jump\t// in\n    tag_511:\n        /* \"#utility.yul\":10705:10796   */\n      swap2\n      pop\n        /* \"#utility.yul\":10805:10898   */\n      tag_512\n        /* \"#utility.yul\":10894:10897   */\n      dup3\n        /* \"#utility.yul\":10805:10898   */\n      tag_359\n      jump\t// in\n    tag_512:\n        /* \"#utility.yul\":10923:10924   */\n      0x06\n        /* \"#utility.yul\":10918:10921   */\n      dup3\n        /* \"#utility.yul\":10914:10925   */\n      add\n        /* \"#utility.yul\":10907:10925   */\n      swap1\n      pop\n        /* \"#utility.yul\":10531:10931   */\n      swap2\n      swap1\n      pop\n      jump\t// out\n        /* \"#utility.yul\":10937:11318   */\n    tag_170:\n        /* \"#utility.yul\":11122:11125   */\n      0x00\n        /* \"#utility.yul\":11144:11292   */\n      tag_514\n        /* \"#utility.yul\":11288:11291   */\n      dup3\n        /* \"#utility.yul\":11144:11292   */\n      tag_360\n      jump\t// in\n    tag_514:\n        /* \"#utility.yul\":11137:11292   */\n      swap2\n      pop\n        /* \"#utility.yul\":11309:11312   */\n      dup2\n        /* \"#utility.yul\":11302:11312   */\n      swap1\n      pop\n        /* \"#utility.yul\":10937:11318   */\n      swap2\n      swap1\n      pop\n      jump\t// out\n        /* \"#utility.yul\":11324:11548   */\n    tag_361:\n        /* \"#utility.yul\":11464:11498   */\n      0x45524332303a2064656372656173656420616c6c6f77616e63652062656c6f77\n        /* \"#utility.yul\":11460:11461   */\n      0x00\n        /* \"#utility.yul\":11452:11458   */\n      dup3\n        /* \"#utility.yul\":11448:11462   */\n      add\n        /* \"#utility.yul\":11441:11499   */\n      mstore\n        /* \"#utility.yul\":11533:11540   */\n      0x207a65726f000000000000000000000000000000000000000000000000000000\n        /* \"#utility.yul\":11528:11530   */\n      0x20\n        /* \"#utility.yul\":11520:11526   */\n      dup3\n        /* \"#utility.yul\":11516:11531   */\n      add\n        /* \"#utility.yul\":11509:11541   */\n      mstore\n        /* \"#utility.yul\":11324:11548   */\n      pop\n      jump\t// out\n        /* \"#utility.yul\":11554:11920   */\n    tag_362:\n        /* \"#utility.yul\":11696:11699   */\n      0x00\n        /* \"#utility.yul\":11717:11784   */\n      tag_517\n        /* \"#utility.yul\":11781:11783   */\n      0x25\n        /* \"#utility.yul\":11776:11779   */\n      dup4\n        /* \"#utility.yul\":11717:11784   */\n      tag_336\n      jump\t// in\n    tag_517:\n        /* \"#utility.yul\":11710:11784   */\n      swap2\n      pop\n        /* \"#utility.yul\":11793:11886   */\n      tag_518\n        /* \"#utility.yul\":11882:11885   */\n      dup3\n        /* \"#utility.yul\":11793:11886   */\n      tag_361\n      jump\t// in\n    tag_518:\n        /* \"#utility.yul\":11911:11913   */\n      0x40\n        /* \"#utility.yul\":11906:11909   */\n      dup3\n        /* \"#utility.yul\":11902:11914   */\n      add\n        /* \"#utility.yul\":11895:11914   */\n      swap1\n      pop\n        /* \"#utility.yul\":11554:11920   */\n      swap2\n      swap1\n      pop\n      jump\t// out\n        /* \"#utility.yul\":11926:12345   */\n    tag_201:\n        /* \"#utility.yul\":12092:12096   */\n      0x00\n        /* \"#utility.yul\":12130:12132   */\n      0x20\n        /* \"#utility.yul\":12119:12128   */\n      dup3\n        /* \"#utility.yul\":12115:12133   */\n      add\n        /* \"#utility.yul\":12107:12133   */\n      swap1\n      pop\n        /* \"#utility.yul\":12179:12188   */\n      dup2\n        /* \"#utility.yul\":12173:12177   */\n      dup2\n        /* \"#utility.yul\":12169:12189   */\n      sub\n        /* \"#utility.yul\":12165:12166   */\n      0x00\n        /* \"#utility.yul\":12154:12163   */\n      dup4\n        /* \"#utility.yul\":12150:12167   */\n      add\n        /* \"#utility.yul\":12143:12190   */\n      mstore\n        /* \"#utility.yul\":12207:12338   */\n      tag_520\n        /* \"#utility.yul\":12333:12337   */\n      dup2\n        /* \"#utility.yul\":12207:12338   */\n      tag_362\n      jump\t// in\n    tag_520:\n        /* \"#utility.yul\":12199:12338   */\n      swap1\n      pop\n        /* \"#utility.yul\":11926:12345   */\n      swap2\n      swap1\n      pop\n      jump\t// out\n        /* \"#utility.yul\":12351:12574   */\n    tag_363:\n        /* \"#utility.yul\":12491:12525   */\n      0x73485944543a2063616c6c6572206973206e6f742074686520696e697469616c\n        /* \"#utility.yul\":12487:12488   */\n      0x00\n        /* \"#utility.yul\":12479:12485   */\n      dup3\n        /* \"#utility.yul\":12475:12489   */\n      add\n        /* \"#utility.yul\":12468:12526   */\n      mstore\n        /* \"#utility.yul\":12560:12566   */\n      0x697a657200000000000000000000000000000000000000000000000000000000\n        /* \"#utility.yul\":12555:12557   */\n      0x20\n        /* \"#utility.yul\":12547:12553   */\n      dup3\n        /* \"#utility.yul\":12543:12558   */\n      add\n        /* \"#utility.yul\":12536:12567   */\n      mstore\n        /* \"#utility.yul\":12351:12574   */\n      pop\n      jump\t// out\n        /* \"#utility.yul\":12580:12946   */\n    tag_364:\n        /* \"#utility.yul\":12722:12725   */\n      0x00\n        /* \"#utility.yul\":12743:12810   */\n      tag_523\n        /* \"#utility.yul\":12807:12809   */\n      0x24\n        /* \"#utility.yul\":12802:12805   */\n      dup4\n        /* \"#utility.yul\":12743:12810   */\n      tag_336\n      jump\t// in\n    tag_523:\n        /* \"#utility.yul\":12736:12810   */\n      swap2\n      pop\n        /* \"#utility.yul\":12819:12912   */\n      tag_524\n        /* \"#utility.yul\":12908:12911   */\n      dup3\n        /* \"#utility.yul\":12819:12912   */\n      tag_363\n      jump\t// in\n    tag_524:\n        /* \"#utility.yul\":12937:12939   */\n      0x40\n        /* \"#utility.yul\":12932:12935   */\n      dup3\n        /* \"#utility.yul\":12928:12940   */\n      add\n        /* \"#utility.yul\":12921:12940   */\n      swap1\n      pop\n        /* \"#utility.yul\":12580:12946   */\n      swap2\n      swap1\n      pop\n      jump\t// out\n        /* \"#utility.yul\":12952:13371   */\n    tag_210:\n        /* \"#utility.yul\":13118:13122   */\n      0x00\n        /* \"#utility.yul\":13156:13158   */\n      0x20\n        /* \"#utility.yul\":13145:13154   */\n      dup3\n        /* \"#utility.yul\":13141:13159   */\n      add\n        /* \"#utility.yul\":13133:13159   */\n      swap1\n      pop\n        /* \"#utility.yul\":13205:13214   */\n      dup2\n        /* \"#utility.yul\":13199:13203   */\n      dup2\n        /* \"#utility.yul\":13195:13215   */\n      sub\n        /* \"#utility.yul\":13191:13192   */\n      0x00\n        /* \"#utility.yul\":13180:13189   */\n      dup4\n        /* \"#utility.yul\":13176:13193   */\n      add\n        /* \"#utility.yul\":13169:13216   */\n      mstore\n        /* \"#utility.yul\":13233:13364   */\n      tag_526\n        /* \"#utility.yul\":13359:13363   */\n      dup2\n        /* \"#utility.yul\":13233:13364   */\n      tag_364\n      jump\t// in\n    tag_526:\n        /* \"#utility.yul\":13225:13364   */\n      swap1\n      pop\n        /* \"#utility.yul\":12952:13371   */\n      swap2\n      swap1\n      pop\n      jump\t// out\n        /* \"#utility.yul\":13377:13554   */\n    tag_365:\n        /* \"#utility.yul\":13517:13546   */\n      0x73485944543a20696e76616c6964204561726e20616464726573730000000000\n        /* \"#utility.yul\":13513:13514   */\n      0x00\n        /* \"#utility.yul\":13505:13511   */\n      dup3\n        /* \"#utility.yul\":13501:13515   */\n      add\n        /* \"#utility.yul\":13494:13547   */\n      mstore\n        /* \"#utility.yul\":13377:13554   */\n      pop\n      jump\t// out\n        /* \"#utility.yul\":13560:13926   */\n    tag_366:\n        /* \"#utility.yul\":13702:13705   */\n      0x00\n        /* \"#utility.yul\":13723:13790   */\n      tag_529\n        /* \"#utility.yul\":13787:13789   */\n      0x1b\n        /* \"#utility.yul\":13782:13785   */\n      dup4\n        /* \"#utility.yul\":13723:13790   */\n      tag_336\n      jump\t// in\n    tag_529:\n        /* \"#utility.yul\":13716:13790   */\n      swap2\n      pop\n        /* \"#utility.yul\":13799:13892   */\n      tag_530\n        /* \"#utility.yul\":13888:13891   */\n      dup3\n        /* \"#utility.yul\":13799:13892   */\n      tag_365\n      jump\t// in\n    tag_530:\n        /* \"#utility.yul\":13917:13919   */\n      0x20\n        /* \"#utility.yul\":13912:13915   */\n      dup3\n        /* \"#utility.yul\":13908:13920   */\n      add\n        /* \"#utility.yul\":13901:13920   */\n      swap1\n      pop\n        /* \"#utility.yul\":13560:13926   */\n      swap2\n      swap1\n      pop\n      jump\t// out\n        /* \"#utility.yul\":13932:14351   */\n    tag_213:\n        /* \"#utility.yul\":14098:14102   */\n      0x00\n        /* \"#utility.yul\":14136:14138   */\n      0x20\n        /* \"#utility.yul\":14125:14134   */\n      dup3\n        /* \"#utility.yul\":14121:14139   */\n      add\n        /* \"#utility.yul\":14113:14139   */\n      swap1\n      pop\n        /* \"#utility.yul\":14185:14194   */\n      dup2\n        /* \"#utility.yul\":14179:14183   */\n      dup2\n        /* \"#utility.yul\":14175:14195   */\n      sub\n        /* \"#utility.yul\":14171:14172   */\n      0x00\n        /* \"#utility.yul\":14160:14169   */\n      dup4\n        /* \"#utility.yul\":14156:14173   */\n      add\n        /* \"#utility.yul\":14149:14196   */\n      mstore\n        /* \"#utility.yul\":14213:14344   */\n      tag_532\n        /* \"#utility.yul\":14339:14343   */\n      dup2\n        /* \"#utility.yul\":14213:14344   */\n      tag_366\n      jump\t// in\n    tag_532:\n        /* \"#utility.yul\":14205:14344   */\n      swap1\n      pop\n        /* \"#utility.yul\":13932:14351   */\n      swap2\n      swap1\n      pop\n      jump\t// out\n        /* \"#utility.yul\":14357:14580   */\n    tag_367:\n        /* \"#utility.yul\":14497:14531   */\n      0x45524332303a20617070726f76652066726f6d20746865207a65726f20616464\n        /* \"#utility.yul\":14493:14494   */\n      0x00\n        /* \"#utility.yul\":14485:14491   */\n      dup3\n        /* \"#utility.yul\":14481:14495   */\n      add\n        /* \"#utility.yul\":14474:14532   */\n      mstore\n        /* \"#utility.yul\":14566:14572   */\n      0x7265737300000000000000000000000000000000000000000000000000000000\n        /* \"#utility.yul\":14561:14563   */\n      0x20\n        /* \"#utility.yul\":14553:14559   */\n      dup3\n        /* \"#utility.yul\":14549:14564   */\n      add\n        /* \"#utility.yul\":14542:14573   */\n      mstore\n        /* \"#utility.yul\":14357:14580   */\n      pop\n      jump\t// out\n        /* \"#utility.yul\":14586:14952   */\n    tag_368:\n        /* \"#utility.yul\":14728:14731   */\n      0x00\n        /* \"#utility.yul\":14749:14816   */\n      tag_535\n        /* \"#utility.yul\":14813:14815   */\n      0x24\n        /* \"#utility.yul\":14808:14811   */\n      dup4\n        /* \"#utility.yul\":14749:14816   */\n      tag_336\n      jump\t// in\n    tag_535:\n        /* \"#utility.yul\":14742:14816   */\n      swap2\n      pop\n        /* \"#utility.yul\":14825:14918   */\n      tag_536\n        /* \"#utility.yul\":14914:14917   */\n      dup3\n        /* \"#utility.yul\":14825:14918   */\n      tag_367\n      jump\t// in\n    tag_536:\n        /* \"#utility.yul\":14943:14945   */\n      0x40\n        /* \"#utility.yul\":14938:14941   */\n      dup3\n        /* \"#utility.yul\":14934:14946   */\n      add\n        /* \"#utility.yul\":14927:14946   */\n      swap1\n      pop\n        /* \"#utility.yul\":14586:14952   */\n      swap2\n      swap1\n      pop\n      jump\t// out\n        /* \"#utility.yul\":14958:15377   */\n    tag_229:\n        /* \"#utility.yul\":15124:15128   */\n      0x00\n        /* \"#utility.yul\":15162:15164   */\n      0x20\n        /* \"#utility.yul\":15151:15160   */\n      dup3\n        /* \"#utility.yul\":15147:15165   */\n      add\n        /* \"#utility.yul\":15139:15165   */\n      swap1\n      pop\n        /* \"#utility.yul\":15211:15220   */\n      dup2\n        /* \"#utility.yul\":15205:15209   */\n      dup2\n        /* \"#utility.yul\":15201:15221   */\n      sub\n        /* \"#utility.yul\":15197:15198   */\n      0x00\n        /* \"#utility.yul\":15186:15195   */\n      dup4\n        /* \"#utility.yul\":15182:15199   */\n      add\n        /* \"#utility.yul\":15175:15222   */\n      mstore\n        /* \"#utility.yul\":15239:15370   */\n      tag_538\n        /* \"#utility.yul\":15365:15369   */\n      dup2\n        /* \"#utility.yul\":15239:15370   */\n      tag_368\n      jump\t// in\n    tag_538:\n        /* \"#utility.yul\":15231:15370   */\n      swap1\n      pop\n        /* \"#utility.yul\":14958:15377   */\n      swap2\n      swap1\n      pop\n      jump\t// out\n        /* \"#utility.yul\":15383:15604   */\n    tag_369:\n        /* \"#utility.yul\":15523:15557   */\n      0x45524332303a20617070726f766520746f20746865207a65726f206164647265\n        /* \"#utility.yul\":15519:15520   */\n      0x00\n        /* \"#utility.yul\":15511:15517   */\n      dup3\n        /* \"#utility.yul\":15507:15521   */\n      add\n        /* \"#utility.yul\":15500:15558   */\n      mstore\n        /* \"#utility.yul\":15592:15596   */\n      0x7373000000000000000000000000000000000000000000000000000000000000\n        /* \"#utility.yul\":15587:15589   */\n      0x20\n        /* \"#utility.yul\":15579:15585   */\n      dup3\n        /* \"#utility.yul\":15575:15590   */\n      add\n        /* \"#utility.yul\":15568:15597   */\n      mstore\n        /* \"#utility.yul\":15383:15604   */\n      pop\n      jump\t// out\n        /* \"#utility.yul\":15610:15976   */\n    tag_370:\n        /* \"#utility.yul\":15752:15755   */\n      0x00\n        /* \"#utility.yul\":15773:15840   */\n      tag_541\n        /* \"#utility.yul\":15837:15839   */\n      0x22\n        /* \"#utility.yul\":15832:15835   */\n      dup4\n        /* \"#utility.yul\":15773:15840   */\n      tag_336\n      jump\t// in\n    tag_541:\n        /* \"#utility.yul\":15766:15840   */\n      swap2\n      pop\n        /* \"#utility.yul\":15849:15942   */\n      tag_542\n        /* \"#utility.yul\":15938:15941   */\n      dup3\n        /* \"#utility.yul\":15849:15942   */\n      tag_369\n      jump\t// in\n    tag_542:\n        /* \"#utility.yul\":15967:15969   */\n      0x40\n        /* \"#utility.yul\":15962:15965   */\n      dup3\n        /* \"#utility.yul\":15958:15970   */\n      add\n        /* \"#utility.yul\":15951:15970   */\n      swap1\n      pop\n        /* \"#utility.yul\":15610:15976   */\n      swap2\n      swap1\n      pop\n      jump\t// out\n        /* \"#utility.yul\":15982:16401   */\n    tag_232:\n        /* \"#utility.yul\":16148:16152   */\n      0x00\n        /* \"#utility.yul\":16186:16188   */\n      0x20\n        /* \"#utility.yul\":16175:16184   */\n      dup3\n        /* \"#utility.yul\":16171:16189   */\n      add\n        /* \"#utility.yul\":16163:16189   */\n      swap1\n      pop\n        /* \"#utility.yul\":16235:16244   */\n      dup2\n        /* \"#utility.yul\":16229:16233   */\n      dup2\n        /* \"#utility.yul\":16225:16245   */\n      sub\n        /* \"#utility.yul\":16221:16222   */\n      0x00\n        /* \"#utility.yul\":16210:16219   */\n      dup4\n        /* \"#utility.yul\":16206:16223   */\n      add\n        /* \"#utility.yul\":16199:16246   */\n      mstore\n        /* \"#utility.yul\":16263:16394   */\n      tag_544\n        /* \"#utility.yul\":16389:16393   */\n      dup2\n        /* \"#utility.yul\":16263:16394   */\n      tag_370\n      jump\t// in\n    tag_544:\n        /* \"#utility.yul\":16255:16394   */\n      swap1\n      pop\n        /* \"#utility.yul\":15982:16401   */\n      swap2\n      swap1\n      pop\n      jump\t// out\n        /* \"#utility.yul\":16407:16586   */\n    tag_371:\n        /* \"#utility.yul\":16547:16578   */\n      0x45524332303a20696e73756666696369656e7420616c6c6f77616e6365000000\n        /* \"#utility.yul\":16543:16544   */\n      0x00\n        /* \"#utility.yul\":16535:16541   */\n      dup3\n        /* \"#utility.yul\":16531:16545   */\n      add\n        /* \"#utility.yul\":16524:16579   */\n      mstore\n        /* \"#utility.yul\":16407:16586   */\n      pop\n      jump\t// out\n        /* \"#utility.yul\":16592:16958   */\n    tag_372:\n        /* \"#utility.yul\":16734:16737   */\n      0x00\n        /* \"#utility.yul\":16755:16822   */\n      tag_547\n        /* \"#utility.yul\":16819:16821   */\n      0x1d\n        /* \"#utility.yul\":16814:16817   */\n      dup4\n        /* \"#utility.yul\":16755:16822   */\n      tag_336\n      jump\t// in\n    tag_547:\n        /* \"#utility.yul\":16748:16822   */\n      swap2\n      pop\n        /* \"#utility.yul\":16831:16924   */\n      tag_548\n        /* \"#utility.yul\":16920:16923   */\n      dup3\n        /* \"#utility.yul\":16831:16924   */\n      tag_371\n      jump\t// in\n    tag_548:\n        /* \"#utility.yul\":16949:16951   */\n      0x20\n        /* \"#utility.yul\":16944:16947   */\n      dup3\n        /* \"#utility.yul\":16940:16952   */\n      add\n        /* \"#utility.yul\":16933:16952   */\n      swap1\n      pop\n        /* \"#utility.yul\":16592:16958   */\n      swap2\n      swap1\n      pop\n      jump\t// out\n        /* \"#utility.yul\":16964:17383   */\n    tag_239:\n        /* \"#utility.yul\":17130:17134   */\n      0x00\n        /* \"#utility.yul\":17168:17170   */\n      0x20\n        /* \"#utility.yul\":17157:17166   */\n      dup3\n        /* \"#utility.yul\":17153:17171   */\n      add\n        /* \"#utility.yul\":17145:17171   */\n      swap1\n      pop\n        /* \"#utility.yul\":17217:17226   */\n      dup2\n        /* \"#utility.yul\":17211:17215   */\n      dup2\n        /* \"#utility.yul\":17207:17227   */\n      sub\n        /* \"#utility.yul\":17203:17204   */\n      0x00\n        /* \"#utility.yul\":17192:17201   */\n      dup4\n        /* \"#utility.yul\":17188:17205   */\n      add\n        /* \"#utility.yul\":17181:17228   */\n      mstore\n        /* \"#utility.yul\":17245:17376   */\n      tag_550\n        /* \"#utility.yul\":17371:17375   */\n      dup2\n        /* \"#utility.yul\":17245:17376   */\n      tag_372\n      jump\t// in\n    tag_550:\n        /* \"#utility.yul\":17237:17376   */\n      swap1\n      pop\n        /* \"#utility.yul\":16964:17383   */\n      swap2\n      swap1\n      pop\n      jump\t// out\n        /* \"#utility.yul\":17389:17613   */\n    tag_373:\n        /* \"#utility.yul\":17529:17563   */\n      0x45524332303a207472616e736665722066726f6d20746865207a65726f206164\n        /* \"#utility.yul\":17525:17526   */\n      0x00\n        /* \"#utility.yul\":17517:17523   */\n      dup3\n        /* \"#utility.yul\":17513:17527   */\n      add\n        /* \"#utility.yul\":17506:17564   */\n      mstore\n        /* \"#utility.yul\":17598:17605   */\n      0x6472657373000000000000000000000000000000000000000000000000000000\n        /* \"#utility.yul\":17593:17595   */\n      0x20\n        /* \"#utility.yul\":17585:17591   */\n      dup3\n        /* \"#utility.yul\":17581:17596   */\n      add\n        /* \"#utility.yul\":17574:17606   */\n      mstore\n        /* \"#utility.yul\":17389:17613   */\n      pop\n      jump\t// out\n        /* \"#utility.yul\":17619:17985   */\n    tag_374:\n        /* \"#utility.yul\":17761:17764   */\n      0x00\n        /* \"#utility.yul\":17782:17849   */\n      tag_553\n        /* \"#utility.yul\":17846:17848   */\n      0x25\n        /* \"#utility.yul\":17841:17844   */\n      dup4\n        /* \"#utility.yul\":17782:17849   */\n      tag_336\n      jump\t// in\n    tag_553:\n        /* \"#utility.yul\":17775:17849   */\n      swap2\n      pop\n        /* \"#utility.yul\":17858:17951   */\n      tag_554\n        /* \"#utility.yul\":17947:17950   */\n      dup3\n        /* \"#utility.yul\":17858:17951   */\n      tag_373\n      jump\t// in\n    tag_554:\n        /* \"#utility.yul\":17976:17978   */\n      0x40\n        /* \"#utility.yul\":17971:17974   */\n      dup3\n        /* \"#utility.yul\":17967:17979   */\n      add\n        /* \"#utility.yul\":17960:17979   */\n      swap1\n      pop\n        /* \"#utility.yul\":17619:17985   */\n      swap2\n      swap1\n      pop\n      jump\t// out\n        /* \"#utility.yul\":17991:18410   */\n    tag_244:\n        /* \"#utility.yul\":18157:18161   */\n      0x00\n        /* \"#utility.yul\":18195:18197   */\n      0x20\n        /* \"#utility.yul\":18184:18193   */\n      dup3\n        /* \"#utility.yul\":18180:18198   */\n      add\n        /* \"#utility.yul\":18172:18198   */\n      swap1\n      pop\n        /* \"#utility.yul\":18244:18253   */\n      dup2\n        /* \"#utility.yul\":18238:18242   */\n      dup2\n        /* \"#utility.yul\":18234:18254   */\n      sub\n        /* \"#utility.yul\":18230:18231   */\n      0x00\n        /* \"#utility.yul\":18219:18228   */\n      dup4\n        /* \"#utility.yul\":18215:18232   */\n      add\n        /* \"#utility.yul\":18208:18255   */\n      mstore\n        /* \"#utility.yul\":18272:18403   */\n      tag_556\n        /* \"#utility.yul\":18398:18402   */\n      dup2\n        /* \"#utility.yul\":18272:18403   */\n      tag_374\n      jump\t// in\n    tag_556:\n        /* \"#utility.yul\":18264:18403   */\n      swap1\n      pop\n        /* \"#utility.yul\":17991:18410   */\n      swap2\n      swap1\n      pop\n      jump\t// out\n        /* \"#utility.yul\":18416:18638   */\n    tag_375:\n        /* \"#utility.yul\":18556:18590   */\n      0x45524332303a207472616e7366657220746f20746865207a65726f2061646472\n        /* \"#utility.yul\":18552:18553   */\n      0x00\n        /* \"#utility.yul\":18544:18550   */\n      dup3\n        /* \"#utility.yul\":18540:18554   */\n      add\n        /* \"#utility.yul\":18533:18591   */\n      mstore\n        /* \"#utility.yul\":18625:18630   */\n      0x6573730000000000000000000000000000000000000000000000000000000000\n        /* \"#utility.yul\":18620:18622   */\n      0x20\n        /* \"#utility.yul\":18612:18618   */\n      dup3\n        /* \"#utility.yul\":18608:18623   */\n      add\n        /* \"#utility.yul\":18601:18631   */\n      mstore\n        /* \"#utility.yul\":18416:18638   */\n      pop\n      jump\t// out\n        /* \"#utility.yul\":18644:19010   */\n    tag_376:\n        /* \"#utility.yul\":18786:18789   */\n      0x00\n        /* \"#utility.yul\":18807:18874   */\n      tag_559\n        /* \"#utility.yul\":18871:18873   */\n      0x23\n        /* \"#utility.yul\":18866:18869   */\n      dup4\n        /* \"#utility.yul\":18807:18874   */\n      tag_336\n      jump\t// in\n    tag_559:\n        /* \"#utility.yul\":18800:18874   */\n      swap2\n      pop\n        /* \"#utility.yul\":18883:18976   */\n      tag_560\n        /* \"#utility.yul\":18972:18975   */\n      dup3\n        /* \"#utility.yul\":18883:18976   */\n      tag_375\n      jump\t// in\n    tag_560:\n        /* \"#utility.yul\":19001:19003   */\n      0x40\n        /* \"#utility.yul\":18996:18999   */\n      dup3\n        /* \"#utility.yul\":18992:19004   */\n      add\n        /* \"#utility.yul\":18985:19004   */\n      swap1\n      pop\n        /* \"#utility.yul\":18644:19010   */\n      swap2\n      swap1\n      pop\n      jump\t// out\n        /* \"#utility.yul\":19016:19435   */\n    tag_247:\n        /* \"#utility.yul\":19182:19186   */\n      0x00\n        /* \"#utility.yul\":19220:19222   */\n      0x20\n        /* \"#utility.yul\":19209:19218   */\n      dup3\n        /* \"#utility.yul\":19205:19223   */\n      add\n        /* \"#utility.yul\":19197:19223   */\n      swap1\n      pop\n        /* \"#utility.yul\":19269:19278   */\n      dup2\n        /* \"#utility.yul\":19263:19267   */\n      dup2\n        /* \"#utility.yul\":19259:19279   */\n      sub\n        /* \"#utility.yul\":19255:19256   */\n      0x00\n        /* \"#utility.yul\":19244:19253   */\n      dup4\n        /* \"#utility.yul\":19240:19257   */\n      add\n        /* \"#utility.yul\":19233:19280   */\n      mstore\n        /* \"#utility.yul\":19297:19428   */\n      tag_562\n        /* \"#utility.yul\":19423:19427   */\n      dup2\n        /* \"#utility.yul\":19297:19428   */\n      tag_376\n      jump\t// in\n    tag_562:\n        /* \"#utility.yul\":19289:19428   */\n      swap1\n      pop\n        /* \"#utility.yul\":19016:19435   */\n      swap2\n      swap1\n      pop\n      jump\t// out\n        /* \"#utility.yul\":19441:19666   */\n    tag_377:\n        /* \"#utility.yul\":19581:19615   */\n      0x45524332303a207472616e7366657220616d6f756e7420657863656564732062\n        /* \"#utility.yul\":19577:19578   */\n      0x00\n        /* \"#utility.yul\":19569:19575   */\n      dup3\n        /* \"#utility.yul\":19565:19579   */\n      add\n        /* \"#utility.yul\":19558:19616   */\n      mstore\n        /* \"#utility.yul\":19650:19658   */\n      0x616c616e63650000000000000000000000000000000000000000000000000000\n        /* \"#utility.yul\":19645:19647   */\n      0x20\n        /* \"#utility.yul\":19637:19643   */\n      dup3\n        /* \"#utility.yul\":19633:19648   */\n      add\n        /* \"#utility.yul\":19626:19659   */\n      mstore\n        /* \"#utility.yul\":19441:19666   */\n      pop\n      jump\t// out\n        /* \"#utility.yul\":19672:20038   */\n    tag_378:\n        /* \"#utility.yul\":19814:19817   */\n      0x00\n        /* \"#utility.yul\":19835:19902   */\n      tag_565\n        /* \"#utility.yul\":19899:19901   */\n      0x26\n        /* \"#utility.yul\":19894:19897   */\n      dup4\n        /* \"#utility.yul\":19835:19902   */\n      tag_336\n      jump\t// in\n    tag_565:\n        /* \"#utility.yul\":19828:19902   */\n      swap2\n      pop\n        /* \"#utility.yul\":19911:20004   */\n      tag_566\n        /* \"#utility.yul\":20000:20003   */\n      dup3\n        /* \"#utility.yul\":19911:20004   */\n      tag_377\n      jump\t// in\n    tag_566:\n        /* \"#utility.yul\":20029:20031   */\n      0x40\n        /* \"#utility.yul\":20024:20027   */\n      dup3\n        /* \"#utility.yul\":20020:20032   */\n      add\n        /* \"#utility.yul\":20013:20032   */\n      swap1\n      pop\n        /* \"#utility.yul\":19672:20038   */\n      swap2\n      swap1\n      pop\n      jump\t// out\n        /* \"#utility.yul\":20044:20463   */\n    tag_252:\n        /* \"#utility.yul\":20210:20214   */\n      0x00\n        /* \"#utility.yul\":20248:20250   */\n      0x20\n        /* \"#utility.yul\":20237:20246   */\n      dup3\n        /* \"#utility.yul\":20233:20251   */\n      add\n        /* \"#utility.yul\":20225:20251   */\n      swap1\n      pop\n        /* \"#utility.yul\":20297:20306   */\n      dup2\n        /* \"#utility.yul\":20291:20295   */\n      dup2\n        /* \"#utility.yul\":20287:20307   */\n      sub\n        /* \"#utility.yul\":20283:20284   */\n      0x00\n        /* \"#utility.yul\":20272:20281   */\n      dup4\n        /* \"#utility.yul\":20268:20285   */\n      add\n        /* \"#utility.yul\":20261:20308   */\n      mstore\n        /* \"#utility.yul\":20325:20456   */\n      tag_568\n        /* \"#utility.yul\":20451:20455   */\n      dup2\n        /* \"#utility.yul\":20325:20456   */\n      tag_378\n      jump\t// in\n    tag_568:\n        /* \"#utility.yul\":20317:20456   */\n      swap1\n      pop\n        /* \"#utility.yul\":20044:20463   */\n      swap2\n      swap1\n      pop\n      jump\t// out\n        /* \"#utility.yul\":20469:20650   */\n    tag_379:\n        /* \"#utility.yul\":20609:20642   */\n      0x45524332303a206d696e7420746f20746865207a65726f206164647265737300\n        /* \"#utility.yul\":20605:20606   */\n      0x00\n        /* \"#utility.yul\":20597:20603   */\n      dup3\n        /* \"#utility.yul\":20593:20607   */\n      add\n        /* \"#utility.yul\":20586:20643   */\n      mstore\n        /* \"#utility.yul\":20469:20650   */\n      pop\n      jump\t// out\n        /* \"#utility.yul\":20656:21022   */\n    tag_380:\n        /* \"#utility.yul\":20798:20801   */\n      0x00\n        /* \"#utility.yul\":20819:20886   */\n      tag_571\n        /* \"#utility.yul\":20883:20885   */\n      0x1f\n        /* \"#utility.yul\":20878:20881   */\n      dup4\n        /* \"#utility.yul\":20819:20886   */\n      tag_336\n      jump\t// in\n    tag_571:\n        /* \"#utility.yul\":20812:20886   */\n      swap2\n      pop\n        /* \"#utility.yul\":20895:20988   */\n      tag_572\n        /* \"#utility.yul\":20984:20987   */\n      dup3\n        /* \"#utility.yul\":20895:20988   */\n      tag_379\n      jump\t// in\n    tag_572:\n        /* \"#utility.yul\":21013:21015   */\n      0x20\n        /* \"#utility.yul\":21008:21011   */\n      dup3\n        /* \"#utility.yul\":21004:21016   */\n      add\n        /* \"#utility.yul\":20997:21016   */\n      swap1\n      pop\n        /* \"#utility.yul\":20656:21022   */\n      swap2\n      swap1\n      pop\n      jump\t// out\n        /* \"#utility.yul\":21028:21447   */\n    tag_271:\n        /* \"#utility.yul\":21194:21198   */\n      0x00\n        /* \"#utility.yul\":21232:21234   */\n      0x20\n        /* \"#utility.yul\":21221:21230   */\n      dup3\n        /* \"#utility.yul\":21217:21235   */\n      add\n        /* \"#utility.yul\":21209:21235   */\n      swap1\n      pop\n        /* \"#utility.yul\":21281:21290   */\n      dup2\n        /* \"#utility.yul\":21275:21279   */\n      dup2\n        /* \"#utility.yul\":21271:21291   */\n      sub\n        /* \"#utility.yul\":21267:21268   */\n      0x00\n        /* \"#utility.yul\":21256:21265   */\n      dup4\n        /* \"#utility.yul\":21252:21269   */\n      add\n        /* \"#utility.yul\":21245:21292   */\n      mstore\n        /* \"#utility.yul\":21309:21440   */\n      tag_574\n        /* \"#utility.yul\":21435:21439   */\n      dup2\n        /* \"#utility.yul\":21309:21440   */\n      tag_380\n      jump\t// in\n    tag_574:\n        /* \"#utility.yul\":21301:21440   */\n      swap1\n      pop\n        /* \"#utility.yul\":21028:21447   */\n      swap2\n      swap1\n      pop\n      jump\t// out\n        /* \"#utility.yul\":21453:21673   */\n    tag_381:\n        /* \"#utility.yul\":21593:21627   */\n      0x45524332303a206275726e2066726f6d20746865207a65726f20616464726573\n        /* \"#utility.yul\":21589:21590   */\n      0x00\n        /* \"#utility.yul\":21581:21587   */\n      dup3\n        /* \"#utility.yul\":21577:21591   */\n      add\n        /* \"#utility.yul\":21570:21628   */\n      mstore\n        /* \"#utility.yul\":21662:21665   */\n      0x7300000000000000000000000000000000000000000000000000000000000000\n        /* \"#utility.yul\":21657:21659   */\n      0x20\n        /* \"#utility.yul\":21649:21655   */\n      dup3\n        /* \"#utility.yul\":21645:21660   */\n      add\n        /* \"#utility.yul\":21638:21666   */\n      mstore\n        /* \"#utility.yul\":21453:21673   */\n      pop\n      jump\t// out\n        /* \"#utility.yul\":21679:22045   */\n    tag_382:\n        /* \"#utility.yul\":21821:21824   */\n      0x00\n        /* \"#utility.yul\":21842:21909   */\n      tag_577\n        /* \"#utility.yul\":21906:21908   */\n      0x21\n        /* \"#utility.yul\":21901:21904   */\n      dup4\n        /* \"#utility.yul\":21842:21909   */\n      tag_336\n      jump\t// in\n    tag_577:\n        /* \"#utility.yul\":21835:21909   */\n      swap2\n      pop\n        /* \"#utility.yul\":21918:22011   */\n      tag_578\n        /* \"#utility.yul\":22007:22010   */\n      dup3\n        /* \"#utility.yul\":21918:22011   */\n      tag_381\n      jump\t// in\n    tag_578:\n        /* \"#utility.yul\":22036:22038   */\n      0x40\n        /* \"#utility.yul\":22031:22034   */\n      dup3\n        /* \"#utility.yul\":22027:22039   */\n      add\n        /* \"#utility.yul\":22020:22039   */\n      swap1\n      pop\n        /* \"#utility.yul\":21679:22045   */\n      swap2\n      swap1\n      pop\n      jump\t// out\n        /* \"#utility.yul\":22051:22470   */\n    tag_279:\n        /* \"#utility.yul\":22217:22221   */\n      0x00\n        /* \"#utility.yul\":22255:22257   */\n      0x20\n        /* \"#utility.yul\":22244:22253   */\n      dup3\n        /* \"#utility.yul\":22240:22258   */\n      add\n        /* \"#utility.yul\":22232:22258   */\n      swap1\n      pop\n        /* \"#utility.yul\":22304:22313   */\n      dup2\n        /* \"#utility.yul\":22298:22302   */\n      dup2\n        /* \"#utility.yul\":22294:22314   */\n      sub\n        /* \"#utility.yul\":22290:22291   */\n      0x00\n        /* \"#utility.yul\":22279:22288   */\n      dup4\n        /* \"#utility.yul\":22275:22292   */\n      add\n        /* \"#utility.yul\":22268:22315   */\n      mstore\n        /* \"#utility.yul\":22332:22463   */\n      tag_580\n        /* \"#utility.yul\":22458:22462   */\n      dup2\n        /* \"#utility.yul\":22332:22463   */\n      tag_382\n      jump\t// in\n    tag_580:\n        /* \"#utility.yul\":22324:22463   */\n      swap1\n      pop\n        /* \"#utility.yul\":22051:22470   */\n      swap2\n      swap1\n      pop\n      jump\t// out\n        /* \"#utility.yul\":22476:22697   */\n    tag_383:\n        /* \"#utility.yul\":22616:22650   */\n      0x45524332303a206275726e20616d6f756e7420657863656564732062616c616e\n        /* \"#utility.yul\":22612:22613   */\n      0x00\n        /* \"#utility.yul\":22604:22610   */\n      dup3\n        /* \"#utility.yul\":22600:22614   */\n      add\n        /* \"#utility.yul\":22593:22651   */\n      mstore\n        /* \"#utility.yul\":22685:22689   */\n      0x6365000000000000000000000000000000000000000000000000000000000000\n        /* \"#utility.yul\":22680:22682   */\n      0x20\n        /* \"#utility.yul\":22672:22678   */\n      dup3\n        /* \"#utility.yul\":22668:22683   */\n      add\n        /* \"#utility.yul\":22661:22690   */\n      mstore\n        /* \"#utility.yul\":22476:22697   */\n      pop\n      jump\t// out\n        /* \"#utility.yul\":22703:23069   */\n    tag_384:\n        /* \"#utility.yul\":22845:22848   */\n      0x00\n        /* \"#utility.yul\":22866:22933   */\n      tag_583\n        /* \"#utility.yul\":22930:22932   */\n      0x22\n        /* \"#utility.yul\":22925:22928   */\n      dup4\n        /* \"#utility.yul\":22866:22933   */\n      tag_336\n      jump\t// in\n    tag_583:\n        /* \"#utility.yul\":22859:22933   */\n      swap2\n      pop\n        /* \"#utility.yul\":22942:23035   */\n      tag_584\n        /* \"#utility.yul\":23031:23034   */\n      dup3\n        /* \"#utility.yul\":22942:23035   */\n      tag_383\n      jump\t// in\n    tag_584:\n        /* \"#utility.yul\":23060:23062   */\n      0x40\n        /* \"#utility.yul\":23055:23058   */\n      dup3\n        /* \"#utility.yul\":23051:23063   */\n      add\n        /* \"#utility.yul\":23044:23063   */\n      swap1\n      pop\n        /* \"#utility.yul\":22703:23069   */\n      swap2\n      swap1\n      pop\n      jump\t// out\n        /* \"#utility.yul\":23075:23494   */\n    tag_283:\n        /* \"#utility.yul\":23241:23245   */\n      0x00\n        /* \"#utility.yul\":23279:23281   */\n      0x20\n        /* \"#utility.yul\":23268:23277   */\n      dup3\n        /* \"#utility.yul\":23264:23282   */\n      add\n        /* \"#utility.yul\":23256:23282   */\n      swap1\n      pop\n        /* \"#utility.yul\":23328:23337   */\n      dup2\n        /* \"#utility.yul\":23322:23326   */\n      dup2\n        /* \"#utility.yul\":23318:23338   */\n      sub\n        /* \"#utility.yul\":23314:23315   */\n      0x00\n        /* \"#utility.yul\":23303:23312   */\n      dup4\n        /* \"#utility.yul\":23299:23316   */\n      add\n        /* \"#utility.yul\":23292:23339   */\n      mstore\n        /* \"#utility.yul\":23356:23487   */\n      tag_586\n        /* \"#utility.yul\":23482:23486   */\n      dup2\n        /* \"#utility.yul\":23356:23487   */\n      tag_384\n      jump\t// in\n    tag_586:\n        /* \"#utility.yul\":23348:23487   */\n      swap1\n      pop\n        /* \"#utility.yul\":23075:23494   */\n      swap2\n      swap1\n      pop\n      jump\t// out\n        /* \"#utility.yul\":23500:23673   */\n    tag_385:\n        /* \"#utility.yul\":23640:23665   */\n      0x416363657373436f6e74726f6c3a206163636f756e7420000000000000000000\n        /* \"#utility.yul\":23636:23637   */\n      0x00\n        /* \"#utility.yul\":23628:23634   */\n      dup3\n        /* \"#utility.yul\":23624:23638   */\n      add\n        /* \"#utility.yul\":23617:23666   */\n      mstore\n        /* \"#utility.yul\":23500:23673   */\n      pop\n      jump\t// out\n        /* \"#utility.yul\":23679:24081   */\n    tag_386:\n        /* \"#utility.yul\":23839:23842   */\n      0x00\n        /* \"#utility.yul\":23860:23945   */\n      tag_589\n        /* \"#utility.yul\":23942:23944   */\n      0x17\n        /* \"#utility.yul\":23937:23940   */\n      dup4\n        /* \"#utility.yul\":23860:23945   */\n      tag_358\n      jump\t// in\n    tag_589:\n        /* \"#utility.yul\":23853:23945   */\n      swap2\n      pop\n        /* \"#utility.yul\":23954:24047   */\n      tag_590\n        /* \"#utility.yul\":24043:24046   */\n      dup3\n        /* \"#utility.yul\":23954:24047   */\n      tag_385\n      jump\t// in\n    tag_590:\n        /* \"#utility.yul\":24072:24074   */\n      0x17\n        /* \"#utility.yul\":24067:24070   */\n      dup3\n        /* \"#utility.yul\":24063:24075   */\n      add\n        /* \"#utility.yul\":24056:24075   */\n      swap1\n      pop\n        /* \"#utility.yul\":23679:24081   */\n      swap2\n      swap1\n      pop\n      jump\t// out\n        /* \"#utility.yul\":24087:24477   */\n    tag_387:\n        /* \"#utility.yul\":24193:24196   */\n      0x00\n        /* \"#utility.yul\":24221:24260   */\n      tag_592\n        /* \"#utility.yul\":24254:24259   */\n      dup3\n        /* \"#utility.yul\":24221:24260   */\n      tag_335\n      jump\t// in\n    tag_592:\n        /* \"#utility.yul\":24276:24365   */\n      tag_593\n        /* \"#utility.yul\":24358:24364   */\n      dup2\n        /* \"#utility.yul\":24353:24356   */\n      dup6\n        /* \"#utility.yul\":24276:24365   */\n      tag_358\n      jump\t// in\n    tag_593:\n        /* \"#utility.yul\":24269:24365   */\n      swap4\n      pop\n        /* \"#utility.yul\":24374:24439   */\n      tag_594\n        /* \"#utility.yul\":24432:24438   */\n      dup2\n        /* \"#utility.yul\":24427:24430   */\n      dup6\n        /* \"#utility.yul\":24420:24424   */\n      0x20\n        /* \"#utility.yul\":24413:24418   */\n      dup7\n        /* \"#utility.yul\":24409:24425   */\n      add\n        /* \"#utility.yul\":24374:24439   */\n      tag_337\n      jump\t// in\n    tag_594:\n        /* \"#utility.yul\":24464:24470   */\n      dup1\n        /* \"#utility.yul\":24459:24462   */\n      dup5\n        /* \"#utility.yul\":24455:24471   */\n      add\n        /* \"#utility.yul\":24448:24471   */\n      swap2\n      pop\n        /* \"#utility.yul\":24197:24477   */\n      pop\n        /* \"#utility.yul\":24087:24477   */\n      swap3\n      swap2\n      pop\n      pop\n      jump\t// out\n        /* \"#utility.yul\":24483:24650   */\n    tag_388:\n        /* \"#utility.yul\":24623:24642   */\n      0x206973206d697373696e6720726f6c6520000000000000000000000000000000\n        /* \"#utility.yul\":24619:24620   */\n      0x00\n        /* \"#utility.yul\":24611:24617   */\n      dup3\n        /* \"#utility.yul\":24607:24621   */\n      add\n        /* \"#utility.yul\":24600:24643   */\n      mstore\n        /* \"#utility.yul\":24483:24650   */\n      pop\n      jump\t// out\n        /* \"#utility.yul\":24656:25058   */\n    tag_389:\n        /* \"#utility.yul\":24816:24819   */\n      0x00\n        /* \"#utility.yul\":24837:24922   */\n      tag_597\n        /* \"#utility.yul\":24919:24921   */\n      0x11\n        /* \"#utility.yul\":24914:24917   */\n      dup4\n        /* \"#utility.yul\":24837:24922   */\n      tag_358\n      jump\t// in\n    tag_597:\n        /* \"#utility.yul\":24830:24922   */\n      swap2\n      pop\n        /* \"#utility.yul\":24931:25024   */\n      tag_598\n        /* \"#utility.yul\":25020:25023   */\n      dup3\n        /* \"#utility.yul\":24931:25024   */\n      tag_388\n      jump\t// in\n    tag_598:\n        /* \"#utility.yul\":25049:25051   */\n      0x11\n        /* \"#utility.yul\":25044:25047   */\n      dup3\n        /* \"#utility.yul\":25040:25052   */\n      add\n        /* \"#utility.yul\":25033:25052   */\n      swap1\n      pop\n        /* \"#utility.yul\":24656:25058   */\n      swap2\n      swap1\n      pop\n      jump\t// out\n        /* \"#utility.yul\":25064:26031   */\n    tag_296:\n        /* \"#utility.yul\":25446:25449   */\n      0x00\n        /* \"#utility.yul\":25468:25616   */\n      tag_600\n        /* \"#utility.yul\":25612:25615   */\n      dup3\n        /* \"#utility.yul\":25468:25616   */\n      tag_386\n      jump\t// in\n    tag_600:\n        /* \"#utility.yul\":25461:25616   */\n      swap2\n      pop\n        /* \"#utility.yul\":25633:25728   */\n      tag_601\n        /* \"#utility.yul\":25724:25727   */\n      dup3\n        /* \"#utility.yul\":25715:25721   */\n      dup6\n        /* \"#utility.yul\":25633:25728   */\n      tag_387\n      jump\t// in\n    tag_601:\n        /* \"#utility.yul\":25626:25728   */\n      swap2\n      pop\n        /* \"#utility.yul\":25745:25893   */\n      tag_602\n        /* \"#utility.yul\":25889:25892   */\n      dup3\n        /* \"#utility.yul\":25745:25893   */\n      tag_389\n      jump\t// in\n    tag_602:\n        /* \"#utility.yul\":25738:25893   */\n      swap2\n      pop\n        /* \"#utility.yul\":25910:26005   */\n      tag_603\n        /* \"#utility.yul\":26001:26004   */\n      dup3\n        /* \"#utility.yul\":25992:25998   */\n      dup5\n        /* \"#utility.yul\":25910:26005   */\n      tag_387\n      jump\t// in\n    tag_603:\n        /* \"#utility.yul\":25903:26005   */\n      swap2\n      pop\n        /* \"#utility.yul\":26022:26025   */\n      dup2\n        /* \"#utility.yul\":26015:26025   */\n      swap1\n      pop\n        /* \"#utility.yul\":25064:26031   */\n      swap4\n      swap3\n      pop\n      pop\n      pop\n      jump\t// out\n        /* \"#utility.yul\":26037:26447   */\n    tag_302:\n        /* \"#utility.yul\":26077:26084   */\n      0x00\n        /* \"#utility.yul\":26100:26120   */\n      tag_605\n        /* \"#utility.yul\":26118:26119   */\n      dup3\n        /* \"#utility.yul\":26100:26120   */\n      tag_344\n      jump\t// in\n    tag_605:\n        /* \"#utility.yul\":26095:26120   */\n      swap2\n      pop\n        /* \"#utility.yul\":26134:26154   */\n      tag_606\n        /* \"#utility.yul\":26152:26153   */\n      dup4\n        /* \"#utility.yul\":26134:26154   */\n      tag_344\n      jump\t// in\n    tag_606:\n        /* \"#utility.yul\":26129:26154   */\n      swap3\n      pop\n        /* \"#utility.yul\":26189:26190   */\n      dup3\n        /* \"#utility.yul\":26186:26187   */\n      dup3\n        /* \"#utility.yul\":26182:26191   */\n      mul\n        /* \"#utility.yul\":26211:26241   */\n      tag_607\n        /* \"#utility.yul\":26229:26240   */\n      dup2\n        /* \"#utility.yul\":26211:26241   */\n      tag_344\n      jump\t// in\n    tag_607:\n        /* \"#utility.yul\":26200:26241   */\n      swap2\n      pop\n        /* \"#utility.yul\":26390:26391   */\n      dup3\n        /* \"#utility.yul\":26381:26388   */\n      dup3\n        /* \"#utility.yul\":26377:26392   */\n      div\n        /* \"#utility.yul\":26374:26375   */\n      dup5\n        /* \"#utility.yul\":26371:26393   */\n      eq\n        /* \"#utility.yul\":26351:26352   */\n      dup4\n        /* \"#utility.yul\":26344:26353   */\n      iszero\n        /* \"#utility.yul\":26324:26407   */\n      or\n        /* \"#utility.yul\":26301:26440   */\n      tag_608\n      jumpi\n        /* \"#utility.yul\":26420:26438   */\n      tag_609\n      tag_357\n      jump\t// in\n    tag_609:\n        /* \"#utility.yul\":26301:26440   */\n    tag_608:\n        /* \"#utility.yul\":26085:26447   */\n      pop\n        /* \"#utility.yul\":26037:26447   */\n      swap3\n      swap2\n      pop\n      pop\n      jump\t// out\n        /* \"#utility.yul\":26453:26633   */\n    tag_306:\n        /* \"#utility.yul\":26501:26578   */\n      0x4e487b7100000000000000000000000000000000000000000000000000000000\n        /* \"#utility.yul\":26498:26499   */\n      0x00\n        /* \"#utility.yul\":26491:26579   */\n      mstore\n        /* \"#utility.yul\":26598:26602   */\n      0x41\n        /* \"#utility.yul\":26595:26596   */\n      0x04\n        /* \"#utility.yul\":26588:26603   */\n      mstore\n        /* \"#utility.yul\":26622:26626   */\n      0x24\n        /* \"#utility.yul\":26619:26620   */\n      0x00\n        /* \"#utility.yul\":26612:26627   */\n      revert\n        /* \"#utility.yul\":26639:26819   */\n    tag_310:\n        /* \"#utility.yul\":26687:26764   */\n      0x4e487b7100000000000000000000000000000000000000000000000000000000\n        /* \"#utility.yul\":26684:26685   */\n      0x00\n        /* \"#utility.yul\":26677:26765   */\n      mstore\n        /* \"#utility.yul\":26784:26788   */\n      0x32\n        /* \"#utility.yul\":26781:26782   */\n      0x04\n        /* \"#utility.yul\":26774:26789   */\n      mstore\n        /* \"#utility.yul\":26808:26812   */\n      0x24\n        /* \"#utility.yul\":26805:26806   */\n      0x00\n        /* \"#utility.yul\":26798:26813   */\n      revert\n        /* \"#utility.yul\":26825:26996   */\n    tag_323:\n        /* \"#utility.yul\":26864:26867   */\n      0x00\n        /* \"#utility.yul\":26887:26911   */\n      tag_613\n        /* \"#utility.yul\":26905:26910   */\n      dup3\n        /* \"#utility.yul\":26887:26911   */\n      tag_344\n      jump\t// in\n    tag_613:\n        /* \"#utility.yul\":26878:26911   */\n      swap2\n      pop\n        /* \"#utility.yul\":26933:26937   */\n      0x00\n        /* \"#utility.yul\":26926:26931   */\n      dup3\n        /* \"#utility.yul\":26923:26938   */\n      sub\n        /* \"#utility.yul\":26920:26961   */\n      tag_614\n      jumpi\n        /* \"#utility.yul\":26941:26959   */\n      tag_615\n      tag_357\n      jump\t// in\n    tag_615:\n        /* \"#utility.yul\":26920:26961   */\n    tag_614:\n        /* \"#utility.yul\":26988:26989   */\n      0x01\n        /* \"#utility.yul\":26981:26986   */\n      dup3\n        /* \"#utility.yul\":26977:26990   */\n      sub\n        /* \"#utility.yul\":26970:26990   */\n      swap1\n      pop\n        /* \"#utility.yul\":26825:26996   */\n      swap2\n      swap1\n      pop\n      jump\t// out\n        /* \"#utility.yul\":27002:27184   */\n    tag_390:\n        /* \"#utility.yul\":27142:27176   */\n      0x537472696e67733a20686578206c656e67746820696e73756666696369656e74\n        /* \"#utility.yul\":27138:27139   */\n      0x00\n        /* \"#utility.yul\":27130:27136   */\n      dup3\n        /* \"#utility.yul\":27126:27140   */\n      add\n        /* \"#utility.yul\":27119:27177   */\n      mstore\n        /* \"#utility.yul\":27002:27184   */\n      pop\n      jump\t// out\n        /* \"#utility.yul\":27190:27556   */\n    tag_391:\n        /* \"#utility.yul\":27332:27335   */\n      0x00\n        /* \"#utility.yul\":27353:27420   */\n      tag_618\n        /* \"#utility.yul\":27417:27419   */\n      0x20\n        /* \"#utility.yul\":27412:27415   */\n      dup4\n        /* \"#utility.yul\":27353:27420   */\n      tag_336\n      jump\t// in\n    tag_618:\n        /* \"#utility.yul\":27346:27420   */\n      swap2\n      pop\n        /* \"#utility.yul\":27429:27522   */\n      tag_619\n        /* \"#utility.yul\":27518:27521   */\n      dup3\n        /* \"#utility.yul\":27429:27522   */\n      tag_390\n      jump\t// in\n    tag_619:\n        /* \"#utility.yul\":27547:27549   */\n      0x20\n        /* \"#utility.yul\":27542:27545   */\n      dup3\n        /* \"#utility.yul\":27538:27550   */\n      add\n        /* \"#utility.yul\":27531:27550   */\n      swap1\n      pop\n        /* \"#utility.yul\":27190:27556   */\n      swap2\n      swap1\n      pop\n      jump\t// out\n        /* \"#utility.yul\":27562:27981   */\n    tag_326:\n        /* \"#utility.yul\":27728:27732   */\n      0x00\n        /* \"#utility.yul\":27766:27768   */\n      0x20\n        /* \"#utility.yul\":27755:27764   */\n      dup3\n        /* \"#utility.yul\":27751:27769   */\n      add\n        /* \"#utility.yul\":27743:27769   */\n      swap1\n      pop\n        /* \"#utility.yul\":27815:27824   */\n      dup2\n        /* \"#utility.yul\":27809:27813   */\n      dup2\n        /* \"#utility.yul\":27805:27825   */\n      sub\n        /* \"#utility.yul\":27801:27802   */\n      0x00\n        /* \"#utility.yul\":27790:27799   */\n      dup4\n        /* \"#utility.yul\":27786:27803   */\n      add\n        /* \"#utility.yul\":27779:27826   */\n      mstore\n        /* \"#utility.yul\":27843:27974   */\n      tag_621\n        /* \"#utility.yul\":27969:27973   */\n      dup2\n        /* \"#utility.yul\":27843:27974   */\n      tag_391\n      jump\t// in\n    tag_621:\n        /* \"#utility.yul\":27835:27974   */\n      swap1\n      pop\n        /* \"#utility.yul\":27562:27981   */\n      swap2\n      swap1\n      pop\n      jump\t// out\n\n    auxdata: 0xa264697066735822122011068d1ed7f5b23ba1f99d8b51734bacba6f9549099ece930c71cab721c11f5464736f6c63430008130033\n}\n",
				"bytecode": {
					"linkReferences": {},
					"object": "60a06040523480156200001157600080fd5b5060405180606001604052806025815260200162002cad602591396040518060400160405280600581526020017f7348594454000000000000000000000000000000000000000000000000000000815250816004908162000073919062000353565b50806005908162000085919062000353565b50505062000098620000d160201b60201c565b73ffffffffffffffffffffffffffffffffffffffff1660808173ffffffffffffffffffffffffffffffffffffffff16815250506200043a565b600033905090565b600081519050919050565b7f4e487b7100000000000000000000000000000000000000000000000000000000600052604160045260246000fd5b7f4e487b7100000000000000000000000000000000000000000000000000000000600052602260045260246000fd5b600060028204905060018216806200015b57607f821691505b60208210810362000171576200017062000113565b5b50919050565b60008190508160005260206000209050919050565b60006020601f8301049050919050565b600082821b905092915050565b600060088302620001db7fffffffffffffffffffffffffffffffffffffffffffffffffffffffffffffffff826200019c565b620001e786836200019c565b95508019841693508086168417925050509392505050565b6000819050919050565b6000819050919050565b6000620002346200022e6200022884620001ff565b62000209565b620001ff565b9050919050565b6000819050919050565b620002508362000213565b620002686200025f826200023b565b848454620001a9565b825550505050565b600090565b6200027f62000270565b6200028c81848462000245565b505050565b5b81811015620002b457620002a860008262000275565b60018101905062000292565b5050565b601f8211156200030357620002cd8162000177565b620002d8846200018c565b81016020851015620002e8578190505b62000300620002f7856200018c565b83018262000291565b50505b505050565b600082821c905092915050565b6000620003286000198460080262000308565b1980831691505092915050565b600062000343838362000315565b9150826002028217905092915050565b6200035e82620000d9565b67ffffffffffffffff8111156200037a5762000379620000e4565b5b62000386825462000142565b62000393828285620002b8565b600060209050601f831160018114620003cb5760008415620003b6578287015190505b620003c2858262000335565b86555062000432565b601f198416620003db8662000177565b60005b828110156200040557848901518255600182019150602085019450602081019050620003de565b8683101562000425578489015162000421601f89168262000315565b8355505b6001600288020188555050505b505050505050565b608051612857620004566000396000610a2401526128576000f3fe608060405234801561001057600080fd5b506004361061014d5760003560e01c806342966c68116100c3578063a217fddf1161007c578063a217fddf14610400578063a457c2d71461041e578063a9059cbb1461044e578063c4d66de81461047e578063d547741f1461049a578063dd62ed3e146104b65761014d565b806342966c681461030457806370a0823114610334578063774237fc1461036457806379cc67901461038257806391d14854146103b257806395d89b41146103e25761014d565b8063248a9ca311610115578063248a9ca31461021e5780632f2ff15d1461024e578063313ce5671461026a57806336568abe1461028857806339509351146102a457806340c10f19146102d45761014d565b806301ffc9a71461015257806306fdde0314610182578063095ea7b3146101a057806318160ddd146101d057806323b872dd146101ee575b600080fd5b61016c600480360381019061016791906119be565b6104e6565b6040516101799190611a06565b60405180910390f35b61018a610560565b6040516101979190611ab1565b60405180910390f35b6101ba60048036038101906101b59190611b67565b6105f2565b6040516101c79190611a06565b60405180910390f35b6101d8610615565b6040516101e59190611bb6565b60405180910390f35b61020860048036038101906102039190611bd1565b61061f565b6040516102159190611a06565b60405180910390f35b61023860048036038101906102339190611c5a565b61064e565b6040516102459190611c96565b60405180910390f35b61026860048036038101906102639190611cb1565b61066d565b005b61027261068e565b60405161027f9190611d0d565b60405180910390f35b6102a2600480360381019061029d9190611cb1565b610697565b005b6102be60048036038101906102b99190611b67565b61071a565b6040516102cb9190611a06565b60405180910390f35b6102ee60048036038101906102e99190611b67565b610751565b6040516102fb9190611a06565b60405180910390f35b61031e60048036038101906103199190611d28565b610796565b60405161032b9190611a06565b60405180910390f35b61034e60048036038101906103499190611d55565b6107b7565b60405161035b9190611bb6565b60405180910390f35b61036c610800565b6040516103799190611c96565b60405180910390f35b61039c60048036038101906103979190611b67565b610828565b6040516103a99190611a06565b60405180910390f35b6103cc60048036038101906103c79190611cb1565b610885565b6040516103d99190611a06565b60405180910390f35b6103ea6108ef565b6040516103f79190611ab1565b60405180910390f35b610408610981565b6040516104159190611c96565b60405180910390f35b61043860048036038101906104339190611b67565b610988565b6040516104459190611a06565b60405180910390f35b61046860048036038101906104639190611b67565b6109ff565b6040516104759190611a06565b60405180910390f35b61049860048036038101906104939190611d55565b610a22565b005b6104b460048036038101906104af9190611cb1565b610b86565b005b6104d060048036038101906104cb9190611d82565b610ba7565b6040516104dd9190611bb6565b60405180910390f35b60007f7965db0b000000000000000000000000000000000000000000000000000000007bffffffffffffffffffffffffffffffffffffffffffffffffffffffff1916827bffffffffffffffffffffffffffffffffffffffffffffffffffffffff19161480610559575061055882610c2e565b5b9050919050565b60606004805461056f90611df1565b80601f016020809104026020016040519081016040528092919081815260200182805461059b90611df1565b80156105e85780601f106105bd576101008083540402835291602001916105e8565b820191906000526020600020905b8154815290600101906020018083116105cb57829003601f168201915b5050505050905090565b6000806105fd610c98565b905061060a818585610ca0565b600191505092915050565b6000600354905090565b60008061062a610c98565b9050610637858285610e69565b610642858585610ef5565b60019150509392505050565b6000806000838152602001908152602001600020600101549050919050565b6106768261064e565b61067f8161116e565b6106898383611182565b505050565b60006012905090565b61069f610c98565b73ffffffffffffffffffffffffffffffffffffffff168173ffffffffffffffffffffffffffffffffffffffff161461070c576040517f08c379a000000000000000000000000000000000000000000000000000000000815260040161070390611e94565b60405180910390fd5b6107168282611262565b5050565b600080610725610c98565b90506107468185856107378589610ba7565b6107419190611ee3565b610ca0565b600191505092915050565b600060405160200161076290611f6e565b604051602081830303815290604052805190602001206107818161116e565b61078b8484611343565b600191505092915050565b6000806107a1610c98565b90506107ad818461149a565b6001915050919050565b6000600160008373ffffffffffffffffffffffffffffffffffffffff1673ffffffffffffffffffffffffffffffffffffffff168152602001908152602001600020549050919050565b60405160200161080f90611f6e565b6040516020818303038152906040528051906020012081565b600060405160200161083990611f6e565b604051602081830303815290604052805190602001206108588161116e565b6000610862610c98565b905061086f858286610e69565b610879858561149a565b60019250505092915050565b600080600084815260200190815260200160002060000160008373ffffffffffffffffffffffffffffffffffffffff1673ffffffffffffffffffffffffffffffffffffffff16815260200190815260200160002060009054906101000a900460ff16905092915050565b6060600580546108fe90611df1565b80601f016020809104026020016040519081016040528092919081815260200182805461092a90611df1565b80156109775780601f1061094c57610100808354040283529160200191610977565b820191906000526020600020905b81548152906001019060200180831161095a57829003601f168201915b5050505050905090565b6000801b81565b600080610993610c98565b905060006109a18286610ba7565b9050838110156109e6576040517f08c379a00000000000000000000000000000000000000000000000000000000081526004016109dd90611ff5565b60405180910390fd5b6109f38286868403610ca0565b60019250505092915050565b600080610a0a610c98565b9050610a17818585610ef5565b600191505092915050565b7f000000000000000000000000000000000000000000000000000000000000000073ffffffffffffffffffffffffffffffffffffffff16610a61610c98565b73ffffffffffffffffffffffffffffffffffffffff1614610ab7576040517f08c379a0000000000000000000000000000000000000000000000000000000008152600401610aae90612087565b60405180910390fd5b600073ffffffffffffffffffffffffffffffffffffffff168173ffffffffffffffffffffffffffffffffffffffff1603610b26576040517f08c379a0000000000000000000000000000000000000000000000000000000008152600401610b1d906120f3565b60405180910390fd5b610b54604051602001610b3890611f6e565b6040516020818303038152906040528051906020012082611182565b610b686000801b610b63610c98565b611182565b6001600660006101000a81548160ff02191690831515021790555050565b610b8f8261064e565b610b988161116e565b610ba28383611262565b505050565b6000600260008473ffffffffffffffffffffffffffffffffffffffff1673ffffffffffffffffffffffffffffffffffffffff16815260200190815260200160002060008373ffffffffffffffffffffffffffffffffffffffff1673ffffffffffffffffffffffffffffffffffffffff16815260200190815260200160002054905092915050565b60007f01ffc9a7000000000000000000000000000000000000000000000000000000007bffffffffffffffffffffffffffffffffffffffffffffffffffffffff1916827bffffffffffffffffffffffffffffffffffffffffffffffffffffffff1916149050919050565b600033905090565b600073ffffffffffffffffffffffffffffffffffffffff168373ffffffffffffffffffffffffffffffffffffffff1603610d0f576040517f08c379a0000000000000000000000000000000000000000000000000000000008152600401610d0690612185565b60405180910390fd5b600073ffffffffffffffffffffffffffffffffffffffff168273ffffffffffffffffffffffffffffffffffffffff1603610d7e576040517f08c379a0000000000000000000000000000000000000000000000000000000008152600401610d7590612217565b60405180910390fd5b80600260008573ffffffffffffffffffffffffffffffffffffffff1673ffffffffffffffffffffffffffffffffffffffff16815260200190815260200160002060008473ffffffffffffffffffffffffffffffffffffffff1673ffffffffffffffffffffffffffffffffffffffff168152602001908152602001600020819055508173ffffffffffffffffffffffffffffffffffffffff168373ffffffffffffffffffffffffffffffffffffffff167f8c5be1e5ebec7d5bd14f71427d1e84f3dd0314c0f7b2291e5b200ac8c7c3b92583604051610e5c9190611bb6565b60405180910390a3505050565b6000610e758484610ba7565b90507fffffffffffffffffffffffffffffffffffffffffffffffffffffffffffffffff8114610eef5781811015610ee1576040517f08c379a0000000000000000000000000000000000000000000000000000000008152600401610ed890612283565b60405180910390fd5b610eee8484848403610ca0565b5b50505050565b600073ffffffffffffffffffffffffffffffffffffffff168373ffffffffffffffffffffffffffffffffffffffff1603610f64576040517f08c379a0000000000000000000000000000000000000000000000000000000008152600401610f5b90612315565b60405180910390fd5b600073ffffffffffffffffffffffffffffffffffffffff168273ffffffffffffffffffffffffffffffffffffffff1603610fd3576040517f08c379a0000000000000000000000000000000000000000000000000000000008152600401610fca906123a7565b60405180910390fd5b610fde838383611669565b6000600160008573ffffffffffffffffffffffffffffffffffffffff1673ffffffffffffffffffffffffffffffffffffffff16815260200190815260200160002054905081811015611065576040517f08c379a000000000000000000000000000000000000000000000000000000000815260040161105c90612439565b60405180910390fd5b818103600160008673ffffffffffffffffffffffffffffffffffffffff1673ffffffffffffffffffffffffffffffffffffffff1681526020019081526020016000208190555081600160008573ffffffffffffffffffffffffffffffffffffffff1673ffffffffffffffffffffffffffffffffffffffff168152602001908152602001600020600082825401925050819055508273ffffffffffffffffffffffffffffffffffffffff168473ffffffffffffffffffffffffffffffffffffffff167fddf252ad1be2c89b69c2b068fc378daa952ba7f163c4a11628f55a4df523b3ef846040516111559190611bb6565b60405180910390a361116884848461166e565b50505050565b61117f8161117a610c98565b611673565b50565b61118c8282610885565b61125e57600160008084815260200190815260200160002060000160008373ffffffffffffffffffffffffffffffffffffffff1673ffffffffffffffffffffffffffffffffffffffff16815260200190815260200160002060006101000a81548160ff021916908315150217905550611203610c98565b73ffffffffffffffffffffffffffffffffffffffff168173ffffffffffffffffffffffffffffffffffffffff16837f2f8788117e7eff1d82e926ec794901d17c78024a50270940304540a733656f0d60405160405180910390a45b5050565b61126c8282610885565b1561133f57600080600084815260200190815260200160002060000160008373ffffffffffffffffffffffffffffffffffffffff1673ffffffffffffffffffffffffffffffffffffffff16815260200190815260200160002060006101000a81548160ff0219169083151502179055506112e4610c98565b73ffffffffffffffffffffffffffffffffffffffff168173ffffffffffffffffffffffffffffffffffffffff16837ff6391f5c32d9c69d2a47ea670b442974b53935d1edc7fd64eb21e047a839171b60405160405180910390a45b5050565b600073ffffffffffffffffffffffffffffffffffffffff168273ffffffffffffffffffffffffffffffffffffffff16036113b2576040517f08c379a00000000000000000000000000000000000000000000000000000000081526004016113a9906124a5565b60405180910390fd5b6113be60008383611669565b80600360008282546113d09190611ee3565b9250508190555080600160008473ffffffffffffffffffffffffffffffffffffffff1673ffffffffffffffffffffffffffffffffffffffff168152602001908152602001600020600082825401925050819055508173ffffffffffffffffffffffffffffffffffffffff16600073ffffffffffffffffffffffffffffffffffffffff167fddf252ad1be2c89b69c2b068fc378daa952ba7f163c4a11628f55a4df523b3ef836040516114829190611bb6565b60405180910390a36114966000838361166e565b5050565b600073ffffffffffffffffffffffffffffffffffffffff168273ffffffffffffffffffffffffffffffffffffffff1603611509576040517f08c379a000000000000000000000000000000000000000000000000000000000815260040161150090612537565b60405180910390fd5b61151582600083611669565b6000600160008473ffffffffffffffffffffffffffffffffffffffff1673ffffffffffffffffffffffffffffffffffffffff1681526020019081526020016000205490508181101561159c576040517f08c379a0000000000000000000000000000000000000000000000000000000008152600401611593906125c9565b60405180910390fd5b818103600160008573ffffffffffffffffffffffffffffffffffffffff1673ffffffffffffffffffffffffffffffffffffffff1681526020019081526020016000208190555081600360008282540392505081905550600073ffffffffffffffffffffffffffffffffffffffff168373ffffffffffffffffffffffffffffffffffffffff167fddf252ad1be2c89b69c2b068fc378daa952ba7f163c4a11628f55a4df523b3ef846040516116509190611bb6565b60405180910390a36116648360008461166e565b505050565b505050565b505050565b61167d8282610885565b6116f45761168a816116f8565b6116988360001c6020611725565b6040516020016116a99291906126b2565b6040516020818303038152906040526040517f08c379a00000000000000000000000000000000000000000000000000000000081526004016116eb9190611ab1565b60405180910390fd5b5050565b606061171e8273ffffffffffffffffffffffffffffffffffffffff16601460ff16611725565b9050919050565b60606000600283600261173891906126ec565b6117429190611ee3565b67ffffffffffffffff81111561175b5761175a61272e565b5b6040519080825280601f01601f19166020018201604052801561178d5781602001600182028036833780820191505090505b5090507f3000000000000000000000000000000000000000000000000000000000000000816000815181106117c5576117c461275d565b5b60200101907effffffffffffffffffffffffffffffffffffffffffffffffffffffffffffff1916908160001a9053507f7800000000000000000000000000000000000000000000000000000000000000816001815181106118295761182861275d565b5b60200101907effffffffffffffffffffffffffffffffffffffffffffffffffffffffffffff1916908160001a9053506000600184600261186991906126ec565b6118739190611ee3565b90505b6001811115611913577f3031323334353637383961626364656600000000000000000000000000000000600f8616601081106118b5576118b461275d565b5b1a60f81b8282815181106118cc576118cb61275d565b5b60200101907effffffffffffffffffffffffffffffffffffffffffffffffffffffffffffff1916908160001a905350600485901c94508061190c9061278c565b9050611876565b5060008414611957576040517f08c379a000000000000000000000000000000000000000000000000000000000815260040161194e90612801565b60405180910390fd5b8091505092915050565b600080fd5b60007fffffffff0000000000000000000000000000000000000000000000000000000082169050919050565b61199b81611966565b81146119a657600080fd5b50565b6000813590506119b881611992565b92915050565b6000602082840312156119d4576119d3611961565b5b60006119e2848285016119a9565b91505092915050565b60008115159050919050565b611a00816119eb565b82525050565b6000602082019050611a1b60008301846119f7565b92915050565b600081519050919050565b600082825260208201905092915050565b60005b83811015611a5b578082015181840152602081019050611a40565b60008484015250505050565b6000601f19601f8301169050919050565b6000611a8382611a21565b611a8d8185611a2c565b9350611a9d818560208601611a3d565b611aa681611a67565b840191505092915050565b60006020820190508181036000830152611acb8184611a78565b905092915050565b600073ffffffffffffffffffffffffffffffffffffffff82169050919050565b6000611afe82611ad3565b9050919050565b611b0e81611af3565b8114611b1957600080fd5b50565b600081359050611b2b81611b05565b92915050565b6000819050919050565b611b4481611b31565b8114611b4f57600080fd5b50565b600081359050611b6181611b3b565b92915050565b60008060408385031215611b7e57611b7d611961565b5b6000611b8c85828601611b1c565b9250506020611b9d85828601611b52565b9150509250929050565b611bb081611b31565b82525050565b6000602082019050611bcb6000830184611ba7565b92915050565b600080600060608486031215611bea57611be9611961565b5b6000611bf886828701611b1c565b9350506020611c0986828701611b1c565b9250506040611c1a86828701611b52565b9150509250925092565b6000819050919050565b611c3781611c24565b8114611c4257600080fd5b50565b600081359050611c5481611c2e565b92915050565b600060208284031215611c7057611c6f611961565b5b6000611c7e84828501611c45565b91505092915050565b611c9081611c24565b82525050565b6000602082019050611cab6000830184611c87565b92915050565b60008060408385031215611cc857611cc7611961565b5b6000611cd685828601611c45565b9250506020611ce785828601611b1c565b9150509250929050565b600060ff82169050919050565b611d0781611cf1565b82525050565b6000602082019050611d226000830184611cfe565b92915050565b600060208284031215611d3e57611d3d611961565b5b6000611d4c84828501611b52565b91505092915050565b600060208284031215611d6b57611d6a611961565b5b6000611d7984828501611b1c565b91505092915050565b60008060408385031215611d9957611d98611961565b5b6000611da785828601611b1c565b9250506020611db885828601611b1c565b9150509250929050565b7f4e487b7100000000000000000000000000000000000000000000000000000000600052602260045260246000fd5b60006002820490506001821680611e0957607f821691505b602082108103611e1c57611e1b611dc2565b5b50919050565b7f416363657373436f6e74726f6c3a2063616e206f6e6c792072656e6f756e636560008201527f20726f6c657320666f722073656c660000000000000000000000000000000000602082015250565b6000611e7e602f83611a2c565b9150611e8982611e22565b604082019050919050565b60006020820190508181036000830152611ead81611e71565b9050919050565b7f4e487b7100000000000000000000000000000000000000000000000000000000600052601160045260246000fd5b6000611eee82611b31565b9150611ef983611b31565b9250828201905080821115611f1157611f10611eb4565b5b92915050565b600081905092915050565b7f43616c6c65720000000000000000000000000000000000000000000000000000600082015250565b6000611f58600683611f17565b9150611f6382611f22565b600682019050919050565b6000611f7982611f4b565b9150819050919050565b7f45524332303a2064656372656173656420616c6c6f77616e63652062656c6f7760008201527f207a65726f000000000000000000000000000000000000000000000000000000602082015250565b6000611fdf602583611a2c565b9150611fea82611f83565b604082019050919050565b6000602082019050818103600083015261200e81611fd2565b9050919050565b7f73485944543a2063616c6c6572206973206e6f742074686520696e697469616c60008201527f697a657200000000000000000000000000000000000000000000000000000000602082015250565b6000612071602483611a2c565b915061207c82612015565b604082019050919050565b600060208201905081810360008301526120a081612064565b9050919050565b7f73485944543a20696e76616c6964204561726e20616464726573730000000000600082015250565b60006120dd601b83611a2c565b91506120e8826120a7565b602082019050919050565b6000602082019050818103600083015261210c816120d0565b9050919050565b7f45524332303a20617070726f76652066726f6d20746865207a65726f2061646460008201527f7265737300000000000000000000000000000000000000000000000000000000602082015250565b600061216f602483611a2c565b915061217a82612113565b604082019050919050565b6000602082019050818103600083015261219e81612162565b9050919050565b7f45524332303a20617070726f766520746f20746865207a65726f20616464726560008201527f7373000000000000000000000000000000000000000000000000000000000000602082015250565b6000612201602283611a2c565b915061220c826121a5565b604082019050919050565b60006020820190508181036000830152612230816121f4565b9050919050565b7f45524332303a20696e73756666696369656e7420616c6c6f77616e6365000000600082015250565b600061226d601d83611a2c565b915061227882612237565b602082019050919050565b6000602082019050818103600083015261229c81612260565b9050919050565b7f45524332303a207472616e736665722066726f6d20746865207a65726f20616460008201527f6472657373000000000000000000000000000000000000000000000000000000602082015250565b60006122ff602583611a2c565b915061230a826122a3565b604082019050919050565b6000602082019050818103600083015261232e816122f2565b9050919050565b7f45524332303a207472616e7366657220746f20746865207a65726f206164647260008201527f6573730000000000000000000000000000000000000000000000000000000000602082015250565b6000612391602383611a2c565b915061239c82612335565b604082019050919050565b600060208201905081810360008301526123c081612384565b9050919050565b7f45524332303a207472616e7366657220616d6f756e742065786365656473206260008201527f616c616e63650000000000000000000000000000000000000000000000000000602082015250565b6000612423602683611a2c565b915061242e826123c7565b604082019050919050565b6000602082019050818103600083015261245281612416565b9050919050565b7f45524332303a206d696e7420746f20746865207a65726f206164647265737300600082015250565b600061248f601f83611a2c565b915061249a82612459565b602082019050919050565b600060208201905081810360008301526124be81612482565b9050919050565b7f45524332303a206275726e2066726f6d20746865207a65726f2061646472657360008201527f7300000000000000000000000000000000000000000000000000000000000000602082015250565b6000612521602183611a2c565b915061252c826124c5565b604082019050919050565b6000602082019050818103600083015261255081612514565b9050919050565b7f45524332303a206275726e20616d6f756e7420657863656564732062616c616e60008201527f6365000000000000000000000000000000000000000000000000000000000000602082015250565b60006125b3602283611a2c565b91506125be82612557565b604082019050919050565b600060208201905081810360008301526125e2816125a6565b9050919050565b7f416363657373436f6e74726f6c3a206163636f756e7420000000000000000000600082015250565b600061261f601783611f17565b915061262a826125e9565b601782019050919050565b600061264082611a21565b61264a8185611f17565b935061265a818560208601611a3d565b80840191505092915050565b7f206973206d697373696e6720726f6c6520000000000000000000000000000000600082015250565b600061269c601183611f17565b91506126a782612666565b601182019050919050565b60006126bd82612612565b91506126c98285612635565b91506126d48261268f565b91506126e08284612635565b91508190509392505050565b60006126f782611b31565b915061270283611b31565b925082820261271081611b31565b9150828204841483151761272757612726611eb4565b5b5092915050565b7f4e487b7100000000000000000000000000000000000000000000000000000000600052604160045260246000fd5b7f4e487b7100000000000000000000000000000000000000000000000000000000600052603260045260246000fd5b600061279782611b31565b9150600082036127aa576127a9611eb4565b5b600182039050919050565b7f537472696e67733a20686578206c656e67746820696e73756666696369656e74600082015250565b60006127eb602083611a2c565b91506127f6826127b5565b602082019050919050565b6000602082019050818103600083015261281a816127de565b905091905056fea264697066735822122011068d1ed7f5b23ba1f99d8b51734bacba6f9549099ece930c71cab721c11f5464736f6c634300081300335374616b65642048696768205969656c6420446f6c6c617220537461626c6520546f6b656e",
					"opcodes": "PUSH1 0xA0 PUSH1 0x40 MSTORE CALLVALUE DUP1 ISZERO PUSH3 0x11 JUMPI PUSH1 0x0 DUP1 REVERT JUMPDEST POP PUSH1 0x40 MLOAD DUP1 PUSH1 0x60 ADD PUSH1 0x40 MSTORE DUP1 PUSH1 0x25 DUP2 MSTORE PUSH1 0x20 ADD PUSH3 0x2CAD PUSH1 0x25 SWAP2 CODECOPY PUSH1 0x40 MLOAD DUP1 PUSH1 0x40 ADD PUSH1 0x40 MSTORE DUP1 PUSH1 0x5 DUP2 MSTORE PUSH1 0x20 ADD PUSH32 0x7348594454000000000000000000000000000000000000000000000000000000 DUP2 MSTORE POP DUP2 PUSH1 0x4 SWAP1 DUP2 PUSH3 0x73 SWAP2 SWAP1 PUSH3 0x353 JUMP JUMPDEST POP DUP1 PUSH1 0x5 SWAP1 DUP2 PUSH3 0x85 SWAP2 SWAP1 PUSH3 0x353 JUMP JUMPDEST POP POP POP PUSH3 0x98 PUSH3 0xD1 PUSH1 0x20 SHL PUSH1 0x20 SHR JUMP JUMPDEST PUSH20 0xFFFFFFFFFFFFFFFFFFFFFFFFFFFFFFFFFFFFFFFF AND PUSH1 0x80 DUP2 PUSH20 0xFFFFFFFFFFFFFFFFFFFFFFFFFFFFFFFFFFFFFFFF AND DUP2 MSTORE POP POP PUSH3 0x43A JUMP JUMPDEST PUSH1 0x0 CALLER SWAP1 POP SWAP1 JUMP JUMPDEST PUSH1 0x0 DUP2 MLOAD SWAP1 POP SWAP2 SWAP1 POP JUMP JUMPDEST PUSH32 0x4E487B7100000000000000000000000000000000000000000000000000000000 PUSH1 0x0 MSTORE PUSH1 0x41 PUSH1 0x4 MSTORE PUSH1 0x24 PUSH1 0x0 REVERT JUMPDEST PUSH32 0x4E487B7100000000000000000000000000000000000000000000000000000000 PUSH1 0x0 MSTORE PUSH1 0x22 PUSH1 0x4 MSTORE PUSH1 0x24 PUSH1 0x0 REVERT JUMPDEST PUSH1 0x0 PUSH1 0x2 DUP3 DIV SWAP1 POP PUSH1 0x1 DUP3 AND DUP1 PUSH3 0x15B JUMPI PUSH1 0x7F DUP3 AND SWAP2 POP JUMPDEST PUSH1 0x20 DUP3 LT DUP2 SUB PUSH3 0x171 JUMPI PUSH3 0x170 PUSH3 0x113 JUMP JUMPDEST JUMPDEST POP SWAP2 SWAP1 POP JUMP JUMPDEST PUSH1 0x0 DUP2 SWAP1 POP DUP2 PUSH1 0x0 MSTORE PUSH1 0x20 PUSH1 0x0 KECCAK256 SWAP1 POP SWAP2 SWAP1 POP JUMP JUMPDEST PUSH1 0x0 PUSH1 0x20 PUSH1 0x1F DUP4 ADD DIV SWAP1 POP SWAP2 SWAP1 POP JUMP JUMPDEST PUSH1 0x0 DUP3 DUP3 SHL SWAP1 POP SWAP3 SWAP2 POP POP JUMP JUMPDEST PUSH1 0x0 PUSH1 0x8 DUP4 MUL PUSH3 0x1DB PUSH32 0xFFFFFFFFFFFFFFFFFFFFFFFFFFFFFFFFFFFFFFFFFFFFFFFFFFFFFFFFFFFFFFFF DUP3 PUSH3 0x19C JUMP JUMPDEST PUSH3 0x1E7 DUP7 DUP4 PUSH3 0x19C JUMP JUMPDEST SWAP6 POP DUP1 NOT DUP5 AND SWAP4 POP DUP1 DUP7 AND DUP5 OR SWAP3 POP POP POP SWAP4 SWAP3 POP POP POP JUMP JUMPDEST PUSH1 0x0 DUP2 SWAP1 POP SWAP2 SWAP1 POP JUMP JUMPDEST PUSH1 0x0 DUP2 SWAP1 POP SWAP2 SWAP1 POP JUMP JUMPDEST PUSH1 0x0 PUSH3 0x234 PUSH3 0x22E PUSH3 0x228 DUP5 PUSH3 0x1FF JUMP JUMPDEST PUSH3 0x209 JUMP JUMPDEST PUSH3 0x1FF JUMP JUMPDEST SWAP1 POP SWAP2 SWAP1 POP JUMP JUMPDEST PUSH1 0x0 DUP2 SWAP1 POP SWAP2 SWAP1 POP JUMP JUMPDEST PUSH3 0x250 DUP4 PUSH3 0x213 JUMP JUMPDEST PUSH3 0x268 PUSH3 0x25F DUP3 PUSH3 0x23B JUMP JUMPDEST DUP5 DUP5 SLOAD PUSH3 0x1A9 JUMP JUMPDEST DUP3 SSTORE POP POP POP POP JUMP JUMPDEST PUSH1 0x0 SWAP1 JUMP JUMPDEST PUSH3 0x27F PUSH3 0x270 JUMP JUMPDEST PUSH3 0x28C DUP2 DUP5 DUP5 PUSH3 0x245 JUMP JUMPDEST POP POP POP JUMP JUMPDEST JUMPDEST DUP2 DUP2 LT ISZERO PUSH3 0x2B4 JUMPI PUSH3 0x2A8 PUSH1 0x0 DUP3 PUSH3 0x275 JUMP JUMPDEST PUSH1 0x1 DUP2 ADD SWAP1 POP PUSH3 0x292 JUMP JUMPDEST POP POP JUMP JUMPDEST PUSH1 0x1F DUP3 GT ISZERO PUSH3 0x303 JUMPI PUSH3 0x2CD DUP2 PUSH3 0x177 JUMP JUMPDEST PUSH3 0x2D8 DUP5 PUSH3 0x18C JUMP JUMPDEST DUP2 ADD PUSH1 0x20 DUP6 LT ISZERO PUSH3 0x2E8 JUMPI DUP2 SWAP1 POP JUMPDEST PUSH3 0x300 PUSH3 0x2F7 DUP6 PUSH3 0x18C JUMP JUMPDEST DUP4 ADD DUP3 PUSH3 0x291 JUMP JUMPDEST POP POP JUMPDEST POP POP POP JUMP JUMPDEST PUSH1 0x0 DUP3 DUP3 SHR SWAP1 POP SWAP3 SWAP2 POP POP JUMP JUMPDEST PUSH1 0x0 PUSH3 0x328 PUSH1 0x0 NOT DUP5 PUSH1 0x8 MUL PUSH3 0x308 JUMP JUMPDEST NOT DUP1 DUP4 AND SWAP2 POP POP SWAP3 SWAP2 POP POP JUMP JUMPDEST PUSH1 0x0 PUSH3 0x343 DUP4 DUP4 PUSH3 0x315 JUMP JUMPDEST SWAP2 POP DUP3 PUSH1 0x2 MUL DUP3 OR SWAP1 POP SWAP3 SWAP2 POP POP JUMP JUMPDEST PUSH3 0x35E DUP3 PUSH3 0xD9 JUMP JUMPDEST PUSH8 0xFFFFFFFFFFFFFFFF DUP2 GT ISZERO PUSH3 0x37A JUMPI PUSH3 0x379 PUSH3 0xE4 JUMP JUMPDEST JUMPDEST PUSH3 0x386 DUP3 SLOAD PUSH3 0x142 JUMP JUMPDEST PUSH3 0x393 DUP3 DUP3 DUP6 PUSH3 0x2B8 JUMP JUMPDEST PUSH1 0x0 PUSH1 0x20 SWAP1 POP PUSH1 0x1F DUP4 GT PUSH1 0x1 DUP2 EQ PUSH3 0x3CB JUMPI PUSH1 0x0 DUP5 ISZERO PUSH3 0x3B6 JUMPI DUP3 DUP8 ADD MLOAD SWAP1 POP JUMPDEST PUSH3 0x3C2 DUP6 DUP3 PUSH3 0x335 JUMP JUMPDEST DUP7 SSTORE POP PUSH3 0x432 JUMP JUMPDEST PUSH1 0x1F NOT DUP5 AND PUSH3 0x3DB DUP7 PUSH3 0x177 JUMP JUMPDEST PUSH1 0x0 JUMPDEST DUP3 DUP2 LT ISZERO PUSH3 0x405 JUMPI DUP5 DUP10 ADD MLOAD DUP3 SSTORE PUSH1 0x1 DUP3 ADD SWAP2 POP PUSH1 0x20 DUP6 ADD SWAP5 POP PUSH1 0x20 DUP2 ADD SWAP1 POP PUSH3 0x3DE JUMP JUMPDEST DUP7 DUP4 LT ISZERO PUSH3 0x425 JUMPI DUP5 DUP10 ADD MLOAD PUSH3 0x421 PUSH1 0x1F DUP10 AND DUP3 PUSH3 0x315 JUMP JUMPDEST DUP4 SSTORE POP JUMPDEST PUSH1 0x1 PUSH1 0x2 DUP9 MUL ADD DUP9 SSTORE POP POP POP JUMPDEST POP POP POP POP POP POP JUMP JUMPDEST PUSH1 0x80 MLOAD PUSH2 0x2857 PUSH3 0x456 PUSH1 0x0 CODECOPY PUSH1 0x0 PUSH2 0xA24 ADD MSTORE PUSH2 0x2857 PUSH1 0x0 RETURN INVALID PUSH1 0x80 PUSH1 0x40 MSTORE CALLVALUE DUP1 ISZERO PUSH2 0x10 JUMPI PUSH1 0x0 DUP1 REVERT JUMPDEST POP PUSH1 0x4 CALLDATASIZE LT PUSH2 0x14D JUMPI PUSH1 0x0 CALLDATALOAD PUSH1 0xE0 SHR DUP1 PUSH4 0x42966C68 GT PUSH2 0xC3 JUMPI DUP1 PUSH4 0xA217FDDF GT PUSH2 0x7C JUMPI DUP1 PUSH4 0xA217FDDF EQ PUSH2 0x400 JUMPI DUP1 PUSH4 0xA457C2D7 EQ PUSH2 0x41E JUMPI DUP1 PUSH4 0xA9059CBB EQ PUSH2 0x44E JUMPI DUP1 PUSH4 0xC4D66DE8 EQ PUSH2 0x47E JUMPI DUP1 PUSH4 0xD547741F EQ PUSH2 0x49A JUMPI DUP1 PUSH4 0xDD62ED3E EQ PUSH2 0x4B6 JUMPI PUSH2 0x14D JUMP JUMPDEST DUP1 PUSH4 0x42966C68 EQ PUSH2 0x304 JUMPI DUP1 PUSH4 0x70A08231 EQ PUSH2 0x334 JUMPI DUP1 PUSH4 0x774237FC EQ PUSH2 0x364 JUMPI DUP1 PUSH4 0x79CC6790 EQ PUSH2 0x382 JUMPI DUP1 PUSH4 0x91D14854 EQ PUSH2 0x3B2 JUMPI DUP1 PUSH4 0x95D89B41 EQ PUSH2 0x3E2 JUMPI PUSH2 0x14D JUMP JUMPDEST DUP1 PUSH4 0x248A9CA3 GT PUSH2 0x115 JUMPI DUP1 PUSH4 0x248A9CA3 EQ PUSH2 0x21E JUMPI DUP1 PUSH4 0x2F2FF15D EQ PUSH2 0x24E JUMPI DUP1 PUSH4 0x313CE567 EQ PUSH2 0x26A JUMPI DUP1 PUSH4 0x36568ABE EQ PUSH2 0x288 JUMPI DUP1 PUSH4 0x39509351 EQ PUSH2 0x2A4 JUMPI DUP1 PUSH4 0x40C10F19 EQ PUSH2 0x2D4 JUMPI PUSH2 0x14D JUMP JUMPDEST DUP1 PUSH4 0x1FFC9A7 EQ PUSH2 0x152 JUMPI DUP1 PUSH4 0x6FDDE03 EQ PUSH2 0x182 JUMPI DUP1 PUSH4 0x95EA7B3 EQ PUSH2 0x1A0 JUMPI DUP1 PUSH4 0x18160DDD EQ PUSH2 0x1D0 JUMPI DUP1 PUSH4 0x23B872DD EQ PUSH2 0x1EE JUMPI JUMPDEST PUSH1 0x0 DUP1 REVERT JUMPDEST PUSH2 0x16C PUSH1 0x4 DUP1 CALLDATASIZE SUB DUP2 ADD SWAP1 PUSH2 0x167 SWAP2 SWAP1 PUSH2 0x19BE JUMP JUMPDEST PUSH2 0x4E6 JUMP JUMPDEST PUSH1 0x40 MLOAD PUSH2 0x179 SWAP2 SWAP1 PUSH2 0x1A06 JUMP JUMPDEST PUSH1 0x40 MLOAD DUP1 SWAP2 SUB SWAP1 RETURN JUMPDEST PUSH2 0x18A PUSH2 0x560 JUMP JUMPDEST PUSH1 0x40 MLOAD PUSH2 0x197 SWAP2 SWAP1 PUSH2 0x1AB1 JUMP JUMPDEST PUSH1 0x40 MLOAD DUP1 SWAP2 SUB SWAP1 RETURN JUMPDEST PUSH2 0x1BA PUSH1 0x4 DUP1 CALLDATASIZE SUB DUP2 ADD SWAP1 PUSH2 0x1B5 SWAP2 SWAP1 PUSH2 0x1B67 JUMP JUMPDEST PUSH2 0x5F2 JUMP JUMPDEST PUSH1 0x40 MLOAD PUSH2 0x1C7 SWAP2 SWAP1 PUSH2 0x1A06 JUMP JUMPDEST PUSH1 0x40 MLOAD DUP1 SWAP2 SUB SWAP1 RETURN JUMPDEST PUSH2 0x1D8 PUSH2 0x615 JUMP JUMPDEST PUSH1 0x40 MLOAD PUSH2 0x1E5 SWAP2 SWAP1 PUSH2 0x1BB6 JUMP JUMPDEST PUSH1 0x40 MLOAD DUP1 SWAP2 SUB SWAP1 RETURN JUMPDEST PUSH2 0x208 PUSH1 0x4 DUP1 CALLDATASIZE SUB DUP2 ADD SWAP1 PUSH2 0x203 SWAP2 SWAP1 PUSH2 0x1BD1 JUMP JUMPDEST PUSH2 0x61F JUMP JUMPDEST PUSH1 0x40 MLOAD PUSH2 0x215 SWAP2 SWAP1 PUSH2 0x1A06 JUMP JUMPDEST PUSH1 0x40 MLOAD DUP1 SWAP2 SUB SWAP1 RETURN JUMPDEST PUSH2 0x238 PUSH1 0x4 DUP1 CALLDATASIZE SUB DUP2 ADD SWAP1 PUSH2 0x233 SWAP2 SWAP1 PUSH2 0x1C5A JUMP JUMPDEST PUSH2 0x64E JUMP JUMPDEST PUSH1 0x40 MLOAD PUSH2 0x245 SWAP2 SWAP1 PUSH2 0x1C96 JUMP JUMPDEST PUSH1 0x40 MLOAD DUP1 SWAP2 SUB SWAP1 RETURN JUMPDEST PUSH2 0x268 PUSH1 0x4 DUP1 CALLDATASIZE SUB DUP2 ADD SWAP1 PUSH2 0x263 SWAP2 SWAP1 PUSH2 0x1CB1 JUMP JUMPDEST PUSH2 0x66D JUMP JUMPDEST STOP JUMPDEST PUSH2 0x272 PUSH2 0x68E JUMP JUMPDEST PUSH1 0x40 MLOAD PUSH2 0x27F SWAP2 SWAP1 PUSH2 0x1D0D JUMP JUMPDEST PUSH1 0x40 MLOAD DUP1 SWAP2 SUB SWAP1 RETURN JUMPDEST PUSH2 0x2A2 PUSH1 0x4 DUP1 CALLDATASIZE SUB DUP2 ADD SWAP1 PUSH2 0x29D SWAP2 SWAP1 PUSH2 0x1CB1 JUMP JUMPDEST PUSH2 0x697 JUMP JUMPDEST STOP JUMPDEST PUSH2 0x2BE PUSH1 0x4 DUP1 CALLDATASIZE SUB DUP2 ADD SWAP1 PUSH2 0x2B9 SWAP2 SWAP1 PUSH2 0x1B67 JUMP JUMPDEST PUSH2 0x71A JUMP JUMPDEST PUSH1 0x40 MLOAD PUSH2 0x2CB SWAP2 SWAP1 PUSH2 0x1A06 JUMP JUMPDEST PUSH1 0x40 MLOAD DUP1 SWAP2 SUB SWAP1 RETURN JUMPDEST PUSH2 0x2EE PUSH1 0x4 DUP1 CALLDATASIZE SUB DUP2 ADD SWAP1 PUSH2 0x2E9 SWAP2 SWAP1 PUSH2 0x1B67 JUMP JUMPDEST PUSH2 0x751 JUMP JUMPDEST PUSH1 0x40 MLOAD PUSH2 0x2FB SWAP2 SWAP1 PUSH2 0x1A06 JUMP JUMPDEST PUSH1 0x40 MLOAD DUP1 SWAP2 SUB SWAP1 RETURN JUMPDEST PUSH2 0x31E PUSH1 0x4 DUP1 CALLDATASIZE SUB DUP2 ADD SWAP1 PUSH2 0x319 SWAP2 SWAP1 PUSH2 0x1D28 JUMP JUMPDEST PUSH2 0x796 JUMP JUMPDEST PUSH1 0x40 MLOAD PUSH2 0x32B SWAP2 SWAP1 PUSH2 0x1A06 JUMP JUMPDEST PUSH1 0x40 MLOAD DUP1 SWAP2 SUB SWAP1 RETURN JUMPDEST PUSH2 0x34E PUSH1 0x4 DUP1 CALLDATASIZE SUB DUP2 ADD SWAP1 PUSH2 0x349 SWAP2 SWAP1 PUSH2 0x1D55 JUMP JUMPDEST PUSH2 0x7B7 JUMP JUMPDEST PUSH1 0x40 MLOAD PUSH2 0x35B SWAP2 SWAP1 PUSH2 0x1BB6 JUMP JUMPDEST PUSH1 0x40 MLOAD DUP1 SWAP2 SUB SWAP1 RETURN JUMPDEST PUSH2 0x36C PUSH2 0x800 JUMP JUMPDEST PUSH1 0x40 MLOAD PUSH2 0x379 SWAP2 SWAP1 PUSH2 0x1C96 JUMP JUMPDEST PUSH1 0x40 MLOAD DUP1 SWAP2 SUB SWAP1 RETURN JUMPDEST PUSH2 0x39C PUSH1 0x4 DUP1 CALLDATASIZE SUB DUP2 ADD SWAP1 PUSH2 0x397 SWAP2 SWAP1 PUSH2 0x1B67 JUMP JUMPDEST PUSH2 0x828 JUMP JUMPDEST PUSH1 0x40 MLOAD PUSH2 0x3A9 SWAP2 SWAP1 PUSH2 0x1A06 JUMP JUMPDEST PUSH1 0x40 MLOAD DUP1 SWAP2 SUB SWAP1 RETURN JUMPDEST PUSH2 0x3CC PUSH1 0x4 DUP1 CALLDATASIZE SUB DUP2 ADD SWAP1 PUSH2 0x3C7 SWAP2 SWAP1 PUSH2 0x1CB1 JUMP JUMPDEST PUSH2 0x885 JUMP JUMPDEST PUSH1 0x40 MLOAD PUSH2 0x3D9 SWAP2 SWAP1 PUSH2 0x1A06 JUMP JUMPDEST PUSH1 0x40 MLOAD DUP1 SWAP2 SUB SWAP1 RETURN JUMPDEST PUSH2 0x3EA PUSH2 0x8EF JUMP JUMPDEST PUSH1 0x40 MLOAD PUSH2 0x3F7 SWAP2 SWAP1 PUSH2 0x1AB1 JUMP JUMPDEST PUSH1 0x40 MLOAD DUP1 SWAP2 SUB SWAP1 RETURN JUMPDEST PUSH2 0x408 PUSH2 0x981 JUMP JUMPDEST PUSH1 0x40 MLOAD PUSH2 0x415 SWAP2 SWAP1 PUSH2 0x1C96 JUMP JUMPDEST PUSH1 0x40 MLOAD DUP1 SWAP2 SUB SWAP1 RETURN JUMPDEST PUSH2 0x438 PUSH1 0x4 DUP1 CALLDATASIZE SUB DUP2 ADD SWAP1 PUSH2 0x433 SWAP2 SWAP1 PUSH2 0x1B67 JUMP JUMPDEST PUSH2 0x988 JUMP JUMPDEST PUSH1 0x40 MLOAD PUSH2 0x445 SWAP2 SWAP1 PUSH2 0x1A06 JUMP JUMPDEST PUSH1 0x40 MLOAD DUP1 SWAP2 SUB SWAP1 RETURN JUMPDEST PUSH2 0x468 PUSH1 0x4 DUP1 CALLDATASIZE SUB DUP2 ADD SWAP1 PUSH2 0x463 SWAP2 SWAP1 PUSH2 0x1B67 JUMP JUMPDEST PUSH2 0x9FF JUMP JUMPDEST PUSH1 0x40 MLOAD PUSH2 0x475 SWAP2 SWAP1 PUSH2 0x1A06 JUMP JUMPDEST PUSH1 0x40 MLOAD DUP1 SWAP2 SUB SWAP1 RETURN JUMPDEST PUSH2 0x498 PUSH1 0x4 DUP1 CALLDATASIZE SUB DUP2 ADD SWAP1 PUSH2 0x493 SWAP2 SWAP1 PUSH2 0x1D55 JUMP JUMPDEST PUSH2 0xA22 JUMP JUMPDEST STOP JUMPDEST PUSH2 0x4B4 PUSH1 0x4 DUP1 CALLDATASIZE SUB DUP2 ADD SWAP1 PUSH2 0x4AF SWAP2 SWAP1 PUSH2 0x1CB1 JUMP JUMPDEST PUSH2 0xB86 JUMP JUMPDEST STOP JUMPDEST PUSH2 0x4D0 PUSH1 0x4 DUP1 CALLDATASIZE SUB DUP2 ADD SWAP1 PUSH2 0x4CB SWAP2 SWAP1 PUSH2 0x1D82 JUMP JUMPDEST PUSH2 0xBA7 JUMP JUMPDEST PUSH1 0x40 MLOAD PUSH2 0x4DD SWAP2 SWAP1 PUSH2 0x1BB6 JUMP JUMPDEST PUSH1 0x40 MLOAD DUP1 SWAP2 SUB SWAP1 RETURN JUMPDEST PUSH1 0x0 PUSH32 0x7965DB0B00000000000000000000000000000000000000000000000000000000 PUSH28 0xFFFFFFFFFFFFFFFFFFFFFFFFFFFFFFFFFFFFFFFFFFFFFFFFFFFFFFFF NOT AND DUP3 PUSH28 0xFFFFFFFFFFFFFFFFFFFFFFFFFFFFFFFFFFFFFFFFFFFFFFFFFFFFFFFF NOT AND EQ DUP1 PUSH2 0x559 JUMPI POP PUSH2 0x558 DUP3 PUSH2 0xC2E JUMP JUMPDEST JUMPDEST SWAP1 POP SWAP2 SWAP1 POP JUMP JUMPDEST PUSH1 0x60 PUSH1 0x4 DUP1 SLOAD PUSH2 0x56F SWAP1 PUSH2 0x1DF1 JUMP JUMPDEST DUP1 PUSH1 0x1F ADD PUSH1 0x20 DUP1 SWAP2 DIV MUL PUSH1 0x20 ADD PUSH1 0x40 MLOAD SWAP1 DUP2 ADD PUSH1 0x40 MSTORE DUP1 SWAP3 SWAP2 SWAP1 DUP2 DUP2 MSTORE PUSH1 0x20 ADD DUP3 DUP1 SLOAD PUSH2 0x59B SWAP1 PUSH2 0x1DF1 JUMP JUMPDEST DUP1 ISZERO PUSH2 0x5E8 JUMPI DUP1 PUSH1 0x1F LT PUSH2 0x5BD JUMPI PUSH2 0x100 DUP1 DUP4 SLOAD DIV MUL DUP4 MSTORE SWAP2 PUSH1 0x20 ADD SWAP2 PUSH2 0x5E8 JUMP JUMPDEST DUP3 ADD SWAP2 SWAP1 PUSH1 0x0 MSTORE PUSH1 0x20 PUSH1 0x0 KECCAK256 SWAP1 JUMPDEST DUP2 SLOAD DUP2 MSTORE SWAP1 PUSH1 0x1 ADD SWAP1 PUSH1 0x20 ADD DUP1 DUP4 GT PUSH2 0x5CB JUMPI DUP3 SWAP1 SUB PUSH1 0x1F AND DUP3 ADD SWAP2 JUMPDEST POP POP POP POP POP SWAP1 POP SWAP1 JUMP JUMPDEST PUSH1 0x0 DUP1 PUSH2 0x5FD PUSH2 0xC98 JUMP JUMPDEST SWAP1 POP PUSH2 0x60A DUP2 DUP6 DUP6 PUSH2 0xCA0 JUMP JUMPDEST PUSH1 0x1 SWAP2 POP POP SWAP3 SWAP2 POP POP JUMP JUMPDEST PUSH1 0x0 PUSH1 0x3 SLOAD SWAP1 POP SWAP1 JUMP JUMPDEST PUSH1 0x0 DUP1 PUSH2 0x62A PUSH2 0xC98 JUMP JUMPDEST SWAP1 POP PUSH2 0x637 DUP6 DUP3 DUP6 PUSH2 0xE69 JUMP JUMPDEST PUSH2 0x642 DUP6 DUP6 DUP6 PUSH2 0xEF5 JUMP JUMPDEST PUSH1 0x1 SWAP2 POP POP SWAP4 SWAP3 POP POP POP JUMP JUMPDEST PUSH1 0x0 DUP1 PUSH1 0x0 DUP4 DUP2 MSTORE PUSH1 0x20 ADD SWAP1 DUP2 MSTORE PUSH1 0x20 ADD PUSH1 0x0 KECCAK256 PUSH1 0x1 ADD SLOAD SWAP1 POP SWAP2 SWAP1 POP JUMP JUMPDEST PUSH2 0x676 DUP3 PUSH2 0x64E JUMP JUMPDEST PUSH2 0x67F DUP2 PUSH2 0x116E JUMP JUMPDEST PUSH2 0x689 DUP4 DUP4 PUSH2 0x1182 JUMP JUMPDEST POP POP POP JUMP JUMPDEST PUSH1 0x0 PUSH1 0x12 SWAP1 POP SWAP1 JUMP JUMPDEST PUSH2 0x69F PUSH2 0xC98 JUMP JUMPDEST PUSH20 0xFFFFFFFFFFFFFFFFFFFFFFFFFFFFFFFFFFFFFFFF AND DUP2 PUSH20 0xFFFFFFFFFFFFFFFFFFFFFFFFFFFFFFFFFFFFFFFF AND EQ PUSH2 0x70C JUMPI PUSH1 0x40 MLOAD PUSH32 0x8C379A000000000000000000000000000000000000000000000000000000000 DUP2 MSTORE PUSH1 0x4 ADD PUSH2 0x703 SWAP1 PUSH2 0x1E94 JUMP JUMPDEST PUSH1 0x40 MLOAD DUP1 SWAP2 SUB SWAP1 REVERT JUMPDEST PUSH2 0x716 DUP3 DUP3 PUSH2 0x1262 JUMP JUMPDEST POP POP JUMP JUMPDEST PUSH1 0x0 DUP1 PUSH2 0x725 PUSH2 0xC98 JUMP JUMPDEST SWAP1 POP PUSH2 0x746 DUP2 DUP6 DUP6 PUSH2 0x737 DUP6 DUP10 PUSH2 0xBA7 JUMP JUMPDEST PUSH2 0x741 SWAP2 SWAP1 PUSH2 0x1EE3 JUMP JUMPDEST PUSH2 0xCA0 JUMP JUMPDEST PUSH1 0x1 SWAP2 POP POP SWAP3 SWAP2 POP POP JUMP JUMPDEST PUSH1 0x0 PUSH1 0x40 MLOAD PUSH1 0x20 ADD PUSH2 0x762 SWAP1 PUSH2 0x1F6E JUMP JUMPDEST PUSH1 0x40 MLOAD PUSH1 0x20 DUP2 DUP4 SUB SUB DUP2 MSTORE SWAP1 PUSH1 0x40 MSTORE DUP1 MLOAD SWAP1 PUSH1 0x20 ADD KECCAK256 PUSH2 0x781 DUP2 PUSH2 0x116E JUMP JUMPDEST PUSH2 0x78B DUP5 DUP5 PUSH2 0x1343 JUMP JUMPDEST PUSH1 0x1 SWAP2 POP POP SWAP3 SWAP2 POP POP JUMP JUMPDEST PUSH1 0x0 DUP1 PUSH2 0x7A1 PUSH2 0xC98 JUMP JUMPDEST SWAP1 POP PUSH2 0x7AD DUP2 DUP5 PUSH2 0x149A JUMP JUMPDEST PUSH1 0x1 SWAP2 POP POP SWAP2 SWAP1 POP JUMP JUMPDEST PUSH1 0x0 PUSH1 0x1 PUSH1 0x0 DUP4 PUSH20 0xFFFFFFFFFFFFFFFFFFFFFFFFFFFFFFFFFFFFFFFF AND PUSH20 0xFFFFFFFFFFFFFFFFFFFFFFFFFFFFFFFFFFFFFFFF AND DUP2 MSTORE PUSH1 0x20 ADD SWAP1 DUP2 MSTORE PUSH1 0x20 ADD PUSH1 0x0 KECCAK256 SLOAD SWAP1 POP SWAP2 SWAP1 POP JUMP JUMPDEST PUSH1 0x40 MLOAD PUSH1 0x20 ADD PUSH2 0x80F SWAP1 PUSH2 0x1F6E JUMP JUMPDEST PUSH1 0x40 MLOAD PUSH1 0x20 DUP2 DUP4 SUB SUB DUP2 MSTORE SWAP1 PUSH1 0x40 MSTORE DUP1 MLOAD SWAP1 PUSH1 0x20 ADD KECCAK256 DUP2 JUMP JUMPDEST PUSH1 0x0 PUSH1 0x40 MLOAD PUSH1 0x20 ADD PUSH2 0x839 SWAP1 PUSH2 0x1F6E JUMP JUMPDEST PUSH1 0x40 MLOAD PUSH1 0x20 DUP2 DUP4 SUB SUB DUP2 MSTORE SWAP1 PUSH1 0x40 MSTORE DUP1 MLOAD SWAP1 PUSH1 0x20 ADD KECCAK256 PUSH2 0x858 DUP2 PUSH2 0x116E JUMP JUMPDEST PUSH1 0x0 PUSH2 0x862 PUSH2 0xC98 JUMP JUMPDEST SWAP1 POP PUSH2 0x86F DUP6 DUP3 DUP7 PUSH2 0xE69 JUMP JUMPDEST PUSH2 0x879 DUP6 DUP6 PUSH2 0x149A JUMP JUMPDEST PUSH1 0x1 SWAP3 POP POP POP SWAP3 SWAP2 POP POP JUMP JUMPDEST PUSH1 0x0 DUP1 PUSH1 0x0 DUP5 DUP2 MSTORE PUSH1 0x20 ADD SWAP1 DUP2 MSTORE PUSH1 0x20 ADD PUSH1 0x0 KECCAK256 PUSH1 0x0 ADD PUSH1 0x0 DUP4 PUSH20 0xFFFFFFFFFFFFFFFFFFFFFFFFFFFFFFFFFFFFFFFF AND PUSH20 0xFFFFFFFFFFFFFFFFFFFFFFFFFFFFFFFFFFFFFFFF AND DUP2 MSTORE PUSH1 0x20 ADD SWAP1 DUP2 MSTORE PUSH1 0x20 ADD PUSH1 0x0 KECCAK256 PUSH1 0x0 SWAP1 SLOAD SWAP1 PUSH2 0x100 EXP SWAP1 DIV PUSH1 0xFF AND SWAP1 POP SWAP3 SWAP2 POP POP JUMP JUMPDEST PUSH1 0x60 PUSH1 0x5 DUP1 SLOAD PUSH2 0x8FE SWAP1 PUSH2 0x1DF1 JUMP JUMPDEST DUP1 PUSH1 0x1F ADD PUSH1 0x20 DUP1 SWAP2 DIV MUL PUSH1 0x20 ADD PUSH1 0x40 MLOAD SWAP1 DUP2 ADD PUSH1 0x40 MSTORE DUP1 SWAP3 SWAP2 SWAP1 DUP2 DUP2 MSTORE PUSH1 0x20 ADD DUP3 DUP1 SLOAD PUSH2 0x92A SWAP1 PUSH2 0x1DF1 JUMP JUMPDEST DUP1 ISZERO PUSH2 0x977 JUMPI DUP1 PUSH1 0x1F LT PUSH2 0x94C JUMPI PUSH2 0x100 DUP1 DUP4 SLOAD DIV MUL DUP4 MSTORE SWAP2 PUSH1 0x20 ADD SWAP2 PUSH2 0x977 JUMP JUMPDEST DUP3 ADD SWAP2 SWAP1 PUSH1 0x0 MSTORE PUSH1 0x20 PUSH1 0x0 KECCAK256 SWAP1 JUMPDEST DUP2 SLOAD DUP2 MSTORE SWAP1 PUSH1 0x1 ADD SWAP1 PUSH1 0x20 ADD DUP1 DUP4 GT PUSH2 0x95A JUMPI DUP3 SWAP1 SUB PUSH1 0x1F AND DUP3 ADD SWAP2 JUMPDEST POP POP POP POP POP SWAP1 POP SWAP1 JUMP JUMPDEST PUSH1 0x0 DUP1 SHL DUP2 JUMP JUMPDEST PUSH1 0x0 DUP1 PUSH2 0x993 PUSH2 0xC98 JUMP JUMPDEST SWAP1 POP PUSH1 0x0 PUSH2 0x9A1 DUP3 DUP7 PUSH2 0xBA7 JUMP JUMPDEST SWAP1 POP DUP4 DUP2 LT ISZERO PUSH2 0x9E6 JUMPI PUSH1 0x40 MLOAD PUSH32 0x8C379A000000000000000000000000000000000000000000000000000000000 DUP2 MSTORE PUSH1 0x4 ADD PUSH2 0x9DD SWAP1 PUSH2 0x1FF5 JUMP JUMPDEST PUSH1 0x40 MLOAD DUP1 SWAP2 SUB SWAP1 REVERT JUMPDEST PUSH2 0x9F3 DUP3 DUP7 DUP7 DUP5 SUB PUSH2 0xCA0 JUMP JUMPDEST PUSH1 0x1 SWAP3 POP POP POP SWAP3 SWAP2 POP POP JUMP JUMPDEST PUSH1 0x0 DUP1 PUSH2 0xA0A PUSH2 0xC98 JUMP JUMPDEST SWAP1 POP PUSH2 0xA17 DUP2 DUP6 DUP6 PUSH2 0xEF5 JUMP JUMPDEST PUSH1 0x1 SWAP2 POP POP SWAP3 SWAP2 POP POP JUMP JUMPDEST PUSH32 0x0 PUSH20 0xFFFFFFFFFFFFFFFFFFFFFFFFFFFFFFFFFFFFFFFF AND PUSH2 0xA61 PUSH2 0xC98 JUMP JUMPDEST PUSH20 0xFFFFFFFFFFFFFFFFFFFFFFFFFFFFFFFFFFFFFFFF AND EQ PUSH2 0xAB7 JUMPI PUSH1 0x40 MLOAD PUSH32 0x8C379A000000000000000000000000000000000000000000000000000000000 DUP2 MSTORE PUSH1 0x4 ADD PUSH2 0xAAE SWAP1 PUSH2 0x2087 JUMP JUMPDEST PUSH1 0x40 MLOAD DUP1 SWAP2 SUB SWAP1 REVERT JUMPDEST PUSH1 0x0 PUSH20 0xFFFFFFFFFFFFFFFFFFFFFFFFFFFFFFFFFFFFFFFF AND DUP2 PUSH20 0xFFFFFFFFFFFFFFFFFFFFFFFFFFFFFFFFFFFFFFFF AND SUB PUSH2 0xB26 JUMPI PUSH1 0x40 MLOAD PUSH32 0x8C379A000000000000000000000000000000000000000000000000000000000 DUP2 MSTORE PUSH1 0x4 ADD PUSH2 0xB1D SWAP1 PUSH2 0x20F3 JUMP JUMPDEST PUSH1 0x40 MLOAD DUP1 SWAP2 SUB SWAP1 REVERT JUMPDEST PUSH2 0xB54 PUSH1 0x40 MLOAD PUSH1 0x20 ADD PUSH2 0xB38 SWAP1 PUSH2 0x1F6E JUMP JUMPDEST PUSH1 0x40 MLOAD PUSH1 0x20 DUP2 DUP4 SUB SUB DUP2 MSTORE SWAP1 PUSH1 0x40 MSTORE DUP1 MLOAD SWAP1 PUSH1 0x20 ADD KECCAK256 DUP3 PUSH2 0x1182 JUMP JUMPDEST PUSH2 0xB68 PUSH1 0x0 DUP1 SHL PUSH2 0xB63 PUSH2 0xC98 JUMP JUMPDEST PUSH2 0x1182 JUMP JUMPDEST PUSH1 0x1 PUSH1 0x6 PUSH1 0x0 PUSH2 0x100 EXP DUP2 SLOAD DUP2 PUSH1 0xFF MUL NOT AND SWAP1 DUP4 ISZERO ISZERO MUL OR SWAP1 SSTORE POP POP JUMP JUMPDEST PUSH2 0xB8F DUP3 PUSH2 0x64E JUMP JUMPDEST PUSH2 0xB98 DUP2 PUSH2 0x116E JUMP JUMPDEST PUSH2 0xBA2 DUP4 DUP4 PUSH2 0x1262 JUMP JUMPDEST POP POP POP JUMP JUMPDEST PUSH1 0x0 PUSH1 0x2 PUSH1 0x0 DUP5 PUSH20 0xFFFFFFFFFFFFFFFFFFFFFFFFFFFFFFFFFFFFFFFF AND PUSH20 0xFFFFFFFFFFFFFFFFFFFFFFFFFFFFFFFFFFFFFFFF AND DUP2 MSTORE PUSH1 0x20 ADD SWAP1 DUP2 MSTORE PUSH1 0x20 ADD PUSH1 0x0 KECCAK256 PUSH1 0x0 DUP4 PUSH20 0xFFFFFFFFFFFFFFFFFFFFFFFFFFFFFFFFFFFFFFFF AND PUSH20 0xFFFFFFFFFFFFFFFFFFFFFFFFFFFFFFFFFFFFFFFF AND DUP2 MSTORE PUSH1 0x20 ADD SWAP1 DUP2 MSTORE PUSH1 0x20 ADD PUSH1 0x0 KECCAK256 SLOAD SWAP1 POP SWAP3 SWAP2 POP POP JUMP JUMPDEST PUSH1 0x0 PUSH32 0x1FFC9A700000000000000000000000000000000000000000000000000000000 PUSH28 0xFFFFFFFFFFFFFFFFFFFFFFFFFFFFFFFFFFFFFFFFFFFFFFFFFFFFFFFF NOT AND DUP3 PUSH28 0xFFFFFFFFFFFFFFFFFFFFFFFFFFFFFFFFFFFFFFFFFFFFFFFFFFFFFFFF NOT AND EQ SWAP1 POP SWAP2 SWAP1 POP JUMP JUMPDEST PUSH1 0x0 CALLER SWAP1 POP SWAP1 JUMP JUMPDEST PUSH1 0x0 PUSH20 0xFFFFFFFFFFFFFFFFFFFFFFFFFFFFFFFFFFFFFFFF AND DUP4 PUSH20 0xFFFFFFFFFFFFFFFFFFFFFFFFFFFFFFFFFFFFFFFF AND SUB PUSH2 0xD0F JUMPI PUSH1 0x40 MLOAD PUSH32 0x8C379A000000000000000000000000000000000000000000000000000000000 DUP2 MSTORE PUSH1 0x4 ADD PUSH2 0xD06 SWAP1 PUSH2 0x2185 JUMP JUMPDEST PUSH1 0x40 MLOAD DUP1 SWAP2 SUB SWAP1 REVERT JUMPDEST PUSH1 0x0 PUSH20 0xFFFFFFFFFFFFFFFFFFFFFFFFFFFFFFFFFFFFFFFF AND DUP3 PUSH20 0xFFFFFFFFFFFFFFFFFFFFFFFFFFFFFFFFFFFFFFFF AND SUB PUSH2 0xD7E JUMPI PUSH1 0x40 MLOAD PUSH32 0x8C379A000000000000000000000000000000000000000000000000000000000 DUP2 MSTORE PUSH1 0x4 ADD PUSH2 0xD75 SWAP1 PUSH2 0x2217 JUMP JUMPDEST PUSH1 0x40 MLOAD DUP1 SWAP2 SUB SWAP1 REVERT JUMPDEST DUP1 PUSH1 0x2 PUSH1 0x0 DUP6 PUSH20 0xFFFFFFFFFFFFFFFFFFFFFFFFFFFFFFFFFFFFFFFF AND PUSH20 0xFFFFFFFFFFFFFFFFFFFFFFFFFFFFFFFFFFFFFFFF AND DUP2 MSTORE PUSH1 0x20 ADD SWAP1 DUP2 MSTORE PUSH1 0x20 ADD PUSH1 0x0 KECCAK256 PUSH1 0x0 DUP5 PUSH20 0xFFFFFFFFFFFFFFFFFFFFFFFFFFFFFFFFFFFFFFFF AND PUSH20 0xFFFFFFFFFFFFFFFFFFFFFFFFFFFFFFFFFFFFFFFF AND DUP2 MSTORE PUSH1 0x20 ADD SWAP1 DUP2 MSTORE PUSH1 0x20 ADD PUSH1 0x0 KECCAK256 DUP2 SWAP1 SSTORE POP DUP2 PUSH20 0xFFFFFFFFFFFFFFFFFFFFFFFFFFFFFFFFFFFFFFFF AND DUP4 PUSH20 0xFFFFFFFFFFFFFFFFFFFFFFFFFFFFFFFFFFFFFFFF AND PUSH32 0x8C5BE1E5EBEC7D5BD14F71427D1E84F3DD0314C0F7B2291E5B200AC8C7C3B925 DUP4 PUSH1 0x40 MLOAD PUSH2 0xE5C SWAP2 SWAP1 PUSH2 0x1BB6 JUMP JUMPDEST PUSH1 0x40 MLOAD DUP1 SWAP2 SUB SWAP1 LOG3 POP POP POP JUMP JUMPDEST PUSH1 0x0 PUSH2 0xE75 DUP5 DUP5 PUSH2 0xBA7 JUMP JUMPDEST SWAP1 POP PUSH32 0xFFFFFFFFFFFFFFFFFFFFFFFFFFFFFFFFFFFFFFFFFFFFFFFFFFFFFFFFFFFFFFFF DUP2 EQ PUSH2 0xEEF JUMPI DUP2 DUP2 LT ISZERO PUSH2 0xEE1 JUMPI PUSH1 0x40 MLOAD PUSH32 0x8C379A000000000000000000000000000000000000000000000000000000000 DUP2 MSTORE PUSH1 0x4 ADD PUSH2 0xED8 SWAP1 PUSH2 0x2283 JUMP JUMPDEST PUSH1 0x40 MLOAD DUP1 SWAP2 SUB SWAP1 REVERT JUMPDEST PUSH2 0xEEE DUP5 DUP5 DUP5 DUP5 SUB PUSH2 0xCA0 JUMP JUMPDEST JUMPDEST POP POP POP POP JUMP JUMPDEST PUSH1 0x0 PUSH20 0xFFFFFFFFFFFFFFFFFFFFFFFFFFFFFFFFFFFFFFFF AND DUP4 PUSH20 0xFFFFFFFFFFFFFFFFFFFFFFFFFFFFFFFFFFFFFFFF AND SUB PUSH2 0xF64 JUMPI PUSH1 0x40 MLOAD PUSH32 0x8C379A000000000000000000000000000000000000000000000000000000000 DUP2 MSTORE PUSH1 0x4 ADD PUSH2 0xF5B SWAP1 PUSH2 0x2315 JUMP JUMPDEST PUSH1 0x40 MLOAD DUP1 SWAP2 SUB SWAP1 REVERT JUMPDEST PUSH1 0x0 PUSH20 0xFFFFFFFFFFFFFFFFFFFFFFFFFFFFFFFFFFFFFFFF AND DUP3 PUSH20 0xFFFFFFFFFFFFFFFFFFFFFFFFFFFFFFFFFFFFFFFF AND SUB PUSH2 0xFD3 JUMPI PUSH1 0x40 MLOAD PUSH32 0x8C379A000000000000000000000000000000000000000000000000000000000 DUP2 MSTORE PUSH1 0x4 ADD PUSH2 0xFCA SWAP1 PUSH2 0x23A7 JUMP JUMPDEST PUSH1 0x40 MLOAD DUP1 SWAP2 SUB SWAP1 REVERT JUMPDEST PUSH2 0xFDE DUP4 DUP4 DUP4 PUSH2 0x1669 JUMP JUMPDEST PUSH1 0x0 PUSH1 0x1 PUSH1 0x0 DUP6 PUSH20 0xFFFFFFFFFFFFFFFFFFFFFFFFFFFFFFFFFFFFFFFF AND PUSH20 0xFFFFFFFFFFFFFFFFFFFFFFFFFFFFFFFFFFFFFFFF AND DUP2 MSTORE PUSH1 0x20 ADD SWAP1 DUP2 MSTORE PUSH1 0x20 ADD PUSH1 0x0 KECCAK256 SLOAD SWAP1 POP DUP2 DUP2 LT ISZERO PUSH2 0x1065 JUMPI PUSH1 0x40 MLOAD PUSH32 0x8C379A000000000000000000000000000000000000000000000000000000000 DUP2 MSTORE PUSH1 0x4 ADD PUSH2 0x105C SWAP1 PUSH2 0x2439 JUMP JUMPDEST PUSH1 0x40 MLOAD DUP1 SWAP2 SUB SWAP1 REVERT JUMPDEST DUP2 DUP2 SUB PUSH1 0x1 PUSH1 0x0 DUP7 PUSH20 0xFFFFFFFFFFFFFFFFFFFFFFFFFFFFFFFFFFFFFFFF AND PUSH20 0xFFFFFFFFFFFFFFFFFFFFFFFFFFFFFFFFFFFFFFFF AND DUP2 MSTORE PUSH1 0x20 ADD SWAP1 DUP2 MSTORE PUSH1 0x20 ADD PUSH1 0x0 KECCAK256 DUP2 SWAP1 SSTORE POP DUP2 PUSH1 0x1 PUSH1 0x0 DUP6 PUSH20 0xFFFFFFFFFFFFFFFFFFFFFFFFFFFFFFFFFFFFFFFF AND PUSH20 0xFFFFFFFFFFFFFFFFFFFFFFFFFFFFFFFFFFFFFFFF AND DUP2 MSTORE PUSH1 0x20 ADD SWAP1 DUP2 MSTORE PUSH1 0x20 ADD PUSH1 0x0 KECCAK256 PUSH1 0x0 DUP3 DUP3 SLOAD ADD SWAP3 POP POP DUP2 SWAP1 SSTORE POP DUP3 PUSH20 0xFFFFFFFFFFFFFFFFFFFFFFFFFFFFFFFFFFFFFFFF AND DUP5 PUSH20 0xFFFFFFFFFFFFFFFFFFFFFFFFFFFFFFFFFFFFFFFF AND PUSH32 0xDDF252AD1BE2C89B69C2B068FC378DAA952BA7F163C4A11628F55A4DF523B3EF DUP5 PUSH1 0x40 MLOAD PUSH2 0x1155 SWAP2 SWAP1 PUSH2 0x1BB6 JUMP JUMPDEST PUSH1 0x40 MLOAD DUP1 SWAP2 SUB SWAP1 LOG3 PUSH2 0x1168 DUP5 DUP5 DUP5 PUSH2 0x166E JUMP JUMPDEST POP POP POP POP JUMP JUMPDEST PUSH2 0x117F DUP2 PUSH2 0x117A PUSH2 0xC98 JUMP JUMPDEST PUSH2 0x1673 JUMP JUMPDEST POP JUMP JUMPDEST PUSH2 0x118C DUP3 DUP3 PUSH2 0x885 JUMP JUMPDEST PUSH2 0x125E JUMPI PUSH1 0x1 PUSH1 0x0 DUP1 DUP5 DUP2 MSTORE PUSH1 0x20 ADD SWAP1 DUP2 MSTORE PUSH1 0x20 ADD PUSH1 0x0 KECCAK256 PUSH1 0x0 ADD PUSH1 0x0 DUP4 PUSH20 0xFFFFFFFFFFFFFFFFFFFFFFFFFFFFFFFFFFFFFFFF AND PUSH20 0xFFFFFFFFFFFFFFFFFFFFFFFFFFFFFFFFFFFFFFFF AND DUP2 MSTORE PUSH1 0x20 ADD SWAP1 DUP2 MSTORE PUSH1 0x20 ADD PUSH1 0x0 KECCAK256 PUSH1 0x0 PUSH2 0x100 EXP DUP2 SLOAD DUP2 PUSH1 0xFF MUL NOT AND SWAP1 DUP4 ISZERO ISZERO MUL OR SWAP1 SSTORE POP PUSH2 0x1203 PUSH2 0xC98 JUMP JUMPDEST PUSH20 0xFFFFFFFFFFFFFFFFFFFFFFFFFFFFFFFFFFFFFFFF AND DUP2 PUSH20 0xFFFFFFFFFFFFFFFFFFFFFFFFFFFFFFFFFFFFFFFF AND DUP4 PUSH32 0x2F8788117E7EFF1D82E926EC794901D17C78024A50270940304540A733656F0D PUSH1 0x40 MLOAD PUSH1 0x40 MLOAD DUP1 SWAP2 SUB SWAP1 LOG4 JUMPDEST POP POP JUMP JUMPDEST PUSH2 0x126C DUP3 DUP3 PUSH2 0x885 JUMP JUMPDEST ISZERO PUSH2 0x133F JUMPI PUSH1 0x0 DUP1 PUSH1 0x0 DUP5 DUP2 MSTORE PUSH1 0x20 ADD SWAP1 DUP2 MSTORE PUSH1 0x20 ADD PUSH1 0x0 KECCAK256 PUSH1 0x0 ADD PUSH1 0x0 DUP4 PUSH20 0xFFFFFFFFFFFFFFFFFFFFFFFFFFFFFFFFFFFFFFFF AND PUSH20 0xFFFFFFFFFFFFFFFFFFFFFFFFFFFFFFFFFFFFFFFF AND DUP2 MSTORE PUSH1 0x20 ADD SWAP1 DUP2 MSTORE PUSH1 0x20 ADD PUSH1 0x0 KECCAK256 PUSH1 0x0 PUSH2 0x100 EXP DUP2 SLOAD DUP2 PUSH1 0xFF MUL NOT AND SWAP1 DUP4 ISZERO ISZERO MUL OR SWAP1 SSTORE POP PUSH2 0x12E4 PUSH2 0xC98 JUMP JUMPDEST PUSH20 0xFFFFFFFFFFFFFFFFFFFFFFFFFFFFFFFFFFFFFFFF AND DUP2 PUSH20 0xFFFFFFFFFFFFFFFFFFFFFFFFFFFFFFFFFFFFFFFF AND DUP4 PUSH32 0xF6391F5C32D9C69D2A47EA670B442974B53935D1EDC7FD64EB21E047A839171B PUSH1 0x40 MLOAD PUSH1 0x40 MLOAD DUP1 SWAP2 SUB SWAP1 LOG4 JUMPDEST POP POP JUMP JUMPDEST PUSH1 0x0 PUSH20 0xFFFFFFFFFFFFFFFFFFFFFFFFFFFFFFFFFFFFFFFF AND DUP3 PUSH20 0xFFFFFFFFFFFFFFFFFFFFFFFFFFFFFFFFFFFFFFFF AND SUB PUSH2 0x13B2 JUMPI PUSH1 0x40 MLOAD PUSH32 0x8C379A000000000000000000000000000000000000000000000000000000000 DUP2 MSTORE PUSH1 0x4 ADD PUSH2 0x13A9 SWAP1 PUSH2 0x24A5 JUMP JUMPDEST PUSH1 0x40 MLOAD DUP1 SWAP2 SUB SWAP1 REVERT JUMPDEST PUSH2 0x13BE PUSH1 0x0 DUP4 DUP4 PUSH2 0x1669 JUMP JUMPDEST DUP1 PUSH1 0x3 PUSH1 0x0 DUP3 DUP3 SLOAD PUSH2 0x13D0 SWAP2 SWAP1 PUSH2 0x1EE3 JUMP JUMPDEST SWAP3 POP POP DUP2 SWAP1 SSTORE POP DUP1 PUSH1 0x1 PUSH1 0x0 DUP5 PUSH20 0xFFFFFFFFFFFFFFFFFFFFFFFFFFFFFFFFFFFFFFFF AND PUSH20 0xFFFFFFFFFFFFFFFFFFFFFFFFFFFFFFFFFFFFFFFF AND DUP2 MSTORE PUSH1 0x20 ADD SWAP1 DUP2 MSTORE PUSH1 0x20 ADD PUSH1 0x0 KECCAK256 PUSH1 0x0 DUP3 DUP3 SLOAD ADD SWAP3 POP POP DUP2 SWAP1 SSTORE POP DUP2 PUSH20 0xFFFFFFFFFFFFFFFFFFFFFFFFFFFFFFFFFFFFFFFF AND PUSH1 0x0 PUSH20 0xFFFFFFFFFFFFFFFFFFFFFFFFFFFFFFFFFFFFFFFF AND PUSH32 0xDDF252AD1BE2C89B69C2B068FC378DAA952BA7F163C4A11628F55A4DF523B3EF DUP4 PUSH1 0x40 MLOAD PUSH2 0x1482 SWAP2 SWAP1 PUSH2 0x1BB6 JUMP JUMPDEST PUSH1 0x40 MLOAD DUP1 SWAP2 SUB SWAP1 LOG3 PUSH2 0x1496 PUSH1 0x0 DUP4 DUP4 PUSH2 0x166E JUMP JUMPDEST POP POP JUMP JUMPDEST PUSH1 0x0 PUSH20 0xFFFFFFFFFFFFFFFFFFFFFFFFFFFFFFFFFFFFFFFF AND DUP3 PUSH20 0xFFFFFFFFFFFFFFFFFFFFFFFFFFFFFFFFFFFFFFFF AND SUB PUSH2 0x1509 JUMPI PUSH1 0x40 MLOAD PUSH32 0x8C379A000000000000000000000000000000000000000000000000000000000 DUP2 MSTORE PUSH1 0x4 ADD PUSH2 0x1500 SWAP1 PUSH2 0x2537 JUMP JUMPDEST PUSH1 0x40 MLOAD DUP1 SWAP2 SUB SWAP1 REVERT JUMPDEST PUSH2 0x1515 DUP3 PUSH1 0x0 DUP4 PUSH2 0x1669 JUMP JUMPDEST PUSH1 0x0 PUSH1 0x1 PUSH1 0x0 DUP5 PUSH20 0xFFFFFFFFFFFFFFFFFFFFFFFFFFFFFFFFFFFFFFFF AND PUSH20 0xFFFFFFFFFFFFFFFFFFFFFFFFFFFFFFFFFFFFFFFF AND DUP2 MSTORE PUSH1 0x20 ADD SWAP1 DUP2 MSTORE PUSH1 0x20 ADD PUSH1 0x0 KECCAK256 SLOAD SWAP1 POP DUP2 DUP2 LT ISZERO PUSH2 0x159C JUMPI PUSH1 0x40 MLOAD PUSH32 0x8C379A000000000000000000000000000000000000000000000000000000000 DUP2 MSTORE PUSH1 0x4 ADD PUSH2 0x1593 SWAP1 PUSH2 0x25C9 JUMP JUMPDEST PUSH1 0x40 MLOAD DUP1 SWAP2 SUB SWAP1 REVERT JUMPDEST DUP2 DUP2 SUB PUSH1 0x1 PUSH1 0x0 DUP6 PUSH20 0xFFFFFFFFFFFFFFFFFFFFFFFFFFFFFFFFFFFFFFFF AND PUSH20 0xFFFFFFFFFFFFFFFFFFFFFFFFFFFFFFFFFFFFFFFF AND DUP2 MSTORE PUSH1 0x20 ADD SWAP1 DUP2 MSTORE PUSH1 0x20 ADD PUSH1 0x0 KECCAK256 DUP2 SWAP1 SSTORE POP DUP2 PUSH1 0x3 PUSH1 0x0 DUP3 DUP3 SLOAD SUB SWAP3 POP POP DUP2 SWAP1 SSTORE POP PUSH1 0x0 PUSH20 0xFFFFFFFFFFFFFFFFFFFFFFFFFFFFFFFFFFFFFFFF AND DUP4 PUSH20 0xFFFFFFFFFFFFFFFFFFFFFFFFFFFFFFFFFFFFFFFF AND PUSH32 0xDDF252AD1BE2C89B69C2B068FC378DAA952BA7F163C4A11628F55A4DF523B3EF DUP5 PUSH1 0x40 MLOAD PUSH2 0x1650 SWAP2 SWAP1 PUSH2 0x1BB6 JUMP JUMPDEST PUSH1 0x40 MLOAD DUP1 SWAP2 SUB SWAP1 LOG3 PUSH2 0x1664 DUP4 PUSH1 0x0 DUP5 PUSH2 0x166E JUMP JUMPDEST POP POP POP JUMP JUMPDEST POP POP POP JUMP JUMPDEST POP POP POP JUMP JUMPDEST PUSH2 0x167D DUP3 DUP3 PUSH2 0x885 JUMP JUMPDEST PUSH2 0x16F4 JUMPI PUSH2 0x168A DUP2 PUSH2 0x16F8 JUMP JUMPDEST PUSH2 0x1698 DUP4 PUSH1 0x0 SHR PUSH1 0x20 PUSH2 0x1725 JUMP JUMPDEST PUSH1 0x40 MLOAD PUSH1 0x20 ADD PUSH2 0x16A9 SWAP3 SWAP2 SWAP1 PUSH2 0x26B2 JUMP JUMPDEST PUSH1 0x40 MLOAD PUSH1 0x20 DUP2 DUP4 SUB SUB DUP2 MSTORE SWAP1 PUSH1 0x40 MSTORE PUSH1 0x40 MLOAD PUSH32 0x8C379A000000000000000000000000000000000000000000000000000000000 DUP2 MSTORE PUSH1 0x4 ADD PUSH2 0x16EB SWAP2 SWAP1 PUSH2 0x1AB1 JUMP JUMPDEST PUSH1 0x40 MLOAD DUP1 SWAP2 SUB SWAP1 REVERT JUMPDEST POP POP JUMP JUMPDEST PUSH1 0x60 PUSH2 0x171E DUP3 PUSH20 0xFFFFFFFFFFFFFFFFFFFFFFFFFFFFFFFFFFFFFFFF AND PUSH1 0x14 PUSH1 0xFF AND PUSH2 0x1725 JUMP JUMPDEST SWAP1 POP SWAP2 SWAP1 POP JUMP JUMPDEST PUSH1 0x60 PUSH1 0x0 PUSH1 0x2 DUP4 PUSH1 0x2 PUSH2 0x1738 SWAP2 SWAP1 PUSH2 0x26EC JUMP JUMPDEST PUSH2 0x1742 SWAP2 SWAP1 PUSH2 0x1EE3 JUMP JUMPDEST PUSH8 0xFFFFFFFFFFFFFFFF DUP2 GT ISZERO PUSH2 0x175B JUMPI PUSH2 0x175A PUSH2 0x272E JUMP JUMPDEST JUMPDEST PUSH1 0x40 MLOAD SWAP1 DUP1 DUP3 MSTORE DUP1 PUSH1 0x1F ADD PUSH1 0x1F NOT AND PUSH1 0x20 ADD DUP3 ADD PUSH1 0x40 MSTORE DUP1 ISZERO PUSH2 0x178D JUMPI DUP2 PUSH1 0x20 ADD PUSH1 0x1 DUP3 MUL DUP1 CALLDATASIZE DUP4 CALLDATACOPY DUP1 DUP3 ADD SWAP2 POP POP SWAP1 POP JUMPDEST POP SWAP1 POP PUSH32 0x3000000000000000000000000000000000000000000000000000000000000000 DUP2 PUSH1 0x0 DUP2 MLOAD DUP2 LT PUSH2 0x17C5 JUMPI PUSH2 0x17C4 PUSH2 0x275D JUMP JUMPDEST JUMPDEST PUSH1 0x20 ADD ADD SWAP1 PUSH31 0xFFFFFFFFFFFFFFFFFFFFFFFFFFFFFFFFFFFFFFFFFFFFFFFFFFFFFFFFFFFFFF NOT AND SWAP1 DUP2 PUSH1 0x0 BYTE SWAP1 MSTORE8 POP PUSH32 0x7800000000000000000000000000000000000000000000000000000000000000 DUP2 PUSH1 0x1 DUP2 MLOAD DUP2 LT PUSH2 0x1829 JUMPI PUSH2 0x1828 PUSH2 0x275D JUMP JUMPDEST JUMPDEST PUSH1 0x20 ADD ADD SWAP1 PUSH31 0xFFFFFFFFFFFFFFFFFFFFFFFFFFFFFFFFFFFFFFFFFFFFFFFFFFFFFFFFFFFFFF NOT AND SWAP1 DUP2 PUSH1 0x0 BYTE SWAP1 MSTORE8 POP PUSH1 0x0 PUSH1 0x1 DUP5 PUSH1 0x2 PUSH2 0x1869 SWAP2 SWAP1 PUSH2 0x26EC JUMP JUMPDEST PUSH2 0x1873 SWAP2 SWAP1 PUSH2 0x1EE3 JUMP JUMPDEST SWAP1 POP JUMPDEST PUSH1 0x1 DUP2 GT ISZERO PUSH2 0x1913 JUMPI PUSH32 0x3031323334353637383961626364656600000000000000000000000000000000 PUSH1 0xF DUP7 AND PUSH1 0x10 DUP2 LT PUSH2 0x18B5 JUMPI PUSH2 0x18B4 PUSH2 0x275D JUMP JUMPDEST JUMPDEST BYTE PUSH1 0xF8 SHL DUP3 DUP3 DUP2 MLOAD DUP2 LT PUSH2 0x18CC JUMPI PUSH2 0x18CB PUSH2 0x275D JUMP JUMPDEST JUMPDEST PUSH1 0x20 ADD ADD SWAP1 PUSH31 0xFFFFFFFFFFFFFFFFFFFFFFFFFFFFFFFFFFFFFFFFFFFFFFFFFFFFFFFFFFFFFF NOT AND SWAP1 DUP2 PUSH1 0x0 BYTE SWAP1 MSTORE8 POP PUSH1 0x4 DUP6 SWAP1 SHR SWAP5 POP DUP1 PUSH2 0x190C SWAP1 PUSH2 0x278C JUMP JUMPDEST SWAP1 POP PUSH2 0x1876 JUMP JUMPDEST POP PUSH1 0x0 DUP5 EQ PUSH2 0x1957 JUMPI PUSH1 0x40 MLOAD PUSH32 0x8C379A000000000000000000000000000000000000000000000000000000000 DUP2 MSTORE PUSH1 0x4 ADD PUSH2 0x194E SWAP1 PUSH2 0x2801 JUMP JUMPDEST PUSH1 0x40 MLOAD DUP1 SWAP2 SUB SWAP1 REVERT JUMPDEST DUP1 SWAP2 POP POP SWAP3 SWAP2 POP POP JUMP JUMPDEST PUSH1 0x0 DUP1 REVERT JUMPDEST PUSH1 0x0 PUSH32 0xFFFFFFFF00000000000000000000000000000000000000000000000000000000 DUP3 AND SWAP1 POP SWAP2 SWAP1 POP JUMP JUMPDEST PUSH2 0x199B DUP2 PUSH2 0x1966 JUMP JUMPDEST DUP2 EQ PUSH2 0x19A6 JUMPI PUSH1 0x0 DUP1 REVERT JUMPDEST POP JUMP JUMPDEST PUSH1 0x0 DUP2 CALLDATALOAD SWAP1 POP PUSH2 0x19B8 DUP2 PUSH2 0x1992 JUMP JUMPDEST SWAP3 SWAP2 POP POP JUMP JUMPDEST PUSH1 0x0 PUSH1 0x20 DUP3 DUP5 SUB SLT ISZERO PUSH2 0x19D4 JUMPI PUSH2 0x19D3 PUSH2 0x1961 JUMP JUMPDEST JUMPDEST PUSH1 0x0 PUSH2 0x19E2 DUP5 DUP3 DUP6 ADD PUSH2 0x19A9 JUMP JUMPDEST SWAP2 POP POP SWAP3 SWAP2 POP POP JUMP JUMPDEST PUSH1 0x0 DUP2 ISZERO ISZERO SWAP1 POP SWAP2 SWAP1 POP JUMP JUMPDEST PUSH2 0x1A00 DUP2 PUSH2 0x19EB JUMP JUMPDEST DUP3 MSTORE POP POP JUMP JUMPDEST PUSH1 0x0 PUSH1 0x20 DUP3 ADD SWAP1 POP PUSH2 0x1A1B PUSH1 0x0 DUP4 ADD DUP5 PUSH2 0x19F7 JUMP JUMPDEST SWAP3 SWAP2 POP POP JUMP JUMPDEST PUSH1 0x0 DUP2 MLOAD SWAP1 POP SWAP2 SWAP1 POP JUMP JUMPDEST PUSH1 0x0 DUP3 DUP3 MSTORE PUSH1 0x20 DUP3 ADD SWAP1 POP SWAP3 SWAP2 POP POP JUMP JUMPDEST PUSH1 0x0 JUMPDEST DUP4 DUP2 LT ISZERO PUSH2 0x1A5B JUMPI DUP1 DUP3 ADD MLOAD DUP2 DUP5 ADD MSTORE PUSH1 0x20 DUP2 ADD SWAP1 POP PUSH2 0x1A40 JUMP JUMPDEST PUSH1 0x0 DUP5 DUP5 ADD MSTORE POP POP POP POP JUMP JUMPDEST PUSH1 0x0 PUSH1 0x1F NOT PUSH1 0x1F DUP4 ADD AND SWAP1 POP SWAP2 SWAP1 POP JUMP JUMPDEST PUSH1 0x0 PUSH2 0x1A83 DUP3 PUSH2 0x1A21 JUMP JUMPDEST PUSH2 0x1A8D DUP2 DUP6 PUSH2 0x1A2C JUMP JUMPDEST SWAP4 POP PUSH2 0x1A9D DUP2 DUP6 PUSH1 0x20 DUP7 ADD PUSH2 0x1A3D JUMP JUMPDEST PUSH2 0x1AA6 DUP2 PUSH2 0x1A67 JUMP JUMPDEST DUP5 ADD SWAP2 POP POP SWAP3 SWAP2 POP POP JUMP JUMPDEST PUSH1 0x0 PUSH1 0x20 DUP3 ADD SWAP1 POP DUP2 DUP2 SUB PUSH1 0x0 DUP4 ADD MSTORE PUSH2 0x1ACB DUP2 DUP5 PUSH2 0x1A78 JUMP JUMPDEST SWAP1 POP SWAP3 SWAP2 POP POP JUMP JUMPDEST PUSH1 0x0 PUSH20 0xFFFFFFFFFFFFFFFFFFFFFFFFFFFFFFFFFFFFFFFF DUP3 AND SWAP1 POP SWAP2 SWAP1 POP JUMP JUMPDEST PUSH1 0x0 PUSH2 0x1AFE DUP3 PUSH2 0x1AD3 JUMP JUMPDEST SWAP1 POP SWAP2 SWAP1 POP JUMP JUMPDEST PUSH2 0x1B0E DUP2 PUSH2 0x1AF3 JUMP JUMPDEST DUP2 EQ PUSH2 0x1B19 JUMPI PUSH1 0x0 DUP1 REVERT JUMPDEST POP JUMP JUMPDEST PUSH1 0x0 DUP2 CALLDATALOAD SWAP1 POP PUSH2 0x1B2B DUP2 PUSH2 0x1B05 JUMP JUMPDEST SWAP3 SWAP2 POP POP JUMP JUMPDEST PUSH1 0x0 DUP2 SWAP1 POP SWAP2 SWAP1 POP JUMP JUMPDEST PUSH2 0x1B44 DUP2 PUSH2 0x1B31 JUMP JUMPDEST DUP2 EQ PUSH2 0x1B4F JUMPI PUSH1 0x0 DUP1 REVERT JUMPDEST POP JUMP JUMPDEST PUSH1 0x0 DUP2 CALLDATALOAD SWAP1 POP PUSH2 0x1B61 DUP2 PUSH2 0x1B3B JUMP JUMPDEST SWAP3 SWAP2 POP POP JUMP JUMPDEST PUSH1 0x0 DUP1 PUSH1 0x40 DUP4 DUP6 SUB SLT ISZERO PUSH2 0x1B7E JUMPI PUSH2 0x1B7D PUSH2 0x1961 JUMP JUMPDEST JUMPDEST PUSH1 0x0 PUSH2 0x1B8C DUP6 DUP3 DUP7 ADD PUSH2 0x1B1C JUMP JUMPDEST SWAP3 POP POP PUSH1 0x20 PUSH2 0x1B9D DUP6 DUP3 DUP7 ADD PUSH2 0x1B52 JUMP JUMPDEST SWAP2 POP POP SWAP3 POP SWAP3 SWAP1 POP JUMP JUMPDEST PUSH2 0x1BB0 DUP2 PUSH2 0x1B31 JUMP JUMPDEST DUP3 MSTORE POP POP JUMP JUMPDEST PUSH1 0x0 PUSH1 0x20 DUP3 ADD SWAP1 POP PUSH2 0x1BCB PUSH1 0x0 DUP4 ADD DUP5 PUSH2 0x1BA7 JUMP JUMPDEST SWAP3 SWAP2 POP POP JUMP JUMPDEST PUSH1 0x0 DUP1 PUSH1 0x0 PUSH1 0x60 DUP5 DUP7 SUB SLT ISZERO PUSH2 0x1BEA JUMPI PUSH2 0x1BE9 PUSH2 0x1961 JUMP JUMPDEST JUMPDEST PUSH1 0x0 PUSH2 0x1BF8 DUP7 DUP3 DUP8 ADD PUSH2 0x1B1C JUMP JUMPDEST SWAP4 POP POP PUSH1 0x20 PUSH2 0x1C09 DUP7 DUP3 DUP8 ADD PUSH2 0x1B1C JUMP JUMPDEST SWAP3 POP POP PUSH1 0x40 PUSH2 0x1C1A DUP7 DUP3 DUP8 ADD PUSH2 0x1B52 JUMP JUMPDEST SWAP2 POP POP SWAP3 POP SWAP3 POP SWAP3 JUMP JUMPDEST PUSH1 0x0 DUP2 SWAP1 POP SWAP2 SWAP1 POP JUMP JUMPDEST PUSH2 0x1C37 DUP2 PUSH2 0x1C24 JUMP JUMPDEST DUP2 EQ PUSH2 0x1C42 JUMPI PUSH1 0x0 DUP1 REVERT JUMPDEST POP JUMP JUMPDEST PUSH1 0x0 DUP2 CALLDATALOAD SWAP1 POP PUSH2 0x1C54 DUP2 PUSH2 0x1C2E JUMP JUMPDEST SWAP3 SWAP2 POP POP JUMP JUMPDEST PUSH1 0x0 PUSH1 0x20 DUP3 DUP5 SUB SLT ISZERO PUSH2 0x1C70 JUMPI PUSH2 0x1C6F PUSH2 0x1961 JUMP JUMPDEST JUMPDEST PUSH1 0x0 PUSH2 0x1C7E DUP5 DUP3 DUP6 ADD PUSH2 0x1C45 JUMP JUMPDEST SWAP2 POP POP SWAP3 SWAP2 POP POP JUMP JUMPDEST PUSH2 0x1C90 DUP2 PUSH2 0x1C24 JUMP JUMPDEST DUP3 MSTORE POP POP JUMP JUMPDEST PUSH1 0x0 PUSH1 0x20 DUP3 ADD SWAP1 POP PUSH2 0x1CAB PUSH1 0x0 DUP4 ADD DUP5 PUSH2 0x1C87 JUMP JUMPDEST SWAP3 SWAP2 POP POP JUMP JUMPDEST PUSH1 0x0 DUP1 PUSH1 0x40 DUP4 DUP6 SUB SLT ISZERO PUSH2 0x1CC8 JUMPI PUSH2 0x1CC7 PUSH2 0x1961 JUMP JUMPDEST JUMPDEST PUSH1 0x0 PUSH2 0x1CD6 DUP6 DUP3 DUP7 ADD PUSH2 0x1C45 JUMP JUMPDEST SWAP3 POP POP PUSH1 0x20 PUSH2 0x1CE7 DUP6 DUP3 DUP7 ADD PUSH2 0x1B1C JUMP JUMPDEST SWAP2 POP POP SWAP3 POP SWAP3 SWAP1 POP JUMP JUMPDEST PUSH1 0x0 PUSH1 0xFF DUP3 AND SWAP1 POP SWAP2 SWAP1 POP JUMP JUMPDEST PUSH2 0x1D07 DUP2 PUSH2 0x1CF1 JUMP JUMPDEST DUP3 MSTORE POP POP JUMP JUMPDEST PUSH1 0x0 PUSH1 0x20 DUP3 ADD SWAP1 POP PUSH2 0x1D22 PUSH1 0x0 DUP4 ADD DUP5 PUSH2 0x1CFE JUMP JUMPDEST SWAP3 SWAP2 POP POP JUMP JUMPDEST PUSH1 0x0 PUSH1 0x20 DUP3 DUP5 SUB SLT ISZERO PUSH2 0x1D3E JUMPI PUSH2 0x1D3D PUSH2 0x1961 JUMP JUMPDEST JUMPDEST PUSH1 0x0 PUSH2 0x1D4C DUP5 DUP3 DUP6 ADD PUSH2 0x1B52 JUMP JUMPDEST SWAP2 POP POP SWAP3 SWAP2 POP POP JUMP JUMPDEST PUSH1 0x0 PUSH1 0x20 DUP3 DUP5 SUB SLT ISZERO PUSH2 0x1D6B JUMPI PUSH2 0x1D6A PUSH2 0x1961 JUMP JUMPDEST JUMPDEST PUSH1 0x0 PUSH2 0x1D79 DUP5 DUP3 DUP6 ADD PUSH2 0x1B1C JUMP JUMPDEST SWAP2 POP POP SWAP3 SWAP2 POP POP JUMP JUMPDEST PUSH1 0x0 DUP1 PUSH1 0x40 DUP4 DUP6 SUB SLT ISZERO PUSH2 0x1D99 JUMPI PUSH2 0x1D98 PUSH2 0x1961 JUMP JUMPDEST JUMPDEST PUSH1 0x0 PUSH2 0x1DA7 DUP6 DUP3 DUP7 ADD PUSH2 0x1B1C JUMP JUMPDEST SWAP3 POP POP PUSH1 0x20 PUSH2 0x1DB8 DUP6 DUP3 DUP7 ADD PUSH2 0x1B1C JUMP JUMPDEST SWAP2 POP POP SWAP3 POP SWAP3 SWAP1 POP JUMP JUMPDEST PUSH32 0x4E487B7100000000000000000000000000000000000000000000000000000000 PUSH1 0x0 MSTORE PUSH1 0x22 PUSH1 0x4 MSTORE PUSH1 0x24 PUSH1 0x0 REVERT JUMPDEST PUSH1 0x0 PUSH1 0x2 DUP3 DIV SWAP1 POP PUSH1 0x1 DUP3 AND DUP1 PUSH2 0x1E09 JUMPI PUSH1 0x7F DUP3 AND SWAP2 POP JUMPDEST PUSH1 0x20 DUP3 LT DUP2 SUB PUSH2 0x1E1C JUMPI PUSH2 0x1E1B PUSH2 0x1DC2 JUMP JUMPDEST JUMPDEST POP SWAP2 SWAP1 POP JUMP JUMPDEST PUSH32 0x416363657373436F6E74726F6C3A2063616E206F6E6C792072656E6F756E6365 PUSH1 0x0 DUP3 ADD MSTORE PUSH32 0x20726F6C657320666F722073656C660000000000000000000000000000000000 PUSH1 0x20 DUP3 ADD MSTORE POP JUMP JUMPDEST PUSH1 0x0 PUSH2 0x1E7E PUSH1 0x2F DUP4 PUSH2 0x1A2C JUMP JUMPDEST SWAP2 POP PUSH2 0x1E89 DUP3 PUSH2 0x1E22 JUMP JUMPDEST PUSH1 0x40 DUP3 ADD SWAP1 POP SWAP2 SWAP1 POP JUMP JUMPDEST PUSH1 0x0 PUSH1 0x20 DUP3 ADD SWAP1 POP DUP2 DUP2 SUB PUSH1 0x0 DUP4 ADD MSTORE PUSH2 0x1EAD DUP2 PUSH2 0x1E71 JUMP JUMPDEST SWAP1 POP SWAP2 SWAP1 POP JUMP JUMPDEST PUSH32 0x4E487B7100000000000000000000000000000000000000000000000000000000 PUSH1 0x0 MSTORE PUSH1 0x11 PUSH1 0x4 MSTORE PUSH1 0x24 PUSH1 0x0 REVERT JUMPDEST PUSH1 0x0 PUSH2 0x1EEE DUP3 PUSH2 0x1B31 JUMP JUMPDEST SWAP2 POP PUSH2 0x1EF9 DUP4 PUSH2 0x1B31 JUMP JUMPDEST SWAP3 POP DUP3 DUP3 ADD SWAP1 POP DUP1 DUP3 GT ISZERO PUSH2 0x1F11 JUMPI PUSH2 0x1F10 PUSH2 0x1EB4 JUMP JUMPDEST JUMPDEST SWAP3 SWAP2 POP POP JUMP JUMPDEST PUSH1 0x0 DUP2 SWAP1 POP SWAP3 SWAP2 POP POP JUMP JUMPDEST PUSH32 0x43616C6C65720000000000000000000000000000000000000000000000000000 PUSH1 0x0 DUP3 ADD MSTORE POP JUMP JUMPDEST PUSH1 0x0 PUSH2 0x1F58 PUSH1 0x6 DUP4 PUSH2 0x1F17 JUMP JUMPDEST SWAP2 POP PUSH2 0x1F63 DUP3 PUSH2 0x1F22 JUMP JUMPDEST PUSH1 0x6 DUP3 ADD SWAP1 POP SWAP2 SWAP1 POP JUMP JUMPDEST PUSH1 0x0 PUSH2 0x1F79 DUP3 PUSH2 0x1F4B JUMP JUMPDEST SWAP2 POP DUP2 SWAP1 POP SWAP2 SWAP1 POP JUMP JUMPDEST PUSH32 0x45524332303A2064656372656173656420616C6C6F77616E63652062656C6F77 PUSH1 0x0 DUP3 ADD MSTORE PUSH32 0x207A65726F000000000000000000000000000000000000000000000000000000 PUSH1 0x20 DUP3 ADD MSTORE POP JUMP JUMPDEST PUSH1 0x0 PUSH2 0x1FDF PUSH1 0x25 DUP4 PUSH2 0x1A2C JUMP JUMPDEST SWAP2 POP PUSH2 0x1FEA DUP3 PUSH2 0x1F83 JUMP JUMPDEST PUSH1 0x40 DUP3 ADD SWAP1 POP SWAP2 SWAP1 POP JUMP JUMPDEST PUSH1 0x0 PUSH1 0x20 DUP3 ADD SWAP1 POP DUP2 DUP2 SUB PUSH1 0x0 DUP4 ADD MSTORE PUSH2 0x200E DUP2 PUSH2 0x1FD2 JUMP JUMPDEST SWAP1 POP SWAP2 SWAP1 POP JUMP JUMPDEST PUSH32 0x73485944543A2063616C6C6572206973206E6F742074686520696E697469616C PUSH1 0x0 DUP3 ADD MSTORE PUSH32 0x697A657200000000000000000000000000000000000000000000000000000000 PUSH1 0x20 DUP3 ADD MSTORE POP JUMP JUMPDEST PUSH1 0x0 PUSH2 0x2071 PUSH1 0x24 DUP4 PUSH2 0x1A2C JUMP JUMPDEST SWAP2 POP PUSH2 0x207C DUP3 PUSH2 0x2015 JUMP JUMPDEST PUSH1 0x40 DUP3 ADD SWAP1 POP SWAP2 SWAP1 POP JUMP JUMPDEST PUSH1 0x0 PUSH1 0x20 DUP3 ADD SWAP1 POP DUP2 DUP2 SUB PUSH1 0x0 DUP4 ADD MSTORE PUSH2 0x20A0 DUP2 PUSH2 0x2064 JUMP JUMPDEST SWAP1 POP SWAP2 SWAP1 POP JUMP JUMPDEST PUSH32 0x73485944543A20696E76616C6964204561726E20616464726573730000000000 PUSH1 0x0 DUP3 ADD MSTORE POP JUMP JUMPDEST PUSH1 0x0 PUSH2 0x20DD PUSH1 0x1B DUP4 PUSH2 0x1A2C JUMP JUMPDEST SWAP2 POP PUSH2 0x20E8 DUP3 PUSH2 0x20A7 JUMP JUMPDEST PUSH1 0x20 DUP3 ADD SWAP1 POP SWAP2 SWAP1 POP JUMP JUMPDEST PUSH1 0x0 PUSH1 0x20 DUP3 ADD SWAP1 POP DUP2 DUP2 SUB PUSH1 0x0 DUP4 ADD MSTORE PUSH2 0x210C DUP2 PUSH2 0x20D0 JUMP JUMPDEST SWAP1 POP SWAP2 SWAP1 POP JUMP JUMPDEST PUSH32 0x45524332303A20617070726F76652066726F6D20746865207A65726F20616464 PUSH1 0x0 DUP3 ADD MSTORE PUSH32 0x7265737300000000000000000000000000000000000000000000000000000000 PUSH1 0x20 DUP3 ADD MSTORE POP JUMP JUMPDEST PUSH1 0x0 PUSH2 0x216F PUSH1 0x24 DUP4 PUSH2 0x1A2C JUMP JUMPDEST SWAP2 POP PUSH2 0x217A DUP3 PUSH2 0x2113 JUMP JUMPDEST PUSH1 0x40 DUP3 ADD SWAP1 POP SWAP2 SWAP1 POP JUMP JUMPDEST PUSH1 0x0 PUSH1 0x20 DUP3 ADD SWAP1 POP DUP2 DUP2 SUB PUSH1 0x0 DUP4 ADD MSTORE PUSH2 0x219E DUP2 PUSH2 0x2162 JUMP JUMPDEST SWAP1 POP SWAP2 SWAP1 POP JUMP JUMPDEST PUSH32 0x45524332303A20617070726F766520746F20746865207A65726F206164647265 PUSH1 0x0 DUP3 ADD MSTORE PUSH32 0x7373000000000000000000000000000000000000000000000000000000000000 PUSH1 0x20 DUP3 ADD MSTORE POP JUMP JUMPDEST PUSH1 0x0 PUSH2 0x2201 PUSH1 0x22 DUP4 PUSH2 0x1A2C JUMP JUMPDEST SWAP2 POP PUSH2 0x220C DUP3 PUSH2 0x21A5 JUMP JUMPDEST PUSH1 0x40 DUP3 ADD SWAP1 POP SWAP2 SWAP1 POP JUMP JUMPDEST PUSH1 0x0 PUSH1 0x20 DUP3 ADD SWAP1 POP DUP2 DUP2 SUB PUSH1 0x0 DUP4 ADD MSTORE PUSH2 0x2230 DUP2 PUSH2 0x21F4 JUMP JUMPDEST SWAP1 POP SWAP2 SWAP1 POP JUMP JUMPDEST PUSH32 0x45524332303A20696E73756666696369656E7420616C6C6F77616E6365000000 PUSH1 0x0 DUP3 ADD MSTORE POP JUMP JUMPDEST PUSH1 0x0 PUSH2 0x226D PUSH1 0x1D DUP4 PUSH2 0x1A2C JUMP JUMPDEST SWAP2 POP PUSH2 0x2278 DUP3 PUSH2 0x2237 JUMP JUMPDEST PUSH1 0x20 DUP3 ADD SWAP1 POP SWAP2 SWAP1 POP JUMP JUMPDEST PUSH1 0x0 PUSH1 0x20 DUP3 ADD SWAP1 POP DUP2 DUP2 SUB PUSH1 0x0 DUP4 ADD MSTORE PUSH2 0x229C DUP2 PUSH2 0x2260 JUMP JUMPDEST SWAP1 POP SWAP2 SWAP1 POP JUMP JUMPDEST PUSH32 0x45524332303A207472616E736665722066726F6D20746865207A65726F206164 PUSH1 0x0 DUP3 ADD MSTORE PUSH32 0x6472657373000000000000000000000000000000000000000000000000000000 PUSH1 0x20 DUP3 ADD MSTORE POP JUMP JUMPDEST PUSH1 0x0 PUSH2 0x22FF PUSH1 0x25 DUP4 PUSH2 0x1A2C JUMP JUMPDEST SWAP2 POP PUSH2 0x230A DUP3 PUSH2 0x22A3 JUMP JUMPDEST PUSH1 0x40 DUP3 ADD SWAP1 POP SWAP2 SWAP1 POP JUMP JUMPDEST PUSH1 0x0 PUSH1 0x20 DUP3 ADD SWAP1 POP DUP2 DUP2 SUB PUSH1 0x0 DUP4 ADD MSTORE PUSH2 0x232E DUP2 PUSH2 0x22F2 JUMP JUMPDEST SWAP1 POP SWAP2 SWAP1 POP JUMP JUMPDEST PUSH32 0x45524332303A207472616E7366657220746F20746865207A65726F2061646472 PUSH1 0x0 DUP3 ADD MSTORE PUSH32 0x6573730000000000000000000000000000000000000000000000000000000000 PUSH1 0x20 DUP3 ADD MSTORE POP JUMP JUMPDEST PUSH1 0x0 PUSH2 0x2391 PUSH1 0x23 DUP4 PUSH2 0x1A2C JUMP JUMPDEST SWAP2 POP PUSH2 0x239C DUP3 PUSH2 0x2335 JUMP JUMPDEST PUSH1 0x40 DUP3 ADD SWAP1 POP SWAP2 SWAP1 POP JUMP JUMPDEST PUSH1 0x0 PUSH1 0x20 DUP3 ADD SWAP1 POP DUP2 DUP2 SUB PUSH1 0x0 DUP4 ADD MSTORE PUSH2 0x23C0 DUP2 PUSH2 0x2384 JUMP JUMPDEST SWAP1 POP SWAP2 SWAP1 POP JUMP JUMPDEST PUSH32 0x45524332303A207472616E7366657220616D6F756E7420657863656564732062 PUSH1 0x0 DUP3 ADD MSTORE PUSH32 0x616C616E63650000000000000000000000000000000000000000000000000000 PUSH1 0x20 DUP3 ADD MSTORE POP JUMP JUMPDEST PUSH1 0x0 PUSH2 0x2423 PUSH1 0x26 DUP4 PUSH2 0x1A2C JUMP JUMPDEST SWAP2 POP PUSH2 0x242E DUP3 PUSH2 0x23C7 JUMP JUMPDEST PUSH1 0x40 DUP3 ADD SWAP1 POP SWAP2 SWAP1 POP JUMP JUMPDEST PUSH1 0x0 PUSH1 0x20 DUP3 ADD SWAP1 POP DUP2 DUP2 SUB PUSH1 0x0 DUP4 ADD MSTORE PUSH2 0x2452 DUP2 PUSH2 0x2416 JUMP JUMPDEST SWAP1 POP SWAP2 SWAP1 POP JUMP JUMPDEST PUSH32 0x45524332303A206D696E7420746F20746865207A65726F206164647265737300 PUSH1 0x0 DUP3 ADD MSTORE POP JUMP JUMPDEST PUSH1 0x0 PUSH2 0x248F PUSH1 0x1F DUP4 PUSH2 0x1A2C JUMP JUMPDEST SWAP2 POP PUSH2 0x249A DUP3 PUSH2 0x2459 JUMP JUMPDEST PUSH1 0x20 DUP3 ADD SWAP1 POP SWAP2 SWAP1 POP JUMP JUMPDEST PUSH1 0x0 PUSH1 0x20 DUP3 ADD SWAP1 POP DUP2 DUP2 SUB PUSH1 0x0 DUP4 ADD MSTORE PUSH2 0x24BE DUP2 PUSH2 0x2482 JUMP JUMPDEST SWAP1 POP SWAP2 SWAP1 POP JUMP JUMPDEST PUSH32 0x45524332303A206275726E2066726F6D20746865207A65726F20616464726573 PUSH1 0x0 DUP3 ADD MSTORE PUSH32 0x7300000000000000000000000000000000000000000000000000000000000000 PUSH1 0x20 DUP3 ADD MSTORE POP JUMP JUMPDEST PUSH1 0x0 PUSH2 0x2521 PUSH1 0x21 DUP4 PUSH2 0x1A2C JUMP JUMPDEST SWAP2 POP PUSH2 0x252C DUP3 PUSH2 0x24C5 JUMP JUMPDEST PUSH1 0x40 DUP3 ADD SWAP1 POP SWAP2 SWAP1 POP JUMP JUMPDEST PUSH1 0x0 PUSH1 0x20 DUP3 ADD SWAP1 POP DUP2 DUP2 SUB PUSH1 0x0 DUP4 ADD MSTORE PUSH2 0x2550 DUP2 PUSH2 0x2514 JUMP JUMPDEST SWAP1 POP SWAP2 SWAP1 POP JUMP JUMPDEST PUSH32 0x45524332303A206275726E20616D6F756E7420657863656564732062616C616E PUSH1 0x0 DUP3 ADD MSTORE PUSH32 0x6365000000000000000000000000000000000000000000000000000000000000 PUSH1 0x20 DUP3 ADD MSTORE POP JUMP JUMPDEST PUSH1 0x0 PUSH2 0x25B3 PUSH1 0x22 DUP4 PUSH2 0x1A2C JUMP JUMPDEST SWAP2 POP PUSH2 0x25BE DUP3 PUSH2 0x2557 JUMP JUMPDEST PUSH1 0x40 DUP3 ADD SWAP1 POP SWAP2 SWAP1 POP JUMP JUMPDEST PUSH1 0x0 PUSH1 0x20 DUP3 ADD SWAP1 POP DUP2 DUP2 SUB PUSH1 0x0 DUP4 ADD MSTORE PUSH2 0x25E2 DUP2 PUSH2 0x25A6 JUMP JUMPDEST SWAP1 POP SWAP2 SWAP1 POP JUMP JUMPDEST PUSH32 0x416363657373436F6E74726F6C3A206163636F756E7420000000000000000000 PUSH1 0x0 DUP3 ADD MSTORE POP JUMP JUMPDEST PUSH1 0x0 PUSH2 0x261F PUSH1 0x17 DUP4 PUSH2 0x1F17 JUMP JUMPDEST SWAP2 POP PUSH2 0x262A DUP3 PUSH2 0x25E9 JUMP JUMPDEST PUSH1 0x17 DUP3 ADD SWAP1 POP SWAP2 SWAP1 POP JUMP JUMPDEST PUSH1 0x0 PUSH2 0x2640 DUP3 PUSH2 0x1A21 JUMP JUMPDEST PUSH2 0x264A DUP2 DUP6 PUSH2 0x1F17 JUMP JUMPDEST SWAP4 POP PUSH2 0x265A DUP2 DUP6 PUSH1 0x20 DUP7 ADD PUSH2 0x1A3D JUMP JUMPDEST DUP1 DUP5 ADD SWAP2 POP POP SWAP3 SWAP2 POP POP JUMP JUMPDEST PUSH32 0x206973206D697373696E6720726F6C6520000000000000000000000000000000 PUSH1 0x0 DUP3 ADD MSTORE POP JUMP JUMPDEST PUSH1 0x0 PUSH2 0x269C PUSH1 0x11 DUP4 PUSH2 0x1F17 JUMP JUMPDEST SWAP2 POP PUSH2 0x26A7 DUP3 PUSH2 0x2666 JUMP JUMPDEST PUSH1 0x11 DUP3 ADD SWAP1 POP SWAP2 SWAP1 POP JUMP JUMPDEST PUSH1 0x0 PUSH2 0x26BD DUP3 PUSH2 0x2612 JUMP JUMPDEST SWAP2 POP PUSH2 0x26C9 DUP3 DUP6 PUSH2 0x2635 JUMP JUMPDEST SWAP2 POP PUSH2 0x26D4 DUP3 PUSH2 0x268F JUMP JUMPDEST SWAP2 POP PUSH2 0x26E0 DUP3 DUP5 PUSH2 0x2635 JUMP JUMPDEST SWAP2 POP DUP2 SWAP1 POP SWAP4 SWAP3 POP POP POP JUMP JUMPDEST PUSH1 0x0 PUSH2 0x26F7 DUP3 PUSH2 0x1B31 JUMP JUMPDEST SWAP2 POP PUSH2 0x2702 DUP4 PUSH2 0x1B31 JUMP JUMPDEST SWAP3 POP DUP3 DUP3 MUL PUSH2 0x2710 DUP2 PUSH2 0x1B31 JUMP JUMPDEST SWAP2 POP DUP3 DUP3 DIV DUP5 EQ DUP4 ISZERO OR PUSH2 0x2727 JUMPI PUSH2 0x2726 PUSH2 0x1EB4 JUMP JUMPDEST JUMPDEST POP SWAP3 SWAP2 POP POP JUMP JUMPDEST PUSH32 0x4E487B7100000000000000000000000000000000000000000000000000000000 PUSH1 0x0 MSTORE PUSH1 0x41 PUSH1 0x4 MSTORE PUSH1 0x24 PUSH1 0x0 REVERT JUMPDEST PUSH32 0x4E487B7100000000000000000000000000000000000000000000000000000000 PUSH1 0x0 MSTORE PUSH1 0x32 PUSH1 0x4 MSTORE PUSH1 0x24 PUSH1 0x0 REVERT JUMPDEST PUSH1 0x0 PUSH2 0x2797 DUP3 PUSH2 0x1B31 JUMP JUMPDEST SWAP2 POP PUSH1 0x0 DUP3 SUB PUSH2 0x27AA JUMPI PUSH2 0x27A9 PUSH2 0x1EB4 JUMP JUMPDEST JUMPDEST PUSH1 0x1 DUP3 SUB SWAP1 POP SWAP2 SWAP1 POP JUMP JUMPDEST PUSH32 0x537472696E67733A20686578206C656E67746820696E73756666696369656E74 PUSH1 0x0 DUP3 ADD MSTORE POP JUMP JUMPDEST PUSH1 0x0 PUSH2 0x27EB PUSH1 0x20 DUP4 PUSH2 0x1A2C JUMP JUMPDEST SWAP2 POP PUSH2 0x27F6 DUP3 PUSH2 0x27B5 JUMP JUMPDEST PUSH1 0x20 DUP3 ADD SWAP1 POP SWAP2 SWAP1 POP JUMP JUMPDEST PUSH1 0x0 PUSH1 0x20 DUP3 ADD SWAP1 POP DUP2 DUP2 SUB PUSH1 0x0 DUP4 ADD MSTORE PUSH2 0x281A DUP2 PUSH2 0x27DE JUMP JUMPDEST SWAP1 POP SWAP2 SWAP1 POP JUMP INVALID LOG2 PUSH5 0x6970667358 0x22 SLT KECCAK256 GT MOD DUP14 0x1E 0xD7 CREATE2 0xB2 EXTCODESIZE LOG1 0xF9 SWAP14 DUP12 MLOAD PUSH20 0x4BACBA6F9549099ECE930C71CAB721C11F546473 PUSH16 0x6C634300081300335374616B65642048 PUSH10 0x6768205969656C642044 PUSH16 0x6C6C617220537461626C6520546F6B65 PUSH15 0x0 "
				},
				"gasEstimates": {
					"creation": {
						"codeDepositCost": "2065400",
						"executionCost": "infinite",
						"totalCost": "infinite"
					},
					"external": {
						"CALLER_ROLE()": "701",
						"DEFAULT_ADMIN_ROLE()": "357",
						"allowance(address,address)": "infinite",
						"approve(address,uint256)": "infinite",
						"balanceOf(address)": "2886",
						"burn(uint256)": "infinite",
						"burnFrom(address,uint256)": "infinite",
						"decimals()": "410",
						"decreaseAllowance(address,uint256)": "infinite",
						"getRoleAdmin(bytes32)": "infinite",
						"grantRole(bytes32,address)": "infinite",
						"hasRole(bytes32,address)": "3251",
						"increaseAllowance(address,uint256)": "infinite",
						"initialize(address)": "infinite",
						"mint(address,uint256)": "infinite",
						"name()": "infinite",
						"renounceRole(bytes32,address)": "infinite",
						"revokeRole(bytes32,address)": "infinite",
						"supportsInterface(bytes4)": "751",
						"symbol()": "infinite",
						"totalSupply()": "2527",
						"transfer(address,uint256)": "infinite",
						"transferFrom(address,address,uint256)": "infinite"
					}
				},
				"methodIdentifiers": {
					"CALLER_ROLE()": "774237fc",
					"DEFAULT_ADMIN_ROLE()": "a217fddf",
					"allowance(address,address)": "dd62ed3e",
					"approve(address,uint256)": "095ea7b3",
					"balanceOf(address)": "70a08231",
					"burn(uint256)": "42966c68",
					"burnFrom(address,uint256)": "79cc6790",
					"decimals()": "313ce567",
					"decreaseAllowance(address,uint256)": "a457c2d7",
					"getRoleAdmin(bytes32)": "248a9ca3",
					"grantRole(bytes32,address)": "2f2ff15d",
					"hasRole(bytes32,address)": "91d14854",
					"increaseAllowance(address,uint256)": "39509351",
					"initialize(address)": "c4d66de8",
					"mint(address,uint256)": "40c10f19",
					"name()": "06fdde03",
					"renounceRole(bytes32,address)": "36568abe",
					"revokeRole(bytes32,address)": "d547741f",
					"supportsInterface(bytes4)": "01ffc9a7",
					"symbol()": "95d89b41",
					"totalSupply()": "18160ddd",
					"transfer(address,uint256)": "a9059cbb",
					"transferFrom(address,address,uint256)": "23b872dd"
				}
			},
			"storageLayout": {
				"storage": [
					{
						"astId": 2185,
						"contract": "src/sHYDT.sol:sHYDT",
						"label": "_roles",
						"offset": 0,
						"slot": "0",
						"type": "t_mapping(t_bytes32,t_struct(RoleData)2180_storage)"
					},
					{
						"astId": 15,
						"contract": "src/sHYDT.sol:sHYDT",
						"label": "_balances",
						"offset": 0,
						"slot": "1",
						"type": "t_mapping(t_address,t_uint256)"
					},
					{
						"astId": 21,
						"contract": "src/sHYDT.sol:sHYDT",
						"label": "_allowances",
						"offset": 0,
						"slot": "2",
						"type": "t_mapping(t_address,t_mapping(t_address,t_uint256))"
					},
					{
						"astId": 23,
						"contract": "src/sHYDT.sol:sHYDT",
						"label": "_totalSupply",
						"offset": 0,
						"slot": "3",
						"type": "t_uint256"
					},
					{
						"astId": 25,
						"contract": "src/sHYDT.sol:sHYDT",
						"label": "_name",
						"offset": 0,
						"slot": "4",
						"type": "t_string_storage"
					},
					{
						"astId": 27,
						"contract": "src/sHYDT.sol:sHYDT",
						"label": "_symbol",
						"offset": 0,
						"slot": "5",
						"type": "t_string_storage"
					},
					{
						"astId": 2029,
						"contract": "src/sHYDT.sol:sHYDT",
						"label": "_isInitialized",
						"offset": 0,
						"slot": "6",
						"type": "t_bool"
					}
				],
				"types": {
					"t_address": {
						"encoding": "inplace",
						"label": "address",
						"numberOfBytes": "20"
					},
					"t_bool": {
						"encoding": "inplace",
						"label": "bool",
						"numberOfBytes": "1"
					},
					"t_bytes32": {
						"encoding": "inplace",
						"label": "bytes32",
						"numberOfBytes": "32"
					},
					"t_mapping(t_address,t_bool)": {
						"encoding": "mapping",
						"key": "t_address",
						"label": "mapping(address => bool)",
						"numberOfBytes": "32",
						"value": "t_bool"
					},
					"t_mapping(t_address,t_mapping(t_address,t_uint256))": {
						"encoding": "mapping",
						"key": "t_address",
						"label": "mapping(address => mapping(address => uint256))",
						"numberOfBytes": "32",
						"value": "t_mapping(t_address,t_uint256)"
					},
					"t_mapping(t_address,t_uint256)": {
						"encoding": "mapping",
						"key": "t_address",
						"label": "mapping(address => uint256)",
						"numberOfBytes": "32",
						"value": "t_uint256"
					},
					"t_mapping(t_bytes32,t_struct(RoleData)2180_storage)": {
						"encoding": "mapping",
						"key": "t_bytes32",
						"label": "mapping(bytes32 => struct AccessControl.RoleData)",
						"numberOfBytes": "32",
						"value": "t_struct(RoleData)2180_storage"
					},
					"t_string_storage": {
						"encoding": "bytes",
						"label": "string",
						"numberOfBytes": "32"
					},
					"t_struct(RoleData)2180_storage": {
						"encoding": "inplace",
						"label": "struct AccessControl.RoleData",
						"members": [
							{
								"astId": 2177,
								"contract": "src/sHYDT.sol:sHYDT",
								"label": "members",
								"offset": 0,
								"slot": "0",
								"type": "t_mapping(t_address,t_bool)"
							},
							{
								"astId": 2179,
								"contract": "src/sHYDT.sol:sHYDT",
								"label": "adminRole",
								"offset": 0,
								"slot": "1",
								"type": "t_bytes32"
							}
						],
						"numberOfBytes": "64"
					},
					"t_uint256": {
						"encoding": "inplace",
						"label": "uint256",
						"numberOfBytes": "32"
					}
				}
			},
			"userdoc": {
				"kind": "user",
				"methods": {
					"initialize(address)": {
						"notice": "Initializes external dependencies and state variables."
					}
				},
				"version": 1
			}
		}
	}
}