{
	"src/Reserve.sol": {
		"Reserve": {
			"abi": [
				{
					"inputs": [],
					"stateMutability": "nonpayable",
					"type": "constructor"
				},
				{
					"anonymous": false,
					"inputs": [
						{
							"indexed": false,
							"internalType": "address",
							"name": "caller",
							"type": "address"
						},
						{
							"indexed": false,
							"internalType": "uint256",
							"name": "amountBNB",
							"type": "uint256"
						},
						{
							"indexed": false,
							"internalType": "uint256",
							"name": "totalReserveBNB",
							"type": "uint256"
						},
						{
							"indexed": false,
							"internalType": "uint256",
							"name": "totalReserve",
							"type": "uint256"
						}
					],
					"name": "In",
					"type": "event"
				},
				{
					"anonymous": false,
					"inputs": [
						{
							"indexed": false,
							"internalType": "address",
							"name": "caller",
							"type": "address"
						},
						{
							"indexed": false,
							"internalType": "uint256",
							"name": "amountBNB",
							"type": "uint256"
						},
						{
							"indexed": false,
							"internalType": "uint256",
							"name": "totalReserveBNB",
							"type": "uint256"
						},
						{
							"indexed": false,
							"internalType": "uint256",
							"name": "totalReserve",
							"type": "uint256"
						}
					],
					"name": "Out",
					"type": "event"
				},
				{
					"anonymous": false,
					"inputs": [
						{
							"indexed": true,
							"internalType": "bytes32",
							"name": "role",
							"type": "bytes32"
						},
						{
							"indexed": true,
							"internalType": "bytes32",
							"name": "previousAdminRole",
							"type": "bytes32"
						},
						{
							"indexed": true,
							"internalType": "bytes32",
							"name": "newAdminRole",
							"type": "bytes32"
						}
					],
					"name": "RoleAdminChanged",
					"type": "event"
				},
				{
					"anonymous": false,
					"inputs": [
						{
							"indexed": true,
							"internalType": "bytes32",
							"name": "role",
							"type": "bytes32"
						},
						{
							"indexed": true,
							"internalType": "address",
							"name": "account",
							"type": "address"
						},
						{
							"indexed": true,
							"internalType": "address",
							"name": "sender",
							"type": "address"
						}
					],
					"name": "RoleGranted",
					"type": "event"
				},
				{
					"anonymous": false,
					"inputs": [
						{
							"indexed": true,
							"internalType": "bytes32",
							"name": "role",
							"type": "bytes32"
						},
						{
							"indexed": true,
							"internalType": "address",
							"name": "account",
							"type": "address"
						},
						{
							"indexed": true,
							"internalType": "address",
							"name": "sender",
							"type": "address"
						}
					],
					"name": "RoleRevoked",
					"type": "event"
				},
				{
					"inputs": [],
					"name": "CALLER_ROLE",
					"outputs": [
						{
							"internalType": "bytes32",
							"name": "",
							"type": "bytes32"
						}
					],
					"stateMutability": "view",
					"type": "function"
				},
				{
					"inputs": [],
					"name": "DEFAULT_ADMIN_ROLE",
					"outputs": [
						{
							"internalType": "bytes32",
							"name": "",
							"type": "bytes32"
						}
					],
					"stateMutability": "view",
					"type": "function"
				},
				{
					"inputs": [],
					"name": "USDT",
					"outputs": [
						{
							"internalType": "address",
							"name": "",
							"type": "address"
						}
					],
					"stateMutability": "view",
					"type": "function"
				},
				{
					"inputs": [],
					"name": "WBNB",
					"outputs": [
						{
							"internalType": "address",
							"name": "",
							"type": "address"
						}
					],
					"stateMutability": "view",
					"type": "function"
				},
				{
					"inputs": [],
					"name": "factory",
					"outputs": [
						{
							"internalType": "address",
							"name": "",
							"type": "address"
						}
					],
					"stateMutability": "view",
					"type": "function"
				},
				{
					"inputs": [
						{
							"internalType": "bytes32",
							"name": "role",
							"type": "bytes32"
						}
					],
					"name": "getRoleAdmin",
					"outputs": [
						{
							"internalType": "bytes32",
							"name": "",
							"type": "bytes32"
						}
					],
					"stateMutability": "view",
					"type": "function"
				},
				{
					"inputs": [
						{
							"internalType": "bytes32",
							"name": "role",
							"type": "bytes32"
						},
						{
							"internalType": "address",
							"name": "account",
							"type": "address"
						}
					],
					"name": "grantRole",
					"outputs": [],
					"stateMutability": "nonpayable",
					"type": "function"
				},
				{
					"inputs": [
						{
							"internalType": "bytes32",
							"name": "role",
							"type": "bytes32"
						},
						{
							"internalType": "address",
							"name": "account",
							"type": "address"
						}
					],
					"name": "hasRole",
					"outputs": [
						{
							"internalType": "bool",
							"name": "",
							"type": "bool"
						}
					],
					"stateMutability": "view",
					"type": "function"
				},
				{
					"inputs": [
						{
							"internalType": "address",
							"name": "factory_",
							"type": "address"
						},
						{
							"internalType": "address",
							"name": "control_",
							"type": "address"
						},
						{
							"internalType": "address",
							"name": "USDT_",
							"type": "address"
						},
						{
							"internalType": "address",
							"name": "WBNB_",
							"type": "address"
						}
					],
					"name": "initialize",
					"outputs": [],
					"stateMutability": "nonpayable",
					"type": "function"
				},
				{
					"inputs": [
						{
							"internalType": "bytes32",
							"name": "role",
							"type": "bytes32"
						},
						{
							"internalType": "address",
							"name": "account",
							"type": "address"
						}
					],
					"name": "renounceRole",
					"outputs": [],
					"stateMutability": "nonpayable",
					"type": "function"
				},
				{
					"inputs": [
						{
							"internalType": "bytes32",
							"name": "role",
							"type": "bytes32"
						},
						{
							"internalType": "address",
							"name": "account",
							"type": "address"
						}
					],
					"name": "revokeRole",
					"outputs": [],
					"stateMutability": "nonpayable",
					"type": "function"
				},
				{
					"inputs": [
						{
							"internalType": "bytes4",
							"name": "interfaceId",
							"type": "bytes4"
						}
					],
					"name": "supportsInterface",
					"outputs": [
						{
							"internalType": "bool",
							"name": "",
							"type": "bool"
						}
					],
					"stateMutability": "view",
					"type": "function"
				},
				{
					"inputs": [
						{
							"internalType": "uint256",
							"name": "amount",
							"type": "uint256"
						}
					],
					"name": "withdraw",
					"outputs": [],
					"stateMutability": "nonpayable",
					"type": "function"
				},
				{
					"stateMutability": "payable",
					"type": "receive"
				}
			],
			"devdoc": {
				"events": {
					"RoleAdminChanged(bytes32,bytes32,bytes32)": {
						"details": "Emitted when `newAdminRole` is set as ``role``'s admin role, replacing `previousAdminRole` `DEFAULT_ADMIN_ROLE` is the starting admin for all roles, despite {RoleAdminChanged} not being emitted signaling this. _Available since v3.1._"
					},
					"RoleGranted(bytes32,address,address)": {
						"details": "Emitted when `account` is granted `role`. `sender` is the account that originated the contract call, an admin role bearer except when using {AccessControl-_setupRole}."
					},
					"RoleRevoked(bytes32,address,address)": {
						"details": "Emitted when `account` is revoked `role`. `sender` is the account that originated the contract call:   - if using `revokeRole`, it is the admin role bearer   - if using `renounceRole`, it is the role bearer (i.e. `account`)"
					}
				},
				"kind": "dev",
				"methods": {
					"getRoleAdmin(bytes32)": {
						"details": "Returns the admin role that controls `role`. See {grantRole} and {revokeRole}. To change a role's admin, use {_setRoleAdmin}."
					},
					"grantRole(bytes32,address)": {
						"details": "Grants `role` to `account`. If `account` had not been already granted `role`, emits a {RoleGranted} event. Requirements: - the caller must have ``role``'s admin role. May emit a {RoleGranted} event."
					},
					"hasRole(bytes32,address)": {
						"details": "Returns `true` if `account` has been granted `role`."
					},
					"initialize(address,address,address,address)": {
						"details": "This function can only be called once.",
						"params": {
							"control_": "The address of the `Control` contract."
						}
					},
					"renounceRole(bytes32,address)": {
						"details": "Revokes `role` from the calling account. Roles are often managed via {grantRole} and {revokeRole}: this function's purpose is to provide a mechanism for accounts to lose their privileges if they are compromised (such as when a trusted device is misplaced). If the calling account had been revoked `role`, emits a {RoleRevoked} event. Requirements: - the caller must be `account`. May emit a {RoleRevoked} event."
					},
					"revokeRole(bytes32,address)": {
						"details": "Revokes `role` from `account`. If `account` had been granted `role`, emits a {RoleRevoked} event. Requirements: - the caller must have ``role``'s admin role. May emit a {RoleRevoked} event."
					},
					"supportsInterface(bytes4)": {
						"details": "See {IERC165-supportsInterface}."
					}
				},
				"stateVariables": {
					"_initializer": {
						"details": "Initialization variables."
					}
				},
				"version": 1
			},
			"evm": {
				"assembly": "    /* \"src/Reserve.sol\":183:2738  contract Reserve is AccessControl {... */\n  mstore(0x40, 0xa0)\n    /* \"src/Reserve.sol\":1015:1075  constructor() {... */\n  callvalue\n  dup1\n  iszero\n  tag_1\n  jumpi\n  0x00\n  dup1\n  revert\ntag_1:\n  pop\n    /* \"src/Reserve.sol\":1055:1067  _msgSender() */\n  tag_4\n    /* \"src/Reserve.sol\":1055:1065  _msgSender */\n  shl(0x20, tag_5)\n    /* \"src/Reserve.sol\":1055:1067  _msgSender() */\n  0x20\n  shr\n  jump\t// in\ntag_4:\n    /* \"src/Reserve.sol\":1040:1067  _initializer = _msgSender() */\n  0xffffffffffffffffffffffffffffffffffffffff\n  and\n  0x80\n  dup2\n  0xffffffffffffffffffffffffffffffffffffffff\n  and\n  dup2\n  mstore\n  pop\n  pop\n    /* \"src/Reserve.sol\":183:2738  contract Reserve is AccessControl {... */\n  jump(tag_6)\n    /* \"src/utils/Context.sol\":656:754  function _msgSender() internal view virtual returns (address) {... */\ntag_5:\n    /* \"src/utils/Context.sol\":709:716  address */\n  0x00\n    /* \"src/utils/Context.sol\":736:746  msg.sender */\n  caller\n    /* \"src/utils/Context.sol\":729:746  return msg.sender */\n  swap1\n  pop\n    /* \"src/utils/Context.sol\":656:754  function _msgSender() internal view virtual returns (address) {... */\n  swap1\n  jump\t// out\n    /* \"src/Reserve.sol\":183:2738  contract Reserve is AccessControl {... */\ntag_6:\n  mload(0x80)\n  codecopy(0x00, dataOffset(sub_0), dataSize(sub_0))\n  0x00\n  assignImmutable(\"0x1572b593c53d839d80004aa4b8c51211864104f06ace9e22be9c4365b50655ea\")\n  return(0x00, dataSize(sub_0))\nstop\n\nsub_0: assembly {\n        /* \"src/Reserve.sol\":183:2738  contract Reserve is AccessControl {... */\n      mstore(0x40, 0x80)\n      jumpi(tag_1, lt(calldatasize, 0x04))\n      shr(0xe0, calldataload(0x00))\n      dup1\n      0x8dd95002\n      gt\n      tag_16\n      jumpi\n      dup1\n      0xc45a0155\n      gt\n      tag_17\n      jumpi\n      dup1\n      0xc45a0155\n      eq\n      tag_12\n      jumpi\n      dup1\n      0xc54e44eb\n      eq\n      tag_13\n      jumpi\n      dup1\n      0xd547741f\n      eq\n      tag_14\n      jumpi\n      dup1\n      0xf8c8765e\n      eq\n      tag_15\n      jumpi\n      jump(tag_2)\n    tag_17:\n      dup1\n      0x8dd95002\n      eq\n      tag_9\n      jumpi\n      dup1\n      0x91d14854\n      eq\n      tag_10\n      jumpi\n      dup1\n      0xa217fddf\n      eq\n      tag_11\n      jumpi\n      jump(tag_2)\n    tag_16:\n      dup1\n      0x01ffc9a7\n      eq\n      tag_3\n      jumpi\n      dup1\n      0x248a9ca3\n      eq\n      tag_4\n      jumpi\n      dup1\n      0x2e1a7d4d\n      eq\n      tag_5\n      jumpi\n      dup1\n      0x2f2ff15d\n      eq\n      tag_6\n      jumpi\n      dup1\n      0x36568abe\n      eq\n      tag_7\n      jumpi\n      dup1\n      0x774237fc\n      eq\n      tag_8\n      jumpi\n      jump(tag_2)\n    tag_1:\n      jumpi(tag_2, calldatasize)\n        /* \"src/Reserve.sol\":2036:2059  uint256 totalReserveBNB */\n      0x00\n        /* \"src/Reserve.sol\":2062:2083  address(this).balance */\n      selfbalance\n        /* \"src/Reserve.sol\":2036:2083  uint256 totalReserveBNB = address(this).balance */\n      swap1\n      pop\n        /* \"src/Reserve.sol\":2094:2114  uint256 totalReserve */\n      0x00\n        /* \"src/Reserve.sol\":2117:2171  DataFetcher.quote(factory,totalReserveBNB, WBNB, USDT) */\n      tag_20\n        /* \"src/Reserve.sol\":2135:2142  factory */\n      0x03\n      0x00\n      swap1\n      sload\n      swap1\n      0x0100\n      exp\n      swap1\n      div\n      0xffffffffffffffffffffffffffffffffffffffff\n      and\n        /* \"src/Reserve.sol\":2143:2158  totalReserveBNB */\n      dup4\n        /* \"src/Reserve.sol\":2160:2164  WBNB */\n      0x01\n      0x00\n      swap1\n      sload\n      swap1\n      0x0100\n      exp\n      swap1\n      div\n      0xffffffffffffffffffffffffffffffffffffffff\n      and\n        /* \"src/Reserve.sol\":2166:2170  USDT */\n      0x02\n      0x00\n      swap1\n      sload\n      swap1\n      0x0100\n      exp\n      swap1\n      div\n      0xffffffffffffffffffffffffffffffffffffffff\n      and\n        /* \"src/Reserve.sol\":2117:2134  DataFetcher.quote */\n      tag_21\n        /* \"src/Reserve.sol\":2117:2171  DataFetcher.quote(factory,totalReserveBNB, WBNB, USDT) */\n      jump\t// in\n    tag_20:\n        /* \"src/Reserve.sol\":2094:2171  uint256 totalReserve = DataFetcher.quote(factory,totalReserveBNB, WBNB, USDT) */\n      swap1\n      pop\n        /* \"src/Reserve.sol\":2189:2247  In(_msgSender(), msg.value, totalReserveBNB, totalReserve) */\n      0x3cadff7f9a0bf97b2f8b9629e31675770caca33d15e735652794f64acce52fa0\n        /* \"src/Reserve.sol\":2192:2204  _msgSender() */\n      tag_22\n        /* \"src/Reserve.sol\":2192:2202  _msgSender */\n      tag_23\n        /* \"src/Reserve.sol\":2192:2204  _msgSender() */\n      jump\t// in\n    tag_22:\n        /* \"src/Reserve.sol\":2206:2215  msg.value */\n      callvalue\n        /* \"src/Reserve.sol\":2217:2232  totalReserveBNB */\n      dup5\n        /* \"src/Reserve.sol\":2234:2246  totalReserve */\n      dup5\n        /* \"src/Reserve.sol\":2189:2247  In(_msgSender(), msg.value, totalReserveBNB, totalReserve) */\n      mload(0x40)\n      tag_24\n      swap5\n      swap4\n      swap3\n      swap2\n      swap1\n      tag_25\n      jump\t// in\n    tag_24:\n      mload(0x40)\n      dup1\n      swap2\n      sub\n      swap1\n      log1\n        /* \"src/Reserve.sol\":2025:2255  {... */\n      stop\n        /* \"src/Reserve.sol\":183:2738  contract Reserve is AccessControl {... */\n    tag_2:\n      0x00\n      dup1\n      revert\n        /* \"src/utils/AccessControl.sol\":2686:2890  function supportsInterface(bytes4 interfaceId) public view virtual override returns (bool) {... */\n    tag_3:\n      callvalue\n      dup1\n      iszero\n      tag_26\n      jumpi\n      0x00\n      dup1\n      revert\n    tag_26:\n      pop\n      tag_27\n      0x04\n      dup1\n      calldatasize\n      sub\n      dup2\n      add\n      swap1\n      tag_28\n      swap2\n      swap1\n      tag_29\n      jump\t// in\n    tag_28:\n      tag_30\n      jump\t// in\n    tag_27:\n      mload(0x40)\n      tag_31\n      swap2\n      swap1\n      tag_32\n      jump\t// in\n    tag_31:\n      mload(0x40)\n      dup1\n      swap2\n      sub\n      swap1\n      return\n        /* \"src/utils/AccessControl.sol\":4509:4640  function getRoleAdmin(bytes32 role) public view virtual override returns (bytes32) {... */\n    tag_4:\n      callvalue\n      dup1\n      iszero\n      tag_33\n      jumpi\n      0x00\n      dup1\n      revert\n    tag_33:\n      pop\n      tag_34\n      0x04\n      dup1\n      calldatasize\n      sub\n      dup2\n      add\n      swap1\n      tag_35\n      swap2\n      swap1\n      tag_36\n      jump\t// in\n    tag_35:\n      tag_37\n      jump\t// in\n    tag_34:\n      mload(0x40)\n      tag_38\n      swap2\n      swap1\n      tag_39\n      jump\t// in\n    tag_38:\n      mload(0x40)\n      dup1\n      swap2\n      sub\n      swap1\n      return\n        /* \"src/Reserve.sol\":2386:2735  function withdraw(uint256 amount) external onlyRole(CALLER_ROLE) {... */\n    tag_5:\n      callvalue\n      dup1\n      iszero\n      tag_40\n      jumpi\n      0x00\n      dup1\n      revert\n    tag_40:\n      pop\n      tag_41\n      0x04\n      dup1\n      calldatasize\n      sub\n      dup2\n      add\n      swap1\n      tag_42\n      swap2\n      swap1\n      tag_43\n      jump\t// in\n    tag_42:\n      tag_44\n      jump\t// in\n    tag_41:\n      stop\n        /* \"src/utils/AccessControl.sol\":4950:5097  function grantRole(bytes32 role, address account) public virtual override onlyRole(getRoleAdmin(role)) {... */\n    tag_6:\n      callvalue\n      dup1\n      iszero\n      tag_45\n      jumpi\n      0x00\n      dup1\n      revert\n    tag_45:\n      pop\n      tag_46\n      0x04\n      dup1\n      calldatasize\n      sub\n      dup2\n      add\n      swap1\n      tag_47\n      swap2\n      swap1\n      tag_48\n      jump\t// in\n    tag_47:\n      tag_49\n      jump\t// in\n    tag_46:\n      stop\n        /* \"src/utils/AccessControl.sol\":6094:6312  function renounceRole(bytes32 role, address account) public virtual override {... */\n    tag_7:\n      callvalue\n      dup1\n      iszero\n      tag_50\n      jumpi\n      0x00\n      dup1\n      revert\n    tag_50:\n      pop\n      tag_51\n      0x04\n      dup1\n      calldatasize\n      sub\n      dup2\n      add\n      swap1\n      tag_52\n      swap2\n      swap1\n      tag_48\n      jump\t// in\n    tag_52:\n      tag_53\n      jump\t// in\n    tag_51:\n      stop\n        /* \"src/Reserve.sol\":277:352  bytes32 public constant CALLER_ROLE = keccak256(abi.encodePacked(\"Caller\")) */\n    tag_8:\n      callvalue\n      dup1\n      iszero\n      tag_54\n      jumpi\n      0x00\n      dup1\n      revert\n    tag_54:\n      pop\n      tag_55\n      tag_56\n      jump\t// in\n    tag_55:\n      mload(0x40)\n      tag_57\n      swap2\n      swap1\n      tag_39\n      jump\t// in\n    tag_57:\n      mload(0x40)\n      dup1\n      swap2\n      sub\n      swap1\n      return\n        /* \"src/Reserve.sol\":437:458  address public   WBNB */\n    tag_9:\n      callvalue\n      dup1\n      iszero\n      tag_58\n      jumpi\n      0x00\n      dup1\n      revert\n    tag_58:\n      pop\n      tag_59\n      tag_60\n      jump\t// in\n    tag_59:\n      mload(0x40)\n      tag_61\n      swap2\n      swap1\n      tag_62\n      jump\t// in\n    tag_61:\n      mload(0x40)\n      dup1\n      swap2\n      sub\n      swap1\n      return\n        /* \"src/utils/AccessControl.sol\":2982:3129  function hasRole(bytes32 role, address account) public view virtual override returns (bool) {... */\n    tag_10:\n      callvalue\n      dup1\n      iszero\n      tag_63\n      jumpi\n      0x00\n      dup1\n      revert\n    tag_63:\n      pop\n      tag_64\n      0x04\n      dup1\n      calldatasize\n      sub\n      dup2\n      add\n      swap1\n      tag_65\n      swap2\n      swap1\n      tag_48\n      jump\t// in\n    tag_65:\n      tag_66\n      jump\t// in\n    tag_64:\n      mload(0x40)\n      tag_67\n      swap2\n      swap1\n      tag_32\n      jump\t// in\n    tag_67:\n      mload(0x40)\n      dup1\n      swap2\n      sub\n      swap1\n      return\n        /* \"src/utils/AccessControl.sol\":2087:2136  bytes32 public constant DEFAULT_ADMIN_ROLE = 0x00 */\n    tag_11:\n      callvalue\n      dup1\n      iszero\n      tag_68\n      jumpi\n      0x00\n      dup1\n      revert\n    tag_68:\n      pop\n      tag_69\n      tag_70\n      jump\t// in\n    tag_69:\n      mload(0x40)\n      tag_71\n      swap2\n      swap1\n      tag_39\n      jump\t// in\n    tag_71:\n      mload(0x40)\n      dup1\n      swap2\n      sub\n      swap1\n      return\n        /* \"src/Reserve.sol\":698:720  address public factory */\n    tag_12:\n      callvalue\n      dup1\n      iszero\n      tag_72\n      jumpi\n      0x00\n      dup1\n      revert\n    tag_72:\n      pop\n      tag_73\n      tag_74\n      jump\t// in\n    tag_73:\n      mload(0x40)\n      tag_75\n      swap2\n      swap1\n      tag_62\n      jump\t// in\n    tag_75:\n      mload(0x40)\n      dup1\n      swap2\n      sub\n      swap1\n      return\n        /* \"src/Reserve.sol\":548:569  address public   USDT */\n    tag_13:\n      callvalue\n      dup1\n      iszero\n      tag_76\n      jumpi\n      0x00\n      dup1\n      revert\n    tag_76:\n      pop\n      tag_77\n      tag_78\n      jump\t// in\n    tag_77:\n      mload(0x40)\n      tag_79\n      swap2\n      swap1\n      tag_62\n      jump\t// in\n    tag_79:\n      mload(0x40)\n      dup1\n      swap2\n      sub\n      swap1\n      return\n        /* \"src/utils/AccessControl.sol\":5390:5539  function revokeRole(bytes32 role, address account) public virtual override onlyRole(getRoleAdmin(role)) {... */\n    tag_14:\n      callvalue\n      dup1\n      iszero\n      tag_80\n      jumpi\n      0x00\n      dup1\n      revert\n    tag_80:\n      pop\n      tag_81\n      0x04\n      dup1\n      calldatasize\n      sub\n      dup2\n      add\n      swap1\n      tag_82\n      swap2\n      swap1\n      tag_48\n      jump\t// in\n    tag_82:\n      tag_83\n      jump\t// in\n    tag_81:\n      stop\n        /* \"src/Reserve.sol\":1333:1945  function initialize(address factory_,address control_, address USDT_, address WBNB_) external {... */\n    tag_15:\n      callvalue\n      dup1\n      iszero\n      tag_84\n      jumpi\n      0x00\n      dup1\n      revert\n    tag_84:\n      pop\n      tag_85\n      0x04\n      dup1\n      calldatasize\n      sub\n      dup2\n      add\n      swap1\n      tag_86\n      swap2\n      swap1\n      tag_87\n      jump\t// in\n    tag_86:\n      tag_88\n      jump\t// in\n    tag_85:\n      stop\n        /* \"src/libraries/DataFetcher.sol\":1046:1325  function quote(address pancakeFactory,uint256 amountA, address tokenA, address tokenB) internal view returns (uint256 amountB) {... */\n    tag_21:\n        /* \"src/libraries/DataFetcher.sol\":1156:1171  uint256 amountB */\n      0x00\n        /* \"src/libraries/DataFetcher.sol\":1185:1201  uint256 reserveA */\n      dup1\n        /* \"src/libraries/DataFetcher.sol\":1203:1219  uint256 reserveB */\n      0x00\n        /* \"src/libraries/DataFetcher.sol\":1223:1265  getReserves(pancakeFactory,tokenA, tokenB) */\n      tag_90\n        /* \"src/libraries/DataFetcher.sol\":1235:1249  pancakeFactory */\n      dup8\n        /* \"src/libraries/DataFetcher.sol\":1250:1256  tokenA */\n      dup7\n        /* \"src/libraries/DataFetcher.sol\":1258:1264  tokenB */\n      dup7\n        /* \"src/libraries/DataFetcher.sol\":1223:1234  getReserves */\n      tag_91\n        /* \"src/libraries/DataFetcher.sol\":1223:1265  getReserves(pancakeFactory,tokenA, tokenB) */\n      jump\t// in\n    tag_90:\n        /* \"src/libraries/DataFetcher.sol\":1184:1265  (uint256 reserveA, uint256 reserveB) = getReserves(pancakeFactory,tokenA, tokenB) */\n      swap2\n      pop\n      swap2\n      pop\n        /* \"src/libraries/DataFetcher.sol\":1309:1317  reserveA */\n      dup2\n        /* \"src/libraries/DataFetcher.sol\":1297:1305  reserveB */\n      dup2\n        /* \"src/libraries/DataFetcher.sol\":1287:1294  amountA */\n      dup8\n        /* \"src/libraries/DataFetcher.sol\":1287:1305  amountA * reserveB */\n      tag_92\n      swap2\n      swap1\n      tag_93\n      jump\t// in\n    tag_92:\n        /* \"src/libraries/DataFetcher.sol\":1286:1317  (amountA * reserveB) / reserveA */\n      tag_94\n      swap2\n      swap1\n      tag_95\n      jump\t// in\n    tag_94:\n        /* \"src/libraries/DataFetcher.sol\":1276:1317  amountB = (amountA * reserveB) / reserveA */\n      swap3\n      pop\n        /* \"src/libraries/DataFetcher.sol\":1173:1325  {... */\n      pop\n      pop\n        /* \"src/libraries/DataFetcher.sol\":1046:1325  function quote(address pancakeFactory,uint256 amountA, address tokenA, address tokenB) internal view returns (uint256 amountB) {... */\n      swap5\n      swap4\n      pop\n      pop\n      pop\n      pop\n      jump\t// out\n        /* \"src/utils/Context.sol\":656:754  function _msgSender() internal view virtual returns (address) {... */\n    tag_23:\n        /* \"src/utils/Context.sol\":709:716  address */\n      0x00\n        /* \"src/utils/Context.sol\":736:746  msg.sender */\n      caller\n        /* \"src/utils/Context.sol\":729:746  return msg.sender */\n      swap1\n      pop\n        /* \"src/utils/Context.sol\":656:754  function _msgSender() internal view virtual returns (address) {... */\n      swap1\n      jump\t// out\n        /* \"src/utils/AccessControl.sol\":2686:2890  function supportsInterface(bytes4 interfaceId) public view virtual override returns (bool) {... */\n    tag_30:\n        /* \"src/utils/AccessControl.sol\":2771:2775  bool */\n      0x00\n        /* \"src/utils/AccessControl.sol\":2810:2842  type(IAccessControl).interfaceId */\n      0x7965db0b00000000000000000000000000000000000000000000000000000000\n        /* \"src/utils/AccessControl.sol\":2795:2842  interfaceId == type(IAccessControl).interfaceId */\n      not(0xffffffffffffffffffffffffffffffffffffffffffffffffffffffff)\n      and\n        /* \"src/utils/AccessControl.sol\":2795:2806  interfaceId */\n      dup3\n        /* \"src/utils/AccessControl.sol\":2795:2842  interfaceId == type(IAccessControl).interfaceId */\n      not(0xffffffffffffffffffffffffffffffffffffffffffffffffffffffff)\n      and\n      eq\n        /* \"src/utils/AccessControl.sol\":2795:2882  interfaceId == type(IAccessControl).interfaceId || super.supportsInterface(interfaceId) */\n      dup1\n      tag_98\n      jumpi\n      pop\n        /* \"src/utils/AccessControl.sol\":2846:2882  super.supportsInterface(interfaceId) */\n      tag_99\n        /* \"src/utils/AccessControl.sol\":2870:2881  interfaceId */\n      dup3\n        /* \"src/utils/AccessControl.sol\":2846:2869  super.supportsInterface */\n      tag_100\n        /* \"src/utils/AccessControl.sol\":2846:2882  super.supportsInterface(interfaceId) */\n      jump\t// in\n    tag_99:\n        /* \"src/utils/AccessControl.sol\":2795:2882  interfaceId == type(IAccessControl).interfaceId || super.supportsInterface(interfaceId) */\n    tag_98:\n        /* \"src/utils/AccessControl.sol\":2788:2882  return interfaceId == type(IAccessControl).interfaceId || super.supportsInterface(interfaceId) */\n      swap1\n      pop\n        /* \"src/utils/AccessControl.sol\":2686:2890  function supportsInterface(bytes4 interfaceId) public view virtual override returns (bool) {... */\n      swap2\n      swap1\n      pop\n      jump\t// out\n        /* \"src/utils/AccessControl.sol\":4509:4640  function getRoleAdmin(bytes32 role) public view virtual override returns (bytes32) {... */\n    tag_37:\n        /* \"src/utils/AccessControl.sol\":4583:4590  bytes32 */\n      0x00\n        /* \"src/utils/AccessControl.sol\":4610:4616  _roles */\n      dup1\n        /* \"src/utils/AccessControl.sol\":4610:4622  _roles[role] */\n      0x00\n        /* \"src/utils/AccessControl.sol\":4617:4621  role */\n      dup4\n        /* \"src/utils/AccessControl.sol\":4610:4622  _roles[role] */\n      dup2\n      mstore\n      0x20\n      add\n      swap1\n      dup2\n      mstore\n      0x20\n      add\n      0x00\n      keccak256\n        /* \"src/utils/AccessControl.sol\":4610:4632  _roles[role].adminRole */\n      0x01\n      add\n      sload\n        /* \"src/utils/AccessControl.sol\":4603:4632  return _roles[role].adminRole */\n      swap1\n      pop\n        /* \"src/utils/AccessControl.sol\":4509:4640  function getRoleAdmin(bytes32 role) public view virtual override returns (bytes32) {... */\n      swap2\n      swap1\n      pop\n      jump\t// out\n        /* \"src/Reserve.sol\":2386:2735  function withdraw(uint256 amount) external onlyRole(CALLER_ROLE) {... */\n    tag_44:\n        /* \"src/Reserve.sol\":325:351  abi.encodePacked(\"Caller\") */\n      add(0x20, mload(0x40))\n      tag_102\n      swap1\n      tag_103\n      jump\t// in\n    tag_102:\n      mload(0x40)\n      0x20\n      dup2\n      dup4\n      sub\n      sub\n      dup2\n      mstore\n      swap1\n      0x40\n      mstore\n        /* \"src/Reserve.sol\":315:352  keccak256(abi.encodePacked(\"Caller\")) */\n      dup1\n      mload\n      swap1\n      0x20\n      add\n      keccak256\n        /* \"src/utils/AccessControl.sol\":2578:2594  _checkRole(role) */\n      tag_105\n        /* \"src/utils/AccessControl.sol\":2589:2593  role */\n      dup2\n        /* \"src/utils/AccessControl.sol\":2578:2588  _checkRole */\n      tag_106\n        /* \"src/utils/AccessControl.sol\":2578:2594  _checkRole(role) */\n      jump\t// in\n    tag_105:\n        /* \"src/Reserve.sol\":2462:2507  SafeETH.safeTransferETH(_msgSender(), amount) */\n      tag_108\n        /* \"src/Reserve.sol\":2486:2498  _msgSender() */\n      tag_109\n        /* \"src/Reserve.sol\":2486:2496  _msgSender */\n      tag_23\n        /* \"src/Reserve.sol\":2486:2498  _msgSender() */\n      jump\t// in\n    tag_109:\n        /* \"src/Reserve.sol\":2500:2506  amount */\n      dup4\n        /* \"src/Reserve.sol\":2462:2485  SafeETH.safeTransferETH */\n      tag_110\n        /* \"src/Reserve.sol\":2462:2507  SafeETH.safeTransferETH(_msgSender(), amount) */\n      jump\t// in\n    tag_108:\n        /* \"src/Reserve.sol\":2518:2541  uint256 totalReserveBNB */\n      0x00\n        /* \"src/Reserve.sol\":2544:2565  address(this).balance */\n      selfbalance\n        /* \"src/Reserve.sol\":2518:2565  uint256 totalReserveBNB = address(this).balance */\n      swap1\n      pop\n        /* \"src/Reserve.sol\":2576:2596  uint256 totalReserve */\n      0x00\n        /* \"src/Reserve.sol\":2599:2653  DataFetcher.quote(factory,totalReserveBNB, WBNB, USDT) */\n      tag_111\n        /* \"src/Reserve.sol\":2617:2624  factory */\n      0x03\n      0x00\n      swap1\n      sload\n      swap1\n      0x0100\n      exp\n      swap1\n      div\n      0xffffffffffffffffffffffffffffffffffffffff\n      and\n        /* \"src/Reserve.sol\":2625:2640  totalReserveBNB */\n      dup4\n        /* \"src/Reserve.sol\":2642:2646  WBNB */\n      0x01\n      0x00\n      swap1\n      sload\n      swap1\n      0x0100\n      exp\n      swap1\n      div\n      0xffffffffffffffffffffffffffffffffffffffff\n      and\n        /* \"src/Reserve.sol\":2648:2652  USDT */\n      0x02\n      0x00\n      swap1\n      sload\n      swap1\n      0x0100\n      exp\n      swap1\n      div\n      0xffffffffffffffffffffffffffffffffffffffff\n      and\n        /* \"src/Reserve.sol\":2599:2616  DataFetcher.quote */\n      tag_21\n        /* \"src/Reserve.sol\":2599:2653  DataFetcher.quote(factory,totalReserveBNB, WBNB, USDT) */\n      jump\t// in\n    tag_111:\n        /* \"src/Reserve.sol\":2576:2653  uint256 totalReserve = DataFetcher.quote(factory,totalReserveBNB, WBNB, USDT) */\n      swap1\n      pop\n        /* \"src/Reserve.sol\":2671:2727  Out(_msgSender(), amount, totalReserveBNB, totalReserve) */\n      0xb450a08ba9d5bfbc195171a9f21f66b27de075c9788057b443dc147da398be5c\n        /* \"src/Reserve.sol\":2675:2687  _msgSender() */\n      tag_112\n        /* \"src/Reserve.sol\":2675:2685  _msgSender */\n      tag_23\n        /* \"src/Reserve.sol\":2675:2687  _msgSender() */\n      jump\t// in\n    tag_112:\n        /* \"src/Reserve.sol\":2689:2695  amount */\n      dup6\n        /* \"src/Reserve.sol\":2697:2712  totalReserveBNB */\n      dup5\n        /* \"src/Reserve.sol\":2714:2726  totalReserve */\n      dup5\n        /* \"src/Reserve.sol\":2671:2727  Out(_msgSender(), amount, totalReserveBNB, totalReserve) */\n      mload(0x40)\n      tag_113\n      swap5\n      swap4\n      swap3\n      swap2\n      swap1\n      tag_25\n      jump\t// in\n    tag_113:\n      mload(0x40)\n      dup1\n      swap2\n      sub\n      swap1\n      log1\n        /* \"src/Reserve.sol\":2451:2735  {... */\n      pop\n      pop\n        /* \"src/Reserve.sol\":2386:2735  function withdraw(uint256 amount) external onlyRole(CALLER_ROLE) {... */\n      pop\n      pop\n      jump\t// out\n        /* \"src/utils/AccessControl.sol\":4950:5097  function grantRole(bytes32 role, address account) public virtual override onlyRole(getRoleAdmin(role)) {... */\n    tag_49:\n        /* \"src/utils/AccessControl.sol\":5033:5051  getRoleAdmin(role) */\n      tag_114\n        /* \"src/utils/AccessControl.sol\":5046:5050  role */\n      dup3\n        /* \"src/utils/AccessControl.sol\":5033:5045  getRoleAdmin */\n      tag_37\n        /* \"src/utils/AccessControl.sol\":5033:5051  getRoleAdmin(role) */\n      jump\t// in\n    tag_114:\n        /* \"src/utils/AccessControl.sol\":2578:2594  _checkRole(role) */\n      tag_116\n        /* \"src/utils/AccessControl.sol\":2589:2593  role */\n      dup2\n        /* \"src/utils/AccessControl.sol\":2578:2588  _checkRole */\n      tag_106\n        /* \"src/utils/AccessControl.sol\":2578:2594  _checkRole(role) */\n      jump\t// in\n    tag_116:\n        /* \"src/utils/AccessControl.sol\":5064:5089  _grantRole(role, account) */\n      tag_118\n        /* \"src/utils/AccessControl.sol\":5075:5079  role */\n      dup4\n        /* \"src/utils/AccessControl.sol\":5081:5088  account */\n      dup4\n        /* \"src/utils/AccessControl.sol\":5064:5074  _grantRole */\n      tag_119\n        /* \"src/utils/AccessControl.sol\":5064:5089  _grantRole(role, account) */\n      jump\t// in\n    tag_118:\n        /* \"src/utils/AccessControl.sol\":4950:5097  function grantRole(bytes32 role, address account) public virtual override onlyRole(getRoleAdmin(role)) {... */\n      pop\n      pop\n      pop\n      jump\t// out\n        /* \"src/utils/AccessControl.sol\":6094:6312  function renounceRole(bytes32 role, address account) public virtual override {... */\n    tag_53:\n        /* \"src/utils/AccessControl.sol\":6201:6213  _msgSender() */\n      tag_121\n        /* \"src/utils/AccessControl.sol\":6201:6211  _msgSender */\n      tag_23\n        /* \"src/utils/AccessControl.sol\":6201:6213  _msgSender() */\n      jump\t// in\n    tag_121:\n        /* \"src/utils/AccessControl.sol\":6190:6213  account == _msgSender() */\n      0xffffffffffffffffffffffffffffffffffffffff\n      and\n        /* \"src/utils/AccessControl.sol\":6190:6197  account */\n      dup2\n        /* \"src/utils/AccessControl.sol\":6190:6213  account == _msgSender() */\n      0xffffffffffffffffffffffffffffffffffffffff\n      and\n      eq\n        /* \"src/utils/AccessControl.sol\":6182:6265  require(account == _msgSender(), \"AccessControl: can only renounce roles for self\") */\n      tag_122\n      jumpi\n      mload(0x40)\n      0x08c379a000000000000000000000000000000000000000000000000000000000\n      dup2\n      mstore\n      0x04\n      add\n      tag_123\n      swap1\n      tag_124\n      jump\t// in\n    tag_123:\n      mload(0x40)\n      dup1\n      swap2\n      sub\n      swap1\n      revert\n    tag_122:\n        /* \"src/utils/AccessControl.sol\":6278:6304  _revokeRole(role, account) */\n      tag_125\n        /* \"src/utils/AccessControl.sol\":6290:6294  role */\n      dup3\n        /* \"src/utils/AccessControl.sol\":6296:6303  account */\n      dup3\n        /* \"src/utils/AccessControl.sol\":6278:6289  _revokeRole */\n      tag_126\n        /* \"src/utils/AccessControl.sol\":6278:6304  _revokeRole(role, account) */\n      jump\t// in\n    tag_125:\n        /* \"src/utils/AccessControl.sol\":6094:6312  function renounceRole(bytes32 role, address account) public virtual override {... */\n      pop\n      pop\n      jump\t// out\n        /* \"src/Reserve.sol\":277:352  bytes32 public constant CALLER_ROLE = keccak256(abi.encodePacked(\"Caller\")) */\n    tag_56:\n        /* \"src/Reserve.sol\":325:351  abi.encodePacked(\"Caller\") */\n      add(0x20, mload(0x40))\n      tag_127\n      swap1\n      tag_103\n      jump\t// in\n    tag_127:\n      mload(0x40)\n      0x20\n      dup2\n      dup4\n      sub\n      sub\n      dup2\n      mstore\n      swap1\n      0x40\n      mstore\n        /* \"src/Reserve.sol\":315:352  keccak256(abi.encodePacked(\"Caller\")) */\n      dup1\n      mload\n      swap1\n      0x20\n      add\n      keccak256\n        /* \"src/Reserve.sol\":277:352  bytes32 public constant CALLER_ROLE = keccak256(abi.encodePacked(\"Caller\")) */\n      dup2\n      jump\t// out\n        /* \"src/Reserve.sol\":437:458  address public   WBNB */\n    tag_60:\n      0x01\n      0x00\n      swap1\n      sload\n      swap1\n      0x0100\n      exp\n      swap1\n      div\n      0xffffffffffffffffffffffffffffffffffffffff\n      and\n      dup2\n      jump\t// out\n        /* \"src/utils/AccessControl.sol\":2982:3129  function hasRole(bytes32 role, address account) public view virtual override returns (bool) {... */\n    tag_66:\n        /* \"src/utils/AccessControl.sol\":3068:3072  bool */\n      0x00\n        /* \"src/utils/AccessControl.sol\":3092:3098  _roles */\n      dup1\n        /* \"src/utils/AccessControl.sol\":3092:3104  _roles[role] */\n      0x00\n        /* \"src/utils/AccessControl.sol\":3099:3103  role */\n      dup5\n        /* \"src/utils/AccessControl.sol\":3092:3104  _roles[role] */\n      dup2\n      mstore\n      0x20\n      add\n      swap1\n      dup2\n      mstore\n      0x20\n      add\n      0x00\n      keccak256\n        /* \"src/utils/AccessControl.sol\":3092:3112  _roles[role].members */\n      0x00\n      add\n        /* \"src/utils/AccessControl.sol\":3092:3121  _roles[role].members[account] */\n      0x00\n        /* \"src/utils/AccessControl.sol\":3113:3120  account */\n      dup4\n        /* \"src/utils/AccessControl.sol\":3092:3121  _roles[role].members[account] */\n      0xffffffffffffffffffffffffffffffffffffffff\n      and\n      0xffffffffffffffffffffffffffffffffffffffff\n      and\n      dup2\n      mstore\n      0x20\n      add\n      swap1\n      dup2\n      mstore\n      0x20\n      add\n      0x00\n      keccak256\n      0x00\n      swap1\n      sload\n      swap1\n      0x0100\n      exp\n      swap1\n      div\n      0xff\n      and\n        /* \"src/utils/AccessControl.sol\":3085:3121  return _roles[role].members[account] */\n      swap1\n      pop\n        /* \"src/utils/AccessControl.sol\":2982:3129  function hasRole(bytes32 role, address account) public view virtual override returns (bool) {... */\n      swap3\n      swap2\n      pop\n      pop\n      jump\t// out\n        /* \"src/utils/AccessControl.sol\":2087:2136  bytes32 public constant DEFAULT_ADMIN_ROLE = 0x00 */\n    tag_70:\n        /* \"src/utils/AccessControl.sol\":2132:2136  0x00 */\n      0x00\n        /* \"src/utils/AccessControl.sol\":2087:2136  bytes32 public constant DEFAULT_ADMIN_ROLE = 0x00 */\n      dup1\n      shl\n      dup2\n      jump\t// out\n        /* \"src/Reserve.sol\":698:720  address public factory */\n    tag_74:\n      0x03\n      0x00\n      swap1\n      sload\n      swap1\n      0x0100\n      exp\n      swap1\n      div\n      0xffffffffffffffffffffffffffffffffffffffff\n      and\n      dup2\n      jump\t// out\n        /* \"src/Reserve.sol\":548:569  address public   USDT */\n    tag_78:\n      0x02\n      0x00\n      swap1\n      sload\n      swap1\n      0x0100\n      exp\n      swap1\n      div\n      0xffffffffffffffffffffffffffffffffffffffff\n      and\n      dup2\n      jump\t// out\n        /* \"src/utils/AccessControl.sol\":5390:5539  function revokeRole(bytes32 role, address account) public virtual override onlyRole(getRoleAdmin(role)) {... */\n    tag_83:\n        /* \"src/utils/AccessControl.sol\":5474:5492  getRoleAdmin(role) */\n      tag_129\n        /* \"src/utils/AccessControl.sol\":5487:5491  role */\n      dup3\n        /* \"src/utils/AccessControl.sol\":5474:5486  getRoleAdmin */\n      tag_37\n        /* \"src/utils/AccessControl.sol\":5474:5492  getRoleAdmin(role) */\n      jump\t// in\n    tag_129:\n        /* \"src/utils/AccessControl.sol\":2578:2594  _checkRole(role) */\n      tag_131\n        /* \"src/utils/AccessControl.sol\":2589:2593  role */\n      dup2\n        /* \"src/utils/AccessControl.sol\":2578:2588  _checkRole */\n      tag_106\n        /* \"src/utils/AccessControl.sol\":2578:2594  _checkRole(role) */\n      jump\t// in\n    tag_131:\n        /* \"src/utils/AccessControl.sol\":5505:5531  _revokeRole(role, account) */\n      tag_133\n        /* \"src/utils/AccessControl.sol\":5517:5521  role */\n      dup4\n        /* \"src/utils/AccessControl.sol\":5523:5530  account */\n      dup4\n        /* \"src/utils/AccessControl.sol\":5505:5516  _revokeRole */\n      tag_126\n        /* \"src/utils/AccessControl.sol\":5505:5531  _revokeRole(role, account) */\n      jump\t// in\n    tag_133:\n        /* \"src/utils/AccessControl.sol\":5390:5539  function revokeRole(bytes32 role, address account) public virtual override onlyRole(getRoleAdmin(role)) {... */\n      pop\n      pop\n      pop\n      jump\t// out\n        /* \"src/Reserve.sol\":1333:1945  function initialize(address factory_,address control_, address USDT_, address WBNB_) external {... */\n    tag_88:\n        /* \"src/Reserve.sol\":1462:1474  _initializer */\n      immutable(\"0x1572b593c53d839d80004aa4b8c51211864104f06ace9e22be9c4365b50655ea\")\n        /* \"src/Reserve.sol\":1446:1474  _msgSender() == _initializer */\n      0xffffffffffffffffffffffffffffffffffffffff\n      and\n        /* \"src/Reserve.sol\":1446:1458  _msgSender() */\n      tag_135\n        /* \"src/Reserve.sol\":1446:1456  _msgSender */\n      tag_23\n        /* \"src/Reserve.sol\":1446:1458  _msgSender() */\n      jump\t// in\n    tag_135:\n        /* \"src/Reserve.sol\":1446:1474  _msgSender() == _initializer */\n      0xffffffffffffffffffffffffffffffffffffffff\n      and\n      eq\n        /* \"src/Reserve.sol\":1438:1517  require(_msgSender() == _initializer, \"Reserve: caller is not the initializer\") */\n      tag_136\n      jumpi\n      mload(0x40)\n      0x08c379a000000000000000000000000000000000000000000000000000000000\n      dup2\n      mstore\n      0x04\n      add\n      tag_137\n      swap1\n      tag_138\n      jump\t// in\n    tag_137:\n      mload(0x40)\n      dup1\n      swap2\n      sub\n      swap1\n      revert\n    tag_136:\n        /* \"src/Reserve.sol\":1655:1656  0 */\n      0x00\n        /* \"src/Reserve.sol\":1635:1657  control_ != address(0) */\n      0xffffffffffffffffffffffffffffffffffffffff\n      and\n        /* \"src/Reserve.sol\":1635:1643  control_ */\n      dup4\n        /* \"src/Reserve.sol\":1635:1657  control_ != address(0) */\n      0xffffffffffffffffffffffffffffffffffffffff\n      and\n      sub\n        /* \"src/Reserve.sol\":1627:1694  require(control_ != address(0), \"Reserve: invalid Control address\") */\n      tag_139\n      jumpi\n      mload(0x40)\n      0x08c379a000000000000000000000000000000000000000000000000000000000\n      dup2\n      mstore\n      0x04\n      add\n      tag_140\n      swap1\n      tag_141\n      jump\t// in\n    tag_140:\n      mload(0x40)\n      dup1\n      swap2\n      sub\n      swap1\n      revert\n    tag_139:\n        /* \"src/Reserve.sol\":1705:1738  _grantRole(CALLER_ROLE, control_) */\n      tag_142\n        /* \"src/Reserve.sol\":325:351  abi.encodePacked(\"Caller\") */\n      add(0x20, mload(0x40))\n      tag_143\n      swap1\n      tag_103\n      jump\t// in\n    tag_143:\n      mload(0x40)\n      0x20\n      dup2\n      dup4\n      sub\n      sub\n      dup2\n      mstore\n      swap1\n      0x40\n      mstore\n        /* \"src/Reserve.sol\":315:352  keccak256(abi.encodePacked(\"Caller\")) */\n      dup1\n      mload\n      swap1\n      0x20\n      add\n      keccak256\n        /* \"src/Reserve.sol\":1729:1737  control_ */\n      dup5\n        /* \"src/Reserve.sol\":1705:1715  _grantRole */\n      tag_119\n        /* \"src/Reserve.sol\":1705:1738  _grantRole(CALLER_ROLE, control_) */\n      jump\t// in\n    tag_142:\n        /* \"src/Reserve.sol\":1790:1834  _grantRole(DEFAULT_ADMIN_ROLE, _msgSender()) */\n      tag_144\n        /* \"src/utils/AccessControl.sol\":2132:2136  0x00 */\n      0x00\n        /* \"src/Reserve.sol\":1801:1819  DEFAULT_ADMIN_ROLE */\n      dup1\n      shl\n        /* \"src/Reserve.sol\":1821:1833  _msgSender() */\n      tag_145\n        /* \"src/Reserve.sol\":1821:1831  _msgSender */\n      tag_23\n        /* \"src/Reserve.sol\":1821:1833  _msgSender() */\n      jump\t// in\n    tag_145:\n        /* \"src/Reserve.sol\":1790:1800  _grantRole */\n      tag_119\n        /* \"src/Reserve.sol\":1790:1834  _grantRole(DEFAULT_ADMIN_ROLE, _msgSender()) */\n      jump\t// in\n    tag_144:\n        /* \"src/Reserve.sol\":1853:1861  factory_ */\n      dup4\n        /* \"src/Reserve.sol\":1845:1852  factory */\n      0x03\n      0x00\n        /* \"src/Reserve.sol\":1845:1861  factory=factory_ */\n      0x0100\n      exp\n      dup2\n      sload\n      dup2\n      0xffffffffffffffffffffffffffffffffffffffff\n      mul\n      not\n      and\n      swap1\n      dup4\n      0xffffffffffffffffffffffffffffffffffffffff\n      and\n      mul\n      or\n      swap1\n      sstore\n      pop\n        /* \"src/Reserve.sol\":1878:1883  USDT_ */\n      dup2\n        /* \"src/Reserve.sol\":1872:1876  USDT */\n      0x02\n      0x00\n        /* \"src/Reserve.sol\":1872:1883  USDT= USDT_ */\n      0x0100\n      exp\n      dup2\n      sload\n      dup2\n      0xffffffffffffffffffffffffffffffffffffffff\n      mul\n      not\n      and\n      swap1\n      dup4\n      0xffffffffffffffffffffffffffffffffffffffff\n      and\n      mul\n      or\n      swap1\n      sstore\n      pop\n        /* \"src/Reserve.sol\":1900:1905  WBNB_ */\n      dup1\n        /* \"src/Reserve.sol\":1894:1898  WBNB */\n      0x01\n      0x00\n        /* \"src/Reserve.sol\":1894:1905  WBNB= WBNB_ */\n      0x0100\n      exp\n      dup2\n      sload\n      dup2\n      0xffffffffffffffffffffffffffffffffffffffff\n      mul\n      not\n      and\n      swap1\n      dup4\n      0xffffffffffffffffffffffffffffffffffffffff\n      and\n      mul\n      or\n      swap1\n      sstore\n      pop\n        /* \"src/Reserve.sol\":1933:1937  true */\n      0x01\n        /* \"src/Reserve.sol\":1916:1930  _isInitialized */\n      0x02\n      0x14\n        /* \"src/Reserve.sol\":1916:1937  _isInitialized = true */\n      0x0100\n      exp\n      dup2\n      sload\n      dup2\n      0xff\n      mul\n      not\n      and\n      swap1\n      dup4\n      iszero\n      iszero\n      mul\n      or\n      swap1\n      sstore\n      pop\n        /* \"src/Reserve.sol\":1333:1945  function initialize(address factory_,address control_, address USDT_, address WBNB_) external {... */\n      pop\n      pop\n      pop\n      pop\n      jump\t// out\n        /* \"src/libraries/DataFetcher.sol\":596:1038  function getReserves(address pancakeFactory,address tokenA, address tokenB) internal view returns (uint256 reserveA, uint256 reserveB) {... */\n    tag_91:\n        /* \"src/libraries/DataFetcher.sol\":695:711  uint256 reserveA */\n      0x00\n        /* \"src/libraries/DataFetcher.sol\":713:729  uint256 reserveB */\n      dup1\n        /* \"src/libraries/DataFetcher.sol\":742:754  address pair */\n      0x00\n        /* \"src/libraries/DataFetcher.sol\":757:795  pairFor(pancakeFactory,tokenA, tokenB) */\n      tag_147\n        /* \"src/libraries/DataFetcher.sol\":765:779  pancakeFactory */\n      dup7\n        /* \"src/libraries/DataFetcher.sol\":780:786  tokenA */\n      dup7\n        /* \"src/libraries/DataFetcher.sol\":788:794  tokenB */\n      dup7\n        /* \"src/libraries/DataFetcher.sol\":757:764  pairFor */\n      tag_148\n        /* \"src/libraries/DataFetcher.sol\":757:795  pairFor(pancakeFactory,tokenA, tokenB) */\n      jump\t// in\n    tag_147:\n        /* \"src/libraries/DataFetcher.sol\":742:795  address pair = pairFor(pancakeFactory,tokenA, tokenB) */\n      swap1\n      pop\n        /* \"src/libraries/DataFetcher.sol\":806:820  address token0 */\n      0x00\n        /* \"src/libraries/DataFetcher.sol\":836:840  pair */\n      dup2\n        /* \"src/libraries/DataFetcher.sol\":823:848  IPancakePair(pair).token0 */\n      0xffffffffffffffffffffffffffffffffffffffff\n      and\n      0x0dfe1681\n        /* \"src/libraries/DataFetcher.sol\":823:850  IPancakePair(pair).token0() */\n      mload(0x40)\n      dup2\n      0xffffffff\n      and\n      0xe0\n      shl\n      dup2\n      mstore\n      0x04\n      add\n      0x20\n      mload(0x40)\n      dup1\n      dup4\n      sub\n      dup2\n      dup7\n      gas\n      staticcall\n      iszero\n      dup1\n      iszero\n      tag_150\n      jumpi\n      returndatasize\n      0x00\n      dup1\n      returndatacopy\n      revert(0x00, returndatasize)\n    tag_150:\n      pop\n      pop\n      pop\n      pop\n      mload(0x40)\n      returndatasize\n      not(0x1f)\n      0x1f\n      dup3\n      add\n      and\n      dup3\n      add\n      dup1\n      0x40\n      mstore\n      pop\n      dup2\n      add\n      swap1\n      tag_151\n      swap2\n      swap1\n      tag_152\n      jump\t// in\n    tag_151:\n        /* \"src/libraries/DataFetcher.sol\":806:850  address token0 = IPancakePair(pair).token0() */\n      swap1\n      pop\n        /* \"src/libraries/DataFetcher.sol\":862:878  uint256 reserve0 */\n      0x00\n        /* \"src/libraries/DataFetcher.sol\":880:896  uint256 reserve1 */\n      dup1\n        /* \"src/libraries/DataFetcher.sol\":915:919  pair */\n      dup4\n        /* \"src/libraries/DataFetcher.sol\":902:932  IPancakePair(pair).getReserves */\n      0xffffffffffffffffffffffffffffffffffffffff\n      and\n      0x0902f1ac\n        /* \"src/libraries/DataFetcher.sol\":902:934  IPancakePair(pair).getReserves() */\n      mload(0x40)\n      dup2\n      0xffffffff\n      and\n      0xe0\n      shl\n      dup2\n      mstore\n      0x04\n      add\n      0x60\n      mload(0x40)\n      dup1\n      dup4\n      sub\n      dup2\n      dup7\n      gas\n      staticcall\n      iszero\n      dup1\n      iszero\n      tag_154\n      jumpi\n      returndatasize\n      0x00\n      dup1\n      returndatacopy\n      revert(0x00, returndatasize)\n    tag_154:\n      pop\n      pop\n      pop\n      pop\n      mload(0x40)\n      returndatasize\n      not(0x1f)\n      0x1f\n      dup3\n      add\n      and\n      dup3\n      add\n      dup1\n      0x40\n      mstore\n      pop\n      dup2\n      add\n      swap1\n      tag_155\n      swap2\n      swap1\n      tag_156\n      jump\t// in\n    tag_155:\n        /* \"src/libraries/DataFetcher.sol\":861:934  (uint256 reserve0, uint256 reserve1, ) = IPancakePair(pair).getReserves() */\n      pop\n      0xffffffffffffffffffffffffffff\n      and\n      swap2\n      pop\n      0xffffffffffffffffffffffffffff\n      and\n      swap2\n      pop\n        /* \"src/libraries/DataFetcher.sol\":978:984  token0 */\n      dup3\n        /* \"src/libraries/DataFetcher.sol\":968:984  tokenA == token0 */\n      0xffffffffffffffffffffffffffffffffffffffff\n      and\n        /* \"src/libraries/DataFetcher.sol\":968:974  tokenA */\n      dup9\n        /* \"src/libraries/DataFetcher.sol\":968:984  tokenA == token0 */\n      0xffffffffffffffffffffffffffffffffffffffff\n      and\n      eq\n        /* \"src/libraries/DataFetcher.sol\":968:1030  tokenA == token0 ? (reserve0, reserve1) : (reserve1, reserve0) */\n      tag_157\n      jumpi\n        /* \"src/libraries/DataFetcher.sol\":1011:1019  reserve1 */\n      dup1\n        /* \"src/libraries/DataFetcher.sol\":1021:1029  reserve0 */\n      dup3\n        /* \"src/libraries/DataFetcher.sol\":968:1030  tokenA == token0 ? (reserve0, reserve1) : (reserve1, reserve0) */\n      jump(tag_158)\n    tag_157:\n        /* \"src/libraries/DataFetcher.sol\":988:996  reserve0 */\n      dup2\n        /* \"src/libraries/DataFetcher.sol\":998:1006  reserve1 */\n      dup2\n        /* \"src/libraries/DataFetcher.sol\":968:1030  tokenA == token0 ? (reserve0, reserve1) : (reserve1, reserve0) */\n    tag_158:\n        /* \"src/libraries/DataFetcher.sol\":945:1030  (reserveA, reserveB) = tokenA == token0 ? (reserve0, reserve1) : (reserve1, reserve0) */\n      dup1\n      swap7\n      pop\n      dup2\n      swap8\n      pop\n      pop\n      pop\n        /* \"src/libraries/DataFetcher.sol\":731:1038  {... */\n      pop\n      pop\n      pop\n      pop\n        /* \"src/libraries/DataFetcher.sol\":596:1038  function getReserves(address pancakeFactory,address tokenA, address tokenB) internal view returns (uint256 reserveA, uint256 reserveB) {... */\n      swap4\n      pop\n      swap4\n      swap2\n      pop\n      pop\n      jump\t// out\n        /* \"src/utils/ERC165.sol\":866:1023  function supportsInterface(bytes4 interfaceId) public view virtual override returns (bool) {... */\n    tag_100:\n        /* \"src/utils/ERC165.sol\":951:955  bool */\n      0x00\n        /* \"src/utils/ERC165.sol\":990:1015  type(IERC165).interfaceId */\n      0x01ffc9a700000000000000000000000000000000000000000000000000000000\n        /* \"src/utils/ERC165.sol\":975:1015  interfaceId == type(IERC165).interfaceId */\n      not(0xffffffffffffffffffffffffffffffffffffffffffffffffffffffff)\n      and\n        /* \"src/utils/ERC165.sol\":975:986  interfaceId */\n      dup3\n        /* \"src/utils/ERC165.sol\":975:1015  interfaceId == type(IERC165).interfaceId */\n      not(0xffffffffffffffffffffffffffffffffffffffffffffffffffffffff)\n      and\n      eq\n        /* \"src/utils/ERC165.sol\":968:1015  return interfaceId == type(IERC165).interfaceId */\n      swap1\n      pop\n        /* \"src/utils/ERC165.sol\":866:1023  function supportsInterface(bytes4 interfaceId) public view virtual override returns (bool) {... */\n      swap2\n      swap1\n      pop\n      jump\t// out\n        /* \"src/utils/AccessControl.sol\":3433:3538  function _checkRole(bytes32 role) internal view virtual {... */\n    tag_106:\n        /* \"src/utils/AccessControl.sol\":3500:3530  _checkRole(role, _msgSender()) */\n      tag_161\n        /* \"src/utils/AccessControl.sol\":3511:3515  role */\n      dup2\n        /* \"src/utils/AccessControl.sol\":3517:3529  _msgSender() */\n      tag_162\n        /* \"src/utils/AccessControl.sol\":3517:3527  _msgSender */\n      tag_23\n        /* \"src/utils/AccessControl.sol\":3517:3529  _msgSender() */\n      jump\t// in\n    tag_162:\n        /* \"src/utils/AccessControl.sol\":3500:3510  _checkRole */\n      tag_163\n        /* \"src/utils/AccessControl.sol\":3500:3530  _checkRole(role, _msgSender()) */\n      jump\t// in\n    tag_161:\n        /* \"src/utils/AccessControl.sol\":3433:3538  function _checkRole(bytes32 role) internal view virtual {... */\n      pop\n      jump\t// out\n        /* \"src/libraries/SafeETH.sol\":91:301  function safeTransferETH(address to, uint256 value) internal {... */\n    tag_110:\n        /* \"src/libraries/SafeETH.sol\":164:176  bool success */\n      0x00\n        /* \"src/libraries/SafeETH.sol\":182:184  to */\n      dup3\n        /* \"src/libraries/SafeETH.sol\":182:189  to.call */\n      0xffffffffffffffffffffffffffffffffffffffff\n      and\n        /* \"src/libraries/SafeETH.sol\":197:202  value */\n      dup3\n        /* \"src/libraries/SafeETH.sol\":214:215  0 */\n      0x00\n        /* \"src/libraries/SafeETH.sol\":204:216  new bytes(0) */\n      0xffffffffffffffff\n      dup2\n      gt\n      iszero\n      tag_165\n      jumpi\n      tag_166\n      tag_167\n      jump\t// in\n    tag_166:\n    tag_165:\n      mload(0x40)\n      swap1\n      dup1\n      dup3\n      mstore\n      dup1\n      0x1f\n      add\n      not(0x1f)\n      and\n      0x20\n      add\n      dup3\n      add\n      0x40\n      mstore\n      dup1\n      iszero\n      tag_168\n      jumpi\n      dup2\n      0x20\n      add\n      0x01\n      dup3\n      mul\n      dup1\n      calldatasize\n      dup4\n      calldatacopy\n      dup1\n      dup3\n      add\n      swap2\n      pop\n      pop\n      swap1\n      pop\n    tag_168:\n      pop\n        /* \"src/libraries/SafeETH.sol\":182:217  to.call{value: value}(new bytes(0)) */\n      mload(0x40)\n      tag_169\n      swap2\n      swap1\n      tag_170\n      jump\t// in\n    tag_169:\n      0x00\n      mload(0x40)\n      dup1\n      dup4\n      sub\n      dup2\n      dup6\n      dup8\n      gas\n      call\n      swap3\n      pop\n      pop\n      pop\n      returndatasize\n      dup1\n      0x00\n      dup2\n      eq\n      tag_173\n      jumpi\n      mload(0x40)\n      swap2\n      pop\n      and(add(returndatasize, 0x3f), not(0x1f))\n      dup3\n      add\n      0x40\n      mstore\n      returndatasize\n      dup3\n      mstore\n      returndatasize\n      0x00\n      0x20\n      dup5\n      add\n      returndatacopy\n      jump(tag_172)\n    tag_173:\n      0x60\n      swap2\n      pop\n    tag_172:\n      pop\n        /* \"src/libraries/SafeETH.sol\":163:217  (bool success, ) = to.call{value: value}(new bytes(0)) */\n      pop\n      swap1\n      pop\n        /* \"src/libraries/SafeETH.sol\":236:243  success */\n      dup1\n        /* \"src/libraries/SafeETH.sol\":228:293  require(success, \"SafeETH::safeTransferETH: ETH transfer failed\") */\n      tag_174\n      jumpi\n      mload(0x40)\n      0x08c379a000000000000000000000000000000000000000000000000000000000\n      dup2\n      mstore\n      0x04\n      add\n      tag_175\n      swap1\n      tag_176\n      jump\t// in\n    tag_175:\n      mload(0x40)\n      dup1\n      swap2\n      sub\n      swap1\n      revert\n    tag_174:\n        /* \"src/libraries/SafeETH.sol\":152:301  {... */\n      pop\n        /* \"src/libraries/SafeETH.sol\":91:301  function safeTransferETH(address to, uint256 value) internal {... */\n      pop\n      pop\n      jump\t// out\n        /* \"src/utils/AccessControl.sol\":7691:7929  function _grantRole(bytes32 role, address account) internal virtual {... */\n    tag_119:\n        /* \"src/utils/AccessControl.sol\":7775:7797  hasRole(role, account) */\n      tag_178\n        /* \"src/utils/AccessControl.sol\":7783:7787  role */\n      dup3\n        /* \"src/utils/AccessControl.sol\":7789:7796  account */\n      dup3\n        /* \"src/utils/AccessControl.sol\":7775:7782  hasRole */\n      tag_66\n        /* \"src/utils/AccessControl.sol\":7775:7797  hasRole(role, account) */\n      jump\t// in\n    tag_178:\n        /* \"src/utils/AccessControl.sol\":7770:7922  if (!hasRole(role, account)) {... */\n      tag_179\n      jumpi\n        /* \"src/utils/AccessControl.sol\":7846:7850  true */\n      0x01\n        /* \"src/utils/AccessControl.sol\":7814:7820  _roles */\n      0x00\n        /* \"src/utils/AccessControl.sol\":7814:7826  _roles[role] */\n      dup1\n        /* \"src/utils/AccessControl.sol\":7821:7825  role */\n      dup5\n        /* \"src/utils/AccessControl.sol\":7814:7826  _roles[role] */\n      dup2\n      mstore\n      0x20\n      add\n      swap1\n      dup2\n      mstore\n      0x20\n      add\n      0x00\n      keccak256\n        /* \"src/utils/AccessControl.sol\":7814:7834  _roles[role].members */\n      0x00\n      add\n        /* \"src/utils/AccessControl.sol\":7814:7843  _roles[role].members[account] */\n      0x00\n        /* \"src/utils/AccessControl.sol\":7835:7842  account */\n      dup4\n        /* \"src/utils/AccessControl.sol\":7814:7843  _roles[role].members[account] */\n      0xffffffffffffffffffffffffffffffffffffffff\n      and\n      0xffffffffffffffffffffffffffffffffffffffff\n      and\n      dup2\n      mstore\n      0x20\n      add\n      swap1\n      dup2\n      mstore\n      0x20\n      add\n      0x00\n      keccak256\n      0x00\n        /* \"src/utils/AccessControl.sol\":7814:7850  _roles[role].members[account] = true */\n      0x0100\n      exp\n      dup2\n      sload\n      dup2\n      0xff\n      mul\n      not\n      and\n      swap1\n      dup4\n      iszero\n      iszero\n      mul\n      or\n      swap1\n      sstore\n      pop\n        /* \"src/utils/AccessControl.sol\":7897:7909  _msgSender() */\n      tag_180\n        /* \"src/utils/AccessControl.sol\":7897:7907  _msgSender */\n      tag_23\n        /* \"src/utils/AccessControl.sol\":7897:7909  _msgSender() */\n      jump\t// in\n    tag_180:\n        /* \"src/utils/AccessControl.sol\":7870:7910  RoleGranted(role, account, _msgSender()) */\n      0xffffffffffffffffffffffffffffffffffffffff\n      and\n        /* \"src/utils/AccessControl.sol\":7888:7895  account */\n      dup2\n        /* \"src/utils/AccessControl.sol\":7870:7910  RoleGranted(role, account, _msgSender()) */\n      0xffffffffffffffffffffffffffffffffffffffff\n      and\n        /* \"src/utils/AccessControl.sol\":7882:7886  role */\n      dup4\n        /* \"src/utils/AccessControl.sol\":7870:7910  RoleGranted(role, account, _msgSender()) */\n      0x2f8788117e7eff1d82e926ec794901d17c78024a50270940304540a733656f0d\n      mload(0x40)\n      mload(0x40)\n      dup1\n      swap2\n      sub\n      swap1\n      log4\n        /* \"src/utils/AccessControl.sol\":7770:7922  if (!hasRole(role, account)) {... */\n    tag_179:\n        /* \"src/utils/AccessControl.sol\":7691:7929  function _grantRole(bytes32 role, address account) internal virtual {... */\n      pop\n      pop\n      jump\t// out\n        /* \"src/utils/AccessControl.sol\":8109:8348  function _revokeRole(bytes32 role, address account) internal virtual {... */\n    tag_126:\n        /* \"src/utils/AccessControl.sol\":8193:8215  hasRole(role, account) */\n      tag_182\n        /* \"src/utils/AccessControl.sol\":8201:8205  role */\n      dup3\n        /* \"src/utils/AccessControl.sol\":8207:8214  account */\n      dup3\n        /* \"src/utils/AccessControl.sol\":8193:8200  hasRole */\n      tag_66\n        /* \"src/utils/AccessControl.sol\":8193:8215  hasRole(role, account) */\n      jump\t// in\n    tag_182:\n        /* \"src/utils/AccessControl.sol\":8189:8341  if (hasRole(role, account)) {... */\n      iszero\n      tag_183\n      jumpi\n        /* \"src/utils/AccessControl.sol\":8264:8269  false */\n      0x00\n        /* \"src/utils/AccessControl.sol\":8232:8238  _roles */\n      dup1\n        /* \"src/utils/AccessControl.sol\":8232:8244  _roles[role] */\n      0x00\n        /* \"src/utils/AccessControl.sol\":8239:8243  role */\n      dup5\n        /* \"src/utils/AccessControl.sol\":8232:8244  _roles[role] */\n      dup2\n      mstore\n      0x20\n      add\n      swap1\n      dup2\n      mstore\n      0x20\n      add\n      0x00\n      keccak256\n        /* \"src/utils/AccessControl.sol\":8232:8252  _roles[role].members */\n      0x00\n      add\n        /* \"src/utils/AccessControl.sol\":8232:8261  _roles[role].members[account] */\n      0x00\n        /* \"src/utils/AccessControl.sol\":8253:8260  account */\n      dup4\n        /* \"src/utils/AccessControl.sol\":8232:8261  _roles[role].members[account] */\n      0xffffffffffffffffffffffffffffffffffffffff\n      and\n      0xffffffffffffffffffffffffffffffffffffffff\n      and\n      dup2\n      mstore\n      0x20\n      add\n      swap1\n      dup2\n      mstore\n      0x20\n      add\n      0x00\n      keccak256\n      0x00\n        /* \"src/utils/AccessControl.sol\":8232:8269  _roles[role].members[account] = false */\n      0x0100\n      exp\n      dup2\n      sload\n      dup2\n      0xff\n      mul\n      not\n      and\n      swap1\n      dup4\n      iszero\n      iszero\n      mul\n      or\n      swap1\n      sstore\n      pop\n        /* \"src/utils/AccessControl.sol\":8316:8328  _msgSender() */\n      tag_184\n        /* \"src/utils/AccessControl.sol\":8316:8326  _msgSender */\n      tag_23\n        /* \"src/utils/AccessControl.sol\":8316:8328  _msgSender() */\n      jump\t// in\n    tag_184:\n        /* \"src/utils/AccessControl.sol\":8289:8329  RoleRevoked(role, account, _msgSender()) */\n      0xffffffffffffffffffffffffffffffffffffffff\n      and\n        /* \"src/utils/AccessControl.sol\":8307:8314  account */\n      dup2\n        /* \"src/utils/AccessControl.sol\":8289:8329  RoleRevoked(role, account, _msgSender()) */\n      0xffffffffffffffffffffffffffffffffffffffff\n      and\n        /* \"src/utils/AccessControl.sol\":8301:8305  role */\n      dup4\n        /* \"src/utils/AccessControl.sol\":8289:8329  RoleRevoked(role, account, _msgSender()) */\n      0xf6391f5c32d9c69d2a47ea670b442974b53935d1edc7fd64eb21e047a839171b\n      mload(0x40)\n      mload(0x40)\n      dup1\n      swap2\n      sub\n      swap1\n      log4\n        /* \"src/utils/AccessControl.sol\":8189:8341  if (hasRole(role, account)) {... */\n    tag_183:\n        /* \"src/utils/AccessControl.sol\":8109:8348  function _revokeRole(bytes32 role, address account) internal virtual {... */\n      pop\n      pop\n      jump\t// out\n        /* \"src/libraries/DataFetcher.sol\":397:588  function pairFor(address pancakeFactory, address tokenA, address tokenB) internal view returns (address pair) {... */\n    tag_148:\n        /* \"src/libraries/DataFetcher.sol\":493:505  address pair */\n      0x00\n        /* \"src/libraries/DataFetcher.sol\":541:555  pancakeFactory */\n      dup4\n        /* \"src/libraries/DataFetcher.sol\":525:564  IPancakeFactory(pancakeFactory).getPair */\n      0xffffffffffffffffffffffffffffffffffffffff\n      and\n      0xe6a43905\n        /* \"src/libraries/DataFetcher.sol\":565:571  tokenA */\n      dup5\n        /* \"src/libraries/DataFetcher.sol\":573:579  tokenB */\n      dup5\n        /* \"src/libraries/DataFetcher.sol\":525:580  IPancakeFactory(pancakeFactory).getPair(tokenA, tokenB) */\n      mload(0x40)\n      dup4\n      0xffffffff\n      and\n      0xe0\n      shl\n      dup2\n      mstore\n      0x04\n      add\n      tag_186\n      swap3\n      swap2\n      swap1\n      tag_187\n      jump\t// in\n    tag_186:\n      0x20\n      mload(0x40)\n      dup1\n      dup4\n      sub\n      dup2\n      dup7\n      gas\n      staticcall\n      iszero\n      dup1\n      iszero\n      tag_189\n      jumpi\n      returndatasize\n      0x00\n      dup1\n      returndatacopy\n      revert(0x00, returndatasize)\n    tag_189:\n      pop\n      pop\n      pop\n      pop\n      mload(0x40)\n      returndatasize\n      not(0x1f)\n      0x1f\n      dup3\n      add\n      and\n      dup3\n      add\n      dup1\n      0x40\n      mstore\n      pop\n      dup2\n      add\n      swap1\n      tag_190\n      swap2\n      swap1\n      tag_152\n      jump\t// in\n    tag_190:\n        /* \"src/libraries/DataFetcher.sol\":518:580  return IPancakeFactory(pancakeFactory).getPair(tokenA, tokenB) */\n      swap1\n      pop\n        /* \"src/libraries/DataFetcher.sol\":397:588  function pairFor(address pancakeFactory, address tokenA, address tokenB) internal view returns (address pair) {... */\n      swap4\n      swap3\n      pop\n      pop\n      pop\n      jump\t// out\n        /* \"src/utils/AccessControl.sol\":3828:4320  function _checkRole(bytes32 role, address account) internal view virtual {... */\n    tag_163:\n        /* \"src/utils/AccessControl.sol\":3917:3939  hasRole(role, account) */\n      tag_192\n        /* \"src/utils/AccessControl.sol\":3925:3929  role */\n      dup3\n        /* \"src/utils/AccessControl.sol\":3931:3938  account */\n      dup3\n        /* \"src/utils/AccessControl.sol\":3917:3924  hasRole */\n      tag_66\n        /* \"src/utils/AccessControl.sol\":3917:3939  hasRole(role, account) */\n      jump\t// in\n    tag_192:\n        /* \"src/utils/AccessControl.sol\":3912:4313  if (!hasRole(role, account)) {... */\n      tag_193\n      jumpi\n        /* \"src/utils/AccessControl.sol\":4105:4133  Strings.toHexString(account) */\n      tag_194\n        /* \"src/utils/AccessControl.sol\":4125:4132  account */\n      dup2\n        /* \"src/utils/AccessControl.sol\":4105:4124  Strings.toHexString */\n      tag_195\n        /* \"src/utils/AccessControl.sol\":4105:4133  Strings.toHexString(account) */\n      jump\t// in\n    tag_194:\n        /* \"src/utils/AccessControl.sol\":4206:4244  Strings.toHexString(uint256(role), 32) */\n      tag_196\n        /* \"src/utils/AccessControl.sol\":4234:4238  role */\n      dup4\n        /* \"src/utils/AccessControl.sol\":4226:4239  uint256(role) */\n      0x00\n      shr\n        /* \"src/utils/AccessControl.sol\":4241:4243  32 */\n      0x20\n        /* \"src/utils/AccessControl.sol\":4206:4225  Strings.toHexString */\n      tag_197\n        /* \"src/utils/AccessControl.sol\":4206:4244  Strings.toHexString(uint256(role), 32) */\n      jump\t// in\n    tag_196:\n        /* \"src/utils/AccessControl.sol\":4010:4267  abi.encodePacked(... */\n      add(0x20, mload(0x40))\n      tag_198\n      swap3\n      swap2\n      swap1\n      tag_199\n      jump\t// in\n    tag_198:\n      mload(0x40)\n      0x20\n      dup2\n      dup4\n      sub\n      sub\n      dup2\n      mstore\n      swap1\n      0x40\n      mstore\n        /* \"src/utils/AccessControl.sol\":3956:4301  revert(... */\n      mload(0x40)\n      0x08c379a000000000000000000000000000000000000000000000000000000000\n      dup2\n      mstore\n      0x04\n      add\n      tag_200\n      swap2\n      swap1\n      tag_201\n      jump\t// in\n    tag_200:\n      mload(0x40)\n      dup1\n      swap2\n      sub\n      swap1\n      revert\n        /* \"src/utils/AccessControl.sol\":3912:4313  if (!hasRole(role, account)) {... */\n    tag_193:\n        /* \"src/utils/AccessControl.sol\":3828:4320  function _checkRole(bytes32 role, address account) internal view virtual {... */\n      pop\n      pop\n      jump\t// out\n        /* \"src/libraries/Strings.sol\":2471:2622  function toHexString(address addr) internal pure returns (string memory) {... */\n    tag_195:\n        /* \"src/libraries/Strings.sol\":2529:2542  string memory */\n      0x60\n        /* \"src/libraries/Strings.sol\":2562:2614  toHexString(uint256(uint160(addr)), _ADDRESS_LENGTH) */\n      tag_203\n        /* \"src/libraries/Strings.sol\":2590:2594  addr */\n      dup3\n        /* \"src/libraries/Strings.sol\":2574:2596  uint256(uint160(addr)) */\n      0xffffffffffffffffffffffffffffffffffffffff\n      and\n        /* \"src/libraries/Strings.sol\":346:348  20 */\n      0x14\n        /* \"src/libraries/Strings.sol\":2562:2614  toHexString(uint256(uint160(addr)), _ADDRESS_LENGTH) */\n      0xff\n      and\n        /* \"src/libraries/Strings.sol\":2562:2573  toHexString */\n      tag_197\n        /* \"src/libraries/Strings.sol\":2562:2614  toHexString(uint256(uint160(addr)), _ADDRESS_LENGTH) */\n      jump\t// in\n    tag_203:\n        /* \"src/libraries/Strings.sol\":2555:2614  return toHexString(uint256(uint160(addr)), _ADDRESS_LENGTH) */\n      swap1\n      pop\n        /* \"src/libraries/Strings.sol\":2471:2622  function toHexString(address addr) internal pure returns (string memory) {... */\n      swap2\n      swap1\n      pop\n      jump\t// out\n        /* \"src/libraries/Strings.sol\":1867:2314  function toHexString(uint256 value, uint256 length) internal pure returns (string memory) {... */\n    tag_197:\n        /* \"src/libraries/Strings.sol\":1942:1955  string memory */\n      0x60\n        /* \"src/libraries/Strings.sol\":1968:1987  bytes memory buffer */\n      0x00\n        /* \"src/libraries/Strings.sol\":2013:2014  2 */\n      0x02\n        /* \"src/libraries/Strings.sol\":2004:2010  length */\n      dup4\n        /* \"src/libraries/Strings.sol\":2000:2001  2 */\n      0x02\n        /* \"src/libraries/Strings.sol\":2000:2010  2 * length */\n      tag_205\n      swap2\n      swap1\n      tag_93\n      jump\t// in\n    tag_205:\n        /* \"src/libraries/Strings.sol\":2000:2014  2 * length + 2 */\n      tag_206\n      swap2\n      swap1\n      tag_207\n      jump\t// in\n    tag_206:\n        /* \"src/libraries/Strings.sol\":1990:2015  new bytes(2 * length + 2) */\n      0xffffffffffffffff\n      dup2\n      gt\n      iszero\n      tag_208\n      jumpi\n      tag_209\n      tag_167\n      jump\t// in\n    tag_209:\n    tag_208:\n      mload(0x40)\n      swap1\n      dup1\n      dup3\n      mstore\n      dup1\n      0x1f\n      add\n      not(0x1f)\n      and\n      0x20\n      add\n      dup3\n      add\n      0x40\n      mstore\n      dup1\n      iszero\n      tag_210\n      jumpi\n      dup2\n      0x20\n      add\n      0x01\n      dup3\n      mul\n      dup1\n      calldatasize\n      dup4\n      calldatacopy\n      dup1\n      dup3\n      add\n      swap2\n      pop\n      pop\n      swap1\n      pop\n    tag_210:\n      pop\n        /* \"src/libraries/Strings.sol\":1968:2015  bytes memory buffer = new bytes(2 * length + 2) */\n      swap1\n      pop\n        /* \"src/libraries/Strings.sol\":2026:2041  buffer[0] = \"0\" */\n      0x3000000000000000000000000000000000000000000000000000000000000000\n        /* \"src/libraries/Strings.sol\":2026:2032  buffer */\n      dup2\n        /* \"src/libraries/Strings.sol\":2033:2034  0 */\n      0x00\n        /* \"src/libraries/Strings.sol\":2026:2035  buffer[0] */\n      dup2\n      mload\n      dup2\n      lt\n      tag_211\n      jumpi\n      tag_212\n      tag_213\n      jump\t// in\n    tag_212:\n    tag_211:\n      0x20\n      add\n      add\n        /* \"src/libraries/Strings.sol\":2026:2041  buffer[0] = \"0\" */\n      swap1\n      not(0xffffffffffffffffffffffffffffffffffffffffffffffffffffffffffffff)\n      and\n      swap1\n      dup2\n      0x00\n      byte\n      swap1\n      mstore8\n      pop\n        /* \"src/libraries/Strings.sol\":2052:2067  buffer[1] = \"x\" */\n      0x7800000000000000000000000000000000000000000000000000000000000000\n        /* \"src/libraries/Strings.sol\":2052:2058  buffer */\n      dup2\n        /* \"src/libraries/Strings.sol\":2059:2060  1 */\n      0x01\n        /* \"src/libraries/Strings.sol\":2052:2061  buffer[1] */\n      dup2\n      mload\n      dup2\n      lt\n      tag_214\n      jumpi\n      tag_215\n      tag_213\n      jump\t// in\n    tag_215:\n    tag_214:\n      0x20\n      add\n      add\n        /* \"src/libraries/Strings.sol\":2052:2067  buffer[1] = \"x\" */\n      swap1\n      not(0xffffffffffffffffffffffffffffffffffffffffffffffffffffffffffffff)\n      and\n      swap1\n      dup2\n      0x00\n      byte\n      swap1\n      mstore8\n      pop\n        /* \"src/libraries/Strings.sol\":2083:2092  uint256 i */\n      0x00\n        /* \"src/libraries/Strings.sol\":2108:2109  1 */\n      0x01\n        /* \"src/libraries/Strings.sol\":2099:2105  length */\n      dup5\n        /* \"src/libraries/Strings.sol\":2095:2096  2 */\n      0x02\n        /* \"src/libraries/Strings.sol\":2095:2105  2 * length */\n      tag_219\n      swap2\n      swap1\n      tag_93\n      jump\t// in\n    tag_219:\n        /* \"src/libraries/Strings.sol\":2095:2109  2 * length + 1 */\n      tag_220\n      swap2\n      swap1\n      tag_207\n      jump\t// in\n    tag_220:\n        /* \"src/libraries/Strings.sol\":2083:2109  uint256 i = 2 * length + 1 */\n      swap1\n      pop\n        /* \"src/libraries/Strings.sol\":2078:2209  for (uint256 i = 2 * length + 1; i > 1; --i) {... */\n    tag_216:\n        /* \"src/libraries/Strings.sol\":2115:2116  1 */\n      0x01\n        /* \"src/libraries/Strings.sol\":2111:2112  i */\n      dup2\n        /* \"src/libraries/Strings.sol\":2111:2116  i > 1 */\n      gt\n        /* \"src/libraries/Strings.sol\":2078:2209  for (uint256 i = 2 * length + 1; i > 1; --i) {... */\n      iszero\n      tag_217\n      jumpi\n        /* \"src/libraries/Strings.sol\":2150:2158  _SYMBOLS */\n      0x3031323334353637383961626364656600000000000000000000000000000000\n        /* \"src/libraries/Strings.sol\":2167:2170  0xf */\n      0x0f\n        /* \"src/libraries/Strings.sol\":2159:2164  value */\n      dup7\n        /* \"src/libraries/Strings.sol\":2159:2170  value & 0xf */\n      and\n        /* \"src/libraries/Strings.sol\":2150:2171  _SYMBOLS[value & 0xf] */\n      0x10\n      dup2\n      lt\n      tag_221\n      jumpi\n      tag_222\n      tag_213\n      jump\t// in\n    tag_222:\n    tag_221:\n      byte\n      0xf8\n      shl\n        /* \"src/libraries/Strings.sol\":2138:2144  buffer */\n      dup3\n        /* \"src/libraries/Strings.sol\":2145:2146  i */\n      dup3\n        /* \"src/libraries/Strings.sol\":2138:2147  buffer[i] */\n      dup2\n      mload\n      dup2\n      lt\n      tag_223\n      jumpi\n      tag_224\n      tag_213\n      jump\t// in\n    tag_224:\n    tag_223:\n      0x20\n      add\n      add\n        /* \"src/libraries/Strings.sol\":2138:2171  buffer[i] = _SYMBOLS[value & 0xf] */\n      swap1\n      not(0xffffffffffffffffffffffffffffffffffffffffffffffffffffffffffffff)\n      and\n      swap1\n      dup2\n      0x00\n      byte\n      swap1\n      mstore8\n      pop\n        /* \"src/libraries/Strings.sol\":2196:2197  4 */\n      0x04\n        /* \"src/libraries/Strings.sol\":2186:2197  value >>= 4 */\n      dup6\n      swap1\n      shr\n      swap5\n      pop\n        /* \"src/libraries/Strings.sol\":2118:2121  --i */\n      dup1\n      tag_225\n      swap1\n      tag_226\n      jump\t// in\n    tag_225:\n      swap1\n      pop\n        /* \"src/libraries/Strings.sol\":2078:2209  for (uint256 i = 2 * length + 1; i > 1; --i) {... */\n      jump(tag_216)\n    tag_217:\n      pop\n        /* \"src/libraries/Strings.sol\":2236:2237  0 */\n      0x00\n        /* \"src/libraries/Strings.sol\":2227:2232  value */\n      dup5\n        /* \"src/libraries/Strings.sol\":2227:2237  value == 0 */\n      eq\n        /* \"src/libraries/Strings.sol\":2219:2274  require(value == 0, \"Strings: hex length insufficient\") */\n      tag_227\n      jumpi\n      mload(0x40)\n      0x08c379a000000000000000000000000000000000000000000000000000000000\n      dup2\n      mstore\n      0x04\n      add\n      tag_228\n      swap1\n      tag_229\n      jump\t// in\n    tag_228:\n      mload(0x40)\n      dup1\n      swap2\n      sub\n      swap1\n      revert\n    tag_227:\n        /* \"src/libraries/Strings.sol\":2299:2305  buffer */\n      dup1\n        /* \"src/libraries/Strings.sol\":2285:2306  return string(buffer) */\n      swap2\n      pop\n      pop\n        /* \"src/libraries/Strings.sol\":1867:2314  function toHexString(uint256 value, uint256 length) internal pure returns (string memory) {... */\n      swap3\n      swap2\n      pop\n      pop\n      jump\t// out\n        /* \"#utility.yul\":7:133   */\n    tag_230:\n        /* \"#utility.yul\":44:51   */\n      0x00\n        /* \"#utility.yul\":84:126   */\n      0xffffffffffffffffffffffffffffffffffffffff\n        /* \"#utility.yul\":77:82   */\n      dup3\n        /* \"#utility.yul\":73:127   */\n      and\n        /* \"#utility.yul\":62:127   */\n      swap1\n      pop\n        /* \"#utility.yul\":7:133   */\n      swap2\n      swap1\n      pop\n      jump\t// out\n        /* \"#utility.yul\":139:235   */\n    tag_231:\n        /* \"#utility.yul\":176:183   */\n      0x00\n        /* \"#utility.yul\":205:229   */\n      tag_289\n        /* \"#utility.yul\":223:228   */\n      dup3\n        /* \"#utility.yul\":205:229   */\n      tag_230\n      jump\t// in\n    tag_289:\n        /* \"#utility.yul\":194:229   */\n      swap1\n      pop\n        /* \"#utility.yul\":139:235   */\n      swap2\n      swap1\n      pop\n      jump\t// out\n        /* \"#utility.yul\":241:359   */\n    tag_232:\n        /* \"#utility.yul\":328:352   */\n      tag_291\n        /* \"#utility.yul\":346:351   */\n      dup2\n        /* \"#utility.yul\":328:352   */\n      tag_231\n      jump\t// in\n    tag_291:\n        /* \"#utility.yul\":323:326   */\n      dup3\n        /* \"#utility.yul\":316:353   */\n      mstore\n        /* \"#utility.yul\":241:359   */\n      pop\n      pop\n      jump\t// out\n        /* \"#utility.yul\":365:442   */\n    tag_233:\n        /* \"#utility.yul\":402:409   */\n      0x00\n        /* \"#utility.yul\":431:436   */\n      dup2\n        /* \"#utility.yul\":420:436   */\n      swap1\n      pop\n        /* \"#utility.yul\":365:442   */\n      swap2\n      swap1\n      pop\n      jump\t// out\n        /* \"#utility.yul\":448:566   */\n    tag_234:\n        /* \"#utility.yul\":535:559   */\n      tag_294\n        /* \"#utility.yul\":553:558   */\n      dup2\n        /* \"#utility.yul\":535:559   */\n      tag_233\n      jump\t// in\n    tag_294:\n        /* \"#utility.yul\":530:533   */\n      dup3\n        /* \"#utility.yul\":523:560   */\n      mstore\n        /* \"#utility.yul\":448:566   */\n      pop\n      pop\n      jump\t// out\n        /* \"#utility.yul\":572:1125   */\n    tag_25:\n        /* \"#utility.yul\":749:753   */\n      0x00\n        /* \"#utility.yul\":787:790   */\n      0x80\n        /* \"#utility.yul\":776:785   */\n      dup3\n        /* \"#utility.yul\":772:791   */\n      add\n        /* \"#utility.yul\":764:791   */\n      swap1\n      pop\n        /* \"#utility.yul\":801:872   */\n      tag_296\n        /* \"#utility.yul\":869:870   */\n      0x00\n        /* \"#utility.yul\":858:867   */\n      dup4\n        /* \"#utility.yul\":854:871   */\n      add\n        /* \"#utility.yul\":845:851   */\n      dup8\n        /* \"#utility.yul\":801:872   */\n      tag_232\n      jump\t// in\n    tag_296:\n        /* \"#utility.yul\":882:954   */\n      tag_297\n        /* \"#utility.yul\":950:952   */\n      0x20\n        /* \"#utility.yul\":939:948   */\n      dup4\n        /* \"#utility.yul\":935:953   */\n      add\n        /* \"#utility.yul\":926:932   */\n      dup7\n        /* \"#utility.yul\":882:954   */\n      tag_234\n      jump\t// in\n    tag_297:\n        /* \"#utility.yul\":964:1036   */\n      tag_298\n        /* \"#utility.yul\":1032:1034   */\n      0x40\n        /* \"#utility.yul\":1021:1030   */\n      dup4\n        /* \"#utility.yul\":1017:1035   */\n      add\n        /* \"#utility.yul\":1008:1014   */\n      dup6\n        /* \"#utility.yul\":964:1036   */\n      tag_234\n      jump\t// in\n    tag_298:\n        /* \"#utility.yul\":1046:1118   */\n      tag_299\n        /* \"#utility.yul\":1114:1116   */\n      0x60\n        /* \"#utility.yul\":1103:1112   */\n      dup4\n        /* \"#utility.yul\":1099:1117   */\n      add\n        /* \"#utility.yul\":1090:1096   */\n      dup5\n        /* \"#utility.yul\":1046:1118   */\n      tag_234\n      jump\t// in\n    tag_299:\n        /* \"#utility.yul\":572:1125   */\n      swap6\n      swap5\n      pop\n      pop\n      pop\n      pop\n      pop\n      jump\t// out\n        /* \"#utility.yul\":1212:1329   */\n    tag_236:\n        /* \"#utility.yul\":1321:1322   */\n      0x00\n        /* \"#utility.yul\":1318:1319   */\n      dup1\n        /* \"#utility.yul\":1311:1323   */\n      revert\n        /* \"#utility.yul\":1458:1607   */\n    tag_238:\n        /* \"#utility.yul\":1494:1501   */\n      0x00\n        /* \"#utility.yul\":1534:1600   */\n      0xffffffff00000000000000000000000000000000000000000000000000000000\n        /* \"#utility.yul\":1527:1532   */\n      dup3\n        /* \"#utility.yul\":1523:1601   */\n      and\n        /* \"#utility.yul\":1512:1601   */\n      swap1\n      pop\n        /* \"#utility.yul\":1458:1607   */\n      swap2\n      swap1\n      pop\n      jump\t// out\n        /* \"#utility.yul\":1613:1733   */\n    tag_239:\n        /* \"#utility.yul\":1685:1708   */\n      tag_305\n        /* \"#utility.yul\":1702:1707   */\n      dup2\n        /* \"#utility.yul\":1685:1708   */\n      tag_238\n      jump\t// in\n    tag_305:\n        /* \"#utility.yul\":1678:1683   */\n      dup2\n        /* \"#utility.yul\":1675:1709   */\n      eq\n        /* \"#utility.yul\":1665:1727   */\n      tag_306\n      jumpi\n        /* \"#utility.yul\":1723:1724   */\n      0x00\n        /* \"#utility.yul\":1720:1721   */\n      dup1\n        /* \"#utility.yul\":1713:1725   */\n      revert\n        /* \"#utility.yul\":1665:1727   */\n    tag_306:\n        /* \"#utility.yul\":1613:1733   */\n      pop\n      jump\t// out\n        /* \"#utility.yul\":1739:1876   */\n    tag_240:\n        /* \"#utility.yul\":1784:1789   */\n      0x00\n        /* \"#utility.yul\":1822:1828   */\n      dup2\n        /* \"#utility.yul\":1809:1829   */\n      calldataload\n        /* \"#utility.yul\":1800:1829   */\n      swap1\n      pop\n        /* \"#utility.yul\":1838:1870   */\n      tag_308\n        /* \"#utility.yul\":1864:1869   */\n      dup2\n        /* \"#utility.yul\":1838:1870   */\n      tag_239\n      jump\t// in\n    tag_308:\n        /* \"#utility.yul\":1739:1876   */\n      swap3\n      swap2\n      pop\n      pop\n      jump\t// out\n        /* \"#utility.yul\":1882:2209   */\n    tag_29:\n        /* \"#utility.yul\":1940:1946   */\n      0x00\n        /* \"#utility.yul\":1989:1991   */\n      0x20\n        /* \"#utility.yul\":1977:1986   */\n      dup3\n        /* \"#utility.yul\":1968:1975   */\n      dup5\n        /* \"#utility.yul\":1964:1987   */\n      sub\n        /* \"#utility.yul\":1960:1992   */\n      slt\n        /* \"#utility.yul\":1957:2076   */\n      iszero\n      tag_310\n      jumpi\n        /* \"#utility.yul\":1995:2074   */\n      tag_311\n      tag_236\n      jump\t// in\n    tag_311:\n        /* \"#utility.yul\":1957:2076   */\n    tag_310:\n        /* \"#utility.yul\":2115:2116   */\n      0x00\n        /* \"#utility.yul\":2140:2192   */\n      tag_312\n        /* \"#utility.yul\":2184:2191   */\n      dup5\n        /* \"#utility.yul\":2175:2181   */\n      dup3\n        /* \"#utility.yul\":2164:2173   */\n      dup6\n        /* \"#utility.yul\":2160:2182   */\n      add\n        /* \"#utility.yul\":2140:2192   */\n      tag_240\n      jump\t// in\n    tag_312:\n        /* \"#utility.yul\":2130:2192   */\n      swap2\n      pop\n        /* \"#utility.yul\":2086:2202   */\n      pop\n        /* \"#utility.yul\":1882:2209   */\n      swap3\n      swap2\n      pop\n      pop\n      jump\t// out\n        /* \"#utility.yul\":2215:2305   */\n    tag_241:\n        /* \"#utility.yul\":2249:2256   */\n      0x00\n        /* \"#utility.yul\":2292:2297   */\n      dup2\n        /* \"#utility.yul\":2285:2298   */\n      iszero\n        /* \"#utility.yul\":2278:2299   */\n      iszero\n        /* \"#utility.yul\":2267:2299   */\n      swap1\n      pop\n        /* \"#utility.yul\":2215:2305   */\n      swap2\n      swap1\n      pop\n      jump\t// out\n        /* \"#utility.yul\":2311:2420   */\n    tag_242:\n        /* \"#utility.yul\":2392:2413   */\n      tag_315\n        /* \"#utility.yul\":2407:2412   */\n      dup2\n        /* \"#utility.yul\":2392:2413   */\n      tag_241\n      jump\t// in\n    tag_315:\n        /* \"#utility.yul\":2387:2390   */\n      dup3\n        /* \"#utility.yul\":2380:2414   */\n      mstore\n        /* \"#utility.yul\":2311:2420   */\n      pop\n      pop\n      jump\t// out\n        /* \"#utility.yul\":2426:2636   */\n    tag_32:\n        /* \"#utility.yul\":2513:2517   */\n      0x00\n        /* \"#utility.yul\":2551:2553   */\n      0x20\n        /* \"#utility.yul\":2540:2549   */\n      dup3\n        /* \"#utility.yul\":2536:2554   */\n      add\n        /* \"#utility.yul\":2528:2554   */\n      swap1\n      pop\n        /* \"#utility.yul\":2564:2629   */\n      tag_317\n        /* \"#utility.yul\":2626:2627   */\n      0x00\n        /* \"#utility.yul\":2615:2624   */\n      dup4\n        /* \"#utility.yul\":2611:2628   */\n      add\n        /* \"#utility.yul\":2602:2608   */\n      dup5\n        /* \"#utility.yul\":2564:2629   */\n      tag_242\n      jump\t// in\n    tag_317:\n        /* \"#utility.yul\":2426:2636   */\n      swap3\n      swap2\n      pop\n      pop\n      jump\t// out\n        /* \"#utility.yul\":2642:2719   */\n    tag_243:\n        /* \"#utility.yul\":2679:2686   */\n      0x00\n        /* \"#utility.yul\":2708:2713   */\n      dup2\n        /* \"#utility.yul\":2697:2713   */\n      swap1\n      pop\n        /* \"#utility.yul\":2642:2719   */\n      swap2\n      swap1\n      pop\n      jump\t// out\n        /* \"#utility.yul\":2725:2847   */\n    tag_244:\n        /* \"#utility.yul\":2798:2822   */\n      tag_320\n        /* \"#utility.yul\":2816:2821   */\n      dup2\n        /* \"#utility.yul\":2798:2822   */\n      tag_243\n      jump\t// in\n    tag_320:\n        /* \"#utility.yul\":2791:2796   */\n      dup2\n        /* \"#utility.yul\":2788:2823   */\n      eq\n        /* \"#utility.yul\":2778:2841   */\n      tag_321\n      jumpi\n        /* \"#utility.yul\":2837:2838   */\n      0x00\n        /* \"#utility.yul\":2834:2835   */\n      dup1\n        /* \"#utility.yul\":2827:2839   */\n      revert\n        /* \"#utility.yul\":2778:2841   */\n    tag_321:\n        /* \"#utility.yul\":2725:2847   */\n      pop\n      jump\t// out\n        /* \"#utility.yul\":2853:2992   */\n    tag_245:\n        /* \"#utility.yul\":2899:2904   */\n      0x00\n        /* \"#utility.yul\":2937:2943   */\n      dup2\n        /* \"#utility.yul\":2924:2944   */\n      calldataload\n        /* \"#utility.yul\":2915:2944   */\n      swap1\n      pop\n        /* \"#utility.yul\":2953:2986   */\n      tag_323\n        /* \"#utility.yul\":2980:2985   */\n      dup2\n        /* \"#utility.yul\":2953:2986   */\n      tag_244\n      jump\t// in\n    tag_323:\n        /* \"#utility.yul\":2853:2992   */\n      swap3\n      swap2\n      pop\n      pop\n      jump\t// out\n        /* \"#utility.yul\":2998:3327   */\n    tag_36:\n        /* \"#utility.yul\":3057:3063   */\n      0x00\n        /* \"#utility.yul\":3106:3108   */\n      0x20\n        /* \"#utility.yul\":3094:3103   */\n      dup3\n        /* \"#utility.yul\":3085:3092   */\n      dup5\n        /* \"#utility.yul\":3081:3104   */\n      sub\n        /* \"#utility.yul\":3077:3109   */\n      slt\n        /* \"#utility.yul\":3074:3193   */\n      iszero\n      tag_325\n      jumpi\n        /* \"#utility.yul\":3112:3191   */\n      tag_326\n      tag_236\n      jump\t// in\n    tag_326:\n        /* \"#utility.yul\":3074:3193   */\n    tag_325:\n        /* \"#utility.yul\":3232:3233   */\n      0x00\n        /* \"#utility.yul\":3257:3310   */\n      tag_327\n        /* \"#utility.yul\":3302:3309   */\n      dup5\n        /* \"#utility.yul\":3293:3299   */\n      dup3\n        /* \"#utility.yul\":3282:3291   */\n      dup6\n        /* \"#utility.yul\":3278:3300   */\n      add\n        /* \"#utility.yul\":3257:3310   */\n      tag_245\n      jump\t// in\n    tag_327:\n        /* \"#utility.yul\":3247:3310   */\n      swap2\n      pop\n        /* \"#utility.yul\":3203:3320   */\n      pop\n        /* \"#utility.yul\":2998:3327   */\n      swap3\n      swap2\n      pop\n      pop\n      jump\t// out\n        /* \"#utility.yul\":3333:3451   */\n    tag_246:\n        /* \"#utility.yul\":3420:3444   */\n      tag_329\n        /* \"#utility.yul\":3438:3443   */\n      dup2\n        /* \"#utility.yul\":3420:3444   */\n      tag_243\n      jump\t// in\n    tag_329:\n        /* \"#utility.yul\":3415:3418   */\n      dup3\n        /* \"#utility.yul\":3408:3445   */\n      mstore\n        /* \"#utility.yul\":3333:3451   */\n      pop\n      pop\n      jump\t// out\n        /* \"#utility.yul\":3457:3679   */\n    tag_39:\n        /* \"#utility.yul\":3550:3554   */\n      0x00\n        /* \"#utility.yul\":3588:3590   */\n      0x20\n        /* \"#utility.yul\":3577:3586   */\n      dup3\n        /* \"#utility.yul\":3573:3591   */\n      add\n        /* \"#utility.yul\":3565:3591   */\n      swap1\n      pop\n        /* \"#utility.yul\":3601:3672   */\n      tag_331\n        /* \"#utility.yul\":3669:3670   */\n      0x00\n        /* \"#utility.yul\":3658:3667   */\n      dup4\n        /* \"#utility.yul\":3654:3671   */\n      add\n        /* \"#utility.yul\":3645:3651   */\n      dup5\n        /* \"#utility.yul\":3601:3672   */\n      tag_246\n      jump\t// in\n    tag_331:\n        /* \"#utility.yul\":3457:3679   */\n      swap3\n      swap2\n      pop\n      pop\n      jump\t// out\n        /* \"#utility.yul\":3685:3807   */\n    tag_247:\n        /* \"#utility.yul\":3758:3782   */\n      tag_333\n        /* \"#utility.yul\":3776:3781   */\n      dup2\n        /* \"#utility.yul\":3758:3782   */\n      tag_233\n      jump\t// in\n    tag_333:\n        /* \"#utility.yul\":3751:3756   */\n      dup2\n        /* \"#utility.yul\":3748:3783   */\n      eq\n        /* \"#utility.yul\":3738:3801   */\n      tag_334\n      jumpi\n        /* \"#utility.yul\":3797:3798   */\n      0x00\n        /* \"#utility.yul\":3794:3795   */\n      dup1\n        /* \"#utility.yul\":3787:3799   */\n      revert\n        /* \"#utility.yul\":3738:3801   */\n    tag_334:\n        /* \"#utility.yul\":3685:3807   */\n      pop\n      jump\t// out\n        /* \"#utility.yul\":3813:3952   */\n    tag_248:\n        /* \"#utility.yul\":3859:3864   */\n      0x00\n        /* \"#utility.yul\":3897:3903   */\n      dup2\n        /* \"#utility.yul\":3884:3904   */\n      calldataload\n        /* \"#utility.yul\":3875:3904   */\n      swap1\n      pop\n        /* \"#utility.yul\":3913:3946   */\n      tag_336\n        /* \"#utility.yul\":3940:3945   */\n      dup2\n        /* \"#utility.yul\":3913:3946   */\n      tag_247\n      jump\t// in\n    tag_336:\n        /* \"#utility.yul\":3813:3952   */\n      swap3\n      swap2\n      pop\n      pop\n      jump\t// out\n        /* \"#utility.yul\":3958:4287   */\n    tag_43:\n        /* \"#utility.yul\":4017:4023   */\n      0x00\n        /* \"#utility.yul\":4066:4068   */\n      0x20\n        /* \"#utility.yul\":4054:4063   */\n      dup3\n        /* \"#utility.yul\":4045:4052   */\n      dup5\n        /* \"#utility.yul\":4041:4064   */\n      sub\n        /* \"#utility.yul\":4037:4069   */\n      slt\n        /* \"#utility.yul\":4034:4153   */\n      iszero\n      tag_338\n      jumpi\n        /* \"#utility.yul\":4072:4151   */\n      tag_339\n      tag_236\n      jump\t// in\n    tag_339:\n        /* \"#utility.yul\":4034:4153   */\n    tag_338:\n        /* \"#utility.yul\":4192:4193   */\n      0x00\n        /* \"#utility.yul\":4217:4270   */\n      tag_340\n        /* \"#utility.yul\":4262:4269   */\n      dup5\n        /* \"#utility.yul\":4253:4259   */\n      dup3\n        /* \"#utility.yul\":4242:4251   */\n      dup6\n        /* \"#utility.yul\":4238:4260   */\n      add\n        /* \"#utility.yul\":4217:4270   */\n      tag_248\n      jump\t// in\n    tag_340:\n        /* \"#utility.yul\":4207:4270   */\n      swap2\n      pop\n        /* \"#utility.yul\":4163:4280   */\n      pop\n        /* \"#utility.yul\":3958:4287   */\n      swap3\n      swap2\n      pop\n      pop\n      jump\t// out\n        /* \"#utility.yul\":4293:4415   */\n    tag_249:\n        /* \"#utility.yul\":4366:4390   */\n      tag_342\n        /* \"#utility.yul\":4384:4389   */\n      dup2\n        /* \"#utility.yul\":4366:4390   */\n      tag_231\n      jump\t// in\n    tag_342:\n        /* \"#utility.yul\":4359:4364   */\n      dup2\n        /* \"#utility.yul\":4356:4391   */\n      eq\n        /* \"#utility.yul\":4346:4409   */\n      tag_343\n      jumpi\n        /* \"#utility.yul\":4405:4406   */\n      0x00\n        /* \"#utility.yul\":4402:4403   */\n      dup1\n        /* \"#utility.yul\":4395:4407   */\n      revert\n        /* \"#utility.yul\":4346:4409   */\n    tag_343:\n        /* \"#utility.yul\":4293:4415   */\n      pop\n      jump\t// out\n        /* \"#utility.yul\":4421:4560   */\n    tag_250:\n        /* \"#utility.yul\":4467:4472   */\n      0x00\n        /* \"#utility.yul\":4505:4511   */\n      dup2\n        /* \"#utility.yul\":4492:4512   */\n      calldataload\n        /* \"#utility.yul\":4483:4512   */\n      swap1\n      pop\n        /* \"#utility.yul\":4521:4554   */\n      tag_345\n        /* \"#utility.yul\":4548:4553   */\n      dup2\n        /* \"#utility.yul\":4521:4554   */\n      tag_249\n      jump\t// in\n    tag_345:\n        /* \"#utility.yul\":4421:4560   */\n      swap3\n      swap2\n      pop\n      pop\n      jump\t// out\n        /* \"#utility.yul\":4566:5040   */\n    tag_48:\n        /* \"#utility.yul\":4634:4640   */\n      0x00\n        /* \"#utility.yul\":4642:4648   */\n      dup1\n        /* \"#utility.yul\":4691:4693   */\n      0x40\n        /* \"#utility.yul\":4679:4688   */\n      dup4\n        /* \"#utility.yul\":4670:4677   */\n      dup6\n        /* \"#utility.yul\":4666:4689   */\n      sub\n        /* \"#utility.yul\":4662:4694   */\n      slt\n        /* \"#utility.yul\":4659:4778   */\n      iszero\n      tag_347\n      jumpi\n        /* \"#utility.yul\":4697:4776   */\n      tag_348\n      tag_236\n      jump\t// in\n    tag_348:\n        /* \"#utility.yul\":4659:4778   */\n    tag_347:\n        /* \"#utility.yul\":4817:4818   */\n      0x00\n        /* \"#utility.yul\":4842:4895   */\n      tag_349\n        /* \"#utility.yul\":4887:4894   */\n      dup6\n        /* \"#utility.yul\":4878:4884   */\n      dup3\n        /* \"#utility.yul\":4867:4876   */\n      dup7\n        /* \"#utility.yul\":4863:4885   */\n      add\n        /* \"#utility.yul\":4842:4895   */\n      tag_245\n      jump\t// in\n    tag_349:\n        /* \"#utility.yul\":4832:4895   */\n      swap3\n      pop\n        /* \"#utility.yul\":4788:4905   */\n      pop\n        /* \"#utility.yul\":4944:4946   */\n      0x20\n        /* \"#utility.yul\":4970:5023   */\n      tag_350\n        /* \"#utility.yul\":5015:5022   */\n      dup6\n        /* \"#utility.yul\":5006:5012   */\n      dup3\n        /* \"#utility.yul\":4995:5004   */\n      dup7\n        /* \"#utility.yul\":4991:5013   */\n      add\n        /* \"#utility.yul\":4970:5023   */\n      tag_250\n      jump\t// in\n    tag_350:\n        /* \"#utility.yul\":4960:5023   */\n      swap2\n      pop\n        /* \"#utility.yul\":4915:5033   */\n      pop\n        /* \"#utility.yul\":4566:5040   */\n      swap3\n      pop\n      swap3\n      swap1\n      pop\n      jump\t// out\n        /* \"#utility.yul\":5046:5268   */\n    tag_62:\n        /* \"#utility.yul\":5139:5143   */\n      0x00\n        /* \"#utility.yul\":5177:5179   */\n      0x20\n        /* \"#utility.yul\":5166:5175   */\n      dup3\n        /* \"#utility.yul\":5162:5180   */\n      add\n        /* \"#utility.yul\":5154:5180   */\n      swap1\n      pop\n        /* \"#utility.yul\":5190:5261   */\n      tag_352\n        /* \"#utility.yul\":5258:5259   */\n      0x00\n        /* \"#utility.yul\":5247:5256   */\n      dup4\n        /* \"#utility.yul\":5243:5260   */\n      add\n        /* \"#utility.yul\":5234:5240   */\n      dup5\n        /* \"#utility.yul\":5190:5261   */\n      tag_232\n      jump\t// in\n    tag_352:\n        /* \"#utility.yul\":5046:5268   */\n      swap3\n      swap2\n      pop\n      pop\n      jump\t// out\n        /* \"#utility.yul\":5274:6039   */\n    tag_87:\n        /* \"#utility.yul\":5360:5366   */\n      0x00\n        /* \"#utility.yul\":5368:5374   */\n      dup1\n        /* \"#utility.yul\":5376:5382   */\n      0x00\n        /* \"#utility.yul\":5384:5390   */\n      dup1\n        /* \"#utility.yul\":5433:5436   */\n      0x80\n        /* \"#utility.yul\":5421:5430   */\n      dup6\n        /* \"#utility.yul\":5412:5419   */\n      dup8\n        /* \"#utility.yul\":5408:5431   */\n      sub\n        /* \"#utility.yul\":5404:5437   */\n      slt\n        /* \"#utility.yul\":5401:5521   */\n      iszero\n      tag_354\n      jumpi\n        /* \"#utility.yul\":5440:5519   */\n      tag_355\n      tag_236\n      jump\t// in\n    tag_355:\n        /* \"#utility.yul\":5401:5521   */\n    tag_354:\n        /* \"#utility.yul\":5560:5561   */\n      0x00\n        /* \"#utility.yul\":5585:5638   */\n      tag_356\n        /* \"#utility.yul\":5630:5637   */\n      dup8\n        /* \"#utility.yul\":5621:5627   */\n      dup3\n        /* \"#utility.yul\":5610:5619   */\n      dup9\n        /* \"#utility.yul\":5606:5628   */\n      add\n        /* \"#utility.yul\":5585:5638   */\n      tag_250\n      jump\t// in\n    tag_356:\n        /* \"#utility.yul\":5575:5638   */\n      swap5\n      pop\n        /* \"#utility.yul\":5531:5648   */\n      pop\n        /* \"#utility.yul\":5687:5689   */\n      0x20\n        /* \"#utility.yul\":5713:5766   */\n      tag_357\n        /* \"#utility.yul\":5758:5765   */\n      dup8\n        /* \"#utility.yul\":5749:5755   */\n      dup3\n        /* \"#utility.yul\":5738:5747   */\n      dup9\n        /* \"#utility.yul\":5734:5756   */\n      add\n        /* \"#utility.yul\":5713:5766   */\n      tag_250\n      jump\t// in\n    tag_357:\n        /* \"#utility.yul\":5703:5766   */\n      swap4\n      pop\n        /* \"#utility.yul\":5658:5776   */\n      pop\n        /* \"#utility.yul\":5815:5817   */\n      0x40\n        /* \"#utility.yul\":5841:5894   */\n      tag_358\n        /* \"#utility.yul\":5886:5893   */\n      dup8\n        /* \"#utility.yul\":5877:5883   */\n      dup3\n        /* \"#utility.yul\":5866:5875   */\n      dup9\n        /* \"#utility.yul\":5862:5884   */\n      add\n        /* \"#utility.yul\":5841:5894   */\n      tag_250\n      jump\t// in\n    tag_358:\n        /* \"#utility.yul\":5831:5894   */\n      swap3\n      pop\n        /* \"#utility.yul\":5786:5904   */\n      pop\n        /* \"#utility.yul\":5943:5945   */\n      0x60\n        /* \"#utility.yul\":5969:6022   */\n      tag_359\n        /* \"#utility.yul\":6014:6021   */\n      dup8\n        /* \"#utility.yul\":6005:6011   */\n      dup3\n        /* \"#utility.yul\":5994:6003   */\n      dup9\n        /* \"#utility.yul\":5990:6012   */\n      add\n        /* \"#utility.yul\":5969:6022   */\n      tag_250\n      jump\t// in\n    tag_359:\n        /* \"#utility.yul\":5959:6022   */\n      swap2\n      pop\n        /* \"#utility.yul\":5914:6032   */\n      pop\n        /* \"#utility.yul\":5274:6039   */\n      swap3\n      swap6\n      swap2\n      swap5\n      pop\n      swap3\n      pop\n      jump\t// out\n        /* \"#utility.yul\":6045:6225   */\n    tag_251:\n        /* \"#utility.yul\":6093:6170   */\n      0x4e487b7100000000000000000000000000000000000000000000000000000000\n        /* \"#utility.yul\":6090:6091   */\n      0x00\n        /* \"#utility.yul\":6083:6171   */\n      mstore\n        /* \"#utility.yul\":6190:6194   */\n      0x11\n        /* \"#utility.yul\":6187:6188   */\n      0x04\n        /* \"#utility.yul\":6180:6195   */\n      mstore\n        /* \"#utility.yul\":6214:6218   */\n      0x24\n        /* \"#utility.yul\":6211:6212   */\n      0x00\n        /* \"#utility.yul\":6204:6219   */\n      revert\n        /* \"#utility.yul\":6231:6641   */\n    tag_93:\n        /* \"#utility.yul\":6271:6278   */\n      0x00\n        /* \"#utility.yul\":6294:6314   */\n      tag_362\n        /* \"#utility.yul\":6312:6313   */\n      dup3\n        /* \"#utility.yul\":6294:6314   */\n      tag_233\n      jump\t// in\n    tag_362:\n        /* \"#utility.yul\":6289:6314   */\n      swap2\n      pop\n        /* \"#utility.yul\":6328:6348   */\n      tag_363\n        /* \"#utility.yul\":6346:6347   */\n      dup4\n        /* \"#utility.yul\":6328:6348   */\n      tag_233\n      jump\t// in\n    tag_363:\n        /* \"#utility.yul\":6323:6348   */\n      swap3\n      pop\n        /* \"#utility.yul\":6383:6384   */\n      dup3\n        /* \"#utility.yul\":6380:6381   */\n      dup3\n        /* \"#utility.yul\":6376:6385   */\n      mul\n        /* \"#utility.yul\":6405:6435   */\n      tag_364\n        /* \"#utility.yul\":6423:6434   */\n      dup2\n        /* \"#utility.yul\":6405:6435   */\n      tag_233\n      jump\t// in\n    tag_364:\n        /* \"#utility.yul\":6394:6435   */\n      swap2\n      pop\n        /* \"#utility.yul\":6584:6585   */\n      dup3\n        /* \"#utility.yul\":6575:6582   */\n      dup3\n        /* \"#utility.yul\":6571:6586   */\n      div\n        /* \"#utility.yul\":6568:6569   */\n      dup5\n        /* \"#utility.yul\":6565:6587   */\n      eq\n        /* \"#utility.yul\":6545:6546   */\n      dup4\n        /* \"#utility.yul\":6538:6547   */\n      iszero\n        /* \"#utility.yul\":6518:6601   */\n      or\n        /* \"#utility.yul\":6495:6634   */\n      tag_365\n      jumpi\n        /* \"#utility.yul\":6614:6632   */\n      tag_366\n      tag_251\n      jump\t// in\n    tag_366:\n        /* \"#utility.yul\":6495:6634   */\n    tag_365:\n        /* \"#utility.yul\":6279:6641   */\n      pop\n        /* \"#utility.yul\":6231:6641   */\n      swap3\n      swap2\n      pop\n      pop\n      jump\t// out\n        /* \"#utility.yul\":6647:6827   */\n    tag_252:\n        /* \"#utility.yul\":6695:6772   */\n      0x4e487b7100000000000000000000000000000000000000000000000000000000\n        /* \"#utility.yul\":6692:6693   */\n      0x00\n        /* \"#utility.yul\":6685:6773   */\n      mstore\n        /* \"#utility.yul\":6792:6796   */\n      0x12\n        /* \"#utility.yul\":6789:6790   */\n      0x04\n        /* \"#utility.yul\":6782:6797   */\n      mstore\n        /* \"#utility.yul\":6816:6820   */\n      0x24\n        /* \"#utility.yul\":6813:6814   */\n      0x00\n        /* \"#utility.yul\":6806:6821   */\n      revert\n        /* \"#utility.yul\":6833:7018   */\n    tag_95:\n        /* \"#utility.yul\":6873:6874   */\n      0x00\n        /* \"#utility.yul\":6890:6910   */\n      tag_369\n        /* \"#utility.yul\":6908:6909   */\n      dup3\n        /* \"#utility.yul\":6890:6910   */\n      tag_233\n      jump\t// in\n    tag_369:\n        /* \"#utility.yul\":6885:6910   */\n      swap2\n      pop\n        /* \"#utility.yul\":6924:6944   */\n      tag_370\n        /* \"#utility.yul\":6942:6943   */\n      dup4\n        /* \"#utility.yul\":6924:6944   */\n      tag_233\n      jump\t// in\n    tag_370:\n        /* \"#utility.yul\":6919:6944   */\n      swap3\n      pop\n        /* \"#utility.yul\":6963:6964   */\n      dup3\n        /* \"#utility.yul\":6953:6988   */\n      tag_371\n      jumpi\n        /* \"#utility.yul\":6968:6986   */\n      tag_372\n      tag_252\n      jump\t// in\n    tag_372:\n        /* \"#utility.yul\":6953:6988   */\n    tag_371:\n        /* \"#utility.yul\":7010:7011   */\n      dup3\n        /* \"#utility.yul\":7007:7008   */\n      dup3\n        /* \"#utility.yul\":7003:7012   */\n      div\n        /* \"#utility.yul\":6998:7012   */\n      swap1\n      pop\n        /* \"#utility.yul\":6833:7018   */\n      swap3\n      swap2\n      pop\n      pop\n      jump\t// out\n        /* \"#utility.yul\":7024:7172   */\n    tag_253:\n        /* \"#utility.yul\":7126:7137   */\n      0x00\n        /* \"#utility.yul\":7163:7166   */\n      dup2\n        /* \"#utility.yul\":7148:7166   */\n      swap1\n      pop\n        /* \"#utility.yul\":7024:7172   */\n      swap3\n      swap2\n      pop\n      pop\n      jump\t// out\n        /* \"#utility.yul\":7178:7334   */\n    tag_254:\n        /* \"#utility.yul\":7318:7326   */\n      0x43616c6c65720000000000000000000000000000000000000000000000000000\n        /* \"#utility.yul\":7314:7315   */\n      0x00\n        /* \"#utility.yul\":7306:7312   */\n      dup3\n        /* \"#utility.yul\":7302:7316   */\n      add\n        /* \"#utility.yul\":7295:7327   */\n      mstore\n        /* \"#utility.yul\":7178:7334   */\n      pop\n      jump\t// out\n        /* \"#utility.yul\":7340:7740   */\n    tag_255:\n        /* \"#utility.yul\":7500:7503   */\n      0x00\n        /* \"#utility.yul\":7521:7605   */\n      tag_376\n        /* \"#utility.yul\":7603:7604   */\n      0x06\n        /* \"#utility.yul\":7598:7601   */\n      dup4\n        /* \"#utility.yul\":7521:7605   */\n      tag_253\n      jump\t// in\n    tag_376:\n        /* \"#utility.yul\":7514:7605   */\n      swap2\n      pop\n        /* \"#utility.yul\":7614:7707   */\n      tag_377\n        /* \"#utility.yul\":7703:7706   */\n      dup3\n        /* \"#utility.yul\":7614:7707   */\n      tag_254\n      jump\t// in\n    tag_377:\n        /* \"#utility.yul\":7732:7733   */\n      0x06\n        /* \"#utility.yul\":7727:7730   */\n      dup3\n        /* \"#utility.yul\":7723:7734   */\n      add\n        /* \"#utility.yul\":7716:7734   */\n      swap1\n      pop\n        /* \"#utility.yul\":7340:7740   */\n      swap2\n      swap1\n      pop\n      jump\t// out\n        /* \"#utility.yul\":7746:8127   */\n    tag_103:\n        /* \"#utility.yul\":7931:7934   */\n      0x00\n        /* \"#utility.yul\":7953:8101   */\n      tag_379\n        /* \"#utility.yul\":8097:8100   */\n      dup3\n        /* \"#utility.yul\":7953:8101   */\n      tag_255\n      jump\t// in\n    tag_379:\n        /* \"#utility.yul\":7946:8101   */\n      swap2\n      pop\n        /* \"#utility.yul\":8118:8121   */\n      dup2\n        /* \"#utility.yul\":8111:8121   */\n      swap1\n      pop\n        /* \"#utility.yul\":7746:8127   */\n      swap2\n      swap1\n      pop\n      jump\t// out\n        /* \"#utility.yul\":8133:8302   */\n    tag_256:\n        /* \"#utility.yul\":8217:8228   */\n      0x00\n        /* \"#utility.yul\":8251:8257   */\n      dup3\n        /* \"#utility.yul\":8246:8249   */\n      dup3\n        /* \"#utility.yul\":8239:8258   */\n      mstore\n        /* \"#utility.yul\":8291:8295   */\n      0x20\n        /* \"#utility.yul\":8286:8289   */\n      dup3\n        /* \"#utility.yul\":8282:8296   */\n      add\n        /* \"#utility.yul\":8267:8296   */\n      swap1\n      pop\n        /* \"#utility.yul\":8133:8302   */\n      swap3\n      swap2\n      pop\n      pop\n      jump\t// out\n        /* \"#utility.yul\":8308:8542   */\n    tag_257:\n        /* \"#utility.yul\":8448:8482   */\n      0x416363657373436f6e74726f6c3a2063616e206f6e6c792072656e6f756e6365\n        /* \"#utility.yul\":8444:8445   */\n      0x00\n        /* \"#utility.yul\":8436:8442   */\n      dup3\n        /* \"#utility.yul\":8432:8446   */\n      add\n        /* \"#utility.yul\":8425:8483   */\n      mstore\n        /* \"#utility.yul\":8517:8534   */\n      0x20726f6c657320666f722073656c660000000000000000000000000000000000\n        /* \"#utility.yul\":8512:8514   */\n      0x20\n        /* \"#utility.yul\":8504:8510   */\n      dup3\n        /* \"#utility.yul\":8500:8515   */\n      add\n        /* \"#utility.yul\":8493:8535   */\n      mstore\n        /* \"#utility.yul\":8308:8542   */\n      pop\n      jump\t// out\n        /* \"#utility.yul\":8548:8914   */\n    tag_258:\n        /* \"#utility.yul\":8690:8693   */\n      0x00\n        /* \"#utility.yul\":8711:8778   */\n      tag_383\n        /* \"#utility.yul\":8775:8777   */\n      0x2f\n        /* \"#utility.yul\":8770:8773   */\n      dup4\n        /* \"#utility.yul\":8711:8778   */\n      tag_256\n      jump\t// in\n    tag_383:\n        /* \"#utility.yul\":8704:8778   */\n      swap2\n      pop\n        /* \"#utility.yul\":8787:8880   */\n      tag_384\n        /* \"#utility.yul\":8876:8879   */\n      dup3\n        /* \"#utility.yul\":8787:8880   */\n      tag_257\n      jump\t// in\n    tag_384:\n        /* \"#utility.yul\":8905:8907   */\n      0x40\n        /* \"#utility.yul\":8900:8903   */\n      dup3\n        /* \"#utility.yul\":8896:8908   */\n      add\n        /* \"#utility.yul\":8889:8908   */\n      swap1\n      pop\n        /* \"#utility.yul\":8548:8914   */\n      swap2\n      swap1\n      pop\n      jump\t// out\n        /* \"#utility.yul\":8920:9339   */\n    tag_124:\n        /* \"#utility.yul\":9086:9090   */\n      0x00\n        /* \"#utility.yul\":9124:9126   */\n      0x20\n        /* \"#utility.yul\":9113:9122   */\n      dup3\n        /* \"#utility.yul\":9109:9127   */\n      add\n        /* \"#utility.yul\":9101:9127   */\n      swap1\n      pop\n        /* \"#utility.yul\":9173:9182   */\n      dup2\n        /* \"#utility.yul\":9167:9171   */\n      dup2\n        /* \"#utility.yul\":9163:9183   */\n      sub\n        /* \"#utility.yul\":9159:9160   */\n      0x00\n        /* \"#utility.yul\":9148:9157   */\n      dup4\n        /* \"#utility.yul\":9144:9161   */\n      add\n        /* \"#utility.yul\":9137:9184   */\n      mstore\n        /* \"#utility.yul\":9201:9332   */\n      tag_386\n        /* \"#utility.yul\":9327:9331   */\n      dup2\n        /* \"#utility.yul\":9201:9332   */\n      tag_258\n      jump\t// in\n    tag_386:\n        /* \"#utility.yul\":9193:9332   */\n      swap1\n      pop\n        /* \"#utility.yul\":8920:9339   */\n      swap2\n      swap1\n      pop\n      jump\t// out\n        /* \"#utility.yul\":9345:9570   */\n    tag_259:\n        /* \"#utility.yul\":9485:9519   */\n      0x526573657276653a2063616c6c6572206973206e6f742074686520696e697469\n        /* \"#utility.yul\":9481:9482   */\n      0x00\n        /* \"#utility.yul\":9473:9479   */\n      dup3\n        /* \"#utility.yul\":9469:9483   */\n      add\n        /* \"#utility.yul\":9462:9520   */\n      mstore\n        /* \"#utility.yul\":9554:9562   */\n      0x616c697a65720000000000000000000000000000000000000000000000000000\n        /* \"#utility.yul\":9549:9551   */\n      0x20\n        /* \"#utility.yul\":9541:9547   */\n      dup3\n        /* \"#utility.yul\":9537:9552   */\n      add\n        /* \"#utility.yul\":9530:9563   */\n      mstore\n        /* \"#utility.yul\":9345:9570   */\n      pop\n      jump\t// out\n        /* \"#utility.yul\":9576:9942   */\n    tag_260:\n        /* \"#utility.yul\":9718:9721   */\n      0x00\n        /* \"#utility.yul\":9739:9806   */\n      tag_389\n        /* \"#utility.yul\":9803:9805   */\n      0x26\n        /* \"#utility.yul\":9798:9801   */\n      dup4\n        /* \"#utility.yul\":9739:9806   */\n      tag_256\n      jump\t// in\n    tag_389:\n        /* \"#utility.yul\":9732:9806   */\n      swap2\n      pop\n        /* \"#utility.yul\":9815:9908   */\n      tag_390\n        /* \"#utility.yul\":9904:9907   */\n      dup3\n        /* \"#utility.yul\":9815:9908   */\n      tag_259\n      jump\t// in\n    tag_390:\n        /* \"#utility.yul\":9933:9935   */\n      0x40\n        /* \"#utility.yul\":9928:9931   */\n      dup3\n        /* \"#utility.yul\":9924:9936   */\n      add\n        /* \"#utility.yul\":9917:9936   */\n      swap1\n      pop\n        /* \"#utility.yul\":9576:9942   */\n      swap2\n      swap1\n      pop\n      jump\t// out\n        /* \"#utility.yul\":9948:10367   */\n    tag_138:\n        /* \"#utility.yul\":10114:10118   */\n      0x00\n        /* \"#utility.yul\":10152:10154   */\n      0x20\n        /* \"#utility.yul\":10141:10150   */\n      dup3\n        /* \"#utility.yul\":10137:10155   */\n      add\n        /* \"#utility.yul\":10129:10155   */\n      swap1\n      pop\n        /* \"#utility.yul\":10201:10210   */\n      dup2\n        /* \"#utility.yul\":10195:10199   */\n      dup2\n        /* \"#utility.yul\":10191:10211   */\n      sub\n        /* \"#utility.yul\":10187:10188   */\n      0x00\n        /* \"#utility.yul\":10176:10185   */\n      dup4\n        /* \"#utility.yul\":10172:10189   */\n      add\n        /* \"#utility.yul\":10165:10212   */\n      mstore\n        /* \"#utility.yul\":10229:10360   */\n      tag_392\n        /* \"#utility.yul\":10355:10359   */\n      dup2\n        /* \"#utility.yul\":10229:10360   */\n      tag_260\n      jump\t// in\n    tag_392:\n        /* \"#utility.yul\":10221:10360   */\n      swap1\n      pop\n        /* \"#utility.yul\":9948:10367   */\n      swap2\n      swap1\n      pop\n      jump\t// out\n        /* \"#utility.yul\":10373:10555   */\n    tag_261:\n        /* \"#utility.yul\":10513:10547   */\n      0x526573657276653a20696e76616c696420436f6e74726f6c2061646472657373\n        /* \"#utility.yul\":10509:10510   */\n      0x00\n        /* \"#utility.yul\":10501:10507   */\n      dup3\n        /* \"#utility.yul\":10497:10511   */\n      add\n        /* \"#utility.yul\":10490:10548   */\n      mstore\n        /* \"#utility.yul\":10373:10555   */\n      pop\n      jump\t// out\n        /* \"#utility.yul\":10561:10927   */\n    tag_262:\n        /* \"#utility.yul\":10703:10706   */\n      0x00\n        /* \"#utility.yul\":10724:10791   */\n      tag_395\n        /* \"#utility.yul\":10788:10790   */\n      0x20\n        /* \"#utility.yul\":10783:10786   */\n      dup4\n        /* \"#utility.yul\":10724:10791   */\n      tag_256\n      jump\t// in\n    tag_395:\n        /* \"#utility.yul\":10717:10791   */\n      swap2\n      pop\n        /* \"#utility.yul\":10800:10893   */\n      tag_396\n        /* \"#utility.yul\":10889:10892   */\n      dup3\n        /* \"#utility.yul\":10800:10893   */\n      tag_261\n      jump\t// in\n    tag_396:\n        /* \"#utility.yul\":10918:10920   */\n      0x20\n        /* \"#utility.yul\":10913:10916   */\n      dup3\n        /* \"#utility.yul\":10909:10921   */\n      add\n        /* \"#utility.yul\":10902:10921   */\n      swap1\n      pop\n        /* \"#utility.yul\":10561:10927   */\n      swap2\n      swap1\n      pop\n      jump\t// out\n        /* \"#utility.yul\":10933:11352   */\n    tag_141:\n        /* \"#utility.yul\":11099:11103   */\n      0x00\n        /* \"#utility.yul\":11137:11139   */\n      0x20\n        /* \"#utility.yul\":11126:11135   */\n      dup3\n        /* \"#utility.yul\":11122:11140   */\n      add\n        /* \"#utility.yul\":11114:11140   */\n      swap1\n      pop\n        /* \"#utility.yul\":11186:11195   */\n      dup2\n        /* \"#utility.yul\":11180:11184   */\n      dup2\n        /* \"#utility.yul\":11176:11196   */\n      sub\n        /* \"#utility.yul\":11172:11173   */\n      0x00\n        /* \"#utility.yul\":11161:11170   */\n      dup4\n        /* \"#utility.yul\":11157:11174   */\n      add\n        /* \"#utility.yul\":11150:11197   */\n      mstore\n        /* \"#utility.yul\":11214:11345   */\n      tag_398\n        /* \"#utility.yul\":11340:11344   */\n      dup2\n        /* \"#utility.yul\":11214:11345   */\n      tag_262\n      jump\t// in\n    tag_398:\n        /* \"#utility.yul\":11206:11345   */\n      swap1\n      pop\n        /* \"#utility.yul\":10933:11352   */\n      swap2\n      swap1\n      pop\n      jump\t// out\n        /* \"#utility.yul\":11358:11501   */\n    tag_263:\n        /* \"#utility.yul\":11415:11420   */\n      0x00\n        /* \"#utility.yul\":11446:11452   */\n      dup2\n        /* \"#utility.yul\":11440:11453   */\n      mload\n        /* \"#utility.yul\":11431:11453   */\n      swap1\n      pop\n        /* \"#utility.yul\":11462:11495   */\n      tag_400\n        /* \"#utility.yul\":11489:11494   */\n      dup2\n        /* \"#utility.yul\":11462:11495   */\n      tag_249\n      jump\t// in\n    tag_400:\n        /* \"#utility.yul\":11358:11501   */\n      swap3\n      swap2\n      pop\n      pop\n      jump\t// out\n        /* \"#utility.yul\":11507:11858   */\n    tag_152:\n        /* \"#utility.yul\":11577:11583   */\n      0x00\n        /* \"#utility.yul\":11626:11628   */\n      0x20\n        /* \"#utility.yul\":11614:11623   */\n      dup3\n        /* \"#utility.yul\":11605:11612   */\n      dup5\n        /* \"#utility.yul\":11601:11624   */\n      sub\n        /* \"#utility.yul\":11597:11629   */\n      slt\n        /* \"#utility.yul\":11594:11713   */\n      iszero\n      tag_402\n      jumpi\n        /* \"#utility.yul\":11632:11711   */\n      tag_403\n      tag_236\n      jump\t// in\n    tag_403:\n        /* \"#utility.yul\":11594:11713   */\n    tag_402:\n        /* \"#utility.yul\":11752:11753   */\n      0x00\n        /* \"#utility.yul\":11777:11841   */\n      tag_404\n        /* \"#utility.yul\":11833:11840   */\n      dup5\n        /* \"#utility.yul\":11824:11830   */\n      dup3\n        /* \"#utility.yul\":11813:11822   */\n      dup6\n        /* \"#utility.yul\":11809:11831   */\n      add\n        /* \"#utility.yul\":11777:11841   */\n      tag_263\n      jump\t// in\n    tag_404:\n        /* \"#utility.yul\":11767:11841   */\n      swap2\n      pop\n        /* \"#utility.yul\":11723:11851   */\n      pop\n        /* \"#utility.yul\":11507:11858   */\n      swap3\n      swap2\n      pop\n      pop\n      jump\t// out\n        /* \"#utility.yul\":11864:11978   */\n    tag_264:\n        /* \"#utility.yul\":11901:11908   */\n      0x00\n        /* \"#utility.yul\":11941:11971   */\n      0xffffffffffffffffffffffffffff\n        /* \"#utility.yul\":11934:11939   */\n      dup3\n        /* \"#utility.yul\":11930:11972   */\n      and\n        /* \"#utility.yul\":11919:11972   */\n      swap1\n      pop\n        /* \"#utility.yul\":11864:11978   */\n      swap2\n      swap1\n      pop\n      jump\t// out\n        /* \"#utility.yul\":11984:12106   */\n    tag_265:\n        /* \"#utility.yul\":12057:12081   */\n      tag_407\n        /* \"#utility.yul\":12075:12080   */\n      dup2\n        /* \"#utility.yul\":12057:12081   */\n      tag_264\n      jump\t// in\n    tag_407:\n        /* \"#utility.yul\":12050:12055   */\n      dup2\n        /* \"#utility.yul\":12047:12082   */\n      eq\n        /* \"#utility.yul\":12037:12100   */\n      tag_408\n      jumpi\n        /* \"#utility.yul\":12096:12097   */\n      0x00\n        /* \"#utility.yul\":12093:12094   */\n      dup1\n        /* \"#utility.yul\":12086:12098   */\n      revert\n        /* \"#utility.yul\":12037:12100   */\n    tag_408:\n        /* \"#utility.yul\":11984:12106   */\n      pop\n      jump\t// out\n        /* \"#utility.yul\":12112:12255   */\n    tag_266:\n        /* \"#utility.yul\":12169:12174   */\n      0x00\n        /* \"#utility.yul\":12200:12206   */\n      dup2\n        /* \"#utility.yul\":12194:12207   */\n      mload\n        /* \"#utility.yul\":12185:12207   */\n      swap1\n      pop\n        /* \"#utility.yul\":12216:12249   */\n      tag_410\n        /* \"#utility.yul\":12243:12248   */\n      dup2\n        /* \"#utility.yul\":12216:12249   */\n      tag_265\n      jump\t// in\n    tag_410:\n        /* \"#utility.yul\":12112:12255   */\n      swap3\n      swap2\n      pop\n      pop\n      jump\t// out\n        /* \"#utility.yul\":12261:12354   */\n    tag_267:\n        /* \"#utility.yul\":12297:12304   */\n      0x00\n        /* \"#utility.yul\":12337:12347   */\n      0xffffffff\n        /* \"#utility.yul\":12330:12335   */\n      dup3\n        /* \"#utility.yul\":12326:12348   */\n      and\n        /* \"#utility.yul\":12315:12348   */\n      swap1\n      pop\n        /* \"#utility.yul\":12261:12354   */\n      swap2\n      swap1\n      pop\n      jump\t// out\n        /* \"#utility.yul\":12360:12480   */\n    tag_268:\n        /* \"#utility.yul\":12432:12455   */\n      tag_413\n        /* \"#utility.yul\":12449:12454   */\n      dup2\n        /* \"#utility.yul\":12432:12455   */\n      tag_267\n      jump\t// in\n    tag_413:\n        /* \"#utility.yul\":12425:12430   */\n      dup2\n        /* \"#utility.yul\":12422:12456   */\n      eq\n        /* \"#utility.yul\":12412:12474   */\n      tag_414\n      jumpi\n        /* \"#utility.yul\":12470:12471   */\n      0x00\n        /* \"#utility.yul\":12467:12468   */\n      dup1\n        /* \"#utility.yul\":12460:12472   */\n      revert\n        /* \"#utility.yul\":12412:12474   */\n    tag_414:\n        /* \"#utility.yul\":12360:12480   */\n      pop\n      jump\t// out\n        /* \"#utility.yul\":12486:12627   */\n    tag_269:\n        /* \"#utility.yul\":12542:12547   */\n      0x00\n        /* \"#utility.yul\":12573:12579   */\n      dup2\n        /* \"#utility.yul\":12567:12580   */\n      mload\n        /* \"#utility.yul\":12558:12580   */\n      swap1\n      pop\n        /* \"#utility.yul\":12589:12621   */\n      tag_416\n        /* \"#utility.yul\":12615:12620   */\n      dup2\n        /* \"#utility.yul\":12589:12621   */\n      tag_268\n      jump\t// in\n    tag_416:\n        /* \"#utility.yul\":12486:12627   */\n      swap3\n      swap2\n      pop\n      pop\n      jump\t// out\n        /* \"#utility.yul\":12633:13294   */\n    tag_156:\n        /* \"#utility.yul\":12720:12726   */\n      0x00\n        /* \"#utility.yul\":12728:12734   */\n      dup1\n        /* \"#utility.yul\":12736:12742   */\n      0x00\n        /* \"#utility.yul\":12785:12787   */\n      0x60\n        /* \"#utility.yul\":12773:12782   */\n      dup5\n        /* \"#utility.yul\":12764:12771   */\n      dup7\n        /* \"#utility.yul\":12760:12783   */\n      sub\n        /* \"#utility.yul\":12756:12788   */\n      slt\n        /* \"#utility.yul\":12753:12872   */\n      iszero\n      tag_418\n      jumpi\n        /* \"#utility.yul\":12791:12870   */\n      tag_419\n      tag_236\n      jump\t// in\n    tag_419:\n        /* \"#utility.yul\":12753:12872   */\n    tag_418:\n        /* \"#utility.yul\":12911:12912   */\n      0x00\n        /* \"#utility.yul\":12936:13000   */\n      tag_420\n        /* \"#utility.yul\":12992:12999   */\n      dup7\n        /* \"#utility.yul\":12983:12989   */\n      dup3\n        /* \"#utility.yul\":12972:12981   */\n      dup8\n        /* \"#utility.yul\":12968:12990   */\n      add\n        /* \"#utility.yul\":12936:13000   */\n      tag_266\n      jump\t// in\n    tag_420:\n        /* \"#utility.yul\":12926:13000   */\n      swap4\n      pop\n        /* \"#utility.yul\":12882:13010   */\n      pop\n        /* \"#utility.yul\":13049:13051   */\n      0x20\n        /* \"#utility.yul\":13075:13139   */\n      tag_421\n        /* \"#utility.yul\":13131:13138   */\n      dup7\n        /* \"#utility.yul\":13122:13128   */\n      dup3\n        /* \"#utility.yul\":13111:13120   */\n      dup8\n        /* \"#utility.yul\":13107:13129   */\n      add\n        /* \"#utility.yul\":13075:13139   */\n      tag_266\n      jump\t// in\n    tag_421:\n        /* \"#utility.yul\":13065:13139   */\n      swap3\n      pop\n        /* \"#utility.yul\":13020:13149   */\n      pop\n        /* \"#utility.yul\":13188:13190   */\n      0x40\n        /* \"#utility.yul\":13214:13277   */\n      tag_422\n        /* \"#utility.yul\":13269:13276   */\n      dup7\n        /* \"#utility.yul\":13260:13266   */\n      dup3\n        /* \"#utility.yul\":13249:13258   */\n      dup8\n        /* \"#utility.yul\":13245:13267   */\n      add\n        /* \"#utility.yul\":13214:13277   */\n      tag_269\n      jump\t// in\n    tag_422:\n        /* \"#utility.yul\":13204:13277   */\n      swap2\n      pop\n        /* \"#utility.yul\":13159:13287   */\n      pop\n        /* \"#utility.yul\":12633:13294   */\n      swap3\n      pop\n      swap3\n      pop\n      swap3\n      jump\t// out\n        /* \"#utility.yul\":13300:13480   */\n    tag_167:\n        /* \"#utility.yul\":13348:13425   */\n      0x4e487b7100000000000000000000000000000000000000000000000000000000\n        /* \"#utility.yul\":13345:13346   */\n      0x00\n        /* \"#utility.yul\":13338:13426   */\n      mstore\n        /* \"#utility.yul\":13445:13449   */\n      0x41\n        /* \"#utility.yul\":13442:13443   */\n      0x04\n        /* \"#utility.yul\":13435:13450   */\n      mstore\n        /* \"#utility.yul\":13469:13473   */\n      0x24\n        /* \"#utility.yul\":13466:13467   */\n      0x00\n        /* \"#utility.yul\":13459:13474   */\n      revert\n        /* \"#utility.yul\":13486:13584   */\n    tag_270:\n        /* \"#utility.yul\":13537:13543   */\n      0x00\n        /* \"#utility.yul\":13571:13576   */\n      dup2\n        /* \"#utility.yul\":13565:13577   */\n      mload\n        /* \"#utility.yul\":13555:13577   */\n      swap1\n      pop\n        /* \"#utility.yul\":13486:13584   */\n      swap2\n      swap1\n      pop\n      jump\t// out\n        /* \"#utility.yul\":13590:13737   */\n    tag_271:\n        /* \"#utility.yul\":13691:13702   */\n      0x00\n        /* \"#utility.yul\":13728:13731   */\n      dup2\n        /* \"#utility.yul\":13713:13731   */\n      swap1\n      pop\n        /* \"#utility.yul\":13590:13737   */\n      swap3\n      swap2\n      pop\n      pop\n      jump\t// out\n        /* \"#utility.yul\":13743:13989   */\n    tag_272:\n        /* \"#utility.yul\":13824:13825   */\n      0x00\n        /* \"#utility.yul\":13834:13947   */\n    tag_427:\n        /* \"#utility.yul\":13848:13854   */\n      dup4\n        /* \"#utility.yul\":13845:13846   */\n      dup2\n        /* \"#utility.yul\":13842:13855   */\n      lt\n        /* \"#utility.yul\":13834:13947   */\n      iszero\n      tag_429\n      jumpi\n        /* \"#utility.yul\":13933:13934   */\n      dup1\n        /* \"#utility.yul\":13928:13931   */\n      dup3\n        /* \"#utility.yul\":13924:13935   */\n      add\n        /* \"#utility.yul\":13918:13936   */\n      mload\n        /* \"#utility.yul\":13914:13915   */\n      dup2\n        /* \"#utility.yul\":13909:13912   */\n      dup5\n        /* \"#utility.yul\":13905:13916   */\n      add\n        /* \"#utility.yul\":13898:13937   */\n      mstore\n        /* \"#utility.yul\":13870:13872   */\n      0x20\n        /* \"#utility.yul\":13867:13868   */\n      dup2\n        /* \"#utility.yul\":13863:13873   */\n      add\n        /* \"#utility.yul\":13858:13873   */\n      swap1\n      pop\n        /* \"#utility.yul\":13834:13947   */\n      jump(tag_427)\n    tag_429:\n        /* \"#utility.yul\":13981:13982   */\n      0x00\n        /* \"#utility.yul\":13972:13978   */\n      dup5\n        /* \"#utility.yul\":13967:13970   */\n      dup5\n        /* \"#utility.yul\":13963:13979   */\n      add\n        /* \"#utility.yul\":13956:13983   */\n      mstore\n        /* \"#utility.yul\":13805:13989   */\n      pop\n        /* \"#utility.yul\":13743:13989   */\n      pop\n      pop\n      pop\n      jump\t// out\n        /* \"#utility.yul\":13995:14381   */\n    tag_273:\n        /* \"#utility.yul\":14099:14102   */\n      0x00\n        /* \"#utility.yul\":14127:14165   */\n      tag_431\n        /* \"#utility.yul\":14159:14164   */\n      dup3\n        /* \"#utility.yul\":14127:14165   */\n      tag_270\n      jump\t// in\n    tag_431:\n        /* \"#utility.yul\":14181:14269   */\n      tag_432\n        /* \"#utility.yul\":14262:14268   */\n      dup2\n        /* \"#utility.yul\":14257:14260   */\n      dup6\n        /* \"#utility.yul\":14181:14269   */\n      tag_271\n      jump\t// in\n    tag_432:\n        /* \"#utility.yul\":14174:14269   */\n      swap4\n      pop\n        /* \"#utility.yul\":14278:14343   */\n      tag_433\n        /* \"#utility.yul\":14336:14342   */\n      dup2\n        /* \"#utility.yul\":14331:14334   */\n      dup6\n        /* \"#utility.yul\":14324:14328   */\n      0x20\n        /* \"#utility.yul\":14317:14322   */\n      dup7\n        /* \"#utility.yul\":14313:14329   */\n      add\n        /* \"#utility.yul\":14278:14343   */\n      tag_272\n      jump\t// in\n    tag_433:\n        /* \"#utility.yul\":14368:14374   */\n      dup1\n        /* \"#utility.yul\":14363:14366   */\n      dup5\n        /* \"#utility.yul\":14359:14375   */\n      add\n        /* \"#utility.yul\":14352:14375   */\n      swap2\n      pop\n        /* \"#utility.yul\":14103:14381   */\n      pop\n        /* \"#utility.yul\":13995:14381   */\n      swap3\n      swap2\n      pop\n      pop\n      jump\t// out\n        /* \"#utility.yul\":14387:14658   */\n    tag_170:\n        /* \"#utility.yul\":14517:14520   */\n      0x00\n        /* \"#utility.yul\":14539:14632   */\n      tag_435\n        /* \"#utility.yul\":14628:14631   */\n      dup3\n        /* \"#utility.yul\":14619:14625   */\n      dup5\n        /* \"#utility.yul\":14539:14632   */\n      tag_273\n      jump\t// in\n    tag_435:\n        /* \"#utility.yul\":14532:14632   */\n      swap2\n      pop\n        /* \"#utility.yul\":14649:14652   */\n      dup2\n        /* \"#utility.yul\":14642:14652   */\n      swap1\n      pop\n        /* \"#utility.yul\":14387:14658   */\n      swap3\n      swap2\n      pop\n      pop\n      jump\t// out\n        /* \"#utility.yul\":14664:14896   */\n    tag_274:\n        /* \"#utility.yul\":14804:14838   */\n      0x536166654554483a3a736166655472616e736665724554483a20455448207472\n        /* \"#utility.yul\":14800:14801   */\n      0x00\n        /* \"#utility.yul\":14792:14798   */\n      dup3\n        /* \"#utility.yul\":14788:14802   */\n      add\n        /* \"#utility.yul\":14781:14839   */\n      mstore\n        /* \"#utility.yul\":14873:14888   */\n      0x616e73666572206661696c656400000000000000000000000000000000000000\n        /* \"#utility.yul\":14868:14870   */\n      0x20\n        /* \"#utility.yul\":14860:14866   */\n      dup3\n        /* \"#utility.yul\":14856:14871   */\n      add\n        /* \"#utility.yul\":14849:14889   */\n      mstore\n        /* \"#utility.yul\":14664:14896   */\n      pop\n      jump\t// out\n        /* \"#utility.yul\":14902:15268   */\n    tag_275:\n        /* \"#utility.yul\":15044:15047   */\n      0x00\n        /* \"#utility.yul\":15065:15132   */\n      tag_438\n        /* \"#utility.yul\":15129:15131   */\n      0x2d\n        /* \"#utility.yul\":15124:15127   */\n      dup4\n        /* \"#utility.yul\":15065:15132   */\n      tag_256\n      jump\t// in\n    tag_438:\n        /* \"#utility.yul\":15058:15132   */\n      swap2\n      pop\n        /* \"#utility.yul\":15141:15234   */\n      tag_439\n        /* \"#utility.yul\":15230:15233   */\n      dup3\n        /* \"#utility.yul\":15141:15234   */\n      tag_274\n      jump\t// in\n    tag_439:\n        /* \"#utility.yul\":15259:15261   */\n      0x40\n        /* \"#utility.yul\":15254:15257   */\n      dup3\n        /* \"#utility.yul\":15250:15262   */\n      add\n        /* \"#utility.yul\":15243:15262   */\n      swap1\n      pop\n        /* \"#utility.yul\":14902:15268   */\n      swap2\n      swap1\n      pop\n      jump\t// out\n        /* \"#utility.yul\":15274:15693   */\n    tag_176:\n        /* \"#utility.yul\":15440:15444   */\n      0x00\n        /* \"#utility.yul\":15478:15480   */\n      0x20\n        /* \"#utility.yul\":15467:15476   */\n      dup3\n        /* \"#utility.yul\":15463:15481   */\n      add\n        /* \"#utility.yul\":15455:15481   */\n      swap1\n      pop\n        /* \"#utility.yul\":15527:15536   */\n      dup2\n        /* \"#utility.yul\":15521:15525   */\n      dup2\n        /* \"#utility.yul\":15517:15537   */\n      sub\n        /* \"#utility.yul\":15513:15514   */\n      0x00\n        /* \"#utility.yul\":15502:15511   */\n      dup4\n        /* \"#utility.yul\":15498:15515   */\n      add\n        /* \"#utility.yul\":15491:15538   */\n      mstore\n        /* \"#utility.yul\":15555:15686   */\n      tag_441\n        /* \"#utility.yul\":15681:15685   */\n      dup2\n        /* \"#utility.yul\":15555:15686   */\n      tag_275\n      jump\t// in\n    tag_441:\n        /* \"#utility.yul\":15547:15686   */\n      swap1\n      pop\n        /* \"#utility.yul\":15274:15693   */\n      swap2\n      swap1\n      pop\n      jump\t// out\n        /* \"#utility.yul\":15699:16031   */\n    tag_187:\n        /* \"#utility.yul\":15820:15824   */\n      0x00\n        /* \"#utility.yul\":15858:15860   */\n      0x40\n        /* \"#utility.yul\":15847:15856   */\n      dup3\n        /* \"#utility.yul\":15843:15861   */\n      add\n        /* \"#utility.yul\":15835:15861   */\n      swap1\n      pop\n        /* \"#utility.yul\":15871:15942   */\n      tag_443\n        /* \"#utility.yul\":15939:15940   */\n      0x00\n        /* \"#utility.yul\":15928:15937   */\n      dup4\n        /* \"#utility.yul\":15924:15941   */\n      add\n        /* \"#utility.yul\":15915:15921   */\n      dup6\n        /* \"#utility.yul\":15871:15942   */\n      tag_232\n      jump\t// in\n    tag_443:\n        /* \"#utility.yul\":15952:16024   */\n      tag_444\n        /* \"#utility.yul\":16020:16022   */\n      0x20\n        /* \"#utility.yul\":16009:16018   */\n      dup4\n        /* \"#utility.yul\":16005:16023   */\n      add\n        /* \"#utility.yul\":15996:16002   */\n      dup5\n        /* \"#utility.yul\":15952:16024   */\n      tag_232\n      jump\t// in\n    tag_444:\n        /* \"#utility.yul\":15699:16031   */\n      swap4\n      swap3\n      pop\n      pop\n      pop\n      jump\t// out\n        /* \"#utility.yul\":16037:16210   */\n    tag_276:\n        /* \"#utility.yul\":16177:16202   */\n      0x416363657373436f6e74726f6c3a206163636f756e7420000000000000000000\n        /* \"#utility.yul\":16173:16174   */\n      0x00\n        /* \"#utility.yul\":16165:16171   */\n      dup3\n        /* \"#utility.yul\":16161:16175   */\n      add\n        /* \"#utility.yul\":16154:16203   */\n      mstore\n        /* \"#utility.yul\":16037:16210   */\n      pop\n      jump\t// out\n        /* \"#utility.yul\":16216:16618   */\n    tag_277:\n        /* \"#utility.yul\":16376:16379   */\n      0x00\n        /* \"#utility.yul\":16397:16482   */\n      tag_447\n        /* \"#utility.yul\":16479:16481   */\n      0x17\n        /* \"#utility.yul\":16474:16477   */\n      dup4\n        /* \"#utility.yul\":16397:16482   */\n      tag_253\n      jump\t// in\n    tag_447:\n        /* \"#utility.yul\":16390:16482   */\n      swap2\n      pop\n        /* \"#utility.yul\":16491:16584   */\n      tag_448\n        /* \"#utility.yul\":16580:16583   */\n      dup3\n        /* \"#utility.yul\":16491:16584   */\n      tag_276\n      jump\t// in\n    tag_448:\n        /* \"#utility.yul\":16609:16611   */\n      0x17\n        /* \"#utility.yul\":16604:16607   */\n      dup3\n        /* \"#utility.yul\":16600:16612   */\n      add\n        /* \"#utility.yul\":16593:16612   */\n      swap1\n      pop\n        /* \"#utility.yul\":16216:16618   */\n      swap2\n      swap1\n      pop\n      jump\t// out\n        /* \"#utility.yul\":16624:16723   */\n    tag_278:\n        /* \"#utility.yul\":16676:16682   */\n      0x00\n        /* \"#utility.yul\":16710:16715   */\n      dup2\n        /* \"#utility.yul\":16704:16716   */\n      mload\n        /* \"#utility.yul\":16694:16716   */\n      swap1\n      pop\n        /* \"#utility.yul\":16624:16723   */\n      swap2\n      swap1\n      pop\n      jump\t// out\n        /* \"#utility.yul\":16729:17119   */\n    tag_279:\n        /* \"#utility.yul\":16835:16838   */\n      0x00\n        /* \"#utility.yul\":16863:16902   */\n      tag_451\n        /* \"#utility.yul\":16896:16901   */\n      dup3\n        /* \"#utility.yul\":16863:16902   */\n      tag_278\n      jump\t// in\n    tag_451:\n        /* \"#utility.yul\":16918:17007   */\n      tag_452\n        /* \"#utility.yul\":17000:17006   */\n      dup2\n        /* \"#utility.yul\":16995:16998   */\n      dup6\n        /* \"#utility.yul\":16918:17007   */\n      tag_253\n      jump\t// in\n    tag_452:\n        /* \"#utility.yul\":16911:17007   */\n      swap4\n      pop\n        /* \"#utility.yul\":17016:17081   */\n      tag_453\n        /* \"#utility.yul\":17074:17080   */\n      dup2\n        /* \"#utility.yul\":17069:17072   */\n      dup6\n        /* \"#utility.yul\":17062:17066   */\n      0x20\n        /* \"#utility.yul\":17055:17060   */\n      dup7\n        /* \"#utility.yul\":17051:17067   */\n      add\n        /* \"#utility.yul\":17016:17081   */\n      tag_272\n      jump\t// in\n    tag_453:\n        /* \"#utility.yul\":17106:17112   */\n      dup1\n        /* \"#utility.yul\":17101:17104   */\n      dup5\n        /* \"#utility.yul\":17097:17113   */\n      add\n        /* \"#utility.yul\":17090:17113   */\n      swap2\n      pop\n        /* \"#utility.yul\":16839:17119   */\n      pop\n        /* \"#utility.yul\":16729:17119   */\n      swap3\n      swap2\n      pop\n      pop\n      jump\t// out\n        /* \"#utility.yul\":17125:17292   */\n    tag_280:\n        /* \"#utility.yul\":17265:17284   */\n      0x206973206d697373696e6720726f6c6520000000000000000000000000000000\n        /* \"#utility.yul\":17261:17262   */\n      0x00\n        /* \"#utility.yul\":17253:17259   */\n      dup3\n        /* \"#utility.yul\":17249:17263   */\n      add\n        /* \"#utility.yul\":17242:17285   */\n      mstore\n        /* \"#utility.yul\":17125:17292   */\n      pop\n      jump\t// out\n        /* \"#utility.yul\":17298:17700   */\n    tag_281:\n        /* \"#utility.yul\":17458:17461   */\n      0x00\n        /* \"#utility.yul\":17479:17564   */\n      tag_456\n        /* \"#utility.yul\":17561:17563   */\n      0x11\n        /* \"#utility.yul\":17556:17559   */\n      dup4\n        /* \"#utility.yul\":17479:17564   */\n      tag_253\n      jump\t// in\n    tag_456:\n        /* \"#utility.yul\":17472:17564   */\n      swap2\n      pop\n        /* \"#utility.yul\":17573:17666   */\n      tag_457\n        /* \"#utility.yul\":17662:17665   */\n      dup3\n        /* \"#utility.yul\":17573:17666   */\n      tag_280\n      jump\t// in\n    tag_457:\n        /* \"#utility.yul\":17691:17693   */\n      0x11\n        /* \"#utility.yul\":17686:17689   */\n      dup3\n        /* \"#utility.yul\":17682:17694   */\n      add\n        /* \"#utility.yul\":17675:17694   */\n      swap1\n      pop\n        /* \"#utility.yul\":17298:17700   */\n      swap2\n      swap1\n      pop\n      jump\t// out\n        /* \"#utility.yul\":17706:18673   */\n    tag_199:\n        /* \"#utility.yul\":18088:18091   */\n      0x00\n        /* \"#utility.yul\":18110:18258   */\n      tag_459\n        /* \"#utility.yul\":18254:18257   */\n      dup3\n        /* \"#utility.yul\":18110:18258   */\n      tag_277\n      jump\t// in\n    tag_459:\n        /* \"#utility.yul\":18103:18258   */\n      swap2\n      pop\n        /* \"#utility.yul\":18275:18370   */\n      tag_460\n        /* \"#utility.yul\":18366:18369   */\n      dup3\n        /* \"#utility.yul\":18357:18363   */\n      dup6\n        /* \"#utility.yul\":18275:18370   */\n      tag_279\n      jump\t// in\n    tag_460:\n        /* \"#utility.yul\":18268:18370   */\n      swap2\n      pop\n        /* \"#utility.yul\":18387:18535   */\n      tag_461\n        /* \"#utility.yul\":18531:18534   */\n      dup3\n        /* \"#utility.yul\":18387:18535   */\n      tag_281\n      jump\t// in\n    tag_461:\n        /* \"#utility.yul\":18380:18535   */\n      swap2\n      pop\n        /* \"#utility.yul\":18552:18647   */\n      tag_462\n        /* \"#utility.yul\":18643:18646   */\n      dup3\n        /* \"#utility.yul\":18634:18640   */\n      dup5\n        /* \"#utility.yul\":18552:18647   */\n      tag_279\n      jump\t// in\n    tag_462:\n        /* \"#utility.yul\":18545:18647   */\n      swap2\n      pop\n        /* \"#utility.yul\":18664:18667   */\n      dup2\n        /* \"#utility.yul\":18657:18667   */\n      swap1\n      pop\n        /* \"#utility.yul\":17706:18673   */\n      swap4\n      swap3\n      pop\n      pop\n      pop\n      jump\t// out\n        /* \"#utility.yul\":18679:18781   */\n    tag_282:\n        /* \"#utility.yul\":18720:18726   */\n      0x00\n        /* \"#utility.yul\":18771:18773   */\n      0x1f\n        /* \"#utility.yul\":18767:18774   */\n      not\n        /* \"#utility.yul\":18762:18764   */\n      0x1f\n        /* \"#utility.yul\":18755:18760   */\n      dup4\n        /* \"#utility.yul\":18751:18765   */\n      add\n        /* \"#utility.yul\":18747:18775   */\n      and\n        /* \"#utility.yul\":18737:18775   */\n      swap1\n      pop\n        /* \"#utility.yul\":18679:18781   */\n      swap2\n      swap1\n      pop\n      jump\t// out\n        /* \"#utility.yul\":18787:19164   */\n    tag_283:\n        /* \"#utility.yul\":18875:18878   */\n      0x00\n        /* \"#utility.yul\":18903:18942   */\n      tag_465\n        /* \"#utility.yul\":18936:18941   */\n      dup3\n        /* \"#utility.yul\":18903:18942   */\n      tag_278\n      jump\t// in\n    tag_465:\n        /* \"#utility.yul\":18958:19029   */\n      tag_466\n        /* \"#utility.yul\":19022:19028   */\n      dup2\n        /* \"#utility.yul\":19017:19020   */\n      dup6\n        /* \"#utility.yul\":18958:19029   */\n      tag_256\n      jump\t// in\n    tag_466:\n        /* \"#utility.yul\":18951:19029   */\n      swap4\n      pop\n        /* \"#utility.yul\":19038:19103   */\n      tag_467\n        /* \"#utility.yul\":19096:19102   */\n      dup2\n        /* \"#utility.yul\":19091:19094   */\n      dup6\n        /* \"#utility.yul\":19084:19088   */\n      0x20\n        /* \"#utility.yul\":19077:19082   */\n      dup7\n        /* \"#utility.yul\":19073:19089   */\n      add\n        /* \"#utility.yul\":19038:19103   */\n      tag_272\n      jump\t// in\n    tag_467:\n        /* \"#utility.yul\":19128:19157   */\n      tag_468\n        /* \"#utility.yul\":19150:19156   */\n      dup2\n        /* \"#utility.yul\":19128:19157   */\n      tag_282\n      jump\t// in\n    tag_468:\n        /* \"#utility.yul\":19123:19126   */\n      dup5\n        /* \"#utility.yul\":19119:19158   */\n      add\n        /* \"#utility.yul\":19112:19158   */\n      swap2\n      pop\n        /* \"#utility.yul\":18879:19164   */\n      pop\n        /* \"#utility.yul\":18787:19164   */\n      swap3\n      swap2\n      pop\n      pop\n      jump\t// out\n        /* \"#utility.yul\":19170:19483   */\n    tag_201:\n        /* \"#utility.yul\":19283:19287   */\n      0x00\n        /* \"#utility.yul\":19321:19323   */\n      0x20\n        /* \"#utility.yul\":19310:19319   */\n      dup3\n        /* \"#utility.yul\":19306:19324   */\n      add\n        /* \"#utility.yul\":19298:19324   */\n      swap1\n      pop\n        /* \"#utility.yul\":19370:19379   */\n      dup2\n        /* \"#utility.yul\":19364:19368   */\n      dup2\n        /* \"#utility.yul\":19360:19380   */\n      sub\n        /* \"#utility.yul\":19356:19357   */\n      0x00\n        /* \"#utility.yul\":19345:19354   */\n      dup4\n        /* \"#utility.yul\":19341:19358   */\n      add\n        /* \"#utility.yul\":19334:19381   */\n      mstore\n        /* \"#utility.yul\":19398:19476   */\n      tag_470\n        /* \"#utility.yul\":19471:19475   */\n      dup2\n        /* \"#utility.yul\":19462:19468   */\n      dup5\n        /* \"#utility.yul\":19398:19476   */\n      tag_283\n      jump\t// in\n    tag_470:\n        /* \"#utility.yul\":19390:19476   */\n      swap1\n      pop\n        /* \"#utility.yul\":19170:19483   */\n      swap3\n      swap2\n      pop\n      pop\n      jump\t// out\n        /* \"#utility.yul\":19489:19680   */\n    tag_207:\n        /* \"#utility.yul\":19529:19532   */\n      0x00\n        /* \"#utility.yul\":19548:19568   */\n      tag_472\n        /* \"#utility.yul\":19566:19567   */\n      dup3\n        /* \"#utility.yul\":19548:19568   */\n      tag_233\n      jump\t// in\n    tag_472:\n        /* \"#utility.yul\":19543:19568   */\n      swap2\n      pop\n        /* \"#utility.yul\":19582:19602   */\n      tag_473\n        /* \"#utility.yul\":19600:19601   */\n      dup4\n        /* \"#utility.yul\":19582:19602   */\n      tag_233\n      jump\t// in\n    tag_473:\n        /* \"#utility.yul\":19577:19602   */\n      swap3\n      pop\n        /* \"#utility.yul\":19625:19626   */\n      dup3\n        /* \"#utility.yul\":19622:19623   */\n      dup3\n        /* \"#utility.yul\":19618:19627   */\n      add\n        /* \"#utility.yul\":19611:19627   */\n      swap1\n      pop\n        /* \"#utility.yul\":19646:19649   */\n      dup1\n        /* \"#utility.yul\":19643:19644   */\n      dup3\n        /* \"#utility.yul\":19640:19650   */\n      gt\n        /* \"#utility.yul\":19637:19673   */\n      iszero\n      tag_474\n      jumpi\n        /* \"#utility.yul\":19653:19671   */\n      tag_475\n      tag_251\n      jump\t// in\n    tag_475:\n        /* \"#utility.yul\":19637:19673   */\n    tag_474:\n        /* \"#utility.yul\":19489:19680   */\n      swap3\n      swap2\n      pop\n      pop\n      jump\t// out\n        /* \"#utility.yul\":19686:19866   */\n    tag_213:\n        /* \"#utility.yul\":19734:19811   */\n      0x4e487b7100000000000000000000000000000000000000000000000000000000\n        /* \"#utility.yul\":19731:19732   */\n      0x00\n        /* \"#utility.yul\":19724:19812   */\n      mstore\n        /* \"#utility.yul\":19831:19835   */\n      0x32\n        /* \"#utility.yul\":19828:19829   */\n      0x04\n        /* \"#utility.yul\":19821:19836   */\n      mstore\n        /* \"#utility.yul\":19855:19859   */\n      0x24\n        /* \"#utility.yul\":19852:19853   */\n      0x00\n        /* \"#utility.yul\":19845:19860   */\n      revert\n        /* \"#utility.yul\":19872:20043   */\n    tag_226:\n        /* \"#utility.yul\":19911:19914   */\n      0x00\n        /* \"#utility.yul\":19934:19958   */\n      tag_478\n        /* \"#utility.yul\":19952:19957   */\n      dup3\n        /* \"#utility.yul\":19934:19958   */\n      tag_233\n      jump\t// in\n    tag_478:\n        /* \"#utility.yul\":19925:19958   */\n      swap2\n      pop\n        /* \"#utility.yul\":19980:19984   */\n      0x00\n        /* \"#utility.yul\":19973:19978   */\n      dup3\n        /* \"#utility.yul\":19970:19985   */\n      sub\n        /* \"#utility.yul\":19967:20008   */\n      tag_479\n      jumpi\n        /* \"#utility.yul\":19988:20006   */\n      tag_480\n      tag_251\n      jump\t// in\n    tag_480:\n        /* \"#utility.yul\":19967:20008   */\n    tag_479:\n        /* \"#utility.yul\":20035:20036   */\n      0x01\n        /* \"#utility.yul\":20028:20033   */\n      dup3\n        /* \"#utility.yul\":20024:20037   */\n      sub\n        /* \"#utility.yul\":20017:20037   */\n      swap1\n      pop\n        /* \"#utility.yul\":19872:20043   */\n      swap2\n      swap1\n      pop\n      jump\t// out\n        /* \"#utility.yul\":20049:20231   */\n    tag_284:\n        /* \"#utility.yul\":20189:20223   */\n      0x537472696e67733a20686578206c656e67746820696e73756666696369656e74\n        /* \"#utility.yul\":20185:20186   */\n      0x00\n        /* \"#utility.yul\":20177:20183   */\n      dup3\n        /* \"#utility.yul\":20173:20187   */\n      add\n        /* \"#utility.yul\":20166:20224   */\n      mstore\n        /* \"#utility.yul\":20049:20231   */\n      pop\n      jump\t// out\n        /* \"#utility.yul\":20237:20603   */\n    tag_285:\n        /* \"#utility.yul\":20379:20382   */\n      0x00\n        /* \"#utility.yul\":20400:20467   */\n      tag_483\n        /* \"#utility.yul\":20464:20466   */\n      0x20\n        /* \"#utility.yul\":20459:20462   */\n      dup4\n        /* \"#utility.yul\":20400:20467   */\n      tag_256\n      jump\t// in\n    tag_483:\n        /* \"#utility.yul\":20393:20467   */\n      swap2\n      pop\n        /* \"#utility.yul\":20476:20569   */\n      tag_484\n        /* \"#utility.yul\":20565:20568   */\n      dup3\n        /* \"#utility.yul\":20476:20569   */\n      tag_284\n      jump\t// in\n    tag_484:\n        /* \"#utility.yul\":20594:20596   */\n      0x20\n        /* \"#utility.yul\":20589:20592   */\n      dup3\n        /* \"#utility.yul\":20585:20597   */\n      add\n        /* \"#utility.yul\":20578:20597   */\n      swap1\n      pop\n        /* \"#utility.yul\":20237:20603   */\n      swap2\n      swap1\n      pop\n      jump\t// out\n        /* \"#utility.yul\":20609:21028   */\n    tag_229:\n        /* \"#utility.yul\":20775:20779   */\n      0x00\n        /* \"#utility.yul\":20813:20815   */\n      0x20\n        /* \"#utility.yul\":20802:20811   */\n      dup3\n        /* \"#utility.yul\":20798:20816   */\n      add\n        /* \"#utility.yul\":20790:20816   */\n      swap1\n      pop\n        /* \"#utility.yul\":20862:20871   */\n      dup2\n        /* \"#utility.yul\":20856:20860   */\n      dup2\n        /* \"#utility.yul\":20852:20872   */\n      sub\n        /* \"#utility.yul\":20848:20849   */\n      0x00\n        /* \"#utility.yul\":20837:20846   */\n      dup4\n        /* \"#utility.yul\":20833:20850   */\n      add\n        /* \"#utility.yul\":20826:20873   */\n      mstore\n        /* \"#utility.yul\":20890:21021   */\n      tag_486\n        /* \"#utility.yul\":21016:21020   */\n      dup2\n        /* \"#utility.yul\":20890:21021   */\n      tag_285\n      jump\t// in\n    tag_486:\n        /* \"#utility.yul\":20882:21021   */\n      swap1\n      pop\n        /* \"#utility.yul\":20609:21028   */\n      swap2\n      swap1\n      pop\n      jump\t// out\n\n    auxdata: 0xa26469706673582212200f5801ffe996bcf04a3ffbc22d90e30771361c101fb7d0f47b0b560925eae31d64736f6c63430008130033\n}\n",
				"bytecode": {
					"linkReferences": {},
					"object": "60a060405234801561001057600080fd5b5061001f61005760201b60201c565b73ffffffffffffffffffffffffffffffffffffffff1660808173ffffffffffffffffffffffffffffffffffffffff168152505061005f565b600033905090565b608051611d2561007a600039600061079a0152611d256000f3fe6080604052600436106100c65760003560e01c80638dd950021161007f578063c45a015511610059578063c45a015514610344578063c54e44eb1461036f578063d547741f1461039a578063f8c8765e146103c35761018c565b80638dd95002146102b157806391d14854146102dc578063a217fddf146103195761018c565b806301ffc9a714610191578063248a9ca3146101ce5780632e1a7d4d1461020b5780632f2ff15d1461023457806336568abe1461025d578063774237fc146102865761018c565b3661018c5760004790506000610144600360009054906101000a900473ffffffffffffffffffffffffffffffffffffffff1683600160009054906101000a900473ffffffffffffffffffffffffffffffffffffffff16600260009054906101000a900473ffffffffffffffffffffffffffffffffffffffff166103ec565b90507f3cadff7f9a0bf97b2f8b9629e31675770caca33d15e735652794f64acce52fa061016f610423565b348484604051610182949392919061123d565b60405180910390a1005b600080fd5b34801561019d57600080fd5b506101b860048036038101906101b391906112df565b61042b565b6040516101c59190611327565b60405180910390f35b3480156101da57600080fd5b506101f560048036038101906101f09190611378565b6104a5565b60405161020291906113b4565b60405180910390f35b34801561021757600080fd5b50610232600480360381019061022d91906113fb565b6104c4565b005b34801561024057600080fd5b5061025b60048036038101906102569190611454565b6105c8565b005b34801561026957600080fd5b50610284600480360381019061027f9190611454565b6105e9565b005b34801561029257600080fd5b5061029b61066c565b6040516102a891906113b4565b60405180910390f35b3480156102bd57600080fd5b506102c6610694565b6040516102d39190611494565b60405180910390f35b3480156102e857600080fd5b5061030360048036038101906102fe9190611454565b6106ba565b6040516103109190611327565b60405180910390f35b34801561032557600080fd5b5061032e610724565b60405161033b91906113b4565b60405180910390f35b34801561035057600080fd5b5061035961072b565b6040516103669190611494565b60405180910390f35b34801561037b57600080fd5b50610384610751565b6040516103919190611494565b60405180910390f35b3480156103a657600080fd5b506103c160048036038101906103bc9190611454565b610777565b005b3480156103cf57600080fd5b506103ea60048036038101906103e591906114af565b610798565b005b60008060006103fc8786866109c2565b9150915081818761040d9190611545565b61041791906115b6565b92505050949350505050565b600033905090565b60007f7965db0b000000000000000000000000000000000000000000000000000000007bffffffffffffffffffffffffffffffffffffffffffffffffffffffff1916827bffffffffffffffffffffffffffffffffffffffffffffffffffffffff1916148061049e575061049d82610b2f565b5b9050919050565b6000806000838152602001908152602001600020600101549050919050565b6040516020016104d39061163e565b604051602081830303815290604052805190602001206104f281610b99565b6105036104fd610423565b83610bad565b6000479050600061057c600360009054906101000a900473ffffffffffffffffffffffffffffffffffffffff1683600160009054906101000a900473ffffffffffffffffffffffffffffffffffffffff16600260009054906101000a900473ffffffffffffffffffffffffffffffffffffffff166103ec565b90507fb450a08ba9d5bfbc195171a9f21f66b27de075c9788057b443dc147da398be5c6105a7610423565b8584846040516105ba949392919061123d565b60405180910390a150505050565b6105d1826104a5565b6105da81610b99565b6105e48383610cad565b505050565b6105f1610423565b73ffffffffffffffffffffffffffffffffffffffff168173ffffffffffffffffffffffffffffffffffffffff161461065e576040517f08c379a0000000000000000000000000000000000000000000000000000000008152600401610655906116d6565b60405180910390fd5b6106688282610d8d565b5050565b60405160200161067b9061163e565b6040516020818303038152906040528051906020012081565b600160009054906101000a900473ffffffffffffffffffffffffffffffffffffffff1681565b600080600084815260200190815260200160002060000160008373ffffffffffffffffffffffffffffffffffffffff1673ffffffffffffffffffffffffffffffffffffffff16815260200190815260200160002060009054906101000a900460ff16905092915050565b6000801b81565b600360009054906101000a900473ffffffffffffffffffffffffffffffffffffffff1681565b600260009054906101000a900473ffffffffffffffffffffffffffffffffffffffff1681565b610780826104a5565b61078981610b99565b6107938383610d8d565b505050565b7f000000000000000000000000000000000000000000000000000000000000000073ffffffffffffffffffffffffffffffffffffffff166107d7610423565b73ffffffffffffffffffffffffffffffffffffffff161461082d576040517f08c379a000000000000000000000000000000000000000000000000000000000815260040161082490611768565b60405180910390fd5b600073ffffffffffffffffffffffffffffffffffffffff168373ffffffffffffffffffffffffffffffffffffffff160361089c576040517f08c379a0000000000000000000000000000000000000000000000000000000008152600401610893906117d4565b60405180910390fd5b6108ca6040516020016108ae9061163e565b6040516020818303038152906040528051906020012084610cad565b6108de6000801b6108d9610423565b610cad565b83600360006101000a81548173ffffffffffffffffffffffffffffffffffffffff021916908373ffffffffffffffffffffffffffffffffffffffff16021790555081600260006101000a81548173ffffffffffffffffffffffffffffffffffffffff021916908373ffffffffffffffffffffffffffffffffffffffff16021790555080600160006101000a81548173ffffffffffffffffffffffffffffffffffffffff021916908373ffffffffffffffffffffffffffffffffffffffff1602179055506001600260146101000a81548160ff02191690831515021790555050505050565b60008060006109d2868686610e6e565b905060008173ffffffffffffffffffffffffffffffffffffffff16630dfe16816040518163ffffffff1660e01b8152600401602060405180830381865afa158015610a21573d6000803e3d6000fd5b505050506040513d601f19601f82011682018060405250810190610a459190611809565b90506000808373ffffffffffffffffffffffffffffffffffffffff16630902f1ac6040518163ffffffff1660e01b8152600401606060405180830381865afa158015610a95573d6000803e3d6000fd5b505050506040513d601f19601f82011682018060405250810190610ab991906118b8565b506dffffffffffffffffffffffffffff1691506dffffffffffffffffffffffffffff1691508273ffffffffffffffffffffffffffffffffffffffff168873ffffffffffffffffffffffffffffffffffffffff1614610b18578082610b1b565b81815b809650819750505050505050935093915050565b60007f01ffc9a7000000000000000000000000000000000000000000000000000000007bffffffffffffffffffffffffffffffffffffffffffffffffffffffff1916827bffffffffffffffffffffffffffffffffffffffffffffffffffffffff1916149050919050565b610baa81610ba5610423565b610ef5565b50565b60008273ffffffffffffffffffffffffffffffffffffffff1682600067ffffffffffffffff811115610be257610be161190b565b5b6040519080825280601f01601f191660200182016040528015610c145781602001600182028036833780820191505090505b50604051610c2291906119ab565b60006040518083038185875af1925050503d8060008114610c5f576040519150601f19603f3d011682016040523d82523d6000602084013e610c64565b606091505b5050905080610ca8576040517f08c379a0000000000000000000000000000000000000000000000000000000008152600401610c9f90611a34565b60405180910390fd5b505050565b610cb782826106ba565b610d8957600160008084815260200190815260200160002060000160008373ffffffffffffffffffffffffffffffffffffffff1673ffffffffffffffffffffffffffffffffffffffff16815260200190815260200160002060006101000a81548160ff021916908315150217905550610d2e610423565b73ffffffffffffffffffffffffffffffffffffffff168173ffffffffffffffffffffffffffffffffffffffff16837f2f8788117e7eff1d82e926ec794901d17c78024a50270940304540a733656f0d60405160405180910390a45b5050565b610d9782826106ba565b15610e6a57600080600084815260200190815260200160002060000160008373ffffffffffffffffffffffffffffffffffffffff1673ffffffffffffffffffffffffffffffffffffffff16815260200190815260200160002060006101000a81548160ff021916908315150217905550610e0f610423565b73ffffffffffffffffffffffffffffffffffffffff168173ffffffffffffffffffffffffffffffffffffffff16837ff6391f5c32d9c69d2a47ea670b442974b53935d1edc7fd64eb21e047a839171b60405160405180910390a45b5050565b60008373ffffffffffffffffffffffffffffffffffffffff1663e6a4390584846040518363ffffffff1660e01b8152600401610eab929190611a54565b602060405180830381865afa158015610ec8573d6000803e3d6000fd5b505050506040513d601f19601f82011682018060405250810190610eec9190611809565b90509392505050565b610eff82826106ba565b610f7657610f0c81610f7a565b610f1a8360001c6020610fa7565b604051602001610f2b929190611b51565b6040516020818303038152906040526040517f08c379a0000000000000000000000000000000000000000000000000000000008152600401610f6d9190611bd5565b60405180910390fd5b5050565b6060610fa08273ffffffffffffffffffffffffffffffffffffffff16601460ff16610fa7565b9050919050565b606060006002836002610fba9190611545565b610fc49190611bf7565b67ffffffffffffffff811115610fdd57610fdc61190b565b5b6040519080825280601f01601f19166020018201604052801561100f5781602001600182028036833780820191505090505b5090507f30000000000000000000000000000000000000000000000000000000000000008160008151811061104757611046611c2b565b5b60200101907effffffffffffffffffffffffffffffffffffffffffffffffffffffffffffff1916908160001a9053507f7800000000000000000000000000000000000000000000000000000000000000816001815181106110ab576110aa611c2b565b5b60200101907effffffffffffffffffffffffffffffffffffffffffffffffffffffffffffff1916908160001a905350600060018460026110eb9190611545565b6110f59190611bf7565b90505b6001811115611195577f3031323334353637383961626364656600000000000000000000000000000000600f86166010811061113757611136611c2b565b5b1a60f81b82828151811061114e5761114d611c2b565b5b60200101907effffffffffffffffffffffffffffffffffffffffffffffffffffffffffffff1916908160001a905350600485901c94508061118e90611c5a565b90506110f8565b50600084146111d9576040517f08c379a00000000000000000000000000000000000000000000000000000000081526004016111d090611ccf565b60405180910390fd5b8091505092915050565b600073ffffffffffffffffffffffffffffffffffffffff82169050919050565b600061120e826111e3565b9050919050565b61121e81611203565b82525050565b6000819050919050565b61123781611224565b82525050565b60006080820190506112526000830187611215565b61125f602083018661122e565b61126c604083018561122e565b611279606083018461122e565b95945050505050565b600080fd5b60007fffffffff0000000000000000000000000000000000000000000000000000000082169050919050565b6112bc81611287565b81146112c757600080fd5b50565b6000813590506112d9816112b3565b92915050565b6000602082840312156112f5576112f4611282565b5b6000611303848285016112ca565b91505092915050565b60008115159050919050565b6113218161130c565b82525050565b600060208201905061133c6000830184611318565b92915050565b6000819050919050565b61135581611342565b811461136057600080fd5b50565b6000813590506113728161134c565b92915050565b60006020828403121561138e5761138d611282565b5b600061139c84828501611363565b91505092915050565b6113ae81611342565b82525050565b60006020820190506113c960008301846113a5565b92915050565b6113d881611224565b81146113e357600080fd5b50565b6000813590506113f5816113cf565b92915050565b60006020828403121561141157611410611282565b5b600061141f848285016113e6565b91505092915050565b61143181611203565b811461143c57600080fd5b50565b60008135905061144e81611428565b92915050565b6000806040838503121561146b5761146a611282565b5b600061147985828601611363565b925050602061148a8582860161143f565b9150509250929050565b60006020820190506114a96000830184611215565b92915050565b600080600080608085870312156114c9576114c8611282565b5b60006114d78782880161143f565b94505060206114e88782880161143f565b93505060406114f98782880161143f565b925050606061150a8782880161143f565b91505092959194509250565b7f4e487b7100000000000000000000000000000000000000000000000000000000600052601160045260246000fd5b600061155082611224565b915061155b83611224565b925082820261156981611224565b915082820484148315176115805761157f611516565b5b5092915050565b7f4e487b7100000000000000000000000000000000000000000000000000000000600052601260045260246000fd5b60006115c182611224565b91506115cc83611224565b9250826115dc576115db611587565b5b828204905092915050565b600081905092915050565b7f43616c6c65720000000000000000000000000000000000000000000000000000600082015250565b60006116286006836115e7565b9150611633826115f2565b600682019050919050565b60006116498261161b565b9150819050919050565b600082825260208201905092915050565b7f416363657373436f6e74726f6c3a2063616e206f6e6c792072656e6f756e636560008201527f20726f6c657320666f722073656c660000000000000000000000000000000000602082015250565b60006116c0602f83611653565b91506116cb82611664565b604082019050919050565b600060208201905081810360008301526116ef816116b3565b9050919050565b7f526573657276653a2063616c6c6572206973206e6f742074686520696e69746960008201527f616c697a65720000000000000000000000000000000000000000000000000000602082015250565b6000611752602683611653565b915061175d826116f6565b604082019050919050565b6000602082019050818103600083015261178181611745565b9050919050565b7f526573657276653a20696e76616c696420436f6e74726f6c2061646472657373600082015250565b60006117be602083611653565b91506117c982611788565b602082019050919050565b600060208201905081810360008301526117ed816117b1565b9050919050565b60008151905061180381611428565b92915050565b60006020828403121561181f5761181e611282565b5b600061182d848285016117f4565b91505092915050565b60006dffffffffffffffffffffffffffff82169050919050565b61185981611836565b811461186457600080fd5b50565b60008151905061187681611850565b92915050565b600063ffffffff82169050919050565b6118958161187c565b81146118a057600080fd5b50565b6000815190506118b28161188c565b92915050565b6000806000606084860312156118d1576118d0611282565b5b60006118df86828701611867565b93505060206118f086828701611867565b9250506040611901868287016118a3565b9150509250925092565b7f4e487b7100000000000000000000000000000000000000000000000000000000600052604160045260246000fd5b600081519050919050565b600081905092915050565b60005b8381101561196e578082015181840152602081019050611953565b60008484015250505050565b60006119858261193a565b61198f8185611945565b935061199f818560208601611950565b80840191505092915050565b60006119b7828461197a565b915081905092915050565b7f536166654554483a3a736166655472616e736665724554483a2045544820747260008201527f616e73666572206661696c656400000000000000000000000000000000000000602082015250565b6000611a1e602d83611653565b9150611a29826119c2565b604082019050919050565b60006020820190508181036000830152611a4d81611a11565b9050919050565b6000604082019050611a696000830185611215565b611a766020830184611215565b9392505050565b7f416363657373436f6e74726f6c3a206163636f756e7420000000000000000000600082015250565b6000611ab36017836115e7565b9150611abe82611a7d565b601782019050919050565b600081519050919050565b6000611adf82611ac9565b611ae981856115e7565b9350611af9818560208601611950565b80840191505092915050565b7f206973206d697373696e6720726f6c6520000000000000000000000000000000600082015250565b6000611b3b6011836115e7565b9150611b4682611b05565b601182019050919050565b6000611b5c82611aa6565b9150611b688285611ad4565b9150611b7382611b2e565b9150611b7f8284611ad4565b91508190509392505050565b6000601f19601f8301169050919050565b6000611ba782611ac9565b611bb18185611653565b9350611bc1818560208601611950565b611bca81611b8b565b840191505092915050565b60006020820190508181036000830152611bef8184611b9c565b905092915050565b6000611c0282611224565b9150611c0d83611224565b9250828201905080821115611c2557611c24611516565b5b92915050565b7f4e487b7100000000000000000000000000000000000000000000000000000000600052603260045260246000fd5b6000611c6582611224565b915060008203611c7857611c77611516565b5b600182039050919050565b7f537472696e67733a20686578206c656e67746820696e73756666696369656e74600082015250565b6000611cb9602083611653565b9150611cc482611c83565b602082019050919050565b60006020820190508181036000830152611ce881611cac565b905091905056fea26469706673582212200f5801ffe996bcf04a3ffbc22d90e30771361c101fb7d0f47b0b560925eae31d64736f6c63430008130033",
					"opcodes": "PUSH1 0xA0 PUSH1 0x40 MSTORE CALLVALUE DUP1 ISZERO PUSH2 0x10 JUMPI PUSH1 0x0 DUP1 REVERT JUMPDEST POP PUSH2 0x1F PUSH2 0x57 PUSH1 0x20 SHL PUSH1 0x20 SHR JUMP JUMPDEST PUSH20 0xFFFFFFFFFFFFFFFFFFFFFFFFFFFFFFFFFFFFFFFF AND PUSH1 0x80 DUP2 PUSH20 0xFFFFFFFFFFFFFFFFFFFFFFFFFFFFFFFFFFFFFFFF AND DUP2 MSTORE POP POP PUSH2 0x5F JUMP JUMPDEST PUSH1 0x0 CALLER SWAP1 POP SWAP1 JUMP JUMPDEST PUSH1 0x80 MLOAD PUSH2 0x1D25 PUSH2 0x7A PUSH1 0x0 CODECOPY PUSH1 0x0 PUSH2 0x79A ADD MSTORE PUSH2 0x1D25 PUSH1 0x0 RETURN INVALID PUSH1 0x80 PUSH1 0x40 MSTORE PUSH1 0x4 CALLDATASIZE LT PUSH2 0xC6 JUMPI PUSH1 0x0 CALLDATALOAD PUSH1 0xE0 SHR DUP1 PUSH4 0x8DD95002 GT PUSH2 0x7F JUMPI DUP1 PUSH4 0xC45A0155 GT PUSH2 0x59 JUMPI DUP1 PUSH4 0xC45A0155 EQ PUSH2 0x344 JUMPI DUP1 PUSH4 0xC54E44EB EQ PUSH2 0x36F JUMPI DUP1 PUSH4 0xD547741F EQ PUSH2 0x39A JUMPI DUP1 PUSH4 0xF8C8765E EQ PUSH2 0x3C3 JUMPI PUSH2 0x18C JUMP JUMPDEST DUP1 PUSH4 0x8DD95002 EQ PUSH2 0x2B1 JUMPI DUP1 PUSH4 0x91D14854 EQ PUSH2 0x2DC JUMPI DUP1 PUSH4 0xA217FDDF EQ PUSH2 0x319 JUMPI PUSH2 0x18C JUMP JUMPDEST DUP1 PUSH4 0x1FFC9A7 EQ PUSH2 0x191 JUMPI DUP1 PUSH4 0x248A9CA3 EQ PUSH2 0x1CE JUMPI DUP1 PUSH4 0x2E1A7D4D EQ PUSH2 0x20B JUMPI DUP1 PUSH4 0x2F2FF15D EQ PUSH2 0x234 JUMPI DUP1 PUSH4 0x36568ABE EQ PUSH2 0x25D JUMPI DUP1 PUSH4 0x774237FC EQ PUSH2 0x286 JUMPI PUSH2 0x18C JUMP JUMPDEST CALLDATASIZE PUSH2 0x18C JUMPI PUSH1 0x0 SELFBALANCE SWAP1 POP PUSH1 0x0 PUSH2 0x144 PUSH1 0x3 PUSH1 0x0 SWAP1 SLOAD SWAP1 PUSH2 0x100 EXP SWAP1 DIV PUSH20 0xFFFFFFFFFFFFFFFFFFFFFFFFFFFFFFFFFFFFFFFF AND DUP4 PUSH1 0x1 PUSH1 0x0 SWAP1 SLOAD SWAP1 PUSH2 0x100 EXP SWAP1 DIV PUSH20 0xFFFFFFFFFFFFFFFFFFFFFFFFFFFFFFFFFFFFFFFF AND PUSH1 0x2 PUSH1 0x0 SWAP1 SLOAD SWAP1 PUSH2 0x100 EXP SWAP1 DIV PUSH20 0xFFFFFFFFFFFFFFFFFFFFFFFFFFFFFFFFFFFFFFFF AND PUSH2 0x3EC JUMP JUMPDEST SWAP1 POP PUSH32 0x3CADFF7F9A0BF97B2F8B9629E31675770CACA33D15E735652794F64ACCE52FA0 PUSH2 0x16F PUSH2 0x423 JUMP JUMPDEST CALLVALUE DUP5 DUP5 PUSH1 0x40 MLOAD PUSH2 0x182 SWAP5 SWAP4 SWAP3 SWAP2 SWAP1 PUSH2 0x123D JUMP JUMPDEST PUSH1 0x40 MLOAD DUP1 SWAP2 SUB SWAP1 LOG1 STOP JUMPDEST PUSH1 0x0 DUP1 REVERT JUMPDEST CALLVALUE DUP1 ISZERO PUSH2 0x19D JUMPI PUSH1 0x0 DUP1 REVERT JUMPDEST POP PUSH2 0x1B8 PUSH1 0x4 DUP1 CALLDATASIZE SUB DUP2 ADD SWAP1 PUSH2 0x1B3 SWAP2 SWAP1 PUSH2 0x12DF JUMP JUMPDEST PUSH2 0x42B JUMP JUMPDEST PUSH1 0x40 MLOAD PUSH2 0x1C5 SWAP2 SWAP1 PUSH2 0x1327 JUMP JUMPDEST PUSH1 0x40 MLOAD DUP1 SWAP2 SUB SWAP1 RETURN JUMPDEST CALLVALUE DUP1 ISZERO PUSH2 0x1DA JUMPI PUSH1 0x0 DUP1 REVERT JUMPDEST POP PUSH2 0x1F5 PUSH1 0x4 DUP1 CALLDATASIZE SUB DUP2 ADD SWAP1 PUSH2 0x1F0 SWAP2 SWAP1 PUSH2 0x1378 JUMP JUMPDEST PUSH2 0x4A5 JUMP JUMPDEST PUSH1 0x40 MLOAD PUSH2 0x202 SWAP2 SWAP1 PUSH2 0x13B4 JUMP JUMPDEST PUSH1 0x40 MLOAD DUP1 SWAP2 SUB SWAP1 RETURN JUMPDEST CALLVALUE DUP1 ISZERO PUSH2 0x217 JUMPI PUSH1 0x0 DUP1 REVERT JUMPDEST POP PUSH2 0x232 PUSH1 0x4 DUP1 CALLDATASIZE SUB DUP2 ADD SWAP1 PUSH2 0x22D SWAP2 SWAP1 PUSH2 0x13FB JUMP JUMPDEST PUSH2 0x4C4 JUMP JUMPDEST STOP JUMPDEST CALLVALUE DUP1 ISZERO PUSH2 0x240 JUMPI PUSH1 0x0 DUP1 REVERT JUMPDEST POP PUSH2 0x25B PUSH1 0x4 DUP1 CALLDATASIZE SUB DUP2 ADD SWAP1 PUSH2 0x256 SWAP2 SWAP1 PUSH2 0x1454 JUMP JUMPDEST PUSH2 0x5C8 JUMP JUMPDEST STOP JUMPDEST CALLVALUE DUP1 ISZERO PUSH2 0x269 JUMPI PUSH1 0x0 DUP1 REVERT JUMPDEST POP PUSH2 0x284 PUSH1 0x4 DUP1 CALLDATASIZE SUB DUP2 ADD SWAP1 PUSH2 0x27F SWAP2 SWAP1 PUSH2 0x1454 JUMP JUMPDEST PUSH2 0x5E9 JUMP JUMPDEST STOP JUMPDEST CALLVALUE DUP1 ISZERO PUSH2 0x292 JUMPI PUSH1 0x0 DUP1 REVERT JUMPDEST POP PUSH2 0x29B PUSH2 0x66C JUMP JUMPDEST PUSH1 0x40 MLOAD PUSH2 0x2A8 SWAP2 SWAP1 PUSH2 0x13B4 JUMP JUMPDEST PUSH1 0x40 MLOAD DUP1 SWAP2 SUB SWAP1 RETURN JUMPDEST CALLVALUE DUP1 ISZERO PUSH2 0x2BD JUMPI PUSH1 0x0 DUP1 REVERT JUMPDEST POP PUSH2 0x2C6 PUSH2 0x694 JUMP JUMPDEST PUSH1 0x40 MLOAD PUSH2 0x2D3 SWAP2 SWAP1 PUSH2 0x1494 JUMP JUMPDEST PUSH1 0x40 MLOAD DUP1 SWAP2 SUB SWAP1 RETURN JUMPDEST CALLVALUE DUP1 ISZERO PUSH2 0x2E8 JUMPI PUSH1 0x0 DUP1 REVERT JUMPDEST POP PUSH2 0x303 PUSH1 0x4 DUP1 CALLDATASIZE SUB DUP2 ADD SWAP1 PUSH2 0x2FE SWAP2 SWAP1 PUSH2 0x1454 JUMP JUMPDEST PUSH2 0x6BA JUMP JUMPDEST PUSH1 0x40 MLOAD PUSH2 0x310 SWAP2 SWAP1 PUSH2 0x1327 JUMP JUMPDEST PUSH1 0x40 MLOAD DUP1 SWAP2 SUB SWAP1 RETURN JUMPDEST CALLVALUE DUP1 ISZERO PUSH2 0x325 JUMPI PUSH1 0x0 DUP1 REVERT JUMPDEST POP PUSH2 0x32E PUSH2 0x724 JUMP JUMPDEST PUSH1 0x40 MLOAD PUSH2 0x33B SWAP2 SWAP1 PUSH2 0x13B4 JUMP JUMPDEST PUSH1 0x40 MLOAD DUP1 SWAP2 SUB SWAP1 RETURN JUMPDEST CALLVALUE DUP1 ISZERO PUSH2 0x350 JUMPI PUSH1 0x0 DUP1 REVERT JUMPDEST POP PUSH2 0x359 PUSH2 0x72B JUMP JUMPDEST PUSH1 0x40 MLOAD PUSH2 0x366 SWAP2 SWAP1 PUSH2 0x1494 JUMP JUMPDEST PUSH1 0x40 MLOAD DUP1 SWAP2 SUB SWAP1 RETURN JUMPDEST CALLVALUE DUP1 ISZERO PUSH2 0x37B JUMPI PUSH1 0x0 DUP1 REVERT JUMPDEST POP PUSH2 0x384 PUSH2 0x751 JUMP JUMPDEST PUSH1 0x40 MLOAD PUSH2 0x391 SWAP2 SWAP1 PUSH2 0x1494 JUMP JUMPDEST PUSH1 0x40 MLOAD DUP1 SWAP2 SUB SWAP1 RETURN JUMPDEST CALLVALUE DUP1 ISZERO PUSH2 0x3A6 JUMPI PUSH1 0x0 DUP1 REVERT JUMPDEST POP PUSH2 0x3C1 PUSH1 0x4 DUP1 CALLDATASIZE SUB DUP2 ADD SWAP1 PUSH2 0x3BC SWAP2 SWAP1 PUSH2 0x1454 JUMP JUMPDEST PUSH2 0x777 JUMP JUMPDEST STOP JUMPDEST CALLVALUE DUP1 ISZERO PUSH2 0x3CF JUMPI PUSH1 0x0 DUP1 REVERT JUMPDEST POP PUSH2 0x3EA PUSH1 0x4 DUP1 CALLDATASIZE SUB DUP2 ADD SWAP1 PUSH2 0x3E5 SWAP2 SWAP1 PUSH2 0x14AF JUMP JUMPDEST PUSH2 0x798 JUMP JUMPDEST STOP JUMPDEST PUSH1 0x0 DUP1 PUSH1 0x0 PUSH2 0x3FC DUP8 DUP7 DUP7 PUSH2 0x9C2 JUMP JUMPDEST SWAP2 POP SWAP2 POP DUP2 DUP2 DUP8 PUSH2 0x40D SWAP2 SWAP1 PUSH2 0x1545 JUMP JUMPDEST PUSH2 0x417 SWAP2 SWAP1 PUSH2 0x15B6 JUMP JUMPDEST SWAP3 POP POP POP SWAP5 SWAP4 POP POP POP POP JUMP JUMPDEST PUSH1 0x0 CALLER SWAP1 POP SWAP1 JUMP JUMPDEST PUSH1 0x0 PUSH32 0x7965DB0B00000000000000000000000000000000000000000000000000000000 PUSH28 0xFFFFFFFFFFFFFFFFFFFFFFFFFFFFFFFFFFFFFFFFFFFFFFFFFFFFFFFF NOT AND DUP3 PUSH28 0xFFFFFFFFFFFFFFFFFFFFFFFFFFFFFFFFFFFFFFFFFFFFFFFFFFFFFFFF NOT AND EQ DUP1 PUSH2 0x49E JUMPI POP PUSH2 0x49D DUP3 PUSH2 0xB2F JUMP JUMPDEST JUMPDEST SWAP1 POP SWAP2 SWAP1 POP JUMP JUMPDEST PUSH1 0x0 DUP1 PUSH1 0x0 DUP4 DUP2 MSTORE PUSH1 0x20 ADD SWAP1 DUP2 MSTORE PUSH1 0x20 ADD PUSH1 0x0 KECCAK256 PUSH1 0x1 ADD SLOAD SWAP1 POP SWAP2 SWAP1 POP JUMP JUMPDEST PUSH1 0x40 MLOAD PUSH1 0x20 ADD PUSH2 0x4D3 SWAP1 PUSH2 0x163E JUMP JUMPDEST PUSH1 0x40 MLOAD PUSH1 0x20 DUP2 DUP4 SUB SUB DUP2 MSTORE SWAP1 PUSH1 0x40 MSTORE DUP1 MLOAD SWAP1 PUSH1 0x20 ADD KECCAK256 PUSH2 0x4F2 DUP2 PUSH2 0xB99 JUMP JUMPDEST PUSH2 0x503 PUSH2 0x4FD PUSH2 0x423 JUMP JUMPDEST DUP4 PUSH2 0xBAD JUMP JUMPDEST PUSH1 0x0 SELFBALANCE SWAP1 POP PUSH1 0x0 PUSH2 0x57C PUSH1 0x3 PUSH1 0x0 SWAP1 SLOAD SWAP1 PUSH2 0x100 EXP SWAP1 DIV PUSH20 0xFFFFFFFFFFFFFFFFFFFFFFFFFFFFFFFFFFFFFFFF AND DUP4 PUSH1 0x1 PUSH1 0x0 SWAP1 SLOAD SWAP1 PUSH2 0x100 EXP SWAP1 DIV PUSH20 0xFFFFFFFFFFFFFFFFFFFFFFFFFFFFFFFFFFFFFFFF AND PUSH1 0x2 PUSH1 0x0 SWAP1 SLOAD SWAP1 PUSH2 0x100 EXP SWAP1 DIV PUSH20 0xFFFFFFFFFFFFFFFFFFFFFFFFFFFFFFFFFFFFFFFF AND PUSH2 0x3EC JUMP JUMPDEST SWAP1 POP PUSH32 0xB450A08BA9D5BFBC195171A9F21F66B27DE075C9788057B443DC147DA398BE5C PUSH2 0x5A7 PUSH2 0x423 JUMP JUMPDEST DUP6 DUP5 DUP5 PUSH1 0x40 MLOAD PUSH2 0x5BA SWAP5 SWAP4 SWAP3 SWAP2 SWAP1 PUSH2 0x123D JUMP JUMPDEST PUSH1 0x40 MLOAD DUP1 SWAP2 SUB SWAP1 LOG1 POP POP POP POP JUMP JUMPDEST PUSH2 0x5D1 DUP3 PUSH2 0x4A5 JUMP JUMPDEST PUSH2 0x5DA DUP2 PUSH2 0xB99 JUMP JUMPDEST PUSH2 0x5E4 DUP4 DUP4 PUSH2 0xCAD JUMP JUMPDEST POP POP POP JUMP JUMPDEST PUSH2 0x5F1 PUSH2 0x423 JUMP JUMPDEST PUSH20 0xFFFFFFFFFFFFFFFFFFFFFFFFFFFFFFFFFFFFFFFF AND DUP2 PUSH20 0xFFFFFFFFFFFFFFFFFFFFFFFFFFFFFFFFFFFFFFFF AND EQ PUSH2 0x65E JUMPI PUSH1 0x40 MLOAD PUSH32 0x8C379A000000000000000000000000000000000000000000000000000000000 DUP2 MSTORE PUSH1 0x4 ADD PUSH2 0x655 SWAP1 PUSH2 0x16D6 JUMP JUMPDEST PUSH1 0x40 MLOAD DUP1 SWAP2 SUB SWAP1 REVERT JUMPDEST PUSH2 0x668 DUP3 DUP3 PUSH2 0xD8D JUMP JUMPDEST POP POP JUMP JUMPDEST PUSH1 0x40 MLOAD PUSH1 0x20 ADD PUSH2 0x67B SWAP1 PUSH2 0x163E JUMP JUMPDEST PUSH1 0x40 MLOAD PUSH1 0x20 DUP2 DUP4 SUB SUB DUP2 MSTORE SWAP1 PUSH1 0x40 MSTORE DUP1 MLOAD SWAP1 PUSH1 0x20 ADD KECCAK256 DUP2 JUMP JUMPDEST PUSH1 0x1 PUSH1 0x0 SWAP1 SLOAD SWAP1 PUSH2 0x100 EXP SWAP1 DIV PUSH20 0xFFFFFFFFFFFFFFFFFFFFFFFFFFFFFFFFFFFFFFFF AND DUP2 JUMP JUMPDEST PUSH1 0x0 DUP1 PUSH1 0x0 DUP5 DUP2 MSTORE PUSH1 0x20 ADD SWAP1 DUP2 MSTORE PUSH1 0x20 ADD PUSH1 0x0 KECCAK256 PUSH1 0x0 ADD PUSH1 0x0 DUP4 PUSH20 0xFFFFFFFFFFFFFFFFFFFFFFFFFFFFFFFFFFFFFFFF AND PUSH20 0xFFFFFFFFFFFFFFFFFFFFFFFFFFFFFFFFFFFFFFFF AND DUP2 MSTORE PUSH1 0x20 ADD SWAP1 DUP2 MSTORE PUSH1 0x20 ADD PUSH1 0x0 KECCAK256 PUSH1 0x0 SWAP1 SLOAD SWAP1 PUSH2 0x100 EXP SWAP1 DIV PUSH1 0xFF AND SWAP1 POP SWAP3 SWAP2 POP POP JUMP JUMPDEST PUSH1 0x0 DUP1 SHL DUP2 JUMP JUMPDEST PUSH1 0x3 PUSH1 0x0 SWAP1 SLOAD SWAP1 PUSH2 0x100 EXP SWAP1 DIV PUSH20 0xFFFFFFFFFFFFFFFFFFFFFFFFFFFFFFFFFFFFFFFF AND DUP2 JUMP JUMPDEST PUSH1 0x2 PUSH1 0x0 SWAP1 SLOAD SWAP1 PUSH2 0x100 EXP SWAP1 DIV PUSH20 0xFFFFFFFFFFFFFFFFFFFFFFFFFFFFFFFFFFFFFFFF AND DUP2 JUMP JUMPDEST PUSH2 0x780 DUP3 PUSH2 0x4A5 JUMP JUMPDEST PUSH2 0x789 DUP2 PUSH2 0xB99 JUMP JUMPDEST PUSH2 0x793 DUP4 DUP4 PUSH2 0xD8D JUMP JUMPDEST POP POP POP JUMP JUMPDEST PUSH32 0x0 PUSH20 0xFFFFFFFFFFFFFFFFFFFFFFFFFFFFFFFFFFFFFFFF AND PUSH2 0x7D7 PUSH2 0x423 JUMP JUMPDEST PUSH20 0xFFFFFFFFFFFFFFFFFFFFFFFFFFFFFFFFFFFFFFFF AND EQ PUSH2 0x82D JUMPI PUSH1 0x40 MLOAD PUSH32 0x8C379A000000000000000000000000000000000000000000000000000000000 DUP2 MSTORE PUSH1 0x4 ADD PUSH2 0x824 SWAP1 PUSH2 0x1768 JUMP JUMPDEST PUSH1 0x40 MLOAD DUP1 SWAP2 SUB SWAP1 REVERT JUMPDEST PUSH1 0x0 PUSH20 0xFFFFFFFFFFFFFFFFFFFFFFFFFFFFFFFFFFFFFFFF AND DUP4 PUSH20 0xFFFFFFFFFFFFFFFFFFFFFFFFFFFFFFFFFFFFFFFF AND SUB PUSH2 0x89C JUMPI PUSH1 0x40 MLOAD PUSH32 0x8C379A000000000000000000000000000000000000000000000000000000000 DUP2 MSTORE PUSH1 0x4 ADD PUSH2 0x893 SWAP1 PUSH2 0x17D4 JUMP JUMPDEST PUSH1 0x40 MLOAD DUP1 SWAP2 SUB SWAP1 REVERT JUMPDEST PUSH2 0x8CA PUSH1 0x40 MLOAD PUSH1 0x20 ADD PUSH2 0x8AE SWAP1 PUSH2 0x163E JUMP JUMPDEST PUSH1 0x40 MLOAD PUSH1 0x20 DUP2 DUP4 SUB SUB DUP2 MSTORE SWAP1 PUSH1 0x40 MSTORE DUP1 MLOAD SWAP1 PUSH1 0x20 ADD KECCAK256 DUP5 PUSH2 0xCAD JUMP JUMPDEST PUSH2 0x8DE PUSH1 0x0 DUP1 SHL PUSH2 0x8D9 PUSH2 0x423 JUMP JUMPDEST PUSH2 0xCAD JUMP JUMPDEST DUP4 PUSH1 0x3 PUSH1 0x0 PUSH2 0x100 EXP DUP2 SLOAD DUP2 PUSH20 0xFFFFFFFFFFFFFFFFFFFFFFFFFFFFFFFFFFFFFFFF MUL NOT AND SWAP1 DUP4 PUSH20 0xFFFFFFFFFFFFFFFFFFFFFFFFFFFFFFFFFFFFFFFF AND MUL OR SWAP1 SSTORE POP DUP2 PUSH1 0x2 PUSH1 0x0 PUSH2 0x100 EXP DUP2 SLOAD DUP2 PUSH20 0xFFFFFFFFFFFFFFFFFFFFFFFFFFFFFFFFFFFFFFFF MUL NOT AND SWAP1 DUP4 PUSH20 0xFFFFFFFFFFFFFFFFFFFFFFFFFFFFFFFFFFFFFFFF AND MUL OR SWAP1 SSTORE POP DUP1 PUSH1 0x1 PUSH1 0x0 PUSH2 0x100 EXP DUP2 SLOAD DUP2 PUSH20 0xFFFFFFFFFFFFFFFFFFFFFFFFFFFFFFFFFFFFFFFF MUL NOT AND SWAP1 DUP4 PUSH20 0xFFFFFFFFFFFFFFFFFFFFFFFFFFFFFFFFFFFFFFFF AND MUL OR SWAP1 SSTORE POP PUSH1 0x1 PUSH1 0x2 PUSH1 0x14 PUSH2 0x100 EXP DUP2 SLOAD DUP2 PUSH1 0xFF MUL NOT AND SWAP1 DUP4 ISZERO ISZERO MUL OR SWAP1 SSTORE POP POP POP POP POP JUMP JUMPDEST PUSH1 0x0 DUP1 PUSH1 0x0 PUSH2 0x9D2 DUP7 DUP7 DUP7 PUSH2 0xE6E JUMP JUMPDEST SWAP1 POP PUSH1 0x0 DUP2 PUSH20 0xFFFFFFFFFFFFFFFFFFFFFFFFFFFFFFFFFFFFFFFF AND PUSH4 0xDFE1681 PUSH1 0x40 MLOAD DUP2 PUSH4 0xFFFFFFFF AND PUSH1 0xE0 SHL DUP2 MSTORE PUSH1 0x4 ADD PUSH1 0x20 PUSH1 0x40 MLOAD DUP1 DUP4 SUB DUP2 DUP7 GAS STATICCALL ISZERO DUP1 ISZERO PUSH2 0xA21 JUMPI RETURNDATASIZE PUSH1 0x0 DUP1 RETURNDATACOPY RETURNDATASIZE PUSH1 0x0 REVERT JUMPDEST POP POP POP POP PUSH1 0x40 MLOAD RETURNDATASIZE PUSH1 0x1F NOT PUSH1 0x1F DUP3 ADD AND DUP3 ADD DUP1 PUSH1 0x40 MSTORE POP DUP2 ADD SWAP1 PUSH2 0xA45 SWAP2 SWAP1 PUSH2 0x1809 JUMP JUMPDEST SWAP1 POP PUSH1 0x0 DUP1 DUP4 PUSH20 0xFFFFFFFFFFFFFFFFFFFFFFFFFFFFFFFFFFFFFFFF AND PUSH4 0x902F1AC PUSH1 0x40 MLOAD DUP2 PUSH4 0xFFFFFFFF AND PUSH1 0xE0 SHL DUP2 MSTORE PUSH1 0x4 ADD PUSH1 0x60 PUSH1 0x40 MLOAD DUP1 DUP4 SUB DUP2 DUP7 GAS STATICCALL ISZERO DUP1 ISZERO PUSH2 0xA95 JUMPI RETURNDATASIZE PUSH1 0x0 DUP1 RETURNDATACOPY RETURNDATASIZE PUSH1 0x0 REVERT JUMPDEST POP POP POP POP PUSH1 0x40 MLOAD RETURNDATASIZE PUSH1 0x1F NOT PUSH1 0x1F DUP3 ADD AND DUP3 ADD DUP1 PUSH1 0x40 MSTORE POP DUP2 ADD SWAP1 PUSH2 0xAB9 SWAP2 SWAP1 PUSH2 0x18B8 JUMP JUMPDEST POP PUSH14 0xFFFFFFFFFFFFFFFFFFFFFFFFFFFF AND SWAP2 POP PUSH14 0xFFFFFFFFFFFFFFFFFFFFFFFFFFFF AND SWAP2 POP DUP3 PUSH20 0xFFFFFFFFFFFFFFFFFFFFFFFFFFFFFFFFFFFFFFFF AND DUP9 PUSH20 0xFFFFFFFFFFFFFFFFFFFFFFFFFFFFFFFFFFFFFFFF AND EQ PUSH2 0xB18 JUMPI DUP1 DUP3 PUSH2 0xB1B JUMP JUMPDEST DUP2 DUP2 JUMPDEST DUP1 SWAP7 POP DUP2 SWAP8 POP POP POP POP POP POP POP SWAP4 POP SWAP4 SWAP2 POP POP JUMP JUMPDEST PUSH1 0x0 PUSH32 0x1FFC9A700000000000000000000000000000000000000000000000000000000 PUSH28 0xFFFFFFFFFFFFFFFFFFFFFFFFFFFFFFFFFFFFFFFFFFFFFFFFFFFFFFFF NOT AND DUP3 PUSH28 0xFFFFFFFFFFFFFFFFFFFFFFFFFFFFFFFFFFFFFFFFFFFFFFFFFFFFFFFF NOT AND EQ SWAP1 POP SWAP2 SWAP1 POP JUMP JUMPDEST PUSH2 0xBAA DUP2 PUSH2 0xBA5 PUSH2 0x423 JUMP JUMPDEST PUSH2 0xEF5 JUMP JUMPDEST POP JUMP JUMPDEST PUSH1 0x0 DUP3 PUSH20 0xFFFFFFFFFFFFFFFFFFFFFFFFFFFFFFFFFFFFFFFF AND DUP3 PUSH1 0x0 PUSH8 0xFFFFFFFFFFFFFFFF DUP2 GT ISZERO PUSH2 0xBE2 JUMPI PUSH2 0xBE1 PUSH2 0x190B JUMP JUMPDEST JUMPDEST PUSH1 0x40 MLOAD SWAP1 DUP1 DUP3 MSTORE DUP1 PUSH1 0x1F ADD PUSH1 0x1F NOT AND PUSH1 0x20 ADD DUP3 ADD PUSH1 0x40 MSTORE DUP1 ISZERO PUSH2 0xC14 JUMPI DUP2 PUSH1 0x20 ADD PUSH1 0x1 DUP3 MUL DUP1 CALLDATASIZE DUP4 CALLDATACOPY DUP1 DUP3 ADD SWAP2 POP POP SWAP1 POP JUMPDEST POP PUSH1 0x40 MLOAD PUSH2 0xC22 SWAP2 SWAP1 PUSH2 0x19AB JUMP JUMPDEST PUSH1 0x0 PUSH1 0x40 MLOAD DUP1 DUP4 SUB DUP2 DUP6 DUP8 GAS CALL SWAP3 POP POP POP RETURNDATASIZE DUP1 PUSH1 0x0 DUP2 EQ PUSH2 0xC5F JUMPI PUSH1 0x40 MLOAD SWAP2 POP PUSH1 0x1F NOT PUSH1 0x3F RETURNDATASIZE ADD AND DUP3 ADD PUSH1 0x40 MSTORE RETURNDATASIZE DUP3 MSTORE RETURNDATASIZE PUSH1 0x0 PUSH1 0x20 DUP5 ADD RETURNDATACOPY PUSH2 0xC64 JUMP JUMPDEST PUSH1 0x60 SWAP2 POP JUMPDEST POP POP SWAP1 POP DUP1 PUSH2 0xCA8 JUMPI PUSH1 0x40 MLOAD PUSH32 0x8C379A000000000000000000000000000000000000000000000000000000000 DUP2 MSTORE PUSH1 0x4 ADD PUSH2 0xC9F SWAP1 PUSH2 0x1A34 JUMP JUMPDEST PUSH1 0x40 MLOAD DUP1 SWAP2 SUB SWAP1 REVERT JUMPDEST POP POP POP JUMP JUMPDEST PUSH2 0xCB7 DUP3 DUP3 PUSH2 0x6BA JUMP JUMPDEST PUSH2 0xD89 JUMPI PUSH1 0x1 PUSH1 0x0 DUP1 DUP5 DUP2 MSTORE PUSH1 0x20 ADD SWAP1 DUP2 MSTORE PUSH1 0x20 ADD PUSH1 0x0 KECCAK256 PUSH1 0x0 ADD PUSH1 0x0 DUP4 PUSH20 0xFFFFFFFFFFFFFFFFFFFFFFFFFFFFFFFFFFFFFFFF AND PUSH20 0xFFFFFFFFFFFFFFFFFFFFFFFFFFFFFFFFFFFFFFFF AND DUP2 MSTORE PUSH1 0x20 ADD SWAP1 DUP2 MSTORE PUSH1 0x20 ADD PUSH1 0x0 KECCAK256 PUSH1 0x0 PUSH2 0x100 EXP DUP2 SLOAD DUP2 PUSH1 0xFF MUL NOT AND SWAP1 DUP4 ISZERO ISZERO MUL OR SWAP1 SSTORE POP PUSH2 0xD2E PUSH2 0x423 JUMP JUMPDEST PUSH20 0xFFFFFFFFFFFFFFFFFFFFFFFFFFFFFFFFFFFFFFFF AND DUP2 PUSH20 0xFFFFFFFFFFFFFFFFFFFFFFFFFFFFFFFFFFFFFFFF AND DUP4 PUSH32 0x2F8788117E7EFF1D82E926EC794901D17C78024A50270940304540A733656F0D PUSH1 0x40 MLOAD PUSH1 0x40 MLOAD DUP1 SWAP2 SUB SWAP1 LOG4 JUMPDEST POP POP JUMP JUMPDEST PUSH2 0xD97 DUP3 DUP3 PUSH2 0x6BA JUMP JUMPDEST ISZERO PUSH2 0xE6A JUMPI PUSH1 0x0 DUP1 PUSH1 0x0 DUP5 DUP2 MSTORE PUSH1 0x20 ADD SWAP1 DUP2 MSTORE PUSH1 0x20 ADD PUSH1 0x0 KECCAK256 PUSH1 0x0 ADD PUSH1 0x0 DUP4 PUSH20 0xFFFFFFFFFFFFFFFFFFFFFFFFFFFFFFFFFFFFFFFF AND PUSH20 0xFFFFFFFFFFFFFFFFFFFFFFFFFFFFFFFFFFFFFFFF AND DUP2 MSTORE PUSH1 0x20 ADD SWAP1 DUP2 MSTORE PUSH1 0x20 ADD PUSH1 0x0 KECCAK256 PUSH1 0x0 PUSH2 0x100 EXP DUP2 SLOAD DUP2 PUSH1 0xFF MUL NOT AND SWAP1 DUP4 ISZERO ISZERO MUL OR SWAP1 SSTORE POP PUSH2 0xE0F PUSH2 0x423 JUMP JUMPDEST PUSH20 0xFFFFFFFFFFFFFFFFFFFFFFFFFFFFFFFFFFFFFFFF AND DUP2 PUSH20 0xFFFFFFFFFFFFFFFFFFFFFFFFFFFFFFFFFFFFFFFF AND DUP4 PUSH32 0xF6391F5C32D9C69D2A47EA670B442974B53935D1EDC7FD64EB21E047A839171B PUSH1 0x40 MLOAD PUSH1 0x40 MLOAD DUP1 SWAP2 SUB SWAP1 LOG4 JUMPDEST POP POP JUMP JUMPDEST PUSH1 0x0 DUP4 PUSH20 0xFFFFFFFFFFFFFFFFFFFFFFFFFFFFFFFFFFFFFFFF AND PUSH4 0xE6A43905 DUP5 DUP5 PUSH1 0x40 MLOAD DUP4 PUSH4 0xFFFFFFFF AND PUSH1 0xE0 SHL DUP2 MSTORE PUSH1 0x4 ADD PUSH2 0xEAB SWAP3 SWAP2 SWAP1 PUSH2 0x1A54 JUMP JUMPDEST PUSH1 0x20 PUSH1 0x40 MLOAD DUP1 DUP4 SUB DUP2 DUP7 GAS STATICCALL ISZERO DUP1 ISZERO PUSH2 0xEC8 JUMPI RETURNDATASIZE PUSH1 0x0 DUP1 RETURNDATACOPY RETURNDATASIZE PUSH1 0x0 REVERT JUMPDEST POP POP POP POP PUSH1 0x40 MLOAD RETURNDATASIZE PUSH1 0x1F NOT PUSH1 0x1F DUP3 ADD AND DUP3 ADD DUP1 PUSH1 0x40 MSTORE POP DUP2 ADD SWAP1 PUSH2 0xEEC SWAP2 SWAP1 PUSH2 0x1809 JUMP JUMPDEST SWAP1 POP SWAP4 SWAP3 POP POP POP JUMP JUMPDEST PUSH2 0xEFF DUP3 DUP3 PUSH2 0x6BA JUMP JUMPDEST PUSH2 0xF76 JUMPI PUSH2 0xF0C DUP2 PUSH2 0xF7A JUMP JUMPDEST PUSH2 0xF1A DUP4 PUSH1 0x0 SHR PUSH1 0x20 PUSH2 0xFA7 JUMP JUMPDEST PUSH1 0x40 MLOAD PUSH1 0x20 ADD PUSH2 0xF2B SWAP3 SWAP2 SWAP1 PUSH2 0x1B51 JUMP JUMPDEST PUSH1 0x40 MLOAD PUSH1 0x20 DUP2 DUP4 SUB SUB DUP2 MSTORE SWAP1 PUSH1 0x40 MSTORE PUSH1 0x40 MLOAD PUSH32 0x8C379A000000000000000000000000000000000000000000000000000000000 DUP2 MSTORE PUSH1 0x4 ADD PUSH2 0xF6D SWAP2 SWAP1 PUSH2 0x1BD5 JUMP JUMPDEST PUSH1 0x40 MLOAD DUP1 SWAP2 SUB SWAP1 REVERT JUMPDEST POP POP JUMP JUMPDEST PUSH1 0x60 PUSH2 0xFA0 DUP3 PUSH20 0xFFFFFFFFFFFFFFFFFFFFFFFFFFFFFFFFFFFFFFFF AND PUSH1 0x14 PUSH1 0xFF AND PUSH2 0xFA7 JUMP JUMPDEST SWAP1 POP SWAP2 SWAP1 POP JUMP JUMPDEST PUSH1 0x60 PUSH1 0x0 PUSH1 0x2 DUP4 PUSH1 0x2 PUSH2 0xFBA SWAP2 SWAP1 PUSH2 0x1545 JUMP JUMPDEST PUSH2 0xFC4 SWAP2 SWAP1 PUSH2 0x1BF7 JUMP JUMPDEST PUSH8 0xFFFFFFFFFFFFFFFF DUP2 GT ISZERO PUSH2 0xFDD JUMPI PUSH2 0xFDC PUSH2 0x190B JUMP JUMPDEST JUMPDEST PUSH1 0x40 MLOAD SWAP1 DUP1 DUP3 MSTORE DUP1 PUSH1 0x1F ADD PUSH1 0x1F NOT AND PUSH1 0x20 ADD DUP3 ADD PUSH1 0x40 MSTORE DUP1 ISZERO PUSH2 0x100F JUMPI DUP2 PUSH1 0x20 ADD PUSH1 0x1 DUP3 MUL DUP1 CALLDATASIZE DUP4 CALLDATACOPY DUP1 DUP3 ADD SWAP2 POP POP SWAP1 POP JUMPDEST POP SWAP1 POP PUSH32 0x3000000000000000000000000000000000000000000000000000000000000000 DUP2 PUSH1 0x0 DUP2 MLOAD DUP2 LT PUSH2 0x1047 JUMPI PUSH2 0x1046 PUSH2 0x1C2B JUMP JUMPDEST JUMPDEST PUSH1 0x20 ADD ADD SWAP1 PUSH31 0xFFFFFFFFFFFFFFFFFFFFFFFFFFFFFFFFFFFFFFFFFFFFFFFFFFFFFFFFFFFFFF NOT AND SWAP1 DUP2 PUSH1 0x0 BYTE SWAP1 MSTORE8 POP PUSH32 0x7800000000000000000000000000000000000000000000000000000000000000 DUP2 PUSH1 0x1 DUP2 MLOAD DUP2 LT PUSH2 0x10AB JUMPI PUSH2 0x10AA PUSH2 0x1C2B JUMP JUMPDEST JUMPDEST PUSH1 0x20 ADD ADD SWAP1 PUSH31 0xFFFFFFFFFFFFFFFFFFFFFFFFFFFFFFFFFFFFFFFFFFFFFFFFFFFFFFFFFFFFFF NOT AND SWAP1 DUP2 PUSH1 0x0 BYTE SWAP1 MSTORE8 POP PUSH1 0x0 PUSH1 0x1 DUP5 PUSH1 0x2 PUSH2 0x10EB SWAP2 SWAP1 PUSH2 0x1545 JUMP JUMPDEST PUSH2 0x10F5 SWAP2 SWAP1 PUSH2 0x1BF7 JUMP JUMPDEST SWAP1 POP JUMPDEST PUSH1 0x1 DUP2 GT ISZERO PUSH2 0x1195 JUMPI PUSH32 0x3031323334353637383961626364656600000000000000000000000000000000 PUSH1 0xF DUP7 AND PUSH1 0x10 DUP2 LT PUSH2 0x1137 JUMPI PUSH2 0x1136 PUSH2 0x1C2B JUMP JUMPDEST JUMPDEST BYTE PUSH1 0xF8 SHL DUP3 DUP3 DUP2 MLOAD DUP2 LT PUSH2 0x114E JUMPI PUSH2 0x114D PUSH2 0x1C2B JUMP JUMPDEST JUMPDEST PUSH1 0x20 ADD ADD SWAP1 PUSH31 0xFFFFFFFFFFFFFFFFFFFFFFFFFFFFFFFFFFFFFFFFFFFFFFFFFFFFFFFFFFFFFF NOT AND SWAP1 DUP2 PUSH1 0x0 BYTE SWAP1 MSTORE8 POP PUSH1 0x4 DUP6 SWAP1 SHR SWAP5 POP DUP1 PUSH2 0x118E SWAP1 PUSH2 0x1C5A JUMP JUMPDEST SWAP1 POP PUSH2 0x10F8 JUMP JUMPDEST POP PUSH1 0x0 DUP5 EQ PUSH2 0x11D9 JUMPI PUSH1 0x40 MLOAD PUSH32 0x8C379A000000000000000000000000000000000000000000000000000000000 DUP2 MSTORE PUSH1 0x4 ADD PUSH2 0x11D0 SWAP1 PUSH2 0x1CCF JUMP JUMPDEST PUSH1 0x40 MLOAD DUP1 SWAP2 SUB SWAP1 REVERT JUMPDEST DUP1 SWAP2 POP POP SWAP3 SWAP2 POP POP JUMP JUMPDEST PUSH1 0x0 PUSH20 0xFFFFFFFFFFFFFFFFFFFFFFFFFFFFFFFFFFFFFFFF DUP3 AND SWAP1 POP SWAP2 SWAP1 POP JUMP JUMPDEST PUSH1 0x0 PUSH2 0x120E DUP3 PUSH2 0x11E3 JUMP JUMPDEST SWAP1 POP SWAP2 SWAP1 POP JUMP JUMPDEST PUSH2 0x121E DUP2 PUSH2 0x1203 JUMP JUMPDEST DUP3 MSTORE POP POP JUMP JUMPDEST PUSH1 0x0 DUP2 SWAP1 POP SWAP2 SWAP1 POP JUMP JUMPDEST PUSH2 0x1237 DUP2 PUSH2 0x1224 JUMP JUMPDEST DUP3 MSTORE POP POP JUMP JUMPDEST PUSH1 0x0 PUSH1 0x80 DUP3 ADD SWAP1 POP PUSH2 0x1252 PUSH1 0x0 DUP4 ADD DUP8 PUSH2 0x1215 JUMP JUMPDEST PUSH2 0x125F PUSH1 0x20 DUP4 ADD DUP7 PUSH2 0x122E JUMP JUMPDEST PUSH2 0x126C PUSH1 0x40 DUP4 ADD DUP6 PUSH2 0x122E JUMP JUMPDEST PUSH2 0x1279 PUSH1 0x60 DUP4 ADD DUP5 PUSH2 0x122E JUMP JUMPDEST SWAP6 SWAP5 POP POP POP POP POP JUMP JUMPDEST PUSH1 0x0 DUP1 REVERT JUMPDEST PUSH1 0x0 PUSH32 0xFFFFFFFF00000000000000000000000000000000000000000000000000000000 DUP3 AND SWAP1 POP SWAP2 SWAP1 POP JUMP JUMPDEST PUSH2 0x12BC DUP2 PUSH2 0x1287 JUMP JUMPDEST DUP2 EQ PUSH2 0x12C7 JUMPI PUSH1 0x0 DUP1 REVERT JUMPDEST POP JUMP JUMPDEST PUSH1 0x0 DUP2 CALLDATALOAD SWAP1 POP PUSH2 0x12D9 DUP2 PUSH2 0x12B3 JUMP JUMPDEST SWAP3 SWAP2 POP POP JUMP JUMPDEST PUSH1 0x0 PUSH1 0x20 DUP3 DUP5 SUB SLT ISZERO PUSH2 0x12F5 JUMPI PUSH2 0x12F4 PUSH2 0x1282 JUMP JUMPDEST JUMPDEST PUSH1 0x0 PUSH2 0x1303 DUP5 DUP3 DUP6 ADD PUSH2 0x12CA JUMP JUMPDEST SWAP2 POP POP SWAP3 SWAP2 POP POP JUMP JUMPDEST PUSH1 0x0 DUP2 ISZERO ISZERO SWAP1 POP SWAP2 SWAP1 POP JUMP JUMPDEST PUSH2 0x1321 DUP2 PUSH2 0x130C JUMP JUMPDEST DUP3 MSTORE POP POP JUMP JUMPDEST PUSH1 0x0 PUSH1 0x20 DUP3 ADD SWAP1 POP PUSH2 0x133C PUSH1 0x0 DUP4 ADD DUP5 PUSH2 0x1318 JUMP JUMPDEST SWAP3 SWAP2 POP POP JUMP JUMPDEST PUSH1 0x0 DUP2 SWAP1 POP SWAP2 SWAP1 POP JUMP JUMPDEST PUSH2 0x1355 DUP2 PUSH2 0x1342 JUMP JUMPDEST DUP2 EQ PUSH2 0x1360 JUMPI PUSH1 0x0 DUP1 REVERT JUMPDEST POP JUMP JUMPDEST PUSH1 0x0 DUP2 CALLDATALOAD SWAP1 POP PUSH2 0x1372 DUP2 PUSH2 0x134C JUMP JUMPDEST SWAP3 SWAP2 POP POP JUMP JUMPDEST PUSH1 0x0 PUSH1 0x20 DUP3 DUP5 SUB SLT ISZERO PUSH2 0x138E JUMPI PUSH2 0x138D PUSH2 0x1282 JUMP JUMPDEST JUMPDEST PUSH1 0x0 PUSH2 0x139C DUP5 DUP3 DUP6 ADD PUSH2 0x1363 JUMP JUMPDEST SWAP2 POP POP SWAP3 SWAP2 POP POP JUMP JUMPDEST PUSH2 0x13AE DUP2 PUSH2 0x1342 JUMP JUMPDEST DUP3 MSTORE POP POP JUMP JUMPDEST PUSH1 0x0 PUSH1 0x20 DUP3 ADD SWAP1 POP PUSH2 0x13C9 PUSH1 0x0 DUP4 ADD DUP5 PUSH2 0x13A5 JUMP JUMPDEST SWAP3 SWAP2 POP POP JUMP JUMPDEST PUSH2 0x13D8 DUP2 PUSH2 0x1224 JUMP JUMPDEST DUP2 EQ PUSH2 0x13E3 JUMPI PUSH1 0x0 DUP1 REVERT JUMPDEST POP JUMP JUMPDEST PUSH1 0x0 DUP2 CALLDATALOAD SWAP1 POP PUSH2 0x13F5 DUP2 PUSH2 0x13CF JUMP JUMPDEST SWAP3 SWAP2 POP POP JUMP JUMPDEST PUSH1 0x0 PUSH1 0x20 DUP3 DUP5 SUB SLT ISZERO PUSH2 0x1411 JUMPI PUSH2 0x1410 PUSH2 0x1282 JUMP JUMPDEST JUMPDEST PUSH1 0x0 PUSH2 0x141F DUP5 DUP3 DUP6 ADD PUSH2 0x13E6 JUMP JUMPDEST SWAP2 POP POP SWAP3 SWAP2 POP POP JUMP JUMPDEST PUSH2 0x1431 DUP2 PUSH2 0x1203 JUMP JUMPDEST DUP2 EQ PUSH2 0x143C JUMPI PUSH1 0x0 DUP1 REVERT JUMPDEST POP JUMP JUMPDEST PUSH1 0x0 DUP2 CALLDATALOAD SWAP1 POP PUSH2 0x144E DUP2 PUSH2 0x1428 JUMP JUMPDEST SWAP3 SWAP2 POP POP JUMP JUMPDEST PUSH1 0x0 DUP1 PUSH1 0x40 DUP4 DUP6 SUB SLT ISZERO PUSH2 0x146B JUMPI PUSH2 0x146A PUSH2 0x1282 JUMP JUMPDEST JUMPDEST PUSH1 0x0 PUSH2 0x1479 DUP6 DUP3 DUP7 ADD PUSH2 0x1363 JUMP JUMPDEST SWAP3 POP POP PUSH1 0x20 PUSH2 0x148A DUP6 DUP3 DUP7 ADD PUSH2 0x143F JUMP JUMPDEST SWAP2 POP POP SWAP3 POP SWAP3 SWAP1 POP JUMP JUMPDEST PUSH1 0x0 PUSH1 0x20 DUP3 ADD SWAP1 POP PUSH2 0x14A9 PUSH1 0x0 DUP4 ADD DUP5 PUSH2 0x1215 JUMP JUMPDEST SWAP3 SWAP2 POP POP JUMP JUMPDEST PUSH1 0x0 DUP1 PUSH1 0x0 DUP1 PUSH1 0x80 DUP6 DUP8 SUB SLT ISZERO PUSH2 0x14C9 JUMPI PUSH2 0x14C8 PUSH2 0x1282 JUMP JUMPDEST JUMPDEST PUSH1 0x0 PUSH2 0x14D7 DUP8 DUP3 DUP9 ADD PUSH2 0x143F JUMP JUMPDEST SWAP5 POP POP PUSH1 0x20 PUSH2 0x14E8 DUP8 DUP3 DUP9 ADD PUSH2 0x143F JUMP JUMPDEST SWAP4 POP POP PUSH1 0x40 PUSH2 0x14F9 DUP8 DUP3 DUP9 ADD PUSH2 0x143F JUMP JUMPDEST SWAP3 POP POP PUSH1 0x60 PUSH2 0x150A DUP8 DUP3 DUP9 ADD PUSH2 0x143F JUMP JUMPDEST SWAP2 POP POP SWAP3 SWAP6 SWAP2 SWAP5 POP SWAP3 POP JUMP JUMPDEST PUSH32 0x4E487B7100000000000000000000000000000000000000000000000000000000 PUSH1 0x0 MSTORE PUSH1 0x11 PUSH1 0x4 MSTORE PUSH1 0x24 PUSH1 0x0 REVERT JUMPDEST PUSH1 0x0 PUSH2 0x1550 DUP3 PUSH2 0x1224 JUMP JUMPDEST SWAP2 POP PUSH2 0x155B DUP4 PUSH2 0x1224 JUMP JUMPDEST SWAP3 POP DUP3 DUP3 MUL PUSH2 0x1569 DUP2 PUSH2 0x1224 JUMP JUMPDEST SWAP2 POP DUP3 DUP3 DIV DUP5 EQ DUP4 ISZERO OR PUSH2 0x1580 JUMPI PUSH2 0x157F PUSH2 0x1516 JUMP JUMPDEST JUMPDEST POP SWAP3 SWAP2 POP POP JUMP JUMPDEST PUSH32 0x4E487B7100000000000000000000000000000000000000000000000000000000 PUSH1 0x0 MSTORE PUSH1 0x12 PUSH1 0x4 MSTORE PUSH1 0x24 PUSH1 0x0 REVERT JUMPDEST PUSH1 0x0 PUSH2 0x15C1 DUP3 PUSH2 0x1224 JUMP JUMPDEST SWAP2 POP PUSH2 0x15CC DUP4 PUSH2 0x1224 JUMP JUMPDEST SWAP3 POP DUP3 PUSH2 0x15DC JUMPI PUSH2 0x15DB PUSH2 0x1587 JUMP JUMPDEST JUMPDEST DUP3 DUP3 DIV SWAP1 POP SWAP3 SWAP2 POP POP JUMP JUMPDEST PUSH1 0x0 DUP2 SWAP1 POP SWAP3 SWAP2 POP POP JUMP JUMPDEST PUSH32 0x43616C6C65720000000000000000000000000000000000000000000000000000 PUSH1 0x0 DUP3 ADD MSTORE POP JUMP JUMPDEST PUSH1 0x0 PUSH2 0x1628 PUSH1 0x6 DUP4 PUSH2 0x15E7 JUMP JUMPDEST SWAP2 POP PUSH2 0x1633 DUP3 PUSH2 0x15F2 JUMP JUMPDEST PUSH1 0x6 DUP3 ADD SWAP1 POP SWAP2 SWAP1 POP JUMP JUMPDEST PUSH1 0x0 PUSH2 0x1649 DUP3 PUSH2 0x161B JUMP JUMPDEST SWAP2 POP DUP2 SWAP1 POP SWAP2 SWAP1 POP JUMP JUMPDEST PUSH1 0x0 DUP3 DUP3 MSTORE PUSH1 0x20 DUP3 ADD SWAP1 POP SWAP3 SWAP2 POP POP JUMP JUMPDEST PUSH32 0x416363657373436F6E74726F6C3A2063616E206F6E6C792072656E6F756E6365 PUSH1 0x0 DUP3 ADD MSTORE PUSH32 0x20726F6C657320666F722073656C660000000000000000000000000000000000 PUSH1 0x20 DUP3 ADD MSTORE POP JUMP JUMPDEST PUSH1 0x0 PUSH2 0x16C0 PUSH1 0x2F DUP4 PUSH2 0x1653 JUMP JUMPDEST SWAP2 POP PUSH2 0x16CB DUP3 PUSH2 0x1664 JUMP JUMPDEST PUSH1 0x40 DUP3 ADD SWAP1 POP SWAP2 SWAP1 POP JUMP JUMPDEST PUSH1 0x0 PUSH1 0x20 DUP3 ADD SWAP1 POP DUP2 DUP2 SUB PUSH1 0x0 DUP4 ADD MSTORE PUSH2 0x16EF DUP2 PUSH2 0x16B3 JUMP JUMPDEST SWAP1 POP SWAP2 SWAP1 POP JUMP JUMPDEST PUSH32 0x526573657276653A2063616C6C6572206973206E6F742074686520696E697469 PUSH1 0x0 DUP3 ADD MSTORE PUSH32 0x616C697A65720000000000000000000000000000000000000000000000000000 PUSH1 0x20 DUP3 ADD MSTORE POP JUMP JUMPDEST PUSH1 0x0 PUSH2 0x1752 PUSH1 0x26 DUP4 PUSH2 0x1653 JUMP JUMPDEST SWAP2 POP PUSH2 0x175D DUP3 PUSH2 0x16F6 JUMP JUMPDEST PUSH1 0x40 DUP3 ADD SWAP1 POP SWAP2 SWAP1 POP JUMP JUMPDEST PUSH1 0x0 PUSH1 0x20 DUP3 ADD SWAP1 POP DUP2 DUP2 SUB PUSH1 0x0 DUP4 ADD MSTORE PUSH2 0x1781 DUP2 PUSH2 0x1745 JUMP JUMPDEST SWAP1 POP SWAP2 SWAP1 POP JUMP JUMPDEST PUSH32 0x526573657276653A20696E76616C696420436F6E74726F6C2061646472657373 PUSH1 0x0 DUP3 ADD MSTORE POP JUMP JUMPDEST PUSH1 0x0 PUSH2 0x17BE PUSH1 0x20 DUP4 PUSH2 0x1653 JUMP JUMPDEST SWAP2 POP PUSH2 0x17C9 DUP3 PUSH2 0x1788 JUMP JUMPDEST PUSH1 0x20 DUP3 ADD SWAP1 POP SWAP2 SWAP1 POP JUMP JUMPDEST PUSH1 0x0 PUSH1 0x20 DUP3 ADD SWAP1 POP DUP2 DUP2 SUB PUSH1 0x0 DUP4 ADD MSTORE PUSH2 0x17ED DUP2 PUSH2 0x17B1 JUMP JUMPDEST SWAP1 POP SWAP2 SWAP1 POP JUMP JUMPDEST PUSH1 0x0 DUP2 MLOAD SWAP1 POP PUSH2 0x1803 DUP2 PUSH2 0x1428 JUMP JUMPDEST SWAP3 SWAP2 POP POP JUMP JUMPDEST PUSH1 0x0 PUSH1 0x20 DUP3 DUP5 SUB SLT ISZERO PUSH2 0x181F JUMPI PUSH2 0x181E PUSH2 0x1282 JUMP JUMPDEST JUMPDEST PUSH1 0x0 PUSH2 0x182D DUP5 DUP3 DUP6 ADD PUSH2 0x17F4 JUMP JUMPDEST SWAP2 POP POP SWAP3 SWAP2 POP POP JUMP JUMPDEST PUSH1 0x0 PUSH14 0xFFFFFFFFFFFFFFFFFFFFFFFFFFFF DUP3 AND SWAP1 POP SWAP2 SWAP1 POP JUMP JUMPDEST PUSH2 0x1859 DUP2 PUSH2 0x1836 JUMP JUMPDEST DUP2 EQ PUSH2 0x1864 JUMPI PUSH1 0x0 DUP1 REVERT JUMPDEST POP JUMP JUMPDEST PUSH1 0x0 DUP2 MLOAD SWAP1 POP PUSH2 0x1876 DUP2 PUSH2 0x1850 JUMP JUMPDEST SWAP3 SWAP2 POP POP JUMP JUMPDEST PUSH1 0x0 PUSH4 0xFFFFFFFF DUP3 AND SWAP1 POP SWAP2 SWAP1 POP JUMP JUMPDEST PUSH2 0x1895 DUP2 PUSH2 0x187C JUMP JUMPDEST DUP2 EQ PUSH2 0x18A0 JUMPI PUSH1 0x0 DUP1 REVERT JUMPDEST POP JUMP JUMPDEST PUSH1 0x0 DUP2 MLOAD SWAP1 POP PUSH2 0x18B2 DUP2 PUSH2 0x188C JUMP JUMPDEST SWAP3 SWAP2 POP POP JUMP JUMPDEST PUSH1 0x0 DUP1 PUSH1 0x0 PUSH1 0x60 DUP5 DUP7 SUB SLT ISZERO PUSH2 0x18D1 JUMPI PUSH2 0x18D0 PUSH2 0x1282 JUMP JUMPDEST JUMPDEST PUSH1 0x0 PUSH2 0x18DF DUP7 DUP3 DUP8 ADD PUSH2 0x1867 JUMP JUMPDEST SWAP4 POP POP PUSH1 0x20 PUSH2 0x18F0 DUP7 DUP3 DUP8 ADD PUSH2 0x1867 JUMP JUMPDEST SWAP3 POP POP PUSH1 0x40 PUSH2 0x1901 DUP7 DUP3 DUP8 ADD PUSH2 0x18A3 JUMP JUMPDEST SWAP2 POP POP SWAP3 POP SWAP3 POP SWAP3 JUMP JUMPDEST PUSH32 0x4E487B7100000000000000000000000000000000000000000000000000000000 PUSH1 0x0 MSTORE PUSH1 0x41 PUSH1 0x4 MSTORE PUSH1 0x24 PUSH1 0x0 REVERT JUMPDEST PUSH1 0x0 DUP2 MLOAD SWAP1 POP SWAP2 SWAP1 POP JUMP JUMPDEST PUSH1 0x0 DUP2 SWAP1 POP SWAP3 SWAP2 POP POP JUMP JUMPDEST PUSH1 0x0 JUMPDEST DUP4 DUP2 LT ISZERO PUSH2 0x196E JUMPI DUP1 DUP3 ADD MLOAD DUP2 DUP5 ADD MSTORE PUSH1 0x20 DUP2 ADD SWAP1 POP PUSH2 0x1953 JUMP JUMPDEST PUSH1 0x0 DUP5 DUP5 ADD MSTORE POP POP POP POP JUMP JUMPDEST PUSH1 0x0 PUSH2 0x1985 DUP3 PUSH2 0x193A JUMP JUMPDEST PUSH2 0x198F DUP2 DUP6 PUSH2 0x1945 JUMP JUMPDEST SWAP4 POP PUSH2 0x199F DUP2 DUP6 PUSH1 0x20 DUP7 ADD PUSH2 0x1950 JUMP JUMPDEST DUP1 DUP5 ADD SWAP2 POP POP SWAP3 SWAP2 POP POP JUMP JUMPDEST PUSH1 0x0 PUSH2 0x19B7 DUP3 DUP5 PUSH2 0x197A JUMP JUMPDEST SWAP2 POP DUP2 SWAP1 POP SWAP3 SWAP2 POP POP JUMP JUMPDEST PUSH32 0x536166654554483A3A736166655472616E736665724554483A20455448207472 PUSH1 0x0 DUP3 ADD MSTORE PUSH32 0x616E73666572206661696C656400000000000000000000000000000000000000 PUSH1 0x20 DUP3 ADD MSTORE POP JUMP JUMPDEST PUSH1 0x0 PUSH2 0x1A1E PUSH1 0x2D DUP4 PUSH2 0x1653 JUMP JUMPDEST SWAP2 POP PUSH2 0x1A29 DUP3 PUSH2 0x19C2 JUMP JUMPDEST PUSH1 0x40 DUP3 ADD SWAP1 POP SWAP2 SWAP1 POP JUMP JUMPDEST PUSH1 0x0 PUSH1 0x20 DUP3 ADD SWAP1 POP DUP2 DUP2 SUB PUSH1 0x0 DUP4 ADD MSTORE PUSH2 0x1A4D DUP2 PUSH2 0x1A11 JUMP JUMPDEST SWAP1 POP SWAP2 SWAP1 POP JUMP JUMPDEST PUSH1 0x0 PUSH1 0x40 DUP3 ADD SWAP1 POP PUSH2 0x1A69 PUSH1 0x0 DUP4 ADD DUP6 PUSH2 0x1215 JUMP JUMPDEST PUSH2 0x1A76 PUSH1 0x20 DUP4 ADD DUP5 PUSH2 0x1215 JUMP JUMPDEST SWAP4 SWAP3 POP POP POP JUMP JUMPDEST PUSH32 0x416363657373436F6E74726F6C3A206163636F756E7420000000000000000000 PUSH1 0x0 DUP3 ADD MSTORE POP JUMP JUMPDEST PUSH1 0x0 PUSH2 0x1AB3 PUSH1 0x17 DUP4 PUSH2 0x15E7 JUMP JUMPDEST SWAP2 POP PUSH2 0x1ABE DUP3 PUSH2 0x1A7D JUMP JUMPDEST PUSH1 0x17 DUP3 ADD SWAP1 POP SWAP2 SWAP1 POP JUMP JUMPDEST PUSH1 0x0 DUP2 MLOAD SWAP1 POP SWAP2 SWAP1 POP JUMP JUMPDEST PUSH1 0x0 PUSH2 0x1ADF DUP3 PUSH2 0x1AC9 JUMP JUMPDEST PUSH2 0x1AE9 DUP2 DUP6 PUSH2 0x15E7 JUMP JUMPDEST SWAP4 POP PUSH2 0x1AF9 DUP2 DUP6 PUSH1 0x20 DUP7 ADD PUSH2 0x1950 JUMP JUMPDEST DUP1 DUP5 ADD SWAP2 POP POP SWAP3 SWAP2 POP POP JUMP JUMPDEST PUSH32 0x206973206D697373696E6720726F6C6520000000000000000000000000000000 PUSH1 0x0 DUP3 ADD MSTORE POP JUMP JUMPDEST PUSH1 0x0 PUSH2 0x1B3B PUSH1 0x11 DUP4 PUSH2 0x15E7 JUMP JUMPDEST SWAP2 POP PUSH2 0x1B46 DUP3 PUSH2 0x1B05 JUMP JUMPDEST PUSH1 0x11 DUP3 ADD SWAP1 POP SWAP2 SWAP1 POP JUMP JUMPDEST PUSH1 0x0 PUSH2 0x1B5C DUP3 PUSH2 0x1AA6 JUMP JUMPDEST SWAP2 POP PUSH2 0x1B68 DUP3 DUP6 PUSH2 0x1AD4 JUMP JUMPDEST SWAP2 POP PUSH2 0x1B73 DUP3 PUSH2 0x1B2E JUMP JUMPDEST SWAP2 POP PUSH2 0x1B7F DUP3 DUP5 PUSH2 0x1AD4 JUMP JUMPDEST SWAP2 POP DUP2 SWAP1 POP SWAP4 SWAP3 POP POP POP JUMP JUMPDEST PUSH1 0x0 PUSH1 0x1F NOT PUSH1 0x1F DUP4 ADD AND SWAP1 POP SWAP2 SWAP1 POP JUMP JUMPDEST PUSH1 0x0 PUSH2 0x1BA7 DUP3 PUSH2 0x1AC9 JUMP JUMPDEST PUSH2 0x1BB1 DUP2 DUP6 PUSH2 0x1653 JUMP JUMPDEST SWAP4 POP PUSH2 0x1BC1 DUP2 DUP6 PUSH1 0x20 DUP7 ADD PUSH2 0x1950 JUMP JUMPDEST PUSH2 0x1BCA DUP2 PUSH2 0x1B8B JUMP JUMPDEST DUP5 ADD SWAP2 POP POP SWAP3 SWAP2 POP POP JUMP JUMPDEST PUSH1 0x0 PUSH1 0x20 DUP3 ADD SWAP1 POP DUP2 DUP2 SUB PUSH1 0x0 DUP4 ADD MSTORE PUSH2 0x1BEF DUP2 DUP5 PUSH2 0x1B9C JUMP JUMPDEST SWAP1 POP SWAP3 SWAP2 POP POP JUMP JUMPDEST PUSH1 0x0 PUSH2 0x1C02 DUP3 PUSH2 0x1224 JUMP JUMPDEST SWAP2 POP PUSH2 0x1C0D DUP4 PUSH2 0x1224 JUMP JUMPDEST SWAP3 POP DUP3 DUP3 ADD SWAP1 POP DUP1 DUP3 GT ISZERO PUSH2 0x1C25 JUMPI PUSH2 0x1C24 PUSH2 0x1516 JUMP JUMPDEST JUMPDEST SWAP3 SWAP2 POP POP JUMP JUMPDEST PUSH32 0x4E487B7100000000000000000000000000000000000000000000000000000000 PUSH1 0x0 MSTORE PUSH1 0x32 PUSH1 0x4 MSTORE PUSH1 0x24 PUSH1 0x0 REVERT JUMPDEST PUSH1 0x0 PUSH2 0x1C65 DUP3 PUSH2 0x1224 JUMP JUMPDEST SWAP2 POP PUSH1 0x0 DUP3 SUB PUSH2 0x1C78 JUMPI PUSH2 0x1C77 PUSH2 0x1516 JUMP JUMPDEST JUMPDEST PUSH1 0x1 DUP3 SUB SWAP1 POP SWAP2 SWAP1 POP JUMP JUMPDEST PUSH32 0x537472696E67733A20686578206C656E67746820696E73756666696369656E74 PUSH1 0x0 DUP3 ADD MSTORE POP JUMP JUMPDEST PUSH1 0x0 PUSH2 0x1CB9 PUSH1 0x20 DUP4 PUSH2 0x1653 JUMP JUMPDEST SWAP2 POP PUSH2 0x1CC4 DUP3 PUSH2 0x1C83 JUMP JUMPDEST PUSH1 0x20 DUP3 ADD SWAP1 POP SWAP2 SWAP1 POP JUMP JUMPDEST PUSH1 0x0 PUSH1 0x20 DUP3 ADD SWAP1 POP DUP2 DUP2 SUB PUSH1 0x0 DUP4 ADD MSTORE PUSH2 0x1CE8 DUP2 PUSH2 0x1CAC JUMP JUMPDEST SWAP1 POP SWAP2 SWAP1 POP JUMP INVALID LOG2 PUSH5 0x6970667358 0x22 SLT KECCAK256 0xF PC ADD SELFDESTRUCT 0xE9 SWAP7 0xBC CREATE 0x4A EXTCODEHASH 0xFB 0xC2 0x2D SWAP1 0xE3 SMOD PUSH18 0x361C101FB7D0F47B0B560925EAE31D64736F PUSH13 0x63430008130033000000000000 "
				},
				"gasEstimates": {
					"creation": {
						"codeDepositCost": "1492200",
						"executionCost": "infinite",
						"totalCost": "infinite"
					},
					"external": {
						"CALLER_ROLE()": "745",
						"DEFAULT_ADMIN_ROLE()": "402",
						"USDT()": "2558",
						"WBNB()": "2537",
						"factory()": "2536",
						"getRoleAdmin(bytes32)": "infinite",
						"grantRole(bytes32,address)": "infinite",
						"hasRole(bytes32,address)": "3185",
						"initialize(address,address,address,address)": "infinite",
						"renounceRole(bytes32,address)": "infinite",
						"revokeRole(bytes32,address)": "infinite",
						"supportsInterface(bytes4)": "728",
						"withdraw(uint256)": "infinite"
					}
				},
				"methodIdentifiers": {
					"CALLER_ROLE()": "774237fc",
					"DEFAULT_ADMIN_ROLE()": "a217fddf",
					"USDT()": "c54e44eb",
					"WBNB()": "8dd95002",
					"factory()": "c45a0155",
					"getRoleAdmin(bytes32)": "248a9ca3",
					"grantRole(bytes32,address)": "2f2ff15d",
					"hasRole(bytes32,address)": "91d14854",
					"initialize(address,address,address,address)": "f8c8765e",
					"renounceRole(bytes32,address)": "36568abe",
					"revokeRole(bytes32,address)": "d547741f",
					"supportsInterface(bytes4)": "01ffc9a7",
					"withdraw(uint256)": "2e1a7d4d"
				}
			},
			"storageLayout": {
				"storage": [
					{
						"astId": 2109,
						"contract": "src/Reserve.sol:Reserve",
						"label": "_roles",
						"offset": 0,
						"slot": "0",
						"type": "t_mapping(t_bytes32,t_struct(RoleData)2104_storage)"
					},
					{
						"astId": 17,
						"contract": "src/Reserve.sol:Reserve",
						"label": "WBNB",
						"offset": 0,
						"slot": "1",
						"type": "t_address"
					},
					{
						"astId": 20,
						"contract": "src/Reserve.sol:Reserve",
						"label": "USDT",
						"offset": 0,
						"slot": "2",
						"type": "t_address"
					},
					{
						"astId": 25,
						"contract": "src/Reserve.sol:Reserve",
						"label": "_isInitialized",
						"offset": 20,
						"slot": "2",
						"type": "t_bool"
					},
					{
						"astId": 27,
						"contract": "src/Reserve.sol:Reserve",
						"label": "factory",
						"offset": 0,
						"slot": "3",
						"type": "t_address"
					}
				],
				"types": {
					"t_address": {
						"encoding": "inplace",
						"label": "address",
						"numberOfBytes": "20"
					},
					"t_bool": {
						"encoding": "inplace",
						"label": "bool",
						"numberOfBytes": "1"
					},
					"t_bytes32": {
						"encoding": "inplace",
						"label": "bytes32",
						"numberOfBytes": "32"
					},
					"t_mapping(t_address,t_bool)": {
						"encoding": "mapping",
						"key": "t_address",
						"label": "mapping(address => bool)",
						"numberOfBytes": "32",
						"value": "t_bool"
					},
					"t_mapping(t_bytes32,t_struct(RoleData)2104_storage)": {
						"encoding": "mapping",
						"key": "t_bytes32",
						"label": "mapping(bytes32 => struct AccessControl.RoleData)",
						"numberOfBytes": "32",
						"value": "t_struct(RoleData)2104_storage"
					},
					"t_struct(RoleData)2104_storage": {
						"encoding": "inplace",
						"label": "struct AccessControl.RoleData",
						"members": [
							{
								"astId": 2101,
								"contract": "src/Reserve.sol:Reserve",
								"label": "members",
								"offset": 0,
								"slot": "0",
								"type": "t_mapping(t_address,t_bool)"
							},
							{
								"astId": 2103,
								"contract": "src/Reserve.sol:Reserve",
								"label": "adminRole",
								"offset": 0,
								"slot": "1",
								"type": "t_bytes32"
							}
						],
						"numberOfBytes": "64"
					}
				}
			},
			"userdoc": {
				"kind": "user",
				"methods": {
					"USDT()": {
						"notice": "The address of the relevant stable token."
					},
					"WBNB()": {
						"notice": "The address of the Wrapped BNB token."
					},
					"initialize(address,address,address,address)": {
						"notice": "Initializes external dependencies and state variables."
					},
					"withdraw(uint256)": {
						"notice": "Transfers BNB stored in this contract to the sender. Caller must have the `Caller` role."
					}
				},
				"version": 1
			}
		}
	}
}