{
	"data": {
		"bytecode": {
			"linkReferences": {},
			"object": "60a0604052611518600360006101000a8154816fffffffffffffffffffffffffffffffff02191690836fffffffffffffffffffffffffffffffff160217905550603c600360106101000a8154816fffffffffffffffffffffffffffffffff02191690836fffffffffffffffffffffffffffffffff1602179055506a18d0bf423c03d8de000000600860006101000a8154816fffffffffffffffffffffffffffffffff02191690836fffffffffffffffffffffffffffffffff16021790555069943b1377290cbd800000600860106101000a8154816fffffffffffffffffffffffffffffffff02191690836fffffffffffffffffffffffffffffffff1602179055503480156200010d57600080fd5b506200011e6200015760201b60201c565b73ffffffffffffffffffffffffffffffffffffffff1660808173ffffffffffffffffffffffffffffffffffffffff16815250506200015f565b600033905090565b6080516154e36200017b6000396000610a4501526154e36000f3fe6080604052600436106102085760003560e01c8063774237fc11610118578063bd6f2100116100a0578063ccc574901161006f578063ccc5749014610733578063d547741f1461075e578063e08836dd14610787578063eb91d37e146107b2578063fa646c0f146107dd5761020f565b8063bd6f210014610685578063c45a0155146106b0578063c54e44eb146106db578063cc20b6fe146107065761020f565b80639d2cc436116100e75780639d2cc436146105cd5780639fc5ce2a146105f8578063a217fddf14610602578063a93438561461062d578063bb10b60f1461065a5761020f565b8063774237fc14610511578063881d343a1461053c5780638dd950021461056557806391d14854146105905761020f565b8063397deb7b1161019b5780634d67b5411161016a5780634d67b541146104385780634d831a12146104635780634f6059e71461048e578063598b8f76146104b957806364df6df9146104e65761020f565b8063397deb7b1461038c57806342173873146103b557806346fbad4a146103e0578063472d04471461040d5761020f565b8063248a9ca3116101d7578063248a9ca3146102d257806325404dae1461030f5780632f2ff15d1461033a57806336568abe146103635761020f565b806301ffc9a714610214578063193ed1ec146102515780631b93b7d21461027c5780631d397a8a146102a75761020f565b3661020f57005b600080fd5b34801561022057600080fd5b5061023b60048036038101906102369190613ba6565b610806565b6040516102489190613bee565b60405180910390f35b34801561025d57600080fd5b50610266610880565b6040516102739190613c22565b60405180910390f35b34801561028857600080fd5b50610291610886565b60405161029e9190613c68565b60405180910390f35b3480156102b357600080fd5b506102bc6108a8565b6040516102c99190613c22565b60405180910390f35b3480156102de57600080fd5b506102f960048036038101906102f49190613cb9565b6108ae565b6040516103069190613cf5565b60405180910390f35b34801561031b57600080fd5b506103246108cd565b6040516103319190613d8f565b60405180910390f35b34801561034657600080fd5b50610361600480360381019061035c9190613de8565b6108f3565b005b34801561036f57600080fd5b5061038a60048036038101906103859190613de8565b610914565b005b34801561039857600080fd5b506103b360048036038101906103ae9190613e92565b610997565b005b3480156103c157600080fd5b506103ca6109d6565b6040516103d79190613c68565b60405180910390f35b3480156103ec57600080fd5b506103f56109e2565b60405161040493929190613ee5565b60405180910390f35b34801561041957600080fd5b50610422610a04565b60405161042f9190613f3d565b60405180910390f35b34801561044457600080fd5b5061044d610a2a565b60405161045a9190613c22565b60405180910390f35b34801561046f57600080fd5b50610478610a30565b6040516104859190613bee565b60405180910390f35b34801561049a57600080fd5b506104a3610a43565b6040516104b09190613f67565b60405180910390f35b3480156104c557600080fd5b506104ce610a67565b6040516104dd93929190613ee5565b60405180910390f35b3480156104f257600080fd5b506104fb610b99565b6040516105089190613c22565b60405180910390f35b34801561051d57600080fd5b50610526610b9f565b6040516105339190613cf5565b60405180910390f35b34801561054857600080fd5b50610563600480360381019061055e9190613f82565b610bc7565b005b34801561057157600080fd5b5061057a610c9f565b6040516105879190613f67565b60405180910390f35b34801561059c57600080fd5b506105b760048036038101906105b29190613de8565b610cc5565b6040516105c49190613bee565b60405180910390f35b3480156105d957600080fd5b506105e2610d2f565b6040516105ef9190613fd0565b60405180910390f35b610600610d55565b005b34801561060e57600080fd5b5061061761122f565b6040516106249190613cf5565b60405180910390f35b34801561063957600080fd5b50610642611236565b60405161065193929190613ee5565b60405180910390f35b34801561066657600080fd5b5061066f61124e565b60405161067c9190613c68565b60405180910390f35b34801561069157600080fd5b5061069a611270565b6040516106a79190613c68565b60405180910390f35b3480156106bc57600080fd5b506106c561127c565b6040516106d29190613f67565b60405180910390f35b3480156106e757600080fd5b506106f06112a2565b6040516106fd9190613f67565b60405180910390f35b34801561071257600080fd5b5061071b6112c8565b60405161072a93929190613ee5565b60405180910390f35b34801561073f57600080fd5b506107486112e0565b6040516107559190613cf5565b60405180910390f35b34801561076a57600080fd5b5061078560048036038101906107809190613de8565b611308565b005b34801561079357600080fd5b5061079c611329565b6040516107a9919061400c565b60405180910390f35b3480156107be57600080fd5b506107c761134f565b6040516107d49190613c22565b60405180910390f35b3480156107e957600080fd5b5061080460048036038101906107ff9190614060565b611538565b005b60007f7965db0b000000000000000000000000000000000000000000000000000000007bffffffffffffffffffffffffffffffffffffffffffffffffffffffff1916827bffffffffffffffffffffffffffffffffffffffffffffffffffffffff191614806108795750610878826116af565b5b9050919050565b60135481565b600860009054906101000a90046fffffffffffffffffffffffffffffffff1681565b60125481565b6000806000838152602001908152602001600020600101549050919050565b600960009054906101000a900473ffffffffffffffffffffffffffffffffffffffff1681565b6108fc826108ae565b61090581611719565b61090f838361172d565b505050565b61091c61180d565b73ffffffffffffffffffffffffffffffffffffffff168173ffffffffffffffffffffffffffffffffffffffff1614610989576040517f08c379a000000000000000000000000000000000000000000000000000000000815260040161098090614110565b60405180910390fd5b6109938282611815565b5050565b6040516020016109a690614187565b604051602081830303815290604052805190602001206109c581611719565b6109d08484846118f6565b50505050565b670d99a8cec7e2000081565b6000806000600b600001549250600b600101549150600b600201549050909192565b600160009054906101000a900473ffffffffffffffffffffffffffffffffffffffff1681565b60145481565b601560009054906101000a900460ff1681565b7f000000000000000000000000000000000000000000000000000000000000000081565b6000806000600e600001549250600e600101549150600e600201549050600b600101544211158015610a9d5750600e6001015442115b15610b94576000600360109054906101000a90046fffffffffffffffffffffffffffffffff166fffffffffffffffffffffffffffffffff16600e6000015442610ae691906141cb565b610af0919061422e565b9050600360109054906101000a90046fffffffffffffffffffffffffffffffff166fffffffffffffffffffffffffffffffff1681610b2e919061425f565b600e60000154610b3e91906142a1565b9350600360109054906101000a90046fffffffffffffffffffffffffffffffff166fffffffffffffffffffffffffffffffff1681610b7c919061425f565b600e60010154610b8c91906142a1565b925060009150505b909192565b60115481565b604051602001610bae90614321565b6040516020818303038152906040528051906020012081565b604051602001610bd690614187565b60405160208183030381529060405280519060200120610bf581611719565b811515601560009054906101000a900460ff16151503610c4a576040517f08c379a0000000000000000000000000000000000000000000000000000000008152600401610c41906143a8565b60405180910390fd5b81601560006101000a81548160ff0219169083151502179055507fc12d1bd55ba48a5b61702c0a27059a0e25169708036d5d22a6447228310fc8b682604051610c939190613bee565b60405180910390a15050565b600660009054906101000a900473ffffffffffffffffffffffffffffffffffffffff1681565b600080600084815260200190815260200160002060000160008373ffffffffffffffffffffffffffffffffffffffff1673ffffffffffffffffffffffffffffffffffffffff16815260200190815260200160002060009054906101000a900460ff16905092915050565b600a60009054906101000a900473ffffffffffffffffffffffffffffffffffffffff1681565b60003411610d98576040517f08c379a0000000000000000000000000000000000000000000000000000000008152600401610d8f90614414565b60405180910390fd5b6000600b90506000600e9050600b600001544211610deb576040517f08c379a0000000000000000000000000000000000000000000000000000000008152600401610de2906144a6565b60405180910390fd5b8160010154421115610e32576040517f08c379a0000000000000000000000000000000000000000000000000000000008152600401610e2990614512565b60405180910390fd5b8060010154421115610f45576000600360109054906101000a90046fffffffffffffffffffffffffffffffff166fffffffffffffffffffffffffffffffff16826000015442610e8191906141cb565b610e8b919061422e565b9050600360109054906101000a90046fffffffffffffffffffffffffffffffff166fffffffffffffffffffffffffffffffff1681610ec9919061425f565b826000016000828254610edc91906142a1565b92505081905550600360109054906101000a90046fffffffffffffffffffffffffffffffff166fffffffffffffffffffffffffffffffff1681610f1f919061425f565b826001016000828254610f3291906142a1565b9250508190555060008260020181905550505b6000610fb9600560009054906101000a900473ffffffffffffffffffffffffffffffffffffffff1634600660009054906101000a900473ffffffffffffffffffffffffffffffffffffffff16600760009054906101000a900473ffffffffffffffffffffffffffffffffffffffff16611a7f565b9050808360020154610fcb91906142a1565b600860009054906101000a90046fffffffffffffffffffffffffffffffff166fffffffffffffffffffffffffffffffff16101561103d576040517f08c379a0000000000000000000000000000000000000000000000000000000008152600401611034906145a4565b60405180910390fd5b80826002015461104d91906142a1565b600860109054906101000a90046fffffffffffffffffffffffffffffffff166fffffffffffffffffffffffffffffffff1610156110bf576040517f08c379a00000000000000000000000000000000000000000000000000000000081526004016110b690614636565b60405180910390fd5b808360020160008282546110d391906142a1565b92505081905550808260020160008282546110ee91906142a1565b92505081905550611121600a60009054906101000a900473ffffffffffffffffffffffffffffffffffffffff1634611ab6565b600960009054906101000a900473ffffffffffffffffffffffffffffffffffffffff1673ffffffffffffffffffffffffffffffffffffffff166340c10f1961116761180d565b836040518363ffffffff1660e01b8152600401611185929190614656565b6020604051808303816000875af11580156111a4573d6000803e3d6000fd5b505050506040513d601f19601f820116820180604052508101906111c89190614694565b506111d161180d565b73ffffffffffffffffffffffffffffffffffffffff167f6343a9a1763ac7e5a824acc9788c196ad5cdbe21f87a27857194f0e0568ebb203483670de0b6b3a7640000604051611222939291906146fc565b60405180910390a2505050565b6000801b81565b600b8060000154908060010154908060020154905083565b600860109054906101000a90046fffffffffffffffffffffffffffffffff1681565b670e27c49886e6000081565b600560009054906101000a900473ffffffffffffffffffffffffffffffffffffffff1681565b600760009054906101000a900473ffffffffffffffffffffffffffffffffffffffff1681565b600e8060000154908060010154908060020154905083565b6040516020016112ef90614187565b6040516020818303038152906040528051906020012081565b611311826108ae565b61131a81611719565b6113248383611815565b505050565b600460009054906101000a900473ffffffffffffffffffffffffffffffffffffffff1681565b600080600367ffffffffffffffff81111561136d5761136c614733565b5b60405190808252806020026020018201604052801561139b5781602001602082028036833780820191505090505b509050600960009054906101000a900473ffffffffffffffffffffffffffffffffffffffff16816000815181106113d5576113d4614762565b5b602002602001019073ffffffffffffffffffffffffffffffffffffffff16908173ffffffffffffffffffffffffffffffffffffffff1681525050600660009054906101000a900473ffffffffffffffffffffffffffffffffffffffff168160018151811061144657611445614762565b5b602002602001019073ffffffffffffffffffffffffffffffffffffffff16908173ffffffffffffffffffffffffffffffffffffffff1681525050600760009054906101000a900473ffffffffffffffffffffffffffffffffffffffff16816002815181106114b7576114b6614762565b5b602002602001019073ffffffffffffffffffffffffffffffffffffffff16908173ffffffffffffffffffffffffffffffffffffffff16815250506000670de0b6b3a76400009050600061152d600560009054906101000a900473ffffffffffffffffffffffffffffffffffffffff168385611bb6565b905080935050505090565b60405160200161154790614321565b6040516020818303038152906040528051906020012061156681611719565b600061157061134f565b905060008360ff1614801561159e5750670e27c49886e600006fffffffffffffffffffffffffffffffff1681115b156115b1576115ac81611d7a565b6115ec565b60018360ff161480156115dd5750670d99a8cec7e200006fffffffffffffffffffffffffffffffff1681105b156115eb576115ea612570565b5b5b601560009054906101000a900460ff16156116aa5760008061160c612ef1565b91509150600a60009054906101000a900473ffffffffffffffffffffffffffffffffffffffff1673ffffffffffffffffffffffffffffffffffffffff16632e1a7d4d836040518263ffffffff1660e01b815260040161166b9190613c22565b600060405180830381600087803b15801561168557600080fd5b505af1158015611699573d6000803e3d6000fd5b505050506116a78282612f90565b50505b505050565b60007f01ffc9a7000000000000000000000000000000000000000000000000000000007bffffffffffffffffffffffffffffffffffffffffffffffffffffffff1916827bffffffffffffffffffffffffffffffffffffffffffffffffffffffff1916149050919050565b61172a8161172561180d565b6130dd565b50565b6117378282610cc5565b61180957600160008084815260200190815260200160002060000160008373ffffffffffffffffffffffffffffffffffffffff1673ffffffffffffffffffffffffffffffffffffffff16815260200190815260200160002060006101000a81548160ff0219169083151502179055506117ae61180d565b73ffffffffffffffffffffffffffffffffffffffff168173ffffffffffffffffffffffffffffffffffffffff16837f2f8788117e7eff1d82e926ec794901d17c78024a50270940304540a733656f0d60405160405180910390a45b5050565b600033905090565b61181f8282610cc5565b156118f257600080600084815260200190815260200160002060000160008373ffffffffffffffffffffffffffffffffffffffff1673ffffffffffffffffffffffffffffffffffffffff16815260200190815260200160002060006101000a81548160ff02191690831515021790555061189761180d565b73ffffffffffffffffffffffffffffffffffffffff168173ffffffffffffffffffffffffffffffffffffffff16837ff6391f5c32d9c69d2a47ea670b442974b53935d1edc7fd64eb21e047a839171b60405160405180910390a45b5050565b60008373ffffffffffffffffffffffffffffffffffffffff1663dd62ed3e30856040518363ffffffff1660e01b8152600401611933929190614791565b602060405180830381865afa158015611950573d6000803e3d6000fd5b505050506040513d601f19601f8201168201806040525081019061197491906147e6565b90508180156119a357507fffffffffffffffffffffffffffffffffffffffffffffffffffffffffffffffff8114155b15611a55577fffffffffffffffffffffffffffffffffffffffffffffffffffffffffffffffff811080156119d8575060008114155b15611a1e576000817fffffffffffffffffffffffffffffffffffffffffffffffffffffffffffffffff611a0b91906141cb565b9050611a18858583613162565b50611a50565b60007fffffffffffffffffffffffffffffffffffffffffffffffffffffffffffffffff9050611a4e858583613274565b505b611a79565b81158015611a64575060008114155b15611a78576000611a76858583613274565b505b5b50505050565b6000806000611a8f8786866133c3565b91509150818187611aa0919061425f565b611aaa919061422e565b92505050949350505050565b60008273ffffffffffffffffffffffffffffffffffffffff1682600067ffffffffffffffff811115611aeb57611aea614733565b5b6040519080825280601f01601f191660200182016040528015611b1d5781602001600182028036833780820191505090505b50604051611b2b9190614884565b60006040518083038185875af1925050503d8060008114611b68576040519150601f19603f3d011682016040523d82523d6000602084013e611b6d565b606091505b5050905080611bb1576040517f08c379a0000000000000000000000000000000000000000000000000000000008152600401611ba89061490d565b60405180910390fd5b505050565b6000600282511015611bfd576040517f08c379a0000000000000000000000000000000000000000000000000000000008152600401611bf490614979565b60405180910390fd5b6000825167ffffffffffffffff811115611c1a57611c19614733565b5b604051908082528060200260200182016040528015611c485781602001602082028036833780820191505090505b5090508381600081518110611c6057611c5f614762565b5b60200260200101818152505060005b60018451611c7d91906141cb565b811015611d4757600080611cd288878581518110611c9e57611c9d614762565b5b602002602001015188600187611cb491906142a1565b81518110611cc557611cc4614762565b5b60200260200101516133c3565b915091508181858581518110611ceb57611cea614762565b5b6020026020010151611cfd919061425f565b611d07919061422e565b84600185611d1591906142a1565b81518110611d2657611d25614762565b5b60200260200101818152505050508080611d3f90614999565b915050611c6f565b508060018451611d5791906141cb565b81518110611d6857611d67614762565b5b60200260200101519150509392505050565b67016345785d8a00006011541015611dae57670de0b6b3a764000060116000828254611da691906142a1565b925050819055505b6000611e5b600560009054906101000a900473ffffffffffffffffffffffffffffffffffffffff16600a60009054906101000a900473ffffffffffffffffffffffffffffffffffffffff1673ffffffffffffffffffffffffffffffffffffffff1631600660009054906101000a900473ffffffffffffffffffffffffffffffffffffffff16600760009054906101000a900473ffffffffffffffffffffffffffffffffffffffff16611a7f565b90506000600960009054906101000a900473ffffffffffffffffffffffffffffffffffffffff1673ffffffffffffffffffffffffffffffffffffffff166370a08231611f0e600560009054906101000a900473ffffffffffffffffffffffffffffffffffffffff16600960009054906101000a900473ffffffffffffffffffffffffffffffffffffffff16600660009054906101000a900473ffffffffffffffffffffffffffffffffffffffff16613530565b6040518263ffffffff1660e01b8152600401611f2a9190613f67565b602060405180830381865afa158015611f47573d6000803e3d6000fd5b505050506040513d601f19601f82011682018060405250810190611f6b91906147e6565b905060006f4b3b4ca85a86c47a098a2240000000006004846002670c7d713b49da000088611f9991906141cb565b611fa39190614b14565b611fad919061425f565b611fb7919061425f565b611fc1919061422e565b90506000670de0b6b3a764000060115483611fdc919061425f565b611fe6919061422e565b90506000612710846019611ffa919061425f565b612004919061422e565b905060008183106120155781612017565b825b9050600960009054906101000a900473ffffffffffffffffffffffffffffffffffffffff1673ffffffffffffffffffffffffffffffffffffffff166340c10f1930836040518363ffffffff1660e01b8152600401612076929190614656565b6020604051808303816000875af1158015612095573d6000803e3d6000fd5b505050506040513d601f19601f820116820180604052508101906120b99190614694565b506000600267ffffffffffffffff8111156120d7576120d6614733565b5b6040519080825280602002602001820160405280156121055781602001602082028036833780820191505090505b509050600960009054906101000a900473ffffffffffffffffffffffffffffffffffffffff168160008151811061213f5761213e614762565b5b602002602001019073ffffffffffffffffffffffffffffffffffffffff16908173ffffffffffffffffffffffffffffffffffffffff1681525050600660009054906101000a900473ffffffffffffffffffffffffffffffffffffffff16816001815181106121b0576121af614762565b5b602002602001019073ffffffffffffffffffffffffffffffffffffffff16908173ffffffffffffffffffffffffffffffffffffffff1681525050600060646061600460009054906101000a900473ffffffffffffffffffffffffffffffffffffffff1673ffffffffffffffffffffffffffffffffffffffff1663d06ca61f86866040518363ffffffff1660e01b815260040161224d929190614c1d565b600060405180830381865afa15801561226a573d6000803e3d6000fd5b505050506040513d6000823e3d601f19601f820116820180604052508101906122939190614d77565b600185516122a191906141cb565b815181106122b2576122b1614762565b5b60200260200101516122c4919061425f565b6122ce919061422e565b9050600460009054906101000a900473ffffffffffffffffffffffffffffffffffffffff1673ffffffffffffffffffffffffffffffffffffffff166318cbafe5848385600a60009054906101000a900473ffffffffffffffffffffffffffffffffffffffff1661012c4261234291906142a1565b6040518663ffffffff1660e01b8152600401612362959493929190614dc0565b6000604051808303816000875af1158015612381573d6000803e3d6000fd5b505050506040513d6000823e3d601f19601f820116820180604052508101906123aa9190614d77565b5060008990506123b861134f565b9950612465600560009054906101000a900473ffffffffffffffffffffffffffffffffffffffff16600a60009054906101000a900473ffffffffffffffffffffffffffffffffffffffff1673ffffffffffffffffffffffffffffffffffffffff1631600660009054906101000a900473ffffffffffffffffffffffffffffffffffffffff16600760009054906101000a900473ffffffffffffffffffffffffffffffffffffffff16611a7f565b98506f4b3b4ca85a86c47a098a22400000000060048a6002670c7d713b49da00008e61249191906141cb565b61249b9190614b14565b6124a5919061425f565b6124af919061425f565b6124b9919061422e565b9650600087670de0b6b3a7640000866124d2919061425f565b6124dc919061422e565b905060115481116124fa57806011546124f591906141cb565b6124fd565b60005b6011819055504260138190555061251261180d565b73ffffffffffffffffffffffffffffffffffffffff167fb4c03061fb5b7fed76389d5af8f2e0ddb09f8c70d1333abbb62582835e10accb8c878560405161255b93929190613ee5565b60405180910390a25050505050505050505050565b600061257a61134f565b905067016345785d8a000060125410156125b057670de0b6b3a7640000601260008282546125a891906142a1565b925050819055505b600061265d600560009054906101000a900473ffffffffffffffffffffffffffffffffffffffff16600a60009054906101000a900473ffffffffffffffffffffffffffffffffffffffff1673ffffffffffffffffffffffffffffffffffffffff1631600660009054906101000a900473ffffffffffffffffffffffffffffffffffffffff16600760009054906101000a900473ffffffffffffffffffffffffffffffffffffffff16611a7f565b905060006127de600560009054906101000a900473ffffffffffffffffffffffffffffffffffffffff16600660009054906101000a900473ffffffffffffffffffffffffffffffffffffffff1673ffffffffffffffffffffffffffffffffffffffff166370a08231612736600560009054906101000a900473ffffffffffffffffffffffffffffffffffffffff16600960009054906101000a900473ffffffffffffffffffffffffffffffffffffffff16600660009054906101000a900473ffffffffffffffffffffffffffffffffffffffff16613530565b6040518263ffffffff1660e01b81526004016127529190613f67565b602060405180830381865afa15801561276f573d6000803e3d6000fd5b505050506040513d601f19601f8201168201806040525081019061279391906147e6565b600660009054906101000a900473ffffffffffffffffffffffffffffffffffffffff16600760009054906101000a900473ffffffffffffffffffffffffffffffffffffffff16611a7f565b905060007002f050fe938943acc45f65568000000000600484600261280161134f565b670f43fc2c04ee000061281491906141cb565b61281e9190614b14565b612828919061425f565b612832919061425f565b61283c919061422e565b90506000670de0b6b3a764000060125483612857919061425f565b612861919061422e565b90506000612710846019612875919061425f565b61287f919061422e565b905060008183106128905781612892565b825b90506000612908600560009054906101000a900473ffffffffffffffffffffffffffffffffffffffff1683600760009054906101000a900473ffffffffffffffffffffffffffffffffffffffff16600660009054906101000a900473ffffffffffffffffffffffffffffffffffffffff16611a7f565b9050600a60009054906101000a900473ffffffffffffffffffffffffffffffffffffffff1673ffffffffffffffffffffffffffffffffffffffff16632e1a7d4d826040518263ffffffff1660e01b81526004016129659190613c22565b600060405180830381600087803b15801561297f57600080fd5b505af1158015612993573d6000803e3d6000fd5b505050506000600267ffffffffffffffff8111156129b4576129b3614733565b5b6040519080825280602002602001820160405280156129e25781602001602082028036833780820191505090505b509050600660009054906101000a900473ffffffffffffffffffffffffffffffffffffffff1681600081518110612a1c57612a1b614762565b5b602002602001019073ffffffffffffffffffffffffffffffffffffffff16908173ffffffffffffffffffffffffffffffffffffffff1681525050600960009054906101000a900473ffffffffffffffffffffffffffffffffffffffff1681600181518110612a8d57612a8c614762565b5b602002602001019073ffffffffffffffffffffffffffffffffffffffff16908173ffffffffffffffffffffffffffffffffffffffff1681525050600060646061600460009054906101000a900473ffffffffffffffffffffffffffffffffffffffff1673ffffffffffffffffffffffffffffffffffffffff1663d06ca61f86866040518363ffffffff1660e01b8152600401612b2a929190614c1d565b600060405180830381865afa158015612b47573d6000803e3d6000fd5b505050506040513d6000823e3d601f19601f82011682018060405250810190612b709190614d77565b60018551612b7e91906141cb565b81518110612b8f57612b8e614762565b5b6020026020010151612ba1919061425f565b612bab919061422e565b90506000600460009054906101000a900473ffffffffffffffffffffffffffffffffffffffff1673ffffffffffffffffffffffffffffffffffffffff16637ff36ab58584863061012c42612bff91906142a1565b6040518663ffffffff1660e01b8152600401612c1e9493929190614e1a565b60006040518083038185885af1158015612c3c573d6000803e3d6000fd5b50505050506040513d6000823e3d601f19601f82011682018060405250810190612c669190614d77565b905060008160018551612c7991906141cb565b81518110612c8a57612c89614762565b5b60200260200101519050600960009054906101000a900473ffffffffffffffffffffffffffffffffffffffff1673ffffffffffffffffffffffffffffffffffffffff166342966c68826040518263ffffffff1660e01b8152600401612cef9190613c22565b6020604051808303816000875af1158015612d0e573d6000803e3d6000fd5b505050506040513d601f19601f82011682018060405250810190612d329190614694565b50612dde600560009054906101000a900473ffffffffffffffffffffffffffffffffffffffff16600a60009054906101000a900473ffffffffffffffffffffffffffffffffffffffff1673ffffffffffffffffffffffffffffffffffffffff1631600660009054906101000a900473ffffffffffffffffffffffffffffffffffffffff16600760009054906101000a900473ffffffffffffffffffffffffffffffffffffffff16611a7f565b9a507002f050fe938943acc45f6556800000000060048c6002612dff61134f565b670f43fc2c04ee0000612e1291906141cb565b612e1c9190614b14565b612e26919061425f565b612e30919061425f565b612e3a919061422e565b9850600089670de0b6b3a764000088612e53919061425f565b612e5d919061422e565b90506012548111612e7b5780601254612e7691906141cb565b612e7e565b60005b60128190555042601481905550612e9361180d565b73ffffffffffffffffffffffffffffffffffffffff167fe5b754fb1abb7f01b499791d0b820ae3b6af3424ac1c59768edb53f4ec31a929838f604051612eda929190614e66565b60405180910390a250505050505050505050505050565b600080600160009054906101000a900473ffffffffffffffffffffffffffffffffffffffff1673ffffffffffffffffffffffffffffffffffffffff1663b810c6366040518163ffffffff1660e01b81526004016040805180830381865afa158015612f60573d6000803e3d6000fd5b505050506040513d601f19601f82011682018060405250810190612f849190614ea4565b80925081935050509091565b73eeeeeeeeeeeeeeeeeeeeeeeeeeeeeeeeeeeeeeee73ffffffffffffffffffffffffffffffffffffffff168173ffffffffffffffffffffffffffffffffffffffff16036130ab576000600260009054906101000a900473ffffffffffffffffffffffffffffffffffffffff1673ffffffffffffffffffffffffffffffffffffffff168360405161301f90614f0a565b60006040518083038185875af1925050503d806000811461305c576040519150601f19603f3d011682016040523d82523d6000602084013e613061565b606091505b50509050806130a5576040517f08c379a000000000000000000000000000000000000000000000000000000000815260040161309c90614f6b565b60405180910390fd5b506130d9565b6130d881600260009054906101000a900473ffffffffffffffffffffffffffffffffffffffff16846135b7565b5b5050565b6130e78282610cc5565b61315e576130f48161363d565b6131028360001c602061366a565b60405160200161311392919061505f565b6040516020818303038152906040526040517f08c379a000000000000000000000000000000000000000000000000000000000815260040161315591906150d2565b60405180910390fd5b5050565b6000818473ffffffffffffffffffffffffffffffffffffffff1663dd62ed3e30866040518363ffffffff1660e01b81526004016131a0929190614791565b602060405180830381865afa1580156131bd573d6000803e3d6000fd5b505050506040513d601f19601f820116820180604052508101906131e191906147e6565b6131eb91906142a1565b905061326e8463095ea7b360e01b858460405160240161320c929190614656565b604051602081830303815290604052907bffffffffffffffffffffffffffffffffffffffffffffffffffffffff19166020820180517bffffffffffffffffffffffffffffffffffffffffffffffffffffffff83818316178352505050506138a6565b50505050565b60008114806132fe575060008373ffffffffffffffffffffffffffffffffffffffff1663dd62ed3e30856040518363ffffffff1660e01b81526004016132bb929190614791565b602060405180830381865afa1580156132d8573d6000803e3d6000fd5b505050506040513d601f19601f820116820180604052508101906132fc91906147e6565b145b61333d576040517f08c379a000000000000000000000000000000000000000000000000000000000815260040161333490615166565b60405180910390fd5b6133be8363095ea7b360e01b848460405160240161335c929190614656565b604051602081830303815290604052907bffffffffffffffffffffffffffffffffffffffffffffffffffffffff19166020820180517bffffffffffffffffffffffffffffffffffffffffffffffffffffffff83818316178352505050506138a6565b505050565b60008060006133d3868686613530565b905060008173ffffffffffffffffffffffffffffffffffffffff16630dfe16816040518163ffffffff1660e01b8152600401602060405180830381865afa158015613422573d6000803e3d6000fd5b505050506040513d601f19601f820116820180604052508101906134469190615186565b90506000808373ffffffffffffffffffffffffffffffffffffffff16630902f1ac6040518163ffffffff1660e01b8152600401606060405180830381865afa158015613496573d6000803e3d6000fd5b505050506040513d601f19601f820116820180604052508101906134ba9190615235565b506dffffffffffffffffffffffffffff1691506dffffffffffffffffffffffffffff1691508273ffffffffffffffffffffffffffffffffffffffff168873ffffffffffffffffffffffffffffffffffffffff161461351957808261351c565b81815b809650819750505050505050935093915050565b60008373ffffffffffffffffffffffffffffffffffffffff1663e6a4390584846040518363ffffffff1660e01b815260040161356d929190614791565b602060405180830381865afa15801561358a573d6000803e3d6000fd5b505050506040513d601f19601f820116820180604052508101906135ae9190615186565b90509392505050565b6136388363a9059cbb60e01b84846040516024016135d6929190614656565b604051602081830303815290604052907bffffffffffffffffffffffffffffffffffffffffffffffffffffffff19166020820180517bffffffffffffffffffffffffffffffffffffffffffffffffffffffff83818316178352505050506138a6565b505050565b60606136638273ffffffffffffffffffffffffffffffffffffffff16601460ff1661366a565b9050919050565b60606000600283600261367d919061425f565b61368791906142a1565b67ffffffffffffffff8111156136a05761369f614733565b5b6040519080825280601f01601f1916602001820160405280156136d25781602001600182028036833780820191505090505b5090507f30000000000000000000000000000000000000000000000000000000000000008160008151811061370a57613709614762565b5b60200101907effffffffffffffffffffffffffffffffffffffffffffffffffffffffffffff1916908160001a9053507f78000000000000000000000000000000000000000000000000000000000000008160018151811061376e5761376d614762565b5b60200101907effffffffffffffffffffffffffffffffffffffffffffffffffffffffffffff1916908160001a905350600060018460026137ae919061425f565b6137b891906142a1565b90505b6001811115613858577f3031323334353637383961626364656600000000000000000000000000000000600f8616601081106137fa576137f9614762565b5b1a60f81b82828151811061381157613810614762565b5b60200101907effffffffffffffffffffffffffffffffffffffffffffffffffffffffffffff1916908160001a905350600485901c94508061385190615288565b90506137bb565b506000841461389c576040517f08c379a0000000000000000000000000000000000000000000000000000000008152600401613893906152fd565b60405180910390fd5b8091505092915050565b6000613908826040518060400160405280602081526020017f5361666545524332303a206c6f772d6c6576656c2063616c6c206661696c65648152508573ffffffffffffffffffffffffffffffffffffffff1661396d9092919063ffffffff16565b905060008151111561396857808060200190518101906139289190614694565b613967576040517f08c379a000000000000000000000000000000000000000000000000000000000815260040161395e9061538f565b60405180910390fd5b5b505050565b606061397c8484600085613985565b90509392505050565b6060824710156139ca576040517f08c379a00000000000000000000000000000000000000000000000000000000081526004016139c190615421565b60405180910390fd5b6000808673ffffffffffffffffffffffffffffffffffffffff1685876040516139f39190614884565b60006040518083038185875af1925050503d8060008114613a30576040519150601f19603f3d011682016040523d82523d6000602084013e613a35565b606091505b5091509150613a4687838387613a52565b92505050949350505050565b60608315613ab4576000835103613aac57613a6c85613ac7565b613aab576040517f08c379a0000000000000000000000000000000000000000000000000000000008152600401613aa29061548d565b60405180910390fd5b5b829050613abf565b613abe8383613aea565b5b949350505050565b6000808273ffffffffffffffffffffffffffffffffffffffff163b119050919050565b600082511115613afd5781518083602001fd5b806040517f08c379a0000000000000000000000000000000000000000000000000000000008152600401613b3191906150d2565b60405180910390fd5b6000604051905090565b600080fd5b600080fd5b60007fffffffff0000000000000000000000000000000000000000000000000000000082169050919050565b613b8381613b4e565b8114613b8e57600080fd5b50565b600081359050613ba081613b7a565b92915050565b600060208284031215613bbc57613bbb613b44565b5b6000613bca84828501613b91565b91505092915050565b60008115159050919050565b613be881613bd3565b82525050565b6000602082019050613c036000830184613bdf565b92915050565b6000819050919050565b613c1c81613c09565b82525050565b6000602082019050613c376000830184613c13565b92915050565b60006fffffffffffffffffffffffffffffffff82169050919050565b613c6281613c3d565b82525050565b6000602082019050613c7d6000830184613c59565b92915050565b6000819050919050565b613c9681613c83565b8114613ca157600080fd5b50565b600081359050613cb381613c8d565b92915050565b600060208284031215613ccf57613cce613b44565b5b6000613cdd84828501613ca4565b91505092915050565b613cef81613c83565b82525050565b6000602082019050613d0a6000830184613ce6565b92915050565b600073ffffffffffffffffffffffffffffffffffffffff82169050919050565b6000819050919050565b6000613d55613d50613d4b84613d10565b613d30565b613d10565b9050919050565b6000613d6782613d3a565b9050919050565b6000613d7982613d5c565b9050919050565b613d8981613d6e565b82525050565b6000602082019050613da46000830184613d80565b92915050565b6000613db582613d10565b9050919050565b613dc581613daa565b8114613dd057600080fd5b50565b600081359050613de281613dbc565b92915050565b60008060408385031215613dff57613dfe613b44565b5b6000613e0d85828601613ca4565b9250506020613e1e85828601613dd3565b9150509250929050565b6000613e3382613daa565b9050919050565b613e4381613e28565b8114613e4e57600080fd5b50565b600081359050613e6081613e3a565b92915050565b613e6f81613bd3565b8114613e7a57600080fd5b50565b600081359050613e8c81613e66565b92915050565b600080600060608486031215613eab57613eaa613b44565b5b6000613eb986828701613e51565b9350506020613eca86828701613dd3565b9250506040613edb86828701613e7d565b9150509250925092565b6000606082019050613efa6000830186613c13565b613f076020830185613c13565b613f146040830184613c13565b949350505050565b6000613f2782613d5c565b9050919050565b613f3781613f1c565b82525050565b6000602082019050613f526000830184613f2e565b92915050565b613f6181613daa565b82525050565b6000602082019050613f7c6000830184613f58565b92915050565b600060208284031215613f9857613f97613b44565b5b6000613fa684828501613e7d565b91505092915050565b6000613fba82613d5c565b9050919050565b613fca81613faf565b82525050565b6000602082019050613fe56000830184613fc1565b92915050565b6000613ff682613d5c565b9050919050565b61400681613feb565b82525050565b60006020820190506140216000830184613ffd565b92915050565b600060ff82169050919050565b61403d81614027565b811461404857600080fd5b50565b60008135905061405a81614034565b92915050565b60006020828403121561407657614075613b44565b5b60006140848482850161404b565b91505092915050565b600082825260208201905092915050565b7f416363657373436f6e74726f6c3a2063616e206f6e6c792072656e6f756e636560008201527f20726f6c657320666f722073656c660000000000000000000000000000000000602082015250565b60006140fa602f8361408d565b91506141058261409e565b604082019050919050565b60006020820190508181036000830152614129816140ed565b9050919050565b600081905092915050565b7f476f7665726e6f72000000000000000000000000000000000000000000000000600082015250565b6000614171600883614130565b915061417c8261413b565b600882019050919050565b600061419282614164565b9150819050919050565b7f4e487b7100000000000000000000000000000000000000000000000000000000600052601160045260246000fd5b60006141d682613c09565b91506141e183613c09565b92508282039050818111156141f9576141f861419c565b5b92915050565b7f4e487b7100000000000000000000000000000000000000000000000000000000600052601260045260246000fd5b600061423982613c09565b915061424483613c09565b925082614254576142536141ff565b5b828204905092915050565b600061426a82613c09565b915061427583613c09565b925082820261428381613c09565b9150828204841483151761429a5761429961419c565b5b5092915050565b60006142ac82613c09565b91506142b783613c09565b92508282019050808211156142cf576142ce61419c565b5b92915050565b7f43616c6c65720000000000000000000000000000000000000000000000000000600082015250565b600061430b600683614130565b9150614316826142d5565b600682019050919050565b600061432c826142fe565b9150819050919050565b7f436f6e74726f6c3a204f70735265616479537461746520697320616c7265616460008201527f7920746869732073746174650000000000000000000000000000000000000000602082015250565b6000614392602c8361408d565b915061439d82614336565b604082019050919050565b600060208201905081810360008301526143c181614385565b9050919050565b7f436f6e74726f6c3a20696e73756666696369656e7420424e4220616d6f756e74600082015250565b60006143fe60208361408d565b9150614409826143c8565b602082019050919050565b6000602082019050818103600083015261442d816143f1565b9050919050565b7f436f6e74726f6c3a20696e697469616c206d696e74206e6f742079657420737460008201527f6172746564000000000000000000000000000000000000000000000000000000602082015250565b600061449060258361408d565b915061449b82614434565b604082019050919050565b600060208201905081810360008301526144bf81614483565b9050919050565b7f436f6e74726f6c3a20696e697469616c206d696e7420656e6465640000000000600082015250565b60006144fc601b8361408d565b9150614507826144c6565b602082019050919050565b6000602082019050818103600083015261452b816144ef565b9050919050565b7f436f6e74726f6c3a20696e76616c696420616d6f756e7420636f6e736964657260008201527f696e6720696e697469616c206d696e74206c696d697400000000000000000000602082015250565b600061458e60368361408d565b915061459982614532565b604082019050919050565b600060208201905081810360008301526145bd81614581565b9050919050565b7f436f6e74726f6c3a20696e76616c696420616d6f756e7420636f6e736964657260008201527f696e67206461696c7920696e697469616c206d696e74206c696d697400000000602082015250565b6000614620603c8361408d565b915061462b826145c4565b604082019050919050565b6000602082019050818103600083015261464f81614613565b9050919050565b600060408201905061466b6000830185613f58565b6146786020830184613c13565b9392505050565b60008151905061468e81613e66565b92915050565b6000602082840312156146aa576146a9613b44565b5b60006146b88482850161467f565b91505092915050565b6000819050919050565b60006146e66146e16146dc846146c1565b613d30565b613c09565b9050919050565b6146f6816146cb565b82525050565b60006060820190506147116000830186613c13565b61471e6020830185613c13565b61472b60408301846146ed565b949350505050565b7f4e487b7100000000000000000000000000000000000000000000000000000000600052604160045260246000fd5b7f4e487b7100000000000000000000000000000000000000000000000000000000600052603260045260246000fd5b60006040820190506147a66000830185613f58565b6147b36020830184613f58565b9392505050565b6147c381613c09565b81146147ce57600080fd5b50565b6000815190506147e0816147ba565b92915050565b6000602082840312156147fc576147fb613b44565b5b600061480a848285016147d1565b91505092915050565b600081519050919050565b600081905092915050565b60005b8381101561484757808201518184015260208101905061482c565b60008484015250505050565b600061485e82614813565b614868818561481e565b9350614878818560208601614829565b80840191505092915050565b60006148908284614853565b915081905092915050565b7f536166654554483a3a736166655472616e736665724554483a2045544820747260008201527f616e73666572206661696c656400000000000000000000000000000000000000602082015250565b60006148f7602d8361408d565b91506149028261489b565b604082019050919050565b60006020820190508181036000830152614926816148ea565b9050919050565b7f44617461466574636865723a20494e56414c49445f5041544800000000000000600082015250565b600061496360198361408d565b915061496e8261492d565b602082019050919050565b6000602082019050818103600083015261499281614956565b9050919050565b60006149a482613c09565b91507fffffffffffffffffffffffffffffffffffffffffffffffffffffffffffffffff82036149d6576149d561419c565b5b600182019050919050565b60008160011c9050919050565b6000808291508390505b6001851115614a3857808604811115614a1457614a1361419c565b5b6001851615614a235780820291505b8081029050614a31856149e1565b94506149f8565b94509492505050565b600082614a515760019050614b0d565b81614a5f5760009050614b0d565b8160018114614a755760028114614a7f57614aae565b6001915050614b0d565b60ff841115614a9157614a9061419c565b5b8360020a915084821115614aa857614aa761419c565b5b50614b0d565b5060208310610133831016604e8410600b8410161715614ae35782820a905083811115614ade57614add61419c565b5b614b0d565b614af084848460016149ee565b92509050818404811115614b0757614b0661419c565b5b81810290505b9392505050565b6000614b1f82613c09565b9150614b2a83614027565b9250614b577fffffffffffffffffffffffffffffffffffffffffffffffffffffffffffffffff8484614a41565b905092915050565b600081519050919050565b600082825260208201905092915050565b6000819050602082019050919050565b614b9481613daa565b82525050565b6000614ba68383614b8b565b60208301905092915050565b6000602082019050919050565b6000614bca82614b5f565b614bd48185614b6a565b9350614bdf83614b7b565b8060005b83811015614c10578151614bf78882614b9a565b9750614c0283614bb2565b925050600181019050614be3565b5085935050505092915050565b6000604082019050614c326000830185613c13565b8181036020830152614c448184614bbf565b90509392505050565b600080fd5b6000601f19601f8301169050919050565b614c6c82614c52565b810181811067ffffffffffffffff82111715614c8b57614c8a614733565b5b80604052505050565b6000614c9e613b3a565b9050614caa8282614c63565b919050565b600067ffffffffffffffff821115614cca57614cc9614733565b5b602082029050602081019050919050565b600080fd5b6000614cf3614cee84614caf565b614c94565b90508083825260208201905060208402830185811115614d1657614d15614cdb565b5b835b81811015614d3f5780614d2b88826147d1565b845260208401935050602081019050614d18565b5050509392505050565b600082601f830112614d5e57614d5d614c4d565b5b8151614d6e848260208601614ce0565b91505092915050565b600060208284031215614d8d57614d8c613b44565b5b600082015167ffffffffffffffff811115614dab57614daa613b49565b5b614db784828501614d49565b91505092915050565b600060a082019050614dd56000830188613c13565b614de26020830187613c13565b8181036040830152614df48186614bbf565b9050614e036060830185613f58565b614e106080830184613c13565b9695505050505050565b6000608082019050614e2f6000830187613c13565b8181036020830152614e418186614bbf565b9050614e506040830185613f58565b614e5d6060830184613c13565b95945050505050565b6000604082019050614e7b6000830185613c13565b614e886020830184613c13565b9392505050565b600081519050614e9e81613dbc565b92915050565b60008060408385031215614ebb57614eba613b44565b5b6000614ec9858286016147d1565b9250506020614eda85828601614e8f565b9150509250929050565b50565b6000614ef460008361481e565b9150614eff82614ee4565b600082019050919050565b6000614f1582614ee7565b9150819050919050565b7f4f707352656164793a20455448207472616e73666572206661696c6564000000600082015250565b6000614f55601d8361408d565b9150614f6082614f1f565b602082019050919050565b60006020820190508181036000830152614f8481614f48565b9050919050565b7f416363657373436f6e74726f6c3a206163636f756e7420000000000000000000600082015250565b6000614fc1601783614130565b9150614fcc82614f8b565b601782019050919050565b600081519050919050565b6000614fed82614fd7565b614ff78185614130565b9350615007818560208601614829565b80840191505092915050565b7f206973206d697373696e6720726f6c6520000000000000000000000000000000600082015250565b6000615049601183614130565b915061505482615013565b601182019050919050565b600061506a82614fb4565b91506150768285614fe2565b91506150818261503c565b915061508d8284614fe2565b91508190509392505050565b60006150a482614fd7565b6150ae818561408d565b93506150be818560208601614829565b6150c781614c52565b840191505092915050565b600060208201905081810360008301526150ec8184615099565b905092915050565b7f5361666545524332303a20617070726f76652066726f6d206e6f6e2d7a65726f60008201527f20746f206e6f6e2d7a65726f20616c6c6f77616e636500000000000000000000602082015250565b600061515060368361408d565b915061515b826150f4565b604082019050919050565b6000602082019050818103600083015261517f81615143565b9050919050565b60006020828403121561519c5761519b613b44565b5b60006151aa84828501614e8f565b91505092915050565b60006dffffffffffffffffffffffffffff82169050919050565b6151d6816151b3565b81146151e157600080fd5b50565b6000815190506151f3816151cd565b92915050565b600063ffffffff82169050919050565b615212816151f9565b811461521d57600080fd5b50565b60008151905061522f81615209565b92915050565b60008060006060848603121561524e5761524d613b44565b5b600061525c868287016151e4565b935050602061526d868287016151e4565b925050604061527e86828701615220565b9150509250925092565b600061529382613c09565b9150600082036152a6576152a561419c565b5b600182039050919050565b7f537472696e67733a20686578206c656e67746820696e73756666696369656e74600082015250565b60006152e760208361408d565b91506152f2826152b1565b602082019050919050565b60006020820190508181036000830152615316816152da565b9050919050565b7f5361666545524332303a204552433230206f7065726174696f6e20646964206e60008201527f6f74207375636365656400000000000000000000000000000000000000000000602082015250565b6000615379602a8361408d565b91506153848261531d565b604082019050919050565b600060208201905081810360008301526153a88161536c565b9050919050565b7f416464726573733a20696e73756666696369656e742062616c616e636520666f60008201527f722063616c6c0000000000000000000000000000000000000000000000000000602082015250565b600061540b60268361408d565b9150615416826153af565b604082019050919050565b6000602082019050818103600083015261543a816153fe565b9050919050565b7f416464726573733a2063616c6c20746f206e6f6e2d636f6e7472616374000000600082015250565b6000615477601d8361408d565b915061548282615441565b602082019050919050565b600060208201905081810360008301526154a68161546a565b905091905056fea2646970667358221220dbd49639fdad8d267f0cfbf8da1cac3c5cee369c8da04324f57949b2af52071464736f6c63430008130033",
			"opcodes": "PUSH1 0xA0 PUSH1 0x40 MSTORE PUSH2 0x1518 PUSH1 0x3 PUSH1 0x0 PUSH2 0x100 EXP DUP2 SLOAD DUP2 PUSH16 0xFFFFFFFFFFFFFFFFFFFFFFFFFFFFFFFF MUL NOT AND SWAP1 DUP4 PUSH16 0xFFFFFFFFFFFFFFFFFFFFFFFFFFFFFFFF AND MUL OR SWAP1 SSTORE POP PUSH1 0x3C PUSH1 0x3 PUSH1 0x10 PUSH2 0x100 EXP DUP2 SLOAD DUP2 PUSH16 0xFFFFFFFFFFFFFFFFFFFFFFFFFFFFFFFF MUL NOT AND SWAP1 DUP4 PUSH16 0xFFFFFFFFFFFFFFFFFFFFFFFFFFFFFFFF AND MUL OR SWAP1 SSTORE POP PUSH11 0x18D0BF423C03D8DE000000 PUSH1 0x8 PUSH1 0x0 PUSH2 0x100 EXP DUP2 SLOAD DUP2 PUSH16 0xFFFFFFFFFFFFFFFFFFFFFFFFFFFFFFFF MUL NOT AND SWAP1 DUP4 PUSH16 0xFFFFFFFFFFFFFFFFFFFFFFFFFFFFFFFF AND MUL OR SWAP1 SSTORE POP PUSH10 0x943B1377290CBD800000 PUSH1 0x8 PUSH1 0x10 PUSH2 0x100 EXP DUP2 SLOAD DUP2 PUSH16 0xFFFFFFFFFFFFFFFFFFFFFFFFFFFFFFFF MUL NOT AND SWAP1 DUP4 PUSH16 0xFFFFFFFFFFFFFFFFFFFFFFFFFFFFFFFF AND MUL OR SWAP1 SSTORE POP CALLVALUE DUP1 ISZERO PUSH3 0x10D JUMPI PUSH1 0x0 DUP1 REVERT JUMPDEST POP PUSH3 0x11E PUSH3 0x157 PUSH1 0x20 SHL PUSH1 0x20 SHR JUMP JUMPDEST PUSH20 0xFFFFFFFFFFFFFFFFFFFFFFFFFFFFFFFFFFFFFFFF AND PUSH1 0x80 DUP2 PUSH20 0xFFFFFFFFFFFFFFFFFFFFFFFFFFFFFFFFFFFFFFFF AND DUP2 MSTORE POP POP PUSH3 0x15F JUMP JUMPDEST PUSH1 0x0 CALLER SWAP1 POP SWAP1 JUMP JUMPDEST PUSH1 0x80 MLOAD PUSH2 0x54E3 PUSH3 0x17B PUSH1 0x0 CODECOPY PUSH1 0x0 PUSH2 0xA45 ADD MSTORE PUSH2 0x54E3 PUSH1 0x0 RETURN INVALID PUSH1 0x80 PUSH1 0x40 MSTORE PUSH1 0x4 CALLDATASIZE LT PUSH2 0x208 JUMPI PUSH1 0x0 CALLDATALOAD PUSH1 0xE0 SHR DUP1 PUSH4 0x774237FC GT PUSH2 0x118 JUMPI DUP1 PUSH4 0xBD6F2100 GT PUSH2 0xA0 JUMPI DUP1 PUSH4 0xCCC57490 GT PUSH2 0x6F JUMPI DUP1 PUSH4 0xCCC57490 EQ PUSH2 0x733 JUMPI DUP1 PUSH4 0xD547741F EQ PUSH2 0x75E JUMPI DUP1 PUSH4 0xE08836DD EQ PUSH2 0x787 JUMPI DUP1 PUSH4 0xEB91D37E EQ PUSH2 0x7B2 JUMPI DUP1 PUSH4 0xFA646C0F EQ PUSH2 0x7DD JUMPI PUSH2 0x20F JUMP JUMPDEST DUP1 PUSH4 0xBD6F2100 EQ PUSH2 0x685 JUMPI DUP1 PUSH4 0xC45A0155 EQ PUSH2 0x6B0 JUMPI DUP1 PUSH4 0xC54E44EB EQ PUSH2 0x6DB JUMPI DUP1 PUSH4 0xCC20B6FE EQ PUSH2 0x706 JUMPI PUSH2 0x20F JUMP JUMPDEST DUP1 PUSH4 0x9D2CC436 GT PUSH2 0xE7 JUMPI DUP1 PUSH4 0x9D2CC436 EQ PUSH2 0x5CD JUMPI DUP1 PUSH4 0x9FC5CE2A EQ PUSH2 0x5F8 JUMPI DUP1 PUSH4 0xA217FDDF EQ PUSH2 0x602 JUMPI DUP1 PUSH4 0xA9343856 EQ PUSH2 0x62D JUMPI DUP1 PUSH4 0xBB10B60F EQ PUSH2 0x65A JUMPI PUSH2 0x20F JUMP JUMPDEST DUP1 PUSH4 0x774237FC EQ PUSH2 0x511 JUMPI DUP1 PUSH4 0x881D343A EQ PUSH2 0x53C JUMPI DUP1 PUSH4 0x8DD95002 EQ PUSH2 0x565 JUMPI DUP1 PUSH4 0x91D14854 EQ PUSH2 0x590 JUMPI PUSH2 0x20F JUMP JUMPDEST DUP1 PUSH4 0x397DEB7B GT PUSH2 0x19B JUMPI DUP1 PUSH4 0x4D67B541 GT PUSH2 0x16A JUMPI DUP1 PUSH4 0x4D67B541 EQ PUSH2 0x438 JUMPI DUP1 PUSH4 0x4D831A12 EQ PUSH2 0x463 JUMPI DUP1 PUSH4 0x4F6059E7 EQ PUSH2 0x48E JUMPI DUP1 PUSH4 0x598B8F76 EQ PUSH2 0x4B9 JUMPI DUP1 PUSH4 0x64DF6DF9 EQ PUSH2 0x4E6 JUMPI PUSH2 0x20F JUMP JUMPDEST DUP1 PUSH4 0x397DEB7B EQ PUSH2 0x38C JUMPI DUP1 PUSH4 0x42173873 EQ PUSH2 0x3B5 JUMPI DUP1 PUSH4 0x46FBAD4A EQ PUSH2 0x3E0 JUMPI DUP1 PUSH4 0x472D0447 EQ PUSH2 0x40D JUMPI PUSH2 0x20F JUMP JUMPDEST DUP1 PUSH4 0x248A9CA3 GT PUSH2 0x1D7 JUMPI DUP1 PUSH4 0x248A9CA3 EQ PUSH2 0x2D2 JUMPI DUP1 PUSH4 0x25404DAE EQ PUSH2 0x30F JUMPI DUP1 PUSH4 0x2F2FF15D EQ PUSH2 0x33A JUMPI DUP1 PUSH4 0x36568ABE EQ PUSH2 0x363 JUMPI PUSH2 0x20F JUMP JUMPDEST DUP1 PUSH4 0x1FFC9A7 EQ PUSH2 0x214 JUMPI DUP1 PUSH4 0x193ED1EC EQ PUSH2 0x251 JUMPI DUP1 PUSH4 0x1B93B7D2 EQ PUSH2 0x27C JUMPI DUP1 PUSH4 0x1D397A8A EQ PUSH2 0x2A7 JUMPI PUSH2 0x20F JUMP JUMPDEST CALLDATASIZE PUSH2 0x20F JUMPI STOP JUMPDEST PUSH1 0x0 DUP1 REVERT JUMPDEST CALLVALUE DUP1 ISZERO PUSH2 0x220 JUMPI PUSH1 0x0 DUP1 REVERT JUMPDEST POP PUSH2 0x23B PUSH1 0x4 DUP1 CALLDATASIZE SUB DUP2 ADD SWAP1 PUSH2 0x236 SWAP2 SWAP1 PUSH2 0x3BA6 JUMP JUMPDEST PUSH2 0x806 JUMP JUMPDEST PUSH1 0x40 MLOAD PUSH2 0x248 SWAP2 SWAP1 PUSH2 0x3BEE JUMP JUMPDEST PUSH1 0x40 MLOAD DUP1 SWAP2 SUB SWAP1 RETURN JUMPDEST CALLVALUE DUP1 ISZERO PUSH2 0x25D JUMPI PUSH1 0x0 DUP1 REVERT JUMPDEST POP PUSH2 0x266 PUSH2 0x880 JUMP JUMPDEST PUSH1 0x40 MLOAD PUSH2 0x273 SWAP2 SWAP1 PUSH2 0x3C22 JUMP JUMPDEST PUSH1 0x40 MLOAD DUP1 SWAP2 SUB SWAP1 RETURN JUMPDEST CALLVALUE DUP1 ISZERO PUSH2 0x288 JUMPI PUSH1 0x0 DUP1 REVERT JUMPDEST POP PUSH2 0x291 PUSH2 0x886 JUMP JUMPDEST PUSH1 0x40 MLOAD PUSH2 0x29E SWAP2 SWAP1 PUSH2 0x3C68 JUMP JUMPDEST PUSH1 0x40 MLOAD DUP1 SWAP2 SUB SWAP1 RETURN JUMPDEST CALLVALUE DUP1 ISZERO PUSH2 0x2B3 JUMPI PUSH1 0x0 DUP1 REVERT JUMPDEST POP PUSH2 0x2BC PUSH2 0x8A8 JUMP JUMPDEST PUSH1 0x40 MLOAD PUSH2 0x2C9 SWAP2 SWAP1 PUSH2 0x3C22 JUMP JUMPDEST PUSH1 0x40 MLOAD DUP1 SWAP2 SUB SWAP1 RETURN JUMPDEST CALLVALUE DUP1 ISZERO PUSH2 0x2DE JUMPI PUSH1 0x0 DUP1 REVERT JUMPDEST POP PUSH2 0x2F9 PUSH1 0x4 DUP1 CALLDATASIZE SUB DUP2 ADD SWAP1 PUSH2 0x2F4 SWAP2 SWAP1 PUSH2 0x3CB9 JUMP JUMPDEST PUSH2 0x8AE JUMP JUMPDEST PUSH1 0x40 MLOAD PUSH2 0x306 SWAP2 SWAP1 PUSH2 0x3CF5 JUMP JUMPDEST PUSH1 0x40 MLOAD DUP1 SWAP2 SUB SWAP1 RETURN JUMPDEST CALLVALUE DUP1 ISZERO PUSH2 0x31B JUMPI PUSH1 0x0 DUP1 REVERT JUMPDEST POP PUSH2 0x324 PUSH2 0x8CD JUMP JUMPDEST PUSH1 0x40 MLOAD PUSH2 0x331 SWAP2 SWAP1 PUSH2 0x3D8F JUMP JUMPDEST PUSH1 0x40 MLOAD DUP1 SWAP2 SUB SWAP1 RETURN JUMPDEST CALLVALUE DUP1 ISZERO PUSH2 0x346 JUMPI PUSH1 0x0 DUP1 REVERT JUMPDEST POP PUSH2 0x361 PUSH1 0x4 DUP1 CALLDATASIZE SUB DUP2 ADD SWAP1 PUSH2 0x35C SWAP2 SWAP1 PUSH2 0x3DE8 JUMP JUMPDEST PUSH2 0x8F3 JUMP JUMPDEST STOP JUMPDEST CALLVALUE DUP1 ISZERO PUSH2 0x36F JUMPI PUSH1 0x0 DUP1 REVERT JUMPDEST POP PUSH2 0x38A PUSH1 0x4 DUP1 CALLDATASIZE SUB DUP2 ADD SWAP1 PUSH2 0x385 SWAP2 SWAP1 PUSH2 0x3DE8 JUMP JUMPDEST PUSH2 0x914 JUMP JUMPDEST STOP JUMPDEST CALLVALUE DUP1 ISZERO PUSH2 0x398 JUMPI PUSH1 0x0 DUP1 REVERT JUMPDEST POP PUSH2 0x3B3 PUSH1 0x4 DUP1 CALLDATASIZE SUB DUP2 ADD SWAP1 PUSH2 0x3AE SWAP2 SWAP1 PUSH2 0x3E92 JUMP JUMPDEST PUSH2 0x997 JUMP JUMPDEST STOP JUMPDEST CALLVALUE DUP1 ISZERO PUSH2 0x3C1 JUMPI PUSH1 0x0 DUP1 REVERT JUMPDEST POP PUSH2 0x3CA PUSH2 0x9D6 JUMP JUMPDEST PUSH1 0x40 MLOAD PUSH2 0x3D7 SWAP2 SWAP1 PUSH2 0x3C68 JUMP JUMPDEST PUSH1 0x40 MLOAD DUP1 SWAP2 SUB SWAP1 RETURN JUMPDEST CALLVALUE DUP1 ISZERO PUSH2 0x3EC JUMPI PUSH1 0x0 DUP1 REVERT JUMPDEST POP PUSH2 0x3F5 PUSH2 0x9E2 JUMP JUMPDEST PUSH1 0x40 MLOAD PUSH2 0x404 SWAP4 SWAP3 SWAP2 SWAP1 PUSH2 0x3EE5 JUMP JUMPDEST PUSH1 0x40 MLOAD DUP1 SWAP2 SUB SWAP1 RETURN JUMPDEST CALLVALUE DUP1 ISZERO PUSH2 0x419 JUMPI PUSH1 0x0 DUP1 REVERT JUMPDEST POP PUSH2 0x422 PUSH2 0xA04 JUMP JUMPDEST PUSH1 0x40 MLOAD PUSH2 0x42F SWAP2 SWAP1 PUSH2 0x3F3D JUMP JUMPDEST PUSH1 0x40 MLOAD DUP1 SWAP2 SUB SWAP1 RETURN JUMPDEST CALLVALUE DUP1 ISZERO PUSH2 0x444 JUMPI PUSH1 0x0 DUP1 REVERT JUMPDEST POP PUSH2 0x44D PUSH2 0xA2A JUMP JUMPDEST PUSH1 0x40 MLOAD PUSH2 0x45A SWAP2 SWAP1 PUSH2 0x3C22 JUMP JUMPDEST PUSH1 0x40 MLOAD DUP1 SWAP2 SUB SWAP1 RETURN JUMPDEST CALLVALUE DUP1 ISZERO PUSH2 0x46F JUMPI PUSH1 0x0 DUP1 REVERT JUMPDEST POP PUSH2 0x478 PUSH2 0xA30 JUMP JUMPDEST PUSH1 0x40 MLOAD PUSH2 0x485 SWAP2 SWAP1 PUSH2 0x3BEE JUMP JUMPDEST PUSH1 0x40 MLOAD DUP1 SWAP2 SUB SWAP1 RETURN JUMPDEST CALLVALUE DUP1 ISZERO PUSH2 0x49A JUMPI PUSH1 0x0 DUP1 REVERT JUMPDEST POP PUSH2 0x4A3 PUSH2 0xA43 JUMP JUMPDEST PUSH1 0x40 MLOAD PUSH2 0x4B0 SWAP2 SWAP1 PUSH2 0x3F67 JUMP JUMPDEST PUSH1 0x40 MLOAD DUP1 SWAP2 SUB SWAP1 RETURN JUMPDEST CALLVALUE DUP1 ISZERO PUSH2 0x4C5 JUMPI PUSH1 0x0 DUP1 REVERT JUMPDEST POP PUSH2 0x4CE PUSH2 0xA67 JUMP JUMPDEST PUSH1 0x40 MLOAD PUSH2 0x4DD SWAP4 SWAP3 SWAP2 SWAP1 PUSH2 0x3EE5 JUMP JUMPDEST PUSH1 0x40 MLOAD DUP1 SWAP2 SUB SWAP1 RETURN JUMPDEST CALLVALUE DUP1 ISZERO PUSH2 0x4F2 JUMPI PUSH1 0x0 DUP1 REVERT JUMPDEST POP PUSH2 0x4FB PUSH2 0xB99 JUMP JUMPDEST PUSH1 0x40 MLOAD PUSH2 0x508 SWAP2 SWAP1 PUSH2 0x3C22 JUMP JUMPDEST PUSH1 0x40 MLOAD DUP1 SWAP2 SUB SWAP1 RETURN JUMPDEST CALLVALUE DUP1 ISZERO PUSH2 0x51D JUMPI PUSH1 0x0 DUP1 REVERT JUMPDEST POP PUSH2 0x526 PUSH2 0xB9F JUMP JUMPDEST PUSH1 0x40 MLOAD PUSH2 0x533 SWAP2 SWAP1 PUSH2 0x3CF5 JUMP JUMPDEST PUSH1 0x40 MLOAD DUP1 SWAP2 SUB SWAP1 RETURN JUMPDEST CALLVALUE DUP1 ISZERO PUSH2 0x548 JUMPI PUSH1 0x0 DUP1 REVERT JUMPDEST POP PUSH2 0x563 PUSH1 0x4 DUP1 CALLDATASIZE SUB DUP2 ADD SWAP1 PUSH2 0x55E SWAP2 SWAP1 PUSH2 0x3F82 JUMP JUMPDEST PUSH2 0xBC7 JUMP JUMPDEST STOP JUMPDEST CALLVALUE DUP1 ISZERO PUSH2 0x571 JUMPI PUSH1 0x0 DUP1 REVERT JUMPDEST POP PUSH2 0x57A PUSH2 0xC9F JUMP JUMPDEST PUSH1 0x40 MLOAD PUSH2 0x587 SWAP2 SWAP1 PUSH2 0x3F67 JUMP JUMPDEST PUSH1 0x40 MLOAD DUP1 SWAP2 SUB SWAP1 RETURN JUMPDEST CALLVALUE DUP1 ISZERO PUSH2 0x59C JUMPI PUSH1 0x0 DUP1 REVERT JUMPDEST POP PUSH2 0x5B7 PUSH1 0x4 DUP1 CALLDATASIZE SUB DUP2 ADD SWAP1 PUSH2 0x5B2 SWAP2 SWAP1 PUSH2 0x3DE8 JUMP JUMPDEST PUSH2 0xCC5 JUMP JUMPDEST PUSH1 0x40 MLOAD PUSH2 0x5C4 SWAP2 SWAP1 PUSH2 0x3BEE JUMP JUMPDEST PUSH1 0x40 MLOAD DUP1 SWAP2 SUB SWAP1 RETURN JUMPDEST CALLVALUE DUP1 ISZERO PUSH2 0x5D9 JUMPI PUSH1 0x0 DUP1 REVERT JUMPDEST POP PUSH2 0x5E2 PUSH2 0xD2F JUMP JUMPDEST PUSH1 0x40 MLOAD PUSH2 0x5EF SWAP2 SWAP1 PUSH2 0x3FD0 JUMP JUMPDEST PUSH1 0x40 MLOAD DUP1 SWAP2 SUB SWAP1 RETURN JUMPDEST PUSH2 0x600 PUSH2 0xD55 JUMP JUMPDEST STOP JUMPDEST CALLVALUE DUP1 ISZERO PUSH2 0x60E JUMPI PUSH1 0x0 DUP1 REVERT JUMPDEST POP PUSH2 0x617 PUSH2 0x122F JUMP JUMPDEST PUSH1 0x40 MLOAD PUSH2 0x624 SWAP2 SWAP1 PUSH2 0x3CF5 JUMP JUMPDEST PUSH1 0x40 MLOAD DUP1 SWAP2 SUB SWAP1 RETURN JUMPDEST CALLVALUE DUP1 ISZERO PUSH2 0x639 JUMPI PUSH1 0x0 DUP1 REVERT JUMPDEST POP PUSH2 0x642 PUSH2 0x1236 JUMP JUMPDEST PUSH1 0x40 MLOAD PUSH2 0x651 SWAP4 SWAP3 SWAP2 SWAP1 PUSH2 0x3EE5 JUMP JUMPDEST PUSH1 0x40 MLOAD DUP1 SWAP2 SUB SWAP1 RETURN JUMPDEST CALLVALUE DUP1 ISZERO PUSH2 0x666 JUMPI PUSH1 0x0 DUP1 REVERT JUMPDEST POP PUSH2 0x66F PUSH2 0x124E JUMP JUMPDEST PUSH1 0x40 MLOAD PUSH2 0x67C SWAP2 SWAP1 PUSH2 0x3C68 JUMP JUMPDEST PUSH1 0x40 MLOAD DUP1 SWAP2 SUB SWAP1 RETURN JUMPDEST CALLVALUE DUP1 ISZERO PUSH2 0x691 JUMPI PUSH1 0x0 DUP1 REVERT JUMPDEST POP PUSH2 0x69A PUSH2 0x1270 JUMP JUMPDEST PUSH1 0x40 MLOAD PUSH2 0x6A7 SWAP2 SWAP1 PUSH2 0x3C68 JUMP JUMPDEST PUSH1 0x40 MLOAD DUP1 SWAP2 SUB SWAP1 RETURN JUMPDEST CALLVALUE DUP1 ISZERO PUSH2 0x6BC JUMPI PUSH1 0x0 DUP1 REVERT JUMPDEST POP PUSH2 0x6C5 PUSH2 0x127C JUMP JUMPDEST PUSH1 0x40 MLOAD PUSH2 0x6D2 SWAP2 SWAP1 PUSH2 0x3F67 JUMP JUMPDEST PUSH1 0x40 MLOAD DUP1 SWAP2 SUB SWAP1 RETURN JUMPDEST CALLVALUE DUP1 ISZERO PUSH2 0x6E7 JUMPI PUSH1 0x0 DUP1 REVERT JUMPDEST POP PUSH2 0x6F0 PUSH2 0x12A2 JUMP JUMPDEST PUSH1 0x40 MLOAD PUSH2 0x6FD SWAP2 SWAP1 PUSH2 0x3F67 JUMP JUMPDEST PUSH1 0x40 MLOAD DUP1 SWAP2 SUB SWAP1 RETURN JUMPDEST CALLVALUE DUP1 ISZERO PUSH2 0x712 JUMPI PUSH1 0x0 DUP1 REVERT JUMPDEST POP PUSH2 0x71B PUSH2 0x12C8 JUMP JUMPDEST PUSH1 0x40 MLOAD PUSH2 0x72A SWAP4 SWAP3 SWAP2 SWAP1 PUSH2 0x3EE5 JUMP JUMPDEST PUSH1 0x40 MLOAD DUP1 SWAP2 SUB SWAP1 RETURN JUMPDEST CALLVALUE DUP1 ISZERO PUSH2 0x73F JUMPI PUSH1 0x0 DUP1 REVERT JUMPDEST POP PUSH2 0x748 PUSH2 0x12E0 JUMP JUMPDEST PUSH1 0x40 MLOAD PUSH2 0x755 SWAP2 SWAP1 PUSH2 0x3CF5 JUMP JUMPDEST PUSH1 0x40 MLOAD DUP1 SWAP2 SUB SWAP1 RETURN JUMPDEST CALLVALUE DUP1 ISZERO PUSH2 0x76A JUMPI PUSH1 0x0 DUP1 REVERT JUMPDEST POP PUSH2 0x785 PUSH1 0x4 DUP1 CALLDATASIZE SUB DUP2 ADD SWAP1 PUSH2 0x780 SWAP2 SWAP1 PUSH2 0x3DE8 JUMP JUMPDEST PUSH2 0x1308 JUMP JUMPDEST STOP JUMPDEST CALLVALUE DUP1 ISZERO PUSH2 0x793 JUMPI PUSH1 0x0 DUP1 REVERT JUMPDEST POP PUSH2 0x79C PUSH2 0x1329 JUMP JUMPDEST PUSH1 0x40 MLOAD PUSH2 0x7A9 SWAP2 SWAP1 PUSH2 0x400C JUMP JUMPDEST PUSH1 0x40 MLOAD DUP1 SWAP2 SUB SWAP1 RETURN JUMPDEST CALLVALUE DUP1 ISZERO PUSH2 0x7BE JUMPI PUSH1 0x0 DUP1 REVERT JUMPDEST POP PUSH2 0x7C7 PUSH2 0x134F JUMP JUMPDEST PUSH1 0x40 MLOAD PUSH2 0x7D4 SWAP2 SWAP1 PUSH2 0x3C22 JUMP JUMPDEST PUSH1 0x40 MLOAD DUP1 SWAP2 SUB SWAP1 RETURN JUMPDEST CALLVALUE DUP1 ISZERO PUSH2 0x7E9 JUMPI PUSH1 0x0 DUP1 REVERT JUMPDEST POP PUSH2 0x804 PUSH1 0x4 DUP1 CALLDATASIZE SUB DUP2 ADD SWAP1 PUSH2 0x7FF SWAP2 SWAP1 PUSH2 0x4060 JUMP JUMPDEST PUSH2 0x1538 JUMP JUMPDEST STOP JUMPDEST PUSH1 0x0 PUSH32 0x7965DB0B00000000000000000000000000000000000000000000000000000000 PUSH28 0xFFFFFFFFFFFFFFFFFFFFFFFFFFFFFFFFFFFFFFFFFFFFFFFFFFFFFFFF NOT AND DUP3 PUSH28 0xFFFFFFFFFFFFFFFFFFFFFFFFFFFFFFFFFFFFFFFFFFFFFFFFFFFFFFFF NOT AND EQ DUP1 PUSH2 0x879 JUMPI POP PUSH2 0x878 DUP3 PUSH2 0x16AF JUMP JUMPDEST JUMPDEST SWAP1 POP SWAP2 SWAP1 POP JUMP JUMPDEST PUSH1 0x13 SLOAD DUP2 JUMP JUMPDEST PUSH1 0x8 PUSH1 0x0 SWAP1 SLOAD SWAP1 PUSH2 0x100 EXP SWAP1 DIV PUSH16 0xFFFFFFFFFFFFFFFFFFFFFFFFFFFFFFFF AND DUP2 JUMP JUMPDEST PUSH1 0x12 SLOAD DUP2 JUMP JUMPDEST PUSH1 0x0 DUP1 PUSH1 0x0 DUP4 DUP2 MSTORE PUSH1 0x20 ADD SWAP1 DUP2 MSTORE PUSH1 0x20 ADD PUSH1 0x0 KECCAK256 PUSH1 0x1 ADD SLOAD SWAP1 POP SWAP2 SWAP1 POP JUMP JUMPDEST PUSH1 0x9 PUSH1 0x0 SWAP1 SLOAD SWAP1 PUSH2 0x100 EXP SWAP1 DIV PUSH20 0xFFFFFFFFFFFFFFFFFFFFFFFFFFFFFFFFFFFFFFFF AND DUP2 JUMP JUMPDEST PUSH2 0x8FC DUP3 PUSH2 0x8AE JUMP JUMPDEST PUSH2 0x905 DUP2 PUSH2 0x1719 JUMP JUMPDEST PUSH2 0x90F DUP4 DUP4 PUSH2 0x172D JUMP JUMPDEST POP POP POP JUMP JUMPDEST PUSH2 0x91C PUSH2 0x180D JUMP JUMPDEST PUSH20 0xFFFFFFFFFFFFFFFFFFFFFFFFFFFFFFFFFFFFFFFF AND DUP2 PUSH20 0xFFFFFFFFFFFFFFFFFFFFFFFFFFFFFFFFFFFFFFFF AND EQ PUSH2 0x989 JUMPI PUSH1 0x40 MLOAD PUSH32 0x8C379A000000000000000000000000000000000000000000000000000000000 DUP2 MSTORE PUSH1 0x4 ADD PUSH2 0x980 SWAP1 PUSH2 0x4110 JUMP JUMPDEST PUSH1 0x40 MLOAD DUP1 SWAP2 SUB SWAP1 REVERT JUMPDEST PUSH2 0x993 DUP3 DUP3 PUSH2 0x1815 JUMP JUMPDEST POP POP JUMP JUMPDEST PUSH1 0x40 MLOAD PUSH1 0x20 ADD PUSH2 0x9A6 SWAP1 PUSH2 0x4187 JUMP JUMPDEST PUSH1 0x40 MLOAD PUSH1 0x20 DUP2 DUP4 SUB SUB DUP2 MSTORE SWAP1 PUSH1 0x40 MSTORE DUP1 MLOAD SWAP1 PUSH1 0x20 ADD KECCAK256 PUSH2 0x9C5 DUP2 PUSH2 0x1719 JUMP JUMPDEST PUSH2 0x9D0 DUP5 DUP5 DUP5 PUSH2 0x18F6 JUMP JUMPDEST POP POP POP POP JUMP JUMPDEST PUSH8 0xD99A8CEC7E20000 DUP2 JUMP JUMPDEST PUSH1 0x0 DUP1 PUSH1 0x0 PUSH1 0xB PUSH1 0x0 ADD SLOAD SWAP3 POP PUSH1 0xB PUSH1 0x1 ADD SLOAD SWAP2 POP PUSH1 0xB PUSH1 0x2 ADD SLOAD SWAP1 POP SWAP1 SWAP2 SWAP3 JUMP JUMPDEST PUSH1 0x1 PUSH1 0x0 SWAP1 SLOAD SWAP1 PUSH2 0x100 EXP SWAP1 DIV PUSH20 0xFFFFFFFFFFFFFFFFFFFFFFFFFFFFFFFFFFFFFFFF AND DUP2 JUMP JUMPDEST PUSH1 0x14 SLOAD DUP2 JUMP JUMPDEST PUSH1 0x15 PUSH1 0x0 SWAP1 SLOAD SWAP1 PUSH2 0x100 EXP SWAP1 DIV PUSH1 0xFF AND DUP2 JUMP JUMPDEST PUSH32 0x0 DUP2 JUMP JUMPDEST PUSH1 0x0 DUP1 PUSH1 0x0 PUSH1 0xE PUSH1 0x0 ADD SLOAD SWAP3 POP PUSH1 0xE PUSH1 0x1 ADD SLOAD SWAP2 POP PUSH1 0xE PUSH1 0x2 ADD SLOAD SWAP1 POP PUSH1 0xB PUSH1 0x1 ADD SLOAD TIMESTAMP GT ISZERO DUP1 ISZERO PUSH2 0xA9D JUMPI POP PUSH1 0xE PUSH1 0x1 ADD SLOAD TIMESTAMP GT JUMPDEST ISZERO PUSH2 0xB94 JUMPI PUSH1 0x0 PUSH1 0x3 PUSH1 0x10 SWAP1 SLOAD SWAP1 PUSH2 0x100 EXP SWAP1 DIV PUSH16 0xFFFFFFFFFFFFFFFFFFFFFFFFFFFFFFFF AND PUSH16 0xFFFFFFFFFFFFFFFFFFFFFFFFFFFFFFFF AND PUSH1 0xE PUSH1 0x0 ADD SLOAD TIMESTAMP PUSH2 0xAE6 SWAP2 SWAP1 PUSH2 0x41CB JUMP JUMPDEST PUSH2 0xAF0 SWAP2 SWAP1 PUSH2 0x422E JUMP JUMPDEST SWAP1 POP PUSH1 0x3 PUSH1 0x10 SWAP1 SLOAD SWAP1 PUSH2 0x100 EXP SWAP1 DIV PUSH16 0xFFFFFFFFFFFFFFFFFFFFFFFFFFFFFFFF AND PUSH16 0xFFFFFFFFFFFFFFFFFFFFFFFFFFFFFFFF AND DUP2 PUSH2 0xB2E SWAP2 SWAP1 PUSH2 0x425F JUMP JUMPDEST PUSH1 0xE PUSH1 0x0 ADD SLOAD PUSH2 0xB3E SWAP2 SWAP1 PUSH2 0x42A1 JUMP JUMPDEST SWAP4 POP PUSH1 0x3 PUSH1 0x10 SWAP1 SLOAD SWAP1 PUSH2 0x100 EXP SWAP1 DIV PUSH16 0xFFFFFFFFFFFFFFFFFFFFFFFFFFFFFFFF AND PUSH16 0xFFFFFFFFFFFFFFFFFFFFFFFFFFFFFFFF AND DUP2 PUSH2 0xB7C SWAP2 SWAP1 PUSH2 0x425F JUMP JUMPDEST PUSH1 0xE PUSH1 0x1 ADD SLOAD PUSH2 0xB8C SWAP2 SWAP1 PUSH2 0x42A1 JUMP JUMPDEST SWAP3 POP PUSH1 0x0 SWAP2 POP POP JUMPDEST SWAP1 SWAP2 SWAP3 JUMP JUMPDEST PUSH1 0x11 SLOAD DUP2 JUMP JUMPDEST PUSH1 0x40 MLOAD PUSH1 0x20 ADD PUSH2 0xBAE SWAP1 PUSH2 0x4321 JUMP JUMPDEST PUSH1 0x40 MLOAD PUSH1 0x20 DUP2 DUP4 SUB SUB DUP2 MSTORE SWAP1 PUSH1 0x40 MSTORE DUP1 MLOAD SWAP1 PUSH1 0x20 ADD KECCAK256 DUP2 JUMP JUMPDEST PUSH1 0x40 MLOAD PUSH1 0x20 ADD PUSH2 0xBD6 SWAP1 PUSH2 0x4187 JUMP JUMPDEST PUSH1 0x40 MLOAD PUSH1 0x20 DUP2 DUP4 SUB SUB DUP2 MSTORE SWAP1 PUSH1 0x40 MSTORE DUP1 MLOAD SWAP1 PUSH1 0x20 ADD KECCAK256 PUSH2 0xBF5 DUP2 PUSH2 0x1719 JUMP JUMPDEST DUP2 ISZERO ISZERO PUSH1 0x15 PUSH1 0x0 SWAP1 SLOAD SWAP1 PUSH2 0x100 EXP SWAP1 DIV PUSH1 0xFF AND ISZERO ISZERO SUB PUSH2 0xC4A JUMPI PUSH1 0x40 MLOAD PUSH32 0x8C379A000000000000000000000000000000000000000000000000000000000 DUP2 MSTORE PUSH1 0x4 ADD PUSH2 0xC41 SWAP1 PUSH2 0x43A8 JUMP JUMPDEST PUSH1 0x40 MLOAD DUP1 SWAP2 SUB SWAP1 REVERT JUMPDEST DUP2 PUSH1 0x15 PUSH1 0x0 PUSH2 0x100 EXP DUP2 SLOAD DUP2 PUSH1 0xFF MUL NOT AND SWAP1 DUP4 ISZERO ISZERO MUL OR SWAP1 SSTORE POP PUSH32 0xC12D1BD55BA48A5B61702C0A27059A0E25169708036D5D22A6447228310FC8B6 DUP3 PUSH1 0x40 MLOAD PUSH2 0xC93 SWAP2 SWAP1 PUSH2 0x3BEE JUMP JUMPDEST PUSH1 0x40 MLOAD DUP1 SWAP2 SUB SWAP1 LOG1 POP POP JUMP JUMPDEST PUSH1 0x6 PUSH1 0x0 SWAP1 SLOAD SWAP1 PUSH2 0x100 EXP SWAP1 DIV PUSH20 0xFFFFFFFFFFFFFFFFFFFFFFFFFFFFFFFFFFFFFFFF AND DUP2 JUMP JUMPDEST PUSH1 0x0 DUP1 PUSH1 0x0 DUP5 DUP2 MSTORE PUSH1 0x20 ADD SWAP1 DUP2 MSTORE PUSH1 0x20 ADD PUSH1 0x0 KECCAK256 PUSH1 0x0 ADD PUSH1 0x0 DUP4 PUSH20 0xFFFFFFFFFFFFFFFFFFFFFFFFFFFFFFFFFFFFFFFF AND PUSH20 0xFFFFFFFFFFFFFFFFFFFFFFFFFFFFFFFFFFFFFFFF AND DUP2 MSTORE PUSH1 0x20 ADD SWAP1 DUP2 MSTORE PUSH1 0x20 ADD PUSH1 0x0 KECCAK256 PUSH1 0x0 SWAP1 SLOAD SWAP1 PUSH2 0x100 EXP SWAP1 DIV PUSH1 0xFF AND SWAP1 POP SWAP3 SWAP2 POP POP JUMP JUMPDEST PUSH1 0xA PUSH1 0x0 SWAP1 SLOAD SWAP1 PUSH2 0x100 EXP SWAP1 DIV PUSH20 0xFFFFFFFFFFFFFFFFFFFFFFFFFFFFFFFFFFFFFFFF AND DUP2 JUMP JUMPDEST PUSH1 0x0 CALLVALUE GT PUSH2 0xD98 JUMPI PUSH1 0x40 MLOAD PUSH32 0x8C379A000000000000000000000000000000000000000000000000000000000 DUP2 MSTORE PUSH1 0x4 ADD PUSH2 0xD8F SWAP1 PUSH2 0x4414 JUMP JUMPDEST PUSH1 0x40 MLOAD DUP1 SWAP2 SUB SWAP1 REVERT JUMPDEST PUSH1 0x0 PUSH1 0xB SWAP1 POP PUSH1 0x0 PUSH1 0xE SWAP1 POP PUSH1 0xB PUSH1 0x0 ADD SLOAD TIMESTAMP GT PUSH2 0xDEB JUMPI PUSH1 0x40 MLOAD PUSH32 0x8C379A000000000000000000000000000000000000000000000000000000000 DUP2 MSTORE PUSH1 0x4 ADD PUSH2 0xDE2 SWAP1 PUSH2 0x44A6 JUMP JUMPDEST PUSH1 0x40 MLOAD DUP1 SWAP2 SUB SWAP1 REVERT JUMPDEST DUP2 PUSH1 0x1 ADD SLOAD TIMESTAMP GT ISZERO PUSH2 0xE32 JUMPI PUSH1 0x40 MLOAD PUSH32 0x8C379A000000000000000000000000000000000000000000000000000000000 DUP2 MSTORE PUSH1 0x4 ADD PUSH2 0xE29 SWAP1 PUSH2 0x4512 JUMP JUMPDEST PUSH1 0x40 MLOAD DUP1 SWAP2 SUB SWAP1 REVERT JUMPDEST DUP1 PUSH1 0x1 ADD SLOAD TIMESTAMP GT ISZERO PUSH2 0xF45 JUMPI PUSH1 0x0 PUSH1 0x3 PUSH1 0x10 SWAP1 SLOAD SWAP1 PUSH2 0x100 EXP SWAP1 DIV PUSH16 0xFFFFFFFFFFFFFFFFFFFFFFFFFFFFFFFF AND PUSH16 0xFFFFFFFFFFFFFFFFFFFFFFFFFFFFFFFF AND DUP3 PUSH1 0x0 ADD SLOAD TIMESTAMP PUSH2 0xE81 SWAP2 SWAP1 PUSH2 0x41CB JUMP JUMPDEST PUSH2 0xE8B SWAP2 SWAP1 PUSH2 0x422E JUMP JUMPDEST SWAP1 POP PUSH1 0x3 PUSH1 0x10 SWAP1 SLOAD SWAP1 PUSH2 0x100 EXP SWAP1 DIV PUSH16 0xFFFFFFFFFFFFFFFFFFFFFFFFFFFFFFFF AND PUSH16 0xFFFFFFFFFFFFFFFFFFFFFFFFFFFFFFFF AND DUP2 PUSH2 0xEC9 SWAP2 SWAP1 PUSH2 0x425F JUMP JUMPDEST DUP3 PUSH1 0x0 ADD PUSH1 0x0 DUP3 DUP3 SLOAD PUSH2 0xEDC SWAP2 SWAP1 PUSH2 0x42A1 JUMP JUMPDEST SWAP3 POP POP DUP2 SWAP1 SSTORE POP PUSH1 0x3 PUSH1 0x10 SWAP1 SLOAD SWAP1 PUSH2 0x100 EXP SWAP1 DIV PUSH16 0xFFFFFFFFFFFFFFFFFFFFFFFFFFFFFFFF AND PUSH16 0xFFFFFFFFFFFFFFFFFFFFFFFFFFFFFFFF AND DUP2 PUSH2 0xF1F SWAP2 SWAP1 PUSH2 0x425F JUMP JUMPDEST DUP3 PUSH1 0x1 ADD PUSH1 0x0 DUP3 DUP3 SLOAD PUSH2 0xF32 SWAP2 SWAP1 PUSH2 0x42A1 JUMP JUMPDEST SWAP3 POP POP DUP2 SWAP1 SSTORE POP PUSH1 0x0 DUP3 PUSH1 0x2 ADD DUP2 SWAP1 SSTORE POP POP JUMPDEST PUSH1 0x0 PUSH2 0xFB9 PUSH1 0x5 PUSH1 0x0 SWAP1 SLOAD SWAP1 PUSH2 0x100 EXP SWAP1 DIV PUSH20 0xFFFFFFFFFFFFFFFFFFFFFFFFFFFFFFFFFFFFFFFF AND CALLVALUE PUSH1 0x6 PUSH1 0x0 SWAP1 SLOAD SWAP1 PUSH2 0x100 EXP SWAP1 DIV PUSH20 0xFFFFFFFFFFFFFFFFFFFFFFFFFFFFFFFFFFFFFFFF AND PUSH1 0x7 PUSH1 0x0 SWAP1 SLOAD SWAP1 PUSH2 0x100 EXP SWAP1 DIV PUSH20 0xFFFFFFFFFFFFFFFFFFFFFFFFFFFFFFFFFFFFFFFF AND PUSH2 0x1A7F JUMP JUMPDEST SWAP1 POP DUP1 DUP4 PUSH1 0x2 ADD SLOAD PUSH2 0xFCB SWAP2 SWAP1 PUSH2 0x42A1 JUMP JUMPDEST PUSH1 0x8 PUSH1 0x0 SWAP1 SLOAD SWAP1 PUSH2 0x100 EXP SWAP1 DIV PUSH16 0xFFFFFFFFFFFFFFFFFFFFFFFFFFFFFFFF AND PUSH16 0xFFFFFFFFFFFFFFFFFFFFFFFFFFFFFFFF AND LT ISZERO PUSH2 0x103D JUMPI PUSH1 0x40 MLOAD PUSH32 0x8C379A000000000000000000000000000000000000000000000000000000000 DUP2 MSTORE PUSH1 0x4 ADD PUSH2 0x1034 SWAP1 PUSH2 0x45A4 JUMP JUMPDEST PUSH1 0x40 MLOAD DUP1 SWAP2 SUB SWAP1 REVERT JUMPDEST DUP1 DUP3 PUSH1 0x2 ADD SLOAD PUSH2 0x104D SWAP2 SWAP1 PUSH2 0x42A1 JUMP JUMPDEST PUSH1 0x8 PUSH1 0x10 SWAP1 SLOAD SWAP1 PUSH2 0x100 EXP SWAP1 DIV PUSH16 0xFFFFFFFFFFFFFFFFFFFFFFFFFFFFFFFF AND PUSH16 0xFFFFFFFFFFFFFFFFFFFFFFFFFFFFFFFF AND LT ISZERO PUSH2 0x10BF JUMPI PUSH1 0x40 MLOAD PUSH32 0x8C379A000000000000000000000000000000000000000000000000000000000 DUP2 MSTORE PUSH1 0x4 ADD PUSH2 0x10B6 SWAP1 PUSH2 0x4636 JUMP JUMPDEST PUSH1 0x40 MLOAD DUP1 SWAP2 SUB SWAP1 REVERT JUMPDEST DUP1 DUP4 PUSH1 0x2 ADD PUSH1 0x0 DUP3 DUP3 SLOAD PUSH2 0x10D3 SWAP2 SWAP1 PUSH2 0x42A1 JUMP JUMPDEST SWAP3 POP POP DUP2 SWAP1 SSTORE POP DUP1 DUP3 PUSH1 0x2 ADD PUSH1 0x0 DUP3 DUP3 SLOAD PUSH2 0x10EE SWAP2 SWAP1 PUSH2 0x42A1 JUMP JUMPDEST SWAP3 POP POP DUP2 SWAP1 SSTORE POP PUSH2 0x1121 PUSH1 0xA PUSH1 0x0 SWAP1 SLOAD SWAP1 PUSH2 0x100 EXP SWAP1 DIV PUSH20 0xFFFFFFFFFFFFFFFFFFFFFFFFFFFFFFFFFFFFFFFF AND CALLVALUE PUSH2 0x1AB6 JUMP JUMPDEST PUSH1 0x9 PUSH1 0x0 SWAP1 SLOAD SWAP1 PUSH2 0x100 EXP SWAP1 DIV PUSH20 0xFFFFFFFFFFFFFFFFFFFFFFFFFFFFFFFFFFFFFFFF AND PUSH20 0xFFFFFFFFFFFFFFFFFFFFFFFFFFFFFFFFFFFFFFFF AND PUSH4 0x40C10F19 PUSH2 0x1167 PUSH2 0x180D JUMP JUMPDEST DUP4 PUSH1 0x40 MLOAD DUP4 PUSH4 0xFFFFFFFF AND PUSH1 0xE0 SHL DUP2 MSTORE PUSH1 0x4 ADD PUSH2 0x1185 SWAP3 SWAP2 SWAP1 PUSH2 0x4656 JUMP JUMPDEST PUSH1 0x20 PUSH1 0x40 MLOAD DUP1 DUP4 SUB DUP2 PUSH1 0x0 DUP8 GAS CALL ISZERO DUP1 ISZERO PUSH2 0x11A4 JUMPI RETURNDATASIZE PUSH1 0x0 DUP1 RETURNDATACOPY RETURNDATASIZE PUSH1 0x0 REVERT JUMPDEST POP POP POP POP PUSH1 0x40 MLOAD RETURNDATASIZE PUSH1 0x1F NOT PUSH1 0x1F DUP3 ADD AND DUP3 ADD DUP1 PUSH1 0x40 MSTORE POP DUP2 ADD SWAP1 PUSH2 0x11C8 SWAP2 SWAP1 PUSH2 0x4694 JUMP JUMPDEST POP PUSH2 0x11D1 PUSH2 0x180D JUMP JUMPDEST PUSH20 0xFFFFFFFFFFFFFFFFFFFFFFFFFFFFFFFFFFFFFFFF AND PUSH32 0x6343A9A1763AC7E5A824ACC9788C196AD5CDBE21F87A27857194F0E0568EBB20 CALLVALUE DUP4 PUSH8 0xDE0B6B3A7640000 PUSH1 0x40 MLOAD PUSH2 0x1222 SWAP4 SWAP3 SWAP2 SWAP1 PUSH2 0x46FC JUMP JUMPDEST PUSH1 0x40 MLOAD DUP1 SWAP2 SUB SWAP1 LOG2 POP POP POP JUMP JUMPDEST PUSH1 0x0 DUP1 SHL DUP2 JUMP JUMPDEST PUSH1 0xB DUP1 PUSH1 0x0 ADD SLOAD SWAP1 DUP1 PUSH1 0x1 ADD SLOAD SWAP1 DUP1 PUSH1 0x2 ADD SLOAD SWAP1 POP DUP4 JUMP JUMPDEST PUSH1 0x8 PUSH1 0x10 SWAP1 SLOAD SWAP1 PUSH2 0x100 EXP SWAP1 DIV PUSH16 0xFFFFFFFFFFFFFFFFFFFFFFFFFFFFFFFF AND DUP2 JUMP JUMPDEST PUSH8 0xE27C49886E60000 DUP2 JUMP JUMPDEST PUSH1 0x5 PUSH1 0x0 SWAP1 SLOAD SWAP1 PUSH2 0x100 EXP SWAP1 DIV PUSH20 0xFFFFFFFFFFFFFFFFFFFFFFFFFFFFFFFFFFFFFFFF AND DUP2 JUMP JUMPDEST PUSH1 0x7 PUSH1 0x0 SWAP1 SLOAD SWAP1 PUSH2 0x100 EXP SWAP1 DIV PUSH20 0xFFFFFFFFFFFFFFFFFFFFFFFFFFFFFFFFFFFFFFFF AND DUP2 JUMP JUMPDEST PUSH1 0xE DUP1 PUSH1 0x0 ADD SLOAD SWAP1 DUP1 PUSH1 0x1 ADD SLOAD SWAP1 DUP1 PUSH1 0x2 ADD SLOAD SWAP1 POP DUP4 JUMP JUMPDEST PUSH1 0x40 MLOAD PUSH1 0x20 ADD PUSH2 0x12EF SWAP1 PUSH2 0x4187 JUMP JUMPDEST PUSH1 0x40 MLOAD PUSH1 0x20 DUP2 DUP4 SUB SUB DUP2 MSTORE SWAP1 PUSH1 0x40 MSTORE DUP1 MLOAD SWAP1 PUSH1 0x20 ADD KECCAK256 DUP2 JUMP JUMPDEST PUSH2 0x1311 DUP3 PUSH2 0x8AE JUMP JUMPDEST PUSH2 0x131A DUP2 PUSH2 0x1719 JUMP JUMPDEST PUSH2 0x1324 DUP4 DUP4 PUSH2 0x1815 JUMP JUMPDEST POP POP POP JUMP JUMPDEST PUSH1 0x4 PUSH1 0x0 SWAP1 SLOAD SWAP1 PUSH2 0x100 EXP SWAP1 DIV PUSH20 0xFFFFFFFFFFFFFFFFFFFFFFFFFFFFFFFFFFFFFFFF AND DUP2 JUMP JUMPDEST PUSH1 0x0 DUP1 PUSH1 0x3 PUSH8 0xFFFFFFFFFFFFFFFF DUP2 GT ISZERO PUSH2 0x136D JUMPI PUSH2 0x136C PUSH2 0x4733 JUMP JUMPDEST JUMPDEST PUSH1 0x40 MLOAD SWAP1 DUP1 DUP3 MSTORE DUP1 PUSH1 0x20 MUL PUSH1 0x20 ADD DUP3 ADD PUSH1 0x40 MSTORE DUP1 ISZERO PUSH2 0x139B JUMPI DUP2 PUSH1 0x20 ADD PUSH1 0x20 DUP3 MUL DUP1 CALLDATASIZE DUP4 CALLDATACOPY DUP1 DUP3 ADD SWAP2 POP POP SWAP1 POP JUMPDEST POP SWAP1 POP PUSH1 0x9 PUSH1 0x0 SWAP1 SLOAD SWAP1 PUSH2 0x100 EXP SWAP1 DIV PUSH20 0xFFFFFFFFFFFFFFFFFFFFFFFFFFFFFFFFFFFFFFFF AND DUP2 PUSH1 0x0 DUP2 MLOAD DUP2 LT PUSH2 0x13D5 JUMPI PUSH2 0x13D4 PUSH2 0x4762 JUMP JUMPDEST JUMPDEST PUSH1 0x20 MUL PUSH1 0x20 ADD ADD SWAP1 PUSH20 0xFFFFFFFFFFFFFFFFFFFFFFFFFFFFFFFFFFFFFFFF AND SWAP1 DUP2 PUSH20 0xFFFFFFFFFFFFFFFFFFFFFFFFFFFFFFFFFFFFFFFF AND DUP2 MSTORE POP POP PUSH1 0x6 PUSH1 0x0 SWAP1 SLOAD SWAP1 PUSH2 0x100 EXP SWAP1 DIV PUSH20 0xFFFFFFFFFFFFFFFFFFFFFFFFFFFFFFFFFFFFFFFF AND DUP2 PUSH1 0x1 DUP2 MLOAD DUP2 LT PUSH2 0x1446 JUMPI PUSH2 0x1445 PUSH2 0x4762 JUMP JUMPDEST JUMPDEST PUSH1 0x20 MUL PUSH1 0x20 ADD ADD SWAP1 PUSH20 0xFFFFFFFFFFFFFFFFFFFFFFFFFFFFFFFFFFFFFFFF AND SWAP1 DUP2 PUSH20 0xFFFFFFFFFFFFFFFFFFFFFFFFFFFFFFFFFFFFFFFF AND DUP2 MSTORE POP POP PUSH1 0x7 PUSH1 0x0 SWAP1 SLOAD SWAP1 PUSH2 0x100 EXP SWAP1 DIV PUSH20 0xFFFFFFFFFFFFFFFFFFFFFFFFFFFFFFFFFFFFFFFF AND DUP2 PUSH1 0x2 DUP2 MLOAD DUP2 LT PUSH2 0x14B7 JUMPI PUSH2 0x14B6 PUSH2 0x4762 JUMP JUMPDEST JUMPDEST PUSH1 0x20 MUL PUSH1 0x20 ADD ADD SWAP1 PUSH20 0xFFFFFFFFFFFFFFFFFFFFFFFFFFFFFFFFFFFFFFFF AND SWAP1 DUP2 PUSH20 0xFFFFFFFFFFFFFFFFFFFFFFFFFFFFFFFFFFFFFFFF AND DUP2 MSTORE POP POP PUSH1 0x0 PUSH8 0xDE0B6B3A7640000 SWAP1 POP PUSH1 0x0 PUSH2 0x152D PUSH1 0x5 PUSH1 0x0 SWAP1 SLOAD SWAP1 PUSH2 0x100 EXP SWAP1 DIV PUSH20 0xFFFFFFFFFFFFFFFFFFFFFFFFFFFFFFFFFFFFFFFF AND DUP4 DUP6 PUSH2 0x1BB6 JUMP JUMPDEST SWAP1 POP DUP1 SWAP4 POP POP POP POP SWAP1 JUMP JUMPDEST PUSH1 0x40 MLOAD PUSH1 0x20 ADD PUSH2 0x1547 SWAP1 PUSH2 0x4321 JUMP JUMPDEST PUSH1 0x40 MLOAD PUSH1 0x20 DUP2 DUP4 SUB SUB DUP2 MSTORE SWAP1 PUSH1 0x40 MSTORE DUP1 MLOAD SWAP1 PUSH1 0x20 ADD KECCAK256 PUSH2 0x1566 DUP2 PUSH2 0x1719 JUMP JUMPDEST PUSH1 0x0 PUSH2 0x1570 PUSH2 0x134F JUMP JUMPDEST SWAP1 POP PUSH1 0x0 DUP4 PUSH1 0xFF AND EQ DUP1 ISZERO PUSH2 0x159E JUMPI POP PUSH8 0xE27C49886E60000 PUSH16 0xFFFFFFFFFFFFFFFFFFFFFFFFFFFFFFFF AND DUP2 GT JUMPDEST ISZERO PUSH2 0x15B1 JUMPI PUSH2 0x15AC DUP2 PUSH2 0x1D7A JUMP JUMPDEST PUSH2 0x15EC JUMP JUMPDEST PUSH1 0x1 DUP4 PUSH1 0xFF AND EQ DUP1 ISZERO PUSH2 0x15DD JUMPI POP PUSH8 0xD99A8CEC7E20000 PUSH16 0xFFFFFFFFFFFFFFFFFFFFFFFFFFFFFFFF AND DUP2 LT JUMPDEST ISZERO PUSH2 0x15EB JUMPI PUSH2 0x15EA PUSH2 0x2570 JUMP JUMPDEST JUMPDEST JUMPDEST PUSH1 0x15 PUSH1 0x0 SWAP1 SLOAD SWAP1 PUSH2 0x100 EXP SWAP1 DIV PUSH1 0xFF AND ISZERO PUSH2 0x16AA JUMPI PUSH1 0x0 DUP1 PUSH2 0x160C PUSH2 0x2EF1 JUMP JUMPDEST SWAP2 POP SWAP2 POP PUSH1 0xA PUSH1 0x0 SWAP1 SLOAD SWAP1 PUSH2 0x100 EXP SWAP1 DIV PUSH20 0xFFFFFFFFFFFFFFFFFFFFFFFFFFFFFFFFFFFFFFFF AND PUSH20 0xFFFFFFFFFFFFFFFFFFFFFFFFFFFFFFFFFFFFFFFF AND PUSH4 0x2E1A7D4D DUP4 PUSH1 0x40 MLOAD DUP3 PUSH4 0xFFFFFFFF AND PUSH1 0xE0 SHL DUP2 MSTORE PUSH1 0x4 ADD PUSH2 0x166B SWAP2 SWAP1 PUSH2 0x3C22 JUMP JUMPDEST PUSH1 0x0 PUSH1 0x40 MLOAD DUP1 DUP4 SUB DUP2 PUSH1 0x0 DUP8 DUP1 EXTCODESIZE ISZERO DUP1 ISZERO PUSH2 0x1685 JUMPI PUSH1 0x0 DUP1 REVERT JUMPDEST POP GAS CALL ISZERO DUP1 ISZERO PUSH2 0x1699 JUMPI RETURNDATASIZE PUSH1 0x0 DUP1 RETURNDATACOPY RETURNDATASIZE PUSH1 0x0 REVERT JUMPDEST POP POP POP POP PUSH2 0x16A7 DUP3 DUP3 PUSH2 0x2F90 JUMP JUMPDEST POP POP JUMPDEST POP POP POP JUMP JUMPDEST PUSH1 0x0 PUSH32 0x1FFC9A700000000000000000000000000000000000000000000000000000000 PUSH28 0xFFFFFFFFFFFFFFFFFFFFFFFFFFFFFFFFFFFFFFFFFFFFFFFFFFFFFFFF NOT AND DUP3 PUSH28 0xFFFFFFFFFFFFFFFFFFFFFFFFFFFFFFFFFFFFFFFFFFFFFFFFFFFFFFFF NOT AND EQ SWAP1 POP SWAP2 SWAP1 POP JUMP JUMPDEST PUSH2 0x172A DUP2 PUSH2 0x1725 PUSH2 0x180D JUMP JUMPDEST PUSH2 0x30DD JUMP JUMPDEST POP JUMP JUMPDEST PUSH2 0x1737 DUP3 DUP3 PUSH2 0xCC5 JUMP JUMPDEST PUSH2 0x1809 JUMPI PUSH1 0x1 PUSH1 0x0 DUP1 DUP5 DUP2 MSTORE PUSH1 0x20 ADD SWAP1 DUP2 MSTORE PUSH1 0x20 ADD PUSH1 0x0 KECCAK256 PUSH1 0x0 ADD PUSH1 0x0 DUP4 PUSH20 0xFFFFFFFFFFFFFFFFFFFFFFFFFFFFFFFFFFFFFFFF AND PUSH20 0xFFFFFFFFFFFFFFFFFFFFFFFFFFFFFFFFFFFFFFFF AND DUP2 MSTORE PUSH1 0x20 ADD SWAP1 DUP2 MSTORE PUSH1 0x20 ADD PUSH1 0x0 KECCAK256 PUSH1 0x0 PUSH2 0x100 EXP DUP2 SLOAD DUP2 PUSH1 0xFF MUL NOT AND SWAP1 DUP4 ISZERO ISZERO MUL OR SWAP1 SSTORE POP PUSH2 0x17AE PUSH2 0x180D JUMP JUMPDEST PUSH20 0xFFFFFFFFFFFFFFFFFFFFFFFFFFFFFFFFFFFFFFFF AND DUP2 PUSH20 0xFFFFFFFFFFFFFFFFFFFFFFFFFFFFFFFFFFFFFFFF AND DUP4 PUSH32 0x2F8788117E7EFF1D82E926EC794901D17C78024A50270940304540A733656F0D PUSH1 0x40 MLOAD PUSH1 0x40 MLOAD DUP1 SWAP2 SUB SWAP1 LOG4 JUMPDEST POP POP JUMP JUMPDEST PUSH1 0x0 CALLER SWAP1 POP SWAP1 JUMP JUMPDEST PUSH2 0x181F DUP3 DUP3 PUSH2 0xCC5 JUMP JUMPDEST ISZERO PUSH2 0x18F2 JUMPI PUSH1 0x0 DUP1 PUSH1 0x0 DUP5 DUP2 MSTORE PUSH1 0x20 ADD SWAP1 DUP2 MSTORE PUSH1 0x20 ADD PUSH1 0x0 KECCAK256 PUSH1 0x0 ADD PUSH1 0x0 DUP4 PUSH20 0xFFFFFFFFFFFFFFFFFFFFFFFFFFFFFFFFFFFFFFFF AND PUSH20 0xFFFFFFFFFFFFFFFFFFFFFFFFFFFFFFFFFFFFFFFF AND DUP2 MSTORE PUSH1 0x20 ADD SWAP1 DUP2 MSTORE PUSH1 0x20 ADD PUSH1 0x0 KECCAK256 PUSH1 0x0 PUSH2 0x100 EXP DUP2 SLOAD DUP2 PUSH1 0xFF MUL NOT AND SWAP1 DUP4 ISZERO ISZERO MUL OR SWAP1 SSTORE POP PUSH2 0x1897 PUSH2 0x180D JUMP JUMPDEST PUSH20 0xFFFFFFFFFFFFFFFFFFFFFFFFFFFFFFFFFFFFFFFF AND DUP2 PUSH20 0xFFFFFFFFFFFFFFFFFFFFFFFFFFFFFFFFFFFFFFFF AND DUP4 PUSH32 0xF6391F5C32D9C69D2A47EA670B442974B53935D1EDC7FD64EB21E047A839171B PUSH1 0x40 MLOAD PUSH1 0x40 MLOAD DUP1 SWAP2 SUB SWAP1 LOG4 JUMPDEST POP POP JUMP JUMPDEST PUSH1 0x0 DUP4 PUSH20 0xFFFFFFFFFFFFFFFFFFFFFFFFFFFFFFFFFFFFFFFF AND PUSH4 0xDD62ED3E ADDRESS DUP6 PUSH1 0x40 MLOAD DUP4 PUSH4 0xFFFFFFFF AND PUSH1 0xE0 SHL DUP2 MSTORE PUSH1 0x4 ADD PUSH2 0x1933 SWAP3 SWAP2 SWAP1 PUSH2 0x4791 JUMP JUMPDEST PUSH1 0x20 PUSH1 0x40 MLOAD DUP1 DUP4 SUB DUP2 DUP7 GAS STATICCALL ISZERO DUP1 ISZERO PUSH2 0x1950 JUMPI RETURNDATASIZE PUSH1 0x0 DUP1 RETURNDATACOPY RETURNDATASIZE PUSH1 0x0 REVERT JUMPDEST POP POP POP POP PUSH1 0x40 MLOAD RETURNDATASIZE PUSH1 0x1F NOT PUSH1 0x1F DUP3 ADD AND DUP3 ADD DUP1 PUSH1 0x40 MSTORE POP DUP2 ADD SWAP1 PUSH2 0x1974 SWAP2 SWAP1 PUSH2 0x47E6 JUMP JUMPDEST SWAP1 POP DUP2 DUP1 ISZERO PUSH2 0x19A3 JUMPI POP PUSH32 0xFFFFFFFFFFFFFFFFFFFFFFFFFFFFFFFFFFFFFFFFFFFFFFFFFFFFFFFFFFFFFFFF DUP2 EQ ISZERO JUMPDEST ISZERO PUSH2 0x1A55 JUMPI PUSH32 0xFFFFFFFFFFFFFFFFFFFFFFFFFFFFFFFFFFFFFFFFFFFFFFFFFFFFFFFFFFFFFFFF DUP2 LT DUP1 ISZERO PUSH2 0x19D8 JUMPI POP PUSH1 0x0 DUP2 EQ ISZERO JUMPDEST ISZERO PUSH2 0x1A1E JUMPI PUSH1 0x0 DUP2 PUSH32 0xFFFFFFFFFFFFFFFFFFFFFFFFFFFFFFFFFFFFFFFFFFFFFFFFFFFFFFFFFFFFFFFF PUSH2 0x1A0B SWAP2 SWAP1 PUSH2 0x41CB JUMP JUMPDEST SWAP1 POP PUSH2 0x1A18 DUP6 DUP6 DUP4 PUSH2 0x3162 JUMP JUMPDEST POP PUSH2 0x1A50 JUMP JUMPDEST PUSH1 0x0 PUSH32 0xFFFFFFFFFFFFFFFFFFFFFFFFFFFFFFFFFFFFFFFFFFFFFFFFFFFFFFFFFFFFFFFF SWAP1 POP PUSH2 0x1A4E DUP6 DUP6 DUP4 PUSH2 0x3274 JUMP JUMPDEST POP JUMPDEST PUSH2 0x1A79 JUMP JUMPDEST DUP2 ISZERO DUP1 ISZERO PUSH2 0x1A64 JUMPI POP PUSH1 0x0 DUP2 EQ ISZERO JUMPDEST ISZERO PUSH2 0x1A78 JUMPI PUSH1 0x0 PUSH2 0x1A76 DUP6 DUP6 DUP4 PUSH2 0x3274 JUMP JUMPDEST POP JUMPDEST JUMPDEST POP POP POP POP JUMP JUMPDEST PUSH1 0x0 DUP1 PUSH1 0x0 PUSH2 0x1A8F DUP8 DUP7 DUP7 PUSH2 0x33C3 JUMP JUMPDEST SWAP2 POP SWAP2 POP DUP2 DUP2 DUP8 PUSH2 0x1AA0 SWAP2 SWAP1 PUSH2 0x425F JUMP JUMPDEST PUSH2 0x1AAA SWAP2 SWAP1 PUSH2 0x422E JUMP JUMPDEST SWAP3 POP POP POP SWAP5 SWAP4 POP POP POP POP JUMP JUMPDEST PUSH1 0x0 DUP3 PUSH20 0xFFFFFFFFFFFFFFFFFFFFFFFFFFFFFFFFFFFFFFFF AND DUP3 PUSH1 0x0 PUSH8 0xFFFFFFFFFFFFFFFF DUP2 GT ISZERO PUSH2 0x1AEB JUMPI PUSH2 0x1AEA PUSH2 0x4733 JUMP JUMPDEST JUMPDEST PUSH1 0x40 MLOAD SWAP1 DUP1 DUP3 MSTORE DUP1 PUSH1 0x1F ADD PUSH1 0x1F NOT AND PUSH1 0x20 ADD DUP3 ADD PUSH1 0x40 MSTORE DUP1 ISZERO PUSH2 0x1B1D JUMPI DUP2 PUSH1 0x20 ADD PUSH1 0x1 DUP3 MUL DUP1 CALLDATASIZE DUP4 CALLDATACOPY DUP1 DUP3 ADD SWAP2 POP POP SWAP1 POP JUMPDEST POP PUSH1 0x40 MLOAD PUSH2 0x1B2B SWAP2 SWAP1 PUSH2 0x4884 JUMP JUMPDEST PUSH1 0x0 PUSH1 0x40 MLOAD DUP1 DUP4 SUB DUP2 DUP6 DUP8 GAS CALL SWAP3 POP POP POP RETURNDATASIZE DUP1 PUSH1 0x0 DUP2 EQ PUSH2 0x1B68 JUMPI PUSH1 0x40 MLOAD SWAP2 POP PUSH1 0x1F NOT PUSH1 0x3F RETURNDATASIZE ADD AND DUP3 ADD PUSH1 0x40 MSTORE RETURNDATASIZE DUP3 MSTORE RETURNDATASIZE PUSH1 0x0 PUSH1 0x20 DUP5 ADD RETURNDATACOPY PUSH2 0x1B6D JUMP JUMPDEST PUSH1 0x60 SWAP2 POP JUMPDEST POP POP SWAP1 POP DUP1 PUSH2 0x1BB1 JUMPI PUSH1 0x40 MLOAD PUSH32 0x8C379A000000000000000000000000000000000000000000000000000000000 DUP2 MSTORE PUSH1 0x4 ADD PUSH2 0x1BA8 SWAP1 PUSH2 0x490D JUMP JUMPDEST PUSH1 0x40 MLOAD DUP1 SWAP2 SUB SWAP1 REVERT JUMPDEST POP POP POP JUMP JUMPDEST PUSH1 0x0 PUSH1 0x2 DUP3 MLOAD LT ISZERO PUSH2 0x1BFD JUMPI PUSH1 0x40 MLOAD PUSH32 0x8C379A000000000000000000000000000000000000000000000000000000000 DUP2 MSTORE PUSH1 0x4 ADD PUSH2 0x1BF4 SWAP1 PUSH2 0x4979 JUMP JUMPDEST PUSH1 0x40 MLOAD DUP1 SWAP2 SUB SWAP1 REVERT JUMPDEST PUSH1 0x0 DUP3 MLOAD PUSH8 0xFFFFFFFFFFFFFFFF DUP2 GT ISZERO PUSH2 0x1C1A JUMPI PUSH2 0x1C19 PUSH2 0x4733 JUMP JUMPDEST JUMPDEST PUSH1 0x40 MLOAD SWAP1 DUP1 DUP3 MSTORE DUP1 PUSH1 0x20 MUL PUSH1 0x20 ADD DUP3 ADD PUSH1 0x40 MSTORE DUP1 ISZERO PUSH2 0x1C48 JUMPI DUP2 PUSH1 0x20 ADD PUSH1 0x20 DUP3 MUL DUP1 CALLDATASIZE DUP4 CALLDATACOPY DUP1 DUP3 ADD SWAP2 POP POP SWAP1 POP JUMPDEST POP SWAP1 POP DUP4 DUP2 PUSH1 0x0 DUP2 MLOAD DUP2 LT PUSH2 0x1C60 JUMPI PUSH2 0x1C5F PUSH2 0x4762 JUMP JUMPDEST JUMPDEST PUSH1 0x20 MUL PUSH1 0x20 ADD ADD DUP2 DUP2 MSTORE POP POP PUSH1 0x0 JUMPDEST PUSH1 0x1 DUP5 MLOAD PUSH2 0x1C7D SWAP2 SWAP1 PUSH2 0x41CB JUMP JUMPDEST DUP2 LT ISZERO PUSH2 0x1D47 JUMPI PUSH1 0x0 DUP1 PUSH2 0x1CD2 DUP9 DUP8 DUP6 DUP2 MLOAD DUP2 LT PUSH2 0x1C9E JUMPI PUSH2 0x1C9D PUSH2 0x4762 JUMP JUMPDEST JUMPDEST PUSH1 0x20 MUL PUSH1 0x20 ADD ADD MLOAD DUP9 PUSH1 0x1 DUP8 PUSH2 0x1CB4 SWAP2 SWAP1 PUSH2 0x42A1 JUMP JUMPDEST DUP2 MLOAD DUP2 LT PUSH2 0x1CC5 JUMPI PUSH2 0x1CC4 PUSH2 0x4762 JUMP JUMPDEST JUMPDEST PUSH1 0x20 MUL PUSH1 0x20 ADD ADD MLOAD PUSH2 0x33C3 JUMP JUMPDEST SWAP2 POP SWAP2 POP DUP2 DUP2 DUP6 DUP6 DUP2 MLOAD DUP2 LT PUSH2 0x1CEB JUMPI PUSH2 0x1CEA PUSH2 0x4762 JUMP JUMPDEST JUMPDEST PUSH1 0x20 MUL PUSH1 0x20 ADD ADD MLOAD PUSH2 0x1CFD SWAP2 SWAP1 PUSH2 0x425F JUMP JUMPDEST PUSH2 0x1D07 SWAP2 SWAP1 PUSH2 0x422E JUMP JUMPDEST DUP5 PUSH1 0x1 DUP6 PUSH2 0x1D15 SWAP2 SWAP1 PUSH2 0x42A1 JUMP JUMPDEST DUP2 MLOAD DUP2 LT PUSH2 0x1D26 JUMPI PUSH2 0x1D25 PUSH2 0x4762 JUMP JUMPDEST JUMPDEST PUSH1 0x20 MUL PUSH1 0x20 ADD ADD DUP2 DUP2 MSTORE POP POP POP POP DUP1 DUP1 PUSH2 0x1D3F SWAP1 PUSH2 0x4999 JUMP JUMPDEST SWAP2 POP POP PUSH2 0x1C6F JUMP JUMPDEST POP DUP1 PUSH1 0x1 DUP5 MLOAD PUSH2 0x1D57 SWAP2 SWAP1 PUSH2 0x41CB JUMP JUMPDEST DUP2 MLOAD DUP2 LT PUSH2 0x1D68 JUMPI PUSH2 0x1D67 PUSH2 0x4762 JUMP JUMPDEST JUMPDEST PUSH1 0x20 MUL PUSH1 0x20 ADD ADD MLOAD SWAP2 POP POP SWAP4 SWAP3 POP POP POP JUMP JUMPDEST PUSH8 0x16345785D8A0000 PUSH1 0x11 SLOAD LT ISZERO PUSH2 0x1DAE JUMPI PUSH8 0xDE0B6B3A7640000 PUSH1 0x11 PUSH1 0x0 DUP3 DUP3 SLOAD PUSH2 0x1DA6 SWAP2 SWAP1 PUSH2 0x42A1 JUMP JUMPDEST SWAP3 POP POP DUP2 SWAP1 SSTORE POP JUMPDEST PUSH1 0x0 PUSH2 0x1E5B PUSH1 0x5 PUSH1 0x0 SWAP1 SLOAD SWAP1 PUSH2 0x100 EXP SWAP1 DIV PUSH20 0xFFFFFFFFFFFFFFFFFFFFFFFFFFFFFFFFFFFFFFFF AND PUSH1 0xA PUSH1 0x0 SWAP1 SLOAD SWAP1 PUSH2 0x100 EXP SWAP1 DIV PUSH20 0xFFFFFFFFFFFFFFFFFFFFFFFFFFFFFFFFFFFFFFFF AND PUSH20 0xFFFFFFFFFFFFFFFFFFFFFFFFFFFFFFFFFFFFFFFF AND BALANCE PUSH1 0x6 PUSH1 0x0 SWAP1 SLOAD SWAP1 PUSH2 0x100 EXP SWAP1 DIV PUSH20 0xFFFFFFFFFFFFFFFFFFFFFFFFFFFFFFFFFFFFFFFF AND PUSH1 0x7 PUSH1 0x0 SWAP1 SLOAD SWAP1 PUSH2 0x100 EXP SWAP1 DIV PUSH20 0xFFFFFFFFFFFFFFFFFFFFFFFFFFFFFFFFFFFFFFFF AND PUSH2 0x1A7F JUMP JUMPDEST SWAP1 POP PUSH1 0x0 PUSH1 0x9 PUSH1 0x0 SWAP1 SLOAD SWAP1 PUSH2 0x100 EXP SWAP1 DIV PUSH20 0xFFFFFFFFFFFFFFFFFFFFFFFFFFFFFFFFFFFFFFFF AND PUSH20 0xFFFFFFFFFFFFFFFFFFFFFFFFFFFFFFFFFFFFFFFF AND PUSH4 0x70A08231 PUSH2 0x1F0E PUSH1 0x5 PUSH1 0x0 SWAP1 SLOAD SWAP1 PUSH2 0x100 EXP SWAP1 DIV PUSH20 0xFFFFFFFFFFFFFFFFFFFFFFFFFFFFFFFFFFFFFFFF AND PUSH1 0x9 PUSH1 0x0 SWAP1 SLOAD SWAP1 PUSH2 0x100 EXP SWAP1 DIV PUSH20 0xFFFFFFFFFFFFFFFFFFFFFFFFFFFFFFFFFFFFFFFF AND PUSH1 0x6 PUSH1 0x0 SWAP1 SLOAD SWAP1 PUSH2 0x100 EXP SWAP1 DIV PUSH20 0xFFFFFFFFFFFFFFFFFFFFFFFFFFFFFFFFFFFFFFFF AND PUSH2 0x3530 JUMP JUMPDEST PUSH1 0x40 MLOAD DUP3 PUSH4 0xFFFFFFFF AND PUSH1 0xE0 SHL DUP2 MSTORE PUSH1 0x4 ADD PUSH2 0x1F2A SWAP2 SWAP1 PUSH2 0x3F67 JUMP JUMPDEST PUSH1 0x20 PUSH1 0x40 MLOAD DUP1 DUP4 SUB DUP2 DUP7 GAS STATICCALL ISZERO DUP1 ISZERO PUSH2 0x1F47 JUMPI RETURNDATASIZE PUSH1 0x0 DUP1 RETURNDATACOPY RETURNDATASIZE PUSH1 0x0 REVERT JUMPDEST POP POP POP POP PUSH1 0x40 MLOAD RETURNDATASIZE PUSH1 0x1F NOT PUSH1 0x1F DUP3 ADD AND DUP3 ADD DUP1 PUSH1 0x40 MSTORE POP DUP2 ADD SWAP1 PUSH2 0x1F6B SWAP2 SWAP1 PUSH2 0x47E6 JUMP JUMPDEST SWAP1 POP PUSH1 0x0 PUSH16 0x4B3B4CA85A86C47A098A224000000000 PUSH1 0x4 DUP5 PUSH1 0x2 PUSH8 0xC7D713B49DA0000 DUP9 PUSH2 0x1F99 SWAP2 SWAP1 PUSH2 0x41CB JUMP JUMPDEST PUSH2 0x1FA3 SWAP2 SWAP1 PUSH2 0x4B14 JUMP JUMPDEST PUSH2 0x1FAD SWAP2 SWAP1 PUSH2 0x425F JUMP JUMPDEST PUSH2 0x1FB7 SWAP2 SWAP1 PUSH2 0x425F JUMP JUMPDEST PUSH2 0x1FC1 SWAP2 SWAP1 PUSH2 0x422E JUMP JUMPDEST SWAP1 POP PUSH1 0x0 PUSH8 0xDE0B6B3A7640000 PUSH1 0x11 SLOAD DUP4 PUSH2 0x1FDC SWAP2 SWAP1 PUSH2 0x425F JUMP JUMPDEST PUSH2 0x1FE6 SWAP2 SWAP1 PUSH2 0x422E JUMP JUMPDEST SWAP1 POP PUSH1 0x0 PUSH2 0x2710 DUP5 PUSH1 0x19 PUSH2 0x1FFA SWAP2 SWAP1 PUSH2 0x425F JUMP JUMPDEST PUSH2 0x2004 SWAP2 SWAP1 PUSH2 0x422E JUMP JUMPDEST SWAP1 POP PUSH1 0x0 DUP2 DUP4 LT PUSH2 0x2015 JUMPI DUP2 PUSH2 0x2017 JUMP JUMPDEST DUP3 JUMPDEST SWAP1 POP PUSH1 0x9 PUSH1 0x0 SWAP1 SLOAD SWAP1 PUSH2 0x100 EXP SWAP1 DIV PUSH20 0xFFFFFFFFFFFFFFFFFFFFFFFFFFFFFFFFFFFFFFFF AND PUSH20 0xFFFFFFFFFFFFFFFFFFFFFFFFFFFFFFFFFFFFFFFF AND PUSH4 0x40C10F19 ADDRESS DUP4 PUSH1 0x40 MLOAD DUP4 PUSH4 0xFFFFFFFF AND PUSH1 0xE0 SHL DUP2 MSTORE PUSH1 0x4 ADD PUSH2 0x2076 SWAP3 SWAP2 SWAP1 PUSH2 0x4656 JUMP JUMPDEST PUSH1 0x20 PUSH1 0x40 MLOAD DUP1 DUP4 SUB DUP2 PUSH1 0x0 DUP8 GAS CALL ISZERO DUP1 ISZERO PUSH2 0x2095 JUMPI RETURNDATASIZE PUSH1 0x0 DUP1 RETURNDATACOPY RETURNDATASIZE PUSH1 0x0 REVERT JUMPDEST POP POP POP POP PUSH1 0x40 MLOAD RETURNDATASIZE PUSH1 0x1F NOT PUSH1 0x1F DUP3 ADD AND DUP3 ADD DUP1 PUSH1 0x40 MSTORE POP DUP2 ADD SWAP1 PUSH2 0x20B9 SWAP2 SWAP1 PUSH2 0x4694 JUMP JUMPDEST POP PUSH1 0x0 PUSH1 0x2 PUSH8 0xFFFFFFFFFFFFFFFF DUP2 GT ISZERO PUSH2 0x20D7 JUMPI PUSH2 0x20D6 PUSH2 0x4733 JUMP JUMPDEST JUMPDEST PUSH1 0x40 MLOAD SWAP1 DUP1 DUP3 MSTORE DUP1 PUSH1 0x20 MUL PUSH1 0x20 ADD DUP3 ADD PUSH1 0x40 MSTORE DUP1 ISZERO PUSH2 0x2105 JUMPI DUP2 PUSH1 0x20 ADD PUSH1 0x20 DUP3 MUL DUP1 CALLDATASIZE DUP4 CALLDATACOPY DUP1 DUP3 ADD SWAP2 POP POP SWAP1 POP JUMPDEST POP SWAP1 POP PUSH1 0x9 PUSH1 0x0 SWAP1 SLOAD SWAP1 PUSH2 0x100 EXP SWAP1 DIV PUSH20 0xFFFFFFFFFFFFFFFFFFFFFFFFFFFFFFFFFFFFFFFF AND DUP2 PUSH1 0x0 DUP2 MLOAD DUP2 LT PUSH2 0x213F JUMPI PUSH2 0x213E PUSH2 0x4762 JUMP JUMPDEST JUMPDEST PUSH1 0x20 MUL PUSH1 0x20 ADD ADD SWAP1 PUSH20 0xFFFFFFFFFFFFFFFFFFFFFFFFFFFFFFFFFFFFFFFF AND SWAP1 DUP2 PUSH20 0xFFFFFFFFFFFFFFFFFFFFFFFFFFFFFFFFFFFFFFFF AND DUP2 MSTORE POP POP PUSH1 0x6 PUSH1 0x0 SWAP1 SLOAD SWAP1 PUSH2 0x100 EXP SWAP1 DIV PUSH20 0xFFFFFFFFFFFFFFFFFFFFFFFFFFFFFFFFFFFFFFFF AND DUP2 PUSH1 0x1 DUP2 MLOAD DUP2 LT PUSH2 0x21B0 JUMPI PUSH2 0x21AF PUSH2 0x4762 JUMP JUMPDEST JUMPDEST PUSH1 0x20 MUL PUSH1 0x20 ADD ADD SWAP1 PUSH20 0xFFFFFFFFFFFFFFFFFFFFFFFFFFFFFFFFFFFFFFFF AND SWAP1 DUP2 PUSH20 0xFFFFFFFFFFFFFFFFFFFFFFFFFFFFFFFFFFFFFFFF AND DUP2 MSTORE POP POP PUSH1 0x0 PUSH1 0x64 PUSH1 0x61 PUSH1 0x4 PUSH1 0x0 SWAP1 SLOAD SWAP1 PUSH2 0x100 EXP SWAP1 DIV PUSH20 0xFFFFFFFFFFFFFFFFFFFFFFFFFFFFFFFFFFFFFFFF AND PUSH20 0xFFFFFFFFFFFFFFFFFFFFFFFFFFFFFFFFFFFFFFFF AND PUSH4 0xD06CA61F DUP7 DUP7 PUSH1 0x40 MLOAD DUP4 PUSH4 0xFFFFFFFF AND PUSH1 0xE0 SHL DUP2 MSTORE PUSH1 0x4 ADD PUSH2 0x224D SWAP3 SWAP2 SWAP1 PUSH2 0x4C1D JUMP JUMPDEST PUSH1 0x0 PUSH1 0x40 MLOAD DUP1 DUP4 SUB DUP2 DUP7 GAS STATICCALL ISZERO DUP1 ISZERO PUSH2 0x226A JUMPI RETURNDATASIZE PUSH1 0x0 DUP1 RETURNDATACOPY RETURNDATASIZE PUSH1 0x0 REVERT JUMPDEST POP POP POP POP PUSH1 0x40 MLOAD RETURNDATASIZE PUSH1 0x0 DUP3 RETURNDATACOPY RETURNDATASIZE PUSH1 0x1F NOT PUSH1 0x1F DUP3 ADD AND DUP3 ADD DUP1 PUSH1 0x40 MSTORE POP DUP2 ADD SWAP1 PUSH2 0x2293 SWAP2 SWAP1 PUSH2 0x4D77 JUMP JUMPDEST PUSH1 0x1 DUP6 MLOAD PUSH2 0x22A1 SWAP2 SWAP1 PUSH2 0x41CB JUMP JUMPDEST DUP2 MLOAD DUP2 LT PUSH2 0x22B2 JUMPI PUSH2 0x22B1 PUSH2 0x4762 JUMP JUMPDEST JUMPDEST PUSH1 0x20 MUL PUSH1 0x20 ADD ADD MLOAD PUSH2 0x22C4 SWAP2 SWAP1 PUSH2 0x425F JUMP JUMPDEST PUSH2 0x22CE SWAP2 SWAP1 PUSH2 0x422E JUMP JUMPDEST SWAP1 POP PUSH1 0x4 PUSH1 0x0 SWAP1 SLOAD SWAP1 PUSH2 0x100 EXP SWAP1 DIV PUSH20 0xFFFFFFFFFFFFFFFFFFFFFFFFFFFFFFFFFFFFFFFF AND PUSH20 0xFFFFFFFFFFFFFFFFFFFFFFFFFFFFFFFFFFFFFFFF AND PUSH4 0x18CBAFE5 DUP5 DUP4 DUP6 PUSH1 0xA PUSH1 0x0 SWAP1 SLOAD SWAP1 PUSH2 0x100 EXP SWAP1 DIV PUSH20 0xFFFFFFFFFFFFFFFFFFFFFFFFFFFFFFFFFFFFFFFF AND PUSH2 0x12C TIMESTAMP PUSH2 0x2342 SWAP2 SWAP1 PUSH2 0x42A1 JUMP JUMPDEST PUSH1 0x40 MLOAD DUP7 PUSH4 0xFFFFFFFF AND PUSH1 0xE0 SHL DUP2 MSTORE PUSH1 0x4 ADD PUSH2 0x2362 SWAP6 SWAP5 SWAP4 SWAP3 SWAP2 SWAP1 PUSH2 0x4DC0 JUMP JUMPDEST PUSH1 0x0 PUSH1 0x40 MLOAD DUP1 DUP4 SUB DUP2 PUSH1 0x0 DUP8 GAS CALL ISZERO DUP1 ISZERO PUSH2 0x2381 JUMPI RETURNDATASIZE PUSH1 0x0 DUP1 RETURNDATACOPY RETURNDATASIZE PUSH1 0x0 REVERT JUMPDEST POP POP POP POP PUSH1 0x40 MLOAD RETURNDATASIZE PUSH1 0x0 DUP3 RETURNDATACOPY RETURNDATASIZE PUSH1 0x1F NOT PUSH1 0x1F DUP3 ADD AND DUP3 ADD DUP1 PUSH1 0x40 MSTORE POP DUP2 ADD SWAP1 PUSH2 0x23AA SWAP2 SWAP1 PUSH2 0x4D77 JUMP JUMPDEST POP PUSH1 0x0 DUP10 SWAP1 POP PUSH2 0x23B8 PUSH2 0x134F JUMP JUMPDEST SWAP10 POP PUSH2 0x2465 PUSH1 0x5 PUSH1 0x0 SWAP1 SLOAD SWAP1 PUSH2 0x100 EXP SWAP1 DIV PUSH20 0xFFFFFFFFFFFFFFFFFFFFFFFFFFFFFFFFFFFFFFFF AND PUSH1 0xA PUSH1 0x0 SWAP1 SLOAD SWAP1 PUSH2 0x100 EXP SWAP1 DIV PUSH20 0xFFFFFFFFFFFFFFFFFFFFFFFFFFFFFFFFFFFFFFFF AND PUSH20 0xFFFFFFFFFFFFFFFFFFFFFFFFFFFFFFFFFFFFFFFF AND BALANCE PUSH1 0x6 PUSH1 0x0 SWAP1 SLOAD SWAP1 PUSH2 0x100 EXP SWAP1 DIV PUSH20 0xFFFFFFFFFFFFFFFFFFFFFFFFFFFFFFFFFFFFFFFF AND PUSH1 0x7 PUSH1 0x0 SWAP1 SLOAD SWAP1 PUSH2 0x100 EXP SWAP1 DIV PUSH20 0xFFFFFFFFFFFFFFFFFFFFFFFFFFFFFFFFFFFFFFFF AND PUSH2 0x1A7F JUMP JUMPDEST SWAP9 POP PUSH16 0x4B3B4CA85A86C47A098A224000000000 PUSH1 0x4 DUP11 PUSH1 0x2 PUSH8 0xC7D713B49DA0000 DUP15 PUSH2 0x2491 SWAP2 SWAP1 PUSH2 0x41CB JUMP JUMPDEST PUSH2 0x249B SWAP2 SWAP1 PUSH2 0x4B14 JUMP JUMPDEST PUSH2 0x24A5 SWAP2 SWAP1 PUSH2 0x425F JUMP JUMPDEST PUSH2 0x24AF SWAP2 SWAP1 PUSH2 0x425F JUMP JUMPDEST PUSH2 0x24B9 SWAP2 SWAP1 PUSH2 0x422E JUMP JUMPDEST SWAP7 POP PUSH1 0x0 DUP8 PUSH8 0xDE0B6B3A7640000 DUP7 PUSH2 0x24D2 SWAP2 SWAP1 PUSH2 0x425F JUMP JUMPDEST PUSH2 0x24DC SWAP2 SWAP1 PUSH2 0x422E JUMP JUMPDEST SWAP1 POP PUSH1 0x11 SLOAD DUP2 GT PUSH2 0x24FA JUMPI DUP1 PUSH1 0x11 SLOAD PUSH2 0x24F5 SWAP2 SWAP1 PUSH2 0x41CB JUMP JUMPDEST PUSH2 0x24FD JUMP JUMPDEST PUSH1 0x0 JUMPDEST PUSH1 0x11 DUP2 SWAP1 SSTORE POP TIMESTAMP PUSH1 0x13 DUP2 SWAP1 SSTORE POP PUSH2 0x2512 PUSH2 0x180D JUMP JUMPDEST PUSH20 0xFFFFFFFFFFFFFFFFFFFFFFFFFFFFFFFFFFFFFFFF AND PUSH32 0xB4C03061FB5B7FED76389D5AF8F2E0DDB09F8C70D1333ABBB62582835E10ACCB DUP13 DUP8 DUP6 PUSH1 0x40 MLOAD PUSH2 0x255B SWAP4 SWAP3 SWAP2 SWAP1 PUSH2 0x3EE5 JUMP JUMPDEST PUSH1 0x40 MLOAD DUP1 SWAP2 SUB SWAP1 LOG2 POP POP POP POP POP POP POP POP POP POP POP JUMP JUMPDEST PUSH1 0x0 PUSH2 0x257A PUSH2 0x134F JUMP JUMPDEST SWAP1 POP PUSH8 0x16345785D8A0000 PUSH1 0x12 SLOAD LT ISZERO PUSH2 0x25B0 JUMPI PUSH8 0xDE0B6B3A7640000 PUSH1 0x12 PUSH1 0x0 DUP3 DUP3 SLOAD PUSH2 0x25A8 SWAP2 SWAP1 PUSH2 0x42A1 JUMP JUMPDEST SWAP3 POP POP DUP2 SWAP1 SSTORE POP JUMPDEST PUSH1 0x0 PUSH2 0x265D PUSH1 0x5 PUSH1 0x0 SWAP1 SLOAD SWAP1 PUSH2 0x100 EXP SWAP1 DIV PUSH20 0xFFFFFFFFFFFFFFFFFFFFFFFFFFFFFFFFFFFFFFFF AND PUSH1 0xA PUSH1 0x0 SWAP1 SLOAD SWAP1 PUSH2 0x100 EXP SWAP1 DIV PUSH20 0xFFFFFFFFFFFFFFFFFFFFFFFFFFFFFFFFFFFFFFFF AND PUSH20 0xFFFFFFFFFFFFFFFFFFFFFFFFFFFFFFFFFFFFFFFF AND BALANCE PUSH1 0x6 PUSH1 0x0 SWAP1 SLOAD SWAP1 PUSH2 0x100 EXP SWAP1 DIV PUSH20 0xFFFFFFFFFFFFFFFFFFFFFFFFFFFFFFFFFFFFFFFF AND PUSH1 0x7 PUSH1 0x0 SWAP1 SLOAD SWAP1 PUSH2 0x100 EXP SWAP1 DIV PUSH20 0xFFFFFFFFFFFFFFFFFFFFFFFFFFFFFFFFFFFFFFFF AND PUSH2 0x1A7F JUMP JUMPDEST SWAP1 POP PUSH1 0x0 PUSH2 0x27DE PUSH1 0x5 PUSH1 0x0 SWAP1 SLOAD SWAP1 PUSH2 0x100 EXP SWAP1 DIV PUSH20 0xFFFFFFFFFFFFFFFFFFFFFFFFFFFFFFFFFFFFFFFF AND PUSH1 0x6 PUSH1 0x0 SWAP1 SLOAD SWAP1 PUSH2 0x100 EXP SWAP1 DIV PUSH20 0xFFFFFFFFFFFFFFFFFFFFFFFFFFFFFFFFFFFFFFFF AND PUSH20 0xFFFFFFFFFFFFFFFFFFFFFFFFFFFFFFFFFFFFFFFF AND PUSH4 0x70A08231 PUSH2 0x2736 PUSH1 0x5 PUSH1 0x0 SWAP1 SLOAD SWAP1 PUSH2 0x100 EXP SWAP1 DIV PUSH20 0xFFFFFFFFFFFFFFFFFFFFFFFFFFFFFFFFFFFFFFFF AND PUSH1 0x9 PUSH1 0x0 SWAP1 SLOAD SWAP1 PUSH2 0x100 EXP SWAP1 DIV PUSH20 0xFFFFFFFFFFFFFFFFFFFFFFFFFFFFFFFFFFFFFFFF AND PUSH1 0x6 PUSH1 0x0 SWAP1 SLOAD SWAP1 PUSH2 0x100 EXP SWAP1 DIV PUSH20 0xFFFFFFFFFFFFFFFFFFFFFFFFFFFFFFFFFFFFFFFF AND PUSH2 0x3530 JUMP JUMPDEST PUSH1 0x40 MLOAD DUP3 PUSH4 0xFFFFFFFF AND PUSH1 0xE0 SHL DUP2 MSTORE PUSH1 0x4 ADD PUSH2 0x2752 SWAP2 SWAP1 PUSH2 0x3F67 JUMP JUMPDEST PUSH1 0x20 PUSH1 0x40 MLOAD DUP1 DUP4 SUB DUP2 DUP7 GAS STATICCALL ISZERO DUP1 ISZERO PUSH2 0x276F JUMPI RETURNDATASIZE PUSH1 0x0 DUP1 RETURNDATACOPY RETURNDATASIZE PUSH1 0x0 REVERT JUMPDEST POP POP POP POP PUSH1 0x40 MLOAD RETURNDATASIZE PUSH1 0x1F NOT PUSH1 0x1F DUP3 ADD AND DUP3 ADD DUP1 PUSH1 0x40 MSTORE POP DUP2 ADD SWAP1 PUSH2 0x2793 SWAP2 SWAP1 PUSH2 0x47E6 JUMP JUMPDEST PUSH1 0x6 PUSH1 0x0 SWAP1 SLOAD SWAP1 PUSH2 0x100 EXP SWAP1 DIV PUSH20 0xFFFFFFFFFFFFFFFFFFFFFFFFFFFFFFFFFFFFFFFF AND PUSH1 0x7 PUSH1 0x0 SWAP1 SLOAD SWAP1 PUSH2 0x100 EXP SWAP1 DIV PUSH20 0xFFFFFFFFFFFFFFFFFFFFFFFFFFFFFFFFFFFFFFFF AND PUSH2 0x1A7F JUMP JUMPDEST SWAP1 POP PUSH1 0x0 PUSH17 0x2F050FE938943ACC45F65568000000000 PUSH1 0x4 DUP5 PUSH1 0x2 PUSH2 0x2801 PUSH2 0x134F JUMP JUMPDEST PUSH8 0xF43FC2C04EE0000 PUSH2 0x2814 SWAP2 SWAP1 PUSH2 0x41CB JUMP JUMPDEST PUSH2 0x281E SWAP2 SWAP1 PUSH2 0x4B14 JUMP JUMPDEST PUSH2 0x2828 SWAP2 SWAP1 PUSH2 0x425F JUMP JUMPDEST PUSH2 0x2832 SWAP2 SWAP1 PUSH2 0x425F JUMP JUMPDEST PUSH2 0x283C SWAP2 SWAP1 PUSH2 0x422E JUMP JUMPDEST SWAP1 POP PUSH1 0x0 PUSH8 0xDE0B6B3A7640000 PUSH1 0x12 SLOAD DUP4 PUSH2 0x2857 SWAP2 SWAP1 PUSH2 0x425F JUMP JUMPDEST PUSH2 0x2861 SWAP2 SWAP1 PUSH2 0x422E JUMP JUMPDEST SWAP1 POP PUSH1 0x0 PUSH2 0x2710 DUP5 PUSH1 0x19 PUSH2 0x2875 SWAP2 SWAP1 PUSH2 0x425F JUMP JUMPDEST PUSH2 0x287F SWAP2 SWAP1 PUSH2 0x422E JUMP JUMPDEST SWAP1 POP PUSH1 0x0 DUP2 DUP4 LT PUSH2 0x2890 JUMPI DUP2 PUSH2 0x2892 JUMP JUMPDEST DUP3 JUMPDEST SWAP1 POP PUSH1 0x0 PUSH2 0x2908 PUSH1 0x5 PUSH1 0x0 SWAP1 SLOAD SWAP1 PUSH2 0x100 EXP SWAP1 DIV PUSH20 0xFFFFFFFFFFFFFFFFFFFFFFFFFFFFFFFFFFFFFFFF AND DUP4 PUSH1 0x7 PUSH1 0x0 SWAP1 SLOAD SWAP1 PUSH2 0x100 EXP SWAP1 DIV PUSH20 0xFFFFFFFFFFFFFFFFFFFFFFFFFFFFFFFFFFFFFFFF AND PUSH1 0x6 PUSH1 0x0 SWAP1 SLOAD SWAP1 PUSH2 0x100 EXP SWAP1 DIV PUSH20 0xFFFFFFFFFFFFFFFFFFFFFFFFFFFFFFFFFFFFFFFF AND PUSH2 0x1A7F JUMP JUMPDEST SWAP1 POP PUSH1 0xA PUSH1 0x0 SWAP1 SLOAD SWAP1 PUSH2 0x100 EXP SWAP1 DIV PUSH20 0xFFFFFFFFFFFFFFFFFFFFFFFFFFFFFFFFFFFFFFFF AND PUSH20 0xFFFFFFFFFFFFFFFFFFFFFFFFFFFFFFFFFFFFFFFF AND PUSH4 0x2E1A7D4D DUP3 PUSH1 0x40 MLOAD DUP3 PUSH4 0xFFFFFFFF AND PUSH1 0xE0 SHL DUP2 MSTORE PUSH1 0x4 ADD PUSH2 0x2965 SWAP2 SWAP1 PUSH2 0x3C22 JUMP JUMPDEST PUSH1 0x0 PUSH1 0x40 MLOAD DUP1 DUP4 SUB DUP2 PUSH1 0x0 DUP8 DUP1 EXTCODESIZE ISZERO DUP1 ISZERO PUSH2 0x297F JUMPI PUSH1 0x0 DUP1 REVERT JUMPDEST POP GAS CALL ISZERO DUP1 ISZERO PUSH2 0x2993 JUMPI RETURNDATASIZE PUSH1 0x0 DUP1 RETURNDATACOPY RETURNDATASIZE PUSH1 0x0 REVERT JUMPDEST POP POP POP POP PUSH1 0x0 PUSH1 0x2 PUSH8 0xFFFFFFFFFFFFFFFF DUP2 GT ISZERO PUSH2 0x29B4 JUMPI PUSH2 0x29B3 PUSH2 0x4733 JUMP JUMPDEST JUMPDEST PUSH1 0x40 MLOAD SWAP1 DUP1 DUP3 MSTORE DUP1 PUSH1 0x20 MUL PUSH1 0x20 ADD DUP3 ADD PUSH1 0x40 MSTORE DUP1 ISZERO PUSH2 0x29E2 JUMPI DUP2 PUSH1 0x20 ADD PUSH1 0x20 DUP3 MUL DUP1 CALLDATASIZE DUP4 CALLDATACOPY DUP1 DUP3 ADD SWAP2 POP POP SWAP1 POP JUMPDEST POP SWAP1 POP PUSH1 0x6 PUSH1 0x0 SWAP1 SLOAD SWAP1 PUSH2 0x100 EXP SWAP1 DIV PUSH20 0xFFFFFFFFFFFFFFFFFFFFFFFFFFFFFFFFFFFFFFFF AND DUP2 PUSH1 0x0 DUP2 MLOAD DUP2 LT PUSH2 0x2A1C JUMPI PUSH2 0x2A1B PUSH2 0x4762 JUMP JUMPDEST JUMPDEST PUSH1 0x20 MUL PUSH1 0x20 ADD ADD SWAP1 PUSH20 0xFFFFFFFFFFFFFFFFFFFFFFFFFFFFFFFFFFFFFFFF AND SWAP1 DUP2 PUSH20 0xFFFFFFFFFFFFFFFFFFFFFFFFFFFFFFFFFFFFFFFF AND DUP2 MSTORE POP POP PUSH1 0x9 PUSH1 0x0 SWAP1 SLOAD SWAP1 PUSH2 0x100 EXP SWAP1 DIV PUSH20 0xFFFFFFFFFFFFFFFFFFFFFFFFFFFFFFFFFFFFFFFF AND DUP2 PUSH1 0x1 DUP2 MLOAD DUP2 LT PUSH2 0x2A8D JUMPI PUSH2 0x2A8C PUSH2 0x4762 JUMP JUMPDEST JUMPDEST PUSH1 0x20 MUL PUSH1 0x20 ADD ADD SWAP1 PUSH20 0xFFFFFFFFFFFFFFFFFFFFFFFFFFFFFFFFFFFFFFFF AND SWAP1 DUP2 PUSH20 0xFFFFFFFFFFFFFFFFFFFFFFFFFFFFFFFFFFFFFFFF AND DUP2 MSTORE POP POP PUSH1 0x0 PUSH1 0x64 PUSH1 0x61 PUSH1 0x4 PUSH1 0x0 SWAP1 SLOAD SWAP1 PUSH2 0x100 EXP SWAP1 DIV PUSH20 0xFFFFFFFFFFFFFFFFFFFFFFFFFFFFFFFFFFFFFFFF AND PUSH20 0xFFFFFFFFFFFFFFFFFFFFFFFFFFFFFFFFFFFFFFFF AND PUSH4 0xD06CA61F DUP7 DUP7 PUSH1 0x40 MLOAD DUP4 PUSH4 0xFFFFFFFF AND PUSH1 0xE0 SHL DUP2 MSTORE PUSH1 0x4 ADD PUSH2 0x2B2A SWAP3 SWAP2 SWAP1 PUSH2 0x4C1D JUMP JUMPDEST PUSH1 0x0 PUSH1 0x40 MLOAD DUP1 DUP4 SUB DUP2 DUP7 GAS STATICCALL ISZERO DUP1 ISZERO PUSH2 0x2B47 JUMPI RETURNDATASIZE PUSH1 0x0 DUP1 RETURNDATACOPY RETURNDATASIZE PUSH1 0x0 REVERT JUMPDEST POP POP POP POP PUSH1 0x40 MLOAD RETURNDATASIZE PUSH1 0x0 DUP3 RETURNDATACOPY RETURNDATASIZE PUSH1 0x1F NOT PUSH1 0x1F DUP3 ADD AND DUP3 ADD DUP1 PUSH1 0x40 MSTORE POP DUP2 ADD SWAP1 PUSH2 0x2B70 SWAP2 SWAP1 PUSH2 0x4D77 JUMP JUMPDEST PUSH1 0x1 DUP6 MLOAD PUSH2 0x2B7E SWAP2 SWAP1 PUSH2 0x41CB JUMP JUMPDEST DUP2 MLOAD DUP2 LT PUSH2 0x2B8F JUMPI PUSH2 0x2B8E PUSH2 0x4762 JUMP JUMPDEST JUMPDEST PUSH1 0x20 MUL PUSH1 0x20 ADD ADD MLOAD PUSH2 0x2BA1 SWAP2 SWAP1 PUSH2 0x425F JUMP JUMPDEST PUSH2 0x2BAB SWAP2 SWAP1 PUSH2 0x422E JUMP JUMPDEST SWAP1 POP PUSH1 0x0 PUSH1 0x4 PUSH1 0x0 SWAP1 SLOAD SWAP1 PUSH2 0x100 EXP SWAP1 DIV PUSH20 0xFFFFFFFFFFFFFFFFFFFFFFFFFFFFFFFFFFFFFFFF AND PUSH20 0xFFFFFFFFFFFFFFFFFFFFFFFFFFFFFFFFFFFFFFFF AND PUSH4 0x7FF36AB5 DUP6 DUP5 DUP7 ADDRESS PUSH2 0x12C TIMESTAMP PUSH2 0x2BFF SWAP2 SWAP1 PUSH2 0x42A1 JUMP JUMPDEST PUSH1 0x40 MLOAD DUP7 PUSH4 0xFFFFFFFF AND PUSH1 0xE0 SHL DUP2 MSTORE PUSH1 0x4 ADD PUSH2 0x2C1E SWAP5 SWAP4 SWAP3 SWAP2 SWAP1 PUSH2 0x4E1A JUMP JUMPDEST PUSH1 0x0 PUSH1 0x40 MLOAD DUP1 DUP4 SUB DUP2 DUP6 DUP9 GAS CALL ISZERO DUP1 ISZERO PUSH2 0x2C3C JUMPI RETURNDATASIZE PUSH1 0x0 DUP1 RETURNDATACOPY RETURNDATASIZE PUSH1 0x0 REVERT JUMPDEST POP POP POP POP POP PUSH1 0x40 MLOAD RETURNDATASIZE PUSH1 0x0 DUP3 RETURNDATACOPY RETURNDATASIZE PUSH1 0x1F NOT PUSH1 0x1F DUP3 ADD AND DUP3 ADD DUP1 PUSH1 0x40 MSTORE POP DUP2 ADD SWAP1 PUSH2 0x2C66 SWAP2 SWAP1 PUSH2 0x4D77 JUMP JUMPDEST SWAP1 POP PUSH1 0x0 DUP2 PUSH1 0x1 DUP6 MLOAD PUSH2 0x2C79 SWAP2 SWAP1 PUSH2 0x41CB JUMP JUMPDEST DUP2 MLOAD DUP2 LT PUSH2 0x2C8A JUMPI PUSH2 0x2C89 PUSH2 0x4762 JUMP JUMPDEST JUMPDEST PUSH1 0x20 MUL PUSH1 0x20 ADD ADD MLOAD SWAP1 POP PUSH1 0x9 PUSH1 0x0 SWAP1 SLOAD SWAP1 PUSH2 0x100 EXP SWAP1 DIV PUSH20 0xFFFFFFFFFFFFFFFFFFFFFFFFFFFFFFFFFFFFFFFF AND PUSH20 0xFFFFFFFFFFFFFFFFFFFFFFFFFFFFFFFFFFFFFFFF AND PUSH4 0x42966C68 DUP3 PUSH1 0x40 MLOAD DUP3 PUSH4 0xFFFFFFFF AND PUSH1 0xE0 SHL DUP2 MSTORE PUSH1 0x4 ADD PUSH2 0x2CEF SWAP2 SWAP1 PUSH2 0x3C22 JUMP JUMPDEST PUSH1 0x20 PUSH1 0x40 MLOAD DUP1 DUP4 SUB DUP2 PUSH1 0x0 DUP8 GAS CALL ISZERO DUP1 ISZERO PUSH2 0x2D0E JUMPI RETURNDATASIZE PUSH1 0x0 DUP1 RETURNDATACOPY RETURNDATASIZE PUSH1 0x0 REVERT JUMPDEST POP POP POP POP PUSH1 0x40 MLOAD RETURNDATASIZE PUSH1 0x1F NOT PUSH1 0x1F DUP3 ADD AND DUP3 ADD DUP1 PUSH1 0x40 MSTORE POP DUP2 ADD SWAP1 PUSH2 0x2D32 SWAP2 SWAP1 PUSH2 0x4694 JUMP JUMPDEST POP PUSH2 0x2DDE PUSH1 0x5 PUSH1 0x0 SWAP1 SLOAD SWAP1 PUSH2 0x100 EXP SWAP1 DIV PUSH20 0xFFFFFFFFFFFFFFFFFFFFFFFFFFFFFFFFFFFFFFFF AND PUSH1 0xA PUSH1 0x0 SWAP1 SLOAD SWAP1 PUSH2 0x100 EXP SWAP1 DIV PUSH20 0xFFFFFFFFFFFFFFFFFFFFFFFFFFFFFFFFFFFFFFFF AND PUSH20 0xFFFFFFFFFFFFFFFFFFFFFFFFFFFFFFFFFFFFFFFF AND BALANCE PUSH1 0x6 PUSH1 0x0 SWAP1 SLOAD SWAP1 PUSH2 0x100 EXP SWAP1 DIV PUSH20 0xFFFFFFFFFFFFFFFFFFFFFFFFFFFFFFFFFFFFFFFF AND PUSH1 0x7 PUSH1 0x0 SWAP1 SLOAD SWAP1 PUSH2 0x100 EXP SWAP1 DIV PUSH20 0xFFFFFFFFFFFFFFFFFFFFFFFFFFFFFFFFFFFFFFFF AND PUSH2 0x1A7F JUMP JUMPDEST SWAP11 POP PUSH17 0x2F050FE938943ACC45F65568000000000 PUSH1 0x4 DUP13 PUSH1 0x2 PUSH2 0x2DFF PUSH2 0x134F JUMP JUMPDEST PUSH8 0xF43FC2C04EE0000 PUSH2 0x2E12 SWAP2 SWAP1 PUSH2 0x41CB JUMP JUMPDEST PUSH2 0x2E1C SWAP2 SWAP1 PUSH2 0x4B14 JUMP JUMPDEST PUSH2 0x2E26 SWAP2 SWAP1 PUSH2 0x425F JUMP JUMPDEST PUSH2 0x2E30 SWAP2 SWAP1 PUSH2 0x425F JUMP JUMPDEST PUSH2 0x2E3A SWAP2 SWAP1 PUSH2 0x422E JUMP JUMPDEST SWAP9 POP PUSH1 0x0 DUP10 PUSH8 0xDE0B6B3A7640000 DUP9 PUSH2 0x2E53 SWAP2 SWAP1 PUSH2 0x425F JUMP JUMPDEST PUSH2 0x2E5D SWAP2 SWAP1 PUSH2 0x422E JUMP JUMPDEST SWAP1 POP PUSH1 0x12 SLOAD DUP2 GT PUSH2 0x2E7B JUMPI DUP1 PUSH1 0x12 SLOAD PUSH2 0x2E76 SWAP2 SWAP1 PUSH2 0x41CB JUMP JUMPDEST PUSH2 0x2E7E JUMP JUMPDEST PUSH1 0x0 JUMPDEST PUSH1 0x12 DUP2 SWAP1 SSTORE POP TIMESTAMP PUSH1 0x14 DUP2 SWAP1 SSTORE POP PUSH2 0x2E93 PUSH2 0x180D JUMP JUMPDEST PUSH20 0xFFFFFFFFFFFFFFFFFFFFFFFFFFFFFFFFFFFFFFFF AND PUSH32 0xE5B754FB1ABB7F01B499791D0B820AE3B6AF3424AC1C59768EDB53F4EC31A929 DUP4 DUP16 PUSH1 0x40 MLOAD PUSH2 0x2EDA SWAP3 SWAP2 SWAP1 PUSH2 0x4E66 JUMP JUMPDEST PUSH1 0x40 MLOAD DUP1 SWAP2 SUB SWAP1 LOG2 POP POP POP POP POP POP POP POP POP POP POP POP POP JUMP JUMPDEST PUSH1 0x0 DUP1 PUSH1 0x1 PUSH1 0x0 SWAP1 SLOAD SWAP1 PUSH2 0x100 EXP SWAP1 DIV PUSH20 0xFFFFFFFFFFFFFFFFFFFFFFFFFFFFFFFFFFFFFFFF AND PUSH20 0xFFFFFFFFFFFFFFFFFFFFFFFFFFFFFFFFFFFFFFFF AND PUSH4 0xB810C636 PUSH1 0x40 MLOAD DUP2 PUSH4 0xFFFFFFFF AND PUSH1 0xE0 SHL DUP2 MSTORE PUSH1 0x4 ADD PUSH1 0x40 DUP1 MLOAD DUP1 DUP4 SUB DUP2 DUP7 GAS STATICCALL ISZERO DUP1 ISZERO PUSH2 0x2F60 JUMPI RETURNDATASIZE PUSH1 0x0 DUP1 RETURNDATACOPY RETURNDATASIZE PUSH1 0x0 REVERT JUMPDEST POP POP POP POP PUSH1 0x40 MLOAD RETURNDATASIZE PUSH1 0x1F NOT PUSH1 0x1F DUP3 ADD AND DUP3 ADD DUP1 PUSH1 0x40 MSTORE POP DUP2 ADD SWAP1 PUSH2 0x2F84 SWAP2 SWAP1 PUSH2 0x4EA4 JUMP JUMPDEST DUP1 SWAP3 POP DUP2 SWAP4 POP POP POP SWAP1 SWAP2 JUMP JUMPDEST PUSH20 0xEEEEEEEEEEEEEEEEEEEEEEEEEEEEEEEEEEEEEEEE PUSH20 0xFFFFFFFFFFFFFFFFFFFFFFFFFFFFFFFFFFFFFFFF AND DUP2 PUSH20 0xFFFFFFFFFFFFFFFFFFFFFFFFFFFFFFFFFFFFFFFF AND SUB PUSH2 0x30AB JUMPI PUSH1 0x0 PUSH1 0x2 PUSH1 0x0 SWAP1 SLOAD SWAP1 PUSH2 0x100 EXP SWAP1 DIV PUSH20 0xFFFFFFFFFFFFFFFFFFFFFFFFFFFFFFFFFFFFFFFF AND PUSH20 0xFFFFFFFFFFFFFFFFFFFFFFFFFFFFFFFFFFFFFFFF AND DUP4 PUSH1 0x40 MLOAD PUSH2 0x301F SWAP1 PUSH2 0x4F0A JUMP JUMPDEST PUSH1 0x0 PUSH1 0x40 MLOAD DUP1 DUP4 SUB DUP2 DUP6 DUP8 GAS CALL SWAP3 POP POP POP RETURNDATASIZE DUP1 PUSH1 0x0 DUP2 EQ PUSH2 0x305C JUMPI PUSH1 0x40 MLOAD SWAP2 POP PUSH1 0x1F NOT PUSH1 0x3F RETURNDATASIZE ADD AND DUP3 ADD PUSH1 0x40 MSTORE RETURNDATASIZE DUP3 MSTORE RETURNDATASIZE PUSH1 0x0 PUSH1 0x20 DUP5 ADD RETURNDATACOPY PUSH2 0x3061 JUMP JUMPDEST PUSH1 0x60 SWAP2 POP JUMPDEST POP POP SWAP1 POP DUP1 PUSH2 0x30A5 JUMPI PUSH1 0x40 MLOAD PUSH32 0x8C379A000000000000000000000000000000000000000000000000000000000 DUP2 MSTORE PUSH1 0x4 ADD PUSH2 0x309C SWAP1 PUSH2 0x4F6B JUMP JUMPDEST PUSH1 0x40 MLOAD DUP1 SWAP2 SUB SWAP1 REVERT JUMPDEST POP PUSH2 0x30D9 JUMP JUMPDEST PUSH2 0x30D8 DUP2 PUSH1 0x2 PUSH1 0x0 SWAP1 SLOAD SWAP1 PUSH2 0x100 EXP SWAP1 DIV PUSH20 0xFFFFFFFFFFFFFFFFFFFFFFFFFFFFFFFFFFFFFFFF AND DUP5 PUSH2 0x35B7 JUMP JUMPDEST JUMPDEST POP POP JUMP JUMPDEST PUSH2 0x30E7 DUP3 DUP3 PUSH2 0xCC5 JUMP JUMPDEST PUSH2 0x315E JUMPI PUSH2 0x30F4 DUP2 PUSH2 0x363D JUMP JUMPDEST PUSH2 0x3102 DUP4 PUSH1 0x0 SHR PUSH1 0x20 PUSH2 0x366A JUMP JUMPDEST PUSH1 0x40 MLOAD PUSH1 0x20 ADD PUSH2 0x3113 SWAP3 SWAP2 SWAP1 PUSH2 0x505F JUMP JUMPDEST PUSH1 0x40 MLOAD PUSH1 0x20 DUP2 DUP4 SUB SUB DUP2 MSTORE SWAP1 PUSH1 0x40 MSTORE PUSH1 0x40 MLOAD PUSH32 0x8C379A000000000000000000000000000000000000000000000000000000000 DUP2 MSTORE PUSH1 0x4 ADD PUSH2 0x3155 SWAP2 SWAP1 PUSH2 0x50D2 JUMP JUMPDEST PUSH1 0x40 MLOAD DUP1 SWAP2 SUB SWAP1 REVERT JUMPDEST POP POP JUMP JUMPDEST PUSH1 0x0 DUP2 DUP5 PUSH20 0xFFFFFFFFFFFFFFFFFFFFFFFFFFFFFFFFFFFFFFFF AND PUSH4 0xDD62ED3E ADDRESS DUP7 PUSH1 0x40 MLOAD DUP4 PUSH4 0xFFFFFFFF AND PUSH1 0xE0 SHL DUP2 MSTORE PUSH1 0x4 ADD PUSH2 0x31A0 SWAP3 SWAP2 SWAP1 PUSH2 0x4791 JUMP JUMPDEST PUSH1 0x20 PUSH1 0x40 MLOAD DUP1 DUP4 SUB DUP2 DUP7 GAS STATICCALL ISZERO DUP1 ISZERO PUSH2 0x31BD JUMPI RETURNDATASIZE PUSH1 0x0 DUP1 RETURNDATACOPY RETURNDATASIZE PUSH1 0x0 REVERT JUMPDEST POP POP POP POP PUSH1 0x40 MLOAD RETURNDATASIZE PUSH1 0x1F NOT PUSH1 0x1F DUP3 ADD AND DUP3 ADD DUP1 PUSH1 0x40 MSTORE POP DUP2 ADD SWAP1 PUSH2 0x31E1 SWAP2 SWAP1 PUSH2 0x47E6 JUMP JUMPDEST PUSH2 0x31EB SWAP2 SWAP1 PUSH2 0x42A1 JUMP JUMPDEST SWAP1 POP PUSH2 0x326E DUP5 PUSH4 0x95EA7B3 PUSH1 0xE0 SHL DUP6 DUP5 PUSH1 0x40 MLOAD PUSH1 0x24 ADD PUSH2 0x320C SWAP3 SWAP2 SWAP1 PUSH2 0x4656 JUMP JUMPDEST PUSH1 0x40 MLOAD PUSH1 0x20 DUP2 DUP4 SUB SUB DUP2 MSTORE SWAP1 PUSH1 0x40 MSTORE SWAP1 PUSH28 0xFFFFFFFFFFFFFFFFFFFFFFFFFFFFFFFFFFFFFFFFFFFFFFFFFFFFFFFF NOT AND PUSH1 0x20 DUP3 ADD DUP1 MLOAD PUSH28 0xFFFFFFFFFFFFFFFFFFFFFFFFFFFFFFFFFFFFFFFFFFFFFFFFFFFFFFFF DUP4 DUP2 DUP4 AND OR DUP4 MSTORE POP POP POP POP PUSH2 0x38A6 JUMP JUMPDEST POP POP POP POP JUMP JUMPDEST PUSH1 0x0 DUP2 EQ DUP1 PUSH2 0x32FE JUMPI POP PUSH1 0x0 DUP4 PUSH20 0xFFFFFFFFFFFFFFFFFFFFFFFFFFFFFFFFFFFFFFFF AND PUSH4 0xDD62ED3E ADDRESS DUP6 PUSH1 0x40 MLOAD DUP4 PUSH4 0xFFFFFFFF AND PUSH1 0xE0 SHL DUP2 MSTORE PUSH1 0x4 ADD PUSH2 0x32BB SWAP3 SWAP2 SWAP1 PUSH2 0x4791 JUMP JUMPDEST PUSH1 0x20 PUSH1 0x40 MLOAD DUP1 DUP4 SUB DUP2 DUP7 GAS STATICCALL ISZERO DUP1 ISZERO PUSH2 0x32D8 JUMPI RETURNDATASIZE PUSH1 0x0 DUP1 RETURNDATACOPY RETURNDATASIZE PUSH1 0x0 REVERT JUMPDEST POP POP POP POP PUSH1 0x40 MLOAD RETURNDATASIZE PUSH1 0x1F NOT PUSH1 0x1F DUP3 ADD AND DUP3 ADD DUP1 PUSH1 0x40 MSTORE POP DUP2 ADD SWAP1 PUSH2 0x32FC SWAP2 SWAP1 PUSH2 0x47E6 JUMP JUMPDEST EQ JUMPDEST PUSH2 0x333D JUMPI PUSH1 0x40 MLOAD PUSH32 0x8C379A000000000000000000000000000000000000000000000000000000000 DUP2 MSTORE PUSH1 0x4 ADD PUSH2 0x3334 SWAP1 PUSH2 0x5166 JUMP JUMPDEST PUSH1 0x40 MLOAD DUP1 SWAP2 SUB SWAP1 REVERT JUMPDEST PUSH2 0x33BE DUP4 PUSH4 0x95EA7B3 PUSH1 0xE0 SHL DUP5 DUP5 PUSH1 0x40 MLOAD PUSH1 0x24 ADD PUSH2 0x335C SWAP3 SWAP2 SWAP1 PUSH2 0x4656 JUMP JUMPDEST PUSH1 0x40 MLOAD PUSH1 0x20 DUP2 DUP4 SUB SUB DUP2 MSTORE SWAP1 PUSH1 0x40 MSTORE SWAP1 PUSH28 0xFFFFFFFFFFFFFFFFFFFFFFFFFFFFFFFFFFFFFFFFFFFFFFFFFFFFFFFF NOT AND PUSH1 0x20 DUP3 ADD DUP1 MLOAD PUSH28 0xFFFFFFFFFFFFFFFFFFFFFFFFFFFFFFFFFFFFFFFFFFFFFFFFFFFFFFFF DUP4 DUP2 DUP4 AND OR DUP4 MSTORE POP POP POP POP PUSH2 0x38A6 JUMP JUMPDEST POP POP POP JUMP JUMPDEST PUSH1 0x0 DUP1 PUSH1 0x0 PUSH2 0x33D3 DUP7 DUP7 DUP7 PUSH2 0x3530 JUMP JUMPDEST SWAP1 POP PUSH1 0x0 DUP2 PUSH20 0xFFFFFFFFFFFFFFFFFFFFFFFFFFFFFFFFFFFFFFFF AND PUSH4 0xDFE1681 PUSH1 0x40 MLOAD DUP2 PUSH4 0xFFFFFFFF AND PUSH1 0xE0 SHL DUP2 MSTORE PUSH1 0x4 ADD PUSH1 0x20 PUSH1 0x40 MLOAD DUP1 DUP4 SUB DUP2 DUP7 GAS STATICCALL ISZERO DUP1 ISZERO PUSH2 0x3422 JUMPI RETURNDATASIZE PUSH1 0x0 DUP1 RETURNDATACOPY RETURNDATASIZE PUSH1 0x0 REVERT JUMPDEST POP POP POP POP PUSH1 0x40 MLOAD RETURNDATASIZE PUSH1 0x1F NOT PUSH1 0x1F DUP3 ADD AND DUP3 ADD DUP1 PUSH1 0x40 MSTORE POP DUP2 ADD SWAP1 PUSH2 0x3446 SWAP2 SWAP1 PUSH2 0x5186 JUMP JUMPDEST SWAP1 POP PUSH1 0x0 DUP1 DUP4 PUSH20 0xFFFFFFFFFFFFFFFFFFFFFFFFFFFFFFFFFFFFFFFF AND PUSH4 0x902F1AC PUSH1 0x40 MLOAD DUP2 PUSH4 0xFFFFFFFF AND PUSH1 0xE0 SHL DUP2 MSTORE PUSH1 0x4 ADD PUSH1 0x60 PUSH1 0x40 MLOAD DUP1 DUP4 SUB DUP2 DUP7 GAS STATICCALL ISZERO DUP1 ISZERO PUSH2 0x3496 JUMPI RETURNDATASIZE PUSH1 0x0 DUP1 RETURNDATACOPY RETURNDATASIZE PUSH1 0x0 REVERT JUMPDEST POP POP POP POP PUSH1 0x40 MLOAD RETURNDATASIZE PUSH1 0x1F NOT PUSH1 0x1F DUP3 ADD AND DUP3 ADD DUP1 PUSH1 0x40 MSTORE POP DUP2 ADD SWAP1 PUSH2 0x34BA SWAP2 SWAP1 PUSH2 0x5235 JUMP JUMPDEST POP PUSH14 0xFFFFFFFFFFFFFFFFFFFFFFFFFFFF AND SWAP2 POP PUSH14 0xFFFFFFFFFFFFFFFFFFFFFFFFFFFF AND SWAP2 POP DUP3 PUSH20 0xFFFFFFFFFFFFFFFFFFFFFFFFFFFFFFFFFFFFFFFF AND DUP9 PUSH20 0xFFFFFFFFFFFFFFFFFFFFFFFFFFFFFFFFFFFFFFFF AND EQ PUSH2 0x3519 JUMPI DUP1 DUP3 PUSH2 0x351C JUMP JUMPDEST DUP2 DUP2 JUMPDEST DUP1 SWAP7 POP DUP2 SWAP8 POP POP POP POP POP POP POP SWAP4 POP SWAP4 SWAP2 POP POP JUMP JUMPDEST PUSH1 0x0 DUP4 PUSH20 0xFFFFFFFFFFFFFFFFFFFFFFFFFFFFFFFFFFFFFFFF AND PUSH4 0xE6A43905 DUP5 DUP5 PUSH1 0x40 MLOAD DUP4 PUSH4 0xFFFFFFFF AND PUSH1 0xE0 SHL DUP2 MSTORE PUSH1 0x4 ADD PUSH2 0x356D SWAP3 SWAP2 SWAP1 PUSH2 0x4791 JUMP JUMPDEST PUSH1 0x20 PUSH1 0x40 MLOAD DUP1 DUP4 SUB DUP2 DUP7 GAS STATICCALL ISZERO DUP1 ISZERO PUSH2 0x358A JUMPI RETURNDATASIZE PUSH1 0x0 DUP1 RETURNDATACOPY RETURNDATASIZE PUSH1 0x0 REVERT JUMPDEST POP POP POP POP PUSH1 0x40 MLOAD RETURNDATASIZE PUSH1 0x1F NOT PUSH1 0x1F DUP3 ADD AND DUP3 ADD DUP1 PUSH1 0x40 MSTORE POP DUP2 ADD SWAP1 PUSH2 0x35AE SWAP2 SWAP1 PUSH2 0x5186 JUMP JUMPDEST SWAP1 POP SWAP4 SWAP3 POP POP POP JUMP JUMPDEST PUSH2 0x3638 DUP4 PUSH4 0xA9059CBB PUSH1 0xE0 SHL DUP5 DUP5 PUSH1 0x40 MLOAD PUSH1 0x24 ADD PUSH2 0x35D6 SWAP3 SWAP2 SWAP1 PUSH2 0x4656 JUMP JUMPDEST PUSH1 0x40 MLOAD PUSH1 0x20 DUP2 DUP4 SUB SUB DUP2 MSTORE SWAP1 PUSH1 0x40 MSTORE SWAP1 PUSH28 0xFFFFFFFFFFFFFFFFFFFFFFFFFFFFFFFFFFFFFFFFFFFFFFFFFFFFFFFF NOT AND PUSH1 0x20 DUP3 ADD DUP1 MLOAD PUSH28 0xFFFFFFFFFFFFFFFFFFFFFFFFFFFFFFFFFFFFFFFFFFFFFFFFFFFFFFFF DUP4 DUP2 DUP4 AND OR DUP4 MSTORE POP POP POP POP PUSH2 0x38A6 JUMP JUMPDEST POP POP POP JUMP JUMPDEST PUSH1 0x60 PUSH2 0x3663 DUP3 PUSH20 0xFFFFFFFFFFFFFFFFFFFFFFFFFFFFFFFFFFFFFFFF AND PUSH1 0x14 PUSH1 0xFF AND PUSH2 0x366A JUMP JUMPDEST SWAP1 POP SWAP2 SWAP1 POP JUMP JUMPDEST PUSH1 0x60 PUSH1 0x0 PUSH1 0x2 DUP4 PUSH1 0x2 PUSH2 0x367D SWAP2 SWAP1 PUSH2 0x425F JUMP JUMPDEST PUSH2 0x3687 SWAP2 SWAP1 PUSH2 0x42A1 JUMP JUMPDEST PUSH8 0xFFFFFFFFFFFFFFFF DUP2 GT ISZERO PUSH2 0x36A0 JUMPI PUSH2 0x369F PUSH2 0x4733 JUMP JUMPDEST JUMPDEST PUSH1 0x40 MLOAD SWAP1 DUP1 DUP3 MSTORE DUP1 PUSH1 0x1F ADD PUSH1 0x1F NOT AND PUSH1 0x20 ADD DUP3 ADD PUSH1 0x40 MSTORE DUP1 ISZERO PUSH2 0x36D2 JUMPI DUP2 PUSH1 0x20 ADD PUSH1 0x1 DUP3 MUL DUP1 CALLDATASIZE DUP4 CALLDATACOPY DUP1 DUP3 ADD SWAP2 POP POP SWAP1 POP JUMPDEST POP SWAP1 POP PUSH32 0x3000000000000000000000000000000000000000000000000000000000000000 DUP2 PUSH1 0x0 DUP2 MLOAD DUP2 LT PUSH2 0x370A JUMPI PUSH2 0x3709 PUSH2 0x4762 JUMP JUMPDEST JUMPDEST PUSH1 0x20 ADD ADD SWAP1 PUSH31 0xFFFFFFFFFFFFFFFFFFFFFFFFFFFFFFFFFFFFFFFFFFFFFFFFFFFFFFFFFFFFFF NOT AND SWAP1 DUP2 PUSH1 0x0 BYTE SWAP1 MSTORE8 POP PUSH32 0x7800000000000000000000000000000000000000000000000000000000000000 DUP2 PUSH1 0x1 DUP2 MLOAD DUP2 LT PUSH2 0x376E JUMPI PUSH2 0x376D PUSH2 0x4762 JUMP JUMPDEST JUMPDEST PUSH1 0x20 ADD ADD SWAP1 PUSH31 0xFFFFFFFFFFFFFFFFFFFFFFFFFFFFFFFFFFFFFFFFFFFFFFFFFFFFFFFFFFFFFF NOT AND SWAP1 DUP2 PUSH1 0x0 BYTE SWAP1 MSTORE8 POP PUSH1 0x0 PUSH1 0x1 DUP5 PUSH1 0x2 PUSH2 0x37AE SWAP2 SWAP1 PUSH2 0x425F JUMP JUMPDEST PUSH2 0x37B8 SWAP2 SWAP1 PUSH2 0x42A1 JUMP JUMPDEST SWAP1 POP JUMPDEST PUSH1 0x1 DUP2 GT ISZERO PUSH2 0x3858 JUMPI PUSH32 0x3031323334353637383961626364656600000000000000000000000000000000 PUSH1 0xF DUP7 AND PUSH1 0x10 DUP2 LT PUSH2 0x37FA JUMPI PUSH2 0x37F9 PUSH2 0x4762 JUMP JUMPDEST JUMPDEST BYTE PUSH1 0xF8 SHL DUP3 DUP3 DUP2 MLOAD DUP2 LT PUSH2 0x3811 JUMPI PUSH2 0x3810 PUSH2 0x4762 JUMP JUMPDEST JUMPDEST PUSH1 0x20 ADD ADD SWAP1 PUSH31 0xFFFFFFFFFFFFFFFFFFFFFFFFFFFFFFFFFFFFFFFFFFFFFFFFFFFFFFFFFFFFFF NOT AND SWAP1 DUP2 PUSH1 0x0 BYTE SWAP1 MSTORE8 POP PUSH1 0x4 DUP6 SWAP1 SHR SWAP5 POP DUP1 PUSH2 0x3851 SWAP1 PUSH2 0x5288 JUMP JUMPDEST SWAP1 POP PUSH2 0x37BB JUMP JUMPDEST POP PUSH1 0x0 DUP5 EQ PUSH2 0x389C JUMPI PUSH1 0x40 MLOAD PUSH32 0x8C379A000000000000000000000000000000000000000000000000000000000 DUP2 MSTORE PUSH1 0x4 ADD PUSH2 0x3893 SWAP1 PUSH2 0x52FD JUMP JUMPDEST PUSH1 0x40 MLOAD DUP1 SWAP2 SUB SWAP1 REVERT JUMPDEST DUP1 SWAP2 POP POP SWAP3 SWAP2 POP POP JUMP JUMPDEST PUSH1 0x0 PUSH2 0x3908 DUP3 PUSH1 0x40 MLOAD DUP1 PUSH1 0x40 ADD PUSH1 0x40 MSTORE DUP1 PUSH1 0x20 DUP2 MSTORE PUSH1 0x20 ADD PUSH32 0x5361666545524332303A206C6F772D6C6576656C2063616C6C206661696C6564 DUP2 MSTORE POP DUP6 PUSH20 0xFFFFFFFFFFFFFFFFFFFFFFFFFFFFFFFFFFFFFFFF AND PUSH2 0x396D SWAP1 SWAP3 SWAP2 SWAP1 PUSH4 0xFFFFFFFF AND JUMP JUMPDEST SWAP1 POP PUSH1 0x0 DUP2 MLOAD GT ISZERO PUSH2 0x3968 JUMPI DUP1 DUP1 PUSH1 0x20 ADD SWAP1 MLOAD DUP2 ADD SWAP1 PUSH2 0x3928 SWAP2 SWAP1 PUSH2 0x4694 JUMP JUMPDEST PUSH2 0x3967 JUMPI PUSH1 0x40 MLOAD PUSH32 0x8C379A000000000000000000000000000000000000000000000000000000000 DUP2 MSTORE PUSH1 0x4 ADD PUSH2 0x395E SWAP1 PUSH2 0x538F JUMP JUMPDEST PUSH1 0x40 MLOAD DUP1 SWAP2 SUB SWAP1 REVERT JUMPDEST JUMPDEST POP POP POP JUMP JUMPDEST PUSH1 0x60 PUSH2 0x397C DUP5 DUP5 PUSH1 0x0 DUP6 PUSH2 0x3985 JUMP JUMPDEST SWAP1 POP SWAP4 SWAP3 POP POP POP JUMP JUMPDEST PUSH1 0x60 DUP3 SELFBALANCE LT ISZERO PUSH2 0x39CA JUMPI PUSH1 0x40 MLOAD PUSH32 0x8C379A000000000000000000000000000000000000000000000000000000000 DUP2 MSTORE PUSH1 0x4 ADD PUSH2 0x39C1 SWAP1 PUSH2 0x5421 JUMP JUMPDEST PUSH1 0x40 MLOAD DUP1 SWAP2 SUB SWAP1 REVERT JUMPDEST PUSH1 0x0 DUP1 DUP7 PUSH20 0xFFFFFFFFFFFFFFFFFFFFFFFFFFFFFFFFFFFFFFFF AND DUP6 DUP8 PUSH1 0x40 MLOAD PUSH2 0x39F3 SWAP2 SWAP1 PUSH2 0x4884 JUMP JUMPDEST PUSH1 0x0 PUSH1 0x40 MLOAD DUP1 DUP4 SUB DUP2 DUP6 DUP8 GAS CALL SWAP3 POP POP POP RETURNDATASIZE DUP1 PUSH1 0x0 DUP2 EQ PUSH2 0x3A30 JUMPI PUSH1 0x40 MLOAD SWAP2 POP PUSH1 0x1F NOT PUSH1 0x3F RETURNDATASIZE ADD AND DUP3 ADD PUSH1 0x40 MSTORE RETURNDATASIZE DUP3 MSTORE RETURNDATASIZE PUSH1 0x0 PUSH1 0x20 DUP5 ADD RETURNDATACOPY PUSH2 0x3A35 JUMP JUMPDEST PUSH1 0x60 SWAP2 POP JUMPDEST POP SWAP2 POP SWAP2 POP PUSH2 0x3A46 DUP8 DUP4 DUP4 DUP8 PUSH2 0x3A52 JUMP JUMPDEST SWAP3 POP POP POP SWAP5 SWAP4 POP POP POP POP JUMP JUMPDEST PUSH1 0x60 DUP4 ISZERO PUSH2 0x3AB4 JUMPI PUSH1 0x0 DUP4 MLOAD SUB PUSH2 0x3AAC JUMPI PUSH2 0x3A6C DUP6 PUSH2 0x3AC7 JUMP JUMPDEST PUSH2 0x3AAB JUMPI PUSH1 0x40 MLOAD PUSH32 0x8C379A000000000000000000000000000000000000000000000000000000000 DUP2 MSTORE PUSH1 0x4 ADD PUSH2 0x3AA2 SWAP1 PUSH2 0x548D JUMP JUMPDEST PUSH1 0x40 MLOAD DUP1 SWAP2 SUB SWAP1 REVERT JUMPDEST JUMPDEST DUP3 SWAP1 POP PUSH2 0x3ABF JUMP JUMPDEST PUSH2 0x3ABE DUP4 DUP4 PUSH2 0x3AEA JUMP JUMPDEST JUMPDEST SWAP5 SWAP4 POP POP POP POP JUMP JUMPDEST PUSH1 0x0 DUP1 DUP3 PUSH20 0xFFFFFFFFFFFFFFFFFFFFFFFFFFFFFFFFFFFFFFFF AND EXTCODESIZE GT SWAP1 POP SWAP2 SWAP1 POP JUMP JUMPDEST PUSH1 0x0 DUP3 MLOAD GT ISZERO PUSH2 0x3AFD JUMPI DUP2 MLOAD DUP1 DUP4 PUSH1 0x20 ADD REVERT JUMPDEST DUP1 PUSH1 0x40 MLOAD PUSH32 0x8C379A000000000000000000000000000000000000000000000000000000000 DUP2 MSTORE PUSH1 0x4 ADD PUSH2 0x3B31 SWAP2 SWAP1 PUSH2 0x50D2 JUMP JUMPDEST PUSH1 0x40 MLOAD DUP1 SWAP2 SUB SWAP1 REVERT JUMPDEST PUSH1 0x0 PUSH1 0x40 MLOAD SWAP1 POP SWAP1 JUMP JUMPDEST PUSH1 0x0 DUP1 REVERT JUMPDEST PUSH1 0x0 DUP1 REVERT JUMPDEST PUSH1 0x0 PUSH32 0xFFFFFFFF00000000000000000000000000000000000000000000000000000000 DUP3 AND SWAP1 POP SWAP2 SWAP1 POP JUMP JUMPDEST PUSH2 0x3B83 DUP2 PUSH2 0x3B4E JUMP JUMPDEST DUP2 EQ PUSH2 0x3B8E JUMPI PUSH1 0x0 DUP1 REVERT JUMPDEST POP JUMP JUMPDEST PUSH1 0x0 DUP2 CALLDATALOAD SWAP1 POP PUSH2 0x3BA0 DUP2 PUSH2 0x3B7A JUMP JUMPDEST SWAP3 SWAP2 POP POP JUMP JUMPDEST PUSH1 0x0 PUSH1 0x20 DUP3 DUP5 SUB SLT ISZERO PUSH2 0x3BBC JUMPI PUSH2 0x3BBB PUSH2 0x3B44 JUMP JUMPDEST JUMPDEST PUSH1 0x0 PUSH2 0x3BCA DUP5 DUP3 DUP6 ADD PUSH2 0x3B91 JUMP JUMPDEST SWAP2 POP POP SWAP3 SWAP2 POP POP JUMP JUMPDEST PUSH1 0x0 DUP2 ISZERO ISZERO SWAP1 POP SWAP2 SWAP1 POP JUMP JUMPDEST PUSH2 0x3BE8 DUP2 PUSH2 0x3BD3 JUMP JUMPDEST DUP3 MSTORE POP POP JUMP JUMPDEST PUSH1 0x0 PUSH1 0x20 DUP3 ADD SWAP1 POP PUSH2 0x3C03 PUSH1 0x0 DUP4 ADD DUP5 PUSH2 0x3BDF JUMP JUMPDEST SWAP3 SWAP2 POP POP JUMP JUMPDEST PUSH1 0x0 DUP2 SWAP1 POP SWAP2 SWAP1 POP JUMP JUMPDEST PUSH2 0x3C1C DUP2 PUSH2 0x3C09 JUMP JUMPDEST DUP3 MSTORE POP POP JUMP JUMPDEST PUSH1 0x0 PUSH1 0x20 DUP3 ADD SWAP1 POP PUSH2 0x3C37 PUSH1 0x0 DUP4 ADD DUP5 PUSH2 0x3C13 JUMP JUMPDEST SWAP3 SWAP2 POP POP JUMP JUMPDEST PUSH1 0x0 PUSH16 0xFFFFFFFFFFFFFFFFFFFFFFFFFFFFFFFF DUP3 AND SWAP1 POP SWAP2 SWAP1 POP JUMP JUMPDEST PUSH2 0x3C62 DUP2 PUSH2 0x3C3D JUMP JUMPDEST DUP3 MSTORE POP POP JUMP JUMPDEST PUSH1 0x0 PUSH1 0x20 DUP3 ADD SWAP1 POP PUSH2 0x3C7D PUSH1 0x0 DUP4 ADD DUP5 PUSH2 0x3C59 JUMP JUMPDEST SWAP3 SWAP2 POP POP JUMP JUMPDEST PUSH1 0x0 DUP2 SWAP1 POP SWAP2 SWAP1 POP JUMP JUMPDEST PUSH2 0x3C96 DUP2 PUSH2 0x3C83 JUMP JUMPDEST DUP2 EQ PUSH2 0x3CA1 JUMPI PUSH1 0x0 DUP1 REVERT JUMPDEST POP JUMP JUMPDEST PUSH1 0x0 DUP2 CALLDATALOAD SWAP1 POP PUSH2 0x3CB3 DUP2 PUSH2 0x3C8D JUMP JUMPDEST SWAP3 SWAP2 POP POP JUMP JUMPDEST PUSH1 0x0 PUSH1 0x20 DUP3 DUP5 SUB SLT ISZERO PUSH2 0x3CCF JUMPI PUSH2 0x3CCE PUSH2 0x3B44 JUMP JUMPDEST JUMPDEST PUSH1 0x0 PUSH2 0x3CDD DUP5 DUP3 DUP6 ADD PUSH2 0x3CA4 JUMP JUMPDEST SWAP2 POP POP SWAP3 SWAP2 POP POP JUMP JUMPDEST PUSH2 0x3CEF DUP2 PUSH2 0x3C83 JUMP JUMPDEST DUP3 MSTORE POP POP JUMP JUMPDEST PUSH1 0x0 PUSH1 0x20 DUP3 ADD SWAP1 POP PUSH2 0x3D0A PUSH1 0x0 DUP4 ADD DUP5 PUSH2 0x3CE6 JUMP JUMPDEST SWAP3 SWAP2 POP POP JUMP JUMPDEST PUSH1 0x0 PUSH20 0xFFFFFFFFFFFFFFFFFFFFFFFFFFFFFFFFFFFFFFFF DUP3 AND SWAP1 POP SWAP2 SWAP1 POP JUMP JUMPDEST PUSH1 0x0 DUP2 SWAP1 POP SWAP2 SWAP1 POP JUMP JUMPDEST PUSH1 0x0 PUSH2 0x3D55 PUSH2 0x3D50 PUSH2 0x3D4B DUP5 PUSH2 0x3D10 JUMP JUMPDEST PUSH2 0x3D30 JUMP JUMPDEST PUSH2 0x3D10 JUMP JUMPDEST SWAP1 POP SWAP2 SWAP1 POP JUMP JUMPDEST PUSH1 0x0 PUSH2 0x3D67 DUP3 PUSH2 0x3D3A JUMP JUMPDEST SWAP1 POP SWAP2 SWAP1 POP JUMP JUMPDEST PUSH1 0x0 PUSH2 0x3D79 DUP3 PUSH2 0x3D5C JUMP JUMPDEST SWAP1 POP SWAP2 SWAP1 POP JUMP JUMPDEST PUSH2 0x3D89 DUP2 PUSH2 0x3D6E JUMP JUMPDEST DUP3 MSTORE POP POP JUMP JUMPDEST PUSH1 0x0 PUSH1 0x20 DUP3 ADD SWAP1 POP PUSH2 0x3DA4 PUSH1 0x0 DUP4 ADD DUP5 PUSH2 0x3D80 JUMP JUMPDEST SWAP3 SWAP2 POP POP JUMP JUMPDEST PUSH1 0x0 PUSH2 0x3DB5 DUP3 PUSH2 0x3D10 JUMP JUMPDEST SWAP1 POP SWAP2 SWAP1 POP JUMP JUMPDEST PUSH2 0x3DC5 DUP2 PUSH2 0x3DAA JUMP JUMPDEST DUP2 EQ PUSH2 0x3DD0 JUMPI PUSH1 0x0 DUP1 REVERT JUMPDEST POP JUMP JUMPDEST PUSH1 0x0 DUP2 CALLDATALOAD SWAP1 POP PUSH2 0x3DE2 DUP2 PUSH2 0x3DBC JUMP JUMPDEST SWAP3 SWAP2 POP POP JUMP JUMPDEST PUSH1 0x0 DUP1 PUSH1 0x40 DUP4 DUP6 SUB SLT ISZERO PUSH2 0x3DFF JUMPI PUSH2 0x3DFE PUSH2 0x3B44 JUMP JUMPDEST JUMPDEST PUSH1 0x0 PUSH2 0x3E0D DUP6 DUP3 DUP7 ADD PUSH2 0x3CA4 JUMP JUMPDEST SWAP3 POP POP PUSH1 0x20 PUSH2 0x3E1E DUP6 DUP3 DUP7 ADD PUSH2 0x3DD3 JUMP JUMPDEST SWAP2 POP POP SWAP3 POP SWAP3 SWAP1 POP JUMP JUMPDEST PUSH1 0x0 PUSH2 0x3E33 DUP3 PUSH2 0x3DAA JUMP JUMPDEST SWAP1 POP SWAP2 SWAP1 POP JUMP JUMPDEST PUSH2 0x3E43 DUP2 PUSH2 0x3E28 JUMP JUMPDEST DUP2 EQ PUSH2 0x3E4E JUMPI PUSH1 0x0 DUP1 REVERT JUMPDEST POP JUMP JUMPDEST PUSH1 0x0 DUP2 CALLDATALOAD SWAP1 POP PUSH2 0x3E60 DUP2 PUSH2 0x3E3A JUMP JUMPDEST SWAP3 SWAP2 POP POP JUMP JUMPDEST PUSH2 0x3E6F DUP2 PUSH2 0x3BD3 JUMP JUMPDEST DUP2 EQ PUSH2 0x3E7A JUMPI PUSH1 0x0 DUP1 REVERT JUMPDEST POP JUMP JUMPDEST PUSH1 0x0 DUP2 CALLDATALOAD SWAP1 POP PUSH2 0x3E8C DUP2 PUSH2 0x3E66 JUMP JUMPDEST SWAP3 SWAP2 POP POP JUMP JUMPDEST PUSH1 0x0 DUP1 PUSH1 0x0 PUSH1 0x60 DUP5 DUP7 SUB SLT ISZERO PUSH2 0x3EAB JUMPI PUSH2 0x3EAA PUSH2 0x3B44 JUMP JUMPDEST JUMPDEST PUSH1 0x0 PUSH2 0x3EB9 DUP7 DUP3 DUP8 ADD PUSH2 0x3E51 JUMP JUMPDEST SWAP4 POP POP PUSH1 0x20 PUSH2 0x3ECA DUP7 DUP3 DUP8 ADD PUSH2 0x3DD3 JUMP JUMPDEST SWAP3 POP POP PUSH1 0x40 PUSH2 0x3EDB DUP7 DUP3 DUP8 ADD PUSH2 0x3E7D JUMP JUMPDEST SWAP2 POP POP SWAP3 POP SWAP3 POP SWAP3 JUMP JUMPDEST PUSH1 0x0 PUSH1 0x60 DUP3 ADD SWAP1 POP PUSH2 0x3EFA PUSH1 0x0 DUP4 ADD DUP7 PUSH2 0x3C13 JUMP JUMPDEST PUSH2 0x3F07 PUSH1 0x20 DUP4 ADD DUP6 PUSH2 0x3C13 JUMP JUMPDEST PUSH2 0x3F14 PUSH1 0x40 DUP4 ADD DUP5 PUSH2 0x3C13 JUMP JUMPDEST SWAP5 SWAP4 POP POP POP POP JUMP JUMPDEST PUSH1 0x0 PUSH2 0x3F27 DUP3 PUSH2 0x3D5C JUMP JUMPDEST SWAP1 POP SWAP2 SWAP1 POP JUMP JUMPDEST PUSH2 0x3F37 DUP2 PUSH2 0x3F1C JUMP JUMPDEST DUP3 MSTORE POP POP JUMP JUMPDEST PUSH1 0x0 PUSH1 0x20 DUP3 ADD SWAP1 POP PUSH2 0x3F52 PUSH1 0x0 DUP4 ADD DUP5 PUSH2 0x3F2E JUMP JUMPDEST SWAP3 SWAP2 POP POP JUMP JUMPDEST PUSH2 0x3F61 DUP2 PUSH2 0x3DAA JUMP JUMPDEST DUP3 MSTORE POP POP JUMP JUMPDEST PUSH1 0x0 PUSH1 0x20 DUP3 ADD SWAP1 POP PUSH2 0x3F7C PUSH1 0x0 DUP4 ADD DUP5 PUSH2 0x3F58 JUMP JUMPDEST SWAP3 SWAP2 POP POP JUMP JUMPDEST PUSH1 0x0 PUSH1 0x20 DUP3 DUP5 SUB SLT ISZERO PUSH2 0x3F98 JUMPI PUSH2 0x3F97 PUSH2 0x3B44 JUMP JUMPDEST JUMPDEST PUSH1 0x0 PUSH2 0x3FA6 DUP5 DUP3 DUP6 ADD PUSH2 0x3E7D JUMP JUMPDEST SWAP2 POP POP SWAP3 SWAP2 POP POP JUMP JUMPDEST PUSH1 0x0 PUSH2 0x3FBA DUP3 PUSH2 0x3D5C JUMP JUMPDEST SWAP1 POP SWAP2 SWAP1 POP JUMP JUMPDEST PUSH2 0x3FCA DUP2 PUSH2 0x3FAF JUMP JUMPDEST DUP3 MSTORE POP POP JUMP JUMPDEST PUSH1 0x0 PUSH1 0x20 DUP3 ADD SWAP1 POP PUSH2 0x3FE5 PUSH1 0x0 DUP4 ADD DUP5 PUSH2 0x3FC1 JUMP JUMPDEST SWAP3 SWAP2 POP POP JUMP JUMPDEST PUSH1 0x0 PUSH2 0x3FF6 DUP3 PUSH2 0x3D5C JUMP JUMPDEST SWAP1 POP SWAP2 SWAP1 POP JUMP JUMPDEST PUSH2 0x4006 DUP2 PUSH2 0x3FEB JUMP JUMPDEST DUP3 MSTORE POP POP JUMP JUMPDEST PUSH1 0x0 PUSH1 0x20 DUP3 ADD SWAP1 POP PUSH2 0x4021 PUSH1 0x0 DUP4 ADD DUP5 PUSH2 0x3FFD JUMP JUMPDEST SWAP3 SWAP2 POP POP JUMP JUMPDEST PUSH1 0x0 PUSH1 0xFF DUP3 AND SWAP1 POP SWAP2 SWAP1 POP JUMP JUMPDEST PUSH2 0x403D DUP2 PUSH2 0x4027 JUMP JUMPDEST DUP2 EQ PUSH2 0x4048 JUMPI PUSH1 0x0 DUP1 REVERT JUMPDEST POP JUMP JUMPDEST PUSH1 0x0 DUP2 CALLDATALOAD SWAP1 POP PUSH2 0x405A DUP2 PUSH2 0x4034 JUMP JUMPDEST SWAP3 SWAP2 POP POP JUMP JUMPDEST PUSH1 0x0 PUSH1 0x20 DUP3 DUP5 SUB SLT ISZERO PUSH2 0x4076 JUMPI PUSH2 0x4075 PUSH2 0x3B44 JUMP JUMPDEST JUMPDEST PUSH1 0x0 PUSH2 0x4084 DUP5 DUP3 DUP6 ADD PUSH2 0x404B JUMP JUMPDEST SWAP2 POP POP SWAP3 SWAP2 POP POP JUMP JUMPDEST PUSH1 0x0 DUP3 DUP3 MSTORE PUSH1 0x20 DUP3 ADD SWAP1 POP SWAP3 SWAP2 POP POP JUMP JUMPDEST PUSH32 0x416363657373436F6E74726F6C3A2063616E206F6E6C792072656E6F756E6365 PUSH1 0x0 DUP3 ADD MSTORE PUSH32 0x20726F6C657320666F722073656C660000000000000000000000000000000000 PUSH1 0x20 DUP3 ADD MSTORE POP JUMP JUMPDEST PUSH1 0x0 PUSH2 0x40FA PUSH1 0x2F DUP4 PUSH2 0x408D JUMP JUMPDEST SWAP2 POP PUSH2 0x4105 DUP3 PUSH2 0x409E JUMP JUMPDEST PUSH1 0x40 DUP3 ADD SWAP1 POP SWAP2 SWAP1 POP JUMP JUMPDEST PUSH1 0x0 PUSH1 0x20 DUP3 ADD SWAP1 POP DUP2 DUP2 SUB PUSH1 0x0 DUP4 ADD MSTORE PUSH2 0x4129 DUP2 PUSH2 0x40ED JUMP JUMPDEST SWAP1 POP SWAP2 SWAP1 POP JUMP JUMPDEST PUSH1 0x0 DUP2 SWAP1 POP SWAP3 SWAP2 POP POP JUMP JUMPDEST PUSH32 0x476F7665726E6F72000000000000000000000000000000000000000000000000 PUSH1 0x0 DUP3 ADD MSTORE POP JUMP JUMPDEST PUSH1 0x0 PUSH2 0x4171 PUSH1 0x8 DUP4 PUSH2 0x4130 JUMP JUMPDEST SWAP2 POP PUSH2 0x417C DUP3 PUSH2 0x413B JUMP JUMPDEST PUSH1 0x8 DUP3 ADD SWAP1 POP SWAP2 SWAP1 POP JUMP JUMPDEST PUSH1 0x0 PUSH2 0x4192 DUP3 PUSH2 0x4164 JUMP JUMPDEST SWAP2 POP DUP2 SWAP1 POP SWAP2 SWAP1 POP JUMP JUMPDEST PUSH32 0x4E487B7100000000000000000000000000000000000000000000000000000000 PUSH1 0x0 MSTORE PUSH1 0x11 PUSH1 0x4 MSTORE PUSH1 0x24 PUSH1 0x0 REVERT JUMPDEST PUSH1 0x0 PUSH2 0x41D6 DUP3 PUSH2 0x3C09 JUMP JUMPDEST SWAP2 POP PUSH2 0x41E1 DUP4 PUSH2 0x3C09 JUMP JUMPDEST SWAP3 POP DUP3 DUP3 SUB SWAP1 POP DUP2 DUP2 GT ISZERO PUSH2 0x41F9 JUMPI PUSH2 0x41F8 PUSH2 0x419C JUMP JUMPDEST JUMPDEST SWAP3 SWAP2 POP POP JUMP JUMPDEST PUSH32 0x4E487B7100000000000000000000000000000000000000000000000000000000 PUSH1 0x0 MSTORE PUSH1 0x12 PUSH1 0x4 MSTORE PUSH1 0x24 PUSH1 0x0 REVERT JUMPDEST PUSH1 0x0 PUSH2 0x4239 DUP3 PUSH2 0x3C09 JUMP JUMPDEST SWAP2 POP PUSH2 0x4244 DUP4 PUSH2 0x3C09 JUMP JUMPDEST SWAP3 POP DUP3 PUSH2 0x4254 JUMPI PUSH2 0x4253 PUSH2 0x41FF JUMP JUMPDEST JUMPDEST DUP3 DUP3 DIV SWAP1 POP SWAP3 SWAP2 POP POP JUMP JUMPDEST PUSH1 0x0 PUSH2 0x426A DUP3 PUSH2 0x3C09 JUMP JUMPDEST SWAP2 POP PUSH2 0x4275 DUP4 PUSH2 0x3C09 JUMP JUMPDEST SWAP3 POP DUP3 DUP3 MUL PUSH2 0x4283 DUP2 PUSH2 0x3C09 JUMP JUMPDEST SWAP2 POP DUP3 DUP3 DIV DUP5 EQ DUP4 ISZERO OR PUSH2 0x429A JUMPI PUSH2 0x4299 PUSH2 0x419C JUMP JUMPDEST JUMPDEST POP SWAP3 SWAP2 POP POP JUMP JUMPDEST PUSH1 0x0 PUSH2 0x42AC DUP3 PUSH2 0x3C09 JUMP JUMPDEST SWAP2 POP PUSH2 0x42B7 DUP4 PUSH2 0x3C09 JUMP JUMPDEST SWAP3 POP DUP3 DUP3 ADD SWAP1 POP DUP1 DUP3 GT ISZERO PUSH2 0x42CF JUMPI PUSH2 0x42CE PUSH2 0x419C JUMP JUMPDEST JUMPDEST SWAP3 SWAP2 POP POP JUMP JUMPDEST PUSH32 0x43616C6C65720000000000000000000000000000000000000000000000000000 PUSH1 0x0 DUP3 ADD MSTORE POP JUMP JUMPDEST PUSH1 0x0 PUSH2 0x430B PUSH1 0x6 DUP4 PUSH2 0x4130 JUMP JUMPDEST SWAP2 POP PUSH2 0x4316 DUP3 PUSH2 0x42D5 JUMP JUMPDEST PUSH1 0x6 DUP3 ADD SWAP1 POP SWAP2 SWAP1 POP JUMP JUMPDEST PUSH1 0x0 PUSH2 0x432C DUP3 PUSH2 0x42FE JUMP JUMPDEST SWAP2 POP DUP2 SWAP1 POP SWAP2 SWAP1 POP JUMP JUMPDEST PUSH32 0x436F6E74726F6C3A204F70735265616479537461746520697320616C72656164 PUSH1 0x0 DUP3 ADD MSTORE PUSH32 0x7920746869732073746174650000000000000000000000000000000000000000 PUSH1 0x20 DUP3 ADD MSTORE POP JUMP JUMPDEST PUSH1 0x0 PUSH2 0x4392 PUSH1 0x2C DUP4 PUSH2 0x408D JUMP JUMPDEST SWAP2 POP PUSH2 0x439D DUP3 PUSH2 0x4336 JUMP JUMPDEST PUSH1 0x40 DUP3 ADD SWAP1 POP SWAP2 SWAP1 POP JUMP JUMPDEST PUSH1 0x0 PUSH1 0x20 DUP3 ADD SWAP1 POP DUP2 DUP2 SUB PUSH1 0x0 DUP4 ADD MSTORE PUSH2 0x43C1 DUP2 PUSH2 0x4385 JUMP JUMPDEST SWAP1 POP SWAP2 SWAP1 POP JUMP JUMPDEST PUSH32 0x436F6E74726F6C3A20696E73756666696369656E7420424E4220616D6F756E74 PUSH1 0x0 DUP3 ADD MSTORE POP JUMP JUMPDEST PUSH1 0x0 PUSH2 0x43FE PUSH1 0x20 DUP4 PUSH2 0x408D JUMP JUMPDEST SWAP2 POP PUSH2 0x4409 DUP3 PUSH2 0x43C8 JUMP JUMPDEST PUSH1 0x20 DUP3 ADD SWAP1 POP SWAP2 SWAP1 POP JUMP JUMPDEST PUSH1 0x0 PUSH1 0x20 DUP3 ADD SWAP1 POP DUP2 DUP2 SUB PUSH1 0x0 DUP4 ADD MSTORE PUSH2 0x442D DUP2 PUSH2 0x43F1 JUMP JUMPDEST SWAP1 POP SWAP2 SWAP1 POP JUMP JUMPDEST PUSH32 0x436F6E74726F6C3A20696E697469616C206D696E74206E6F7420796574207374 PUSH1 0x0 DUP3 ADD MSTORE PUSH32 0x6172746564000000000000000000000000000000000000000000000000000000 PUSH1 0x20 DUP3 ADD MSTORE POP JUMP JUMPDEST PUSH1 0x0 PUSH2 0x4490 PUSH1 0x25 DUP4 PUSH2 0x408D JUMP JUMPDEST SWAP2 POP PUSH2 0x449B DUP3 PUSH2 0x4434 JUMP JUMPDEST PUSH1 0x40 DUP3 ADD SWAP1 POP SWAP2 SWAP1 POP JUMP JUMPDEST PUSH1 0x0 PUSH1 0x20 DUP3 ADD SWAP1 POP DUP2 DUP2 SUB PUSH1 0x0 DUP4 ADD MSTORE PUSH2 0x44BF DUP2 PUSH2 0x4483 JUMP JUMPDEST SWAP1 POP SWAP2 SWAP1 POP JUMP JUMPDEST PUSH32 0x436F6E74726F6C3A20696E697469616C206D696E7420656E6465640000000000 PUSH1 0x0 DUP3 ADD MSTORE POP JUMP JUMPDEST PUSH1 0x0 PUSH2 0x44FC PUSH1 0x1B DUP4 PUSH2 0x408D JUMP JUMPDEST SWAP2 POP PUSH2 0x4507 DUP3 PUSH2 0x44C6 JUMP JUMPDEST PUSH1 0x20 DUP3 ADD SWAP1 POP SWAP2 SWAP1 POP JUMP JUMPDEST PUSH1 0x0 PUSH1 0x20 DUP3 ADD SWAP1 POP DUP2 DUP2 SUB PUSH1 0x0 DUP4 ADD MSTORE PUSH2 0x452B DUP2 PUSH2 0x44EF JUMP JUMPDEST SWAP1 POP SWAP2 SWAP1 POP JUMP JUMPDEST PUSH32 0x436F6E74726F6C3A20696E76616C696420616D6F756E7420636F6E7369646572 PUSH1 0x0 DUP3 ADD MSTORE PUSH32 0x696E6720696E697469616C206D696E74206C696D697400000000000000000000 PUSH1 0x20 DUP3 ADD MSTORE POP JUMP JUMPDEST PUSH1 0x0 PUSH2 0x458E PUSH1 0x36 DUP4 PUSH2 0x408D JUMP JUMPDEST SWAP2 POP PUSH2 0x4599 DUP3 PUSH2 0x4532 JUMP JUMPDEST PUSH1 0x40 DUP3 ADD SWAP1 POP SWAP2 SWAP1 POP JUMP JUMPDEST PUSH1 0x0 PUSH1 0x20 DUP3 ADD SWAP1 POP DUP2 DUP2 SUB PUSH1 0x0 DUP4 ADD MSTORE PUSH2 0x45BD DUP2 PUSH2 0x4581 JUMP JUMPDEST SWAP1 POP SWAP2 SWAP1 POP JUMP JUMPDEST PUSH32 0x436F6E74726F6C3A20696E76616C696420616D6F756E7420636F6E7369646572 PUSH1 0x0 DUP3 ADD MSTORE PUSH32 0x696E67206461696C7920696E697469616C206D696E74206C696D697400000000 PUSH1 0x20 DUP3 ADD MSTORE POP JUMP JUMPDEST PUSH1 0x0 PUSH2 0x4620 PUSH1 0x3C DUP4 PUSH2 0x408D JUMP JUMPDEST SWAP2 POP PUSH2 0x462B DUP3 PUSH2 0x45C4 JUMP JUMPDEST PUSH1 0x40 DUP3 ADD SWAP1 POP SWAP2 SWAP1 POP JUMP JUMPDEST PUSH1 0x0 PUSH1 0x20 DUP3 ADD SWAP1 POP DUP2 DUP2 SUB PUSH1 0x0 DUP4 ADD MSTORE PUSH2 0x464F DUP2 PUSH2 0x4613 JUMP JUMPDEST SWAP1 POP SWAP2 SWAP1 POP JUMP JUMPDEST PUSH1 0x0 PUSH1 0x40 DUP3 ADD SWAP1 POP PUSH2 0x466B PUSH1 0x0 DUP4 ADD DUP6 PUSH2 0x3F58 JUMP JUMPDEST PUSH2 0x4678 PUSH1 0x20 DUP4 ADD DUP5 PUSH2 0x3C13 JUMP JUMPDEST SWAP4 SWAP3 POP POP POP JUMP JUMPDEST PUSH1 0x0 DUP2 MLOAD SWAP1 POP PUSH2 0x468E DUP2 PUSH2 0x3E66 JUMP JUMPDEST SWAP3 SWAP2 POP POP JUMP JUMPDEST PUSH1 0x0 PUSH1 0x20 DUP3 DUP5 SUB SLT ISZERO PUSH2 0x46AA JUMPI PUSH2 0x46A9 PUSH2 0x3B44 JUMP JUMPDEST JUMPDEST PUSH1 0x0 PUSH2 0x46B8 DUP5 DUP3 DUP6 ADD PUSH2 0x467F JUMP JUMPDEST SWAP2 POP POP SWAP3 SWAP2 POP POP JUMP JUMPDEST PUSH1 0x0 DUP2 SWAP1 POP SWAP2 SWAP1 POP JUMP JUMPDEST PUSH1 0x0 PUSH2 0x46E6 PUSH2 0x46E1 PUSH2 0x46DC DUP5 PUSH2 0x46C1 JUMP JUMPDEST PUSH2 0x3D30 JUMP JUMPDEST PUSH2 0x3C09 JUMP JUMPDEST SWAP1 POP SWAP2 SWAP1 POP JUMP JUMPDEST PUSH2 0x46F6 DUP2 PUSH2 0x46CB JUMP JUMPDEST DUP3 MSTORE POP POP JUMP JUMPDEST PUSH1 0x0 PUSH1 0x60 DUP3 ADD SWAP1 POP PUSH2 0x4711 PUSH1 0x0 DUP4 ADD DUP7 PUSH2 0x3C13 JUMP JUMPDEST PUSH2 0x471E PUSH1 0x20 DUP4 ADD DUP6 PUSH2 0x3C13 JUMP JUMPDEST PUSH2 0x472B PUSH1 0x40 DUP4 ADD DUP5 PUSH2 0x46ED JUMP JUMPDEST SWAP5 SWAP4 POP POP POP POP JUMP JUMPDEST PUSH32 0x4E487B7100000000000000000000000000000000000000000000000000000000 PUSH1 0x0 MSTORE PUSH1 0x41 PUSH1 0x4 MSTORE PUSH1 0x24 PUSH1 0x0 REVERT JUMPDEST PUSH32 0x4E487B7100000000000000000000000000000000000000000000000000000000 PUSH1 0x0 MSTORE PUSH1 0x32 PUSH1 0x4 MSTORE PUSH1 0x24 PUSH1 0x0 REVERT JUMPDEST PUSH1 0x0 PUSH1 0x40 DUP3 ADD SWAP1 POP PUSH2 0x47A6 PUSH1 0x0 DUP4 ADD DUP6 PUSH2 0x3F58 JUMP JUMPDEST PUSH2 0x47B3 PUSH1 0x20 DUP4 ADD DUP5 PUSH2 0x3F58 JUMP JUMPDEST SWAP4 SWAP3 POP POP POP JUMP JUMPDEST PUSH2 0x47C3 DUP2 PUSH2 0x3C09 JUMP JUMPDEST DUP2 EQ PUSH2 0x47CE JUMPI PUSH1 0x0 DUP1 REVERT JUMPDEST POP JUMP JUMPDEST PUSH1 0x0 DUP2 MLOAD SWAP1 POP PUSH2 0x47E0 DUP2 PUSH2 0x47BA JUMP JUMPDEST SWAP3 SWAP2 POP POP JUMP JUMPDEST PUSH1 0x0 PUSH1 0x20 DUP3 DUP5 SUB SLT ISZERO PUSH2 0x47FC JUMPI PUSH2 0x47FB PUSH2 0x3B44 JUMP JUMPDEST JUMPDEST PUSH1 0x0 PUSH2 0x480A DUP5 DUP3 DUP6 ADD PUSH2 0x47D1 JUMP JUMPDEST SWAP2 POP POP SWAP3 SWAP2 POP POP JUMP JUMPDEST PUSH1 0x0 DUP2 MLOAD SWAP1 POP SWAP2 SWAP1 POP JUMP JUMPDEST PUSH1 0x0 DUP2 SWAP1 POP SWAP3 SWAP2 POP POP JUMP JUMPDEST PUSH1 0x0 JUMPDEST DUP4 DUP2 LT ISZERO PUSH2 0x4847 JUMPI DUP1 DUP3 ADD MLOAD DUP2 DUP5 ADD MSTORE PUSH1 0x20 DUP2 ADD SWAP1 POP PUSH2 0x482C JUMP JUMPDEST PUSH1 0x0 DUP5 DUP5 ADD MSTORE POP POP POP POP JUMP JUMPDEST PUSH1 0x0 PUSH2 0x485E DUP3 PUSH2 0x4813 JUMP JUMPDEST PUSH2 0x4868 DUP2 DUP6 PUSH2 0x481E JUMP JUMPDEST SWAP4 POP PUSH2 0x4878 DUP2 DUP6 PUSH1 0x20 DUP7 ADD PUSH2 0x4829 JUMP JUMPDEST DUP1 DUP5 ADD SWAP2 POP POP SWAP3 SWAP2 POP POP JUMP JUMPDEST PUSH1 0x0 PUSH2 0x4890 DUP3 DUP5 PUSH2 0x4853 JUMP JUMPDEST SWAP2 POP DUP2 SWAP1 POP SWAP3 SWAP2 POP POP JUMP JUMPDEST PUSH32 0x536166654554483A3A736166655472616E736665724554483A20455448207472 PUSH1 0x0 DUP3 ADD MSTORE PUSH32 0x616E73666572206661696C656400000000000000000000000000000000000000 PUSH1 0x20 DUP3 ADD MSTORE POP JUMP JUMPDEST PUSH1 0x0 PUSH2 0x48F7 PUSH1 0x2D DUP4 PUSH2 0x408D JUMP JUMPDEST SWAP2 POP PUSH2 0x4902 DUP3 PUSH2 0x489B JUMP JUMPDEST PUSH1 0x40 DUP3 ADD SWAP1 POP SWAP2 SWAP1 POP JUMP JUMPDEST PUSH1 0x0 PUSH1 0x20 DUP3 ADD SWAP1 POP DUP2 DUP2 SUB PUSH1 0x0 DUP4 ADD MSTORE PUSH2 0x4926 DUP2 PUSH2 0x48EA JUMP JUMPDEST SWAP1 POP SWAP2 SWAP1 POP JUMP JUMPDEST PUSH32 0x44617461466574636865723A20494E56414C49445F5041544800000000000000 PUSH1 0x0 DUP3 ADD MSTORE POP JUMP JUMPDEST PUSH1 0x0 PUSH2 0x4963 PUSH1 0x19 DUP4 PUSH2 0x408D JUMP JUMPDEST SWAP2 POP PUSH2 0x496E DUP3 PUSH2 0x492D JUMP JUMPDEST PUSH1 0x20 DUP3 ADD SWAP1 POP SWAP2 SWAP1 POP JUMP JUMPDEST PUSH1 0x0 PUSH1 0x20 DUP3 ADD SWAP1 POP DUP2 DUP2 SUB PUSH1 0x0 DUP4 ADD MSTORE PUSH2 0x4992 DUP2 PUSH2 0x4956 JUMP JUMPDEST SWAP1 POP SWAP2 SWAP1 POP JUMP JUMPDEST PUSH1 0x0 PUSH2 0x49A4 DUP3 PUSH2 0x3C09 JUMP JUMPDEST SWAP2 POP PUSH32 0xFFFFFFFFFFFFFFFFFFFFFFFFFFFFFFFFFFFFFFFFFFFFFFFFFFFFFFFFFFFFFFFF DUP3 SUB PUSH2 0x49D6 JUMPI PUSH2 0x49D5 PUSH2 0x419C JUMP JUMPDEST JUMPDEST PUSH1 0x1 DUP3 ADD SWAP1 POP SWAP2 SWAP1 POP JUMP JUMPDEST PUSH1 0x0 DUP2 PUSH1 0x1 SHR SWAP1 POP SWAP2 SWAP1 POP JUMP JUMPDEST PUSH1 0x0 DUP1 DUP3 SWAP2 POP DUP4 SWAP1 POP JUMPDEST PUSH1 0x1 DUP6 GT ISZERO PUSH2 0x4A38 JUMPI DUP1 DUP7 DIV DUP2 GT ISZERO PUSH2 0x4A14 JUMPI PUSH2 0x4A13 PUSH2 0x419C JUMP JUMPDEST JUMPDEST PUSH1 0x1 DUP6 AND ISZERO PUSH2 0x4A23 JUMPI DUP1 DUP3 MUL SWAP2 POP JUMPDEST DUP1 DUP2 MUL SWAP1 POP PUSH2 0x4A31 DUP6 PUSH2 0x49E1 JUMP JUMPDEST SWAP5 POP PUSH2 0x49F8 JUMP JUMPDEST SWAP5 POP SWAP5 SWAP3 POP POP POP JUMP JUMPDEST PUSH1 0x0 DUP3 PUSH2 0x4A51 JUMPI PUSH1 0x1 SWAP1 POP PUSH2 0x4B0D JUMP JUMPDEST DUP2 PUSH2 0x4A5F JUMPI PUSH1 0x0 SWAP1 POP PUSH2 0x4B0D JUMP JUMPDEST DUP2 PUSH1 0x1 DUP2 EQ PUSH2 0x4A75 JUMPI PUSH1 0x2 DUP2 EQ PUSH2 0x4A7F JUMPI PUSH2 0x4AAE JUMP JUMPDEST PUSH1 0x1 SWAP2 POP POP PUSH2 0x4B0D JUMP JUMPDEST PUSH1 0xFF DUP5 GT ISZERO PUSH2 0x4A91 JUMPI PUSH2 0x4A90 PUSH2 0x419C JUMP JUMPDEST JUMPDEST DUP4 PUSH1 0x2 EXP SWAP2 POP DUP5 DUP3 GT ISZERO PUSH2 0x4AA8 JUMPI PUSH2 0x4AA7 PUSH2 0x419C JUMP JUMPDEST JUMPDEST POP PUSH2 0x4B0D JUMP JUMPDEST POP PUSH1 0x20 DUP4 LT PUSH2 0x133 DUP4 LT AND PUSH1 0x4E DUP5 LT PUSH1 0xB DUP5 LT AND OR ISZERO PUSH2 0x4AE3 JUMPI DUP3 DUP3 EXP SWAP1 POP DUP4 DUP2 GT ISZERO PUSH2 0x4ADE JUMPI PUSH2 0x4ADD PUSH2 0x419C JUMP JUMPDEST JUMPDEST PUSH2 0x4B0D JUMP JUMPDEST PUSH2 0x4AF0 DUP5 DUP5 DUP5 PUSH1 0x1 PUSH2 0x49EE JUMP JUMPDEST SWAP3 POP SWAP1 POP DUP2 DUP5 DIV DUP2 GT ISZERO PUSH2 0x4B07 JUMPI PUSH2 0x4B06 PUSH2 0x419C JUMP JUMPDEST JUMPDEST DUP2 DUP2 MUL SWAP1 POP JUMPDEST SWAP4 SWAP3 POP POP POP JUMP JUMPDEST PUSH1 0x0 PUSH2 0x4B1F DUP3 PUSH2 0x3C09 JUMP JUMPDEST SWAP2 POP PUSH2 0x4B2A DUP4 PUSH2 0x4027 JUMP JUMPDEST SWAP3 POP PUSH2 0x4B57 PUSH32 0xFFFFFFFFFFFFFFFFFFFFFFFFFFFFFFFFFFFFFFFFFFFFFFFFFFFFFFFFFFFFFFFF DUP5 DUP5 PUSH2 0x4A41 JUMP JUMPDEST SWAP1 POP SWAP3 SWAP2 POP POP JUMP JUMPDEST PUSH1 0x0 DUP2 MLOAD SWAP1 POP SWAP2 SWAP1 POP JUMP JUMPDEST PUSH1 0x0 DUP3 DUP3 MSTORE PUSH1 0x20 DUP3 ADD SWAP1 POP SWAP3 SWAP2 POP POP JUMP JUMPDEST PUSH1 0x0 DUP2 SWAP1 POP PUSH1 0x20 DUP3 ADD SWAP1 POP SWAP2 SWAP1 POP JUMP JUMPDEST PUSH2 0x4B94 DUP2 PUSH2 0x3DAA JUMP JUMPDEST DUP3 MSTORE POP POP JUMP JUMPDEST PUSH1 0x0 PUSH2 0x4BA6 DUP4 DUP4 PUSH2 0x4B8B JUMP JUMPDEST PUSH1 0x20 DUP4 ADD SWAP1 POP SWAP3 SWAP2 POP POP JUMP JUMPDEST PUSH1 0x0 PUSH1 0x20 DUP3 ADD SWAP1 POP SWAP2 SWAP1 POP JUMP JUMPDEST PUSH1 0x0 PUSH2 0x4BCA DUP3 PUSH2 0x4B5F JUMP JUMPDEST PUSH2 0x4BD4 DUP2 DUP6 PUSH2 0x4B6A JUMP JUMPDEST SWAP4 POP PUSH2 0x4BDF DUP4 PUSH2 0x4B7B JUMP JUMPDEST DUP1 PUSH1 0x0 JUMPDEST DUP4 DUP2 LT ISZERO PUSH2 0x4C10 JUMPI DUP2 MLOAD PUSH2 0x4BF7 DUP9 DUP3 PUSH2 0x4B9A JUMP JUMPDEST SWAP8 POP PUSH2 0x4C02 DUP4 PUSH2 0x4BB2 JUMP JUMPDEST SWAP3 POP POP PUSH1 0x1 DUP2 ADD SWAP1 POP PUSH2 0x4BE3 JUMP JUMPDEST POP DUP6 SWAP4 POP POP POP POP SWAP3 SWAP2 POP POP JUMP JUMPDEST PUSH1 0x0 PUSH1 0x40 DUP3 ADD SWAP1 POP PUSH2 0x4C32 PUSH1 0x0 DUP4 ADD DUP6 PUSH2 0x3C13 JUMP JUMPDEST DUP2 DUP2 SUB PUSH1 0x20 DUP4 ADD MSTORE PUSH2 0x4C44 DUP2 DUP5 PUSH2 0x4BBF JUMP JUMPDEST SWAP1 POP SWAP4 SWAP3 POP POP POP JUMP JUMPDEST PUSH1 0x0 DUP1 REVERT JUMPDEST PUSH1 0x0 PUSH1 0x1F NOT PUSH1 0x1F DUP4 ADD AND SWAP1 POP SWAP2 SWAP1 POP JUMP JUMPDEST PUSH2 0x4C6C DUP3 PUSH2 0x4C52 JUMP JUMPDEST DUP2 ADD DUP2 DUP2 LT PUSH8 0xFFFFFFFFFFFFFFFF DUP3 GT OR ISZERO PUSH2 0x4C8B JUMPI PUSH2 0x4C8A PUSH2 0x4733 JUMP JUMPDEST JUMPDEST DUP1 PUSH1 0x40 MSTORE POP POP POP JUMP JUMPDEST PUSH1 0x0 PUSH2 0x4C9E PUSH2 0x3B3A JUMP JUMPDEST SWAP1 POP PUSH2 0x4CAA DUP3 DUP3 PUSH2 0x4C63 JUMP JUMPDEST SWAP2 SWAP1 POP JUMP JUMPDEST PUSH1 0x0 PUSH8 0xFFFFFFFFFFFFFFFF DUP3 GT ISZERO PUSH2 0x4CCA JUMPI PUSH2 0x4CC9 PUSH2 0x4733 JUMP JUMPDEST JUMPDEST PUSH1 0x20 DUP3 MUL SWAP1 POP PUSH1 0x20 DUP2 ADD SWAP1 POP SWAP2 SWAP1 POP JUMP JUMPDEST PUSH1 0x0 DUP1 REVERT JUMPDEST PUSH1 0x0 PUSH2 0x4CF3 PUSH2 0x4CEE DUP5 PUSH2 0x4CAF JUMP JUMPDEST PUSH2 0x4C94 JUMP JUMPDEST SWAP1 POP DUP1 DUP4 DUP3 MSTORE PUSH1 0x20 DUP3 ADD SWAP1 POP PUSH1 0x20 DUP5 MUL DUP4 ADD DUP6 DUP2 GT ISZERO PUSH2 0x4D16 JUMPI PUSH2 0x4D15 PUSH2 0x4CDB JUMP JUMPDEST JUMPDEST DUP4 JUMPDEST DUP2 DUP2 LT ISZERO PUSH2 0x4D3F JUMPI DUP1 PUSH2 0x4D2B DUP9 DUP3 PUSH2 0x47D1 JUMP JUMPDEST DUP5 MSTORE PUSH1 0x20 DUP5 ADD SWAP4 POP POP PUSH1 0x20 DUP2 ADD SWAP1 POP PUSH2 0x4D18 JUMP JUMPDEST POP POP POP SWAP4 SWAP3 POP POP POP JUMP JUMPDEST PUSH1 0x0 DUP3 PUSH1 0x1F DUP4 ADD SLT PUSH2 0x4D5E JUMPI PUSH2 0x4D5D PUSH2 0x4C4D JUMP JUMPDEST JUMPDEST DUP2 MLOAD PUSH2 0x4D6E DUP5 DUP3 PUSH1 0x20 DUP7 ADD PUSH2 0x4CE0 JUMP JUMPDEST SWAP2 POP POP SWAP3 SWAP2 POP POP JUMP JUMPDEST PUSH1 0x0 PUSH1 0x20 DUP3 DUP5 SUB SLT ISZERO PUSH2 0x4D8D JUMPI PUSH2 0x4D8C PUSH2 0x3B44 JUMP JUMPDEST JUMPDEST PUSH1 0x0 DUP3 ADD MLOAD PUSH8 0xFFFFFFFFFFFFFFFF DUP2 GT ISZERO PUSH2 0x4DAB JUMPI PUSH2 0x4DAA PUSH2 0x3B49 JUMP JUMPDEST JUMPDEST PUSH2 0x4DB7 DUP5 DUP3 DUP6 ADD PUSH2 0x4D49 JUMP JUMPDEST SWAP2 POP POP SWAP3 SWAP2 POP POP JUMP JUMPDEST PUSH1 0x0 PUSH1 0xA0 DUP3 ADD SWAP1 POP PUSH2 0x4DD5 PUSH1 0x0 DUP4 ADD DUP9 PUSH2 0x3C13 JUMP JUMPDEST PUSH2 0x4DE2 PUSH1 0x20 DUP4 ADD DUP8 PUSH2 0x3C13 JUMP JUMPDEST DUP2 DUP2 SUB PUSH1 0x40 DUP4 ADD MSTORE PUSH2 0x4DF4 DUP2 DUP7 PUSH2 0x4BBF JUMP JUMPDEST SWAP1 POP PUSH2 0x4E03 PUSH1 0x60 DUP4 ADD DUP6 PUSH2 0x3F58 JUMP JUMPDEST PUSH2 0x4E10 PUSH1 0x80 DUP4 ADD DUP5 PUSH2 0x3C13 JUMP JUMPDEST SWAP7 SWAP6 POP POP POP POP POP POP JUMP JUMPDEST PUSH1 0x0 PUSH1 0x80 DUP3 ADD SWAP1 POP PUSH2 0x4E2F PUSH1 0x0 DUP4 ADD DUP8 PUSH2 0x3C13 JUMP JUMPDEST DUP2 DUP2 SUB PUSH1 0x20 DUP4 ADD MSTORE PUSH2 0x4E41 DUP2 DUP7 PUSH2 0x4BBF JUMP JUMPDEST SWAP1 POP PUSH2 0x4E50 PUSH1 0x40 DUP4 ADD DUP6 PUSH2 0x3F58 JUMP JUMPDEST PUSH2 0x4E5D PUSH1 0x60 DUP4 ADD DUP5 PUSH2 0x3C13 JUMP JUMPDEST SWAP6 SWAP5 POP POP POP POP POP JUMP JUMPDEST PUSH1 0x0 PUSH1 0x40 DUP3 ADD SWAP1 POP PUSH2 0x4E7B PUSH1 0x0 DUP4 ADD DUP6 PUSH2 0x3C13 JUMP JUMPDEST PUSH2 0x4E88 PUSH1 0x20 DUP4 ADD DUP5 PUSH2 0x3C13 JUMP JUMPDEST SWAP4 SWAP3 POP POP POP JUMP JUMPDEST PUSH1 0x0 DUP2 MLOAD SWAP1 POP PUSH2 0x4E9E DUP2 PUSH2 0x3DBC JUMP JUMPDEST SWAP3 SWAP2 POP POP JUMP JUMPDEST PUSH1 0x0 DUP1 PUSH1 0x40 DUP4 DUP6 SUB SLT ISZERO PUSH2 0x4EBB JUMPI PUSH2 0x4EBA PUSH2 0x3B44 JUMP JUMPDEST JUMPDEST PUSH1 0x0 PUSH2 0x4EC9 DUP6 DUP3 DUP7 ADD PUSH2 0x47D1 JUMP JUMPDEST SWAP3 POP POP PUSH1 0x20 PUSH2 0x4EDA DUP6 DUP3 DUP7 ADD PUSH2 0x4E8F JUMP JUMPDEST SWAP2 POP POP SWAP3 POP SWAP3 SWAP1 POP JUMP JUMPDEST POP JUMP JUMPDEST PUSH1 0x0 PUSH2 0x4EF4 PUSH1 0x0 DUP4 PUSH2 0x481E JUMP JUMPDEST SWAP2 POP PUSH2 0x4EFF DUP3 PUSH2 0x4EE4 JUMP JUMPDEST PUSH1 0x0 DUP3 ADD SWAP1 POP SWAP2 SWAP1 POP JUMP JUMPDEST PUSH1 0x0 PUSH2 0x4F15 DUP3 PUSH2 0x4EE7 JUMP JUMPDEST SWAP2 POP DUP2 SWAP1 POP SWAP2 SWAP1 POP JUMP JUMPDEST PUSH32 0x4F707352656164793A20455448207472616E73666572206661696C6564000000 PUSH1 0x0 DUP3 ADD MSTORE POP JUMP JUMPDEST PUSH1 0x0 PUSH2 0x4F55 PUSH1 0x1D DUP4 PUSH2 0x408D JUMP JUMPDEST SWAP2 POP PUSH2 0x4F60 DUP3 PUSH2 0x4F1F JUMP JUMPDEST PUSH1 0x20 DUP3 ADD SWAP1 POP SWAP2 SWAP1 POP JUMP JUMPDEST PUSH1 0x0 PUSH1 0x20 DUP3 ADD SWAP1 POP DUP2 DUP2 SUB PUSH1 0x0 DUP4 ADD MSTORE PUSH2 0x4F84 DUP2 PUSH2 0x4F48 JUMP JUMPDEST SWAP1 POP SWAP2 SWAP1 POP JUMP JUMPDEST PUSH32 0x416363657373436F6E74726F6C3A206163636F756E7420000000000000000000 PUSH1 0x0 DUP3 ADD MSTORE POP JUMP JUMPDEST PUSH1 0x0 PUSH2 0x4FC1 PUSH1 0x17 DUP4 PUSH2 0x4130 JUMP JUMPDEST SWAP2 POP PUSH2 0x4FCC DUP3 PUSH2 0x4F8B JUMP JUMPDEST PUSH1 0x17 DUP3 ADD SWAP1 POP SWAP2 SWAP1 POP JUMP JUMPDEST PUSH1 0x0 DUP2 MLOAD SWAP1 POP SWAP2 SWAP1 POP JUMP JUMPDEST PUSH1 0x0 PUSH2 0x4FED DUP3 PUSH2 0x4FD7 JUMP JUMPDEST PUSH2 0x4FF7 DUP2 DUP6 PUSH2 0x4130 JUMP JUMPDEST SWAP4 POP PUSH2 0x5007 DUP2 DUP6 PUSH1 0x20 DUP7 ADD PUSH2 0x4829 JUMP JUMPDEST DUP1 DUP5 ADD SWAP2 POP POP SWAP3 SWAP2 POP POP JUMP JUMPDEST PUSH32 0x206973206D697373696E6720726F6C6520000000000000000000000000000000 PUSH1 0x0 DUP3 ADD MSTORE POP JUMP JUMPDEST PUSH1 0x0 PUSH2 0x5049 PUSH1 0x11 DUP4 PUSH2 0x4130 JUMP JUMPDEST SWAP2 POP PUSH2 0x5054 DUP3 PUSH2 0x5013 JUMP JUMPDEST PUSH1 0x11 DUP3 ADD SWAP1 POP SWAP2 SWAP1 POP JUMP JUMPDEST PUSH1 0x0 PUSH2 0x506A DUP3 PUSH2 0x4FB4 JUMP JUMPDEST SWAP2 POP PUSH2 0x5076 DUP3 DUP6 PUSH2 0x4FE2 JUMP JUMPDEST SWAP2 POP PUSH2 0x5081 DUP3 PUSH2 0x503C JUMP JUMPDEST SWAP2 POP PUSH2 0x508D DUP3 DUP5 PUSH2 0x4FE2 JUMP JUMPDEST SWAP2 POP DUP2 SWAP1 POP SWAP4 SWAP3 POP POP POP JUMP JUMPDEST PUSH1 0x0 PUSH2 0x50A4 DUP3 PUSH2 0x4FD7 JUMP JUMPDEST PUSH2 0x50AE DUP2 DUP6 PUSH2 0x408D JUMP JUMPDEST SWAP4 POP PUSH2 0x50BE DUP2 DUP6 PUSH1 0x20 DUP7 ADD PUSH2 0x4829 JUMP JUMPDEST PUSH2 0x50C7 DUP2 PUSH2 0x4C52 JUMP JUMPDEST DUP5 ADD SWAP2 POP POP SWAP3 SWAP2 POP POP JUMP JUMPDEST PUSH1 0x0 PUSH1 0x20 DUP3 ADD SWAP1 POP DUP2 DUP2 SUB PUSH1 0x0 DUP4 ADD MSTORE PUSH2 0x50EC DUP2 DUP5 PUSH2 0x5099 JUMP JUMPDEST SWAP1 POP SWAP3 SWAP2 POP POP JUMP JUMPDEST PUSH32 0x5361666545524332303A20617070726F76652066726F6D206E6F6E2D7A65726F PUSH1 0x0 DUP3 ADD MSTORE PUSH32 0x20746F206E6F6E2D7A65726F20616C6C6F77616E636500000000000000000000 PUSH1 0x20 DUP3 ADD MSTORE POP JUMP JUMPDEST PUSH1 0x0 PUSH2 0x5150 PUSH1 0x36 DUP4 PUSH2 0x408D JUMP JUMPDEST SWAP2 POP PUSH2 0x515B DUP3 PUSH2 0x50F4 JUMP JUMPDEST PUSH1 0x40 DUP3 ADD SWAP1 POP SWAP2 SWAP1 POP JUMP JUMPDEST PUSH1 0x0 PUSH1 0x20 DUP3 ADD SWAP1 POP DUP2 DUP2 SUB PUSH1 0x0 DUP4 ADD MSTORE PUSH2 0x517F DUP2 PUSH2 0x5143 JUMP JUMPDEST SWAP1 POP SWAP2 SWAP1 POP JUMP JUMPDEST PUSH1 0x0 PUSH1 0x20 DUP3 DUP5 SUB SLT ISZERO PUSH2 0x519C JUMPI PUSH2 0x519B PUSH2 0x3B44 JUMP JUMPDEST JUMPDEST PUSH1 0x0 PUSH2 0x51AA DUP5 DUP3 DUP6 ADD PUSH2 0x4E8F JUMP JUMPDEST SWAP2 POP POP SWAP3 SWAP2 POP POP JUMP JUMPDEST PUSH1 0x0 PUSH14 0xFFFFFFFFFFFFFFFFFFFFFFFFFFFF DUP3 AND SWAP1 POP SWAP2 SWAP1 POP JUMP JUMPDEST PUSH2 0x51D6 DUP2 PUSH2 0x51B3 JUMP JUMPDEST DUP2 EQ PUSH2 0x51E1 JUMPI PUSH1 0x0 DUP1 REVERT JUMPDEST POP JUMP JUMPDEST PUSH1 0x0 DUP2 MLOAD SWAP1 POP PUSH2 0x51F3 DUP2 PUSH2 0x51CD JUMP JUMPDEST SWAP3 SWAP2 POP POP JUMP JUMPDEST PUSH1 0x0 PUSH4 0xFFFFFFFF DUP3 AND SWAP1 POP SWAP2 SWAP1 POP JUMP JUMPDEST PUSH2 0x5212 DUP2 PUSH2 0x51F9 JUMP JUMPDEST DUP2 EQ PUSH2 0x521D JUMPI PUSH1 0x0 DUP1 REVERT JUMPDEST POP JUMP JUMPDEST PUSH1 0x0 DUP2 MLOAD SWAP1 POP PUSH2 0x522F DUP2 PUSH2 0x5209 JUMP JUMPDEST SWAP3 SWAP2 POP POP JUMP JUMPDEST PUSH1 0x0 DUP1 PUSH1 0x0 PUSH1 0x60 DUP5 DUP7 SUB SLT ISZERO PUSH2 0x524E JUMPI PUSH2 0x524D PUSH2 0x3B44 JUMP JUMPDEST JUMPDEST PUSH1 0x0 PUSH2 0x525C DUP7 DUP3 DUP8 ADD PUSH2 0x51E4 JUMP JUMPDEST SWAP4 POP POP PUSH1 0x20 PUSH2 0x526D DUP7 DUP3 DUP8 ADD PUSH2 0x51E4 JUMP JUMPDEST SWAP3 POP POP PUSH1 0x40 PUSH2 0x527E DUP7 DUP3 DUP8 ADD PUSH2 0x5220 JUMP JUMPDEST SWAP2 POP POP SWAP3 POP SWAP3 POP SWAP3 JUMP JUMPDEST PUSH1 0x0 PUSH2 0x5293 DUP3 PUSH2 0x3C09 JUMP JUMPDEST SWAP2 POP PUSH1 0x0 DUP3 SUB PUSH2 0x52A6 JUMPI PUSH2 0x52A5 PUSH2 0x419C JUMP JUMPDEST JUMPDEST PUSH1 0x1 DUP3 SUB SWAP1 POP SWAP2 SWAP1 POP JUMP JUMPDEST PUSH32 0x537472696E67733A20686578206C656E67746820696E73756666696369656E74 PUSH1 0x0 DUP3 ADD MSTORE POP JUMP JUMPDEST PUSH1 0x0 PUSH2 0x52E7 PUSH1 0x20 DUP4 PUSH2 0x408D JUMP JUMPDEST SWAP2 POP PUSH2 0x52F2 DUP3 PUSH2 0x52B1 JUMP JUMPDEST PUSH1 0x20 DUP3 ADD SWAP1 POP SWAP2 SWAP1 POP JUMP JUMPDEST PUSH1 0x0 PUSH1 0x20 DUP3 ADD SWAP1 POP DUP2 DUP2 SUB PUSH1 0x0 DUP4 ADD MSTORE PUSH2 0x5316 DUP2 PUSH2 0x52DA JUMP JUMPDEST SWAP1 POP SWAP2 SWAP1 POP JUMP JUMPDEST PUSH32 0x5361666545524332303A204552433230206F7065726174696F6E20646964206E PUSH1 0x0 DUP3 ADD MSTORE PUSH32 0x6F74207375636365656400000000000000000000000000000000000000000000 PUSH1 0x20 DUP3 ADD MSTORE POP JUMP JUMPDEST PUSH1 0x0 PUSH2 0x5379 PUSH1 0x2A DUP4 PUSH2 0x408D JUMP JUMPDEST SWAP2 POP PUSH2 0x5384 DUP3 PUSH2 0x531D JUMP JUMPDEST PUSH1 0x40 DUP3 ADD SWAP1 POP SWAP2 SWAP1 POP JUMP JUMPDEST PUSH1 0x0 PUSH1 0x20 DUP3 ADD SWAP1 POP DUP2 DUP2 SUB PUSH1 0x0 DUP4 ADD MSTORE PUSH2 0x53A8 DUP2 PUSH2 0x536C JUMP JUMPDEST SWAP1 POP SWAP2 SWAP1 POP JUMP JUMPDEST PUSH32 0x416464726573733A20696E73756666696369656E742062616C616E636520666F PUSH1 0x0 DUP3 ADD MSTORE PUSH32 0x722063616C6C0000000000000000000000000000000000000000000000000000 PUSH1 0x20 DUP3 ADD MSTORE POP JUMP JUMPDEST PUSH1 0x0 PUSH2 0x540B PUSH1 0x26 DUP4 PUSH2 0x408D JUMP JUMPDEST SWAP2 POP PUSH2 0x5416 DUP3 PUSH2 0x53AF JUMP JUMPDEST PUSH1 0x40 DUP3 ADD SWAP1 POP SWAP2 SWAP1 POP JUMP JUMPDEST PUSH1 0x0 PUSH1 0x20 DUP3 ADD SWAP1 POP DUP2 DUP2 SUB PUSH1 0x0 DUP4 ADD MSTORE PUSH2 0x543A DUP2 PUSH2 0x53FE JUMP JUMPDEST SWAP1 POP SWAP2 SWAP1 POP JUMP JUMPDEST PUSH32 0x416464726573733A2063616C6C20746F206E6F6E2D636F6E7472616374000000 PUSH1 0x0 DUP3 ADD MSTORE POP JUMP JUMPDEST PUSH1 0x0 PUSH2 0x5477 PUSH1 0x1D DUP4 PUSH2 0x408D JUMP JUMPDEST SWAP2 POP PUSH2 0x5482 DUP3 PUSH2 0x5441 JUMP JUMPDEST PUSH1 0x20 DUP3 ADD SWAP1 POP SWAP2 SWAP1 POP JUMP JUMPDEST PUSH1 0x0 PUSH1 0x20 DUP3 ADD SWAP1 POP DUP2 DUP2 SUB PUSH1 0x0 DUP4 ADD MSTORE PUSH2 0x54A6 DUP2 PUSH2 0x546A JUMP JUMPDEST SWAP1 POP SWAP2 SWAP1 POP JUMP INVALID LOG2 PUSH5 0x6970667358 0x22 SLT KECCAK256 0xDB 0xD4 SWAP7 CODECOPY REVERT 0xAD DUP14 0x26 PUSH32 0xCFBF8DA1CAC3C5CEE369C8DA04324F57949B2AF52071464736F6C6343000813 STOP CALLER "
		},
		"gasEstimates": {
			"creation": {
				"codeDepositCost": "4346200",
				"executionCost": "infinite",
				"totalCost": "infinite"
			},
			"external": {
				"CALLER_ROLE()": "680",
				"DAILY_INITIAL_MINT_LIMIT()": "2654",
				"DEFAULT_ADMIN_ROLE()": "424",
				"GOVERNOR_ROLE()": "678",
				"HYDT()": "infinite",
				"INITIAL_MINT_LIMIT()": "2562",
				"OPS()": "infinite",
				"PANCAKE_ROUTER()": "infinite",
				"PRICE_LOWER_BOUND()": "403",
				"PRICE_UPPER_BOUND()": "380",
				"RESERVE()": "infinite",
				"USDT()": "2603",
				"WBNB()": "2604",
				"_dailyInitialMints()": "infinite",
				"_initialMints()": "infinite",
				"_initializer()": "infinite",
				"delegateApprove(address,address,bool)": "infinite",
				"execute(uint8)": "infinite",
				"factory()": "2581",
				"getCurrentPrice()": "infinite",
				"getDailyInitialMints()": "infinite",
				"getInitialMints()": "infinite",
				"getRoleAdmin(bytes32)": "infinite",
				"grantRole(bytes32,address)": "infinite",
				"hasRole(bytes32,address)": "3252",
				"initialMint()": "infinite",
				"lastExecutedMint()": "2498",
				"lastExecutedRedeem()": "2474",
				"mintProgressCount()": "2562",
				"opsReadyState()": "2538",
				"redeemProgressCount()": "2542",
				"renounceRole(bytes32,address)": "infinite",
				"revokeRole(bytes32,address)": "infinite",
				"supportsInterface(bytes4)": "774",
				"updateOpsReadyState(bool)": "infinite"
			},
			"internal": {
				"_delegateApprove(contract IERC20,address,bool)": "infinite",
				"_mint(uint256)": "infinite",
				"_redeem()": "infinite"
			}
		},
		"methodIdentifiers": {
			"CALLER_ROLE()": "774237fc",
			"DAILY_INITIAL_MINT_LIMIT()": "bb10b60f",
			"DEFAULT_ADMIN_ROLE()": "a217fddf",
			"GOVERNOR_ROLE()": "ccc57490",
			"HYDT()": "25404dae",
			"INITIAL_MINT_LIMIT()": "1b93b7d2",
			"OPS()": "472d0447",
			"PANCAKE_ROUTER()": "e08836dd",
			"PRICE_LOWER_BOUND()": "42173873",
			"PRICE_UPPER_BOUND()": "bd6f2100",
			"RESERVE()": "9d2cc436",
			"USDT()": "c54e44eb",
			"WBNB()": "8dd95002",
			"_dailyInitialMints()": "cc20b6fe",
			"_initialMints()": "a9343856",
			"_initializer()": "4f6059e7",
			"delegateApprove(address,address,bool)": "397deb7b",
			"execute(uint8)": "fa646c0f",
			"factory()": "c45a0155",
			"getCurrentPrice()": "eb91d37e",
			"getDailyInitialMints()": "598b8f76",
			"getInitialMints()": "46fbad4a",
			"getRoleAdmin(bytes32)": "248a9ca3",
			"grantRole(bytes32,address)": "2f2ff15d",
			"hasRole(bytes32,address)": "91d14854",
			"initialMint()": "9fc5ce2a",
			"lastExecutedMint()": "193ed1ec",
			"lastExecutedRedeem()": "4d67b541",
			"mintProgressCount()": "64df6df9",
			"opsReadyState()": "4d831a12",
			"redeemProgressCount()": "1d397a8a",
			"renounceRole(bytes32,address)": "36568abe",
			"revokeRole(bytes32,address)": "d547741f",
			"supportsInterface(bytes4)": "01ffc9a7",
			"updateOpsReadyState(bool)": "881d343a"
		}
	},
	"abi": [
		{
			"inputs": [],
			"stateMutability": "nonpayable",
			"type": "constructor"
		},
		{
			"anonymous": false,
			"inputs": [
				{
					"indexed": true,
					"internalType": "address",
					"name": "user",
					"type": "address"
				},
				{
					"indexed": false,
					"internalType": "uint256",
					"name": "amountBNB",
					"type": "uint256"
				},
				{
					"indexed": false,
					"internalType": "uint256",
					"name": "amountHYDT",
					"type": "uint256"
				},
				{
					"indexed": false,
					"internalType": "uint256",
					"name": "callingPrice",
					"type": "uint256"
				}
			],
			"name": "InitialMint",
			"type": "event"
		},
		{
			"anonymous": false,
			"inputs": [
				{
					"indexed": true,
					"internalType": "address",
					"name": "caller",
					"type": "address"
				},
				{
					"indexed": false,
					"internalType": "uint256",
					"name": "updatedPrice",
					"type": "uint256"
				},
				{
					"indexed": false,
					"internalType": "uint256",
					"name": "amountHYDT",
					"type": "uint256"
				},
				{
					"indexed": false,
					"internalType": "uint256",
					"name": "callingPrice",
					"type": "uint256"
				}
			],
			"name": "Mint",
			"type": "event"
		},
		{
			"anonymous": false,
			"inputs": [
				{
					"indexed": true,
					"internalType": "address",
					"name": "caller",
					"type": "address"
				},
				{
					"indexed": false,
					"internalType": "uint256",
					"name": "amountHYDT",
					"type": "uint256"
				},
				{
					"indexed": false,
					"internalType": "uint256",
					"name": "callingPrice",
					"type": "uint256"
				}
			],
			"name": "Redeem",
			"type": "event"
		},
		{
			"anonymous": false,
			"inputs": [
				{
					"indexed": true,
					"internalType": "bytes32",
					"name": "role",
					"type": "bytes32"
				},
				{
					"indexed": true,
					"internalType": "bytes32",
					"name": "previousAdminRole",
					"type": "bytes32"
				},
				{
					"indexed": true,
					"internalType": "bytes32",
					"name": "newAdminRole",
					"type": "bytes32"
				}
			],
			"name": "RoleAdminChanged",
			"type": "event"
		},
		{
			"anonymous": false,
			"inputs": [
				{
					"indexed": true,
					"internalType": "bytes32",
					"name": "role",
					"type": "bytes32"
				},
				{
					"indexed": true,
					"internalType": "address",
					"name": "account",
					"type": "address"
				},
				{
					"indexed": true,
					"internalType": "address",
					"name": "sender",
					"type": "address"
				}
			],
			"name": "RoleGranted",
			"type": "event"
		},
		{
			"anonymous": false,
			"inputs": [
				{
					"indexed": true,
					"internalType": "bytes32",
					"name": "role",
					"type": "bytes32"
				},
				{
					"indexed": true,
					"internalType": "address",
					"name": "account",
					"type": "address"
				},
				{
					"indexed": true,
					"internalType": "address",
					"name": "sender",
					"type": "address"
				}
			],
			"name": "RoleRevoked",
			"type": "event"
		},
		{
			"anonymous": false,
			"inputs": [
				{
					"indexed": false,
					"internalType": "bool",
					"name": "newOpsReadyState",
					"type": "bool"
				}
			],
			"name": "UpdateOpsReadyState",
			"type": "event"
		},
		{
			"inputs": [],
			"name": "CALLER_ROLE",
			"outputs": [
				{
					"internalType": "bytes32",
					"name": "",
					"type": "bytes32"
				}
			],
			"stateMutability": "view",
			"type": "function"
		},
		{
			"inputs": [],
			"name": "DAILY_INITIAL_MINT_LIMIT",
			"outputs": [
				{
					"internalType": "uint128",
					"name": "",
					"type": "uint128"
				}
			],
			"stateMutability": "view",
			"type": "function"
		},
		{
			"inputs": [],
			"name": "DEFAULT_ADMIN_ROLE",
			"outputs": [
				{
					"internalType": "bytes32",
					"name": "",
					"type": "bytes32"
				}
			],
			"stateMutability": "view",
			"type": "function"
		},
		{
			"inputs": [],
			"name": "GOVERNOR_ROLE",
			"outputs": [
				{
					"internalType": "bytes32",
					"name": "",
					"type": "bytes32"
				}
			],
			"stateMutability": "view",
			"type": "function"
		},
		{
			"inputs": [],
			"name": "HYDT",
			"outputs": [
				{
					"internalType": "contract IHYDT",
					"name": "",
					"type": "address"
				}
			],
			"stateMutability": "view",
			"type": "function"
		},
		{
			"inputs": [],
			"name": "INITIAL_MINT_LIMIT",
			"outputs": [
				{
					"internalType": "uint128",
					"name": "",
					"type": "uint128"
				}
			],
			"stateMutability": "view",
			"type": "function"
		},
		{
			"inputs": [],
			"name": "OPS",
			"outputs": [
				{
					"internalType": "contract IOps",
					"name": "",
					"type": "address"
				}
			],
			"stateMutability": "view",
			"type": "function"
		},
		{
			"inputs": [],
			"name": "PANCAKE_ROUTER",
			"outputs": [
				{
					"internalType": "contract IPancakeRouter02",
					"name": "",
					"type": "address"
				}
			],
			"stateMutability": "view",
			"type": "function"
		},
		{
			"inputs": [],
			"name": "PRICE_LOWER_BOUND",
			"outputs": [
				{
					"internalType": "uint128",
					"name": "",
					"type": "uint128"
				}
			],
			"stateMutability": "view",
			"type": "function"
		},
		{
			"inputs": [],
			"name": "PRICE_UPPER_BOUND",
			"outputs": [
				{
					"internalType": "uint128",
					"name": "",
					"type": "uint128"
				}
			],
			"stateMutability": "view",
			"type": "function"
		},
		{
			"inputs": [],
			"name": "RESERVE",
			"outputs": [
				{
					"internalType": "contract IReserve",
					"name": "",
					"type": "address"
				}
			],
			"stateMutability": "view",
			"type": "function"
		},
		{
			"inputs": [],
			"name": "USDT",
			"outputs": [
				{
					"internalType": "address",
					"name": "",
					"type": "address"
				}
			],
			"stateMutability": "view",
			"type": "function"
		},
		{
			"inputs": [],
			"name": "WBNB",
			"outputs": [
				{
					"internalType": "address",
					"name": "",
					"type": "address"
				}
			],
			"stateMutability": "view",
			"type": "function"
		},
		{
			"inputs": [],
			"name": "_dailyInitialMints",
			"outputs": [
				{
					"internalType": "uint256",
					"name": "startTime",
					"type": "uint256"
				},
				{
					"internalType": "uint256",
					"name": "endTime",
					"type": "uint256"
				},
				{
					"internalType": "uint256",
					"name": "amount",
					"type": "uint256"
				}
			],
			"stateMutability": "view",
			"type": "function"
		},
		{
			"inputs": [],
			"name": "_initialMints",
			"outputs": [
				{
					"internalType": "uint256",
					"name": "startTime",
					"type": "uint256"
				},
				{
					"internalType": "uint256",
					"name": "endTime",
					"type": "uint256"
				},
				{
					"internalType": "uint256",
					"name": "amount",
					"type": "uint256"
				}
			],
			"stateMutability": "view",
			"type": "function"
		},
		{
			"inputs": [],
			"name": "_initializer",
			"outputs": [
				{
					"internalType": "address",
					"name": "",
					"type": "address"
				}
			],
			"stateMutability": "view",
			"type": "function"
		},
		{
			"inputs": [
				{
					"internalType": "contract IERC20",
					"name": "token",
					"type": "address"
				},
				{
					"internalType": "address",
					"name": "guy",
					"type": "address"
				},
				{
					"internalType": "bool",
					"name": "isApproved",
					"type": "bool"
				}
			],
			"name": "delegateApprove",
			"outputs": [],
			"stateMutability": "nonpayable",
			"type": "function"
		},
		{
			"inputs": [
				{
					"internalType": "uint8",
					"name": "argument",
					"type": "uint8"
				}
			],
			"name": "execute",
			"outputs": [],
			"stateMutability": "nonpayable",
			"type": "function"
		},
		{
			"inputs": [],
			"name": "factory",
			"outputs": [
				{
					"internalType": "address",
					"name": "",
					"type": "address"
				}
			],
			"stateMutability": "view",
			"type": "function"
		},
		{
			"inputs": [],
			"name": "getCurrentPrice",
			"outputs": [
				{
					"internalType": "uint256",
					"name": "",
					"type": "uint256"
				}
			],
			"stateMutability": "view",
			"type": "function"
		},
		{
			"inputs": [],
			"name": "getDailyInitialMints",
			"outputs": [
				{
					"internalType": "uint256",
					"name": "startTime",
					"type": "uint256"
				},
				{
					"internalType": "uint256",
					"name": "endTime",
					"type": "uint256"
				},
				{
					"internalType": "uint256",
					"name": "amountUSD",
					"type": "uint256"
				}
			],
			"stateMutability": "view",
			"type": "function"
		},
		{
			"inputs": [],
			"name": "getInitialMints",
			"outputs": [
				{
					"internalType": "uint256",
					"name": "startTime",
					"type": "uint256"
				},
				{
					"internalType": "uint256",
					"name": "endTime",
					"type": "uint256"
				},
				{
					"internalType": "uint256",
					"name": "amountUSD",
					"type": "uint256"
				}
			],
			"stateMutability": "view",
			"type": "function"
		},
		{
			"inputs": [
				{
					"internalType": "bytes32",
					"name": "role",
					"type": "bytes32"
				}
			],
			"name": "getRoleAdmin",
			"outputs": [
				{
					"internalType": "bytes32",
					"name": "",
					"type": "bytes32"
				}
			],
			"stateMutability": "view",
			"type": "function"
		},
		{
			"inputs": [
				{
					"internalType": "bytes32",
					"name": "role",
					"type": "bytes32"
				},
				{
					"internalType": "address",
					"name": "account",
					"type": "address"
				}
			],
			"name": "grantRole",
			"outputs": [],
			"stateMutability": "nonpayable",
			"type": "function"
		},
		{
			"inputs": [
				{
					"internalType": "bytes32",
					"name": "role",
					"type": "bytes32"
				},
				{
					"internalType": "address",
					"name": "account",
					"type": "address"
				}
			],
			"name": "hasRole",
			"outputs": [
				{
					"internalType": "bool",
					"name": "",
					"type": "bool"
				}
			],
			"stateMutability": "view",
			"type": "function"
		},
		{
			"inputs": [],
			"name": "initialMint",
			"outputs": [],
			"stateMutability": "payable",
			"type": "function"
		},
		{
			"inputs": [],
			"name": "lastExecutedMint",
			"outputs": [
				{
					"internalType": "uint256",
					"name": "",
					"type": "uint256"
				}
			],
			"stateMutability": "view",
			"type": "function"
		},
		{
			"inputs": [],
			"name": "lastExecutedRedeem",
			"outputs": [
				{
					"internalType": "uint256",
					"name": "",
					"type": "uint256"
				}
			],
			"stateMutability": "view",
			"type": "function"
		},
		{
			"inputs": [],
			"name": "mintProgressCount",
			"outputs": [
				{
					"internalType": "uint256",
					"name": "",
					"type": "uint256"
				}
			],
			"stateMutability": "view",
			"type": "function"
		},
		{
			"inputs": [],
			"name": "opsReadyState",
			"outputs": [
				{
					"internalType": "bool",
					"name": "",
					"type": "bool"
				}
			],
			"stateMutability": "view",
			"type": "function"
		},
		{
			"inputs": [],
			"name": "redeemProgressCount",
			"outputs": [
				{
					"internalType": "uint256",
					"name": "",
					"type": "uint256"
				}
			],
			"stateMutability": "view",
			"type": "function"
		},
		{
			"inputs": [
				{
					"internalType": "bytes32",
					"name": "role",
					"type": "bytes32"
				},
				{
					"internalType": "address",
					"name": "account",
					"type": "address"
				}
			],
			"name": "renounceRole",
			"outputs": [],
			"stateMutability": "nonpayable",
			"type": "function"
		},
		{
			"inputs": [
				{
					"internalType": "bytes32",
					"name": "role",
					"type": "bytes32"
				},
				{
					"internalType": "address",
					"name": "account",
					"type": "address"
				}
			],
			"name": "revokeRole",
			"outputs": [],
			"stateMutability": "nonpayable",
			"type": "function"
		},
		{
			"inputs": [
				{
					"internalType": "bytes4",
					"name": "interfaceId",
					"type": "bytes4"
				}
			],
			"name": "supportsInterface",
			"outputs": [
				{
					"internalType": "bool",
					"name": "",
					"type": "bool"
				}
			],
			"stateMutability": "view",
			"type": "function"
		},
		{
			"inputs": [
				{
					"internalType": "bool",
					"name": "newOpsReadyState",
					"type": "bool"
				}
			],
			"name": "updateOpsReadyState",
			"outputs": [],
			"stateMutability": "nonpayable",
			"type": "function"
		},
		{
			"stateMutability": "payable",
			"type": "receive"
		}
	]
}