{
	"data": {
		"bytecode": {
			"linkReferences": {},
			"object": "60a06040523480156200001157600080fd5b50620000226200005b60201b60201c565b73ffffffffffffffffffffffffffffffffffffffff1660808173ffffffffffffffffffffffffffffffffffffffff168152505062000063565b600033905090565b608051614f346200007f600039600061258d0152614f346000f3fe608060405234801561001057600080fd5b506004361061023d5760003560e01c8063565eea191161013b578063a1fd8db8116100b8578063d308d78c1161007c578063d308d78c14610744578063d547741f14610760578063f7013ef61461077c578063fd879b1e14610798578063fdd6374e146107c85761023d565b8063a1fd8db814610678578063a217fddf146106a8578063ad429608146106c6578063b3ecb623146106f6578063ccc57490146107265761023d565b80638a69614e116100ff5780638a69614e146105b05780638e8cfd4a146105cc57806391c28b4e146105e857806391d1485414610618578063a15a8dc7146106485761023d565b8063565eea191461050a578063630b5ba11461053a57806367a52793146105445780636b39840d1461056257806378e97925146105925761023d565b8063258f25b8116101c957806332d478851161018d57806332d478851461045457806336568abe1461047057806340ea6ea21461048c5780634c8f2a78146104aa5780634f78ee02146104da5761023d565b8063258f25b81461039a578063287fcc8f146103ca5780632d2c5565146103e85780632f2ff15d14610406578063312036e2146104225761023d565b80631526fe27116102105780631526fe27146102dc57806317caf6f11461031057806323c64ce11461032e578063248a9ca31461034c57806325404dae1461037c5761023d565b806301ffc9a714610242578063081e3eda1461027257806308fa95d41461029057806310087fb1146102c0575b600080fd5b61025c60048036038101906102579190613b4e565b6107ff565b6040516102699190613b96565b60405180910390f35b61027a610879565b6040516102879190613bca565b60405180910390f35b6102aa60048036038101906102a59190613c1e565b610886565b6040516102b79190613c64565b60405180910390f35b6102da60048036038101906102d59190613cab565b610ae4565b005b6102f660048036038101906102f19190613ceb565b611134565b604051610307959493929190613d27565b60405180910390f35b610318611187565b6040516103259190613bca565b60405180910390f35b61033661118d565b6040516103439190613df9565b60405180910390f35b61036660048036038101906103619190613e4a565b6111b3565b6040516103739190613e86565b60405180910390f35b6103846111d2565b6040516103919190613ec2565b60405180910390f35b6103b460048036038101906103af9190613f1b565b6111f8565b6040516103c19190613bca565b60405180910390f35b6103d2611279565b6040516103df9190613ec2565b60405180910390f35b6103f061129f565b6040516103fd9190613f57565b60405180910390f35b610420600480360381019061041b9190613f72565b6112c5565b005b61043c60048036038101906104379190613fb2565b6112e6565b60405161044b93929190613ff2565b60405180910390f35b61046e60048036038101906104699190614029565b61132d565b005b61048a60048036038101906104859190613f72565b611437565b005b6104946114ba565b6040516104a19190613bca565b60405180910390f35b6104c460048036038101906104bf9190613ceb565b6114c0565b6040516104d19190613bca565b60405180910390f35b6104f460048036038101906104ef9190614090565b6114e4565b6040516105019190613bca565b60405180910390f35b610524600480360381019061051f91906140d0565b6115d4565b6040516105319190613bca565b60405180910390f35b610542611787565b005b61054c6117be565b6040516105599190613bca565b60405180910390f35b61057c600480360381019061057791906140d0565b6117c4565b6040516105899190613bca565b60405180910390f35b61059a611a5f565b6040516105a79190613bca565b60405180910390f35b6105ca60048036038101906105c59190613ceb565b611a65565b005b6105e660048036038101906105e19190614110565b612155565b005b61060260048036038101906105fd9190613ceb565b61226f565b60405161060f9190613bca565b60405180910390f35b610632600480360381019061062d9190613f72565b612293565b60405161063f9190613b96565b60405180910390f35b610662600480360381019061065d9190613ceb565b6122fd565b60405161066f9190613bca565b60405180910390f35b610692600480360381019061068d9190614090565b612321565b60405161069f9190613bca565b60405180910390f35b6106b0612411565b6040516106bd9190613e86565b60405180910390f35b6106e060048036038101906106db9190613f1b565b612418565b6040516106ed9190613bca565b60405180910390f35b610710600480360381019061070b9190613f1b565b612430565b60405161071d9190613bca565b60405180910390f35b61072e6124b1565b60405161073b9190613e86565b60405180910390f35b61075e60048036038101906107599190613ceb565b6124d9565b005b61077a60048036038101906107759190613f72565b61256a565b005b61079660048036038101906107919190614150565b61258b565b005b6107b260048036038101906107ad9190613f1b565b612ad5565b6040516107bf9190613bca565b60405180910390f35b6107e260048036038101906107dd91906140d0565b612c99565b6040516107f69897969594939291906141cb565b60405180910390f35b60007f7965db0b000000000000000000000000000000000000000000000000000000007bffffffffffffffffffffffffffffffffffffffffffffffffffffffff1916827bffffffffffffffffffffffffffffffffffffffffffffffffffffffff19161480610872575061087182612d08565b5b9050919050565b6000600d80549050905090565b600080600d8360ff16815481106108a05761089f614249565b5b90600052602060002090600502019050806004015442116108e4577fffffffffffffffffffffffffffffffffffffffffffffffffffffffffffffffff915050610adf565b600081600201549050600081036109a657428260040181905550600e60008560ff16815260200190815260200160002060405180606001604052808381526020018460030154815260200142815250908060018154018082558091505060019003906000526020600020906003020160009091909190915060008201518160000155602082015181600101556040820151816002015550507fffffffffffffffffffffffffffffffffffffffffffffffffffffffffffffffff92505050610adf565b60008260040154426109b891906142a7565b90506000600b548460010154600954846109d291906142db565b6109dc91906142db565b6109e6919061434c565b90508264e8d4a51000826109fa91906142db565b610a04919061434c565b846003016000828254610a17919061437d565b92505081905550428460040181905550610a2f613931565b83816000018181525050846003015481602001818152505042816040018181525050600e60008860ff16815260200190815260200160002081908060018154018082558091505060019003906000526020600020906003020160009091909190915060008201518160000155602082015181600101556040820151816002015550506001600e60008960ff16815260200190815260200160002080549050610ad791906142a7565b955050505050505b919050565b60008211610b27576040517f08c379a0000000000000000000000000000000000000000000000000000000008152600401610b1e9061440e565b60405180910390fd5b60028160ff161115610b6e576040517f08c379a0000000000000000000000000000000000000000000000000000000008152600401610b659061447a565b60405180910390fd5b60006103e860055484610b8191906142db565b610b8b919061434c565b905060008184610b9b91906142a7565b9050610bf4600160009054906101000a900473ffffffffffffffffffffffffffffffffffffffff16610bcb612d72565b600460009054906101000a900473ffffffffffffffffffffffffffffffffffffffff1685612d7a565b600160009054906101000a900473ffffffffffffffffffffffffffffffffffffffff1673ffffffffffffffffffffffffffffffffffffffff166379cc6790610c3a612d72565b836040518363ffffffff1660e01b8152600401610c5892919061449a565b6020604051808303816000875af1158015610c77573d6000803e3d6000fd5b505050506040513d601f19601f82011682018060405250810190610c9b91906144ef565b50600360009054906101000a900473ffffffffffffffffffffffffffffffffffffffff1673ffffffffffffffffffffffffffffffffffffffff166340c10f1930836040518363ffffffff1660e01b8152600401610cf992919061449a565b6020604051808303816000875af1158015610d18573d6000803e3d6000fd5b505050506040513d601f19601f82011682018060405250810190610d3c91906144ef565b506000600d8460ff1681548110610d5657610d55614249565b5b906000526020600020906005020190506000610d7185610886565b905082826002016000828254610d87919061437d565b9250508190555060008112610de75782600e60008760ff1681526020019081526020016000208281548110610dbf57610dbe614249565b5b90600052602060002090600302016000016000828254610ddf919061437d565b925050819055505b610def613952565b60106000610dfb612d72565b73ffffffffffffffffffffffffffffffffffffffff1673ffffffffffffffffffffffffffffffffffffffff1681526020019081526020016000205481600001818152505060018160200190151590811515815250508381604001818152505085816060019060ff16908160ff16815250504281608001818152505060088660ff1681548110610e8d57610e8c614249565b5b906000526020600020015442610ea3919061437d565b8160a0018181525050428160c001818152505064e8d4a51000836003015485610ecc91906142db565b610ed6919061434c565b8160e001818152505080600f6000610eec612d72565b73ffffffffffffffffffffffffffffffffffffffff1673ffffffffffffffffffffffffffffffffffffffff1681526020019081526020016000206000836000015181526020019081526020016000206000820151816000015560208201518160010160006101000a81548160ff0219169083151502179055506040820151816002015560608201518160030160006101000a81548160ff021916908360ff1602179055506080820151816004015560a0820151816005015560c0820151816006015560e0820151816007015590505060106000610fc7612d72565b73ffffffffffffffffffffffffffffffffffffffff1673ffffffffffffffffffffffffffffffffffffffff16815260200190815260200160002060008154809291906110129061451c565b91905055506000600360009054906101000a900473ffffffffffffffffffffffffffffffffffffffff1673ffffffffffffffffffffffffffffffffffffffff166370a08231306040518263ffffffff1660e01b81526004016110749190613f57565b602060405180830381865afa158015611091573d6000803e3d6000fd5b505050506040513d601f19601f820116820180604052508101906110b59190614579565b90506110bf612d72565b73ffffffffffffffffffffffffffffffffffffffff167f60c8e1cab2fc58569c38b3ea9db3965293ad843d0f60a21a76f3c180234a586d83600001518460400151856060015186608001518760a0015187604051611122969594939291906145a6565b60405180910390a25050505050505050565b600d818154811061114457600080fd5b90600052602060002090600502016000915090508060000160009054906101000a900460ff16908060010154908060020154908060030154908060040154905085565b600b5481565b600260009054906101000a900473ffffffffffffffffffffffffffffffffffffffff1681565b6000806000838152602001908152602001600020600101549050919050565b600160009054906101000a900473ffffffffffffffffffffffffffffffffffffffff1681565b60008060005b601060008573ffffffffffffffffffffffffffffffffffffffff1673ffffffffffffffffffffffffffffffffffffffff1681526020019081526020016000205481101561126f5761124f84826115d4565b8261125a919061437d565b915080806112679061451c565b9150506111fe565b5080915050919050565b600360009054906101000a900473ffffffffffffffffffffffffffffffffffffffff1681565b600460009054906101000a900473ffffffffffffffffffffffffffffffffffffffff1681565b6112ce826111b3565b6112d781612e03565b6112e18383612e17565b505050565b600e602052816000526040600020818154811061130257600080fd5b9060005260206000209060030201600091509150508060000154908060010154908060020154905083565b83600160006101000a81548173ffffffffffffffffffffffffffffffffffffffff021916908373ffffffffffffffffffffffffffffffffffffffff16021790555082600260006101000a81548173ffffffffffffffffffffffffffffffffffffffff021916908373ffffffffffffffffffffffffffffffffffffffff16021790555081600360006101000a81548173ffffffffffffffffffffffffffffffffffffffff021916908373ffffffffffffffffffffffffffffffffffffffff16021790555080600460006101000a81548173ffffffffffffffffffffffffffffffffffffffff021916908373ffffffffffffffffffffffffffffffffffffffff16021790555050505050565b61143f612d72565b73ffffffffffffffffffffffffffffffffffffffff168173ffffffffffffffffffffffffffffffffffffffff16146114ac576040517f08c379a00000000000000000000000000000000000000000000000000000000081526004016114a390614679565b60405180910390fd5b6114b68282612ef7565b5050565b60095481565b600881815481106114d057600080fd5b906000526020600020016000915090505481565b60008060005b601060008673ffffffffffffffffffffffffffffffffffffffff1673ffffffffffffffffffffffffffffffffffffffff168152602001908152602001600020548110156115c9578360ff16600f60008773ffffffffffffffffffffffffffffffffffffffff1673ffffffffffffffffffffffffffffffffffffffff168152602001908152602001600020600083815260200190815260200160002060030160009054906101000a900460ff1660ff16036115b6576115a885826117c4565b826115b3919061437d565b91505b80806115c19061451c565b9150506114ea565b508091505092915050565b6000806000600f60008673ffffffffffffffffffffffffffffffffffffffff1673ffffffffffffffffffffffffffffffffffffffff168152602001908152602001600020600085815260200190815260200160002060405180610100016040529081600082015481526020016001820160009054906101000a900460ff16151515158152602001600282015481526020016003820160009054906101000a900460ff1660ff1660ff168152602001600482015481526020016005820154815260200160068201548152602001600782015481525050905080602001511561177c5760008160a0015142116116c857426116ce565b8160a001515b90506000603c6fffffffffffffffffffffffffffffffff168360c00151836116f691906142a7565b611700919061434c565b905060008111156117795760006006846060015160ff168154811061172857611727614249565b5b906000526020600020015490506000670de0b6b3a7640000606483876040015161175291906142db565b61175c919061434c565b611766919061434c565b9050828161177491906142db565b955050505b50505b819250505092915050565b6000600d80549050905060005b818160ff1610156117ba576117a881610886565b50806117b390614699565b9050611794565b5050565b60055481565b6000806000600f60008673ffffffffffffffffffffffffffffffffffffffff1673ffffffffffffffffffffffffffffffffffffffff168152602001908152602001600020600085815260200190815260200160002060405180610100016040529081600082015481526020016001820160009054906101000a900460ff16151515158152602001600282015481526020016003820160009054906101000a900460ff1660ff1660ff16815260200160048201548152602001600582015481526020016006820154815260200160078201548152505090506000600d826060015160ff16815481106118b8576118b7614249565b5b90600052602060002090600502016040518060a00160405290816000820160009054906101000a900460ff1660ff1660ff1681526020016001820154815260200160028201548152602001600382015481526020016004820154815250509050816020015115611a53578160a0015142106119675760006119398787612fd8565b9050806000015182604001818152505080602001518260600181815250508060400151826080018181525050505b80608001514211801561197f57506000816040015114155b15611a1d5760008260a001514211611997574261199d565b8260a001515b905060008260800151826119b191906142a7565b90506000600b548460200151600954846119cb91906142db565b6119d591906142db565b6119df919061434c565b9050836040015164e8d4a51000826119f791906142db565b611a01919061434c565b84606001818151611a12919061437d565b915081815250505050505b8160e0015164e8d4a5100082606001518460400151611a3c91906142db565b611a46919061434c565b611a5091906142a7565b92505b82935050505092915050565b600a5481565b6000600f6000611a73612d72565b73ffffffffffffffffffffffffffffffffffffffff1673ffffffffffffffffffffffffffffffffffffffff168152602001908152602001600020600083815260200190815260200160002090506000600d8260030160009054906101000a900460ff1660ff1681548110611aea57611ae9614249565b5b906000526020600020906005020190508160010160009054906101000a900460ff16611b4b576040517f08c379a0000000000000000000000000000000000000000000000000000000008152600401611b429061470e565b60405180910390fd5b6000611b5e611b58612d72565b856115d4565b90506000611b7c8460030160009054906101000a900460ff16610886565b90506000611b91611b8b612d72565b876117c4565b90508460050154421015611cfe576000831180611bae5750600081115b611bed576040517f08c379a0000000000000000000000000000000000000000000000000000000008152600401611be49061477a565b60405180910390fd5b600085600501544211611c005742611c06565b85600501545b90506000603c6fffffffffffffffffffffffffffffffff16876006015483611c2e91906142a7565b611c38919061434c565b9050603c6fffffffffffffffffffffffffffffffff1681611c5991906142db565b8760060154611c68919061437d565b876006018190555064e8d4a5100086600301548860020154611c8a91906142db565b611c94919061434c565b8760070181905550611ca4612d72565b73ffffffffffffffffffffffffffffffffffffffff167f634235fcf5af0adbca1a405ec65f6f6c08f55e1f379c2c45cd10f23cb29e0e31886000015487604051611cef92919061479a565b60405180910390a25050611fe9565b60008560000154905060008660020154905060008760030160009054906101000a900460ff1660ff169050600f6000611d35612d72565b73ffffffffffffffffffffffffffffffffffffffff1673ffffffffffffffffffffffffffffffffffffffff16815260200190815260200160002060008a81526020019081526020016000206000808201600090556001820160006101000a81549060ff021916905560028201600090556003820160006101000a81549060ff021916905560048201600090556005820160009055600682016000905560078201600090555050600360009054906101000a900473ffffffffffffffffffffffffffffffffffffffff1673ffffffffffffffffffffffffffffffffffffffff166342966c68836040518263ffffffff1660e01b8152600401611e369190613bca565b6020604051808303816000875af1158015611e55573d6000803e3d6000fd5b505050506040513d601f19601f82011682018060405250810190611e7991906144ef565b5081876002016000828254611e8e91906142a7565b9250508190555060008512611eeb5781600e60008381526020019081526020016000208681548110611ec357611ec2614249565b5b90600052602060002090600302016000016000828254611ee391906142a7565b925050819055505b6000600360009054906101000a900473ffffffffffffffffffffffffffffffffffffffff1673ffffffffffffffffffffffffffffffffffffffff166370a08231306040518263ffffffff1660e01b8152600401611f489190613f57565b602060405180830381865afa158015611f65573d6000803e3d6000fd5b505050506040513d601f19601f82011682018060405250810190611f899190614579565b9050611f93612d72565b73ffffffffffffffffffffffffffffffffffffffff167ffbd65cfd6de1493db337385c0712095397ecbd0504df64b861cdfceb80c7b422858584604051611fdc93929190613ff2565b60405180910390a2505050505b600083111561209b57600160009054906101000a900473ffffffffffffffffffffffffffffffffffffffff1673ffffffffffffffffffffffffffffffffffffffff166340c10f19612038612d72565b856040518363ffffffff1660e01b815260040161205692919061449a565b6020604051808303816000875af1158015612075573d6000803e3d6000fd5b505050506040513d601f19601f8201168201806040525081019061209991906144ef565b505b600081111561214d57600260009054906101000a900473ffffffffffffffffffffffffffffffffffffffff1673ffffffffffffffffffffffffffffffffffffffff166340c10f196120ea612d72565b836040518363ffffffff1660e01b815260040161210892919061449a565b6020604051808303816000875af1158015612127573d6000803e3d6000fd5b505050506040513d601f19601f8201168201806040525081019061214b91906144ef565b505b505050505050565b6040516020016121649061481a565b6040516020818303038152906040528051906020012061218381612e03565b61218b611787565b81600d8460ff16815481106121a3576121a2614249565b5b906000526020600020906005020160010154600b546121c291906142a7565b6121cc919061437d565b600b819055506000600d8460ff16815481106121eb576121ea614249565b5b906000526020600020906005020160010154905082600d8560ff168154811061221757612216614249565b5b9060005260206000209060050201600101819055508360ff167f79c68a2ecb77b6cdd88572066ae7a8fc466cd3a32f2908e8f6429f27ca760872848360405161226192919061479a565b60405180910390a250505050565b6007818154811061227f57600080fd5b906000526020600020016000915090505481565b600080600084815260200190815260200160002060000160008373ffffffffffffffffffffffffffffffffffffffff1673ffffffffffffffffffffffffffffffffffffffff16815260200190815260200160002060009054906101000a900460ff16905092915050565b6006818154811061230d57600080fd5b906000526020600020016000915090505481565b60008060005b601060008673ffffffffffffffffffffffffffffffffffffffff1673ffffffffffffffffffffffffffffffffffffffff16815260200190815260200160002054811015612406578360ff16600f60008773ffffffffffffffffffffffffffffffffffffffff1673ffffffffffffffffffffffffffffffffffffffff168152602001908152602001600020600083815260200190815260200160002060030160009054906101000a900460ff1660ff16036123f3576123e585826115d4565b826123f0919061437d565b91505b80806123fe9061451c565b915050612327565b508091505092915050565b6000801b81565b60106020528060005260406000206000915090505481565b60008060005b601060008573ffffffffffffffffffffffffffffffffffffffff1673ffffffffffffffffffffffffffffffffffffffff168152602001908152602001600020548110156124a75761248784826117c4565b82612492919061437d565b9150808061249f9061451c565b915050612436565b5080915050919050565b6040516020016124c09061481a565b6040516020818303038152906040528051906020012081565b80600a81905550600a54600d6000815481106124f8576124f7614249565b5b906000526020600020906005020160040181905550600a54600d60008154811061252557612524614249565b5b906000526020600020906005020160040181905550600a54600d60008154811061255257612551614249565b5b90600052602060002090600502016004018190555050565b612573826111b3565b61257c81612e03565b6125868383612ef7565b505050565b7f000000000000000000000000000000000000000000000000000000000000000073ffffffffffffffffffffffffffffffffffffffff166125ca612d72565b73ffffffffffffffffffffffffffffffffffffffff1614612620576040517f08c379a0000000000000000000000000000000000000000000000000000000008152600401612617906148a1565b60405180910390fd5b600073ffffffffffffffffffffffffffffffffffffffff168573ffffffffffffffffffffffffffffffffffffffff160361268f576040517f08c379a00000000000000000000000000000000000000000000000000000000081526004016126869061490d565b60405180910390fd5b600073ffffffffffffffffffffffffffffffffffffffff168473ffffffffffffffffffffffffffffffffffffffff16036126fe576040517f08c379a00000000000000000000000000000000000000000000000000000000081526004016126f590614979565b60405180910390fd5b600073ffffffffffffffffffffffffffffffffffffffff168373ffffffffffffffffffffffffffffffffffffffff160361276d576040517f08c379a0000000000000000000000000000000000000000000000000000000008152600401612764906149e5565b60405180910390fd5b600073ffffffffffffffffffffffffffffffffffffffff168273ffffffffffffffffffffffffffffffffffffffff16036127dc576040517f08c379a00000000000000000000000000000000000000000000000000000000081526004016127d390614a51565b60405180910390fd5b6128116040516020016127ee9061481a565b6040516020818303038152906040528051906020012061280c612d72565b612e17565b6128256000801b612820612d72565b612e17565b84600160006101000a81548173ffffffffffffffffffffffffffffffffffffffff021916908373ffffffffffffffffffffffffffffffffffffffff16021790555083600260006101000a81548173ffffffffffffffffffffffffffffffffffffffff021916908373ffffffffffffffffffffffffffffffffffffffff16021790555082600360006101000a81548173ffffffffffffffffffffffffffffffffffffffff021916908373ffffffffffffffffffffffffffffffffffffffff16021790555081600460006101000a81548173ffffffffffffffffffffffffffffffffffffffff021916908373ffffffffffffffffffffffffffffffffffffffff160217905550600f600581905550604051806060016040528067100aefe0105a000067ffffffffffffffff16815260200167087ab54345c3800067ffffffffffffffff1681526020016704f0c41d240a000067ffffffffffffffff16815250600690600361299292919061399c565b50604051806060016040528067de0b6b3a7640000068ffffffffffffffffff1681526020016801158e460913d0000068ffffffffffffffffff1681526020016801a055690d9db8000068ffffffffffffffffff1681525060079060036129f99291906139f5565b50604051806060016040528061151861ffff168152602001612a3061ffff16815260200161558c61ffff168152506008906003612a37929190613a4f565b506702501e734690aaab6009819055506107086fffffffffffffffffffffffffffffffff1681612a67919061437d565b600a819055506103e8600b819055506000600d8054905003612ab357612a9260006064600a54613304565b612aa2600161012c600a54613304565b612ab26002610258600a54613304565b5b6001600c60006101000a81548160ff0219169083151502179055505050505050565b60008060005b601060008573ffffffffffffffffffffffffffffffffffffffff1673ffffffffffffffffffffffffffffffffffffffff16815260200190815260200160002054811015612c8f576000600f60008673ffffffffffffffffffffffffffffffffffffffff1673ffffffffffffffffffffffffffffffffffffffff168152602001908152602001600020600083815260200190815260200160002060405180610100016040529081600082015481526020016001820160009054906101000a900460ff16151515158152602001600282015481526020016003820160009054906101000a900460ff1660ff1660ff1681526020016004820154815260200160058201548152602001600682015481526020016007820154815250509050806020015115612c7b578060a00151421015612c7a5760006006826060015160ff1681548110612c2957612c28614249565b5b906000526020600020015490506000670de0b6b3a76400006064838560400151612c5391906142db565b612c5d919061434c565b612c67919061434c565b90508085612c75919061437d565b945050505b5b508080612c879061451c565b915050612adb565b5080915050919050565b600f602052816000526040600020602052806000526040600020600091509150508060000154908060010160009054906101000a900460ff16908060020154908060030160009054906101000a900460ff16908060040154908060050154908060060154908060070154905088565b60007f01ffc9a7000000000000000000000000000000000000000000000000000000007bffffffffffffffffffffffffffffffffffffffffffffffffffffffff1916827bffffffffffffffffffffffffffffffffffffffffffffffffffffffff1916149050919050565b600033905090565b612dfd846323b872dd60e01b858585604051602401612d9b93929190614a71565b604051602081830303815290604052907bffffffffffffffffffffffffffffffffffffffffffffffffffffffff19166020820180517bffffffffffffffffffffffffffffffffffffffffffffffffffffffff83818316178352505050506133af565b50505050565b612e1481612e0f612d72565b613476565b50565b612e218282612293565b612ef357600160008084815260200190815260200160002060000160008373ffffffffffffffffffffffffffffffffffffffff1673ffffffffffffffffffffffffffffffffffffffff16815260200190815260200160002060006101000a81548160ff021916908315150217905550612e98612d72565b73ffffffffffffffffffffffffffffffffffffffff168173ffffffffffffffffffffffffffffffffffffffff16837f2f8788117e7eff1d82e926ec794901d17c78024a50270940304540a733656f0d60405160405180910390a45b5050565b612f018282612293565b15612fd457600080600084815260200190815260200160002060000160008373ffffffffffffffffffffffffffffffffffffffff1673ffffffffffffffffffffffffffffffffffffffff16815260200190815260200160002060006101000a81548160ff021916908315150217905550612f79612d72565b73ffffffffffffffffffffffffffffffffffffffff168173ffffffffffffffffffffffffffffffffffffffff16837ff6391f5c32d9c69d2a47ea670b442974b53935d1edc7fd64eb21e047a839171b60405160405180910390a45b5050565b612fe0613931565b6000600f60008573ffffffffffffffffffffffffffffffffffffffff1673ffffffffffffffffffffffffffffffffffffffff168152602001908152602001600020600084815260200190815260200160002060405180610100016040529081600082015481526020016001820160009054906101000a900460ff16151515158152602001600282015481526020016003820160009054906101000a900460ff1660ff1660ff16815260200160048201548152602001600582015481526020016006820154815260200160078201548152505090506000600e6000836060015160ff168152602001908152602001600020805480602002602001604051908101604052809291908181526020016000905b8282101561314057838290600052602060002090600302016040518060600160405290816000820154815260200160018201548152602001600282015481525050815260200190600101906130f0565b50505050905060008260a001514211613159574261315f565b8260a001515b90508160008151811061317557613174614249565b5b6020026020010151604001518110156131ae578160008151811061319c5761319b614249565b5b602002602001015193505050506132fe565b81600183516131bd91906142a7565b815181106131ce576131cd614249565b5b60200260200101516040015181106132125781600183516131ef91906142a7565b81518110613200576131ff614249565b5b602002602001015193505050506132fe565b600080835190505b808210156132cf57600060028284613232919061437d565b61323c919061434c565b90508385828151811061325257613251614249565b5b602002602001015160400151101561327857600181613271919061437d565b92506132c9565b8385828151811061328c5761328b614249565b5b602002602001015160400151036132c5578481815181106132b0576132af614249565b5b602002602001015196505050505050506132fe565b8091505b5061321a565b836001836132dd91906142a7565b815181106132ee576132ed614249565b5b6020026020010151955050505050505b92915050565b61330c613aa2565b83816000019060ff16908160ff16815250508281602001818152505081816080018181525050600d81908060018154018082558091505060019003906000526020600020906005020160009091909190915060008201518160000160006101000a81548160ff021916908360ff16021790555060208201518160010155604082015181600201556060820151816003015560808201518160040155505050505050565b6000613411826040518060400160405280602081526020017f5361666545524332303a206c6f772d6c6576656c2063616c6c206661696c65648152508573ffffffffffffffffffffffffffffffffffffffff166134fb9092919063ffffffff16565b9050600081511115613471578080602001905181019061343191906144ef565b613470576040517f08c379a000000000000000000000000000000000000000000000000000000000815260040161346790614b1a565b60405180910390fd5b5b505050565b6134808282612293565b6134f75761348d81613513565b61349b8360001c6020613540565b6040516020016134ac929190614c38565b6040516020818303038152906040526040517f08c379a00000000000000000000000000000000000000000000000000000000081526004016134ee9190614cbc565b60405180910390fd5b5050565b606061350a848460008561377c565b90509392505050565b60606135398273ffffffffffffffffffffffffffffffffffffffff16601460ff16613540565b9050919050565b60606000600283600261355391906142db565b61355d919061437d565b67ffffffffffffffff81111561357657613575614cde565b5b6040519080825280601f01601f1916602001820160405280156135a85781602001600182028036833780820191505090505b5090507f3000000000000000000000000000000000000000000000000000000000000000816000815181106135e0576135df614249565b5b60200101907effffffffffffffffffffffffffffffffffffffffffffffffffffffffffffff1916908160001a9053507f78000000000000000000000000000000000000000000000000000000000000008160018151811061364457613643614249565b5b60200101907effffffffffffffffffffffffffffffffffffffffffffffffffffffffffffff1916908160001a9053506000600184600261368491906142db565b61368e919061437d565b90505b600181111561372e577f3031323334353637383961626364656600000000000000000000000000000000600f8616601081106136d0576136cf614249565b5b1a60f81b8282815181106136e7576136e6614249565b5b60200101907effffffffffffffffffffffffffffffffffffffffffffffffffffffffffffff1916908160001a905350600485901c94508061372790614d0d565b9050613691565b5060008414613772576040517f08c379a000000000000000000000000000000000000000000000000000000000815260040161376990614d82565b60405180910390fd5b8091505092915050565b6060824710156137c1576040517f08c379a00000000000000000000000000000000000000000000000000000000081526004016137b890614e14565b60405180910390fd5b6000808673ffffffffffffffffffffffffffffffffffffffff1685876040516137ea9190614e7b565b60006040518083038185875af1925050503d8060008114613827576040519150601f19603f3d011682016040523d82523d6000602084013e61382c565b606091505b509150915061383d87838387613849565b92505050949350505050565b606083156138ab5760008351036138a357613863856138be565b6138a2576040517f08c379a000000000000000000000000000000000000000000000000000000000815260040161389990614ede565b60405180910390fd5b5b8290506138b6565b6138b583836138e1565b5b949350505050565b6000808273ffffffffffffffffffffffffffffffffffffffff163b119050919050565b6000825111156138f45781518083602001fd5b806040517f08c379a00000000000000000000000000000000000000000000000000000000081526004016139289190614cbc565b60405180910390fd5b60405180606001604052806000815260200160008152602001600081525090565b6040518061010001604052806000815260200160001515815260200160008152602001600060ff168152602001600081526020016000815260200160008152602001600081525090565b8280548282559060005260206000209081019282156139e4579160200282015b828111156139e3578251829067ffffffffffffffff169055916020019190600101906139bc565b5b5090506139f19190613ad4565b5090565b828054828255906000526020600020908101928215613a3e579160200282015b82811115613a3d578251829068ffffffffffffffffff16905591602001919060010190613a15565b5b509050613a4b9190613ad4565b5090565b828054828255906000526020600020908101928215613a91579160200282015b82811115613a90578251829061ffff16905591602001919060010190613a6f565b5b509050613a9e9190613ad4565b5090565b6040518060a00160405280600060ff168152602001600081526020016000815260200160008152602001600081525090565b5b80821115613aed576000816000905550600101613ad5565b5090565b600080fd5b60007fffffffff0000000000000000000000000000000000000000000000000000000082169050919050565b613b2b81613af6565b8114613b3657600080fd5b50565b600081359050613b4881613b22565b92915050565b600060208284031215613b6457613b63613af1565b5b6000613b7284828501613b39565b91505092915050565b60008115159050919050565b613b9081613b7b565b82525050565b6000602082019050613bab6000830184613b87565b92915050565b6000819050919050565b613bc481613bb1565b82525050565b6000602082019050613bdf6000830184613bbb565b92915050565b600060ff82169050919050565b613bfb81613be5565b8114613c0657600080fd5b50565b600081359050613c1881613bf2565b92915050565b600060208284031215613c3457613c33613af1565b5b6000613c4284828501613c09565b91505092915050565b6000819050919050565b613c5e81613c4b565b82525050565b6000602082019050613c796000830184613c55565b92915050565b613c8881613bb1565b8114613c9357600080fd5b50565b600081359050613ca581613c7f565b92915050565b60008060408385031215613cc257613cc1613af1565b5b6000613cd085828601613c96565b9250506020613ce185828601613c09565b9150509250929050565b600060208284031215613d0157613d00613af1565b5b6000613d0f84828501613c96565b91505092915050565b613d2181613be5565b82525050565b600060a082019050613d3c6000830188613d18565b613d496020830187613bbb565b613d566040830186613bbb565b613d636060830185613bbb565b613d706080830184613bbb565b9695505050505050565b600073ffffffffffffffffffffffffffffffffffffffff82169050919050565b6000819050919050565b6000613dbf613dba613db584613d7a565b613d9a565b613d7a565b9050919050565b6000613dd182613da4565b9050919050565b6000613de382613dc6565b9050919050565b613df381613dd8565b82525050565b6000602082019050613e0e6000830184613dea565b92915050565b6000819050919050565b613e2781613e14565b8114613e3257600080fd5b50565b600081359050613e4481613e1e565b92915050565b600060208284031215613e6057613e5f613af1565b5b6000613e6e84828501613e35565b91505092915050565b613e8081613e14565b82525050565b6000602082019050613e9b6000830184613e77565b92915050565b6000613eac82613dc6565b9050919050565b613ebc81613ea1565b82525050565b6000602082019050613ed76000830184613eb3565b92915050565b6000613ee882613d7a565b9050919050565b613ef881613edd565b8114613f0357600080fd5b50565b600081359050613f1581613eef565b92915050565b600060208284031215613f3157613f30613af1565b5b6000613f3f84828501613f06565b91505092915050565b613f5181613edd565b82525050565b6000602082019050613f6c6000830184613f48565b92915050565b60008060408385031215613f8957613f88613af1565b5b6000613f9785828601613e35565b9250506020613fa885828601613f06565b9150509250929050565b60008060408385031215613fc957613fc8613af1565b5b6000613fd785828601613c96565b9250506020613fe885828601613c96565b9150509250929050565b60006060820190506140076000830186613bbb565b6140146020830185613bbb565b6140216040830184613bbb565b949350505050565b6000806000806080858703121561404357614042613af1565b5b600061405187828801613f06565b945050602061406287828801613f06565b935050604061407387828801613f06565b925050606061408487828801613f06565b91505092959194509250565b600080604083850312156140a7576140a6613af1565b5b60006140b585828601613f06565b92505060206140c685828601613c09565b9150509250929050565b600080604083850312156140e7576140e6613af1565b5b60006140f585828601613f06565b925050602061410685828601613c96565b9150509250929050565b6000806040838503121561412757614126613af1565b5b600061413585828601613c09565b925050602061414685828601613c96565b9150509250929050565b600080600080600060a0868803121561416c5761416b613af1565b5b600061417a88828901613f06565b955050602061418b88828901613f06565b945050604061419c88828901613f06565b93505060606141ad88828901613f06565b92505060806141be88828901613c96565b9150509295509295909350565b6000610100820190506141e1600083018b613bbb565b6141ee602083018a613b87565b6141fb6040830189613bbb565b6142086060830188613d18565b6142156080830187613bbb565b61422260a0830186613bbb565b61422f60c0830185613bbb565b61423c60e0830184613bbb565b9998505050505050505050565b7f4e487b7100000000000000000000000000000000000000000000000000000000600052603260045260246000fd5b7f4e487b7100000000000000000000000000000000000000000000000000000000600052601160045260246000fd5b60006142b282613bb1565b91506142bd83613bb1565b92508282039050818111156142d5576142d4614278565b5b92915050565b60006142e682613bb1565b91506142f183613bb1565b92508282026142ff81613bb1565b9150828204841483151761431657614315614278565b5b5092915050565b7f4e487b7100000000000000000000000000000000000000000000000000000000600052601260045260246000fd5b600061435782613bb1565b915061436283613bb1565b9250826143725761437161431d565b5b828204905092915050565b600061438882613bb1565b915061439383613bb1565b92508282019050808211156143ab576143aa614278565b5b92915050565b600082825260208201905092915050565b7f4561726e3a20696e73756666696369656e7420616d6f756e7400000000000000600082015250565b60006143f86019836143b1565b9150614403826143c2565b602082019050919050565b60006020820190508181036000830152614427816143eb565b9050919050565b7f4561726e3a20696e76616c6964207374616b6520747970650000000000000000600082015250565b60006144646018836143b1565b915061446f8261442e565b602082019050919050565b6000602082019050818103600083015261449381614457565b9050919050565b60006040820190506144af6000830185613f48565b6144bc6020830184613bbb565b9392505050565b6144cc81613b7b565b81146144d757600080fd5b50565b6000815190506144e9816144c3565b92915050565b60006020828403121561450557614504613af1565b5b6000614513848285016144da565b91505092915050565b600061452782613bb1565b91507fffffffffffffffffffffffffffffffffffffffffffffffffffffffffffffffff820361455957614558614278565b5b600182019050919050565b60008151905061457381613c7f565b92915050565b60006020828403121561458f5761458e613af1565b5b600061459d84828501614564565b91505092915050565b600060c0820190506145bb6000830189613bbb565b6145c86020830188613bbb565b6145d56040830187613d18565b6145e26060830186613bbb565b6145ef6080830185613bbb565b6145fc60a0830184613bbb565b979650505050505050565b7f416363657373436f6e74726f6c3a2063616e206f6e6c792072656e6f756e636560008201527f20726f6c657320666f722073656c660000000000000000000000000000000000602082015250565b6000614663602f836143b1565b915061466e82614607565b604082019050919050565b6000602082019050818103600083015261469281614656565b9050919050565b60006146a482613be5565b915060ff82036146b7576146b6614278565b5b600182019050919050565b7f4561726e3a20696e76616c6964207374616b696e670000000000000000000000600082015250565b60006146f86015836143b1565b9150614703826146c2565b602082019050919050565b60006020820190508181036000830152614727816146eb565b9050919050565b7f4561726e3a206e6f20616d6f756e7420746f2077697468647261770000000000600082015250565b6000614764601b836143b1565b915061476f8261472e565b602082019050919050565b6000602082019050818103600083015261479381614757565b9050919050565b60006040820190506147af6000830185613bbb565b6147bc6020830184613bbb565b9392505050565b600081905092915050565b7f476f7665726e6f72000000000000000000000000000000000000000000000000600082015250565b60006148046008836147c3565b915061480f826147ce565b600882019050919050565b6000614825826147f7565b9150819050919050565b7f4561726e3a2063616c6c6572206973206e6f742074686520696e697469616c6960008201527f7a65720000000000000000000000000000000000000000000000000000000000602082015250565b600061488b6023836143b1565b91506148968261482f565b604082019050919050565b600060208201905081810360008301526148ba8161487e565b9050919050565b7f4561726e3a20696e76616c696420485944542061646472657373000000000000600082015250565b60006148f7601a836143b1565b9150614902826148c1565b602082019050919050565b60006020820190508181036000830152614926816148ea565b9050919050565b7f4561726e3a20696e76616c696420485947542061646472657373000000000000600082015250565b6000614963601a836143b1565b915061496e8261492d565b602082019050919050565b6000602082019050818103600083015261499281614956565b9050919050565b7f4561726e3a20696e76616c696420734859445420616464726573730000000000600082015250565b60006149cf601b836143b1565b91506149da82614999565b602082019050919050565b600060208201905081810360008301526149fe816149c2565b9050919050565b7f4561726e3a20696e76616c696420547265617375727920616464726573730000600082015250565b6000614a3b601e836143b1565b9150614a4682614a05565b602082019050919050565b60006020820190508181036000830152614a6a81614a2e565b9050919050565b6000606082019050614a866000830186613f48565b614a936020830185613f48565b614aa06040830184613bbb565b949350505050565b7f5361666545524332303a204552433230206f7065726174696f6e20646964206e60008201527f6f74207375636365656400000000000000000000000000000000000000000000602082015250565b6000614b04602a836143b1565b9150614b0f82614aa8565b604082019050919050565b60006020820190508181036000830152614b3381614af7565b9050919050565b7f416363657373436f6e74726f6c3a206163636f756e7420000000000000000000600082015250565b6000614b706017836147c3565b9150614b7b82614b3a565b601782019050919050565b600081519050919050565b60005b83811015614baf578082015181840152602081019050614b94565b60008484015250505050565b6000614bc682614b86565b614bd081856147c3565b9350614be0818560208601614b91565b80840191505092915050565b7f206973206d697373696e6720726f6c6520000000000000000000000000000000600082015250565b6000614c226011836147c3565b9150614c2d82614bec565b601182019050919050565b6000614c4382614b63565b9150614c4f8285614bbb565b9150614c5a82614c15565b9150614c668284614bbb565b91508190509392505050565b6000601f19601f8301169050919050565b6000614c8e82614b86565b614c9881856143b1565b9350614ca8818560208601614b91565b614cb181614c72565b840191505092915050565b60006020820190508181036000830152614cd68184614c83565b905092915050565b7f4e487b7100000000000000000000000000000000000000000000000000000000600052604160045260246000fd5b6000614d1882613bb1565b915060008203614d2b57614d2a614278565b5b600182039050919050565b7f537472696e67733a20686578206c656e67746820696e73756666696369656e74600082015250565b6000614d6c6020836143b1565b9150614d7782614d36565b602082019050919050565b60006020820190508181036000830152614d9b81614d5f565b9050919050565b7f416464726573733a20696e73756666696369656e742062616c616e636520666f60008201527f722063616c6c0000000000000000000000000000000000000000000000000000602082015250565b6000614dfe6026836143b1565b9150614e0982614da2565b604082019050919050565b60006020820190508181036000830152614e2d81614df1565b9050919050565b600081519050919050565b600081905092915050565b6000614e5582614e34565b614e5f8185614e3f565b9350614e6f818560208601614b91565b80840191505092915050565b6000614e878284614e4a565b915081905092915050565b7f416464726573733a2063616c6c20746f206e6f6e2d636f6e7472616374000000600082015250565b6000614ec8601d836143b1565b9150614ed382614e92565b602082019050919050565b60006020820190508181036000830152614ef781614ebb565b905091905056fea26469706673582212202b5558b00211b40a299f5a0e49bb2c76d0752f05efd62526a7fe9042a131fa9e64736f6c63430008130033",
			"opcodes": "PUSH1 0xA0 PUSH1 0x40 MSTORE CALLVALUE DUP1 ISZERO PUSH3 0x11 JUMPI PUSH1 0x0 DUP1 REVERT JUMPDEST POP PUSH3 0x22 PUSH3 0x5B PUSH1 0x20 SHL PUSH1 0x20 SHR JUMP JUMPDEST PUSH20 0xFFFFFFFFFFFFFFFFFFFFFFFFFFFFFFFFFFFFFFFF AND PUSH1 0x80 DUP2 PUSH20 0xFFFFFFFFFFFFFFFFFFFFFFFFFFFFFFFFFFFFFFFF AND DUP2 MSTORE POP POP PUSH3 0x63 JUMP JUMPDEST PUSH1 0x0 CALLER SWAP1 POP SWAP1 JUMP JUMPDEST PUSH1 0x80 MLOAD PUSH2 0x4F34 PUSH3 0x7F PUSH1 0x0 CODECOPY PUSH1 0x0 PUSH2 0x258D ADD MSTORE PUSH2 0x4F34 PUSH1 0x0 RETURN INVALID PUSH1 0x80 PUSH1 0x40 MSTORE CALLVALUE DUP1 ISZERO PUSH2 0x10 JUMPI PUSH1 0x0 DUP1 REVERT JUMPDEST POP PUSH1 0x4 CALLDATASIZE LT PUSH2 0x23D JUMPI PUSH1 0x0 CALLDATALOAD PUSH1 0xE0 SHR DUP1 PUSH4 0x565EEA19 GT PUSH2 0x13B JUMPI DUP1 PUSH4 0xA1FD8DB8 GT PUSH2 0xB8 JUMPI DUP1 PUSH4 0xD308D78C GT PUSH2 0x7C JUMPI DUP1 PUSH4 0xD308D78C EQ PUSH2 0x744 JUMPI DUP1 PUSH4 0xD547741F EQ PUSH2 0x760 JUMPI DUP1 PUSH4 0xF7013EF6 EQ PUSH2 0x77C JUMPI DUP1 PUSH4 0xFD879B1E EQ PUSH2 0x798 JUMPI DUP1 PUSH4 0xFDD6374E EQ PUSH2 0x7C8 JUMPI PUSH2 0x23D JUMP JUMPDEST DUP1 PUSH4 0xA1FD8DB8 EQ PUSH2 0x678 JUMPI DUP1 PUSH4 0xA217FDDF EQ PUSH2 0x6A8 JUMPI DUP1 PUSH4 0xAD429608 EQ PUSH2 0x6C6 JUMPI DUP1 PUSH4 0xB3ECB623 EQ PUSH2 0x6F6 JUMPI DUP1 PUSH4 0xCCC57490 EQ PUSH2 0x726 JUMPI PUSH2 0x23D JUMP JUMPDEST DUP1 PUSH4 0x8A69614E GT PUSH2 0xFF JUMPI DUP1 PUSH4 0x8A69614E EQ PUSH2 0x5B0 JUMPI DUP1 PUSH4 0x8E8CFD4A EQ PUSH2 0x5CC JUMPI DUP1 PUSH4 0x91C28B4E EQ PUSH2 0x5E8 JUMPI DUP1 PUSH4 0x91D14854 EQ PUSH2 0x618 JUMPI DUP1 PUSH4 0xA15A8DC7 EQ PUSH2 0x648 JUMPI PUSH2 0x23D JUMP JUMPDEST DUP1 PUSH4 0x565EEA19 EQ PUSH2 0x50A JUMPI DUP1 PUSH4 0x630B5BA1 EQ PUSH2 0x53A JUMPI DUP1 PUSH4 0x67A52793 EQ PUSH2 0x544 JUMPI DUP1 PUSH4 0x6B39840D EQ PUSH2 0x562 JUMPI DUP1 PUSH4 0x78E97925 EQ PUSH2 0x592 JUMPI PUSH2 0x23D JUMP JUMPDEST DUP1 PUSH4 0x258F25B8 GT PUSH2 0x1C9 JUMPI DUP1 PUSH4 0x32D47885 GT PUSH2 0x18D JUMPI DUP1 PUSH4 0x32D47885 EQ PUSH2 0x454 JUMPI DUP1 PUSH4 0x36568ABE EQ PUSH2 0x470 JUMPI DUP1 PUSH4 0x40EA6EA2 EQ PUSH2 0x48C JUMPI DUP1 PUSH4 0x4C8F2A78 EQ PUSH2 0x4AA JUMPI DUP1 PUSH4 0x4F78EE02 EQ PUSH2 0x4DA JUMPI PUSH2 0x23D JUMP JUMPDEST DUP1 PUSH4 0x258F25B8 EQ PUSH2 0x39A JUMPI DUP1 PUSH4 0x287FCC8F EQ PUSH2 0x3CA JUMPI DUP1 PUSH4 0x2D2C5565 EQ PUSH2 0x3E8 JUMPI DUP1 PUSH4 0x2F2FF15D EQ PUSH2 0x406 JUMPI DUP1 PUSH4 0x312036E2 EQ PUSH2 0x422 JUMPI PUSH2 0x23D JUMP JUMPDEST DUP1 PUSH4 0x1526FE27 GT PUSH2 0x210 JUMPI DUP1 PUSH4 0x1526FE27 EQ PUSH2 0x2DC JUMPI DUP1 PUSH4 0x17CAF6F1 EQ PUSH2 0x310 JUMPI DUP1 PUSH4 0x23C64CE1 EQ PUSH2 0x32E JUMPI DUP1 PUSH4 0x248A9CA3 EQ PUSH2 0x34C JUMPI DUP1 PUSH4 0x25404DAE EQ PUSH2 0x37C JUMPI PUSH2 0x23D JUMP JUMPDEST DUP1 PUSH4 0x1FFC9A7 EQ PUSH2 0x242 JUMPI DUP1 PUSH4 0x81E3EDA EQ PUSH2 0x272 JUMPI DUP1 PUSH4 0x8FA95D4 EQ PUSH2 0x290 JUMPI DUP1 PUSH4 0x10087FB1 EQ PUSH2 0x2C0 JUMPI JUMPDEST PUSH1 0x0 DUP1 REVERT JUMPDEST PUSH2 0x25C PUSH1 0x4 DUP1 CALLDATASIZE SUB DUP2 ADD SWAP1 PUSH2 0x257 SWAP2 SWAP1 PUSH2 0x3B4E JUMP JUMPDEST PUSH2 0x7FF JUMP JUMPDEST PUSH1 0x40 MLOAD PUSH2 0x269 SWAP2 SWAP1 PUSH2 0x3B96 JUMP JUMPDEST PUSH1 0x40 MLOAD DUP1 SWAP2 SUB SWAP1 RETURN JUMPDEST PUSH2 0x27A PUSH2 0x879 JUMP JUMPDEST PUSH1 0x40 MLOAD PUSH2 0x287 SWAP2 SWAP1 PUSH2 0x3BCA JUMP JUMPDEST PUSH1 0x40 MLOAD DUP1 SWAP2 SUB SWAP1 RETURN JUMPDEST PUSH2 0x2AA PUSH1 0x4 DUP1 CALLDATASIZE SUB DUP2 ADD SWAP1 PUSH2 0x2A5 SWAP2 SWAP1 PUSH2 0x3C1E JUMP JUMPDEST PUSH2 0x886 JUMP JUMPDEST PUSH1 0x40 MLOAD PUSH2 0x2B7 SWAP2 SWAP1 PUSH2 0x3C64 JUMP JUMPDEST PUSH1 0x40 MLOAD DUP1 SWAP2 SUB SWAP1 RETURN JUMPDEST PUSH2 0x2DA PUSH1 0x4 DUP1 CALLDATASIZE SUB DUP2 ADD SWAP1 PUSH2 0x2D5 SWAP2 SWAP1 PUSH2 0x3CAB JUMP JUMPDEST PUSH2 0xAE4 JUMP JUMPDEST STOP JUMPDEST PUSH2 0x2F6 PUSH1 0x4 DUP1 CALLDATASIZE SUB DUP2 ADD SWAP1 PUSH2 0x2F1 SWAP2 SWAP1 PUSH2 0x3CEB JUMP JUMPDEST PUSH2 0x1134 JUMP JUMPDEST PUSH1 0x40 MLOAD PUSH2 0x307 SWAP6 SWAP5 SWAP4 SWAP3 SWAP2 SWAP1 PUSH2 0x3D27 JUMP JUMPDEST PUSH1 0x40 MLOAD DUP1 SWAP2 SUB SWAP1 RETURN JUMPDEST PUSH2 0x318 PUSH2 0x1187 JUMP JUMPDEST PUSH1 0x40 MLOAD PUSH2 0x325 SWAP2 SWAP1 PUSH2 0x3BCA JUMP JUMPDEST PUSH1 0x40 MLOAD DUP1 SWAP2 SUB SWAP1 RETURN JUMPDEST PUSH2 0x336 PUSH2 0x118D JUMP JUMPDEST PUSH1 0x40 MLOAD PUSH2 0x343 SWAP2 SWAP1 PUSH2 0x3DF9 JUMP JUMPDEST PUSH1 0x40 MLOAD DUP1 SWAP2 SUB SWAP1 RETURN JUMPDEST PUSH2 0x366 PUSH1 0x4 DUP1 CALLDATASIZE SUB DUP2 ADD SWAP1 PUSH2 0x361 SWAP2 SWAP1 PUSH2 0x3E4A JUMP JUMPDEST PUSH2 0x11B3 JUMP JUMPDEST PUSH1 0x40 MLOAD PUSH2 0x373 SWAP2 SWAP1 PUSH2 0x3E86 JUMP JUMPDEST PUSH1 0x40 MLOAD DUP1 SWAP2 SUB SWAP1 RETURN JUMPDEST PUSH2 0x384 PUSH2 0x11D2 JUMP JUMPDEST PUSH1 0x40 MLOAD PUSH2 0x391 SWAP2 SWAP1 PUSH2 0x3EC2 JUMP JUMPDEST PUSH1 0x40 MLOAD DUP1 SWAP2 SUB SWAP1 RETURN JUMPDEST PUSH2 0x3B4 PUSH1 0x4 DUP1 CALLDATASIZE SUB DUP2 ADD SWAP1 PUSH2 0x3AF SWAP2 SWAP1 PUSH2 0x3F1B JUMP JUMPDEST PUSH2 0x11F8 JUMP JUMPDEST PUSH1 0x40 MLOAD PUSH2 0x3C1 SWAP2 SWAP1 PUSH2 0x3BCA JUMP JUMPDEST PUSH1 0x40 MLOAD DUP1 SWAP2 SUB SWAP1 RETURN JUMPDEST PUSH2 0x3D2 PUSH2 0x1279 JUMP JUMPDEST PUSH1 0x40 MLOAD PUSH2 0x3DF SWAP2 SWAP1 PUSH2 0x3EC2 JUMP JUMPDEST PUSH1 0x40 MLOAD DUP1 SWAP2 SUB SWAP1 RETURN JUMPDEST PUSH2 0x3F0 PUSH2 0x129F JUMP JUMPDEST PUSH1 0x40 MLOAD PUSH2 0x3FD SWAP2 SWAP1 PUSH2 0x3F57 JUMP JUMPDEST PUSH1 0x40 MLOAD DUP1 SWAP2 SUB SWAP1 RETURN JUMPDEST PUSH2 0x420 PUSH1 0x4 DUP1 CALLDATASIZE SUB DUP2 ADD SWAP1 PUSH2 0x41B SWAP2 SWAP1 PUSH2 0x3F72 JUMP JUMPDEST PUSH2 0x12C5 JUMP JUMPDEST STOP JUMPDEST PUSH2 0x43C PUSH1 0x4 DUP1 CALLDATASIZE SUB DUP2 ADD SWAP1 PUSH2 0x437 SWAP2 SWAP1 PUSH2 0x3FB2 JUMP JUMPDEST PUSH2 0x12E6 JUMP JUMPDEST PUSH1 0x40 MLOAD PUSH2 0x44B SWAP4 SWAP3 SWAP2 SWAP1 PUSH2 0x3FF2 JUMP JUMPDEST PUSH1 0x40 MLOAD DUP1 SWAP2 SUB SWAP1 RETURN JUMPDEST PUSH2 0x46E PUSH1 0x4 DUP1 CALLDATASIZE SUB DUP2 ADD SWAP1 PUSH2 0x469 SWAP2 SWAP1 PUSH2 0x4029 JUMP JUMPDEST PUSH2 0x132D JUMP JUMPDEST STOP JUMPDEST PUSH2 0x48A PUSH1 0x4 DUP1 CALLDATASIZE SUB DUP2 ADD SWAP1 PUSH2 0x485 SWAP2 SWAP1 PUSH2 0x3F72 JUMP JUMPDEST PUSH2 0x1437 JUMP JUMPDEST STOP JUMPDEST PUSH2 0x494 PUSH2 0x14BA JUMP JUMPDEST PUSH1 0x40 MLOAD PUSH2 0x4A1 SWAP2 SWAP1 PUSH2 0x3BCA JUMP JUMPDEST PUSH1 0x40 MLOAD DUP1 SWAP2 SUB SWAP1 RETURN JUMPDEST PUSH2 0x4C4 PUSH1 0x4 DUP1 CALLDATASIZE SUB DUP2 ADD SWAP1 PUSH2 0x4BF SWAP2 SWAP1 PUSH2 0x3CEB JUMP JUMPDEST PUSH2 0x14C0 JUMP JUMPDEST PUSH1 0x40 MLOAD PUSH2 0x4D1 SWAP2 SWAP1 PUSH2 0x3BCA JUMP JUMPDEST PUSH1 0x40 MLOAD DUP1 SWAP2 SUB SWAP1 RETURN JUMPDEST PUSH2 0x4F4 PUSH1 0x4 DUP1 CALLDATASIZE SUB DUP2 ADD SWAP1 PUSH2 0x4EF SWAP2 SWAP1 PUSH2 0x4090 JUMP JUMPDEST PUSH2 0x14E4 JUMP JUMPDEST PUSH1 0x40 MLOAD PUSH2 0x501 SWAP2 SWAP1 PUSH2 0x3BCA JUMP JUMPDEST PUSH1 0x40 MLOAD DUP1 SWAP2 SUB SWAP1 RETURN JUMPDEST PUSH2 0x524 PUSH1 0x4 DUP1 CALLDATASIZE SUB DUP2 ADD SWAP1 PUSH2 0x51F SWAP2 SWAP1 PUSH2 0x40D0 JUMP JUMPDEST PUSH2 0x15D4 JUMP JUMPDEST PUSH1 0x40 MLOAD PUSH2 0x531 SWAP2 SWAP1 PUSH2 0x3BCA JUMP JUMPDEST PUSH1 0x40 MLOAD DUP1 SWAP2 SUB SWAP1 RETURN JUMPDEST PUSH2 0x542 PUSH2 0x1787 JUMP JUMPDEST STOP JUMPDEST PUSH2 0x54C PUSH2 0x17BE JUMP JUMPDEST PUSH1 0x40 MLOAD PUSH2 0x559 SWAP2 SWAP1 PUSH2 0x3BCA JUMP JUMPDEST PUSH1 0x40 MLOAD DUP1 SWAP2 SUB SWAP1 RETURN JUMPDEST PUSH2 0x57C PUSH1 0x4 DUP1 CALLDATASIZE SUB DUP2 ADD SWAP1 PUSH2 0x577 SWAP2 SWAP1 PUSH2 0x40D0 JUMP JUMPDEST PUSH2 0x17C4 JUMP JUMPDEST PUSH1 0x40 MLOAD PUSH2 0x589 SWAP2 SWAP1 PUSH2 0x3BCA JUMP JUMPDEST PUSH1 0x40 MLOAD DUP1 SWAP2 SUB SWAP1 RETURN JUMPDEST PUSH2 0x59A PUSH2 0x1A5F JUMP JUMPDEST PUSH1 0x40 MLOAD PUSH2 0x5A7 SWAP2 SWAP1 PUSH2 0x3BCA JUMP JUMPDEST PUSH1 0x40 MLOAD DUP1 SWAP2 SUB SWAP1 RETURN JUMPDEST PUSH2 0x5CA PUSH1 0x4 DUP1 CALLDATASIZE SUB DUP2 ADD SWAP1 PUSH2 0x5C5 SWAP2 SWAP1 PUSH2 0x3CEB JUMP JUMPDEST PUSH2 0x1A65 JUMP JUMPDEST STOP JUMPDEST PUSH2 0x5E6 PUSH1 0x4 DUP1 CALLDATASIZE SUB DUP2 ADD SWAP1 PUSH2 0x5E1 SWAP2 SWAP1 PUSH2 0x4110 JUMP JUMPDEST PUSH2 0x2155 JUMP JUMPDEST STOP JUMPDEST PUSH2 0x602 PUSH1 0x4 DUP1 CALLDATASIZE SUB DUP2 ADD SWAP1 PUSH2 0x5FD SWAP2 SWAP1 PUSH2 0x3CEB JUMP JUMPDEST PUSH2 0x226F JUMP JUMPDEST PUSH1 0x40 MLOAD PUSH2 0x60F SWAP2 SWAP1 PUSH2 0x3BCA JUMP JUMPDEST PUSH1 0x40 MLOAD DUP1 SWAP2 SUB SWAP1 RETURN JUMPDEST PUSH2 0x632 PUSH1 0x4 DUP1 CALLDATASIZE SUB DUP2 ADD SWAP1 PUSH2 0x62D SWAP2 SWAP1 PUSH2 0x3F72 JUMP JUMPDEST PUSH2 0x2293 JUMP JUMPDEST PUSH1 0x40 MLOAD PUSH2 0x63F SWAP2 SWAP1 PUSH2 0x3B96 JUMP JUMPDEST PUSH1 0x40 MLOAD DUP1 SWAP2 SUB SWAP1 RETURN JUMPDEST PUSH2 0x662 PUSH1 0x4 DUP1 CALLDATASIZE SUB DUP2 ADD SWAP1 PUSH2 0x65D SWAP2 SWAP1 PUSH2 0x3CEB JUMP JUMPDEST PUSH2 0x22FD JUMP JUMPDEST PUSH1 0x40 MLOAD PUSH2 0x66F SWAP2 SWAP1 PUSH2 0x3BCA JUMP JUMPDEST PUSH1 0x40 MLOAD DUP1 SWAP2 SUB SWAP1 RETURN JUMPDEST PUSH2 0x692 PUSH1 0x4 DUP1 CALLDATASIZE SUB DUP2 ADD SWAP1 PUSH2 0x68D SWAP2 SWAP1 PUSH2 0x4090 JUMP JUMPDEST PUSH2 0x2321 JUMP JUMPDEST PUSH1 0x40 MLOAD PUSH2 0x69F SWAP2 SWAP1 PUSH2 0x3BCA JUMP JUMPDEST PUSH1 0x40 MLOAD DUP1 SWAP2 SUB SWAP1 RETURN JUMPDEST PUSH2 0x6B0 PUSH2 0x2411 JUMP JUMPDEST PUSH1 0x40 MLOAD PUSH2 0x6BD SWAP2 SWAP1 PUSH2 0x3E86 JUMP JUMPDEST PUSH1 0x40 MLOAD DUP1 SWAP2 SUB SWAP1 RETURN JUMPDEST PUSH2 0x6E0 PUSH1 0x4 DUP1 CALLDATASIZE SUB DUP2 ADD SWAP1 PUSH2 0x6DB SWAP2 SWAP1 PUSH2 0x3F1B JUMP JUMPDEST PUSH2 0x2418 JUMP JUMPDEST PUSH1 0x40 MLOAD PUSH2 0x6ED SWAP2 SWAP1 PUSH2 0x3BCA JUMP JUMPDEST PUSH1 0x40 MLOAD DUP1 SWAP2 SUB SWAP1 RETURN JUMPDEST PUSH2 0x710 PUSH1 0x4 DUP1 CALLDATASIZE SUB DUP2 ADD SWAP1 PUSH2 0x70B SWAP2 SWAP1 PUSH2 0x3F1B JUMP JUMPDEST PUSH2 0x2430 JUMP JUMPDEST PUSH1 0x40 MLOAD PUSH2 0x71D SWAP2 SWAP1 PUSH2 0x3BCA JUMP JUMPDEST PUSH1 0x40 MLOAD DUP1 SWAP2 SUB SWAP1 RETURN JUMPDEST PUSH2 0x72E PUSH2 0x24B1 JUMP JUMPDEST PUSH1 0x40 MLOAD PUSH2 0x73B SWAP2 SWAP1 PUSH2 0x3E86 JUMP JUMPDEST PUSH1 0x40 MLOAD DUP1 SWAP2 SUB SWAP1 RETURN JUMPDEST PUSH2 0x75E PUSH1 0x4 DUP1 CALLDATASIZE SUB DUP2 ADD SWAP1 PUSH2 0x759 SWAP2 SWAP1 PUSH2 0x3CEB JUMP JUMPDEST PUSH2 0x24D9 JUMP JUMPDEST STOP JUMPDEST PUSH2 0x77A PUSH1 0x4 DUP1 CALLDATASIZE SUB DUP2 ADD SWAP1 PUSH2 0x775 SWAP2 SWAP1 PUSH2 0x3F72 JUMP JUMPDEST PUSH2 0x256A JUMP JUMPDEST STOP JUMPDEST PUSH2 0x796 PUSH1 0x4 DUP1 CALLDATASIZE SUB DUP2 ADD SWAP1 PUSH2 0x791 SWAP2 SWAP1 PUSH2 0x4150 JUMP JUMPDEST PUSH2 0x258B JUMP JUMPDEST STOP JUMPDEST PUSH2 0x7B2 PUSH1 0x4 DUP1 CALLDATASIZE SUB DUP2 ADD SWAP1 PUSH2 0x7AD SWAP2 SWAP1 PUSH2 0x3F1B JUMP JUMPDEST PUSH2 0x2AD5 JUMP JUMPDEST PUSH1 0x40 MLOAD PUSH2 0x7BF SWAP2 SWAP1 PUSH2 0x3BCA JUMP JUMPDEST PUSH1 0x40 MLOAD DUP1 SWAP2 SUB SWAP1 RETURN JUMPDEST PUSH2 0x7E2 PUSH1 0x4 DUP1 CALLDATASIZE SUB DUP2 ADD SWAP1 PUSH2 0x7DD SWAP2 SWAP1 PUSH2 0x40D0 JUMP JUMPDEST PUSH2 0x2C99 JUMP JUMPDEST PUSH1 0x40 MLOAD PUSH2 0x7F6 SWAP9 SWAP8 SWAP7 SWAP6 SWAP5 SWAP4 SWAP3 SWAP2 SWAP1 PUSH2 0x41CB JUMP JUMPDEST PUSH1 0x40 MLOAD DUP1 SWAP2 SUB SWAP1 RETURN JUMPDEST PUSH1 0x0 PUSH32 0x7965DB0B00000000000000000000000000000000000000000000000000000000 PUSH28 0xFFFFFFFFFFFFFFFFFFFFFFFFFFFFFFFFFFFFFFFFFFFFFFFFFFFFFFFF NOT AND DUP3 PUSH28 0xFFFFFFFFFFFFFFFFFFFFFFFFFFFFFFFFFFFFFFFFFFFFFFFFFFFFFFFF NOT AND EQ DUP1 PUSH2 0x872 JUMPI POP PUSH2 0x871 DUP3 PUSH2 0x2D08 JUMP JUMPDEST JUMPDEST SWAP1 POP SWAP2 SWAP1 POP JUMP JUMPDEST PUSH1 0x0 PUSH1 0xD DUP1 SLOAD SWAP1 POP SWAP1 POP SWAP1 JUMP JUMPDEST PUSH1 0x0 DUP1 PUSH1 0xD DUP4 PUSH1 0xFF AND DUP2 SLOAD DUP2 LT PUSH2 0x8A0 JUMPI PUSH2 0x89F PUSH2 0x4249 JUMP JUMPDEST JUMPDEST SWAP1 PUSH1 0x0 MSTORE PUSH1 0x20 PUSH1 0x0 KECCAK256 SWAP1 PUSH1 0x5 MUL ADD SWAP1 POP DUP1 PUSH1 0x4 ADD SLOAD TIMESTAMP GT PUSH2 0x8E4 JUMPI PUSH32 0xFFFFFFFFFFFFFFFFFFFFFFFFFFFFFFFFFFFFFFFFFFFFFFFFFFFFFFFFFFFFFFFF SWAP2 POP POP PUSH2 0xADF JUMP JUMPDEST PUSH1 0x0 DUP2 PUSH1 0x2 ADD SLOAD SWAP1 POP PUSH1 0x0 DUP2 SUB PUSH2 0x9A6 JUMPI TIMESTAMP DUP3 PUSH1 0x4 ADD DUP2 SWAP1 SSTORE POP PUSH1 0xE PUSH1 0x0 DUP6 PUSH1 0xFF AND DUP2 MSTORE PUSH1 0x20 ADD SWAP1 DUP2 MSTORE PUSH1 0x20 ADD PUSH1 0x0 KECCAK256 PUSH1 0x40 MLOAD DUP1 PUSH1 0x60 ADD PUSH1 0x40 MSTORE DUP1 DUP4 DUP2 MSTORE PUSH1 0x20 ADD DUP5 PUSH1 0x3 ADD SLOAD DUP2 MSTORE PUSH1 0x20 ADD TIMESTAMP DUP2 MSTORE POP SWAP1 DUP1 PUSH1 0x1 DUP2 SLOAD ADD DUP1 DUP3 SSTORE DUP1 SWAP2 POP POP PUSH1 0x1 SWAP1 SUB SWAP1 PUSH1 0x0 MSTORE PUSH1 0x20 PUSH1 0x0 KECCAK256 SWAP1 PUSH1 0x3 MUL ADD PUSH1 0x0 SWAP1 SWAP2 SWAP1 SWAP2 SWAP1 SWAP2 POP PUSH1 0x0 DUP3 ADD MLOAD DUP2 PUSH1 0x0 ADD SSTORE PUSH1 0x20 DUP3 ADD MLOAD DUP2 PUSH1 0x1 ADD SSTORE PUSH1 0x40 DUP3 ADD MLOAD DUP2 PUSH1 0x2 ADD SSTORE POP POP PUSH32 0xFFFFFFFFFFFFFFFFFFFFFFFFFFFFFFFFFFFFFFFFFFFFFFFFFFFFFFFFFFFFFFFF SWAP3 POP POP POP PUSH2 0xADF JUMP JUMPDEST PUSH1 0x0 DUP3 PUSH1 0x4 ADD SLOAD TIMESTAMP PUSH2 0x9B8 SWAP2 SWAP1 PUSH2 0x42A7 JUMP JUMPDEST SWAP1 POP PUSH1 0x0 PUSH1 0xB SLOAD DUP5 PUSH1 0x1 ADD SLOAD PUSH1 0x9 SLOAD DUP5 PUSH2 0x9D2 SWAP2 SWAP1 PUSH2 0x42DB JUMP JUMPDEST PUSH2 0x9DC SWAP2 SWAP1 PUSH2 0x42DB JUMP JUMPDEST PUSH2 0x9E6 SWAP2 SWAP1 PUSH2 0x434C JUMP JUMPDEST SWAP1 POP DUP3 PUSH5 0xE8D4A51000 DUP3 PUSH2 0x9FA SWAP2 SWAP1 PUSH2 0x42DB JUMP JUMPDEST PUSH2 0xA04 SWAP2 SWAP1 PUSH2 0x434C JUMP JUMPDEST DUP5 PUSH1 0x3 ADD PUSH1 0x0 DUP3 DUP3 SLOAD PUSH2 0xA17 SWAP2 SWAP1 PUSH2 0x437D JUMP JUMPDEST SWAP3 POP POP DUP2 SWAP1 SSTORE POP TIMESTAMP DUP5 PUSH1 0x4 ADD DUP2 SWAP1 SSTORE POP PUSH2 0xA2F PUSH2 0x3931 JUMP JUMPDEST DUP4 DUP2 PUSH1 0x0 ADD DUP2 DUP2 MSTORE POP POP DUP5 PUSH1 0x3 ADD SLOAD DUP2 PUSH1 0x20 ADD DUP2 DUP2 MSTORE POP POP TIMESTAMP DUP2 PUSH1 0x40 ADD DUP2 DUP2 MSTORE POP POP PUSH1 0xE PUSH1 0x0 DUP9 PUSH1 0xFF AND DUP2 MSTORE PUSH1 0x20 ADD SWAP1 DUP2 MSTORE PUSH1 0x20 ADD PUSH1 0x0 KECCAK256 DUP2 SWAP1 DUP1 PUSH1 0x1 DUP2 SLOAD ADD DUP1 DUP3 SSTORE DUP1 SWAP2 POP POP PUSH1 0x1 SWAP1 SUB SWAP1 PUSH1 0x0 MSTORE PUSH1 0x20 PUSH1 0x0 KECCAK256 SWAP1 PUSH1 0x3 MUL ADD PUSH1 0x0 SWAP1 SWAP2 SWAP1 SWAP2 SWAP1 SWAP2 POP PUSH1 0x0 DUP3 ADD MLOAD DUP2 PUSH1 0x0 ADD SSTORE PUSH1 0x20 DUP3 ADD MLOAD DUP2 PUSH1 0x1 ADD SSTORE PUSH1 0x40 DUP3 ADD MLOAD DUP2 PUSH1 0x2 ADD SSTORE POP POP PUSH1 0x1 PUSH1 0xE PUSH1 0x0 DUP10 PUSH1 0xFF AND DUP2 MSTORE PUSH1 0x20 ADD SWAP1 DUP2 MSTORE PUSH1 0x20 ADD PUSH1 0x0 KECCAK256 DUP1 SLOAD SWAP1 POP PUSH2 0xAD7 SWAP2 SWAP1 PUSH2 0x42A7 JUMP JUMPDEST SWAP6 POP POP POP POP POP POP JUMPDEST SWAP2 SWAP1 POP JUMP JUMPDEST PUSH1 0x0 DUP3 GT PUSH2 0xB27 JUMPI PUSH1 0x40 MLOAD PUSH32 0x8C379A000000000000000000000000000000000000000000000000000000000 DUP2 MSTORE PUSH1 0x4 ADD PUSH2 0xB1E SWAP1 PUSH2 0x440E JUMP JUMPDEST PUSH1 0x40 MLOAD DUP1 SWAP2 SUB SWAP1 REVERT JUMPDEST PUSH1 0x2 DUP2 PUSH1 0xFF AND GT ISZERO PUSH2 0xB6E JUMPI PUSH1 0x40 MLOAD PUSH32 0x8C379A000000000000000000000000000000000000000000000000000000000 DUP2 MSTORE PUSH1 0x4 ADD PUSH2 0xB65 SWAP1 PUSH2 0x447A JUMP JUMPDEST PUSH1 0x40 MLOAD DUP1 SWAP2 SUB SWAP1 REVERT JUMPDEST PUSH1 0x0 PUSH2 0x3E8 PUSH1 0x5 SLOAD DUP5 PUSH2 0xB81 SWAP2 SWAP1 PUSH2 0x42DB JUMP JUMPDEST PUSH2 0xB8B SWAP2 SWAP1 PUSH2 0x434C JUMP JUMPDEST SWAP1 POP PUSH1 0x0 DUP2 DUP5 PUSH2 0xB9B SWAP2 SWAP1 PUSH2 0x42A7 JUMP JUMPDEST SWAP1 POP PUSH2 0xBF4 PUSH1 0x1 PUSH1 0x0 SWAP1 SLOAD SWAP1 PUSH2 0x100 EXP SWAP1 DIV PUSH20 0xFFFFFFFFFFFFFFFFFFFFFFFFFFFFFFFFFFFFFFFF AND PUSH2 0xBCB PUSH2 0x2D72 JUMP JUMPDEST PUSH1 0x4 PUSH1 0x0 SWAP1 SLOAD SWAP1 PUSH2 0x100 EXP SWAP1 DIV PUSH20 0xFFFFFFFFFFFFFFFFFFFFFFFFFFFFFFFFFFFFFFFF AND DUP6 PUSH2 0x2D7A JUMP JUMPDEST PUSH1 0x1 PUSH1 0x0 SWAP1 SLOAD SWAP1 PUSH2 0x100 EXP SWAP1 DIV PUSH20 0xFFFFFFFFFFFFFFFFFFFFFFFFFFFFFFFFFFFFFFFF AND PUSH20 0xFFFFFFFFFFFFFFFFFFFFFFFFFFFFFFFFFFFFFFFF AND PUSH4 0x79CC6790 PUSH2 0xC3A PUSH2 0x2D72 JUMP JUMPDEST DUP4 PUSH1 0x40 MLOAD DUP4 PUSH4 0xFFFFFFFF AND PUSH1 0xE0 SHL DUP2 MSTORE PUSH1 0x4 ADD PUSH2 0xC58 SWAP3 SWAP2 SWAP1 PUSH2 0x449A JUMP JUMPDEST PUSH1 0x20 PUSH1 0x40 MLOAD DUP1 DUP4 SUB DUP2 PUSH1 0x0 DUP8 GAS CALL ISZERO DUP1 ISZERO PUSH2 0xC77 JUMPI RETURNDATASIZE PUSH1 0x0 DUP1 RETURNDATACOPY RETURNDATASIZE PUSH1 0x0 REVERT JUMPDEST POP POP POP POP PUSH1 0x40 MLOAD RETURNDATASIZE PUSH1 0x1F NOT PUSH1 0x1F DUP3 ADD AND DUP3 ADD DUP1 PUSH1 0x40 MSTORE POP DUP2 ADD SWAP1 PUSH2 0xC9B SWAP2 SWAP1 PUSH2 0x44EF JUMP JUMPDEST POP PUSH1 0x3 PUSH1 0x0 SWAP1 SLOAD SWAP1 PUSH2 0x100 EXP SWAP1 DIV PUSH20 0xFFFFFFFFFFFFFFFFFFFFFFFFFFFFFFFFFFFFFFFF AND PUSH20 0xFFFFFFFFFFFFFFFFFFFFFFFFFFFFFFFFFFFFFFFF AND PUSH4 0x40C10F19 ADDRESS DUP4 PUSH1 0x40 MLOAD DUP4 PUSH4 0xFFFFFFFF AND PUSH1 0xE0 SHL DUP2 MSTORE PUSH1 0x4 ADD PUSH2 0xCF9 SWAP3 SWAP2 SWAP1 PUSH2 0x449A JUMP JUMPDEST PUSH1 0x20 PUSH1 0x40 MLOAD DUP1 DUP4 SUB DUP2 PUSH1 0x0 DUP8 GAS CALL ISZERO DUP1 ISZERO PUSH2 0xD18 JUMPI RETURNDATASIZE PUSH1 0x0 DUP1 RETURNDATACOPY RETURNDATASIZE PUSH1 0x0 REVERT JUMPDEST POP POP POP POP PUSH1 0x40 MLOAD RETURNDATASIZE PUSH1 0x1F NOT PUSH1 0x1F DUP3 ADD AND DUP3 ADD DUP1 PUSH1 0x40 MSTORE POP DUP2 ADD SWAP1 PUSH2 0xD3C SWAP2 SWAP1 PUSH2 0x44EF JUMP JUMPDEST POP PUSH1 0x0 PUSH1 0xD DUP5 PUSH1 0xFF AND DUP2 SLOAD DUP2 LT PUSH2 0xD56 JUMPI PUSH2 0xD55 PUSH2 0x4249 JUMP JUMPDEST JUMPDEST SWAP1 PUSH1 0x0 MSTORE PUSH1 0x20 PUSH1 0x0 KECCAK256 SWAP1 PUSH1 0x5 MUL ADD SWAP1 POP PUSH1 0x0 PUSH2 0xD71 DUP6 PUSH2 0x886 JUMP JUMPDEST SWAP1 POP DUP3 DUP3 PUSH1 0x2 ADD PUSH1 0x0 DUP3 DUP3 SLOAD PUSH2 0xD87 SWAP2 SWAP1 PUSH2 0x437D JUMP JUMPDEST SWAP3 POP POP DUP2 SWAP1 SSTORE POP PUSH1 0x0 DUP2 SLT PUSH2 0xDE7 JUMPI DUP3 PUSH1 0xE PUSH1 0x0 DUP8 PUSH1 0xFF AND DUP2 MSTORE PUSH1 0x20 ADD SWAP1 DUP2 MSTORE PUSH1 0x20 ADD PUSH1 0x0 KECCAK256 DUP3 DUP2 SLOAD DUP2 LT PUSH2 0xDBF JUMPI PUSH2 0xDBE PUSH2 0x4249 JUMP JUMPDEST JUMPDEST SWAP1 PUSH1 0x0 MSTORE PUSH1 0x20 PUSH1 0x0 KECCAK256 SWAP1 PUSH1 0x3 MUL ADD PUSH1 0x0 ADD PUSH1 0x0 DUP3 DUP3 SLOAD PUSH2 0xDDF SWAP2 SWAP1 PUSH2 0x437D JUMP JUMPDEST SWAP3 POP POP DUP2 SWAP1 SSTORE POP JUMPDEST PUSH2 0xDEF PUSH2 0x3952 JUMP JUMPDEST PUSH1 0x10 PUSH1 0x0 PUSH2 0xDFB PUSH2 0x2D72 JUMP JUMPDEST PUSH20 0xFFFFFFFFFFFFFFFFFFFFFFFFFFFFFFFFFFFFFFFF AND PUSH20 0xFFFFFFFFFFFFFFFFFFFFFFFFFFFFFFFFFFFFFFFF AND DUP2 MSTORE PUSH1 0x20 ADD SWAP1 DUP2 MSTORE PUSH1 0x20 ADD PUSH1 0x0 KECCAK256 SLOAD DUP2 PUSH1 0x0 ADD DUP2 DUP2 MSTORE POP POP PUSH1 0x1 DUP2 PUSH1 0x20 ADD SWAP1 ISZERO ISZERO SWAP1 DUP2 ISZERO ISZERO DUP2 MSTORE POP POP DUP4 DUP2 PUSH1 0x40 ADD DUP2 DUP2 MSTORE POP POP DUP6 DUP2 PUSH1 0x60 ADD SWAP1 PUSH1 0xFF AND SWAP1 DUP2 PUSH1 0xFF AND DUP2 MSTORE POP POP TIMESTAMP DUP2 PUSH1 0x80 ADD DUP2 DUP2 MSTORE POP POP PUSH1 0x8 DUP7 PUSH1 0xFF AND DUP2 SLOAD DUP2 LT PUSH2 0xE8D JUMPI PUSH2 0xE8C PUSH2 0x4249 JUMP JUMPDEST JUMPDEST SWAP1 PUSH1 0x0 MSTORE PUSH1 0x20 PUSH1 0x0 KECCAK256 ADD SLOAD TIMESTAMP PUSH2 0xEA3 SWAP2 SWAP1 PUSH2 0x437D JUMP JUMPDEST DUP2 PUSH1 0xA0 ADD DUP2 DUP2 MSTORE POP POP TIMESTAMP DUP2 PUSH1 0xC0 ADD DUP2 DUP2 MSTORE POP POP PUSH5 0xE8D4A51000 DUP4 PUSH1 0x3 ADD SLOAD DUP6 PUSH2 0xECC SWAP2 SWAP1 PUSH2 0x42DB JUMP JUMPDEST PUSH2 0xED6 SWAP2 SWAP1 PUSH2 0x434C JUMP JUMPDEST DUP2 PUSH1 0xE0 ADD DUP2 DUP2 MSTORE POP POP DUP1 PUSH1 0xF PUSH1 0x0 PUSH2 0xEEC PUSH2 0x2D72 JUMP JUMPDEST PUSH20 0xFFFFFFFFFFFFFFFFFFFFFFFFFFFFFFFFFFFFFFFF AND PUSH20 0xFFFFFFFFFFFFFFFFFFFFFFFFFFFFFFFFFFFFFFFF AND DUP2 MSTORE PUSH1 0x20 ADD SWAP1 DUP2 MSTORE PUSH1 0x20 ADD PUSH1 0x0 KECCAK256 PUSH1 0x0 DUP4 PUSH1 0x0 ADD MLOAD DUP2 MSTORE PUSH1 0x20 ADD SWAP1 DUP2 MSTORE PUSH1 0x20 ADD PUSH1 0x0 KECCAK256 PUSH1 0x0 DUP3 ADD MLOAD DUP2 PUSH1 0x0 ADD SSTORE PUSH1 0x20 DUP3 ADD MLOAD DUP2 PUSH1 0x1 ADD PUSH1 0x0 PUSH2 0x100 EXP DUP2 SLOAD DUP2 PUSH1 0xFF MUL NOT AND SWAP1 DUP4 ISZERO ISZERO MUL OR SWAP1 SSTORE POP PUSH1 0x40 DUP3 ADD MLOAD DUP2 PUSH1 0x2 ADD SSTORE PUSH1 0x60 DUP3 ADD MLOAD DUP2 PUSH1 0x3 ADD PUSH1 0x0 PUSH2 0x100 EXP DUP2 SLOAD DUP2 PUSH1 0xFF MUL NOT AND SWAP1 DUP4 PUSH1 0xFF AND MUL OR SWAP1 SSTORE POP PUSH1 0x80 DUP3 ADD MLOAD DUP2 PUSH1 0x4 ADD SSTORE PUSH1 0xA0 DUP3 ADD MLOAD DUP2 PUSH1 0x5 ADD SSTORE PUSH1 0xC0 DUP3 ADD MLOAD DUP2 PUSH1 0x6 ADD SSTORE PUSH1 0xE0 DUP3 ADD MLOAD DUP2 PUSH1 0x7 ADD SSTORE SWAP1 POP POP PUSH1 0x10 PUSH1 0x0 PUSH2 0xFC7 PUSH2 0x2D72 JUMP JUMPDEST PUSH20 0xFFFFFFFFFFFFFFFFFFFFFFFFFFFFFFFFFFFFFFFF AND PUSH20 0xFFFFFFFFFFFFFFFFFFFFFFFFFFFFFFFFFFFFFFFF AND DUP2 MSTORE PUSH1 0x20 ADD SWAP1 DUP2 MSTORE PUSH1 0x20 ADD PUSH1 0x0 KECCAK256 PUSH1 0x0 DUP2 SLOAD DUP1 SWAP3 SWAP2 SWAP1 PUSH2 0x1012 SWAP1 PUSH2 0x451C JUMP JUMPDEST SWAP2 SWAP1 POP SSTORE POP PUSH1 0x0 PUSH1 0x3 PUSH1 0x0 SWAP1 SLOAD SWAP1 PUSH2 0x100 EXP SWAP1 DIV PUSH20 0xFFFFFFFFFFFFFFFFFFFFFFFFFFFFFFFFFFFFFFFF AND PUSH20 0xFFFFFFFFFFFFFFFFFFFFFFFFFFFFFFFFFFFFFFFF AND PUSH4 0x70A08231 ADDRESS PUSH1 0x40 MLOAD DUP3 PUSH4 0xFFFFFFFF AND PUSH1 0xE0 SHL DUP2 MSTORE PUSH1 0x4 ADD PUSH2 0x1074 SWAP2 SWAP1 PUSH2 0x3F57 JUMP JUMPDEST PUSH1 0x20 PUSH1 0x40 MLOAD DUP1 DUP4 SUB DUP2 DUP7 GAS STATICCALL ISZERO DUP1 ISZERO PUSH2 0x1091 JUMPI RETURNDATASIZE PUSH1 0x0 DUP1 RETURNDATACOPY RETURNDATASIZE PUSH1 0x0 REVERT JUMPDEST POP POP POP POP PUSH1 0x40 MLOAD RETURNDATASIZE PUSH1 0x1F NOT PUSH1 0x1F DUP3 ADD AND DUP3 ADD DUP1 PUSH1 0x40 MSTORE POP DUP2 ADD SWAP1 PUSH2 0x10B5 SWAP2 SWAP1 PUSH2 0x4579 JUMP JUMPDEST SWAP1 POP PUSH2 0x10BF PUSH2 0x2D72 JUMP JUMPDEST PUSH20 0xFFFFFFFFFFFFFFFFFFFFFFFFFFFFFFFFFFFFFFFF AND PUSH32 0x60C8E1CAB2FC58569C38B3EA9DB3965293AD843D0F60A21A76F3C180234A586D DUP4 PUSH1 0x0 ADD MLOAD DUP5 PUSH1 0x40 ADD MLOAD DUP6 PUSH1 0x60 ADD MLOAD DUP7 PUSH1 0x80 ADD MLOAD DUP8 PUSH1 0xA0 ADD MLOAD DUP8 PUSH1 0x40 MLOAD PUSH2 0x1122 SWAP7 SWAP6 SWAP5 SWAP4 SWAP3 SWAP2 SWAP1 PUSH2 0x45A6 JUMP JUMPDEST PUSH1 0x40 MLOAD DUP1 SWAP2 SUB SWAP1 LOG2 POP POP POP POP POP POP POP POP JUMP JUMPDEST PUSH1 0xD DUP2 DUP2 SLOAD DUP2 LT PUSH2 0x1144 JUMPI PUSH1 0x0 DUP1 REVERT JUMPDEST SWAP1 PUSH1 0x0 MSTORE PUSH1 0x20 PUSH1 0x0 KECCAK256 SWAP1 PUSH1 0x5 MUL ADD PUSH1 0x0 SWAP2 POP SWAP1 POP DUP1 PUSH1 0x0 ADD PUSH1 0x0 SWAP1 SLOAD SWAP1 PUSH2 0x100 EXP SWAP1 DIV PUSH1 0xFF AND SWAP1 DUP1 PUSH1 0x1 ADD SLOAD SWAP1 DUP1 PUSH1 0x2 ADD SLOAD SWAP1 DUP1 PUSH1 0x3 ADD SLOAD SWAP1 DUP1 PUSH1 0x4 ADD SLOAD SWAP1 POP DUP6 JUMP JUMPDEST PUSH1 0xB SLOAD DUP2 JUMP JUMPDEST PUSH1 0x2 PUSH1 0x0 SWAP1 SLOAD SWAP1 PUSH2 0x100 EXP SWAP1 DIV PUSH20 0xFFFFFFFFFFFFFFFFFFFFFFFFFFFFFFFFFFFFFFFF AND DUP2 JUMP JUMPDEST PUSH1 0x0 DUP1 PUSH1 0x0 DUP4 DUP2 MSTORE PUSH1 0x20 ADD SWAP1 DUP2 MSTORE PUSH1 0x20 ADD PUSH1 0x0 KECCAK256 PUSH1 0x1 ADD SLOAD SWAP1 POP SWAP2 SWAP1 POP JUMP JUMPDEST PUSH1 0x1 PUSH1 0x0 SWAP1 SLOAD SWAP1 PUSH2 0x100 EXP SWAP1 DIV PUSH20 0xFFFFFFFFFFFFFFFFFFFFFFFFFFFFFFFFFFFFFFFF AND DUP2 JUMP JUMPDEST PUSH1 0x0 DUP1 PUSH1 0x0 JUMPDEST PUSH1 0x10 PUSH1 0x0 DUP6 PUSH20 0xFFFFFFFFFFFFFFFFFFFFFFFFFFFFFFFFFFFFFFFF AND PUSH20 0xFFFFFFFFFFFFFFFFFFFFFFFFFFFFFFFFFFFFFFFF AND DUP2 MSTORE PUSH1 0x20 ADD SWAP1 DUP2 MSTORE PUSH1 0x20 ADD PUSH1 0x0 KECCAK256 SLOAD DUP2 LT ISZERO PUSH2 0x126F JUMPI PUSH2 0x124F DUP5 DUP3 PUSH2 0x15D4 JUMP JUMPDEST DUP3 PUSH2 0x125A SWAP2 SWAP1 PUSH2 0x437D JUMP JUMPDEST SWAP2 POP DUP1 DUP1 PUSH2 0x1267 SWAP1 PUSH2 0x451C JUMP JUMPDEST SWAP2 POP POP PUSH2 0x11FE JUMP JUMPDEST POP DUP1 SWAP2 POP POP SWAP2 SWAP1 POP JUMP JUMPDEST PUSH1 0x3 PUSH1 0x0 SWAP1 SLOAD SWAP1 PUSH2 0x100 EXP SWAP1 DIV PUSH20 0xFFFFFFFFFFFFFFFFFFFFFFFFFFFFFFFFFFFFFFFF AND DUP2 JUMP JUMPDEST PUSH1 0x4 PUSH1 0x0 SWAP1 SLOAD SWAP1 PUSH2 0x100 EXP SWAP1 DIV PUSH20 0xFFFFFFFFFFFFFFFFFFFFFFFFFFFFFFFFFFFFFFFF AND DUP2 JUMP JUMPDEST PUSH2 0x12CE DUP3 PUSH2 0x11B3 JUMP JUMPDEST PUSH2 0x12D7 DUP2 PUSH2 0x2E03 JUMP JUMPDEST PUSH2 0x12E1 DUP4 DUP4 PUSH2 0x2E17 JUMP JUMPDEST POP POP POP JUMP JUMPDEST PUSH1 0xE PUSH1 0x20 MSTORE DUP2 PUSH1 0x0 MSTORE PUSH1 0x40 PUSH1 0x0 KECCAK256 DUP2 DUP2 SLOAD DUP2 LT PUSH2 0x1302 JUMPI PUSH1 0x0 DUP1 REVERT JUMPDEST SWAP1 PUSH1 0x0 MSTORE PUSH1 0x20 PUSH1 0x0 KECCAK256 SWAP1 PUSH1 0x3 MUL ADD PUSH1 0x0 SWAP2 POP SWAP2 POP POP DUP1 PUSH1 0x0 ADD SLOAD SWAP1 DUP1 PUSH1 0x1 ADD SLOAD SWAP1 DUP1 PUSH1 0x2 ADD SLOAD SWAP1 POP DUP4 JUMP JUMPDEST DUP4 PUSH1 0x1 PUSH1 0x0 PUSH2 0x100 EXP DUP2 SLOAD DUP2 PUSH20 0xFFFFFFFFFFFFFFFFFFFFFFFFFFFFFFFFFFFFFFFF MUL NOT AND SWAP1 DUP4 PUSH20 0xFFFFFFFFFFFFFFFFFFFFFFFFFFFFFFFFFFFFFFFF AND MUL OR SWAP1 SSTORE POP DUP3 PUSH1 0x2 PUSH1 0x0 PUSH2 0x100 EXP DUP2 SLOAD DUP2 PUSH20 0xFFFFFFFFFFFFFFFFFFFFFFFFFFFFFFFFFFFFFFFF MUL NOT AND SWAP1 DUP4 PUSH20 0xFFFFFFFFFFFFFFFFFFFFFFFFFFFFFFFFFFFFFFFF AND MUL OR SWAP1 SSTORE POP DUP2 PUSH1 0x3 PUSH1 0x0 PUSH2 0x100 EXP DUP2 SLOAD DUP2 PUSH20 0xFFFFFFFFFFFFFFFFFFFFFFFFFFFFFFFFFFFFFFFF MUL NOT AND SWAP1 DUP4 PUSH20 0xFFFFFFFFFFFFFFFFFFFFFFFFFFFFFFFFFFFFFFFF AND MUL OR SWAP1 SSTORE POP DUP1 PUSH1 0x4 PUSH1 0x0 PUSH2 0x100 EXP DUP2 SLOAD DUP2 PUSH20 0xFFFFFFFFFFFFFFFFFFFFFFFFFFFFFFFFFFFFFFFF MUL NOT AND SWAP1 DUP4 PUSH20 0xFFFFFFFFFFFFFFFFFFFFFFFFFFFFFFFFFFFFFFFF AND MUL OR SWAP1 SSTORE POP POP POP POP POP JUMP JUMPDEST PUSH2 0x143F PUSH2 0x2D72 JUMP JUMPDEST PUSH20 0xFFFFFFFFFFFFFFFFFFFFFFFFFFFFFFFFFFFFFFFF AND DUP2 PUSH20 0xFFFFFFFFFFFFFFFFFFFFFFFFFFFFFFFFFFFFFFFF AND EQ PUSH2 0x14AC JUMPI PUSH1 0x40 MLOAD PUSH32 0x8C379A000000000000000000000000000000000000000000000000000000000 DUP2 MSTORE PUSH1 0x4 ADD PUSH2 0x14A3 SWAP1 PUSH2 0x4679 JUMP JUMPDEST PUSH1 0x40 MLOAD DUP1 SWAP2 SUB SWAP1 REVERT JUMPDEST PUSH2 0x14B6 DUP3 DUP3 PUSH2 0x2EF7 JUMP JUMPDEST POP POP JUMP JUMPDEST PUSH1 0x9 SLOAD DUP2 JUMP JUMPDEST PUSH1 0x8 DUP2 DUP2 SLOAD DUP2 LT PUSH2 0x14D0 JUMPI PUSH1 0x0 DUP1 REVERT JUMPDEST SWAP1 PUSH1 0x0 MSTORE PUSH1 0x20 PUSH1 0x0 KECCAK256 ADD PUSH1 0x0 SWAP2 POP SWAP1 POP SLOAD DUP2 JUMP JUMPDEST PUSH1 0x0 DUP1 PUSH1 0x0 JUMPDEST PUSH1 0x10 PUSH1 0x0 DUP7 PUSH20 0xFFFFFFFFFFFFFFFFFFFFFFFFFFFFFFFFFFFFFFFF AND PUSH20 0xFFFFFFFFFFFFFFFFFFFFFFFFFFFFFFFFFFFFFFFF AND DUP2 MSTORE PUSH1 0x20 ADD SWAP1 DUP2 MSTORE PUSH1 0x20 ADD PUSH1 0x0 KECCAK256 SLOAD DUP2 LT ISZERO PUSH2 0x15C9 JUMPI DUP4 PUSH1 0xFF AND PUSH1 0xF PUSH1 0x0 DUP8 PUSH20 0xFFFFFFFFFFFFFFFFFFFFFFFFFFFFFFFFFFFFFFFF AND PUSH20 0xFFFFFFFFFFFFFFFFFFFFFFFFFFFFFFFFFFFFFFFF AND DUP2 MSTORE PUSH1 0x20 ADD SWAP1 DUP2 MSTORE PUSH1 0x20 ADD PUSH1 0x0 KECCAK256 PUSH1 0x0 DUP4 DUP2 MSTORE PUSH1 0x20 ADD SWAP1 DUP2 MSTORE PUSH1 0x20 ADD PUSH1 0x0 KECCAK256 PUSH1 0x3 ADD PUSH1 0x0 SWAP1 SLOAD SWAP1 PUSH2 0x100 EXP SWAP1 DIV PUSH1 0xFF AND PUSH1 0xFF AND SUB PUSH2 0x15B6 JUMPI PUSH2 0x15A8 DUP6 DUP3 PUSH2 0x17C4 JUMP JUMPDEST DUP3 PUSH2 0x15B3 SWAP2 SWAP1 PUSH2 0x437D JUMP JUMPDEST SWAP2 POP JUMPDEST DUP1 DUP1 PUSH2 0x15C1 SWAP1 PUSH2 0x451C JUMP JUMPDEST SWAP2 POP POP PUSH2 0x14EA JUMP JUMPDEST POP DUP1 SWAP2 POP POP SWAP3 SWAP2 POP POP JUMP JUMPDEST PUSH1 0x0 DUP1 PUSH1 0x0 PUSH1 0xF PUSH1 0x0 DUP7 PUSH20 0xFFFFFFFFFFFFFFFFFFFFFFFFFFFFFFFFFFFFFFFF AND PUSH20 0xFFFFFFFFFFFFFFFFFFFFFFFFFFFFFFFFFFFFFFFF AND DUP2 MSTORE PUSH1 0x20 ADD SWAP1 DUP2 MSTORE PUSH1 0x20 ADD PUSH1 0x0 KECCAK256 PUSH1 0x0 DUP6 DUP2 MSTORE PUSH1 0x20 ADD SWAP1 DUP2 MSTORE PUSH1 0x20 ADD PUSH1 0x0 KECCAK256 PUSH1 0x40 MLOAD DUP1 PUSH2 0x100 ADD PUSH1 0x40 MSTORE SWAP1 DUP2 PUSH1 0x0 DUP3 ADD SLOAD DUP2 MSTORE PUSH1 0x20 ADD PUSH1 0x1 DUP3 ADD PUSH1 0x0 SWAP1 SLOAD SWAP1 PUSH2 0x100 EXP SWAP1 DIV PUSH1 0xFF AND ISZERO ISZERO ISZERO ISZERO DUP2 MSTORE PUSH1 0x20 ADD PUSH1 0x2 DUP3 ADD SLOAD DUP2 MSTORE PUSH1 0x20 ADD PUSH1 0x3 DUP3 ADD PUSH1 0x0 SWAP1 SLOAD SWAP1 PUSH2 0x100 EXP SWAP1 DIV PUSH1 0xFF AND PUSH1 0xFF AND PUSH1 0xFF AND DUP2 MSTORE PUSH1 0x20 ADD PUSH1 0x4 DUP3 ADD SLOAD DUP2 MSTORE PUSH1 0x20 ADD PUSH1 0x5 DUP3 ADD SLOAD DUP2 MSTORE PUSH1 0x20 ADD PUSH1 0x6 DUP3 ADD SLOAD DUP2 MSTORE PUSH1 0x20 ADD PUSH1 0x7 DUP3 ADD SLOAD DUP2 MSTORE POP POP SWAP1 POP DUP1 PUSH1 0x20 ADD MLOAD ISZERO PUSH2 0x177C JUMPI PUSH1 0x0 DUP2 PUSH1 0xA0 ADD MLOAD TIMESTAMP GT PUSH2 0x16C8 JUMPI TIMESTAMP PUSH2 0x16CE JUMP JUMPDEST DUP2 PUSH1 0xA0 ADD MLOAD JUMPDEST SWAP1 POP PUSH1 0x0 PUSH1 0x3C PUSH16 0xFFFFFFFFFFFFFFFFFFFFFFFFFFFFFFFF AND DUP4 PUSH1 0xC0 ADD MLOAD DUP4 PUSH2 0x16F6 SWAP2 SWAP1 PUSH2 0x42A7 JUMP JUMPDEST PUSH2 0x1700 SWAP2 SWAP1 PUSH2 0x434C JUMP JUMPDEST SWAP1 POP PUSH1 0x0 DUP2 GT ISZERO PUSH2 0x1779 JUMPI PUSH1 0x0 PUSH1 0x6 DUP5 PUSH1 0x60 ADD MLOAD PUSH1 0xFF AND DUP2 SLOAD DUP2 LT PUSH2 0x1728 JUMPI PUSH2 0x1727 PUSH2 0x4249 JUMP JUMPDEST JUMPDEST SWAP1 PUSH1 0x0 MSTORE PUSH1 0x20 PUSH1 0x0 KECCAK256 ADD SLOAD SWAP1 POP PUSH1 0x0 PUSH8 0xDE0B6B3A7640000 PUSH1 0x64 DUP4 DUP8 PUSH1 0x40 ADD MLOAD PUSH2 0x1752 SWAP2 SWAP1 PUSH2 0x42DB JUMP JUMPDEST PUSH2 0x175C SWAP2 SWAP1 PUSH2 0x434C JUMP JUMPDEST PUSH2 0x1766 SWAP2 SWAP1 PUSH2 0x434C JUMP JUMPDEST SWAP1 POP DUP3 DUP2 PUSH2 0x1774 SWAP2 SWAP1 PUSH2 0x42DB JUMP JUMPDEST SWAP6 POP POP POP JUMPDEST POP POP JUMPDEST DUP2 SWAP3 POP POP POP SWAP3 SWAP2 POP POP JUMP JUMPDEST PUSH1 0x0 PUSH1 0xD DUP1 SLOAD SWAP1 POP SWAP1 POP PUSH1 0x0 JUMPDEST DUP2 DUP2 PUSH1 0xFF AND LT ISZERO PUSH2 0x17BA JUMPI PUSH2 0x17A8 DUP2 PUSH2 0x886 JUMP JUMPDEST POP DUP1 PUSH2 0x17B3 SWAP1 PUSH2 0x4699 JUMP JUMPDEST SWAP1 POP PUSH2 0x1794 JUMP JUMPDEST POP POP JUMP JUMPDEST PUSH1 0x5 SLOAD DUP2 JUMP JUMPDEST PUSH1 0x0 DUP1 PUSH1 0x0 PUSH1 0xF PUSH1 0x0 DUP7 PUSH20 0xFFFFFFFFFFFFFFFFFFFFFFFFFFFFFFFFFFFFFFFF AND PUSH20 0xFFFFFFFFFFFFFFFFFFFFFFFFFFFFFFFFFFFFFFFF AND DUP2 MSTORE PUSH1 0x20 ADD SWAP1 DUP2 MSTORE PUSH1 0x20 ADD PUSH1 0x0 KECCAK256 PUSH1 0x0 DUP6 DUP2 MSTORE PUSH1 0x20 ADD SWAP1 DUP2 MSTORE PUSH1 0x20 ADD PUSH1 0x0 KECCAK256 PUSH1 0x40 MLOAD DUP1 PUSH2 0x100 ADD PUSH1 0x40 MSTORE SWAP1 DUP2 PUSH1 0x0 DUP3 ADD SLOAD DUP2 MSTORE PUSH1 0x20 ADD PUSH1 0x1 DUP3 ADD PUSH1 0x0 SWAP1 SLOAD SWAP1 PUSH2 0x100 EXP SWAP1 DIV PUSH1 0xFF AND ISZERO ISZERO ISZERO ISZERO DUP2 MSTORE PUSH1 0x20 ADD PUSH1 0x2 DUP3 ADD SLOAD DUP2 MSTORE PUSH1 0x20 ADD PUSH1 0x3 DUP3 ADD PUSH1 0x0 SWAP1 SLOAD SWAP1 PUSH2 0x100 EXP SWAP1 DIV PUSH1 0xFF AND PUSH1 0xFF AND PUSH1 0xFF AND DUP2 MSTORE PUSH1 0x20 ADD PUSH1 0x4 DUP3 ADD SLOAD DUP2 MSTORE PUSH1 0x20 ADD PUSH1 0x5 DUP3 ADD SLOAD DUP2 MSTORE PUSH1 0x20 ADD PUSH1 0x6 DUP3 ADD SLOAD DUP2 MSTORE PUSH1 0x20 ADD PUSH1 0x7 DUP3 ADD SLOAD DUP2 MSTORE POP POP SWAP1 POP PUSH1 0x0 PUSH1 0xD DUP3 PUSH1 0x60 ADD MLOAD PUSH1 0xFF AND DUP2 SLOAD DUP2 LT PUSH2 0x18B8 JUMPI PUSH2 0x18B7 PUSH2 0x4249 JUMP JUMPDEST JUMPDEST SWAP1 PUSH1 0x0 MSTORE PUSH1 0x20 PUSH1 0x0 KECCAK256 SWAP1 PUSH1 0x5 MUL ADD PUSH1 0x40 MLOAD DUP1 PUSH1 0xA0 ADD PUSH1 0x40 MSTORE SWAP1 DUP2 PUSH1 0x0 DUP3 ADD PUSH1 0x0 SWAP1 SLOAD SWAP1 PUSH2 0x100 EXP SWAP1 DIV PUSH1 0xFF AND PUSH1 0xFF AND PUSH1 0xFF AND DUP2 MSTORE PUSH1 0x20 ADD PUSH1 0x1 DUP3 ADD SLOAD DUP2 MSTORE PUSH1 0x20 ADD PUSH1 0x2 DUP3 ADD SLOAD DUP2 MSTORE PUSH1 0x20 ADD PUSH1 0x3 DUP3 ADD SLOAD DUP2 MSTORE PUSH1 0x20 ADD PUSH1 0x4 DUP3 ADD SLOAD DUP2 MSTORE POP POP SWAP1 POP DUP2 PUSH1 0x20 ADD MLOAD ISZERO PUSH2 0x1A53 JUMPI DUP2 PUSH1 0xA0 ADD MLOAD TIMESTAMP LT PUSH2 0x1967 JUMPI PUSH1 0x0 PUSH2 0x1939 DUP8 DUP8 PUSH2 0x2FD8 JUMP JUMPDEST SWAP1 POP DUP1 PUSH1 0x0 ADD MLOAD DUP3 PUSH1 0x40 ADD DUP2 DUP2 MSTORE POP POP DUP1 PUSH1 0x20 ADD MLOAD DUP3 PUSH1 0x60 ADD DUP2 DUP2 MSTORE POP POP DUP1 PUSH1 0x40 ADD MLOAD DUP3 PUSH1 0x80 ADD DUP2 DUP2 MSTORE POP POP POP JUMPDEST DUP1 PUSH1 0x80 ADD MLOAD TIMESTAMP GT DUP1 ISZERO PUSH2 0x197F JUMPI POP PUSH1 0x0 DUP2 PUSH1 0x40 ADD MLOAD EQ ISZERO JUMPDEST ISZERO PUSH2 0x1A1D JUMPI PUSH1 0x0 DUP3 PUSH1 0xA0 ADD MLOAD TIMESTAMP GT PUSH2 0x1997 JUMPI TIMESTAMP PUSH2 0x199D JUMP JUMPDEST DUP3 PUSH1 0xA0 ADD MLOAD JUMPDEST SWAP1 POP PUSH1 0x0 DUP3 PUSH1 0x80 ADD MLOAD DUP3 PUSH2 0x19B1 SWAP2 SWAP1 PUSH2 0x42A7 JUMP JUMPDEST SWAP1 POP PUSH1 0x0 PUSH1 0xB SLOAD DUP5 PUSH1 0x20 ADD MLOAD PUSH1 0x9 SLOAD DUP5 PUSH2 0x19CB SWAP2 SWAP1 PUSH2 0x42DB JUMP JUMPDEST PUSH2 0x19D5 SWAP2 SWAP1 PUSH2 0x42DB JUMP JUMPDEST PUSH2 0x19DF SWAP2 SWAP1 PUSH2 0x434C JUMP JUMPDEST SWAP1 POP DUP4 PUSH1 0x40 ADD MLOAD PUSH5 0xE8D4A51000 DUP3 PUSH2 0x19F7 SWAP2 SWAP1 PUSH2 0x42DB JUMP JUMPDEST PUSH2 0x1A01 SWAP2 SWAP1 PUSH2 0x434C JUMP JUMPDEST DUP5 PUSH1 0x60 ADD DUP2 DUP2 MLOAD PUSH2 0x1A12 SWAP2 SWAP1 PUSH2 0x437D JUMP JUMPDEST SWAP2 POP DUP2 DUP2 MSTORE POP POP POP POP POP JUMPDEST DUP2 PUSH1 0xE0 ADD MLOAD PUSH5 0xE8D4A51000 DUP3 PUSH1 0x60 ADD MLOAD DUP5 PUSH1 0x40 ADD MLOAD PUSH2 0x1A3C SWAP2 SWAP1 PUSH2 0x42DB JUMP JUMPDEST PUSH2 0x1A46 SWAP2 SWAP1 PUSH2 0x434C JUMP JUMPDEST PUSH2 0x1A50 SWAP2 SWAP1 PUSH2 0x42A7 JUMP JUMPDEST SWAP3 POP JUMPDEST DUP3 SWAP4 POP POP POP POP SWAP3 SWAP2 POP POP JUMP JUMPDEST PUSH1 0xA SLOAD DUP2 JUMP JUMPDEST PUSH1 0x0 PUSH1 0xF PUSH1 0x0 PUSH2 0x1A73 PUSH2 0x2D72 JUMP JUMPDEST PUSH20 0xFFFFFFFFFFFFFFFFFFFFFFFFFFFFFFFFFFFFFFFF AND PUSH20 0xFFFFFFFFFFFFFFFFFFFFFFFFFFFFFFFFFFFFFFFF AND DUP2 MSTORE PUSH1 0x20 ADD SWAP1 DUP2 MSTORE PUSH1 0x20 ADD PUSH1 0x0 KECCAK256 PUSH1 0x0 DUP4 DUP2 MSTORE PUSH1 0x20 ADD SWAP1 DUP2 MSTORE PUSH1 0x20 ADD PUSH1 0x0 KECCAK256 SWAP1 POP PUSH1 0x0 PUSH1 0xD DUP3 PUSH1 0x3 ADD PUSH1 0x0 SWAP1 SLOAD SWAP1 PUSH2 0x100 EXP SWAP1 DIV PUSH1 0xFF AND PUSH1 0xFF AND DUP2 SLOAD DUP2 LT PUSH2 0x1AEA JUMPI PUSH2 0x1AE9 PUSH2 0x4249 JUMP JUMPDEST JUMPDEST SWAP1 PUSH1 0x0 MSTORE PUSH1 0x20 PUSH1 0x0 KECCAK256 SWAP1 PUSH1 0x5 MUL ADD SWAP1 POP DUP2 PUSH1 0x1 ADD PUSH1 0x0 SWAP1 SLOAD SWAP1 PUSH2 0x100 EXP SWAP1 DIV PUSH1 0xFF AND PUSH2 0x1B4B JUMPI PUSH1 0x40 MLOAD PUSH32 0x8C379A000000000000000000000000000000000000000000000000000000000 DUP2 MSTORE PUSH1 0x4 ADD PUSH2 0x1B42 SWAP1 PUSH2 0x470E JUMP JUMPDEST PUSH1 0x40 MLOAD DUP1 SWAP2 SUB SWAP1 REVERT JUMPDEST PUSH1 0x0 PUSH2 0x1B5E PUSH2 0x1B58 PUSH2 0x2D72 JUMP JUMPDEST DUP6 PUSH2 0x15D4 JUMP JUMPDEST SWAP1 POP PUSH1 0x0 PUSH2 0x1B7C DUP5 PUSH1 0x3 ADD PUSH1 0x0 SWAP1 SLOAD SWAP1 PUSH2 0x100 EXP SWAP1 DIV PUSH1 0xFF AND PUSH2 0x886 JUMP JUMPDEST SWAP1 POP PUSH1 0x0 PUSH2 0x1B91 PUSH2 0x1B8B PUSH2 0x2D72 JUMP JUMPDEST DUP8 PUSH2 0x17C4 JUMP JUMPDEST SWAP1 POP DUP5 PUSH1 0x5 ADD SLOAD TIMESTAMP LT ISZERO PUSH2 0x1CFE JUMPI PUSH1 0x0 DUP4 GT DUP1 PUSH2 0x1BAE JUMPI POP PUSH1 0x0 DUP2 GT JUMPDEST PUSH2 0x1BED JUMPI PUSH1 0x40 MLOAD PUSH32 0x8C379A000000000000000000000000000000000000000000000000000000000 DUP2 MSTORE PUSH1 0x4 ADD PUSH2 0x1BE4 SWAP1 PUSH2 0x477A JUMP JUMPDEST PUSH1 0x40 MLOAD DUP1 SWAP2 SUB SWAP1 REVERT JUMPDEST PUSH1 0x0 DUP6 PUSH1 0x5 ADD SLOAD TIMESTAMP GT PUSH2 0x1C00 JUMPI TIMESTAMP PUSH2 0x1C06 JUMP JUMPDEST DUP6 PUSH1 0x5 ADD SLOAD JUMPDEST SWAP1 POP PUSH1 0x0 PUSH1 0x3C PUSH16 0xFFFFFFFFFFFFFFFFFFFFFFFFFFFFFFFF AND DUP8 PUSH1 0x6 ADD SLOAD DUP4 PUSH2 0x1C2E SWAP2 SWAP1 PUSH2 0x42A7 JUMP JUMPDEST PUSH2 0x1C38 SWAP2 SWAP1 PUSH2 0x434C JUMP JUMPDEST SWAP1 POP PUSH1 0x3C PUSH16 0xFFFFFFFFFFFFFFFFFFFFFFFFFFFFFFFF AND DUP2 PUSH2 0x1C59 SWAP2 SWAP1 PUSH2 0x42DB JUMP JUMPDEST DUP8 PUSH1 0x6 ADD SLOAD PUSH2 0x1C68 SWAP2 SWAP1 PUSH2 0x437D JUMP JUMPDEST DUP8 PUSH1 0x6 ADD DUP2 SWAP1 SSTORE POP PUSH5 0xE8D4A51000 DUP7 PUSH1 0x3 ADD SLOAD DUP9 PUSH1 0x2 ADD SLOAD PUSH2 0x1C8A SWAP2 SWAP1 PUSH2 0x42DB JUMP JUMPDEST PUSH2 0x1C94 SWAP2 SWAP1 PUSH2 0x434C JUMP JUMPDEST DUP8 PUSH1 0x7 ADD DUP2 SWAP1 SSTORE POP PUSH2 0x1CA4 PUSH2 0x2D72 JUMP JUMPDEST PUSH20 0xFFFFFFFFFFFFFFFFFFFFFFFFFFFFFFFFFFFFFFFF AND PUSH32 0x634235FCF5AF0ADBCA1A405EC65F6F6C08F55E1F379C2C45CD10F23CB29E0E31 DUP9 PUSH1 0x0 ADD SLOAD DUP8 PUSH1 0x40 MLOAD PUSH2 0x1CEF SWAP3 SWAP2 SWAP1 PUSH2 0x479A JUMP JUMPDEST PUSH1 0x40 MLOAD DUP1 SWAP2 SUB SWAP1 LOG2 POP POP PUSH2 0x1FE9 JUMP JUMPDEST PUSH1 0x0 DUP6 PUSH1 0x0 ADD SLOAD SWAP1 POP PUSH1 0x0 DUP7 PUSH1 0x2 ADD SLOAD SWAP1 POP PUSH1 0x0 DUP8 PUSH1 0x3 ADD PUSH1 0x0 SWAP1 SLOAD SWAP1 PUSH2 0x100 EXP SWAP1 DIV PUSH1 0xFF AND PUSH1 0xFF AND SWAP1 POP PUSH1 0xF PUSH1 0x0 PUSH2 0x1D35 PUSH2 0x2D72 JUMP JUMPDEST PUSH20 0xFFFFFFFFFFFFFFFFFFFFFFFFFFFFFFFFFFFFFFFF AND PUSH20 0xFFFFFFFFFFFFFFFFFFFFFFFFFFFFFFFFFFFFFFFF AND DUP2 MSTORE PUSH1 0x20 ADD SWAP1 DUP2 MSTORE PUSH1 0x20 ADD PUSH1 0x0 KECCAK256 PUSH1 0x0 DUP11 DUP2 MSTORE PUSH1 0x20 ADD SWAP1 DUP2 MSTORE PUSH1 0x20 ADD PUSH1 0x0 KECCAK256 PUSH1 0x0 DUP1 DUP3 ADD PUSH1 0x0 SWAP1 SSTORE PUSH1 0x1 DUP3 ADD PUSH1 0x0 PUSH2 0x100 EXP DUP2 SLOAD SWAP1 PUSH1 0xFF MUL NOT AND SWAP1 SSTORE PUSH1 0x2 DUP3 ADD PUSH1 0x0 SWAP1 SSTORE PUSH1 0x3 DUP3 ADD PUSH1 0x0 PUSH2 0x100 EXP DUP2 SLOAD SWAP1 PUSH1 0xFF MUL NOT AND SWAP1 SSTORE PUSH1 0x4 DUP3 ADD PUSH1 0x0 SWAP1 SSTORE PUSH1 0x5 DUP3 ADD PUSH1 0x0 SWAP1 SSTORE PUSH1 0x6 DUP3 ADD PUSH1 0x0 SWAP1 SSTORE PUSH1 0x7 DUP3 ADD PUSH1 0x0 SWAP1 SSTORE POP POP PUSH1 0x3 PUSH1 0x0 SWAP1 SLOAD SWAP1 PUSH2 0x100 EXP SWAP1 DIV PUSH20 0xFFFFFFFFFFFFFFFFFFFFFFFFFFFFFFFFFFFFFFFF AND PUSH20 0xFFFFFFFFFFFFFFFFFFFFFFFFFFFFFFFFFFFFFFFF AND PUSH4 0x42966C68 DUP4 PUSH1 0x40 MLOAD DUP3 PUSH4 0xFFFFFFFF AND PUSH1 0xE0 SHL DUP2 MSTORE PUSH1 0x4 ADD PUSH2 0x1E36 SWAP2 SWAP1 PUSH2 0x3BCA JUMP JUMPDEST PUSH1 0x20 PUSH1 0x40 MLOAD DUP1 DUP4 SUB DUP2 PUSH1 0x0 DUP8 GAS CALL ISZERO DUP1 ISZERO PUSH2 0x1E55 JUMPI RETURNDATASIZE PUSH1 0x0 DUP1 RETURNDATACOPY RETURNDATASIZE PUSH1 0x0 REVERT JUMPDEST POP POP POP POP PUSH1 0x40 MLOAD RETURNDATASIZE PUSH1 0x1F NOT PUSH1 0x1F DUP3 ADD AND DUP3 ADD DUP1 PUSH1 0x40 MSTORE POP DUP2 ADD SWAP1 PUSH2 0x1E79 SWAP2 SWAP1 PUSH2 0x44EF JUMP JUMPDEST POP DUP2 DUP8 PUSH1 0x2 ADD PUSH1 0x0 DUP3 DUP3 SLOAD PUSH2 0x1E8E SWAP2 SWAP1 PUSH2 0x42A7 JUMP JUMPDEST SWAP3 POP POP DUP2 SWAP1 SSTORE POP PUSH1 0x0 DUP6 SLT PUSH2 0x1EEB JUMPI DUP2 PUSH1 0xE PUSH1 0x0 DUP4 DUP2 MSTORE PUSH1 0x20 ADD SWAP1 DUP2 MSTORE PUSH1 0x20 ADD PUSH1 0x0 KECCAK256 DUP7 DUP2 SLOAD DUP2 LT PUSH2 0x1EC3 JUMPI PUSH2 0x1EC2 PUSH2 0x4249 JUMP JUMPDEST JUMPDEST SWAP1 PUSH1 0x0 MSTORE PUSH1 0x20 PUSH1 0x0 KECCAK256 SWAP1 PUSH1 0x3 MUL ADD PUSH1 0x0 ADD PUSH1 0x0 DUP3 DUP3 SLOAD PUSH2 0x1EE3 SWAP2 SWAP1 PUSH2 0x42A7 JUMP JUMPDEST SWAP3 POP POP DUP2 SWAP1 SSTORE POP JUMPDEST PUSH1 0x0 PUSH1 0x3 PUSH1 0x0 SWAP1 SLOAD SWAP1 PUSH2 0x100 EXP SWAP1 DIV PUSH20 0xFFFFFFFFFFFFFFFFFFFFFFFFFFFFFFFFFFFFFFFF AND PUSH20 0xFFFFFFFFFFFFFFFFFFFFFFFFFFFFFFFFFFFFFFFF AND PUSH4 0x70A08231 ADDRESS PUSH1 0x40 MLOAD DUP3 PUSH4 0xFFFFFFFF AND PUSH1 0xE0 SHL DUP2 MSTORE PUSH1 0x4 ADD PUSH2 0x1F48 SWAP2 SWAP1 PUSH2 0x3F57 JUMP JUMPDEST PUSH1 0x20 PUSH1 0x40 MLOAD DUP1 DUP4 SUB DUP2 DUP7 GAS STATICCALL ISZERO DUP1 ISZERO PUSH2 0x1F65 JUMPI RETURNDATASIZE PUSH1 0x0 DUP1 RETURNDATACOPY RETURNDATASIZE PUSH1 0x0 REVERT JUMPDEST POP POP POP POP PUSH1 0x40 MLOAD RETURNDATASIZE PUSH1 0x1F NOT PUSH1 0x1F DUP3 ADD AND DUP3 ADD DUP1 PUSH1 0x40 MSTORE POP DUP2 ADD SWAP1 PUSH2 0x1F89 SWAP2 SWAP1 PUSH2 0x4579 JUMP JUMPDEST SWAP1 POP PUSH2 0x1F93 PUSH2 0x2D72 JUMP JUMPDEST PUSH20 0xFFFFFFFFFFFFFFFFFFFFFFFFFFFFFFFFFFFFFFFF AND PUSH32 0xFBD65CFD6DE1493DB337385C0712095397ECBD0504DF64B861CDFCEB80C7B422 DUP6 DUP6 DUP5 PUSH1 0x40 MLOAD PUSH2 0x1FDC SWAP4 SWAP3 SWAP2 SWAP1 PUSH2 0x3FF2 JUMP JUMPDEST PUSH1 0x40 MLOAD DUP1 SWAP2 SUB SWAP1 LOG2 POP POP POP POP JUMPDEST PUSH1 0x0 DUP4 GT ISZERO PUSH2 0x209B JUMPI PUSH1 0x1 PUSH1 0x0 SWAP1 SLOAD SWAP1 PUSH2 0x100 EXP SWAP1 DIV PUSH20 0xFFFFFFFFFFFFFFFFFFFFFFFFFFFFFFFFFFFFFFFF AND PUSH20 0xFFFFFFFFFFFFFFFFFFFFFFFFFFFFFFFFFFFFFFFF AND PUSH4 0x40C10F19 PUSH2 0x2038 PUSH2 0x2D72 JUMP JUMPDEST DUP6 PUSH1 0x40 MLOAD DUP4 PUSH4 0xFFFFFFFF AND PUSH1 0xE0 SHL DUP2 MSTORE PUSH1 0x4 ADD PUSH2 0x2056 SWAP3 SWAP2 SWAP1 PUSH2 0x449A JUMP JUMPDEST PUSH1 0x20 PUSH1 0x40 MLOAD DUP1 DUP4 SUB DUP2 PUSH1 0x0 DUP8 GAS CALL ISZERO DUP1 ISZERO PUSH2 0x2075 JUMPI RETURNDATASIZE PUSH1 0x0 DUP1 RETURNDATACOPY RETURNDATASIZE PUSH1 0x0 REVERT JUMPDEST POP POP POP POP PUSH1 0x40 MLOAD RETURNDATASIZE PUSH1 0x1F NOT PUSH1 0x1F DUP3 ADD AND DUP3 ADD DUP1 PUSH1 0x40 MSTORE POP DUP2 ADD SWAP1 PUSH2 0x2099 SWAP2 SWAP1 PUSH2 0x44EF JUMP JUMPDEST POP JUMPDEST PUSH1 0x0 DUP2 GT ISZERO PUSH2 0x214D JUMPI PUSH1 0x2 PUSH1 0x0 SWAP1 SLOAD SWAP1 PUSH2 0x100 EXP SWAP1 DIV PUSH20 0xFFFFFFFFFFFFFFFFFFFFFFFFFFFFFFFFFFFFFFFF AND PUSH20 0xFFFFFFFFFFFFFFFFFFFFFFFFFFFFFFFFFFFFFFFF AND PUSH4 0x40C10F19 PUSH2 0x20EA PUSH2 0x2D72 JUMP JUMPDEST DUP4 PUSH1 0x40 MLOAD DUP4 PUSH4 0xFFFFFFFF AND PUSH1 0xE0 SHL DUP2 MSTORE PUSH1 0x4 ADD PUSH2 0x2108 SWAP3 SWAP2 SWAP1 PUSH2 0x449A JUMP JUMPDEST PUSH1 0x20 PUSH1 0x40 MLOAD DUP1 DUP4 SUB DUP2 PUSH1 0x0 DUP8 GAS CALL ISZERO DUP1 ISZERO PUSH2 0x2127 JUMPI RETURNDATASIZE PUSH1 0x0 DUP1 RETURNDATACOPY RETURNDATASIZE PUSH1 0x0 REVERT JUMPDEST POP POP POP POP PUSH1 0x40 MLOAD RETURNDATASIZE PUSH1 0x1F NOT PUSH1 0x1F DUP3 ADD AND DUP3 ADD DUP1 PUSH1 0x40 MSTORE POP DUP2 ADD SWAP1 PUSH2 0x214B SWAP2 SWAP1 PUSH2 0x44EF JUMP JUMPDEST POP JUMPDEST POP POP POP POP POP POP JUMP JUMPDEST PUSH1 0x40 MLOAD PUSH1 0x20 ADD PUSH2 0x2164 SWAP1 PUSH2 0x481A JUMP JUMPDEST PUSH1 0x40 MLOAD PUSH1 0x20 DUP2 DUP4 SUB SUB DUP2 MSTORE SWAP1 PUSH1 0x40 MSTORE DUP1 MLOAD SWAP1 PUSH1 0x20 ADD KECCAK256 PUSH2 0x2183 DUP2 PUSH2 0x2E03 JUMP JUMPDEST PUSH2 0x218B PUSH2 0x1787 JUMP JUMPDEST DUP2 PUSH1 0xD DUP5 PUSH1 0xFF AND DUP2 SLOAD DUP2 LT PUSH2 0x21A3 JUMPI PUSH2 0x21A2 PUSH2 0x4249 JUMP JUMPDEST JUMPDEST SWAP1 PUSH1 0x0 MSTORE PUSH1 0x20 PUSH1 0x0 KECCAK256 SWAP1 PUSH1 0x5 MUL ADD PUSH1 0x1 ADD SLOAD PUSH1 0xB SLOAD PUSH2 0x21C2 SWAP2 SWAP1 PUSH2 0x42A7 JUMP JUMPDEST PUSH2 0x21CC SWAP2 SWAP1 PUSH2 0x437D JUMP JUMPDEST PUSH1 0xB DUP2 SWAP1 SSTORE POP PUSH1 0x0 PUSH1 0xD DUP5 PUSH1 0xFF AND DUP2 SLOAD DUP2 LT PUSH2 0x21EB JUMPI PUSH2 0x21EA PUSH2 0x4249 JUMP JUMPDEST JUMPDEST SWAP1 PUSH1 0x0 MSTORE PUSH1 0x20 PUSH1 0x0 KECCAK256 SWAP1 PUSH1 0x5 MUL ADD PUSH1 0x1 ADD SLOAD SWAP1 POP DUP3 PUSH1 0xD DUP6 PUSH1 0xFF AND DUP2 SLOAD DUP2 LT PUSH2 0x2217 JUMPI PUSH2 0x2216 PUSH2 0x4249 JUMP JUMPDEST JUMPDEST SWAP1 PUSH1 0x0 MSTORE PUSH1 0x20 PUSH1 0x0 KECCAK256 SWAP1 PUSH1 0x5 MUL ADD PUSH1 0x1 ADD DUP2 SWAP1 SSTORE POP DUP4 PUSH1 0xFF AND PUSH32 0x79C68A2ECB77B6CDD88572066AE7A8FC466CD3A32F2908E8F6429F27CA760872 DUP5 DUP4 PUSH1 0x40 MLOAD PUSH2 0x2261 SWAP3 SWAP2 SWAP1 PUSH2 0x479A JUMP JUMPDEST PUSH1 0x40 MLOAD DUP1 SWAP2 SUB SWAP1 LOG2 POP POP POP POP JUMP JUMPDEST PUSH1 0x7 DUP2 DUP2 SLOAD DUP2 LT PUSH2 0x227F JUMPI PUSH1 0x0 DUP1 REVERT JUMPDEST SWAP1 PUSH1 0x0 MSTORE PUSH1 0x20 PUSH1 0x0 KECCAK256 ADD PUSH1 0x0 SWAP2 POP SWAP1 POP SLOAD DUP2 JUMP JUMPDEST PUSH1 0x0 DUP1 PUSH1 0x0 DUP5 DUP2 MSTORE PUSH1 0x20 ADD SWAP1 DUP2 MSTORE PUSH1 0x20 ADD PUSH1 0x0 KECCAK256 PUSH1 0x0 ADD PUSH1 0x0 DUP4 PUSH20 0xFFFFFFFFFFFFFFFFFFFFFFFFFFFFFFFFFFFFFFFF AND PUSH20 0xFFFFFFFFFFFFFFFFFFFFFFFFFFFFFFFFFFFFFFFF AND DUP2 MSTORE PUSH1 0x20 ADD SWAP1 DUP2 MSTORE PUSH1 0x20 ADD PUSH1 0x0 KECCAK256 PUSH1 0x0 SWAP1 SLOAD SWAP1 PUSH2 0x100 EXP SWAP1 DIV PUSH1 0xFF AND SWAP1 POP SWAP3 SWAP2 POP POP JUMP JUMPDEST PUSH1 0x6 DUP2 DUP2 SLOAD DUP2 LT PUSH2 0x230D JUMPI PUSH1 0x0 DUP1 REVERT JUMPDEST SWAP1 PUSH1 0x0 MSTORE PUSH1 0x20 PUSH1 0x0 KECCAK256 ADD PUSH1 0x0 SWAP2 POP SWAP1 POP SLOAD DUP2 JUMP JUMPDEST PUSH1 0x0 DUP1 PUSH1 0x0 JUMPDEST PUSH1 0x10 PUSH1 0x0 DUP7 PUSH20 0xFFFFFFFFFFFFFFFFFFFFFFFFFFFFFFFFFFFFFFFF AND PUSH20 0xFFFFFFFFFFFFFFFFFFFFFFFFFFFFFFFFFFFFFFFF AND DUP2 MSTORE PUSH1 0x20 ADD SWAP1 DUP2 MSTORE PUSH1 0x20 ADD PUSH1 0x0 KECCAK256 SLOAD DUP2 LT ISZERO PUSH2 0x2406 JUMPI DUP4 PUSH1 0xFF AND PUSH1 0xF PUSH1 0x0 DUP8 PUSH20 0xFFFFFFFFFFFFFFFFFFFFFFFFFFFFFFFFFFFFFFFF AND PUSH20 0xFFFFFFFFFFFFFFFFFFFFFFFFFFFFFFFFFFFFFFFF AND DUP2 MSTORE PUSH1 0x20 ADD SWAP1 DUP2 MSTORE PUSH1 0x20 ADD PUSH1 0x0 KECCAK256 PUSH1 0x0 DUP4 DUP2 MSTORE PUSH1 0x20 ADD SWAP1 DUP2 MSTORE PUSH1 0x20 ADD PUSH1 0x0 KECCAK256 PUSH1 0x3 ADD PUSH1 0x0 SWAP1 SLOAD SWAP1 PUSH2 0x100 EXP SWAP1 DIV PUSH1 0xFF AND PUSH1 0xFF AND SUB PUSH2 0x23F3 JUMPI PUSH2 0x23E5 DUP6 DUP3 PUSH2 0x15D4 JUMP JUMPDEST DUP3 PUSH2 0x23F0 SWAP2 SWAP1 PUSH2 0x437D JUMP JUMPDEST SWAP2 POP JUMPDEST DUP1 DUP1 PUSH2 0x23FE SWAP1 PUSH2 0x451C JUMP JUMPDEST SWAP2 POP POP PUSH2 0x2327 JUMP JUMPDEST POP DUP1 SWAP2 POP POP SWAP3 SWAP2 POP POP JUMP JUMPDEST PUSH1 0x0 DUP1 SHL DUP2 JUMP JUMPDEST PUSH1 0x10 PUSH1 0x20 MSTORE DUP1 PUSH1 0x0 MSTORE PUSH1 0x40 PUSH1 0x0 KECCAK256 PUSH1 0x0 SWAP2 POP SWAP1 POP SLOAD DUP2 JUMP JUMPDEST PUSH1 0x0 DUP1 PUSH1 0x0 JUMPDEST PUSH1 0x10 PUSH1 0x0 DUP6 PUSH20 0xFFFFFFFFFFFFFFFFFFFFFFFFFFFFFFFFFFFFFFFF AND PUSH20 0xFFFFFFFFFFFFFFFFFFFFFFFFFFFFFFFFFFFFFFFF AND DUP2 MSTORE PUSH1 0x20 ADD SWAP1 DUP2 MSTORE PUSH1 0x20 ADD PUSH1 0x0 KECCAK256 SLOAD DUP2 LT ISZERO PUSH2 0x24A7 JUMPI PUSH2 0x2487 DUP5 DUP3 PUSH2 0x17C4 JUMP JUMPDEST DUP3 PUSH2 0x2492 SWAP2 SWAP1 PUSH2 0x437D JUMP JUMPDEST SWAP2 POP DUP1 DUP1 PUSH2 0x249F SWAP1 PUSH2 0x451C JUMP JUMPDEST SWAP2 POP POP PUSH2 0x2436 JUMP JUMPDEST POP DUP1 SWAP2 POP POP SWAP2 SWAP1 POP JUMP JUMPDEST PUSH1 0x40 MLOAD PUSH1 0x20 ADD PUSH2 0x24C0 SWAP1 PUSH2 0x481A JUMP JUMPDEST PUSH1 0x40 MLOAD PUSH1 0x20 DUP2 DUP4 SUB SUB DUP2 MSTORE SWAP1 PUSH1 0x40 MSTORE DUP1 MLOAD SWAP1 PUSH1 0x20 ADD KECCAK256 DUP2 JUMP JUMPDEST DUP1 PUSH1 0xA DUP2 SWAP1 SSTORE POP PUSH1 0xA SLOAD PUSH1 0xD PUSH1 0x0 DUP2 SLOAD DUP2 LT PUSH2 0x24F8 JUMPI PUSH2 0x24F7 PUSH2 0x4249 JUMP JUMPDEST JUMPDEST SWAP1 PUSH1 0x0 MSTORE PUSH1 0x20 PUSH1 0x0 KECCAK256 SWAP1 PUSH1 0x5 MUL ADD PUSH1 0x4 ADD DUP2 SWAP1 SSTORE POP PUSH1 0xA SLOAD PUSH1 0xD PUSH1 0x0 DUP2 SLOAD DUP2 LT PUSH2 0x2525 JUMPI PUSH2 0x2524 PUSH2 0x4249 JUMP JUMPDEST JUMPDEST SWAP1 PUSH1 0x0 MSTORE PUSH1 0x20 PUSH1 0x0 KECCAK256 SWAP1 PUSH1 0x5 MUL ADD PUSH1 0x4 ADD DUP2 SWAP1 SSTORE POP PUSH1 0xA SLOAD PUSH1 0xD PUSH1 0x0 DUP2 SLOAD DUP2 LT PUSH2 0x2552 JUMPI PUSH2 0x2551 PUSH2 0x4249 JUMP JUMPDEST JUMPDEST SWAP1 PUSH1 0x0 MSTORE PUSH1 0x20 PUSH1 0x0 KECCAK256 SWAP1 PUSH1 0x5 MUL ADD PUSH1 0x4 ADD DUP2 SWAP1 SSTORE POP POP JUMP JUMPDEST PUSH2 0x2573 DUP3 PUSH2 0x11B3 JUMP JUMPDEST PUSH2 0x257C DUP2 PUSH2 0x2E03 JUMP JUMPDEST PUSH2 0x2586 DUP4 DUP4 PUSH2 0x2EF7 JUMP JUMPDEST POP POP POP JUMP JUMPDEST PUSH32 0x0 PUSH20 0xFFFFFFFFFFFFFFFFFFFFFFFFFFFFFFFFFFFFFFFF AND PUSH2 0x25CA PUSH2 0x2D72 JUMP JUMPDEST PUSH20 0xFFFFFFFFFFFFFFFFFFFFFFFFFFFFFFFFFFFFFFFF AND EQ PUSH2 0x2620 JUMPI PUSH1 0x40 MLOAD PUSH32 0x8C379A000000000000000000000000000000000000000000000000000000000 DUP2 MSTORE PUSH1 0x4 ADD PUSH2 0x2617 SWAP1 PUSH2 0x48A1 JUMP JUMPDEST PUSH1 0x40 MLOAD DUP1 SWAP2 SUB SWAP1 REVERT JUMPDEST PUSH1 0x0 PUSH20 0xFFFFFFFFFFFFFFFFFFFFFFFFFFFFFFFFFFFFFFFF AND DUP6 PUSH20 0xFFFFFFFFFFFFFFFFFFFFFFFFFFFFFFFFFFFFFFFF AND SUB PUSH2 0x268F JUMPI PUSH1 0x40 MLOAD PUSH32 0x8C379A000000000000000000000000000000000000000000000000000000000 DUP2 MSTORE PUSH1 0x4 ADD PUSH2 0x2686 SWAP1 PUSH2 0x490D JUMP JUMPDEST PUSH1 0x40 MLOAD DUP1 SWAP2 SUB SWAP1 REVERT JUMPDEST PUSH1 0x0 PUSH20 0xFFFFFFFFFFFFFFFFFFFFFFFFFFFFFFFFFFFFFFFF AND DUP5 PUSH20 0xFFFFFFFFFFFFFFFFFFFFFFFFFFFFFFFFFFFFFFFF AND SUB PUSH2 0x26FE JUMPI PUSH1 0x40 MLOAD PUSH32 0x8C379A000000000000000000000000000000000000000000000000000000000 DUP2 MSTORE PUSH1 0x4 ADD PUSH2 0x26F5 SWAP1 PUSH2 0x4979 JUMP JUMPDEST PUSH1 0x40 MLOAD DUP1 SWAP2 SUB SWAP1 REVERT JUMPDEST PUSH1 0x0 PUSH20 0xFFFFFFFFFFFFFFFFFFFFFFFFFFFFFFFFFFFFFFFF AND DUP4 PUSH20 0xFFFFFFFFFFFFFFFFFFFFFFFFFFFFFFFFFFFFFFFF AND SUB PUSH2 0x276D JUMPI PUSH1 0x40 MLOAD PUSH32 0x8C379A000000000000000000000000000000000000000000000000000000000 DUP2 MSTORE PUSH1 0x4 ADD PUSH2 0x2764 SWAP1 PUSH2 0x49E5 JUMP JUMPDEST PUSH1 0x40 MLOAD DUP1 SWAP2 SUB SWAP1 REVERT JUMPDEST PUSH1 0x0 PUSH20 0xFFFFFFFFFFFFFFFFFFFFFFFFFFFFFFFFFFFFFFFF AND DUP3 PUSH20 0xFFFFFFFFFFFFFFFFFFFFFFFFFFFFFFFFFFFFFFFF AND SUB PUSH2 0x27DC JUMPI PUSH1 0x40 MLOAD PUSH32 0x8C379A000000000000000000000000000000000000000000000000000000000 DUP2 MSTORE PUSH1 0x4 ADD PUSH2 0x27D3 SWAP1 PUSH2 0x4A51 JUMP JUMPDEST PUSH1 0x40 MLOAD DUP1 SWAP2 SUB SWAP1 REVERT JUMPDEST PUSH2 0x2811 PUSH1 0x40 MLOAD PUSH1 0x20 ADD PUSH2 0x27EE SWAP1 PUSH2 0x481A JUMP JUMPDEST PUSH1 0x40 MLOAD PUSH1 0x20 DUP2 DUP4 SUB SUB DUP2 MSTORE SWAP1 PUSH1 0x40 MSTORE DUP1 MLOAD SWAP1 PUSH1 0x20 ADD KECCAK256 PUSH2 0x280C PUSH2 0x2D72 JUMP JUMPDEST PUSH2 0x2E17 JUMP JUMPDEST PUSH2 0x2825 PUSH1 0x0 DUP1 SHL PUSH2 0x2820 PUSH2 0x2D72 JUMP JUMPDEST PUSH2 0x2E17 JUMP JUMPDEST DUP5 PUSH1 0x1 PUSH1 0x0 PUSH2 0x100 EXP DUP2 SLOAD DUP2 PUSH20 0xFFFFFFFFFFFFFFFFFFFFFFFFFFFFFFFFFFFFFFFF MUL NOT AND SWAP1 DUP4 PUSH20 0xFFFFFFFFFFFFFFFFFFFFFFFFFFFFFFFFFFFFFFFF AND MUL OR SWAP1 SSTORE POP DUP4 PUSH1 0x2 PUSH1 0x0 PUSH2 0x100 EXP DUP2 SLOAD DUP2 PUSH20 0xFFFFFFFFFFFFFFFFFFFFFFFFFFFFFFFFFFFFFFFF MUL NOT AND SWAP1 DUP4 PUSH20 0xFFFFFFFFFFFFFFFFFFFFFFFFFFFFFFFFFFFFFFFF AND MUL OR SWAP1 SSTORE POP DUP3 PUSH1 0x3 PUSH1 0x0 PUSH2 0x100 EXP DUP2 SLOAD DUP2 PUSH20 0xFFFFFFFFFFFFFFFFFFFFFFFFFFFFFFFFFFFFFFFF MUL NOT AND SWAP1 DUP4 PUSH20 0xFFFFFFFFFFFFFFFFFFFFFFFFFFFFFFFFFFFFFFFF AND MUL OR SWAP1 SSTORE POP DUP2 PUSH1 0x4 PUSH1 0x0 PUSH2 0x100 EXP DUP2 SLOAD DUP2 PUSH20 0xFFFFFFFFFFFFFFFFFFFFFFFFFFFFFFFFFFFFFFFF MUL NOT AND SWAP1 DUP4 PUSH20 0xFFFFFFFFFFFFFFFFFFFFFFFFFFFFFFFFFFFFFFFF AND MUL OR SWAP1 SSTORE POP PUSH1 0xF PUSH1 0x5 DUP2 SWAP1 SSTORE POP PUSH1 0x40 MLOAD DUP1 PUSH1 0x60 ADD PUSH1 0x40 MSTORE DUP1 PUSH8 0x100AEFE0105A0000 PUSH8 0xFFFFFFFFFFFFFFFF AND DUP2 MSTORE PUSH1 0x20 ADD PUSH8 0x87AB54345C38000 PUSH8 0xFFFFFFFFFFFFFFFF AND DUP2 MSTORE PUSH1 0x20 ADD PUSH8 0x4F0C41D240A0000 PUSH8 0xFFFFFFFFFFFFFFFF AND DUP2 MSTORE POP PUSH1 0x6 SWAP1 PUSH1 0x3 PUSH2 0x2992 SWAP3 SWAP2 SWAP1 PUSH2 0x399C JUMP JUMPDEST POP PUSH1 0x40 MLOAD DUP1 PUSH1 0x60 ADD PUSH1 0x40 MSTORE DUP1 PUSH8 0xDE0B6B3A76400000 PUSH9 0xFFFFFFFFFFFFFFFFFF AND DUP2 MSTORE PUSH1 0x20 ADD PUSH9 0x1158E460913D00000 PUSH9 0xFFFFFFFFFFFFFFFFFF AND DUP2 MSTORE PUSH1 0x20 ADD PUSH9 0x1A055690D9DB80000 PUSH9 0xFFFFFFFFFFFFFFFFFF AND DUP2 MSTORE POP PUSH1 0x7 SWAP1 PUSH1 0x3 PUSH2 0x29F9 SWAP3 SWAP2 SWAP1 PUSH2 0x39F5 JUMP JUMPDEST POP PUSH1 0x40 MLOAD DUP1 PUSH1 0x60 ADD PUSH1 0x40 MSTORE DUP1 PUSH2 0x1518 PUSH2 0xFFFF AND DUP2 MSTORE PUSH1 0x20 ADD PUSH2 0x2A30 PUSH2 0xFFFF AND DUP2 MSTORE PUSH1 0x20 ADD PUSH2 0x558C PUSH2 0xFFFF AND DUP2 MSTORE POP PUSH1 0x8 SWAP1 PUSH1 0x3 PUSH2 0x2A37 SWAP3 SWAP2 SWAP1 PUSH2 0x3A4F JUMP JUMPDEST POP PUSH8 0x2501E734690AAAB PUSH1 0x9 DUP2 SWAP1 SSTORE POP PUSH2 0x708 PUSH16 0xFFFFFFFFFFFFFFFFFFFFFFFFFFFFFFFF AND DUP2 PUSH2 0x2A67 SWAP2 SWAP1 PUSH2 0x437D JUMP JUMPDEST PUSH1 0xA DUP2 SWAP1 SSTORE POP PUSH2 0x3E8 PUSH1 0xB DUP2 SWAP1 SSTORE POP PUSH1 0x0 PUSH1 0xD DUP1 SLOAD SWAP1 POP SUB PUSH2 0x2AB3 JUMPI PUSH2 0x2A92 PUSH1 0x0 PUSH1 0x64 PUSH1 0xA SLOAD PUSH2 0x3304 JUMP JUMPDEST PUSH2 0x2AA2 PUSH1 0x1 PUSH2 0x12C PUSH1 0xA SLOAD PUSH2 0x3304 JUMP JUMPDEST PUSH2 0x2AB2 PUSH1 0x2 PUSH2 0x258 PUSH1 0xA SLOAD PUSH2 0x3304 JUMP JUMPDEST JUMPDEST PUSH1 0x1 PUSH1 0xC PUSH1 0x0 PUSH2 0x100 EXP DUP2 SLOAD DUP2 PUSH1 0xFF MUL NOT AND SWAP1 DUP4 ISZERO ISZERO MUL OR SWAP1 SSTORE POP POP POP POP POP POP JUMP JUMPDEST PUSH1 0x0 DUP1 PUSH1 0x0 JUMPDEST PUSH1 0x10 PUSH1 0x0 DUP6 PUSH20 0xFFFFFFFFFFFFFFFFFFFFFFFFFFFFFFFFFFFFFFFF AND PUSH20 0xFFFFFFFFFFFFFFFFFFFFFFFFFFFFFFFFFFFFFFFF AND DUP2 MSTORE PUSH1 0x20 ADD SWAP1 DUP2 MSTORE PUSH1 0x20 ADD PUSH1 0x0 KECCAK256 SLOAD DUP2 LT ISZERO PUSH2 0x2C8F JUMPI PUSH1 0x0 PUSH1 0xF PUSH1 0x0 DUP7 PUSH20 0xFFFFFFFFFFFFFFFFFFFFFFFFFFFFFFFFFFFFFFFF AND PUSH20 0xFFFFFFFFFFFFFFFFFFFFFFFFFFFFFFFFFFFFFFFF AND DUP2 MSTORE PUSH1 0x20 ADD SWAP1 DUP2 MSTORE PUSH1 0x20 ADD PUSH1 0x0 KECCAK256 PUSH1 0x0 DUP4 DUP2 MSTORE PUSH1 0x20 ADD SWAP1 DUP2 MSTORE PUSH1 0x20 ADD PUSH1 0x0 KECCAK256 PUSH1 0x40 MLOAD DUP1 PUSH2 0x100 ADD PUSH1 0x40 MSTORE SWAP1 DUP2 PUSH1 0x0 DUP3 ADD SLOAD DUP2 MSTORE PUSH1 0x20 ADD PUSH1 0x1 DUP3 ADD PUSH1 0x0 SWAP1 SLOAD SWAP1 PUSH2 0x100 EXP SWAP1 DIV PUSH1 0xFF AND ISZERO ISZERO ISZERO ISZERO DUP2 MSTORE PUSH1 0x20 ADD PUSH1 0x2 DUP3 ADD SLOAD DUP2 MSTORE PUSH1 0x20 ADD PUSH1 0x3 DUP3 ADD PUSH1 0x0 SWAP1 SLOAD SWAP1 PUSH2 0x100 EXP SWAP1 DIV PUSH1 0xFF AND PUSH1 0xFF AND PUSH1 0xFF AND DUP2 MSTORE PUSH1 0x20 ADD PUSH1 0x4 DUP3 ADD SLOAD DUP2 MSTORE PUSH1 0x20 ADD PUSH1 0x5 DUP3 ADD SLOAD DUP2 MSTORE PUSH1 0x20 ADD PUSH1 0x6 DUP3 ADD SLOAD DUP2 MSTORE PUSH1 0x20 ADD PUSH1 0x7 DUP3 ADD SLOAD DUP2 MSTORE POP POP SWAP1 POP DUP1 PUSH1 0x20 ADD MLOAD ISZERO PUSH2 0x2C7B JUMPI DUP1 PUSH1 0xA0 ADD MLOAD TIMESTAMP LT ISZERO PUSH2 0x2C7A JUMPI PUSH1 0x0 PUSH1 0x6 DUP3 PUSH1 0x60 ADD MLOAD PUSH1 0xFF AND DUP2 SLOAD DUP2 LT PUSH2 0x2C29 JUMPI PUSH2 0x2C28 PUSH2 0x4249 JUMP JUMPDEST JUMPDEST SWAP1 PUSH1 0x0 MSTORE PUSH1 0x20 PUSH1 0x0 KECCAK256 ADD SLOAD SWAP1 POP PUSH1 0x0 PUSH8 0xDE0B6B3A7640000 PUSH1 0x64 DUP4 DUP6 PUSH1 0x40 ADD MLOAD PUSH2 0x2C53 SWAP2 SWAP1 PUSH2 0x42DB JUMP JUMPDEST PUSH2 0x2C5D SWAP2 SWAP1 PUSH2 0x434C JUMP JUMPDEST PUSH2 0x2C67 SWAP2 SWAP1 PUSH2 0x434C JUMP JUMPDEST SWAP1 POP DUP1 DUP6 PUSH2 0x2C75 SWAP2 SWAP1 PUSH2 0x437D JUMP JUMPDEST SWAP5 POP POP POP JUMPDEST JUMPDEST POP DUP1 DUP1 PUSH2 0x2C87 SWAP1 PUSH2 0x451C JUMP JUMPDEST SWAP2 POP POP PUSH2 0x2ADB JUMP JUMPDEST POP DUP1 SWAP2 POP POP SWAP2 SWAP1 POP JUMP JUMPDEST PUSH1 0xF PUSH1 0x20 MSTORE DUP2 PUSH1 0x0 MSTORE PUSH1 0x40 PUSH1 0x0 KECCAK256 PUSH1 0x20 MSTORE DUP1 PUSH1 0x0 MSTORE PUSH1 0x40 PUSH1 0x0 KECCAK256 PUSH1 0x0 SWAP2 POP SWAP2 POP POP DUP1 PUSH1 0x0 ADD SLOAD SWAP1 DUP1 PUSH1 0x1 ADD PUSH1 0x0 SWAP1 SLOAD SWAP1 PUSH2 0x100 EXP SWAP1 DIV PUSH1 0xFF AND SWAP1 DUP1 PUSH1 0x2 ADD SLOAD SWAP1 DUP1 PUSH1 0x3 ADD PUSH1 0x0 SWAP1 SLOAD SWAP1 PUSH2 0x100 EXP SWAP1 DIV PUSH1 0xFF AND SWAP1 DUP1 PUSH1 0x4 ADD SLOAD SWAP1 DUP1 PUSH1 0x5 ADD SLOAD SWAP1 DUP1 PUSH1 0x6 ADD SLOAD SWAP1 DUP1 PUSH1 0x7 ADD SLOAD SWAP1 POP DUP9 JUMP JUMPDEST PUSH1 0x0 PUSH32 0x1FFC9A700000000000000000000000000000000000000000000000000000000 PUSH28 0xFFFFFFFFFFFFFFFFFFFFFFFFFFFFFFFFFFFFFFFFFFFFFFFFFFFFFFFF NOT AND DUP3 PUSH28 0xFFFFFFFFFFFFFFFFFFFFFFFFFFFFFFFFFFFFFFFFFFFFFFFFFFFFFFFF NOT AND EQ SWAP1 POP SWAP2 SWAP1 POP JUMP JUMPDEST PUSH1 0x0 CALLER SWAP1 POP SWAP1 JUMP JUMPDEST PUSH2 0x2DFD DUP5 PUSH4 0x23B872DD PUSH1 0xE0 SHL DUP6 DUP6 DUP6 PUSH1 0x40 MLOAD PUSH1 0x24 ADD PUSH2 0x2D9B SWAP4 SWAP3 SWAP2 SWAP1 PUSH2 0x4A71 JUMP JUMPDEST PUSH1 0x40 MLOAD PUSH1 0x20 DUP2 DUP4 SUB SUB DUP2 MSTORE SWAP1 PUSH1 0x40 MSTORE SWAP1 PUSH28 0xFFFFFFFFFFFFFFFFFFFFFFFFFFFFFFFFFFFFFFFFFFFFFFFFFFFFFFFF NOT AND PUSH1 0x20 DUP3 ADD DUP1 MLOAD PUSH28 0xFFFFFFFFFFFFFFFFFFFFFFFFFFFFFFFFFFFFFFFFFFFFFFFFFFFFFFFF DUP4 DUP2 DUP4 AND OR DUP4 MSTORE POP POP POP POP PUSH2 0x33AF JUMP JUMPDEST POP POP POP POP JUMP JUMPDEST PUSH2 0x2E14 DUP2 PUSH2 0x2E0F PUSH2 0x2D72 JUMP JUMPDEST PUSH2 0x3476 JUMP JUMPDEST POP JUMP JUMPDEST PUSH2 0x2E21 DUP3 DUP3 PUSH2 0x2293 JUMP JUMPDEST PUSH2 0x2EF3 JUMPI PUSH1 0x1 PUSH1 0x0 DUP1 DUP5 DUP2 MSTORE PUSH1 0x20 ADD SWAP1 DUP2 MSTORE PUSH1 0x20 ADD PUSH1 0x0 KECCAK256 PUSH1 0x0 ADD PUSH1 0x0 DUP4 PUSH20 0xFFFFFFFFFFFFFFFFFFFFFFFFFFFFFFFFFFFFFFFF AND PUSH20 0xFFFFFFFFFFFFFFFFFFFFFFFFFFFFFFFFFFFFFFFF AND DUP2 MSTORE PUSH1 0x20 ADD SWAP1 DUP2 MSTORE PUSH1 0x20 ADD PUSH1 0x0 KECCAK256 PUSH1 0x0 PUSH2 0x100 EXP DUP2 SLOAD DUP2 PUSH1 0xFF MUL NOT AND SWAP1 DUP4 ISZERO ISZERO MUL OR SWAP1 SSTORE POP PUSH2 0x2E98 PUSH2 0x2D72 JUMP JUMPDEST PUSH20 0xFFFFFFFFFFFFFFFFFFFFFFFFFFFFFFFFFFFFFFFF AND DUP2 PUSH20 0xFFFFFFFFFFFFFFFFFFFFFFFFFFFFFFFFFFFFFFFF AND DUP4 PUSH32 0x2F8788117E7EFF1D82E926EC794901D17C78024A50270940304540A733656F0D PUSH1 0x40 MLOAD PUSH1 0x40 MLOAD DUP1 SWAP2 SUB SWAP1 LOG4 JUMPDEST POP POP JUMP JUMPDEST PUSH2 0x2F01 DUP3 DUP3 PUSH2 0x2293 JUMP JUMPDEST ISZERO PUSH2 0x2FD4 JUMPI PUSH1 0x0 DUP1 PUSH1 0x0 DUP5 DUP2 MSTORE PUSH1 0x20 ADD SWAP1 DUP2 MSTORE PUSH1 0x20 ADD PUSH1 0x0 KECCAK256 PUSH1 0x0 ADD PUSH1 0x0 DUP4 PUSH20 0xFFFFFFFFFFFFFFFFFFFFFFFFFFFFFFFFFFFFFFFF AND PUSH20 0xFFFFFFFFFFFFFFFFFFFFFFFFFFFFFFFFFFFFFFFF AND DUP2 MSTORE PUSH1 0x20 ADD SWAP1 DUP2 MSTORE PUSH1 0x20 ADD PUSH1 0x0 KECCAK256 PUSH1 0x0 PUSH2 0x100 EXP DUP2 SLOAD DUP2 PUSH1 0xFF MUL NOT AND SWAP1 DUP4 ISZERO ISZERO MUL OR SWAP1 SSTORE POP PUSH2 0x2F79 PUSH2 0x2D72 JUMP JUMPDEST PUSH20 0xFFFFFFFFFFFFFFFFFFFFFFFFFFFFFFFFFFFFFFFF AND DUP2 PUSH20 0xFFFFFFFFFFFFFFFFFFFFFFFFFFFFFFFFFFFFFFFF AND DUP4 PUSH32 0xF6391F5C32D9C69D2A47EA670B442974B53935D1EDC7FD64EB21E047A839171B PUSH1 0x40 MLOAD PUSH1 0x40 MLOAD DUP1 SWAP2 SUB SWAP1 LOG4 JUMPDEST POP POP JUMP JUMPDEST PUSH2 0x2FE0 PUSH2 0x3931 JUMP JUMPDEST PUSH1 0x0 PUSH1 0xF PUSH1 0x0 DUP6 PUSH20 0xFFFFFFFFFFFFFFFFFFFFFFFFFFFFFFFFFFFFFFFF AND PUSH20 0xFFFFFFFFFFFFFFFFFFFFFFFFFFFFFFFFFFFFFFFF AND DUP2 MSTORE PUSH1 0x20 ADD SWAP1 DUP2 MSTORE PUSH1 0x20 ADD PUSH1 0x0 KECCAK256 PUSH1 0x0 DUP5 DUP2 MSTORE PUSH1 0x20 ADD SWAP1 DUP2 MSTORE PUSH1 0x20 ADD PUSH1 0x0 KECCAK256 PUSH1 0x40 MLOAD DUP1 PUSH2 0x100 ADD PUSH1 0x40 MSTORE SWAP1 DUP2 PUSH1 0x0 DUP3 ADD SLOAD DUP2 MSTORE PUSH1 0x20 ADD PUSH1 0x1 DUP3 ADD PUSH1 0x0 SWAP1 SLOAD SWAP1 PUSH2 0x100 EXP SWAP1 DIV PUSH1 0xFF AND ISZERO ISZERO ISZERO ISZERO DUP2 MSTORE PUSH1 0x20 ADD PUSH1 0x2 DUP3 ADD SLOAD DUP2 MSTORE PUSH1 0x20 ADD PUSH1 0x3 DUP3 ADD PUSH1 0x0 SWAP1 SLOAD SWAP1 PUSH2 0x100 EXP SWAP1 DIV PUSH1 0xFF AND PUSH1 0xFF AND PUSH1 0xFF AND DUP2 MSTORE PUSH1 0x20 ADD PUSH1 0x4 DUP3 ADD SLOAD DUP2 MSTORE PUSH1 0x20 ADD PUSH1 0x5 DUP3 ADD SLOAD DUP2 MSTORE PUSH1 0x20 ADD PUSH1 0x6 DUP3 ADD SLOAD DUP2 MSTORE PUSH1 0x20 ADD PUSH1 0x7 DUP3 ADD SLOAD DUP2 MSTORE POP POP SWAP1 POP PUSH1 0x0 PUSH1 0xE PUSH1 0x0 DUP4 PUSH1 0x60 ADD MLOAD PUSH1 0xFF AND DUP2 MSTORE PUSH1 0x20 ADD SWAP1 DUP2 MSTORE PUSH1 0x20 ADD PUSH1 0x0 KECCAK256 DUP1 SLOAD DUP1 PUSH1 0x20 MUL PUSH1 0x20 ADD PUSH1 0x40 MLOAD SWAP1 DUP2 ADD PUSH1 0x40 MSTORE DUP1 SWAP3 SWAP2 SWAP1 DUP2 DUP2 MSTORE PUSH1 0x20 ADD PUSH1 0x0 SWAP1 JUMPDEST DUP3 DUP3 LT ISZERO PUSH2 0x3140 JUMPI DUP4 DUP3 SWAP1 PUSH1 0x0 MSTORE PUSH1 0x20 PUSH1 0x0 KECCAK256 SWAP1 PUSH1 0x3 MUL ADD PUSH1 0x40 MLOAD DUP1 PUSH1 0x60 ADD PUSH1 0x40 MSTORE SWAP1 DUP2 PUSH1 0x0 DUP3 ADD SLOAD DUP2 MSTORE PUSH1 0x20 ADD PUSH1 0x1 DUP3 ADD SLOAD DUP2 MSTORE PUSH1 0x20 ADD PUSH1 0x2 DUP3 ADD SLOAD DUP2 MSTORE POP POP DUP2 MSTORE PUSH1 0x20 ADD SWAP1 PUSH1 0x1 ADD SWAP1 PUSH2 0x30F0 JUMP JUMPDEST POP POP POP POP SWAP1 POP PUSH1 0x0 DUP3 PUSH1 0xA0 ADD MLOAD TIMESTAMP GT PUSH2 0x3159 JUMPI TIMESTAMP PUSH2 0x315F JUMP JUMPDEST DUP3 PUSH1 0xA0 ADD MLOAD JUMPDEST SWAP1 POP DUP2 PUSH1 0x0 DUP2 MLOAD DUP2 LT PUSH2 0x3175 JUMPI PUSH2 0x3174 PUSH2 0x4249 JUMP JUMPDEST JUMPDEST PUSH1 0x20 MUL PUSH1 0x20 ADD ADD MLOAD PUSH1 0x40 ADD MLOAD DUP2 LT ISZERO PUSH2 0x31AE JUMPI DUP2 PUSH1 0x0 DUP2 MLOAD DUP2 LT PUSH2 0x319C JUMPI PUSH2 0x319B PUSH2 0x4249 JUMP JUMPDEST JUMPDEST PUSH1 0x20 MUL PUSH1 0x20 ADD ADD MLOAD SWAP4 POP POP POP POP PUSH2 0x32FE JUMP JUMPDEST DUP2 PUSH1 0x1 DUP4 MLOAD PUSH2 0x31BD SWAP2 SWAP1 PUSH2 0x42A7 JUMP JUMPDEST DUP2 MLOAD DUP2 LT PUSH2 0x31CE JUMPI PUSH2 0x31CD PUSH2 0x4249 JUMP JUMPDEST JUMPDEST PUSH1 0x20 MUL PUSH1 0x20 ADD ADD MLOAD PUSH1 0x40 ADD MLOAD DUP2 LT PUSH2 0x3212 JUMPI DUP2 PUSH1 0x1 DUP4 MLOAD PUSH2 0x31EF SWAP2 SWAP1 PUSH2 0x42A7 JUMP JUMPDEST DUP2 MLOAD DUP2 LT PUSH2 0x3200 JUMPI PUSH2 0x31FF PUSH2 0x4249 JUMP JUMPDEST JUMPDEST PUSH1 0x20 MUL PUSH1 0x20 ADD ADD MLOAD SWAP4 POP POP POP POP PUSH2 0x32FE JUMP JUMPDEST PUSH1 0x0 DUP1 DUP4 MLOAD SWAP1 POP JUMPDEST DUP1 DUP3 LT ISZERO PUSH2 0x32CF JUMPI PUSH1 0x0 PUSH1 0x2 DUP3 DUP5 PUSH2 0x3232 SWAP2 SWAP1 PUSH2 0x437D JUMP JUMPDEST PUSH2 0x323C SWAP2 SWAP1 PUSH2 0x434C JUMP JUMPDEST SWAP1 POP DUP4 DUP6 DUP3 DUP2 MLOAD DUP2 LT PUSH2 0x3252 JUMPI PUSH2 0x3251 PUSH2 0x4249 JUMP JUMPDEST JUMPDEST PUSH1 0x20 MUL PUSH1 0x20 ADD ADD MLOAD PUSH1 0x40 ADD MLOAD LT ISZERO PUSH2 0x3278 JUMPI PUSH1 0x1 DUP2 PUSH2 0x3271 SWAP2 SWAP1 PUSH2 0x437D JUMP JUMPDEST SWAP3 POP PUSH2 0x32C9 JUMP JUMPDEST DUP4 DUP6 DUP3 DUP2 MLOAD DUP2 LT PUSH2 0x328C JUMPI PUSH2 0x328B PUSH2 0x4249 JUMP JUMPDEST JUMPDEST PUSH1 0x20 MUL PUSH1 0x20 ADD ADD MLOAD PUSH1 0x40 ADD MLOAD SUB PUSH2 0x32C5 JUMPI DUP5 DUP2 DUP2 MLOAD DUP2 LT PUSH2 0x32B0 JUMPI PUSH2 0x32AF PUSH2 0x4249 JUMP JUMPDEST JUMPDEST PUSH1 0x20 MUL PUSH1 0x20 ADD ADD MLOAD SWAP7 POP POP POP POP POP POP POP PUSH2 0x32FE JUMP JUMPDEST DUP1 SWAP2 POP JUMPDEST POP PUSH2 0x321A JUMP JUMPDEST DUP4 PUSH1 0x1 DUP4 PUSH2 0x32DD SWAP2 SWAP1 PUSH2 0x42A7 JUMP JUMPDEST DUP2 MLOAD DUP2 LT PUSH2 0x32EE JUMPI PUSH2 0x32ED PUSH2 0x4249 JUMP JUMPDEST JUMPDEST PUSH1 0x20 MUL PUSH1 0x20 ADD ADD MLOAD SWAP6 POP POP POP POP POP POP JUMPDEST SWAP3 SWAP2 POP POP JUMP JUMPDEST PUSH2 0x330C PUSH2 0x3AA2 JUMP JUMPDEST DUP4 DUP2 PUSH1 0x0 ADD SWAP1 PUSH1 0xFF AND SWAP1 DUP2 PUSH1 0xFF AND DUP2 MSTORE POP POP DUP3 DUP2 PUSH1 0x20 ADD DUP2 DUP2 MSTORE POP POP DUP2 DUP2 PUSH1 0x80 ADD DUP2 DUP2 MSTORE POP POP PUSH1 0xD DUP2 SWAP1 DUP1 PUSH1 0x1 DUP2 SLOAD ADD DUP1 DUP3 SSTORE DUP1 SWAP2 POP POP PUSH1 0x1 SWAP1 SUB SWAP1 PUSH1 0x0 MSTORE PUSH1 0x20 PUSH1 0x0 KECCAK256 SWAP1 PUSH1 0x5 MUL ADD PUSH1 0x0 SWAP1 SWAP2 SWAP1 SWAP2 SWAP1 SWAP2 POP PUSH1 0x0 DUP3 ADD MLOAD DUP2 PUSH1 0x0 ADD PUSH1 0x0 PUSH2 0x100 EXP DUP2 SLOAD DUP2 PUSH1 0xFF MUL NOT AND SWAP1 DUP4 PUSH1 0xFF AND MUL OR SWAP1 SSTORE POP PUSH1 0x20 DUP3 ADD MLOAD DUP2 PUSH1 0x1 ADD SSTORE PUSH1 0x40 DUP3 ADD MLOAD DUP2 PUSH1 0x2 ADD SSTORE PUSH1 0x60 DUP3 ADD MLOAD DUP2 PUSH1 0x3 ADD SSTORE PUSH1 0x80 DUP3 ADD MLOAD DUP2 PUSH1 0x4 ADD SSTORE POP POP POP POP POP POP JUMP JUMPDEST PUSH1 0x0 PUSH2 0x3411 DUP3 PUSH1 0x40 MLOAD DUP1 PUSH1 0x40 ADD PUSH1 0x40 MSTORE DUP1 PUSH1 0x20 DUP2 MSTORE PUSH1 0x20 ADD PUSH32 0x5361666545524332303A206C6F772D6C6576656C2063616C6C206661696C6564 DUP2 MSTORE POP DUP6 PUSH20 0xFFFFFFFFFFFFFFFFFFFFFFFFFFFFFFFFFFFFFFFF AND PUSH2 0x34FB SWAP1 SWAP3 SWAP2 SWAP1 PUSH4 0xFFFFFFFF AND JUMP JUMPDEST SWAP1 POP PUSH1 0x0 DUP2 MLOAD GT ISZERO PUSH2 0x3471 JUMPI DUP1 DUP1 PUSH1 0x20 ADD SWAP1 MLOAD DUP2 ADD SWAP1 PUSH2 0x3431 SWAP2 SWAP1 PUSH2 0x44EF JUMP JUMPDEST PUSH2 0x3470 JUMPI PUSH1 0x40 MLOAD PUSH32 0x8C379A000000000000000000000000000000000000000000000000000000000 DUP2 MSTORE PUSH1 0x4 ADD PUSH2 0x3467 SWAP1 PUSH2 0x4B1A JUMP JUMPDEST PUSH1 0x40 MLOAD DUP1 SWAP2 SUB SWAP1 REVERT JUMPDEST JUMPDEST POP POP POP JUMP JUMPDEST PUSH2 0x3480 DUP3 DUP3 PUSH2 0x2293 JUMP JUMPDEST PUSH2 0x34F7 JUMPI PUSH2 0x348D DUP2 PUSH2 0x3513 JUMP JUMPDEST PUSH2 0x349B DUP4 PUSH1 0x0 SHR PUSH1 0x20 PUSH2 0x3540 JUMP JUMPDEST PUSH1 0x40 MLOAD PUSH1 0x20 ADD PUSH2 0x34AC SWAP3 SWAP2 SWAP1 PUSH2 0x4C38 JUMP JUMPDEST PUSH1 0x40 MLOAD PUSH1 0x20 DUP2 DUP4 SUB SUB DUP2 MSTORE SWAP1 PUSH1 0x40 MSTORE PUSH1 0x40 MLOAD PUSH32 0x8C379A000000000000000000000000000000000000000000000000000000000 DUP2 MSTORE PUSH1 0x4 ADD PUSH2 0x34EE SWAP2 SWAP1 PUSH2 0x4CBC JUMP JUMPDEST PUSH1 0x40 MLOAD DUP1 SWAP2 SUB SWAP1 REVERT JUMPDEST POP POP JUMP JUMPDEST PUSH1 0x60 PUSH2 0x350A DUP5 DUP5 PUSH1 0x0 DUP6 PUSH2 0x377C JUMP JUMPDEST SWAP1 POP SWAP4 SWAP3 POP POP POP JUMP JUMPDEST PUSH1 0x60 PUSH2 0x3539 DUP3 PUSH20 0xFFFFFFFFFFFFFFFFFFFFFFFFFFFFFFFFFFFFFFFF AND PUSH1 0x14 PUSH1 0xFF AND PUSH2 0x3540 JUMP JUMPDEST SWAP1 POP SWAP2 SWAP1 POP JUMP JUMPDEST PUSH1 0x60 PUSH1 0x0 PUSH1 0x2 DUP4 PUSH1 0x2 PUSH2 0x3553 SWAP2 SWAP1 PUSH2 0x42DB JUMP JUMPDEST PUSH2 0x355D SWAP2 SWAP1 PUSH2 0x437D JUMP JUMPDEST PUSH8 0xFFFFFFFFFFFFFFFF DUP2 GT ISZERO PUSH2 0x3576 JUMPI PUSH2 0x3575 PUSH2 0x4CDE JUMP JUMPDEST JUMPDEST PUSH1 0x40 MLOAD SWAP1 DUP1 DUP3 MSTORE DUP1 PUSH1 0x1F ADD PUSH1 0x1F NOT AND PUSH1 0x20 ADD DUP3 ADD PUSH1 0x40 MSTORE DUP1 ISZERO PUSH2 0x35A8 JUMPI DUP2 PUSH1 0x20 ADD PUSH1 0x1 DUP3 MUL DUP1 CALLDATASIZE DUP4 CALLDATACOPY DUP1 DUP3 ADD SWAP2 POP POP SWAP1 POP JUMPDEST POP SWAP1 POP PUSH32 0x3000000000000000000000000000000000000000000000000000000000000000 DUP2 PUSH1 0x0 DUP2 MLOAD DUP2 LT PUSH2 0x35E0 JUMPI PUSH2 0x35DF PUSH2 0x4249 JUMP JUMPDEST JUMPDEST PUSH1 0x20 ADD ADD SWAP1 PUSH31 0xFFFFFFFFFFFFFFFFFFFFFFFFFFFFFFFFFFFFFFFFFFFFFFFFFFFFFFFFFFFFFF NOT AND SWAP1 DUP2 PUSH1 0x0 BYTE SWAP1 MSTORE8 POP PUSH32 0x7800000000000000000000000000000000000000000000000000000000000000 DUP2 PUSH1 0x1 DUP2 MLOAD DUP2 LT PUSH2 0x3644 JUMPI PUSH2 0x3643 PUSH2 0x4249 JUMP JUMPDEST JUMPDEST PUSH1 0x20 ADD ADD SWAP1 PUSH31 0xFFFFFFFFFFFFFFFFFFFFFFFFFFFFFFFFFFFFFFFFFFFFFFFFFFFFFFFFFFFFFF NOT AND SWAP1 DUP2 PUSH1 0x0 BYTE SWAP1 MSTORE8 POP PUSH1 0x0 PUSH1 0x1 DUP5 PUSH1 0x2 PUSH2 0x3684 SWAP2 SWAP1 PUSH2 0x42DB JUMP JUMPDEST PUSH2 0x368E SWAP2 SWAP1 PUSH2 0x437D JUMP JUMPDEST SWAP1 POP JUMPDEST PUSH1 0x1 DUP2 GT ISZERO PUSH2 0x372E JUMPI PUSH32 0x3031323334353637383961626364656600000000000000000000000000000000 PUSH1 0xF DUP7 AND PUSH1 0x10 DUP2 LT PUSH2 0x36D0 JUMPI PUSH2 0x36CF PUSH2 0x4249 JUMP JUMPDEST JUMPDEST BYTE PUSH1 0xF8 SHL DUP3 DUP3 DUP2 MLOAD DUP2 LT PUSH2 0x36E7 JUMPI PUSH2 0x36E6 PUSH2 0x4249 JUMP JUMPDEST JUMPDEST PUSH1 0x20 ADD ADD SWAP1 PUSH31 0xFFFFFFFFFFFFFFFFFFFFFFFFFFFFFFFFFFFFFFFFFFFFFFFFFFFFFFFFFFFFFF NOT AND SWAP1 DUP2 PUSH1 0x0 BYTE SWAP1 MSTORE8 POP PUSH1 0x4 DUP6 SWAP1 SHR SWAP5 POP DUP1 PUSH2 0x3727 SWAP1 PUSH2 0x4D0D JUMP JUMPDEST SWAP1 POP PUSH2 0x3691 JUMP JUMPDEST POP PUSH1 0x0 DUP5 EQ PUSH2 0x3772 JUMPI PUSH1 0x40 MLOAD PUSH32 0x8C379A000000000000000000000000000000000000000000000000000000000 DUP2 MSTORE PUSH1 0x4 ADD PUSH2 0x3769 SWAP1 PUSH2 0x4D82 JUMP JUMPDEST PUSH1 0x40 MLOAD DUP1 SWAP2 SUB SWAP1 REVERT JUMPDEST DUP1 SWAP2 POP POP SWAP3 SWAP2 POP POP JUMP JUMPDEST PUSH1 0x60 DUP3 SELFBALANCE LT ISZERO PUSH2 0x37C1 JUMPI PUSH1 0x40 MLOAD PUSH32 0x8C379A000000000000000000000000000000000000000000000000000000000 DUP2 MSTORE PUSH1 0x4 ADD PUSH2 0x37B8 SWAP1 PUSH2 0x4E14 JUMP JUMPDEST PUSH1 0x40 MLOAD DUP1 SWAP2 SUB SWAP1 REVERT JUMPDEST PUSH1 0x0 DUP1 DUP7 PUSH20 0xFFFFFFFFFFFFFFFFFFFFFFFFFFFFFFFFFFFFFFFF AND DUP6 DUP8 PUSH1 0x40 MLOAD PUSH2 0x37EA SWAP2 SWAP1 PUSH2 0x4E7B JUMP JUMPDEST PUSH1 0x0 PUSH1 0x40 MLOAD DUP1 DUP4 SUB DUP2 DUP6 DUP8 GAS CALL SWAP3 POP POP POP RETURNDATASIZE DUP1 PUSH1 0x0 DUP2 EQ PUSH2 0x3827 JUMPI PUSH1 0x40 MLOAD SWAP2 POP PUSH1 0x1F NOT PUSH1 0x3F RETURNDATASIZE ADD AND DUP3 ADD PUSH1 0x40 MSTORE RETURNDATASIZE DUP3 MSTORE RETURNDATASIZE PUSH1 0x0 PUSH1 0x20 DUP5 ADD RETURNDATACOPY PUSH2 0x382C JUMP JUMPDEST PUSH1 0x60 SWAP2 POP JUMPDEST POP SWAP2 POP SWAP2 POP PUSH2 0x383D DUP8 DUP4 DUP4 DUP8 PUSH2 0x3849 JUMP JUMPDEST SWAP3 POP POP POP SWAP5 SWAP4 POP POP POP POP JUMP JUMPDEST PUSH1 0x60 DUP4 ISZERO PUSH2 0x38AB JUMPI PUSH1 0x0 DUP4 MLOAD SUB PUSH2 0x38A3 JUMPI PUSH2 0x3863 DUP6 PUSH2 0x38BE JUMP JUMPDEST PUSH2 0x38A2 JUMPI PUSH1 0x40 MLOAD PUSH32 0x8C379A000000000000000000000000000000000000000000000000000000000 DUP2 MSTORE PUSH1 0x4 ADD PUSH2 0x3899 SWAP1 PUSH2 0x4EDE JUMP JUMPDEST PUSH1 0x40 MLOAD DUP1 SWAP2 SUB SWAP1 REVERT JUMPDEST JUMPDEST DUP3 SWAP1 POP PUSH2 0x38B6 JUMP JUMPDEST PUSH2 0x38B5 DUP4 DUP4 PUSH2 0x38E1 JUMP JUMPDEST JUMPDEST SWAP5 SWAP4 POP POP POP POP JUMP JUMPDEST PUSH1 0x0 DUP1 DUP3 PUSH20 0xFFFFFFFFFFFFFFFFFFFFFFFFFFFFFFFFFFFFFFFF AND EXTCODESIZE GT SWAP1 POP SWAP2 SWAP1 POP JUMP JUMPDEST PUSH1 0x0 DUP3 MLOAD GT ISZERO PUSH2 0x38F4 JUMPI DUP2 MLOAD DUP1 DUP4 PUSH1 0x20 ADD REVERT JUMPDEST DUP1 PUSH1 0x40 MLOAD PUSH32 0x8C379A000000000000000000000000000000000000000000000000000000000 DUP2 MSTORE PUSH1 0x4 ADD PUSH2 0x3928 SWAP2 SWAP1 PUSH2 0x4CBC JUMP JUMPDEST PUSH1 0x40 MLOAD DUP1 SWAP2 SUB SWAP1 REVERT JUMPDEST PUSH1 0x40 MLOAD DUP1 PUSH1 0x60 ADD PUSH1 0x40 MSTORE DUP1 PUSH1 0x0 DUP2 MSTORE PUSH1 0x20 ADD PUSH1 0x0 DUP2 MSTORE PUSH1 0x20 ADD PUSH1 0x0 DUP2 MSTORE POP SWAP1 JUMP JUMPDEST PUSH1 0x40 MLOAD DUP1 PUSH2 0x100 ADD PUSH1 0x40 MSTORE DUP1 PUSH1 0x0 DUP2 MSTORE PUSH1 0x20 ADD PUSH1 0x0 ISZERO ISZERO DUP2 MSTORE PUSH1 0x20 ADD PUSH1 0x0 DUP2 MSTORE PUSH1 0x20 ADD PUSH1 0x0 PUSH1 0xFF AND DUP2 MSTORE PUSH1 0x20 ADD PUSH1 0x0 DUP2 MSTORE PUSH1 0x20 ADD PUSH1 0x0 DUP2 MSTORE PUSH1 0x20 ADD PUSH1 0x0 DUP2 MSTORE PUSH1 0x20 ADD PUSH1 0x0 DUP2 MSTORE POP SWAP1 JUMP JUMPDEST DUP3 DUP1 SLOAD DUP3 DUP3 SSTORE SWAP1 PUSH1 0x0 MSTORE PUSH1 0x20 PUSH1 0x0 KECCAK256 SWAP1 DUP2 ADD SWAP3 DUP3 ISZERO PUSH2 0x39E4 JUMPI SWAP2 PUSH1 0x20 MUL DUP3 ADD JUMPDEST DUP3 DUP2 GT ISZERO PUSH2 0x39E3 JUMPI DUP3 MLOAD DUP3 SWAP1 PUSH8 0xFFFFFFFFFFFFFFFF AND SWAP1 SSTORE SWAP2 PUSH1 0x20 ADD SWAP2 SWAP1 PUSH1 0x1 ADD SWAP1 PUSH2 0x39BC JUMP JUMPDEST JUMPDEST POP SWAP1 POP PUSH2 0x39F1 SWAP2 SWAP1 PUSH2 0x3AD4 JUMP JUMPDEST POP SWAP1 JUMP JUMPDEST DUP3 DUP1 SLOAD DUP3 DUP3 SSTORE SWAP1 PUSH1 0x0 MSTORE PUSH1 0x20 PUSH1 0x0 KECCAK256 SWAP1 DUP2 ADD SWAP3 DUP3 ISZERO PUSH2 0x3A3E JUMPI SWAP2 PUSH1 0x20 MUL DUP3 ADD JUMPDEST DUP3 DUP2 GT ISZERO PUSH2 0x3A3D JUMPI DUP3 MLOAD DUP3 SWAP1 PUSH9 0xFFFFFFFFFFFFFFFFFF AND SWAP1 SSTORE SWAP2 PUSH1 0x20 ADD SWAP2 SWAP1 PUSH1 0x1 ADD SWAP1 PUSH2 0x3A15 JUMP JUMPDEST JUMPDEST POP SWAP1 POP PUSH2 0x3A4B SWAP2 SWAP1 PUSH2 0x3AD4 JUMP JUMPDEST POP SWAP1 JUMP JUMPDEST DUP3 DUP1 SLOAD DUP3 DUP3 SSTORE SWAP1 PUSH1 0x0 MSTORE PUSH1 0x20 PUSH1 0x0 KECCAK256 SWAP1 DUP2 ADD SWAP3 DUP3 ISZERO PUSH2 0x3A91 JUMPI SWAP2 PUSH1 0x20 MUL DUP3 ADD JUMPDEST DUP3 DUP2 GT ISZERO PUSH2 0x3A90 JUMPI DUP3 MLOAD DUP3 SWAP1 PUSH2 0xFFFF AND SWAP1 SSTORE SWAP2 PUSH1 0x20 ADD SWAP2 SWAP1 PUSH1 0x1 ADD SWAP1 PUSH2 0x3A6F JUMP JUMPDEST JUMPDEST POP SWAP1 POP PUSH2 0x3A9E SWAP2 SWAP1 PUSH2 0x3AD4 JUMP JUMPDEST POP SWAP1 JUMP JUMPDEST PUSH1 0x40 MLOAD DUP1 PUSH1 0xA0 ADD PUSH1 0x40 MSTORE DUP1 PUSH1 0x0 PUSH1 0xFF AND DUP2 MSTORE PUSH1 0x20 ADD PUSH1 0x0 DUP2 MSTORE PUSH1 0x20 ADD PUSH1 0x0 DUP2 MSTORE PUSH1 0x20 ADD PUSH1 0x0 DUP2 MSTORE PUSH1 0x20 ADD PUSH1 0x0 DUP2 MSTORE POP SWAP1 JUMP JUMPDEST JUMPDEST DUP1 DUP3 GT ISZERO PUSH2 0x3AED JUMPI PUSH1 0x0 DUP2 PUSH1 0x0 SWAP1 SSTORE POP PUSH1 0x1 ADD PUSH2 0x3AD5 JUMP JUMPDEST POP SWAP1 JUMP JUMPDEST PUSH1 0x0 DUP1 REVERT JUMPDEST PUSH1 0x0 PUSH32 0xFFFFFFFF00000000000000000000000000000000000000000000000000000000 DUP3 AND SWAP1 POP SWAP2 SWAP1 POP JUMP JUMPDEST PUSH2 0x3B2B DUP2 PUSH2 0x3AF6 JUMP JUMPDEST DUP2 EQ PUSH2 0x3B36 JUMPI PUSH1 0x0 DUP1 REVERT JUMPDEST POP JUMP JUMPDEST PUSH1 0x0 DUP2 CALLDATALOAD SWAP1 POP PUSH2 0x3B48 DUP2 PUSH2 0x3B22 JUMP JUMPDEST SWAP3 SWAP2 POP POP JUMP JUMPDEST PUSH1 0x0 PUSH1 0x20 DUP3 DUP5 SUB SLT ISZERO PUSH2 0x3B64 JUMPI PUSH2 0x3B63 PUSH2 0x3AF1 JUMP JUMPDEST JUMPDEST PUSH1 0x0 PUSH2 0x3B72 DUP5 DUP3 DUP6 ADD PUSH2 0x3B39 JUMP JUMPDEST SWAP2 POP POP SWAP3 SWAP2 POP POP JUMP JUMPDEST PUSH1 0x0 DUP2 ISZERO ISZERO SWAP1 POP SWAP2 SWAP1 POP JUMP JUMPDEST PUSH2 0x3B90 DUP2 PUSH2 0x3B7B JUMP JUMPDEST DUP3 MSTORE POP POP JUMP JUMPDEST PUSH1 0x0 PUSH1 0x20 DUP3 ADD SWAP1 POP PUSH2 0x3BAB PUSH1 0x0 DUP4 ADD DUP5 PUSH2 0x3B87 JUMP JUMPDEST SWAP3 SWAP2 POP POP JUMP JUMPDEST PUSH1 0x0 DUP2 SWAP1 POP SWAP2 SWAP1 POP JUMP JUMPDEST PUSH2 0x3BC4 DUP2 PUSH2 0x3BB1 JUMP JUMPDEST DUP3 MSTORE POP POP JUMP JUMPDEST PUSH1 0x0 PUSH1 0x20 DUP3 ADD SWAP1 POP PUSH2 0x3BDF PUSH1 0x0 DUP4 ADD DUP5 PUSH2 0x3BBB JUMP JUMPDEST SWAP3 SWAP2 POP POP JUMP JUMPDEST PUSH1 0x0 PUSH1 0xFF DUP3 AND SWAP1 POP SWAP2 SWAP1 POP JUMP JUMPDEST PUSH2 0x3BFB DUP2 PUSH2 0x3BE5 JUMP JUMPDEST DUP2 EQ PUSH2 0x3C06 JUMPI PUSH1 0x0 DUP1 REVERT JUMPDEST POP JUMP JUMPDEST PUSH1 0x0 DUP2 CALLDATALOAD SWAP1 POP PUSH2 0x3C18 DUP2 PUSH2 0x3BF2 JUMP JUMPDEST SWAP3 SWAP2 POP POP JUMP JUMPDEST PUSH1 0x0 PUSH1 0x20 DUP3 DUP5 SUB SLT ISZERO PUSH2 0x3C34 JUMPI PUSH2 0x3C33 PUSH2 0x3AF1 JUMP JUMPDEST JUMPDEST PUSH1 0x0 PUSH2 0x3C42 DUP5 DUP3 DUP6 ADD PUSH2 0x3C09 JUMP JUMPDEST SWAP2 POP POP SWAP3 SWAP2 POP POP JUMP JUMPDEST PUSH1 0x0 DUP2 SWAP1 POP SWAP2 SWAP1 POP JUMP JUMPDEST PUSH2 0x3C5E DUP2 PUSH2 0x3C4B JUMP JUMPDEST DUP3 MSTORE POP POP JUMP JUMPDEST PUSH1 0x0 PUSH1 0x20 DUP3 ADD SWAP1 POP PUSH2 0x3C79 PUSH1 0x0 DUP4 ADD DUP5 PUSH2 0x3C55 JUMP JUMPDEST SWAP3 SWAP2 POP POP JUMP JUMPDEST PUSH2 0x3C88 DUP2 PUSH2 0x3BB1 JUMP JUMPDEST DUP2 EQ PUSH2 0x3C93 JUMPI PUSH1 0x0 DUP1 REVERT JUMPDEST POP JUMP JUMPDEST PUSH1 0x0 DUP2 CALLDATALOAD SWAP1 POP PUSH2 0x3CA5 DUP2 PUSH2 0x3C7F JUMP JUMPDEST SWAP3 SWAP2 POP POP JUMP JUMPDEST PUSH1 0x0 DUP1 PUSH1 0x40 DUP4 DUP6 SUB SLT ISZERO PUSH2 0x3CC2 JUMPI PUSH2 0x3CC1 PUSH2 0x3AF1 JUMP JUMPDEST JUMPDEST PUSH1 0x0 PUSH2 0x3CD0 DUP6 DUP3 DUP7 ADD PUSH2 0x3C96 JUMP JUMPDEST SWAP3 POP POP PUSH1 0x20 PUSH2 0x3CE1 DUP6 DUP3 DUP7 ADD PUSH2 0x3C09 JUMP JUMPDEST SWAP2 POP POP SWAP3 POP SWAP3 SWAP1 POP JUMP JUMPDEST PUSH1 0x0 PUSH1 0x20 DUP3 DUP5 SUB SLT ISZERO PUSH2 0x3D01 JUMPI PUSH2 0x3D00 PUSH2 0x3AF1 JUMP JUMPDEST JUMPDEST PUSH1 0x0 PUSH2 0x3D0F DUP5 DUP3 DUP6 ADD PUSH2 0x3C96 JUMP JUMPDEST SWAP2 POP POP SWAP3 SWAP2 POP POP JUMP JUMPDEST PUSH2 0x3D21 DUP2 PUSH2 0x3BE5 JUMP JUMPDEST DUP3 MSTORE POP POP JUMP JUMPDEST PUSH1 0x0 PUSH1 0xA0 DUP3 ADD SWAP1 POP PUSH2 0x3D3C PUSH1 0x0 DUP4 ADD DUP9 PUSH2 0x3D18 JUMP JUMPDEST PUSH2 0x3D49 PUSH1 0x20 DUP4 ADD DUP8 PUSH2 0x3BBB JUMP JUMPDEST PUSH2 0x3D56 PUSH1 0x40 DUP4 ADD DUP7 PUSH2 0x3BBB JUMP JUMPDEST PUSH2 0x3D63 PUSH1 0x60 DUP4 ADD DUP6 PUSH2 0x3BBB JUMP JUMPDEST PUSH2 0x3D70 PUSH1 0x80 DUP4 ADD DUP5 PUSH2 0x3BBB JUMP JUMPDEST SWAP7 SWAP6 POP POP POP POP POP POP JUMP JUMPDEST PUSH1 0x0 PUSH20 0xFFFFFFFFFFFFFFFFFFFFFFFFFFFFFFFFFFFFFFFF DUP3 AND SWAP1 POP SWAP2 SWAP1 POP JUMP JUMPDEST PUSH1 0x0 DUP2 SWAP1 POP SWAP2 SWAP1 POP JUMP JUMPDEST PUSH1 0x0 PUSH2 0x3DBF PUSH2 0x3DBA PUSH2 0x3DB5 DUP5 PUSH2 0x3D7A JUMP JUMPDEST PUSH2 0x3D9A JUMP JUMPDEST PUSH2 0x3D7A JUMP JUMPDEST SWAP1 POP SWAP2 SWAP1 POP JUMP JUMPDEST PUSH1 0x0 PUSH2 0x3DD1 DUP3 PUSH2 0x3DA4 JUMP JUMPDEST SWAP1 POP SWAP2 SWAP1 POP JUMP JUMPDEST PUSH1 0x0 PUSH2 0x3DE3 DUP3 PUSH2 0x3DC6 JUMP JUMPDEST SWAP1 POP SWAP2 SWAP1 POP JUMP JUMPDEST PUSH2 0x3DF3 DUP2 PUSH2 0x3DD8 JUMP JUMPDEST DUP3 MSTORE POP POP JUMP JUMPDEST PUSH1 0x0 PUSH1 0x20 DUP3 ADD SWAP1 POP PUSH2 0x3E0E PUSH1 0x0 DUP4 ADD DUP5 PUSH2 0x3DEA JUMP JUMPDEST SWAP3 SWAP2 POP POP JUMP JUMPDEST PUSH1 0x0 DUP2 SWAP1 POP SWAP2 SWAP1 POP JUMP JUMPDEST PUSH2 0x3E27 DUP2 PUSH2 0x3E14 JUMP JUMPDEST DUP2 EQ PUSH2 0x3E32 JUMPI PUSH1 0x0 DUP1 REVERT JUMPDEST POP JUMP JUMPDEST PUSH1 0x0 DUP2 CALLDATALOAD SWAP1 POP PUSH2 0x3E44 DUP2 PUSH2 0x3E1E JUMP JUMPDEST SWAP3 SWAP2 POP POP JUMP JUMPDEST PUSH1 0x0 PUSH1 0x20 DUP3 DUP5 SUB SLT ISZERO PUSH2 0x3E60 JUMPI PUSH2 0x3E5F PUSH2 0x3AF1 JUMP JUMPDEST JUMPDEST PUSH1 0x0 PUSH2 0x3E6E DUP5 DUP3 DUP6 ADD PUSH2 0x3E35 JUMP JUMPDEST SWAP2 POP POP SWAP3 SWAP2 POP POP JUMP JUMPDEST PUSH2 0x3E80 DUP2 PUSH2 0x3E14 JUMP JUMPDEST DUP3 MSTORE POP POP JUMP JUMPDEST PUSH1 0x0 PUSH1 0x20 DUP3 ADD SWAP1 POP PUSH2 0x3E9B PUSH1 0x0 DUP4 ADD DUP5 PUSH2 0x3E77 JUMP JUMPDEST SWAP3 SWAP2 POP POP JUMP JUMPDEST PUSH1 0x0 PUSH2 0x3EAC DUP3 PUSH2 0x3DC6 JUMP JUMPDEST SWAP1 POP SWAP2 SWAP1 POP JUMP JUMPDEST PUSH2 0x3EBC DUP2 PUSH2 0x3EA1 JUMP JUMPDEST DUP3 MSTORE POP POP JUMP JUMPDEST PUSH1 0x0 PUSH1 0x20 DUP3 ADD SWAP1 POP PUSH2 0x3ED7 PUSH1 0x0 DUP4 ADD DUP5 PUSH2 0x3EB3 JUMP JUMPDEST SWAP3 SWAP2 POP POP JUMP JUMPDEST PUSH1 0x0 PUSH2 0x3EE8 DUP3 PUSH2 0x3D7A JUMP JUMPDEST SWAP1 POP SWAP2 SWAP1 POP JUMP JUMPDEST PUSH2 0x3EF8 DUP2 PUSH2 0x3EDD JUMP JUMPDEST DUP2 EQ PUSH2 0x3F03 JUMPI PUSH1 0x0 DUP1 REVERT JUMPDEST POP JUMP JUMPDEST PUSH1 0x0 DUP2 CALLDATALOAD SWAP1 POP PUSH2 0x3F15 DUP2 PUSH2 0x3EEF JUMP JUMPDEST SWAP3 SWAP2 POP POP JUMP JUMPDEST PUSH1 0x0 PUSH1 0x20 DUP3 DUP5 SUB SLT ISZERO PUSH2 0x3F31 JUMPI PUSH2 0x3F30 PUSH2 0x3AF1 JUMP JUMPDEST JUMPDEST PUSH1 0x0 PUSH2 0x3F3F DUP5 DUP3 DUP6 ADD PUSH2 0x3F06 JUMP JUMPDEST SWAP2 POP POP SWAP3 SWAP2 POP POP JUMP JUMPDEST PUSH2 0x3F51 DUP2 PUSH2 0x3EDD JUMP JUMPDEST DUP3 MSTORE POP POP JUMP JUMPDEST PUSH1 0x0 PUSH1 0x20 DUP3 ADD SWAP1 POP PUSH2 0x3F6C PUSH1 0x0 DUP4 ADD DUP5 PUSH2 0x3F48 JUMP JUMPDEST SWAP3 SWAP2 POP POP JUMP JUMPDEST PUSH1 0x0 DUP1 PUSH1 0x40 DUP4 DUP6 SUB SLT ISZERO PUSH2 0x3F89 JUMPI PUSH2 0x3F88 PUSH2 0x3AF1 JUMP JUMPDEST JUMPDEST PUSH1 0x0 PUSH2 0x3F97 DUP6 DUP3 DUP7 ADD PUSH2 0x3E35 JUMP JUMPDEST SWAP3 POP POP PUSH1 0x20 PUSH2 0x3FA8 DUP6 DUP3 DUP7 ADD PUSH2 0x3F06 JUMP JUMPDEST SWAP2 POP POP SWAP3 POP SWAP3 SWAP1 POP JUMP JUMPDEST PUSH1 0x0 DUP1 PUSH1 0x40 DUP4 DUP6 SUB SLT ISZERO PUSH2 0x3FC9 JUMPI PUSH2 0x3FC8 PUSH2 0x3AF1 JUMP JUMPDEST JUMPDEST PUSH1 0x0 PUSH2 0x3FD7 DUP6 DUP3 DUP7 ADD PUSH2 0x3C96 JUMP JUMPDEST SWAP3 POP POP PUSH1 0x20 PUSH2 0x3FE8 DUP6 DUP3 DUP7 ADD PUSH2 0x3C96 JUMP JUMPDEST SWAP2 POP POP SWAP3 POP SWAP3 SWAP1 POP JUMP JUMPDEST PUSH1 0x0 PUSH1 0x60 DUP3 ADD SWAP1 POP PUSH2 0x4007 PUSH1 0x0 DUP4 ADD DUP7 PUSH2 0x3BBB JUMP JUMPDEST PUSH2 0x4014 PUSH1 0x20 DUP4 ADD DUP6 PUSH2 0x3BBB JUMP JUMPDEST PUSH2 0x4021 PUSH1 0x40 DUP4 ADD DUP5 PUSH2 0x3BBB JUMP JUMPDEST SWAP5 SWAP4 POP POP POP POP JUMP JUMPDEST PUSH1 0x0 DUP1 PUSH1 0x0 DUP1 PUSH1 0x80 DUP6 DUP8 SUB SLT ISZERO PUSH2 0x4043 JUMPI PUSH2 0x4042 PUSH2 0x3AF1 JUMP JUMPDEST JUMPDEST PUSH1 0x0 PUSH2 0x4051 DUP8 DUP3 DUP9 ADD PUSH2 0x3F06 JUMP JUMPDEST SWAP5 POP POP PUSH1 0x20 PUSH2 0x4062 DUP8 DUP3 DUP9 ADD PUSH2 0x3F06 JUMP JUMPDEST SWAP4 POP POP PUSH1 0x40 PUSH2 0x4073 DUP8 DUP3 DUP9 ADD PUSH2 0x3F06 JUMP JUMPDEST SWAP3 POP POP PUSH1 0x60 PUSH2 0x4084 DUP8 DUP3 DUP9 ADD PUSH2 0x3F06 JUMP JUMPDEST SWAP2 POP POP SWAP3 SWAP6 SWAP2 SWAP5 POP SWAP3 POP JUMP JUMPDEST PUSH1 0x0 DUP1 PUSH1 0x40 DUP4 DUP6 SUB SLT ISZERO PUSH2 0x40A7 JUMPI PUSH2 0x40A6 PUSH2 0x3AF1 JUMP JUMPDEST JUMPDEST PUSH1 0x0 PUSH2 0x40B5 DUP6 DUP3 DUP7 ADD PUSH2 0x3F06 JUMP JUMPDEST SWAP3 POP POP PUSH1 0x20 PUSH2 0x40C6 DUP6 DUP3 DUP7 ADD PUSH2 0x3C09 JUMP JUMPDEST SWAP2 POP POP SWAP3 POP SWAP3 SWAP1 POP JUMP JUMPDEST PUSH1 0x0 DUP1 PUSH1 0x40 DUP4 DUP6 SUB SLT ISZERO PUSH2 0x40E7 JUMPI PUSH2 0x40E6 PUSH2 0x3AF1 JUMP JUMPDEST JUMPDEST PUSH1 0x0 PUSH2 0x40F5 DUP6 DUP3 DUP7 ADD PUSH2 0x3F06 JUMP JUMPDEST SWAP3 POP POP PUSH1 0x20 PUSH2 0x4106 DUP6 DUP3 DUP7 ADD PUSH2 0x3C96 JUMP JUMPDEST SWAP2 POP POP SWAP3 POP SWAP3 SWAP1 POP JUMP JUMPDEST PUSH1 0x0 DUP1 PUSH1 0x40 DUP4 DUP6 SUB SLT ISZERO PUSH2 0x4127 JUMPI PUSH2 0x4126 PUSH2 0x3AF1 JUMP JUMPDEST JUMPDEST PUSH1 0x0 PUSH2 0x4135 DUP6 DUP3 DUP7 ADD PUSH2 0x3C09 JUMP JUMPDEST SWAP3 POP POP PUSH1 0x20 PUSH2 0x4146 DUP6 DUP3 DUP7 ADD PUSH2 0x3C96 JUMP JUMPDEST SWAP2 POP POP SWAP3 POP SWAP3 SWAP1 POP JUMP JUMPDEST PUSH1 0x0 DUP1 PUSH1 0x0 DUP1 PUSH1 0x0 PUSH1 0xA0 DUP7 DUP9 SUB SLT ISZERO PUSH2 0x416C JUMPI PUSH2 0x416B PUSH2 0x3AF1 JUMP JUMPDEST JUMPDEST PUSH1 0x0 PUSH2 0x417A DUP9 DUP3 DUP10 ADD PUSH2 0x3F06 JUMP JUMPDEST SWAP6 POP POP PUSH1 0x20 PUSH2 0x418B DUP9 DUP3 DUP10 ADD PUSH2 0x3F06 JUMP JUMPDEST SWAP5 POP POP PUSH1 0x40 PUSH2 0x419C DUP9 DUP3 DUP10 ADD PUSH2 0x3F06 JUMP JUMPDEST SWAP4 POP POP PUSH1 0x60 PUSH2 0x41AD DUP9 DUP3 DUP10 ADD PUSH2 0x3F06 JUMP JUMPDEST SWAP3 POP POP PUSH1 0x80 PUSH2 0x41BE DUP9 DUP3 DUP10 ADD PUSH2 0x3C96 JUMP JUMPDEST SWAP2 POP POP SWAP3 SWAP6 POP SWAP3 SWAP6 SWAP1 SWAP4 POP JUMP JUMPDEST PUSH1 0x0 PUSH2 0x100 DUP3 ADD SWAP1 POP PUSH2 0x41E1 PUSH1 0x0 DUP4 ADD DUP12 PUSH2 0x3BBB JUMP JUMPDEST PUSH2 0x41EE PUSH1 0x20 DUP4 ADD DUP11 PUSH2 0x3B87 JUMP JUMPDEST PUSH2 0x41FB PUSH1 0x40 DUP4 ADD DUP10 PUSH2 0x3BBB JUMP JUMPDEST PUSH2 0x4208 PUSH1 0x60 DUP4 ADD DUP9 PUSH2 0x3D18 JUMP JUMPDEST PUSH2 0x4215 PUSH1 0x80 DUP4 ADD DUP8 PUSH2 0x3BBB JUMP JUMPDEST PUSH2 0x4222 PUSH1 0xA0 DUP4 ADD DUP7 PUSH2 0x3BBB JUMP JUMPDEST PUSH2 0x422F PUSH1 0xC0 DUP4 ADD DUP6 PUSH2 0x3BBB JUMP JUMPDEST PUSH2 0x423C PUSH1 0xE0 DUP4 ADD DUP5 PUSH2 0x3BBB JUMP JUMPDEST SWAP10 SWAP9 POP POP POP POP POP POP POP POP POP JUMP JUMPDEST PUSH32 0x4E487B7100000000000000000000000000000000000000000000000000000000 PUSH1 0x0 MSTORE PUSH1 0x32 PUSH1 0x4 MSTORE PUSH1 0x24 PUSH1 0x0 REVERT JUMPDEST PUSH32 0x4E487B7100000000000000000000000000000000000000000000000000000000 PUSH1 0x0 MSTORE PUSH1 0x11 PUSH1 0x4 MSTORE PUSH1 0x24 PUSH1 0x0 REVERT JUMPDEST PUSH1 0x0 PUSH2 0x42B2 DUP3 PUSH2 0x3BB1 JUMP JUMPDEST SWAP2 POP PUSH2 0x42BD DUP4 PUSH2 0x3BB1 JUMP JUMPDEST SWAP3 POP DUP3 DUP3 SUB SWAP1 POP DUP2 DUP2 GT ISZERO PUSH2 0x42D5 JUMPI PUSH2 0x42D4 PUSH2 0x4278 JUMP JUMPDEST JUMPDEST SWAP3 SWAP2 POP POP JUMP JUMPDEST PUSH1 0x0 PUSH2 0x42E6 DUP3 PUSH2 0x3BB1 JUMP JUMPDEST SWAP2 POP PUSH2 0x42F1 DUP4 PUSH2 0x3BB1 JUMP JUMPDEST SWAP3 POP DUP3 DUP3 MUL PUSH2 0x42FF DUP2 PUSH2 0x3BB1 JUMP JUMPDEST SWAP2 POP DUP3 DUP3 DIV DUP5 EQ DUP4 ISZERO OR PUSH2 0x4316 JUMPI PUSH2 0x4315 PUSH2 0x4278 JUMP JUMPDEST JUMPDEST POP SWAP3 SWAP2 POP POP JUMP JUMPDEST PUSH32 0x4E487B7100000000000000000000000000000000000000000000000000000000 PUSH1 0x0 MSTORE PUSH1 0x12 PUSH1 0x4 MSTORE PUSH1 0x24 PUSH1 0x0 REVERT JUMPDEST PUSH1 0x0 PUSH2 0x4357 DUP3 PUSH2 0x3BB1 JUMP JUMPDEST SWAP2 POP PUSH2 0x4362 DUP4 PUSH2 0x3BB1 JUMP JUMPDEST SWAP3 POP DUP3 PUSH2 0x4372 JUMPI PUSH2 0x4371 PUSH2 0x431D JUMP JUMPDEST JUMPDEST DUP3 DUP3 DIV SWAP1 POP SWAP3 SWAP2 POP POP JUMP JUMPDEST PUSH1 0x0 PUSH2 0x4388 DUP3 PUSH2 0x3BB1 JUMP JUMPDEST SWAP2 POP PUSH2 0x4393 DUP4 PUSH2 0x3BB1 JUMP JUMPDEST SWAP3 POP DUP3 DUP3 ADD SWAP1 POP DUP1 DUP3 GT ISZERO PUSH2 0x43AB JUMPI PUSH2 0x43AA PUSH2 0x4278 JUMP JUMPDEST JUMPDEST SWAP3 SWAP2 POP POP JUMP JUMPDEST PUSH1 0x0 DUP3 DUP3 MSTORE PUSH1 0x20 DUP3 ADD SWAP1 POP SWAP3 SWAP2 POP POP JUMP JUMPDEST PUSH32 0x4561726E3A20696E73756666696369656E7420616D6F756E7400000000000000 PUSH1 0x0 DUP3 ADD MSTORE POP JUMP JUMPDEST PUSH1 0x0 PUSH2 0x43F8 PUSH1 0x19 DUP4 PUSH2 0x43B1 JUMP JUMPDEST SWAP2 POP PUSH2 0x4403 DUP3 PUSH2 0x43C2 JUMP JUMPDEST PUSH1 0x20 DUP3 ADD SWAP1 POP SWAP2 SWAP1 POP JUMP JUMPDEST PUSH1 0x0 PUSH1 0x20 DUP3 ADD SWAP1 POP DUP2 DUP2 SUB PUSH1 0x0 DUP4 ADD MSTORE PUSH2 0x4427 DUP2 PUSH2 0x43EB JUMP JUMPDEST SWAP1 POP SWAP2 SWAP1 POP JUMP JUMPDEST PUSH32 0x4561726E3A20696E76616C6964207374616B6520747970650000000000000000 PUSH1 0x0 DUP3 ADD MSTORE POP JUMP JUMPDEST PUSH1 0x0 PUSH2 0x4464 PUSH1 0x18 DUP4 PUSH2 0x43B1 JUMP JUMPDEST SWAP2 POP PUSH2 0x446F DUP3 PUSH2 0x442E JUMP JUMPDEST PUSH1 0x20 DUP3 ADD SWAP1 POP SWAP2 SWAP1 POP JUMP JUMPDEST PUSH1 0x0 PUSH1 0x20 DUP3 ADD SWAP1 POP DUP2 DUP2 SUB PUSH1 0x0 DUP4 ADD MSTORE PUSH2 0x4493 DUP2 PUSH2 0x4457 JUMP JUMPDEST SWAP1 POP SWAP2 SWAP1 POP JUMP JUMPDEST PUSH1 0x0 PUSH1 0x40 DUP3 ADD SWAP1 POP PUSH2 0x44AF PUSH1 0x0 DUP4 ADD DUP6 PUSH2 0x3F48 JUMP JUMPDEST PUSH2 0x44BC PUSH1 0x20 DUP4 ADD DUP5 PUSH2 0x3BBB JUMP JUMPDEST SWAP4 SWAP3 POP POP POP JUMP JUMPDEST PUSH2 0x44CC DUP2 PUSH2 0x3B7B JUMP JUMPDEST DUP2 EQ PUSH2 0x44D7 JUMPI PUSH1 0x0 DUP1 REVERT JUMPDEST POP JUMP JUMPDEST PUSH1 0x0 DUP2 MLOAD SWAP1 POP PUSH2 0x44E9 DUP2 PUSH2 0x44C3 JUMP JUMPDEST SWAP3 SWAP2 POP POP JUMP JUMPDEST PUSH1 0x0 PUSH1 0x20 DUP3 DUP5 SUB SLT ISZERO PUSH2 0x4505 JUMPI PUSH2 0x4504 PUSH2 0x3AF1 JUMP JUMPDEST JUMPDEST PUSH1 0x0 PUSH2 0x4513 DUP5 DUP3 DUP6 ADD PUSH2 0x44DA JUMP JUMPDEST SWAP2 POP POP SWAP3 SWAP2 POP POP JUMP JUMPDEST PUSH1 0x0 PUSH2 0x4527 DUP3 PUSH2 0x3BB1 JUMP JUMPDEST SWAP2 POP PUSH32 0xFFFFFFFFFFFFFFFFFFFFFFFFFFFFFFFFFFFFFFFFFFFFFFFFFFFFFFFFFFFFFFFF DUP3 SUB PUSH2 0x4559 JUMPI PUSH2 0x4558 PUSH2 0x4278 JUMP JUMPDEST JUMPDEST PUSH1 0x1 DUP3 ADD SWAP1 POP SWAP2 SWAP1 POP JUMP JUMPDEST PUSH1 0x0 DUP2 MLOAD SWAP1 POP PUSH2 0x4573 DUP2 PUSH2 0x3C7F JUMP JUMPDEST SWAP3 SWAP2 POP POP JUMP JUMPDEST PUSH1 0x0 PUSH1 0x20 DUP3 DUP5 SUB SLT ISZERO PUSH2 0x458F JUMPI PUSH2 0x458E PUSH2 0x3AF1 JUMP JUMPDEST JUMPDEST PUSH1 0x0 PUSH2 0x459D DUP5 DUP3 DUP6 ADD PUSH2 0x4564 JUMP JUMPDEST SWAP2 POP POP SWAP3 SWAP2 POP POP JUMP JUMPDEST PUSH1 0x0 PUSH1 0xC0 DUP3 ADD SWAP1 POP PUSH2 0x45BB PUSH1 0x0 DUP4 ADD DUP10 PUSH2 0x3BBB JUMP JUMPDEST PUSH2 0x45C8 PUSH1 0x20 DUP4 ADD DUP9 PUSH2 0x3BBB JUMP JUMPDEST PUSH2 0x45D5 PUSH1 0x40 DUP4 ADD DUP8 PUSH2 0x3D18 JUMP JUMPDEST PUSH2 0x45E2 PUSH1 0x60 DUP4 ADD DUP7 PUSH2 0x3BBB JUMP JUMPDEST PUSH2 0x45EF PUSH1 0x80 DUP4 ADD DUP6 PUSH2 0x3BBB JUMP JUMPDEST PUSH2 0x45FC PUSH1 0xA0 DUP4 ADD DUP5 PUSH2 0x3BBB JUMP JUMPDEST SWAP8 SWAP7 POP POP POP POP POP POP POP JUMP JUMPDEST PUSH32 0x416363657373436F6E74726F6C3A2063616E206F6E6C792072656E6F756E6365 PUSH1 0x0 DUP3 ADD MSTORE PUSH32 0x20726F6C657320666F722073656C660000000000000000000000000000000000 PUSH1 0x20 DUP3 ADD MSTORE POP JUMP JUMPDEST PUSH1 0x0 PUSH2 0x4663 PUSH1 0x2F DUP4 PUSH2 0x43B1 JUMP JUMPDEST SWAP2 POP PUSH2 0x466E DUP3 PUSH2 0x4607 JUMP JUMPDEST PUSH1 0x40 DUP3 ADD SWAP1 POP SWAP2 SWAP1 POP JUMP JUMPDEST PUSH1 0x0 PUSH1 0x20 DUP3 ADD SWAP1 POP DUP2 DUP2 SUB PUSH1 0x0 DUP4 ADD MSTORE PUSH2 0x4692 DUP2 PUSH2 0x4656 JUMP JUMPDEST SWAP1 POP SWAP2 SWAP1 POP JUMP JUMPDEST PUSH1 0x0 PUSH2 0x46A4 DUP3 PUSH2 0x3BE5 JUMP JUMPDEST SWAP2 POP PUSH1 0xFF DUP3 SUB PUSH2 0x46B7 JUMPI PUSH2 0x46B6 PUSH2 0x4278 JUMP JUMPDEST JUMPDEST PUSH1 0x1 DUP3 ADD SWAP1 POP SWAP2 SWAP1 POP JUMP JUMPDEST PUSH32 0x4561726E3A20696E76616C6964207374616B696E670000000000000000000000 PUSH1 0x0 DUP3 ADD MSTORE POP JUMP JUMPDEST PUSH1 0x0 PUSH2 0x46F8 PUSH1 0x15 DUP4 PUSH2 0x43B1 JUMP JUMPDEST SWAP2 POP PUSH2 0x4703 DUP3 PUSH2 0x46C2 JUMP JUMPDEST PUSH1 0x20 DUP3 ADD SWAP1 POP SWAP2 SWAP1 POP JUMP JUMPDEST PUSH1 0x0 PUSH1 0x20 DUP3 ADD SWAP1 POP DUP2 DUP2 SUB PUSH1 0x0 DUP4 ADD MSTORE PUSH2 0x4727 DUP2 PUSH2 0x46EB JUMP JUMPDEST SWAP1 POP SWAP2 SWAP1 POP JUMP JUMPDEST PUSH32 0x4561726E3A206E6F20616D6F756E7420746F2077697468647261770000000000 PUSH1 0x0 DUP3 ADD MSTORE POP JUMP JUMPDEST PUSH1 0x0 PUSH2 0x4764 PUSH1 0x1B DUP4 PUSH2 0x43B1 JUMP JUMPDEST SWAP2 POP PUSH2 0x476F DUP3 PUSH2 0x472E JUMP JUMPDEST PUSH1 0x20 DUP3 ADD SWAP1 POP SWAP2 SWAP1 POP JUMP JUMPDEST PUSH1 0x0 PUSH1 0x20 DUP3 ADD SWAP1 POP DUP2 DUP2 SUB PUSH1 0x0 DUP4 ADD MSTORE PUSH2 0x4793 DUP2 PUSH2 0x4757 JUMP JUMPDEST SWAP1 POP SWAP2 SWAP1 POP JUMP JUMPDEST PUSH1 0x0 PUSH1 0x40 DUP3 ADD SWAP1 POP PUSH2 0x47AF PUSH1 0x0 DUP4 ADD DUP6 PUSH2 0x3BBB JUMP JUMPDEST PUSH2 0x47BC PUSH1 0x20 DUP4 ADD DUP5 PUSH2 0x3BBB JUMP JUMPDEST SWAP4 SWAP3 POP POP POP JUMP JUMPDEST PUSH1 0x0 DUP2 SWAP1 POP SWAP3 SWAP2 POP POP JUMP JUMPDEST PUSH32 0x476F7665726E6F72000000000000000000000000000000000000000000000000 PUSH1 0x0 DUP3 ADD MSTORE POP JUMP JUMPDEST PUSH1 0x0 PUSH2 0x4804 PUSH1 0x8 DUP4 PUSH2 0x47C3 JUMP JUMPDEST SWAP2 POP PUSH2 0x480F DUP3 PUSH2 0x47CE JUMP JUMPDEST PUSH1 0x8 DUP3 ADD SWAP1 POP SWAP2 SWAP1 POP JUMP JUMPDEST PUSH1 0x0 PUSH2 0x4825 DUP3 PUSH2 0x47F7 JUMP JUMPDEST SWAP2 POP DUP2 SWAP1 POP SWAP2 SWAP1 POP JUMP JUMPDEST PUSH32 0x4561726E3A2063616C6C6572206973206E6F742074686520696E697469616C69 PUSH1 0x0 DUP3 ADD MSTORE PUSH32 0x7A65720000000000000000000000000000000000000000000000000000000000 PUSH1 0x20 DUP3 ADD MSTORE POP JUMP JUMPDEST PUSH1 0x0 PUSH2 0x488B PUSH1 0x23 DUP4 PUSH2 0x43B1 JUMP JUMPDEST SWAP2 POP PUSH2 0x4896 DUP3 PUSH2 0x482F JUMP JUMPDEST PUSH1 0x40 DUP3 ADD SWAP1 POP SWAP2 SWAP1 POP JUMP JUMPDEST PUSH1 0x0 PUSH1 0x20 DUP3 ADD SWAP1 POP DUP2 DUP2 SUB PUSH1 0x0 DUP4 ADD MSTORE PUSH2 0x48BA DUP2 PUSH2 0x487E JUMP JUMPDEST SWAP1 POP SWAP2 SWAP1 POP JUMP JUMPDEST PUSH32 0x4561726E3A20696E76616C696420485944542061646472657373000000000000 PUSH1 0x0 DUP3 ADD MSTORE POP JUMP JUMPDEST PUSH1 0x0 PUSH2 0x48F7 PUSH1 0x1A DUP4 PUSH2 0x43B1 JUMP JUMPDEST SWAP2 POP PUSH2 0x4902 DUP3 PUSH2 0x48C1 JUMP JUMPDEST PUSH1 0x20 DUP3 ADD SWAP1 POP SWAP2 SWAP1 POP JUMP JUMPDEST PUSH1 0x0 PUSH1 0x20 DUP3 ADD SWAP1 POP DUP2 DUP2 SUB PUSH1 0x0 DUP4 ADD MSTORE PUSH2 0x4926 DUP2 PUSH2 0x48EA JUMP JUMPDEST SWAP1 POP SWAP2 SWAP1 POP JUMP JUMPDEST PUSH32 0x4561726E3A20696E76616C696420485947542061646472657373000000000000 PUSH1 0x0 DUP3 ADD MSTORE POP JUMP JUMPDEST PUSH1 0x0 PUSH2 0x4963 PUSH1 0x1A DUP4 PUSH2 0x43B1 JUMP JUMPDEST SWAP2 POP PUSH2 0x496E DUP3 PUSH2 0x492D JUMP JUMPDEST PUSH1 0x20 DUP3 ADD SWAP1 POP SWAP2 SWAP1 POP JUMP JUMPDEST PUSH1 0x0 PUSH1 0x20 DUP3 ADD SWAP1 POP DUP2 DUP2 SUB PUSH1 0x0 DUP4 ADD MSTORE PUSH2 0x4992 DUP2 PUSH2 0x4956 JUMP JUMPDEST SWAP1 POP SWAP2 SWAP1 POP JUMP JUMPDEST PUSH32 0x4561726E3A20696E76616C696420734859445420616464726573730000000000 PUSH1 0x0 DUP3 ADD MSTORE POP JUMP JUMPDEST PUSH1 0x0 PUSH2 0x49CF PUSH1 0x1B DUP4 PUSH2 0x43B1 JUMP JUMPDEST SWAP2 POP PUSH2 0x49DA DUP3 PUSH2 0x4999 JUMP JUMPDEST PUSH1 0x20 DUP3 ADD SWAP1 POP SWAP2 SWAP1 POP JUMP JUMPDEST PUSH1 0x0 PUSH1 0x20 DUP3 ADD SWAP1 POP DUP2 DUP2 SUB PUSH1 0x0 DUP4 ADD MSTORE PUSH2 0x49FE DUP2 PUSH2 0x49C2 JUMP JUMPDEST SWAP1 POP SWAP2 SWAP1 POP JUMP JUMPDEST PUSH32 0x4561726E3A20696E76616C696420547265617375727920616464726573730000 PUSH1 0x0 DUP3 ADD MSTORE POP JUMP JUMPDEST PUSH1 0x0 PUSH2 0x4A3B PUSH1 0x1E DUP4 PUSH2 0x43B1 JUMP JUMPDEST SWAP2 POP PUSH2 0x4A46 DUP3 PUSH2 0x4A05 JUMP JUMPDEST PUSH1 0x20 DUP3 ADD SWAP1 POP SWAP2 SWAP1 POP JUMP JUMPDEST PUSH1 0x0 PUSH1 0x20 DUP3 ADD SWAP1 POP DUP2 DUP2 SUB PUSH1 0x0 DUP4 ADD MSTORE PUSH2 0x4A6A DUP2 PUSH2 0x4A2E JUMP JUMPDEST SWAP1 POP SWAP2 SWAP1 POP JUMP JUMPDEST PUSH1 0x0 PUSH1 0x60 DUP3 ADD SWAP1 POP PUSH2 0x4A86 PUSH1 0x0 DUP4 ADD DUP7 PUSH2 0x3F48 JUMP JUMPDEST PUSH2 0x4A93 PUSH1 0x20 DUP4 ADD DUP6 PUSH2 0x3F48 JUMP JUMPDEST PUSH2 0x4AA0 PUSH1 0x40 DUP4 ADD DUP5 PUSH2 0x3BBB JUMP JUMPDEST SWAP5 SWAP4 POP POP POP POP JUMP JUMPDEST PUSH32 0x5361666545524332303A204552433230206F7065726174696F6E20646964206E PUSH1 0x0 DUP3 ADD MSTORE PUSH32 0x6F74207375636365656400000000000000000000000000000000000000000000 PUSH1 0x20 DUP3 ADD MSTORE POP JUMP JUMPDEST PUSH1 0x0 PUSH2 0x4B04 PUSH1 0x2A DUP4 PUSH2 0x43B1 JUMP JUMPDEST SWAP2 POP PUSH2 0x4B0F DUP3 PUSH2 0x4AA8 JUMP JUMPDEST PUSH1 0x40 DUP3 ADD SWAP1 POP SWAP2 SWAP1 POP JUMP JUMPDEST PUSH1 0x0 PUSH1 0x20 DUP3 ADD SWAP1 POP DUP2 DUP2 SUB PUSH1 0x0 DUP4 ADD MSTORE PUSH2 0x4B33 DUP2 PUSH2 0x4AF7 JUMP JUMPDEST SWAP1 POP SWAP2 SWAP1 POP JUMP JUMPDEST PUSH32 0x416363657373436F6E74726F6C3A206163636F756E7420000000000000000000 PUSH1 0x0 DUP3 ADD MSTORE POP JUMP JUMPDEST PUSH1 0x0 PUSH2 0x4B70 PUSH1 0x17 DUP4 PUSH2 0x47C3 JUMP JUMPDEST SWAP2 POP PUSH2 0x4B7B DUP3 PUSH2 0x4B3A JUMP JUMPDEST PUSH1 0x17 DUP3 ADD SWAP1 POP SWAP2 SWAP1 POP JUMP JUMPDEST PUSH1 0x0 DUP2 MLOAD SWAP1 POP SWAP2 SWAP1 POP JUMP JUMPDEST PUSH1 0x0 JUMPDEST DUP4 DUP2 LT ISZERO PUSH2 0x4BAF JUMPI DUP1 DUP3 ADD MLOAD DUP2 DUP5 ADD MSTORE PUSH1 0x20 DUP2 ADD SWAP1 POP PUSH2 0x4B94 JUMP JUMPDEST PUSH1 0x0 DUP5 DUP5 ADD MSTORE POP POP POP POP JUMP JUMPDEST PUSH1 0x0 PUSH2 0x4BC6 DUP3 PUSH2 0x4B86 JUMP JUMPDEST PUSH2 0x4BD0 DUP2 DUP6 PUSH2 0x47C3 JUMP JUMPDEST SWAP4 POP PUSH2 0x4BE0 DUP2 DUP6 PUSH1 0x20 DUP7 ADD PUSH2 0x4B91 JUMP JUMPDEST DUP1 DUP5 ADD SWAP2 POP POP SWAP3 SWAP2 POP POP JUMP JUMPDEST PUSH32 0x206973206D697373696E6720726F6C6520000000000000000000000000000000 PUSH1 0x0 DUP3 ADD MSTORE POP JUMP JUMPDEST PUSH1 0x0 PUSH2 0x4C22 PUSH1 0x11 DUP4 PUSH2 0x47C3 JUMP JUMPDEST SWAP2 POP PUSH2 0x4C2D DUP3 PUSH2 0x4BEC JUMP JUMPDEST PUSH1 0x11 DUP3 ADD SWAP1 POP SWAP2 SWAP1 POP JUMP JUMPDEST PUSH1 0x0 PUSH2 0x4C43 DUP3 PUSH2 0x4B63 JUMP JUMPDEST SWAP2 POP PUSH2 0x4C4F DUP3 DUP6 PUSH2 0x4BBB JUMP JUMPDEST SWAP2 POP PUSH2 0x4C5A DUP3 PUSH2 0x4C15 JUMP JUMPDEST SWAP2 POP PUSH2 0x4C66 DUP3 DUP5 PUSH2 0x4BBB JUMP JUMPDEST SWAP2 POP DUP2 SWAP1 POP SWAP4 SWAP3 POP POP POP JUMP JUMPDEST PUSH1 0x0 PUSH1 0x1F NOT PUSH1 0x1F DUP4 ADD AND SWAP1 POP SWAP2 SWAP1 POP JUMP JUMPDEST PUSH1 0x0 PUSH2 0x4C8E DUP3 PUSH2 0x4B86 JUMP JUMPDEST PUSH2 0x4C98 DUP2 DUP6 PUSH2 0x43B1 JUMP JUMPDEST SWAP4 POP PUSH2 0x4CA8 DUP2 DUP6 PUSH1 0x20 DUP7 ADD PUSH2 0x4B91 JUMP JUMPDEST PUSH2 0x4CB1 DUP2 PUSH2 0x4C72 JUMP JUMPDEST DUP5 ADD SWAP2 POP POP SWAP3 SWAP2 POP POP JUMP JUMPDEST PUSH1 0x0 PUSH1 0x20 DUP3 ADD SWAP1 POP DUP2 DUP2 SUB PUSH1 0x0 DUP4 ADD MSTORE PUSH2 0x4CD6 DUP2 DUP5 PUSH2 0x4C83 JUMP JUMPDEST SWAP1 POP SWAP3 SWAP2 POP POP JUMP JUMPDEST PUSH32 0x4E487B7100000000000000000000000000000000000000000000000000000000 PUSH1 0x0 MSTORE PUSH1 0x41 PUSH1 0x4 MSTORE PUSH1 0x24 PUSH1 0x0 REVERT JUMPDEST PUSH1 0x0 PUSH2 0x4D18 DUP3 PUSH2 0x3BB1 JUMP JUMPDEST SWAP2 POP PUSH1 0x0 DUP3 SUB PUSH2 0x4D2B JUMPI PUSH2 0x4D2A PUSH2 0x4278 JUMP JUMPDEST JUMPDEST PUSH1 0x1 DUP3 SUB SWAP1 POP SWAP2 SWAP1 POP JUMP JUMPDEST PUSH32 0x537472696E67733A20686578206C656E67746820696E73756666696369656E74 PUSH1 0x0 DUP3 ADD MSTORE POP JUMP JUMPDEST PUSH1 0x0 PUSH2 0x4D6C PUSH1 0x20 DUP4 PUSH2 0x43B1 JUMP JUMPDEST SWAP2 POP PUSH2 0x4D77 DUP3 PUSH2 0x4D36 JUMP JUMPDEST PUSH1 0x20 DUP3 ADD SWAP1 POP SWAP2 SWAP1 POP JUMP JUMPDEST PUSH1 0x0 PUSH1 0x20 DUP3 ADD SWAP1 POP DUP2 DUP2 SUB PUSH1 0x0 DUP4 ADD MSTORE PUSH2 0x4D9B DUP2 PUSH2 0x4D5F JUMP JUMPDEST SWAP1 POP SWAP2 SWAP1 POP JUMP JUMPDEST PUSH32 0x416464726573733A20696E73756666696369656E742062616C616E636520666F PUSH1 0x0 DUP3 ADD MSTORE PUSH32 0x722063616C6C0000000000000000000000000000000000000000000000000000 PUSH1 0x20 DUP3 ADD MSTORE POP JUMP JUMPDEST PUSH1 0x0 PUSH2 0x4DFE PUSH1 0x26 DUP4 PUSH2 0x43B1 JUMP JUMPDEST SWAP2 POP PUSH2 0x4E09 DUP3 PUSH2 0x4DA2 JUMP JUMPDEST PUSH1 0x40 DUP3 ADD SWAP1 POP SWAP2 SWAP1 POP JUMP JUMPDEST PUSH1 0x0 PUSH1 0x20 DUP3 ADD SWAP1 POP DUP2 DUP2 SUB PUSH1 0x0 DUP4 ADD MSTORE PUSH2 0x4E2D DUP2 PUSH2 0x4DF1 JUMP JUMPDEST SWAP1 POP SWAP2 SWAP1 POP JUMP JUMPDEST PUSH1 0x0 DUP2 MLOAD SWAP1 POP SWAP2 SWAP1 POP JUMP JUMPDEST PUSH1 0x0 DUP2 SWAP1 POP SWAP3 SWAP2 POP POP JUMP JUMPDEST PUSH1 0x0 PUSH2 0x4E55 DUP3 PUSH2 0x4E34 JUMP JUMPDEST PUSH2 0x4E5F DUP2 DUP6 PUSH2 0x4E3F JUMP JUMPDEST SWAP4 POP PUSH2 0x4E6F DUP2 DUP6 PUSH1 0x20 DUP7 ADD PUSH2 0x4B91 JUMP JUMPDEST DUP1 DUP5 ADD SWAP2 POP POP SWAP3 SWAP2 POP POP JUMP JUMPDEST PUSH1 0x0 PUSH2 0x4E87 DUP3 DUP5 PUSH2 0x4E4A JUMP JUMPDEST SWAP2 POP DUP2 SWAP1 POP SWAP3 SWAP2 POP POP JUMP JUMPDEST PUSH32 0x416464726573733A2063616C6C20746F206E6F6E2D636F6E7472616374000000 PUSH1 0x0 DUP3 ADD MSTORE POP JUMP JUMPDEST PUSH1 0x0 PUSH2 0x4EC8 PUSH1 0x1D DUP4 PUSH2 0x43B1 JUMP JUMPDEST SWAP2 POP PUSH2 0x4ED3 DUP3 PUSH2 0x4E92 JUMP JUMPDEST PUSH1 0x20 DUP3 ADD SWAP1 POP SWAP2 SWAP1 POP JUMP JUMPDEST PUSH1 0x0 PUSH1 0x20 DUP3 ADD SWAP1 POP DUP2 DUP2 SUB PUSH1 0x0 DUP4 ADD MSTORE PUSH2 0x4EF7 DUP2 PUSH2 0x4EBB JUMP JUMPDEST SWAP1 POP SWAP2 SWAP1 POP JUMP INVALID LOG2 PUSH5 0x6970667358 0x22 SLT KECCAK256 0x2B SSTORE PC 0xB0 MUL GT 0xB4 EXP 0x29 SWAP16 GAS 0xE 0x49 0xBB 0x2C PUSH23 0xD0752F05EFD62526A7FE9042A131FA9E64736F6C634300 ADDMOD SGT STOP CALLER "
		},
		"gasEstimates": {
			"creation": {
				"codeDepositCost": "4055200",
				"executionCost": "infinite",
				"totalCost": "infinite"
			},
			"external": {
				"DEFAULT_ADMIN_ROLE()": "402",
				"GOVERNOR_ROLE()": "767",
				"HYDT()": "infinite",
				"HYGT()": "infinite",
				"HYGTPerSecond()": "2518",
				"TREASURY()": "2604",
				"claimPayout(uint256)": "infinite",
				"dailyPayouts(uint256)": "infinite",
				"depositFee()": "2519",
				"getDailyPayoutBatch(address)": "infinite",
				"getPayout(address,uint256)": "infinite",
				"getPayoutBatch(address)": "infinite",
				"getPayoutType(address,uint8)": "infinite",
				"getPending(address,uint256)": "infinite",
				"getPendingBatch(address)": "infinite",
				"getPendingType(address,uint8)": "infinite",
				"getRoleAdmin(bytes32)": "infinite",
				"getStakingLengths(address)": "2903",
				"getStakings(address,uint256)": "infinite",
				"grantRole(bytes32,address)": "infinite",
				"hasRole(bytes32,address)": "3251",
				"initialize(address,address,address,address,uint256)": "infinite",
				"lockPeriods(uint256)": "infinite",
				"massUpdatePools()": "infinite",
				"poolInfo(uint256)": "infinite",
				"poolLength()": "2514",
				"poolShares(uint256,uint256)": "infinite",
				"renounceRole(bytes32,address)": "infinite",
				"revokeRole(bytes32,address)": "infinite",
				"sHYDT()": "infinite",
				"stake(uint256,uint8)": "infinite",
				"startTime()": "2563",
				"supportsInterface(bytes4)": "774",
				"test_addresses(address,address,address,address)": "infinite",
				"test_startTime(uint256)": "101797",
				"totalAllocPoint()": "2497",
				"updateAllocationWithUpdate(uint8,uint256)": "infinite",
				"updatePool(uint8)": "infinite",
				"yearlyYields(uint256)": "infinite"
			},
			"internal": {
				"_addPool(uint8,uint256,uint256)": "infinite",
				"_binarySearchShare(address,uint256)": "infinite"
			}
		},
		"methodIdentifiers": {
			"DEFAULT_ADMIN_ROLE()": "a217fddf",
			"GOVERNOR_ROLE()": "ccc57490",
			"HYDT()": "25404dae",
			"HYGT()": "23c64ce1",
			"HYGTPerSecond()": "40ea6ea2",
			"TREASURY()": "2d2c5565",
			"claimPayout(uint256)": "8a69614e",
			"dailyPayouts(uint256)": "a15a8dc7",
			"depositFee()": "67a52793",
			"getDailyPayoutBatch(address)": "fd879b1e",
			"getPayout(address,uint256)": "565eea19",
			"getPayoutBatch(address)": "258f25b8",
			"getPayoutType(address,uint8)": "a1fd8db8",
			"getPending(address,uint256)": "6b39840d",
			"getPendingBatch(address)": "b3ecb623",
			"getPendingType(address,uint8)": "4f78ee02",
			"getRoleAdmin(bytes32)": "248a9ca3",
			"getStakingLengths(address)": "ad429608",
			"getStakings(address,uint256)": "fdd6374e",
			"grantRole(bytes32,address)": "2f2ff15d",
			"hasRole(bytes32,address)": "91d14854",
			"initialize(address,address,address,address,uint256)": "f7013ef6",
			"lockPeriods(uint256)": "4c8f2a78",
			"massUpdatePools()": "630b5ba1",
			"poolInfo(uint256)": "1526fe27",
			"poolLength()": "081e3eda",
			"poolShares(uint256,uint256)": "312036e2",
			"renounceRole(bytes32,address)": "36568abe",
			"revokeRole(bytes32,address)": "d547741f",
			"sHYDT()": "287fcc8f",
			"stake(uint256,uint8)": "10087fb1",
			"startTime()": "78e97925",
			"supportsInterface(bytes4)": "01ffc9a7",
			"test_addresses(address,address,address,address)": "32d47885",
			"test_startTime(uint256)": "d308d78c",
			"totalAllocPoint()": "17caf6f1",
			"updateAllocationWithUpdate(uint8,uint256)": "8e8cfd4a",
			"updatePool(uint8)": "08fa95d4",
			"yearlyYields(uint256)": "91c28b4e"
		}
	},
	"abi": [
		{
			"inputs": [],
			"stateMutability": "nonpayable",
			"type": "constructor"
		},
		{
			"anonymous": false,
			"inputs": [
				{
					"indexed": true,
					"internalType": "address",
					"name": "user",
					"type": "address"
				},
				{
					"indexed": false,
					"internalType": "uint256",
					"name": "index",
					"type": "uint256"
				},
				{
					"indexed": false,
					"internalType": "uint256",
					"name": "payout",
					"type": "uint256"
				}
			],
			"name": "Payout",
			"type": "event"
		},
		{
			"anonymous": false,
			"inputs": [
				{
					"indexed": true,
					"internalType": "bytes32",
					"name": "role",
					"type": "bytes32"
				},
				{
					"indexed": true,
					"internalType": "bytes32",
					"name": "previousAdminRole",
					"type": "bytes32"
				},
				{
					"indexed": true,
					"internalType": "bytes32",
					"name": "newAdminRole",
					"type": "bytes32"
				}
			],
			"name": "RoleAdminChanged",
			"type": "event"
		},
		{
			"anonymous": false,
			"inputs": [
				{
					"indexed": true,
					"internalType": "bytes32",
					"name": "role",
					"type": "bytes32"
				},
				{
					"indexed": true,
					"internalType": "address",
					"name": "account",
					"type": "address"
				},
				{
					"indexed": true,
					"internalType": "address",
					"name": "sender",
					"type": "address"
				}
			],
			"name": "RoleGranted",
			"type": "event"
		},
		{
			"anonymous": false,
			"inputs": [
				{
					"indexed": true,
					"internalType": "bytes32",
					"name": "role",
					"type": "bytes32"
				},
				{
					"indexed": true,
					"internalType": "address",
					"name": "account",
					"type": "address"
				},
				{
					"indexed": true,
					"internalType": "address",
					"name": "sender",
					"type": "address"
				}
			],
			"name": "RoleRevoked",
			"type": "event"
		},
		{
			"anonymous": false,
			"inputs": [
				{
					"indexed": true,
					"internalType": "address",
					"name": "user",
					"type": "address"
				},
				{
					"indexed": false,
					"internalType": "uint256",
					"name": "index",
					"type": "uint256"
				},
				{
					"indexed": false,
					"internalType": "uint256",
					"name": "amount",
					"type": "uint256"
				},
				{
					"indexed": false,
					"internalType": "uint8",
					"name": "stakeType",
					"type": "uint8"
				},
				{
					"indexed": false,
					"internalType": "uint256",
					"name": "startTime",
					"type": "uint256"
				},
				{
					"indexed": false,
					"internalType": "uint256",
					"name": "endTime",
					"type": "uint256"
				},
				{
					"indexed": false,
					"internalType": "uint256",
					"name": "activeDeposits",
					"type": "uint256"
				}
			],
			"name": "Stake",
			"type": "event"
		},
		{
			"anonymous": false,
			"inputs": [
				{
					"indexed": true,
					"internalType": "address",
					"name": "user",
					"type": "address"
				},
				{
					"indexed": false,
					"internalType": "uint256",
					"name": "index",
					"type": "uint256"
				},
				{
					"indexed": false,
					"internalType": "uint256",
					"name": "amount",
					"type": "uint256"
				},
				{
					"indexed": false,
					"internalType": "uint256",
					"name": "activeDeposits",
					"type": "uint256"
				}
			],
			"name": "Unstake",
			"type": "event"
		},
		{
			"anonymous": false,
			"inputs": [
				{
					"indexed": true,
					"internalType": "uint256",
					"name": "stakeType",
					"type": "uint256"
				},
				{
					"indexed": false,
					"internalType": "uint256",
					"name": "newAllocPoint",
					"type": "uint256"
				},
				{
					"indexed": false,
					"internalType": "uint256",
					"name": "oldAllocPoint",
					"type": "uint256"
				}
			],
			"name": "UpdateAllocationWithUpdate",
			"type": "event"
		},
		{
			"inputs": [],
			"name": "DEFAULT_ADMIN_ROLE",
			"outputs": [
				{
					"internalType": "bytes32",
					"name": "",
					"type": "bytes32"
				}
			],
			"stateMutability": "view",
			"type": "function"
		},
		{
			"inputs": [],
			"name": "GOVERNOR_ROLE",
			"outputs": [
				{
					"internalType": "bytes32",
					"name": "",
					"type": "bytes32"
				}
			],
			"stateMutability": "view",
			"type": "function"
		},
		{
			"inputs": [],
			"name": "HYDT",
			"outputs": [
				{
					"internalType": "contract IHYDT",
					"name": "",
					"type": "address"
				}
			],
			"stateMutability": "view",
			"type": "function"
		},
		{
			"inputs": [],
			"name": "HYGT",
			"outputs": [
				{
					"internalType": "contract IHYGT",
					"name": "",
					"type": "address"
				}
			],
			"stateMutability": "view",
			"type": "function"
		},
		{
			"inputs": [],
			"name": "HYGTPerSecond",
			"outputs": [
				{
					"internalType": "uint256",
					"name": "",
					"type": "uint256"
				}
			],
			"stateMutability": "view",
			"type": "function"
		},
		{
			"inputs": [],
			"name": "TREASURY",
			"outputs": [
				{
					"internalType": "address",
					"name": "",
					"type": "address"
				}
			],
			"stateMutability": "view",
			"type": "function"
		},
		{
			"inputs": [
				{
					"internalType": "uint256",
					"name": "index",
					"type": "uint256"
				}
			],
			"name": "claimPayout",
			"outputs": [],
			"stateMutability": "nonpayable",
			"type": "function"
		},
		{
			"inputs": [
				{
					"internalType": "uint256",
					"name": "",
					"type": "uint256"
				}
			],
			"name": "dailyPayouts",
			"outputs": [
				{
					"internalType": "uint256",
					"name": "",
					"type": "uint256"
				}
			],
			"stateMutability": "view",
			"type": "function"
		},
		{
			"inputs": [],
			"name": "depositFee",
			"outputs": [
				{
					"internalType": "uint256",
					"name": "",
					"type": "uint256"
				}
			],
			"stateMutability": "view",
			"type": "function"
		},
		{
			"inputs": [
				{
					"internalType": "address",
					"name": "user",
					"type": "address"
				}
			],
			"name": "getDailyPayoutBatch",
			"outputs": [
				{
					"internalType": "uint256",
					"name": "",
					"type": "uint256"
				}
			],
			"stateMutability": "view",
			"type": "function"
		},
		{
			"inputs": [
				{
					"internalType": "address",
					"name": "user",
					"type": "address"
				},
				{
					"internalType": "uint256",
					"name": "index",
					"type": "uint256"
				}
			],
			"name": "getPayout",
			"outputs": [
				{
					"internalType": "uint256",
					"name": "",
					"type": "uint256"
				}
			],
			"stateMutability": "view",
			"type": "function"
		},
		{
			"inputs": [
				{
					"internalType": "address",
					"name": "user",
					"type": "address"
				}
			],
			"name": "getPayoutBatch",
			"outputs": [
				{
					"internalType": "uint256",
					"name": "",
					"type": "uint256"
				}
			],
			"stateMutability": "view",
			"type": "function"
		},
		{
			"inputs": [
				{
					"internalType": "address",
					"name": "user",
					"type": "address"
				},
				{
					"internalType": "uint8",
					"name": "stakeType",
					"type": "uint8"
				}
			],
			"name": "getPayoutType",
			"outputs": [
				{
					"internalType": "uint256",
					"name": "",
					"type": "uint256"
				}
			],
			"stateMutability": "view",
			"type": "function"
		},
		{
			"inputs": [
				{
					"internalType": "address",
					"name": "user",
					"type": "address"
				},
				{
					"internalType": "uint256",
					"name": "index",
					"type": "uint256"
				}
			],
			"name": "getPending",
			"outputs": [
				{
					"internalType": "uint256",
					"name": "",
					"type": "uint256"
				}
			],
			"stateMutability": "view",
			"type": "function"
		},
		{
			"inputs": [
				{
					"internalType": "address",
					"name": "user",
					"type": "address"
				}
			],
			"name": "getPendingBatch",
			"outputs": [
				{
					"internalType": "uint256",
					"name": "",
					"type": "uint256"
				}
			],
			"stateMutability": "view",
			"type": "function"
		},
		{
			"inputs": [
				{
					"internalType": "address",
					"name": "user",
					"type": "address"
				},
				{
					"internalType": "uint8",
					"name": "stakeType",
					"type": "uint8"
				}
			],
			"name": "getPendingType",
			"outputs": [
				{
					"internalType": "uint256",
					"name": "",
					"type": "uint256"
				}
			],
			"stateMutability": "view",
			"type": "function"
		},
		{
			"inputs": [
				{
					"internalType": "bytes32",
					"name": "role",
					"type": "bytes32"
				}
			],
			"name": "getRoleAdmin",
			"outputs": [
				{
					"internalType": "bytes32",
					"name": "",
					"type": "bytes32"
				}
			],
			"stateMutability": "view",
			"type": "function"
		},
		{
			"inputs": [
				{
					"internalType": "address",
					"name": "",
					"type": "address"
				}
			],
			"name": "getStakingLengths",
			"outputs": [
				{
					"internalType": "uint256",
					"name": "",
					"type": "uint256"
				}
			],
			"stateMutability": "view",
			"type": "function"
		},
		{
			"inputs": [
				{
					"internalType": "address",
					"name": "",
					"type": "address"
				},
				{
					"internalType": "uint256",
					"name": "",
					"type": "uint256"
				}
			],
			"name": "getStakings",
			"outputs": [
				{
					"internalType": "uint256",
					"name": "index",
					"type": "uint256"
				},
				{
					"internalType": "bool",
					"name": "status",
					"type": "bool"
				},
				{
					"internalType": "uint256",
					"name": "amount",
					"type": "uint256"
				},
				{
					"internalType": "uint8",
					"name": "stakeType",
					"type": "uint8"
				},
				{
					"internalType": "uint256",
					"name": "startTime",
					"type": "uint256"
				},
				{
					"internalType": "uint256",
					"name": "endTime",
					"type": "uint256"
				},
				{
					"internalType": "uint256",
					"name": "lastClaimTime",
					"type": "uint256"
				},
				{
					"internalType": "uint256",
					"name": "rewardDebt",
					"type": "uint256"
				}
			],
			"stateMutability": "view",
			"type": "function"
		},
		{
			"inputs": [
				{
					"internalType": "bytes32",
					"name": "role",
					"type": "bytes32"
				},
				{
					"internalType": "address",
					"name": "account",
					"type": "address"
				}
			],
			"name": "grantRole",
			"outputs": [],
			"stateMutability": "nonpayable",
			"type": "function"
		},
		{
			"inputs": [
				{
					"internalType": "bytes32",
					"name": "role",
					"type": "bytes32"
				},
				{
					"internalType": "address",
					"name": "account",
					"type": "address"
				}
			],
			"name": "hasRole",
			"outputs": [
				{
					"internalType": "bool",
					"name": "",
					"type": "bool"
				}
			],
			"stateMutability": "view",
			"type": "function"
		},
		{
			"inputs": [
				{
					"internalType": "address",
					"name": "hydt_",
					"type": "address"
				},
				{
					"internalType": "address",
					"name": "hygt_",
					"type": "address"
				},
				{
					"internalType": "address",
					"name": "shydt_",
					"type": "address"
				},
				{
					"internalType": "address",
					"name": "treasury_",
					"type": "address"
				},
				{
					"internalType": "uint256",
					"name": "initialMintStartTime_",
					"type": "uint256"
				}
			],
			"name": "initialize",
			"outputs": [],
			"stateMutability": "nonpayable",
			"type": "function"
		},
		{
			"inputs": [
				{
					"internalType": "uint256",
					"name": "",
					"type": "uint256"
				}
			],
			"name": "lockPeriods",
			"outputs": [
				{
					"internalType": "uint256",
					"name": "",
					"type": "uint256"
				}
			],
			"stateMutability": "view",
			"type": "function"
		},
		{
			"inputs": [],
			"name": "massUpdatePools",
			"outputs": [],
			"stateMutability": "nonpayable",
			"type": "function"
		},
		{
			"inputs": [
				{
					"internalType": "uint256",
					"name": "",
					"type": "uint256"
				}
			],
			"name": "poolInfo",
			"outputs": [
				{
					"internalType": "uint8",
					"name": "stakeType",
					"type": "uint8"
				},
				{
					"internalType": "uint256",
					"name": "allocPoint",
					"type": "uint256"
				},
				{
					"internalType": "uint256",
					"name": "stakeSupply",
					"type": "uint256"
				},
				{
					"internalType": "uint256",
					"name": "accHYGTPerShare",
					"type": "uint256"
				},
				{
					"internalType": "uint256",
					"name": "lastRewardTime",
					"type": "uint256"
				}
			],
			"stateMutability": "view",
			"type": "function"
		},
		{
			"inputs": [],
			"name": "poolLength",
			"outputs": [
				{
					"internalType": "uint256",
					"name": "",
					"type": "uint256"
				}
			],
			"stateMutability": "view",
			"type": "function"
		},
		{
			"inputs": [
				{
					"internalType": "uint256",
					"name": "",
					"type": "uint256"
				},
				{
					"internalType": "uint256",
					"name": "",
					"type": "uint256"
				}
			],
			"name": "poolShares",
			"outputs": [
				{
					"internalType": "uint256",
					"name": "stakeSupply",
					"type": "uint256"
				},
				{
					"internalType": "uint256",
					"name": "accHYGTPerShare",
					"type": "uint256"
				},
				{
					"internalType": "uint256",
					"name": "lastRewardTime",
					"type": "uint256"
				}
			],
			"stateMutability": "view",
			"type": "function"
		},
		{
			"inputs": [
				{
					"internalType": "bytes32",
					"name": "role",
					"type": "bytes32"
				},
				{
					"internalType": "address",
					"name": "account",
					"type": "address"
				}
			],
			"name": "renounceRole",
			"outputs": [],
			"stateMutability": "nonpayable",
			"type": "function"
		},
		{
			"inputs": [
				{
					"internalType": "bytes32",
					"name": "role",
					"type": "bytes32"
				},
				{
					"internalType": "address",
					"name": "account",
					"type": "address"
				}
			],
			"name": "revokeRole",
			"outputs": [],
			"stateMutability": "nonpayable",
			"type": "function"
		},
		{
			"inputs": [],
			"name": "sHYDT",
			"outputs": [
				{
					"internalType": "contract IHYDT",
					"name": "",
					"type": "address"
				}
			],
			"stateMutability": "view",
			"type": "function"
		},
		{
			"inputs": [
				{
					"internalType": "uint256",
					"name": "amount",
					"type": "uint256"
				},
				{
					"internalType": "uint8",
					"name": "stakeType",
					"type": "uint8"
				}
			],
			"name": "stake",
			"outputs": [],
			"stateMutability": "nonpayable",
			"type": "function"
		},
		{
			"inputs": [],
			"name": "startTime",
			"outputs": [
				{
					"internalType": "uint256",
					"name": "",
					"type": "uint256"
				}
			],
			"stateMutability": "view",
			"type": "function"
		},
		{
			"inputs": [
				{
					"internalType": "bytes4",
					"name": "interfaceId",
					"type": "bytes4"
				}
			],
			"name": "supportsInterface",
			"outputs": [
				{
					"internalType": "bool",
					"name": "",
					"type": "bool"
				}
			],
			"stateMutability": "view",
			"type": "function"
		},
		{
			"inputs": [
				{
					"internalType": "address",
					"name": "HYDT_",
					"type": "address"
				},
				{
					"internalType": "address",
					"name": "HYGT_",
					"type": "address"
				},
				{
					"internalType": "address",
					"name": "sHYDT_",
					"type": "address"
				},
				{
					"internalType": "address",
					"name": "treasury_",
					"type": "address"
				}
			],
			"name": "test_addresses",
			"outputs": [],
			"stateMutability": "nonpayable",
			"type": "function"
		},
		{
			"inputs": [
				{
					"internalType": "uint256",
					"name": "initialMintStartTime_",
					"type": "uint256"
				}
			],
			"name": "test_startTime",
			"outputs": [],
			"stateMutability": "nonpayable",
			"type": "function"
		},
		{
			"inputs": [],
			"name": "totalAllocPoint",
			"outputs": [
				{
					"internalType": "uint256",
					"name": "",
					"type": "uint256"
				}
			],
			"stateMutability": "view",
			"type": "function"
		},
		{
			"inputs": [
				{
					"internalType": "uint8",
					"name": "stakeType",
					"type": "uint8"
				},
				{
					"internalType": "uint256",
					"name": "allocPoint",
					"type": "uint256"
				}
			],
			"name": "updateAllocationWithUpdate",
			"outputs": [],
			"stateMutability": "nonpayable",
			"type": "function"
		},
		{
			"inputs": [
				{
					"internalType": "uint8",
					"name": "stakeType",
					"type": "uint8"
				}
			],
			"name": "updatePool",
			"outputs": [
				{
					"internalType": "int256",
					"name": "",
					"type": "int256"
				}
			],
			"stateMutability": "nonpayable",
			"type": "function"
		},
		{
			"inputs": [
				{
					"internalType": "uint256",
					"name": "",
					"type": "uint256"
				}
			],
			"name": "yearlyYields",
			"outputs": [
				{
					"internalType": "uint256",
					"name": "",
					"type": "uint256"
				}
			],
			"stateMutability": "view",
			"type": "function"
		}
	]
}