{
	"data": {
		"bytecode": {
			"linkReferences": {},
			"object": "60a06040523480156200001157600080fd5b50620000226200005b60201b60201c565b73ffffffffffffffffffffffffffffffffffffffff1660808173ffffffffffffffffffffffffffffffffffffffff168152505062000063565b600033905090565b608051614b2f620000866000396000818161123101526121f50152614b2f6000f3fe608060405234801561001057600080fd5b50600436106102325760003560e01c8063565eea1911610130578063a15a8dc7116100b8578063ccc574901161007c578063ccc5749014610709578063d547741f14610727578063f7013ef614610743578063fd879b1e1461075f578063fdd6374e1461078f57610232565b8063a15a8dc71461062b578063a1fd8db81461065b578063a217fddf1461068b578063ad429608146106a9578063b3ecb623146106d957610232565b806378e97925116100ff57806378e97925146105755780638a69614e146105935780638e8cfd4a146105af57806391c28b4e146105cb57806391d14854146105fb57610232565b8063565eea19146104ed578063630b5ba11461051d57806367a52793146105275780636b39840d1461054557610232565b8063258f25b8116101be57806336568abe1161018257806336568abe1461043557806340ea6ea2146104515780634c8f2a781461046f5780634f6059e71461049f5780634f78ee02146104bd57610232565b8063258f25b81461037b578063287fcc8f146103ab5780632d2c5565146103c95780632f2ff15d146103e7578063312036e21461040357610232565b80631526fe27116102055780631526fe27146102bd57806317caf6f1146102f157806323c64ce11461030f578063248a9ca31461032d57806325404dae1461035d57610232565b806301ffc9a714610237578063081e3eda1461026757806308fa95d41461028557806310087fb1146102a1575b600080fd5b610251600480360381019061024c91906137b6565b6107c6565b60405161025e91906137fe565b60405180910390f35b61026f610840565b60405161027c9190613832565b60405180910390f35b61029f600480360381019061029a9190613886565b61084d565b005b6102bb60048036038101906102b691906138df565b610a3a565b005b6102d760048036038101906102d2919061391f565b610f89565b6040516102e895949392919061395b565b60405180910390f35b6102f9610fdc565b6040516103069190613832565b60405180910390f35b610317610fe2565b6040516103249190613a2d565b60405180910390f35b61034760048036038101906103429190613a7e565b611008565b6040516103549190613aba565b60405180910390f35b610365611027565b6040516103729190613af6565b60405180910390f35b61039560048036038101906103909190613b4f565b61104d565b6040516103a29190613832565b60405180910390f35b6103b36110ce565b6040516103c09190613b9d565b60405180910390f35b6103d16110f4565b6040516103de9190613bc7565b60405180910390f35b61040160048036038101906103fc9190613be2565b61111a565b005b61041d60048036038101906104189190613c22565b61113b565b60405161042c93929190613c62565b60405180910390f35b61044f600480360381019061044a9190613be2565b611182565b005b610459611205565b6040516104669190613832565b60405180910390f35b6104896004803603810190610484919061391f565b61120b565b6040516104969190613832565b60405180910390f35b6104a761122f565b6040516104b49190613bc7565b60405180910390f35b6104d760048036038101906104d29190613c99565b611253565b6040516104e49190613832565b60405180910390f35b61050760048036038101906105029190613cd9565b611343565b6040516105149190613832565b60405180910390f35b6105256114f6565b005b61052f61152c565b60405161053c9190613832565b60405180910390f35b61055f600480360381019061055a9190613cd9565b611532565b60405161056c9190613832565b60405180910390f35b61057d6117cd565b60405161058a9190613832565b60405180910390f35b6105ad60048036038101906105a8919061391f565b6117d3565b005b6105c960048036038101906105c49190613d19565b611e4e565b005b6105e560048036038101906105e0919061391f565b611f68565b6040516105f29190613832565b60405180910390f35b61061560048036038101906106109190613be2565b611f8c565b60405161062291906137fe565b60405180910390f35b6106456004803603810190610640919061391f565b611ff6565b6040516106529190613832565b60405180910390f35b61067560048036038101906106709190613c99565b61201a565b6040516106829190613832565b60405180910390f35b61069361210a565b6040516106a09190613aba565b60405180910390f35b6106c360048036038101906106be9190613b4f565b612111565b6040516106d09190613832565b60405180910390f35b6106f360048036038101906106ee9190613b4f565b612129565b6040516107009190613832565b60405180910390f35b6107116121aa565b60405161071e9190613aba565b60405180910390f35b610741600480360381019061073c9190613be2565b6121d2565b005b61075d60048036038101906107589190613d59565b6121f3565b005b61077960048036038101906107749190613b4f565b61273d565b6040516107869190613832565b60405180910390f35b6107a960048036038101906107a49190613cd9565b612901565b6040516107bd989796959493929190613dd4565b60405180910390f35b60007f7965db0b000000000000000000000000000000000000000000000000000000007bffffffffffffffffffffffffffffffffffffffffffffffffffffffff1916827bffffffffffffffffffffffffffffffffffffffffffffffffffffffff19161480610839575061083882612970565b5b9050919050565b6000600d80549050905090565b6000600d8260ff168154811061086657610865613e52565b5b90600052602060002090600502019050806004015442116108875750610a37565b6000816002015490506000810361092657428260040181905550600e60008460ff16815260200190815260200160002060405180606001604052808381526020018460030154815260200142815250908060018154018082558091505060019003906000526020600020906003020160009091909190915060008201518160000155602082015181600101556040820151816002015550505050610a37565b60008260040154426109389190613eb0565b90506000600b548460010154600954846109529190613ee4565b61095c9190613ee4565b6109669190613f55565b90508264e8d4a510008261097a9190613ee4565b6109849190613f55565b8460030160008282546109979190613f86565b925050819055504284600401819055506109af613599565b83816000018181525050846003015481602001818152505042816040018181525050600e60008760ff168152602001908152602001600020819080600181540180825580915050600190039060005260206000209060030201600090919091909150600082015181600001556020820151816001015560408201518160020155505050505050505b50565b60008211610a7d576040517f08c379a0000000000000000000000000000000000000000000000000000000008152600401610a7490614017565b60405180910390fd5b60028160ff161115610ac4576040517f08c379a0000000000000000000000000000000000000000000000000000000008152600401610abb90614083565b60405180910390fd5b60006103e860055484610ad79190613ee4565b610ae19190613f55565b905060008184610af19190613eb0565b9050610b4a600160009054906101000a900473ffffffffffffffffffffffffffffffffffffffff16610b216129da565b600460009054906101000a900473ffffffffffffffffffffffffffffffffffffffff16856129e2565b600160009054906101000a900473ffffffffffffffffffffffffffffffffffffffff1673ffffffffffffffffffffffffffffffffffffffff166379cc6790610b906129da565b836040518363ffffffff1660e01b8152600401610bae9291906140a3565b6020604051808303816000875af1158015610bcd573d6000803e3d6000fd5b505050506040513d601f19601f82011682018060405250810190610bf191906140f8565b50600360009054906101000a900473ffffffffffffffffffffffffffffffffffffffff1673ffffffffffffffffffffffffffffffffffffffff166340c10f1930836040518363ffffffff1660e01b8152600401610c4f9291906140a3565b6020604051808303816000875af1158015610c6e573d6000803e3d6000fd5b505050506040513d601f19601f82011682018060405250810190610c9291906140f8565b506000600d8460ff1681548110610cac57610cab613e52565b5b90600052602060002090600502019050610cc58461084d565b81816002016000828254610cd99190613f86565b92505081905550610ce86135ba565b60106000610cf46129da565b73ffffffffffffffffffffffffffffffffffffffff1673ffffffffffffffffffffffffffffffffffffffff1681526020019081526020016000205481600001818152505060018160200190151590811515815250508281604001818152505084816060019060ff16908160ff16815250504281608001818152505060088560ff1681548110610d8657610d85613e52565b5b906000526020600020015442610d9c9190613f86565b8160a0018181525050428160c001818152505064e8d4a51000826003015484610dc59190613ee4565b610dcf9190613f55565b8160e001818152505080600f6000610de56129da565b73ffffffffffffffffffffffffffffffffffffffff1673ffffffffffffffffffffffffffffffffffffffff1681526020019081526020016000206000836000015181526020019081526020016000206000820151816000015560208201518160010160006101000a81548160ff0219169083151502179055506040820151816002015560608201518160030160006101000a81548160ff021916908360ff1602179055506080820151816004015560a0820151816005015560c0820151816006015560e0820151816007015590505060106000610ec06129da565b73ffffffffffffffffffffffffffffffffffffffff1673ffffffffffffffffffffffffffffffffffffffff1681526020019081526020016000206000815480929190610f0b90614125565b9190505550610f186129da565b73ffffffffffffffffffffffffffffffffffffffff167fcd30e159cd688ee20190b1a408df7d64e218daaf9f4ec9a04e79e195d91c08d982600001518360400151846060015185608001518660a00151604051610f7995949392919061416d565b60405180910390a2505050505050565b600d8181548110610f9957600080fd5b90600052602060002090600502016000915090508060000160009054906101000a900460ff16908060010154908060020154908060030154908060040154905085565b600b5481565b600260009054906101000a900473ffffffffffffffffffffffffffffffffffffffff1681565b6000806000838152602001908152602001600020600101549050919050565b600160009054906101000a900473ffffffffffffffffffffffffffffffffffffffff1681565b60008060005b601060008573ffffffffffffffffffffffffffffffffffffffff1673ffffffffffffffffffffffffffffffffffffffff168152602001908152602001600020548110156110c4576110a48482611343565b826110af9190613f86565b915080806110bc90614125565b915050611053565b5080915050919050565b600360009054906101000a900473ffffffffffffffffffffffffffffffffffffffff1681565b600460009054906101000a900473ffffffffffffffffffffffffffffffffffffffff1681565b61112382611008565b61112c81612a6b565b6111368383612a7f565b505050565b600e602052816000526040600020818154811061115757600080fd5b9060005260206000209060030201600091509150508060000154908060010154908060020154905083565b61118a6129da565b73ffffffffffffffffffffffffffffffffffffffff168173ffffffffffffffffffffffffffffffffffffffff16146111f7576040517f08c379a00000000000000000000000000000000000000000000000000000000081526004016111ee90614232565b60405180910390fd5b6112018282612b5f565b5050565b60095481565b6008818154811061121b57600080fd5b906000526020600020016000915090505481565b7f000000000000000000000000000000000000000000000000000000000000000081565b60008060005b601060008673ffffffffffffffffffffffffffffffffffffffff1673ffffffffffffffffffffffffffffffffffffffff16815260200190815260200160002054811015611338578360ff16600f60008773ffffffffffffffffffffffffffffffffffffffff1673ffffffffffffffffffffffffffffffffffffffff168152602001908152602001600020600083815260200190815260200160002060030160009054906101000a900460ff1660ff1603611325576113178582611532565b826113229190613f86565b91505b808061133090614125565b915050611259565b508091505092915050565b6000806000600f60008673ffffffffffffffffffffffffffffffffffffffff1673ffffffffffffffffffffffffffffffffffffffff168152602001908152602001600020600085815260200190815260200160002060405180610100016040529081600082015481526020016001820160009054906101000a900460ff16151515158152602001600282015481526020016003820160009054906101000a900460ff1660ff1660ff16815260200160048201548152602001600582015481526020016006820154815260200160078201548152505090508060200151156114eb5760008160a001514211611437574261143d565b8160a001515b90506000603c6fffffffffffffffffffffffffffffffff168360c00151836114659190613eb0565b61146f9190613f55565b905060008111156114e85760006006846060015160ff168154811061149757611496613e52565b5b906000526020600020015490506000670de0b6b3a764000060648387604001516114c19190613ee4565b6114cb9190613f55565b6114d59190613f55565b905082816114e39190613ee4565b955050505b50505b819250505092915050565b6000600d80549050905060005b818160ff161015611528576115178161084d565b8061152190614252565b9050611503565b5050565b60055481565b6000806000600f60008673ffffffffffffffffffffffffffffffffffffffff1673ffffffffffffffffffffffffffffffffffffffff168152602001908152602001600020600085815260200190815260200160002060405180610100016040529081600082015481526020016001820160009054906101000a900460ff16151515158152602001600282015481526020016003820160009054906101000a900460ff1660ff1660ff16815260200160048201548152602001600582015481526020016006820154815260200160078201548152505090506000600d826060015160ff168154811061162657611625613e52565b5b90600052602060002090600502016040518060a00160405290816000820160009054906101000a900460ff1660ff1660ff16815260200160018201548152602001600282015481526020016003820154815260200160048201548152505090508160200151156117c1578160a0015142106116d55760006116a78787612c40565b9050806000015182604001818152505080602001518260600181815250508060400151826080018181525050505b8060800151421180156116ed57506000816040015114155b1561178b5760008260a001514211611705574261170b565b8260a001515b9050600082608001518261171f9190613eb0565b90506000600b548460200151600954846117399190613ee4565b6117439190613ee4565b61174d9190613f55565b9050836040015164e8d4a51000826117659190613ee4565b61176f9190613f55565b846060018181516117809190613f86565b915081815250505050505b8160e0015164e8d4a51000826060015184604001516117aa9190613ee4565b6117b49190613f55565b6117be9190613eb0565b92505b82935050505092915050565b600a5481565b6000600f60006117e16129da565b73ffffffffffffffffffffffffffffffffffffffff1673ffffffffffffffffffffffffffffffffffffffff168152602001908152602001600020600083815260200190815260200160002090506000600d8260030160009054906101000a900460ff1660ff168154811061185857611857613e52565b5b906000526020600020906005020190508160010160009054906101000a900460ff166118b9576040517f08c379a00000000000000000000000000000000000000000000000000000000081526004016118b0906142c7565b60405180910390fd5b60006118cc6118c66129da565b85611343565b90506118e88360030160009054906101000a900460ff1661084d565b60006118fb6118f56129da565b86611532565b90508360050154421015611a685760008211806119185750600081115b611957576040517f08c379a000000000000000000000000000000000000000000000000000000000815260040161194e90614333565b60405180910390fd5b60008460050154421161196a5742611970565b84600501545b90506000603c6fffffffffffffffffffffffffffffffff168660060154836119989190613eb0565b6119a29190613f55565b9050603c6fffffffffffffffffffffffffffffffff16816119c39190613ee4565b86600601546119d29190613f86565b866006018190555064e8d4a51000856003015487600201546119f49190613ee4565b6119fe9190613f55565b8660070181905550611a0e6129da565b73ffffffffffffffffffffffffffffffffffffffff167f634235fcf5af0adbca1a405ec65f6f6c08f55e1f379c2c45cd10f23cb29e0e31876000015486604051611a59929190614353565b60405180910390a25050611ce3565b600084600001549050600085600201549050600f6000611a866129da565b73ffffffffffffffffffffffffffffffffffffffff1673ffffffffffffffffffffffffffffffffffffffff16815260200190815260200160002060008881526020019081526020016000206000808201600090556001820160006101000a81549060ff021916905560028201600090556003820160006101000a81549060ff021916905560048201600090556005820160009055600682016000905560078201600090555050600360009054906101000a900473ffffffffffffffffffffffffffffffffffffffff1673ffffffffffffffffffffffffffffffffffffffff166342966c68826040518263ffffffff1660e01b8152600401611b879190613832565b6020604051808303816000875af1158015611ba6573d6000803e3d6000fd5b505050506040513d601f19601f82011682018060405250810190611bca91906140f8565b5080856002016000828254611bdf9190613eb0565b925050819055506000600360009054906101000a900473ffffffffffffffffffffffffffffffffffffffff1673ffffffffffffffffffffffffffffffffffffffff166370a08231306040518263ffffffff1660e01b8152600401611c439190613bc7565b602060405180830381865afa158015611c60573d6000803e3d6000fd5b505050506040513d601f19601f82011682018060405250810190611c849190614391565b9050611c8e6129da565b73ffffffffffffffffffffffffffffffffffffffff167ffbd65cfd6de1493db337385c0712095397ecbd0504df64b861cdfceb80c7b422848484604051611cd793929190613c62565b60405180910390a25050505b6000821115611d9557600160009054906101000a900473ffffffffffffffffffffffffffffffffffffffff1673ffffffffffffffffffffffffffffffffffffffff166340c10f19611d326129da565b846040518363ffffffff1660e01b8152600401611d509291906140a3565b6020604051808303816000875af1158015611d6f573d6000803e3d6000fd5b505050506040513d601f19601f82011682018060405250810190611d9391906140f8565b505b6000811115611e4757600260009054906101000a900473ffffffffffffffffffffffffffffffffffffffff1673ffffffffffffffffffffffffffffffffffffffff166340c10f19611de46129da565b836040518363ffffffff1660e01b8152600401611e029291906140a3565b6020604051808303816000875af1158015611e21573d6000803e3d6000fd5b505050506040513d601f19601f82011682018060405250810190611e4591906140f8565b505b5050505050565b604051602001611e5d90614415565b60405160208183030381529060405280519060200120611e7c81612a6b565b611e846114f6565b81600d8460ff1681548110611e9c57611e9b613e52565b5b906000526020600020906005020160010154600b54611ebb9190613eb0565b611ec59190613f86565b600b819055506000600d8460ff1681548110611ee457611ee3613e52565b5b906000526020600020906005020160010154905082600d8560ff1681548110611f1057611f0f613e52565b5b9060005260206000209060050201600101819055508360ff167f79c68a2ecb77b6cdd88572066ae7a8fc466cd3a32f2908e8f6429f27ca7608728483604051611f5a929190614353565b60405180910390a250505050565b60078181548110611f7857600080fd5b906000526020600020016000915090505481565b600080600084815260200190815260200160002060000160008373ffffffffffffffffffffffffffffffffffffffff1673ffffffffffffffffffffffffffffffffffffffff16815260200190815260200160002060009054906101000a900460ff16905092915050565b6006818154811061200657600080fd5b906000526020600020016000915090505481565b60008060005b601060008673ffffffffffffffffffffffffffffffffffffffff1673ffffffffffffffffffffffffffffffffffffffff168152602001908152602001600020548110156120ff578360ff16600f60008773ffffffffffffffffffffffffffffffffffffffff1673ffffffffffffffffffffffffffffffffffffffff168152602001908152602001600020600083815260200190815260200160002060030160009054906101000a900460ff1660ff16036120ec576120de8582611343565b826120e99190613f86565b91505b80806120f790614125565b915050612020565b508091505092915050565b6000801b81565b60106020528060005260406000206000915090505481565b60008060005b601060008573ffffffffffffffffffffffffffffffffffffffff1673ffffffffffffffffffffffffffffffffffffffff168152602001908152602001600020548110156121a0576121808482611532565b8261218b9190613f86565b9150808061219890614125565b91505061212f565b5080915050919050565b6040516020016121b990614415565b6040516020818303038152906040528051906020012081565b6121db82611008565b6121e481612a6b565b6121ee8383612b5f565b505050565b7f000000000000000000000000000000000000000000000000000000000000000073ffffffffffffffffffffffffffffffffffffffff166122326129da565b73ffffffffffffffffffffffffffffffffffffffff1614612288576040517f08c379a000000000000000000000000000000000000000000000000000000000815260040161227f9061449c565b60405180910390fd5b600073ffffffffffffffffffffffffffffffffffffffff168573ffffffffffffffffffffffffffffffffffffffff16036122f7576040517f08c379a00000000000000000000000000000000000000000000000000000000081526004016122ee90614508565b60405180910390fd5b600073ffffffffffffffffffffffffffffffffffffffff168473ffffffffffffffffffffffffffffffffffffffff1603612366576040517f08c379a000000000000000000000000000000000000000000000000000000000815260040161235d90614574565b60405180910390fd5b600073ffffffffffffffffffffffffffffffffffffffff168373ffffffffffffffffffffffffffffffffffffffff16036123d5576040517f08c379a00000000000000000000000000000000000000000000000000000000081526004016123cc906145e0565b60405180910390fd5b600073ffffffffffffffffffffffffffffffffffffffff168273ffffffffffffffffffffffffffffffffffffffff1603612444576040517f08c379a000000000000000000000000000000000000000000000000000000000815260040161243b9061464c565b60405180910390fd5b61247960405160200161245690614415565b604051602081830303815290604052805190602001206124746129da565b612a7f565b61248d6000801b6124886129da565b612a7f565b84600160006101000a81548173ffffffffffffffffffffffffffffffffffffffff021916908373ffffffffffffffffffffffffffffffffffffffff16021790555083600260006101000a81548173ffffffffffffffffffffffffffffffffffffffff021916908373ffffffffffffffffffffffffffffffffffffffff16021790555082600360006101000a81548173ffffffffffffffffffffffffffffffffffffffff021916908373ffffffffffffffffffffffffffffffffffffffff16021790555081600460006101000a81548173ffffffffffffffffffffffffffffffffffffffff021916908373ffffffffffffffffffffffffffffffffffffffff160217905550600f600581905550604051806060016040528067100aefe0105a000067ffffffffffffffff16815260200167087ab54345c3800067ffffffffffffffff1681526020016704f0c41d240a000067ffffffffffffffff1681525060069060036125fa929190613604565b50604051806060016040528067de0b6b3a7640000068ffffffffffffffffff1681526020016801158e460913d0000068ffffffffffffffffff1681526020016801a055690d9db8000068ffffffffffffffffff16815250600790600361266192919061365d565b50604051806060016040528061151861ffff168152602001612a3061ffff16815260200161558c61ffff16815250600890600361269f9291906136b7565b506702501e734690aaab6009819055506107086fffffffffffffffffffffffffffffffff16816126cf9190613f86565b600a819055506103e8600b819055506000600d805490500361271b576126fa60006064600a54612f6c565b61270a600161012c600a54612f6c565b61271a6002610258600a54612f6c565b5b6001600c60006101000a81548160ff0219169083151502179055505050505050565b60008060005b601060008573ffffffffffffffffffffffffffffffffffffffff1673ffffffffffffffffffffffffffffffffffffffff168152602001908152602001600020548110156128f7576000600f60008673ffffffffffffffffffffffffffffffffffffffff1673ffffffffffffffffffffffffffffffffffffffff168152602001908152602001600020600083815260200190815260200160002060405180610100016040529081600082015481526020016001820160009054906101000a900460ff16151515158152602001600282015481526020016003820160009054906101000a900460ff1660ff1660ff16815260200160048201548152602001600582015481526020016006820154815260200160078201548152505090508060200151156128e3578060a001514210156128e25760006006826060015160ff168154811061289157612890613e52565b5b906000526020600020015490506000670de0b6b3a764000060648385604001516128bb9190613ee4565b6128c59190613f55565b6128cf9190613f55565b905080856128dd9190613f86565b945050505b5b5080806128ef90614125565b915050612743565b5080915050919050565b600f602052816000526040600020602052806000526040600020600091509150508060000154908060010160009054906101000a900460ff16908060020154908060030160009054906101000a900460ff16908060040154908060050154908060060154908060070154905088565b60007f01ffc9a7000000000000000000000000000000000000000000000000000000007bffffffffffffffffffffffffffffffffffffffffffffffffffffffff1916827bffffffffffffffffffffffffffffffffffffffffffffffffffffffff1916149050919050565b600033905090565b612a65846323b872dd60e01b858585604051602401612a039392919061466c565b604051602081830303815290604052907bffffffffffffffffffffffffffffffffffffffffffffffffffffffff19166020820180517bffffffffffffffffffffffffffffffffffffffffffffffffffffffff8381831617835250505050613017565b50505050565b612a7c81612a776129da565b6130de565b50565b612a898282611f8c565b612b5b57600160008084815260200190815260200160002060000160008373ffffffffffffffffffffffffffffffffffffffff1673ffffffffffffffffffffffffffffffffffffffff16815260200190815260200160002060006101000a81548160ff021916908315150217905550612b006129da565b73ffffffffffffffffffffffffffffffffffffffff168173ffffffffffffffffffffffffffffffffffffffff16837f2f8788117e7eff1d82e926ec794901d17c78024a50270940304540a733656f0d60405160405180910390a45b5050565b612b698282611f8c565b15612c3c57600080600084815260200190815260200160002060000160008373ffffffffffffffffffffffffffffffffffffffff1673ffffffffffffffffffffffffffffffffffffffff16815260200190815260200160002060006101000a81548160ff021916908315150217905550612be16129da565b73ffffffffffffffffffffffffffffffffffffffff168173ffffffffffffffffffffffffffffffffffffffff16837ff6391f5c32d9c69d2a47ea670b442974b53935d1edc7fd64eb21e047a839171b60405160405180910390a45b5050565b612c48613599565b6000600f60008573ffffffffffffffffffffffffffffffffffffffff1673ffffffffffffffffffffffffffffffffffffffff168152602001908152602001600020600084815260200190815260200160002060405180610100016040529081600082015481526020016001820160009054906101000a900460ff16151515158152602001600282015481526020016003820160009054906101000a900460ff1660ff1660ff16815260200160048201548152602001600582015481526020016006820154815260200160078201548152505090506000600e6000836060015160ff168152602001908152602001600020805480602002602001604051908101604052809291908181526020016000905b82821015612da85783829060005260206000209060030201604051806060016040529081600082015481526020016001820154815260200160028201548152505081526020019060010190612d58565b50505050905060008260a001514211612dc15742612dc7565b8260a001515b905081600081518110612ddd57612ddc613e52565b5b602002602001015160400151811015612e165781600081518110612e0457612e03613e52565b5b60200260200101519350505050612f66565b8160018351612e259190613eb0565b81518110612e3657612e35613e52565b5b6020026020010151604001518110612e7a578160018351612e579190613eb0565b81518110612e6857612e67613e52565b5b60200260200101519350505050612f66565b600080835190505b80821015612f3757600060028284612e9a9190613f86565b612ea49190613f55565b905083858281518110612eba57612eb9613e52565b5b6020026020010151604001511015612ee057600181612ed99190613f86565b9250612f31565b83858281518110612ef457612ef3613e52565b5b60200260200101516040015103612f2d57848181518110612f1857612f17613e52565b5b60200260200101519650505050505050612f66565b8091505b50612e82565b83600183612f459190613eb0565b81518110612f5657612f55613e52565b5b6020026020010151955050505050505b92915050565b612f7461370a565b83816000019060ff16908160ff16815250508281602001818152505081816080018181525050600d81908060018154018082558091505060019003906000526020600020906005020160009091909190915060008201518160000160006101000a81548160ff021916908360ff16021790555060208201518160010155604082015181600201556060820151816003015560808201518160040155505050505050565b6000613079826040518060400160405280602081526020017f5361666545524332303a206c6f772d6c6576656c2063616c6c206661696c65648152508573ffffffffffffffffffffffffffffffffffffffff166131639092919063ffffffff16565b90506000815111156130d9578080602001905181019061309991906140f8565b6130d8576040517f08c379a00000000000000000000000000000000000000000000000000000000081526004016130cf90614715565b60405180910390fd5b5b505050565b6130e88282611f8c565b61315f576130f58161317b565b6131038360001c60206131a8565b604051602001613114929190614833565b6040516020818303038152906040526040517f08c379a000000000000000000000000000000000000000000000000000000000815260040161315691906148b7565b60405180910390fd5b5050565b606061317284846000856133e4565b90509392505050565b60606131a18273ffffffffffffffffffffffffffffffffffffffff16601460ff166131a8565b9050919050565b6060600060028360026131bb9190613ee4565b6131c59190613f86565b67ffffffffffffffff8111156131de576131dd6148d9565b5b6040519080825280601f01601f1916602001820160405280156132105781602001600182028036833780820191505090505b5090507f30000000000000000000000000000000000000000000000000000000000000008160008151811061324857613247613e52565b5b60200101907effffffffffffffffffffffffffffffffffffffffffffffffffffffffffffff1916908160001a9053507f7800000000000000000000000000000000000000000000000000000000000000816001815181106132ac576132ab613e52565b5b60200101907effffffffffffffffffffffffffffffffffffffffffffffffffffffffffffff1916908160001a905350600060018460026132ec9190613ee4565b6132f69190613f86565b90505b6001811115613396577f3031323334353637383961626364656600000000000000000000000000000000600f86166010811061333857613337613e52565b5b1a60f81b82828151811061334f5761334e613e52565b5b60200101907effffffffffffffffffffffffffffffffffffffffffffffffffffffffffffff1916908160001a905350600485901c94508061338f90614908565b90506132f9565b50600084146133da576040517f08c379a00000000000000000000000000000000000000000000000000000000081526004016133d19061497d565b60405180910390fd5b8091505092915050565b606082471015613429576040517f08c379a000000000000000000000000000000000000000000000000000000000815260040161342090614a0f565b60405180910390fd5b6000808673ffffffffffffffffffffffffffffffffffffffff1685876040516134529190614a76565b60006040518083038185875af1925050503d806000811461348f576040519150601f19603f3d011682016040523d82523d6000602084013e613494565b606091505b50915091506134a5878383876134b1565b92505050949350505050565b6060831561351357600083510361350b576134cb85613526565b61350a576040517f08c379a000000000000000000000000000000000000000000000000000000000815260040161350190614ad9565b60405180910390fd5b5b82905061351e565b61351d8383613549565b5b949350505050565b6000808273ffffffffffffffffffffffffffffffffffffffff163b119050919050565b60008251111561355c5781518083602001fd5b806040517f08c379a000000000000000000000000000000000000000000000000000000000815260040161359091906148b7565b60405180910390fd5b60405180606001604052806000815260200160008152602001600081525090565b6040518061010001604052806000815260200160001515815260200160008152602001600060ff168152602001600081526020016000815260200160008152602001600081525090565b82805482825590600052602060002090810192821561364c579160200282015b8281111561364b578251829067ffffffffffffffff16905591602001919060010190613624565b5b509050613659919061373c565b5090565b8280548282559060005260206000209081019282156136a6579160200282015b828111156136a5578251829068ffffffffffffffffff1690559160200191906001019061367d565b5b5090506136b3919061373c565b5090565b8280548282559060005260206000209081019282156136f9579160200282015b828111156136f8578251829061ffff169055916020019190600101906136d7565b5b509050613706919061373c565b5090565b6040518060a00160405280600060ff168152602001600081526020016000815260200160008152602001600081525090565b5b8082111561375557600081600090555060010161373d565b5090565b600080fd5b60007fffffffff0000000000000000000000000000000000000000000000000000000082169050919050565b6137938161375e565b811461379e57600080fd5b50565b6000813590506137b08161378a565b92915050565b6000602082840312156137cc576137cb613759565b5b60006137da848285016137a1565b91505092915050565b60008115159050919050565b6137f8816137e3565b82525050565b600060208201905061381360008301846137ef565b92915050565b6000819050919050565b61382c81613819565b82525050565b60006020820190506138476000830184613823565b92915050565b600060ff82169050919050565b6138638161384d565b811461386e57600080fd5b50565b6000813590506138808161385a565b92915050565b60006020828403121561389c5761389b613759565b5b60006138aa84828501613871565b91505092915050565b6138bc81613819565b81146138c757600080fd5b50565b6000813590506138d9816138b3565b92915050565b600080604083850312156138f6576138f5613759565b5b6000613904858286016138ca565b925050602061391585828601613871565b9150509250929050565b60006020828403121561393557613934613759565b5b6000613943848285016138ca565b91505092915050565b6139558161384d565b82525050565b600060a082019050613970600083018861394c565b61397d6020830187613823565b61398a6040830186613823565b6139976060830185613823565b6139a46080830184613823565b9695505050505050565b600073ffffffffffffffffffffffffffffffffffffffff82169050919050565b6000819050919050565b60006139f36139ee6139e9846139ae565b6139ce565b6139ae565b9050919050565b6000613a05826139d8565b9050919050565b6000613a17826139fa565b9050919050565b613a2781613a0c565b82525050565b6000602082019050613a426000830184613a1e565b92915050565b6000819050919050565b613a5b81613a48565b8114613a6657600080fd5b50565b600081359050613a7881613a52565b92915050565b600060208284031215613a9457613a93613759565b5b6000613aa284828501613a69565b91505092915050565b613ab481613a48565b82525050565b6000602082019050613acf6000830184613aab565b92915050565b6000613ae0826139fa565b9050919050565b613af081613ad5565b82525050565b6000602082019050613b0b6000830184613ae7565b92915050565b6000613b1c826139ae565b9050919050565b613b2c81613b11565b8114613b3757600080fd5b50565b600081359050613b4981613b23565b92915050565b600060208284031215613b6557613b64613759565b5b6000613b7384828501613b3a565b91505092915050565b6000613b87826139fa565b9050919050565b613b9781613b7c565b82525050565b6000602082019050613bb26000830184613b8e565b92915050565b613bc181613b11565b82525050565b6000602082019050613bdc6000830184613bb8565b92915050565b60008060408385031215613bf957613bf8613759565b5b6000613c0785828601613a69565b9250506020613c1885828601613b3a565b9150509250929050565b60008060408385031215613c3957613c38613759565b5b6000613c47858286016138ca565b9250506020613c58858286016138ca565b9150509250929050565b6000606082019050613c776000830186613823565b613c846020830185613823565b613c916040830184613823565b949350505050565b60008060408385031215613cb057613caf613759565b5b6000613cbe85828601613b3a565b9250506020613ccf85828601613871565b9150509250929050565b60008060408385031215613cf057613cef613759565b5b6000613cfe85828601613b3a565b9250506020613d0f858286016138ca565b9150509250929050565b60008060408385031215613d3057613d2f613759565b5b6000613d3e85828601613871565b9250506020613d4f858286016138ca565b9150509250929050565b600080600080600060a08688031215613d7557613d74613759565b5b6000613d8388828901613b3a565b9550506020613d9488828901613b3a565b9450506040613da588828901613b3a565b9350506060613db688828901613b3a565b9250506080613dc7888289016138ca565b9150509295509295909350565b600061010082019050613dea600083018b613823565b613df7602083018a6137ef565b613e046040830189613823565b613e11606083018861394c565b613e1e6080830187613823565b613e2b60a0830186613823565b613e3860c0830185613823565b613e4560e0830184613823565b9998505050505050505050565b7f4e487b7100000000000000000000000000000000000000000000000000000000600052603260045260246000fd5b7f4e487b7100000000000000000000000000000000000000000000000000000000600052601160045260246000fd5b6000613ebb82613819565b9150613ec683613819565b9250828203905081811115613ede57613edd613e81565b5b92915050565b6000613eef82613819565b9150613efa83613819565b9250828202613f0881613819565b91508282048414831517613f1f57613f1e613e81565b5b5092915050565b7f4e487b7100000000000000000000000000000000000000000000000000000000600052601260045260246000fd5b6000613f6082613819565b9150613f6b83613819565b925082613f7b57613f7a613f26565b5b828204905092915050565b6000613f9182613819565b9150613f9c83613819565b9250828201905080821115613fb457613fb3613e81565b5b92915050565b600082825260208201905092915050565b7f4561726e3a20696e73756666696369656e7420616d6f756e7400000000000000600082015250565b6000614001601983613fba565b915061400c82613fcb565b602082019050919050565b6000602082019050818103600083015261403081613ff4565b9050919050565b7f4561726e3a20696e76616c6964207374616b6520747970650000000000000000600082015250565b600061406d601883613fba565b915061407882614037565b602082019050919050565b6000602082019050818103600083015261409c81614060565b9050919050565b60006040820190506140b86000830185613bb8565b6140c56020830184613823565b9392505050565b6140d5816137e3565b81146140e057600080fd5b50565b6000815190506140f2816140cc565b92915050565b60006020828403121561410e5761410d613759565b5b600061411c848285016140e3565b91505092915050565b600061413082613819565b91507fffffffffffffffffffffffffffffffffffffffffffffffffffffffffffffffff820361416257614161613e81565b5b600182019050919050565b600060a0820190506141826000830188613823565b61418f6020830187613823565b61419c604083018661394c565b6141a96060830185613823565b6141b66080830184613823565b9695505050505050565b7f416363657373436f6e74726f6c3a2063616e206f6e6c792072656e6f756e636560008201527f20726f6c657320666f722073656c660000000000000000000000000000000000602082015250565b600061421c602f83613fba565b9150614227826141c0565b604082019050919050565b6000602082019050818103600083015261424b8161420f565b9050919050565b600061425d8261384d565b915060ff82036142705761426f613e81565b5b600182019050919050565b7f4561726e3a20696e76616c6964207374616b696e670000000000000000000000600082015250565b60006142b1601583613fba565b91506142bc8261427b565b602082019050919050565b600060208201905081810360008301526142e0816142a4565b9050919050565b7f4561726e3a206e6f20616d6f756e7420746f2077697468647261770000000000600082015250565b600061431d601b83613fba565b9150614328826142e7565b602082019050919050565b6000602082019050818103600083015261434c81614310565b9050919050565b60006040820190506143686000830185613823565b6143756020830184613823565b9392505050565b60008151905061438b816138b3565b92915050565b6000602082840312156143a7576143a6613759565b5b60006143b58482850161437c565b91505092915050565b600081905092915050565b7f476f7665726e6f72000000000000000000000000000000000000000000000000600082015250565b60006143ff6008836143be565b915061440a826143c9565b600882019050919050565b6000614420826143f2565b9150819050919050565b7f4561726e3a2063616c6c6572206973206e6f742074686520696e697469616c6960008201527f7a65720000000000000000000000000000000000000000000000000000000000602082015250565b6000614486602383613fba565b91506144918261442a565b604082019050919050565b600060208201905081810360008301526144b581614479565b9050919050565b7f4561726e3a20696e76616c696420485944542061646472657373000000000000600082015250565b60006144f2601a83613fba565b91506144fd826144bc565b602082019050919050565b60006020820190508181036000830152614521816144e5565b9050919050565b7f4561726e3a20696e76616c696420485947542061646472657373000000000000600082015250565b600061455e601a83613fba565b915061456982614528565b602082019050919050565b6000602082019050818103600083015261458d81614551565b9050919050565b7f4561726e3a20696e76616c696420734859445420616464726573730000000000600082015250565b60006145ca601b83613fba565b91506145d582614594565b602082019050919050565b600060208201905081810360008301526145f9816145bd565b9050919050565b7f4561726e3a20696e76616c696420547265617375727920616464726573730000600082015250565b6000614636601e83613fba565b915061464182614600565b602082019050919050565b6000602082019050818103600083015261466581614629565b9050919050565b60006060820190506146816000830186613bb8565b61468e6020830185613bb8565b61469b6040830184613823565b949350505050565b7f5361666545524332303a204552433230206f7065726174696f6e20646964206e60008201527f6f74207375636365656400000000000000000000000000000000000000000000602082015250565b60006146ff602a83613fba565b915061470a826146a3565b604082019050919050565b6000602082019050818103600083015261472e816146f2565b9050919050565b7f416363657373436f6e74726f6c3a206163636f756e7420000000000000000000600082015250565b600061476b6017836143be565b915061477682614735565b601782019050919050565b600081519050919050565b60005b838110156147aa57808201518184015260208101905061478f565b60008484015250505050565b60006147c182614781565b6147cb81856143be565b93506147db81856020860161478c565b80840191505092915050565b7f206973206d697373696e6720726f6c6520000000000000000000000000000000600082015250565b600061481d6011836143be565b9150614828826147e7565b601182019050919050565b600061483e8261475e565b915061484a82856147b6565b915061485582614810565b915061486182846147b6565b91508190509392505050565b6000601f19601f8301169050919050565b600061488982614781565b6148938185613fba565b93506148a381856020860161478c565b6148ac8161486d565b840191505092915050565b600060208201905081810360008301526148d1818461487e565b905092915050565b7f4e487b7100000000000000000000000000000000000000000000000000000000600052604160045260246000fd5b600061491382613819565b91506000820361492657614925613e81565b5b600182039050919050565b7f537472696e67733a20686578206c656e67746820696e73756666696369656e74600082015250565b6000614967602083613fba565b915061497282614931565b602082019050919050565b600060208201905081810360008301526149968161495a565b9050919050565b7f416464726573733a20696e73756666696369656e742062616c616e636520666f60008201527f722063616c6c0000000000000000000000000000000000000000000000000000602082015250565b60006149f9602683613fba565b9150614a048261499d565b604082019050919050565b60006020820190508181036000830152614a28816149ec565b9050919050565b600081519050919050565b600081905092915050565b6000614a5082614a2f565b614a5a8185614a3a565b9350614a6a81856020860161478c565b80840191505092915050565b6000614a828284614a45565b915081905092915050565b7f416464726573733a2063616c6c20746f206e6f6e2d636f6e7472616374000000600082015250565b6000614ac3601d83613fba565b9150614ace82614a8d565b602082019050919050565b60006020820190508181036000830152614af281614ab6565b905091905056fea264697066735822122011eea70797f76f995e3feea539591105e88b00bdc3a63d5409a6ecc729dff08964736f6c63430008130033",
			"opcodes": "PUSH1 0xA0 PUSH1 0x40 MSTORE CALLVALUE DUP1 ISZERO PUSH3 0x11 JUMPI PUSH1 0x0 DUP1 REVERT JUMPDEST POP PUSH3 0x22 PUSH3 0x5B PUSH1 0x20 SHL PUSH1 0x20 SHR JUMP JUMPDEST PUSH20 0xFFFFFFFFFFFFFFFFFFFFFFFFFFFFFFFFFFFFFFFF AND PUSH1 0x80 DUP2 PUSH20 0xFFFFFFFFFFFFFFFFFFFFFFFFFFFFFFFFFFFFFFFF AND DUP2 MSTORE POP POP PUSH3 0x63 JUMP JUMPDEST PUSH1 0x0 CALLER SWAP1 POP SWAP1 JUMP JUMPDEST PUSH1 0x80 MLOAD PUSH2 0x4B2F PUSH3 0x86 PUSH1 0x0 CODECOPY PUSH1 0x0 DUP2 DUP2 PUSH2 0x1231 ADD MSTORE PUSH2 0x21F5 ADD MSTORE PUSH2 0x4B2F PUSH1 0x0 RETURN INVALID PUSH1 0x80 PUSH1 0x40 MSTORE CALLVALUE DUP1 ISZERO PUSH2 0x10 JUMPI PUSH1 0x0 DUP1 REVERT JUMPDEST POP PUSH1 0x4 CALLDATASIZE LT PUSH2 0x232 JUMPI PUSH1 0x0 CALLDATALOAD PUSH1 0xE0 SHR DUP1 PUSH4 0x565EEA19 GT PUSH2 0x130 JUMPI DUP1 PUSH4 0xA15A8DC7 GT PUSH2 0xB8 JUMPI DUP1 PUSH4 0xCCC57490 GT PUSH2 0x7C JUMPI DUP1 PUSH4 0xCCC57490 EQ PUSH2 0x709 JUMPI DUP1 PUSH4 0xD547741F EQ PUSH2 0x727 JUMPI DUP1 PUSH4 0xF7013EF6 EQ PUSH2 0x743 JUMPI DUP1 PUSH4 0xFD879B1E EQ PUSH2 0x75F JUMPI DUP1 PUSH4 0xFDD6374E EQ PUSH2 0x78F JUMPI PUSH2 0x232 JUMP JUMPDEST DUP1 PUSH4 0xA15A8DC7 EQ PUSH2 0x62B JUMPI DUP1 PUSH4 0xA1FD8DB8 EQ PUSH2 0x65B JUMPI DUP1 PUSH4 0xA217FDDF EQ PUSH2 0x68B JUMPI DUP1 PUSH4 0xAD429608 EQ PUSH2 0x6A9 JUMPI DUP1 PUSH4 0xB3ECB623 EQ PUSH2 0x6D9 JUMPI PUSH2 0x232 JUMP JUMPDEST DUP1 PUSH4 0x78E97925 GT PUSH2 0xFF JUMPI DUP1 PUSH4 0x78E97925 EQ PUSH2 0x575 JUMPI DUP1 PUSH4 0x8A69614E EQ PUSH2 0x593 JUMPI DUP1 PUSH4 0x8E8CFD4A EQ PUSH2 0x5AF JUMPI DUP1 PUSH4 0x91C28B4E EQ PUSH2 0x5CB JUMPI DUP1 PUSH4 0x91D14854 EQ PUSH2 0x5FB JUMPI PUSH2 0x232 JUMP JUMPDEST DUP1 PUSH4 0x565EEA19 EQ PUSH2 0x4ED JUMPI DUP1 PUSH4 0x630B5BA1 EQ PUSH2 0x51D JUMPI DUP1 PUSH4 0x67A52793 EQ PUSH2 0x527 JUMPI DUP1 PUSH4 0x6B39840D EQ PUSH2 0x545 JUMPI PUSH2 0x232 JUMP JUMPDEST DUP1 PUSH4 0x258F25B8 GT PUSH2 0x1BE JUMPI DUP1 PUSH4 0x36568ABE GT PUSH2 0x182 JUMPI DUP1 PUSH4 0x36568ABE EQ PUSH2 0x435 JUMPI DUP1 PUSH4 0x40EA6EA2 EQ PUSH2 0x451 JUMPI DUP1 PUSH4 0x4C8F2A78 EQ PUSH2 0x46F JUMPI DUP1 PUSH4 0x4F6059E7 EQ PUSH2 0x49F JUMPI DUP1 PUSH4 0x4F78EE02 EQ PUSH2 0x4BD JUMPI PUSH2 0x232 JUMP JUMPDEST DUP1 PUSH4 0x258F25B8 EQ PUSH2 0x37B JUMPI DUP1 PUSH4 0x287FCC8F EQ PUSH2 0x3AB JUMPI DUP1 PUSH4 0x2D2C5565 EQ PUSH2 0x3C9 JUMPI DUP1 PUSH4 0x2F2FF15D EQ PUSH2 0x3E7 JUMPI DUP1 PUSH4 0x312036E2 EQ PUSH2 0x403 JUMPI PUSH2 0x232 JUMP JUMPDEST DUP1 PUSH4 0x1526FE27 GT PUSH2 0x205 JUMPI DUP1 PUSH4 0x1526FE27 EQ PUSH2 0x2BD JUMPI DUP1 PUSH4 0x17CAF6F1 EQ PUSH2 0x2F1 JUMPI DUP1 PUSH4 0x23C64CE1 EQ PUSH2 0x30F JUMPI DUP1 PUSH4 0x248A9CA3 EQ PUSH2 0x32D JUMPI DUP1 PUSH4 0x25404DAE EQ PUSH2 0x35D JUMPI PUSH2 0x232 JUMP JUMPDEST DUP1 PUSH4 0x1FFC9A7 EQ PUSH2 0x237 JUMPI DUP1 PUSH4 0x81E3EDA EQ PUSH2 0x267 JUMPI DUP1 PUSH4 0x8FA95D4 EQ PUSH2 0x285 JUMPI DUP1 PUSH4 0x10087FB1 EQ PUSH2 0x2A1 JUMPI JUMPDEST PUSH1 0x0 DUP1 REVERT JUMPDEST PUSH2 0x251 PUSH1 0x4 DUP1 CALLDATASIZE SUB DUP2 ADD SWAP1 PUSH2 0x24C SWAP2 SWAP1 PUSH2 0x37B6 JUMP JUMPDEST PUSH2 0x7C6 JUMP JUMPDEST PUSH1 0x40 MLOAD PUSH2 0x25E SWAP2 SWAP1 PUSH2 0x37FE JUMP JUMPDEST PUSH1 0x40 MLOAD DUP1 SWAP2 SUB SWAP1 RETURN JUMPDEST PUSH2 0x26F PUSH2 0x840 JUMP JUMPDEST PUSH1 0x40 MLOAD PUSH2 0x27C SWAP2 SWAP1 PUSH2 0x3832 JUMP JUMPDEST PUSH1 0x40 MLOAD DUP1 SWAP2 SUB SWAP1 RETURN JUMPDEST PUSH2 0x29F PUSH1 0x4 DUP1 CALLDATASIZE SUB DUP2 ADD SWAP1 PUSH2 0x29A SWAP2 SWAP1 PUSH2 0x3886 JUMP JUMPDEST PUSH2 0x84D JUMP JUMPDEST STOP JUMPDEST PUSH2 0x2BB PUSH1 0x4 DUP1 CALLDATASIZE SUB DUP2 ADD SWAP1 PUSH2 0x2B6 SWAP2 SWAP1 PUSH2 0x38DF JUMP JUMPDEST PUSH2 0xA3A JUMP JUMPDEST STOP JUMPDEST PUSH2 0x2D7 PUSH1 0x4 DUP1 CALLDATASIZE SUB DUP2 ADD SWAP1 PUSH2 0x2D2 SWAP2 SWAP1 PUSH2 0x391F JUMP JUMPDEST PUSH2 0xF89 JUMP JUMPDEST PUSH1 0x40 MLOAD PUSH2 0x2E8 SWAP6 SWAP5 SWAP4 SWAP3 SWAP2 SWAP1 PUSH2 0x395B JUMP JUMPDEST PUSH1 0x40 MLOAD DUP1 SWAP2 SUB SWAP1 RETURN JUMPDEST PUSH2 0x2F9 PUSH2 0xFDC JUMP JUMPDEST PUSH1 0x40 MLOAD PUSH2 0x306 SWAP2 SWAP1 PUSH2 0x3832 JUMP JUMPDEST PUSH1 0x40 MLOAD DUP1 SWAP2 SUB SWAP1 RETURN JUMPDEST PUSH2 0x317 PUSH2 0xFE2 JUMP JUMPDEST PUSH1 0x40 MLOAD PUSH2 0x324 SWAP2 SWAP1 PUSH2 0x3A2D JUMP JUMPDEST PUSH1 0x40 MLOAD DUP1 SWAP2 SUB SWAP1 RETURN JUMPDEST PUSH2 0x347 PUSH1 0x4 DUP1 CALLDATASIZE SUB DUP2 ADD SWAP1 PUSH2 0x342 SWAP2 SWAP1 PUSH2 0x3A7E JUMP JUMPDEST PUSH2 0x1008 JUMP JUMPDEST PUSH1 0x40 MLOAD PUSH2 0x354 SWAP2 SWAP1 PUSH2 0x3ABA JUMP JUMPDEST PUSH1 0x40 MLOAD DUP1 SWAP2 SUB SWAP1 RETURN JUMPDEST PUSH2 0x365 PUSH2 0x1027 JUMP JUMPDEST PUSH1 0x40 MLOAD PUSH2 0x372 SWAP2 SWAP1 PUSH2 0x3AF6 JUMP JUMPDEST PUSH1 0x40 MLOAD DUP1 SWAP2 SUB SWAP1 RETURN JUMPDEST PUSH2 0x395 PUSH1 0x4 DUP1 CALLDATASIZE SUB DUP2 ADD SWAP1 PUSH2 0x390 SWAP2 SWAP1 PUSH2 0x3B4F JUMP JUMPDEST PUSH2 0x104D JUMP JUMPDEST PUSH1 0x40 MLOAD PUSH2 0x3A2 SWAP2 SWAP1 PUSH2 0x3832 JUMP JUMPDEST PUSH1 0x40 MLOAD DUP1 SWAP2 SUB SWAP1 RETURN JUMPDEST PUSH2 0x3B3 PUSH2 0x10CE JUMP JUMPDEST PUSH1 0x40 MLOAD PUSH2 0x3C0 SWAP2 SWAP1 PUSH2 0x3B9D JUMP JUMPDEST PUSH1 0x40 MLOAD DUP1 SWAP2 SUB SWAP1 RETURN JUMPDEST PUSH2 0x3D1 PUSH2 0x10F4 JUMP JUMPDEST PUSH1 0x40 MLOAD PUSH2 0x3DE SWAP2 SWAP1 PUSH2 0x3BC7 JUMP JUMPDEST PUSH1 0x40 MLOAD DUP1 SWAP2 SUB SWAP1 RETURN JUMPDEST PUSH2 0x401 PUSH1 0x4 DUP1 CALLDATASIZE SUB DUP2 ADD SWAP1 PUSH2 0x3FC SWAP2 SWAP1 PUSH2 0x3BE2 JUMP JUMPDEST PUSH2 0x111A JUMP JUMPDEST STOP JUMPDEST PUSH2 0x41D PUSH1 0x4 DUP1 CALLDATASIZE SUB DUP2 ADD SWAP1 PUSH2 0x418 SWAP2 SWAP1 PUSH2 0x3C22 JUMP JUMPDEST PUSH2 0x113B JUMP JUMPDEST PUSH1 0x40 MLOAD PUSH2 0x42C SWAP4 SWAP3 SWAP2 SWAP1 PUSH2 0x3C62 JUMP JUMPDEST PUSH1 0x40 MLOAD DUP1 SWAP2 SUB SWAP1 RETURN JUMPDEST PUSH2 0x44F PUSH1 0x4 DUP1 CALLDATASIZE SUB DUP2 ADD SWAP1 PUSH2 0x44A SWAP2 SWAP1 PUSH2 0x3BE2 JUMP JUMPDEST PUSH2 0x1182 JUMP JUMPDEST STOP JUMPDEST PUSH2 0x459 PUSH2 0x1205 JUMP JUMPDEST PUSH1 0x40 MLOAD PUSH2 0x466 SWAP2 SWAP1 PUSH2 0x3832 JUMP JUMPDEST PUSH1 0x40 MLOAD DUP1 SWAP2 SUB SWAP1 RETURN JUMPDEST PUSH2 0x489 PUSH1 0x4 DUP1 CALLDATASIZE SUB DUP2 ADD SWAP1 PUSH2 0x484 SWAP2 SWAP1 PUSH2 0x391F JUMP JUMPDEST PUSH2 0x120B JUMP JUMPDEST PUSH1 0x40 MLOAD PUSH2 0x496 SWAP2 SWAP1 PUSH2 0x3832 JUMP JUMPDEST PUSH1 0x40 MLOAD DUP1 SWAP2 SUB SWAP1 RETURN JUMPDEST PUSH2 0x4A7 PUSH2 0x122F JUMP JUMPDEST PUSH1 0x40 MLOAD PUSH2 0x4B4 SWAP2 SWAP1 PUSH2 0x3BC7 JUMP JUMPDEST PUSH1 0x40 MLOAD DUP1 SWAP2 SUB SWAP1 RETURN JUMPDEST PUSH2 0x4D7 PUSH1 0x4 DUP1 CALLDATASIZE SUB DUP2 ADD SWAP1 PUSH2 0x4D2 SWAP2 SWAP1 PUSH2 0x3C99 JUMP JUMPDEST PUSH2 0x1253 JUMP JUMPDEST PUSH1 0x40 MLOAD PUSH2 0x4E4 SWAP2 SWAP1 PUSH2 0x3832 JUMP JUMPDEST PUSH1 0x40 MLOAD DUP1 SWAP2 SUB SWAP1 RETURN JUMPDEST PUSH2 0x507 PUSH1 0x4 DUP1 CALLDATASIZE SUB DUP2 ADD SWAP1 PUSH2 0x502 SWAP2 SWAP1 PUSH2 0x3CD9 JUMP JUMPDEST PUSH2 0x1343 JUMP JUMPDEST PUSH1 0x40 MLOAD PUSH2 0x514 SWAP2 SWAP1 PUSH2 0x3832 JUMP JUMPDEST PUSH1 0x40 MLOAD DUP1 SWAP2 SUB SWAP1 RETURN JUMPDEST PUSH2 0x525 PUSH2 0x14F6 JUMP JUMPDEST STOP JUMPDEST PUSH2 0x52F PUSH2 0x152C JUMP JUMPDEST PUSH1 0x40 MLOAD PUSH2 0x53C SWAP2 SWAP1 PUSH2 0x3832 JUMP JUMPDEST PUSH1 0x40 MLOAD DUP1 SWAP2 SUB SWAP1 RETURN JUMPDEST PUSH2 0x55F PUSH1 0x4 DUP1 CALLDATASIZE SUB DUP2 ADD SWAP1 PUSH2 0x55A SWAP2 SWAP1 PUSH2 0x3CD9 JUMP JUMPDEST PUSH2 0x1532 JUMP JUMPDEST PUSH1 0x40 MLOAD PUSH2 0x56C SWAP2 SWAP1 PUSH2 0x3832 JUMP JUMPDEST PUSH1 0x40 MLOAD DUP1 SWAP2 SUB SWAP1 RETURN JUMPDEST PUSH2 0x57D PUSH2 0x17CD JUMP JUMPDEST PUSH1 0x40 MLOAD PUSH2 0x58A SWAP2 SWAP1 PUSH2 0x3832 JUMP JUMPDEST PUSH1 0x40 MLOAD DUP1 SWAP2 SUB SWAP1 RETURN JUMPDEST PUSH2 0x5AD PUSH1 0x4 DUP1 CALLDATASIZE SUB DUP2 ADD SWAP1 PUSH2 0x5A8 SWAP2 SWAP1 PUSH2 0x391F JUMP JUMPDEST PUSH2 0x17D3 JUMP JUMPDEST STOP JUMPDEST PUSH2 0x5C9 PUSH1 0x4 DUP1 CALLDATASIZE SUB DUP2 ADD SWAP1 PUSH2 0x5C4 SWAP2 SWAP1 PUSH2 0x3D19 JUMP JUMPDEST PUSH2 0x1E4E JUMP JUMPDEST STOP JUMPDEST PUSH2 0x5E5 PUSH1 0x4 DUP1 CALLDATASIZE SUB DUP2 ADD SWAP1 PUSH2 0x5E0 SWAP2 SWAP1 PUSH2 0x391F JUMP JUMPDEST PUSH2 0x1F68 JUMP JUMPDEST PUSH1 0x40 MLOAD PUSH2 0x5F2 SWAP2 SWAP1 PUSH2 0x3832 JUMP JUMPDEST PUSH1 0x40 MLOAD DUP1 SWAP2 SUB SWAP1 RETURN JUMPDEST PUSH2 0x615 PUSH1 0x4 DUP1 CALLDATASIZE SUB DUP2 ADD SWAP1 PUSH2 0x610 SWAP2 SWAP1 PUSH2 0x3BE2 JUMP JUMPDEST PUSH2 0x1F8C JUMP JUMPDEST PUSH1 0x40 MLOAD PUSH2 0x622 SWAP2 SWAP1 PUSH2 0x37FE JUMP JUMPDEST PUSH1 0x40 MLOAD DUP1 SWAP2 SUB SWAP1 RETURN JUMPDEST PUSH2 0x645 PUSH1 0x4 DUP1 CALLDATASIZE SUB DUP2 ADD SWAP1 PUSH2 0x640 SWAP2 SWAP1 PUSH2 0x391F JUMP JUMPDEST PUSH2 0x1FF6 JUMP JUMPDEST PUSH1 0x40 MLOAD PUSH2 0x652 SWAP2 SWAP1 PUSH2 0x3832 JUMP JUMPDEST PUSH1 0x40 MLOAD DUP1 SWAP2 SUB SWAP1 RETURN JUMPDEST PUSH2 0x675 PUSH1 0x4 DUP1 CALLDATASIZE SUB DUP2 ADD SWAP1 PUSH2 0x670 SWAP2 SWAP1 PUSH2 0x3C99 JUMP JUMPDEST PUSH2 0x201A JUMP JUMPDEST PUSH1 0x40 MLOAD PUSH2 0x682 SWAP2 SWAP1 PUSH2 0x3832 JUMP JUMPDEST PUSH1 0x40 MLOAD DUP1 SWAP2 SUB SWAP1 RETURN JUMPDEST PUSH2 0x693 PUSH2 0x210A JUMP JUMPDEST PUSH1 0x40 MLOAD PUSH2 0x6A0 SWAP2 SWAP1 PUSH2 0x3ABA JUMP JUMPDEST PUSH1 0x40 MLOAD DUP1 SWAP2 SUB SWAP1 RETURN JUMPDEST PUSH2 0x6C3 PUSH1 0x4 DUP1 CALLDATASIZE SUB DUP2 ADD SWAP1 PUSH2 0x6BE SWAP2 SWAP1 PUSH2 0x3B4F JUMP JUMPDEST PUSH2 0x2111 JUMP JUMPDEST PUSH1 0x40 MLOAD PUSH2 0x6D0 SWAP2 SWAP1 PUSH2 0x3832 JUMP JUMPDEST PUSH1 0x40 MLOAD DUP1 SWAP2 SUB SWAP1 RETURN JUMPDEST PUSH2 0x6F3 PUSH1 0x4 DUP1 CALLDATASIZE SUB DUP2 ADD SWAP1 PUSH2 0x6EE SWAP2 SWAP1 PUSH2 0x3B4F JUMP JUMPDEST PUSH2 0x2129 JUMP JUMPDEST PUSH1 0x40 MLOAD PUSH2 0x700 SWAP2 SWAP1 PUSH2 0x3832 JUMP JUMPDEST PUSH1 0x40 MLOAD DUP1 SWAP2 SUB SWAP1 RETURN JUMPDEST PUSH2 0x711 PUSH2 0x21AA JUMP JUMPDEST PUSH1 0x40 MLOAD PUSH2 0x71E SWAP2 SWAP1 PUSH2 0x3ABA JUMP JUMPDEST PUSH1 0x40 MLOAD DUP1 SWAP2 SUB SWAP1 RETURN JUMPDEST PUSH2 0x741 PUSH1 0x4 DUP1 CALLDATASIZE SUB DUP2 ADD SWAP1 PUSH2 0x73C SWAP2 SWAP1 PUSH2 0x3BE2 JUMP JUMPDEST PUSH2 0x21D2 JUMP JUMPDEST STOP JUMPDEST PUSH2 0x75D PUSH1 0x4 DUP1 CALLDATASIZE SUB DUP2 ADD SWAP1 PUSH2 0x758 SWAP2 SWAP1 PUSH2 0x3D59 JUMP JUMPDEST PUSH2 0x21F3 JUMP JUMPDEST STOP JUMPDEST PUSH2 0x779 PUSH1 0x4 DUP1 CALLDATASIZE SUB DUP2 ADD SWAP1 PUSH2 0x774 SWAP2 SWAP1 PUSH2 0x3B4F JUMP JUMPDEST PUSH2 0x273D JUMP JUMPDEST PUSH1 0x40 MLOAD PUSH2 0x786 SWAP2 SWAP1 PUSH2 0x3832 JUMP JUMPDEST PUSH1 0x40 MLOAD DUP1 SWAP2 SUB SWAP1 RETURN JUMPDEST PUSH2 0x7A9 PUSH1 0x4 DUP1 CALLDATASIZE SUB DUP2 ADD SWAP1 PUSH2 0x7A4 SWAP2 SWAP1 PUSH2 0x3CD9 JUMP JUMPDEST PUSH2 0x2901 JUMP JUMPDEST PUSH1 0x40 MLOAD PUSH2 0x7BD SWAP9 SWAP8 SWAP7 SWAP6 SWAP5 SWAP4 SWAP3 SWAP2 SWAP1 PUSH2 0x3DD4 JUMP JUMPDEST PUSH1 0x40 MLOAD DUP1 SWAP2 SUB SWAP1 RETURN JUMPDEST PUSH1 0x0 PUSH32 0x7965DB0B00000000000000000000000000000000000000000000000000000000 PUSH28 0xFFFFFFFFFFFFFFFFFFFFFFFFFFFFFFFFFFFFFFFFFFFFFFFFFFFFFFFF NOT AND DUP3 PUSH28 0xFFFFFFFFFFFFFFFFFFFFFFFFFFFFFFFFFFFFFFFFFFFFFFFFFFFFFFFF NOT AND EQ DUP1 PUSH2 0x839 JUMPI POP PUSH2 0x838 DUP3 PUSH2 0x2970 JUMP JUMPDEST JUMPDEST SWAP1 POP SWAP2 SWAP1 POP JUMP JUMPDEST PUSH1 0x0 PUSH1 0xD DUP1 SLOAD SWAP1 POP SWAP1 POP SWAP1 JUMP JUMPDEST PUSH1 0x0 PUSH1 0xD DUP3 PUSH1 0xFF AND DUP2 SLOAD DUP2 LT PUSH2 0x866 JUMPI PUSH2 0x865 PUSH2 0x3E52 JUMP JUMPDEST JUMPDEST SWAP1 PUSH1 0x0 MSTORE PUSH1 0x20 PUSH1 0x0 KECCAK256 SWAP1 PUSH1 0x5 MUL ADD SWAP1 POP DUP1 PUSH1 0x4 ADD SLOAD TIMESTAMP GT PUSH2 0x887 JUMPI POP PUSH2 0xA37 JUMP JUMPDEST PUSH1 0x0 DUP2 PUSH1 0x2 ADD SLOAD SWAP1 POP PUSH1 0x0 DUP2 SUB PUSH2 0x926 JUMPI TIMESTAMP DUP3 PUSH1 0x4 ADD DUP2 SWAP1 SSTORE POP PUSH1 0xE PUSH1 0x0 DUP5 PUSH1 0xFF AND DUP2 MSTORE PUSH1 0x20 ADD SWAP1 DUP2 MSTORE PUSH1 0x20 ADD PUSH1 0x0 KECCAK256 PUSH1 0x40 MLOAD DUP1 PUSH1 0x60 ADD PUSH1 0x40 MSTORE DUP1 DUP4 DUP2 MSTORE PUSH1 0x20 ADD DUP5 PUSH1 0x3 ADD SLOAD DUP2 MSTORE PUSH1 0x20 ADD TIMESTAMP DUP2 MSTORE POP SWAP1 DUP1 PUSH1 0x1 DUP2 SLOAD ADD DUP1 DUP3 SSTORE DUP1 SWAP2 POP POP PUSH1 0x1 SWAP1 SUB SWAP1 PUSH1 0x0 MSTORE PUSH1 0x20 PUSH1 0x0 KECCAK256 SWAP1 PUSH1 0x3 MUL ADD PUSH1 0x0 SWAP1 SWAP2 SWAP1 SWAP2 SWAP1 SWAP2 POP PUSH1 0x0 DUP3 ADD MLOAD DUP2 PUSH1 0x0 ADD SSTORE PUSH1 0x20 DUP3 ADD MLOAD DUP2 PUSH1 0x1 ADD SSTORE PUSH1 0x40 DUP3 ADD MLOAD DUP2 PUSH1 0x2 ADD SSTORE POP POP POP POP PUSH2 0xA37 JUMP JUMPDEST PUSH1 0x0 DUP3 PUSH1 0x4 ADD SLOAD TIMESTAMP PUSH2 0x938 SWAP2 SWAP1 PUSH2 0x3EB0 JUMP JUMPDEST SWAP1 POP PUSH1 0x0 PUSH1 0xB SLOAD DUP5 PUSH1 0x1 ADD SLOAD PUSH1 0x9 SLOAD DUP5 PUSH2 0x952 SWAP2 SWAP1 PUSH2 0x3EE4 JUMP JUMPDEST PUSH2 0x95C SWAP2 SWAP1 PUSH2 0x3EE4 JUMP JUMPDEST PUSH2 0x966 SWAP2 SWAP1 PUSH2 0x3F55 JUMP JUMPDEST SWAP1 POP DUP3 PUSH5 0xE8D4A51000 DUP3 PUSH2 0x97A SWAP2 SWAP1 PUSH2 0x3EE4 JUMP JUMPDEST PUSH2 0x984 SWAP2 SWAP1 PUSH2 0x3F55 JUMP JUMPDEST DUP5 PUSH1 0x3 ADD PUSH1 0x0 DUP3 DUP3 SLOAD PUSH2 0x997 SWAP2 SWAP1 PUSH2 0x3F86 JUMP JUMPDEST SWAP3 POP POP DUP2 SWAP1 SSTORE POP TIMESTAMP DUP5 PUSH1 0x4 ADD DUP2 SWAP1 SSTORE POP PUSH2 0x9AF PUSH2 0x3599 JUMP JUMPDEST DUP4 DUP2 PUSH1 0x0 ADD DUP2 DUP2 MSTORE POP POP DUP5 PUSH1 0x3 ADD SLOAD DUP2 PUSH1 0x20 ADD DUP2 DUP2 MSTORE POP POP TIMESTAMP DUP2 PUSH1 0x40 ADD DUP2 DUP2 MSTORE POP POP PUSH1 0xE PUSH1 0x0 DUP8 PUSH1 0xFF AND DUP2 MSTORE PUSH1 0x20 ADD SWAP1 DUP2 MSTORE PUSH1 0x20 ADD PUSH1 0x0 KECCAK256 DUP2 SWAP1 DUP1 PUSH1 0x1 DUP2 SLOAD ADD DUP1 DUP3 SSTORE DUP1 SWAP2 POP POP PUSH1 0x1 SWAP1 SUB SWAP1 PUSH1 0x0 MSTORE PUSH1 0x20 PUSH1 0x0 KECCAK256 SWAP1 PUSH1 0x3 MUL ADD PUSH1 0x0 SWAP1 SWAP2 SWAP1 SWAP2 SWAP1 SWAP2 POP PUSH1 0x0 DUP3 ADD MLOAD DUP2 PUSH1 0x0 ADD SSTORE PUSH1 0x20 DUP3 ADD MLOAD DUP2 PUSH1 0x1 ADD SSTORE PUSH1 0x40 DUP3 ADD MLOAD DUP2 PUSH1 0x2 ADD SSTORE POP POP POP POP POP POP POP JUMPDEST POP JUMP JUMPDEST PUSH1 0x0 DUP3 GT PUSH2 0xA7D JUMPI PUSH1 0x40 MLOAD PUSH32 0x8C379A000000000000000000000000000000000000000000000000000000000 DUP2 MSTORE PUSH1 0x4 ADD PUSH2 0xA74 SWAP1 PUSH2 0x4017 JUMP JUMPDEST PUSH1 0x40 MLOAD DUP1 SWAP2 SUB SWAP1 REVERT JUMPDEST PUSH1 0x2 DUP2 PUSH1 0xFF AND GT ISZERO PUSH2 0xAC4 JUMPI PUSH1 0x40 MLOAD PUSH32 0x8C379A000000000000000000000000000000000000000000000000000000000 DUP2 MSTORE PUSH1 0x4 ADD PUSH2 0xABB SWAP1 PUSH2 0x4083 JUMP JUMPDEST PUSH1 0x40 MLOAD DUP1 SWAP2 SUB SWAP1 REVERT JUMPDEST PUSH1 0x0 PUSH2 0x3E8 PUSH1 0x5 SLOAD DUP5 PUSH2 0xAD7 SWAP2 SWAP1 PUSH2 0x3EE4 JUMP JUMPDEST PUSH2 0xAE1 SWAP2 SWAP1 PUSH2 0x3F55 JUMP JUMPDEST SWAP1 POP PUSH1 0x0 DUP2 DUP5 PUSH2 0xAF1 SWAP2 SWAP1 PUSH2 0x3EB0 JUMP JUMPDEST SWAP1 POP PUSH2 0xB4A PUSH1 0x1 PUSH1 0x0 SWAP1 SLOAD SWAP1 PUSH2 0x100 EXP SWAP1 DIV PUSH20 0xFFFFFFFFFFFFFFFFFFFFFFFFFFFFFFFFFFFFFFFF AND PUSH2 0xB21 PUSH2 0x29DA JUMP JUMPDEST PUSH1 0x4 PUSH1 0x0 SWAP1 SLOAD SWAP1 PUSH2 0x100 EXP SWAP1 DIV PUSH20 0xFFFFFFFFFFFFFFFFFFFFFFFFFFFFFFFFFFFFFFFF AND DUP6 PUSH2 0x29E2 JUMP JUMPDEST PUSH1 0x1 PUSH1 0x0 SWAP1 SLOAD SWAP1 PUSH2 0x100 EXP SWAP1 DIV PUSH20 0xFFFFFFFFFFFFFFFFFFFFFFFFFFFFFFFFFFFFFFFF AND PUSH20 0xFFFFFFFFFFFFFFFFFFFFFFFFFFFFFFFFFFFFFFFF AND PUSH4 0x79CC6790 PUSH2 0xB90 PUSH2 0x29DA JUMP JUMPDEST DUP4 PUSH1 0x40 MLOAD DUP4 PUSH4 0xFFFFFFFF AND PUSH1 0xE0 SHL DUP2 MSTORE PUSH1 0x4 ADD PUSH2 0xBAE SWAP3 SWAP2 SWAP1 PUSH2 0x40A3 JUMP JUMPDEST PUSH1 0x20 PUSH1 0x40 MLOAD DUP1 DUP4 SUB DUP2 PUSH1 0x0 DUP8 GAS CALL ISZERO DUP1 ISZERO PUSH2 0xBCD JUMPI RETURNDATASIZE PUSH1 0x0 DUP1 RETURNDATACOPY RETURNDATASIZE PUSH1 0x0 REVERT JUMPDEST POP POP POP POP PUSH1 0x40 MLOAD RETURNDATASIZE PUSH1 0x1F NOT PUSH1 0x1F DUP3 ADD AND DUP3 ADD DUP1 PUSH1 0x40 MSTORE POP DUP2 ADD SWAP1 PUSH2 0xBF1 SWAP2 SWAP1 PUSH2 0x40F8 JUMP JUMPDEST POP PUSH1 0x3 PUSH1 0x0 SWAP1 SLOAD SWAP1 PUSH2 0x100 EXP SWAP1 DIV PUSH20 0xFFFFFFFFFFFFFFFFFFFFFFFFFFFFFFFFFFFFFFFF AND PUSH20 0xFFFFFFFFFFFFFFFFFFFFFFFFFFFFFFFFFFFFFFFF AND PUSH4 0x40C10F19 ADDRESS DUP4 PUSH1 0x40 MLOAD DUP4 PUSH4 0xFFFFFFFF AND PUSH1 0xE0 SHL DUP2 MSTORE PUSH1 0x4 ADD PUSH2 0xC4F SWAP3 SWAP2 SWAP1 PUSH2 0x40A3 JUMP JUMPDEST PUSH1 0x20 PUSH1 0x40 MLOAD DUP1 DUP4 SUB DUP2 PUSH1 0x0 DUP8 GAS CALL ISZERO DUP1 ISZERO PUSH2 0xC6E JUMPI RETURNDATASIZE PUSH1 0x0 DUP1 RETURNDATACOPY RETURNDATASIZE PUSH1 0x0 REVERT JUMPDEST POP POP POP POP PUSH1 0x40 MLOAD RETURNDATASIZE PUSH1 0x1F NOT PUSH1 0x1F DUP3 ADD AND DUP3 ADD DUP1 PUSH1 0x40 MSTORE POP DUP2 ADD SWAP1 PUSH2 0xC92 SWAP2 SWAP1 PUSH2 0x40F8 JUMP JUMPDEST POP PUSH1 0x0 PUSH1 0xD DUP5 PUSH1 0xFF AND DUP2 SLOAD DUP2 LT PUSH2 0xCAC JUMPI PUSH2 0xCAB PUSH2 0x3E52 JUMP JUMPDEST JUMPDEST SWAP1 PUSH1 0x0 MSTORE PUSH1 0x20 PUSH1 0x0 KECCAK256 SWAP1 PUSH1 0x5 MUL ADD SWAP1 POP PUSH2 0xCC5 DUP5 PUSH2 0x84D JUMP JUMPDEST DUP2 DUP2 PUSH1 0x2 ADD PUSH1 0x0 DUP3 DUP3 SLOAD PUSH2 0xCD9 SWAP2 SWAP1 PUSH2 0x3F86 JUMP JUMPDEST SWAP3 POP POP DUP2 SWAP1 SSTORE POP PUSH2 0xCE8 PUSH2 0x35BA JUMP JUMPDEST PUSH1 0x10 PUSH1 0x0 PUSH2 0xCF4 PUSH2 0x29DA JUMP JUMPDEST PUSH20 0xFFFFFFFFFFFFFFFFFFFFFFFFFFFFFFFFFFFFFFFF AND PUSH20 0xFFFFFFFFFFFFFFFFFFFFFFFFFFFFFFFFFFFFFFFF AND DUP2 MSTORE PUSH1 0x20 ADD SWAP1 DUP2 MSTORE PUSH1 0x20 ADD PUSH1 0x0 KECCAK256 SLOAD DUP2 PUSH1 0x0 ADD DUP2 DUP2 MSTORE POP POP PUSH1 0x1 DUP2 PUSH1 0x20 ADD SWAP1 ISZERO ISZERO SWAP1 DUP2 ISZERO ISZERO DUP2 MSTORE POP POP DUP3 DUP2 PUSH1 0x40 ADD DUP2 DUP2 MSTORE POP POP DUP5 DUP2 PUSH1 0x60 ADD SWAP1 PUSH1 0xFF AND SWAP1 DUP2 PUSH1 0xFF AND DUP2 MSTORE POP POP TIMESTAMP DUP2 PUSH1 0x80 ADD DUP2 DUP2 MSTORE POP POP PUSH1 0x8 DUP6 PUSH1 0xFF AND DUP2 SLOAD DUP2 LT PUSH2 0xD86 JUMPI PUSH2 0xD85 PUSH2 0x3E52 JUMP JUMPDEST JUMPDEST SWAP1 PUSH1 0x0 MSTORE PUSH1 0x20 PUSH1 0x0 KECCAK256 ADD SLOAD TIMESTAMP PUSH2 0xD9C SWAP2 SWAP1 PUSH2 0x3F86 JUMP JUMPDEST DUP2 PUSH1 0xA0 ADD DUP2 DUP2 MSTORE POP POP TIMESTAMP DUP2 PUSH1 0xC0 ADD DUP2 DUP2 MSTORE POP POP PUSH5 0xE8D4A51000 DUP3 PUSH1 0x3 ADD SLOAD DUP5 PUSH2 0xDC5 SWAP2 SWAP1 PUSH2 0x3EE4 JUMP JUMPDEST PUSH2 0xDCF SWAP2 SWAP1 PUSH2 0x3F55 JUMP JUMPDEST DUP2 PUSH1 0xE0 ADD DUP2 DUP2 MSTORE POP POP DUP1 PUSH1 0xF PUSH1 0x0 PUSH2 0xDE5 PUSH2 0x29DA JUMP JUMPDEST PUSH20 0xFFFFFFFFFFFFFFFFFFFFFFFFFFFFFFFFFFFFFFFF AND PUSH20 0xFFFFFFFFFFFFFFFFFFFFFFFFFFFFFFFFFFFFFFFF AND DUP2 MSTORE PUSH1 0x20 ADD SWAP1 DUP2 MSTORE PUSH1 0x20 ADD PUSH1 0x0 KECCAK256 PUSH1 0x0 DUP4 PUSH1 0x0 ADD MLOAD DUP2 MSTORE PUSH1 0x20 ADD SWAP1 DUP2 MSTORE PUSH1 0x20 ADD PUSH1 0x0 KECCAK256 PUSH1 0x0 DUP3 ADD MLOAD DUP2 PUSH1 0x0 ADD SSTORE PUSH1 0x20 DUP3 ADD MLOAD DUP2 PUSH1 0x1 ADD PUSH1 0x0 PUSH2 0x100 EXP DUP2 SLOAD DUP2 PUSH1 0xFF MUL NOT AND SWAP1 DUP4 ISZERO ISZERO MUL OR SWAP1 SSTORE POP PUSH1 0x40 DUP3 ADD MLOAD DUP2 PUSH1 0x2 ADD SSTORE PUSH1 0x60 DUP3 ADD MLOAD DUP2 PUSH1 0x3 ADD PUSH1 0x0 PUSH2 0x100 EXP DUP2 SLOAD DUP2 PUSH1 0xFF MUL NOT AND SWAP1 DUP4 PUSH1 0xFF AND MUL OR SWAP1 SSTORE POP PUSH1 0x80 DUP3 ADD MLOAD DUP2 PUSH1 0x4 ADD SSTORE PUSH1 0xA0 DUP3 ADD MLOAD DUP2 PUSH1 0x5 ADD SSTORE PUSH1 0xC0 DUP3 ADD MLOAD DUP2 PUSH1 0x6 ADD SSTORE PUSH1 0xE0 DUP3 ADD MLOAD DUP2 PUSH1 0x7 ADD SSTORE SWAP1 POP POP PUSH1 0x10 PUSH1 0x0 PUSH2 0xEC0 PUSH2 0x29DA JUMP JUMPDEST PUSH20 0xFFFFFFFFFFFFFFFFFFFFFFFFFFFFFFFFFFFFFFFF AND PUSH20 0xFFFFFFFFFFFFFFFFFFFFFFFFFFFFFFFFFFFFFFFF AND DUP2 MSTORE PUSH1 0x20 ADD SWAP1 DUP2 MSTORE PUSH1 0x20 ADD PUSH1 0x0 KECCAK256 PUSH1 0x0 DUP2 SLOAD DUP1 SWAP3 SWAP2 SWAP1 PUSH2 0xF0B SWAP1 PUSH2 0x4125 JUMP JUMPDEST SWAP2 SWAP1 POP SSTORE POP PUSH2 0xF18 PUSH2 0x29DA JUMP JUMPDEST PUSH20 0xFFFFFFFFFFFFFFFFFFFFFFFFFFFFFFFFFFFFFFFF AND PUSH32 0xCD30E159CD688EE20190B1A408DF7D64E218DAAF9F4EC9A04E79E195D91C08D9 DUP3 PUSH1 0x0 ADD MLOAD DUP4 PUSH1 0x40 ADD MLOAD DUP5 PUSH1 0x60 ADD MLOAD DUP6 PUSH1 0x80 ADD MLOAD DUP7 PUSH1 0xA0 ADD MLOAD PUSH1 0x40 MLOAD PUSH2 0xF79 SWAP6 SWAP5 SWAP4 SWAP3 SWAP2 SWAP1 PUSH2 0x416D JUMP JUMPDEST PUSH1 0x40 MLOAD DUP1 SWAP2 SUB SWAP1 LOG2 POP POP POP POP POP POP JUMP JUMPDEST PUSH1 0xD DUP2 DUP2 SLOAD DUP2 LT PUSH2 0xF99 JUMPI PUSH1 0x0 DUP1 REVERT JUMPDEST SWAP1 PUSH1 0x0 MSTORE PUSH1 0x20 PUSH1 0x0 KECCAK256 SWAP1 PUSH1 0x5 MUL ADD PUSH1 0x0 SWAP2 POP SWAP1 POP DUP1 PUSH1 0x0 ADD PUSH1 0x0 SWAP1 SLOAD SWAP1 PUSH2 0x100 EXP SWAP1 DIV PUSH1 0xFF AND SWAP1 DUP1 PUSH1 0x1 ADD SLOAD SWAP1 DUP1 PUSH1 0x2 ADD SLOAD SWAP1 DUP1 PUSH1 0x3 ADD SLOAD SWAP1 DUP1 PUSH1 0x4 ADD SLOAD SWAP1 POP DUP6 JUMP JUMPDEST PUSH1 0xB SLOAD DUP2 JUMP JUMPDEST PUSH1 0x2 PUSH1 0x0 SWAP1 SLOAD SWAP1 PUSH2 0x100 EXP SWAP1 DIV PUSH20 0xFFFFFFFFFFFFFFFFFFFFFFFFFFFFFFFFFFFFFFFF AND DUP2 JUMP JUMPDEST PUSH1 0x0 DUP1 PUSH1 0x0 DUP4 DUP2 MSTORE PUSH1 0x20 ADD SWAP1 DUP2 MSTORE PUSH1 0x20 ADD PUSH1 0x0 KECCAK256 PUSH1 0x1 ADD SLOAD SWAP1 POP SWAP2 SWAP1 POP JUMP JUMPDEST PUSH1 0x1 PUSH1 0x0 SWAP1 SLOAD SWAP1 PUSH2 0x100 EXP SWAP1 DIV PUSH20 0xFFFFFFFFFFFFFFFFFFFFFFFFFFFFFFFFFFFFFFFF AND DUP2 JUMP JUMPDEST PUSH1 0x0 DUP1 PUSH1 0x0 JUMPDEST PUSH1 0x10 PUSH1 0x0 DUP6 PUSH20 0xFFFFFFFFFFFFFFFFFFFFFFFFFFFFFFFFFFFFFFFF AND PUSH20 0xFFFFFFFFFFFFFFFFFFFFFFFFFFFFFFFFFFFFFFFF AND DUP2 MSTORE PUSH1 0x20 ADD SWAP1 DUP2 MSTORE PUSH1 0x20 ADD PUSH1 0x0 KECCAK256 SLOAD DUP2 LT ISZERO PUSH2 0x10C4 JUMPI PUSH2 0x10A4 DUP5 DUP3 PUSH2 0x1343 JUMP JUMPDEST DUP3 PUSH2 0x10AF SWAP2 SWAP1 PUSH2 0x3F86 JUMP JUMPDEST SWAP2 POP DUP1 DUP1 PUSH2 0x10BC SWAP1 PUSH2 0x4125 JUMP JUMPDEST SWAP2 POP POP PUSH2 0x1053 JUMP JUMPDEST POP DUP1 SWAP2 POP POP SWAP2 SWAP1 POP JUMP JUMPDEST PUSH1 0x3 PUSH1 0x0 SWAP1 SLOAD SWAP1 PUSH2 0x100 EXP SWAP1 DIV PUSH20 0xFFFFFFFFFFFFFFFFFFFFFFFFFFFFFFFFFFFFFFFF AND DUP2 JUMP JUMPDEST PUSH1 0x4 PUSH1 0x0 SWAP1 SLOAD SWAP1 PUSH2 0x100 EXP SWAP1 DIV PUSH20 0xFFFFFFFFFFFFFFFFFFFFFFFFFFFFFFFFFFFFFFFF AND DUP2 JUMP JUMPDEST PUSH2 0x1123 DUP3 PUSH2 0x1008 JUMP JUMPDEST PUSH2 0x112C DUP2 PUSH2 0x2A6B JUMP JUMPDEST PUSH2 0x1136 DUP4 DUP4 PUSH2 0x2A7F JUMP JUMPDEST POP POP POP JUMP JUMPDEST PUSH1 0xE PUSH1 0x20 MSTORE DUP2 PUSH1 0x0 MSTORE PUSH1 0x40 PUSH1 0x0 KECCAK256 DUP2 DUP2 SLOAD DUP2 LT PUSH2 0x1157 JUMPI PUSH1 0x0 DUP1 REVERT JUMPDEST SWAP1 PUSH1 0x0 MSTORE PUSH1 0x20 PUSH1 0x0 KECCAK256 SWAP1 PUSH1 0x3 MUL ADD PUSH1 0x0 SWAP2 POP SWAP2 POP POP DUP1 PUSH1 0x0 ADD SLOAD SWAP1 DUP1 PUSH1 0x1 ADD SLOAD SWAP1 DUP1 PUSH1 0x2 ADD SLOAD SWAP1 POP DUP4 JUMP JUMPDEST PUSH2 0x118A PUSH2 0x29DA JUMP JUMPDEST PUSH20 0xFFFFFFFFFFFFFFFFFFFFFFFFFFFFFFFFFFFFFFFF AND DUP2 PUSH20 0xFFFFFFFFFFFFFFFFFFFFFFFFFFFFFFFFFFFFFFFF AND EQ PUSH2 0x11F7 JUMPI PUSH1 0x40 MLOAD PUSH32 0x8C379A000000000000000000000000000000000000000000000000000000000 DUP2 MSTORE PUSH1 0x4 ADD PUSH2 0x11EE SWAP1 PUSH2 0x4232 JUMP JUMPDEST PUSH1 0x40 MLOAD DUP1 SWAP2 SUB SWAP1 REVERT JUMPDEST PUSH2 0x1201 DUP3 DUP3 PUSH2 0x2B5F JUMP JUMPDEST POP POP JUMP JUMPDEST PUSH1 0x9 SLOAD DUP2 JUMP JUMPDEST PUSH1 0x8 DUP2 DUP2 SLOAD DUP2 LT PUSH2 0x121B JUMPI PUSH1 0x0 DUP1 REVERT JUMPDEST SWAP1 PUSH1 0x0 MSTORE PUSH1 0x20 PUSH1 0x0 KECCAK256 ADD PUSH1 0x0 SWAP2 POP SWAP1 POP SLOAD DUP2 JUMP JUMPDEST PUSH32 0x0 DUP2 JUMP JUMPDEST PUSH1 0x0 DUP1 PUSH1 0x0 JUMPDEST PUSH1 0x10 PUSH1 0x0 DUP7 PUSH20 0xFFFFFFFFFFFFFFFFFFFFFFFFFFFFFFFFFFFFFFFF AND PUSH20 0xFFFFFFFFFFFFFFFFFFFFFFFFFFFFFFFFFFFFFFFF AND DUP2 MSTORE PUSH1 0x20 ADD SWAP1 DUP2 MSTORE PUSH1 0x20 ADD PUSH1 0x0 KECCAK256 SLOAD DUP2 LT ISZERO PUSH2 0x1338 JUMPI DUP4 PUSH1 0xFF AND PUSH1 0xF PUSH1 0x0 DUP8 PUSH20 0xFFFFFFFFFFFFFFFFFFFFFFFFFFFFFFFFFFFFFFFF AND PUSH20 0xFFFFFFFFFFFFFFFFFFFFFFFFFFFFFFFFFFFFFFFF AND DUP2 MSTORE PUSH1 0x20 ADD SWAP1 DUP2 MSTORE PUSH1 0x20 ADD PUSH1 0x0 KECCAK256 PUSH1 0x0 DUP4 DUP2 MSTORE PUSH1 0x20 ADD SWAP1 DUP2 MSTORE PUSH1 0x20 ADD PUSH1 0x0 KECCAK256 PUSH1 0x3 ADD PUSH1 0x0 SWAP1 SLOAD SWAP1 PUSH2 0x100 EXP SWAP1 DIV PUSH1 0xFF AND PUSH1 0xFF AND SUB PUSH2 0x1325 JUMPI PUSH2 0x1317 DUP6 DUP3 PUSH2 0x1532 JUMP JUMPDEST DUP3 PUSH2 0x1322 SWAP2 SWAP1 PUSH2 0x3F86 JUMP JUMPDEST SWAP2 POP JUMPDEST DUP1 DUP1 PUSH2 0x1330 SWAP1 PUSH2 0x4125 JUMP JUMPDEST SWAP2 POP POP PUSH2 0x1259 JUMP JUMPDEST POP DUP1 SWAP2 POP POP SWAP3 SWAP2 POP POP JUMP JUMPDEST PUSH1 0x0 DUP1 PUSH1 0x0 PUSH1 0xF PUSH1 0x0 DUP7 PUSH20 0xFFFFFFFFFFFFFFFFFFFFFFFFFFFFFFFFFFFFFFFF AND PUSH20 0xFFFFFFFFFFFFFFFFFFFFFFFFFFFFFFFFFFFFFFFF AND DUP2 MSTORE PUSH1 0x20 ADD SWAP1 DUP2 MSTORE PUSH1 0x20 ADD PUSH1 0x0 KECCAK256 PUSH1 0x0 DUP6 DUP2 MSTORE PUSH1 0x20 ADD SWAP1 DUP2 MSTORE PUSH1 0x20 ADD PUSH1 0x0 KECCAK256 PUSH1 0x40 MLOAD DUP1 PUSH2 0x100 ADD PUSH1 0x40 MSTORE SWAP1 DUP2 PUSH1 0x0 DUP3 ADD SLOAD DUP2 MSTORE PUSH1 0x20 ADD PUSH1 0x1 DUP3 ADD PUSH1 0x0 SWAP1 SLOAD SWAP1 PUSH2 0x100 EXP SWAP1 DIV PUSH1 0xFF AND ISZERO ISZERO ISZERO ISZERO DUP2 MSTORE PUSH1 0x20 ADD PUSH1 0x2 DUP3 ADD SLOAD DUP2 MSTORE PUSH1 0x20 ADD PUSH1 0x3 DUP3 ADD PUSH1 0x0 SWAP1 SLOAD SWAP1 PUSH2 0x100 EXP SWAP1 DIV PUSH1 0xFF AND PUSH1 0xFF AND PUSH1 0xFF AND DUP2 MSTORE PUSH1 0x20 ADD PUSH1 0x4 DUP3 ADD SLOAD DUP2 MSTORE PUSH1 0x20 ADD PUSH1 0x5 DUP3 ADD SLOAD DUP2 MSTORE PUSH1 0x20 ADD PUSH1 0x6 DUP3 ADD SLOAD DUP2 MSTORE PUSH1 0x20 ADD PUSH1 0x7 DUP3 ADD SLOAD DUP2 MSTORE POP POP SWAP1 POP DUP1 PUSH1 0x20 ADD MLOAD ISZERO PUSH2 0x14EB JUMPI PUSH1 0x0 DUP2 PUSH1 0xA0 ADD MLOAD TIMESTAMP GT PUSH2 0x1437 JUMPI TIMESTAMP PUSH2 0x143D JUMP JUMPDEST DUP2 PUSH1 0xA0 ADD MLOAD JUMPDEST SWAP1 POP PUSH1 0x0 PUSH1 0x3C PUSH16 0xFFFFFFFFFFFFFFFFFFFFFFFFFFFFFFFF AND DUP4 PUSH1 0xC0 ADD MLOAD DUP4 PUSH2 0x1465 SWAP2 SWAP1 PUSH2 0x3EB0 JUMP JUMPDEST PUSH2 0x146F SWAP2 SWAP1 PUSH2 0x3F55 JUMP JUMPDEST SWAP1 POP PUSH1 0x0 DUP2 GT ISZERO PUSH2 0x14E8 JUMPI PUSH1 0x0 PUSH1 0x6 DUP5 PUSH1 0x60 ADD MLOAD PUSH1 0xFF AND DUP2 SLOAD DUP2 LT PUSH2 0x1497 JUMPI PUSH2 0x1496 PUSH2 0x3E52 JUMP JUMPDEST JUMPDEST SWAP1 PUSH1 0x0 MSTORE PUSH1 0x20 PUSH1 0x0 KECCAK256 ADD SLOAD SWAP1 POP PUSH1 0x0 PUSH8 0xDE0B6B3A7640000 PUSH1 0x64 DUP4 DUP8 PUSH1 0x40 ADD MLOAD PUSH2 0x14C1 SWAP2 SWAP1 PUSH2 0x3EE4 JUMP JUMPDEST PUSH2 0x14CB SWAP2 SWAP1 PUSH2 0x3F55 JUMP JUMPDEST PUSH2 0x14D5 SWAP2 SWAP1 PUSH2 0x3F55 JUMP JUMPDEST SWAP1 POP DUP3 DUP2 PUSH2 0x14E3 SWAP2 SWAP1 PUSH2 0x3EE4 JUMP JUMPDEST SWAP6 POP POP POP JUMPDEST POP POP JUMPDEST DUP2 SWAP3 POP POP POP SWAP3 SWAP2 POP POP JUMP JUMPDEST PUSH1 0x0 PUSH1 0xD DUP1 SLOAD SWAP1 POP SWAP1 POP PUSH1 0x0 JUMPDEST DUP2 DUP2 PUSH1 0xFF AND LT ISZERO PUSH2 0x1528 JUMPI PUSH2 0x1517 DUP2 PUSH2 0x84D JUMP JUMPDEST DUP1 PUSH2 0x1521 SWAP1 PUSH2 0x4252 JUMP JUMPDEST SWAP1 POP PUSH2 0x1503 JUMP JUMPDEST POP POP JUMP JUMPDEST PUSH1 0x5 SLOAD DUP2 JUMP JUMPDEST PUSH1 0x0 DUP1 PUSH1 0x0 PUSH1 0xF PUSH1 0x0 DUP7 PUSH20 0xFFFFFFFFFFFFFFFFFFFFFFFFFFFFFFFFFFFFFFFF AND PUSH20 0xFFFFFFFFFFFFFFFFFFFFFFFFFFFFFFFFFFFFFFFF AND DUP2 MSTORE PUSH1 0x20 ADD SWAP1 DUP2 MSTORE PUSH1 0x20 ADD PUSH1 0x0 KECCAK256 PUSH1 0x0 DUP6 DUP2 MSTORE PUSH1 0x20 ADD SWAP1 DUP2 MSTORE PUSH1 0x20 ADD PUSH1 0x0 KECCAK256 PUSH1 0x40 MLOAD DUP1 PUSH2 0x100 ADD PUSH1 0x40 MSTORE SWAP1 DUP2 PUSH1 0x0 DUP3 ADD SLOAD DUP2 MSTORE PUSH1 0x20 ADD PUSH1 0x1 DUP3 ADD PUSH1 0x0 SWAP1 SLOAD SWAP1 PUSH2 0x100 EXP SWAP1 DIV PUSH1 0xFF AND ISZERO ISZERO ISZERO ISZERO DUP2 MSTORE PUSH1 0x20 ADD PUSH1 0x2 DUP3 ADD SLOAD DUP2 MSTORE PUSH1 0x20 ADD PUSH1 0x3 DUP3 ADD PUSH1 0x0 SWAP1 SLOAD SWAP1 PUSH2 0x100 EXP SWAP1 DIV PUSH1 0xFF AND PUSH1 0xFF AND PUSH1 0xFF AND DUP2 MSTORE PUSH1 0x20 ADD PUSH1 0x4 DUP3 ADD SLOAD DUP2 MSTORE PUSH1 0x20 ADD PUSH1 0x5 DUP3 ADD SLOAD DUP2 MSTORE PUSH1 0x20 ADD PUSH1 0x6 DUP3 ADD SLOAD DUP2 MSTORE PUSH1 0x20 ADD PUSH1 0x7 DUP3 ADD SLOAD DUP2 MSTORE POP POP SWAP1 POP PUSH1 0x0 PUSH1 0xD DUP3 PUSH1 0x60 ADD MLOAD PUSH1 0xFF AND DUP2 SLOAD DUP2 LT PUSH2 0x1626 JUMPI PUSH2 0x1625 PUSH2 0x3E52 JUMP JUMPDEST JUMPDEST SWAP1 PUSH1 0x0 MSTORE PUSH1 0x20 PUSH1 0x0 KECCAK256 SWAP1 PUSH1 0x5 MUL ADD PUSH1 0x40 MLOAD DUP1 PUSH1 0xA0 ADD PUSH1 0x40 MSTORE SWAP1 DUP2 PUSH1 0x0 DUP3 ADD PUSH1 0x0 SWAP1 SLOAD SWAP1 PUSH2 0x100 EXP SWAP1 DIV PUSH1 0xFF AND PUSH1 0xFF AND PUSH1 0xFF AND DUP2 MSTORE PUSH1 0x20 ADD PUSH1 0x1 DUP3 ADD SLOAD DUP2 MSTORE PUSH1 0x20 ADD PUSH1 0x2 DUP3 ADD SLOAD DUP2 MSTORE PUSH1 0x20 ADD PUSH1 0x3 DUP3 ADD SLOAD DUP2 MSTORE PUSH1 0x20 ADD PUSH1 0x4 DUP3 ADD SLOAD DUP2 MSTORE POP POP SWAP1 POP DUP2 PUSH1 0x20 ADD MLOAD ISZERO PUSH2 0x17C1 JUMPI DUP2 PUSH1 0xA0 ADD MLOAD TIMESTAMP LT PUSH2 0x16D5 JUMPI PUSH1 0x0 PUSH2 0x16A7 DUP8 DUP8 PUSH2 0x2C40 JUMP JUMPDEST SWAP1 POP DUP1 PUSH1 0x0 ADD MLOAD DUP3 PUSH1 0x40 ADD DUP2 DUP2 MSTORE POP POP DUP1 PUSH1 0x20 ADD MLOAD DUP3 PUSH1 0x60 ADD DUP2 DUP2 MSTORE POP POP DUP1 PUSH1 0x40 ADD MLOAD DUP3 PUSH1 0x80 ADD DUP2 DUP2 MSTORE POP POP POP JUMPDEST DUP1 PUSH1 0x80 ADD MLOAD TIMESTAMP GT DUP1 ISZERO PUSH2 0x16ED JUMPI POP PUSH1 0x0 DUP2 PUSH1 0x40 ADD MLOAD EQ ISZERO JUMPDEST ISZERO PUSH2 0x178B JUMPI PUSH1 0x0 DUP3 PUSH1 0xA0 ADD MLOAD TIMESTAMP GT PUSH2 0x1705 JUMPI TIMESTAMP PUSH2 0x170B JUMP JUMPDEST DUP3 PUSH1 0xA0 ADD MLOAD JUMPDEST SWAP1 POP PUSH1 0x0 DUP3 PUSH1 0x80 ADD MLOAD DUP3 PUSH2 0x171F SWAP2 SWAP1 PUSH2 0x3EB0 JUMP JUMPDEST SWAP1 POP PUSH1 0x0 PUSH1 0xB SLOAD DUP5 PUSH1 0x20 ADD MLOAD PUSH1 0x9 SLOAD DUP5 PUSH2 0x1739 SWAP2 SWAP1 PUSH2 0x3EE4 JUMP JUMPDEST PUSH2 0x1743 SWAP2 SWAP1 PUSH2 0x3EE4 JUMP JUMPDEST PUSH2 0x174D SWAP2 SWAP1 PUSH2 0x3F55 JUMP JUMPDEST SWAP1 POP DUP4 PUSH1 0x40 ADD MLOAD PUSH5 0xE8D4A51000 DUP3 PUSH2 0x1765 SWAP2 SWAP1 PUSH2 0x3EE4 JUMP JUMPDEST PUSH2 0x176F SWAP2 SWAP1 PUSH2 0x3F55 JUMP JUMPDEST DUP5 PUSH1 0x60 ADD DUP2 DUP2 MLOAD PUSH2 0x1780 SWAP2 SWAP1 PUSH2 0x3F86 JUMP JUMPDEST SWAP2 POP DUP2 DUP2 MSTORE POP POP POP POP POP JUMPDEST DUP2 PUSH1 0xE0 ADD MLOAD PUSH5 0xE8D4A51000 DUP3 PUSH1 0x60 ADD MLOAD DUP5 PUSH1 0x40 ADD MLOAD PUSH2 0x17AA SWAP2 SWAP1 PUSH2 0x3EE4 JUMP JUMPDEST PUSH2 0x17B4 SWAP2 SWAP1 PUSH2 0x3F55 JUMP JUMPDEST PUSH2 0x17BE SWAP2 SWAP1 PUSH2 0x3EB0 JUMP JUMPDEST SWAP3 POP JUMPDEST DUP3 SWAP4 POP POP POP POP SWAP3 SWAP2 POP POP JUMP JUMPDEST PUSH1 0xA SLOAD DUP2 JUMP JUMPDEST PUSH1 0x0 PUSH1 0xF PUSH1 0x0 PUSH2 0x17E1 PUSH2 0x29DA JUMP JUMPDEST PUSH20 0xFFFFFFFFFFFFFFFFFFFFFFFFFFFFFFFFFFFFFFFF AND PUSH20 0xFFFFFFFFFFFFFFFFFFFFFFFFFFFFFFFFFFFFFFFF AND DUP2 MSTORE PUSH1 0x20 ADD SWAP1 DUP2 MSTORE PUSH1 0x20 ADD PUSH1 0x0 KECCAK256 PUSH1 0x0 DUP4 DUP2 MSTORE PUSH1 0x20 ADD SWAP1 DUP2 MSTORE PUSH1 0x20 ADD PUSH1 0x0 KECCAK256 SWAP1 POP PUSH1 0x0 PUSH1 0xD DUP3 PUSH1 0x3 ADD PUSH1 0x0 SWAP1 SLOAD SWAP1 PUSH2 0x100 EXP SWAP1 DIV PUSH1 0xFF AND PUSH1 0xFF AND DUP2 SLOAD DUP2 LT PUSH2 0x1858 JUMPI PUSH2 0x1857 PUSH2 0x3E52 JUMP JUMPDEST JUMPDEST SWAP1 PUSH1 0x0 MSTORE PUSH1 0x20 PUSH1 0x0 KECCAK256 SWAP1 PUSH1 0x5 MUL ADD SWAP1 POP DUP2 PUSH1 0x1 ADD PUSH1 0x0 SWAP1 SLOAD SWAP1 PUSH2 0x100 EXP SWAP1 DIV PUSH1 0xFF AND PUSH2 0x18B9 JUMPI PUSH1 0x40 MLOAD PUSH32 0x8C379A000000000000000000000000000000000000000000000000000000000 DUP2 MSTORE PUSH1 0x4 ADD PUSH2 0x18B0 SWAP1 PUSH2 0x42C7 JUMP JUMPDEST PUSH1 0x40 MLOAD DUP1 SWAP2 SUB SWAP1 REVERT JUMPDEST PUSH1 0x0 PUSH2 0x18CC PUSH2 0x18C6 PUSH2 0x29DA JUMP JUMPDEST DUP6 PUSH2 0x1343 JUMP JUMPDEST SWAP1 POP PUSH2 0x18E8 DUP4 PUSH1 0x3 ADD PUSH1 0x0 SWAP1 SLOAD SWAP1 PUSH2 0x100 EXP SWAP1 DIV PUSH1 0xFF AND PUSH2 0x84D JUMP JUMPDEST PUSH1 0x0 PUSH2 0x18FB PUSH2 0x18F5 PUSH2 0x29DA JUMP JUMPDEST DUP7 PUSH2 0x1532 JUMP JUMPDEST SWAP1 POP DUP4 PUSH1 0x5 ADD SLOAD TIMESTAMP LT ISZERO PUSH2 0x1A68 JUMPI PUSH1 0x0 DUP3 GT DUP1 PUSH2 0x1918 JUMPI POP PUSH1 0x0 DUP2 GT JUMPDEST PUSH2 0x1957 JUMPI PUSH1 0x40 MLOAD PUSH32 0x8C379A000000000000000000000000000000000000000000000000000000000 DUP2 MSTORE PUSH1 0x4 ADD PUSH2 0x194E SWAP1 PUSH2 0x4333 JUMP JUMPDEST PUSH1 0x40 MLOAD DUP1 SWAP2 SUB SWAP1 REVERT JUMPDEST PUSH1 0x0 DUP5 PUSH1 0x5 ADD SLOAD TIMESTAMP GT PUSH2 0x196A JUMPI TIMESTAMP PUSH2 0x1970 JUMP JUMPDEST DUP5 PUSH1 0x5 ADD SLOAD JUMPDEST SWAP1 POP PUSH1 0x0 PUSH1 0x3C PUSH16 0xFFFFFFFFFFFFFFFFFFFFFFFFFFFFFFFF AND DUP7 PUSH1 0x6 ADD SLOAD DUP4 PUSH2 0x1998 SWAP2 SWAP1 PUSH2 0x3EB0 JUMP JUMPDEST PUSH2 0x19A2 SWAP2 SWAP1 PUSH2 0x3F55 JUMP JUMPDEST SWAP1 POP PUSH1 0x3C PUSH16 0xFFFFFFFFFFFFFFFFFFFFFFFFFFFFFFFF AND DUP2 PUSH2 0x19C3 SWAP2 SWAP1 PUSH2 0x3EE4 JUMP JUMPDEST DUP7 PUSH1 0x6 ADD SLOAD PUSH2 0x19D2 SWAP2 SWAP1 PUSH2 0x3F86 JUMP JUMPDEST DUP7 PUSH1 0x6 ADD DUP2 SWAP1 SSTORE POP PUSH5 0xE8D4A51000 DUP6 PUSH1 0x3 ADD SLOAD DUP8 PUSH1 0x2 ADD SLOAD PUSH2 0x19F4 SWAP2 SWAP1 PUSH2 0x3EE4 JUMP JUMPDEST PUSH2 0x19FE SWAP2 SWAP1 PUSH2 0x3F55 JUMP JUMPDEST DUP7 PUSH1 0x7 ADD DUP2 SWAP1 SSTORE POP PUSH2 0x1A0E PUSH2 0x29DA JUMP JUMPDEST PUSH20 0xFFFFFFFFFFFFFFFFFFFFFFFFFFFFFFFFFFFFFFFF AND PUSH32 0x634235FCF5AF0ADBCA1A405EC65F6F6C08F55E1F379C2C45CD10F23CB29E0E31 DUP8 PUSH1 0x0 ADD SLOAD DUP7 PUSH1 0x40 MLOAD PUSH2 0x1A59 SWAP3 SWAP2 SWAP1 PUSH2 0x4353 JUMP JUMPDEST PUSH1 0x40 MLOAD DUP1 SWAP2 SUB SWAP1 LOG2 POP POP PUSH2 0x1CE3 JUMP JUMPDEST PUSH1 0x0 DUP5 PUSH1 0x0 ADD SLOAD SWAP1 POP PUSH1 0x0 DUP6 PUSH1 0x2 ADD SLOAD SWAP1 POP PUSH1 0xF PUSH1 0x0 PUSH2 0x1A86 PUSH2 0x29DA JUMP JUMPDEST PUSH20 0xFFFFFFFFFFFFFFFFFFFFFFFFFFFFFFFFFFFFFFFF AND PUSH20 0xFFFFFFFFFFFFFFFFFFFFFFFFFFFFFFFFFFFFFFFF AND DUP2 MSTORE PUSH1 0x20 ADD SWAP1 DUP2 MSTORE PUSH1 0x20 ADD PUSH1 0x0 KECCAK256 PUSH1 0x0 DUP9 DUP2 MSTORE PUSH1 0x20 ADD SWAP1 DUP2 MSTORE PUSH1 0x20 ADD PUSH1 0x0 KECCAK256 PUSH1 0x0 DUP1 DUP3 ADD PUSH1 0x0 SWAP1 SSTORE PUSH1 0x1 DUP3 ADD PUSH1 0x0 PUSH2 0x100 EXP DUP2 SLOAD SWAP1 PUSH1 0xFF MUL NOT AND SWAP1 SSTORE PUSH1 0x2 DUP3 ADD PUSH1 0x0 SWAP1 SSTORE PUSH1 0x3 DUP3 ADD PUSH1 0x0 PUSH2 0x100 EXP DUP2 SLOAD SWAP1 PUSH1 0xFF MUL NOT AND SWAP1 SSTORE PUSH1 0x4 DUP3 ADD PUSH1 0x0 SWAP1 SSTORE PUSH1 0x5 DUP3 ADD PUSH1 0x0 SWAP1 SSTORE PUSH1 0x6 DUP3 ADD PUSH1 0x0 SWAP1 SSTORE PUSH1 0x7 DUP3 ADD PUSH1 0x0 SWAP1 SSTORE POP POP PUSH1 0x3 PUSH1 0x0 SWAP1 SLOAD SWAP1 PUSH2 0x100 EXP SWAP1 DIV PUSH20 0xFFFFFFFFFFFFFFFFFFFFFFFFFFFFFFFFFFFFFFFF AND PUSH20 0xFFFFFFFFFFFFFFFFFFFFFFFFFFFFFFFFFFFFFFFF AND PUSH4 0x42966C68 DUP3 PUSH1 0x40 MLOAD DUP3 PUSH4 0xFFFFFFFF AND PUSH1 0xE0 SHL DUP2 MSTORE PUSH1 0x4 ADD PUSH2 0x1B87 SWAP2 SWAP1 PUSH2 0x3832 JUMP JUMPDEST PUSH1 0x20 PUSH1 0x40 MLOAD DUP1 DUP4 SUB DUP2 PUSH1 0x0 DUP8 GAS CALL ISZERO DUP1 ISZERO PUSH2 0x1BA6 JUMPI RETURNDATASIZE PUSH1 0x0 DUP1 RETURNDATACOPY RETURNDATASIZE PUSH1 0x0 REVERT JUMPDEST POP POP POP POP PUSH1 0x40 MLOAD RETURNDATASIZE PUSH1 0x1F NOT PUSH1 0x1F DUP3 ADD AND DUP3 ADD DUP1 PUSH1 0x40 MSTORE POP DUP2 ADD SWAP1 PUSH2 0x1BCA SWAP2 SWAP1 PUSH2 0x40F8 JUMP JUMPDEST POP DUP1 DUP6 PUSH1 0x2 ADD PUSH1 0x0 DUP3 DUP3 SLOAD PUSH2 0x1BDF SWAP2 SWAP1 PUSH2 0x3EB0 JUMP JUMPDEST SWAP3 POP POP DUP2 SWAP1 SSTORE POP PUSH1 0x0 PUSH1 0x3 PUSH1 0x0 SWAP1 SLOAD SWAP1 PUSH2 0x100 EXP SWAP1 DIV PUSH20 0xFFFFFFFFFFFFFFFFFFFFFFFFFFFFFFFFFFFFFFFF AND PUSH20 0xFFFFFFFFFFFFFFFFFFFFFFFFFFFFFFFFFFFFFFFF AND PUSH4 0x70A08231 ADDRESS PUSH1 0x40 MLOAD DUP3 PUSH4 0xFFFFFFFF AND PUSH1 0xE0 SHL DUP2 MSTORE PUSH1 0x4 ADD PUSH2 0x1C43 SWAP2 SWAP1 PUSH2 0x3BC7 JUMP JUMPDEST PUSH1 0x20 PUSH1 0x40 MLOAD DUP1 DUP4 SUB DUP2 DUP7 GAS STATICCALL ISZERO DUP1 ISZERO PUSH2 0x1C60 JUMPI RETURNDATASIZE PUSH1 0x0 DUP1 RETURNDATACOPY RETURNDATASIZE PUSH1 0x0 REVERT JUMPDEST POP POP POP POP PUSH1 0x40 MLOAD RETURNDATASIZE PUSH1 0x1F NOT PUSH1 0x1F DUP3 ADD AND DUP3 ADD DUP1 PUSH1 0x40 MSTORE POP DUP2 ADD SWAP1 PUSH2 0x1C84 SWAP2 SWAP1 PUSH2 0x4391 JUMP JUMPDEST SWAP1 POP PUSH2 0x1C8E PUSH2 0x29DA JUMP JUMPDEST PUSH20 0xFFFFFFFFFFFFFFFFFFFFFFFFFFFFFFFFFFFFFFFF AND PUSH32 0xFBD65CFD6DE1493DB337385C0712095397ECBD0504DF64B861CDFCEB80C7B422 DUP5 DUP5 DUP5 PUSH1 0x40 MLOAD PUSH2 0x1CD7 SWAP4 SWAP3 SWAP2 SWAP1 PUSH2 0x3C62 JUMP JUMPDEST PUSH1 0x40 MLOAD DUP1 SWAP2 SUB SWAP1 LOG2 POP POP POP JUMPDEST PUSH1 0x0 DUP3 GT ISZERO PUSH2 0x1D95 JUMPI PUSH1 0x1 PUSH1 0x0 SWAP1 SLOAD SWAP1 PUSH2 0x100 EXP SWAP1 DIV PUSH20 0xFFFFFFFFFFFFFFFFFFFFFFFFFFFFFFFFFFFFFFFF AND PUSH20 0xFFFFFFFFFFFFFFFFFFFFFFFFFFFFFFFFFFFFFFFF AND PUSH4 0x40C10F19 PUSH2 0x1D32 PUSH2 0x29DA JUMP JUMPDEST DUP5 PUSH1 0x40 MLOAD DUP4 PUSH4 0xFFFFFFFF AND PUSH1 0xE0 SHL DUP2 MSTORE PUSH1 0x4 ADD PUSH2 0x1D50 SWAP3 SWAP2 SWAP1 PUSH2 0x40A3 JUMP JUMPDEST PUSH1 0x20 PUSH1 0x40 MLOAD DUP1 DUP4 SUB DUP2 PUSH1 0x0 DUP8 GAS CALL ISZERO DUP1 ISZERO PUSH2 0x1D6F JUMPI RETURNDATASIZE PUSH1 0x0 DUP1 RETURNDATACOPY RETURNDATASIZE PUSH1 0x0 REVERT JUMPDEST POP POP POP POP PUSH1 0x40 MLOAD RETURNDATASIZE PUSH1 0x1F NOT PUSH1 0x1F DUP3 ADD AND DUP3 ADD DUP1 PUSH1 0x40 MSTORE POP DUP2 ADD SWAP1 PUSH2 0x1D93 SWAP2 SWAP1 PUSH2 0x40F8 JUMP JUMPDEST POP JUMPDEST PUSH1 0x0 DUP2 GT ISZERO PUSH2 0x1E47 JUMPI PUSH1 0x2 PUSH1 0x0 SWAP1 SLOAD SWAP1 PUSH2 0x100 EXP SWAP1 DIV PUSH20 0xFFFFFFFFFFFFFFFFFFFFFFFFFFFFFFFFFFFFFFFF AND PUSH20 0xFFFFFFFFFFFFFFFFFFFFFFFFFFFFFFFFFFFFFFFF AND PUSH4 0x40C10F19 PUSH2 0x1DE4 PUSH2 0x29DA JUMP JUMPDEST DUP4 PUSH1 0x40 MLOAD DUP4 PUSH4 0xFFFFFFFF AND PUSH1 0xE0 SHL DUP2 MSTORE PUSH1 0x4 ADD PUSH2 0x1E02 SWAP3 SWAP2 SWAP1 PUSH2 0x40A3 JUMP JUMPDEST PUSH1 0x20 PUSH1 0x40 MLOAD DUP1 DUP4 SUB DUP2 PUSH1 0x0 DUP8 GAS CALL ISZERO DUP1 ISZERO PUSH2 0x1E21 JUMPI RETURNDATASIZE PUSH1 0x0 DUP1 RETURNDATACOPY RETURNDATASIZE PUSH1 0x0 REVERT JUMPDEST POP POP POP POP PUSH1 0x40 MLOAD RETURNDATASIZE PUSH1 0x1F NOT PUSH1 0x1F DUP3 ADD AND DUP3 ADD DUP1 PUSH1 0x40 MSTORE POP DUP2 ADD SWAP1 PUSH2 0x1E45 SWAP2 SWAP1 PUSH2 0x40F8 JUMP JUMPDEST POP JUMPDEST POP POP POP POP POP JUMP JUMPDEST PUSH1 0x40 MLOAD PUSH1 0x20 ADD PUSH2 0x1E5D SWAP1 PUSH2 0x4415 JUMP JUMPDEST PUSH1 0x40 MLOAD PUSH1 0x20 DUP2 DUP4 SUB SUB DUP2 MSTORE SWAP1 PUSH1 0x40 MSTORE DUP1 MLOAD SWAP1 PUSH1 0x20 ADD KECCAK256 PUSH2 0x1E7C DUP2 PUSH2 0x2A6B JUMP JUMPDEST PUSH2 0x1E84 PUSH2 0x14F6 JUMP JUMPDEST DUP2 PUSH1 0xD DUP5 PUSH1 0xFF AND DUP2 SLOAD DUP2 LT PUSH2 0x1E9C JUMPI PUSH2 0x1E9B PUSH2 0x3E52 JUMP JUMPDEST JUMPDEST SWAP1 PUSH1 0x0 MSTORE PUSH1 0x20 PUSH1 0x0 KECCAK256 SWAP1 PUSH1 0x5 MUL ADD PUSH1 0x1 ADD SLOAD PUSH1 0xB SLOAD PUSH2 0x1EBB SWAP2 SWAP1 PUSH2 0x3EB0 JUMP JUMPDEST PUSH2 0x1EC5 SWAP2 SWAP1 PUSH2 0x3F86 JUMP JUMPDEST PUSH1 0xB DUP2 SWAP1 SSTORE POP PUSH1 0x0 PUSH1 0xD DUP5 PUSH1 0xFF AND DUP2 SLOAD DUP2 LT PUSH2 0x1EE4 JUMPI PUSH2 0x1EE3 PUSH2 0x3E52 JUMP JUMPDEST JUMPDEST SWAP1 PUSH1 0x0 MSTORE PUSH1 0x20 PUSH1 0x0 KECCAK256 SWAP1 PUSH1 0x5 MUL ADD PUSH1 0x1 ADD SLOAD SWAP1 POP DUP3 PUSH1 0xD DUP6 PUSH1 0xFF AND DUP2 SLOAD DUP2 LT PUSH2 0x1F10 JUMPI PUSH2 0x1F0F PUSH2 0x3E52 JUMP JUMPDEST JUMPDEST SWAP1 PUSH1 0x0 MSTORE PUSH1 0x20 PUSH1 0x0 KECCAK256 SWAP1 PUSH1 0x5 MUL ADD PUSH1 0x1 ADD DUP2 SWAP1 SSTORE POP DUP4 PUSH1 0xFF AND PUSH32 0x79C68A2ECB77B6CDD88572066AE7A8FC466CD3A32F2908E8F6429F27CA760872 DUP5 DUP4 PUSH1 0x40 MLOAD PUSH2 0x1F5A SWAP3 SWAP2 SWAP1 PUSH2 0x4353 JUMP JUMPDEST PUSH1 0x40 MLOAD DUP1 SWAP2 SUB SWAP1 LOG2 POP POP POP POP JUMP JUMPDEST PUSH1 0x7 DUP2 DUP2 SLOAD DUP2 LT PUSH2 0x1F78 JUMPI PUSH1 0x0 DUP1 REVERT JUMPDEST SWAP1 PUSH1 0x0 MSTORE PUSH1 0x20 PUSH1 0x0 KECCAK256 ADD PUSH1 0x0 SWAP2 POP SWAP1 POP SLOAD DUP2 JUMP JUMPDEST PUSH1 0x0 DUP1 PUSH1 0x0 DUP5 DUP2 MSTORE PUSH1 0x20 ADD SWAP1 DUP2 MSTORE PUSH1 0x20 ADD PUSH1 0x0 KECCAK256 PUSH1 0x0 ADD PUSH1 0x0 DUP4 PUSH20 0xFFFFFFFFFFFFFFFFFFFFFFFFFFFFFFFFFFFFFFFF AND PUSH20 0xFFFFFFFFFFFFFFFFFFFFFFFFFFFFFFFFFFFFFFFF AND DUP2 MSTORE PUSH1 0x20 ADD SWAP1 DUP2 MSTORE PUSH1 0x20 ADD PUSH1 0x0 KECCAK256 PUSH1 0x0 SWAP1 SLOAD SWAP1 PUSH2 0x100 EXP SWAP1 DIV PUSH1 0xFF AND SWAP1 POP SWAP3 SWAP2 POP POP JUMP JUMPDEST PUSH1 0x6 DUP2 DUP2 SLOAD DUP2 LT PUSH2 0x2006 JUMPI PUSH1 0x0 DUP1 REVERT JUMPDEST SWAP1 PUSH1 0x0 MSTORE PUSH1 0x20 PUSH1 0x0 KECCAK256 ADD PUSH1 0x0 SWAP2 POP SWAP1 POP SLOAD DUP2 JUMP JUMPDEST PUSH1 0x0 DUP1 PUSH1 0x0 JUMPDEST PUSH1 0x10 PUSH1 0x0 DUP7 PUSH20 0xFFFFFFFFFFFFFFFFFFFFFFFFFFFFFFFFFFFFFFFF AND PUSH20 0xFFFFFFFFFFFFFFFFFFFFFFFFFFFFFFFFFFFFFFFF AND DUP2 MSTORE PUSH1 0x20 ADD SWAP1 DUP2 MSTORE PUSH1 0x20 ADD PUSH1 0x0 KECCAK256 SLOAD DUP2 LT ISZERO PUSH2 0x20FF JUMPI DUP4 PUSH1 0xFF AND PUSH1 0xF PUSH1 0x0 DUP8 PUSH20 0xFFFFFFFFFFFFFFFFFFFFFFFFFFFFFFFFFFFFFFFF AND PUSH20 0xFFFFFFFFFFFFFFFFFFFFFFFFFFFFFFFFFFFFFFFF AND DUP2 MSTORE PUSH1 0x20 ADD SWAP1 DUP2 MSTORE PUSH1 0x20 ADD PUSH1 0x0 KECCAK256 PUSH1 0x0 DUP4 DUP2 MSTORE PUSH1 0x20 ADD SWAP1 DUP2 MSTORE PUSH1 0x20 ADD PUSH1 0x0 KECCAK256 PUSH1 0x3 ADD PUSH1 0x0 SWAP1 SLOAD SWAP1 PUSH2 0x100 EXP SWAP1 DIV PUSH1 0xFF AND PUSH1 0xFF AND SUB PUSH2 0x20EC JUMPI PUSH2 0x20DE DUP6 DUP3 PUSH2 0x1343 JUMP JUMPDEST DUP3 PUSH2 0x20E9 SWAP2 SWAP1 PUSH2 0x3F86 JUMP JUMPDEST SWAP2 POP JUMPDEST DUP1 DUP1 PUSH2 0x20F7 SWAP1 PUSH2 0x4125 JUMP JUMPDEST SWAP2 POP POP PUSH2 0x2020 JUMP JUMPDEST POP DUP1 SWAP2 POP POP SWAP3 SWAP2 POP POP JUMP JUMPDEST PUSH1 0x0 DUP1 SHL DUP2 JUMP JUMPDEST PUSH1 0x10 PUSH1 0x20 MSTORE DUP1 PUSH1 0x0 MSTORE PUSH1 0x40 PUSH1 0x0 KECCAK256 PUSH1 0x0 SWAP2 POP SWAP1 POP SLOAD DUP2 JUMP JUMPDEST PUSH1 0x0 DUP1 PUSH1 0x0 JUMPDEST PUSH1 0x10 PUSH1 0x0 DUP6 PUSH20 0xFFFFFFFFFFFFFFFFFFFFFFFFFFFFFFFFFFFFFFFF AND PUSH20 0xFFFFFFFFFFFFFFFFFFFFFFFFFFFFFFFFFFFFFFFF AND DUP2 MSTORE PUSH1 0x20 ADD SWAP1 DUP2 MSTORE PUSH1 0x20 ADD PUSH1 0x0 KECCAK256 SLOAD DUP2 LT ISZERO PUSH2 0x21A0 JUMPI PUSH2 0x2180 DUP5 DUP3 PUSH2 0x1532 JUMP JUMPDEST DUP3 PUSH2 0x218B SWAP2 SWAP1 PUSH2 0x3F86 JUMP JUMPDEST SWAP2 POP DUP1 DUP1 PUSH2 0x2198 SWAP1 PUSH2 0x4125 JUMP JUMPDEST SWAP2 POP POP PUSH2 0x212F JUMP JUMPDEST POP DUP1 SWAP2 POP POP SWAP2 SWAP1 POP JUMP JUMPDEST PUSH1 0x40 MLOAD PUSH1 0x20 ADD PUSH2 0x21B9 SWAP1 PUSH2 0x4415 JUMP JUMPDEST PUSH1 0x40 MLOAD PUSH1 0x20 DUP2 DUP4 SUB SUB DUP2 MSTORE SWAP1 PUSH1 0x40 MSTORE DUP1 MLOAD SWAP1 PUSH1 0x20 ADD KECCAK256 DUP2 JUMP JUMPDEST PUSH2 0x21DB DUP3 PUSH2 0x1008 JUMP JUMPDEST PUSH2 0x21E4 DUP2 PUSH2 0x2A6B JUMP JUMPDEST PUSH2 0x21EE DUP4 DUP4 PUSH2 0x2B5F JUMP JUMPDEST POP POP POP JUMP JUMPDEST PUSH32 0x0 PUSH20 0xFFFFFFFFFFFFFFFFFFFFFFFFFFFFFFFFFFFFFFFF AND PUSH2 0x2232 PUSH2 0x29DA JUMP JUMPDEST PUSH20 0xFFFFFFFFFFFFFFFFFFFFFFFFFFFFFFFFFFFFFFFF AND EQ PUSH2 0x2288 JUMPI PUSH1 0x40 MLOAD PUSH32 0x8C379A000000000000000000000000000000000000000000000000000000000 DUP2 MSTORE PUSH1 0x4 ADD PUSH2 0x227F SWAP1 PUSH2 0x449C JUMP JUMPDEST PUSH1 0x40 MLOAD DUP1 SWAP2 SUB SWAP1 REVERT JUMPDEST PUSH1 0x0 PUSH20 0xFFFFFFFFFFFFFFFFFFFFFFFFFFFFFFFFFFFFFFFF AND DUP6 PUSH20 0xFFFFFFFFFFFFFFFFFFFFFFFFFFFFFFFFFFFFFFFF AND SUB PUSH2 0x22F7 JUMPI PUSH1 0x40 MLOAD PUSH32 0x8C379A000000000000000000000000000000000000000000000000000000000 DUP2 MSTORE PUSH1 0x4 ADD PUSH2 0x22EE SWAP1 PUSH2 0x4508 JUMP JUMPDEST PUSH1 0x40 MLOAD DUP1 SWAP2 SUB SWAP1 REVERT JUMPDEST PUSH1 0x0 PUSH20 0xFFFFFFFFFFFFFFFFFFFFFFFFFFFFFFFFFFFFFFFF AND DUP5 PUSH20 0xFFFFFFFFFFFFFFFFFFFFFFFFFFFFFFFFFFFFFFFF AND SUB PUSH2 0x2366 JUMPI PUSH1 0x40 MLOAD PUSH32 0x8C379A000000000000000000000000000000000000000000000000000000000 DUP2 MSTORE PUSH1 0x4 ADD PUSH2 0x235D SWAP1 PUSH2 0x4574 JUMP JUMPDEST PUSH1 0x40 MLOAD DUP1 SWAP2 SUB SWAP1 REVERT JUMPDEST PUSH1 0x0 PUSH20 0xFFFFFFFFFFFFFFFFFFFFFFFFFFFFFFFFFFFFFFFF AND DUP4 PUSH20 0xFFFFFFFFFFFFFFFFFFFFFFFFFFFFFFFFFFFFFFFF AND SUB PUSH2 0x23D5 JUMPI PUSH1 0x40 MLOAD PUSH32 0x8C379A000000000000000000000000000000000000000000000000000000000 DUP2 MSTORE PUSH1 0x4 ADD PUSH2 0x23CC SWAP1 PUSH2 0x45E0 JUMP JUMPDEST PUSH1 0x40 MLOAD DUP1 SWAP2 SUB SWAP1 REVERT JUMPDEST PUSH1 0x0 PUSH20 0xFFFFFFFFFFFFFFFFFFFFFFFFFFFFFFFFFFFFFFFF AND DUP3 PUSH20 0xFFFFFFFFFFFFFFFFFFFFFFFFFFFFFFFFFFFFFFFF AND SUB PUSH2 0x2444 JUMPI PUSH1 0x40 MLOAD PUSH32 0x8C379A000000000000000000000000000000000000000000000000000000000 DUP2 MSTORE PUSH1 0x4 ADD PUSH2 0x243B SWAP1 PUSH2 0x464C JUMP JUMPDEST PUSH1 0x40 MLOAD DUP1 SWAP2 SUB SWAP1 REVERT JUMPDEST PUSH2 0x2479 PUSH1 0x40 MLOAD PUSH1 0x20 ADD PUSH2 0x2456 SWAP1 PUSH2 0x4415 JUMP JUMPDEST PUSH1 0x40 MLOAD PUSH1 0x20 DUP2 DUP4 SUB SUB DUP2 MSTORE SWAP1 PUSH1 0x40 MSTORE DUP1 MLOAD SWAP1 PUSH1 0x20 ADD KECCAK256 PUSH2 0x2474 PUSH2 0x29DA JUMP JUMPDEST PUSH2 0x2A7F JUMP JUMPDEST PUSH2 0x248D PUSH1 0x0 DUP1 SHL PUSH2 0x2488 PUSH2 0x29DA JUMP JUMPDEST PUSH2 0x2A7F JUMP JUMPDEST DUP5 PUSH1 0x1 PUSH1 0x0 PUSH2 0x100 EXP DUP2 SLOAD DUP2 PUSH20 0xFFFFFFFFFFFFFFFFFFFFFFFFFFFFFFFFFFFFFFFF MUL NOT AND SWAP1 DUP4 PUSH20 0xFFFFFFFFFFFFFFFFFFFFFFFFFFFFFFFFFFFFFFFF AND MUL OR SWAP1 SSTORE POP DUP4 PUSH1 0x2 PUSH1 0x0 PUSH2 0x100 EXP DUP2 SLOAD DUP2 PUSH20 0xFFFFFFFFFFFFFFFFFFFFFFFFFFFFFFFFFFFFFFFF MUL NOT AND SWAP1 DUP4 PUSH20 0xFFFFFFFFFFFFFFFFFFFFFFFFFFFFFFFFFFFFFFFF AND MUL OR SWAP1 SSTORE POP DUP3 PUSH1 0x3 PUSH1 0x0 PUSH2 0x100 EXP DUP2 SLOAD DUP2 PUSH20 0xFFFFFFFFFFFFFFFFFFFFFFFFFFFFFFFFFFFFFFFF MUL NOT AND SWAP1 DUP4 PUSH20 0xFFFFFFFFFFFFFFFFFFFFFFFFFFFFFFFFFFFFFFFF AND MUL OR SWAP1 SSTORE POP DUP2 PUSH1 0x4 PUSH1 0x0 PUSH2 0x100 EXP DUP2 SLOAD DUP2 PUSH20 0xFFFFFFFFFFFFFFFFFFFFFFFFFFFFFFFFFFFFFFFF MUL NOT AND SWAP1 DUP4 PUSH20 0xFFFFFFFFFFFFFFFFFFFFFFFFFFFFFFFFFFFFFFFF AND MUL OR SWAP1 SSTORE POP PUSH1 0xF PUSH1 0x5 DUP2 SWAP1 SSTORE POP PUSH1 0x40 MLOAD DUP1 PUSH1 0x60 ADD PUSH1 0x40 MSTORE DUP1 PUSH8 0x100AEFE0105A0000 PUSH8 0xFFFFFFFFFFFFFFFF AND DUP2 MSTORE PUSH1 0x20 ADD PUSH8 0x87AB54345C38000 PUSH8 0xFFFFFFFFFFFFFFFF AND DUP2 MSTORE PUSH1 0x20 ADD PUSH8 0x4F0C41D240A0000 PUSH8 0xFFFFFFFFFFFFFFFF AND DUP2 MSTORE POP PUSH1 0x6 SWAP1 PUSH1 0x3 PUSH2 0x25FA SWAP3 SWAP2 SWAP1 PUSH2 0x3604 JUMP JUMPDEST POP PUSH1 0x40 MLOAD DUP1 PUSH1 0x60 ADD PUSH1 0x40 MSTORE DUP1 PUSH8 0xDE0B6B3A76400000 PUSH9 0xFFFFFFFFFFFFFFFFFF AND DUP2 MSTORE PUSH1 0x20 ADD PUSH9 0x1158E460913D00000 PUSH9 0xFFFFFFFFFFFFFFFFFF AND DUP2 MSTORE PUSH1 0x20 ADD PUSH9 0x1A055690D9DB80000 PUSH9 0xFFFFFFFFFFFFFFFFFF AND DUP2 MSTORE POP PUSH1 0x7 SWAP1 PUSH1 0x3 PUSH2 0x2661 SWAP3 SWAP2 SWAP1 PUSH2 0x365D JUMP JUMPDEST POP PUSH1 0x40 MLOAD DUP1 PUSH1 0x60 ADD PUSH1 0x40 MSTORE DUP1 PUSH2 0x1518 PUSH2 0xFFFF AND DUP2 MSTORE PUSH1 0x20 ADD PUSH2 0x2A30 PUSH2 0xFFFF AND DUP2 MSTORE PUSH1 0x20 ADD PUSH2 0x558C PUSH2 0xFFFF AND DUP2 MSTORE POP PUSH1 0x8 SWAP1 PUSH1 0x3 PUSH2 0x269F SWAP3 SWAP2 SWAP1 PUSH2 0x36B7 JUMP JUMPDEST POP PUSH8 0x2501E734690AAAB PUSH1 0x9 DUP2 SWAP1 SSTORE POP PUSH2 0x708 PUSH16 0xFFFFFFFFFFFFFFFFFFFFFFFFFFFFFFFF AND DUP2 PUSH2 0x26CF SWAP2 SWAP1 PUSH2 0x3F86 JUMP JUMPDEST PUSH1 0xA DUP2 SWAP1 SSTORE POP PUSH2 0x3E8 PUSH1 0xB DUP2 SWAP1 SSTORE POP PUSH1 0x0 PUSH1 0xD DUP1 SLOAD SWAP1 POP SUB PUSH2 0x271B JUMPI PUSH2 0x26FA PUSH1 0x0 PUSH1 0x64 PUSH1 0xA SLOAD PUSH2 0x2F6C JUMP JUMPDEST PUSH2 0x270A PUSH1 0x1 PUSH2 0x12C PUSH1 0xA SLOAD PUSH2 0x2F6C JUMP JUMPDEST PUSH2 0x271A PUSH1 0x2 PUSH2 0x258 PUSH1 0xA SLOAD PUSH2 0x2F6C JUMP JUMPDEST JUMPDEST PUSH1 0x1 PUSH1 0xC PUSH1 0x0 PUSH2 0x100 EXP DUP2 SLOAD DUP2 PUSH1 0xFF MUL NOT AND SWAP1 DUP4 ISZERO ISZERO MUL OR SWAP1 SSTORE POP POP POP POP POP POP JUMP JUMPDEST PUSH1 0x0 DUP1 PUSH1 0x0 JUMPDEST PUSH1 0x10 PUSH1 0x0 DUP6 PUSH20 0xFFFFFFFFFFFFFFFFFFFFFFFFFFFFFFFFFFFFFFFF AND PUSH20 0xFFFFFFFFFFFFFFFFFFFFFFFFFFFFFFFFFFFFFFFF AND DUP2 MSTORE PUSH1 0x20 ADD SWAP1 DUP2 MSTORE PUSH1 0x20 ADD PUSH1 0x0 KECCAK256 SLOAD DUP2 LT ISZERO PUSH2 0x28F7 JUMPI PUSH1 0x0 PUSH1 0xF PUSH1 0x0 DUP7 PUSH20 0xFFFFFFFFFFFFFFFFFFFFFFFFFFFFFFFFFFFFFFFF AND PUSH20 0xFFFFFFFFFFFFFFFFFFFFFFFFFFFFFFFFFFFFFFFF AND DUP2 MSTORE PUSH1 0x20 ADD SWAP1 DUP2 MSTORE PUSH1 0x20 ADD PUSH1 0x0 KECCAK256 PUSH1 0x0 DUP4 DUP2 MSTORE PUSH1 0x20 ADD SWAP1 DUP2 MSTORE PUSH1 0x20 ADD PUSH1 0x0 KECCAK256 PUSH1 0x40 MLOAD DUP1 PUSH2 0x100 ADD PUSH1 0x40 MSTORE SWAP1 DUP2 PUSH1 0x0 DUP3 ADD SLOAD DUP2 MSTORE PUSH1 0x20 ADD PUSH1 0x1 DUP3 ADD PUSH1 0x0 SWAP1 SLOAD SWAP1 PUSH2 0x100 EXP SWAP1 DIV PUSH1 0xFF AND ISZERO ISZERO ISZERO ISZERO DUP2 MSTORE PUSH1 0x20 ADD PUSH1 0x2 DUP3 ADD SLOAD DUP2 MSTORE PUSH1 0x20 ADD PUSH1 0x3 DUP3 ADD PUSH1 0x0 SWAP1 SLOAD SWAP1 PUSH2 0x100 EXP SWAP1 DIV PUSH1 0xFF AND PUSH1 0xFF AND PUSH1 0xFF AND DUP2 MSTORE PUSH1 0x20 ADD PUSH1 0x4 DUP3 ADD SLOAD DUP2 MSTORE PUSH1 0x20 ADD PUSH1 0x5 DUP3 ADD SLOAD DUP2 MSTORE PUSH1 0x20 ADD PUSH1 0x6 DUP3 ADD SLOAD DUP2 MSTORE PUSH1 0x20 ADD PUSH1 0x7 DUP3 ADD SLOAD DUP2 MSTORE POP POP SWAP1 POP DUP1 PUSH1 0x20 ADD MLOAD ISZERO PUSH2 0x28E3 JUMPI DUP1 PUSH1 0xA0 ADD MLOAD TIMESTAMP LT ISZERO PUSH2 0x28E2 JUMPI PUSH1 0x0 PUSH1 0x6 DUP3 PUSH1 0x60 ADD MLOAD PUSH1 0xFF AND DUP2 SLOAD DUP2 LT PUSH2 0x2891 JUMPI PUSH2 0x2890 PUSH2 0x3E52 JUMP JUMPDEST JUMPDEST SWAP1 PUSH1 0x0 MSTORE PUSH1 0x20 PUSH1 0x0 KECCAK256 ADD SLOAD SWAP1 POP PUSH1 0x0 PUSH8 0xDE0B6B3A7640000 PUSH1 0x64 DUP4 DUP6 PUSH1 0x40 ADD MLOAD PUSH2 0x28BB SWAP2 SWAP1 PUSH2 0x3EE4 JUMP JUMPDEST PUSH2 0x28C5 SWAP2 SWAP1 PUSH2 0x3F55 JUMP JUMPDEST PUSH2 0x28CF SWAP2 SWAP1 PUSH2 0x3F55 JUMP JUMPDEST SWAP1 POP DUP1 DUP6 PUSH2 0x28DD SWAP2 SWAP1 PUSH2 0x3F86 JUMP JUMPDEST SWAP5 POP POP POP JUMPDEST JUMPDEST POP DUP1 DUP1 PUSH2 0x28EF SWAP1 PUSH2 0x4125 JUMP JUMPDEST SWAP2 POP POP PUSH2 0x2743 JUMP JUMPDEST POP DUP1 SWAP2 POP POP SWAP2 SWAP1 POP JUMP JUMPDEST PUSH1 0xF PUSH1 0x20 MSTORE DUP2 PUSH1 0x0 MSTORE PUSH1 0x40 PUSH1 0x0 KECCAK256 PUSH1 0x20 MSTORE DUP1 PUSH1 0x0 MSTORE PUSH1 0x40 PUSH1 0x0 KECCAK256 PUSH1 0x0 SWAP2 POP SWAP2 POP POP DUP1 PUSH1 0x0 ADD SLOAD SWAP1 DUP1 PUSH1 0x1 ADD PUSH1 0x0 SWAP1 SLOAD SWAP1 PUSH2 0x100 EXP SWAP1 DIV PUSH1 0xFF AND SWAP1 DUP1 PUSH1 0x2 ADD SLOAD SWAP1 DUP1 PUSH1 0x3 ADD PUSH1 0x0 SWAP1 SLOAD SWAP1 PUSH2 0x100 EXP SWAP1 DIV PUSH1 0xFF AND SWAP1 DUP1 PUSH1 0x4 ADD SLOAD SWAP1 DUP1 PUSH1 0x5 ADD SLOAD SWAP1 DUP1 PUSH1 0x6 ADD SLOAD SWAP1 DUP1 PUSH1 0x7 ADD SLOAD SWAP1 POP DUP9 JUMP JUMPDEST PUSH1 0x0 PUSH32 0x1FFC9A700000000000000000000000000000000000000000000000000000000 PUSH28 0xFFFFFFFFFFFFFFFFFFFFFFFFFFFFFFFFFFFFFFFFFFFFFFFFFFFFFFFF NOT AND DUP3 PUSH28 0xFFFFFFFFFFFFFFFFFFFFFFFFFFFFFFFFFFFFFFFFFFFFFFFFFFFFFFFF NOT AND EQ SWAP1 POP SWAP2 SWAP1 POP JUMP JUMPDEST PUSH1 0x0 CALLER SWAP1 POP SWAP1 JUMP JUMPDEST PUSH2 0x2A65 DUP5 PUSH4 0x23B872DD PUSH1 0xE0 SHL DUP6 DUP6 DUP6 PUSH1 0x40 MLOAD PUSH1 0x24 ADD PUSH2 0x2A03 SWAP4 SWAP3 SWAP2 SWAP1 PUSH2 0x466C JUMP JUMPDEST PUSH1 0x40 MLOAD PUSH1 0x20 DUP2 DUP4 SUB SUB DUP2 MSTORE SWAP1 PUSH1 0x40 MSTORE SWAP1 PUSH28 0xFFFFFFFFFFFFFFFFFFFFFFFFFFFFFFFFFFFFFFFFFFFFFFFFFFFFFFFF NOT AND PUSH1 0x20 DUP3 ADD DUP1 MLOAD PUSH28 0xFFFFFFFFFFFFFFFFFFFFFFFFFFFFFFFFFFFFFFFFFFFFFFFFFFFFFFFF DUP4 DUP2 DUP4 AND OR DUP4 MSTORE POP POP POP POP PUSH2 0x3017 JUMP JUMPDEST POP POP POP POP JUMP JUMPDEST PUSH2 0x2A7C DUP2 PUSH2 0x2A77 PUSH2 0x29DA JUMP JUMPDEST PUSH2 0x30DE JUMP JUMPDEST POP JUMP JUMPDEST PUSH2 0x2A89 DUP3 DUP3 PUSH2 0x1F8C JUMP JUMPDEST PUSH2 0x2B5B JUMPI PUSH1 0x1 PUSH1 0x0 DUP1 DUP5 DUP2 MSTORE PUSH1 0x20 ADD SWAP1 DUP2 MSTORE PUSH1 0x20 ADD PUSH1 0x0 KECCAK256 PUSH1 0x0 ADD PUSH1 0x0 DUP4 PUSH20 0xFFFFFFFFFFFFFFFFFFFFFFFFFFFFFFFFFFFFFFFF AND PUSH20 0xFFFFFFFFFFFFFFFFFFFFFFFFFFFFFFFFFFFFFFFF AND DUP2 MSTORE PUSH1 0x20 ADD SWAP1 DUP2 MSTORE PUSH1 0x20 ADD PUSH1 0x0 KECCAK256 PUSH1 0x0 PUSH2 0x100 EXP DUP2 SLOAD DUP2 PUSH1 0xFF MUL NOT AND SWAP1 DUP4 ISZERO ISZERO MUL OR SWAP1 SSTORE POP PUSH2 0x2B00 PUSH2 0x29DA JUMP JUMPDEST PUSH20 0xFFFFFFFFFFFFFFFFFFFFFFFFFFFFFFFFFFFFFFFF AND DUP2 PUSH20 0xFFFFFFFFFFFFFFFFFFFFFFFFFFFFFFFFFFFFFFFF AND DUP4 PUSH32 0x2F8788117E7EFF1D82E926EC794901D17C78024A50270940304540A733656F0D PUSH1 0x40 MLOAD PUSH1 0x40 MLOAD DUP1 SWAP2 SUB SWAP1 LOG4 JUMPDEST POP POP JUMP JUMPDEST PUSH2 0x2B69 DUP3 DUP3 PUSH2 0x1F8C JUMP JUMPDEST ISZERO PUSH2 0x2C3C JUMPI PUSH1 0x0 DUP1 PUSH1 0x0 DUP5 DUP2 MSTORE PUSH1 0x20 ADD SWAP1 DUP2 MSTORE PUSH1 0x20 ADD PUSH1 0x0 KECCAK256 PUSH1 0x0 ADD PUSH1 0x0 DUP4 PUSH20 0xFFFFFFFFFFFFFFFFFFFFFFFFFFFFFFFFFFFFFFFF AND PUSH20 0xFFFFFFFFFFFFFFFFFFFFFFFFFFFFFFFFFFFFFFFF AND DUP2 MSTORE PUSH1 0x20 ADD SWAP1 DUP2 MSTORE PUSH1 0x20 ADD PUSH1 0x0 KECCAK256 PUSH1 0x0 PUSH2 0x100 EXP DUP2 SLOAD DUP2 PUSH1 0xFF MUL NOT AND SWAP1 DUP4 ISZERO ISZERO MUL OR SWAP1 SSTORE POP PUSH2 0x2BE1 PUSH2 0x29DA JUMP JUMPDEST PUSH20 0xFFFFFFFFFFFFFFFFFFFFFFFFFFFFFFFFFFFFFFFF AND DUP2 PUSH20 0xFFFFFFFFFFFFFFFFFFFFFFFFFFFFFFFFFFFFFFFF AND DUP4 PUSH32 0xF6391F5C32D9C69D2A47EA670B442974B53935D1EDC7FD64EB21E047A839171B PUSH1 0x40 MLOAD PUSH1 0x40 MLOAD DUP1 SWAP2 SUB SWAP1 LOG4 JUMPDEST POP POP JUMP JUMPDEST PUSH2 0x2C48 PUSH2 0x3599 JUMP JUMPDEST PUSH1 0x0 PUSH1 0xF PUSH1 0x0 DUP6 PUSH20 0xFFFFFFFFFFFFFFFFFFFFFFFFFFFFFFFFFFFFFFFF AND PUSH20 0xFFFFFFFFFFFFFFFFFFFFFFFFFFFFFFFFFFFFFFFF AND DUP2 MSTORE PUSH1 0x20 ADD SWAP1 DUP2 MSTORE PUSH1 0x20 ADD PUSH1 0x0 KECCAK256 PUSH1 0x0 DUP5 DUP2 MSTORE PUSH1 0x20 ADD SWAP1 DUP2 MSTORE PUSH1 0x20 ADD PUSH1 0x0 KECCAK256 PUSH1 0x40 MLOAD DUP1 PUSH2 0x100 ADD PUSH1 0x40 MSTORE SWAP1 DUP2 PUSH1 0x0 DUP3 ADD SLOAD DUP2 MSTORE PUSH1 0x20 ADD PUSH1 0x1 DUP3 ADD PUSH1 0x0 SWAP1 SLOAD SWAP1 PUSH2 0x100 EXP SWAP1 DIV PUSH1 0xFF AND ISZERO ISZERO ISZERO ISZERO DUP2 MSTORE PUSH1 0x20 ADD PUSH1 0x2 DUP3 ADD SLOAD DUP2 MSTORE PUSH1 0x20 ADD PUSH1 0x3 DUP3 ADD PUSH1 0x0 SWAP1 SLOAD SWAP1 PUSH2 0x100 EXP SWAP1 DIV PUSH1 0xFF AND PUSH1 0xFF AND PUSH1 0xFF AND DUP2 MSTORE PUSH1 0x20 ADD PUSH1 0x4 DUP3 ADD SLOAD DUP2 MSTORE PUSH1 0x20 ADD PUSH1 0x5 DUP3 ADD SLOAD DUP2 MSTORE PUSH1 0x20 ADD PUSH1 0x6 DUP3 ADD SLOAD DUP2 MSTORE PUSH1 0x20 ADD PUSH1 0x7 DUP3 ADD SLOAD DUP2 MSTORE POP POP SWAP1 POP PUSH1 0x0 PUSH1 0xE PUSH1 0x0 DUP4 PUSH1 0x60 ADD MLOAD PUSH1 0xFF AND DUP2 MSTORE PUSH1 0x20 ADD SWAP1 DUP2 MSTORE PUSH1 0x20 ADD PUSH1 0x0 KECCAK256 DUP1 SLOAD DUP1 PUSH1 0x20 MUL PUSH1 0x20 ADD PUSH1 0x40 MLOAD SWAP1 DUP2 ADD PUSH1 0x40 MSTORE DUP1 SWAP3 SWAP2 SWAP1 DUP2 DUP2 MSTORE PUSH1 0x20 ADD PUSH1 0x0 SWAP1 JUMPDEST DUP3 DUP3 LT ISZERO PUSH2 0x2DA8 JUMPI DUP4 DUP3 SWAP1 PUSH1 0x0 MSTORE PUSH1 0x20 PUSH1 0x0 KECCAK256 SWAP1 PUSH1 0x3 MUL ADD PUSH1 0x40 MLOAD DUP1 PUSH1 0x60 ADD PUSH1 0x40 MSTORE SWAP1 DUP2 PUSH1 0x0 DUP3 ADD SLOAD DUP2 MSTORE PUSH1 0x20 ADD PUSH1 0x1 DUP3 ADD SLOAD DUP2 MSTORE PUSH1 0x20 ADD PUSH1 0x2 DUP3 ADD SLOAD DUP2 MSTORE POP POP DUP2 MSTORE PUSH1 0x20 ADD SWAP1 PUSH1 0x1 ADD SWAP1 PUSH2 0x2D58 JUMP JUMPDEST POP POP POP POP SWAP1 POP PUSH1 0x0 DUP3 PUSH1 0xA0 ADD MLOAD TIMESTAMP GT PUSH2 0x2DC1 JUMPI TIMESTAMP PUSH2 0x2DC7 JUMP JUMPDEST DUP3 PUSH1 0xA0 ADD MLOAD JUMPDEST SWAP1 POP DUP2 PUSH1 0x0 DUP2 MLOAD DUP2 LT PUSH2 0x2DDD JUMPI PUSH2 0x2DDC PUSH2 0x3E52 JUMP JUMPDEST JUMPDEST PUSH1 0x20 MUL PUSH1 0x20 ADD ADD MLOAD PUSH1 0x40 ADD MLOAD DUP2 LT ISZERO PUSH2 0x2E16 JUMPI DUP2 PUSH1 0x0 DUP2 MLOAD DUP2 LT PUSH2 0x2E04 JUMPI PUSH2 0x2E03 PUSH2 0x3E52 JUMP JUMPDEST JUMPDEST PUSH1 0x20 MUL PUSH1 0x20 ADD ADD MLOAD SWAP4 POP POP POP POP PUSH2 0x2F66 JUMP JUMPDEST DUP2 PUSH1 0x1 DUP4 MLOAD PUSH2 0x2E25 SWAP2 SWAP1 PUSH2 0x3EB0 JUMP JUMPDEST DUP2 MLOAD DUP2 LT PUSH2 0x2E36 JUMPI PUSH2 0x2E35 PUSH2 0x3E52 JUMP JUMPDEST JUMPDEST PUSH1 0x20 MUL PUSH1 0x20 ADD ADD MLOAD PUSH1 0x40 ADD MLOAD DUP2 LT PUSH2 0x2E7A JUMPI DUP2 PUSH1 0x1 DUP4 MLOAD PUSH2 0x2E57 SWAP2 SWAP1 PUSH2 0x3EB0 JUMP JUMPDEST DUP2 MLOAD DUP2 LT PUSH2 0x2E68 JUMPI PUSH2 0x2E67 PUSH2 0x3E52 JUMP JUMPDEST JUMPDEST PUSH1 0x20 MUL PUSH1 0x20 ADD ADD MLOAD SWAP4 POP POP POP POP PUSH2 0x2F66 JUMP JUMPDEST PUSH1 0x0 DUP1 DUP4 MLOAD SWAP1 POP JUMPDEST DUP1 DUP3 LT ISZERO PUSH2 0x2F37 JUMPI PUSH1 0x0 PUSH1 0x2 DUP3 DUP5 PUSH2 0x2E9A SWAP2 SWAP1 PUSH2 0x3F86 JUMP JUMPDEST PUSH2 0x2EA4 SWAP2 SWAP1 PUSH2 0x3F55 JUMP JUMPDEST SWAP1 POP DUP4 DUP6 DUP3 DUP2 MLOAD DUP2 LT PUSH2 0x2EBA JUMPI PUSH2 0x2EB9 PUSH2 0x3E52 JUMP JUMPDEST JUMPDEST PUSH1 0x20 MUL PUSH1 0x20 ADD ADD MLOAD PUSH1 0x40 ADD MLOAD LT ISZERO PUSH2 0x2EE0 JUMPI PUSH1 0x1 DUP2 PUSH2 0x2ED9 SWAP2 SWAP1 PUSH2 0x3F86 JUMP JUMPDEST SWAP3 POP PUSH2 0x2F31 JUMP JUMPDEST DUP4 DUP6 DUP3 DUP2 MLOAD DUP2 LT PUSH2 0x2EF4 JUMPI PUSH2 0x2EF3 PUSH2 0x3E52 JUMP JUMPDEST JUMPDEST PUSH1 0x20 MUL PUSH1 0x20 ADD ADD MLOAD PUSH1 0x40 ADD MLOAD SUB PUSH2 0x2F2D JUMPI DUP5 DUP2 DUP2 MLOAD DUP2 LT PUSH2 0x2F18 JUMPI PUSH2 0x2F17 PUSH2 0x3E52 JUMP JUMPDEST JUMPDEST PUSH1 0x20 MUL PUSH1 0x20 ADD ADD MLOAD SWAP7 POP POP POP POP POP POP POP PUSH2 0x2F66 JUMP JUMPDEST DUP1 SWAP2 POP JUMPDEST POP PUSH2 0x2E82 JUMP JUMPDEST DUP4 PUSH1 0x1 DUP4 PUSH2 0x2F45 SWAP2 SWAP1 PUSH2 0x3EB0 JUMP JUMPDEST DUP2 MLOAD DUP2 LT PUSH2 0x2F56 JUMPI PUSH2 0x2F55 PUSH2 0x3E52 JUMP JUMPDEST JUMPDEST PUSH1 0x20 MUL PUSH1 0x20 ADD ADD MLOAD SWAP6 POP POP POP POP POP POP JUMPDEST SWAP3 SWAP2 POP POP JUMP JUMPDEST PUSH2 0x2F74 PUSH2 0x370A JUMP JUMPDEST DUP4 DUP2 PUSH1 0x0 ADD SWAP1 PUSH1 0xFF AND SWAP1 DUP2 PUSH1 0xFF AND DUP2 MSTORE POP POP DUP3 DUP2 PUSH1 0x20 ADD DUP2 DUP2 MSTORE POP POP DUP2 DUP2 PUSH1 0x80 ADD DUP2 DUP2 MSTORE POP POP PUSH1 0xD DUP2 SWAP1 DUP1 PUSH1 0x1 DUP2 SLOAD ADD DUP1 DUP3 SSTORE DUP1 SWAP2 POP POP PUSH1 0x1 SWAP1 SUB SWAP1 PUSH1 0x0 MSTORE PUSH1 0x20 PUSH1 0x0 KECCAK256 SWAP1 PUSH1 0x5 MUL ADD PUSH1 0x0 SWAP1 SWAP2 SWAP1 SWAP2 SWAP1 SWAP2 POP PUSH1 0x0 DUP3 ADD MLOAD DUP2 PUSH1 0x0 ADD PUSH1 0x0 PUSH2 0x100 EXP DUP2 SLOAD DUP2 PUSH1 0xFF MUL NOT AND SWAP1 DUP4 PUSH1 0xFF AND MUL OR SWAP1 SSTORE POP PUSH1 0x20 DUP3 ADD MLOAD DUP2 PUSH1 0x1 ADD SSTORE PUSH1 0x40 DUP3 ADD MLOAD DUP2 PUSH1 0x2 ADD SSTORE PUSH1 0x60 DUP3 ADD MLOAD DUP2 PUSH1 0x3 ADD SSTORE PUSH1 0x80 DUP3 ADD MLOAD DUP2 PUSH1 0x4 ADD SSTORE POP POP POP POP POP POP JUMP JUMPDEST PUSH1 0x0 PUSH2 0x3079 DUP3 PUSH1 0x40 MLOAD DUP1 PUSH1 0x40 ADD PUSH1 0x40 MSTORE DUP1 PUSH1 0x20 DUP2 MSTORE PUSH1 0x20 ADD PUSH32 0x5361666545524332303A206C6F772D6C6576656C2063616C6C206661696C6564 DUP2 MSTORE POP DUP6 PUSH20 0xFFFFFFFFFFFFFFFFFFFFFFFFFFFFFFFFFFFFFFFF AND PUSH2 0x3163 SWAP1 SWAP3 SWAP2 SWAP1 PUSH4 0xFFFFFFFF AND JUMP JUMPDEST SWAP1 POP PUSH1 0x0 DUP2 MLOAD GT ISZERO PUSH2 0x30D9 JUMPI DUP1 DUP1 PUSH1 0x20 ADD SWAP1 MLOAD DUP2 ADD SWAP1 PUSH2 0x3099 SWAP2 SWAP1 PUSH2 0x40F8 JUMP JUMPDEST PUSH2 0x30D8 JUMPI PUSH1 0x40 MLOAD PUSH32 0x8C379A000000000000000000000000000000000000000000000000000000000 DUP2 MSTORE PUSH1 0x4 ADD PUSH2 0x30CF SWAP1 PUSH2 0x4715 JUMP JUMPDEST PUSH1 0x40 MLOAD DUP1 SWAP2 SUB SWAP1 REVERT JUMPDEST JUMPDEST POP POP POP JUMP JUMPDEST PUSH2 0x30E8 DUP3 DUP3 PUSH2 0x1F8C JUMP JUMPDEST PUSH2 0x315F JUMPI PUSH2 0x30F5 DUP2 PUSH2 0x317B JUMP JUMPDEST PUSH2 0x3103 DUP4 PUSH1 0x0 SHR PUSH1 0x20 PUSH2 0x31A8 JUMP JUMPDEST PUSH1 0x40 MLOAD PUSH1 0x20 ADD PUSH2 0x3114 SWAP3 SWAP2 SWAP1 PUSH2 0x4833 JUMP JUMPDEST PUSH1 0x40 MLOAD PUSH1 0x20 DUP2 DUP4 SUB SUB DUP2 MSTORE SWAP1 PUSH1 0x40 MSTORE PUSH1 0x40 MLOAD PUSH32 0x8C379A000000000000000000000000000000000000000000000000000000000 DUP2 MSTORE PUSH1 0x4 ADD PUSH2 0x3156 SWAP2 SWAP1 PUSH2 0x48B7 JUMP JUMPDEST PUSH1 0x40 MLOAD DUP1 SWAP2 SUB SWAP1 REVERT JUMPDEST POP POP JUMP JUMPDEST PUSH1 0x60 PUSH2 0x3172 DUP5 DUP5 PUSH1 0x0 DUP6 PUSH2 0x33E4 JUMP JUMPDEST SWAP1 POP SWAP4 SWAP3 POP POP POP JUMP JUMPDEST PUSH1 0x60 PUSH2 0x31A1 DUP3 PUSH20 0xFFFFFFFFFFFFFFFFFFFFFFFFFFFFFFFFFFFFFFFF AND PUSH1 0x14 PUSH1 0xFF AND PUSH2 0x31A8 JUMP JUMPDEST SWAP1 POP SWAP2 SWAP1 POP JUMP JUMPDEST PUSH1 0x60 PUSH1 0x0 PUSH1 0x2 DUP4 PUSH1 0x2 PUSH2 0x31BB SWAP2 SWAP1 PUSH2 0x3EE4 JUMP JUMPDEST PUSH2 0x31C5 SWAP2 SWAP1 PUSH2 0x3F86 JUMP JUMPDEST PUSH8 0xFFFFFFFFFFFFFFFF DUP2 GT ISZERO PUSH2 0x31DE JUMPI PUSH2 0x31DD PUSH2 0x48D9 JUMP JUMPDEST JUMPDEST PUSH1 0x40 MLOAD SWAP1 DUP1 DUP3 MSTORE DUP1 PUSH1 0x1F ADD PUSH1 0x1F NOT AND PUSH1 0x20 ADD DUP3 ADD PUSH1 0x40 MSTORE DUP1 ISZERO PUSH2 0x3210 JUMPI DUP2 PUSH1 0x20 ADD PUSH1 0x1 DUP3 MUL DUP1 CALLDATASIZE DUP4 CALLDATACOPY DUP1 DUP3 ADD SWAP2 POP POP SWAP1 POP JUMPDEST POP SWAP1 POP PUSH32 0x3000000000000000000000000000000000000000000000000000000000000000 DUP2 PUSH1 0x0 DUP2 MLOAD DUP2 LT PUSH2 0x3248 JUMPI PUSH2 0x3247 PUSH2 0x3E52 JUMP JUMPDEST JUMPDEST PUSH1 0x20 ADD ADD SWAP1 PUSH31 0xFFFFFFFFFFFFFFFFFFFFFFFFFFFFFFFFFFFFFFFFFFFFFFFFFFFFFFFFFFFFFF NOT AND SWAP1 DUP2 PUSH1 0x0 BYTE SWAP1 MSTORE8 POP PUSH32 0x7800000000000000000000000000000000000000000000000000000000000000 DUP2 PUSH1 0x1 DUP2 MLOAD DUP2 LT PUSH2 0x32AC JUMPI PUSH2 0x32AB PUSH2 0x3E52 JUMP JUMPDEST JUMPDEST PUSH1 0x20 ADD ADD SWAP1 PUSH31 0xFFFFFFFFFFFFFFFFFFFFFFFFFFFFFFFFFFFFFFFFFFFFFFFFFFFFFFFFFFFFFF NOT AND SWAP1 DUP2 PUSH1 0x0 BYTE SWAP1 MSTORE8 POP PUSH1 0x0 PUSH1 0x1 DUP5 PUSH1 0x2 PUSH2 0x32EC SWAP2 SWAP1 PUSH2 0x3EE4 JUMP JUMPDEST PUSH2 0x32F6 SWAP2 SWAP1 PUSH2 0x3F86 JUMP JUMPDEST SWAP1 POP JUMPDEST PUSH1 0x1 DUP2 GT ISZERO PUSH2 0x3396 JUMPI PUSH32 0x3031323334353637383961626364656600000000000000000000000000000000 PUSH1 0xF DUP7 AND PUSH1 0x10 DUP2 LT PUSH2 0x3338 JUMPI PUSH2 0x3337 PUSH2 0x3E52 JUMP JUMPDEST JUMPDEST BYTE PUSH1 0xF8 SHL DUP3 DUP3 DUP2 MLOAD DUP2 LT PUSH2 0x334F JUMPI PUSH2 0x334E PUSH2 0x3E52 JUMP JUMPDEST JUMPDEST PUSH1 0x20 ADD ADD SWAP1 PUSH31 0xFFFFFFFFFFFFFFFFFFFFFFFFFFFFFFFFFFFFFFFFFFFFFFFFFFFFFFFFFFFFFF NOT AND SWAP1 DUP2 PUSH1 0x0 BYTE SWAP1 MSTORE8 POP PUSH1 0x4 DUP6 SWAP1 SHR SWAP5 POP DUP1 PUSH2 0x338F SWAP1 PUSH2 0x4908 JUMP JUMPDEST SWAP1 POP PUSH2 0x32F9 JUMP JUMPDEST POP PUSH1 0x0 DUP5 EQ PUSH2 0x33DA JUMPI PUSH1 0x40 MLOAD PUSH32 0x8C379A000000000000000000000000000000000000000000000000000000000 DUP2 MSTORE PUSH1 0x4 ADD PUSH2 0x33D1 SWAP1 PUSH2 0x497D JUMP JUMPDEST PUSH1 0x40 MLOAD DUP1 SWAP2 SUB SWAP1 REVERT JUMPDEST DUP1 SWAP2 POP POP SWAP3 SWAP2 POP POP JUMP JUMPDEST PUSH1 0x60 DUP3 SELFBALANCE LT ISZERO PUSH2 0x3429 JUMPI PUSH1 0x40 MLOAD PUSH32 0x8C379A000000000000000000000000000000000000000000000000000000000 DUP2 MSTORE PUSH1 0x4 ADD PUSH2 0x3420 SWAP1 PUSH2 0x4A0F JUMP JUMPDEST PUSH1 0x40 MLOAD DUP1 SWAP2 SUB SWAP1 REVERT JUMPDEST PUSH1 0x0 DUP1 DUP7 PUSH20 0xFFFFFFFFFFFFFFFFFFFFFFFFFFFFFFFFFFFFFFFF AND DUP6 DUP8 PUSH1 0x40 MLOAD PUSH2 0x3452 SWAP2 SWAP1 PUSH2 0x4A76 JUMP JUMPDEST PUSH1 0x0 PUSH1 0x40 MLOAD DUP1 DUP4 SUB DUP2 DUP6 DUP8 GAS CALL SWAP3 POP POP POP RETURNDATASIZE DUP1 PUSH1 0x0 DUP2 EQ PUSH2 0x348F JUMPI PUSH1 0x40 MLOAD SWAP2 POP PUSH1 0x1F NOT PUSH1 0x3F RETURNDATASIZE ADD AND DUP3 ADD PUSH1 0x40 MSTORE RETURNDATASIZE DUP3 MSTORE RETURNDATASIZE PUSH1 0x0 PUSH1 0x20 DUP5 ADD RETURNDATACOPY PUSH2 0x3494 JUMP JUMPDEST PUSH1 0x60 SWAP2 POP JUMPDEST POP SWAP2 POP SWAP2 POP PUSH2 0x34A5 DUP8 DUP4 DUP4 DUP8 PUSH2 0x34B1 JUMP JUMPDEST SWAP3 POP POP POP SWAP5 SWAP4 POP POP POP POP JUMP JUMPDEST PUSH1 0x60 DUP4 ISZERO PUSH2 0x3513 JUMPI PUSH1 0x0 DUP4 MLOAD SUB PUSH2 0x350B JUMPI PUSH2 0x34CB DUP6 PUSH2 0x3526 JUMP JUMPDEST PUSH2 0x350A JUMPI PUSH1 0x40 MLOAD PUSH32 0x8C379A000000000000000000000000000000000000000000000000000000000 DUP2 MSTORE PUSH1 0x4 ADD PUSH2 0x3501 SWAP1 PUSH2 0x4AD9 JUMP JUMPDEST PUSH1 0x40 MLOAD DUP1 SWAP2 SUB SWAP1 REVERT JUMPDEST JUMPDEST DUP3 SWAP1 POP PUSH2 0x351E JUMP JUMPDEST PUSH2 0x351D DUP4 DUP4 PUSH2 0x3549 JUMP JUMPDEST JUMPDEST SWAP5 SWAP4 POP POP POP POP JUMP JUMPDEST PUSH1 0x0 DUP1 DUP3 PUSH20 0xFFFFFFFFFFFFFFFFFFFFFFFFFFFFFFFFFFFFFFFF AND EXTCODESIZE GT SWAP1 POP SWAP2 SWAP1 POP JUMP JUMPDEST PUSH1 0x0 DUP3 MLOAD GT ISZERO PUSH2 0x355C JUMPI DUP2 MLOAD DUP1 DUP4 PUSH1 0x20 ADD REVERT JUMPDEST DUP1 PUSH1 0x40 MLOAD PUSH32 0x8C379A000000000000000000000000000000000000000000000000000000000 DUP2 MSTORE PUSH1 0x4 ADD PUSH2 0x3590 SWAP2 SWAP1 PUSH2 0x48B7 JUMP JUMPDEST PUSH1 0x40 MLOAD DUP1 SWAP2 SUB SWAP1 REVERT JUMPDEST PUSH1 0x40 MLOAD DUP1 PUSH1 0x60 ADD PUSH1 0x40 MSTORE DUP1 PUSH1 0x0 DUP2 MSTORE PUSH1 0x20 ADD PUSH1 0x0 DUP2 MSTORE PUSH1 0x20 ADD PUSH1 0x0 DUP2 MSTORE POP SWAP1 JUMP JUMPDEST PUSH1 0x40 MLOAD DUP1 PUSH2 0x100 ADD PUSH1 0x40 MSTORE DUP1 PUSH1 0x0 DUP2 MSTORE PUSH1 0x20 ADD PUSH1 0x0 ISZERO ISZERO DUP2 MSTORE PUSH1 0x20 ADD PUSH1 0x0 DUP2 MSTORE PUSH1 0x20 ADD PUSH1 0x0 PUSH1 0xFF AND DUP2 MSTORE PUSH1 0x20 ADD PUSH1 0x0 DUP2 MSTORE PUSH1 0x20 ADD PUSH1 0x0 DUP2 MSTORE PUSH1 0x20 ADD PUSH1 0x0 DUP2 MSTORE PUSH1 0x20 ADD PUSH1 0x0 DUP2 MSTORE POP SWAP1 JUMP JUMPDEST DUP3 DUP1 SLOAD DUP3 DUP3 SSTORE SWAP1 PUSH1 0x0 MSTORE PUSH1 0x20 PUSH1 0x0 KECCAK256 SWAP1 DUP2 ADD SWAP3 DUP3 ISZERO PUSH2 0x364C JUMPI SWAP2 PUSH1 0x20 MUL DUP3 ADD JUMPDEST DUP3 DUP2 GT ISZERO PUSH2 0x364B JUMPI DUP3 MLOAD DUP3 SWAP1 PUSH8 0xFFFFFFFFFFFFFFFF AND SWAP1 SSTORE SWAP2 PUSH1 0x20 ADD SWAP2 SWAP1 PUSH1 0x1 ADD SWAP1 PUSH2 0x3624 JUMP JUMPDEST JUMPDEST POP SWAP1 POP PUSH2 0x3659 SWAP2 SWAP1 PUSH2 0x373C JUMP JUMPDEST POP SWAP1 JUMP JUMPDEST DUP3 DUP1 SLOAD DUP3 DUP3 SSTORE SWAP1 PUSH1 0x0 MSTORE PUSH1 0x20 PUSH1 0x0 KECCAK256 SWAP1 DUP2 ADD SWAP3 DUP3 ISZERO PUSH2 0x36A6 JUMPI SWAP2 PUSH1 0x20 MUL DUP3 ADD JUMPDEST DUP3 DUP2 GT ISZERO PUSH2 0x36A5 JUMPI DUP3 MLOAD DUP3 SWAP1 PUSH9 0xFFFFFFFFFFFFFFFFFF AND SWAP1 SSTORE SWAP2 PUSH1 0x20 ADD SWAP2 SWAP1 PUSH1 0x1 ADD SWAP1 PUSH2 0x367D JUMP JUMPDEST JUMPDEST POP SWAP1 POP PUSH2 0x36B3 SWAP2 SWAP1 PUSH2 0x373C JUMP JUMPDEST POP SWAP1 JUMP JUMPDEST DUP3 DUP1 SLOAD DUP3 DUP3 SSTORE SWAP1 PUSH1 0x0 MSTORE PUSH1 0x20 PUSH1 0x0 KECCAK256 SWAP1 DUP2 ADD SWAP3 DUP3 ISZERO PUSH2 0x36F9 JUMPI SWAP2 PUSH1 0x20 MUL DUP3 ADD JUMPDEST DUP3 DUP2 GT ISZERO PUSH2 0x36F8 JUMPI DUP3 MLOAD DUP3 SWAP1 PUSH2 0xFFFF AND SWAP1 SSTORE SWAP2 PUSH1 0x20 ADD SWAP2 SWAP1 PUSH1 0x1 ADD SWAP1 PUSH2 0x36D7 JUMP JUMPDEST JUMPDEST POP SWAP1 POP PUSH2 0x3706 SWAP2 SWAP1 PUSH2 0x373C JUMP JUMPDEST POP SWAP1 JUMP JUMPDEST PUSH1 0x40 MLOAD DUP1 PUSH1 0xA0 ADD PUSH1 0x40 MSTORE DUP1 PUSH1 0x0 PUSH1 0xFF AND DUP2 MSTORE PUSH1 0x20 ADD PUSH1 0x0 DUP2 MSTORE PUSH1 0x20 ADD PUSH1 0x0 DUP2 MSTORE PUSH1 0x20 ADD PUSH1 0x0 DUP2 MSTORE PUSH1 0x20 ADD PUSH1 0x0 DUP2 MSTORE POP SWAP1 JUMP JUMPDEST JUMPDEST DUP1 DUP3 GT ISZERO PUSH2 0x3755 JUMPI PUSH1 0x0 DUP2 PUSH1 0x0 SWAP1 SSTORE POP PUSH1 0x1 ADD PUSH2 0x373D JUMP JUMPDEST POP SWAP1 JUMP JUMPDEST PUSH1 0x0 DUP1 REVERT JUMPDEST PUSH1 0x0 PUSH32 0xFFFFFFFF00000000000000000000000000000000000000000000000000000000 DUP3 AND SWAP1 POP SWAP2 SWAP1 POP JUMP JUMPDEST PUSH2 0x3793 DUP2 PUSH2 0x375E JUMP JUMPDEST DUP2 EQ PUSH2 0x379E JUMPI PUSH1 0x0 DUP1 REVERT JUMPDEST POP JUMP JUMPDEST PUSH1 0x0 DUP2 CALLDATALOAD SWAP1 POP PUSH2 0x37B0 DUP2 PUSH2 0x378A JUMP JUMPDEST SWAP3 SWAP2 POP POP JUMP JUMPDEST PUSH1 0x0 PUSH1 0x20 DUP3 DUP5 SUB SLT ISZERO PUSH2 0x37CC JUMPI PUSH2 0x37CB PUSH2 0x3759 JUMP JUMPDEST JUMPDEST PUSH1 0x0 PUSH2 0x37DA DUP5 DUP3 DUP6 ADD PUSH2 0x37A1 JUMP JUMPDEST SWAP2 POP POP SWAP3 SWAP2 POP POP JUMP JUMPDEST PUSH1 0x0 DUP2 ISZERO ISZERO SWAP1 POP SWAP2 SWAP1 POP JUMP JUMPDEST PUSH2 0x37F8 DUP2 PUSH2 0x37E3 JUMP JUMPDEST DUP3 MSTORE POP POP JUMP JUMPDEST PUSH1 0x0 PUSH1 0x20 DUP3 ADD SWAP1 POP PUSH2 0x3813 PUSH1 0x0 DUP4 ADD DUP5 PUSH2 0x37EF JUMP JUMPDEST SWAP3 SWAP2 POP POP JUMP JUMPDEST PUSH1 0x0 DUP2 SWAP1 POP SWAP2 SWAP1 POP JUMP JUMPDEST PUSH2 0x382C DUP2 PUSH2 0x3819 JUMP JUMPDEST DUP3 MSTORE POP POP JUMP JUMPDEST PUSH1 0x0 PUSH1 0x20 DUP3 ADD SWAP1 POP PUSH2 0x3847 PUSH1 0x0 DUP4 ADD DUP5 PUSH2 0x3823 JUMP JUMPDEST SWAP3 SWAP2 POP POP JUMP JUMPDEST PUSH1 0x0 PUSH1 0xFF DUP3 AND SWAP1 POP SWAP2 SWAP1 POP JUMP JUMPDEST PUSH2 0x3863 DUP2 PUSH2 0x384D JUMP JUMPDEST DUP2 EQ PUSH2 0x386E JUMPI PUSH1 0x0 DUP1 REVERT JUMPDEST POP JUMP JUMPDEST PUSH1 0x0 DUP2 CALLDATALOAD SWAP1 POP PUSH2 0x3880 DUP2 PUSH2 0x385A JUMP JUMPDEST SWAP3 SWAP2 POP POP JUMP JUMPDEST PUSH1 0x0 PUSH1 0x20 DUP3 DUP5 SUB SLT ISZERO PUSH2 0x389C JUMPI PUSH2 0x389B PUSH2 0x3759 JUMP JUMPDEST JUMPDEST PUSH1 0x0 PUSH2 0x38AA DUP5 DUP3 DUP6 ADD PUSH2 0x3871 JUMP JUMPDEST SWAP2 POP POP SWAP3 SWAP2 POP POP JUMP JUMPDEST PUSH2 0x38BC DUP2 PUSH2 0x3819 JUMP JUMPDEST DUP2 EQ PUSH2 0x38C7 JUMPI PUSH1 0x0 DUP1 REVERT JUMPDEST POP JUMP JUMPDEST PUSH1 0x0 DUP2 CALLDATALOAD SWAP1 POP PUSH2 0x38D9 DUP2 PUSH2 0x38B3 JUMP JUMPDEST SWAP3 SWAP2 POP POP JUMP JUMPDEST PUSH1 0x0 DUP1 PUSH1 0x40 DUP4 DUP6 SUB SLT ISZERO PUSH2 0x38F6 JUMPI PUSH2 0x38F5 PUSH2 0x3759 JUMP JUMPDEST JUMPDEST PUSH1 0x0 PUSH2 0x3904 DUP6 DUP3 DUP7 ADD PUSH2 0x38CA JUMP JUMPDEST SWAP3 POP POP PUSH1 0x20 PUSH2 0x3915 DUP6 DUP3 DUP7 ADD PUSH2 0x3871 JUMP JUMPDEST SWAP2 POP POP SWAP3 POP SWAP3 SWAP1 POP JUMP JUMPDEST PUSH1 0x0 PUSH1 0x20 DUP3 DUP5 SUB SLT ISZERO PUSH2 0x3935 JUMPI PUSH2 0x3934 PUSH2 0x3759 JUMP JUMPDEST JUMPDEST PUSH1 0x0 PUSH2 0x3943 DUP5 DUP3 DUP6 ADD PUSH2 0x38CA JUMP JUMPDEST SWAP2 POP POP SWAP3 SWAP2 POP POP JUMP JUMPDEST PUSH2 0x3955 DUP2 PUSH2 0x384D JUMP JUMPDEST DUP3 MSTORE POP POP JUMP JUMPDEST PUSH1 0x0 PUSH1 0xA0 DUP3 ADD SWAP1 POP PUSH2 0x3970 PUSH1 0x0 DUP4 ADD DUP9 PUSH2 0x394C JUMP JUMPDEST PUSH2 0x397D PUSH1 0x20 DUP4 ADD DUP8 PUSH2 0x3823 JUMP JUMPDEST PUSH2 0x398A PUSH1 0x40 DUP4 ADD DUP7 PUSH2 0x3823 JUMP JUMPDEST PUSH2 0x3997 PUSH1 0x60 DUP4 ADD DUP6 PUSH2 0x3823 JUMP JUMPDEST PUSH2 0x39A4 PUSH1 0x80 DUP4 ADD DUP5 PUSH2 0x3823 JUMP JUMPDEST SWAP7 SWAP6 POP POP POP POP POP POP JUMP JUMPDEST PUSH1 0x0 PUSH20 0xFFFFFFFFFFFFFFFFFFFFFFFFFFFFFFFFFFFFFFFF DUP3 AND SWAP1 POP SWAP2 SWAP1 POP JUMP JUMPDEST PUSH1 0x0 DUP2 SWAP1 POP SWAP2 SWAP1 POP JUMP JUMPDEST PUSH1 0x0 PUSH2 0x39F3 PUSH2 0x39EE PUSH2 0x39E9 DUP5 PUSH2 0x39AE JUMP JUMPDEST PUSH2 0x39CE JUMP JUMPDEST PUSH2 0x39AE JUMP JUMPDEST SWAP1 POP SWAP2 SWAP1 POP JUMP JUMPDEST PUSH1 0x0 PUSH2 0x3A05 DUP3 PUSH2 0x39D8 JUMP JUMPDEST SWAP1 POP SWAP2 SWAP1 POP JUMP JUMPDEST PUSH1 0x0 PUSH2 0x3A17 DUP3 PUSH2 0x39FA JUMP JUMPDEST SWAP1 POP SWAP2 SWAP1 POP JUMP JUMPDEST PUSH2 0x3A27 DUP2 PUSH2 0x3A0C JUMP JUMPDEST DUP3 MSTORE POP POP JUMP JUMPDEST PUSH1 0x0 PUSH1 0x20 DUP3 ADD SWAP1 POP PUSH2 0x3A42 PUSH1 0x0 DUP4 ADD DUP5 PUSH2 0x3A1E JUMP JUMPDEST SWAP3 SWAP2 POP POP JUMP JUMPDEST PUSH1 0x0 DUP2 SWAP1 POP SWAP2 SWAP1 POP JUMP JUMPDEST PUSH2 0x3A5B DUP2 PUSH2 0x3A48 JUMP JUMPDEST DUP2 EQ PUSH2 0x3A66 JUMPI PUSH1 0x0 DUP1 REVERT JUMPDEST POP JUMP JUMPDEST PUSH1 0x0 DUP2 CALLDATALOAD SWAP1 POP PUSH2 0x3A78 DUP2 PUSH2 0x3A52 JUMP JUMPDEST SWAP3 SWAP2 POP POP JUMP JUMPDEST PUSH1 0x0 PUSH1 0x20 DUP3 DUP5 SUB SLT ISZERO PUSH2 0x3A94 JUMPI PUSH2 0x3A93 PUSH2 0x3759 JUMP JUMPDEST JUMPDEST PUSH1 0x0 PUSH2 0x3AA2 DUP5 DUP3 DUP6 ADD PUSH2 0x3A69 JUMP JUMPDEST SWAP2 POP POP SWAP3 SWAP2 POP POP JUMP JUMPDEST PUSH2 0x3AB4 DUP2 PUSH2 0x3A48 JUMP JUMPDEST DUP3 MSTORE POP POP JUMP JUMPDEST PUSH1 0x0 PUSH1 0x20 DUP3 ADD SWAP1 POP PUSH2 0x3ACF PUSH1 0x0 DUP4 ADD DUP5 PUSH2 0x3AAB JUMP JUMPDEST SWAP3 SWAP2 POP POP JUMP JUMPDEST PUSH1 0x0 PUSH2 0x3AE0 DUP3 PUSH2 0x39FA JUMP JUMPDEST SWAP1 POP SWAP2 SWAP1 POP JUMP JUMPDEST PUSH2 0x3AF0 DUP2 PUSH2 0x3AD5 JUMP JUMPDEST DUP3 MSTORE POP POP JUMP JUMPDEST PUSH1 0x0 PUSH1 0x20 DUP3 ADD SWAP1 POP PUSH2 0x3B0B PUSH1 0x0 DUP4 ADD DUP5 PUSH2 0x3AE7 JUMP JUMPDEST SWAP3 SWAP2 POP POP JUMP JUMPDEST PUSH1 0x0 PUSH2 0x3B1C DUP3 PUSH2 0x39AE JUMP JUMPDEST SWAP1 POP SWAP2 SWAP1 POP JUMP JUMPDEST PUSH2 0x3B2C DUP2 PUSH2 0x3B11 JUMP JUMPDEST DUP2 EQ PUSH2 0x3B37 JUMPI PUSH1 0x0 DUP1 REVERT JUMPDEST POP JUMP JUMPDEST PUSH1 0x0 DUP2 CALLDATALOAD SWAP1 POP PUSH2 0x3B49 DUP2 PUSH2 0x3B23 JUMP JUMPDEST SWAP3 SWAP2 POP POP JUMP JUMPDEST PUSH1 0x0 PUSH1 0x20 DUP3 DUP5 SUB SLT ISZERO PUSH2 0x3B65 JUMPI PUSH2 0x3B64 PUSH2 0x3759 JUMP JUMPDEST JUMPDEST PUSH1 0x0 PUSH2 0x3B73 DUP5 DUP3 DUP6 ADD PUSH2 0x3B3A JUMP JUMPDEST SWAP2 POP POP SWAP3 SWAP2 POP POP JUMP JUMPDEST PUSH1 0x0 PUSH2 0x3B87 DUP3 PUSH2 0x39FA JUMP JUMPDEST SWAP1 POP SWAP2 SWAP1 POP JUMP JUMPDEST PUSH2 0x3B97 DUP2 PUSH2 0x3B7C JUMP JUMPDEST DUP3 MSTORE POP POP JUMP JUMPDEST PUSH1 0x0 PUSH1 0x20 DUP3 ADD SWAP1 POP PUSH2 0x3BB2 PUSH1 0x0 DUP4 ADD DUP5 PUSH2 0x3B8E JUMP JUMPDEST SWAP3 SWAP2 POP POP JUMP JUMPDEST PUSH2 0x3BC1 DUP2 PUSH2 0x3B11 JUMP JUMPDEST DUP3 MSTORE POP POP JUMP JUMPDEST PUSH1 0x0 PUSH1 0x20 DUP3 ADD SWAP1 POP PUSH2 0x3BDC PUSH1 0x0 DUP4 ADD DUP5 PUSH2 0x3BB8 JUMP JUMPDEST SWAP3 SWAP2 POP POP JUMP JUMPDEST PUSH1 0x0 DUP1 PUSH1 0x40 DUP4 DUP6 SUB SLT ISZERO PUSH2 0x3BF9 JUMPI PUSH2 0x3BF8 PUSH2 0x3759 JUMP JUMPDEST JUMPDEST PUSH1 0x0 PUSH2 0x3C07 DUP6 DUP3 DUP7 ADD PUSH2 0x3A69 JUMP JUMPDEST SWAP3 POP POP PUSH1 0x20 PUSH2 0x3C18 DUP6 DUP3 DUP7 ADD PUSH2 0x3B3A JUMP JUMPDEST SWAP2 POP POP SWAP3 POP SWAP3 SWAP1 POP JUMP JUMPDEST PUSH1 0x0 DUP1 PUSH1 0x40 DUP4 DUP6 SUB SLT ISZERO PUSH2 0x3C39 JUMPI PUSH2 0x3C38 PUSH2 0x3759 JUMP JUMPDEST JUMPDEST PUSH1 0x0 PUSH2 0x3C47 DUP6 DUP3 DUP7 ADD PUSH2 0x38CA JUMP JUMPDEST SWAP3 POP POP PUSH1 0x20 PUSH2 0x3C58 DUP6 DUP3 DUP7 ADD PUSH2 0x38CA JUMP JUMPDEST SWAP2 POP POP SWAP3 POP SWAP3 SWAP1 POP JUMP JUMPDEST PUSH1 0x0 PUSH1 0x60 DUP3 ADD SWAP1 POP PUSH2 0x3C77 PUSH1 0x0 DUP4 ADD DUP7 PUSH2 0x3823 JUMP JUMPDEST PUSH2 0x3C84 PUSH1 0x20 DUP4 ADD DUP6 PUSH2 0x3823 JUMP JUMPDEST PUSH2 0x3C91 PUSH1 0x40 DUP4 ADD DUP5 PUSH2 0x3823 JUMP JUMPDEST SWAP5 SWAP4 POP POP POP POP JUMP JUMPDEST PUSH1 0x0 DUP1 PUSH1 0x40 DUP4 DUP6 SUB SLT ISZERO PUSH2 0x3CB0 JUMPI PUSH2 0x3CAF PUSH2 0x3759 JUMP JUMPDEST JUMPDEST PUSH1 0x0 PUSH2 0x3CBE DUP6 DUP3 DUP7 ADD PUSH2 0x3B3A JUMP JUMPDEST SWAP3 POP POP PUSH1 0x20 PUSH2 0x3CCF DUP6 DUP3 DUP7 ADD PUSH2 0x3871 JUMP JUMPDEST SWAP2 POP POP SWAP3 POP SWAP3 SWAP1 POP JUMP JUMPDEST PUSH1 0x0 DUP1 PUSH1 0x40 DUP4 DUP6 SUB SLT ISZERO PUSH2 0x3CF0 JUMPI PUSH2 0x3CEF PUSH2 0x3759 JUMP JUMPDEST JUMPDEST PUSH1 0x0 PUSH2 0x3CFE DUP6 DUP3 DUP7 ADD PUSH2 0x3B3A JUMP JUMPDEST SWAP3 POP POP PUSH1 0x20 PUSH2 0x3D0F DUP6 DUP3 DUP7 ADD PUSH2 0x38CA JUMP JUMPDEST SWAP2 POP POP SWAP3 POP SWAP3 SWAP1 POP JUMP JUMPDEST PUSH1 0x0 DUP1 PUSH1 0x40 DUP4 DUP6 SUB SLT ISZERO PUSH2 0x3D30 JUMPI PUSH2 0x3D2F PUSH2 0x3759 JUMP JUMPDEST JUMPDEST PUSH1 0x0 PUSH2 0x3D3E DUP6 DUP3 DUP7 ADD PUSH2 0x3871 JUMP JUMPDEST SWAP3 POP POP PUSH1 0x20 PUSH2 0x3D4F DUP6 DUP3 DUP7 ADD PUSH2 0x38CA JUMP JUMPDEST SWAP2 POP POP SWAP3 POP SWAP3 SWAP1 POP JUMP JUMPDEST PUSH1 0x0 DUP1 PUSH1 0x0 DUP1 PUSH1 0x0 PUSH1 0xA0 DUP7 DUP9 SUB SLT ISZERO PUSH2 0x3D75 JUMPI PUSH2 0x3D74 PUSH2 0x3759 JUMP JUMPDEST JUMPDEST PUSH1 0x0 PUSH2 0x3D83 DUP9 DUP3 DUP10 ADD PUSH2 0x3B3A JUMP JUMPDEST SWAP6 POP POP PUSH1 0x20 PUSH2 0x3D94 DUP9 DUP3 DUP10 ADD PUSH2 0x3B3A JUMP JUMPDEST SWAP5 POP POP PUSH1 0x40 PUSH2 0x3DA5 DUP9 DUP3 DUP10 ADD PUSH2 0x3B3A JUMP JUMPDEST SWAP4 POP POP PUSH1 0x60 PUSH2 0x3DB6 DUP9 DUP3 DUP10 ADD PUSH2 0x3B3A JUMP JUMPDEST SWAP3 POP POP PUSH1 0x80 PUSH2 0x3DC7 DUP9 DUP3 DUP10 ADD PUSH2 0x38CA JUMP JUMPDEST SWAP2 POP POP SWAP3 SWAP6 POP SWAP3 SWAP6 SWAP1 SWAP4 POP JUMP JUMPDEST PUSH1 0x0 PUSH2 0x100 DUP3 ADD SWAP1 POP PUSH2 0x3DEA PUSH1 0x0 DUP4 ADD DUP12 PUSH2 0x3823 JUMP JUMPDEST PUSH2 0x3DF7 PUSH1 0x20 DUP4 ADD DUP11 PUSH2 0x37EF JUMP JUMPDEST PUSH2 0x3E04 PUSH1 0x40 DUP4 ADD DUP10 PUSH2 0x3823 JUMP JUMPDEST PUSH2 0x3E11 PUSH1 0x60 DUP4 ADD DUP9 PUSH2 0x394C JUMP JUMPDEST PUSH2 0x3E1E PUSH1 0x80 DUP4 ADD DUP8 PUSH2 0x3823 JUMP JUMPDEST PUSH2 0x3E2B PUSH1 0xA0 DUP4 ADD DUP7 PUSH2 0x3823 JUMP JUMPDEST PUSH2 0x3E38 PUSH1 0xC0 DUP4 ADD DUP6 PUSH2 0x3823 JUMP JUMPDEST PUSH2 0x3E45 PUSH1 0xE0 DUP4 ADD DUP5 PUSH2 0x3823 JUMP JUMPDEST SWAP10 SWAP9 POP POP POP POP POP POP POP POP POP JUMP JUMPDEST PUSH32 0x4E487B7100000000000000000000000000000000000000000000000000000000 PUSH1 0x0 MSTORE PUSH1 0x32 PUSH1 0x4 MSTORE PUSH1 0x24 PUSH1 0x0 REVERT JUMPDEST PUSH32 0x4E487B7100000000000000000000000000000000000000000000000000000000 PUSH1 0x0 MSTORE PUSH1 0x11 PUSH1 0x4 MSTORE PUSH1 0x24 PUSH1 0x0 REVERT JUMPDEST PUSH1 0x0 PUSH2 0x3EBB DUP3 PUSH2 0x3819 JUMP JUMPDEST SWAP2 POP PUSH2 0x3EC6 DUP4 PUSH2 0x3819 JUMP JUMPDEST SWAP3 POP DUP3 DUP3 SUB SWAP1 POP DUP2 DUP2 GT ISZERO PUSH2 0x3EDE JUMPI PUSH2 0x3EDD PUSH2 0x3E81 JUMP JUMPDEST JUMPDEST SWAP3 SWAP2 POP POP JUMP JUMPDEST PUSH1 0x0 PUSH2 0x3EEF DUP3 PUSH2 0x3819 JUMP JUMPDEST SWAP2 POP PUSH2 0x3EFA DUP4 PUSH2 0x3819 JUMP JUMPDEST SWAP3 POP DUP3 DUP3 MUL PUSH2 0x3F08 DUP2 PUSH2 0x3819 JUMP JUMPDEST SWAP2 POP DUP3 DUP3 DIV DUP5 EQ DUP4 ISZERO OR PUSH2 0x3F1F JUMPI PUSH2 0x3F1E PUSH2 0x3E81 JUMP JUMPDEST JUMPDEST POP SWAP3 SWAP2 POP POP JUMP JUMPDEST PUSH32 0x4E487B7100000000000000000000000000000000000000000000000000000000 PUSH1 0x0 MSTORE PUSH1 0x12 PUSH1 0x4 MSTORE PUSH1 0x24 PUSH1 0x0 REVERT JUMPDEST PUSH1 0x0 PUSH2 0x3F60 DUP3 PUSH2 0x3819 JUMP JUMPDEST SWAP2 POP PUSH2 0x3F6B DUP4 PUSH2 0x3819 JUMP JUMPDEST SWAP3 POP DUP3 PUSH2 0x3F7B JUMPI PUSH2 0x3F7A PUSH2 0x3F26 JUMP JUMPDEST JUMPDEST DUP3 DUP3 DIV SWAP1 POP SWAP3 SWAP2 POP POP JUMP JUMPDEST PUSH1 0x0 PUSH2 0x3F91 DUP3 PUSH2 0x3819 JUMP JUMPDEST SWAP2 POP PUSH2 0x3F9C DUP4 PUSH2 0x3819 JUMP JUMPDEST SWAP3 POP DUP3 DUP3 ADD SWAP1 POP DUP1 DUP3 GT ISZERO PUSH2 0x3FB4 JUMPI PUSH2 0x3FB3 PUSH2 0x3E81 JUMP JUMPDEST JUMPDEST SWAP3 SWAP2 POP POP JUMP JUMPDEST PUSH1 0x0 DUP3 DUP3 MSTORE PUSH1 0x20 DUP3 ADD SWAP1 POP SWAP3 SWAP2 POP POP JUMP JUMPDEST PUSH32 0x4561726E3A20696E73756666696369656E7420616D6F756E7400000000000000 PUSH1 0x0 DUP3 ADD MSTORE POP JUMP JUMPDEST PUSH1 0x0 PUSH2 0x4001 PUSH1 0x19 DUP4 PUSH2 0x3FBA JUMP JUMPDEST SWAP2 POP PUSH2 0x400C DUP3 PUSH2 0x3FCB JUMP JUMPDEST PUSH1 0x20 DUP3 ADD SWAP1 POP SWAP2 SWAP1 POP JUMP JUMPDEST PUSH1 0x0 PUSH1 0x20 DUP3 ADD SWAP1 POP DUP2 DUP2 SUB PUSH1 0x0 DUP4 ADD MSTORE PUSH2 0x4030 DUP2 PUSH2 0x3FF4 JUMP JUMPDEST SWAP1 POP SWAP2 SWAP1 POP JUMP JUMPDEST PUSH32 0x4561726E3A20696E76616C6964207374616B6520747970650000000000000000 PUSH1 0x0 DUP3 ADD MSTORE POP JUMP JUMPDEST PUSH1 0x0 PUSH2 0x406D PUSH1 0x18 DUP4 PUSH2 0x3FBA JUMP JUMPDEST SWAP2 POP PUSH2 0x4078 DUP3 PUSH2 0x4037 JUMP JUMPDEST PUSH1 0x20 DUP3 ADD SWAP1 POP SWAP2 SWAP1 POP JUMP JUMPDEST PUSH1 0x0 PUSH1 0x20 DUP3 ADD SWAP1 POP DUP2 DUP2 SUB PUSH1 0x0 DUP4 ADD MSTORE PUSH2 0x409C DUP2 PUSH2 0x4060 JUMP JUMPDEST SWAP1 POP SWAP2 SWAP1 POP JUMP JUMPDEST PUSH1 0x0 PUSH1 0x40 DUP3 ADD SWAP1 POP PUSH2 0x40B8 PUSH1 0x0 DUP4 ADD DUP6 PUSH2 0x3BB8 JUMP JUMPDEST PUSH2 0x40C5 PUSH1 0x20 DUP4 ADD DUP5 PUSH2 0x3823 JUMP JUMPDEST SWAP4 SWAP3 POP POP POP JUMP JUMPDEST PUSH2 0x40D5 DUP2 PUSH2 0x37E3 JUMP JUMPDEST DUP2 EQ PUSH2 0x40E0 JUMPI PUSH1 0x0 DUP1 REVERT JUMPDEST POP JUMP JUMPDEST PUSH1 0x0 DUP2 MLOAD SWAP1 POP PUSH2 0x40F2 DUP2 PUSH2 0x40CC JUMP JUMPDEST SWAP3 SWAP2 POP POP JUMP JUMPDEST PUSH1 0x0 PUSH1 0x20 DUP3 DUP5 SUB SLT ISZERO PUSH2 0x410E JUMPI PUSH2 0x410D PUSH2 0x3759 JUMP JUMPDEST JUMPDEST PUSH1 0x0 PUSH2 0x411C DUP5 DUP3 DUP6 ADD PUSH2 0x40E3 JUMP JUMPDEST SWAP2 POP POP SWAP3 SWAP2 POP POP JUMP JUMPDEST PUSH1 0x0 PUSH2 0x4130 DUP3 PUSH2 0x3819 JUMP JUMPDEST SWAP2 POP PUSH32 0xFFFFFFFFFFFFFFFFFFFFFFFFFFFFFFFFFFFFFFFFFFFFFFFFFFFFFFFFFFFFFFFF DUP3 SUB PUSH2 0x4162 JUMPI PUSH2 0x4161 PUSH2 0x3E81 JUMP JUMPDEST JUMPDEST PUSH1 0x1 DUP3 ADD SWAP1 POP SWAP2 SWAP1 POP JUMP JUMPDEST PUSH1 0x0 PUSH1 0xA0 DUP3 ADD SWAP1 POP PUSH2 0x4182 PUSH1 0x0 DUP4 ADD DUP9 PUSH2 0x3823 JUMP JUMPDEST PUSH2 0x418F PUSH1 0x20 DUP4 ADD DUP8 PUSH2 0x3823 JUMP JUMPDEST PUSH2 0x419C PUSH1 0x40 DUP4 ADD DUP7 PUSH2 0x394C JUMP JUMPDEST PUSH2 0x41A9 PUSH1 0x60 DUP4 ADD DUP6 PUSH2 0x3823 JUMP JUMPDEST PUSH2 0x41B6 PUSH1 0x80 DUP4 ADD DUP5 PUSH2 0x3823 JUMP JUMPDEST SWAP7 SWAP6 POP POP POP POP POP POP JUMP JUMPDEST PUSH32 0x416363657373436F6E74726F6C3A2063616E206F6E6C792072656E6F756E6365 PUSH1 0x0 DUP3 ADD MSTORE PUSH32 0x20726F6C657320666F722073656C660000000000000000000000000000000000 PUSH1 0x20 DUP3 ADD MSTORE POP JUMP JUMPDEST PUSH1 0x0 PUSH2 0x421C PUSH1 0x2F DUP4 PUSH2 0x3FBA JUMP JUMPDEST SWAP2 POP PUSH2 0x4227 DUP3 PUSH2 0x41C0 JUMP JUMPDEST PUSH1 0x40 DUP3 ADD SWAP1 POP SWAP2 SWAP1 POP JUMP JUMPDEST PUSH1 0x0 PUSH1 0x20 DUP3 ADD SWAP1 POP DUP2 DUP2 SUB PUSH1 0x0 DUP4 ADD MSTORE PUSH2 0x424B DUP2 PUSH2 0x420F JUMP JUMPDEST SWAP1 POP SWAP2 SWAP1 POP JUMP JUMPDEST PUSH1 0x0 PUSH2 0x425D DUP3 PUSH2 0x384D JUMP JUMPDEST SWAP2 POP PUSH1 0xFF DUP3 SUB PUSH2 0x4270 JUMPI PUSH2 0x426F PUSH2 0x3E81 JUMP JUMPDEST JUMPDEST PUSH1 0x1 DUP3 ADD SWAP1 POP SWAP2 SWAP1 POP JUMP JUMPDEST PUSH32 0x4561726E3A20696E76616C6964207374616B696E670000000000000000000000 PUSH1 0x0 DUP3 ADD MSTORE POP JUMP JUMPDEST PUSH1 0x0 PUSH2 0x42B1 PUSH1 0x15 DUP4 PUSH2 0x3FBA JUMP JUMPDEST SWAP2 POP PUSH2 0x42BC DUP3 PUSH2 0x427B JUMP JUMPDEST PUSH1 0x20 DUP3 ADD SWAP1 POP SWAP2 SWAP1 POP JUMP JUMPDEST PUSH1 0x0 PUSH1 0x20 DUP3 ADD SWAP1 POP DUP2 DUP2 SUB PUSH1 0x0 DUP4 ADD MSTORE PUSH2 0x42E0 DUP2 PUSH2 0x42A4 JUMP JUMPDEST SWAP1 POP SWAP2 SWAP1 POP JUMP JUMPDEST PUSH32 0x4561726E3A206E6F20616D6F756E7420746F2077697468647261770000000000 PUSH1 0x0 DUP3 ADD MSTORE POP JUMP JUMPDEST PUSH1 0x0 PUSH2 0x431D PUSH1 0x1B DUP4 PUSH2 0x3FBA JUMP JUMPDEST SWAP2 POP PUSH2 0x4328 DUP3 PUSH2 0x42E7 JUMP JUMPDEST PUSH1 0x20 DUP3 ADD SWAP1 POP SWAP2 SWAP1 POP JUMP JUMPDEST PUSH1 0x0 PUSH1 0x20 DUP3 ADD SWAP1 POP DUP2 DUP2 SUB PUSH1 0x0 DUP4 ADD MSTORE PUSH2 0x434C DUP2 PUSH2 0x4310 JUMP JUMPDEST SWAP1 POP SWAP2 SWAP1 POP JUMP JUMPDEST PUSH1 0x0 PUSH1 0x40 DUP3 ADD SWAP1 POP PUSH2 0x4368 PUSH1 0x0 DUP4 ADD DUP6 PUSH2 0x3823 JUMP JUMPDEST PUSH2 0x4375 PUSH1 0x20 DUP4 ADD DUP5 PUSH2 0x3823 JUMP JUMPDEST SWAP4 SWAP3 POP POP POP JUMP JUMPDEST PUSH1 0x0 DUP2 MLOAD SWAP1 POP PUSH2 0x438B DUP2 PUSH2 0x38B3 JUMP JUMPDEST SWAP3 SWAP2 POP POP JUMP JUMPDEST PUSH1 0x0 PUSH1 0x20 DUP3 DUP5 SUB SLT ISZERO PUSH2 0x43A7 JUMPI PUSH2 0x43A6 PUSH2 0x3759 JUMP JUMPDEST JUMPDEST PUSH1 0x0 PUSH2 0x43B5 DUP5 DUP3 DUP6 ADD PUSH2 0x437C JUMP JUMPDEST SWAP2 POP POP SWAP3 SWAP2 POP POP JUMP JUMPDEST PUSH1 0x0 DUP2 SWAP1 POP SWAP3 SWAP2 POP POP JUMP JUMPDEST PUSH32 0x476F7665726E6F72000000000000000000000000000000000000000000000000 PUSH1 0x0 DUP3 ADD MSTORE POP JUMP JUMPDEST PUSH1 0x0 PUSH2 0x43FF PUSH1 0x8 DUP4 PUSH2 0x43BE JUMP JUMPDEST SWAP2 POP PUSH2 0x440A DUP3 PUSH2 0x43C9 JUMP JUMPDEST PUSH1 0x8 DUP3 ADD SWAP1 POP SWAP2 SWAP1 POP JUMP JUMPDEST PUSH1 0x0 PUSH2 0x4420 DUP3 PUSH2 0x43F2 JUMP JUMPDEST SWAP2 POP DUP2 SWAP1 POP SWAP2 SWAP1 POP JUMP JUMPDEST PUSH32 0x4561726E3A2063616C6C6572206973206E6F742074686520696E697469616C69 PUSH1 0x0 DUP3 ADD MSTORE PUSH32 0x7A65720000000000000000000000000000000000000000000000000000000000 PUSH1 0x20 DUP3 ADD MSTORE POP JUMP JUMPDEST PUSH1 0x0 PUSH2 0x4486 PUSH1 0x23 DUP4 PUSH2 0x3FBA JUMP JUMPDEST SWAP2 POP PUSH2 0x4491 DUP3 PUSH2 0x442A JUMP JUMPDEST PUSH1 0x40 DUP3 ADD SWAP1 POP SWAP2 SWAP1 POP JUMP JUMPDEST PUSH1 0x0 PUSH1 0x20 DUP3 ADD SWAP1 POP DUP2 DUP2 SUB PUSH1 0x0 DUP4 ADD MSTORE PUSH2 0x44B5 DUP2 PUSH2 0x4479 JUMP JUMPDEST SWAP1 POP SWAP2 SWAP1 POP JUMP JUMPDEST PUSH32 0x4561726E3A20696E76616C696420485944542061646472657373000000000000 PUSH1 0x0 DUP3 ADD MSTORE POP JUMP JUMPDEST PUSH1 0x0 PUSH2 0x44F2 PUSH1 0x1A DUP4 PUSH2 0x3FBA JUMP JUMPDEST SWAP2 POP PUSH2 0x44FD DUP3 PUSH2 0x44BC JUMP JUMPDEST PUSH1 0x20 DUP3 ADD SWAP1 POP SWAP2 SWAP1 POP JUMP JUMPDEST PUSH1 0x0 PUSH1 0x20 DUP3 ADD SWAP1 POP DUP2 DUP2 SUB PUSH1 0x0 DUP4 ADD MSTORE PUSH2 0x4521 DUP2 PUSH2 0x44E5 JUMP JUMPDEST SWAP1 POP SWAP2 SWAP1 POP JUMP JUMPDEST PUSH32 0x4561726E3A20696E76616C696420485947542061646472657373000000000000 PUSH1 0x0 DUP3 ADD MSTORE POP JUMP JUMPDEST PUSH1 0x0 PUSH2 0x455E PUSH1 0x1A DUP4 PUSH2 0x3FBA JUMP JUMPDEST SWAP2 POP PUSH2 0x4569 DUP3 PUSH2 0x4528 JUMP JUMPDEST PUSH1 0x20 DUP3 ADD SWAP1 POP SWAP2 SWAP1 POP JUMP JUMPDEST PUSH1 0x0 PUSH1 0x20 DUP3 ADD SWAP1 POP DUP2 DUP2 SUB PUSH1 0x0 DUP4 ADD MSTORE PUSH2 0x458D DUP2 PUSH2 0x4551 JUMP JUMPDEST SWAP1 POP SWAP2 SWAP1 POP JUMP JUMPDEST PUSH32 0x4561726E3A20696E76616C696420734859445420616464726573730000000000 PUSH1 0x0 DUP3 ADD MSTORE POP JUMP JUMPDEST PUSH1 0x0 PUSH2 0x45CA PUSH1 0x1B DUP4 PUSH2 0x3FBA JUMP JUMPDEST SWAP2 POP PUSH2 0x45D5 DUP3 PUSH2 0x4594 JUMP JUMPDEST PUSH1 0x20 DUP3 ADD SWAP1 POP SWAP2 SWAP1 POP JUMP JUMPDEST PUSH1 0x0 PUSH1 0x20 DUP3 ADD SWAP1 POP DUP2 DUP2 SUB PUSH1 0x0 DUP4 ADD MSTORE PUSH2 0x45F9 DUP2 PUSH2 0x45BD JUMP JUMPDEST SWAP1 POP SWAP2 SWAP1 POP JUMP JUMPDEST PUSH32 0x4561726E3A20696E76616C696420547265617375727920616464726573730000 PUSH1 0x0 DUP3 ADD MSTORE POP JUMP JUMPDEST PUSH1 0x0 PUSH2 0x4636 PUSH1 0x1E DUP4 PUSH2 0x3FBA JUMP JUMPDEST SWAP2 POP PUSH2 0x4641 DUP3 PUSH2 0x4600 JUMP JUMPDEST PUSH1 0x20 DUP3 ADD SWAP1 POP SWAP2 SWAP1 POP JUMP JUMPDEST PUSH1 0x0 PUSH1 0x20 DUP3 ADD SWAP1 POP DUP2 DUP2 SUB PUSH1 0x0 DUP4 ADD MSTORE PUSH2 0x4665 DUP2 PUSH2 0x4629 JUMP JUMPDEST SWAP1 POP SWAP2 SWAP1 POP JUMP JUMPDEST PUSH1 0x0 PUSH1 0x60 DUP3 ADD SWAP1 POP PUSH2 0x4681 PUSH1 0x0 DUP4 ADD DUP7 PUSH2 0x3BB8 JUMP JUMPDEST PUSH2 0x468E PUSH1 0x20 DUP4 ADD DUP6 PUSH2 0x3BB8 JUMP JUMPDEST PUSH2 0x469B PUSH1 0x40 DUP4 ADD DUP5 PUSH2 0x3823 JUMP JUMPDEST SWAP5 SWAP4 POP POP POP POP JUMP JUMPDEST PUSH32 0x5361666545524332303A204552433230206F7065726174696F6E20646964206E PUSH1 0x0 DUP3 ADD MSTORE PUSH32 0x6F74207375636365656400000000000000000000000000000000000000000000 PUSH1 0x20 DUP3 ADD MSTORE POP JUMP JUMPDEST PUSH1 0x0 PUSH2 0x46FF PUSH1 0x2A DUP4 PUSH2 0x3FBA JUMP JUMPDEST SWAP2 POP PUSH2 0x470A DUP3 PUSH2 0x46A3 JUMP JUMPDEST PUSH1 0x40 DUP3 ADD SWAP1 POP SWAP2 SWAP1 POP JUMP JUMPDEST PUSH1 0x0 PUSH1 0x20 DUP3 ADD SWAP1 POP DUP2 DUP2 SUB PUSH1 0x0 DUP4 ADD MSTORE PUSH2 0x472E DUP2 PUSH2 0x46F2 JUMP JUMPDEST SWAP1 POP SWAP2 SWAP1 POP JUMP JUMPDEST PUSH32 0x416363657373436F6E74726F6C3A206163636F756E7420000000000000000000 PUSH1 0x0 DUP3 ADD MSTORE POP JUMP JUMPDEST PUSH1 0x0 PUSH2 0x476B PUSH1 0x17 DUP4 PUSH2 0x43BE JUMP JUMPDEST SWAP2 POP PUSH2 0x4776 DUP3 PUSH2 0x4735 JUMP JUMPDEST PUSH1 0x17 DUP3 ADD SWAP1 POP SWAP2 SWAP1 POP JUMP JUMPDEST PUSH1 0x0 DUP2 MLOAD SWAP1 POP SWAP2 SWAP1 POP JUMP JUMPDEST PUSH1 0x0 JUMPDEST DUP4 DUP2 LT ISZERO PUSH2 0x47AA JUMPI DUP1 DUP3 ADD MLOAD DUP2 DUP5 ADD MSTORE PUSH1 0x20 DUP2 ADD SWAP1 POP PUSH2 0x478F JUMP JUMPDEST PUSH1 0x0 DUP5 DUP5 ADD MSTORE POP POP POP POP JUMP JUMPDEST PUSH1 0x0 PUSH2 0x47C1 DUP3 PUSH2 0x4781 JUMP JUMPDEST PUSH2 0x47CB DUP2 DUP6 PUSH2 0x43BE JUMP JUMPDEST SWAP4 POP PUSH2 0x47DB DUP2 DUP6 PUSH1 0x20 DUP7 ADD PUSH2 0x478C JUMP JUMPDEST DUP1 DUP5 ADD SWAP2 POP POP SWAP3 SWAP2 POP POP JUMP JUMPDEST PUSH32 0x206973206D697373696E6720726F6C6520000000000000000000000000000000 PUSH1 0x0 DUP3 ADD MSTORE POP JUMP JUMPDEST PUSH1 0x0 PUSH2 0x481D PUSH1 0x11 DUP4 PUSH2 0x43BE JUMP JUMPDEST SWAP2 POP PUSH2 0x4828 DUP3 PUSH2 0x47E7 JUMP JUMPDEST PUSH1 0x11 DUP3 ADD SWAP1 POP SWAP2 SWAP1 POP JUMP JUMPDEST PUSH1 0x0 PUSH2 0x483E DUP3 PUSH2 0x475E JUMP JUMPDEST SWAP2 POP PUSH2 0x484A DUP3 DUP6 PUSH2 0x47B6 JUMP JUMPDEST SWAP2 POP PUSH2 0x4855 DUP3 PUSH2 0x4810 JUMP JUMPDEST SWAP2 POP PUSH2 0x4861 DUP3 DUP5 PUSH2 0x47B6 JUMP JUMPDEST SWAP2 POP DUP2 SWAP1 POP SWAP4 SWAP3 POP POP POP JUMP JUMPDEST PUSH1 0x0 PUSH1 0x1F NOT PUSH1 0x1F DUP4 ADD AND SWAP1 POP SWAP2 SWAP1 POP JUMP JUMPDEST PUSH1 0x0 PUSH2 0x4889 DUP3 PUSH2 0x4781 JUMP JUMPDEST PUSH2 0x4893 DUP2 DUP6 PUSH2 0x3FBA JUMP JUMPDEST SWAP4 POP PUSH2 0x48A3 DUP2 DUP6 PUSH1 0x20 DUP7 ADD PUSH2 0x478C JUMP JUMPDEST PUSH2 0x48AC DUP2 PUSH2 0x486D JUMP JUMPDEST DUP5 ADD SWAP2 POP POP SWAP3 SWAP2 POP POP JUMP JUMPDEST PUSH1 0x0 PUSH1 0x20 DUP3 ADD SWAP1 POP DUP2 DUP2 SUB PUSH1 0x0 DUP4 ADD MSTORE PUSH2 0x48D1 DUP2 DUP5 PUSH2 0x487E JUMP JUMPDEST SWAP1 POP SWAP3 SWAP2 POP POP JUMP JUMPDEST PUSH32 0x4E487B7100000000000000000000000000000000000000000000000000000000 PUSH1 0x0 MSTORE PUSH1 0x41 PUSH1 0x4 MSTORE PUSH1 0x24 PUSH1 0x0 REVERT JUMPDEST PUSH1 0x0 PUSH2 0x4913 DUP3 PUSH2 0x3819 JUMP JUMPDEST SWAP2 POP PUSH1 0x0 DUP3 SUB PUSH2 0x4926 JUMPI PUSH2 0x4925 PUSH2 0x3E81 JUMP JUMPDEST JUMPDEST PUSH1 0x1 DUP3 SUB SWAP1 POP SWAP2 SWAP1 POP JUMP JUMPDEST PUSH32 0x537472696E67733A20686578206C656E67746820696E73756666696369656E74 PUSH1 0x0 DUP3 ADD MSTORE POP JUMP JUMPDEST PUSH1 0x0 PUSH2 0x4967 PUSH1 0x20 DUP4 PUSH2 0x3FBA JUMP JUMPDEST SWAP2 POP PUSH2 0x4972 DUP3 PUSH2 0x4931 JUMP JUMPDEST PUSH1 0x20 DUP3 ADD SWAP1 POP SWAP2 SWAP1 POP JUMP JUMPDEST PUSH1 0x0 PUSH1 0x20 DUP3 ADD SWAP1 POP DUP2 DUP2 SUB PUSH1 0x0 DUP4 ADD MSTORE PUSH2 0x4996 DUP2 PUSH2 0x495A JUMP JUMPDEST SWAP1 POP SWAP2 SWAP1 POP JUMP JUMPDEST PUSH32 0x416464726573733A20696E73756666696369656E742062616C616E636520666F PUSH1 0x0 DUP3 ADD MSTORE PUSH32 0x722063616C6C0000000000000000000000000000000000000000000000000000 PUSH1 0x20 DUP3 ADD MSTORE POP JUMP JUMPDEST PUSH1 0x0 PUSH2 0x49F9 PUSH1 0x26 DUP4 PUSH2 0x3FBA JUMP JUMPDEST SWAP2 POP PUSH2 0x4A04 DUP3 PUSH2 0x499D JUMP JUMPDEST PUSH1 0x40 DUP3 ADD SWAP1 POP SWAP2 SWAP1 POP JUMP JUMPDEST PUSH1 0x0 PUSH1 0x20 DUP3 ADD SWAP1 POP DUP2 DUP2 SUB PUSH1 0x0 DUP4 ADD MSTORE PUSH2 0x4A28 DUP2 PUSH2 0x49EC JUMP JUMPDEST SWAP1 POP SWAP2 SWAP1 POP JUMP JUMPDEST PUSH1 0x0 DUP2 MLOAD SWAP1 POP SWAP2 SWAP1 POP JUMP JUMPDEST PUSH1 0x0 DUP2 SWAP1 POP SWAP3 SWAP2 POP POP JUMP JUMPDEST PUSH1 0x0 PUSH2 0x4A50 DUP3 PUSH2 0x4A2F JUMP JUMPDEST PUSH2 0x4A5A DUP2 DUP6 PUSH2 0x4A3A JUMP JUMPDEST SWAP4 POP PUSH2 0x4A6A DUP2 DUP6 PUSH1 0x20 DUP7 ADD PUSH2 0x478C JUMP JUMPDEST DUP1 DUP5 ADD SWAP2 POP POP SWAP3 SWAP2 POP POP JUMP JUMPDEST PUSH1 0x0 PUSH2 0x4A82 DUP3 DUP5 PUSH2 0x4A45 JUMP JUMPDEST SWAP2 POP DUP2 SWAP1 POP SWAP3 SWAP2 POP POP JUMP JUMPDEST PUSH32 0x416464726573733A2063616C6C20746F206E6F6E2D636F6E7472616374000000 PUSH1 0x0 DUP3 ADD MSTORE POP JUMP JUMPDEST PUSH1 0x0 PUSH2 0x4AC3 PUSH1 0x1D DUP4 PUSH2 0x3FBA JUMP JUMPDEST SWAP2 POP PUSH2 0x4ACE DUP3 PUSH2 0x4A8D JUMP JUMPDEST PUSH1 0x20 DUP3 ADD SWAP1 POP SWAP2 SWAP1 POP JUMP JUMPDEST PUSH1 0x0 PUSH1 0x20 DUP3 ADD SWAP1 POP DUP2 DUP2 SUB PUSH1 0x0 DUP4 ADD MSTORE PUSH2 0x4AF2 DUP2 PUSH2 0x4AB6 JUMP JUMPDEST SWAP1 POP SWAP2 SWAP1 POP JUMP INVALID LOG2 PUSH5 0x6970667358 0x22 SLT KECCAK256 GT 0xEE 0xA7 SMOD SWAP8 0xF7 PUSH16 0x995E3FEEA539591105E88B00BDC3A63D SLOAD MULMOD 0xA6 0xEC 0xC7 0x29 0xDF CREATE DUP10 PUSH5 0x736F6C6343 STOP ADDMOD SGT STOP CALLER "
		},
		"gasEstimates": {
			"creation": {
				"codeDepositCost": "3849400",
				"executionCost": "infinite",
				"totalCost": "infinite"
			},
			"external": {
				"DEFAULT_ADMIN_ROLE()": "424",
				"GOVERNOR_ROLE()": "678",
				"HYDT()": "infinite",
				"HYGT()": "infinite",
				"HYGTPerSecond()": "2496",
				"TREASURY()": "2604",
				"_initializer()": "infinite",
				"claimPayout(uint256)": "infinite",
				"dailyPayouts(uint256)": "infinite",
				"depositFee()": "2519",
				"getDailyPayoutBatch(address)": "infinite",
				"getPayout(address,uint256)": "infinite",
				"getPayoutBatch(address)": "infinite",
				"getPayoutType(address,uint8)": "infinite",
				"getPending(address,uint256)": "infinite",
				"getPendingBatch(address)": "infinite",
				"getPendingType(address,uint8)": "infinite",
				"getRoleAdmin(bytes32)": "infinite",
				"getStakingLengths(address)": "2925",
				"getStakings(address,uint256)": "infinite",
				"grantRole(bytes32,address)": "infinite",
				"hasRole(bytes32,address)": "3273",
				"initialize(address,address,address,address,uint256)": "infinite",
				"lockPeriods(uint256)": "infinite",
				"massUpdatePools()": "infinite",
				"poolInfo(uint256)": "infinite",
				"poolLength()": "2514",
				"poolShares(uint256,uint256)": "infinite",
				"renounceRole(bytes32,address)": "infinite",
				"revokeRole(bytes32,address)": "infinite",
				"sHYDT()": "infinite",
				"stake(uint256,uint8)": "infinite",
				"startTime()": "2474",
				"supportsInterface(bytes4)": "774",
				"totalAllocPoint()": "2497",
				"updateAllocationWithUpdate(uint8,uint256)": "infinite",
				"updatePool(uint8)": "infinite",
				"yearlyYields(uint256)": "infinite"
			},
			"internal": {
				"_addPool(uint8,uint256,uint256)": "infinite",
				"binarySearchShare(address,uint256)": "infinite"
			}
		},
		"methodIdentifiers": {
			"DEFAULT_ADMIN_ROLE()": "a217fddf",
			"GOVERNOR_ROLE()": "ccc57490",
			"HYDT()": "25404dae",
			"HYGT()": "23c64ce1",
			"HYGTPerSecond()": "40ea6ea2",
			"TREASURY()": "2d2c5565",
			"_initializer()": "4f6059e7",
			"claimPayout(uint256)": "8a69614e",
			"dailyPayouts(uint256)": "a15a8dc7",
			"depositFee()": "67a52793",
			"getDailyPayoutBatch(address)": "fd879b1e",
			"getPayout(address,uint256)": "565eea19",
			"getPayoutBatch(address)": "258f25b8",
			"getPayoutType(address,uint8)": "a1fd8db8",
			"getPending(address,uint256)": "6b39840d",
			"getPendingBatch(address)": "b3ecb623",
			"getPendingType(address,uint8)": "4f78ee02",
			"getRoleAdmin(bytes32)": "248a9ca3",
			"getStakingLengths(address)": "ad429608",
			"getStakings(address,uint256)": "fdd6374e",
			"grantRole(bytes32,address)": "2f2ff15d",
			"hasRole(bytes32,address)": "91d14854",
			"initialize(address,address,address,address,uint256)": "f7013ef6",
			"lockPeriods(uint256)": "4c8f2a78",
			"massUpdatePools()": "630b5ba1",
			"poolInfo(uint256)": "1526fe27",
			"poolLength()": "081e3eda",
			"poolShares(uint256,uint256)": "312036e2",
			"renounceRole(bytes32,address)": "36568abe",
			"revokeRole(bytes32,address)": "d547741f",
			"sHYDT()": "287fcc8f",
			"stake(uint256,uint8)": "10087fb1",
			"startTime()": "78e97925",
			"supportsInterface(bytes4)": "01ffc9a7",
			"totalAllocPoint()": "17caf6f1",
			"updateAllocationWithUpdate(uint8,uint256)": "8e8cfd4a",
			"updatePool(uint8)": "08fa95d4",
			"yearlyYields(uint256)": "91c28b4e"
		}
	},
	"abi": [
		{
			"inputs": [],
			"stateMutability": "nonpayable",
			"type": "constructor"
		},
		{
			"anonymous": false,
			"inputs": [
				{
					"indexed": true,
					"internalType": "address",
					"name": "user",
					"type": "address"
				},
				{
					"indexed": false,
					"internalType": "uint256",
					"name": "index",
					"type": "uint256"
				},
				{
					"indexed": false,
					"internalType": "uint256",
					"name": "payout",
					"type": "uint256"
				}
			],
			"name": "Payout",
			"type": "event"
		},
		{
			"anonymous": false,
			"inputs": [
				{
					"indexed": true,
					"internalType": "bytes32",
					"name": "role",
					"type": "bytes32"
				},
				{
					"indexed": true,
					"internalType": "bytes32",
					"name": "previousAdminRole",
					"type": "bytes32"
				},
				{
					"indexed": true,
					"internalType": "bytes32",
					"name": "newAdminRole",
					"type": "bytes32"
				}
			],
			"name": "RoleAdminChanged",
			"type": "event"
		},
		{
			"anonymous": false,
			"inputs": [
				{
					"indexed": true,
					"internalType": "bytes32",
					"name": "role",
					"type": "bytes32"
				},
				{
					"indexed": true,
					"internalType": "address",
					"name": "account",
					"type": "address"
				},
				{
					"indexed": true,
					"internalType": "address",
					"name": "sender",
					"type": "address"
				}
			],
			"name": "RoleGranted",
			"type": "event"
		},
		{
			"anonymous": false,
			"inputs": [
				{
					"indexed": true,
					"internalType": "bytes32",
					"name": "role",
					"type": "bytes32"
				},
				{
					"indexed": true,
					"internalType": "address",
					"name": "account",
					"type": "address"
				},
				{
					"indexed": true,
					"internalType": "address",
					"name": "sender",
					"type": "address"
				}
			],
			"name": "RoleRevoked",
			"type": "event"
		},
		{
			"anonymous": false,
			"inputs": [
				{
					"indexed": true,
					"internalType": "address",
					"name": "user",
					"type": "address"
				},
				{
					"indexed": false,
					"internalType": "uint256",
					"name": "index",
					"type": "uint256"
				},
				{
					"indexed": false,
					"internalType": "uint256",
					"name": "amount",
					"type": "uint256"
				},
				{
					"indexed": false,
					"internalType": "uint8",
					"name": "stakeType",
					"type": "uint8"
				},
				{
					"indexed": false,
					"internalType": "uint256",
					"name": "startTime",
					"type": "uint256"
				},
				{
					"indexed": false,
					"internalType": "uint256",
					"name": "endTime",
					"type": "uint256"
				}
			],
			"name": "Stake",
			"type": "event"
		},
		{
			"anonymous": false,
			"inputs": [
				{
					"indexed": true,
					"internalType": "address",
					"name": "user",
					"type": "address"
				},
				{
					"indexed": false,
					"internalType": "uint256",
					"name": "index",
					"type": "uint256"
				},
				{
					"indexed": false,
					"internalType": "uint256",
					"name": "amount",
					"type": "uint256"
				},
				{
					"indexed": false,
					"internalType": "uint256",
					"name": "activeDeposits",
					"type": "uint256"
				}
			],
			"name": "Unstake",
			"type": "event"
		},
		{
			"anonymous": false,
			"inputs": [
				{
					"indexed": true,
					"internalType": "uint256",
					"name": "stakeType",
					"type": "uint256"
				},
				{
					"indexed": false,
					"internalType": "uint256",
					"name": "newAllocPoint",
					"type": "uint256"
				},
				{
					"indexed": false,
					"internalType": "uint256",
					"name": "oldAllocPoint",
					"type": "uint256"
				}
			],
			"name": "UpdateAllocationWithUpdate",
			"type": "event"
		},
		{
			"inputs": [],
			"name": "DEFAULT_ADMIN_ROLE",
			"outputs": [
				{
					"internalType": "bytes32",
					"name": "",
					"type": "bytes32"
				}
			],
			"stateMutability": "view",
			"type": "function"
		},
		{
			"inputs": [],
			"name": "GOVERNOR_ROLE",
			"outputs": [
				{
					"internalType": "bytes32",
					"name": "",
					"type": "bytes32"
				}
			],
			"stateMutability": "view",
			"type": "function"
		},
		{
			"inputs": [],
			"name": "HYDT",
			"outputs": [
				{
					"internalType": "contract IHYDT",
					"name": "",
					"type": "address"
				}
			],
			"stateMutability": "view",
			"type": "function"
		},
		{
			"inputs": [],
			"name": "HYGT",
			"outputs": [
				{
					"internalType": "contract IHYGT",
					"name": "",
					"type": "address"
				}
			],
			"stateMutability": "view",
			"type": "function"
		},
		{
			"inputs": [],
			"name": "HYGTPerSecond",
			"outputs": [
				{
					"internalType": "uint256",
					"name": "",
					"type": "uint256"
				}
			],
			"stateMutability": "view",
			"type": "function"
		},
		{
			"inputs": [],
			"name": "TREASURY",
			"outputs": [
				{
					"internalType": "address",
					"name": "",
					"type": "address"
				}
			],
			"stateMutability": "view",
			"type": "function"
		},
		{
			"inputs": [],
			"name": "_initializer",
			"outputs": [
				{
					"internalType": "address",
					"name": "",
					"type": "address"
				}
			],
			"stateMutability": "view",
			"type": "function"
		},
		{
			"inputs": [
				{
					"internalType": "uint256",
					"name": "index",
					"type": "uint256"
				}
			],
			"name": "claimPayout",
			"outputs": [],
			"stateMutability": "nonpayable",
			"type": "function"
		},
		{
			"inputs": [
				{
					"internalType": "uint256",
					"name": "",
					"type": "uint256"
				}
			],
			"name": "dailyPayouts",
			"outputs": [
				{
					"internalType": "uint256",
					"name": "",
					"type": "uint256"
				}
			],
			"stateMutability": "view",
			"type": "function"
		},
		{
			"inputs": [],
			"name": "depositFee",
			"outputs": [
				{
					"internalType": "uint256",
					"name": "",
					"type": "uint256"
				}
			],
			"stateMutability": "view",
			"type": "function"
		},
		{
			"inputs": [
				{
					"internalType": "address",
					"name": "user",
					"type": "address"
				}
			],
			"name": "getDailyPayoutBatch",
			"outputs": [
				{
					"internalType": "uint256",
					"name": "",
					"type": "uint256"
				}
			],
			"stateMutability": "view",
			"type": "function"
		},
		{
			"inputs": [
				{
					"internalType": "address",
					"name": "user",
					"type": "address"
				},
				{
					"internalType": "uint256",
					"name": "index",
					"type": "uint256"
				}
			],
			"name": "getPayout",
			"outputs": [
				{
					"internalType": "uint256",
					"name": "",
					"type": "uint256"
				}
			],
			"stateMutability": "view",
			"type": "function"
		},
		{
			"inputs": [
				{
					"internalType": "address",
					"name": "user",
					"type": "address"
				}
			],
			"name": "getPayoutBatch",
			"outputs": [
				{
					"internalType": "uint256",
					"name": "",
					"type": "uint256"
				}
			],
			"stateMutability": "view",
			"type": "function"
		},
		{
			"inputs": [
				{
					"internalType": "address",
					"name": "user",
					"type": "address"
				},
				{
					"internalType": "uint8",
					"name": "stakeType",
					"type": "uint8"
				}
			],
			"name": "getPayoutType",
			"outputs": [
				{
					"internalType": "uint256",
					"name": "",
					"type": "uint256"
				}
			],
			"stateMutability": "view",
			"type": "function"
		},
		{
			"inputs": [
				{
					"internalType": "address",
					"name": "user",
					"type": "address"
				},
				{
					"internalType": "uint256",
					"name": "index",
					"type": "uint256"
				}
			],
			"name": "getPending",
			"outputs": [
				{
					"internalType": "uint256",
					"name": "",
					"type": "uint256"
				}
			],
			"stateMutability": "view",
			"type": "function"
		},
		{
			"inputs": [
				{
					"internalType": "address",
					"name": "user",
					"type": "address"
				}
			],
			"name": "getPendingBatch",
			"outputs": [
				{
					"internalType": "uint256",
					"name": "",
					"type": "uint256"
				}
			],
			"stateMutability": "view",
			"type": "function"
		},
		{
			"inputs": [
				{
					"internalType": "address",
					"name": "user",
					"type": "address"
				},
				{
					"internalType": "uint8",
					"name": "stakeType",
					"type": "uint8"
				}
			],
			"name": "getPendingType",
			"outputs": [
				{
					"internalType": "uint256",
					"name": "",
					"type": "uint256"
				}
			],
			"stateMutability": "view",
			"type": "function"
		},
		{
			"inputs": [
				{
					"internalType": "bytes32",
					"name": "role",
					"type": "bytes32"
				}
			],
			"name": "getRoleAdmin",
			"outputs": [
				{
					"internalType": "bytes32",
					"name": "",
					"type": "bytes32"
				}
			],
			"stateMutability": "view",
			"type": "function"
		},
		{
			"inputs": [
				{
					"internalType": "address",
					"name": "",
					"type": "address"
				}
			],
			"name": "getStakingLengths",
			"outputs": [
				{
					"internalType": "uint256",
					"name": "",
					"type": "uint256"
				}
			],
			"stateMutability": "view",
			"type": "function"
		},
		{
			"inputs": [
				{
					"internalType": "address",
					"name": "",
					"type": "address"
				},
				{
					"internalType": "uint256",
					"name": "",
					"type": "uint256"
				}
			],
			"name": "getStakings",
			"outputs": [
				{
					"internalType": "uint256",
					"name": "index",
					"type": "uint256"
				},
				{
					"internalType": "bool",
					"name": "status",
					"type": "bool"
				},
				{
					"internalType": "uint256",
					"name": "amount",
					"type": "uint256"
				},
				{
					"internalType": "uint8",
					"name": "stakeType",
					"type": "uint8"
				},
				{
					"internalType": "uint256",
					"name": "startTime",
					"type": "uint256"
				},
				{
					"internalType": "uint256",
					"name": "endTime",
					"type": "uint256"
				},
				{
					"internalType": "uint256",
					"name": "lastClaimTime",
					"type": "uint256"
				},
				{
					"internalType": "uint256",
					"name": "rewardDebt",
					"type": "uint256"
				}
			],
			"stateMutability": "view",
			"type": "function"
		},
		{
			"inputs": [
				{
					"internalType": "bytes32",
					"name": "role",
					"type": "bytes32"
				},
				{
					"internalType": "address",
					"name": "account",
					"type": "address"
				}
			],
			"name": "grantRole",
			"outputs": [],
			"stateMutability": "nonpayable",
			"type": "function"
		},
		{
			"inputs": [
				{
					"internalType": "bytes32",
					"name": "role",
					"type": "bytes32"
				},
				{
					"internalType": "address",
					"name": "account",
					"type": "address"
				}
			],
			"name": "hasRole",
			"outputs": [
				{
					"internalType": "bool",
					"name": "",
					"type": "bool"
				}
			],
			"stateMutability": "view",
			"type": "function"
		},
		{
			"inputs": [
				{
					"internalType": "address",
					"name": "hydt_",
					"type": "address"
				},
				{
					"internalType": "address",
					"name": "hygt_",
					"type": "address"
				},
				{
					"internalType": "address",
					"name": "shydt_",
					"type": "address"
				},
				{
					"internalType": "address",
					"name": "treasury_",
					"type": "address"
				},
				{
					"internalType": "uint256",
					"name": "initialMintStartTime_",
					"type": "uint256"
				}
			],
			"name": "initialize",
			"outputs": [],
			"stateMutability": "nonpayable",
			"type": "function"
		},
		{
			"inputs": [
				{
					"internalType": "uint256",
					"name": "",
					"type": "uint256"
				}
			],
			"name": "lockPeriods",
			"outputs": [
				{
					"internalType": "uint256",
					"name": "",
					"type": "uint256"
				}
			],
			"stateMutability": "view",
			"type": "function"
		},
		{
			"inputs": [],
			"name": "massUpdatePools",
			"outputs": [],
			"stateMutability": "nonpayable",
			"type": "function"
		},
		{
			"inputs": [
				{
					"internalType": "uint256",
					"name": "",
					"type": "uint256"
				}
			],
			"name": "poolInfo",
			"outputs": [
				{
					"internalType": "uint8",
					"name": "stakeType",
					"type": "uint8"
				},
				{
					"internalType": "uint256",
					"name": "allocPoint",
					"type": "uint256"
				},
				{
					"internalType": "uint256",
					"name": "stakeSupply",
					"type": "uint256"
				},
				{
					"internalType": "uint256",
					"name": "accHYGTPerShare",
					"type": "uint256"
				},
				{
					"internalType": "uint256",
					"name": "lastRewardTime",
					"type": "uint256"
				}
			],
			"stateMutability": "view",
			"type": "function"
		},
		{
			"inputs": [],
			"name": "poolLength",
			"outputs": [
				{
					"internalType": "uint256",
					"name": "",
					"type": "uint256"
				}
			],
			"stateMutability": "view",
			"type": "function"
		},
		{
			"inputs": [
				{
					"internalType": "uint256",
					"name": "",
					"type": "uint256"
				},
				{
					"internalType": "uint256",
					"name": "",
					"type": "uint256"
				}
			],
			"name": "poolShares",
			"outputs": [
				{
					"internalType": "uint256",
					"name": "stakeSupply",
					"type": "uint256"
				},
				{
					"internalType": "uint256",
					"name": "accHYGTPerShare",
					"type": "uint256"
				},
				{
					"internalType": "uint256",
					"name": "lastRewardTime",
					"type": "uint256"
				}
			],
			"stateMutability": "view",
			"type": "function"
		},
		{
			"inputs": [
				{
					"internalType": "bytes32",
					"name": "role",
					"type": "bytes32"
				},
				{
					"internalType": "address",
					"name": "account",
					"type": "address"
				}
			],
			"name": "renounceRole",
			"outputs": [],
			"stateMutability": "nonpayable",
			"type": "function"
		},
		{
			"inputs": [
				{
					"internalType": "bytes32",
					"name": "role",
					"type": "bytes32"
				},
				{
					"internalType": "address",
					"name": "account",
					"type": "address"
				}
			],
			"name": "revokeRole",
			"outputs": [],
			"stateMutability": "nonpayable",
			"type": "function"
		},
		{
			"inputs": [],
			"name": "sHYDT",
			"outputs": [
				{
					"internalType": "contract IsHYDT",
					"name": "",
					"type": "address"
				}
			],
			"stateMutability": "view",
			"type": "function"
		},
		{
			"inputs": [
				{
					"internalType": "uint256",
					"name": "amount",
					"type": "uint256"
				},
				{
					"internalType": "uint8",
					"name": "stakeType",
					"type": "uint8"
				}
			],
			"name": "stake",
			"outputs": [],
			"stateMutability": "nonpayable",
			"type": "function"
		},
		{
			"inputs": [],
			"name": "startTime",
			"outputs": [
				{
					"internalType": "uint256",
					"name": "",
					"type": "uint256"
				}
			],
			"stateMutability": "view",
			"type": "function"
		},
		{
			"inputs": [
				{
					"internalType": "bytes4",
					"name": "interfaceId",
					"type": "bytes4"
				}
			],
			"name": "supportsInterface",
			"outputs": [
				{
					"internalType": "bool",
					"name": "",
					"type": "bool"
				}
			],
			"stateMutability": "view",
			"type": "function"
		},
		{
			"inputs": [],
			"name": "totalAllocPoint",
			"outputs": [
				{
					"internalType": "uint256",
					"name": "",
					"type": "uint256"
				}
			],
			"stateMutability": "view",
			"type": "function"
		},
		{
			"inputs": [
				{
					"internalType": "uint8",
					"name": "stakeType",
					"type": "uint8"
				},
				{
					"internalType": "uint256",
					"name": "allocPoint",
					"type": "uint256"
				}
			],
			"name": "updateAllocationWithUpdate",
			"outputs": [],
			"stateMutability": "nonpayable",
			"type": "function"
		},
		{
			"inputs": [
				{
					"internalType": "uint8",
					"name": "stakeType",
					"type": "uint8"
				}
			],
			"name": "updatePool",
			"outputs": [],
			"stateMutability": "nonpayable",
			"type": "function"
		},
		{
			"inputs": [
				{
					"internalType": "uint256",
					"name": "",
					"type": "uint256"
				}
			],
			"name": "yearlyYields",
			"outputs": [
				{
					"internalType": "uint256",
					"name": "",
					"type": "uint256"
				}
			],
			"stateMutability": "view",
			"type": "function"
		}
	]
}