{
	"src/uni/UniswapV2ERC20.sol": {
		"UniswapV2ERC20": {
			"abi": [
				{
					"inputs": [],
					"stateMutability": "nonpayable",
					"type": "constructor"
				},
				{
					"anonymous": false,
					"inputs": [
						{
							"indexed": true,
							"internalType": "address",
							"name": "owner",
							"type": "address"
						},
						{
							"indexed": true,
							"internalType": "address",
							"name": "spender",
							"type": "address"
						},
						{
							"indexed": false,
							"internalType": "uint256",
							"name": "value",
							"type": "uint256"
						}
					],
					"name": "Approval",
					"type": "event"
				},
				{
					"anonymous": false,
					"inputs": [
						{
							"indexed": true,
							"internalType": "address",
							"name": "from",
							"type": "address"
						},
						{
							"indexed": true,
							"internalType": "address",
							"name": "to",
							"type": "address"
						},
						{
							"indexed": false,
							"internalType": "uint256",
							"name": "value",
							"type": "uint256"
						}
					],
					"name": "Transfer",
					"type": "event"
				},
				{
					"inputs": [],
					"name": "_DOMAIN_SEPARATOR",
					"outputs": [
						{
							"internalType": "bytes32",
							"name": "",
							"type": "bytes32"
						}
					],
					"stateMutability": "view",
					"type": "function"
				},
				{
					"inputs": [],
					"name": "_PERMIT_TYPEHASH",
					"outputs": [
						{
							"internalType": "bytes32",
							"name": "",
							"type": "bytes32"
						}
					],
					"stateMutability": "view",
					"type": "function"
				},
				{
					"inputs": [
						{
							"internalType": "address",
							"name": "",
							"type": "address"
						},
						{
							"internalType": "address",
							"name": "",
							"type": "address"
						}
					],
					"name": "_allowance",
					"outputs": [
						{
							"internalType": "uint256",
							"name": "",
							"type": "uint256"
						}
					],
					"stateMutability": "view",
					"type": "function"
				},
				{
					"inputs": [
						{
							"internalType": "address",
							"name": "",
							"type": "address"
						}
					],
					"name": "_balanceOf",
					"outputs": [
						{
							"internalType": "uint256",
							"name": "",
							"type": "uint256"
						}
					],
					"stateMutability": "view",
					"type": "function"
				},
				{
					"inputs": [],
					"name": "_decimals",
					"outputs": [
						{
							"internalType": "uint8",
							"name": "",
							"type": "uint8"
						}
					],
					"stateMutability": "view",
					"type": "function"
				},
				{
					"inputs": [],
					"name": "_name",
					"outputs": [
						{
							"internalType": "string",
							"name": "",
							"type": "string"
						}
					],
					"stateMutability": "view",
					"type": "function"
				},
				{
					"inputs": [
						{
							"internalType": "address",
							"name": "",
							"type": "address"
						}
					],
					"name": "_nonces",
					"outputs": [
						{
							"internalType": "uint256",
							"name": "",
							"type": "uint256"
						}
					],
					"stateMutability": "view",
					"type": "function"
				},
				{
					"inputs": [],
					"name": "_symbol",
					"outputs": [
						{
							"internalType": "string",
							"name": "",
							"type": "string"
						}
					],
					"stateMutability": "view",
					"type": "function"
				},
				{
					"inputs": [],
					"name": "_totalSupply",
					"outputs": [
						{
							"internalType": "uint256",
							"name": "",
							"type": "uint256"
						}
					],
					"stateMutability": "view",
					"type": "function"
				},
				{
					"inputs": [
						{
							"internalType": "address",
							"name": "owner",
							"type": "address"
						},
						{
							"internalType": "address",
							"name": "spender",
							"type": "address"
						}
					],
					"name": "allowance",
					"outputs": [
						{
							"internalType": "uint256",
							"name": "",
							"type": "uint256"
						}
					],
					"stateMutability": "view",
					"type": "function"
				},
				{
					"inputs": [
						{
							"internalType": "address",
							"name": "spender",
							"type": "address"
						},
						{
							"internalType": "uint256",
							"name": "value",
							"type": "uint256"
						}
					],
					"name": "approve",
					"outputs": [
						{
							"internalType": "bool",
							"name": "",
							"type": "bool"
						}
					],
					"stateMutability": "nonpayable",
					"type": "function"
				},
				{
					"inputs": [
						{
							"internalType": "address",
							"name": "owner",
							"type": "address"
						}
					],
					"name": "balanceOf",
					"outputs": [
						{
							"internalType": "uint256",
							"name": "",
							"type": "uint256"
						}
					],
					"stateMutability": "view",
					"type": "function"
				},
				{
					"inputs": [],
					"name": "decimals",
					"outputs": [
						{
							"internalType": "uint8",
							"name": "",
							"type": "uint8"
						}
					],
					"stateMutability": "pure",
					"type": "function"
				},
				{
					"inputs": [],
					"name": "name",
					"outputs": [
						{
							"internalType": "string",
							"name": "",
							"type": "string"
						}
					],
					"stateMutability": "pure",
					"type": "function"
				},
				{
					"inputs": [
						{
							"internalType": "address",
							"name": "owner",
							"type": "address"
						}
					],
					"name": "nonces",
					"outputs": [
						{
							"internalType": "uint256",
							"name": "",
							"type": "uint256"
						}
					],
					"stateMutability": "view",
					"type": "function"
				},
				{
					"inputs": [
						{
							"internalType": "address",
							"name": "owner",
							"type": "address"
						},
						{
							"internalType": "address",
							"name": "spender",
							"type": "address"
						},
						{
							"internalType": "uint256",
							"name": "value",
							"type": "uint256"
						},
						{
							"internalType": "uint256",
							"name": "deadline",
							"type": "uint256"
						},
						{
							"internalType": "uint8",
							"name": "v",
							"type": "uint8"
						},
						{
							"internalType": "bytes32",
							"name": "r",
							"type": "bytes32"
						},
						{
							"internalType": "bytes32",
							"name": "s",
							"type": "bytes32"
						}
					],
					"name": "permit",
					"outputs": [],
					"stateMutability": "nonpayable",
					"type": "function"
				},
				{
					"inputs": [],
					"name": "symbol",
					"outputs": [
						{
							"internalType": "string",
							"name": "",
							"type": "string"
						}
					],
					"stateMutability": "pure",
					"type": "function"
				},
				{
					"inputs": [],
					"name": "totalSupply",
					"outputs": [
						{
							"internalType": "uint256",
							"name": "",
							"type": "uint256"
						}
					],
					"stateMutability": "view",
					"type": "function"
				},
				{
					"inputs": [
						{
							"internalType": "address",
							"name": "to",
							"type": "address"
						},
						{
							"internalType": "uint256",
							"name": "value",
							"type": "uint256"
						}
					],
					"name": "transfer",
					"outputs": [
						{
							"internalType": "bool",
							"name": "",
							"type": "bool"
						}
					],
					"stateMutability": "nonpayable",
					"type": "function"
				},
				{
					"inputs": [
						{
							"internalType": "address",
							"name": "from",
							"type": "address"
						},
						{
							"internalType": "address",
							"name": "to",
							"type": "address"
						},
						{
							"internalType": "uint256",
							"name": "value",
							"type": "uint256"
						}
					],
					"name": "transferFrom",
					"outputs": [
						{
							"internalType": "bool",
							"name": "",
							"type": "bool"
						}
					],
					"stateMutability": "nonpayable",
					"type": "function"
				}
			],
			"devdoc": {
				"kind": "dev",
				"methods": {},
				"version": 1
			},
			"evm": {
				"assembly": "    /* \"src/uni/UniswapV2ERC20.sol\":1878:6262  contract UniswapV2ERC20 is IUniswapV2ERC20 {... */\n  mstore(0x40, 0x80)\n    /* \"src/uni/UniswapV2ERC20.sol\":3724:4166  constructor()  {... */\n  callvalue\n  dup1\n  iszero\n  tag_1\n  jumpi\n  0x00\n  dup1\n  revert\ntag_1:\n  pop\n    /* \"src/uni/UniswapV2ERC20.sol\":3749:3761  uint chainId */\n  0x00\n    /* \"src/uni/UniswapV2ERC20.sol\":3805:3814  chainid() */\n  chainid\n    /* \"src/uni/UniswapV2ERC20.sol\":3794:3814  chainId := chainid() */\n  swap1\n  pop\n    /* \"src/uni/UniswapV2ERC20.sol\":3904:3999  keccak256('EIP712Domain(string name,string version,uint256 chainId,address verifyingContract)') */\n  0x8b73c3c69bb8fe3d512ecc4cf759cc79239f7b179b0ffacaa9a75d522b39400f\n    /* \"src/uni/UniswapV2ERC20.sol\":4033:4038  _name */\n  mload(0x40)\n  dup1\n  0x40\n  add\n  0x40\n  mstore\n  dup1\n  0x0a\n  dup2\n  mstore\n  0x20\n  add\n  0x556e697377617020563200000000000000000000000000000000000000000000\n  dup2\n  mstore\n  pop\n    /* \"src/uni/UniswapV2ERC20.sol\":4017:4040  keccak256(bytes(_name)) */\n  dup1\n  mload\n  swap1\n  0x20\n  add\n  keccak256\n    /* \"src/uni/UniswapV2ERC20.sol\":4068:4078  bytes('1') */\n  mload(0x40)\n  dup1\n  0x40\n  add\n  0x40\n  mstore\n  dup1\n  0x01\n  dup2\n  mstore\n  0x20\n  add\n  0x3100000000000000000000000000000000000000000000000000000000000000\n  dup2\n  mstore\n  pop\n    /* \"src/uni/UniswapV2ERC20.sol\":4058:4079  keccak256(bytes('1')) */\n  dup1\n  mload\n  swap1\n  0x20\n  add\n  keccak256\n    /* \"src/uni/UniswapV2ERC20.sol\":4097:4104  chainId */\n  dup4\n    /* \"src/uni/UniswapV2ERC20.sol\":4130:4134  this */\n  address\n    /* \"src/uni/UniswapV2ERC20.sol\":3876:4149  abi.encode(... */\n  add(0x20, mload(0x40))\n  tag_4\n  swap6\n  swap5\n  swap4\n  swap3\n  swap2\n  swap1\n  tag_5\n  jump\t// in\ntag_4:\n  mload(0x40)\n  0x20\n  dup2\n  dup4\n  sub\n  sub\n  dup2\n  mstore\n  swap1\n  0x40\n  mstore\n    /* \"src/uni/UniswapV2ERC20.sol\":3853:4159  keccak256(... */\n  dup1\n  mload\n  swap1\n  0x20\n  add\n  keccak256\n    /* \"src/uni/UniswapV2ERC20.sol\":3833:3850  _DOMAIN_SEPARATOR */\n  0x03\n    /* \"src/uni/UniswapV2ERC20.sol\":3833:4159  _DOMAIN_SEPARATOR = keccak256(... */\n  dup2\n  swap1\n  sstore\n  pop\n    /* \"src/uni/UniswapV2ERC20.sol\":3739:4166  {... */\n  pop\n    /* \"src/uni/UniswapV2ERC20.sol\":1878:6262  contract UniswapV2ERC20 is IUniswapV2ERC20 {... */\n  jump(tag_6)\n    /* \"#utility.yul\":7:84   */\ntag_7:\n    /* \"#utility.yul\":44:51   */\n  0x00\n    /* \"#utility.yul\":73:78   */\n  dup2\n    /* \"#utility.yul\":62:78   */\n  swap1\n  pop\n    /* \"#utility.yul\":7:84   */\n  swap2\n  swap1\n  pop\n  jump\t// out\n    /* \"#utility.yul\":90:208   */\ntag_8:\n    /* \"#utility.yul\":177:201   */\n  tag_17\n    /* \"#utility.yul\":195:200   */\n  dup2\n    /* \"#utility.yul\":177:201   */\n  tag_7\n  jump\t// in\ntag_17:\n    /* \"#utility.yul\":172:175   */\n  dup3\n    /* \"#utility.yul\":165:202   */\n  mstore\n    /* \"#utility.yul\":90:208   */\n  pop\n  pop\n  jump\t// out\n    /* \"#utility.yul\":214:291   */\ntag_9:\n    /* \"#utility.yul\":251:258   */\n  0x00\n    /* \"#utility.yul\":280:285   */\n  dup2\n    /* \"#utility.yul\":269:285   */\n  swap1\n  pop\n    /* \"#utility.yul\":214:291   */\n  swap2\n  swap1\n  pop\n  jump\t// out\n    /* \"#utility.yul\":297:415   */\ntag_10:\n    /* \"#utility.yul\":384:408   */\n  tag_20\n    /* \"#utility.yul\":402:407   */\n  dup2\n    /* \"#utility.yul\":384:408   */\n  tag_9\n  jump\t// in\ntag_20:\n    /* \"#utility.yul\":379:382   */\n  dup3\n    /* \"#utility.yul\":372:409   */\n  mstore\n    /* \"#utility.yul\":297:415   */\n  pop\n  pop\n  jump\t// out\n    /* \"#utility.yul\":421:547   */\ntag_11:\n    /* \"#utility.yul\":458:465   */\n  0x00\n    /* \"#utility.yul\":498:540   */\n  0xffffffffffffffffffffffffffffffffffffffff\n    /* \"#utility.yul\":491:496   */\n  dup3\n    /* \"#utility.yul\":487:541   */\n  and\n    /* \"#utility.yul\":476:541   */\n  swap1\n  pop\n    /* \"#utility.yul\":421:547   */\n  swap2\n  swap1\n  pop\n  jump\t// out\n    /* \"#utility.yul\":553:649   */\ntag_12:\n    /* \"#utility.yul\":590:597   */\n  0x00\n    /* \"#utility.yul\":619:643   */\n  tag_23\n    /* \"#utility.yul\":637:642   */\n  dup3\n    /* \"#utility.yul\":619:643   */\n  tag_11\n  jump\t// in\ntag_23:\n    /* \"#utility.yul\":608:643   */\n  swap1\n  pop\n    /* \"#utility.yul\":553:649   */\n  swap2\n  swap1\n  pop\n  jump\t// out\n    /* \"#utility.yul\":655:773   */\ntag_13:\n    /* \"#utility.yul\":742:766   */\n  tag_25\n    /* \"#utility.yul\":760:765   */\n  dup2\n    /* \"#utility.yul\":742:766   */\n  tag_12\n  jump\t// in\ntag_25:\n    /* \"#utility.yul\":737:740   */\n  dup3\n    /* \"#utility.yul\":730:767   */\n  mstore\n    /* \"#utility.yul\":655:773   */\n  pop\n  pop\n  jump\t// out\n    /* \"#utility.yul\":779:1443   */\ntag_5:\n    /* \"#utility.yul\":984:988   */\n  0x00\n    /* \"#utility.yul\":1022:1025   */\n  0xa0\n    /* \"#utility.yul\":1011:1020   */\n  dup3\n    /* \"#utility.yul\":1007:1026   */\n  add\n    /* \"#utility.yul\":999:1026   */\n  swap1\n  pop\n    /* \"#utility.yul\":1036:1107   */\n  tag_27\n    /* \"#utility.yul\":1104:1105   */\n  0x00\n    /* \"#utility.yul\":1093:1102   */\n  dup4\n    /* \"#utility.yul\":1089:1106   */\n  add\n    /* \"#utility.yul\":1080:1086   */\n  dup9\n    /* \"#utility.yul\":1036:1107   */\n  tag_8\n  jump\t// in\ntag_27:\n    /* \"#utility.yul\":1117:1189   */\n  tag_28\n    /* \"#utility.yul\":1185:1187   */\n  0x20\n    /* \"#utility.yul\":1174:1183   */\n  dup4\n    /* \"#utility.yul\":1170:1188   */\n  add\n    /* \"#utility.yul\":1161:1167   */\n  dup8\n    /* \"#utility.yul\":1117:1189   */\n  tag_8\n  jump\t// in\ntag_28:\n    /* \"#utility.yul\":1199:1271   */\n  tag_29\n    /* \"#utility.yul\":1267:1269   */\n  0x40\n    /* \"#utility.yul\":1256:1265   */\n  dup4\n    /* \"#utility.yul\":1252:1270   */\n  add\n    /* \"#utility.yul\":1243:1249   */\n  dup7\n    /* \"#utility.yul\":1199:1271   */\n  tag_8\n  jump\t// in\ntag_29:\n    /* \"#utility.yul\":1281:1353   */\n  tag_30\n    /* \"#utility.yul\":1349:1351   */\n  0x60\n    /* \"#utility.yul\":1338:1347   */\n  dup4\n    /* \"#utility.yul\":1334:1352   */\n  add\n    /* \"#utility.yul\":1325:1331   */\n  dup6\n    /* \"#utility.yul\":1281:1353   */\n  tag_10\n  jump\t// in\ntag_30:\n    /* \"#utility.yul\":1363:1436   */\n  tag_31\n    /* \"#utility.yul\":1431:1434   */\n  0x80\n    /* \"#utility.yul\":1420:1429   */\n  dup4\n    /* \"#utility.yul\":1416:1435   */\n  add\n    /* \"#utility.yul\":1407:1413   */\n  dup5\n    /* \"#utility.yul\":1363:1436   */\n  tag_13\n  jump\t// in\ntag_31:\n    /* \"#utility.yul\":779:1443   */\n  swap7\n  swap6\n  pop\n  pop\n  pop\n  pop\n  pop\n  pop\n  jump\t// out\n    /* \"src/uni/UniswapV2ERC20.sol\":1878:6262  contract UniswapV2ERC20 is IUniswapV2ERC20 {... */\ntag_6:\n  dataSize(sub_0)\n  dup1\n  dataOffset(sub_0)\n  0x00\n  codecopy\n  0x00\n  return\nstop\n\nsub_0: assembly {\n        /* \"src/uni/UniswapV2ERC20.sol\":1878:6262  contract UniswapV2ERC20 is IUniswapV2ERC20 {... */\n      mstore(0x40, 0x80)\n      callvalue\n      dup1\n      iszero\n      tag_1\n      jumpi\n      0x00\n      dup1\n      revert\n    tag_1:\n      pop\n      jumpi(tag_2, lt(calldatasize, 0x04))\n      shr(0xe0, calldataload(0x00))\n      dup1\n      0x982aaf6b\n      gt\n      tag_23\n      jumpi\n      dup1\n      0xd28d8852\n      gt\n      tag_24\n      jumpi\n      dup1\n      0xd28d8852\n      eq\n      tag_18\n      jumpi\n      dup1\n      0xd505accf\n      eq\n      tag_19\n      jumpi\n      dup1\n      0xdc0c81b5\n      eq\n      tag_20\n      jumpi\n      dup1\n      0xdd336c12\n      eq\n      tag_21\n      jumpi\n      dup1\n      0xdd62ed3e\n      eq\n      tag_22\n      jumpi\n      jump(tag_2)\n    tag_24:\n      dup1\n      0x982aaf6b\n      eq\n      tag_13\n      jumpi\n      dup1\n      0xa9059cbb\n      eq\n      tag_14\n      jumpi\n      dup1\n      0xb09f1266\n      eq\n      tag_15\n      jumpi\n      dup1\n      0xb9844d8d\n      eq\n      tag_16\n      jumpi\n      dup1\n      0xcca3e832\n      eq\n      tag_17\n      jumpi\n      jump(tag_2)\n    tag_23:\n      dup1\n      0x32424aa3\n      gt\n      tag_25\n      jumpi\n      dup1\n      0x32424aa3\n      eq\n      tag_8\n      jumpi\n      dup1\n      0x3eaaf86b\n      eq\n      tag_9\n      jumpi\n      dup1\n      0x70a08231\n      eq\n      tag_10\n      jumpi\n      dup1\n      0x7ecebe00\n      eq\n      tag_11\n      jumpi\n      dup1\n      0x95d89b41\n      eq\n      tag_12\n      jumpi\n      jump(tag_2)\n    tag_25:\n      dup1\n      0x06fdde03\n      eq\n      tag_3\n      jumpi\n      dup1\n      0x095ea7b3\n      eq\n      tag_4\n      jumpi\n      dup1\n      0x18160ddd\n      eq\n      tag_5\n      jumpi\n      dup1\n      0x23b872dd\n      eq\n      tag_6\n      jumpi\n      dup1\n      0x313ce567\n      eq\n      tag_7\n      jumpi\n    tag_2:\n      0x00\n      dup1\n      revert\n        /* \"src/uni/UniswapV2ERC20.sol\":2546:2639  function name() external override pure  returns (string memory) {... */\n    tag_3:\n      tag_26\n      tag_27\n      jump\t// in\n    tag_26:\n      mload(0x40)\n      tag_28\n      swap2\n      swap1\n      tag_29\n      jump\t// in\n    tag_28:\n      mload(0x40)\n      dup1\n      swap2\n      sub\n      swap1\n      return\n        /* \"src/uni/UniswapV2ERC20.sol\":4993:5137  function approve(address spender, uint value) external returns (bool) {... */\n    tag_4:\n      tag_30\n      0x04\n      dup1\n      calldatasize\n      sub\n      dup2\n      add\n      swap1\n      tag_31\n      swap2\n      swap1\n      tag_32\n      jump\t// in\n    tag_31:\n      tag_33\n      jump\t// in\n    tag_30:\n      mload(0x40)\n      tag_34\n      swap2\n      swap1\n      tag_35\n      jump\t// in\n    tag_34:\n      mload(0x40)\n      dup1\n      swap2\n      sub\n      swap1\n      return\n        /* \"src/uni/UniswapV2ERC20.sol\":2843:2940  function totalSupply() external override view returns (uint) {... */\n    tag_5:\n      tag_36\n      tag_37\n      jump\t// in\n    tag_36:\n      mload(0x40)\n      tag_38\n      swap2\n      swap1\n      tag_39\n      jump\t// in\n    tag_38:\n      mload(0x40)\n      dup1\n      swap2\n      sub\n      swap1\n      return\n        /* \"src/uni/UniswapV2ERC20.sol\":5285:5589  function transferFrom(address from, address to, uint value) external returns (bool) {... */\n    tag_6:\n      tag_40\n      0x04\n      dup1\n      calldatasize\n      sub\n      dup2\n      add\n      swap1\n      tag_41\n      swap2\n      swap1\n      tag_42\n      jump\t// in\n    tag_41:\n      tag_43\n      jump\t// in\n    tag_40:\n      mload(0x40)\n      tag_44\n      swap2\n      swap1\n      tag_35\n      jump\t// in\n    tag_44:\n      mload(0x40)\n      dup1\n      swap2\n      sub\n      swap1\n      return\n        /* \"src/uni/UniswapV2ERC20.sol\":2746:2838  function decimals() external override pure returns (uint8) {... */\n    tag_7:\n      tag_45\n      tag_46\n      jump\t// in\n    tag_45:\n      mload(0x40)\n      tag_47\n      swap2\n      swap1\n      tag_48\n      jump\t// in\n    tag_47:\n      mload(0x40)\n      dup1\n      swap2\n      sub\n      swap1\n      return\n        /* \"src/uni/UniswapV2ERC20.sol\":2053:2089  uint8 public constant _decimals = 18 */\n    tag_8:\n      tag_49\n      tag_50\n      jump\t// in\n    tag_49:\n      mload(0x40)\n      tag_51\n      swap2\n      swap1\n      tag_48\n      jump\t// in\n    tag_51:\n      mload(0x40)\n      dup1\n      swap2\n      sub\n      swap1\n      return\n        /* \"src/uni/UniswapV2ERC20.sol\":2095:2120  uint  public _totalSupply */\n    tag_9:\n      tag_52\n      tag_53\n      jump\t// in\n    tag_52:\n      mload(0x40)\n      tag_54\n      swap2\n      swap1\n      tag_39\n      jump\t// in\n    tag_54:\n      mload(0x40)\n      dup1\n      swap2\n      sub\n      swap1\n      return\n        /* \"src/uni/UniswapV2ERC20.sol\":3306:3419  function balanceOf(address owner) external  override view returns (uint){... */\n    tag_10:\n      tag_55\n      0x04\n      dup1\n      calldatasize\n      sub\n      dup2\n      add\n      swap1\n      tag_56\n      swap2\n      swap1\n      tag_57\n      jump\t// in\n    tag_56:\n      tag_58\n      jump\t// in\n    tag_55:\n      mload(0x40)\n      tag_59\n      swap2\n      swap1\n      tag_39\n      jump\t// in\n    tag_59:\n      mload(0x40)\n      dup1\n      swap2\n      sub\n      swap1\n      return\n        /* \"src/uni/UniswapV2ERC20.sol\":3193:3300  function nonces(address owner) external override view returns (uint) {... */\n    tag_11:\n      tag_60\n      0x04\n      dup1\n      calldatasize\n      sub\n      dup2\n      add\n      swap1\n      tag_61\n      swap2\n      swap1\n      tag_57\n      jump\t// in\n    tag_61:\n      tag_62\n      jump\t// in\n    tag_60:\n      mload(0x40)\n      tag_63\n      swap2\n      swap1\n      tag_39\n      jump\t// in\n    tag_63:\n      mload(0x40)\n      dup1\n      swap2\n      sub\n      swap1\n      return\n        /* \"src/uni/UniswapV2ERC20.sol\":2644:2741  function symbol() external override pure  returns (string memory) {... */\n    tag_12:\n      tag_64\n      tag_65\n      jump\t// in\n    tag_64:\n      mload(0x40)\n      tag_66\n      swap2\n      swap1\n      tag_29\n      jump\t// in\n    tag_66:\n      mload(0x40)\n      dup1\n      swap2\n      sub\n      swap1\n      return\n        /* \"src/uni/UniswapV2ERC20.sol\":2385:2494  bytes32 public constant _PERMIT_TYPEHASH = 0x6e71edae12b1b97f4d1f60370fef10105fa2faae0126114a169c64845d6126c9 */\n    tag_13:\n      tag_67\n      tag_68\n      jump\t// in\n    tag_67:\n      mload(0x40)\n      tag_69\n      swap2\n      swap1\n      tag_70\n      jump\t// in\n    tag_69:\n      mload(0x40)\n      dup1\n      swap2\n      sub\n      swap1\n      return\n        /* \"src/uni/UniswapV2ERC20.sol\":5143:5279  function transfer(address to, uint value) external returns (bool) {... */\n    tag_14:\n      tag_71\n      0x04\n      dup1\n      calldatasize\n      sub\n      dup2\n      add\n      swap1\n      tag_72\n      swap2\n      swap1\n      tag_32\n      jump\t// in\n    tag_72:\n      tag_73\n      jump\t// in\n    tag_71:\n      mload(0x40)\n      tag_74\n      swap2\n      swap1\n      tag_35\n      jump\t// in\n    tag_74:\n      mload(0x40)\n      dup1\n      swap2\n      sub\n      swap1\n      return\n        /* \"src/uni/UniswapV2ERC20.sol\":2006:2047  string public constant _symbol = 'UNI-V2' */\n    tag_15:\n      tag_75\n      tag_76\n      jump\t// in\n    tag_75:\n      mload(0x40)\n      tag_77\n      swap2\n      swap1\n      tag_29\n      jump\t// in\n    tag_77:\n      mload(0x40)\n      dup1\n      swap2\n      sub\n      swap1\n      return\n        /* \"src/uni/UniswapV2ERC20.sol\":2500:2539  mapping(address => uint) public _nonces */\n    tag_16:\n      tag_78\n      0x04\n      dup1\n      calldatasize\n      sub\n      dup2\n      add\n      swap1\n      tag_79\n      swap2\n      swap1\n      tag_57\n      jump\t// in\n    tag_79:\n      tag_80\n      jump\t// in\n    tag_78:\n      mload(0x40)\n      tag_81\n      swap2\n      swap1\n      tag_39\n      jump\t// in\n    tag_81:\n      mload(0x40)\n      dup1\n      swap2\n      sub\n      swap1\n      return\n        /* \"src/uni/UniswapV2ERC20.sol\":2126:2168  mapping(address => uint) public _balanceOf */\n    tag_17:\n      tag_82\n      0x04\n      dup1\n      calldatasize\n      sub\n      dup2\n      add\n      swap1\n      tag_83\n      swap2\n      swap1\n      tag_57\n      jump\t// in\n    tag_83:\n      tag_84\n      jump\t// in\n    tag_82:\n      mload(0x40)\n      tag_85\n      swap2\n      swap1\n      tag_39\n      jump\t// in\n    tag_85:\n      mload(0x40)\n      dup1\n      swap2\n      sub\n      swap1\n      return\n        /* \"src/uni/UniswapV2ERC20.sol\":1957:2000  string public constant _name = 'Uniswap V2' */\n    tag_18:\n      tag_86\n      tag_87\n      jump\t// in\n    tag_86:\n      mload(0x40)\n      tag_88\n      swap2\n      swap1\n      tag_29\n      jump\t// in\n    tag_88:\n      mload(0x40)\n      dup1\n      swap2\n      sub\n      swap1\n      return\n        /* \"src/uni/UniswapV2ERC20.sol\":5595:6260  function permit(address owner, address spender, uint value, uint deadline, uint8 v, bytes32 r, bytes32 s) external {... */\n    tag_19:\n      tag_89\n      0x04\n      dup1\n      calldatasize\n      sub\n      dup2\n      add\n      swap1\n      tag_90\n      swap2\n      swap1\n      tag_91\n      jump\t// in\n    tag_90:\n      tag_92\n      jump\t// in\n    tag_89:\n      stop\n        /* \"src/uni/UniswapV2ERC20.sol\":2243:2275  bytes32 public _DOMAIN_SEPARATOR */\n    tag_20:\n      tag_93\n      tag_94\n      jump\t// in\n    tag_93:\n      mload(0x40)\n      tag_95\n      swap2\n      swap1\n      tag_70\n      jump\t// in\n    tag_95:\n      mload(0x40)\n      dup1\n      swap2\n      sub\n      swap1\n      return\n        /* \"src/uni/UniswapV2ERC20.sol\":2174:2236  mapping(address => mapping(address => uint)) public _allowance */\n    tag_21:\n      tag_96\n      0x04\n      dup1\n      calldatasize\n      sub\n      dup2\n      add\n      swap1\n      tag_97\n      swap2\n      swap1\n      tag_98\n      jump\t// in\n    tag_97:\n      tag_99\n      jump\t// in\n    tag_96:\n      mload(0x40)\n      tag_100\n      swap2\n      swap1\n      tag_39\n      jump\t// in\n    tag_100:\n      mload(0x40)\n      dup1\n      swap2\n      sub\n      swap1\n      return\n        /* \"src/uni/UniswapV2ERC20.sol\":3425:3563  function allowance(address owner, address spender) external override view returns (uint){... */\n    tag_22:\n      tag_101\n      0x04\n      dup1\n      calldatasize\n      sub\n      dup2\n      add\n      swap1\n      tag_102\n      swap2\n      swap1\n      tag_98\n      jump\t// in\n    tag_102:\n      tag_103\n      jump\t// in\n    tag_101:\n      mload(0x40)\n      tag_104\n      swap2\n      swap1\n      tag_39\n      jump\t// in\n    tag_104:\n      mload(0x40)\n      dup1\n      swap2\n      sub\n      swap1\n      return\n        /* \"src/uni/UniswapV2ERC20.sol\":2546:2639  function name() external override pure  returns (string memory) {... */\n    tag_27:\n        /* \"src/uni/UniswapV2ERC20.sol\":2595:2608  string memory */\n      0x60\n        /* \"src/uni/UniswapV2ERC20.sol\":2627:2632  _name */\n      mload(0x40)\n      dup1\n      0x40\n      add\n      0x40\n      mstore\n      dup1\n      0x0a\n      dup2\n      mstore\n      0x20\n      add\n      0x556e697377617020563200000000000000000000000000000000000000000000\n      dup2\n      mstore\n      pop\n        /* \"src/uni/UniswapV2ERC20.sol\":2620:2632  return _name */\n      swap1\n      pop\n        /* \"src/uni/UniswapV2ERC20.sol\":2546:2639  function name() external override pure  returns (string memory) {... */\n      swap1\n      jump\t// out\n        /* \"src/uni/UniswapV2ERC20.sol\":4993:5137  function approve(address spender, uint value) external returns (bool) {... */\n    tag_33:\n        /* \"src/uni/UniswapV2ERC20.sol\":5057:5061  bool */\n      0x00\n        /* \"src/uni/UniswapV2ERC20.sol\":5073:5109  _approve(msg.sender, spender, value) */\n      tag_107\n        /* \"src/uni/UniswapV2ERC20.sol\":5082:5092  msg.sender */\n      caller\n        /* \"src/uni/UniswapV2ERC20.sol\":5094:5101  spender */\n      dup5\n        /* \"src/uni/UniswapV2ERC20.sol\":5103:5108  value */\n      dup5\n        /* \"src/uni/UniswapV2ERC20.sol\":5073:5081  _approve */\n      tag_108\n        /* \"src/uni/UniswapV2ERC20.sol\":5073:5109  _approve(msg.sender, spender, value) */\n      jump\t// in\n    tag_107:\n        /* \"src/uni/UniswapV2ERC20.sol\":5126:5130  true */\n      0x01\n        /* \"src/uni/UniswapV2ERC20.sol\":5119:5130  return true */\n      swap1\n      pop\n        /* \"src/uni/UniswapV2ERC20.sol\":4993:5137  function approve(address spender, uint value) external returns (bool) {... */\n      swap3\n      swap2\n      pop\n      pop\n      jump\t// out\n        /* \"src/uni/UniswapV2ERC20.sol\":2843:2940  function totalSupply() external override view returns (uint) {... */\n    tag_37:\n        /* \"src/uni/UniswapV2ERC20.sol\":2898:2902  uint */\n      0x00\n        /* \"src/uni/UniswapV2ERC20.sol\":2921:2933  _totalSupply */\n      dup1\n      sload\n        /* \"src/uni/UniswapV2ERC20.sol\":2914:2933  return _totalSupply */\n      swap1\n      pop\n        /* \"src/uni/UniswapV2ERC20.sol\":2843:2940  function totalSupply() external override view returns (uint) {... */\n      swap1\n      jump\t// out\n        /* \"src/uni/UniswapV2ERC20.sol\":5285:5589  function transferFrom(address from, address to, uint value) external returns (bool) {... */\n    tag_43:\n        /* \"src/uni/UniswapV2ERC20.sol\":5363:5367  bool */\n      0x00\n        /* \"src/uni/UniswapV2ERC20.sol\":5415:5429  type(uint).max */\n      0xffffffffffffffffffffffffffffffffffffffffffffffffffffffffffffffff\n        /* \"src/uni/UniswapV2ERC20.sol\":5383:5393  _allowance */\n      0x02\n        /* \"src/uni/UniswapV2ERC20.sol\":5383:5399  _allowance[from] */\n      0x00\n        /* \"src/uni/UniswapV2ERC20.sol\":5394:5398  from */\n      dup7\n        /* \"src/uni/UniswapV2ERC20.sol\":5383:5399  _allowance[from] */\n      0xffffffffffffffffffffffffffffffffffffffff\n      and\n      0xffffffffffffffffffffffffffffffffffffffff\n      and\n      dup2\n      mstore\n      0x20\n      add\n      swap1\n      dup2\n      mstore\n      0x20\n      add\n      0x00\n      keccak256\n        /* \"src/uni/UniswapV2ERC20.sol\":5383:5411  _allowance[from][msg.sender] */\n      0x00\n        /* \"src/uni/UniswapV2ERC20.sol\":5400:5410  msg.sender */\n      caller\n        /* \"src/uni/UniswapV2ERC20.sol\":5383:5411  _allowance[from][msg.sender] */\n      0xffffffffffffffffffffffffffffffffffffffff\n      and\n      0xffffffffffffffffffffffffffffffffffffffff\n      and\n      dup2\n      mstore\n      0x20\n      add\n      swap1\n      dup2\n      mstore\n      0x20\n      add\n      0x00\n      keccak256\n      sload\n        /* \"src/uni/UniswapV2ERC20.sol\":5383:5429  _allowance[from][msg.sender] != type(uint).max */\n      eq\n        /* \"src/uni/UniswapV2ERC20.sol\":5379:5526  if (_allowance[from][msg.sender] != type(uint).max) {... */\n      tag_111\n      jumpi\n        /* \"src/uni/UniswapV2ERC20.sol\":5476:5515  _allowance[from][msg.sender].sub(value) */\n      tag_112\n        /* \"src/uni/UniswapV2ERC20.sol\":5509:5514  value */\n      dup3\n        /* \"src/uni/UniswapV2ERC20.sol\":5476:5486  _allowance */\n      0x02\n        /* \"src/uni/UniswapV2ERC20.sol\":5476:5492  _allowance[from] */\n      0x00\n        /* \"src/uni/UniswapV2ERC20.sol\":5487:5491  from */\n      dup8\n        /* \"src/uni/UniswapV2ERC20.sol\":5476:5492  _allowance[from] */\n      0xffffffffffffffffffffffffffffffffffffffff\n      and\n      0xffffffffffffffffffffffffffffffffffffffff\n      and\n      dup2\n      mstore\n      0x20\n      add\n      swap1\n      dup2\n      mstore\n      0x20\n      add\n      0x00\n      keccak256\n        /* \"src/uni/UniswapV2ERC20.sol\":5476:5504  _allowance[from][msg.sender] */\n      0x00\n        /* \"src/uni/UniswapV2ERC20.sol\":5493:5503  msg.sender */\n      caller\n        /* \"src/uni/UniswapV2ERC20.sol\":5476:5504  _allowance[from][msg.sender] */\n      0xffffffffffffffffffffffffffffffffffffffff\n      and\n      0xffffffffffffffffffffffffffffffffffffffff\n      and\n      dup2\n      mstore\n      0x20\n      add\n      swap1\n      dup2\n      mstore\n      0x20\n      add\n      0x00\n      keccak256\n      sload\n        /* \"src/uni/UniswapV2ERC20.sol\":5476:5508  _allowance[from][msg.sender].sub */\n      tag_113\n      swap1\n        /* \"src/uni/UniswapV2ERC20.sol\":5476:5515  _allowance[from][msg.sender].sub(value) */\n      swap2\n      swap1\n      0xffffffff\n      and\n      jump\t// in\n    tag_112:\n        /* \"src/uni/UniswapV2ERC20.sol\":5445:5455  _allowance */\n      0x02\n        /* \"src/uni/UniswapV2ERC20.sol\":5445:5461  _allowance[from] */\n      0x00\n        /* \"src/uni/UniswapV2ERC20.sol\":5456:5460  from */\n      dup7\n        /* \"src/uni/UniswapV2ERC20.sol\":5445:5461  _allowance[from] */\n      0xffffffffffffffffffffffffffffffffffffffff\n      and\n      0xffffffffffffffffffffffffffffffffffffffff\n      and\n      dup2\n      mstore\n      0x20\n      add\n      swap1\n      dup2\n      mstore\n      0x20\n      add\n      0x00\n      keccak256\n        /* \"src/uni/UniswapV2ERC20.sol\":5445:5473  _allowance[from][msg.sender] */\n      0x00\n        /* \"src/uni/UniswapV2ERC20.sol\":5462:5472  msg.sender */\n      caller\n        /* \"src/uni/UniswapV2ERC20.sol\":5445:5473  _allowance[from][msg.sender] */\n      0xffffffffffffffffffffffffffffffffffffffff\n      and\n      0xffffffffffffffffffffffffffffffffffffffff\n      and\n      dup2\n      mstore\n      0x20\n      add\n      swap1\n      dup2\n      mstore\n      0x20\n      add\n      0x00\n      keccak256\n        /* \"src/uni/UniswapV2ERC20.sol\":5445:5515  _allowance[from][msg.sender] = _allowance[from][msg.sender].sub(value) */\n      dup2\n      swap1\n      sstore\n      pop\n        /* \"src/uni/UniswapV2ERC20.sol\":5379:5526  if (_allowance[from][msg.sender] != type(uint).max) {... */\n    tag_111:\n        /* \"src/uni/UniswapV2ERC20.sol\":5535:5561  _transfer(from, to, value) */\n      tag_114\n        /* \"src/uni/UniswapV2ERC20.sol\":5545:5549  from */\n      dup5\n        /* \"src/uni/UniswapV2ERC20.sol\":5551:5553  to */\n      dup5\n        /* \"src/uni/UniswapV2ERC20.sol\":5555:5560  value */\n      dup5\n        /* \"src/uni/UniswapV2ERC20.sol\":5535:5544  _transfer */\n      tag_115\n        /* \"src/uni/UniswapV2ERC20.sol\":5535:5561  _transfer(from, to, value) */\n      jump\t// in\n    tag_114:\n        /* \"src/uni/UniswapV2ERC20.sol\":5578:5582  true */\n      0x01\n        /* \"src/uni/UniswapV2ERC20.sol\":5571:5582  return true */\n      swap1\n      pop\n        /* \"src/uni/UniswapV2ERC20.sol\":5285:5589  function transferFrom(address from, address to, uint value) external returns (bool) {... */\n      swap4\n      swap3\n      pop\n      pop\n      pop\n      jump\t// out\n        /* \"src/uni/UniswapV2ERC20.sol\":2746:2838  function decimals() external override pure returns (uint8) {... */\n    tag_46:\n        /* \"src/uni/UniswapV2ERC20.sol\":2798:2803  uint8 */\n      0x00\n        /* \"src/uni/UniswapV2ERC20.sol\":2087:2089  18 */\n      0x12\n        /* \"src/uni/UniswapV2ERC20.sol\":2815:2831  return _decimals */\n      swap1\n      pop\n        /* \"src/uni/UniswapV2ERC20.sol\":2746:2838  function decimals() external override pure returns (uint8) {... */\n      swap1\n      jump\t// out\n        /* \"src/uni/UniswapV2ERC20.sol\":2053:2089  uint8 public constant _decimals = 18 */\n    tag_50:\n        /* \"src/uni/UniswapV2ERC20.sol\":2087:2089  18 */\n      0x12\n        /* \"src/uni/UniswapV2ERC20.sol\":2053:2089  uint8 public constant _decimals = 18 */\n      dup2\n      jump\t// out\n        /* \"src/uni/UniswapV2ERC20.sol\":2095:2120  uint  public _totalSupply */\n    tag_53:\n      sload(0x00)\n      dup2\n      jump\t// out\n        /* \"src/uni/UniswapV2ERC20.sol\":3306:3419  function balanceOf(address owner) external  override view returns (uint){... */\n    tag_58:\n        /* \"src/uni/UniswapV2ERC20.sol\":3373:3377  uint */\n      0x00\n        /* \"src/uni/UniswapV2ERC20.sol\":3395:3405  _balanceOf */\n      0x01\n        /* \"src/uni/UniswapV2ERC20.sol\":3395:3412  _balanceOf[owner] */\n      0x00\n        /* \"src/uni/UniswapV2ERC20.sol\":3406:3411  owner */\n      dup4\n        /* \"src/uni/UniswapV2ERC20.sol\":3395:3412  _balanceOf[owner] */\n      0xffffffffffffffffffffffffffffffffffffffff\n      and\n      0xffffffffffffffffffffffffffffffffffffffff\n      and\n      dup2\n      mstore\n      0x20\n      add\n      swap1\n      dup2\n      mstore\n      0x20\n      add\n      0x00\n      keccak256\n      sload\n        /* \"src/uni/UniswapV2ERC20.sol\":3388:3412  return _balanceOf[owner] */\n      swap1\n      pop\n        /* \"src/uni/UniswapV2ERC20.sol\":3306:3419  function balanceOf(address owner) external  override view returns (uint){... */\n      swap2\n      swap1\n      pop\n      jump\t// out\n        /* \"src/uni/UniswapV2ERC20.sol\":3193:3300  function nonces(address owner) external override view returns (uint) {... */\n    tag_62:\n        /* \"src/uni/UniswapV2ERC20.sol\":3256:3260  uint */\n      0x00\n        /* \"src/uni/UniswapV2ERC20.sol\":3279:3286  _nonces */\n      0x04\n        /* \"src/uni/UniswapV2ERC20.sol\":3279:3293  _nonces[owner] */\n      0x00\n        /* \"src/uni/UniswapV2ERC20.sol\":3287:3292  owner */\n      dup4\n        /* \"src/uni/UniswapV2ERC20.sol\":3279:3293  _nonces[owner] */\n      0xffffffffffffffffffffffffffffffffffffffff\n      and\n      0xffffffffffffffffffffffffffffffffffffffff\n      and\n      dup2\n      mstore\n      0x20\n      add\n      swap1\n      dup2\n      mstore\n      0x20\n      add\n      0x00\n      keccak256\n      sload\n        /* \"src/uni/UniswapV2ERC20.sol\":3272:3293  return _nonces[owner] */\n      swap1\n      pop\n        /* \"src/uni/UniswapV2ERC20.sol\":3193:3300  function nonces(address owner) external override view returns (uint) {... */\n      swap2\n      swap1\n      pop\n      jump\t// out\n        /* \"src/uni/UniswapV2ERC20.sol\":2644:2741  function symbol() external override pure  returns (string memory) {... */\n    tag_65:\n        /* \"src/uni/UniswapV2ERC20.sol\":2695:2708  string memory */\n      0x60\n        /* \"src/uni/UniswapV2ERC20.sol\":2727:2734  _symbol */\n      mload(0x40)\n      dup1\n      0x40\n      add\n      0x40\n      mstore\n      dup1\n      0x06\n      dup2\n      mstore\n      0x20\n      add\n      0x554e492d56320000000000000000000000000000000000000000000000000000\n      dup2\n      mstore\n      pop\n        /* \"src/uni/UniswapV2ERC20.sol\":2720:2734  return _symbol */\n      swap1\n      pop\n        /* \"src/uni/UniswapV2ERC20.sol\":2644:2741  function symbol() external override pure  returns (string memory) {... */\n      swap1\n      jump\t// out\n        /* \"src/uni/UniswapV2ERC20.sol\":2385:2494  bytes32 public constant _PERMIT_TYPEHASH = 0x6e71edae12b1b97f4d1f60370fef10105fa2faae0126114a169c64845d6126c9 */\n    tag_68:\n        /* \"src/uni/UniswapV2ERC20.sol\":2428:2494  0x6e71edae12b1b97f4d1f60370fef10105fa2faae0126114a169c64845d6126c9 */\n      0x6e71edae12b1b97f4d1f60370fef10105fa2faae0126114a169c64845d6126c9\n        /* \"src/uni/UniswapV2ERC20.sol\":2385:2494  bytes32 public constant _PERMIT_TYPEHASH = 0x6e71edae12b1b97f4d1f60370fef10105fa2faae0126114a169c64845d6126c9 */\n      0x00\n      shl\n      dup2\n      jump\t// out\n        /* \"src/uni/UniswapV2ERC20.sol\":5143:5279  function transfer(address to, uint value) external returns (bool) {... */\n    tag_73:\n        /* \"src/uni/UniswapV2ERC20.sol\":5203:5207  bool */\n      0x00\n        /* \"src/uni/UniswapV2ERC20.sol\":5219:5251  _transfer(msg.sender, to, value) */\n      tag_121\n        /* \"src/uni/UniswapV2ERC20.sol\":5229:5239  msg.sender */\n      caller\n        /* \"src/uni/UniswapV2ERC20.sol\":5241:5243  to */\n      dup5\n        /* \"src/uni/UniswapV2ERC20.sol\":5245:5250  value */\n      dup5\n        /* \"src/uni/UniswapV2ERC20.sol\":5219:5228  _transfer */\n      tag_115\n        /* \"src/uni/UniswapV2ERC20.sol\":5219:5251  _transfer(msg.sender, to, value) */\n      jump\t// in\n    tag_121:\n        /* \"src/uni/UniswapV2ERC20.sol\":5268:5272  true */\n      0x01\n        /* \"src/uni/UniswapV2ERC20.sol\":5261:5272  return true */\n      swap1\n      pop\n        /* \"src/uni/UniswapV2ERC20.sol\":5143:5279  function transfer(address to, uint value) external returns (bool) {... */\n      swap3\n      swap2\n      pop\n      pop\n      jump\t// out\n        /* \"src/uni/UniswapV2ERC20.sol\":2006:2047  string public constant _symbol = 'UNI-V2' */\n    tag_76:\n      mload(0x40)\n      dup1\n      0x40\n      add\n      0x40\n      mstore\n      dup1\n      0x06\n      dup2\n      mstore\n      0x20\n      add\n      0x554e492d56320000000000000000000000000000000000000000000000000000\n      dup2\n      mstore\n      pop\n      dup2\n      jump\t// out\n        /* \"src/uni/UniswapV2ERC20.sol\":2500:2539  mapping(address => uint) public _nonces */\n    tag_80:\n      mstore(0x20, 0x04)\n      dup1\n      0x00\n      mstore\n      keccak256(0x00, 0x40)\n      0x00\n      swap2\n      pop\n      swap1\n      pop\n      sload\n      dup2\n      jump\t// out\n        /* \"src/uni/UniswapV2ERC20.sol\":2126:2168  mapping(address => uint) public _balanceOf */\n    tag_84:\n      mstore(0x20, 0x01)\n      dup1\n      0x00\n      mstore\n      keccak256(0x00, 0x40)\n      0x00\n      swap2\n      pop\n      swap1\n      pop\n      sload\n      dup2\n      jump\t// out\n        /* \"src/uni/UniswapV2ERC20.sol\":1957:2000  string public constant _name = 'Uniswap V2' */\n    tag_87:\n      mload(0x40)\n      dup1\n      0x40\n      add\n      0x40\n      mstore\n      dup1\n      0x0a\n      dup2\n      mstore\n      0x20\n      add\n      0x556e697377617020563200000000000000000000000000000000000000000000\n      dup2\n      mstore\n      pop\n      dup2\n      jump\t// out\n        /* \"src/uni/UniswapV2ERC20.sol\":5595:6260  function permit(address owner, address spender, uint value, uint deadline, uint8 v, bytes32 r, bytes32 s) external {... */\n    tag_92:\n        /* \"src/uni/UniswapV2ERC20.sol\":5740:5755  block.timestamp */\n      timestamp\n        /* \"src/uni/UniswapV2ERC20.sol\":5728:5736  deadline */\n      dup5\n        /* \"src/uni/UniswapV2ERC20.sol\":5728:5755  deadline >= block.timestamp */\n      lt\n      iszero\n        /* \"src/uni/UniswapV2ERC20.sol\":5720:5778  require(deadline >= block.timestamp, 'UniswapV2: EXPIRED') */\n      tag_123\n      jumpi\n      mload(0x40)\n      0x08c379a000000000000000000000000000000000000000000000000000000000\n      dup2\n      mstore\n      0x04\n      add\n      tag_124\n      swap1\n      tag_125\n      jump\t// in\n    tag_124:\n      mload(0x40)\n      dup1\n      swap2\n      sub\n      swap1\n      revert\n    tag_123:\n        /* \"src/uni/UniswapV2ERC20.sol\":5788:5802  bytes32 digest */\n      0x00\n        /* \"src/uni/UniswapV2ERC20.sol\":5890:5907  _DOMAIN_SEPARATOR */\n      sload(0x03)\n        /* \"src/uni/UniswapV2ERC20.sol\":2428:2494  0x6e71edae12b1b97f4d1f60370fef10105fa2faae0126114a169c64845d6126c9 */\n      0x6e71edae12b1b97f4d1f60370fef10105fa2faae0126114a169c64845d6126c9\n        /* \"src/uni/UniswapV2ERC20.sol\":5946:5962  _PERMIT_TYPEHASH */\n      0x00\n      shl\n        /* \"src/uni/UniswapV2ERC20.sol\":5964:5969  owner */\n      dup10\n        /* \"src/uni/UniswapV2ERC20.sol\":5971:5978  spender */\n      dup10\n        /* \"src/uni/UniswapV2ERC20.sol\":5980:5985  value */\n      dup10\n        /* \"src/uni/UniswapV2ERC20.sol\":5987:5994  _nonces */\n      0x04\n        /* \"src/uni/UniswapV2ERC20.sol\":5987:6001  _nonces[owner] */\n      0x00\n        /* \"src/uni/UniswapV2ERC20.sol\":5995:6000  owner */\n      dup15\n        /* \"src/uni/UniswapV2ERC20.sol\":5987:6001  _nonces[owner] */\n      0xffffffffffffffffffffffffffffffffffffffff\n      and\n      0xffffffffffffffffffffffffffffffffffffffff\n      and\n      dup2\n      mstore\n      0x20\n      add\n      swap1\n      dup2\n      mstore\n      0x20\n      add\n      0x00\n      keccak256\n      0x00\n        /* \"src/uni/UniswapV2ERC20.sol\":5987:6003  _nonces[owner]++ */\n      dup2\n      sload\n      dup1\n      swap3\n      swap2\n      swap1\n      tag_126\n      swap1\n      tag_127\n      jump\t// in\n    tag_126:\n      swap2\n      swap1\n      pop\n      sstore\n        /* \"src/uni/UniswapV2ERC20.sol\":6005:6013  deadline */\n      dup11\n        /* \"src/uni/UniswapV2ERC20.sol\":5935:6014  abi.encode(_PERMIT_TYPEHASH, owner, spender, value, _nonces[owner]++, deadline) */\n      add(0x20, mload(0x40))\n      tag_128\n      swap7\n      swap6\n      swap5\n      swap4\n      swap3\n      swap2\n      swap1\n      tag_129\n      jump\t// in\n    tag_128:\n      mload(0x40)\n      0x20\n      dup2\n      dup4\n      sub\n      sub\n      dup2\n      mstore\n      swap1\n      0x40\n      mstore\n        /* \"src/uni/UniswapV2ERC20.sol\":5925:6015  keccak256(abi.encode(_PERMIT_TYPEHASH, owner, spender, value, _nonces[owner]++, deadline)) */\n      dup1\n      mload\n      swap1\n      0x20\n      add\n      keccak256\n        /* \"src/uni/UniswapV2ERC20.sol\":5828:6029  abi.encodePacked(... */\n      add(0x20, mload(0x40))\n      tag_130\n      swap3\n      swap2\n      swap1\n      tag_131\n      jump\t// in\n    tag_130:\n      mload(0x40)\n      0x20\n      dup2\n      dup4\n      sub\n      sub\n      dup2\n      mstore\n      swap1\n      0x40\n      mstore\n        /* \"src/uni/UniswapV2ERC20.sol\":5805:6039  keccak256(... */\n      dup1\n      mload\n      swap1\n      0x20\n      add\n      keccak256\n        /* \"src/uni/UniswapV2ERC20.sol\":5788:6039  bytes32 digest = keccak256(... */\n      swap1\n      pop\n        /* \"src/uni/UniswapV2ERC20.sol\":6049:6073  address recoveredAddress */\n      0x00\n        /* \"src/uni/UniswapV2ERC20.sol\":6076:6102  ecrecover(digest, v, r, s) */\n      0x01\n        /* \"src/uni/UniswapV2ERC20.sol\":6086:6092  digest */\n      dup3\n        /* \"src/uni/UniswapV2ERC20.sol\":6094:6095  v */\n      dup7\n        /* \"src/uni/UniswapV2ERC20.sol\":6097:6098  r */\n      dup7\n        /* \"src/uni/UniswapV2ERC20.sol\":6100:6101  s */\n      dup7\n        /* \"src/uni/UniswapV2ERC20.sol\":6076:6102  ecrecover(digest, v, r, s) */\n      mload(0x40)\n      0x00\n      dup2\n      mstore\n      0x20\n      add\n      0x40\n      mstore\n      mload(0x40)\n      tag_132\n      swap5\n      swap4\n      swap3\n      swap2\n      swap1\n      tag_133\n      jump\t// in\n    tag_132:\n      0x20\n      mload(0x40)\n      0x20\n      dup2\n      sub\n      swap1\n      dup1\n      dup5\n      sub\n      swap1\n      dup6\n      gas\n      staticcall\n      iszero\n      dup1\n      iszero\n      tag_135\n      jumpi\n      returndatasize\n      0x00\n      dup1\n      returndatacopy\n      revert(0x00, returndatasize)\n    tag_135:\n      pop\n      pop\n      pop\n      mload(sub(mload(0x40), 0x20))\n        /* \"src/uni/UniswapV2ERC20.sol\":6049:6102  address recoveredAddress = ecrecover(digest, v, r, s) */\n      swap1\n      pop\n        /* \"src/uni/UniswapV2ERC20.sol\":6148:6149  0 */\n      0x00\n        /* \"src/uni/UniswapV2ERC20.sol\":6120:6150  recoveredAddress != address(0) */\n      0xffffffffffffffffffffffffffffffffffffffff\n      and\n        /* \"src/uni/UniswapV2ERC20.sol\":6120:6136  recoveredAddress */\n      dup2\n        /* \"src/uni/UniswapV2ERC20.sol\":6120:6150  recoveredAddress != address(0) */\n      0xffffffffffffffffffffffffffffffffffffffff\n      and\n      eq\n      iszero\n        /* \"src/uni/UniswapV2ERC20.sol\":6120:6179  recoveredAddress != address(0) && recoveredAddress == owner */\n      dup1\n      iszero\n      tag_136\n      jumpi\n      pop\n        /* \"src/uni/UniswapV2ERC20.sol\":6174:6179  owner */\n      dup9\n        /* \"src/uni/UniswapV2ERC20.sol\":6154:6179  recoveredAddress == owner */\n      0xffffffffffffffffffffffffffffffffffffffff\n      and\n        /* \"src/uni/UniswapV2ERC20.sol\":6154:6170  recoveredAddress */\n      dup2\n        /* \"src/uni/UniswapV2ERC20.sol\":6154:6179  recoveredAddress == owner */\n      0xffffffffffffffffffffffffffffffffffffffff\n      and\n      eq\n        /* \"src/uni/UniswapV2ERC20.sol\":6120:6179  recoveredAddress != address(0) && recoveredAddress == owner */\n    tag_136:\n        /* \"src/uni/UniswapV2ERC20.sol\":6112:6212  require(recoveredAddress != address(0) && recoveredAddress == owner, 'UniswapV2: INVALID_SIGNATURE') */\n      tag_137\n      jumpi\n      mload(0x40)\n      0x08c379a000000000000000000000000000000000000000000000000000000000\n      dup2\n      mstore\n      0x04\n      add\n      tag_138\n      swap1\n      tag_139\n      jump\t// in\n    tag_138:\n      mload(0x40)\n      dup1\n      swap2\n      sub\n      swap1\n      revert\n    tag_137:\n        /* \"src/uni/UniswapV2ERC20.sol\":6222:6253  _approve(owner, spender, value) */\n      tag_140\n        /* \"src/uni/UniswapV2ERC20.sol\":6231:6236  owner */\n      dup10\n        /* \"src/uni/UniswapV2ERC20.sol\":6238:6245  spender */\n      dup10\n        /* \"src/uni/UniswapV2ERC20.sol\":6247:6252  value */\n      dup10\n        /* \"src/uni/UniswapV2ERC20.sol\":6222:6230  _approve */\n      tag_108\n        /* \"src/uni/UniswapV2ERC20.sol\":6222:6253  _approve(owner, spender, value) */\n      jump\t// in\n    tag_140:\n        /* \"src/uni/UniswapV2ERC20.sol\":5710:6260  {... */\n      pop\n      pop\n        /* \"src/uni/UniswapV2ERC20.sol\":5595:6260  function permit(address owner, address spender, uint value, uint deadline, uint8 v, bytes32 r, bytes32 s) external {... */\n      pop\n      pop\n      pop\n      pop\n      pop\n      pop\n      pop\n      jump\t// out\n        /* \"src/uni/UniswapV2ERC20.sol\":2243:2275  bytes32 public _DOMAIN_SEPARATOR */\n    tag_94:\n      sload(0x03)\n      dup2\n      jump\t// out\n        /* \"src/uni/UniswapV2ERC20.sol\":2174:2236  mapping(address => mapping(address => uint)) public _allowance */\n    tag_99:\n      mstore(0x20, 0x02)\n      dup2\n      0x00\n      mstore\n      mstore(0x20, keccak256(0x00, 0x40))\n      dup1\n      0x00\n      mstore\n      keccak256(0x00, 0x40)\n      0x00\n      swap2\n      pop\n      swap2\n      pop\n      pop\n      sload\n      dup2\n      jump\t// out\n        /* \"src/uni/UniswapV2ERC20.sol\":3425:3563  function allowance(address owner, address spender) external override view returns (uint){... */\n    tag_103:\n        /* \"src/uni/UniswapV2ERC20.sol\":3508:3512  uint */\n      0x00\n        /* \"src/uni/UniswapV2ERC20.sol\":3530:3540  _allowance */\n      0x02\n        /* \"src/uni/UniswapV2ERC20.sol\":3530:3547  _allowance[owner] */\n      0x00\n        /* \"src/uni/UniswapV2ERC20.sol\":3541:3546  owner */\n      dup5\n        /* \"src/uni/UniswapV2ERC20.sol\":3530:3547  _allowance[owner] */\n      0xffffffffffffffffffffffffffffffffffffffff\n      and\n      0xffffffffffffffffffffffffffffffffffffffff\n      and\n      dup2\n      mstore\n      0x20\n      add\n      swap1\n      dup2\n      mstore\n      0x20\n      add\n      0x00\n      keccak256\n        /* \"src/uni/UniswapV2ERC20.sol\":3530:3556  _allowance[owner][spender] */\n      0x00\n        /* \"src/uni/UniswapV2ERC20.sol\":3548:3555  spender */\n      dup4\n        /* \"src/uni/UniswapV2ERC20.sol\":3530:3556  _allowance[owner][spender] */\n      0xffffffffffffffffffffffffffffffffffffffff\n      and\n      0xffffffffffffffffffffffffffffffffffffffff\n      and\n      dup2\n      mstore\n      0x20\n      add\n      swap1\n      dup2\n      mstore\n      0x20\n      add\n      0x00\n      keccak256\n      sload\n        /* \"src/uni/UniswapV2ERC20.sol\":3523:3556  return _allowance[owner][spender] */\n      swap1\n      pop\n        /* \"src/uni/UniswapV2ERC20.sol\":3425:3563  function allowance(address owner, address spender) external override view returns (uint){... */\n      swap3\n      swap2\n      pop\n      pop\n      jump\t// out\n        /* \"src/uni/UniswapV2ERC20.sol\":4594:4761  function _approve(address owner, address spender, uint value) private {... */\n    tag_108:\n        /* \"src/uni/UniswapV2ERC20.sol\":4703:4708  value */\n      dup1\n        /* \"src/uni/UniswapV2ERC20.sol\":4674:4684  _allowance */\n      0x02\n        /* \"src/uni/UniswapV2ERC20.sol\":4674:4691  _allowance[owner] */\n      0x00\n        /* \"src/uni/UniswapV2ERC20.sol\":4685:4690  owner */\n      dup6\n        /* \"src/uni/UniswapV2ERC20.sol\":4674:4691  _allowance[owner] */\n      0xffffffffffffffffffffffffffffffffffffffff\n      and\n      0xffffffffffffffffffffffffffffffffffffffff\n      and\n      dup2\n      mstore\n      0x20\n      add\n      swap1\n      dup2\n      mstore\n      0x20\n      add\n      0x00\n      keccak256\n        /* \"src/uni/UniswapV2ERC20.sol\":4674:4700  _allowance[owner][spender] */\n      0x00\n        /* \"src/uni/UniswapV2ERC20.sol\":4692:4699  spender */\n      dup5\n        /* \"src/uni/UniswapV2ERC20.sol\":4674:4700  _allowance[owner][spender] */\n      0xffffffffffffffffffffffffffffffffffffffff\n      and\n      0xffffffffffffffffffffffffffffffffffffffff\n      and\n      dup2\n      mstore\n      0x20\n      add\n      swap1\n      dup2\n      mstore\n      0x20\n      add\n      0x00\n      keccak256\n        /* \"src/uni/UniswapV2ERC20.sol\":4674:4708  _allowance[owner][spender] = value */\n      dup2\n      swap1\n      sstore\n      pop\n        /* \"src/uni/UniswapV2ERC20.sol\":4739:4746  spender */\n      dup2\n        /* \"src/uni/UniswapV2ERC20.sol\":4723:4754  Approval(owner, spender, value) */\n      0xffffffffffffffffffffffffffffffffffffffff\n      and\n        /* \"src/uni/UniswapV2ERC20.sol\":4732:4737  owner */\n      dup4\n        /* \"src/uni/UniswapV2ERC20.sol\":4723:4754  Approval(owner, spender, value) */\n      0xffffffffffffffffffffffffffffffffffffffff\n      and\n      0x8c5be1e5ebec7d5bd14f71427d1e84f3dd0314c0f7b2291e5b200ac8c7c3b925\n        /* \"src/uni/UniswapV2ERC20.sol\":4748:4753  value */\n      dup4\n        /* \"src/uni/UniswapV2ERC20.sol\":4723:4754  Approval(owner, spender, value) */\n      mload(0x40)\n      tag_143\n      swap2\n      swap1\n      tag_39\n      jump\t// in\n    tag_143:\n      mload(0x40)\n      dup1\n      swap2\n      sub\n      swap1\n      log3\n        /* \"src/uni/UniswapV2ERC20.sol\":4594:4761  function _approve(address owner, address spender, uint value) private {... */\n      pop\n      pop\n      pop\n      jump\t// out\n        /* \"src/uni/UniswapV2ERC20.sol\":328:455  function sub(uint x, uint y) internal pure returns (uint z) {... */\n    tag_113:\n        /* \"src/uni/UniswapV2ERC20.sol\":380:386  uint z */\n      0x00\n        /* \"src/uni/UniswapV2ERC20.sol\":421:422  x */\n      dup3\n        /* \"src/uni/UniswapV2ERC20.sol\":415:416  y */\n      dup3\n        /* \"src/uni/UniswapV2ERC20.sol\":411:412  x */\n      dup5\n        /* \"src/uni/UniswapV2ERC20.sol\":411:416  x - y */\n      tag_145\n      swap2\n      swap1\n      tag_146\n      jump\t// in\n    tag_145:\n        /* \"src/uni/UniswapV2ERC20.sol\":407:416  z = x - y */\n      swap2\n      pop\n      dup2\n        /* \"src/uni/UniswapV2ERC20.sol\":406:422  (z = x - y) <= x */\n      gt\n      iszero\n        /* \"src/uni/UniswapV2ERC20.sol\":398:448  require((z = x - y) <= x, 'ds-math-sub-underflow') */\n      tag_147\n      jumpi\n      mload(0x40)\n      0x08c379a000000000000000000000000000000000000000000000000000000000\n      dup2\n      mstore\n      0x04\n      add\n      tag_148\n      swap1\n      tag_149\n      jump\t// in\n    tag_148:\n      mload(0x40)\n      dup1\n      swap2\n      sub\n      swap1\n      revert\n    tag_147:\n        /* \"src/uni/UniswapV2ERC20.sol\":328:455  function sub(uint x, uint y) internal pure returns (uint z) {... */\n      swap3\n      swap2\n      pop\n      pop\n      jump\t// out\n        /* \"src/uni/UniswapV2ERC20.sol\":4767:4987  function _transfer(address from, address to, uint value) private {... */\n    tag_115:\n        /* \"src/uni/UniswapV2ERC20.sol\":4861:4888  _balanceOf[from].sub(value) */\n      tag_151\n        /* \"src/uni/UniswapV2ERC20.sol\":4882:4887  value */\n      dup2\n        /* \"src/uni/UniswapV2ERC20.sol\":4861:4871  _balanceOf */\n      0x01\n        /* \"src/uni/UniswapV2ERC20.sol\":4861:4877  _balanceOf[from] */\n      0x00\n        /* \"src/uni/UniswapV2ERC20.sol\":4872:4876  from */\n      dup7\n        /* \"src/uni/UniswapV2ERC20.sol\":4861:4877  _balanceOf[from] */\n      0xffffffffffffffffffffffffffffffffffffffff\n      and\n      0xffffffffffffffffffffffffffffffffffffffff\n      and\n      dup2\n      mstore\n      0x20\n      add\n      swap1\n      dup2\n      mstore\n      0x20\n      add\n      0x00\n      keccak256\n      sload\n        /* \"src/uni/UniswapV2ERC20.sol\":4861:4881  _balanceOf[from].sub */\n      tag_113\n      swap1\n        /* \"src/uni/UniswapV2ERC20.sol\":4861:4888  _balanceOf[from].sub(value) */\n      swap2\n      swap1\n      0xffffffff\n      and\n      jump\t// in\n    tag_151:\n        /* \"src/uni/UniswapV2ERC20.sol\":4842:4852  _balanceOf */\n      0x01\n        /* \"src/uni/UniswapV2ERC20.sol\":4842:4858  _balanceOf[from] */\n      0x00\n        /* \"src/uni/UniswapV2ERC20.sol\":4853:4857  from */\n      dup6\n        /* \"src/uni/UniswapV2ERC20.sol\":4842:4858  _balanceOf[from] */\n      0xffffffffffffffffffffffffffffffffffffffff\n      and\n      0xffffffffffffffffffffffffffffffffffffffff\n      and\n      dup2\n      mstore\n      0x20\n      add\n      swap1\n      dup2\n      mstore\n      0x20\n      add\n      0x00\n      keccak256\n        /* \"src/uni/UniswapV2ERC20.sol\":4842:4888  _balanceOf[from] = _balanceOf[from].sub(value) */\n      dup2\n      swap1\n      sstore\n      pop\n        /* \"src/uni/UniswapV2ERC20.sol\":4915:4940  _balanceOf[to].add(value) */\n      tag_152\n        /* \"src/uni/UniswapV2ERC20.sol\":4934:4939  value */\n      dup2\n        /* \"src/uni/UniswapV2ERC20.sol\":4915:4925  _balanceOf */\n      0x01\n        /* \"src/uni/UniswapV2ERC20.sol\":4915:4929  _balanceOf[to] */\n      0x00\n        /* \"src/uni/UniswapV2ERC20.sol\":4926:4928  to */\n      dup6\n        /* \"src/uni/UniswapV2ERC20.sol\":4915:4929  _balanceOf[to] */\n      0xffffffffffffffffffffffffffffffffffffffff\n      and\n      0xffffffffffffffffffffffffffffffffffffffff\n      and\n      dup2\n      mstore\n      0x20\n      add\n      swap1\n      dup2\n      mstore\n      0x20\n      add\n      0x00\n      keccak256\n      sload\n        /* \"src/uni/UniswapV2ERC20.sol\":4915:4933  _balanceOf[to].add */\n      tag_153\n      swap1\n        /* \"src/uni/UniswapV2ERC20.sol\":4915:4940  _balanceOf[to].add(value) */\n      swap2\n      swap1\n      0xffffffff\n      and\n      jump\t// in\n    tag_152:\n        /* \"src/uni/UniswapV2ERC20.sol\":4898:4908  _balanceOf */\n      0x01\n        /* \"src/uni/UniswapV2ERC20.sol\":4898:4912  _balanceOf[to] */\n      0x00\n        /* \"src/uni/UniswapV2ERC20.sol\":4909:4911  to */\n      dup5\n        /* \"src/uni/UniswapV2ERC20.sol\":4898:4912  _balanceOf[to] */\n      0xffffffffffffffffffffffffffffffffffffffff\n      and\n      0xffffffffffffffffffffffffffffffffffffffff\n      and\n      dup2\n      mstore\n      0x20\n      add\n      swap1\n      dup2\n      mstore\n      0x20\n      add\n      0x00\n      keccak256\n        /* \"src/uni/UniswapV2ERC20.sol\":4898:4940  _balanceOf[to] = _balanceOf[to].add(value) */\n      dup2\n      swap1\n      sstore\n      pop\n        /* \"src/uni/UniswapV2ERC20.sol\":4970:4972  to */\n      dup2\n        /* \"src/uni/UniswapV2ERC20.sol\":4955:4980  Transfer(from, to, value) */\n      0xffffffffffffffffffffffffffffffffffffffff\n      and\n        /* \"src/uni/UniswapV2ERC20.sol\":4964:4968  from */\n      dup4\n        /* \"src/uni/UniswapV2ERC20.sol\":4955:4980  Transfer(from, to, value) */\n      0xffffffffffffffffffffffffffffffffffffffff\n      and\n      0xddf252ad1be2c89b69c2b068fc378daa952ba7f163c4a11628f55a4df523b3ef\n        /* \"src/uni/UniswapV2ERC20.sol\":4974:4979  value */\n      dup4\n        /* \"src/uni/UniswapV2ERC20.sol\":4955:4980  Transfer(from, to, value) */\n      mload(0x40)\n      tag_154\n      swap2\n      swap1\n      tag_39\n      jump\t// in\n    tag_154:\n      mload(0x40)\n      dup1\n      swap2\n      sub\n      swap1\n      log3\n        /* \"src/uni/UniswapV2ERC20.sol\":4767:4987  function _transfer(address from, address to, uint value) private {... */\n      pop\n      pop\n      pop\n      jump\t// out\n        /* \"src/uni/UniswapV2ERC20.sol\":196:322  function add(uint x, uint y) internal pure returns (uint z) {... */\n    tag_153:\n        /* \"src/uni/UniswapV2ERC20.sol\":248:254  uint z */\n      0x00\n        /* \"src/uni/UniswapV2ERC20.sol\":289:290  x */\n      dup3\n        /* \"src/uni/UniswapV2ERC20.sol\":283:284  y */\n      dup3\n        /* \"src/uni/UniswapV2ERC20.sol\":279:280  x */\n      dup5\n        /* \"src/uni/UniswapV2ERC20.sol\":279:284  x + y */\n      tag_156\n      swap2\n      swap1\n      tag_157\n      jump\t// in\n    tag_156:\n        /* \"src/uni/UniswapV2ERC20.sol\":275:284  z = x + y */\n      swap2\n      pop\n      dup2\n        /* \"src/uni/UniswapV2ERC20.sol\":274:290  (z = x + y) >= x */\n      lt\n      iszero\n        /* \"src/uni/UniswapV2ERC20.sol\":266:315  require((z = x + y) >= x, 'ds-math-add-overflow') */\n      tag_158\n      jumpi\n      mload(0x40)\n      0x08c379a000000000000000000000000000000000000000000000000000000000\n      dup2\n      mstore\n      0x04\n      add\n      tag_159\n      swap1\n      tag_160\n      jump\t// in\n    tag_159:\n      mload(0x40)\n      dup1\n      swap2\n      sub\n      swap1\n      revert\n    tag_158:\n        /* \"src/uni/UniswapV2ERC20.sol\":196:322  function add(uint x, uint y) internal pure returns (uint z) {... */\n      swap3\n      swap2\n      pop\n      pop\n      jump\t// out\n        /* \"#utility.yul\":7:106   */\n    tag_161:\n        /* \"#utility.yul\":59:65   */\n      0x00\n        /* \"#utility.yul\":93:98   */\n      dup2\n        /* \"#utility.yul\":87:99   */\n      mload\n        /* \"#utility.yul\":77:99   */\n      swap1\n      pop\n        /* \"#utility.yul\":7:106   */\n      swap2\n      swap1\n      pop\n      jump\t// out\n        /* \"#utility.yul\":112:281   */\n    tag_162:\n        /* \"#utility.yul\":196:207   */\n      0x00\n        /* \"#utility.yul\":230:236   */\n      dup3\n        /* \"#utility.yul\":225:228   */\n      dup3\n        /* \"#utility.yul\":218:237   */\n      mstore\n        /* \"#utility.yul\":270:274   */\n      0x20\n        /* \"#utility.yul\":265:268   */\n      dup3\n        /* \"#utility.yul\":261:275   */\n      add\n        /* \"#utility.yul\":246:275   */\n      swap1\n      pop\n        /* \"#utility.yul\":112:281   */\n      swap3\n      swap2\n      pop\n      pop\n      jump\t// out\n        /* \"#utility.yul\":287:533   */\n    tag_163:\n        /* \"#utility.yul\":368:369   */\n      0x00\n        /* \"#utility.yul\":378:491   */\n    tag_206:\n        /* \"#utility.yul\":392:398   */\n      dup4\n        /* \"#utility.yul\":389:390   */\n      dup2\n        /* \"#utility.yul\":386:399   */\n      lt\n        /* \"#utility.yul\":378:491   */\n      iszero\n      tag_208\n      jumpi\n        /* \"#utility.yul\":477:478   */\n      dup1\n        /* \"#utility.yul\":472:475   */\n      dup3\n        /* \"#utility.yul\":468:479   */\n      add\n        /* \"#utility.yul\":462:480   */\n      mload\n        /* \"#utility.yul\":458:459   */\n      dup2\n        /* \"#utility.yul\":453:456   */\n      dup5\n        /* \"#utility.yul\":449:460   */\n      add\n        /* \"#utility.yul\":442:481   */\n      mstore\n        /* \"#utility.yul\":414:416   */\n      0x20\n        /* \"#utility.yul\":411:412   */\n      dup2\n        /* \"#utility.yul\":407:417   */\n      add\n        /* \"#utility.yul\":402:417   */\n      swap1\n      pop\n        /* \"#utility.yul\":378:491   */\n      jump(tag_206)\n    tag_208:\n        /* \"#utility.yul\":525:526   */\n      0x00\n        /* \"#utility.yul\":516:522   */\n      dup5\n        /* \"#utility.yul\":511:514   */\n      dup5\n        /* \"#utility.yul\":507:523   */\n      add\n        /* \"#utility.yul\":500:527   */\n      mstore\n        /* \"#utility.yul\":349:533   */\n      pop\n        /* \"#utility.yul\":287:533   */\n      pop\n      pop\n      pop\n      jump\t// out\n        /* \"#utility.yul\":539:641   */\n    tag_164:\n        /* \"#utility.yul\":580:586   */\n      0x00\n        /* \"#utility.yul\":631:633   */\n      0x1f\n        /* \"#utility.yul\":627:634   */\n      not\n        /* \"#utility.yul\":622:624   */\n      0x1f\n        /* \"#utility.yul\":615:620   */\n      dup4\n        /* \"#utility.yul\":611:625   */\n      add\n        /* \"#utility.yul\":607:635   */\n      and\n        /* \"#utility.yul\":597:635   */\n      swap1\n      pop\n        /* \"#utility.yul\":539:641   */\n      swap2\n      swap1\n      pop\n      jump\t// out\n        /* \"#utility.yul\":647:1024   */\n    tag_165:\n        /* \"#utility.yul\":735:738   */\n      0x00\n        /* \"#utility.yul\":763:802   */\n      tag_211\n        /* \"#utility.yul\":796:801   */\n      dup3\n        /* \"#utility.yul\":763:802   */\n      tag_161\n      jump\t// in\n    tag_211:\n        /* \"#utility.yul\":818:889   */\n      tag_212\n        /* \"#utility.yul\":882:888   */\n      dup2\n        /* \"#utility.yul\":877:880   */\n      dup6\n        /* \"#utility.yul\":818:889   */\n      tag_162\n      jump\t// in\n    tag_212:\n        /* \"#utility.yul\":811:889   */\n      swap4\n      pop\n        /* \"#utility.yul\":898:963   */\n      tag_213\n        /* \"#utility.yul\":956:962   */\n      dup2\n        /* \"#utility.yul\":951:954   */\n      dup6\n        /* \"#utility.yul\":944:948   */\n      0x20\n        /* \"#utility.yul\":937:942   */\n      dup7\n        /* \"#utility.yul\":933:949   */\n      add\n        /* \"#utility.yul\":898:963   */\n      tag_163\n      jump\t// in\n    tag_213:\n        /* \"#utility.yul\":988:1017   */\n      tag_214\n        /* \"#utility.yul\":1010:1016   */\n      dup2\n        /* \"#utility.yul\":988:1017   */\n      tag_164\n      jump\t// in\n    tag_214:\n        /* \"#utility.yul\":983:986   */\n      dup5\n        /* \"#utility.yul\":979:1018   */\n      add\n        /* \"#utility.yul\":972:1018   */\n      swap2\n      pop\n        /* \"#utility.yul\":739:1024   */\n      pop\n        /* \"#utility.yul\":647:1024   */\n      swap3\n      swap2\n      pop\n      pop\n      jump\t// out\n        /* \"#utility.yul\":1030:1343   */\n    tag_29:\n        /* \"#utility.yul\":1143:1147   */\n      0x00\n        /* \"#utility.yul\":1181:1183   */\n      0x20\n        /* \"#utility.yul\":1170:1179   */\n      dup3\n        /* \"#utility.yul\":1166:1184   */\n      add\n        /* \"#utility.yul\":1158:1184   */\n      swap1\n      pop\n        /* \"#utility.yul\":1230:1239   */\n      dup2\n        /* \"#utility.yul\":1224:1228   */\n      dup2\n        /* \"#utility.yul\":1220:1240   */\n      sub\n        /* \"#utility.yul\":1216:1217   */\n      0x00\n        /* \"#utility.yul\":1205:1214   */\n      dup4\n        /* \"#utility.yul\":1201:1218   */\n      add\n        /* \"#utility.yul\":1194:1241   */\n      mstore\n        /* \"#utility.yul\":1258:1336   */\n      tag_216\n        /* \"#utility.yul\":1331:1335   */\n      dup2\n        /* \"#utility.yul\":1322:1328   */\n      dup5\n        /* \"#utility.yul\":1258:1336   */\n      tag_165\n      jump\t// in\n    tag_216:\n        /* \"#utility.yul\":1250:1336   */\n      swap1\n      pop\n        /* \"#utility.yul\":1030:1343   */\n      swap3\n      swap2\n      pop\n      pop\n      jump\t// out\n        /* \"#utility.yul\":1430:1547   */\n    tag_167:\n        /* \"#utility.yul\":1539:1540   */\n      0x00\n        /* \"#utility.yul\":1536:1537   */\n      dup1\n        /* \"#utility.yul\":1529:1541   */\n      revert\n        /* \"#utility.yul\":1676:1802   */\n    tag_169:\n        /* \"#utility.yul\":1713:1720   */\n      0x00\n        /* \"#utility.yul\":1753:1795   */\n      0xffffffffffffffffffffffffffffffffffffffff\n        /* \"#utility.yul\":1746:1751   */\n      dup3\n        /* \"#utility.yul\":1742:1796   */\n      and\n        /* \"#utility.yul\":1731:1796   */\n      swap1\n      pop\n        /* \"#utility.yul\":1676:1802   */\n      swap2\n      swap1\n      pop\n      jump\t// out\n        /* \"#utility.yul\":1808:1904   */\n    tag_170:\n        /* \"#utility.yul\":1845:1852   */\n      0x00\n        /* \"#utility.yul\":1874:1898   */\n      tag_222\n        /* \"#utility.yul\":1892:1897   */\n      dup3\n        /* \"#utility.yul\":1874:1898   */\n      tag_169\n      jump\t// in\n    tag_222:\n        /* \"#utility.yul\":1863:1898   */\n      swap1\n      pop\n        /* \"#utility.yul\":1808:1904   */\n      swap2\n      swap1\n      pop\n      jump\t// out\n        /* \"#utility.yul\":1910:2032   */\n    tag_171:\n        /* \"#utility.yul\":1983:2007   */\n      tag_224\n        /* \"#utility.yul\":2001:2006   */\n      dup2\n        /* \"#utility.yul\":1983:2007   */\n      tag_170\n      jump\t// in\n    tag_224:\n        /* \"#utility.yul\":1976:1981   */\n      dup2\n        /* \"#utility.yul\":1973:2008   */\n      eq\n        /* \"#utility.yul\":1963:2026   */\n      tag_225\n      jumpi\n        /* \"#utility.yul\":2022:2023   */\n      0x00\n        /* \"#utility.yul\":2019:2020   */\n      dup1\n        /* \"#utility.yul\":2012:2024   */\n      revert\n        /* \"#utility.yul\":1963:2026   */\n    tag_225:\n        /* \"#utility.yul\":1910:2032   */\n      pop\n      jump\t// out\n        /* \"#utility.yul\":2038:2177   */\n    tag_172:\n        /* \"#utility.yul\":2084:2089   */\n      0x00\n        /* \"#utility.yul\":2122:2128   */\n      dup2\n        /* \"#utility.yul\":2109:2129   */\n      calldataload\n        /* \"#utility.yul\":2100:2129   */\n      swap1\n      pop\n        /* \"#utility.yul\":2138:2171   */\n      tag_227\n        /* \"#utility.yul\":2165:2170   */\n      dup2\n        /* \"#utility.yul\":2138:2171   */\n      tag_171\n      jump\t// in\n    tag_227:\n        /* \"#utility.yul\":2038:2177   */\n      swap3\n      swap2\n      pop\n      pop\n      jump\t// out\n        /* \"#utility.yul\":2183:2260   */\n    tag_173:\n        /* \"#utility.yul\":2220:2227   */\n      0x00\n        /* \"#utility.yul\":2249:2254   */\n      dup2\n        /* \"#utility.yul\":2238:2254   */\n      swap1\n      pop\n        /* \"#utility.yul\":2183:2260   */\n      swap2\n      swap1\n      pop\n      jump\t// out\n        /* \"#utility.yul\":2266:2388   */\n    tag_174:\n        /* \"#utility.yul\":2339:2363   */\n      tag_230\n        /* \"#utility.yul\":2357:2362   */\n      dup2\n        /* \"#utility.yul\":2339:2363   */\n      tag_173\n      jump\t// in\n    tag_230:\n        /* \"#utility.yul\":2332:2337   */\n      dup2\n        /* \"#utility.yul\":2329:2364   */\n      eq\n        /* \"#utility.yul\":2319:2382   */\n      tag_231\n      jumpi\n        /* \"#utility.yul\":2378:2379   */\n      0x00\n        /* \"#utility.yul\":2375:2376   */\n      dup1\n        /* \"#utility.yul\":2368:2380   */\n      revert\n        /* \"#utility.yul\":2319:2382   */\n    tag_231:\n        /* \"#utility.yul\":2266:2388   */\n      pop\n      jump\t// out\n        /* \"#utility.yul\":2394:2533   */\n    tag_175:\n        /* \"#utility.yul\":2440:2445   */\n      0x00\n        /* \"#utility.yul\":2478:2484   */\n      dup2\n        /* \"#utility.yul\":2465:2485   */\n      calldataload\n        /* \"#utility.yul\":2456:2485   */\n      swap1\n      pop\n        /* \"#utility.yul\":2494:2527   */\n      tag_233\n        /* \"#utility.yul\":2521:2526   */\n      dup2\n        /* \"#utility.yul\":2494:2527   */\n      tag_174\n      jump\t// in\n    tag_233:\n        /* \"#utility.yul\":2394:2533   */\n      swap3\n      swap2\n      pop\n      pop\n      jump\t// out\n        /* \"#utility.yul\":2539:3013   */\n    tag_32:\n        /* \"#utility.yul\":2607:2613   */\n      0x00\n        /* \"#utility.yul\":2615:2621   */\n      dup1\n        /* \"#utility.yul\":2664:2666   */\n      0x40\n        /* \"#utility.yul\":2652:2661   */\n      dup4\n        /* \"#utility.yul\":2643:2650   */\n      dup6\n        /* \"#utility.yul\":2639:2662   */\n      sub\n        /* \"#utility.yul\":2635:2667   */\n      slt\n        /* \"#utility.yul\":2632:2751   */\n      iszero\n      tag_235\n      jumpi\n        /* \"#utility.yul\":2670:2749   */\n      tag_236\n      tag_167\n      jump\t// in\n    tag_236:\n        /* \"#utility.yul\":2632:2751   */\n    tag_235:\n        /* \"#utility.yul\":2790:2791   */\n      0x00\n        /* \"#utility.yul\":2815:2868   */\n      tag_237\n        /* \"#utility.yul\":2860:2867   */\n      dup6\n        /* \"#utility.yul\":2851:2857   */\n      dup3\n        /* \"#utility.yul\":2840:2849   */\n      dup7\n        /* \"#utility.yul\":2836:2858   */\n      add\n        /* \"#utility.yul\":2815:2868   */\n      tag_172\n      jump\t// in\n    tag_237:\n        /* \"#utility.yul\":2805:2868   */\n      swap3\n      pop\n        /* \"#utility.yul\":2761:2878   */\n      pop\n        /* \"#utility.yul\":2917:2919   */\n      0x20\n        /* \"#utility.yul\":2943:2996   */\n      tag_238\n        /* \"#utility.yul\":2988:2995   */\n      dup6\n        /* \"#utility.yul\":2979:2985   */\n      dup3\n        /* \"#utility.yul\":2968:2977   */\n      dup7\n        /* \"#utility.yul\":2964:2986   */\n      add\n        /* \"#utility.yul\":2943:2996   */\n      tag_175\n      jump\t// in\n    tag_238:\n        /* \"#utility.yul\":2933:2996   */\n      swap2\n      pop\n        /* \"#utility.yul\":2888:3006   */\n      pop\n        /* \"#utility.yul\":2539:3013   */\n      swap3\n      pop\n      swap3\n      swap1\n      pop\n      jump\t// out\n        /* \"#utility.yul\":3019:3109   */\n    tag_176:\n        /* \"#utility.yul\":3053:3060   */\n      0x00\n        /* \"#utility.yul\":3096:3101   */\n      dup2\n        /* \"#utility.yul\":3089:3102   */\n      iszero\n        /* \"#utility.yul\":3082:3103   */\n      iszero\n        /* \"#utility.yul\":3071:3103   */\n      swap1\n      pop\n        /* \"#utility.yul\":3019:3109   */\n      swap2\n      swap1\n      pop\n      jump\t// out\n        /* \"#utility.yul\":3115:3224   */\n    tag_177:\n        /* \"#utility.yul\":3196:3217   */\n      tag_241\n        /* \"#utility.yul\":3211:3216   */\n      dup2\n        /* \"#utility.yul\":3196:3217   */\n      tag_176\n      jump\t// in\n    tag_241:\n        /* \"#utility.yul\":3191:3194   */\n      dup3\n        /* \"#utility.yul\":3184:3218   */\n      mstore\n        /* \"#utility.yul\":3115:3224   */\n      pop\n      pop\n      jump\t// out\n        /* \"#utility.yul\":3230:3440   */\n    tag_35:\n        /* \"#utility.yul\":3317:3321   */\n      0x00\n        /* \"#utility.yul\":3355:3357   */\n      0x20\n        /* \"#utility.yul\":3344:3353   */\n      dup3\n        /* \"#utility.yul\":3340:3358   */\n      add\n        /* \"#utility.yul\":3332:3358   */\n      swap1\n      pop\n        /* \"#utility.yul\":3368:3433   */\n      tag_243\n        /* \"#utility.yul\":3430:3431   */\n      0x00\n        /* \"#utility.yul\":3419:3428   */\n      dup4\n        /* \"#utility.yul\":3415:3432   */\n      add\n        /* \"#utility.yul\":3406:3412   */\n      dup5\n        /* \"#utility.yul\":3368:3433   */\n      tag_177\n      jump\t// in\n    tag_243:\n        /* \"#utility.yul\":3230:3440   */\n      swap3\n      swap2\n      pop\n      pop\n      jump\t// out\n        /* \"#utility.yul\":3446:3564   */\n    tag_178:\n        /* \"#utility.yul\":3533:3557   */\n      tag_245\n        /* \"#utility.yul\":3551:3556   */\n      dup2\n        /* \"#utility.yul\":3533:3557   */\n      tag_173\n      jump\t// in\n    tag_245:\n        /* \"#utility.yul\":3528:3531   */\n      dup3\n        /* \"#utility.yul\":3521:3558   */\n      mstore\n        /* \"#utility.yul\":3446:3564   */\n      pop\n      pop\n      jump\t// out\n        /* \"#utility.yul\":3570:3792   */\n    tag_39:\n        /* \"#utility.yul\":3663:3667   */\n      0x00\n        /* \"#utility.yul\":3701:3703   */\n      0x20\n        /* \"#utility.yul\":3690:3699   */\n      dup3\n        /* \"#utility.yul\":3686:3704   */\n      add\n        /* \"#utility.yul\":3678:3704   */\n      swap1\n      pop\n        /* \"#utility.yul\":3714:3785   */\n      tag_247\n        /* \"#utility.yul\":3782:3783   */\n      0x00\n        /* \"#utility.yul\":3771:3780   */\n      dup4\n        /* \"#utility.yul\":3767:3784   */\n      add\n        /* \"#utility.yul\":3758:3764   */\n      dup5\n        /* \"#utility.yul\":3714:3785   */\n      tag_178\n      jump\t// in\n    tag_247:\n        /* \"#utility.yul\":3570:3792   */\n      swap3\n      swap2\n      pop\n      pop\n      jump\t// out\n        /* \"#utility.yul\":3798:4417   */\n    tag_42:\n        /* \"#utility.yul\":3875:3881   */\n      0x00\n        /* \"#utility.yul\":3883:3889   */\n      dup1\n        /* \"#utility.yul\":3891:3897   */\n      0x00\n        /* \"#utility.yul\":3940:3942   */\n      0x60\n        /* \"#utility.yul\":3928:3937   */\n      dup5\n        /* \"#utility.yul\":3919:3926   */\n      dup7\n        /* \"#utility.yul\":3915:3938   */\n      sub\n        /* \"#utility.yul\":3911:3943   */\n      slt\n        /* \"#utility.yul\":3908:4027   */\n      iszero\n      tag_249\n      jumpi\n        /* \"#utility.yul\":3946:4025   */\n      tag_250\n      tag_167\n      jump\t// in\n    tag_250:\n        /* \"#utility.yul\":3908:4027   */\n    tag_249:\n        /* \"#utility.yul\":4066:4067   */\n      0x00\n        /* \"#utility.yul\":4091:4144   */\n      tag_251\n        /* \"#utility.yul\":4136:4143   */\n      dup7\n        /* \"#utility.yul\":4127:4133   */\n      dup3\n        /* \"#utility.yul\":4116:4125   */\n      dup8\n        /* \"#utility.yul\":4112:4134   */\n      add\n        /* \"#utility.yul\":4091:4144   */\n      tag_172\n      jump\t// in\n    tag_251:\n        /* \"#utility.yul\":4081:4144   */\n      swap4\n      pop\n        /* \"#utility.yul\":4037:4154   */\n      pop\n        /* \"#utility.yul\":4193:4195   */\n      0x20\n        /* \"#utility.yul\":4219:4272   */\n      tag_252\n        /* \"#utility.yul\":4264:4271   */\n      dup7\n        /* \"#utility.yul\":4255:4261   */\n      dup3\n        /* \"#utility.yul\":4244:4253   */\n      dup8\n        /* \"#utility.yul\":4240:4262   */\n      add\n        /* \"#utility.yul\":4219:4272   */\n      tag_172\n      jump\t// in\n    tag_252:\n        /* \"#utility.yul\":4209:4272   */\n      swap3\n      pop\n        /* \"#utility.yul\":4164:4282   */\n      pop\n        /* \"#utility.yul\":4321:4323   */\n      0x40\n        /* \"#utility.yul\":4347:4400   */\n      tag_253\n        /* \"#utility.yul\":4392:4399   */\n      dup7\n        /* \"#utility.yul\":4383:4389   */\n      dup3\n        /* \"#utility.yul\":4372:4381   */\n      dup8\n        /* \"#utility.yul\":4368:4390   */\n      add\n        /* \"#utility.yul\":4347:4400   */\n      tag_175\n      jump\t// in\n    tag_253:\n        /* \"#utility.yul\":4337:4400   */\n      swap2\n      pop\n        /* \"#utility.yul\":4292:4410   */\n      pop\n        /* \"#utility.yul\":3798:4417   */\n      swap3\n      pop\n      swap3\n      pop\n      swap3\n      jump\t// out\n        /* \"#utility.yul\":4423:4509   */\n    tag_179:\n        /* \"#utility.yul\":4458:4465   */\n      0x00\n        /* \"#utility.yul\":4498:4502   */\n      0xff\n        /* \"#utility.yul\":4491:4496   */\n      dup3\n        /* \"#utility.yul\":4487:4503   */\n      and\n        /* \"#utility.yul\":4476:4503   */\n      swap1\n      pop\n        /* \"#utility.yul\":4423:4509   */\n      swap2\n      swap1\n      pop\n      jump\t// out\n        /* \"#utility.yul\":4515:4627   */\n    tag_180:\n        /* \"#utility.yul\":4598:4620   */\n      tag_256\n        /* \"#utility.yul\":4614:4619   */\n      dup2\n        /* \"#utility.yul\":4598:4620   */\n      tag_179\n      jump\t// in\n    tag_256:\n        /* \"#utility.yul\":4593:4596   */\n      dup3\n        /* \"#utility.yul\":4586:4621   */\n      mstore\n        /* \"#utility.yul\":4515:4627   */\n      pop\n      pop\n      jump\t// out\n        /* \"#utility.yul\":4633:4847   */\n    tag_48:\n        /* \"#utility.yul\":4722:4726   */\n      0x00\n        /* \"#utility.yul\":4760:4762   */\n      0x20\n        /* \"#utility.yul\":4749:4758   */\n      dup3\n        /* \"#utility.yul\":4745:4763   */\n      add\n        /* \"#utility.yul\":4737:4763   */\n      swap1\n      pop\n        /* \"#utility.yul\":4773:4840   */\n      tag_258\n        /* \"#utility.yul\":4837:4838   */\n      0x00\n        /* \"#utility.yul\":4826:4835   */\n      dup4\n        /* \"#utility.yul\":4822:4839   */\n      add\n        /* \"#utility.yul\":4813:4819   */\n      dup5\n        /* \"#utility.yul\":4773:4840   */\n      tag_180\n      jump\t// in\n    tag_258:\n        /* \"#utility.yul\":4633:4847   */\n      swap3\n      swap2\n      pop\n      pop\n      jump\t// out\n        /* \"#utility.yul\":4853:5182   */\n    tag_57:\n        /* \"#utility.yul\":4912:4918   */\n      0x00\n        /* \"#utility.yul\":4961:4963   */\n      0x20\n        /* \"#utility.yul\":4949:4958   */\n      dup3\n        /* \"#utility.yul\":4940:4947   */\n      dup5\n        /* \"#utility.yul\":4936:4959   */\n      sub\n        /* \"#utility.yul\":4932:4964   */\n      slt\n        /* \"#utility.yul\":4929:5048   */\n      iszero\n      tag_260\n      jumpi\n        /* \"#utility.yul\":4967:5046   */\n      tag_261\n      tag_167\n      jump\t// in\n    tag_261:\n        /* \"#utility.yul\":4929:5048   */\n    tag_260:\n        /* \"#utility.yul\":5087:5088   */\n      0x00\n        /* \"#utility.yul\":5112:5165   */\n      tag_262\n        /* \"#utility.yul\":5157:5164   */\n      dup5\n        /* \"#utility.yul\":5148:5154   */\n      dup3\n        /* \"#utility.yul\":5137:5146   */\n      dup6\n        /* \"#utility.yul\":5133:5155   */\n      add\n        /* \"#utility.yul\":5112:5165   */\n      tag_172\n      jump\t// in\n    tag_262:\n        /* \"#utility.yul\":5102:5165   */\n      swap2\n      pop\n        /* \"#utility.yul\":5058:5175   */\n      pop\n        /* \"#utility.yul\":4853:5182   */\n      swap3\n      swap2\n      pop\n      pop\n      jump\t// out\n        /* \"#utility.yul\":5188:5265   */\n    tag_181:\n        /* \"#utility.yul\":5225:5232   */\n      0x00\n        /* \"#utility.yul\":5254:5259   */\n      dup2\n        /* \"#utility.yul\":5243:5259   */\n      swap1\n      pop\n        /* \"#utility.yul\":5188:5265   */\n      swap2\n      swap1\n      pop\n      jump\t// out\n        /* \"#utility.yul\":5271:5389   */\n    tag_182:\n        /* \"#utility.yul\":5358:5382   */\n      tag_265\n        /* \"#utility.yul\":5376:5381   */\n      dup2\n        /* \"#utility.yul\":5358:5382   */\n      tag_181\n      jump\t// in\n    tag_265:\n        /* \"#utility.yul\":5353:5356   */\n      dup3\n        /* \"#utility.yul\":5346:5383   */\n      mstore\n        /* \"#utility.yul\":5271:5389   */\n      pop\n      pop\n      jump\t// out\n        /* \"#utility.yul\":5395:5617   */\n    tag_70:\n        /* \"#utility.yul\":5488:5492   */\n      0x00\n        /* \"#utility.yul\":5526:5528   */\n      0x20\n        /* \"#utility.yul\":5515:5524   */\n      dup3\n        /* \"#utility.yul\":5511:5529   */\n      add\n        /* \"#utility.yul\":5503:5529   */\n      swap1\n      pop\n        /* \"#utility.yul\":5539:5610   */\n      tag_267\n        /* \"#utility.yul\":5607:5608   */\n      0x00\n        /* \"#utility.yul\":5596:5605   */\n      dup4\n        /* \"#utility.yul\":5592:5609   */\n      add\n        /* \"#utility.yul\":5583:5589   */\n      dup5\n        /* \"#utility.yul\":5539:5610   */\n      tag_182\n      jump\t// in\n    tag_267:\n        /* \"#utility.yul\":5395:5617   */\n      swap3\n      swap2\n      pop\n      pop\n      jump\t// out\n        /* \"#utility.yul\":5623:5741   */\n    tag_183:\n        /* \"#utility.yul\":5694:5716   */\n      tag_269\n        /* \"#utility.yul\":5710:5715   */\n      dup2\n        /* \"#utility.yul\":5694:5716   */\n      tag_179\n      jump\t// in\n    tag_269:\n        /* \"#utility.yul\":5687:5692   */\n      dup2\n        /* \"#utility.yul\":5684:5717   */\n      eq\n        /* \"#utility.yul\":5674:5735   */\n      tag_270\n      jumpi\n        /* \"#utility.yul\":5731:5732   */\n      0x00\n        /* \"#utility.yul\":5728:5729   */\n      dup1\n        /* \"#utility.yul\":5721:5733   */\n      revert\n        /* \"#utility.yul\":5674:5735   */\n    tag_270:\n        /* \"#utility.yul\":5623:5741   */\n      pop\n      jump\t// out\n        /* \"#utility.yul\":5747:5882   */\n    tag_184:\n        /* \"#utility.yul\":5791:5796   */\n      0x00\n        /* \"#utility.yul\":5829:5835   */\n      dup2\n        /* \"#utility.yul\":5816:5836   */\n      calldataload\n        /* \"#utility.yul\":5807:5836   */\n      swap1\n      pop\n        /* \"#utility.yul\":5845:5876   */\n      tag_272\n        /* \"#utility.yul\":5870:5875   */\n      dup2\n        /* \"#utility.yul\":5845:5876   */\n      tag_183\n      jump\t// in\n    tag_272:\n        /* \"#utility.yul\":5747:5882   */\n      swap3\n      swap2\n      pop\n      pop\n      jump\t// out\n        /* \"#utility.yul\":5888:6010   */\n    tag_185:\n        /* \"#utility.yul\":5961:5985   */\n      tag_274\n        /* \"#utility.yul\":5979:5984   */\n      dup2\n        /* \"#utility.yul\":5961:5985   */\n      tag_181\n      jump\t// in\n    tag_274:\n        /* \"#utility.yul\":5954:5959   */\n      dup2\n        /* \"#utility.yul\":5951:5986   */\n      eq\n        /* \"#utility.yul\":5941:6004   */\n      tag_275\n      jumpi\n        /* \"#utility.yul\":6000:6001   */\n      0x00\n        /* \"#utility.yul\":5997:5998   */\n      dup1\n        /* \"#utility.yul\":5990:6002   */\n      revert\n        /* \"#utility.yul\":5941:6004   */\n    tag_275:\n        /* \"#utility.yul\":5888:6010   */\n      pop\n      jump\t// out\n        /* \"#utility.yul\":6016:6155   */\n    tag_186:\n        /* \"#utility.yul\":6062:6067   */\n      0x00\n        /* \"#utility.yul\":6100:6106   */\n      dup2\n        /* \"#utility.yul\":6087:6107   */\n      calldataload\n        /* \"#utility.yul\":6078:6107   */\n      swap1\n      pop\n        /* \"#utility.yul\":6116:6149   */\n      tag_277\n        /* \"#utility.yul\":6143:6148   */\n      dup2\n        /* \"#utility.yul\":6116:6149   */\n      tag_185\n      jump\t// in\n    tag_277:\n        /* \"#utility.yul\":6016:6155   */\n      swap3\n      swap2\n      pop\n      pop\n      jump\t// out\n        /* \"#utility.yul\":6161:7360   */\n    tag_91:\n        /* \"#utility.yul\":6272:6278   */\n      0x00\n        /* \"#utility.yul\":6280:6286   */\n      dup1\n        /* \"#utility.yul\":6288:6294   */\n      0x00\n        /* \"#utility.yul\":6296:6302   */\n      dup1\n        /* \"#utility.yul\":6304:6310   */\n      0x00\n        /* \"#utility.yul\":6312:6318   */\n      dup1\n        /* \"#utility.yul\":6320:6326   */\n      0x00\n        /* \"#utility.yul\":6369:6372   */\n      0xe0\n        /* \"#utility.yul\":6357:6366   */\n      dup9\n        /* \"#utility.yul\":6348:6355   */\n      dup11\n        /* \"#utility.yul\":6344:6367   */\n      sub\n        /* \"#utility.yul\":6340:6373   */\n      slt\n        /* \"#utility.yul\":6337:6457   */\n      iszero\n      tag_279\n      jumpi\n        /* \"#utility.yul\":6376:6455   */\n      tag_280\n      tag_167\n      jump\t// in\n    tag_280:\n        /* \"#utility.yul\":6337:6457   */\n    tag_279:\n        /* \"#utility.yul\":6496:6497   */\n      0x00\n        /* \"#utility.yul\":6521:6574   */\n      tag_281\n        /* \"#utility.yul\":6566:6573   */\n      dup11\n        /* \"#utility.yul\":6557:6563   */\n      dup3\n        /* \"#utility.yul\":6546:6555   */\n      dup12\n        /* \"#utility.yul\":6542:6564   */\n      add\n        /* \"#utility.yul\":6521:6574   */\n      tag_172\n      jump\t// in\n    tag_281:\n        /* \"#utility.yul\":6511:6574   */\n      swap8\n      pop\n        /* \"#utility.yul\":6467:6584   */\n      pop\n        /* \"#utility.yul\":6623:6625   */\n      0x20\n        /* \"#utility.yul\":6649:6702   */\n      tag_282\n        /* \"#utility.yul\":6694:6701   */\n      dup11\n        /* \"#utility.yul\":6685:6691   */\n      dup3\n        /* \"#utility.yul\":6674:6683   */\n      dup12\n        /* \"#utility.yul\":6670:6692   */\n      add\n        /* \"#utility.yul\":6649:6702   */\n      tag_172\n      jump\t// in\n    tag_282:\n        /* \"#utility.yul\":6639:6702   */\n      swap7\n      pop\n        /* \"#utility.yul\":6594:6712   */\n      pop\n        /* \"#utility.yul\":6751:6753   */\n      0x40\n        /* \"#utility.yul\":6777:6830   */\n      tag_283\n        /* \"#utility.yul\":6822:6829   */\n      dup11\n        /* \"#utility.yul\":6813:6819   */\n      dup3\n        /* \"#utility.yul\":6802:6811   */\n      dup12\n        /* \"#utility.yul\":6798:6820   */\n      add\n        /* \"#utility.yul\":6777:6830   */\n      tag_175\n      jump\t// in\n    tag_283:\n        /* \"#utility.yul\":6767:6830   */\n      swap6\n      pop\n        /* \"#utility.yul\":6722:6840   */\n      pop\n        /* \"#utility.yul\":6879:6881   */\n      0x60\n        /* \"#utility.yul\":6905:6958   */\n      tag_284\n        /* \"#utility.yul\":6950:6957   */\n      dup11\n        /* \"#utility.yul\":6941:6947   */\n      dup3\n        /* \"#utility.yul\":6930:6939   */\n      dup12\n        /* \"#utility.yul\":6926:6948   */\n      add\n        /* \"#utility.yul\":6905:6958   */\n      tag_175\n      jump\t// in\n    tag_284:\n        /* \"#utility.yul\":6895:6958   */\n      swap5\n      pop\n        /* \"#utility.yul\":6850:6968   */\n      pop\n        /* \"#utility.yul\":7007:7010   */\n      0x80\n        /* \"#utility.yul\":7034:7085   */\n      tag_285\n        /* \"#utility.yul\":7077:7084   */\n      dup11\n        /* \"#utility.yul\":7068:7074   */\n      dup3\n        /* \"#utility.yul\":7057:7066   */\n      dup12\n        /* \"#utility.yul\":7053:7075   */\n      add\n        /* \"#utility.yul\":7034:7085   */\n      tag_184\n      jump\t// in\n    tag_285:\n        /* \"#utility.yul\":7024:7085   */\n      swap4\n      pop\n        /* \"#utility.yul\":6978:7095   */\n      pop\n        /* \"#utility.yul\":7134:7137   */\n      0xa0\n        /* \"#utility.yul\":7161:7214   */\n      tag_286\n        /* \"#utility.yul\":7206:7213   */\n      dup11\n        /* \"#utility.yul\":7197:7203   */\n      dup3\n        /* \"#utility.yul\":7186:7195   */\n      dup12\n        /* \"#utility.yul\":7182:7204   */\n      add\n        /* \"#utility.yul\":7161:7214   */\n      tag_186\n      jump\t// in\n    tag_286:\n        /* \"#utility.yul\":7151:7214   */\n      swap3\n      pop\n        /* \"#utility.yul\":7105:7224   */\n      pop\n        /* \"#utility.yul\":7263:7266   */\n      0xc0\n        /* \"#utility.yul\":7290:7343   */\n      tag_287\n        /* \"#utility.yul\":7335:7342   */\n      dup11\n        /* \"#utility.yul\":7326:7332   */\n      dup3\n        /* \"#utility.yul\":7315:7324   */\n      dup12\n        /* \"#utility.yul\":7311:7333   */\n      add\n        /* \"#utility.yul\":7290:7343   */\n      tag_186\n      jump\t// in\n    tag_287:\n        /* \"#utility.yul\":7280:7343   */\n      swap2\n      pop\n        /* \"#utility.yul\":7234:7353   */\n      pop\n        /* \"#utility.yul\":6161:7360   */\n      swap3\n      swap6\n      swap9\n      swap2\n      swap5\n      swap8\n      pop\n      swap3\n      swap6\n      pop\n      jump\t// out\n        /* \"#utility.yul\":7366:7840   */\n    tag_98:\n        /* \"#utility.yul\":7434:7440   */\n      0x00\n        /* \"#utility.yul\":7442:7448   */\n      dup1\n        /* \"#utility.yul\":7491:7493   */\n      0x40\n        /* \"#utility.yul\":7479:7488   */\n      dup4\n        /* \"#utility.yul\":7470:7477   */\n      dup6\n        /* \"#utility.yul\":7466:7489   */\n      sub\n        /* \"#utility.yul\":7462:7494   */\n      slt\n        /* \"#utility.yul\":7459:7578   */\n      iszero\n      tag_289\n      jumpi\n        /* \"#utility.yul\":7497:7576   */\n      tag_290\n      tag_167\n      jump\t// in\n    tag_290:\n        /* \"#utility.yul\":7459:7578   */\n    tag_289:\n        /* \"#utility.yul\":7617:7618   */\n      0x00\n        /* \"#utility.yul\":7642:7695   */\n      tag_291\n        /* \"#utility.yul\":7687:7694   */\n      dup6\n        /* \"#utility.yul\":7678:7684   */\n      dup3\n        /* \"#utility.yul\":7667:7676   */\n      dup7\n        /* \"#utility.yul\":7663:7685   */\n      add\n        /* \"#utility.yul\":7642:7695   */\n      tag_172\n      jump\t// in\n    tag_291:\n        /* \"#utility.yul\":7632:7695   */\n      swap3\n      pop\n        /* \"#utility.yul\":7588:7705   */\n      pop\n        /* \"#utility.yul\":7744:7746   */\n      0x20\n        /* \"#utility.yul\":7770:7823   */\n      tag_292\n        /* \"#utility.yul\":7815:7822   */\n      dup6\n        /* \"#utility.yul\":7806:7812   */\n      dup3\n        /* \"#utility.yul\":7795:7804   */\n      dup7\n        /* \"#utility.yul\":7791:7813   */\n      add\n        /* \"#utility.yul\":7770:7823   */\n      tag_172\n      jump\t// in\n    tag_292:\n        /* \"#utility.yul\":7760:7823   */\n      swap2\n      pop\n        /* \"#utility.yul\":7715:7833   */\n      pop\n        /* \"#utility.yul\":7366:7840   */\n      swap3\n      pop\n      swap3\n      swap1\n      pop\n      jump\t// out\n        /* \"#utility.yul\":7846:8014   */\n    tag_187:\n        /* \"#utility.yul\":7986:8006   */\n      0x556e697377617056323a20455850495245440000000000000000000000000000\n        /* \"#utility.yul\":7982:7983   */\n      0x00\n        /* \"#utility.yul\":7974:7980   */\n      dup3\n        /* \"#utility.yul\":7970:7984   */\n      add\n        /* \"#utility.yul\":7963:8007   */\n      mstore\n        /* \"#utility.yul\":7846:8014   */\n      pop\n      jump\t// out\n        /* \"#utility.yul\":8020:8386   */\n    tag_188:\n        /* \"#utility.yul\":8162:8165   */\n      0x00\n        /* \"#utility.yul\":8183:8250   */\n      tag_295\n        /* \"#utility.yul\":8247:8249   */\n      0x12\n        /* \"#utility.yul\":8242:8245   */\n      dup4\n        /* \"#utility.yul\":8183:8250   */\n      tag_162\n      jump\t// in\n    tag_295:\n        /* \"#utility.yul\":8176:8250   */\n      swap2\n      pop\n        /* \"#utility.yul\":8259:8352   */\n      tag_296\n        /* \"#utility.yul\":8348:8351   */\n      dup3\n        /* \"#utility.yul\":8259:8352   */\n      tag_187\n      jump\t// in\n    tag_296:\n        /* \"#utility.yul\":8377:8379   */\n      0x20\n        /* \"#utility.yul\":8372:8375   */\n      dup3\n        /* \"#utility.yul\":8368:8380   */\n      add\n        /* \"#utility.yul\":8361:8380   */\n      swap1\n      pop\n        /* \"#utility.yul\":8020:8386   */\n      swap2\n      swap1\n      pop\n      jump\t// out\n        /* \"#utility.yul\":8392:8811   */\n    tag_125:\n        /* \"#utility.yul\":8558:8562   */\n      0x00\n        /* \"#utility.yul\":8596:8598   */\n      0x20\n        /* \"#utility.yul\":8585:8594   */\n      dup3\n        /* \"#utility.yul\":8581:8599   */\n      add\n        /* \"#utility.yul\":8573:8599   */\n      swap1\n      pop\n        /* \"#utility.yul\":8645:8654   */\n      dup2\n        /* \"#utility.yul\":8639:8643   */\n      dup2\n        /* \"#utility.yul\":8635:8655   */\n      sub\n        /* \"#utility.yul\":8631:8632   */\n      0x00\n        /* \"#utility.yul\":8620:8629   */\n      dup4\n        /* \"#utility.yul\":8616:8633   */\n      add\n        /* \"#utility.yul\":8609:8656   */\n      mstore\n        /* \"#utility.yul\":8673:8804   */\n      tag_298\n        /* \"#utility.yul\":8799:8803   */\n      dup2\n        /* \"#utility.yul\":8673:8804   */\n      tag_188\n      jump\t// in\n    tag_298:\n        /* \"#utility.yul\":8665:8804   */\n      swap1\n      pop\n        /* \"#utility.yul\":8392:8811   */\n      swap2\n      swap1\n      pop\n      jump\t// out\n        /* \"#utility.yul\":8817:8997   */\n    tag_189:\n        /* \"#utility.yul\":8865:8942   */\n      0x4e487b7100000000000000000000000000000000000000000000000000000000\n        /* \"#utility.yul\":8862:8863   */\n      0x00\n        /* \"#utility.yul\":8855:8943   */\n      mstore\n        /* \"#utility.yul\":8962:8966   */\n      0x11\n        /* \"#utility.yul\":8959:8960   */\n      0x04\n        /* \"#utility.yul\":8952:8967   */\n      mstore\n        /* \"#utility.yul\":8986:8990   */\n      0x24\n        /* \"#utility.yul\":8983:8984   */\n      0x00\n        /* \"#utility.yul\":8976:8991   */\n      revert\n        /* \"#utility.yul\":9003:9236   */\n    tag_127:\n        /* \"#utility.yul\":9042:9045   */\n      0x00\n        /* \"#utility.yul\":9065:9089   */\n      tag_301\n        /* \"#utility.yul\":9083:9088   */\n      dup3\n        /* \"#utility.yul\":9065:9089   */\n      tag_173\n      jump\t// in\n    tag_301:\n        /* \"#utility.yul\":9056:9089   */\n      swap2\n      pop\n        /* \"#utility.yul\":9111:9177   */\n      0xffffffffffffffffffffffffffffffffffffffffffffffffffffffffffffffff\n        /* \"#utility.yul\":9104:9109   */\n      dup3\n        /* \"#utility.yul\":9101:9178   */\n      sub\n        /* \"#utility.yul\":9098:9201   */\n      tag_302\n      jumpi\n        /* \"#utility.yul\":9181:9199   */\n      tag_303\n      tag_189\n      jump\t// in\n    tag_303:\n        /* \"#utility.yul\":9098:9201   */\n    tag_302:\n        /* \"#utility.yul\":9228:9229   */\n      0x01\n        /* \"#utility.yul\":9221:9226   */\n      dup3\n        /* \"#utility.yul\":9217:9230   */\n      add\n        /* \"#utility.yul\":9210:9230   */\n      swap1\n      pop\n        /* \"#utility.yul\":9003:9236   */\n      swap2\n      swap1\n      pop\n      jump\t// out\n        /* \"#utility.yul\":9242:9360   */\n    tag_190:\n        /* \"#utility.yul\":9329:9353   */\n      tag_305\n        /* \"#utility.yul\":9347:9352   */\n      dup2\n        /* \"#utility.yul\":9329:9353   */\n      tag_170\n      jump\t// in\n    tag_305:\n        /* \"#utility.yul\":9324:9327   */\n      dup3\n        /* \"#utility.yul\":9317:9354   */\n      mstore\n        /* \"#utility.yul\":9242:9360   */\n      pop\n      pop\n      jump\t// out\n        /* \"#utility.yul\":9366:10141   */\n    tag_129:\n        /* \"#utility.yul\":9599:9603   */\n      0x00\n        /* \"#utility.yul\":9637:9640   */\n      0xc0\n        /* \"#utility.yul\":9626:9635   */\n      dup3\n        /* \"#utility.yul\":9622:9641   */\n      add\n        /* \"#utility.yul\":9614:9641   */\n      swap1\n      pop\n        /* \"#utility.yul\":9651:9722   */\n      tag_307\n        /* \"#utility.yul\":9719:9720   */\n      0x00\n        /* \"#utility.yul\":9708:9717   */\n      dup4\n        /* \"#utility.yul\":9704:9721   */\n      add\n        /* \"#utility.yul\":9695:9701   */\n      dup10\n        /* \"#utility.yul\":9651:9722   */\n      tag_182\n      jump\t// in\n    tag_307:\n        /* \"#utility.yul\":9732:9804   */\n      tag_308\n        /* \"#utility.yul\":9800:9802   */\n      0x20\n        /* \"#utility.yul\":9789:9798   */\n      dup4\n        /* \"#utility.yul\":9785:9803   */\n      add\n        /* \"#utility.yul\":9776:9782   */\n      dup9\n        /* \"#utility.yul\":9732:9804   */\n      tag_190\n      jump\t// in\n    tag_308:\n        /* \"#utility.yul\":9814:9886   */\n      tag_309\n        /* \"#utility.yul\":9882:9884   */\n      0x40\n        /* \"#utility.yul\":9871:9880   */\n      dup4\n        /* \"#utility.yul\":9867:9885   */\n      add\n        /* \"#utility.yul\":9858:9864   */\n      dup8\n        /* \"#utility.yul\":9814:9886   */\n      tag_190\n      jump\t// in\n    tag_309:\n        /* \"#utility.yul\":9896:9968   */\n      tag_310\n        /* \"#utility.yul\":9964:9966   */\n      0x60\n        /* \"#utility.yul\":9953:9962   */\n      dup4\n        /* \"#utility.yul\":9949:9967   */\n      add\n        /* \"#utility.yul\":9940:9946   */\n      dup7\n        /* \"#utility.yul\":9896:9968   */\n      tag_178\n      jump\t// in\n    tag_310:\n        /* \"#utility.yul\":9978:10051   */\n      tag_311\n        /* \"#utility.yul\":10046:10049   */\n      0x80\n        /* \"#utility.yul\":10035:10044   */\n      dup4\n        /* \"#utility.yul\":10031:10050   */\n      add\n        /* \"#utility.yul\":10022:10028   */\n      dup6\n        /* \"#utility.yul\":9978:10051   */\n      tag_178\n      jump\t// in\n    tag_311:\n        /* \"#utility.yul\":10061:10134   */\n      tag_312\n        /* \"#utility.yul\":10129:10132   */\n      0xa0\n        /* \"#utility.yul\":10118:10127   */\n      dup4\n        /* \"#utility.yul\":10114:10133   */\n      add\n        /* \"#utility.yul\":10105:10111   */\n      dup5\n        /* \"#utility.yul\":10061:10134   */\n      tag_178\n      jump\t// in\n    tag_312:\n        /* \"#utility.yul\":9366:10141   */\n      swap8\n      swap7\n      pop\n      pop\n      pop\n      pop\n      pop\n      pop\n      pop\n      jump\t// out\n        /* \"#utility.yul\":10147:10295   */\n    tag_191:\n        /* \"#utility.yul\":10249:10260   */\n      0x00\n        /* \"#utility.yul\":10286:10289   */\n      dup2\n        /* \"#utility.yul\":10271:10289   */\n      swap1\n      pop\n        /* \"#utility.yul\":10147:10295   */\n      swap3\n      swap2\n      pop\n      pop\n      jump\t// out\n        /* \"#utility.yul\":10301:10515   */\n    tag_192:\n        /* \"#utility.yul\":10441:10507   */\n      0x1901000000000000000000000000000000000000000000000000000000000000\n        /* \"#utility.yul\":10437:10438   */\n      0x00\n        /* \"#utility.yul\":10429:10435   */\n      dup3\n        /* \"#utility.yul\":10425:10439   */\n      add\n        /* \"#utility.yul\":10418:10508   */\n      mstore\n        /* \"#utility.yul\":10301:10515   */\n      pop\n      jump\t// out\n        /* \"#utility.yul\":10521:10921   */\n    tag_193:\n        /* \"#utility.yul\":10681:10684   */\n      0x00\n        /* \"#utility.yul\":10702:10786   */\n      tag_316\n        /* \"#utility.yul\":10784:10785   */\n      0x02\n        /* \"#utility.yul\":10779:10782   */\n      dup4\n        /* \"#utility.yul\":10702:10786   */\n      tag_191\n      jump\t// in\n    tag_316:\n        /* \"#utility.yul\":10695:10786   */\n      swap2\n      pop\n        /* \"#utility.yul\":10795:10888   */\n      tag_317\n        /* \"#utility.yul\":10884:10887   */\n      dup3\n        /* \"#utility.yul\":10795:10888   */\n      tag_192\n      jump\t// in\n    tag_317:\n        /* \"#utility.yul\":10913:10914   */\n      0x02\n        /* \"#utility.yul\":10908:10911   */\n      dup3\n        /* \"#utility.yul\":10904:10915   */\n      add\n        /* \"#utility.yul\":10897:10915   */\n      swap1\n      pop\n        /* \"#utility.yul\":10521:10921   */\n      swap2\n      swap1\n      pop\n      jump\t// out\n        /* \"#utility.yul\":10927:11006   */\n    tag_194:\n        /* \"#utility.yul\":10966:10973   */\n      0x00\n        /* \"#utility.yul\":10995:11000   */\n      dup2\n        /* \"#utility.yul\":10984:11000   */\n      swap1\n      pop\n        /* \"#utility.yul\":10927:11006   */\n      swap2\n      swap1\n      pop\n      jump\t// out\n        /* \"#utility.yul\":11012:11169   */\n    tag_195:\n        /* \"#utility.yul\":11117:11162   */\n      tag_320\n        /* \"#utility.yul\":11137:11161   */\n      tag_321\n        /* \"#utility.yul\":11155:11160   */\n      dup3\n        /* \"#utility.yul\":11137:11161   */\n      tag_181\n      jump\t// in\n    tag_321:\n        /* \"#utility.yul\":11117:11162   */\n      tag_194\n      jump\t// in\n    tag_320:\n        /* \"#utility.yul\":11112:11115   */\n      dup3\n        /* \"#utility.yul\":11105:11163   */\n      mstore\n        /* \"#utility.yul\":11012:11169   */\n      pop\n      pop\n      jump\t// out\n        /* \"#utility.yul\":11175:11838   */\n    tag_131:\n        /* \"#utility.yul\":11416:11419   */\n      0x00\n        /* \"#utility.yul\":11438:11586   */\n      tag_323\n        /* \"#utility.yul\":11582:11585   */\n      dup3\n        /* \"#utility.yul\":11438:11586   */\n      tag_193\n      jump\t// in\n    tag_323:\n        /* \"#utility.yul\":11431:11586   */\n      swap2\n      pop\n        /* \"#utility.yul\":11596:11671   */\n      tag_324\n        /* \"#utility.yul\":11667:11670   */\n      dup3\n        /* \"#utility.yul\":11658:11664   */\n      dup6\n        /* \"#utility.yul\":11596:11671   */\n      tag_195\n      jump\t// in\n    tag_324:\n        /* \"#utility.yul\":11696:11698   */\n      0x20\n        /* \"#utility.yul\":11691:11694   */\n      dup3\n        /* \"#utility.yul\":11687:11699   */\n      add\n        /* \"#utility.yul\":11680:11699   */\n      swap2\n      pop\n        /* \"#utility.yul\":11709:11784   */\n      tag_325\n        /* \"#utility.yul\":11780:11783   */\n      dup3\n        /* \"#utility.yul\":11771:11777   */\n      dup5\n        /* \"#utility.yul\":11709:11784   */\n      tag_195\n      jump\t// in\n    tag_325:\n        /* \"#utility.yul\":11809:11811   */\n      0x20\n        /* \"#utility.yul\":11804:11807   */\n      dup3\n        /* \"#utility.yul\":11800:11812   */\n      add\n        /* \"#utility.yul\":11793:11812   */\n      swap2\n      pop\n        /* \"#utility.yul\":11829:11832   */\n      dup2\n        /* \"#utility.yul\":11822:11832   */\n      swap1\n      pop\n        /* \"#utility.yul\":11175:11838   */\n      swap4\n      swap3\n      pop\n      pop\n      pop\n      jump\t// out\n        /* \"#utility.yul\":11844:12389   */\n    tag_133:\n        /* \"#utility.yul\":12017:12021   */\n      0x00\n        /* \"#utility.yul\":12055:12058   */\n      0x80\n        /* \"#utility.yul\":12044:12053   */\n      dup3\n        /* \"#utility.yul\":12040:12059   */\n      add\n        /* \"#utility.yul\":12032:12059   */\n      swap1\n      pop\n        /* \"#utility.yul\":12069:12140   */\n      tag_327\n        /* \"#utility.yul\":12137:12138   */\n      0x00\n        /* \"#utility.yul\":12126:12135   */\n      dup4\n        /* \"#utility.yul\":12122:12139   */\n      add\n        /* \"#utility.yul\":12113:12119   */\n      dup8\n        /* \"#utility.yul\":12069:12140   */\n      tag_182\n      jump\t// in\n    tag_327:\n        /* \"#utility.yul\":12150:12218   */\n      tag_328\n        /* \"#utility.yul\":12214:12216   */\n      0x20\n        /* \"#utility.yul\":12203:12212   */\n      dup4\n        /* \"#utility.yul\":12199:12217   */\n      add\n        /* \"#utility.yul\":12190:12196   */\n      dup7\n        /* \"#utility.yul\":12150:12218   */\n      tag_180\n      jump\t// in\n    tag_328:\n        /* \"#utility.yul\":12228:12300   */\n      tag_329\n        /* \"#utility.yul\":12296:12298   */\n      0x40\n        /* \"#utility.yul\":12285:12294   */\n      dup4\n        /* \"#utility.yul\":12281:12299   */\n      add\n        /* \"#utility.yul\":12272:12278   */\n      dup6\n        /* \"#utility.yul\":12228:12300   */\n      tag_182\n      jump\t// in\n    tag_329:\n        /* \"#utility.yul\":12310:12382   */\n      tag_330\n        /* \"#utility.yul\":12378:12380   */\n      0x60\n        /* \"#utility.yul\":12367:12376   */\n      dup4\n        /* \"#utility.yul\":12363:12381   */\n      add\n        /* \"#utility.yul\":12354:12360   */\n      dup5\n        /* \"#utility.yul\":12310:12382   */\n      tag_182\n      jump\t// in\n    tag_330:\n        /* \"#utility.yul\":11844:12389   */\n      swap6\n      swap5\n      pop\n      pop\n      pop\n      pop\n      pop\n      jump\t// out\n        /* \"#utility.yul\":12395:12573   */\n    tag_196:\n        /* \"#utility.yul\":12535:12565   */\n      0x556e697377617056323a20494e56414c49445f5349474e415455524500000000\n        /* \"#utility.yul\":12531:12532   */\n      0x00\n        /* \"#utility.yul\":12523:12529   */\n      dup3\n        /* \"#utility.yul\":12519:12533   */\n      add\n        /* \"#utility.yul\":12512:12566   */\n      mstore\n        /* \"#utility.yul\":12395:12573   */\n      pop\n      jump\t// out\n        /* \"#utility.yul\":12579:12945   */\n    tag_197:\n        /* \"#utility.yul\":12721:12724   */\n      0x00\n        /* \"#utility.yul\":12742:12809   */\n      tag_333\n        /* \"#utility.yul\":12806:12808   */\n      0x1c\n        /* \"#utility.yul\":12801:12804   */\n      dup4\n        /* \"#utility.yul\":12742:12809   */\n      tag_162\n      jump\t// in\n    tag_333:\n        /* \"#utility.yul\":12735:12809   */\n      swap2\n      pop\n        /* \"#utility.yul\":12818:12911   */\n      tag_334\n        /* \"#utility.yul\":12907:12910   */\n      dup3\n        /* \"#utility.yul\":12818:12911   */\n      tag_196\n      jump\t// in\n    tag_334:\n        /* \"#utility.yul\":12936:12938   */\n      0x20\n        /* \"#utility.yul\":12931:12934   */\n      dup3\n        /* \"#utility.yul\":12927:12939   */\n      add\n        /* \"#utility.yul\":12920:12939   */\n      swap1\n      pop\n        /* \"#utility.yul\":12579:12945   */\n      swap2\n      swap1\n      pop\n      jump\t// out\n        /* \"#utility.yul\":12951:13370   */\n    tag_139:\n        /* \"#utility.yul\":13117:13121   */\n      0x00\n        /* \"#utility.yul\":13155:13157   */\n      0x20\n        /* \"#utility.yul\":13144:13153   */\n      dup3\n        /* \"#utility.yul\":13140:13158   */\n      add\n        /* \"#utility.yul\":13132:13158   */\n      swap1\n      pop\n        /* \"#utility.yul\":13204:13213   */\n      dup2\n        /* \"#utility.yul\":13198:13202   */\n      dup2\n        /* \"#utility.yul\":13194:13214   */\n      sub\n        /* \"#utility.yul\":13190:13191   */\n      0x00\n        /* \"#utility.yul\":13179:13188   */\n      dup4\n        /* \"#utility.yul\":13175:13192   */\n      add\n        /* \"#utility.yul\":13168:13215   */\n      mstore\n        /* \"#utility.yul\":13232:13363   */\n      tag_336\n        /* \"#utility.yul\":13358:13362   */\n      dup2\n        /* \"#utility.yul\":13232:13363   */\n      tag_197\n      jump\t// in\n    tag_336:\n        /* \"#utility.yul\":13224:13363   */\n      swap1\n      pop\n        /* \"#utility.yul\":12951:13370   */\n      swap2\n      swap1\n      pop\n      jump\t// out\n        /* \"#utility.yul\":13376:13570   */\n    tag_146:\n        /* \"#utility.yul\":13416:13420   */\n      0x00\n        /* \"#utility.yul\":13436:13456   */\n      tag_338\n        /* \"#utility.yul\":13454:13455   */\n      dup3\n        /* \"#utility.yul\":13436:13456   */\n      tag_173\n      jump\t// in\n    tag_338:\n        /* \"#utility.yul\":13431:13456   */\n      swap2\n      pop\n        /* \"#utility.yul\":13470:13490   */\n      tag_339\n        /* \"#utility.yul\":13488:13489   */\n      dup4\n        /* \"#utility.yul\":13470:13490   */\n      tag_173\n      jump\t// in\n    tag_339:\n        /* \"#utility.yul\":13465:13490   */\n      swap3\n      pop\n        /* \"#utility.yul\":13514:13515   */\n      dup3\n        /* \"#utility.yul\":13511:13512   */\n      dup3\n        /* \"#utility.yul\":13507:13516   */\n      sub\n        /* \"#utility.yul\":13499:13516   */\n      swap1\n      pop\n        /* \"#utility.yul\":13538:13539   */\n      dup2\n        /* \"#utility.yul\":13532:13536   */\n      dup2\n        /* \"#utility.yul\":13529:13540   */\n      gt\n        /* \"#utility.yul\":13526:13563   */\n      iszero\n      tag_340\n      jumpi\n        /* \"#utility.yul\":13543:13561   */\n      tag_341\n      tag_189\n      jump\t// in\n    tag_341:\n        /* \"#utility.yul\":13526:13563   */\n    tag_340:\n        /* \"#utility.yul\":13376:13570   */\n      swap3\n      swap2\n      pop\n      pop\n      jump\t// out\n        /* \"#utility.yul\":13576:13747   */\n    tag_198:\n        /* \"#utility.yul\":13716:13739   */\n      0x64732d6d6174682d7375622d756e646572666c6f770000000000000000000000\n        /* \"#utility.yul\":13712:13713   */\n      0x00\n        /* \"#utility.yul\":13704:13710   */\n      dup3\n        /* \"#utility.yul\":13700:13714   */\n      add\n        /* \"#utility.yul\":13693:13740   */\n      mstore\n        /* \"#utility.yul\":13576:13747   */\n      pop\n      jump\t// out\n        /* \"#utility.yul\":13753:14119   */\n    tag_199:\n        /* \"#utility.yul\":13895:13898   */\n      0x00\n        /* \"#utility.yul\":13916:13983   */\n      tag_344\n        /* \"#utility.yul\":13980:13982   */\n      0x15\n        /* \"#utility.yul\":13975:13978   */\n      dup4\n        /* \"#utility.yul\":13916:13983   */\n      tag_162\n      jump\t// in\n    tag_344:\n        /* \"#utility.yul\":13909:13983   */\n      swap2\n      pop\n        /* \"#utility.yul\":13992:14085   */\n      tag_345\n        /* \"#utility.yul\":14081:14084   */\n      dup3\n        /* \"#utility.yul\":13992:14085   */\n      tag_198\n      jump\t// in\n    tag_345:\n        /* \"#utility.yul\":14110:14112   */\n      0x20\n        /* \"#utility.yul\":14105:14108   */\n      dup3\n        /* \"#utility.yul\":14101:14113   */\n      add\n        /* \"#utility.yul\":14094:14113   */\n      swap1\n      pop\n        /* \"#utility.yul\":13753:14119   */\n      swap2\n      swap1\n      pop\n      jump\t// out\n        /* \"#utility.yul\":14125:14544   */\n    tag_149:\n        /* \"#utility.yul\":14291:14295   */\n      0x00\n        /* \"#utility.yul\":14329:14331   */\n      0x20\n        /* \"#utility.yul\":14318:14327   */\n      dup3\n        /* \"#utility.yul\":14314:14332   */\n      add\n        /* \"#utility.yul\":14306:14332   */\n      swap1\n      pop\n        /* \"#utility.yul\":14378:14387   */\n      dup2\n        /* \"#utility.yul\":14372:14376   */\n      dup2\n        /* \"#utility.yul\":14368:14388   */\n      sub\n        /* \"#utility.yul\":14364:14365   */\n      0x00\n        /* \"#utility.yul\":14353:14362   */\n      dup4\n        /* \"#utility.yul\":14349:14366   */\n      add\n        /* \"#utility.yul\":14342:14389   */\n      mstore\n        /* \"#utility.yul\":14406:14537   */\n      tag_347\n        /* \"#utility.yul\":14532:14536   */\n      dup2\n        /* \"#utility.yul\":14406:14537   */\n      tag_199\n      jump\t// in\n    tag_347:\n        /* \"#utility.yul\":14398:14537   */\n      swap1\n      pop\n        /* \"#utility.yul\":14125:14544   */\n      swap2\n      swap1\n      pop\n      jump\t// out\n        /* \"#utility.yul\":14550:14741   */\n    tag_157:\n        /* \"#utility.yul\":14590:14593   */\n      0x00\n        /* \"#utility.yul\":14609:14629   */\n      tag_349\n        /* \"#utility.yul\":14627:14628   */\n      dup3\n        /* \"#utility.yul\":14609:14629   */\n      tag_173\n      jump\t// in\n    tag_349:\n        /* \"#utility.yul\":14604:14629   */\n      swap2\n      pop\n        /* \"#utility.yul\":14643:14663   */\n      tag_350\n        /* \"#utility.yul\":14661:14662   */\n      dup4\n        /* \"#utility.yul\":14643:14663   */\n      tag_173\n      jump\t// in\n    tag_350:\n        /* \"#utility.yul\":14638:14663   */\n      swap3\n      pop\n        /* \"#utility.yul\":14686:14687   */\n      dup3\n        /* \"#utility.yul\":14683:14684   */\n      dup3\n        /* \"#utility.yul\":14679:14688   */\n      add\n        /* \"#utility.yul\":14672:14688   */\n      swap1\n      pop\n        /* \"#utility.yul\":14707:14710   */\n      dup1\n        /* \"#utility.yul\":14704:14705   */\n      dup3\n        /* \"#utility.yul\":14701:14711   */\n      gt\n        /* \"#utility.yul\":14698:14734   */\n      iszero\n      tag_351\n      jumpi\n        /* \"#utility.yul\":14714:14732   */\n      tag_352\n      tag_189\n      jump\t// in\n    tag_352:\n        /* \"#utility.yul\":14698:14734   */\n    tag_351:\n        /* \"#utility.yul\":14550:14741   */\n      swap3\n      swap2\n      pop\n      pop\n      jump\t// out\n        /* \"#utility.yul\":14747:14917   */\n    tag_200:\n        /* \"#utility.yul\":14887:14909   */\n      0x64732d6d6174682d6164642d6f766572666c6f77000000000000000000000000\n        /* \"#utility.yul\":14883:14884   */\n      0x00\n        /* \"#utility.yul\":14875:14881   */\n      dup3\n        /* \"#utility.yul\":14871:14885   */\n      add\n        /* \"#utility.yul\":14864:14910   */\n      mstore\n        /* \"#utility.yul\":14747:14917   */\n      pop\n      jump\t// out\n        /* \"#utility.yul\":14923:15289   */\n    tag_201:\n        /* \"#utility.yul\":15065:15068   */\n      0x00\n        /* \"#utility.yul\":15086:15153   */\n      tag_355\n        /* \"#utility.yul\":15150:15152   */\n      0x14\n        /* \"#utility.yul\":15145:15148   */\n      dup4\n        /* \"#utility.yul\":15086:15153   */\n      tag_162\n      jump\t// in\n    tag_355:\n        /* \"#utility.yul\":15079:15153   */\n      swap2\n      pop\n        /* \"#utility.yul\":15162:15255   */\n      tag_356\n        /* \"#utility.yul\":15251:15254   */\n      dup3\n        /* \"#utility.yul\":15162:15255   */\n      tag_200\n      jump\t// in\n    tag_356:\n        /* \"#utility.yul\":15280:15282   */\n      0x20\n        /* \"#utility.yul\":15275:15278   */\n      dup3\n        /* \"#utility.yul\":15271:15283   */\n      add\n        /* \"#utility.yul\":15264:15283   */\n      swap1\n      pop\n        /* \"#utility.yul\":14923:15289   */\n      swap2\n      swap1\n      pop\n      jump\t// out\n        /* \"#utility.yul\":15295:15714   */\n    tag_160:\n        /* \"#utility.yul\":15461:15465   */\n      0x00\n        /* \"#utility.yul\":15499:15501   */\n      0x20\n        /* \"#utility.yul\":15488:15497   */\n      dup3\n        /* \"#utility.yul\":15484:15502   */\n      add\n        /* \"#utility.yul\":15476:15502   */\n      swap1\n      pop\n        /* \"#utility.yul\":15548:15557   */\n      dup2\n        /* \"#utility.yul\":15542:15546   */\n      dup2\n        /* \"#utility.yul\":15538:15558   */\n      sub\n        /* \"#utility.yul\":15534:15535   */\n      0x00\n        /* \"#utility.yul\":15523:15532   */\n      dup4\n        /* \"#utility.yul\":15519:15536   */\n      add\n        /* \"#utility.yul\":15512:15559   */\n      mstore\n        /* \"#utility.yul\":15576:15707   */\n      tag_358\n        /* \"#utility.yul\":15702:15706   */\n      dup2\n        /* \"#utility.yul\":15576:15707   */\n      tag_201\n      jump\t// in\n    tag_358:\n        /* \"#utility.yul\":15568:15707   */\n      swap1\n      pop\n        /* \"#utility.yul\":15295:15714   */\n      swap2\n      swap1\n      pop\n      jump\t// out\n\n    auxdata: 0xa26469706673582212208e1b6446450efe5736cd44d9a32100816560adc1766422ffc76760a82da3084d64736f6c63430008130033\n}\n",
				"bytecode": {
					"linkReferences": {},
					"object": "60806040523480156200001157600080fd5b5060004690507f8b73c3c69bb8fe3d512ecc4cf759cc79239f7b179b0ffacaa9a75d522b39400f6040518060400160405280600a81526020017f556e697377617020563200000000000000000000000000000000000000000000815250805190602001206040518060400160405280600181526020017f3100000000000000000000000000000000000000000000000000000000000000815250805190602001208330604051602001620000ca95949392919062000168565b6040516020818303038152906040528051906020012060038190555050620001c5565b6000819050919050565b6200010281620000ed565b82525050565b6000819050919050565b6200011d8162000108565b82525050565b600073ffffffffffffffffffffffffffffffffffffffff82169050919050565b6000620001508262000123565b9050919050565b620001628162000143565b82525050565b600060a0820190506200017f6000830188620000f7565b6200018e6020830187620000f7565b6200019d6040830186620000f7565b620001ac606083018562000112565b620001bb608083018462000157565b9695505050505050565b61165880620001d56000396000f3fe608060405234801561001057600080fd5b506004361061012c5760003560e01c8063982aaf6b116100ad578063d28d885211610071578063d28d885214610371578063d505accf1461038f578063dc0c81b5146103ab578063dd336c12146103c9578063dd62ed3e146103f95761012c565b8063982aaf6b146102a5578063a9059cbb146102c3578063b09f1266146102f3578063b9844d8d14610311578063cca3e832146103415761012c565b806332424aa3116100f457806332424aa3146101eb5780633eaaf86b1461020957806370a08231146102275780637ecebe001461025757806395d89b41146102875761012c565b806306fdde0314610131578063095ea7b31461014f57806318160ddd1461017f57806323b872dd1461019d578063313ce567146101cd575b600080fd5b610139610429565b6040516101469190610eaf565b60405180910390f35b61016960048036038101906101649190610f6a565b610466565b6040516101769190610fc5565b60405180910390f35b61018761047d565b6040516101949190610fef565b60405180910390f35b6101b760048036038101906101b2919061100a565b610486565b6040516101c49190610fc5565b60405180910390f35b6101d5610651565b6040516101e29190611079565b60405180910390f35b6101f361065a565b6040516102009190611079565b60405180910390f35b61021161065f565b60405161021e9190610fef565b60405180910390f35b610241600480360381019061023c9190611094565b610665565b60405161024e9190610fef565b60405180910390f35b610271600480360381019061026c9190611094565b6106ae565b60405161027e9190610fef565b60405180910390f35b61028f6106f7565b60405161029c9190610eaf565b60405180910390f35b6102ad610734565b6040516102ba91906110da565b60405180910390f35b6102dd60048036038101906102d89190610f6a565b61075b565b6040516102ea9190610fc5565b60405180910390f35b6102fb610772565b6040516103089190610eaf565b60405180910390f35b61032b60048036038101906103269190611094565b6107ab565b6040516103389190610fef565b60405180910390f35b61035b60048036038101906103569190611094565b6107c3565b6040516103689190610fef565b60405180910390f35b6103796107db565b6040516103869190610eaf565b60405180910390f35b6103a960048036038101906103a4919061114d565b610814565b005b6103b3610a3c565b6040516103c091906110da565b60405180910390f35b6103e360048036038101906103de91906111ef565b610a42565b6040516103f09190610fef565b60405180910390f35b610413600480360381019061040e91906111ef565b610a67565b6040516104209190610fef565b60405180910390f35b60606040518060400160405280600a81526020017f556e697377617020563200000000000000000000000000000000000000000000815250905090565b6000610473338484610aee565b6001905092915050565b60008054905090565b60007fffffffffffffffffffffffffffffffffffffffffffffffffffffffffffffffff600260008673ffffffffffffffffffffffffffffffffffffffff1673ffffffffffffffffffffffffffffffffffffffff16815260200190815260200160002060003373ffffffffffffffffffffffffffffffffffffffff1673ffffffffffffffffffffffffffffffffffffffff168152602001908152602001600020541461063b576105ba82600260008773ffffffffffffffffffffffffffffffffffffffff1673ffffffffffffffffffffffffffffffffffffffff16815260200190815260200160002060003373ffffffffffffffffffffffffffffffffffffffff1673ffffffffffffffffffffffffffffffffffffffff16815260200190815260200160002054610bd990919063ffffffff16565b600260008673ffffffffffffffffffffffffffffffffffffffff1673ffffffffffffffffffffffffffffffffffffffff16815260200190815260200160002060003373ffffffffffffffffffffffffffffffffffffffff1673ffffffffffffffffffffffffffffffffffffffff168152602001908152602001600020819055505b610646848484610c32565b600190509392505050565b60006012905090565b601281565b60005481565b6000600160008373ffffffffffffffffffffffffffffffffffffffff1673ffffffffffffffffffffffffffffffffffffffff168152602001908152602001600020549050919050565b6000600460008373ffffffffffffffffffffffffffffffffffffffff1673ffffffffffffffffffffffffffffffffffffffff168152602001908152602001600020549050919050565b60606040518060400160405280600681526020017f554e492d56320000000000000000000000000000000000000000000000000000815250905090565b7f6e71edae12b1b97f4d1f60370fef10105fa2faae0126114a169c64845d6126c960001b81565b6000610768338484610c32565b6001905092915050565b6040518060400160405280600681526020017f554e492d5632000000000000000000000000000000000000000000000000000081525081565b60046020528060005260406000206000915090505481565b60016020528060005260406000206000915090505481565b6040518060400160405280600a81526020017f556e69737761702056320000000000000000000000000000000000000000000081525081565b42841015610857576040517f08c379a000000000000000000000000000000000000000000000000000000000815260040161084e9061127b565b60405180910390fd5b60006003547f6e71edae12b1b97f4d1f60370fef10105fa2faae0126114a169c64845d6126c960001b898989600460008e73ffffffffffffffffffffffffffffffffffffffff1673ffffffffffffffffffffffffffffffffffffffff16815260200190815260200160002060008154809291906108d3906112ca565b919050558a6040516020016108ed96959493929190611321565b604051602081830303815290604052805190602001206040516020016109149291906113fa565b6040516020818303038152906040528051906020012090506000600182868686604051600081526020016040526040516109519493929190611431565b6020604051602081039080840390855afa158015610973573d6000803e3d6000fd5b505050602060405103519050600073ffffffffffffffffffffffffffffffffffffffff168173ffffffffffffffffffffffffffffffffffffffff16141580156109e757508873ffffffffffffffffffffffffffffffffffffffff168173ffffffffffffffffffffffffffffffffffffffff16145b610a26576040517f08c379a0000000000000000000000000000000000000000000000000000000008152600401610a1d906114c2565b60405180910390fd5b610a31898989610aee565b505050505050505050565b60035481565b6002602052816000526040600020602052806000526040600020600091509150505481565b6000600260008473ffffffffffffffffffffffffffffffffffffffff1673ffffffffffffffffffffffffffffffffffffffff16815260200190815260200160002060008373ffffffffffffffffffffffffffffffffffffffff1673ffffffffffffffffffffffffffffffffffffffff16815260200190815260200160002054905092915050565b80600260008573ffffffffffffffffffffffffffffffffffffffff1673ffffffffffffffffffffffffffffffffffffffff16815260200190815260200160002060008473ffffffffffffffffffffffffffffffffffffffff1673ffffffffffffffffffffffffffffffffffffffff168152602001908152602001600020819055508173ffffffffffffffffffffffffffffffffffffffff168373ffffffffffffffffffffffffffffffffffffffff167f8c5be1e5ebec7d5bd14f71427d1e84f3dd0314c0f7b2291e5b200ac8c7c3b92583604051610bcc9190610fef565b60405180910390a3505050565b6000828284610be891906114e2565b9150811115610c2c576040517f08c379a0000000000000000000000000000000000000000000000000000000008152600401610c2390611562565b60405180910390fd5b92915050565b610c8481600160008673ffffffffffffffffffffffffffffffffffffffff1673ffffffffffffffffffffffffffffffffffffffff16815260200190815260200160002054610bd990919063ffffffff16565b600160008573ffffffffffffffffffffffffffffffffffffffff1673ffffffffffffffffffffffffffffffffffffffff16815260200190815260200160002081905550610d1981600160008573ffffffffffffffffffffffffffffffffffffffff1673ffffffffffffffffffffffffffffffffffffffff16815260200190815260200160002054610dc690919063ffffffff16565b600160008473ffffffffffffffffffffffffffffffffffffffff1673ffffffffffffffffffffffffffffffffffffffff168152602001908152602001600020819055508173ffffffffffffffffffffffffffffffffffffffff168373ffffffffffffffffffffffffffffffffffffffff167fddf252ad1be2c89b69c2b068fc378daa952ba7f163c4a11628f55a4df523b3ef83604051610db99190610fef565b60405180910390a3505050565b6000828284610dd59190611582565b9150811015610e19576040517f08c379a0000000000000000000000000000000000000000000000000000000008152600401610e1090611602565b60405180910390fd5b92915050565b600081519050919050565b600082825260208201905092915050565b60005b83811015610e59578082015181840152602081019050610e3e565b60008484015250505050565b6000601f19601f8301169050919050565b6000610e8182610e1f565b610e8b8185610e2a565b9350610e9b818560208601610e3b565b610ea481610e65565b840191505092915050565b60006020820190508181036000830152610ec98184610e76565b905092915050565b600080fd5b600073ffffffffffffffffffffffffffffffffffffffff82169050919050565b6000610f0182610ed6565b9050919050565b610f1181610ef6565b8114610f1c57600080fd5b50565b600081359050610f2e81610f08565b92915050565b6000819050919050565b610f4781610f34565b8114610f5257600080fd5b50565b600081359050610f6481610f3e565b92915050565b60008060408385031215610f8157610f80610ed1565b5b6000610f8f85828601610f1f565b9250506020610fa085828601610f55565b9150509250929050565b60008115159050919050565b610fbf81610faa565b82525050565b6000602082019050610fda6000830184610fb6565b92915050565b610fe981610f34565b82525050565b60006020820190506110046000830184610fe0565b92915050565b60008060006060848603121561102357611022610ed1565b5b600061103186828701610f1f565b935050602061104286828701610f1f565b925050604061105386828701610f55565b9150509250925092565b600060ff82169050919050565b6110738161105d565b82525050565b600060208201905061108e600083018461106a565b92915050565b6000602082840312156110aa576110a9610ed1565b5b60006110b884828501610f1f565b91505092915050565b6000819050919050565b6110d4816110c1565b82525050565b60006020820190506110ef60008301846110cb565b92915050565b6110fe8161105d565b811461110957600080fd5b50565b60008135905061111b816110f5565b92915050565b61112a816110c1565b811461113557600080fd5b50565b60008135905061114781611121565b92915050565b600080600080600080600060e0888a03121561116c5761116b610ed1565b5b600061117a8a828b01610f1f565b975050602061118b8a828b01610f1f565b965050604061119c8a828b01610f55565b95505060606111ad8a828b01610f55565b94505060806111be8a828b0161110c565b93505060a06111cf8a828b01611138565b92505060c06111e08a828b01611138565b91505092959891949750929550565b6000806040838503121561120657611205610ed1565b5b600061121485828601610f1f565b925050602061122585828601610f1f565b9150509250929050565b7f556e697377617056323a20455850495245440000000000000000000000000000600082015250565b6000611265601283610e2a565b91506112708261122f565b602082019050919050565b6000602082019050818103600083015261129481611258565b9050919050565b7f4e487b7100000000000000000000000000000000000000000000000000000000600052601160045260246000fd5b60006112d582610f34565b91507fffffffffffffffffffffffffffffffffffffffffffffffffffffffffffffffff82036113075761130661129b565b5b600182019050919050565b61131b81610ef6565b82525050565b600060c08201905061133660008301896110cb565b6113436020830188611312565b6113506040830187611312565b61135d6060830186610fe0565b61136a6080830185610fe0565b61137760a0830184610fe0565b979650505050505050565b600081905092915050565b7f1901000000000000000000000000000000000000000000000000000000000000600082015250565b60006113c3600283611382565b91506113ce8261138d565b600282019050919050565b6000819050919050565b6113f46113ef826110c1565b6113d9565b82525050565b6000611405826113b6565b915061141182856113e3565b60208201915061142182846113e3565b6020820191508190509392505050565b600060808201905061144660008301876110cb565b611453602083018661106a565b61146060408301856110cb565b61146d60608301846110cb565b95945050505050565b7f556e697377617056323a20494e56414c49445f5349474e415455524500000000600082015250565b60006114ac601c83610e2a565b91506114b782611476565b602082019050919050565b600060208201905081810360008301526114db8161149f565b9050919050565b60006114ed82610f34565b91506114f883610f34565b92508282039050818111156115105761150f61129b565b5b92915050565b7f64732d6d6174682d7375622d756e646572666c6f770000000000000000000000600082015250565b600061154c601583610e2a565b915061155782611516565b602082019050919050565b6000602082019050818103600083015261157b8161153f565b9050919050565b600061158d82610f34565b915061159883610f34565b92508282019050808211156115b0576115af61129b565b5b92915050565b7f64732d6d6174682d6164642d6f766572666c6f77000000000000000000000000600082015250565b60006115ec601483610e2a565b91506115f7826115b6565b602082019050919050565b6000602082019050818103600083015261161b816115df565b905091905056fea26469706673582212208e1b6446450efe5736cd44d9a32100816560adc1766422ffc76760a82da3084d64736f6c63430008130033",
					"opcodes": "PUSH1 0x80 PUSH1 0x40 MSTORE CALLVALUE DUP1 ISZERO PUSH3 0x11 JUMPI PUSH1 0x0 DUP1 REVERT JUMPDEST POP PUSH1 0x0 CHAINID SWAP1 POP PUSH32 0x8B73C3C69BB8FE3D512ECC4CF759CC79239F7B179B0FFACAA9A75D522B39400F PUSH1 0x40 MLOAD DUP1 PUSH1 0x40 ADD PUSH1 0x40 MSTORE DUP1 PUSH1 0xA DUP2 MSTORE PUSH1 0x20 ADD PUSH32 0x556E697377617020563200000000000000000000000000000000000000000000 DUP2 MSTORE POP DUP1 MLOAD SWAP1 PUSH1 0x20 ADD KECCAK256 PUSH1 0x40 MLOAD DUP1 PUSH1 0x40 ADD PUSH1 0x40 MSTORE DUP1 PUSH1 0x1 DUP2 MSTORE PUSH1 0x20 ADD PUSH32 0x3100000000000000000000000000000000000000000000000000000000000000 DUP2 MSTORE POP DUP1 MLOAD SWAP1 PUSH1 0x20 ADD KECCAK256 DUP4 ADDRESS PUSH1 0x40 MLOAD PUSH1 0x20 ADD PUSH3 0xCA SWAP6 SWAP5 SWAP4 SWAP3 SWAP2 SWAP1 PUSH3 0x168 JUMP JUMPDEST PUSH1 0x40 MLOAD PUSH1 0x20 DUP2 DUP4 SUB SUB DUP2 MSTORE SWAP1 PUSH1 0x40 MSTORE DUP1 MLOAD SWAP1 PUSH1 0x20 ADD KECCAK256 PUSH1 0x3 DUP2 SWAP1 SSTORE POP POP PUSH3 0x1C5 JUMP JUMPDEST PUSH1 0x0 DUP2 SWAP1 POP SWAP2 SWAP1 POP JUMP JUMPDEST PUSH3 0x102 DUP2 PUSH3 0xED JUMP JUMPDEST DUP3 MSTORE POP POP JUMP JUMPDEST PUSH1 0x0 DUP2 SWAP1 POP SWAP2 SWAP1 POP JUMP JUMPDEST PUSH3 0x11D DUP2 PUSH3 0x108 JUMP JUMPDEST DUP3 MSTORE POP POP JUMP JUMPDEST PUSH1 0x0 PUSH20 0xFFFFFFFFFFFFFFFFFFFFFFFFFFFFFFFFFFFFFFFF DUP3 AND SWAP1 POP SWAP2 SWAP1 POP JUMP JUMPDEST PUSH1 0x0 PUSH3 0x150 DUP3 PUSH3 0x123 JUMP JUMPDEST SWAP1 POP SWAP2 SWAP1 POP JUMP JUMPDEST PUSH3 0x162 DUP2 PUSH3 0x143 JUMP JUMPDEST DUP3 MSTORE POP POP JUMP JUMPDEST PUSH1 0x0 PUSH1 0xA0 DUP3 ADD SWAP1 POP PUSH3 0x17F PUSH1 0x0 DUP4 ADD DUP9 PUSH3 0xF7 JUMP JUMPDEST PUSH3 0x18E PUSH1 0x20 DUP4 ADD DUP8 PUSH3 0xF7 JUMP JUMPDEST PUSH3 0x19D PUSH1 0x40 DUP4 ADD DUP7 PUSH3 0xF7 JUMP JUMPDEST PUSH3 0x1AC PUSH1 0x60 DUP4 ADD DUP6 PUSH3 0x112 JUMP JUMPDEST PUSH3 0x1BB PUSH1 0x80 DUP4 ADD DUP5 PUSH3 0x157 JUMP JUMPDEST SWAP7 SWAP6 POP POP POP POP POP POP JUMP JUMPDEST PUSH2 0x1658 DUP1 PUSH3 0x1D5 PUSH1 0x0 CODECOPY PUSH1 0x0 RETURN INVALID PUSH1 0x80 PUSH1 0x40 MSTORE CALLVALUE DUP1 ISZERO PUSH2 0x10 JUMPI PUSH1 0x0 DUP1 REVERT JUMPDEST POP PUSH1 0x4 CALLDATASIZE LT PUSH2 0x12C JUMPI PUSH1 0x0 CALLDATALOAD PUSH1 0xE0 SHR DUP1 PUSH4 0x982AAF6B GT PUSH2 0xAD JUMPI DUP1 PUSH4 0xD28D8852 GT PUSH2 0x71 JUMPI DUP1 PUSH4 0xD28D8852 EQ PUSH2 0x371 JUMPI DUP1 PUSH4 0xD505ACCF EQ PUSH2 0x38F JUMPI DUP1 PUSH4 0xDC0C81B5 EQ PUSH2 0x3AB JUMPI DUP1 PUSH4 0xDD336C12 EQ PUSH2 0x3C9 JUMPI DUP1 PUSH4 0xDD62ED3E EQ PUSH2 0x3F9 JUMPI PUSH2 0x12C JUMP JUMPDEST DUP1 PUSH4 0x982AAF6B EQ PUSH2 0x2A5 JUMPI DUP1 PUSH4 0xA9059CBB EQ PUSH2 0x2C3 JUMPI DUP1 PUSH4 0xB09F1266 EQ PUSH2 0x2F3 JUMPI DUP1 PUSH4 0xB9844D8D EQ PUSH2 0x311 JUMPI DUP1 PUSH4 0xCCA3E832 EQ PUSH2 0x341 JUMPI PUSH2 0x12C JUMP JUMPDEST DUP1 PUSH4 0x32424AA3 GT PUSH2 0xF4 JUMPI DUP1 PUSH4 0x32424AA3 EQ PUSH2 0x1EB JUMPI DUP1 PUSH4 0x3EAAF86B EQ PUSH2 0x209 JUMPI DUP1 PUSH4 0x70A08231 EQ PUSH2 0x227 JUMPI DUP1 PUSH4 0x7ECEBE00 EQ PUSH2 0x257 JUMPI DUP1 PUSH4 0x95D89B41 EQ PUSH2 0x287 JUMPI PUSH2 0x12C JUMP JUMPDEST DUP1 PUSH4 0x6FDDE03 EQ PUSH2 0x131 JUMPI DUP1 PUSH4 0x95EA7B3 EQ PUSH2 0x14F JUMPI DUP1 PUSH4 0x18160DDD EQ PUSH2 0x17F JUMPI DUP1 PUSH4 0x23B872DD EQ PUSH2 0x19D JUMPI DUP1 PUSH4 0x313CE567 EQ PUSH2 0x1CD JUMPI JUMPDEST PUSH1 0x0 DUP1 REVERT JUMPDEST PUSH2 0x139 PUSH2 0x429 JUMP JUMPDEST PUSH1 0x40 MLOAD PUSH2 0x146 SWAP2 SWAP1 PUSH2 0xEAF JUMP JUMPDEST PUSH1 0x40 MLOAD DUP1 SWAP2 SUB SWAP1 RETURN JUMPDEST PUSH2 0x169 PUSH1 0x4 DUP1 CALLDATASIZE SUB DUP2 ADD SWAP1 PUSH2 0x164 SWAP2 SWAP1 PUSH2 0xF6A JUMP JUMPDEST PUSH2 0x466 JUMP JUMPDEST PUSH1 0x40 MLOAD PUSH2 0x176 SWAP2 SWAP1 PUSH2 0xFC5 JUMP JUMPDEST PUSH1 0x40 MLOAD DUP1 SWAP2 SUB SWAP1 RETURN JUMPDEST PUSH2 0x187 PUSH2 0x47D JUMP JUMPDEST PUSH1 0x40 MLOAD PUSH2 0x194 SWAP2 SWAP1 PUSH2 0xFEF JUMP JUMPDEST PUSH1 0x40 MLOAD DUP1 SWAP2 SUB SWAP1 RETURN JUMPDEST PUSH2 0x1B7 PUSH1 0x4 DUP1 CALLDATASIZE SUB DUP2 ADD SWAP1 PUSH2 0x1B2 SWAP2 SWAP1 PUSH2 0x100A JUMP JUMPDEST PUSH2 0x486 JUMP JUMPDEST PUSH1 0x40 MLOAD PUSH2 0x1C4 SWAP2 SWAP1 PUSH2 0xFC5 JUMP JUMPDEST PUSH1 0x40 MLOAD DUP1 SWAP2 SUB SWAP1 RETURN JUMPDEST PUSH2 0x1D5 PUSH2 0x651 JUMP JUMPDEST PUSH1 0x40 MLOAD PUSH2 0x1E2 SWAP2 SWAP1 PUSH2 0x1079 JUMP JUMPDEST PUSH1 0x40 MLOAD DUP1 SWAP2 SUB SWAP1 RETURN JUMPDEST PUSH2 0x1F3 PUSH2 0x65A JUMP JUMPDEST PUSH1 0x40 MLOAD PUSH2 0x200 SWAP2 SWAP1 PUSH2 0x1079 JUMP JUMPDEST PUSH1 0x40 MLOAD DUP1 SWAP2 SUB SWAP1 RETURN JUMPDEST PUSH2 0x211 PUSH2 0x65F JUMP JUMPDEST PUSH1 0x40 MLOAD PUSH2 0x21E SWAP2 SWAP1 PUSH2 0xFEF JUMP JUMPDEST PUSH1 0x40 MLOAD DUP1 SWAP2 SUB SWAP1 RETURN JUMPDEST PUSH2 0x241 PUSH1 0x4 DUP1 CALLDATASIZE SUB DUP2 ADD SWAP1 PUSH2 0x23C SWAP2 SWAP1 PUSH2 0x1094 JUMP JUMPDEST PUSH2 0x665 JUMP JUMPDEST PUSH1 0x40 MLOAD PUSH2 0x24E SWAP2 SWAP1 PUSH2 0xFEF JUMP JUMPDEST PUSH1 0x40 MLOAD DUP1 SWAP2 SUB SWAP1 RETURN JUMPDEST PUSH2 0x271 PUSH1 0x4 DUP1 CALLDATASIZE SUB DUP2 ADD SWAP1 PUSH2 0x26C SWAP2 SWAP1 PUSH2 0x1094 JUMP JUMPDEST PUSH2 0x6AE JUMP JUMPDEST PUSH1 0x40 MLOAD PUSH2 0x27E SWAP2 SWAP1 PUSH2 0xFEF JUMP JUMPDEST PUSH1 0x40 MLOAD DUP1 SWAP2 SUB SWAP1 RETURN JUMPDEST PUSH2 0x28F PUSH2 0x6F7 JUMP JUMPDEST PUSH1 0x40 MLOAD PUSH2 0x29C SWAP2 SWAP1 PUSH2 0xEAF JUMP JUMPDEST PUSH1 0x40 MLOAD DUP1 SWAP2 SUB SWAP1 RETURN JUMPDEST PUSH2 0x2AD PUSH2 0x734 JUMP JUMPDEST PUSH1 0x40 MLOAD PUSH2 0x2BA SWAP2 SWAP1 PUSH2 0x10DA JUMP JUMPDEST PUSH1 0x40 MLOAD DUP1 SWAP2 SUB SWAP1 RETURN JUMPDEST PUSH2 0x2DD PUSH1 0x4 DUP1 CALLDATASIZE SUB DUP2 ADD SWAP1 PUSH2 0x2D8 SWAP2 SWAP1 PUSH2 0xF6A JUMP JUMPDEST PUSH2 0x75B JUMP JUMPDEST PUSH1 0x40 MLOAD PUSH2 0x2EA SWAP2 SWAP1 PUSH2 0xFC5 JUMP JUMPDEST PUSH1 0x40 MLOAD DUP1 SWAP2 SUB SWAP1 RETURN JUMPDEST PUSH2 0x2FB PUSH2 0x772 JUMP JUMPDEST PUSH1 0x40 MLOAD PUSH2 0x308 SWAP2 SWAP1 PUSH2 0xEAF JUMP JUMPDEST PUSH1 0x40 MLOAD DUP1 SWAP2 SUB SWAP1 RETURN JUMPDEST PUSH2 0x32B PUSH1 0x4 DUP1 CALLDATASIZE SUB DUP2 ADD SWAP1 PUSH2 0x326 SWAP2 SWAP1 PUSH2 0x1094 JUMP JUMPDEST PUSH2 0x7AB JUMP JUMPDEST PUSH1 0x40 MLOAD PUSH2 0x338 SWAP2 SWAP1 PUSH2 0xFEF JUMP JUMPDEST PUSH1 0x40 MLOAD DUP1 SWAP2 SUB SWAP1 RETURN JUMPDEST PUSH2 0x35B PUSH1 0x4 DUP1 CALLDATASIZE SUB DUP2 ADD SWAP1 PUSH2 0x356 SWAP2 SWAP1 PUSH2 0x1094 JUMP JUMPDEST PUSH2 0x7C3 JUMP JUMPDEST PUSH1 0x40 MLOAD PUSH2 0x368 SWAP2 SWAP1 PUSH2 0xFEF JUMP JUMPDEST PUSH1 0x40 MLOAD DUP1 SWAP2 SUB SWAP1 RETURN JUMPDEST PUSH2 0x379 PUSH2 0x7DB JUMP JUMPDEST PUSH1 0x40 MLOAD PUSH2 0x386 SWAP2 SWAP1 PUSH2 0xEAF JUMP JUMPDEST PUSH1 0x40 MLOAD DUP1 SWAP2 SUB SWAP1 RETURN JUMPDEST PUSH2 0x3A9 PUSH1 0x4 DUP1 CALLDATASIZE SUB DUP2 ADD SWAP1 PUSH2 0x3A4 SWAP2 SWAP1 PUSH2 0x114D JUMP JUMPDEST PUSH2 0x814 JUMP JUMPDEST STOP JUMPDEST PUSH2 0x3B3 PUSH2 0xA3C JUMP JUMPDEST PUSH1 0x40 MLOAD PUSH2 0x3C0 SWAP2 SWAP1 PUSH2 0x10DA JUMP JUMPDEST PUSH1 0x40 MLOAD DUP1 SWAP2 SUB SWAP1 RETURN JUMPDEST PUSH2 0x3E3 PUSH1 0x4 DUP1 CALLDATASIZE SUB DUP2 ADD SWAP1 PUSH2 0x3DE SWAP2 SWAP1 PUSH2 0x11EF JUMP JUMPDEST PUSH2 0xA42 JUMP JUMPDEST PUSH1 0x40 MLOAD PUSH2 0x3F0 SWAP2 SWAP1 PUSH2 0xFEF JUMP JUMPDEST PUSH1 0x40 MLOAD DUP1 SWAP2 SUB SWAP1 RETURN JUMPDEST PUSH2 0x413 PUSH1 0x4 DUP1 CALLDATASIZE SUB DUP2 ADD SWAP1 PUSH2 0x40E SWAP2 SWAP1 PUSH2 0x11EF JUMP JUMPDEST PUSH2 0xA67 JUMP JUMPDEST PUSH1 0x40 MLOAD PUSH2 0x420 SWAP2 SWAP1 PUSH2 0xFEF JUMP JUMPDEST PUSH1 0x40 MLOAD DUP1 SWAP2 SUB SWAP1 RETURN JUMPDEST PUSH1 0x60 PUSH1 0x40 MLOAD DUP1 PUSH1 0x40 ADD PUSH1 0x40 MSTORE DUP1 PUSH1 0xA DUP2 MSTORE PUSH1 0x20 ADD PUSH32 0x556E697377617020563200000000000000000000000000000000000000000000 DUP2 MSTORE POP SWAP1 POP SWAP1 JUMP JUMPDEST PUSH1 0x0 PUSH2 0x473 CALLER DUP5 DUP5 PUSH2 0xAEE JUMP JUMPDEST PUSH1 0x1 SWAP1 POP SWAP3 SWAP2 POP POP JUMP JUMPDEST PUSH1 0x0 DUP1 SLOAD SWAP1 POP SWAP1 JUMP JUMPDEST PUSH1 0x0 PUSH32 0xFFFFFFFFFFFFFFFFFFFFFFFFFFFFFFFFFFFFFFFFFFFFFFFFFFFFFFFFFFFFFFFF PUSH1 0x2 PUSH1 0x0 DUP7 PUSH20 0xFFFFFFFFFFFFFFFFFFFFFFFFFFFFFFFFFFFFFFFF AND PUSH20 0xFFFFFFFFFFFFFFFFFFFFFFFFFFFFFFFFFFFFFFFF AND DUP2 MSTORE PUSH1 0x20 ADD SWAP1 DUP2 MSTORE PUSH1 0x20 ADD PUSH1 0x0 KECCAK256 PUSH1 0x0 CALLER PUSH20 0xFFFFFFFFFFFFFFFFFFFFFFFFFFFFFFFFFFFFFFFF AND PUSH20 0xFFFFFFFFFFFFFFFFFFFFFFFFFFFFFFFFFFFFFFFF AND DUP2 MSTORE PUSH1 0x20 ADD SWAP1 DUP2 MSTORE PUSH1 0x20 ADD PUSH1 0x0 KECCAK256 SLOAD EQ PUSH2 0x63B JUMPI PUSH2 0x5BA DUP3 PUSH1 0x2 PUSH1 0x0 DUP8 PUSH20 0xFFFFFFFFFFFFFFFFFFFFFFFFFFFFFFFFFFFFFFFF AND PUSH20 0xFFFFFFFFFFFFFFFFFFFFFFFFFFFFFFFFFFFFFFFF AND DUP2 MSTORE PUSH1 0x20 ADD SWAP1 DUP2 MSTORE PUSH1 0x20 ADD PUSH1 0x0 KECCAK256 PUSH1 0x0 CALLER PUSH20 0xFFFFFFFFFFFFFFFFFFFFFFFFFFFFFFFFFFFFFFFF AND PUSH20 0xFFFFFFFFFFFFFFFFFFFFFFFFFFFFFFFFFFFFFFFF AND DUP2 MSTORE PUSH1 0x20 ADD SWAP1 DUP2 MSTORE PUSH1 0x20 ADD PUSH1 0x0 KECCAK256 SLOAD PUSH2 0xBD9 SWAP1 SWAP2 SWAP1 PUSH4 0xFFFFFFFF AND JUMP JUMPDEST PUSH1 0x2 PUSH1 0x0 DUP7 PUSH20 0xFFFFFFFFFFFFFFFFFFFFFFFFFFFFFFFFFFFFFFFF AND PUSH20 0xFFFFFFFFFFFFFFFFFFFFFFFFFFFFFFFFFFFFFFFF AND DUP2 MSTORE PUSH1 0x20 ADD SWAP1 DUP2 MSTORE PUSH1 0x20 ADD PUSH1 0x0 KECCAK256 PUSH1 0x0 CALLER PUSH20 0xFFFFFFFFFFFFFFFFFFFFFFFFFFFFFFFFFFFFFFFF AND PUSH20 0xFFFFFFFFFFFFFFFFFFFFFFFFFFFFFFFFFFFFFFFF AND DUP2 MSTORE PUSH1 0x20 ADD SWAP1 DUP2 MSTORE PUSH1 0x20 ADD PUSH1 0x0 KECCAK256 DUP2 SWAP1 SSTORE POP JUMPDEST PUSH2 0x646 DUP5 DUP5 DUP5 PUSH2 0xC32 JUMP JUMPDEST PUSH1 0x1 SWAP1 POP SWAP4 SWAP3 POP POP POP JUMP JUMPDEST PUSH1 0x0 PUSH1 0x12 SWAP1 POP SWAP1 JUMP JUMPDEST PUSH1 0x12 DUP2 JUMP JUMPDEST PUSH1 0x0 SLOAD DUP2 JUMP JUMPDEST PUSH1 0x0 PUSH1 0x1 PUSH1 0x0 DUP4 PUSH20 0xFFFFFFFFFFFFFFFFFFFFFFFFFFFFFFFFFFFFFFFF AND PUSH20 0xFFFFFFFFFFFFFFFFFFFFFFFFFFFFFFFFFFFFFFFF AND DUP2 MSTORE PUSH1 0x20 ADD SWAP1 DUP2 MSTORE PUSH1 0x20 ADD PUSH1 0x0 KECCAK256 SLOAD SWAP1 POP SWAP2 SWAP1 POP JUMP JUMPDEST PUSH1 0x0 PUSH1 0x4 PUSH1 0x0 DUP4 PUSH20 0xFFFFFFFFFFFFFFFFFFFFFFFFFFFFFFFFFFFFFFFF AND PUSH20 0xFFFFFFFFFFFFFFFFFFFFFFFFFFFFFFFFFFFFFFFF AND DUP2 MSTORE PUSH1 0x20 ADD SWAP1 DUP2 MSTORE PUSH1 0x20 ADD PUSH1 0x0 KECCAK256 SLOAD SWAP1 POP SWAP2 SWAP1 POP JUMP JUMPDEST PUSH1 0x60 PUSH1 0x40 MLOAD DUP1 PUSH1 0x40 ADD PUSH1 0x40 MSTORE DUP1 PUSH1 0x6 DUP2 MSTORE PUSH1 0x20 ADD PUSH32 0x554E492D56320000000000000000000000000000000000000000000000000000 DUP2 MSTORE POP SWAP1 POP SWAP1 JUMP JUMPDEST PUSH32 0x6E71EDAE12B1B97F4D1F60370FEF10105FA2FAAE0126114A169C64845D6126C9 PUSH1 0x0 SHL DUP2 JUMP JUMPDEST PUSH1 0x0 PUSH2 0x768 CALLER DUP5 DUP5 PUSH2 0xC32 JUMP JUMPDEST PUSH1 0x1 SWAP1 POP SWAP3 SWAP2 POP POP JUMP JUMPDEST PUSH1 0x40 MLOAD DUP1 PUSH1 0x40 ADD PUSH1 0x40 MSTORE DUP1 PUSH1 0x6 DUP2 MSTORE PUSH1 0x20 ADD PUSH32 0x554E492D56320000000000000000000000000000000000000000000000000000 DUP2 MSTORE POP DUP2 JUMP JUMPDEST PUSH1 0x4 PUSH1 0x20 MSTORE DUP1 PUSH1 0x0 MSTORE PUSH1 0x40 PUSH1 0x0 KECCAK256 PUSH1 0x0 SWAP2 POP SWAP1 POP SLOAD DUP2 JUMP JUMPDEST PUSH1 0x1 PUSH1 0x20 MSTORE DUP1 PUSH1 0x0 MSTORE PUSH1 0x40 PUSH1 0x0 KECCAK256 PUSH1 0x0 SWAP2 POP SWAP1 POP SLOAD DUP2 JUMP JUMPDEST PUSH1 0x40 MLOAD DUP1 PUSH1 0x40 ADD PUSH1 0x40 MSTORE DUP1 PUSH1 0xA DUP2 MSTORE PUSH1 0x20 ADD PUSH32 0x556E697377617020563200000000000000000000000000000000000000000000 DUP2 MSTORE POP DUP2 JUMP JUMPDEST TIMESTAMP DUP5 LT ISZERO PUSH2 0x857 JUMPI PUSH1 0x40 MLOAD PUSH32 0x8C379A000000000000000000000000000000000000000000000000000000000 DUP2 MSTORE PUSH1 0x4 ADD PUSH2 0x84E SWAP1 PUSH2 0x127B JUMP JUMPDEST PUSH1 0x40 MLOAD DUP1 SWAP2 SUB SWAP1 REVERT JUMPDEST PUSH1 0x0 PUSH1 0x3 SLOAD PUSH32 0x6E71EDAE12B1B97F4D1F60370FEF10105FA2FAAE0126114A169C64845D6126C9 PUSH1 0x0 SHL DUP10 DUP10 DUP10 PUSH1 0x4 PUSH1 0x0 DUP15 PUSH20 0xFFFFFFFFFFFFFFFFFFFFFFFFFFFFFFFFFFFFFFFF AND PUSH20 0xFFFFFFFFFFFFFFFFFFFFFFFFFFFFFFFFFFFFFFFF AND DUP2 MSTORE PUSH1 0x20 ADD SWAP1 DUP2 MSTORE PUSH1 0x20 ADD PUSH1 0x0 KECCAK256 PUSH1 0x0 DUP2 SLOAD DUP1 SWAP3 SWAP2 SWAP1 PUSH2 0x8D3 SWAP1 PUSH2 0x12CA JUMP JUMPDEST SWAP2 SWAP1 POP SSTORE DUP11 PUSH1 0x40 MLOAD PUSH1 0x20 ADD PUSH2 0x8ED SWAP7 SWAP6 SWAP5 SWAP4 SWAP3 SWAP2 SWAP1 PUSH2 0x1321 JUMP JUMPDEST PUSH1 0x40 MLOAD PUSH1 0x20 DUP2 DUP4 SUB SUB DUP2 MSTORE SWAP1 PUSH1 0x40 MSTORE DUP1 MLOAD SWAP1 PUSH1 0x20 ADD KECCAK256 PUSH1 0x40 MLOAD PUSH1 0x20 ADD PUSH2 0x914 SWAP3 SWAP2 SWAP1 PUSH2 0x13FA JUMP JUMPDEST PUSH1 0x40 MLOAD PUSH1 0x20 DUP2 DUP4 SUB SUB DUP2 MSTORE SWAP1 PUSH1 0x40 MSTORE DUP1 MLOAD SWAP1 PUSH1 0x20 ADD KECCAK256 SWAP1 POP PUSH1 0x0 PUSH1 0x1 DUP3 DUP7 DUP7 DUP7 PUSH1 0x40 MLOAD PUSH1 0x0 DUP2 MSTORE PUSH1 0x20 ADD PUSH1 0x40 MSTORE PUSH1 0x40 MLOAD PUSH2 0x951 SWAP5 SWAP4 SWAP3 SWAP2 SWAP1 PUSH2 0x1431 JUMP JUMPDEST PUSH1 0x20 PUSH1 0x40 MLOAD PUSH1 0x20 DUP2 SUB SWAP1 DUP1 DUP5 SUB SWAP1 DUP6 GAS STATICCALL ISZERO DUP1 ISZERO PUSH2 0x973 JUMPI RETURNDATASIZE PUSH1 0x0 DUP1 RETURNDATACOPY RETURNDATASIZE PUSH1 0x0 REVERT JUMPDEST POP POP POP PUSH1 0x20 PUSH1 0x40 MLOAD SUB MLOAD SWAP1 POP PUSH1 0x0 PUSH20 0xFFFFFFFFFFFFFFFFFFFFFFFFFFFFFFFFFFFFFFFF AND DUP2 PUSH20 0xFFFFFFFFFFFFFFFFFFFFFFFFFFFFFFFFFFFFFFFF AND EQ ISZERO DUP1 ISZERO PUSH2 0x9E7 JUMPI POP DUP9 PUSH20 0xFFFFFFFFFFFFFFFFFFFFFFFFFFFFFFFFFFFFFFFF AND DUP2 PUSH20 0xFFFFFFFFFFFFFFFFFFFFFFFFFFFFFFFFFFFFFFFF AND EQ JUMPDEST PUSH2 0xA26 JUMPI PUSH1 0x40 MLOAD PUSH32 0x8C379A000000000000000000000000000000000000000000000000000000000 DUP2 MSTORE PUSH1 0x4 ADD PUSH2 0xA1D SWAP1 PUSH2 0x14C2 JUMP JUMPDEST PUSH1 0x40 MLOAD DUP1 SWAP2 SUB SWAP1 REVERT JUMPDEST PUSH2 0xA31 DUP10 DUP10 DUP10 PUSH2 0xAEE JUMP JUMPDEST POP POP POP POP POP POP POP POP POP JUMP JUMPDEST PUSH1 0x3 SLOAD DUP2 JUMP JUMPDEST PUSH1 0x2 PUSH1 0x20 MSTORE DUP2 PUSH1 0x0 MSTORE PUSH1 0x40 PUSH1 0x0 KECCAK256 PUSH1 0x20 MSTORE DUP1 PUSH1 0x0 MSTORE PUSH1 0x40 PUSH1 0x0 KECCAK256 PUSH1 0x0 SWAP2 POP SWAP2 POP POP SLOAD DUP2 JUMP JUMPDEST PUSH1 0x0 PUSH1 0x2 PUSH1 0x0 DUP5 PUSH20 0xFFFFFFFFFFFFFFFFFFFFFFFFFFFFFFFFFFFFFFFF AND PUSH20 0xFFFFFFFFFFFFFFFFFFFFFFFFFFFFFFFFFFFFFFFF AND DUP2 MSTORE PUSH1 0x20 ADD SWAP1 DUP2 MSTORE PUSH1 0x20 ADD PUSH1 0x0 KECCAK256 PUSH1 0x0 DUP4 PUSH20 0xFFFFFFFFFFFFFFFFFFFFFFFFFFFFFFFFFFFFFFFF AND PUSH20 0xFFFFFFFFFFFFFFFFFFFFFFFFFFFFFFFFFFFFFFFF AND DUP2 MSTORE PUSH1 0x20 ADD SWAP1 DUP2 MSTORE PUSH1 0x20 ADD PUSH1 0x0 KECCAK256 SLOAD SWAP1 POP SWAP3 SWAP2 POP POP JUMP JUMPDEST DUP1 PUSH1 0x2 PUSH1 0x0 DUP6 PUSH20 0xFFFFFFFFFFFFFFFFFFFFFFFFFFFFFFFFFFFFFFFF AND PUSH20 0xFFFFFFFFFFFFFFFFFFFFFFFFFFFFFFFFFFFFFFFF AND DUP2 MSTORE PUSH1 0x20 ADD SWAP1 DUP2 MSTORE PUSH1 0x20 ADD PUSH1 0x0 KECCAK256 PUSH1 0x0 DUP5 PUSH20 0xFFFFFFFFFFFFFFFFFFFFFFFFFFFFFFFFFFFFFFFF AND PUSH20 0xFFFFFFFFFFFFFFFFFFFFFFFFFFFFFFFFFFFFFFFF AND DUP2 MSTORE PUSH1 0x20 ADD SWAP1 DUP2 MSTORE PUSH1 0x20 ADD PUSH1 0x0 KECCAK256 DUP2 SWAP1 SSTORE POP DUP2 PUSH20 0xFFFFFFFFFFFFFFFFFFFFFFFFFFFFFFFFFFFFFFFF AND DUP4 PUSH20 0xFFFFFFFFFFFFFFFFFFFFFFFFFFFFFFFFFFFFFFFF AND PUSH32 0x8C5BE1E5EBEC7D5BD14F71427D1E84F3DD0314C0F7B2291E5B200AC8C7C3B925 DUP4 PUSH1 0x40 MLOAD PUSH2 0xBCC SWAP2 SWAP1 PUSH2 0xFEF JUMP JUMPDEST PUSH1 0x40 MLOAD DUP1 SWAP2 SUB SWAP1 LOG3 POP POP POP JUMP JUMPDEST PUSH1 0x0 DUP3 DUP3 DUP5 PUSH2 0xBE8 SWAP2 SWAP1 PUSH2 0x14E2 JUMP JUMPDEST SWAP2 POP DUP2 GT ISZERO PUSH2 0xC2C JUMPI PUSH1 0x40 MLOAD PUSH32 0x8C379A000000000000000000000000000000000000000000000000000000000 DUP2 MSTORE PUSH1 0x4 ADD PUSH2 0xC23 SWAP1 PUSH2 0x1562 JUMP JUMPDEST PUSH1 0x40 MLOAD DUP1 SWAP2 SUB SWAP1 REVERT JUMPDEST SWAP3 SWAP2 POP POP JUMP JUMPDEST PUSH2 0xC84 DUP2 PUSH1 0x1 PUSH1 0x0 DUP7 PUSH20 0xFFFFFFFFFFFFFFFFFFFFFFFFFFFFFFFFFFFFFFFF AND PUSH20 0xFFFFFFFFFFFFFFFFFFFFFFFFFFFFFFFFFFFFFFFF AND DUP2 MSTORE PUSH1 0x20 ADD SWAP1 DUP2 MSTORE PUSH1 0x20 ADD PUSH1 0x0 KECCAK256 SLOAD PUSH2 0xBD9 SWAP1 SWAP2 SWAP1 PUSH4 0xFFFFFFFF AND JUMP JUMPDEST PUSH1 0x1 PUSH1 0x0 DUP6 PUSH20 0xFFFFFFFFFFFFFFFFFFFFFFFFFFFFFFFFFFFFFFFF AND PUSH20 0xFFFFFFFFFFFFFFFFFFFFFFFFFFFFFFFFFFFFFFFF AND DUP2 MSTORE PUSH1 0x20 ADD SWAP1 DUP2 MSTORE PUSH1 0x20 ADD PUSH1 0x0 KECCAK256 DUP2 SWAP1 SSTORE POP PUSH2 0xD19 DUP2 PUSH1 0x1 PUSH1 0x0 DUP6 PUSH20 0xFFFFFFFFFFFFFFFFFFFFFFFFFFFFFFFFFFFFFFFF AND PUSH20 0xFFFFFFFFFFFFFFFFFFFFFFFFFFFFFFFFFFFFFFFF AND DUP2 MSTORE PUSH1 0x20 ADD SWAP1 DUP2 MSTORE PUSH1 0x20 ADD PUSH1 0x0 KECCAK256 SLOAD PUSH2 0xDC6 SWAP1 SWAP2 SWAP1 PUSH4 0xFFFFFFFF AND JUMP JUMPDEST PUSH1 0x1 PUSH1 0x0 DUP5 PUSH20 0xFFFFFFFFFFFFFFFFFFFFFFFFFFFFFFFFFFFFFFFF AND PUSH20 0xFFFFFFFFFFFFFFFFFFFFFFFFFFFFFFFFFFFFFFFF AND DUP2 MSTORE PUSH1 0x20 ADD SWAP1 DUP2 MSTORE PUSH1 0x20 ADD PUSH1 0x0 KECCAK256 DUP2 SWAP1 SSTORE POP DUP2 PUSH20 0xFFFFFFFFFFFFFFFFFFFFFFFFFFFFFFFFFFFFFFFF AND DUP4 PUSH20 0xFFFFFFFFFFFFFFFFFFFFFFFFFFFFFFFFFFFFFFFF AND PUSH32 0xDDF252AD1BE2C89B69C2B068FC378DAA952BA7F163C4A11628F55A4DF523B3EF DUP4 PUSH1 0x40 MLOAD PUSH2 0xDB9 SWAP2 SWAP1 PUSH2 0xFEF JUMP JUMPDEST PUSH1 0x40 MLOAD DUP1 SWAP2 SUB SWAP1 LOG3 POP POP POP JUMP JUMPDEST PUSH1 0x0 DUP3 DUP3 DUP5 PUSH2 0xDD5 SWAP2 SWAP1 PUSH2 0x1582 JUMP JUMPDEST SWAP2 POP DUP2 LT ISZERO PUSH2 0xE19 JUMPI PUSH1 0x40 MLOAD PUSH32 0x8C379A000000000000000000000000000000000000000000000000000000000 DUP2 MSTORE PUSH1 0x4 ADD PUSH2 0xE10 SWAP1 PUSH2 0x1602 JUMP JUMPDEST PUSH1 0x40 MLOAD DUP1 SWAP2 SUB SWAP1 REVERT JUMPDEST SWAP3 SWAP2 POP POP JUMP JUMPDEST PUSH1 0x0 DUP2 MLOAD SWAP1 POP SWAP2 SWAP1 POP JUMP JUMPDEST PUSH1 0x0 DUP3 DUP3 MSTORE PUSH1 0x20 DUP3 ADD SWAP1 POP SWAP3 SWAP2 POP POP JUMP JUMPDEST PUSH1 0x0 JUMPDEST DUP4 DUP2 LT ISZERO PUSH2 0xE59 JUMPI DUP1 DUP3 ADD MLOAD DUP2 DUP5 ADD MSTORE PUSH1 0x20 DUP2 ADD SWAP1 POP PUSH2 0xE3E JUMP JUMPDEST PUSH1 0x0 DUP5 DUP5 ADD MSTORE POP POP POP POP JUMP JUMPDEST PUSH1 0x0 PUSH1 0x1F NOT PUSH1 0x1F DUP4 ADD AND SWAP1 POP SWAP2 SWAP1 POP JUMP JUMPDEST PUSH1 0x0 PUSH2 0xE81 DUP3 PUSH2 0xE1F JUMP JUMPDEST PUSH2 0xE8B DUP2 DUP6 PUSH2 0xE2A JUMP JUMPDEST SWAP4 POP PUSH2 0xE9B DUP2 DUP6 PUSH1 0x20 DUP7 ADD PUSH2 0xE3B JUMP JUMPDEST PUSH2 0xEA4 DUP2 PUSH2 0xE65 JUMP JUMPDEST DUP5 ADD SWAP2 POP POP SWAP3 SWAP2 POP POP JUMP JUMPDEST PUSH1 0x0 PUSH1 0x20 DUP3 ADD SWAP1 POP DUP2 DUP2 SUB PUSH1 0x0 DUP4 ADD MSTORE PUSH2 0xEC9 DUP2 DUP5 PUSH2 0xE76 JUMP JUMPDEST SWAP1 POP SWAP3 SWAP2 POP POP JUMP JUMPDEST PUSH1 0x0 DUP1 REVERT JUMPDEST PUSH1 0x0 PUSH20 0xFFFFFFFFFFFFFFFFFFFFFFFFFFFFFFFFFFFFFFFF DUP3 AND SWAP1 POP SWAP2 SWAP1 POP JUMP JUMPDEST PUSH1 0x0 PUSH2 0xF01 DUP3 PUSH2 0xED6 JUMP JUMPDEST SWAP1 POP SWAP2 SWAP1 POP JUMP JUMPDEST PUSH2 0xF11 DUP2 PUSH2 0xEF6 JUMP JUMPDEST DUP2 EQ PUSH2 0xF1C JUMPI PUSH1 0x0 DUP1 REVERT JUMPDEST POP JUMP JUMPDEST PUSH1 0x0 DUP2 CALLDATALOAD SWAP1 POP PUSH2 0xF2E DUP2 PUSH2 0xF08 JUMP JUMPDEST SWAP3 SWAP2 POP POP JUMP JUMPDEST PUSH1 0x0 DUP2 SWAP1 POP SWAP2 SWAP1 POP JUMP JUMPDEST PUSH2 0xF47 DUP2 PUSH2 0xF34 JUMP JUMPDEST DUP2 EQ PUSH2 0xF52 JUMPI PUSH1 0x0 DUP1 REVERT JUMPDEST POP JUMP JUMPDEST PUSH1 0x0 DUP2 CALLDATALOAD SWAP1 POP PUSH2 0xF64 DUP2 PUSH2 0xF3E JUMP JUMPDEST SWAP3 SWAP2 POP POP JUMP JUMPDEST PUSH1 0x0 DUP1 PUSH1 0x40 DUP4 DUP6 SUB SLT ISZERO PUSH2 0xF81 JUMPI PUSH2 0xF80 PUSH2 0xED1 JUMP JUMPDEST JUMPDEST PUSH1 0x0 PUSH2 0xF8F DUP6 DUP3 DUP7 ADD PUSH2 0xF1F JUMP JUMPDEST SWAP3 POP POP PUSH1 0x20 PUSH2 0xFA0 DUP6 DUP3 DUP7 ADD PUSH2 0xF55 JUMP JUMPDEST SWAP2 POP POP SWAP3 POP SWAP3 SWAP1 POP JUMP JUMPDEST PUSH1 0x0 DUP2 ISZERO ISZERO SWAP1 POP SWAP2 SWAP1 POP JUMP JUMPDEST PUSH2 0xFBF DUP2 PUSH2 0xFAA JUMP JUMPDEST DUP3 MSTORE POP POP JUMP JUMPDEST PUSH1 0x0 PUSH1 0x20 DUP3 ADD SWAP1 POP PUSH2 0xFDA PUSH1 0x0 DUP4 ADD DUP5 PUSH2 0xFB6 JUMP JUMPDEST SWAP3 SWAP2 POP POP JUMP JUMPDEST PUSH2 0xFE9 DUP2 PUSH2 0xF34 JUMP JUMPDEST DUP3 MSTORE POP POP JUMP JUMPDEST PUSH1 0x0 PUSH1 0x20 DUP3 ADD SWAP1 POP PUSH2 0x1004 PUSH1 0x0 DUP4 ADD DUP5 PUSH2 0xFE0 JUMP JUMPDEST SWAP3 SWAP2 POP POP JUMP JUMPDEST PUSH1 0x0 DUP1 PUSH1 0x0 PUSH1 0x60 DUP5 DUP7 SUB SLT ISZERO PUSH2 0x1023 JUMPI PUSH2 0x1022 PUSH2 0xED1 JUMP JUMPDEST JUMPDEST PUSH1 0x0 PUSH2 0x1031 DUP7 DUP3 DUP8 ADD PUSH2 0xF1F JUMP JUMPDEST SWAP4 POP POP PUSH1 0x20 PUSH2 0x1042 DUP7 DUP3 DUP8 ADD PUSH2 0xF1F JUMP JUMPDEST SWAP3 POP POP PUSH1 0x40 PUSH2 0x1053 DUP7 DUP3 DUP8 ADD PUSH2 0xF55 JUMP JUMPDEST SWAP2 POP POP SWAP3 POP SWAP3 POP SWAP3 JUMP JUMPDEST PUSH1 0x0 PUSH1 0xFF DUP3 AND SWAP1 POP SWAP2 SWAP1 POP JUMP JUMPDEST PUSH2 0x1073 DUP2 PUSH2 0x105D JUMP JUMPDEST DUP3 MSTORE POP POP JUMP JUMPDEST PUSH1 0x0 PUSH1 0x20 DUP3 ADD SWAP1 POP PUSH2 0x108E PUSH1 0x0 DUP4 ADD DUP5 PUSH2 0x106A JUMP JUMPDEST SWAP3 SWAP2 POP POP JUMP JUMPDEST PUSH1 0x0 PUSH1 0x20 DUP3 DUP5 SUB SLT ISZERO PUSH2 0x10AA JUMPI PUSH2 0x10A9 PUSH2 0xED1 JUMP JUMPDEST JUMPDEST PUSH1 0x0 PUSH2 0x10B8 DUP5 DUP3 DUP6 ADD PUSH2 0xF1F JUMP JUMPDEST SWAP2 POP POP SWAP3 SWAP2 POP POP JUMP JUMPDEST PUSH1 0x0 DUP2 SWAP1 POP SWAP2 SWAP1 POP JUMP JUMPDEST PUSH2 0x10D4 DUP2 PUSH2 0x10C1 JUMP JUMPDEST DUP3 MSTORE POP POP JUMP JUMPDEST PUSH1 0x0 PUSH1 0x20 DUP3 ADD SWAP1 POP PUSH2 0x10EF PUSH1 0x0 DUP4 ADD DUP5 PUSH2 0x10CB JUMP JUMPDEST SWAP3 SWAP2 POP POP JUMP JUMPDEST PUSH2 0x10FE DUP2 PUSH2 0x105D JUMP JUMPDEST DUP2 EQ PUSH2 0x1109 JUMPI PUSH1 0x0 DUP1 REVERT JUMPDEST POP JUMP JUMPDEST PUSH1 0x0 DUP2 CALLDATALOAD SWAP1 POP PUSH2 0x111B DUP2 PUSH2 0x10F5 JUMP JUMPDEST SWAP3 SWAP2 POP POP JUMP JUMPDEST PUSH2 0x112A DUP2 PUSH2 0x10C1 JUMP JUMPDEST DUP2 EQ PUSH2 0x1135 JUMPI PUSH1 0x0 DUP1 REVERT JUMPDEST POP JUMP JUMPDEST PUSH1 0x0 DUP2 CALLDATALOAD SWAP1 POP PUSH2 0x1147 DUP2 PUSH2 0x1121 JUMP JUMPDEST SWAP3 SWAP2 POP POP JUMP JUMPDEST PUSH1 0x0 DUP1 PUSH1 0x0 DUP1 PUSH1 0x0 DUP1 PUSH1 0x0 PUSH1 0xE0 DUP9 DUP11 SUB SLT ISZERO PUSH2 0x116C JUMPI PUSH2 0x116B PUSH2 0xED1 JUMP JUMPDEST JUMPDEST PUSH1 0x0 PUSH2 0x117A DUP11 DUP3 DUP12 ADD PUSH2 0xF1F JUMP JUMPDEST SWAP8 POP POP PUSH1 0x20 PUSH2 0x118B DUP11 DUP3 DUP12 ADD PUSH2 0xF1F JUMP JUMPDEST SWAP7 POP POP PUSH1 0x40 PUSH2 0x119C DUP11 DUP3 DUP12 ADD PUSH2 0xF55 JUMP JUMPDEST SWAP6 POP POP PUSH1 0x60 PUSH2 0x11AD DUP11 DUP3 DUP12 ADD PUSH2 0xF55 JUMP JUMPDEST SWAP5 POP POP PUSH1 0x80 PUSH2 0x11BE DUP11 DUP3 DUP12 ADD PUSH2 0x110C JUMP JUMPDEST SWAP4 POP POP PUSH1 0xA0 PUSH2 0x11CF DUP11 DUP3 DUP12 ADD PUSH2 0x1138 JUMP JUMPDEST SWAP3 POP POP PUSH1 0xC0 PUSH2 0x11E0 DUP11 DUP3 DUP12 ADD PUSH2 0x1138 JUMP JUMPDEST SWAP2 POP POP SWAP3 SWAP6 SWAP9 SWAP2 SWAP5 SWAP8 POP SWAP3 SWAP6 POP JUMP JUMPDEST PUSH1 0x0 DUP1 PUSH1 0x40 DUP4 DUP6 SUB SLT ISZERO PUSH2 0x1206 JUMPI PUSH2 0x1205 PUSH2 0xED1 JUMP JUMPDEST JUMPDEST PUSH1 0x0 PUSH2 0x1214 DUP6 DUP3 DUP7 ADD PUSH2 0xF1F JUMP JUMPDEST SWAP3 POP POP PUSH1 0x20 PUSH2 0x1225 DUP6 DUP3 DUP7 ADD PUSH2 0xF1F JUMP JUMPDEST SWAP2 POP POP SWAP3 POP SWAP3 SWAP1 POP JUMP JUMPDEST PUSH32 0x556E697377617056323A20455850495245440000000000000000000000000000 PUSH1 0x0 DUP3 ADD MSTORE POP JUMP JUMPDEST PUSH1 0x0 PUSH2 0x1265 PUSH1 0x12 DUP4 PUSH2 0xE2A JUMP JUMPDEST SWAP2 POP PUSH2 0x1270 DUP3 PUSH2 0x122F JUMP JUMPDEST PUSH1 0x20 DUP3 ADD SWAP1 POP SWAP2 SWAP1 POP JUMP JUMPDEST PUSH1 0x0 PUSH1 0x20 DUP3 ADD SWAP1 POP DUP2 DUP2 SUB PUSH1 0x0 DUP4 ADD MSTORE PUSH2 0x1294 DUP2 PUSH2 0x1258 JUMP JUMPDEST SWAP1 POP SWAP2 SWAP1 POP JUMP JUMPDEST PUSH32 0x4E487B7100000000000000000000000000000000000000000000000000000000 PUSH1 0x0 MSTORE PUSH1 0x11 PUSH1 0x4 MSTORE PUSH1 0x24 PUSH1 0x0 REVERT JUMPDEST PUSH1 0x0 PUSH2 0x12D5 DUP3 PUSH2 0xF34 JUMP JUMPDEST SWAP2 POP PUSH32 0xFFFFFFFFFFFFFFFFFFFFFFFFFFFFFFFFFFFFFFFFFFFFFFFFFFFFFFFFFFFFFFFF DUP3 SUB PUSH2 0x1307 JUMPI PUSH2 0x1306 PUSH2 0x129B JUMP JUMPDEST JUMPDEST PUSH1 0x1 DUP3 ADD SWAP1 POP SWAP2 SWAP1 POP JUMP JUMPDEST PUSH2 0x131B DUP2 PUSH2 0xEF6 JUMP JUMPDEST DUP3 MSTORE POP POP JUMP JUMPDEST PUSH1 0x0 PUSH1 0xC0 DUP3 ADD SWAP1 POP PUSH2 0x1336 PUSH1 0x0 DUP4 ADD DUP10 PUSH2 0x10CB JUMP JUMPDEST PUSH2 0x1343 PUSH1 0x20 DUP4 ADD DUP9 PUSH2 0x1312 JUMP JUMPDEST PUSH2 0x1350 PUSH1 0x40 DUP4 ADD DUP8 PUSH2 0x1312 JUMP JUMPDEST PUSH2 0x135D PUSH1 0x60 DUP4 ADD DUP7 PUSH2 0xFE0 JUMP JUMPDEST PUSH2 0x136A PUSH1 0x80 DUP4 ADD DUP6 PUSH2 0xFE0 JUMP JUMPDEST PUSH2 0x1377 PUSH1 0xA0 DUP4 ADD DUP5 PUSH2 0xFE0 JUMP JUMPDEST SWAP8 SWAP7 POP POP POP POP POP POP POP JUMP JUMPDEST PUSH1 0x0 DUP2 SWAP1 POP SWAP3 SWAP2 POP POP JUMP JUMPDEST PUSH32 0x1901000000000000000000000000000000000000000000000000000000000000 PUSH1 0x0 DUP3 ADD MSTORE POP JUMP JUMPDEST PUSH1 0x0 PUSH2 0x13C3 PUSH1 0x2 DUP4 PUSH2 0x1382 JUMP JUMPDEST SWAP2 POP PUSH2 0x13CE DUP3 PUSH2 0x138D JUMP JUMPDEST PUSH1 0x2 DUP3 ADD SWAP1 POP SWAP2 SWAP1 POP JUMP JUMPDEST PUSH1 0x0 DUP2 SWAP1 POP SWAP2 SWAP1 POP JUMP JUMPDEST PUSH2 0x13F4 PUSH2 0x13EF DUP3 PUSH2 0x10C1 JUMP JUMPDEST PUSH2 0x13D9 JUMP JUMPDEST DUP3 MSTORE POP POP JUMP JUMPDEST PUSH1 0x0 PUSH2 0x1405 DUP3 PUSH2 0x13B6 JUMP JUMPDEST SWAP2 POP PUSH2 0x1411 DUP3 DUP6 PUSH2 0x13E3 JUMP JUMPDEST PUSH1 0x20 DUP3 ADD SWAP2 POP PUSH2 0x1421 DUP3 DUP5 PUSH2 0x13E3 JUMP JUMPDEST PUSH1 0x20 DUP3 ADD SWAP2 POP DUP2 SWAP1 POP SWAP4 SWAP3 POP POP POP JUMP JUMPDEST PUSH1 0x0 PUSH1 0x80 DUP3 ADD SWAP1 POP PUSH2 0x1446 PUSH1 0x0 DUP4 ADD DUP8 PUSH2 0x10CB JUMP JUMPDEST PUSH2 0x1453 PUSH1 0x20 DUP4 ADD DUP7 PUSH2 0x106A JUMP JUMPDEST PUSH2 0x1460 PUSH1 0x40 DUP4 ADD DUP6 PUSH2 0x10CB JUMP JUMPDEST PUSH2 0x146D PUSH1 0x60 DUP4 ADD DUP5 PUSH2 0x10CB JUMP JUMPDEST SWAP6 SWAP5 POP POP POP POP POP JUMP JUMPDEST PUSH32 0x556E697377617056323A20494E56414C49445F5349474E415455524500000000 PUSH1 0x0 DUP3 ADD MSTORE POP JUMP JUMPDEST PUSH1 0x0 PUSH2 0x14AC PUSH1 0x1C DUP4 PUSH2 0xE2A JUMP JUMPDEST SWAP2 POP PUSH2 0x14B7 DUP3 PUSH2 0x1476 JUMP JUMPDEST PUSH1 0x20 DUP3 ADD SWAP1 POP SWAP2 SWAP1 POP JUMP JUMPDEST PUSH1 0x0 PUSH1 0x20 DUP3 ADD SWAP1 POP DUP2 DUP2 SUB PUSH1 0x0 DUP4 ADD MSTORE PUSH2 0x14DB DUP2 PUSH2 0x149F JUMP JUMPDEST SWAP1 POP SWAP2 SWAP1 POP JUMP JUMPDEST PUSH1 0x0 PUSH2 0x14ED DUP3 PUSH2 0xF34 JUMP JUMPDEST SWAP2 POP PUSH2 0x14F8 DUP4 PUSH2 0xF34 JUMP JUMPDEST SWAP3 POP DUP3 DUP3 SUB SWAP1 POP DUP2 DUP2 GT ISZERO PUSH2 0x1510 JUMPI PUSH2 0x150F PUSH2 0x129B JUMP JUMPDEST JUMPDEST SWAP3 SWAP2 POP POP JUMP JUMPDEST PUSH32 0x64732D6D6174682D7375622D756E646572666C6F770000000000000000000000 PUSH1 0x0 DUP3 ADD MSTORE POP JUMP JUMPDEST PUSH1 0x0 PUSH2 0x154C PUSH1 0x15 DUP4 PUSH2 0xE2A JUMP JUMPDEST SWAP2 POP PUSH2 0x1557 DUP3 PUSH2 0x1516 JUMP JUMPDEST PUSH1 0x20 DUP3 ADD SWAP1 POP SWAP2 SWAP1 POP JUMP JUMPDEST PUSH1 0x0 PUSH1 0x20 DUP3 ADD SWAP1 POP DUP2 DUP2 SUB PUSH1 0x0 DUP4 ADD MSTORE PUSH2 0x157B DUP2 PUSH2 0x153F JUMP JUMPDEST SWAP1 POP SWAP2 SWAP1 POP JUMP JUMPDEST PUSH1 0x0 PUSH2 0x158D DUP3 PUSH2 0xF34 JUMP JUMPDEST SWAP2 POP PUSH2 0x1598 DUP4 PUSH2 0xF34 JUMP JUMPDEST SWAP3 POP DUP3 DUP3 ADD SWAP1 POP DUP1 DUP3 GT ISZERO PUSH2 0x15B0 JUMPI PUSH2 0x15AF PUSH2 0x129B JUMP JUMPDEST JUMPDEST SWAP3 SWAP2 POP POP JUMP JUMPDEST PUSH32 0x64732D6D6174682D6164642D6F766572666C6F77000000000000000000000000 PUSH1 0x0 DUP3 ADD MSTORE POP JUMP JUMPDEST PUSH1 0x0 PUSH2 0x15EC PUSH1 0x14 DUP4 PUSH2 0xE2A JUMP JUMPDEST SWAP2 POP PUSH2 0x15F7 DUP3 PUSH2 0x15B6 JUMP JUMPDEST PUSH1 0x20 DUP3 ADD SWAP1 POP SWAP2 SWAP1 POP JUMP JUMPDEST PUSH1 0x0 PUSH1 0x20 DUP3 ADD SWAP1 POP DUP2 DUP2 SUB PUSH1 0x0 DUP4 ADD MSTORE PUSH2 0x161B DUP2 PUSH2 0x15DF JUMP JUMPDEST SWAP1 POP SWAP2 SWAP1 POP JUMP INVALID LOG2 PUSH5 0x6970667358 0x22 SLT KECCAK256 DUP15 SHL PUSH5 0x46450EFE57 CALLDATASIZE 0xCD PREVRANDAO 0xD9 LOG3 0x21 STOP DUP2 PUSH6 0x60ADC1766422 SELFDESTRUCT 0xC7 PUSH8 0x60A82DA3084D6473 PUSH16 0x6C634300081300330000000000000000 "
				},
				"gasEstimates": {
					"creation": {
						"codeDepositCost": "1144000",
						"executionCost": "infinite",
						"totalCost": "infinite"
					},
					"external": {
						"_DOMAIN_SEPARATOR()": "2495",
						"_PERMIT_TYPEHASH()": "358",
						"_allowance(address,address)": "infinite",
						"_balanceOf(address)": "2925",
						"_decimals()": "358",
						"_name()": "infinite",
						"_nonces(address)": "2903",
						"_symbol()": "infinite",
						"_totalSupply()": "2474",
						"allowance(address,address)": "infinite",
						"approve(address,uint256)": "infinite",
						"balanceOf(address)": "2908",
						"decimals()": "455",
						"name()": "infinite",
						"nonces(address)": "2930",
						"permit(address,address,uint256,uint256,uint8,bytes32,bytes32)": "infinite",
						"symbol()": "infinite",
						"totalSupply()": "2505",
						"transfer(address,uint256)": "infinite",
						"transferFrom(address,address,uint256)": "infinite"
					},
					"internal": {
						"_approve(address,address,uint256)": "infinite",
						"_burn(address,uint256)": "infinite",
						"_mint(address,uint256)": "infinite",
						"_transfer(address,address,uint256)": "infinite"
					}
				},
				"methodIdentifiers": {
					"_DOMAIN_SEPARATOR()": "dc0c81b5",
					"_PERMIT_TYPEHASH()": "982aaf6b",
					"_allowance(address,address)": "dd336c12",
					"_balanceOf(address)": "cca3e832",
					"_decimals()": "32424aa3",
					"_name()": "d28d8852",
					"_nonces(address)": "b9844d8d",
					"_symbol()": "b09f1266",
					"_totalSupply()": "3eaaf86b",
					"allowance(address,address)": "dd62ed3e",
					"approve(address,uint256)": "095ea7b3",
					"balanceOf(address)": "70a08231",
					"decimals()": "313ce567",
					"name()": "06fdde03",
					"nonces(address)": "7ecebe00",
					"permit(address,address,uint256,uint256,uint8,bytes32,bytes32)": "d505accf",
					"symbol()": "95d89b41",
					"totalSupply()": "18160ddd",
					"transfer(address,uint256)": "a9059cbb",
					"transferFrom(address,address,uint256)": "23b872dd"
				}
			},
			"storageLayout": {
				"storage": [
					{
						"astId": 182,
						"contract": "src/uni/UniswapV2ERC20.sol:UniswapV2ERC20",
						"label": "_totalSupply",
						"offset": 0,
						"slot": "0",
						"type": "t_uint256"
					},
					{
						"astId": 186,
						"contract": "src/uni/UniswapV2ERC20.sol:UniswapV2ERC20",
						"label": "_balanceOf",
						"offset": 0,
						"slot": "1",
						"type": "t_mapping(t_address,t_uint256)"
					},
					{
						"astId": 192,
						"contract": "src/uni/UniswapV2ERC20.sol:UniswapV2ERC20",
						"label": "_allowance",
						"offset": 0,
						"slot": "2",
						"type": "t_mapping(t_address,t_mapping(t_address,t_uint256))"
					},
					{
						"astId": 194,
						"contract": "src/uni/UniswapV2ERC20.sol:UniswapV2ERC20",
						"label": "_DOMAIN_SEPARATOR",
						"offset": 0,
						"slot": "3",
						"type": "t_bytes32"
					},
					{
						"astId": 201,
						"contract": "src/uni/UniswapV2ERC20.sol:UniswapV2ERC20",
						"label": "_nonces",
						"offset": 0,
						"slot": "4",
						"type": "t_mapping(t_address,t_uint256)"
					}
				],
				"types": {
					"t_address": {
						"encoding": "inplace",
						"label": "address",
						"numberOfBytes": "20"
					},
					"t_bytes32": {
						"encoding": "inplace",
						"label": "bytes32",
						"numberOfBytes": "32"
					},
					"t_mapping(t_address,t_mapping(t_address,t_uint256))": {
						"encoding": "mapping",
						"key": "t_address",
						"label": "mapping(address => mapping(address => uint256))",
						"numberOfBytes": "32",
						"value": "t_mapping(t_address,t_uint256)"
					},
					"t_mapping(t_address,t_uint256)": {
						"encoding": "mapping",
						"key": "t_address",
						"label": "mapping(address => uint256)",
						"numberOfBytes": "32",
						"value": "t_uint256"
					},
					"t_uint256": {
						"encoding": "inplace",
						"label": "uint256",
						"numberOfBytes": "32"
					}
				}
			},
			"userdoc": {
				"kind": "user",
				"methods": {},
				"version": 1
			}
		}
	}
}